{
	"Contract_Conqueror_Series/ERC20standards.sol": {
		"BasicToken": {
			"abi": [
				{
					"inputs": [
						{
							"internalType": "string",
							"name": "_name",
							"type": "string"
						},
						{
							"internalType": "string",
							"name": "_symbol",
							"type": "string"
						},
						{
							"internalType": "uint256",
							"name": "initialSupply",
							"type": "uint256"
						}
					],
					"stateMutability": "nonpayable",
					"type": "constructor"
				},
				{
					"anonymous": false,
					"inputs": [
						{
							"indexed": true,
							"internalType": "address",
							"name": "owner",
							"type": "address"
						},
						{
							"indexed": true,
							"internalType": "address",
							"name": "spender",
							"type": "address"
						},
						{
							"indexed": false,
							"internalType": "uint256",
							"name": "amount",
							"type": "uint256"
						}
					],
					"name": "Approval",
					"type": "event"
				},
				{
					"anonymous": false,
					"inputs": [
						{
							"indexed": true,
							"internalType": "address",
							"name": "burner",
							"type": "address"
						},
						{
							"indexed": false,
							"internalType": "uint256",
							"name": "amount",
							"type": "uint256"
						}
					],
					"name": "Burn",
					"type": "event"
				},
				{
					"anonymous": false,
					"inputs": [
						{
							"indexed": true,
							"internalType": "address",
							"name": "from",
							"type": "address"
						},
						{
							"indexed": true,
							"internalType": "address",
							"name": "to",
							"type": "address"
						},
						{
							"indexed": false,
							"internalType": "uint256",
							"name": "amount",
							"type": "uint256"
						}
					],
					"name": "Transfer",
					"type": "event"
				},
				{
					"inputs": [
						{
							"internalType": "address",
							"name": "tokenOwner",
							"type": "address"
						},
						{
							"internalType": "address",
							"name": "spender",
							"type": "address"
						}
					],
					"name": "allowance",
					"outputs": [
						{
							"internalType": "uint256",
							"name": "",
							"type": "uint256"
						}
					],
					"stateMutability": "view",
					"type": "function"
				},
				{
					"inputs": [
						{
							"internalType": "address",
							"name": "spender",
							"type": "address"
						},
						{
							"internalType": "uint256",
							"name": "amount",
							"type": "uint256"
						}
					],
					"name": "approve",
					"outputs": [
						{
							"internalType": "bool",
							"name": "",
							"type": "bool"
						}
					],
					"stateMutability": "nonpayable",
					"type": "function"
				},
				{
					"inputs": [
						{
							"internalType": "address",
							"name": "account",
							"type": "address"
						}
					],
					"name": "balanceOf",
					"outputs": [
						{
							"internalType": "uint256",
							"name": "",
							"type": "uint256"
						}
					],
					"stateMutability": "view",
					"type": "function"
				},
				{
					"inputs": [
						{
							"internalType": "uint256",
							"name": "amount",
							"type": "uint256"
						}
					],
					"name": "burn",
					"outputs": [],
					"stateMutability": "nonpayable",
					"type": "function"
				},
				{
					"inputs": [
						{
							"internalType": "address",
							"name": "account",
							"type": "address"
						},
						{
							"internalType": "uint256",
							"name": "amount",
							"type": "uint256"
						}
					],
					"name": "burnForm",
					"outputs": [],
					"stateMutability": "nonpayable",
					"type": "function"
				},
				{
					"inputs": [],
					"name": "decimals",
					"outputs": [
						{
							"internalType": "uint8",
							"name": "",
							"type": "uint8"
						}
					],
					"stateMutability": "view",
					"type": "function"
				},
				{
					"inputs": [
						{
							"internalType": "address",
							"name": "to",
							"type": "address"
						},
						{
							"internalType": "uint256",
							"name": "amount",
							"type": "uint256"
						}
					],
					"name": "mint",
					"outputs": [],
					"stateMutability": "nonpayable",
					"type": "function"
				},
				{
					"inputs": [],
					"name": "name",
					"outputs": [
						{
							"internalType": "string",
							"name": "",
							"type": "string"
						}
					],
					"stateMutability": "view",
					"type": "function"
				},
				{
					"inputs": [],
					"name": "owner",
					"outputs": [
						{
							"internalType": "address",
							"name": "",
							"type": "address"
						}
					],
					"stateMutability": "view",
					"type": "function"
				},
				{
					"inputs": [],
					"name": "paused",
					"outputs": [
						{
							"internalType": "bool",
							"name": "",
							"type": "bool"
						}
					],
					"stateMutability": "view",
					"type": "function"
				},
				{
					"inputs": [],
					"name": "symbol",
					"outputs": [
						{
							"internalType": "string",
							"name": "",
							"type": "string"
						}
					],
					"stateMutability": "view",
					"type": "function"
				},
				{
					"inputs": [],
					"name": "totalsupply",
					"outputs": [
						{
							"internalType": "uint256",
							"name": "",
							"type": "uint256"
						}
					],
					"stateMutability": "view",
					"type": "function"
				},
				{
					"inputs": [
						{
							"internalType": "address",
							"name": "to",
							"type": "address"
						},
						{
							"internalType": "uint256",
							"name": "amount",
							"type": "uint256"
						}
					],
					"name": "transfer",
					"outputs": [
						{
							"internalType": "bool",
							"name": "",
							"type": "bool"
						}
					],
					"stateMutability": "nonpayable",
					"type": "function"
				},
				{
					"inputs": [
						{
							"internalType": "address",
							"name": "from",
							"type": "address"
						},
						{
							"internalType": "address",
							"name": "to",
							"type": "address"
						},
						{
							"internalType": "uint256",
							"name": "amount",
							"type": "uint256"
						}
					],
					"name": "transferFrom",
					"outputs": [
						{
							"internalType": "bool",
							"name": "",
							"type": "bool"
						}
					],
					"stateMutability": "nonpayable",
					"type": "function"
				}
			],
			"devdoc": {
				"kind": "dev",
				"methods": {
					"burn(uint256)": {
						"params": {
							"amount": "Amount to burn (in smallest unit)"
						}
					},
					"burnForm(address,uint256)": {
						"params": {
							"account": "Address to burn from",
							"amount": "Amount to burn (in smallest unit)"
						}
					},
					"constructor": {
						"details": "Restrict function if address is time-locked"
					}
				},
				"stateVariables": {
					"_balances": {
						"details": "Balances and allowances"
					}
				},
				"title": "Contract Conqueror day1",
				"version": 1
			},
			"evm": {
				"assembly": "    /* \"Contract_Conqueror_Series/ERC20standards.sol\":98:6107  contract BasicToken {... */\n  mstore(0x40, 0xa0)\n    /* \"Contract_Conqueror_Series/ERC20standards.sol\":232:234  18 */\n  0x12\n    /* \"Contract_Conqueror_Series/ERC20standards.sol\":208:234  uint8 public decimals = 18 */\n  0x02\n  exp(0x0100, 0x00)\n  dup2\n  sload\n  dup2\n  0xff\n  mul\n  not\n  and\n  swap1\n  dup4\n  0xff\n  and\n  mul\n  or\n  swap1\n  sstore\n  pop\n    /* \"Contract_Conqueror_Series/ERC20standards.sol\":363:368  false */\n  0x00\n    /* \"Contract_Conqueror_Series/ERC20standards.sol\":342:368  bool public paused = false */\n  0x04\n  exp(0x0100, 0x14)\n  dup2\n  sload\n  dup2\n  0xff\n  mul\n  not\n  and\n  swap1\n  dup4\n  iszero\n  iszero\n  mul\n  or\n  swap1\n  sstore\n  pop\n    /* \"Contract_Conqueror_Series/ERC20standards.sol\":1498:1760  constructor(... */\n  callvalue\n  dup1\n  iszero\n  tag_1\n  jumpi\n  revert(0x00, 0x00)\ntag_1:\n  pop\n  mload(0x40)\n  sub(codesize, bytecodeSize)\n  dup1\n  bytecodeSize\n  dup4\n  codecopy\n  dup2\n  dup2\n  add\n  0x40\n  mstore\n  dup2\n  add\n  swap1\n  tag_2\n  swap2\n  swap1\n  tag_3\n  jump\t// in\ntag_2:\n    /* \"Contract_Conqueror_Series/ERC20standards.sol\":1622:1627  _name */\n  dup3\n    /* \"Contract_Conqueror_Series/ERC20standards.sol\":1615:1619  name */\n  0x00\n    /* \"Contract_Conqueror_Series/ERC20standards.sol\":1615:1627  name = _name */\n  swap1\n  dup2\n  tag_6\n  swap2\n  swap1\n  tag_7\n  jump\t// in\ntag_6:\n  pop\n    /* \"Contract_Conqueror_Series/ERC20standards.sol\":1647:1654  _symbol */\n  dup2\n    /* \"Contract_Conqueror_Series/ERC20standards.sol\":1638:1644  symbol */\n  0x01\n    /* \"Contract_Conqueror_Series/ERC20standards.sol\":1638:1654  symbol = _symbol */\n  swap1\n  dup2\n  tag_8\n  swap2\n  swap1\n  tag_7\n  jump\t// in\ntag_8:\n  pop\n    /* \"Contract_Conqueror_Series/ERC20standards.sol\":1677:1687  msg.sender */\n  caller\n    /* \"Contract_Conqueror_Series/ERC20standards.sol\":1669:1674  owner */\n  0x04\n  0x00\n    /* \"Contract_Conqueror_Series/ERC20standards.sol\":1669:1687  owner = msg.sender */\n  0x0100\n  exp\n  dup2\n  sload\n  dup2\n  0xffffffffffffffffffffffffffffffffffffffff\n  mul\n  not\n  and\n  swap1\n  dup4\n  0xffffffffffffffffffffffffffffffffffffffff\n  and\n  mul\n  or\n  swap1\n  sstore\n  pop\n    /* \"Contract_Conqueror_Series/ERC20standards.sol\":1698:1752  _mint(owner,initialSupply * (10 ** uint256(decimals))) */\n  tag_9\n    /* \"Contract_Conqueror_Series/ERC20standards.sol\":1704:1709  owner */\n  0x04\n  0x00\n  swap1\n  sload\n  swap1\n  0x0100\n  exp\n  swap1\n  div\n  0xffffffffffffffffffffffffffffffffffffffff\n  and\n    /* \"Contract_Conqueror_Series/ERC20standards.sol\":1741:1749  decimals */\n  0x02\n  0x00\n  swap1\n  sload\n  swap1\n  0x0100\n  exp\n  swap1\n  div\n  0xff\n  and\n    /* \"Contract_Conqueror_Series/ERC20standards.sol\":1733:1750  uint256(decimals) */\n  0xff\n  and\n    /* \"Contract_Conqueror_Series/ERC20standards.sol\":1727:1729  10 */\n  0x0a\n    /* \"Contract_Conqueror_Series/ERC20standards.sol\":1727:1750  10 ** uint256(decimals) */\n  tag_10\n  swap2\n  swap1\n  tag_11\n  jump\t// in\ntag_10:\n    /* \"Contract_Conqueror_Series/ERC20standards.sol\":1710:1723  initialSupply */\n  dup4\n    /* \"Contract_Conqueror_Series/ERC20standards.sol\":1710:1751  initialSupply * (10 ** uint256(decimals)) */\n  tag_12\n  swap2\n  swap1\n  tag_13\n  jump\t// in\ntag_12:\n    /* \"Contract_Conqueror_Series/ERC20standards.sol\":1698:1703  _mint */\n  shl(0x20, tag_14)\n    /* \"Contract_Conqueror_Series/ERC20standards.sol\":1698:1752  _mint(owner,initialSupply * (10 ** uint256(decimals))) */\n  0x20\n  shr\n  jump\t// in\ntag_9:\n    /* \"Contract_Conqueror_Series/ERC20standards.sol\":1498:1760  constructor(... */\n  pop\n  pop\n  pop\n    /* \"Contract_Conqueror_Series/ERC20standards.sol\":98:6107  contract BasicToken {... */\n  jump(tag_15)\n    /* \"Contract_Conqueror_Series/ERC20standards.sol\":4663:4892  function _mint(address to, uint256 amount) internal{... */\ntag_14:\n    /* \"Contract_Conqueror_Series/ERC20standards.sol\":4747:4748  0 */\n  0x00\n    /* \"Contract_Conqueror_Series/ERC20standards.sol\":4733:4749  to != address(0) */\n  0xffffffffffffffffffffffffffffffffffffffff\n  and\n    /* \"Contract_Conqueror_Series/ERC20standards.sol\":4733:4735  to */\n  dup3\n    /* \"Contract_Conqueror_Series/ERC20standards.sol\":4733:4749  to != address(0) */\n  0xffffffffffffffffffffffffffffffffffffffff\n  and\n  sub\n    /* \"Contract_Conqueror_Series/ERC20standards.sol\":4725:4769  require(to != address(0), \"Invalid address\") */\n  tag_17\n  jumpi\n  mload(0x40)\n  0x08c379a000000000000000000000000000000000000000000000000000000000\n  dup2\n  mstore\n  0x04\n  add\n  tag_18\n  swap1\n  tag_19\n  jump\t// in\ntag_18:\n  mload(0x40)\n  dup1\n  swap2\n  sub\n  swap1\n  revert\ntag_17:\n    /* \"Contract_Conqueror_Series/ERC20standards.sol\":4796:4802  amount */\n  dup1\n    /* \"Contract_Conqueror_Series/ERC20standards.sol\":4780:4792  _totalsupply */\n  0x03\n  0x00\n    /* \"Contract_Conqueror_Series/ERC20standards.sol\":4780:4802  _totalsupply += amount */\n  dup3\n  dup3\n  sload\n  tag_20\n  swap2\n  swap1\n  tag_21\n  jump\t// in\ntag_20:\n  swap3\n  pop\n  pop\n  dup2\n  swap1\n  sstore\n  pop\n    /* \"Contract_Conqueror_Series/ERC20standards.sol\":4830:4836  amount */\n  dup1\n    /* \"Contract_Conqueror_Series/ERC20standards.sol\":4813:4822  _balances */\n  0x05\n    /* \"Contract_Conqueror_Series/ERC20standards.sol\":4813:4826  _balances[to] */\n  0x00\n    /* \"Contract_Conqueror_Series/ERC20standards.sol\":4823:4825  to */\n  dup5\n    /* \"Contract_Conqueror_Series/ERC20standards.sol\":4813:4826  _balances[to] */\n  0xffffffffffffffffffffffffffffffffffffffff\n  and\n  0xffffffffffffffffffffffffffffffffffffffff\n  and\n  dup2\n  mstore\n  0x20\n  add\n  swap1\n  dup2\n  mstore\n  0x20\n  add\n  0x00\n  keccak256\n  0x00\n    /* \"Contract_Conqueror_Series/ERC20standards.sol\":4813:4836  _balances[to] += amount */\n  dup3\n  dup3\n  sload\n  tag_22\n  swap2\n  swap1\n  tag_21\n  jump\t// in\ntag_22:\n  swap3\n  pop\n  pop\n  dup2\n  swap1\n  sstore\n  pop\n    /* \"Contract_Conqueror_Series/ERC20standards.sol\":4873:4875  to */\n  dup2\n    /* \"Contract_Conqueror_Series/ERC20standards.sol\":4852:4884  Transfer(address(0), to, amount) */\n  0xffffffffffffffffffffffffffffffffffffffff\n  and\n    /* \"Contract_Conqueror_Series/ERC20standards.sol\":4869:4870  0 */\n  0x00\n    /* \"Contract_Conqueror_Series/ERC20standards.sol\":4852:4884  Transfer(address(0), to, amount) */\n  0xffffffffffffffffffffffffffffffffffffffff\n  and\n  0xddf252ad1be2c89b69c2b068fc378daa952ba7f163c4a11628f55a4df523b3ef\n    /* \"Contract_Conqueror_Series/ERC20standards.sol\":4877:4883  amount */\n  dup4\n    /* \"Contract_Conqueror_Series/ERC20standards.sol\":4852:4884  Transfer(address(0), to, amount) */\n  mload(0x40)\n  tag_23\n  swap2\n  swap1\n  tag_24\n  jump\t// in\ntag_23:\n  mload(0x40)\n  dup1\n  swap2\n  sub\n  swap1\n  log3\n    /* \"Contract_Conqueror_Series/ERC20standards.sol\":4663:4892  function _mint(address to, uint256 amount) internal{... */\n  pop\n  pop\n  jump\t// out\n    /* \"#utility.yul\":7:82   */\ntag_25:\n    /* \"#utility.yul\":40:46   */\n  0x00\n    /* \"#utility.yul\":73:75   */\n  0x40\n    /* \"#utility.yul\":67:76   */\n  mload\n    /* \"#utility.yul\":57:76   */\n  swap1\n  pop\n    /* \"#utility.yul\":7:82   */\n  swap1\n  jump\t// out\n    /* \"#utility.yul\":88:205   */\ntag_26:\n    /* \"#utility.yul\":197:198   */\n  0x00\n    /* \"#utility.yul\":194:195   */\n  0x00\n    /* \"#utility.yul\":187:199   */\n  revert\n    /* \"#utility.yul\":211:328   */\ntag_27:\n    /* \"#utility.yul\":320:321   */\n  0x00\n    /* \"#utility.yul\":317:318   */\n  0x00\n    /* \"#utility.yul\":310:322   */\n  revert\n    /* \"#utility.yul\":334:451   */\ntag_28:\n    /* \"#utility.yul\":443:444   */\n  0x00\n    /* \"#utility.yul\":440:441   */\n  0x00\n    /* \"#utility.yul\":433:445   */\n  revert\n    /* \"#utility.yul\":457:574   */\ntag_29:\n    /* \"#utility.yul\":566:567   */\n  0x00\n    /* \"#utility.yul\":563:564   */\n  0x00\n    /* \"#utility.yul\":556:568   */\n  revert\n    /* \"#utility.yul\":580:682   */\ntag_30:\n    /* \"#utility.yul\":621:627   */\n  0x00\n    /* \"#utility.yul\":672:674   */\n  0x1f\n    /* \"#utility.yul\":668:675   */\n  not\n    /* \"#utility.yul\":663:665   */\n  0x1f\n    /* \"#utility.yul\":656:661   */\n  dup4\n    /* \"#utility.yul\":652:666   */\n  add\n    /* \"#utility.yul\":648:676   */\n  and\n    /* \"#utility.yul\":638:676   */\n  swap1\n  pop\n    /* \"#utility.yul\":580:682   */\n  swap2\n  swap1\n  pop\n  jump\t// out\n    /* \"#utility.yul\":688:868   */\ntag_31:\n    /* \"#utility.yul\":736:813   */\n  0x4e487b7100000000000000000000000000000000000000000000000000000000\n    /* \"#utility.yul\":733:734   */\n  0x00\n    /* \"#utility.yul\":726:814   */\n  mstore\n    /* \"#utility.yul\":833:837   */\n  0x41\n    /* \"#utility.yul\":830:831   */\n  0x04\n    /* \"#utility.yul\":823:838   */\n  mstore\n    /* \"#utility.yul\":857:861   */\n  0x24\n    /* \"#utility.yul\":854:855   */\n  0x00\n    /* \"#utility.yul\":847:862   */\n  revert\n    /* \"#utility.yul\":874:1155   */\ntag_32:\n    /* \"#utility.yul\":957:984   */\n  tag_76\n    /* \"#utility.yul\":979:983   */\n  dup3\n    /* \"#utility.yul\":957:984   */\n  tag_30\n  jump\t// in\ntag_76:\n    /* \"#utility.yul\":949:955   */\n  dup2\n    /* \"#utility.yul\":945:985   */\n  add\n    /* \"#utility.yul\":1087:1093   */\n  dup2\n    /* \"#utility.yul\":1075:1085   */\n  dup2\n    /* \"#utility.yul\":1072:1094   */\n  lt\n    /* \"#utility.yul\":1051:1069   */\n  0xffffffffffffffff\n    /* \"#utility.yul\":1039:1049   */\n  dup3\n    /* \"#utility.yul\":1036:1070   */\n  gt\n    /* \"#utility.yul\":1033:1095   */\n  or\n    /* \"#utility.yul\":1030:1118   */\n  iszero\n  tag_77\n  jumpi\n    /* \"#utility.yul\":1098:1116   */\n  tag_78\n  tag_31\n  jump\t// in\ntag_78:\n    /* \"#utility.yul\":1030:1118   */\ntag_77:\n    /* \"#utility.yul\":1138:1148   */\n  dup1\n    /* \"#utility.yul\":1134:1136   */\n  0x40\n    /* \"#utility.yul\":1127:1149   */\n  mstore\n    /* \"#utility.yul\":917:1155   */\n  pop\n    /* \"#utility.yul\":874:1155   */\n  pop\n  pop\n  jump\t// out\n    /* \"#utility.yul\":1161:1290   */\ntag_33:\n    /* \"#utility.yul\":1195:1201   */\n  0x00\n    /* \"#utility.yul\":1222:1242   */\n  tag_80\n  tag_25\n  jump\t// in\ntag_80:\n    /* \"#utility.yul\":1212:1242   */\n  swap1\n  pop\n    /* \"#utility.yul\":1251:1284   */\n  tag_81\n    /* \"#utility.yul\":1279:1283   */\n  dup3\n    /* \"#utility.yul\":1271:1277   */\n  dup3\n    /* \"#utility.yul\":1251:1284   */\n  tag_32\n  jump\t// in\ntag_81:\n    /* \"#utility.yul\":1161:1290   */\n  swap2\n  swap1\n  pop\n  jump\t// out\n    /* \"#utility.yul\":1296:1604   */\ntag_34:\n    /* \"#utility.yul\":1358:1362   */\n  0x00\n    /* \"#utility.yul\":1448:1466   */\n  0xffffffffffffffff\n    /* \"#utility.yul\":1440:1446   */\n  dup3\n    /* \"#utility.yul\":1437:1467   */\n  gt\n    /* \"#utility.yul\":1434:1490   */\n  iszero\n  tag_83\n  jumpi\n    /* \"#utility.yul\":1470:1488   */\n  tag_84\n  tag_31\n  jump\t// in\ntag_84:\n    /* \"#utility.yul\":1434:1490   */\ntag_83:\n    /* \"#utility.yul\":1508:1537   */\n  tag_85\n    /* \"#utility.yul\":1530:1536   */\n  dup3\n    /* \"#utility.yul\":1508:1537   */\n  tag_30\n  jump\t// in\ntag_85:\n    /* \"#utility.yul\":1500:1537   */\n  swap1\n  pop\n    /* \"#utility.yul\":1592:1596   */\n  0x20\n    /* \"#utility.yul\":1586:1590   */\n  dup2\n    /* \"#utility.yul\":1582:1597   */\n  add\n    /* \"#utility.yul\":1574:1597   */\n  swap1\n  pop\n    /* \"#utility.yul\":1296:1604   */\n  swap2\n  swap1\n  pop\n  jump\t// out\n    /* \"#utility.yul\":1610:1749   */\ntag_35:\n    /* \"#utility.yul\":1699:1705   */\n  dup3\n    /* \"#utility.yul\":1694:1697   */\n  dup2\n    /* \"#utility.yul\":1689:1692   */\n  dup4\n    /* \"#utility.yul\":1683:1706   */\n  mcopy\n    /* \"#utility.yul\":1740:1741   */\n  0x00\n    /* \"#utility.yul\":1731:1737   */\n  dup4\n    /* \"#utility.yul\":1726:1729   */\n  dup4\n    /* \"#utility.yul\":1722:1738   */\n  add\n    /* \"#utility.yul\":1715:1742   */\n  mstore\n    /* \"#utility.yul\":1610:1749   */\n  pop\n  pop\n  pop\n  jump\t// out\n    /* \"#utility.yul\":1755:2189   */\ntag_36:\n    /* \"#utility.yul\":1844:1849   */\n  0x00\n    /* \"#utility.yul\":1869:1935   */\n  tag_88\n    /* \"#utility.yul\":1885:1934   */\n  tag_89\n    /* \"#utility.yul\":1927:1933   */\n  dup5\n    /* \"#utility.yul\":1885:1934   */\n  tag_34\n  jump\t// in\ntag_89:\n    /* \"#utility.yul\":1869:1935   */\n  tag_33\n  jump\t// in\ntag_88:\n    /* \"#utility.yul\":1860:1935   */\n  swap1\n  pop\n    /* \"#utility.yul\":1958:1964   */\n  dup3\n    /* \"#utility.yul\":1951:1956   */\n  dup2\n    /* \"#utility.yul\":1944:1965   */\n  mstore\n    /* \"#utility.yul\":1996:2000   */\n  0x20\n    /* \"#utility.yul\":1989:1994   */\n  dup2\n    /* \"#utility.yul\":1985:2001   */\n  add\n    /* \"#utility.yul\":2034:2037   */\n  dup5\n    /* \"#utility.yul\":2025:2031   */\n  dup5\n    /* \"#utility.yul\":2020:2023   */\n  dup5\n    /* \"#utility.yul\":2016:2032   */\n  add\n    /* \"#utility.yul\":2013:2038   */\n  gt\n    /* \"#utility.yul\":2010:2122   */\n  iszero\n  tag_90\n  jumpi\n    /* \"#utility.yul\":2041:2120   */\n  tag_91\n  tag_29\n  jump\t// in\ntag_91:\n    /* \"#utility.yul\":2010:2122   */\ntag_90:\n    /* \"#utility.yul\":2131:2183   */\n  tag_92\n    /* \"#utility.yul\":2176:2182   */\n  dup5\n    /* \"#utility.yul\":2171:2174   */\n  dup3\n    /* \"#utility.yul\":2166:2169   */\n  dup6\n    /* \"#utility.yul\":2131:2183   */\n  tag_35\n  jump\t// in\ntag_92:\n    /* \"#utility.yul\":1850:2189   */\n  pop\n    /* \"#utility.yul\":1755:2189   */\n  swap4\n  swap3\n  pop\n  pop\n  pop\n  jump\t// out\n    /* \"#utility.yul\":2209:2564   */\ntag_37:\n    /* \"#utility.yul\":2276:2281   */\n  0x00\n    /* \"#utility.yul\":2325:2328   */\n  dup3\n    /* \"#utility.yul\":2318:2322   */\n  0x1f\n    /* \"#utility.yul\":2310:2316   */\n  dup4\n    /* \"#utility.yul\":2306:2323   */\n  add\n    /* \"#utility.yul\":2302:2329   */\n  slt\n    /* \"#utility.yul\":2292:2414   */\n  tag_94\n  jumpi\n    /* \"#utility.yul\":2333:2412   */\n  tag_95\n  tag_28\n  jump\t// in\ntag_95:\n    /* \"#utility.yul\":2292:2414   */\ntag_94:\n    /* \"#utility.yul\":2443:2449   */\n  dup2\n    /* \"#utility.yul\":2437:2450   */\n  mload\n    /* \"#utility.yul\":2468:2558   */\n  tag_96\n    /* \"#utility.yul\":2554:2557   */\n  dup5\n    /* \"#utility.yul\":2546:2552   */\n  dup3\n    /* \"#utility.yul\":2539:2543   */\n  0x20\n    /* \"#utility.yul\":2531:2537   */\n  dup7\n    /* \"#utility.yul\":2527:2544   */\n  add\n    /* \"#utility.yul\":2468:2558   */\n  tag_36\n  jump\t// in\ntag_96:\n    /* \"#utility.yul\":2459:2558   */\n  swap2\n  pop\n    /* \"#utility.yul\":2282:2564   */\n  pop\n    /* \"#utility.yul\":2209:2564   */\n  swap3\n  swap2\n  pop\n  pop\n  jump\t// out\n    /* \"#utility.yul\":2570:2647   */\ntag_38:\n    /* \"#utility.yul\":2607:2614   */\n  0x00\n    /* \"#utility.yul\":2636:2641   */\n  dup2\n    /* \"#utility.yul\":2625:2641   */\n  swap1\n  pop\n    /* \"#utility.yul\":2570:2647   */\n  swap2\n  swap1\n  pop\n  jump\t// out\n    /* \"#utility.yul\":2653:2775   */\ntag_39:\n    /* \"#utility.yul\":2726:2750   */\n  tag_99\n    /* \"#utility.yul\":2744:2749   */\n  dup2\n    /* \"#utility.yul\":2726:2750   */\n  tag_38\n  jump\t// in\ntag_99:\n    /* \"#utility.yul\":2719:2724   */\n  dup2\n    /* \"#utility.yul\":2716:2751   */\n  eq\n    /* \"#utility.yul\":2706:2769   */\n  tag_100\n  jumpi\n    /* \"#utility.yul\":2765:2766   */\n  0x00\n    /* \"#utility.yul\":2762:2763   */\n  0x00\n    /* \"#utility.yul\":2755:2767   */\n  revert\n    /* \"#utility.yul\":2706:2769   */\ntag_100:\n    /* \"#utility.yul\":2653:2775   */\n  pop\n  jump\t// out\n    /* \"#utility.yul\":2781:2924   */\ntag_40:\n    /* \"#utility.yul\":2838:2843   */\n  0x00\n    /* \"#utility.yul\":2869:2875   */\n  dup2\n    /* \"#utility.yul\":2863:2876   */\n  mload\n    /* \"#utility.yul\":2854:2876   */\n  swap1\n  pop\n    /* \"#utility.yul\":2885:2918   */\n  tag_102\n    /* \"#utility.yul\":2912:2917   */\n  dup2\n    /* \"#utility.yul\":2885:2918   */\n  tag_39\n  jump\t// in\ntag_102:\n    /* \"#utility.yul\":2781:2924   */\n  swap3\n  swap2\n  pop\n  pop\n  jump\t// out\n    /* \"#utility.yul\":2930:3939   */\ntag_3:\n    /* \"#utility.yul\":3038:3044   */\n  0x00\n    /* \"#utility.yul\":3046:3052   */\n  0x00\n    /* \"#utility.yul\":3054:3060   */\n  0x00\n    /* \"#utility.yul\":3103:3105   */\n  0x60\n    /* \"#utility.yul\":3091:3100   */\n  dup5\n    /* \"#utility.yul\":3082:3089   */\n  dup7\n    /* \"#utility.yul\":3078:3101   */\n  sub\n    /* \"#utility.yul\":3074:3106   */\n  slt\n    /* \"#utility.yul\":3071:3190   */\n  iszero\n  tag_104\n  jumpi\n    /* \"#utility.yul\":3109:3188   */\n  tag_105\n  tag_26\n  jump\t// in\ntag_105:\n    /* \"#utility.yul\":3071:3190   */\ntag_104:\n    /* \"#utility.yul\":3250:3251   */\n  0x00\n    /* \"#utility.yul\":3239:3248   */\n  dup5\n    /* \"#utility.yul\":3235:3252   */\n  add\n    /* \"#utility.yul\":3229:3253   */\n  mload\n    /* \"#utility.yul\":3280:3298   */\n  0xffffffffffffffff\n    /* \"#utility.yul\":3272:3278   */\n  dup2\n    /* \"#utility.yul\":3269:3299   */\n  gt\n    /* \"#utility.yul\":3266:3383   */\n  iszero\n  tag_106\n  jumpi\n    /* \"#utility.yul\":3302:3381   */\n  tag_107\n  tag_27\n  jump\t// in\ntag_107:\n    /* \"#utility.yul\":3266:3383   */\ntag_106:\n    /* \"#utility.yul\":3407:3481   */\n  tag_108\n    /* \"#utility.yul\":3473:3480   */\n  dup7\n    /* \"#utility.yul\":3464:3470   */\n  dup3\n    /* \"#utility.yul\":3453:3462   */\n  dup8\n    /* \"#utility.yul\":3449:3471   */\n  add\n    /* \"#utility.yul\":3407:3481   */\n  tag_37\n  jump\t// in\ntag_108:\n    /* \"#utility.yul\":3397:3481   */\n  swap4\n  pop\n    /* \"#utility.yul\":3200:3491   */\n  pop\n    /* \"#utility.yul\":3551:3553   */\n  0x20\n    /* \"#utility.yul\":3540:3549   */\n  dup5\n    /* \"#utility.yul\":3536:3554   */\n  add\n    /* \"#utility.yul\":3530:3555   */\n  mload\n    /* \"#utility.yul\":3582:3600   */\n  0xffffffffffffffff\n    /* \"#utility.yul\":3574:3580   */\n  dup2\n    /* \"#utility.yul\":3571:3601   */\n  gt\n    /* \"#utility.yul\":3568:3685   */\n  iszero\n  tag_109\n  jumpi\n    /* \"#utility.yul\":3604:3683   */\n  tag_110\n  tag_27\n  jump\t// in\ntag_110:\n    /* \"#utility.yul\":3568:3685   */\ntag_109:\n    /* \"#utility.yul\":3709:3783   */\n  tag_111\n    /* \"#utility.yul\":3775:3782   */\n  dup7\n    /* \"#utility.yul\":3766:3772   */\n  dup3\n    /* \"#utility.yul\":3755:3764   */\n  dup8\n    /* \"#utility.yul\":3751:3773   */\n  add\n    /* \"#utility.yul\":3709:3783   */\n  tag_37\n  jump\t// in\ntag_111:\n    /* \"#utility.yul\":3699:3783   */\n  swap3\n  pop\n    /* \"#utility.yul\":3501:3793   */\n  pop\n    /* \"#utility.yul\":3832:3834   */\n  0x40\n    /* \"#utility.yul\":3858:3922   */\n  tag_112\n    /* \"#utility.yul\":3914:3921   */\n  dup7\n    /* \"#utility.yul\":3905:3911   */\n  dup3\n    /* \"#utility.yul\":3894:3903   */\n  dup8\n    /* \"#utility.yul\":3890:3912   */\n  add\n    /* \"#utility.yul\":3858:3922   */\n  tag_40\n  jump\t// in\ntag_112:\n    /* \"#utility.yul\":3848:3922   */\n  swap2\n  pop\n    /* \"#utility.yul\":3803:3932   */\n  pop\n    /* \"#utility.yul\":2930:3939   */\n  swap3\n  pop\n  swap3\n  pop\n  swap3\n  jump\t// out\n    /* \"#utility.yul\":3945:4044   */\ntag_41:\n    /* \"#utility.yul\":3997:4003   */\n  0x00\n    /* \"#utility.yul\":4031:4036   */\n  dup2\n    /* \"#utility.yul\":4025:4037   */\n  mload\n    /* \"#utility.yul\":4015:4037   */\n  swap1\n  pop\n    /* \"#utility.yul\":3945:4044   */\n  swap2\n  swap1\n  pop\n  jump\t// out\n    /* \"#utility.yul\":4050:4230   */\ntag_42:\n    /* \"#utility.yul\":4098:4175   */\n  0x4e487b7100000000000000000000000000000000000000000000000000000000\n    /* \"#utility.yul\":4095:4096   */\n  0x00\n    /* \"#utility.yul\":4088:4176   */\n  mstore\n    /* \"#utility.yul\":4195:4199   */\n  0x22\n    /* \"#utility.yul\":4192:4193   */\n  0x04\n    /* \"#utility.yul\":4185:4200   */\n  mstore\n    /* \"#utility.yul\":4219:4223   */\n  0x24\n    /* \"#utility.yul\":4216:4217   */\n  0x00\n    /* \"#utility.yul\":4209:4224   */\n  revert\n    /* \"#utility.yul\":4236:4556   */\ntag_43:\n    /* \"#utility.yul\":4280:4286   */\n  0x00\n    /* \"#utility.yul\":4317:4318   */\n  0x02\n    /* \"#utility.yul\":4311:4315   */\n  dup3\n    /* \"#utility.yul\":4307:4319   */\n  div\n    /* \"#utility.yul\":4297:4319   */\n  swap1\n  pop\n    /* \"#utility.yul\":4364:4365   */\n  0x01\n    /* \"#utility.yul\":4358:4362   */\n  dup3\n    /* \"#utility.yul\":4354:4366   */\n  and\n    /* \"#utility.yul\":4385:4403   */\n  dup1\n    /* \"#utility.yul\":4375:4456   */\n  tag_116\n  jumpi\n    /* \"#utility.yul\":4441:4445   */\n  0x7f\n    /* \"#utility.yul\":4433:4439   */\n  dup3\n    /* \"#utility.yul\":4429:4446   */\n  and\n    /* \"#utility.yul\":4419:4446   */\n  swap2\n  pop\n    /* \"#utility.yul\":4375:4456   */\ntag_116:\n    /* \"#utility.yul\":4503:4505   */\n  0x20\n    /* \"#utility.yul\":4495:4501   */\n  dup3\n    /* \"#utility.yul\":4492:4506   */\n  lt\n    /* \"#utility.yul\":4472:4490   */\n  dup2\n    /* \"#utility.yul\":4469:4507   */\n  sub\n    /* \"#utility.yul\":4466:4550   */\n  tag_117\n  jumpi\n    /* \"#utility.yul\":4522:4540   */\n  tag_118\n  tag_42\n  jump\t// in\ntag_118:\n    /* \"#utility.yul\":4466:4550   */\ntag_117:\n    /* \"#utility.yul\":4287:4556   */\n  pop\n    /* \"#utility.yul\":4236:4556   */\n  swap2\n  swap1\n  pop\n  jump\t// out\n    /* \"#utility.yul\":4562:4703   */\ntag_44:\n    /* \"#utility.yul\":4611:4615   */\n  0x00\n    /* \"#utility.yul\":4634:4637   */\n  dup2\n    /* \"#utility.yul\":4626:4637   */\n  swap1\n  pop\n    /* \"#utility.yul\":4657:4660   */\n  dup2\n    /* \"#utility.yul\":4654:4655   */\n  0x00\n    /* \"#utility.yul\":4647:4661   */\n  mstore\n    /* \"#utility.yul\":4691:4695   */\n  0x20\n    /* \"#utility.yul\":4688:4689   */\n  0x00\n    /* \"#utility.yul\":4678:4696   */\n  keccak256\n    /* \"#utility.yul\":4670:4696   */\n  swap1\n  pop\n    /* \"#utility.yul\":4562:4703   */\n  swap2\n  swap1\n  pop\n  jump\t// out\n    /* \"#utility.yul\":4709:4802   */\ntag_45:\n    /* \"#utility.yul\":4746:4752   */\n  0x00\n    /* \"#utility.yul\":4793:4795   */\n  0x20\n    /* \"#utility.yul\":4788:4790   */\n  0x1f\n    /* \"#utility.yul\":4781:4786   */\n  dup4\n    /* \"#utility.yul\":4777:4791   */\n  add\n    /* \"#utility.yul\":4773:4796   */\n  div\n    /* \"#utility.yul\":4763:4796   */\n  swap1\n  pop\n    /* \"#utility.yul\":4709:4802   */\n  swap2\n  swap1\n  pop\n  jump\t// out\n    /* \"#utility.yul\":4808:4915   */\ntag_46:\n    /* \"#utility.yul\":4852:4860   */\n  0x00\n    /* \"#utility.yul\":4902:4907   */\n  dup3\n    /* \"#utility.yul\":4896:4900   */\n  dup3\n    /* \"#utility.yul\":4892:4908   */\n  shl\n    /* \"#utility.yul\":4871:4908   */\n  swap1\n  pop\n    /* \"#utility.yul\":4808:4915   */\n  swap3\n  swap2\n  pop\n  pop\n  jump\t// out\n    /* \"#utility.yul\":4921:5314   */\ntag_47:\n    /* \"#utility.yul\":4990:4996   */\n  0x00\n    /* \"#utility.yul\":5040:5041   */\n  0x08\n    /* \"#utility.yul\":5028:5038   */\n  dup4\n    /* \"#utility.yul\":5024:5042   */\n  mul\n    /* \"#utility.yul\":5063:5160   */\n  tag_123\n    /* \"#utility.yul\":5093:5159   */\n  0xffffffffffffffffffffffffffffffffffffffffffffffffffffffffffffffff\n    /* \"#utility.yul\":5082:5091   */\n  dup3\n    /* \"#utility.yul\":5063:5160   */\n  tag_46\n  jump\t// in\ntag_123:\n    /* \"#utility.yul\":5181:5220   */\n  tag_124\n    /* \"#utility.yul\":5211:5219   */\n  dup7\n    /* \"#utility.yul\":5200:5209   */\n  dup4\n    /* \"#utility.yul\":5181:5220   */\n  tag_46\n  jump\t// in\ntag_124:\n    /* \"#utility.yul\":5169:5220   */\n  swap6\n  pop\n    /* \"#utility.yul\":5253:5257   */\n  dup1\n    /* \"#utility.yul\":5249:5258   */\n  not\n    /* \"#utility.yul\":5242:5247   */\n  dup5\n    /* \"#utility.yul\":5238:5259   */\n  and\n    /* \"#utility.yul\":5229:5259   */\n  swap4\n  pop\n    /* \"#utility.yul\":5302:5306   */\n  dup1\n    /* \"#utility.yul\":5292:5300   */\n  dup7\n    /* \"#utility.yul\":5288:5307   */\n  and\n    /* \"#utility.yul\":5281:5286   */\n  dup5\n    /* \"#utility.yul\":5278:5308   */\n  or\n    /* \"#utility.yul\":5268:5308   */\n  swap3\n  pop\n    /* \"#utility.yul\":4997:5314   */\n  pop\n  pop\n    /* \"#utility.yul\":4921:5314   */\n  swap4\n  swap3\n  pop\n  pop\n  pop\n  jump\t// out\n    /* \"#utility.yul\":5320:5380   */\ntag_48:\n    /* \"#utility.yul\":5348:5351   */\n  0x00\n    /* \"#utility.yul\":5369:5374   */\n  dup2\n    /* \"#utility.yul\":5362:5374   */\n  swap1\n  pop\n    /* \"#utility.yul\":5320:5380   */\n  swap2\n  swap1\n  pop\n  jump\t// out\n    /* \"#utility.yul\":5386:5528   */\ntag_49:\n    /* \"#utility.yul\":5436:5445   */\n  0x00\n    /* \"#utility.yul\":5469:5522   */\n  tag_127\n    /* \"#utility.yul\":5487:5521   */\n  tag_128\n    /* \"#utility.yul\":5496:5520   */\n  tag_129\n    /* \"#utility.yul\":5514:5519   */\n  dup5\n    /* \"#utility.yul\":5496:5520   */\n  tag_38\n  jump\t// in\ntag_129:\n    /* \"#utility.yul\":5487:5521   */\n  tag_48\n  jump\t// in\ntag_128:\n    /* \"#utility.yul\":5469:5522   */\n  tag_38\n  jump\t// in\ntag_127:\n    /* \"#utility.yul\":5456:5522   */\n  swap1\n  pop\n    /* \"#utility.yul\":5386:5528   */\n  swap2\n  swap1\n  pop\n  jump\t// out\n    /* \"#utility.yul\":5534:5609   */\ntag_50:\n    /* \"#utility.yul\":5577:5580   */\n  0x00\n    /* \"#utility.yul\":5598:5603   */\n  dup2\n    /* \"#utility.yul\":5591:5603   */\n  swap1\n  pop\n    /* \"#utility.yul\":5534:5609   */\n  swap2\n  swap1\n  pop\n  jump\t// out\n    /* \"#utility.yul\":5615:5884   */\ntag_51:\n    /* \"#utility.yul\":5725:5764   */\n  tag_132\n    /* \"#utility.yul\":5756:5763   */\n  dup4\n    /* \"#utility.yul\":5725:5764   */\n  tag_49\n  jump\t// in\ntag_132:\n    /* \"#utility.yul\":5786:5877   */\n  tag_133\n    /* \"#utility.yul\":5835:5876   */\n  tag_134\n    /* \"#utility.yul\":5859:5875   */\n  dup3\n    /* \"#utility.yul\":5835:5876   */\n  tag_50\n  jump\t// in\ntag_134:\n    /* \"#utility.yul\":5827:5833   */\n  dup5\n    /* \"#utility.yul\":5820:5824   */\n  dup5\n    /* \"#utility.yul\":5814:5825   */\n  sload\n    /* \"#utility.yul\":5786:5877   */\n  tag_47\n  jump\t// in\ntag_133:\n    /* \"#utility.yul\":5780:5784   */\n  dup3\n    /* \"#utility.yul\":5773:5878   */\n  sstore\n    /* \"#utility.yul\":5691:5884   */\n  pop\n    /* \"#utility.yul\":5615:5884   */\n  pop\n  pop\n  pop\n  jump\t// out\n    /* \"#utility.yul\":5890:5963   */\ntag_52:\n    /* \"#utility.yul\":5935:5938   */\n  0x00\n    /* \"#utility.yul\":5956:5957   */\n  0x00\n    /* \"#utility.yul\":5949:5957   */\n  swap1\n  pop\n    /* \"#utility.yul\":5890:5963   */\n  swap1\n  jump\t// out\n    /* \"#utility.yul\":5969:6158   */\ntag_53:\n    /* \"#utility.yul\":6046:6078   */\n  tag_137\n  tag_52\n  jump\t// in\ntag_137:\n    /* \"#utility.yul\":6087:6152   */\n  tag_138\n    /* \"#utility.yul\":6145:6151   */\n  dup2\n    /* \"#utility.yul\":6137:6143   */\n  dup5\n    /* \"#utility.yul\":6131:6135   */\n  dup5\n    /* \"#utility.yul\":6087:6152   */\n  tag_51\n  jump\t// in\ntag_138:\n    /* \"#utility.yul\":6022:6158   */\n  pop\n    /* \"#utility.yul\":5969:6158   */\n  pop\n  pop\n  jump\t// out\n    /* \"#utility.yul\":6164:6350   */\ntag_54:\n    /* \"#utility.yul\":6224:6344   */\ntag_140:\n    /* \"#utility.yul\":6241:6244   */\n  dup2\n    /* \"#utility.yul\":6234:6239   */\n  dup2\n    /* \"#utility.yul\":6231:6245   */\n  lt\n    /* \"#utility.yul\":6224:6344   */\n  iszero\n  tag_142\n  jumpi\n    /* \"#utility.yul\":6295:6334   */\n  tag_143\n    /* \"#utility.yul\":6332:6333   */\n  0x00\n    /* \"#utility.yul\":6325:6330   */\n  dup3\n    /* \"#utility.yul\":6295:6334   */\n  tag_53\n  jump\t// in\ntag_143:\n    /* \"#utility.yul\":6268:6269   */\n  0x01\n    /* \"#utility.yul\":6261:6266   */\n  dup2\n    /* \"#utility.yul\":6257:6270   */\n  add\n    /* \"#utility.yul\":6248:6270   */\n  swap1\n  pop\n    /* \"#utility.yul\":6224:6344   */\n  jump(tag_140)\ntag_142:\n    /* \"#utility.yul\":6164:6350   */\n  pop\n  pop\n  jump\t// out\n    /* \"#utility.yul\":6356:6899   */\ntag_55:\n    /* \"#utility.yul\":6457:6459   */\n  0x1f\n    /* \"#utility.yul\":6452:6455   */\n  dup3\n    /* \"#utility.yul\":6449:6460   */\n  gt\n    /* \"#utility.yul\":6446:6892   */\n  iszero\n  tag_145\n  jumpi\n    /* \"#utility.yul\":6491:6529   */\n  tag_146\n    /* \"#utility.yul\":6523:6528   */\n  dup2\n    /* \"#utility.yul\":6491:6529   */\n  tag_44\n  jump\t// in\ntag_146:\n    /* \"#utility.yul\":6575:6604   */\n  tag_147\n    /* \"#utility.yul\":6593:6603   */\n  dup5\n    /* \"#utility.yul\":6575:6604   */\n  tag_45\n  jump\t// in\ntag_147:\n    /* \"#utility.yul\":6565:6573   */\n  dup2\n    /* \"#utility.yul\":6561:6605   */\n  add\n    /* \"#utility.yul\":6758:6760   */\n  0x20\n    /* \"#utility.yul\":6746:6756   */\n  dup6\n    /* \"#utility.yul\":6743:6761   */\n  lt\n    /* \"#utility.yul\":6740:6789   */\n  iszero\n  tag_148\n  jumpi\n    /* \"#utility.yul\":6779:6787   */\n  dup2\n    /* \"#utility.yul\":6764:6787   */\n  swap1\n  pop\n    /* \"#utility.yul\":6740:6789   */\ntag_148:\n    /* \"#utility.yul\":6802:6882   */\n  tag_149\n    /* \"#utility.yul\":6858:6880   */\n  tag_150\n    /* \"#utility.yul\":6876:6879   */\n  dup6\n    /* \"#utility.yul\":6858:6880   */\n  tag_45\n  jump\t// in\ntag_150:\n    /* \"#utility.yul\":6848:6856   */\n  dup4\n    /* \"#utility.yul\":6844:6881   */\n  add\n    /* \"#utility.yul\":6831:6842   */\n  dup3\n    /* \"#utility.yul\":6802:6882   */\n  tag_54\n  jump\t// in\ntag_149:\n    /* \"#utility.yul\":6461:6892   */\n  pop\n  pop\n    /* \"#utility.yul\":6446:6892   */\ntag_145:\n    /* \"#utility.yul\":6356:6899   */\n  pop\n  pop\n  pop\n  jump\t// out\n    /* \"#utility.yul\":6905:7022   */\ntag_56:\n    /* \"#utility.yul\":6959:6967   */\n  0x00\n    /* \"#utility.yul\":7009:7014   */\n  dup3\n    /* \"#utility.yul\":7003:7007   */\n  dup3\n    /* \"#utility.yul\":6999:7015   */\n  shr\n    /* \"#utility.yul\":6978:7015   */\n  swap1\n  pop\n    /* \"#utility.yul\":6905:7022   */\n  swap3\n  swap2\n  pop\n  pop\n  jump\t// out\n    /* \"#utility.yul\":7028:7197   */\ntag_57:\n    /* \"#utility.yul\":7072:7078   */\n  0x00\n    /* \"#utility.yul\":7105:7156   */\n  tag_153\n    /* \"#utility.yul\":7153:7154   */\n  0x00\n    /* \"#utility.yul\":7149:7155   */\n  not\n    /* \"#utility.yul\":7141:7146   */\n  dup5\n    /* \"#utility.yul\":7138:7139   */\n  0x08\n    /* \"#utility.yul\":7134:7147   */\n  mul\n    /* \"#utility.yul\":7105:7156   */\n  tag_56\n  jump\t// in\ntag_153:\n    /* \"#utility.yul\":7101:7157   */\n  not\n    /* \"#utility.yul\":7186:7190   */\n  dup1\n    /* \"#utility.yul\":7180:7184   */\n  dup4\n    /* \"#utility.yul\":7176:7191   */\n  and\n    /* \"#utility.yul\":7166:7191   */\n  swap2\n  pop\n    /* \"#utility.yul\":7079:7197   */\n  pop\n    /* \"#utility.yul\":7028:7197   */\n  swap3\n  swap2\n  pop\n  pop\n  jump\t// out\n    /* \"#utility.yul\":7202:7497   */\ntag_58:\n    /* \"#utility.yul\":7278:7282   */\n  0x00\n    /* \"#utility.yul\":7424:7453   */\n  tag_155\n    /* \"#utility.yul\":7449:7452   */\n  dup4\n    /* \"#utility.yul\":7443:7447   */\n  dup4\n    /* \"#utility.yul\":7424:7453   */\n  tag_57\n  jump\t// in\ntag_155:\n    /* \"#utility.yul\":7416:7453   */\n  swap2\n  pop\n    /* \"#utility.yul\":7486:7489   */\n  dup3\n    /* \"#utility.yul\":7483:7484   */\n  0x02\n    /* \"#utility.yul\":7479:7490   */\n  mul\n    /* \"#utility.yul\":7473:7477   */\n  dup3\n    /* \"#utility.yul\":7470:7491   */\n  or\n    /* \"#utility.yul\":7462:7491   */\n  swap1\n  pop\n    /* \"#utility.yul\":7202:7497   */\n  swap3\n  swap2\n  pop\n  pop\n  jump\t// out\n    /* \"#utility.yul\":7502:8897   */\ntag_7:\n    /* \"#utility.yul\":7619:7656   */\n  tag_157\n    /* \"#utility.yul\":7652:7655   */\n  dup3\n    /* \"#utility.yul\":7619:7656   */\n  tag_41\n  jump\t// in\ntag_157:\n    /* \"#utility.yul\":7721:7739   */\n  0xffffffffffffffff\n    /* \"#utility.yul\":7713:7719   */\n  dup2\n    /* \"#utility.yul\":7710:7740   */\n  gt\n    /* \"#utility.yul\":7707:7763   */\n  iszero\n  tag_158\n  jumpi\n    /* \"#utility.yul\":7743:7761   */\n  tag_159\n  tag_31\n  jump\t// in\ntag_159:\n    /* \"#utility.yul\":7707:7763   */\ntag_158:\n    /* \"#utility.yul\":7787:7825   */\n  tag_160\n    /* \"#utility.yul\":7819:7823   */\n  dup3\n    /* \"#utility.yul\":7813:7824   */\n  sload\n    /* \"#utility.yul\":7787:7825   */\n  tag_43\n  jump\t// in\ntag_160:\n    /* \"#utility.yul\":7872:7939   */\n  tag_161\n    /* \"#utility.yul\":7932:7938   */\n  dup3\n    /* \"#utility.yul\":7924:7930   */\n  dup3\n    /* \"#utility.yul\":7918:7922   */\n  dup6\n    /* \"#utility.yul\":7872:7939   */\n  tag_55\n  jump\t// in\ntag_161:\n    /* \"#utility.yul\":7966:7967   */\n  0x00\n    /* \"#utility.yul\":7990:7994   */\n  0x20\n    /* \"#utility.yul\":7977:7994   */\n  swap1\n  pop\n    /* \"#utility.yul\":8022:8024   */\n  0x1f\n    /* \"#utility.yul\":8014:8020   */\n  dup4\n    /* \"#utility.yul\":8011:8025   */\n  gt\n    /* \"#utility.yul\":8039:8040   */\n  0x01\n    /* \"#utility.yul\":8034:8652   */\n  dup2\n  eq\n  tag_163\n  jumpi\n    /* \"#utility.yul\":8696:8697   */\n  0x00\n    /* \"#utility.yul\":8713:8719   */\n  dup5\n    /* \"#utility.yul\":8710:8787   */\n  iszero\n  tag_164\n  jumpi\n    /* \"#utility.yul\":8762:8771   */\n  dup3\n    /* \"#utility.yul\":8757:8760   */\n  dup8\n    /* \"#utility.yul\":8753:8772   */\n  add\n    /* \"#utility.yul\":8747:8773   */\n  mload\n    /* \"#utility.yul\":8738:8773   */\n  swap1\n  pop\n    /* \"#utility.yul\":8710:8787   */\ntag_164:\n    /* \"#utility.yul\":8813:8880   */\n  tag_165\n    /* \"#utility.yul\":8873:8879   */\n  dup6\n    /* \"#utility.yul\":8866:8871   */\n  dup3\n    /* \"#utility.yul\":8813:8880   */\n  tag_58\n  jump\t// in\ntag_165:\n    /* \"#utility.yul\":8807:8811   */\n  dup7\n    /* \"#utility.yul\":8800:8881   */\n  sstore\n    /* \"#utility.yul\":8669:8891   */\n  pop\n    /* \"#utility.yul\":8004:8891   */\n  jump(tag_162)\n    /* \"#utility.yul\":8034:8652   */\ntag_163:\n    /* \"#utility.yul\":8086:8090   */\n  0x1f\n    /* \"#utility.yul\":8082:8091   */\n  not\n    /* \"#utility.yul\":8074:8080   */\n  dup5\n    /* \"#utility.yul\":8070:8092   */\n  and\n    /* \"#utility.yul\":8120:8157   */\n  tag_166\n    /* \"#utility.yul\":8152:8156   */\n  dup7\n    /* \"#utility.yul\":8120:8157   */\n  tag_44\n  jump\t// in\ntag_166:\n    /* \"#utility.yul\":8179:8180   */\n  0x00\n    /* \"#utility.yul\":8193:8401   */\ntag_167:\n    /* \"#utility.yul\":8207:8214   */\n  dup3\n    /* \"#utility.yul\":8204:8205   */\n  dup2\n    /* \"#utility.yul\":8201:8215   */\n  lt\n    /* \"#utility.yul\":8193:8401   */\n  iszero\n  tag_169\n  jumpi\n    /* \"#utility.yul\":8286:8295   */\n  dup5\n    /* \"#utility.yul\":8281:8284   */\n  dup10\n    /* \"#utility.yul\":8277:8296   */\n  add\n    /* \"#utility.yul\":8271:8297   */\n  mload\n    /* \"#utility.yul\":8263:8269   */\n  dup3\n    /* \"#utility.yul\":8256:8298   */\n  sstore\n    /* \"#utility.yul\":8337:8338   */\n  0x01\n    /* \"#utility.yul\":8329:8335   */\n  dup3\n    /* \"#utility.yul\":8325:8339   */\n  add\n    /* \"#utility.yul\":8315:8339   */\n  swap2\n  pop\n    /* \"#utility.yul\":8384:8386   */\n  0x20\n    /* \"#utility.yul\":8373:8382   */\n  dup6\n    /* \"#utility.yul\":8369:8387   */\n  add\n    /* \"#utility.yul\":8356:8387   */\n  swap5\n  pop\n    /* \"#utility.yul\":8230:8234   */\n  0x20\n    /* \"#utility.yul\":8227:8228   */\n  dup2\n    /* \"#utility.yul\":8223:8235   */\n  add\n    /* \"#utility.yul\":8218:8235   */\n  swap1\n  pop\n    /* \"#utility.yul\":8193:8401   */\n  jump(tag_167)\ntag_169:\n    /* \"#utility.yul\":8429:8435   */\n  dup7\n    /* \"#utility.yul\":8420:8427   */\n  dup4\n    /* \"#utility.yul\":8417:8436   */\n  lt\n    /* \"#utility.yul\":8414:8593   */\n  iszero\n  tag_170\n  jumpi\n    /* \"#utility.yul\":8487:8496   */\n  dup5\n    /* \"#utility.yul\":8482:8485   */\n  dup10\n    /* \"#utility.yul\":8478:8497   */\n  add\n    /* \"#utility.yul\":8472:8498   */\n  mload\n    /* \"#utility.yul\":8530:8578   */\n  tag_171\n    /* \"#utility.yul\":8572:8576   */\n  0x1f\n    /* \"#utility.yul\":8564:8570   */\n  dup10\n    /* \"#utility.yul\":8560:8577   */\n  and\n    /* \"#utility.yul\":8549:8558   */\n  dup3\n    /* \"#utility.yul\":8530:8578   */\n  tag_57\n  jump\t// in\ntag_171:\n    /* \"#utility.yul\":8522:8528   */\n  dup4\n    /* \"#utility.yul\":8515:8579   */\n  sstore\n    /* \"#utility.yul\":8437:8593   */\n  pop\n    /* \"#utility.yul\":8414:8593   */\ntag_170:\n    /* \"#utility.yul\":8639:8640   */\n  0x01\n    /* \"#utility.yul\":8635:8636   */\n  0x02\n    /* \"#utility.yul\":8627:8633   */\n  dup9\n    /* \"#utility.yul\":8623:8637   */\n  mul\n    /* \"#utility.yul\":8619:8641   */\n  add\n    /* \"#utility.yul\":8613:8617   */\n  dup9\n    /* \"#utility.yul\":8606:8642   */\n  sstore\n    /* \"#utility.yul\":8041:8652   */\n  pop\n  pop\n  pop\n    /* \"#utility.yul\":8004:8891   */\ntag_162:\n  pop\n    /* \"#utility.yul\":7594:8897   */\n  pop\n  pop\n  pop\n    /* \"#utility.yul\":7502:8897   */\n  pop\n  pop\n  jump\t// out\n    /* \"#utility.yul\":8903:9083   */\ntag_59:\n    /* \"#utility.yul\":8951:9028   */\n  0x4e487b7100000000000000000000000000000000000000000000000000000000\n    /* \"#utility.yul\":8948:8949   */\n  0x00\n    /* \"#utility.yul\":8941:9029   */\n  mstore\n    /* \"#utility.yul\":9048:9052   */\n  0x11\n    /* \"#utility.yul\":9045:9046   */\n  0x04\n    /* \"#utility.yul\":9038:9053   */\n  mstore\n    /* \"#utility.yul\":9072:9076   */\n  0x24\n    /* \"#utility.yul\":9069:9070   */\n  0x00\n    /* \"#utility.yul\":9062:9077   */\n  revert\n    /* \"#utility.yul\":9089:9191   */\ntag_60:\n    /* \"#utility.yul\":9131:9139   */\n  0x00\n    /* \"#utility.yul\":9178:9183   */\n  dup2\n    /* \"#utility.yul\":9175:9176   */\n  0x01\n    /* \"#utility.yul\":9171:9184   */\n  shr\n    /* \"#utility.yul\":9150:9184   */\n  swap1\n  pop\n    /* \"#utility.yul\":9089:9191   */\n  swap2\n  swap1\n  pop\n  jump\t// out\n    /* \"#utility.yul\":9197:10045   */\ntag_61:\n    /* \"#utility.yul\":9258:9263   */\n  0x00\n    /* \"#utility.yul\":9265:9269   */\n  0x00\n    /* \"#utility.yul\":9289:9295   */\n  dup3\n    /* \"#utility.yul\":9280:9295   */\n  swap2\n  pop\n    /* \"#utility.yul\":9313:9318   */\n  dup4\n    /* \"#utility.yul\":9304:9318   */\n  swap1\n  pop\n    /* \"#utility.yul\":9327:10039   */\ntag_175:\n    /* \"#utility.yul\":9348:9349   */\n  0x01\n    /* \"#utility.yul\":9338:9346   */\n  dup6\n    /* \"#utility.yul\":9335:9350   */\n  gt\n    /* \"#utility.yul\":9327:10039   */\n  iszero\n  tag_177\n  jumpi\n    /* \"#utility.yul\":9443:9447   */\n  dup1\n    /* \"#utility.yul\":9438:9441   */\n  dup7\n    /* \"#utility.yul\":9434:9448   */\n  div\n    /* \"#utility.yul\":9428:9432   */\n  dup2\n    /* \"#utility.yul\":9425:9449   */\n  gt\n    /* \"#utility.yul\":9422:9472   */\n  iszero\n  tag_178\n  jumpi\n    /* \"#utility.yul\":9452:9470   */\n  tag_179\n  tag_59\n  jump\t// in\ntag_179:\n    /* \"#utility.yul\":9422:9472   */\ntag_178:\n    /* \"#utility.yul\":9502:9503   */\n  0x01\n    /* \"#utility.yul\":9492:9500   */\n  dup6\n    /* \"#utility.yul\":9488:9504   */\n  and\n    /* \"#utility.yul\":9485:9936   */\n  iszero\n  tag_180\n  jumpi\n    /* \"#utility.yul\":9917:9921   */\n  dup1\n    /* \"#utility.yul\":9910:9915   */\n  dup3\n    /* \"#utility.yul\":9906:9922   */\n  mul\n    /* \"#utility.yul\":9897:9922   */\n  swap2\n  pop\n    /* \"#utility.yul\":9485:9936   */\ntag_180:\n    /* \"#utility.yul\":9967:9971   */\n  dup1\n    /* \"#utility.yul\":9961:9965   */\n  dup2\n    /* \"#utility.yul\":9957:9972   */\n  mul\n    /* \"#utility.yul\":9949:9972   */\n  swap1\n  pop\n    /* \"#utility.yul\":9997:10029   */\n  tag_181\n    /* \"#utility.yul\":10020:10028   */\n  dup6\n    /* \"#utility.yul\":9997:10029   */\n  tag_60\n  jump\t// in\ntag_181:\n    /* \"#utility.yul\":9985:10029   */\n  swap5\n  pop\n    /* \"#utility.yul\":9327:10039   */\n  jump(tag_175)\ntag_177:\n    /* \"#utility.yul\":9197:10045   */\n  swap5\n  pop\n  swap5\n  swap3\n  pop\n  pop\n  pop\n  jump\t// out\n    /* \"#utility.yul\":10051:11124   */\ntag_62:\n    /* \"#utility.yul\":10105:10110   */\n  0x00\n    /* \"#utility.yul\":10296:10304   */\n  dup3\n    /* \"#utility.yul\":10286:10326   */\n  tag_183\n  jumpi\n    /* \"#utility.yul\":10317:10318   */\n  0x01\n    /* \"#utility.yul\":10308:10318   */\n  swap1\n  pop\n    /* \"#utility.yul\":10319:10324   */\n  jump(tag_182)\n    /* \"#utility.yul\":10286:10326   */\ntag_183:\n    /* \"#utility.yul\":10345:10349   */\n  dup2\n    /* \"#utility.yul\":10335:10371   */\n  tag_184\n  jumpi\n    /* \"#utility.yul\":10362:10363   */\n  0x00\n    /* \"#utility.yul\":10353:10363   */\n  swap1\n  pop\n    /* \"#utility.yul\":10364:10369   */\n  jump(tag_182)\n    /* \"#utility.yul\":10335:10371   */\ntag_184:\n    /* \"#utility.yul\":10431:10435   */\n  dup2\n    /* \"#utility.yul\":10479:10480   */\n  0x01\n    /* \"#utility.yul\":10474:10501   */\n  dup2\n  eq\n  tag_186\n  jumpi\n    /* \"#utility.yul\":10515:10516   */\n  0x02\n    /* \"#utility.yul\":10510:10701   */\n  dup2\n  eq\n  tag_187\n  jumpi\n    /* \"#utility.yul\":10424:10701   */\n  jump(tag_185)\n    /* \"#utility.yul\":10474:10501   */\ntag_186:\n    /* \"#utility.yul\":10492:10493   */\n  0x01\n    /* \"#utility.yul\":10483:10493   */\n  swap2\n  pop\n    /* \"#utility.yul\":10494:10499   */\n  pop\n  jump(tag_182)\n    /* \"#utility.yul\":10510:10701   */\ntag_187:\n    /* \"#utility.yul\":10555:10558   */\n  0xff\n    /* \"#utility.yul\":10545:10553   */\n  dup5\n    /* \"#utility.yul\":10542:10559   */\n  gt\n    /* \"#utility.yul\":10539:10582   */\n  iszero\n  tag_188\n  jumpi\n    /* \"#utility.yul\":10562:10580   */\n  tag_189\n  tag_59\n  jump\t// in\ntag_189:\n    /* \"#utility.yul\":10539:10582   */\ntag_188:\n    /* \"#utility.yul\":10611:10619   */\n  dup4\n    /* \"#utility.yul\":10608:10609   */\n  0x02\n    /* \"#utility.yul\":10604:10620   */\n  exp\n    /* \"#utility.yul\":10595:10620   */\n  swap2\n  pop\n    /* \"#utility.yul\":10646:10649   */\n  dup5\n    /* \"#utility.yul\":10639:10644   */\n  dup3\n    /* \"#utility.yul\":10636:10650   */\n  gt\n    /* \"#utility.yul\":10633:10673   */\n  iszero\n  tag_190\n  jumpi\n    /* \"#utility.yul\":10653:10671   */\n  tag_191\n  tag_59\n  jump\t// in\ntag_191:\n    /* \"#utility.yul\":10633:10673   */\ntag_190:\n    /* \"#utility.yul\":10686:10691   */\n  pop\n  jump(tag_182)\n    /* \"#utility.yul\":10424:10701   */\ntag_185:\n  pop\n    /* \"#utility.yul\":10810:10812   */\n  0x20\n    /* \"#utility.yul\":10800:10808   */\n  dup4\n    /* \"#utility.yul\":10797:10813   */\n  lt\n    /* \"#utility.yul\":10791:10794   */\n  0x0133\n    /* \"#utility.yul\":10785:10789   */\n  dup4\n    /* \"#utility.yul\":10782:10795   */\n  lt\n    /* \"#utility.yul\":10778:10814   */\n  and\n    /* \"#utility.yul\":10760:10762   */\n  0x4e\n    /* \"#utility.yul\":10750:10758   */\n  dup5\n    /* \"#utility.yul\":10747:10763   */\n  lt\n    /* \"#utility.yul\":10742:10744   */\n  0x0b\n    /* \"#utility.yul\":10736:10740   */\n  dup5\n    /* \"#utility.yul\":10733:10745   */\n  lt\n    /* \"#utility.yul\":10729:10764   */\n  and\n    /* \"#utility.yul\":10713:10824   */\n  or\n    /* \"#utility.yul\":10710:10956   */\n  iszero\n  tag_192\n  jumpi\n    /* \"#utility.yul\":10866:10874   */\n  dup3\n    /* \"#utility.yul\":10860:10864   */\n  dup3\n    /* \"#utility.yul\":10856:10875   */\n  exp\n    /* \"#utility.yul\":10847:10875   */\n  swap1\n  pop\n    /* \"#utility.yul\":10901:10904   */\n  dup4\n    /* \"#utility.yul\":10894:10899   */\n  dup2\n    /* \"#utility.yul\":10891:10905   */\n  gt\n    /* \"#utility.yul\":10888:10928   */\n  iszero\n  tag_193\n  jumpi\n    /* \"#utility.yul\":10908:10926   */\n  tag_194\n  tag_59\n  jump\t// in\ntag_194:\n    /* \"#utility.yul\":10888:10928   */\ntag_193:\n    /* \"#utility.yul\":10941:10946   */\n  jump(tag_182)\n    /* \"#utility.yul\":10710:10956   */\ntag_192:\n    /* \"#utility.yul\":10981:11023   */\n  tag_195\n    /* \"#utility.yul\":11019:11022   */\n  dup5\n    /* \"#utility.yul\":11009:11017   */\n  dup5\n    /* \"#utility.yul\":11003:11007   */\n  dup5\n    /* \"#utility.yul\":11000:11001   */\n  0x01\n    /* \"#utility.yul\":10981:11023   */\n  tag_61\n  jump\t// in\ntag_195:\n    /* \"#utility.yul\":10966:11023   */\n  swap3\n  pop\n  swap1\n  pop\n    /* \"#utility.yul\":11055:11059   */\n  dup2\n    /* \"#utility.yul\":11050:11053   */\n  dup5\n    /* \"#utility.yul\":11046:11060   */\n  div\n    /* \"#utility.yul\":11039:11044   */\n  dup2\n    /* \"#utility.yul\":11036:11061   */\n  gt\n    /* \"#utility.yul\":11033:11084   */\n  iszero\n  tag_196\n  jumpi\n    /* \"#utility.yul\":11064:11082   */\n  tag_197\n  tag_59\n  jump\t// in\ntag_197:\n    /* \"#utility.yul\":11033:11084   */\ntag_196:\n    /* \"#utility.yul\":11113:11117   */\n  dup2\n    /* \"#utility.yul\":11106:11111   */\n  dup2\n    /* \"#utility.yul\":11102:11118   */\n  mul\n    /* \"#utility.yul\":11093:11118   */\n  swap1\n  pop\n    /* \"#utility.yul\":10051:11124   */\ntag_182:\n  swap4\n  swap3\n  pop\n  pop\n  pop\n  jump\t// out\n    /* \"#utility.yul\":11130:11415   */\ntag_11:\n    /* \"#utility.yul\":11190:11195   */\n  0x00\n    /* \"#utility.yul\":11214:11237   */\n  tag_199\n    /* \"#utility.yul\":11232:11236   */\n  dup3\n    /* \"#utility.yul\":11214:11237   */\n  tag_38\n  jump\t// in\ntag_199:\n    /* \"#utility.yul\":11206:11237   */\n  swap2\n  pop\n    /* \"#utility.yul\":11258:11285   */\n  tag_200\n    /* \"#utility.yul\":11276:11284   */\n  dup4\n    /* \"#utility.yul\":11258:11285   */\n  tag_38\n  jump\t// in\ntag_200:\n    /* \"#utility.yul\":11246:11285   */\n  swap3\n  pop\n    /* \"#utility.yul\":11304:11408   */\n  tag_201\n    /* \"#utility.yul\":11341:11407   */\n  0xffffffffffffffffffffffffffffffffffffffffffffffffffffffffffffffff\n    /* \"#utility.yul\":11331:11339   */\n  dup5\n    /* \"#utility.yul\":11325:11329   */\n  dup5\n    /* \"#utility.yul\":11304:11408   */\n  tag_62\n  jump\t// in\ntag_201:\n    /* \"#utility.yul\":11295:11408   */\n  swap1\n  pop\n    /* \"#utility.yul\":11130:11415   */\n  swap3\n  swap2\n  pop\n  pop\n  jump\t// out\n    /* \"#utility.yul\":11421:11831   */\ntag_13:\n    /* \"#utility.yul\":11461:11468   */\n  0x00\n    /* \"#utility.yul\":11484:11504   */\n  tag_203\n    /* \"#utility.yul\":11502:11503   */\n  dup3\n    /* \"#utility.yul\":11484:11504   */\n  tag_38\n  jump\t// in\ntag_203:\n    /* \"#utility.yul\":11479:11504   */\n  swap2\n  pop\n    /* \"#utility.yul\":11518:11538   */\n  tag_204\n    /* \"#utility.yul\":11536:11537   */\n  dup4\n    /* \"#utility.yul\":11518:11538   */\n  tag_38\n  jump\t// in\ntag_204:\n    /* \"#utility.yul\":11513:11538   */\n  swap3\n  pop\n    /* \"#utility.yul\":11573:11574   */\n  dup3\n    /* \"#utility.yul\":11570:11571   */\n  dup3\n    /* \"#utility.yul\":11566:11575   */\n  mul\n    /* \"#utility.yul\":11595:11625   */\n  tag_205\n    /* \"#utility.yul\":11613:11624   */\n  dup2\n    /* \"#utility.yul\":11595:11625   */\n  tag_38\n  jump\t// in\ntag_205:\n    /* \"#utility.yul\":11584:11625   */\n  swap2\n  pop\n    /* \"#utility.yul\":11774:11775   */\n  dup3\n    /* \"#utility.yul\":11765:11772   */\n  dup3\n    /* \"#utility.yul\":11761:11776   */\n  div\n    /* \"#utility.yul\":11758:11759   */\n  dup5\n    /* \"#utility.yul\":11755:11777   */\n  eq\n    /* \"#utility.yul\":11735:11736   */\n  dup4\n    /* \"#utility.yul\":11728:11737   */\n  iszero\n    /* \"#utility.yul\":11708:11791   */\n  or\n    /* \"#utility.yul\":11685:11824   */\n  tag_206\n  jumpi\n    /* \"#utility.yul\":11804:11822   */\n  tag_207\n  tag_59\n  jump\t// in\ntag_207:\n    /* \"#utility.yul\":11685:11824   */\ntag_206:\n    /* \"#utility.yul\":11469:11831   */\n  pop\n    /* \"#utility.yul\":11421:11831   */\n  swap3\n  swap2\n  pop\n  pop\n  jump\t// out\n    /* \"#utility.yul\":11837:12006   */\ntag_63:\n    /* \"#utility.yul\":11921:11932   */\n  0x00\n    /* \"#utility.yul\":11955:11961   */\n  dup3\n    /* \"#utility.yul\":11950:11953   */\n  dup3\n    /* \"#utility.yul\":11943:11962   */\n  mstore\n    /* \"#utility.yul\":11995:11999   */\n  0x20\n    /* \"#utility.yul\":11990:11993   */\n  dup3\n    /* \"#utility.yul\":11986:12000   */\n  add\n    /* \"#utility.yul\":11971:12000   */\n  swap1\n  pop\n    /* \"#utility.yul\":11837:12006   */\n  swap3\n  swap2\n  pop\n  pop\n  jump\t// out\n    /* \"#utility.yul\":12012:12177   */\ntag_64:\n    /* \"#utility.yul\":12152:12169   */\n  0x496e76616c696420616464726573730000000000000000000000000000000000\n    /* \"#utility.yul\":12148:12149   */\n  0x00\n    /* \"#utility.yul\":12140:12146   */\n  dup3\n    /* \"#utility.yul\":12136:12150   */\n  add\n    /* \"#utility.yul\":12129:12170   */\n  mstore\n    /* \"#utility.yul\":12012:12177   */\n  pop\n  jump\t// out\n    /* \"#utility.yul\":12183:12549   */\ntag_65:\n    /* \"#utility.yul\":12325:12328   */\n  0x00\n    /* \"#utility.yul\":12346:12413   */\n  tag_211\n    /* \"#utility.yul\":12410:12412   */\n  0x0f\n    /* \"#utility.yul\":12405:12408   */\n  dup4\n    /* \"#utility.yul\":12346:12413   */\n  tag_63\n  jump\t// in\ntag_211:\n    /* \"#utility.yul\":12339:12413   */\n  swap2\n  pop\n    /* \"#utility.yul\":12422:12515   */\n  tag_212\n    /* \"#utility.yul\":12511:12514   */\n  dup3\n    /* \"#utility.yul\":12422:12515   */\n  tag_64\n  jump\t// in\ntag_212:\n    /* \"#utility.yul\":12540:12542   */\n  0x20\n    /* \"#utility.yul\":12535:12538   */\n  dup3\n    /* \"#utility.yul\":12531:12543   */\n  add\n    /* \"#utility.yul\":12524:12543   */\n  swap1\n  pop\n    /* \"#utility.yul\":12183:12549   */\n  swap2\n  swap1\n  pop\n  jump\t// out\n    /* \"#utility.yul\":12555:12974   */\ntag_19:\n    /* \"#utility.yul\":12721:12725   */\n  0x00\n    /* \"#utility.yul\":12759:12761   */\n  0x20\n    /* \"#utility.yul\":12748:12757   */\n  dup3\n    /* \"#utility.yul\":12744:12762   */\n  add\n    /* \"#utility.yul\":12736:12762   */\n  swap1\n  pop\n    /* \"#utility.yul\":12808:12817   */\n  dup2\n    /* \"#utility.yul\":12802:12806   */\n  dup2\n    /* \"#utility.yul\":12798:12818   */\n  sub\n    /* \"#utility.yul\":12794:12795   */\n  0x00\n    /* \"#utility.yul\":12783:12792   */\n  dup4\n    /* \"#utility.yul\":12779:12796   */\n  add\n    /* \"#utility.yul\":12772:12819   */\n  mstore\n    /* \"#utility.yul\":12836:12967   */\n  tag_214\n    /* \"#utility.yul\":12962:12966   */\n  dup2\n    /* \"#utility.yul\":12836:12967   */\n  tag_65\n  jump\t// in\ntag_214:\n    /* \"#utility.yul\":12828:12967   */\n  swap1\n  pop\n    /* \"#utility.yul\":12555:12974   */\n  swap2\n  swap1\n  pop\n  jump\t// out\n    /* \"#utility.yul\":12980:13171   */\ntag_21:\n    /* \"#utility.yul\":13020:13023   */\n  0x00\n    /* \"#utility.yul\":13039:13059   */\n  tag_216\n    /* \"#utility.yul\":13057:13058   */\n  dup3\n    /* \"#utility.yul\":13039:13059   */\n  tag_38\n  jump\t// in\ntag_216:\n    /* \"#utility.yul\":13034:13059   */\n  swap2\n  pop\n    /* \"#utility.yul\":13073:13093   */\n  tag_217\n    /* \"#utility.yul\":13091:13092   */\n  dup4\n    /* \"#utility.yul\":13073:13093   */\n  tag_38\n  jump\t// in\ntag_217:\n    /* \"#utility.yul\":13068:13093   */\n  swap3\n  pop\n    /* \"#utility.yul\":13116:13117   */\n  dup3\n    /* \"#utility.yul\":13113:13114   */\n  dup3\n    /* \"#utility.yul\":13109:13118   */\n  add\n    /* \"#utility.yul\":13102:13118   */\n  swap1\n  pop\n    /* \"#utility.yul\":13137:13140   */\n  dup1\n    /* \"#utility.yul\":13134:13135   */\n  dup3\n    /* \"#utility.yul\":13131:13141   */\n  gt\n    /* \"#utility.yul\":13128:13164   */\n  iszero\n  tag_218\n  jumpi\n    /* \"#utility.yul\":13144:13162   */\n  tag_219\n  tag_59\n  jump\t// in\ntag_219:\n    /* \"#utility.yul\":13128:13164   */\ntag_218:\n    /* \"#utility.yul\":12980:13171   */\n  swap3\n  swap2\n  pop\n  pop\n  jump\t// out\n    /* \"#utility.yul\":13177:13295   */\ntag_66:\n    /* \"#utility.yul\":13264:13288   */\n  tag_221\n    /* \"#utility.yul\":13282:13287   */\n  dup2\n    /* \"#utility.yul\":13264:13288   */\n  tag_38\n  jump\t// in\ntag_221:\n    /* \"#utility.yul\":13259:13262   */\n  dup3\n    /* \"#utility.yul\":13252:13289   */\n  mstore\n    /* \"#utility.yul\":13177:13295   */\n  pop\n  pop\n  jump\t// out\n    /* \"#utility.yul\":13301:13523   */\ntag_24:\n    /* \"#utility.yul\":13394:13398   */\n  0x00\n    /* \"#utility.yul\":13432:13434   */\n  0x20\n    /* \"#utility.yul\":13421:13430   */\n  dup3\n    /* \"#utility.yul\":13417:13435   */\n  add\n    /* \"#utility.yul\":13409:13435   */\n  swap1\n  pop\n    /* \"#utility.yul\":13445:13516   */\n  tag_223\n    /* \"#utility.yul\":13513:13514   */\n  0x00\n    /* \"#utility.yul\":13502:13511   */\n  dup4\n    /* \"#utility.yul\":13498:13515   */\n  add\n    /* \"#utility.yul\":13489:13495   */\n  dup5\n    /* \"#utility.yul\":13445:13516   */\n  tag_66\n  jump\t// in\ntag_223:\n    /* \"#utility.yul\":13301:13523   */\n  swap3\n  swap2\n  pop\n  pop\n  jump\t// out\n    /* \"Contract_Conqueror_Series/ERC20standards.sol\":98:6107  contract BasicToken {... */\ntag_15:\n  mload(0x80)\n  codecopy(0x00, dataOffset(sub_0), dataSize(sub_0))\n  0x00\n  assignImmutable(\"0x5c4c6aa067b6f8e6cb38e6ab843832a94d1712d661a04d73c517d6a1931a9e5d\")\n  return(0x00, dataSize(sub_0))\nstop\n\nsub_0: assembly {\n        /* \"Contract_Conqueror_Series/ERC20standards.sol\":98:6107  contract BasicToken {... */\n      mstore(0x40, 0x80)\n      callvalue\n      dup1\n      iszero\n      tag_1\n      jumpi\n      revert(0x00, 0x00)\n    tag_1:\n      pop\n      jumpi(tag_2, lt(calldatasize, 0x04))\n      shr(0xe0, calldataload(0x00))\n      dup1\n      0x70a08231\n      gt\n      tag_17\n      jumpi\n      dup1\n      0x95d89b41\n      gt\n      tag_18\n      jumpi\n      dup1\n      0x95d89b41\n      eq\n      tag_13\n      jumpi\n      dup1\n      0xa9059cbb\n      eq\n      tag_14\n      jumpi\n      dup1\n      0xc62b3bea\n      eq\n      tag_15\n      jumpi\n      dup1\n      0xdd62ed3e\n      eq\n      tag_16\n      jumpi\n      jump(tag_2)\n    tag_18:\n      dup1\n      0x70a08231\n      eq\n      tag_10\n      jumpi\n      dup1\n      0x72dd529b\n      eq\n      tag_11\n      jumpi\n      dup1\n      0x8da5cb5b\n      eq\n      tag_12\n      jumpi\n      jump(tag_2)\n    tag_17:\n      dup1\n      0x313ce567\n      gt\n      tag_19\n      jumpi\n      dup1\n      0x313ce567\n      eq\n      tag_6\n      jumpi\n      dup1\n      0x40c10f19\n      eq\n      tag_7\n      jumpi\n      dup1\n      0x42966c68\n      eq\n      tag_8\n      jumpi\n      dup1\n      0x5c975abb\n      eq\n      tag_9\n      jumpi\n      jump(tag_2)\n    tag_19:\n      dup1\n      0x06fdde03\n      eq\n      tag_3\n      jumpi\n      dup1\n      0x095ea7b3\n      eq\n      tag_4\n      jumpi\n      dup1\n      0x23b872dd\n      eq\n      tag_5\n      jumpi\n    tag_2:\n      revert(0x00, 0x00)\n        /* \"Contract_Conqueror_Series/ERC20standards.sol\":156:174  string public name */\n    tag_3:\n      tag_20\n      tag_21\n      jump\t// in\n    tag_20:\n      mload(0x40)\n      tag_22\n      swap2\n      swap1\n      tag_23\n      jump\t// in\n    tag_22:\n      mload(0x40)\n      dup1\n      swap2\n      sub\n      swap1\n      return\n        /* \"Contract_Conqueror_Series/ERC20standards.sol\":3960:4112  function approve(address spender, uint256 amount) external returns (bool) {... */\n    tag_4:\n      tag_24\n      0x04\n      dup1\n      calldatasize\n      sub\n      dup2\n      add\n      swap1\n      tag_25\n      swap2\n      swap1\n      tag_26\n      jump\t// in\n    tag_25:\n      tag_27\n      jump\t// in\n    tag_24:\n      mload(0x40)\n      tag_28\n      swap2\n      swap1\n      tag_29\n      jump\t// in\n    tag_28:\n      mload(0x40)\n      dup1\n      swap2\n      sub\n      swap1\n      return\n        /* \"Contract_Conqueror_Series/ERC20standards.sol\":3581:3883  function transferFrom(address from, address to, uint256 amount) external returns (bool) {... */\n    tag_5:\n      tag_30\n      0x04\n      dup1\n      calldatasize\n      sub\n      dup2\n      add\n      swap1\n      tag_31\n      swap2\n      swap1\n      tag_32\n      jump\t// in\n    tag_31:\n      tag_33\n      jump\t// in\n    tag_30:\n      mload(0x40)\n      tag_34\n      swap2\n      swap1\n      tag_29\n      jump\t// in\n    tag_34:\n      mload(0x40)\n      dup1\n      swap2\n      sub\n      swap1\n      return\n        /* \"Contract_Conqueror_Series/ERC20standards.sol\":208:234  uint8 public decimals = 18 */\n    tag_6:\n      tag_35\n      tag_36\n      jump\t// in\n    tag_35:\n      mload(0x40)\n      tag_37\n      swap2\n      swap1\n      tag_38\n      jump\t// in\n    tag_37:\n      mload(0x40)\n      dup1\n      swap2\n      sub\n      swap1\n      return\n        /* \"Contract_Conqueror_Series/ERC20standards.sol\":2564:2686  function mint(address to, uint256 amount) external onlyowner{... */\n    tag_7:\n      tag_39\n      0x04\n      dup1\n      calldatasize\n      sub\n      dup2\n      add\n      swap1\n      tag_40\n      swap2\n      swap1\n      tag_26\n      jump\t// in\n    tag_40:\n      tag_41\n      jump\t// in\n    tag_39:\n      stop\n        /* \"Contract_Conqueror_Series/ERC20standards.sol\":2928:3093  function burn(uint256 amount) external{... */\n    tag_8:\n      tag_42\n      0x04\n      dup1\n      calldatasize\n      sub\n      dup2\n      add\n      swap1\n      tag_43\n      swap2\n      swap1\n      tag_44\n      jump\t// in\n    tag_43:\n      tag_45\n      jump\t// in\n    tag_42:\n      stop\n        /* \"Contract_Conqueror_Series/ERC20standards.sol\":342:368  bool public paused = false */\n    tag_9:\n      tag_46\n      tag_47\n      jump\t// in\n    tag_46:\n      mload(0x40)\n      tag_48\n      swap2\n      swap1\n      tag_29\n      jump\t// in\n    tag_48:\n      mload(0x40)\n      dup1\n      swap2\n      sub\n      swap1\n      return\n        /* \"Contract_Conqueror_Series/ERC20standards.sol\":2035:2147  function balanceOf(address account) external view returns (uint256) {... */\n    tag_10:\n      tag_49\n      0x04\n      dup1\n      calldatasize\n      sub\n      dup2\n      add\n      swap1\n      tag_50\n      swap2\n      swap1\n      tag_51\n      jump\t// in\n    tag_50:\n      tag_52\n      jump\t// in\n    tag_49:\n      mload(0x40)\n      tag_53\n      swap2\n      swap1\n      tag_54\n      jump\t// in\n    tag_53:\n      mload(0x40)\n      dup1\n      swap2\n      sub\n      swap1\n      return\n        /* \"Contract_Conqueror_Series/ERC20standards.sol\":4395:4488  function totalsupply() external view returns (uint256) {... */\n    tag_11:\n      tag_55\n      tag_56\n      jump\t// in\n    tag_55:\n      mload(0x40)\n      tag_57\n      swap2\n      swap1\n      tag_54\n      jump\t// in\n    tag_57:\n      mload(0x40)\n      dup1\n      swap2\n      sub\n      swap1\n      return\n        /* \"Contract_Conqueror_Series/ERC20standards.sol\":315:335  address public owner */\n    tag_12:\n      tag_58\n      tag_59\n      jump\t// in\n    tag_58:\n      mload(0x40)\n      tag_60\n      swap2\n      swap1\n      tag_61\n      jump\t// in\n    tag_60:\n      mload(0x40)\n      dup1\n      swap2\n      sub\n      swap1\n      return\n        /* \"Contract_Conqueror_Series/ERC20standards.sol\":181:201  string public symbol */\n    tag_13:\n      tag_62\n      tag_63\n      jump\t// in\n    tag_62:\n      mload(0x40)\n      tag_64\n      swap2\n      swap1\n      tag_23\n      jump\t// in\n    tag_64:\n      mload(0x40)\n      dup1\n      swap2\n      sub\n      swap1\n      return\n        /* \"Contract_Conqueror_Series/ERC20standards.sol\":1828:1972  function transfer(address to, uint256 amount) external returns (bool) {... */\n    tag_14:\n      tag_65\n      0x04\n      dup1\n      calldatasize\n      sub\n      dup2\n      add\n      swap1\n      tag_66\n      swap2\n      swap1\n      tag_26\n      jump\t// in\n    tag_66:\n      tag_67\n      jump\t// in\n    tag_65:\n      mload(0x40)\n      tag_68\n      swap2\n      swap1\n      tag_29\n      jump\t// in\n    tag_68:\n      mload(0x40)\n      dup1\n      swap2\n      sub\n      swap1\n      return\n        /* \"Contract_Conqueror_Series/ERC20standards.sol\":3267:3507  function burnForm(address account, uint256 amount) external {... */\n    tag_15:\n      tag_69\n      0x04\n      dup1\n      calldatasize\n      sub\n      dup2\n      add\n      swap1\n      tag_70\n      swap2\n      swap1\n      tag_26\n      jump\t// in\n    tag_70:\n      tag_71\n      jump\t// in\n    tag_69:\n      stop\n        /* \"Contract_Conqueror_Series/ERC20standards.sol\":4168:4314  function allowance(address tokenOwner, address spender) external view returns (uint256) {... */\n    tag_16:\n      tag_72\n      0x04\n      dup1\n      calldatasize\n      sub\n      dup2\n      add\n      swap1\n      tag_73\n      swap2\n      swap1\n      tag_74\n      jump\t// in\n    tag_73:\n      tag_75\n      jump\t// in\n    tag_72:\n      mload(0x40)\n      tag_76\n      swap2\n      swap1\n      tag_54\n      jump\t// in\n    tag_76:\n      mload(0x40)\n      dup1\n      swap2\n      sub\n      swap1\n      return\n        /* \"Contract_Conqueror_Series/ERC20standards.sol\":156:174  string public name */\n    tag_21:\n      0x00\n      dup1\n      sload\n      tag_77\n      swap1\n      tag_78\n      jump\t// in\n    tag_77:\n      dup1\n      0x1f\n      add\n      0x20\n      dup1\n      swap2\n      div\n      mul\n      0x20\n      add\n      mload(0x40)\n      swap1\n      dup2\n      add\n      0x40\n      mstore\n      dup1\n      swap3\n      swap2\n      swap1\n      dup2\n      dup2\n      mstore\n      0x20\n      add\n      dup3\n      dup1\n      sload\n      tag_79\n      swap1\n      tag_78\n      jump\t// in\n    tag_79:\n      dup1\n      iszero\n      tag_80\n      jumpi\n      dup1\n      0x1f\n      lt\n      tag_81\n      jumpi\n      0x0100\n      dup1\n      dup4\n      sload\n      div\n      mul\n      dup4\n      mstore\n      swap2\n      0x20\n      add\n      swap2\n      jump(tag_80)\n    tag_81:\n      dup3\n      add\n      swap2\n      swap1\n      0x00\n      mstore\n      keccak256(0x00, 0x20)\n      swap1\n    tag_82:\n      dup2\n      sload\n      dup2\n      mstore\n      swap1\n      0x01\n      add\n      swap1\n      0x20\n      add\n      dup1\n      dup4\n      gt\n      tag_82\n      jumpi\n      dup3\n      swap1\n      sub\n      0x1f\n      and\n      dup3\n      add\n      swap2\n    tag_80:\n      pop\n      pop\n      pop\n      pop\n      pop\n      dup2\n      jump\t// out\n        /* \"Contract_Conqueror_Series/ERC20standards.sol\":3960:4112  function approve(address spender, uint256 amount) external returns (bool) {... */\n    tag_27:\n        /* \"Contract_Conqueror_Series/ERC20standards.sol\":4028:4032  bool */\n      0x00\n        /* \"Contract_Conqueror_Series/ERC20standards.sol\":4045:4082  _approve(msg.sender, spender, amount) */\n      tag_84\n        /* \"Contract_Conqueror_Series/ERC20standards.sol\":4054:4064  msg.sender */\n      caller\n        /* \"Contract_Conqueror_Series/ERC20standards.sol\":4066:4073  spender */\n      dup5\n        /* \"Contract_Conqueror_Series/ERC20standards.sol\":4075:4081  amount */\n      dup5\n        /* \"Contract_Conqueror_Series/ERC20standards.sol\":4045:4053  _approve */\n      tag_85\n        /* \"Contract_Conqueror_Series/ERC20standards.sol\":4045:4082  _approve(msg.sender, spender, amount) */\n      jump\t// in\n    tag_84:\n        /* \"Contract_Conqueror_Series/ERC20standards.sol\":4100:4104  true */\n      0x01\n        /* \"Contract_Conqueror_Series/ERC20standards.sol\":4093:4104  return true */\n      swap1\n      pop\n        /* \"Contract_Conqueror_Series/ERC20standards.sol\":3960:4112  function approve(address spender, uint256 amount) external returns (bool) {... */\n      swap3\n      swap2\n      pop\n      pop\n      jump\t// out\n        /* \"Contract_Conqueror_Series/ERC20standards.sol\":3581:3883  function transferFrom(address from, address to, uint256 amount) external returns (bool) {... */\n    tag_33:\n        /* \"Contract_Conqueror_Series/ERC20standards.sol\":3663:3667  bool */\n      0x00\n        /* \"Contract_Conqueror_Series/ERC20standards.sol\":3721:3727  amount */\n      dup2\n        /* \"Contract_Conqueror_Series/ERC20standards.sol\":3688:3699  _allowances */\n      0x06\n        /* \"Contract_Conqueror_Series/ERC20standards.sol\":3688:3705  _allowances[from] */\n      0x00\n        /* \"Contract_Conqueror_Series/ERC20standards.sol\":3700:3704  from */\n      dup7\n        /* \"Contract_Conqueror_Series/ERC20standards.sol\":3688:3705  _allowances[from] */\n      0xffffffffffffffffffffffffffffffffffffffff\n      and\n      0xffffffffffffffffffffffffffffffffffffffff\n      and\n      dup2\n      mstore\n      0x20\n      add\n      swap1\n      dup2\n      mstore\n      0x20\n      add\n      0x00\n      keccak256\n        /* \"Contract_Conqueror_Series/ERC20standards.sol\":3688:3717  _allowances[from][msg.sender] */\n      0x00\n        /* \"Contract_Conqueror_Series/ERC20standards.sol\":3706:3716  msg.sender */\n      caller\n        /* \"Contract_Conqueror_Series/ERC20standards.sol\":3688:3717  _allowances[from][msg.sender] */\n      0xffffffffffffffffffffffffffffffffffffffff\n      and\n      0xffffffffffffffffffffffffffffffffffffffff\n      and\n      dup2\n      mstore\n      0x20\n      add\n      swap1\n      dup2\n      mstore\n      0x20\n      add\n      0x00\n      keccak256\n      sload\n        /* \"Contract_Conqueror_Series/ERC20standards.sol\":3688:3727  _allowances[from][msg.sender] >= amount */\n      lt\n      iszero\n        /* \"Contract_Conqueror_Series/ERC20standards.sol\":3680:3761  require(_allowances[from][msg.sender] >= amount, \"ERC20: insufficient allowance\") */\n      tag_87\n      jumpi\n      mload(0x40)\n      0x08c379a000000000000000000000000000000000000000000000000000000000\n      dup2\n      mstore\n      0x04\n      add\n      tag_88\n      swap1\n      tag_89\n      jump\t// in\n    tag_88:\n      mload(0x40)\n      dup1\n      swap2\n      sub\n      swap1\n      revert\n    tag_87:\n        /* \"Contract_Conqueror_Series/ERC20standards.sol\":3807:3813  amount */\n      dup2\n        /* \"Contract_Conqueror_Series/ERC20standards.sol\":3774:3785  _allowances */\n      0x06\n        /* \"Contract_Conqueror_Series/ERC20standards.sol\":3774:3791  _allowances[from] */\n      0x00\n        /* \"Contract_Conqueror_Series/ERC20standards.sol\":3786:3790  from */\n      dup7\n        /* \"Contract_Conqueror_Series/ERC20standards.sol\":3774:3791  _allowances[from] */\n      0xffffffffffffffffffffffffffffffffffffffff\n      and\n      0xffffffffffffffffffffffffffffffffffffffff\n      and\n      dup2\n      mstore\n      0x20\n      add\n      swap1\n      dup2\n      mstore\n      0x20\n      add\n      0x00\n      keccak256\n        /* \"Contract_Conqueror_Series/ERC20standards.sol\":3774:3803  _allowances[from][msg.sender] */\n      0x00\n        /* \"Contract_Conqueror_Series/ERC20standards.sol\":3792:3802  msg.sender */\n      caller\n        /* \"Contract_Conqueror_Series/ERC20standards.sol\":3774:3803  _allowances[from][msg.sender] */\n      0xffffffffffffffffffffffffffffffffffffffff\n      and\n      0xffffffffffffffffffffffffffffffffffffffff\n      and\n      dup2\n      mstore\n      0x20\n      add\n      swap1\n      dup2\n      mstore\n      0x20\n      add\n      0x00\n      keccak256\n      0x00\n        /* \"Contract_Conqueror_Series/ERC20standards.sol\":3774:3813  _allowances[from][msg.sender] -= amount */\n      dup3\n      dup3\n      sload\n      tag_90\n      swap2\n      swap1\n      tag_91\n      jump\t// in\n    tag_90:\n      swap3\n      pop\n      pop\n      dup2\n      swap1\n      sstore\n      pop\n        /* \"Contract_Conqueror_Series/ERC20standards.sol\":3824:3851  _transfer(from, to, amount) */\n      tag_92\n        /* \"Contract_Conqueror_Series/ERC20standards.sol\":3834:3838  from */\n      dup5\n        /* \"Contract_Conqueror_Series/ERC20standards.sol\":3840:3842  to */\n      dup5\n        /* \"Contract_Conqueror_Series/ERC20standards.sol\":3844:3850  amount */\n      dup5\n        /* \"Contract_Conqueror_Series/ERC20standards.sol\":3824:3833  _transfer */\n      tag_93\n        /* \"Contract_Conqueror_Series/ERC20standards.sol\":3824:3851  _transfer(from, to, amount) */\n      jump\t// in\n    tag_92:\n        /* \"Contract_Conqueror_Series/ERC20standards.sol\":3871:3875  true */\n      0x01\n        /* \"Contract_Conqueror_Series/ERC20standards.sol\":3864:3875  return true */\n      swap1\n      pop\n        /* \"Contract_Conqueror_Series/ERC20standards.sol\":3581:3883  function transferFrom(address from, address to, uint256 amount) external returns (bool) {... */\n      swap4\n      swap3\n      pop\n      pop\n      pop\n      jump\t// out\n        /* \"Contract_Conqueror_Series/ERC20standards.sol\":208:234  uint8 public decimals = 18 */\n    tag_36:\n      0x02\n      0x00\n      swap1\n      sload\n      swap1\n      0x0100\n      exp\n      swap1\n      div\n      0xff\n      and\n      dup2\n      jump\t// out\n        /* \"Contract_Conqueror_Series/ERC20standards.sol\":2564:2686  function mint(address to, uint256 amount) external onlyowner{... */\n    tag_41:\n        /* \"Contract_Conqueror_Series/ERC20standards.sol\":821:826  owner */\n      0x04\n      0x00\n      swap1\n      sload\n      swap1\n      0x0100\n      exp\n      swap1\n      div\n      0xffffffffffffffffffffffffffffffffffffffff\n      and\n        /* \"Contract_Conqueror_Series/ERC20standards.sol\":807:826  msg.sender == owner */\n      0xffffffffffffffffffffffffffffffffffffffff\n      and\n        /* \"Contract_Conqueror_Series/ERC20standards.sol\":807:817  msg.sender */\n      caller\n        /* \"Contract_Conqueror_Series/ERC20standards.sol\":807:826  msg.sender == owner */\n      0xffffffffffffffffffffffffffffffffffffffff\n      and\n      eq\n        /* \"Contract_Conqueror_Series/ERC20standards.sol\":799:848  require(msg.sender == owner,\"Not contract Owner\") */\n      tag_95\n      jumpi\n      mload(0x40)\n      0x08c379a000000000000000000000000000000000000000000000000000000000\n      dup2\n      mstore\n      0x04\n      add\n      tag_96\n      swap1\n      tag_97\n      jump\t// in\n    tag_96:\n      mload(0x40)\n      dup1\n      swap2\n      sub\n      swap1\n      revert\n    tag_95:\n        /* \"Contract_Conqueror_Series/ERC20standards.sol\":2635:2678  _mint(to, amount*(10 ** uint256(decimals))) */\n      tag_99\n        /* \"Contract_Conqueror_Series/ERC20standards.sol\":2641:2643  to */\n      dup3\n        /* \"Contract_Conqueror_Series/ERC20standards.sol\":2667:2675  decimals */\n      0x02\n      0x00\n      swap1\n      sload\n      swap1\n      0x0100\n      exp\n      swap1\n      div\n      0xff\n      and\n        /* \"Contract_Conqueror_Series/ERC20standards.sol\":2659:2676  uint256(decimals) */\n      0xff\n      and\n        /* \"Contract_Conqueror_Series/ERC20standards.sol\":2653:2655  10 */\n      0x0a\n        /* \"Contract_Conqueror_Series/ERC20standards.sol\":2653:2676  10 ** uint256(decimals) */\n      tag_100\n      swap2\n      swap1\n      tag_101\n      jump\t// in\n    tag_100:\n        /* \"Contract_Conqueror_Series/ERC20standards.sol\":2645:2651  amount */\n      dup4\n        /* \"Contract_Conqueror_Series/ERC20standards.sol\":2645:2677  amount*(10 ** uint256(decimals)) */\n      tag_102\n      swap2\n      swap1\n      tag_103\n      jump\t// in\n    tag_102:\n        /* \"Contract_Conqueror_Series/ERC20standards.sol\":2635:2640  _mint */\n      tag_104\n        /* \"Contract_Conqueror_Series/ERC20standards.sol\":2635:2678  _mint(to, amount*(10 ** uint256(decimals))) */\n      jump\t// in\n    tag_99:\n        /* \"Contract_Conqueror_Series/ERC20standards.sol\":2564:2686  function mint(address to, uint256 amount) external onlyowner{... */\n      pop\n      pop\n      jump\t// out\n        /* \"Contract_Conqueror_Series/ERC20standards.sol\":2928:3093  function burn(uint256 amount) external{... */\n    tag_45:\n        /* \"Contract_Conqueror_Series/ERC20standards.sol\":3010:3016  amount */\n      dup1\n        /* \"Contract_Conqueror_Series/ERC20standards.sol\":2985:2994  _balances */\n      0x05\n        /* \"Contract_Conqueror_Series/ERC20standards.sol\":2985:3006  _balances[msg.sender] */\n      0x00\n        /* \"Contract_Conqueror_Series/ERC20standards.sol\":2995:3005  msg.sender */\n      caller\n        /* \"Contract_Conqueror_Series/ERC20standards.sol\":2985:3006  _balances[msg.sender] */\n      0xffffffffffffffffffffffffffffffffffffffff\n      and\n      0xffffffffffffffffffffffffffffffffffffffff\n      and\n      dup2\n      mstore\n      0x20\n      add\n      swap1\n      dup2\n      mstore\n      0x20\n      add\n      0x00\n      keccak256\n      sload\n        /* \"Contract_Conqueror_Series/ERC20standards.sol\":2985:3016  _balances[msg.sender] >= amount */\n      lt\n      iszero\n        /* \"Contract_Conqueror_Series/ERC20standards.sol\":2977:3049  require(_balances[msg.sender] >= amount, \"Insufficient balance to burn\") */\n      tag_106\n      jumpi\n      mload(0x40)\n      0x08c379a000000000000000000000000000000000000000000000000000000000\n      dup2\n      mstore\n      0x04\n      add\n      tag_107\n      swap1\n      tag_108\n      jump\t// in\n    tag_107:\n      mload(0x40)\n      dup1\n      swap2\n      sub\n      swap1\n      revert\n    tag_106:\n        /* \"Contract_Conqueror_Series/ERC20standards.sol\":3060:3085  _burn(msg.sender, amount) */\n      tag_109\n        /* \"Contract_Conqueror_Series/ERC20standards.sol\":3066:3076  msg.sender */\n      caller\n        /* \"Contract_Conqueror_Series/ERC20standards.sol\":3078:3084  amount */\n      dup3\n        /* \"Contract_Conqueror_Series/ERC20standards.sol\":3060:3065  _burn */\n      tag_110\n        /* \"Contract_Conqueror_Series/ERC20standards.sol\":3060:3085  _burn(msg.sender, amount) */\n      jump\t// in\n    tag_109:\n        /* \"Contract_Conqueror_Series/ERC20standards.sol\":2928:3093  function burn(uint256 amount) external{... */\n      pop\n      jump\t// out\n        /* \"Contract_Conqueror_Series/ERC20standards.sol\":342:368  bool public paused = false */\n    tag_47:\n      0x04\n      0x14\n      swap1\n      sload\n      swap1\n      0x0100\n      exp\n      swap1\n      div\n      0xff\n      and\n      dup2\n      jump\t// out\n        /* \"Contract_Conqueror_Series/ERC20standards.sol\":2035:2147  function balanceOf(address account) external view returns (uint256) {... */\n    tag_52:\n        /* \"Contract_Conqueror_Series/ERC20standards.sol\":2094:2101  uint256 */\n      0x00\n        /* \"Contract_Conqueror_Series/ERC20standards.sol\":2121:2130  _balances */\n      0x05\n        /* \"Contract_Conqueror_Series/ERC20standards.sol\":2121:2139  _balances[account] */\n      0x00\n        /* \"Contract_Conqueror_Series/ERC20standards.sol\":2131:2138  account */\n      dup4\n        /* \"Contract_Conqueror_Series/ERC20standards.sol\":2121:2139  _balances[account] */\n      0xffffffffffffffffffffffffffffffffffffffff\n      and\n      0xffffffffffffffffffffffffffffffffffffffff\n      and\n      dup2\n      mstore\n      0x20\n      add\n      swap1\n      dup2\n      mstore\n      0x20\n      add\n      0x00\n      keccak256\n      sload\n        /* \"Contract_Conqueror_Series/ERC20standards.sol\":2114:2139  return _balances[account] */\n      swap1\n      pop\n        /* \"Contract_Conqueror_Series/ERC20standards.sol\":2035:2147  function balanceOf(address account) external view returns (uint256) {... */\n      swap2\n      swap1\n      pop\n      jump\t// out\n        /* \"Contract_Conqueror_Series/ERC20standards.sol\":4395:4488  function totalsupply() external view returns (uint256) {... */\n    tag_56:\n        /* \"Contract_Conqueror_Series/ERC20standards.sol\":4441:4448  uint256 */\n      0x00\n        /* \"Contract_Conqueror_Series/ERC20standards.sol\":4468:4480  _totalsupply */\n      sload(0x03)\n        /* \"Contract_Conqueror_Series/ERC20standards.sol\":4461:4480  return _totalsupply */\n      swap1\n      pop\n        /* \"Contract_Conqueror_Series/ERC20standards.sol\":4395:4488  function totalsupply() external view returns (uint256) {... */\n      swap1\n      jump\t// out\n        /* \"Contract_Conqueror_Series/ERC20standards.sol\":315:335  address public owner */\n    tag_59:\n      0x04\n      0x00\n      swap1\n      sload\n      swap1\n      0x0100\n      exp\n      swap1\n      div\n      0xffffffffffffffffffffffffffffffffffffffff\n      and\n      dup2\n      jump\t// out\n        /* \"Contract_Conqueror_Series/ERC20standards.sol\":181:201  string public symbol */\n    tag_63:\n      0x01\n      dup1\n      sload\n      tag_113\n      swap1\n      tag_78\n      jump\t// in\n    tag_113:\n      dup1\n      0x1f\n      add\n      0x20\n      dup1\n      swap2\n      div\n      mul\n      0x20\n      add\n      mload(0x40)\n      swap1\n      dup2\n      add\n      0x40\n      mstore\n      dup1\n      swap3\n      swap2\n      swap1\n      dup2\n      dup2\n      mstore\n      0x20\n      add\n      dup3\n      dup1\n      sload\n      tag_114\n      swap1\n      tag_78\n      jump\t// in\n    tag_114:\n      dup1\n      iszero\n      tag_115\n      jumpi\n      dup1\n      0x1f\n      lt\n      tag_116\n      jumpi\n      0x0100\n      dup1\n      dup4\n      sload\n      div\n      mul\n      dup4\n      mstore\n      swap2\n      0x20\n      add\n      swap2\n      jump(tag_115)\n    tag_116:\n      dup3\n      add\n      swap2\n      swap1\n      0x00\n      mstore\n      keccak256(0x00, 0x20)\n      swap1\n    tag_117:\n      dup2\n      sload\n      dup2\n      mstore\n      swap1\n      0x01\n      add\n      swap1\n      0x20\n      add\n      dup1\n      dup4\n      gt\n      tag_117\n      jumpi\n      dup3\n      swap1\n      sub\n      0x1f\n      and\n      dup3\n      add\n      swap2\n    tag_115:\n      pop\n      pop\n      pop\n      pop\n      pop\n      dup2\n      jump\t// out\n        /* \"Contract_Conqueror_Series/ERC20standards.sol\":1828:1972  function transfer(address to, uint256 amount) external returns (bool) {... */\n    tag_67:\n        /* \"Contract_Conqueror_Series/ERC20standards.sol\":1892:1896  bool */\n      0x00\n        /* \"Contract_Conqueror_Series/ERC20standards.sol\":1909:1942  _transfer(msg.sender, to, amount) */\n      tag_119\n        /* \"Contract_Conqueror_Series/ERC20standards.sol\":1919:1929  msg.sender */\n      caller\n        /* \"Contract_Conqueror_Series/ERC20standards.sol\":1931:1933  to */\n      dup5\n        /* \"Contract_Conqueror_Series/ERC20standards.sol\":1935:1941  amount */\n      dup5\n        /* \"Contract_Conqueror_Series/ERC20standards.sol\":1909:1918  _transfer */\n      tag_93\n        /* \"Contract_Conqueror_Series/ERC20standards.sol\":1909:1942  _transfer(msg.sender, to, amount) */\n      jump\t// in\n    tag_119:\n        /* \"Contract_Conqueror_Series/ERC20standards.sol\":1960:1964  true */\n      0x01\n        /* \"Contract_Conqueror_Series/ERC20standards.sol\":1953:1964  return true */\n      swap1\n      pop\n        /* \"Contract_Conqueror_Series/ERC20standards.sol\":1828:1972  function transfer(address to, uint256 amount) external returns (bool) {... */\n      swap3\n      swap2\n      pop\n      pop\n      jump\t// out\n        /* \"Contract_Conqueror_Series/ERC20standards.sol\":3267:3507  function burnForm(address account, uint256 amount) external {... */\n    tag_71:\n        /* \"Contract_Conqueror_Series/ERC20standards.sol\":3382:3388  amount */\n      dup1\n        /* \"Contract_Conqueror_Series/ERC20standards.sol\":3346:3357  _allowances */\n      0x06\n        /* \"Contract_Conqueror_Series/ERC20standards.sol\":3346:3366  _allowances[account] */\n      0x00\n        /* \"Contract_Conqueror_Series/ERC20standards.sol\":3358:3365  account */\n      dup5\n        /* \"Contract_Conqueror_Series/ERC20standards.sol\":3346:3366  _allowances[account] */\n      0xffffffffffffffffffffffffffffffffffffffff\n      and\n      0xffffffffffffffffffffffffffffffffffffffff\n      and\n      dup2\n      mstore\n      0x20\n      add\n      swap1\n      dup2\n      mstore\n      0x20\n      add\n      0x00\n      keccak256\n        /* \"Contract_Conqueror_Series/ERC20standards.sol\":3346:3378  _allowances[account][msg.sender] */\n      0x00\n        /* \"Contract_Conqueror_Series/ERC20standards.sol\":3367:3377  msg.sender */\n      caller\n        /* \"Contract_Conqueror_Series/ERC20standards.sol\":3346:3378  _allowances[account][msg.sender] */\n      0xffffffffffffffffffffffffffffffffffffffff\n      and\n      0xffffffffffffffffffffffffffffffffffffffff\n      and\n      dup2\n      mstore\n      0x20\n      add\n      swap1\n      dup2\n      mstore\n      0x20\n      add\n      0x00\n      keccak256\n      sload\n        /* \"Contract_Conqueror_Series/ERC20standards.sol\":3346:3388  _allowances[account][msg.sender] >= amount */\n      lt\n      iszero\n        /* \"Contract_Conqueror_Series/ERC20standards.sol\":3338:3411  require(_allowances[account][msg.sender] >= amount, \"Allowance exceeded\") */\n      tag_121\n      jumpi\n      mload(0x40)\n      0x08c379a000000000000000000000000000000000000000000000000000000000\n      dup2\n      mstore\n      0x04\n      add\n      tag_122\n      swap1\n      tag_123\n      jump\t// in\n    tag_122:\n      mload(0x40)\n      dup1\n      swap2\n      sub\n      swap1\n      revert\n    tag_121:\n        /* \"Contract_Conqueror_Series/ERC20standards.sol\":3458:3464  amount */\n      dup1\n        /* \"Contract_Conqueror_Series/ERC20standards.sol\":3422:3433  _allowances */\n      0x06\n        /* \"Contract_Conqueror_Series/ERC20standards.sol\":3422:3442  _allowances[account] */\n      0x00\n        /* \"Contract_Conqueror_Series/ERC20standards.sol\":3434:3441  account */\n      dup5\n        /* \"Contract_Conqueror_Series/ERC20standards.sol\":3422:3442  _allowances[account] */\n      0xffffffffffffffffffffffffffffffffffffffff\n      and\n      0xffffffffffffffffffffffffffffffffffffffff\n      and\n      dup2\n      mstore\n      0x20\n      add\n      swap1\n      dup2\n      mstore\n      0x20\n      add\n      0x00\n      keccak256\n        /* \"Contract_Conqueror_Series/ERC20standards.sol\":3422:3454  _allowances[account][msg.sender] */\n      0x00\n        /* \"Contract_Conqueror_Series/ERC20standards.sol\":3443:3453  msg.sender */\n      caller\n        /* \"Contract_Conqueror_Series/ERC20standards.sol\":3422:3454  _allowances[account][msg.sender] */\n      0xffffffffffffffffffffffffffffffffffffffff\n      and\n      0xffffffffffffffffffffffffffffffffffffffff\n      and\n      dup2\n      mstore\n      0x20\n      add\n      swap1\n      dup2\n      mstore\n      0x20\n      add\n      0x00\n      keccak256\n      0x00\n        /* \"Contract_Conqueror_Series/ERC20standards.sol\":3422:3464  _allowances[account][msg.sender] -= amount */\n      dup3\n      dup3\n      sload\n      tag_124\n      swap2\n      swap1\n      tag_91\n      jump\t// in\n    tag_124:\n      swap3\n      pop\n      pop\n      dup2\n      swap1\n      sstore\n      pop\n        /* \"Contract_Conqueror_Series/ERC20standards.sol\":3475:3497  _burn(account, amount) */\n      tag_125\n        /* \"Contract_Conqueror_Series/ERC20standards.sol\":3481:3488  account */\n      dup3\n        /* \"Contract_Conqueror_Series/ERC20standards.sol\":3490:3496  amount */\n      dup3\n        /* \"Contract_Conqueror_Series/ERC20standards.sol\":3475:3480  _burn */\n      tag_110\n        /* \"Contract_Conqueror_Series/ERC20standards.sol\":3475:3497  _burn(account, amount) */\n      jump\t// in\n    tag_125:\n        /* \"Contract_Conqueror_Series/ERC20standards.sol\":3267:3507  function burnForm(address account, uint256 amount) external {... */\n      pop\n      pop\n      jump\t// out\n        /* \"Contract_Conqueror_Series/ERC20standards.sol\":4168:4314  function allowance(address tokenOwner, address spender) external view returns (uint256) {... */\n    tag_75:\n        /* \"Contract_Conqueror_Series/ERC20standards.sol\":4247:4254  uint256 */\n      0x00\n        /* \"Contract_Conqueror_Series/ERC20standards.sol\":4274:4285  _allowances */\n      0x06\n        /* \"Contract_Conqueror_Series/ERC20standards.sol\":4274:4297  _allowances[tokenOwner] */\n      0x00\n        /* \"Contract_Conqueror_Series/ERC20standards.sol\":4286:4296  tokenOwner */\n      dup5\n        /* \"Contract_Conqueror_Series/ERC20standards.sol\":4274:4297  _allowances[tokenOwner] */\n      0xffffffffffffffffffffffffffffffffffffffff\n      and\n      0xffffffffffffffffffffffffffffffffffffffff\n      and\n      dup2\n      mstore\n      0x20\n      add\n      swap1\n      dup2\n      mstore\n      0x20\n      add\n      0x00\n      keccak256\n        /* \"Contract_Conqueror_Series/ERC20standards.sol\":4274:4306  _allowances[tokenOwner][spender] */\n      0x00\n        /* \"Contract_Conqueror_Series/ERC20standards.sol\":4298:4305  spender */\n      dup4\n        /* \"Contract_Conqueror_Series/ERC20standards.sol\":4274:4306  _allowances[tokenOwner][spender] */\n      0xffffffffffffffffffffffffffffffffffffffff\n      and\n      0xffffffffffffffffffffffffffffffffffffffff\n      and\n      dup2\n      mstore\n      0x20\n      add\n      swap1\n      dup2\n      mstore\n      0x20\n      add\n      0x00\n      keccak256\n      sload\n        /* \"Contract_Conqueror_Series/ERC20standards.sol\":4267:4306  return _allowances[tokenOwner][spender] */\n      swap1\n      pop\n        /* \"Contract_Conqueror_Series/ERC20standards.sol\":4168:4314  function allowance(address tokenOwner, address spender) external view returns (uint256) {... */\n      swap3\n      swap2\n      pop\n      pop\n      jump\t// out\n        /* \"Contract_Conqueror_Series/ERC20standards.sol\":5773:6102  function _approve(address tokenOwner, address spender, uint256 amount) internal{... */\n    tag_85:\n        /* \"Contract_Conqueror_Series/ERC20standards.sol\":5893:5894  0 */\n      0x00\n        /* \"Contract_Conqueror_Series/ERC20standards.sol\":5871:5895  tokenOwner != address(0) */\n      0xffffffffffffffffffffffffffffffffffffffff\n      and\n        /* \"Contract_Conqueror_Series/ERC20standards.sol\":5871:5881  tokenOwner */\n      dup4\n        /* \"Contract_Conqueror_Series/ERC20standards.sol\":5871:5895  tokenOwner != address(0) */\n      0xffffffffffffffffffffffffffffffffffffffff\n      and\n      sub\n        /* \"Contract_Conqueror_Series/ERC20standards.sol\":5863:5923  require(tokenOwner != address(0), \"ERC20: approve from 0x0\") */\n      tag_128\n      jumpi\n      mload(0x40)\n      0x08c379a000000000000000000000000000000000000000000000000000000000\n      dup2\n      mstore\n      0x04\n      add\n      tag_129\n      swap1\n      tag_130\n      jump\t// in\n    tag_129:\n      mload(0x40)\n      dup1\n      swap2\n      sub\n      swap1\n      revert\n    tag_128:\n        /* \"Contract_Conqueror_Series/ERC20standards.sol\":5961:5962  0 */\n      0x00\n        /* \"Contract_Conqueror_Series/ERC20standards.sol\":5942:5963  spender != address(0) */\n      0xffffffffffffffffffffffffffffffffffffffff\n      and\n        /* \"Contract_Conqueror_Series/ERC20standards.sol\":5942:5949  spender */\n      dup3\n        /* \"Contract_Conqueror_Series/ERC20standards.sol\":5942:5963  spender != address(0) */\n      0xffffffffffffffffffffffffffffffffffffffff\n      and\n      sub\n        /* \"Contract_Conqueror_Series/ERC20standards.sol\":5934:5989  require(spender != address(0), \"ERC20: approve to 0x0\") */\n      tag_131\n      jumpi\n      mload(0x40)\n      0x08c379a000000000000000000000000000000000000000000000000000000000\n      dup2\n      mstore\n      0x04\n      add\n      tag_132\n      swap1\n      tag_133\n      jump\t// in\n    tag_132:\n      mload(0x40)\n      dup1\n      swap2\n      sub\n      swap1\n      revert\n    tag_131:\n        /* \"Contract_Conqueror_Series/ERC20standards.sol\":6035:6041  amount */\n      dup1\n        /* \"Contract_Conqueror_Series/ERC20standards.sol\":6000:6011  _allowances */\n      0x06\n        /* \"Contract_Conqueror_Series/ERC20standards.sol\":6000:6023  _allowances[tokenOwner] */\n      0x00\n        /* \"Contract_Conqueror_Series/ERC20standards.sol\":6012:6022  tokenOwner */\n      dup6\n        /* \"Contract_Conqueror_Series/ERC20standards.sol\":6000:6023  _allowances[tokenOwner] */\n      0xffffffffffffffffffffffffffffffffffffffff\n      and\n      0xffffffffffffffffffffffffffffffffffffffff\n      and\n      dup2\n      mstore\n      0x20\n      add\n      swap1\n      dup2\n      mstore\n      0x20\n      add\n      0x00\n      keccak256\n        /* \"Contract_Conqueror_Series/ERC20standards.sol\":6000:6032  _allowances[tokenOwner][spender] */\n      0x00\n        /* \"Contract_Conqueror_Series/ERC20standards.sol\":6024:6031  spender */\n      dup5\n        /* \"Contract_Conqueror_Series/ERC20standards.sol\":6000:6032  _allowances[tokenOwner][spender] */\n      0xffffffffffffffffffffffffffffffffffffffff\n      and\n      0xffffffffffffffffffffffffffffffffffffffff\n      and\n      dup2\n      mstore\n      0x20\n      add\n      swap1\n      dup2\n      mstore\n      0x20\n      add\n      0x00\n      keccak256\n        /* \"Contract_Conqueror_Series/ERC20standards.sol\":6000:6041  _allowances[tokenOwner][spender] = amount */\n      dup2\n      swap1\n      sstore\n      pop\n        /* \"Contract_Conqueror_Series/ERC20standards.sol\":6078:6085  spender */\n      dup2\n        /* \"Contract_Conqueror_Series/ERC20standards.sol\":6057:6094  Approval(tokenOwner, spender, amount) */\n      0xffffffffffffffffffffffffffffffffffffffff\n      and\n        /* \"Contract_Conqueror_Series/ERC20standards.sol\":6066:6076  tokenOwner */\n      dup4\n        /* \"Contract_Conqueror_Series/ERC20standards.sol\":6057:6094  Approval(tokenOwner, spender, amount) */\n      0xffffffffffffffffffffffffffffffffffffffff\n      and\n      0x8c5be1e5ebec7d5bd14f71427d1e84f3dd0314c0f7b2291e5b200ac8c7c3b925\n        /* \"Contract_Conqueror_Series/ERC20standards.sol\":6087:6093  amount */\n      dup4\n        /* \"Contract_Conqueror_Series/ERC20standards.sol\":6057:6094  Approval(tokenOwner, spender, amount) */\n      mload(0x40)\n      tag_134\n      swap2\n      swap1\n      tag_54\n      jump\t// in\n    tag_134:\n      mload(0x40)\n      dup1\n      swap2\n      sub\n      swap1\n      log3\n        /* \"Contract_Conqueror_Series/ERC20standards.sol\":5773:6102  function _approve(address tokenOwner, address spender, uint256 amount) internal{... */\n      pop\n      pop\n      pop\n      jump\t// out\n        /* \"Contract_Conqueror_Series/ERC20standards.sol\":5329:5727  function _transfer(address from, address to, uint256 amount) internal {... */\n    tag_93:\n        /* \"Contract_Conqueror_Series/ERC20standards.sol\":5434:5435  0 */\n      0x00\n        /* \"Contract_Conqueror_Series/ERC20standards.sol\":5418:5436  from != address(0) */\n      0xffffffffffffffffffffffffffffffffffffffff\n      and\n        /* \"Contract_Conqueror_Series/ERC20standards.sol\":5418:5422  from */\n      dup4\n        /* \"Contract_Conqueror_Series/ERC20standards.sol\":5418:5436  from != address(0) */\n      0xffffffffffffffffffffffffffffffffffffffff\n      and\n      sub\n        /* \"Contract_Conqueror_Series/ERC20standards.sol\":5410:5465  require(from != address(0), \"ERC20: transfer from 0x0\") */\n      tag_136\n      jumpi\n      mload(0x40)\n      0x08c379a000000000000000000000000000000000000000000000000000000000\n      dup2\n      mstore\n      0x04\n      add\n      tag_137\n      swap1\n      tag_138\n      jump\t// in\n    tag_137:\n      mload(0x40)\n      dup1\n      swap2\n      sub\n      swap1\n      revert\n    tag_136:\n        /* \"Contract_Conqueror_Series/ERC20standards.sol\":5498:5499  0 */\n      0x00\n        /* \"Contract_Conqueror_Series/ERC20standards.sol\":5484:5500  to != address(0) */\n      0xffffffffffffffffffffffffffffffffffffffff\n      and\n        /* \"Contract_Conqueror_Series/ERC20standards.sol\":5484:5486  to */\n      dup3\n        /* \"Contract_Conqueror_Series/ERC20standards.sol\":5484:5500  to != address(0) */\n      0xffffffffffffffffffffffffffffffffffffffff\n      and\n      sub\n        /* \"Contract_Conqueror_Series/ERC20standards.sol\":5476:5527  require(to != address(0), \"ERC20: transfer to 0x0\") */\n      tag_139\n      jumpi\n      mload(0x40)\n      0x08c379a000000000000000000000000000000000000000000000000000000000\n      dup2\n      mstore\n      0x04\n      add\n      tag_140\n      swap1\n      tag_141\n      jump\t// in\n    tag_140:\n      mload(0x40)\n      dup1\n      swap2\n      sub\n      swap1\n      revert\n    tag_139:\n        /* \"Contract_Conqueror_Series/ERC20standards.sol\":5565:5571  amount */\n      dup1\n        /* \"Contract_Conqueror_Series/ERC20standards.sol\":5546:5555  _balances */\n      0x05\n        /* \"Contract_Conqueror_Series/ERC20standards.sol\":5546:5561  _balances[from] */\n      0x00\n        /* \"Contract_Conqueror_Series/ERC20standards.sol\":5556:5560  from */\n      dup6\n        /* \"Contract_Conqueror_Series/ERC20standards.sol\":5546:5561  _balances[from] */\n      0xffffffffffffffffffffffffffffffffffffffff\n      and\n      0xffffffffffffffffffffffffffffffffffffffff\n      and\n      dup2\n      mstore\n      0x20\n      add\n      swap1\n      dup2\n      mstore\n      0x20\n      add\n      0x00\n      keccak256\n      sload\n        /* \"Contract_Conqueror_Series/ERC20standards.sol\":5546:5571  _balances[from] >= amount */\n      lt\n      iszero\n        /* \"Contract_Conqueror_Series/ERC20standards.sol\":5538:5603  require(_balances[from] >= amount, \"ERC20: insufficient balance\") */\n      tag_142\n      jumpi\n      mload(0x40)\n      0x08c379a000000000000000000000000000000000000000000000000000000000\n      dup2\n      mstore\n      0x04\n      add\n      tag_143\n      swap1\n      tag_144\n      jump\t// in\n    tag_143:\n      mload(0x40)\n      dup1\n      swap2\n      sub\n      swap1\n      revert\n    tag_142:\n        /* \"Contract_Conqueror_Series/ERC20standards.sol\":5635:5641  amount */\n      dup1\n        /* \"Contract_Conqueror_Series/ERC20standards.sol\":5616:5625  _balances */\n      0x05\n        /* \"Contract_Conqueror_Series/ERC20standards.sol\":5616:5631  _balances[from] */\n      0x00\n        /* \"Contract_Conqueror_Series/ERC20standards.sol\":5626:5630  from */\n      dup6\n        /* \"Contract_Conqueror_Series/ERC20standards.sol\":5616:5631  _balances[from] */\n      0xffffffffffffffffffffffffffffffffffffffff\n      and\n      0xffffffffffffffffffffffffffffffffffffffff\n      and\n      dup2\n      mstore\n      0x20\n      add\n      swap1\n      dup2\n      mstore\n      0x20\n      add\n      0x00\n      keccak256\n      0x00\n        /* \"Contract_Conqueror_Series/ERC20standards.sol\":5616:5641  _balances[from] -= amount */\n      dup3\n      dup3\n      sload\n      tag_145\n      swap2\n      swap1\n      tag_91\n      jump\t// in\n    tag_145:\n      swap3\n      pop\n      pop\n      dup2\n      swap1\n      sstore\n      pop\n        /* \"Contract_Conqueror_Series/ERC20standards.sol\":5669:5675  amount */\n      dup1\n        /* \"Contract_Conqueror_Series/ERC20standards.sol\":5652:5661  _balances */\n      0x05\n        /* \"Contract_Conqueror_Series/ERC20standards.sol\":5652:5665  _balances[to] */\n      0x00\n        /* \"Contract_Conqueror_Series/ERC20standards.sol\":5662:5664  to */\n      dup5\n        /* \"Contract_Conqueror_Series/ERC20standards.sol\":5652:5665  _balances[to] */\n      0xffffffffffffffffffffffffffffffffffffffff\n      and\n      0xffffffffffffffffffffffffffffffffffffffff\n      and\n      dup2\n      mstore\n      0x20\n      add\n      swap1\n      dup2\n      mstore\n      0x20\n      add\n      0x00\n      keccak256\n      0x00\n        /* \"Contract_Conqueror_Series/ERC20standards.sol\":5652:5675  _balances[to] += amount */\n      dup3\n      dup3\n      sload\n      tag_146\n      swap2\n      swap1\n      tag_147\n      jump\t// in\n    tag_146:\n      swap3\n      pop\n      pop\n      dup2\n      swap1\n      sstore\n      pop\n        /* \"Contract_Conqueror_Series/ERC20standards.sol\":5708:5710  to */\n      dup2\n        /* \"Contract_Conqueror_Series/ERC20standards.sol\":5693:5719  Transfer(from, to, amount) */\n      0xffffffffffffffffffffffffffffffffffffffff\n      and\n        /* \"Contract_Conqueror_Series/ERC20standards.sol\":5702:5706  from */\n      dup4\n        /* \"Contract_Conqueror_Series/ERC20standards.sol\":5693:5719  Transfer(from, to, amount) */\n      0xffffffffffffffffffffffffffffffffffffffff\n      and\n      0xddf252ad1be2c89b69c2b068fc378daa952ba7f163c4a11628f55a4df523b3ef\n        /* \"Contract_Conqueror_Series/ERC20standards.sol\":5712:5718  amount */\n      dup4\n        /* \"Contract_Conqueror_Series/ERC20standards.sol\":5693:5719  Transfer(from, to, amount) */\n      mload(0x40)\n      tag_148\n      swap2\n      swap1\n      tag_54\n      jump\t// in\n    tag_148:\n      mload(0x40)\n      dup1\n      swap2\n      sub\n      swap1\n      log3\n        /* \"Contract_Conqueror_Series/ERC20standards.sol\":5329:5727  function _transfer(address from, address to, uint256 amount) internal {... */\n      pop\n      pop\n      pop\n      jump\t// out\n        /* \"Contract_Conqueror_Series/ERC20standards.sol\":4663:4892  function _mint(address to, uint256 amount) internal{... */\n    tag_104:\n        /* \"Contract_Conqueror_Series/ERC20standards.sol\":4747:4748  0 */\n      0x00\n        /* \"Contract_Conqueror_Series/ERC20standards.sol\":4733:4749  to != address(0) */\n      0xffffffffffffffffffffffffffffffffffffffff\n      and\n        /* \"Contract_Conqueror_Series/ERC20standards.sol\":4733:4735  to */\n      dup3\n        /* \"Contract_Conqueror_Series/ERC20standards.sol\":4733:4749  to != address(0) */\n      0xffffffffffffffffffffffffffffffffffffffff\n      and\n      sub\n        /* \"Contract_Conqueror_Series/ERC20standards.sol\":4725:4769  require(to != address(0), \"Invalid address\") */\n      tag_150\n      jumpi\n      mload(0x40)\n      0x08c379a000000000000000000000000000000000000000000000000000000000\n      dup2\n      mstore\n      0x04\n      add\n      tag_151\n      swap1\n      tag_152\n      jump\t// in\n    tag_151:\n      mload(0x40)\n      dup1\n      swap2\n      sub\n      swap1\n      revert\n    tag_150:\n        /* \"Contract_Conqueror_Series/ERC20standards.sol\":4796:4802  amount */\n      dup1\n        /* \"Contract_Conqueror_Series/ERC20standards.sol\":4780:4792  _totalsupply */\n      0x03\n      0x00\n        /* \"Contract_Conqueror_Series/ERC20standards.sol\":4780:4802  _totalsupply += amount */\n      dup3\n      dup3\n      sload\n      tag_153\n      swap2\n      swap1\n      tag_147\n      jump\t// in\n    tag_153:\n      swap3\n      pop\n      pop\n      dup2\n      swap1\n      sstore\n      pop\n        /* \"Contract_Conqueror_Series/ERC20standards.sol\":4830:4836  amount */\n      dup1\n        /* \"Contract_Conqueror_Series/ERC20standards.sol\":4813:4822  _balances */\n      0x05\n        /* \"Contract_Conqueror_Series/ERC20standards.sol\":4813:4826  _balances[to] */\n      0x00\n        /* \"Contract_Conqueror_Series/ERC20standards.sol\":4823:4825  to */\n      dup5\n        /* \"Contract_Conqueror_Series/ERC20standards.sol\":4813:4826  _balances[to] */\n      0xffffffffffffffffffffffffffffffffffffffff\n      and\n      0xffffffffffffffffffffffffffffffffffffffff\n      and\n      dup2\n      mstore\n      0x20\n      add\n      swap1\n      dup2\n      mstore\n      0x20\n      add\n      0x00\n      keccak256\n      0x00\n        /* \"Contract_Conqueror_Series/ERC20standards.sol\":4813:4836  _balances[to] += amount */\n      dup3\n      dup3\n      sload\n      tag_154\n      swap2\n      swap1\n      tag_147\n      jump\t// in\n    tag_154:\n      swap3\n      pop\n      pop\n      dup2\n      swap1\n      sstore\n      pop\n        /* \"Contract_Conqueror_Series/ERC20standards.sol\":4873:4875  to */\n      dup2\n        /* \"Contract_Conqueror_Series/ERC20standards.sol\":4852:4884  Transfer(address(0), to, amount) */\n      0xffffffffffffffffffffffffffffffffffffffff\n      and\n        /* \"Contract_Conqueror_Series/ERC20standards.sol\":4869:4870  0 */\n      0x00\n        /* \"Contract_Conqueror_Series/ERC20standards.sol\":4852:4884  Transfer(address(0), to, amount) */\n      0xffffffffffffffffffffffffffffffffffffffff\n      and\n      0xddf252ad1be2c89b69c2b068fc378daa952ba7f163c4a11628f55a4df523b3ef\n        /* \"Contract_Conqueror_Series/ERC20standards.sol\":4877:4883  amount */\n      dup4\n        /* \"Contract_Conqueror_Series/ERC20standards.sol\":4852:4884  Transfer(address(0), to, amount) */\n      mload(0x40)\n      tag_155\n      swap2\n      swap1\n      tag_54\n      jump\t// in\n    tag_155:\n      mload(0x40)\n      dup1\n      swap2\n      sub\n      swap1\n      log3\n        /* \"Contract_Conqueror_Series/ERC20standards.sol\":4663:4892  function _mint(address to, uint256 amount) internal{... */\n      pop\n      pop\n      jump\t// out\n        /* \"Contract_Conqueror_Series/ERC20standards.sol\":4935:5281  function _burn(address from, uint256 amount) internal{... */\n    tag_110:\n        /* \"Contract_Conqueror_Series/ERC20standards.sol\":5023:5024  0 */\n      0x00\n        /* \"Contract_Conqueror_Series/ERC20standards.sol\":5007:5025  from != address(0) */\n      0xffffffffffffffffffffffffffffffffffffffff\n      and\n        /* \"Contract_Conqueror_Series/ERC20standards.sol\":5007:5011  from */\n      dup3\n        /* \"Contract_Conqueror_Series/ERC20standards.sol\":5007:5025  from != address(0) */\n      0xffffffffffffffffffffffffffffffffffffffff\n      and\n      sub\n        /* \"Contract_Conqueror_Series/ERC20standards.sol\":4999:5045  require(from != address(0), \"Invalid address\") */\n      tag_157\n      jumpi\n      mload(0x40)\n      0x08c379a000000000000000000000000000000000000000000000000000000000\n      dup2\n      mstore\n      0x04\n      add\n      tag_158\n      swap1\n      tag_152\n      jump\t// in\n    tag_158:\n      mload(0x40)\n      dup1\n      swap2\n      sub\n      swap1\n      revert\n    tag_157:\n        /* \"Contract_Conqueror_Series/ERC20standards.sol\":5083:5089  amount */\n      dup1\n        /* \"Contract_Conqueror_Series/ERC20standards.sol\":5064:5073  _balances */\n      0x05\n        /* \"Contract_Conqueror_Series/ERC20standards.sol\":5064:5079  _balances[from] */\n      0x00\n        /* \"Contract_Conqueror_Series/ERC20standards.sol\":5074:5078  from */\n      dup5\n        /* \"Contract_Conqueror_Series/ERC20standards.sol\":5064:5079  _balances[from] */\n      0xffffffffffffffffffffffffffffffffffffffff\n      and\n      0xffffffffffffffffffffffffffffffffffffffff\n      and\n      dup2\n      mstore\n      0x20\n      add\n      swap1\n      dup2\n      mstore\n      0x20\n      add\n      0x00\n      keccak256\n      sload\n        /* \"Contract_Conqueror_Series/ERC20standards.sol\":5064:5089  _balances[from] >= amount */\n      lt\n      iszero\n        /* \"Contract_Conqueror_Series/ERC20standards.sol\":5056:5121  require(_balances[from] >= amount, \"ERC20: insufficient balance\") */\n      tag_159\n      jumpi\n      mload(0x40)\n      0x08c379a000000000000000000000000000000000000000000000000000000000\n      dup2\n      mstore\n      0x04\n      add\n      tag_160\n      swap1\n      tag_144\n      jump\t// in\n    tag_160:\n      mload(0x40)\n      dup1\n      swap2\n      sub\n      swap1\n      revert\n    tag_159:\n        /* \"Contract_Conqueror_Series/ERC20standards.sol\":5151:5157  amount */\n      dup1\n        /* \"Contract_Conqueror_Series/ERC20standards.sol\":5132:5141  _balances */\n      0x05\n        /* \"Contract_Conqueror_Series/ERC20standards.sol\":5132:5147  _balances[from] */\n      0x00\n        /* \"Contract_Conqueror_Series/ERC20standards.sol\":5142:5146  from */\n      dup5\n        /* \"Contract_Conqueror_Series/ERC20standards.sol\":5132:5147  _balances[from] */\n      0xffffffffffffffffffffffffffffffffffffffff\n      and\n      0xffffffffffffffffffffffffffffffffffffffff\n      and\n      dup2\n      mstore\n      0x20\n      add\n      swap1\n      dup2\n      mstore\n      0x20\n      add\n      0x00\n      keccak256\n      0x00\n        /* \"Contract_Conqueror_Series/ERC20standards.sol\":5132:5157  _balances[from] -= amount */\n      dup3\n      dup3\n      sload\n      tag_161\n      swap2\n      swap1\n      tag_91\n      jump\t// in\n    tag_161:\n      swap3\n      pop\n      pop\n      dup2\n      swap1\n      sstore\n      pop\n        /* \"Contract_Conqueror_Series/ERC20standards.sol\":5184:5190  amount */\n      dup1\n        /* \"Contract_Conqueror_Series/ERC20standards.sol\":5168:5180  _totalsupply */\n      0x03\n      0x00\n        /* \"Contract_Conqueror_Series/ERC20standards.sol\":5168:5190  _totalsupply -= amount */\n      dup3\n      dup3\n      sload\n      tag_162\n      swap2\n      swap1\n      tag_91\n      jump\t// in\n    tag_162:\n      swap3\n      pop\n      pop\n      dup2\n      swap1\n      sstore\n      pop\n        /* \"Contract_Conqueror_Series/ERC20standards.sol\":5211:5215  from */\n      dup2\n        /* \"Contract_Conqueror_Series/ERC20standards.sol\":5206:5224  Burn(from, amount) */\n      0xffffffffffffffffffffffffffffffffffffffff\n      and\n      0xcc16f5dbb4873280815c1ee09dbd06736cffcc184412cf7a71a0fdb75d397ca5\n        /* \"Contract_Conqueror_Series/ERC20standards.sol\":5217:5223  amount */\n      dup3\n        /* \"Contract_Conqueror_Series/ERC20standards.sol\":5206:5224  Burn(from, amount) */\n      mload(0x40)\n      tag_163\n      swap2\n      swap1\n      tag_54\n      jump\t// in\n    tag_163:\n      mload(0x40)\n      dup1\n      swap2\n      sub\n      swap1\n      log2\n        /* \"Contract_Conqueror_Series/ERC20standards.sol\":5263:5264  0 */\n      0x00\n        /* \"Contract_Conqueror_Series/ERC20standards.sol\":5240:5273  Transfer(from, address(0),amount) */\n      0xffffffffffffffffffffffffffffffffffffffff\n      and\n        /* \"Contract_Conqueror_Series/ERC20standards.sol\":5249:5253  from */\n      dup3\n        /* \"Contract_Conqueror_Series/ERC20standards.sol\":5240:5273  Transfer(from, address(0),amount) */\n      0xffffffffffffffffffffffffffffffffffffffff\n      and\n      0xddf252ad1be2c89b69c2b068fc378daa952ba7f163c4a11628f55a4df523b3ef\n        /* \"Contract_Conqueror_Series/ERC20standards.sol\":5266:5272  amount */\n      dup4\n        /* \"Contract_Conqueror_Series/ERC20standards.sol\":5240:5273  Transfer(from, address(0),amount) */\n      mload(0x40)\n      tag_164\n      swap2\n      swap1\n      tag_54\n      jump\t// in\n    tag_164:\n      mload(0x40)\n      dup1\n      swap2\n      sub\n      swap1\n      log3\n        /* \"Contract_Conqueror_Series/ERC20standards.sol\":4935:5281  function _burn(address from, uint256 amount) internal{... */\n      pop\n      pop\n      jump\t// out\n        /* \"#utility.yul\":7:106   */\n    tag_165:\n        /* \"#utility.yul\":59:65   */\n      0x00\n        /* \"#utility.yul\":93:98   */\n      dup2\n        /* \"#utility.yul\":87:99   */\n      mload\n        /* \"#utility.yul\":77:99   */\n      swap1\n      pop\n        /* \"#utility.yul\":7:106   */\n      swap2\n      swap1\n      pop\n      jump\t// out\n        /* \"#utility.yul\":112:281   */\n    tag_166:\n        /* \"#utility.yul\":196:207   */\n      0x00\n        /* \"#utility.yul\":230:236   */\n      dup3\n        /* \"#utility.yul\":225:228   */\n      dup3\n        /* \"#utility.yul\":218:237   */\n      mstore\n        /* \"#utility.yul\":270:274   */\n      0x20\n        /* \"#utility.yul\":265:268   */\n      dup3\n        /* \"#utility.yul\":261:275   */\n      add\n        /* \"#utility.yul\":246:275   */\n      swap1\n      pop\n        /* \"#utility.yul\":112:281   */\n      swap3\n      swap2\n      pop\n      pop\n      jump\t// out\n        /* \"#utility.yul\":287:426   */\n    tag_167:\n        /* \"#utility.yul\":376:382   */\n      dup3\n        /* \"#utility.yul\":371:374   */\n      dup2\n        /* \"#utility.yul\":366:369   */\n      dup4\n        /* \"#utility.yul\":360:383   */\n      mcopy\n        /* \"#utility.yul\":417:418   */\n      0x00\n        /* \"#utility.yul\":408:414   */\n      dup4\n        /* \"#utility.yul\":403:406   */\n      dup4\n        /* \"#utility.yul\":399:415   */\n      add\n        /* \"#utility.yul\":392:419   */\n      mstore\n        /* \"#utility.yul\":287:426   */\n      pop\n      pop\n      pop\n      jump\t// out\n        /* \"#utility.yul\":432:534   */\n    tag_168:\n        /* \"#utility.yul\":473:479   */\n      0x00\n        /* \"#utility.yul\":524:526   */\n      0x1f\n        /* \"#utility.yul\":520:527   */\n      not\n        /* \"#utility.yul\":515:517   */\n      0x1f\n        /* \"#utility.yul\":508:513   */\n      dup4\n        /* \"#utility.yul\":504:518   */\n      add\n        /* \"#utility.yul\":500:528   */\n      and\n        /* \"#utility.yul\":490:528   */\n      swap1\n      pop\n        /* \"#utility.yul\":432:534   */\n      swap2\n      swap1\n      pop\n      jump\t// out\n        /* \"#utility.yul\":540:917   */\n    tag_169:\n        /* \"#utility.yul\":628:631   */\n      0x00\n        /* \"#utility.yul\":656:695   */\n      tag_217\n        /* \"#utility.yul\":689:694   */\n      dup3\n        /* \"#utility.yul\":656:695   */\n      tag_165\n      jump\t// in\n    tag_217:\n        /* \"#utility.yul\":711:782   */\n      tag_218\n        /* \"#utility.yul\":775:781   */\n      dup2\n        /* \"#utility.yul\":770:773   */\n      dup6\n        /* \"#utility.yul\":711:782   */\n      tag_166\n      jump\t// in\n    tag_218:\n        /* \"#utility.yul\":704:782   */\n      swap4\n      pop\n        /* \"#utility.yul\":791:856   */\n      tag_219\n        /* \"#utility.yul\":849:855   */\n      dup2\n        /* \"#utility.yul\":844:847   */\n      dup6\n        /* \"#utility.yul\":837:841   */\n      0x20\n        /* \"#utility.yul\":830:835   */\n      dup7\n        /* \"#utility.yul\":826:842   */\n      add\n        /* \"#utility.yul\":791:856   */\n      tag_167\n      jump\t// in\n    tag_219:\n        /* \"#utility.yul\":881:910   */\n      tag_220\n        /* \"#utility.yul\":903:909   */\n      dup2\n        /* \"#utility.yul\":881:910   */\n      tag_168\n      jump\t// in\n    tag_220:\n        /* \"#utility.yul\":876:879   */\n      dup5\n        /* \"#utility.yul\":872:911   */\n      add\n        /* \"#utility.yul\":865:911   */\n      swap2\n      pop\n        /* \"#utility.yul\":632:917   */\n      pop\n        /* \"#utility.yul\":540:917   */\n      swap3\n      swap2\n      pop\n      pop\n      jump\t// out\n        /* \"#utility.yul\":923:1236   */\n    tag_23:\n        /* \"#utility.yul\":1036:1040   */\n      0x00\n        /* \"#utility.yul\":1074:1076   */\n      0x20\n        /* \"#utility.yul\":1063:1072   */\n      dup3\n        /* \"#utility.yul\":1059:1077   */\n      add\n        /* \"#utility.yul\":1051:1077   */\n      swap1\n      pop\n        /* \"#utility.yul\":1123:1132   */\n      dup2\n        /* \"#utility.yul\":1117:1121   */\n      dup2\n        /* \"#utility.yul\":1113:1133   */\n      sub\n        /* \"#utility.yul\":1109:1110   */\n      0x00\n        /* \"#utility.yul\":1098:1107   */\n      dup4\n        /* \"#utility.yul\":1094:1111   */\n      add\n        /* \"#utility.yul\":1087:1134   */\n      mstore\n        /* \"#utility.yul\":1151:1229   */\n      tag_222\n        /* \"#utility.yul\":1224:1228   */\n      dup2\n        /* \"#utility.yul\":1215:1221   */\n      dup5\n        /* \"#utility.yul\":1151:1229   */\n      tag_169\n      jump\t// in\n    tag_222:\n        /* \"#utility.yul\":1143:1229   */\n      swap1\n      pop\n        /* \"#utility.yul\":923:1236   */\n      swap3\n      swap2\n      pop\n      pop\n      jump\t// out\n        /* \"#utility.yul\":1323:1440   */\n    tag_171:\n        /* \"#utility.yul\":1432:1433   */\n      0x00\n        /* \"#utility.yul\":1429:1430   */\n      0x00\n        /* \"#utility.yul\":1422:1434   */\n      revert\n        /* \"#utility.yul\":1569:1695   */\n    tag_173:\n        /* \"#utility.yul\":1606:1613   */\n      0x00\n        /* \"#utility.yul\":1646:1688   */\n      0xffffffffffffffffffffffffffffffffffffffff\n        /* \"#utility.yul\":1639:1644   */\n      dup3\n        /* \"#utility.yul\":1635:1689   */\n      and\n        /* \"#utility.yul\":1624:1689   */\n      swap1\n      pop\n        /* \"#utility.yul\":1569:1695   */\n      swap2\n      swap1\n      pop\n      jump\t// out\n        /* \"#utility.yul\":1701:1797   */\n    tag_174:\n        /* \"#utility.yul\":1738:1745   */\n      0x00\n        /* \"#utility.yul\":1767:1791   */\n      tag_228\n        /* \"#utility.yul\":1785:1790   */\n      dup3\n        /* \"#utility.yul\":1767:1791   */\n      tag_173\n      jump\t// in\n    tag_228:\n        /* \"#utility.yul\":1756:1791   */\n      swap1\n      pop\n        /* \"#utility.yul\":1701:1797   */\n      swap2\n      swap1\n      pop\n      jump\t// out\n        /* \"#utility.yul\":1803:1925   */\n    tag_175:\n        /* \"#utility.yul\":1876:1900   */\n      tag_230\n        /* \"#utility.yul\":1894:1899   */\n      dup2\n        /* \"#utility.yul\":1876:1900   */\n      tag_174\n      jump\t// in\n    tag_230:\n        /* \"#utility.yul\":1869:1874   */\n      dup2\n        /* \"#utility.yul\":1866:1901   */\n      eq\n        /* \"#utility.yul\":1856:1919   */\n      tag_231\n      jumpi\n        /* \"#utility.yul\":1915:1916   */\n      0x00\n        /* \"#utility.yul\":1912:1913   */\n      0x00\n        /* \"#utility.yul\":1905:1917   */\n      revert\n        /* \"#utility.yul\":1856:1919   */\n    tag_231:\n        /* \"#utility.yul\":1803:1925   */\n      pop\n      jump\t// out\n        /* \"#utility.yul\":1931:2070   */\n    tag_176:\n        /* \"#utility.yul\":1977:1982   */\n      0x00\n        /* \"#utility.yul\":2015:2021   */\n      dup2\n        /* \"#utility.yul\":2002:2022   */\n      calldataload\n        /* \"#utility.yul\":1993:2022   */\n      swap1\n      pop\n        /* \"#utility.yul\":2031:2064   */\n      tag_233\n        /* \"#utility.yul\":2058:2063   */\n      dup2\n        /* \"#utility.yul\":2031:2064   */\n      tag_175\n      jump\t// in\n    tag_233:\n        /* \"#utility.yul\":1931:2070   */\n      swap3\n      swap2\n      pop\n      pop\n      jump\t// out\n        /* \"#utility.yul\":2076:2153   */\n    tag_177:\n        /* \"#utility.yul\":2113:2120   */\n      0x00\n        /* \"#utility.yul\":2142:2147   */\n      dup2\n        /* \"#utility.yul\":2131:2147   */\n      swap1\n      pop\n        /* \"#utility.yul\":2076:2153   */\n      swap2\n      swap1\n      pop\n      jump\t// out\n        /* \"#utility.yul\":2159:2281   */\n    tag_178:\n        /* \"#utility.yul\":2232:2256   */\n      tag_236\n        /* \"#utility.yul\":2250:2255   */\n      dup2\n        /* \"#utility.yul\":2232:2256   */\n      tag_177\n      jump\t// in\n    tag_236:\n        /* \"#utility.yul\":2225:2230   */\n      dup2\n        /* \"#utility.yul\":2222:2257   */\n      eq\n        /* \"#utility.yul\":2212:2275   */\n      tag_237\n      jumpi\n        /* \"#utility.yul\":2271:2272   */\n      0x00\n        /* \"#utility.yul\":2268:2269   */\n      0x00\n        /* \"#utility.yul\":2261:2273   */\n      revert\n        /* \"#utility.yul\":2212:2275   */\n    tag_237:\n        /* \"#utility.yul\":2159:2281   */\n      pop\n      jump\t// out\n        /* \"#utility.yul\":2287:2426   */\n    tag_179:\n        /* \"#utility.yul\":2333:2338   */\n      0x00\n        /* \"#utility.yul\":2371:2377   */\n      dup2\n        /* \"#utility.yul\":2358:2378   */\n      calldataload\n        /* \"#utility.yul\":2349:2378   */\n      swap1\n      pop\n        /* \"#utility.yul\":2387:2420   */\n      tag_239\n        /* \"#utility.yul\":2414:2419   */\n      dup2\n        /* \"#utility.yul\":2387:2420   */\n      tag_178\n      jump\t// in\n    tag_239:\n        /* \"#utility.yul\":2287:2426   */\n      swap3\n      swap2\n      pop\n      pop\n      jump\t// out\n        /* \"#utility.yul\":2432:2906   */\n    tag_26:\n        /* \"#utility.yul\":2500:2506   */\n      0x00\n        /* \"#utility.yul\":2508:2514   */\n      0x00\n        /* \"#utility.yul\":2557:2559   */\n      0x40\n        /* \"#utility.yul\":2545:2554   */\n      dup4\n        /* \"#utility.yul\":2536:2543   */\n      dup6\n        /* \"#utility.yul\":2532:2555   */\n      sub\n        /* \"#utility.yul\":2528:2560   */\n      slt\n        /* \"#utility.yul\":2525:2644   */\n      iszero\n      tag_241\n      jumpi\n        /* \"#utility.yul\":2563:2642   */\n      tag_242\n      tag_171\n      jump\t// in\n    tag_242:\n        /* \"#utility.yul\":2525:2644   */\n    tag_241:\n        /* \"#utility.yul\":2683:2684   */\n      0x00\n        /* \"#utility.yul\":2708:2761   */\n      tag_243\n        /* \"#utility.yul\":2753:2760   */\n      dup6\n        /* \"#utility.yul\":2744:2750   */\n      dup3\n        /* \"#utility.yul\":2733:2742   */\n      dup7\n        /* \"#utility.yul\":2729:2751   */\n      add\n        /* \"#utility.yul\":2708:2761   */\n      tag_176\n      jump\t// in\n    tag_243:\n        /* \"#utility.yul\":2698:2761   */\n      swap3\n      pop\n        /* \"#utility.yul\":2654:2771   */\n      pop\n        /* \"#utility.yul\":2810:2812   */\n      0x20\n        /* \"#utility.yul\":2836:2889   */\n      tag_244\n        /* \"#utility.yul\":2881:2888   */\n      dup6\n        /* \"#utility.yul\":2872:2878   */\n      dup3\n        /* \"#utility.yul\":2861:2870   */\n      dup7\n        /* \"#utility.yul\":2857:2879   */\n      add\n        /* \"#utility.yul\":2836:2889   */\n      tag_179\n      jump\t// in\n    tag_244:\n        /* \"#utility.yul\":2826:2889   */\n      swap2\n      pop\n        /* \"#utility.yul\":2781:2899   */\n      pop\n        /* \"#utility.yul\":2432:2906   */\n      swap3\n      pop\n      swap3\n      swap1\n      pop\n      jump\t// out\n        /* \"#utility.yul\":2912:3002   */\n    tag_180:\n        /* \"#utility.yul\":2946:2953   */\n      0x00\n        /* \"#utility.yul\":2989:2994   */\n      dup2\n        /* \"#utility.yul\":2982:2995   */\n      iszero\n        /* \"#utility.yul\":2975:2996   */\n      iszero\n        /* \"#utility.yul\":2964:2996   */\n      swap1\n      pop\n        /* \"#utility.yul\":2912:3002   */\n      swap2\n      swap1\n      pop\n      jump\t// out\n        /* \"#utility.yul\":3008:3117   */\n    tag_181:\n        /* \"#utility.yul\":3089:3110   */\n      tag_247\n        /* \"#utility.yul\":3104:3109   */\n      dup2\n        /* \"#utility.yul\":3089:3110   */\n      tag_180\n      jump\t// in\n    tag_247:\n        /* \"#utility.yul\":3084:3087   */\n      dup3\n        /* \"#utility.yul\":3077:3111   */\n      mstore\n        /* \"#utility.yul\":3008:3117   */\n      pop\n      pop\n      jump\t// out\n        /* \"#utility.yul\":3123:3333   */\n    tag_29:\n        /* \"#utility.yul\":3210:3214   */\n      0x00\n        /* \"#utility.yul\":3248:3250   */\n      0x20\n        /* \"#utility.yul\":3237:3246   */\n      dup3\n        /* \"#utility.yul\":3233:3251   */\n      add\n        /* \"#utility.yul\":3225:3251   */\n      swap1\n      pop\n        /* \"#utility.yul\":3261:3326   */\n      tag_249\n        /* \"#utility.yul\":3323:3324   */\n      0x00\n        /* \"#utility.yul\":3312:3321   */\n      dup4\n        /* \"#utility.yul\":3308:3325   */\n      add\n        /* \"#utility.yul\":3299:3305   */\n      dup5\n        /* \"#utility.yul\":3261:3326   */\n      tag_181\n      jump\t// in\n    tag_249:\n        /* \"#utility.yul\":3123:3333   */\n      swap3\n      swap2\n      pop\n      pop\n      jump\t// out\n        /* \"#utility.yul\":3339:3958   */\n    tag_32:\n        /* \"#utility.yul\":3416:3422   */\n      0x00\n        /* \"#utility.yul\":3424:3430   */\n      0x00\n        /* \"#utility.yul\":3432:3438   */\n      0x00\n        /* \"#utility.yul\":3481:3483   */\n      0x60\n        /* \"#utility.yul\":3469:3478   */\n      dup5\n        /* \"#utility.yul\":3460:3467   */\n      dup7\n        /* \"#utility.yul\":3456:3479   */\n      sub\n        /* \"#utility.yul\":3452:3484   */\n      slt\n        /* \"#utility.yul\":3449:3568   */\n      iszero\n      tag_251\n      jumpi\n        /* \"#utility.yul\":3487:3566   */\n      tag_252\n      tag_171\n      jump\t// in\n    tag_252:\n        /* \"#utility.yul\":3449:3568   */\n    tag_251:\n        /* \"#utility.yul\":3607:3608   */\n      0x00\n        /* \"#utility.yul\":3632:3685   */\n      tag_253\n        /* \"#utility.yul\":3677:3684   */\n      dup7\n        /* \"#utility.yul\":3668:3674   */\n      dup3\n        /* \"#utility.yul\":3657:3666   */\n      dup8\n        /* \"#utility.yul\":3653:3675   */\n      add\n        /* \"#utility.yul\":3632:3685   */\n      tag_176\n      jump\t// in\n    tag_253:\n        /* \"#utility.yul\":3622:3685   */\n      swap4\n      pop\n        /* \"#utility.yul\":3578:3695   */\n      pop\n        /* \"#utility.yul\":3734:3736   */\n      0x20\n        /* \"#utility.yul\":3760:3813   */\n      tag_254\n        /* \"#utility.yul\":3805:3812   */\n      dup7\n        /* \"#utility.yul\":3796:3802   */\n      dup3\n        /* \"#utility.yul\":3785:3794   */\n      dup8\n        /* \"#utility.yul\":3781:3803   */\n      add\n        /* \"#utility.yul\":3760:3813   */\n      tag_176\n      jump\t// in\n    tag_254:\n        /* \"#utility.yul\":3750:3813   */\n      swap3\n      pop\n        /* \"#utility.yul\":3705:3823   */\n      pop\n        /* \"#utility.yul\":3862:3864   */\n      0x40\n        /* \"#utility.yul\":3888:3941   */\n      tag_255\n        /* \"#utility.yul\":3933:3940   */\n      dup7\n        /* \"#utility.yul\":3924:3930   */\n      dup3\n        /* \"#utility.yul\":3913:3922   */\n      dup8\n        /* \"#utility.yul\":3909:3931   */\n      add\n        /* \"#utility.yul\":3888:3941   */\n      tag_179\n      jump\t// in\n    tag_255:\n        /* \"#utility.yul\":3878:3941   */\n      swap2\n      pop\n        /* \"#utility.yul\":3833:3951   */\n      pop\n        /* \"#utility.yul\":3339:3958   */\n      swap3\n      pop\n      swap3\n      pop\n      swap3\n      jump\t// out\n        /* \"#utility.yul\":3964:4050   */\n    tag_182:\n        /* \"#utility.yul\":3999:4006   */\n      0x00\n        /* \"#utility.yul\":4039:4043   */\n      0xff\n        /* \"#utility.yul\":4032:4037   */\n      dup3\n        /* \"#utility.yul\":4028:4044   */\n      and\n        /* \"#utility.yul\":4017:4044   */\n      swap1\n      pop\n        /* \"#utility.yul\":3964:4050   */\n      swap2\n      swap1\n      pop\n      jump\t// out\n        /* \"#utility.yul\":4056:4168   */\n    tag_183:\n        /* \"#utility.yul\":4139:4161   */\n      tag_258\n        /* \"#utility.yul\":4155:4160   */\n      dup2\n        /* \"#utility.yul\":4139:4161   */\n      tag_182\n      jump\t// in\n    tag_258:\n        /* \"#utility.yul\":4134:4137   */\n      dup3\n        /* \"#utility.yul\":4127:4162   */\n      mstore\n        /* \"#utility.yul\":4056:4168   */\n      pop\n      pop\n      jump\t// out\n        /* \"#utility.yul\":4174:4388   */\n    tag_38:\n        /* \"#utility.yul\":4263:4267   */\n      0x00\n        /* \"#utility.yul\":4301:4303   */\n      0x20\n        /* \"#utility.yul\":4290:4299   */\n      dup3\n        /* \"#utility.yul\":4286:4304   */\n      add\n        /* \"#utility.yul\":4278:4304   */\n      swap1\n      pop\n        /* \"#utility.yul\":4314:4381   */\n      tag_260\n        /* \"#utility.yul\":4378:4379   */\n      0x00\n        /* \"#utility.yul\":4367:4376   */\n      dup4\n        /* \"#utility.yul\":4363:4380   */\n      add\n        /* \"#utility.yul\":4354:4360   */\n      dup5\n        /* \"#utility.yul\":4314:4381   */\n      tag_183\n      jump\t// in\n    tag_260:\n        /* \"#utility.yul\":4174:4388   */\n      swap3\n      swap2\n      pop\n      pop\n      jump\t// out\n        /* \"#utility.yul\":4394:4723   */\n    tag_44:\n        /* \"#utility.yul\":4453:4459   */\n      0x00\n        /* \"#utility.yul\":4502:4504   */\n      0x20\n        /* \"#utility.yul\":4490:4499   */\n      dup3\n        /* \"#utility.yul\":4481:4488   */\n      dup5\n        /* \"#utility.yul\":4477:4500   */\n      sub\n        /* \"#utility.yul\":4473:4505   */\n      slt\n        /* \"#utility.yul\":4470:4589   */\n      iszero\n      tag_262\n      jumpi\n        /* \"#utility.yul\":4508:4587   */\n      tag_263\n      tag_171\n      jump\t// in\n    tag_263:\n        /* \"#utility.yul\":4470:4589   */\n    tag_262:\n        /* \"#utility.yul\":4628:4629   */\n      0x00\n        /* \"#utility.yul\":4653:4706   */\n      tag_264\n        /* \"#utility.yul\":4698:4705   */\n      dup5\n        /* \"#utility.yul\":4689:4695   */\n      dup3\n        /* \"#utility.yul\":4678:4687   */\n      dup6\n        /* \"#utility.yul\":4674:4696   */\n      add\n        /* \"#utility.yul\":4653:4706   */\n      tag_179\n      jump\t// in\n    tag_264:\n        /* \"#utility.yul\":4643:4706   */\n      swap2\n      pop\n        /* \"#utility.yul\":4599:4716   */\n      pop\n        /* \"#utility.yul\":4394:4723   */\n      swap3\n      swap2\n      pop\n      pop\n      jump\t// out\n        /* \"#utility.yul\":4729:5058   */\n    tag_51:\n        /* \"#utility.yul\":4788:4794   */\n      0x00\n        /* \"#utility.yul\":4837:4839   */\n      0x20\n        /* \"#utility.yul\":4825:4834   */\n      dup3\n        /* \"#utility.yul\":4816:4823   */\n      dup5\n        /* \"#utility.yul\":4812:4835   */\n      sub\n        /* \"#utility.yul\":4808:4840   */\n      slt\n        /* \"#utility.yul\":4805:4924   */\n      iszero\n      tag_266\n      jumpi\n        /* \"#utility.yul\":4843:4922   */\n      tag_267\n      tag_171\n      jump\t// in\n    tag_267:\n        /* \"#utility.yul\":4805:4924   */\n    tag_266:\n        /* \"#utility.yul\":4963:4964   */\n      0x00\n        /* \"#utility.yul\":4988:5041   */\n      tag_268\n        /* \"#utility.yul\":5033:5040   */\n      dup5\n        /* \"#utility.yul\":5024:5030   */\n      dup3\n        /* \"#utility.yul\":5013:5022   */\n      dup6\n        /* \"#utility.yul\":5009:5031   */\n      add\n        /* \"#utility.yul\":4988:5041   */\n      tag_176\n      jump\t// in\n    tag_268:\n        /* \"#utility.yul\":4978:5041   */\n      swap2\n      pop\n        /* \"#utility.yul\":4934:5051   */\n      pop\n        /* \"#utility.yul\":4729:5058   */\n      swap3\n      swap2\n      pop\n      pop\n      jump\t// out\n        /* \"#utility.yul\":5064:5182   */\n    tag_184:\n        /* \"#utility.yul\":5151:5175   */\n      tag_270\n        /* \"#utility.yul\":5169:5174   */\n      dup2\n        /* \"#utility.yul\":5151:5175   */\n      tag_177\n      jump\t// in\n    tag_270:\n        /* \"#utility.yul\":5146:5149   */\n      dup3\n        /* \"#utility.yul\":5139:5176   */\n      mstore\n        /* \"#utility.yul\":5064:5182   */\n      pop\n      pop\n      jump\t// out\n        /* \"#utility.yul\":5188:5410   */\n    tag_54:\n        /* \"#utility.yul\":5281:5285   */\n      0x00\n        /* \"#utility.yul\":5319:5321   */\n      0x20\n        /* \"#utility.yul\":5308:5317   */\n      dup3\n        /* \"#utility.yul\":5304:5322   */\n      add\n        /* \"#utility.yul\":5296:5322   */\n      swap1\n      pop\n        /* \"#utility.yul\":5332:5403   */\n      tag_272\n        /* \"#utility.yul\":5400:5401   */\n      0x00\n        /* \"#utility.yul\":5389:5398   */\n      dup4\n        /* \"#utility.yul\":5385:5402   */\n      add\n        /* \"#utility.yul\":5376:5382   */\n      dup5\n        /* \"#utility.yul\":5332:5403   */\n      tag_184\n      jump\t// in\n    tag_272:\n        /* \"#utility.yul\":5188:5410   */\n      swap3\n      swap2\n      pop\n      pop\n      jump\t// out\n        /* \"#utility.yul\":5416:5534   */\n    tag_185:\n        /* \"#utility.yul\":5503:5527   */\n      tag_274\n        /* \"#utility.yul\":5521:5526   */\n      dup2\n        /* \"#utility.yul\":5503:5527   */\n      tag_174\n      jump\t// in\n    tag_274:\n        /* \"#utility.yul\":5498:5501   */\n      dup3\n        /* \"#utility.yul\":5491:5528   */\n      mstore\n        /* \"#utility.yul\":5416:5534   */\n      pop\n      pop\n      jump\t// out\n        /* \"#utility.yul\":5540:5762   */\n    tag_61:\n        /* \"#utility.yul\":5633:5637   */\n      0x00\n        /* \"#utility.yul\":5671:5673   */\n      0x20\n        /* \"#utility.yul\":5660:5669   */\n      dup3\n        /* \"#utility.yul\":5656:5674   */\n      add\n        /* \"#utility.yul\":5648:5674   */\n      swap1\n      pop\n        /* \"#utility.yul\":5684:5755   */\n      tag_276\n        /* \"#utility.yul\":5752:5753   */\n      0x00\n        /* \"#utility.yul\":5741:5750   */\n      dup4\n        /* \"#utility.yul\":5737:5754   */\n      add\n        /* \"#utility.yul\":5728:5734   */\n      dup5\n        /* \"#utility.yul\":5684:5755   */\n      tag_185\n      jump\t// in\n    tag_276:\n        /* \"#utility.yul\":5540:5762   */\n      swap3\n      swap2\n      pop\n      pop\n      jump\t// out\n        /* \"#utility.yul\":5768:6242   */\n    tag_74:\n        /* \"#utility.yul\":5836:5842   */\n      0x00\n        /* \"#utility.yul\":5844:5850   */\n      0x00\n        /* \"#utility.yul\":5893:5895   */\n      0x40\n        /* \"#utility.yul\":5881:5890   */\n      dup4\n        /* \"#utility.yul\":5872:5879   */\n      dup6\n        /* \"#utility.yul\":5868:5891   */\n      sub\n        /* \"#utility.yul\":5864:5896   */\n      slt\n        /* \"#utility.yul\":5861:5980   */\n      iszero\n      tag_278\n      jumpi\n        /* \"#utility.yul\":5899:5978   */\n      tag_279\n      tag_171\n      jump\t// in\n    tag_279:\n        /* \"#utility.yul\":5861:5980   */\n    tag_278:\n        /* \"#utility.yul\":6019:6020   */\n      0x00\n        /* \"#utility.yul\":6044:6097   */\n      tag_280\n        /* \"#utility.yul\":6089:6096   */\n      dup6\n        /* \"#utility.yul\":6080:6086   */\n      dup3\n        /* \"#utility.yul\":6069:6078   */\n      dup7\n        /* \"#utility.yul\":6065:6087   */\n      add\n        /* \"#utility.yul\":6044:6097   */\n      tag_176\n      jump\t// in\n    tag_280:\n        /* \"#utility.yul\":6034:6097   */\n      swap3\n      pop\n        /* \"#utility.yul\":5990:6107   */\n      pop\n        /* \"#utility.yul\":6146:6148   */\n      0x20\n        /* \"#utility.yul\":6172:6225   */\n      tag_281\n        /* \"#utility.yul\":6217:6224   */\n      dup6\n        /* \"#utility.yul\":6208:6214   */\n      dup3\n        /* \"#utility.yul\":6197:6206   */\n      dup7\n        /* \"#utility.yul\":6193:6215   */\n      add\n        /* \"#utility.yul\":6172:6225   */\n      tag_176\n      jump\t// in\n    tag_281:\n        /* \"#utility.yul\":6162:6225   */\n      swap2\n      pop\n        /* \"#utility.yul\":6117:6235   */\n      pop\n        /* \"#utility.yul\":5768:6242   */\n      swap3\n      pop\n      swap3\n      swap1\n      pop\n      jump\t// out\n        /* \"#utility.yul\":6248:6428   */\n    tag_186:\n        /* \"#utility.yul\":6296:6373   */\n      0x4e487b7100000000000000000000000000000000000000000000000000000000\n        /* \"#utility.yul\":6293:6294   */\n      0x00\n        /* \"#utility.yul\":6286:6374   */\n      mstore\n        /* \"#utility.yul\":6393:6397   */\n      0x22\n        /* \"#utility.yul\":6390:6391   */\n      0x04\n        /* \"#utility.yul\":6383:6398   */\n      mstore\n        /* \"#utility.yul\":6417:6421   */\n      0x24\n        /* \"#utility.yul\":6414:6415   */\n      0x00\n        /* \"#utility.yul\":6407:6422   */\n      revert\n        /* \"#utility.yul\":6434:6754   */\n    tag_78:\n        /* \"#utility.yul\":6478:6484   */\n      0x00\n        /* \"#utility.yul\":6515:6516   */\n      0x02\n        /* \"#utility.yul\":6509:6513   */\n      dup3\n        /* \"#utility.yul\":6505:6517   */\n      div\n        /* \"#utility.yul\":6495:6517   */\n      swap1\n      pop\n        /* \"#utility.yul\":6562:6563   */\n      0x01\n        /* \"#utility.yul\":6556:6560   */\n      dup3\n        /* \"#utility.yul\":6552:6564   */\n      and\n        /* \"#utility.yul\":6583:6601   */\n      dup1\n        /* \"#utility.yul\":6573:6654   */\n      tag_284\n      jumpi\n        /* \"#utility.yul\":6639:6643   */\n      0x7f\n        /* \"#utility.yul\":6631:6637   */\n      dup3\n        /* \"#utility.yul\":6627:6644   */\n      and\n        /* \"#utility.yul\":6617:6644   */\n      swap2\n      pop\n        /* \"#utility.yul\":6573:6654   */\n    tag_284:\n        /* \"#utility.yul\":6701:6703   */\n      0x20\n        /* \"#utility.yul\":6693:6699   */\n      dup3\n        /* \"#utility.yul\":6690:6704   */\n      lt\n        /* \"#utility.yul\":6670:6688   */\n      dup2\n        /* \"#utility.yul\":6667:6705   */\n      sub\n        /* \"#utility.yul\":6664:6748   */\n      tag_285\n      jumpi\n        /* \"#utility.yul\":6720:6738   */\n      tag_286\n      tag_186\n      jump\t// in\n    tag_286:\n        /* \"#utility.yul\":6664:6748   */\n    tag_285:\n        /* \"#utility.yul\":6485:6754   */\n      pop\n        /* \"#utility.yul\":6434:6754   */\n      swap2\n      swap1\n      pop\n      jump\t// out\n        /* \"#utility.yul\":6760:6939   */\n    tag_187:\n        /* \"#utility.yul\":6900:6931   */\n      0x45524332303a20696e73756666696369656e7420616c6c6f77616e6365000000\n        /* \"#utility.yul\":6896:6897   */\n      0x00\n        /* \"#utility.yul\":6888:6894   */\n      dup3\n        /* \"#utility.yul\":6884:6898   */\n      add\n        /* \"#utility.yul\":6877:6932   */\n      mstore\n        /* \"#utility.yul\":6760:6939   */\n      pop\n      jump\t// out\n        /* \"#utility.yul\":6945:7311   */\n    tag_188:\n        /* \"#utility.yul\":7087:7090   */\n      0x00\n        /* \"#utility.yul\":7108:7175   */\n      tag_289\n        /* \"#utility.yul\":7172:7174   */\n      0x1d\n        /* \"#utility.yul\":7167:7170   */\n      dup4\n        /* \"#utility.yul\":7108:7175   */\n      tag_166\n      jump\t// in\n    tag_289:\n        /* \"#utility.yul\":7101:7175   */\n      swap2\n      pop\n        /* \"#utility.yul\":7184:7277   */\n      tag_290\n        /* \"#utility.yul\":7273:7276   */\n      dup3\n        /* \"#utility.yul\":7184:7277   */\n      tag_187\n      jump\t// in\n    tag_290:\n        /* \"#utility.yul\":7302:7304   */\n      0x20\n        /* \"#utility.yul\":7297:7300   */\n      dup3\n        /* \"#utility.yul\":7293:7305   */\n      add\n        /* \"#utility.yul\":7286:7305   */\n      swap1\n      pop\n        /* \"#utility.yul\":6945:7311   */\n      swap2\n      swap1\n      pop\n      jump\t// out\n        /* \"#utility.yul\":7317:7736   */\n    tag_89:\n        /* \"#utility.yul\":7483:7487   */\n      0x00\n        /* \"#utility.yul\":7521:7523   */\n      0x20\n        /* \"#utility.yul\":7510:7519   */\n      dup3\n        /* \"#utility.yul\":7506:7524   */\n      add\n        /* \"#utility.yul\":7498:7524   */\n      swap1\n      pop\n        /* \"#utility.yul\":7570:7579   */\n      dup2\n        /* \"#utility.yul\":7564:7568   */\n      dup2\n        /* \"#utility.yul\":7560:7580   */\n      sub\n        /* \"#utility.yul\":7556:7557   */\n      0x00\n        /* \"#utility.yul\":7545:7554   */\n      dup4\n        /* \"#utility.yul\":7541:7558   */\n      add\n        /* \"#utility.yul\":7534:7581   */\n      mstore\n        /* \"#utility.yul\":7598:7729   */\n      tag_292\n        /* \"#utility.yul\":7724:7728   */\n      dup2\n        /* \"#utility.yul\":7598:7729   */\n      tag_188\n      jump\t// in\n    tag_292:\n        /* \"#utility.yul\":7590:7729   */\n      swap1\n      pop\n        /* \"#utility.yul\":7317:7736   */\n      swap2\n      swap1\n      pop\n      jump\t// out\n        /* \"#utility.yul\":7742:7922   */\n    tag_189:\n        /* \"#utility.yul\":7790:7867   */\n      0x4e487b7100000000000000000000000000000000000000000000000000000000\n        /* \"#utility.yul\":7787:7788   */\n      0x00\n        /* \"#utility.yul\":7780:7868   */\n      mstore\n        /* \"#utility.yul\":7887:7891   */\n      0x11\n        /* \"#utility.yul\":7884:7885   */\n      0x04\n        /* \"#utility.yul\":7877:7892   */\n      mstore\n        /* \"#utility.yul\":7911:7915   */\n      0x24\n        /* \"#utility.yul\":7908:7909   */\n      0x00\n        /* \"#utility.yul\":7901:7916   */\n      revert\n        /* \"#utility.yul\":7928:8122   */\n    tag_91:\n        /* \"#utility.yul\":7968:7972   */\n      0x00\n        /* \"#utility.yul\":7988:8008   */\n      tag_295\n        /* \"#utility.yul\":8006:8007   */\n      dup3\n        /* \"#utility.yul\":7988:8008   */\n      tag_177\n      jump\t// in\n    tag_295:\n        /* \"#utility.yul\":7983:8008   */\n      swap2\n      pop\n        /* \"#utility.yul\":8022:8042   */\n      tag_296\n        /* \"#utility.yul\":8040:8041   */\n      dup4\n        /* \"#utility.yul\":8022:8042   */\n      tag_177\n      jump\t// in\n    tag_296:\n        /* \"#utility.yul\":8017:8042   */\n      swap3\n      pop\n        /* \"#utility.yul\":8066:8067   */\n      dup3\n        /* \"#utility.yul\":8063:8064   */\n      dup3\n        /* \"#utility.yul\":8059:8068   */\n      sub\n        /* \"#utility.yul\":8051:8068   */\n      swap1\n      pop\n        /* \"#utility.yul\":8090:8091   */\n      dup2\n        /* \"#utility.yul\":8084:8088   */\n      dup2\n        /* \"#utility.yul\":8081:8092   */\n      gt\n        /* \"#utility.yul\":8078:8115   */\n      iszero\n      tag_297\n      jumpi\n        /* \"#utility.yul\":8095:8113   */\n      tag_298\n      tag_189\n      jump\t// in\n    tag_298:\n        /* \"#utility.yul\":8078:8115   */\n    tag_297:\n        /* \"#utility.yul\":7928:8122   */\n      swap3\n      swap2\n      pop\n      pop\n      jump\t// out\n        /* \"#utility.yul\":8128:8296   */\n    tag_190:\n        /* \"#utility.yul\":8268:8288   */\n      0x4e6f7420636f6e7472616374204f776e65720000000000000000000000000000\n        /* \"#utility.yul\":8264:8265   */\n      0x00\n        /* \"#utility.yul\":8256:8262   */\n      dup3\n        /* \"#utility.yul\":8252:8266   */\n      add\n        /* \"#utility.yul\":8245:8289   */\n      mstore\n        /* \"#utility.yul\":8128:8296   */\n      pop\n      jump\t// out\n        /* \"#utility.yul\":8302:8668   */\n    tag_191:\n        /* \"#utility.yul\":8444:8447   */\n      0x00\n        /* \"#utility.yul\":8465:8532   */\n      tag_301\n        /* \"#utility.yul\":8529:8531   */\n      0x12\n        /* \"#utility.yul\":8524:8527   */\n      dup4\n        /* \"#utility.yul\":8465:8532   */\n      tag_166\n      jump\t// in\n    tag_301:\n        /* \"#utility.yul\":8458:8532   */\n      swap2\n      pop\n        /* \"#utility.yul\":8541:8634   */\n      tag_302\n        /* \"#utility.yul\":8630:8633   */\n      dup3\n        /* \"#utility.yul\":8541:8634   */\n      tag_190\n      jump\t// in\n    tag_302:\n        /* \"#utility.yul\":8659:8661   */\n      0x20\n        /* \"#utility.yul\":8654:8657   */\n      dup3\n        /* \"#utility.yul\":8650:8662   */\n      add\n        /* \"#utility.yul\":8643:8662   */\n      swap1\n      pop\n        /* \"#utility.yul\":8302:8668   */\n      swap2\n      swap1\n      pop\n      jump\t// out\n        /* \"#utility.yul\":8674:9093   */\n    tag_97:\n        /* \"#utility.yul\":8840:8844   */\n      0x00\n        /* \"#utility.yul\":8878:8880   */\n      0x20\n        /* \"#utility.yul\":8867:8876   */\n      dup3\n        /* \"#utility.yul\":8863:8881   */\n      add\n        /* \"#utility.yul\":8855:8881   */\n      swap1\n      pop\n        /* \"#utility.yul\":8927:8936   */\n      dup2\n        /* \"#utility.yul\":8921:8925   */\n      dup2\n        /* \"#utility.yul\":8917:8937   */\n      sub\n        /* \"#utility.yul\":8913:8914   */\n      0x00\n        /* \"#utility.yul\":8902:8911   */\n      dup4\n        /* \"#utility.yul\":8898:8915   */\n      add\n        /* \"#utility.yul\":8891:8938   */\n      mstore\n        /* \"#utility.yul\":8955:9086   */\n      tag_304\n        /* \"#utility.yul\":9081:9085   */\n      dup2\n        /* \"#utility.yul\":8955:9086   */\n      tag_191\n      jump\t// in\n    tag_304:\n        /* \"#utility.yul\":8947:9086   */\n      swap1\n      pop\n        /* \"#utility.yul\":8674:9093   */\n      swap2\n      swap1\n      pop\n      jump\t// out\n        /* \"#utility.yul\":9099:9201   */\n    tag_192:\n        /* \"#utility.yul\":9141:9149   */\n      0x00\n        /* \"#utility.yul\":9188:9193   */\n      dup2\n        /* \"#utility.yul\":9185:9186   */\n      0x01\n        /* \"#utility.yul\":9181:9194   */\n      shr\n        /* \"#utility.yul\":9160:9194   */\n      swap1\n      pop\n        /* \"#utility.yul\":9099:9201   */\n      swap2\n      swap1\n      pop\n      jump\t// out\n        /* \"#utility.yul\":9207:10055   */\n    tag_193:\n        /* \"#utility.yul\":9268:9273   */\n      0x00\n        /* \"#utility.yul\":9275:9279   */\n      0x00\n        /* \"#utility.yul\":9299:9305   */\n      dup3\n        /* \"#utility.yul\":9290:9305   */\n      swap2\n      pop\n        /* \"#utility.yul\":9323:9328   */\n      dup4\n        /* \"#utility.yul\":9314:9328   */\n      swap1\n      pop\n        /* \"#utility.yul\":9337:10049   */\n    tag_307:\n        /* \"#utility.yul\":9358:9359   */\n      0x01\n        /* \"#utility.yul\":9348:9356   */\n      dup6\n        /* \"#utility.yul\":9345:9360   */\n      gt\n        /* \"#utility.yul\":9337:10049   */\n      iszero\n      tag_309\n      jumpi\n        /* \"#utility.yul\":9453:9457   */\n      dup1\n        /* \"#utility.yul\":9448:9451   */\n      dup7\n        /* \"#utility.yul\":9444:9458   */\n      div\n        /* \"#utility.yul\":9438:9442   */\n      dup2\n        /* \"#utility.yul\":9435:9459   */\n      gt\n        /* \"#utility.yul\":9432:9482   */\n      iszero\n      tag_310\n      jumpi\n        /* \"#utility.yul\":9462:9480   */\n      tag_311\n      tag_189\n      jump\t// in\n    tag_311:\n        /* \"#utility.yul\":9432:9482   */\n    tag_310:\n        /* \"#utility.yul\":9512:9513   */\n      0x01\n        /* \"#utility.yul\":9502:9510   */\n      dup6\n        /* \"#utility.yul\":9498:9514   */\n      and\n        /* \"#utility.yul\":9495:9946   */\n      iszero\n      tag_312\n      jumpi\n        /* \"#utility.yul\":9927:9931   */\n      dup1\n        /* \"#utility.yul\":9920:9925   */\n      dup3\n        /* \"#utility.yul\":9916:9932   */\n      mul\n        /* \"#utility.yul\":9907:9932   */\n      swap2\n      pop\n        /* \"#utility.yul\":9495:9946   */\n    tag_312:\n        /* \"#utility.yul\":9977:9981   */\n      dup1\n        /* \"#utility.yul\":9971:9975   */\n      dup2\n        /* \"#utility.yul\":9967:9982   */\n      mul\n        /* \"#utility.yul\":9959:9982   */\n      swap1\n      pop\n        /* \"#utility.yul\":10007:10039   */\n      tag_313\n        /* \"#utility.yul\":10030:10038   */\n      dup6\n        /* \"#utility.yul\":10007:10039   */\n      tag_192\n      jump\t// in\n    tag_313:\n        /* \"#utility.yul\":9995:10039   */\n      swap5\n      pop\n        /* \"#utility.yul\":9337:10049   */\n      jump(tag_307)\n    tag_309:\n        /* \"#utility.yul\":9207:10055   */\n      swap5\n      pop\n      swap5\n      swap3\n      pop\n      pop\n      pop\n      jump\t// out\n        /* \"#utility.yul\":10061:11134   */\n    tag_194:\n        /* \"#utility.yul\":10115:10120   */\n      0x00\n        /* \"#utility.yul\":10306:10314   */\n      dup3\n        /* \"#utility.yul\":10296:10336   */\n      tag_315\n      jumpi\n        /* \"#utility.yul\":10327:10328   */\n      0x01\n        /* \"#utility.yul\":10318:10328   */\n      swap1\n      pop\n        /* \"#utility.yul\":10329:10334   */\n      jump(tag_314)\n        /* \"#utility.yul\":10296:10336   */\n    tag_315:\n        /* \"#utility.yul\":10355:10359   */\n      dup2\n        /* \"#utility.yul\":10345:10381   */\n      tag_316\n      jumpi\n        /* \"#utility.yul\":10372:10373   */\n      0x00\n        /* \"#utility.yul\":10363:10373   */\n      swap1\n      pop\n        /* \"#utility.yul\":10374:10379   */\n      jump(tag_314)\n        /* \"#utility.yul\":10345:10381   */\n    tag_316:\n        /* \"#utility.yul\":10441:10445   */\n      dup2\n        /* \"#utility.yul\":10489:10490   */\n      0x01\n        /* \"#utility.yul\":10484:10511   */\n      dup2\n      eq\n      tag_318\n      jumpi\n        /* \"#utility.yul\":10525:10526   */\n      0x02\n        /* \"#utility.yul\":10520:10711   */\n      dup2\n      eq\n      tag_319\n      jumpi\n        /* \"#utility.yul\":10434:10711   */\n      jump(tag_317)\n        /* \"#utility.yul\":10484:10511   */\n    tag_318:\n        /* \"#utility.yul\":10502:10503   */\n      0x01\n        /* \"#utility.yul\":10493:10503   */\n      swap2\n      pop\n        /* \"#utility.yul\":10504:10509   */\n      pop\n      jump(tag_314)\n        /* \"#utility.yul\":10520:10711   */\n    tag_319:\n        /* \"#utility.yul\":10565:10568   */\n      0xff\n        /* \"#utility.yul\":10555:10563   */\n      dup5\n        /* \"#utility.yul\":10552:10569   */\n      gt\n        /* \"#utility.yul\":10549:10592   */\n      iszero\n      tag_320\n      jumpi\n        /* \"#utility.yul\":10572:10590   */\n      tag_321\n      tag_189\n      jump\t// in\n    tag_321:\n        /* \"#utility.yul\":10549:10592   */\n    tag_320:\n        /* \"#utility.yul\":10621:10629   */\n      dup4\n        /* \"#utility.yul\":10618:10619   */\n      0x02\n        /* \"#utility.yul\":10614:10630   */\n      exp\n        /* \"#utility.yul\":10605:10630   */\n      swap2\n      pop\n        /* \"#utility.yul\":10656:10659   */\n      dup5\n        /* \"#utility.yul\":10649:10654   */\n      dup3\n        /* \"#utility.yul\":10646:10660   */\n      gt\n        /* \"#utility.yul\":10643:10683   */\n      iszero\n      tag_322\n      jumpi\n        /* \"#utility.yul\":10663:10681   */\n      tag_323\n      tag_189\n      jump\t// in\n    tag_323:\n        /* \"#utility.yul\":10643:10683   */\n    tag_322:\n        /* \"#utility.yul\":10696:10701   */\n      pop\n      jump(tag_314)\n        /* \"#utility.yul\":10434:10711   */\n    tag_317:\n      pop\n        /* \"#utility.yul\":10820:10822   */\n      0x20\n        /* \"#utility.yul\":10810:10818   */\n      dup4\n        /* \"#utility.yul\":10807:10823   */\n      lt\n        /* \"#utility.yul\":10801:10804   */\n      0x0133\n        /* \"#utility.yul\":10795:10799   */\n      dup4\n        /* \"#utility.yul\":10792:10805   */\n      lt\n        /* \"#utility.yul\":10788:10824   */\n      and\n        /* \"#utility.yul\":10770:10772   */\n      0x4e\n        /* \"#utility.yul\":10760:10768   */\n      dup5\n        /* \"#utility.yul\":10757:10773   */\n      lt\n        /* \"#utility.yul\":10752:10754   */\n      0x0b\n        /* \"#utility.yul\":10746:10750   */\n      dup5\n        /* \"#utility.yul\":10743:10755   */\n      lt\n        /* \"#utility.yul\":10739:10774   */\n      and\n        /* \"#utility.yul\":10723:10834   */\n      or\n        /* \"#utility.yul\":10720:10966   */\n      iszero\n      tag_324\n      jumpi\n        /* \"#utility.yul\":10876:10884   */\n      dup3\n        /* \"#utility.yul\":10870:10874   */\n      dup3\n        /* \"#utility.yul\":10866:10885   */\n      exp\n        /* \"#utility.yul\":10857:10885   */\n      swap1\n      pop\n        /* \"#utility.yul\":10911:10914   */\n      dup4\n        /* \"#utility.yul\":10904:10909   */\n      dup2\n        /* \"#utility.yul\":10901:10915   */\n      gt\n        /* \"#utility.yul\":10898:10938   */\n      iszero\n      tag_325\n      jumpi\n        /* \"#utility.yul\":10918:10936   */\n      tag_326\n      tag_189\n      jump\t// in\n    tag_326:\n        /* \"#utility.yul\":10898:10938   */\n    tag_325:\n        /* \"#utility.yul\":10951:10956   */\n      jump(tag_314)\n        /* \"#utility.yul\":10720:10966   */\n    tag_324:\n        /* \"#utility.yul\":10991:11033   */\n      tag_327\n        /* \"#utility.yul\":11029:11032   */\n      dup5\n        /* \"#utility.yul\":11019:11027   */\n      dup5\n        /* \"#utility.yul\":11013:11017   */\n      dup5\n        /* \"#utility.yul\":11010:11011   */\n      0x01\n        /* \"#utility.yul\":10991:11033   */\n      tag_193\n      jump\t// in\n    tag_327:\n        /* \"#utility.yul\":10976:11033   */\n      swap3\n      pop\n      swap1\n      pop\n        /* \"#utility.yul\":11065:11069   */\n      dup2\n        /* \"#utility.yul\":11060:11063   */\n      dup5\n        /* \"#utility.yul\":11056:11070   */\n      div\n        /* \"#utility.yul\":11049:11054   */\n      dup2\n        /* \"#utility.yul\":11046:11071   */\n      gt\n        /* \"#utility.yul\":11043:11094   */\n      iszero\n      tag_328\n      jumpi\n        /* \"#utility.yul\":11074:11092   */\n      tag_329\n      tag_189\n      jump\t// in\n    tag_329:\n        /* \"#utility.yul\":11043:11094   */\n    tag_328:\n        /* \"#utility.yul\":11123:11127   */\n      dup2\n        /* \"#utility.yul\":11116:11121   */\n      dup2\n        /* \"#utility.yul\":11112:11128   */\n      mul\n        /* \"#utility.yul\":11103:11128   */\n      swap1\n      pop\n        /* \"#utility.yul\":10061:11134   */\n    tag_314:\n      swap4\n      swap3\n      pop\n      pop\n      pop\n      jump\t// out\n        /* \"#utility.yul\":11140:11425   */\n    tag_101:\n        /* \"#utility.yul\":11200:11205   */\n      0x00\n        /* \"#utility.yul\":11224:11247   */\n      tag_331\n        /* \"#utility.yul\":11242:11246   */\n      dup3\n        /* \"#utility.yul\":11224:11247   */\n      tag_177\n      jump\t// in\n    tag_331:\n        /* \"#utility.yul\":11216:11247   */\n      swap2\n      pop\n        /* \"#utility.yul\":11268:11295   */\n      tag_332\n        /* \"#utility.yul\":11286:11294   */\n      dup4\n        /* \"#utility.yul\":11268:11295   */\n      tag_177\n      jump\t// in\n    tag_332:\n        /* \"#utility.yul\":11256:11295   */\n      swap3\n      pop\n        /* \"#utility.yul\":11314:11418   */\n      tag_333\n        /* \"#utility.yul\":11351:11417   */\n      0xffffffffffffffffffffffffffffffffffffffffffffffffffffffffffffffff\n        /* \"#utility.yul\":11341:11349   */\n      dup5\n        /* \"#utility.yul\":11335:11339   */\n      dup5\n        /* \"#utility.yul\":11314:11418   */\n      tag_194\n      jump\t// in\n    tag_333:\n        /* \"#utility.yul\":11305:11418   */\n      swap1\n      pop\n        /* \"#utility.yul\":11140:11425   */\n      swap3\n      swap2\n      pop\n      pop\n      jump\t// out\n        /* \"#utility.yul\":11431:11841   */\n    tag_103:\n        /* \"#utility.yul\":11471:11478   */\n      0x00\n        /* \"#utility.yul\":11494:11514   */\n      tag_335\n        /* \"#utility.yul\":11512:11513   */\n      dup3\n        /* \"#utility.yul\":11494:11514   */\n      tag_177\n      jump\t// in\n    tag_335:\n        /* \"#utility.yul\":11489:11514   */\n      swap2\n      pop\n        /* \"#utility.yul\":11528:11548   */\n      tag_336\n        /* \"#utility.yul\":11546:11547   */\n      dup4\n        /* \"#utility.yul\":11528:11548   */\n      tag_177\n      jump\t// in\n    tag_336:\n        /* \"#utility.yul\":11523:11548   */\n      swap3\n      pop\n        /* \"#utility.yul\":11583:11584   */\n      dup3\n        /* \"#utility.yul\":11580:11581   */\n      dup3\n        /* \"#utility.yul\":11576:11585   */\n      mul\n        /* \"#utility.yul\":11605:11635   */\n      tag_337\n        /* \"#utility.yul\":11623:11634   */\n      dup2\n        /* \"#utility.yul\":11605:11635   */\n      tag_177\n      jump\t// in\n    tag_337:\n        /* \"#utility.yul\":11594:11635   */\n      swap2\n      pop\n        /* \"#utility.yul\":11784:11785   */\n      dup3\n        /* \"#utility.yul\":11775:11782   */\n      dup3\n        /* \"#utility.yul\":11771:11786   */\n      div\n        /* \"#utility.yul\":11768:11769   */\n      dup5\n        /* \"#utility.yul\":11765:11787   */\n      eq\n        /* \"#utility.yul\":11745:11746   */\n      dup4\n        /* \"#utility.yul\":11738:11747   */\n      iszero\n        /* \"#utility.yul\":11718:11801   */\n      or\n        /* \"#utility.yul\":11695:11834   */\n      tag_338\n      jumpi\n        /* \"#utility.yul\":11814:11832   */\n      tag_339\n      tag_189\n      jump\t// in\n    tag_339:\n        /* \"#utility.yul\":11695:11834   */\n    tag_338:\n        /* \"#utility.yul\":11479:11841   */\n      pop\n        /* \"#utility.yul\":11431:11841   */\n      swap3\n      swap2\n      pop\n      pop\n      jump\t// out\n        /* \"#utility.yul\":11847:12025   */\n    tag_195:\n        /* \"#utility.yul\":11987:12017   */\n      0x496e73756666696369656e742062616c616e636520746f206275726e00000000\n        /* \"#utility.yul\":11983:11984   */\n      0x00\n        /* \"#utility.yul\":11975:11981   */\n      dup3\n        /* \"#utility.yul\":11971:11985   */\n      add\n        /* \"#utility.yul\":11964:12018   */\n      mstore\n        /* \"#utility.yul\":11847:12025   */\n      pop\n      jump\t// out\n        /* \"#utility.yul\":12031:12397   */\n    tag_196:\n        /* \"#utility.yul\":12173:12176   */\n      0x00\n        /* \"#utility.yul\":12194:12261   */\n      tag_342\n        /* \"#utility.yul\":12258:12260   */\n      0x1c\n        /* \"#utility.yul\":12253:12256   */\n      dup4\n        /* \"#utility.yul\":12194:12261   */\n      tag_166\n      jump\t// in\n    tag_342:\n        /* \"#utility.yul\":12187:12261   */\n      swap2\n      pop\n        /* \"#utility.yul\":12270:12363   */\n      tag_343\n        /* \"#utility.yul\":12359:12362   */\n      dup3\n        /* \"#utility.yul\":12270:12363   */\n      tag_195\n      jump\t// in\n    tag_343:\n        /* \"#utility.yul\":12388:12390   */\n      0x20\n        /* \"#utility.yul\":12383:12386   */\n      dup3\n        /* \"#utility.yul\":12379:12391   */\n      add\n        /* \"#utility.yul\":12372:12391   */\n      swap1\n      pop\n        /* \"#utility.yul\":12031:12397   */\n      swap2\n      swap1\n      pop\n      jump\t// out\n        /* \"#utility.yul\":12403:12822   */\n    tag_108:\n        /* \"#utility.yul\":12569:12573   */\n      0x00\n        /* \"#utility.yul\":12607:12609   */\n      0x20\n        /* \"#utility.yul\":12596:12605   */\n      dup3\n        /* \"#utility.yul\":12592:12610   */\n      add\n        /* \"#utility.yul\":12584:12610   */\n      swap1\n      pop\n        /* \"#utility.yul\":12656:12665   */\n      dup2\n        /* \"#utility.yul\":12650:12654   */\n      dup2\n        /* \"#utility.yul\":12646:12666   */\n      sub\n        /* \"#utility.yul\":12642:12643   */\n      0x00\n        /* \"#utility.yul\":12631:12640   */\n      dup4\n        /* \"#utility.yul\":12627:12644   */\n      add\n        /* \"#utility.yul\":12620:12667   */\n      mstore\n        /* \"#utility.yul\":12684:12815   */\n      tag_345\n        /* \"#utility.yul\":12810:12814   */\n      dup2\n        /* \"#utility.yul\":12684:12815   */\n      tag_196\n      jump\t// in\n    tag_345:\n        /* \"#utility.yul\":12676:12815   */\n      swap1\n      pop\n        /* \"#utility.yul\":12403:12822   */\n      swap2\n      swap1\n      pop\n      jump\t// out\n        /* \"#utility.yul\":12828:12996   */\n    tag_197:\n        /* \"#utility.yul\":12968:12988   */\n      0x416c6c6f77616e63652065786365656465640000000000000000000000000000\n        /* \"#utility.yul\":12964:12965   */\n      0x00\n        /* \"#utility.yul\":12956:12962   */\n      dup3\n        /* \"#utility.yul\":12952:12966   */\n      add\n        /* \"#utility.yul\":12945:12989   */\n      mstore\n        /* \"#utility.yul\":12828:12996   */\n      pop\n      jump\t// out\n        /* \"#utility.yul\":13002:13368   */\n    tag_198:\n        /* \"#utility.yul\":13144:13147   */\n      0x00\n        /* \"#utility.yul\":13165:13232   */\n      tag_348\n        /* \"#utility.yul\":13229:13231   */\n      0x12\n        /* \"#utility.yul\":13224:13227   */\n      dup4\n        /* \"#utility.yul\":13165:13232   */\n      tag_166\n      jump\t// in\n    tag_348:\n        /* \"#utility.yul\":13158:13232   */\n      swap2\n      pop\n        /* \"#utility.yul\":13241:13334   */\n      tag_349\n        /* \"#utility.yul\":13330:13333   */\n      dup3\n        /* \"#utility.yul\":13241:13334   */\n      tag_197\n      jump\t// in\n    tag_349:\n        /* \"#utility.yul\":13359:13361   */\n      0x20\n        /* \"#utility.yul\":13354:13357   */\n      dup3\n        /* \"#utility.yul\":13350:13362   */\n      add\n        /* \"#utility.yul\":13343:13362   */\n      swap1\n      pop\n        /* \"#utility.yul\":13002:13368   */\n      swap2\n      swap1\n      pop\n      jump\t// out\n        /* \"#utility.yul\":13374:13793   */\n    tag_123:\n        /* \"#utility.yul\":13540:13544   */\n      0x00\n        /* \"#utility.yul\":13578:13580   */\n      0x20\n        /* \"#utility.yul\":13567:13576   */\n      dup3\n        /* \"#utility.yul\":13563:13581   */\n      add\n        /* \"#utility.yul\":13555:13581   */\n      swap1\n      pop\n        /* \"#utility.yul\":13627:13636   */\n      dup2\n        /* \"#utility.yul\":13621:13625   */\n      dup2\n        /* \"#utility.yul\":13617:13637   */\n      sub\n        /* \"#utility.yul\":13613:13614   */\n      0x00\n        /* \"#utility.yul\":13602:13611   */\n      dup4\n        /* \"#utility.yul\":13598:13615   */\n      add\n        /* \"#utility.yul\":13591:13638   */\n      mstore\n        /* \"#utility.yul\":13655:13786   */\n      tag_351\n        /* \"#utility.yul\":13781:13785   */\n      dup2\n        /* \"#utility.yul\":13655:13786   */\n      tag_198\n      jump\t// in\n    tag_351:\n        /* \"#utility.yul\":13647:13786   */\n      swap1\n      pop\n        /* \"#utility.yul\":13374:13793   */\n      swap2\n      swap1\n      pop\n      jump\t// out\n        /* \"#utility.yul\":13799:13972   */\n    tag_199:\n        /* \"#utility.yul\":13939:13964   */\n      0x45524332303a20617070726f76652066726f6d20307830000000000000000000\n        /* \"#utility.yul\":13935:13936   */\n      0x00\n        /* \"#utility.yul\":13927:13933   */\n      dup3\n        /* \"#utility.yul\":13923:13937   */\n      add\n        /* \"#utility.yul\":13916:13965   */\n      mstore\n        /* \"#utility.yul\":13799:13972   */\n      pop\n      jump\t// out\n        /* \"#utility.yul\":13978:14344   */\n    tag_200:\n        /* \"#utility.yul\":14120:14123   */\n      0x00\n        /* \"#utility.yul\":14141:14208   */\n      tag_354\n        /* \"#utility.yul\":14205:14207   */\n      0x17\n        /* \"#utility.yul\":14200:14203   */\n      dup4\n        /* \"#utility.yul\":14141:14208   */\n      tag_166\n      jump\t// in\n    tag_354:\n        /* \"#utility.yul\":14134:14208   */\n      swap2\n      pop\n        /* \"#utility.yul\":14217:14310   */\n      tag_355\n        /* \"#utility.yul\":14306:14309   */\n      dup3\n        /* \"#utility.yul\":14217:14310   */\n      tag_199\n      jump\t// in\n    tag_355:\n        /* \"#utility.yul\":14335:14337   */\n      0x20\n        /* \"#utility.yul\":14330:14333   */\n      dup3\n        /* \"#utility.yul\":14326:14338   */\n      add\n        /* \"#utility.yul\":14319:14338   */\n      swap1\n      pop\n        /* \"#utility.yul\":13978:14344   */\n      swap2\n      swap1\n      pop\n      jump\t// out\n        /* \"#utility.yul\":14350:14769   */\n    tag_130:\n        /* \"#utility.yul\":14516:14520   */\n      0x00\n        /* \"#utility.yul\":14554:14556   */\n      0x20\n        /* \"#utility.yul\":14543:14552   */\n      dup3\n        /* \"#utility.yul\":14539:14557   */\n      add\n        /* \"#utility.yul\":14531:14557   */\n      swap1\n      pop\n        /* \"#utility.yul\":14603:14612   */\n      dup2\n        /* \"#utility.yul\":14597:14601   */\n      dup2\n        /* \"#utility.yul\":14593:14613   */\n      sub\n        /* \"#utility.yul\":14589:14590   */\n      0x00\n        /* \"#utility.yul\":14578:14587   */\n      dup4\n        /* \"#utility.yul\":14574:14591   */\n      add\n        /* \"#utility.yul\":14567:14614   */\n      mstore\n        /* \"#utility.yul\":14631:14762   */\n      tag_357\n        /* \"#utility.yul\":14757:14761   */\n      dup2\n        /* \"#utility.yul\":14631:14762   */\n      tag_200\n      jump\t// in\n    tag_357:\n        /* \"#utility.yul\":14623:14762   */\n      swap1\n      pop\n        /* \"#utility.yul\":14350:14769   */\n      swap2\n      swap1\n      pop\n      jump\t// out\n        /* \"#utility.yul\":14775:14946   */\n    tag_201:\n        /* \"#utility.yul\":14915:14938   */\n      0x45524332303a20617070726f766520746f203078300000000000000000000000\n        /* \"#utility.yul\":14911:14912   */\n      0x00\n        /* \"#utility.yul\":14903:14909   */\n      dup3\n        /* \"#utility.yul\":14899:14913   */\n      add\n        /* \"#utility.yul\":14892:14939   */\n      mstore\n        /* \"#utility.yul\":14775:14946   */\n      pop\n      jump\t// out\n        /* \"#utility.yul\":14952:15318   */\n    tag_202:\n        /* \"#utility.yul\":15094:15097   */\n      0x00\n        /* \"#utility.yul\":15115:15182   */\n      tag_360\n        /* \"#utility.yul\":15179:15181   */\n      0x15\n        /* \"#utility.yul\":15174:15177   */\n      dup4\n        /* \"#utility.yul\":15115:15182   */\n      tag_166\n      jump\t// in\n    tag_360:\n        /* \"#utility.yul\":15108:15182   */\n      swap2\n      pop\n        /* \"#utility.yul\":15191:15284   */\n      tag_361\n        /* \"#utility.yul\":15280:15283   */\n      dup3\n        /* \"#utility.yul\":15191:15284   */\n      tag_201\n      jump\t// in\n    tag_361:\n        /* \"#utility.yul\":15309:15311   */\n      0x20\n        /* \"#utility.yul\":15304:15307   */\n      dup3\n        /* \"#utility.yul\":15300:15312   */\n      add\n        /* \"#utility.yul\":15293:15312   */\n      swap1\n      pop\n        /* \"#utility.yul\":14952:15318   */\n      swap2\n      swap1\n      pop\n      jump\t// out\n        /* \"#utility.yul\":15324:15743   */\n    tag_133:\n        /* \"#utility.yul\":15490:15494   */\n      0x00\n        /* \"#utility.yul\":15528:15530   */\n      0x20\n        /* \"#utility.yul\":15517:15526   */\n      dup3\n        /* \"#utility.yul\":15513:15531   */\n      add\n        /* \"#utility.yul\":15505:15531   */\n      swap1\n      pop\n        /* \"#utility.yul\":15577:15586   */\n      dup2\n        /* \"#utility.yul\":15571:15575   */\n      dup2\n        /* \"#utility.yul\":15567:15587   */\n      sub\n        /* \"#utility.yul\":15563:15564   */\n      0x00\n        /* \"#utility.yul\":15552:15561   */\n      dup4\n        /* \"#utility.yul\":15548:15565   */\n      add\n        /* \"#utility.yul\":15541:15588   */\n      mstore\n        /* \"#utility.yul\":15605:15736   */\n      tag_363\n        /* \"#utility.yul\":15731:15735   */\n      dup2\n        /* \"#utility.yul\":15605:15736   */\n      tag_202\n      jump\t// in\n    tag_363:\n        /* \"#utility.yul\":15597:15736   */\n      swap1\n      pop\n        /* \"#utility.yul\":15324:15743   */\n      swap2\n      swap1\n      pop\n      jump\t// out\n        /* \"#utility.yul\":15749:15923   */\n    tag_203:\n        /* \"#utility.yul\":15889:15915   */\n      0x45524332303a207472616e736665722066726f6d203078300000000000000000\n        /* \"#utility.yul\":15885:15886   */\n      0x00\n        /* \"#utility.yul\":15877:15883   */\n      dup3\n        /* \"#utility.yul\":15873:15887   */\n      add\n        /* \"#utility.yul\":15866:15916   */\n      mstore\n        /* \"#utility.yul\":15749:15923   */\n      pop\n      jump\t// out\n        /* \"#utility.yul\":15929:16295   */\n    tag_204:\n        /* \"#utility.yul\":16071:16074   */\n      0x00\n        /* \"#utility.yul\":16092:16159   */\n      tag_366\n        /* \"#utility.yul\":16156:16158   */\n      0x18\n        /* \"#utility.yul\":16151:16154   */\n      dup4\n        /* \"#utility.yul\":16092:16159   */\n      tag_166\n      jump\t// in\n    tag_366:\n        /* \"#utility.yul\":16085:16159   */\n      swap2\n      pop\n        /* \"#utility.yul\":16168:16261   */\n      tag_367\n        /* \"#utility.yul\":16257:16260   */\n      dup3\n        /* \"#utility.yul\":16168:16261   */\n      tag_203\n      jump\t// in\n    tag_367:\n        /* \"#utility.yul\":16286:16288   */\n      0x20\n        /* \"#utility.yul\":16281:16284   */\n      dup3\n        /* \"#utility.yul\":16277:16289   */\n      add\n        /* \"#utility.yul\":16270:16289   */\n      swap1\n      pop\n        /* \"#utility.yul\":15929:16295   */\n      swap2\n      swap1\n      pop\n      jump\t// out\n        /* \"#utility.yul\":16301:16720   */\n    tag_138:\n        /* \"#utility.yul\":16467:16471   */\n      0x00\n        /* \"#utility.yul\":16505:16507   */\n      0x20\n        /* \"#utility.yul\":16494:16503   */\n      dup3\n        /* \"#utility.yul\":16490:16508   */\n      add\n        /* \"#utility.yul\":16482:16508   */\n      swap1\n      pop\n        /* \"#utility.yul\":16554:16563   */\n      dup2\n        /* \"#utility.yul\":16548:16552   */\n      dup2\n        /* \"#utility.yul\":16544:16564   */\n      sub\n        /* \"#utility.yul\":16540:16541   */\n      0x00\n        /* \"#utility.yul\":16529:16538   */\n      dup4\n        /* \"#utility.yul\":16525:16542   */\n      add\n        /* \"#utility.yul\":16518:16565   */\n      mstore\n        /* \"#utility.yul\":16582:16713   */\n      tag_369\n        /* \"#utility.yul\":16708:16712   */\n      dup2\n        /* \"#utility.yul\":16582:16713   */\n      tag_204\n      jump\t// in\n    tag_369:\n        /* \"#utility.yul\":16574:16713   */\n      swap1\n      pop\n        /* \"#utility.yul\":16301:16720   */\n      swap2\n      swap1\n      pop\n      jump\t// out\n        /* \"#utility.yul\":16726:16898   */\n    tag_205:\n        /* \"#utility.yul\":16866:16890   */\n      0x45524332303a207472616e7366657220746f2030783000000000000000000000\n        /* \"#utility.yul\":16862:16863   */\n      0x00\n        /* \"#utility.yul\":16854:16860   */\n      dup3\n        /* \"#utility.yul\":16850:16864   */\n      add\n        /* \"#utility.yul\":16843:16891   */\n      mstore\n        /* \"#utility.yul\":16726:16898   */\n      pop\n      jump\t// out\n        /* \"#utility.yul\":16904:17270   */\n    tag_206:\n        /* \"#utility.yul\":17046:17049   */\n      0x00\n        /* \"#utility.yul\":17067:17134   */\n      tag_372\n        /* \"#utility.yul\":17131:17133   */\n      0x16\n        /* \"#utility.yul\":17126:17129   */\n      dup4\n        /* \"#utility.yul\":17067:17134   */\n      tag_166\n      jump\t// in\n    tag_372:\n        /* \"#utility.yul\":17060:17134   */\n      swap2\n      pop\n        /* \"#utility.yul\":17143:17236   */\n      tag_373\n        /* \"#utility.yul\":17232:17235   */\n      dup3\n        /* \"#utility.yul\":17143:17236   */\n      tag_205\n      jump\t// in\n    tag_373:\n        /* \"#utility.yul\":17261:17263   */\n      0x20\n        /* \"#utility.yul\":17256:17259   */\n      dup3\n        /* \"#utility.yul\":17252:17264   */\n      add\n        /* \"#utility.yul\":17245:17264   */\n      swap1\n      pop\n        /* \"#utility.yul\":16904:17270   */\n      swap2\n      swap1\n      pop\n      jump\t// out\n        /* \"#utility.yul\":17276:17695   */\n    tag_141:\n        /* \"#utility.yul\":17442:17446   */\n      0x00\n        /* \"#utility.yul\":17480:17482   */\n      0x20\n        /* \"#utility.yul\":17469:17478   */\n      dup3\n        /* \"#utility.yul\":17465:17483   */\n      add\n        /* \"#utility.yul\":17457:17483   */\n      swap1\n      pop\n        /* \"#utility.yul\":17529:17538   */\n      dup2\n        /* \"#utility.yul\":17523:17527   */\n      dup2\n        /* \"#utility.yul\":17519:17539   */\n      sub\n        /* \"#utility.yul\":17515:17516   */\n      0x00\n        /* \"#utility.yul\":17504:17513   */\n      dup4\n        /* \"#utility.yul\":17500:17517   */\n      add\n        /* \"#utility.yul\":17493:17540   */\n      mstore\n        /* \"#utility.yul\":17557:17688   */\n      tag_375\n        /* \"#utility.yul\":17683:17687   */\n      dup2\n        /* \"#utility.yul\":17557:17688   */\n      tag_206\n      jump\t// in\n    tag_375:\n        /* \"#utility.yul\":17549:17688   */\n      swap1\n      pop\n        /* \"#utility.yul\":17276:17695   */\n      swap2\n      swap1\n      pop\n      jump\t// out\n        /* \"#utility.yul\":17701:17878   */\n    tag_207:\n        /* \"#utility.yul\":17841:17870   */\n      0x45524332303a20696e73756666696369656e742062616c616e63650000000000\n        /* \"#utility.yul\":17837:17838   */\n      0x00\n        /* \"#utility.yul\":17829:17835   */\n      dup3\n        /* \"#utility.yul\":17825:17839   */\n      add\n        /* \"#utility.yul\":17818:17871   */\n      mstore\n        /* \"#utility.yul\":17701:17878   */\n      pop\n      jump\t// out\n        /* \"#utility.yul\":17884:18250   */\n    tag_208:\n        /* \"#utility.yul\":18026:18029   */\n      0x00\n        /* \"#utility.yul\":18047:18114   */\n      tag_378\n        /* \"#utility.yul\":18111:18113   */\n      0x1b\n        /* \"#utility.yul\":18106:18109   */\n      dup4\n        /* \"#utility.yul\":18047:18114   */\n      tag_166\n      jump\t// in\n    tag_378:\n        /* \"#utility.yul\":18040:18114   */\n      swap2\n      pop\n        /* \"#utility.yul\":18123:18216   */\n      tag_379\n        /* \"#utility.yul\":18212:18215   */\n      dup3\n        /* \"#utility.yul\":18123:18216   */\n      tag_207\n      jump\t// in\n    tag_379:\n        /* \"#utility.yul\":18241:18243   */\n      0x20\n        /* \"#utility.yul\":18236:18239   */\n      dup3\n        /* \"#utility.yul\":18232:18244   */\n      add\n        /* \"#utility.yul\":18225:18244   */\n      swap1\n      pop\n        /* \"#utility.yul\":17884:18250   */\n      swap2\n      swap1\n      pop\n      jump\t// out\n        /* \"#utility.yul\":18256:18675   */\n    tag_144:\n        /* \"#utility.yul\":18422:18426   */\n      0x00\n        /* \"#utility.yul\":18460:18462   */\n      0x20\n        /* \"#utility.yul\":18449:18458   */\n      dup3\n        /* \"#utility.yul\":18445:18463   */\n      add\n        /* \"#utility.yul\":18437:18463   */\n      swap1\n      pop\n        /* \"#utility.yul\":18509:18518   */\n      dup2\n        /* \"#utility.yul\":18503:18507   */\n      dup2\n        /* \"#utility.yul\":18499:18519   */\n      sub\n        /* \"#utility.yul\":18495:18496   */\n      0x00\n        /* \"#utility.yul\":18484:18493   */\n      dup4\n        /* \"#utility.yul\":18480:18497   */\n      add\n        /* \"#utility.yul\":18473:18520   */\n      mstore\n        /* \"#utility.yul\":18537:18668   */\n      tag_381\n        /* \"#utility.yul\":18663:18667   */\n      dup2\n        /* \"#utility.yul\":18537:18668   */\n      tag_208\n      jump\t// in\n    tag_381:\n        /* \"#utility.yul\":18529:18668   */\n      swap1\n      pop\n        /* \"#utility.yul\":18256:18675   */\n      swap2\n      swap1\n      pop\n      jump\t// out\n        /* \"#utility.yul\":18681:18872   */\n    tag_147:\n        /* \"#utility.yul\":18721:18724   */\n      0x00\n        /* \"#utility.yul\":18740:18760   */\n      tag_383\n        /* \"#utility.yul\":18758:18759   */\n      dup3\n        /* \"#utility.yul\":18740:18760   */\n      tag_177\n      jump\t// in\n    tag_383:\n        /* \"#utility.yul\":18735:18760   */\n      swap2\n      pop\n        /* \"#utility.yul\":18774:18794   */\n      tag_384\n        /* \"#utility.yul\":18792:18793   */\n      dup4\n        /* \"#utility.yul\":18774:18794   */\n      tag_177\n      jump\t// in\n    tag_384:\n        /* \"#utility.yul\":18769:18794   */\n      swap3\n      pop\n        /* \"#utility.yul\":18817:18818   */\n      dup3\n        /* \"#utility.yul\":18814:18815   */\n      dup3\n        /* \"#utility.yul\":18810:18819   */\n      add\n        /* \"#utility.yul\":18803:18819   */\n      swap1\n      pop\n        /* \"#utility.yul\":18838:18841   */\n      dup1\n        /* \"#utility.yul\":18835:18836   */\n      dup3\n        /* \"#utility.yul\":18832:18842   */\n      gt\n        /* \"#utility.yul\":18829:18865   */\n      iszero\n      tag_385\n      jumpi\n        /* \"#utility.yul\":18845:18863   */\n      tag_386\n      tag_189\n      jump\t// in\n    tag_386:\n        /* \"#utility.yul\":18829:18865   */\n    tag_385:\n        /* \"#utility.yul\":18681:18872   */\n      swap3\n      swap2\n      pop\n      pop\n      jump\t// out\n        /* \"#utility.yul\":18878:19043   */\n    tag_209:\n        /* \"#utility.yul\":19018:19035   */\n      0x496e76616c696420616464726573730000000000000000000000000000000000\n        /* \"#utility.yul\":19014:19015   */\n      0x00\n        /* \"#utility.yul\":19006:19012   */\n      dup3\n        /* \"#utility.yul\":19002:19016   */\n      add\n        /* \"#utility.yul\":18995:19036   */\n      mstore\n        /* \"#utility.yul\":18878:19043   */\n      pop\n      jump\t// out\n        /* \"#utility.yul\":19049:19415   */\n    tag_210:\n        /* \"#utility.yul\":19191:19194   */\n      0x00\n        /* \"#utility.yul\":19212:19279   */\n      tag_389\n        /* \"#utility.yul\":19276:19278   */\n      0x0f\n        /* \"#utility.yul\":19271:19274   */\n      dup4\n        /* \"#utility.yul\":19212:19279   */\n      tag_166\n      jump\t// in\n    tag_389:\n        /* \"#utility.yul\":19205:19279   */\n      swap2\n      pop\n        /* \"#utility.yul\":19288:19381   */\n      tag_390\n        /* \"#utility.yul\":19377:19380   */\n      dup3\n        /* \"#utility.yul\":19288:19381   */\n      tag_209\n      jump\t// in\n    tag_390:\n        /* \"#utility.yul\":19406:19408   */\n      0x20\n        /* \"#utility.yul\":19401:19404   */\n      dup3\n        /* \"#utility.yul\":19397:19409   */\n      add\n        /* \"#utility.yul\":19390:19409   */\n      swap1\n      pop\n        /* \"#utility.yul\":19049:19415   */\n      swap2\n      swap1\n      pop\n      jump\t// out\n        /* \"#utility.yul\":19421:19840   */\n    tag_152:\n        /* \"#utility.yul\":19587:19591   */\n      0x00\n        /* \"#utility.yul\":19625:19627   */\n      0x20\n        /* \"#utility.yul\":19614:19623   */\n      dup3\n        /* \"#utility.yul\":19610:19628   */\n      add\n        /* \"#utility.yul\":19602:19628   */\n      swap1\n      pop\n        /* \"#utility.yul\":19674:19683   */\n      dup2\n        /* \"#utility.yul\":19668:19672   */\n      dup2\n        /* \"#utility.yul\":19664:19684   */\n      sub\n        /* \"#utility.yul\":19660:19661   */\n      0x00\n        /* \"#utility.yul\":19649:19658   */\n      dup4\n        /* \"#utility.yul\":19645:19662   */\n      add\n        /* \"#utility.yul\":19638:19685   */\n      mstore\n        /* \"#utility.yul\":19702:19833   */\n      tag_392\n        /* \"#utility.yul\":19828:19832   */\n      dup2\n        /* \"#utility.yul\":19702:19833   */\n      tag_210\n      jump\t// in\n    tag_392:\n        /* \"#utility.yul\":19694:19833   */\n      swap1\n      pop\n        /* \"#utility.yul\":19421:19840   */\n      swap2\n      swap1\n      pop\n      jump\t// out\n\n    auxdata: 0xa264697066735822122020ae3fcac2cd37c84a2259d47a38f433fa11fe1ea9d9b7e738f4ecb262e2207264736f6c634300081e0033\n}\n",
				"bytecode": {
					"linkReferences": {},
					"object": "60a0604052601260025f6101000a81548160ff021916908360ff1602179055505f600460146101000a81548160ff021916908315150217905550348015610044575f5ffd5b506040516124cb3803806124cb833981810160405281019061006691906103e8565b825f90816100749190610677565b5081600190816100849190610677565b503360045f6101000a81548173ffffffffffffffffffffffffffffffffffffffff021916908373ffffffffffffffffffffffffffffffffffffffff16021790555061011e60045f9054906101000a900473ffffffffffffffffffffffffffffffffffffffff1660025f9054906101000a900460ff1660ff16600a61010891906108a2565b8361011391906108ec565b61012660201b60201c565b505050610a00565b5f73ffffffffffffffffffffffffffffffffffffffff168273ffffffffffffffffffffffffffffffffffffffff1603610194576040517f08c379a000000000000000000000000000000000000000000000000000000000815260040161018b90610987565b60405180910390fd5b8060035f8282546101a591906109a5565b925050819055508060055f8473ffffffffffffffffffffffffffffffffffffffff1673ffffffffffffffffffffffffffffffffffffffff1681526020019081526020015f205f8282546101f891906109a5565b925050819055508173ffffffffffffffffffffffffffffffffffffffff165f73ffffffffffffffffffffffffffffffffffffffff167fddf252ad1be2c89b69c2b068fc378daa952ba7f163c4a11628f55a4df523b3ef8360405161025c91906109e7565b60405180910390a35050565b5f604051905090565b5f5ffd5b5f5ffd5b5f5ffd5b5f5ffd5b5f601f19601f8301169050919050565b7f4e487b71000000000000000000000000000000000000000000000000000000005f52604160045260245ffd5b6102c782610281565b810181811067ffffffffffffffff821117156102e6576102e5610291565b5b80604052505050565b5f6102f8610268565b905061030482826102be565b919050565b5f67ffffffffffffffff82111561032357610322610291565b5b61032c82610281565b9050602081019050919050565b8281835e5f83830152505050565b5f61035961035484610309565b6102ef565b9050828152602081018484840111156103755761037461027d565b5b610380848285610339565b509392505050565b5f82601f83011261039c5761039b610279565b5b81516103ac848260208601610347565b91505092915050565b5f819050919050565b6103c7816103b5565b81146103d1575f5ffd5b50565b5f815190506103e2816103be565b92915050565b5f5f5f606084860312156103ff576103fe610271565b5b5f84015167ffffffffffffffff81111561041c5761041b610275565b5b61042886828701610388565b935050602084015167ffffffffffffffff81111561044957610448610275565b5b61045586828701610388565b9250506040610466868287016103d4565b9150509250925092565b5f81519050919050565b7f4e487b71000000000000000000000000000000000000000000000000000000005f52602260045260245ffd5b5f60028204905060018216806104be57607f821691505b6020821081036104d1576104d061047a565b5b50919050565b5f819050815f5260205f209050919050565b5f6020601f8301049050919050565b5f82821b905092915050565b5f600883026105337fffffffffffffffffffffffffffffffffffffffffffffffffffffffffffffffff826104f8565b61053d86836104f8565b95508019841693508086168417925050509392505050565b5f819050919050565b5f61057861057361056e846103b5565b610555565b6103b5565b9050919050565b5f819050919050565b6105918361055e565b6105a561059d8261057f565b848454610504565b825550505050565b5f5f905090565b6105bc6105ad565b6105c7818484610588565b505050565b5b818110156105ea576105df5f826105b4565b6001810190506105cd565b5050565b601f82111561062f57610600816104d7565b610609846104e9565b81016020851015610618578190505b61062c610624856104e9565b8301826105cc565b50505b505050565b5f82821c905092915050565b5f61064f5f1984600802610634565b1980831691505092915050565b5f6106678383610640565b9150826002028217905092915050565b61068082610470565b67ffffffffffffffff81111561069957610698610291565b5b6106a382546104a7565b6106ae8282856105ee565b5f60209050601f8311600181146106df575f84156106cd578287015190505b6106d7858261065c565b86555061073e565b601f1984166106ed866104d7565b5f5b82811015610714578489015182556001820191506020850194506020810190506106ef565b86831015610731578489015161072d601f891682610640565b8355505b6001600288020188555050505b505050505050565b7f4e487b71000000000000000000000000000000000000000000000000000000005f52601160045260245ffd5b5f8160011c9050919050565b5f5f8291508390505b60018511156107c8578086048111156107a4576107a3610746565b5b60018516156107b35780820291505b80810290506107c185610773565b9450610788565b94509492505050565b5f826107e0576001905061089b565b816107ed575f905061089b565b8160018114610803576002811461080d5761083c565b600191505061089b565b60ff84111561081f5761081e610746565b5b8360020a91508482111561083657610835610746565b5b5061089b565b5060208310610133831016604e8410600b84101617156108715782820a90508381111561086c5761086b610746565b5b61089b565b61087e848484600161077f565b9250905081840481111561089557610894610746565b5b81810290505b9392505050565b5f6108ac826103b5565b91506108b7836103b5565b92506108e47fffffffffffffffffffffffffffffffffffffffffffffffffffffffffffffffff84846107d1565b905092915050565b5f6108f6826103b5565b9150610901836103b5565b925082820261090f816103b5565b9150828204841483151761092657610925610746565b5b5092915050565b5f82825260208201905092915050565b7f496e76616c6964206164647265737300000000000000000000000000000000005f82015250565b5f610971600f8361092d565b915061097c8261093d565b602082019050919050565b5f6020820190508181035f83015261099e81610965565b9050919050565b5f6109af826103b5565b91506109ba836103b5565b92508282019050808211156109d2576109d1610746565b5b92915050565b6109e1816103b5565b82525050565b5f6020820190506109fa5f8301846109d8565b92915050565b608051611ab6610a155f395f5050611ab65ff3fe608060405234801561000f575f5ffd5b50600436106100e8575f3560e01c806370a082311161008a57806395d89b411161006457806395d89b411461024a578063a9059cbb14610268578063c62b3bea14610298578063dd62ed3e146102b4576100e8565b806370a08231146101de57806372dd529b1461020e5780638da5cb5b1461022c576100e8565b8063313ce567116100c6578063313ce5671461016a57806340c10f191461018857806342966c68146101a45780635c975abb146101c0576100e8565b806306fdde03146100ec578063095ea7b31461010a57806323b872dd1461013a575b5f5ffd5b6100f46102e4565b604051610101919061113c565b60405180910390f35b610124600480360381019061011f91906111ed565b61036f565b6040516101319190611245565b60405180910390f35b610154600480360381019061014f919061125e565b610385565b6040516101619190611245565b60405180910390f35b6101726104e5565b60405161017f91906112c9565b60405180910390f35b6101a2600480360381019061019d91906111ed565b6104f7565b005b6101be60048036038101906101b991906112e2565b6105bc565b005b6101c8610649565b6040516101d59190611245565b60405180910390f35b6101f860048036038101906101f3919061130d565b61065c565b6040516102059190611347565b60405180910390f35b6102166106a2565b6040516102239190611347565b60405180910390f35b6102346106ab565b604051610241919061136f565b60405180910390f35b6102526106d0565b60405161025f919061113c565b60405180910390f35b610282600480360381019061027d91906111ed565b61075c565b60405161028f9190611245565b60405180910390f35b6102b260048036038101906102ad91906111ed565b610772565b005b6102ce60048036038101906102c99190611388565b6108c9565b6040516102db9190611347565b60405180910390f35b5f80546102f0906113f3565b80601f016020809104026020016040519081016040528092919081815260200182805461031c906113f3565b80156103675780601f1061033e57610100808354040283529160200191610367565b820191905f5260205f20905b81548152906001019060200180831161034a57829003601f168201915b505050505081565b5f61037b33848461094b565b6001905092915050565b5f8160065f8673ffffffffffffffffffffffffffffffffffffffff1673ffffffffffffffffffffffffffffffffffffffff1681526020019081526020015f205f3373ffffffffffffffffffffffffffffffffffffffff1673ffffffffffffffffffffffffffffffffffffffff1681526020019081526020015f20541015610441576040517f08c379a00000000000000000000000000000000000000000000000000000000081526004016104389061146d565b60405180910390fd5b8160065f8673ffffffffffffffffffffffffffffffffffffffff1673ffffffffffffffffffffffffffffffffffffffff1681526020019081526020015f205f3373ffffffffffffffffffffffffffffffffffffffff1673ffffffffffffffffffffffffffffffffffffffff1681526020019081526020015f205f8282546104c891906114b8565b925050819055506104da848484610b0e565b600190509392505050565b60025f9054906101000a900460ff1681565b60045f9054906101000a900473ffffffffffffffffffffffffffffffffffffffff1673ffffffffffffffffffffffffffffffffffffffff163373ffffffffffffffffffffffffffffffffffffffff1614610586576040517f08c379a000000000000000000000000000000000000000000000000000000000815260040161057d90611535565b60405180910390fd5b6105b88260025f9054906101000a900460ff1660ff16600a6105a89190611682565b836105b391906116cc565b610d7a565b5050565b8060055f3373ffffffffffffffffffffffffffffffffffffffff1673ffffffffffffffffffffffffffffffffffffffff1681526020019081526020015f2054101561063c576040517f08c379a000000000000000000000000000000000000000000000000000000000815260040161063390611757565b60405180910390fd5b6106463382610ebc565b50565b600460149054906101000a900460ff1681565b5f60055f8373ffffffffffffffffffffffffffffffffffffffff1673ffffffffffffffffffffffffffffffffffffffff1681526020019081526020015f20549050919050565b5f600354905090565b60045f9054906101000a900473ffffffffffffffffffffffffffffffffffffffff1681565b600180546106dd906113f3565b80601f0160208091040260200160405190810160405280929190818152602001828054610709906113f3565b80156107545780601f1061072b57610100808354040283529160200191610754565b820191905f5260205f20905b81548152906001019060200180831161073757829003601f168201915b505050505081565b5f610768338484610b0e565b6001905092915050565b8060065f8473ffffffffffffffffffffffffffffffffffffffff1673ffffffffffffffffffffffffffffffffffffffff1681526020019081526020015f205f3373ffffffffffffffffffffffffffffffffffffffff1673ffffffffffffffffffffffffffffffffffffffff1681526020019081526020015f2054101561082d576040517f08c379a0000000000000000000000000000000000000000000000000000000008152600401610824906117bf565b60405180910390fd5b8060065f8473ffffffffffffffffffffffffffffffffffffffff1673ffffffffffffffffffffffffffffffffffffffff1681526020019081526020015f205f3373ffffffffffffffffffffffffffffffffffffffff1673ffffffffffffffffffffffffffffffffffffffff1681526020019081526020015f205f8282546108b491906114b8565b925050819055506108c58282610ebc565b5050565b5f60065f8473ffffffffffffffffffffffffffffffffffffffff1673ffffffffffffffffffffffffffffffffffffffff1681526020019081526020015f205f8373ffffffffffffffffffffffffffffffffffffffff1673ffffffffffffffffffffffffffffffffffffffff1681526020019081526020015f2054905092915050565b5f73ffffffffffffffffffffffffffffffffffffffff168373ffffffffffffffffffffffffffffffffffffffff16036109b9576040517f08c379a00000000000000000000000000000000000000000000000000000000081526004016109b090611827565b60405180910390fd5b5f73ffffffffffffffffffffffffffffffffffffffff168273ffffffffffffffffffffffffffffffffffffffff1603610a27576040517f08c379a0000000000000000000000000000000000000000000000000000000008152600401610a1e9061188f565b60405180910390fd5b8060065f8573ffffffffffffffffffffffffffffffffffffffff1673ffffffffffffffffffffffffffffffffffffffff1681526020019081526020015f205f8473ffffffffffffffffffffffffffffffffffffffff1673ffffffffffffffffffffffffffffffffffffffff1681526020019081526020015f20819055508173ffffffffffffffffffffffffffffffffffffffff168373ffffffffffffffffffffffffffffffffffffffff167f8c5be1e5ebec7d5bd14f71427d1e84f3dd0314c0f7b2291e5b200ac8c7c3b92583604051610b019190611347565b60405180910390a3505050565b5f73ffffffffffffffffffffffffffffffffffffffff168373ffffffffffffffffffffffffffffffffffffffff1603610b7c576040517f08c379a0000000000000000000000000000000000000000000000000000000008152600401610b73906118f7565b60405180910390fd5b5f73ffffffffffffffffffffffffffffffffffffffff168273ffffffffffffffffffffffffffffffffffffffff1603610bea576040517f08c379a0000000000000000000000000000000000000000000000000000000008152600401610be19061195f565b60405180910390fd5b8060055f8573ffffffffffffffffffffffffffffffffffffffff1673ffffffffffffffffffffffffffffffffffffffff1681526020019081526020015f20541015610c6a576040517f08c379a0000000000000000000000000000000000000000000000000000000008152600401610c61906119c7565b60405180910390fd5b8060055f8573ffffffffffffffffffffffffffffffffffffffff1673ffffffffffffffffffffffffffffffffffffffff1681526020019081526020015f205f828254610cb691906114b8565b925050819055508060055f8473ffffffffffffffffffffffffffffffffffffffff1673ffffffffffffffffffffffffffffffffffffffff1681526020019081526020015f205f828254610d0991906119e5565b925050819055508173ffffffffffffffffffffffffffffffffffffffff168373ffffffffffffffffffffffffffffffffffffffff167fddf252ad1be2c89b69c2b068fc378daa952ba7f163c4a11628f55a4df523b3ef83604051610d6d9190611347565b60405180910390a3505050565b5f73ffffffffffffffffffffffffffffffffffffffff168273ffffffffffffffffffffffffffffffffffffffff1603610de8576040517f08c379a0000000000000000000000000000000000000000000000000000000008152600401610ddf90611a62565b60405180910390fd5b8060035f828254610df991906119e5565b925050819055508060055f8473ffffffffffffffffffffffffffffffffffffffff1673ffffffffffffffffffffffffffffffffffffffff1681526020019081526020015f205f828254610e4c91906119e5565b925050819055508173ffffffffffffffffffffffffffffffffffffffff165f73ffffffffffffffffffffffffffffffffffffffff167fddf252ad1be2c89b69c2b068fc378daa952ba7f163c4a11628f55a4df523b3ef83604051610eb09190611347565b60405180910390a35050565b5f73ffffffffffffffffffffffffffffffffffffffff168273ffffffffffffffffffffffffffffffffffffffff1603610f2a576040517f08c379a0000000000000000000000000000000000000000000000000000000008152600401610f2190611a62565b60405180910390fd5b8060055f8473ffffffffffffffffffffffffffffffffffffffff1673ffffffffffffffffffffffffffffffffffffffff1681526020019081526020015f20541015610faa576040517f08c379a0000000000000000000000000000000000000000000000000000000008152600401610fa1906119c7565b60405180910390fd5b8060055f8473ffffffffffffffffffffffffffffffffffffffff1673ffffffffffffffffffffffffffffffffffffffff1681526020019081526020015f205f828254610ff691906114b8565b925050819055508060035f82825461100e91906114b8565b925050819055508173ffffffffffffffffffffffffffffffffffffffff167fcc16f5dbb4873280815c1ee09dbd06736cffcc184412cf7a71a0fdb75d397ca58260405161105b9190611347565b60405180910390a25f73ffffffffffffffffffffffffffffffffffffffff168273ffffffffffffffffffffffffffffffffffffffff167fddf252ad1be2c89b69c2b068fc378daa952ba7f163c4a11628f55a4df523b3ef836040516110c09190611347565b60405180910390a35050565b5f81519050919050565b5f82825260208201905092915050565b8281835e5f83830152505050565b5f601f19601f8301169050919050565b5f61110e826110cc565b61111881856110d6565b93506111288185602086016110e6565b611131816110f4565b840191505092915050565b5f6020820190508181035f8301526111548184611104565b905092915050565b5f5ffd5b5f73ffffffffffffffffffffffffffffffffffffffff82169050919050565b5f61118982611160565b9050919050565b6111998161117f565b81146111a3575f5ffd5b50565b5f813590506111b481611190565b92915050565b5f819050919050565b6111cc816111ba565b81146111d6575f5ffd5b50565b5f813590506111e7816111c3565b92915050565b5f5f604083850312156112035761120261115c565b5b5f611210858286016111a6565b9250506020611221858286016111d9565b9150509250929050565b5f8115159050919050565b61123f8161122b565b82525050565b5f6020820190506112585f830184611236565b92915050565b5f5f5f606084860312156112755761127461115c565b5b5f611282868287016111a6565b9350506020611293868287016111a6565b92505060406112a4868287016111d9565b9150509250925092565b5f60ff82169050919050565b6112c3816112ae565b82525050565b5f6020820190506112dc5f8301846112ba565b92915050565b5f602082840312156112f7576112f661115c565b5b5f611304848285016111d9565b91505092915050565b5f602082840312156113225761132161115c565b5b5f61132f848285016111a6565b91505092915050565b611341816111ba565b82525050565b5f60208201905061135a5f830184611338565b92915050565b6113698161117f565b82525050565b5f6020820190506113825f830184611360565b92915050565b5f5f6040838503121561139e5761139d61115c565b5b5f6113ab858286016111a6565b92505060206113bc858286016111a6565b9150509250929050565b7f4e487b71000000000000000000000000000000000000000000000000000000005f52602260045260245ffd5b5f600282049050600182168061140a57607f821691505b60208210810361141d5761141c6113c6565b5b50919050565b7f45524332303a20696e73756666696369656e7420616c6c6f77616e63650000005f82015250565b5f611457601d836110d6565b915061146282611423565b602082019050919050565b5f6020820190508181035f8301526114848161144b565b9050919050565b7f4e487b71000000000000000000000000000000000000000000000000000000005f52601160045260245ffd5b5f6114c2826111ba565b91506114cd836111ba565b92508282039050818111156114e5576114e461148b565b5b92915050565b7f4e6f7420636f6e7472616374204f776e657200000000000000000000000000005f82015250565b5f61151f6012836110d6565b915061152a826114eb565b602082019050919050565b5f6020820190508181035f83015261154c81611513565b9050919050565b5f8160011c9050919050565b5f5f8291508390505b60018511156115a8578086048111156115845761158361148b565b5b60018516156115935780820291505b80810290506115a185611553565b9450611568565b94509492505050565b5f826115c0576001905061167b565b816115cd575f905061167b565b81600181146115e357600281146115ed5761161c565b600191505061167b565b60ff8411156115ff576115fe61148b565b5b8360020a9150848211156116165761161561148b565b5b5061167b565b5060208310610133831016604e8410600b84101617156116515782820a90508381111561164c5761164b61148b565b5b61167b565b61165e848484600161155f565b925090508184048111156116755761167461148b565b5b81810290505b9392505050565b5f61168c826111ba565b9150611697836111ba565b92506116c47fffffffffffffffffffffffffffffffffffffffffffffffffffffffffffffffff84846115b1565b905092915050565b5f6116d6826111ba565b91506116e1836111ba565b92508282026116ef816111ba565b915082820484148315176117065761170561148b565b5b5092915050565b7f496e73756666696369656e742062616c616e636520746f206275726e000000005f82015250565b5f611741601c836110d6565b915061174c8261170d565b602082019050919050565b5f6020820190508181035f83015261176e81611735565b9050919050565b7f416c6c6f77616e636520657863656564656400000000000000000000000000005f82015250565b5f6117a96012836110d6565b91506117b482611775565b602082019050919050565b5f6020820190508181035f8301526117d68161179d565b9050919050565b7f45524332303a20617070726f76652066726f6d203078300000000000000000005f82015250565b5f6118116017836110d6565b915061181c826117dd565b602082019050919050565b5f6020820190508181035f83015261183e81611805565b9050919050565b7f45524332303a20617070726f766520746f2030783000000000000000000000005f82015250565b5f6118796015836110d6565b915061188482611845565b602082019050919050565b5f6020820190508181035f8301526118a68161186d565b9050919050565b7f45524332303a207472616e736665722066726f6d2030783000000000000000005f82015250565b5f6118e16018836110d6565b91506118ec826118ad565b602082019050919050565b5f6020820190508181035f83015261190e816118d5565b9050919050565b7f45524332303a207472616e7366657220746f20307830000000000000000000005f82015250565b5f6119496016836110d6565b915061195482611915565b602082019050919050565b5f6020820190508181035f8301526119768161193d565b9050919050565b7f45524332303a20696e73756666696369656e742062616c616e636500000000005f82015250565b5f6119b1601b836110d6565b91506119bc8261197d565b602082019050919050565b5f6020820190508181035f8301526119de816119a5565b9050919050565b5f6119ef826111ba565b91506119fa836111ba565b9250828201905080821115611a1257611a1161148b565b5b92915050565b7f496e76616c6964206164647265737300000000000000000000000000000000005f82015250565b5f611a4c600f836110d6565b9150611a5782611a18565b602082019050919050565b5f6020820190508181035f830152611a7981611a40565b905091905056fea264697066735822122020ae3fcac2cd37c84a2259d47a38f433fa11fe1ea9d9b7e738f4ecb262e2207264736f6c634300081e0033",
					"opcodes": "PUSH1 0xA0 PUSH1 0x40 MSTORE PUSH1 0x12 PUSH1 0x2 PUSH0 PUSH2 0x100 EXP DUP2 SLOAD DUP2 PUSH1 0xFF MUL NOT AND SWAP1 DUP4 PUSH1 0xFF AND MUL OR SWAP1 SSTORE POP PUSH0 PUSH1 0x4 PUSH1 0x14 PUSH2 0x100 EXP DUP2 SLOAD DUP2 PUSH1 0xFF MUL NOT AND SWAP1 DUP4 ISZERO ISZERO MUL OR SWAP1 SSTORE POP CALLVALUE DUP1 ISZERO PUSH2 0x44 JUMPI PUSH0 PUSH0 REVERT JUMPDEST POP PUSH1 0x40 MLOAD PUSH2 0x24CB CODESIZE SUB DUP1 PUSH2 0x24CB DUP4 CODECOPY DUP2 DUP2 ADD PUSH1 0x40 MSTORE DUP2 ADD SWAP1 PUSH2 0x66 SWAP2 SWAP1 PUSH2 0x3E8 JUMP JUMPDEST DUP3 PUSH0 SWAP1 DUP2 PUSH2 0x74 SWAP2 SWAP1 PUSH2 0x677 JUMP JUMPDEST POP DUP2 PUSH1 0x1 SWAP1 DUP2 PUSH2 0x84 SWAP2 SWAP1 PUSH2 0x677 JUMP JUMPDEST POP CALLER PUSH1 0x4 PUSH0 PUSH2 0x100 EXP DUP2 SLOAD DUP2 PUSH20 0xFFFFFFFFFFFFFFFFFFFFFFFFFFFFFFFFFFFFFFFF MUL NOT AND SWAP1 DUP4 PUSH20 0xFFFFFFFFFFFFFFFFFFFFFFFFFFFFFFFFFFFFFFFF AND MUL OR SWAP1 SSTORE POP PUSH2 0x11E PUSH1 0x4 PUSH0 SWAP1 SLOAD SWAP1 PUSH2 0x100 EXP SWAP1 DIV PUSH20 0xFFFFFFFFFFFFFFFFFFFFFFFFFFFFFFFFFFFFFFFF AND PUSH1 0x2 PUSH0 SWAP1 SLOAD SWAP1 PUSH2 0x100 EXP SWAP1 DIV PUSH1 0xFF AND PUSH1 0xFF AND PUSH1 0xA PUSH2 0x108 SWAP2 SWAP1 PUSH2 0x8A2 JUMP JUMPDEST DUP4 PUSH2 0x113 SWAP2 SWAP1 PUSH2 0x8EC JUMP JUMPDEST PUSH2 0x126 PUSH1 0x20 SHL PUSH1 0x20 SHR JUMP JUMPDEST POP POP POP PUSH2 0xA00 JUMP JUMPDEST PUSH0 PUSH20 0xFFFFFFFFFFFFFFFFFFFFFFFFFFFFFFFFFFFFFFFF AND DUP3 PUSH20 0xFFFFFFFFFFFFFFFFFFFFFFFFFFFFFFFFFFFFFFFF AND SUB PUSH2 0x194 JUMPI PUSH1 0x40 MLOAD PUSH32 0x8C379A000000000000000000000000000000000000000000000000000000000 DUP2 MSTORE PUSH1 0x4 ADD PUSH2 0x18B SWAP1 PUSH2 0x987 JUMP JUMPDEST PUSH1 0x40 MLOAD DUP1 SWAP2 SUB SWAP1 REVERT JUMPDEST DUP1 PUSH1 0x3 PUSH0 DUP3 DUP3 SLOAD PUSH2 0x1A5 SWAP2 SWAP1 PUSH2 0x9A5 JUMP JUMPDEST SWAP3 POP POP DUP2 SWAP1 SSTORE POP DUP1 PUSH1 0x5 PUSH0 DUP5 PUSH20 0xFFFFFFFFFFFFFFFFFFFFFFFFFFFFFFFFFFFFFFFF AND PUSH20 0xFFFFFFFFFFFFFFFFFFFFFFFFFFFFFFFFFFFFFFFF AND DUP2 MSTORE PUSH1 0x20 ADD SWAP1 DUP2 MSTORE PUSH1 0x20 ADD PUSH0 KECCAK256 PUSH0 DUP3 DUP3 SLOAD PUSH2 0x1F8 SWAP2 SWAP1 PUSH2 0x9A5 JUMP JUMPDEST SWAP3 POP POP DUP2 SWAP1 SSTORE POP DUP2 PUSH20 0xFFFFFFFFFFFFFFFFFFFFFFFFFFFFFFFFFFFFFFFF AND PUSH0 PUSH20 0xFFFFFFFFFFFFFFFFFFFFFFFFFFFFFFFFFFFFFFFF AND PUSH32 0xDDF252AD1BE2C89B69C2B068FC378DAA952BA7F163C4A11628F55A4DF523B3EF DUP4 PUSH1 0x40 MLOAD PUSH2 0x25C SWAP2 SWAP1 PUSH2 0x9E7 JUMP JUMPDEST PUSH1 0x40 MLOAD DUP1 SWAP2 SUB SWAP1 LOG3 POP POP JUMP JUMPDEST PUSH0 PUSH1 0x40 MLOAD SWAP1 POP SWAP1 JUMP JUMPDEST PUSH0 PUSH0 REVERT JUMPDEST PUSH0 PUSH0 REVERT JUMPDEST PUSH0 PUSH0 REVERT JUMPDEST PUSH0 PUSH0 REVERT JUMPDEST PUSH0 PUSH1 0x1F NOT PUSH1 0x1F DUP4 ADD AND SWAP1 POP SWAP2 SWAP1 POP JUMP JUMPDEST PUSH32 0x4E487B7100000000000000000000000000000000000000000000000000000000 PUSH0 MSTORE PUSH1 0x41 PUSH1 0x4 MSTORE PUSH1 0x24 PUSH0 REVERT JUMPDEST PUSH2 0x2C7 DUP3 PUSH2 0x281 JUMP JUMPDEST DUP2 ADD DUP2 DUP2 LT PUSH8 0xFFFFFFFFFFFFFFFF DUP3 GT OR ISZERO PUSH2 0x2E6 JUMPI PUSH2 0x2E5 PUSH2 0x291 JUMP JUMPDEST JUMPDEST DUP1 PUSH1 0x40 MSTORE POP POP POP JUMP JUMPDEST PUSH0 PUSH2 0x2F8 PUSH2 0x268 JUMP JUMPDEST SWAP1 POP PUSH2 0x304 DUP3 DUP3 PUSH2 0x2BE JUMP JUMPDEST SWAP2 SWAP1 POP JUMP JUMPDEST PUSH0 PUSH8 0xFFFFFFFFFFFFFFFF DUP3 GT ISZERO PUSH2 0x323 JUMPI PUSH2 0x322 PUSH2 0x291 JUMP JUMPDEST JUMPDEST PUSH2 0x32C DUP3 PUSH2 0x281 JUMP JUMPDEST SWAP1 POP PUSH1 0x20 DUP2 ADD SWAP1 POP SWAP2 SWAP1 POP JUMP JUMPDEST DUP3 DUP2 DUP4 MCOPY PUSH0 DUP4 DUP4 ADD MSTORE POP POP POP JUMP JUMPDEST PUSH0 PUSH2 0x359 PUSH2 0x354 DUP5 PUSH2 0x309 JUMP JUMPDEST PUSH2 0x2EF JUMP JUMPDEST SWAP1 POP DUP3 DUP2 MSTORE PUSH1 0x20 DUP2 ADD DUP5 DUP5 DUP5 ADD GT ISZERO PUSH2 0x375 JUMPI PUSH2 0x374 PUSH2 0x27D JUMP JUMPDEST JUMPDEST PUSH2 0x380 DUP5 DUP3 DUP6 PUSH2 0x339 JUMP JUMPDEST POP SWAP4 SWAP3 POP POP POP JUMP JUMPDEST PUSH0 DUP3 PUSH1 0x1F DUP4 ADD SLT PUSH2 0x39C JUMPI PUSH2 0x39B PUSH2 0x279 JUMP JUMPDEST JUMPDEST DUP2 MLOAD PUSH2 0x3AC DUP5 DUP3 PUSH1 0x20 DUP7 ADD PUSH2 0x347 JUMP JUMPDEST SWAP2 POP POP SWAP3 SWAP2 POP POP JUMP JUMPDEST PUSH0 DUP2 SWAP1 POP SWAP2 SWAP1 POP JUMP JUMPDEST PUSH2 0x3C7 DUP2 PUSH2 0x3B5 JUMP JUMPDEST DUP2 EQ PUSH2 0x3D1 JUMPI PUSH0 PUSH0 REVERT JUMPDEST POP JUMP JUMPDEST PUSH0 DUP2 MLOAD SWAP1 POP PUSH2 0x3E2 DUP2 PUSH2 0x3BE JUMP JUMPDEST SWAP3 SWAP2 POP POP JUMP JUMPDEST PUSH0 PUSH0 PUSH0 PUSH1 0x60 DUP5 DUP7 SUB SLT ISZERO PUSH2 0x3FF JUMPI PUSH2 0x3FE PUSH2 0x271 JUMP JUMPDEST JUMPDEST PUSH0 DUP5 ADD MLOAD PUSH8 0xFFFFFFFFFFFFFFFF DUP2 GT ISZERO PUSH2 0x41C JUMPI PUSH2 0x41B PUSH2 0x275 JUMP JUMPDEST JUMPDEST PUSH2 0x428 DUP7 DUP3 DUP8 ADD PUSH2 0x388 JUMP JUMPDEST SWAP4 POP POP PUSH1 0x20 DUP5 ADD MLOAD PUSH8 0xFFFFFFFFFFFFFFFF DUP2 GT ISZERO PUSH2 0x449 JUMPI PUSH2 0x448 PUSH2 0x275 JUMP JUMPDEST JUMPDEST PUSH2 0x455 DUP7 DUP3 DUP8 ADD PUSH2 0x388 JUMP JUMPDEST SWAP3 POP POP PUSH1 0x40 PUSH2 0x466 DUP7 DUP3 DUP8 ADD PUSH2 0x3D4 JUMP JUMPDEST SWAP2 POP POP SWAP3 POP SWAP3 POP SWAP3 JUMP JUMPDEST PUSH0 DUP2 MLOAD SWAP1 POP SWAP2 SWAP1 POP JUMP JUMPDEST PUSH32 0x4E487B7100000000000000000000000000000000000000000000000000000000 PUSH0 MSTORE PUSH1 0x22 PUSH1 0x4 MSTORE PUSH1 0x24 PUSH0 REVERT JUMPDEST PUSH0 PUSH1 0x2 DUP3 DIV SWAP1 POP PUSH1 0x1 DUP3 AND DUP1 PUSH2 0x4BE JUMPI PUSH1 0x7F DUP3 AND SWAP2 POP JUMPDEST PUSH1 0x20 DUP3 LT DUP2 SUB PUSH2 0x4D1 JUMPI PUSH2 0x4D0 PUSH2 0x47A JUMP JUMPDEST JUMPDEST POP SWAP2 SWAP1 POP JUMP JUMPDEST PUSH0 DUP2 SWAP1 POP DUP2 PUSH0 MSTORE PUSH1 0x20 PUSH0 KECCAK256 SWAP1 POP SWAP2 SWAP1 POP JUMP JUMPDEST PUSH0 PUSH1 0x20 PUSH1 0x1F DUP4 ADD DIV SWAP1 POP SWAP2 SWAP1 POP JUMP JUMPDEST PUSH0 DUP3 DUP3 SHL SWAP1 POP SWAP3 SWAP2 POP POP JUMP JUMPDEST PUSH0 PUSH1 0x8 DUP4 MUL PUSH2 0x533 PUSH32 0xFFFFFFFFFFFFFFFFFFFFFFFFFFFFFFFFFFFFFFFFFFFFFFFFFFFFFFFFFFFFFFFF DUP3 PUSH2 0x4F8 JUMP JUMPDEST PUSH2 0x53D DUP7 DUP4 PUSH2 0x4F8 JUMP JUMPDEST SWAP6 POP DUP1 NOT DUP5 AND SWAP4 POP DUP1 DUP7 AND DUP5 OR SWAP3 POP POP POP SWAP4 SWAP3 POP POP POP JUMP JUMPDEST PUSH0 DUP2 SWAP1 POP SWAP2 SWAP1 POP JUMP JUMPDEST PUSH0 PUSH2 0x578 PUSH2 0x573 PUSH2 0x56E DUP5 PUSH2 0x3B5 JUMP JUMPDEST PUSH2 0x555 JUMP JUMPDEST PUSH2 0x3B5 JUMP JUMPDEST SWAP1 POP SWAP2 SWAP1 POP JUMP JUMPDEST PUSH0 DUP2 SWAP1 POP SWAP2 SWAP1 POP JUMP JUMPDEST PUSH2 0x591 DUP4 PUSH2 0x55E JUMP JUMPDEST PUSH2 0x5A5 PUSH2 0x59D DUP3 PUSH2 0x57F JUMP JUMPDEST DUP5 DUP5 SLOAD PUSH2 0x504 JUMP JUMPDEST DUP3 SSTORE POP POP POP POP JUMP JUMPDEST PUSH0 PUSH0 SWAP1 POP SWAP1 JUMP JUMPDEST PUSH2 0x5BC PUSH2 0x5AD JUMP JUMPDEST PUSH2 0x5C7 DUP2 DUP5 DUP5 PUSH2 0x588 JUMP JUMPDEST POP POP POP JUMP JUMPDEST JUMPDEST DUP2 DUP2 LT ISZERO PUSH2 0x5EA JUMPI PUSH2 0x5DF PUSH0 DUP3 PUSH2 0x5B4 JUMP JUMPDEST PUSH1 0x1 DUP2 ADD SWAP1 POP PUSH2 0x5CD JUMP JUMPDEST POP POP JUMP JUMPDEST PUSH1 0x1F DUP3 GT ISZERO PUSH2 0x62F JUMPI PUSH2 0x600 DUP2 PUSH2 0x4D7 JUMP JUMPDEST PUSH2 0x609 DUP5 PUSH2 0x4E9 JUMP JUMPDEST DUP2 ADD PUSH1 0x20 DUP6 LT ISZERO PUSH2 0x618 JUMPI DUP2 SWAP1 POP JUMPDEST PUSH2 0x62C PUSH2 0x624 DUP6 PUSH2 0x4E9 JUMP JUMPDEST DUP4 ADD DUP3 PUSH2 0x5CC JUMP JUMPDEST POP POP JUMPDEST POP POP POP JUMP JUMPDEST PUSH0 DUP3 DUP3 SHR SWAP1 POP SWAP3 SWAP2 POP POP JUMP JUMPDEST PUSH0 PUSH2 0x64F PUSH0 NOT DUP5 PUSH1 0x8 MUL PUSH2 0x634 JUMP JUMPDEST NOT DUP1 DUP4 AND SWAP2 POP POP SWAP3 SWAP2 POP POP JUMP JUMPDEST PUSH0 PUSH2 0x667 DUP4 DUP4 PUSH2 0x640 JUMP JUMPDEST SWAP2 POP DUP3 PUSH1 0x2 MUL DUP3 OR SWAP1 POP SWAP3 SWAP2 POP POP JUMP JUMPDEST PUSH2 0x680 DUP3 PUSH2 0x470 JUMP JUMPDEST PUSH8 0xFFFFFFFFFFFFFFFF DUP2 GT ISZERO PUSH2 0x699 JUMPI PUSH2 0x698 PUSH2 0x291 JUMP JUMPDEST JUMPDEST PUSH2 0x6A3 DUP3 SLOAD PUSH2 0x4A7 JUMP JUMPDEST PUSH2 0x6AE DUP3 DUP3 DUP6 PUSH2 0x5EE JUMP JUMPDEST PUSH0 PUSH1 0x20 SWAP1 POP PUSH1 0x1F DUP4 GT PUSH1 0x1 DUP2 EQ PUSH2 0x6DF JUMPI PUSH0 DUP5 ISZERO PUSH2 0x6CD JUMPI DUP3 DUP8 ADD MLOAD SWAP1 POP JUMPDEST PUSH2 0x6D7 DUP6 DUP3 PUSH2 0x65C JUMP JUMPDEST DUP7 SSTORE POP PUSH2 0x73E JUMP JUMPDEST PUSH1 0x1F NOT DUP5 AND PUSH2 0x6ED DUP7 PUSH2 0x4D7 JUMP JUMPDEST PUSH0 JUMPDEST DUP3 DUP2 LT ISZERO PUSH2 0x714 JUMPI DUP5 DUP10 ADD MLOAD DUP3 SSTORE PUSH1 0x1 DUP3 ADD SWAP2 POP PUSH1 0x20 DUP6 ADD SWAP5 POP PUSH1 0x20 DUP2 ADD SWAP1 POP PUSH2 0x6EF JUMP JUMPDEST DUP7 DUP4 LT ISZERO PUSH2 0x731 JUMPI DUP5 DUP10 ADD MLOAD PUSH2 0x72D PUSH1 0x1F DUP10 AND DUP3 PUSH2 0x640 JUMP JUMPDEST DUP4 SSTORE POP JUMPDEST PUSH1 0x1 PUSH1 0x2 DUP9 MUL ADD DUP9 SSTORE POP POP POP JUMPDEST POP POP POP POP POP POP JUMP JUMPDEST PUSH32 0x4E487B7100000000000000000000000000000000000000000000000000000000 PUSH0 MSTORE PUSH1 0x11 PUSH1 0x4 MSTORE PUSH1 0x24 PUSH0 REVERT JUMPDEST PUSH0 DUP2 PUSH1 0x1 SHR SWAP1 POP SWAP2 SWAP1 POP JUMP JUMPDEST PUSH0 PUSH0 DUP3 SWAP2 POP DUP4 SWAP1 POP JUMPDEST PUSH1 0x1 DUP6 GT ISZERO PUSH2 0x7C8 JUMPI DUP1 DUP7 DIV DUP2 GT ISZERO PUSH2 0x7A4 JUMPI PUSH2 0x7A3 PUSH2 0x746 JUMP JUMPDEST JUMPDEST PUSH1 0x1 DUP6 AND ISZERO PUSH2 0x7B3 JUMPI DUP1 DUP3 MUL SWAP2 POP JUMPDEST DUP1 DUP2 MUL SWAP1 POP PUSH2 0x7C1 DUP6 PUSH2 0x773 JUMP JUMPDEST SWAP5 POP PUSH2 0x788 JUMP JUMPDEST SWAP5 POP SWAP5 SWAP3 POP POP POP JUMP JUMPDEST PUSH0 DUP3 PUSH2 0x7E0 JUMPI PUSH1 0x1 SWAP1 POP PUSH2 0x89B JUMP JUMPDEST DUP2 PUSH2 0x7ED JUMPI PUSH0 SWAP1 POP PUSH2 0x89B JUMP JUMPDEST DUP2 PUSH1 0x1 DUP2 EQ PUSH2 0x803 JUMPI PUSH1 0x2 DUP2 EQ PUSH2 0x80D JUMPI PUSH2 0x83C JUMP JUMPDEST PUSH1 0x1 SWAP2 POP POP PUSH2 0x89B JUMP JUMPDEST PUSH1 0xFF DUP5 GT ISZERO PUSH2 0x81F JUMPI PUSH2 0x81E PUSH2 0x746 JUMP JUMPDEST JUMPDEST DUP4 PUSH1 0x2 EXP SWAP2 POP DUP5 DUP3 GT ISZERO PUSH2 0x836 JUMPI PUSH2 0x835 PUSH2 0x746 JUMP JUMPDEST JUMPDEST POP PUSH2 0x89B JUMP JUMPDEST POP PUSH1 0x20 DUP4 LT PUSH2 0x133 DUP4 LT AND PUSH1 0x4E DUP5 LT PUSH1 0xB DUP5 LT AND OR ISZERO PUSH2 0x871 JUMPI DUP3 DUP3 EXP SWAP1 POP DUP4 DUP2 GT ISZERO PUSH2 0x86C JUMPI PUSH2 0x86B PUSH2 0x746 JUMP JUMPDEST JUMPDEST PUSH2 0x89B JUMP JUMPDEST PUSH2 0x87E DUP5 DUP5 DUP5 PUSH1 0x1 PUSH2 0x77F JUMP JUMPDEST SWAP3 POP SWAP1 POP DUP2 DUP5 DIV DUP2 GT ISZERO PUSH2 0x895 JUMPI PUSH2 0x894 PUSH2 0x746 JUMP JUMPDEST JUMPDEST DUP2 DUP2 MUL SWAP1 POP JUMPDEST SWAP4 SWAP3 POP POP POP JUMP JUMPDEST PUSH0 PUSH2 0x8AC DUP3 PUSH2 0x3B5 JUMP JUMPDEST SWAP2 POP PUSH2 0x8B7 DUP4 PUSH2 0x3B5 JUMP JUMPDEST SWAP3 POP PUSH2 0x8E4 PUSH32 0xFFFFFFFFFFFFFFFFFFFFFFFFFFFFFFFFFFFFFFFFFFFFFFFFFFFFFFFFFFFFFFFF DUP5 DUP5 PUSH2 0x7D1 JUMP JUMPDEST SWAP1 POP SWAP3 SWAP2 POP POP JUMP JUMPDEST PUSH0 PUSH2 0x8F6 DUP3 PUSH2 0x3B5 JUMP JUMPDEST SWAP2 POP PUSH2 0x901 DUP4 PUSH2 0x3B5 JUMP JUMPDEST SWAP3 POP DUP3 DUP3 MUL PUSH2 0x90F DUP2 PUSH2 0x3B5 JUMP JUMPDEST SWAP2 POP DUP3 DUP3 DIV DUP5 EQ DUP4 ISZERO OR PUSH2 0x926 JUMPI PUSH2 0x925 PUSH2 0x746 JUMP JUMPDEST JUMPDEST POP SWAP3 SWAP2 POP POP JUMP JUMPDEST PUSH0 DUP3 DUP3 MSTORE PUSH1 0x20 DUP3 ADD SWAP1 POP SWAP3 SWAP2 POP POP JUMP JUMPDEST PUSH32 0x496E76616C696420616464726573730000000000000000000000000000000000 PUSH0 DUP3 ADD MSTORE POP JUMP JUMPDEST PUSH0 PUSH2 0x971 PUSH1 0xF DUP4 PUSH2 0x92D JUMP JUMPDEST SWAP2 POP PUSH2 0x97C DUP3 PUSH2 0x93D JUMP JUMPDEST PUSH1 0x20 DUP3 ADD SWAP1 POP SWAP2 SWAP1 POP JUMP JUMPDEST PUSH0 PUSH1 0x20 DUP3 ADD SWAP1 POP DUP2 DUP2 SUB PUSH0 DUP4 ADD MSTORE PUSH2 0x99E DUP2 PUSH2 0x965 JUMP JUMPDEST SWAP1 POP SWAP2 SWAP1 POP JUMP JUMPDEST PUSH0 PUSH2 0x9AF DUP3 PUSH2 0x3B5 JUMP JUMPDEST SWAP2 POP PUSH2 0x9BA DUP4 PUSH2 0x3B5 JUMP JUMPDEST SWAP3 POP DUP3 DUP3 ADD SWAP1 POP DUP1 DUP3 GT ISZERO PUSH2 0x9D2 JUMPI PUSH2 0x9D1 PUSH2 0x746 JUMP JUMPDEST JUMPDEST SWAP3 SWAP2 POP POP JUMP JUMPDEST PUSH2 0x9E1 DUP2 PUSH2 0x3B5 JUMP JUMPDEST DUP3 MSTORE POP POP JUMP JUMPDEST PUSH0 PUSH1 0x20 DUP3 ADD SWAP1 POP PUSH2 0x9FA PUSH0 DUP4 ADD DUP5 PUSH2 0x9D8 JUMP JUMPDEST SWAP3 SWAP2 POP POP JUMP JUMPDEST PUSH1 0x80 MLOAD PUSH2 0x1AB6 PUSH2 0xA15 PUSH0 CODECOPY PUSH0 POP POP PUSH2 0x1AB6 PUSH0 RETURN INVALID PUSH1 0x80 PUSH1 0x40 MSTORE CALLVALUE DUP1 ISZERO PUSH2 0xF JUMPI PUSH0 PUSH0 REVERT JUMPDEST POP PUSH1 0x4 CALLDATASIZE LT PUSH2 0xE8 JUMPI PUSH0 CALLDATALOAD PUSH1 0xE0 SHR DUP1 PUSH4 0x70A08231 GT PUSH2 0x8A JUMPI DUP1 PUSH4 0x95D89B41 GT PUSH2 0x64 JUMPI DUP1 PUSH4 0x95D89B41 EQ PUSH2 0x24A JUMPI DUP1 PUSH4 0xA9059CBB EQ PUSH2 0x268 JUMPI DUP1 PUSH4 0xC62B3BEA EQ PUSH2 0x298 JUMPI DUP1 PUSH4 0xDD62ED3E EQ PUSH2 0x2B4 JUMPI PUSH2 0xE8 JUMP JUMPDEST DUP1 PUSH4 0x70A08231 EQ PUSH2 0x1DE JUMPI DUP1 PUSH4 0x72DD529B EQ PUSH2 0x20E JUMPI DUP1 PUSH4 0x8DA5CB5B EQ PUSH2 0x22C JUMPI PUSH2 0xE8 JUMP JUMPDEST DUP1 PUSH4 0x313CE567 GT PUSH2 0xC6 JUMPI DUP1 PUSH4 0x313CE567 EQ PUSH2 0x16A JUMPI DUP1 PUSH4 0x40C10F19 EQ PUSH2 0x188 JUMPI DUP1 PUSH4 0x42966C68 EQ PUSH2 0x1A4 JUMPI DUP1 PUSH4 0x5C975ABB EQ PUSH2 0x1C0 JUMPI PUSH2 0xE8 JUMP JUMPDEST DUP1 PUSH4 0x6FDDE03 EQ PUSH2 0xEC JUMPI DUP1 PUSH4 0x95EA7B3 EQ PUSH2 0x10A JUMPI DUP1 PUSH4 0x23B872DD EQ PUSH2 0x13A JUMPI JUMPDEST PUSH0 PUSH0 REVERT JUMPDEST PUSH2 0xF4 PUSH2 0x2E4 JUMP JUMPDEST PUSH1 0x40 MLOAD PUSH2 0x101 SWAP2 SWAP1 PUSH2 0x113C JUMP JUMPDEST PUSH1 0x40 MLOAD DUP1 SWAP2 SUB SWAP1 RETURN JUMPDEST PUSH2 0x124 PUSH1 0x4 DUP1 CALLDATASIZE SUB DUP2 ADD SWAP1 PUSH2 0x11F SWAP2 SWAP1 PUSH2 0x11ED JUMP JUMPDEST PUSH2 0x36F JUMP JUMPDEST PUSH1 0x40 MLOAD PUSH2 0x131 SWAP2 SWAP1 PUSH2 0x1245 JUMP JUMPDEST PUSH1 0x40 MLOAD DUP1 SWAP2 SUB SWAP1 RETURN JUMPDEST PUSH2 0x154 PUSH1 0x4 DUP1 CALLDATASIZE SUB DUP2 ADD SWAP1 PUSH2 0x14F SWAP2 SWAP1 PUSH2 0x125E JUMP JUMPDEST PUSH2 0x385 JUMP JUMPDEST PUSH1 0x40 MLOAD PUSH2 0x161 SWAP2 SWAP1 PUSH2 0x1245 JUMP JUMPDEST PUSH1 0x40 MLOAD DUP1 SWAP2 SUB SWAP1 RETURN JUMPDEST PUSH2 0x172 PUSH2 0x4E5 JUMP JUMPDEST PUSH1 0x40 MLOAD PUSH2 0x17F SWAP2 SWAP1 PUSH2 0x12C9 JUMP JUMPDEST PUSH1 0x40 MLOAD DUP1 SWAP2 SUB SWAP1 RETURN JUMPDEST PUSH2 0x1A2 PUSH1 0x4 DUP1 CALLDATASIZE SUB DUP2 ADD SWAP1 PUSH2 0x19D SWAP2 SWAP1 PUSH2 0x11ED JUMP JUMPDEST PUSH2 0x4F7 JUMP JUMPDEST STOP JUMPDEST PUSH2 0x1BE PUSH1 0x4 DUP1 CALLDATASIZE SUB DUP2 ADD SWAP1 PUSH2 0x1B9 SWAP2 SWAP1 PUSH2 0x12E2 JUMP JUMPDEST PUSH2 0x5BC JUMP JUMPDEST STOP JUMPDEST PUSH2 0x1C8 PUSH2 0x649 JUMP JUMPDEST PUSH1 0x40 MLOAD PUSH2 0x1D5 SWAP2 SWAP1 PUSH2 0x1245 JUMP JUMPDEST PUSH1 0x40 MLOAD DUP1 SWAP2 SUB SWAP1 RETURN JUMPDEST PUSH2 0x1F8 PUSH1 0x4 DUP1 CALLDATASIZE SUB DUP2 ADD SWAP1 PUSH2 0x1F3 SWAP2 SWAP1 PUSH2 0x130D JUMP JUMPDEST PUSH2 0x65C JUMP JUMPDEST PUSH1 0x40 MLOAD PUSH2 0x205 SWAP2 SWAP1 PUSH2 0x1347 JUMP JUMPDEST PUSH1 0x40 MLOAD DUP1 SWAP2 SUB SWAP1 RETURN JUMPDEST PUSH2 0x216 PUSH2 0x6A2 JUMP JUMPDEST PUSH1 0x40 MLOAD PUSH2 0x223 SWAP2 SWAP1 PUSH2 0x1347 JUMP JUMPDEST PUSH1 0x40 MLOAD DUP1 SWAP2 SUB SWAP1 RETURN JUMPDEST PUSH2 0x234 PUSH2 0x6AB JUMP JUMPDEST PUSH1 0x40 MLOAD PUSH2 0x241 SWAP2 SWAP1 PUSH2 0x136F JUMP JUMPDEST PUSH1 0x40 MLOAD DUP1 SWAP2 SUB SWAP1 RETURN JUMPDEST PUSH2 0x252 PUSH2 0x6D0 JUMP JUMPDEST PUSH1 0x40 MLOAD PUSH2 0x25F SWAP2 SWAP1 PUSH2 0x113C JUMP JUMPDEST PUSH1 0x40 MLOAD DUP1 SWAP2 SUB SWAP1 RETURN JUMPDEST PUSH2 0x282 PUSH1 0x4 DUP1 CALLDATASIZE SUB DUP2 ADD SWAP1 PUSH2 0x27D SWAP2 SWAP1 PUSH2 0x11ED JUMP JUMPDEST PUSH2 0x75C JUMP JUMPDEST PUSH1 0x40 MLOAD PUSH2 0x28F SWAP2 SWAP1 PUSH2 0x1245 JUMP JUMPDEST PUSH1 0x40 MLOAD DUP1 SWAP2 SUB SWAP1 RETURN JUMPDEST PUSH2 0x2B2 PUSH1 0x4 DUP1 CALLDATASIZE SUB DUP2 ADD SWAP1 PUSH2 0x2AD SWAP2 SWAP1 PUSH2 0x11ED JUMP JUMPDEST PUSH2 0x772 JUMP JUMPDEST STOP JUMPDEST PUSH2 0x2CE PUSH1 0x4 DUP1 CALLDATASIZE SUB DUP2 ADD SWAP1 PUSH2 0x2C9 SWAP2 SWAP1 PUSH2 0x1388 JUMP JUMPDEST PUSH2 0x8C9 JUMP JUMPDEST PUSH1 0x40 MLOAD PUSH2 0x2DB SWAP2 SWAP1 PUSH2 0x1347 JUMP JUMPDEST PUSH1 0x40 MLOAD DUP1 SWAP2 SUB SWAP1 RETURN JUMPDEST PUSH0 DUP1 SLOAD PUSH2 0x2F0 SWAP1 PUSH2 0x13F3 JUMP JUMPDEST DUP1 PUSH1 0x1F ADD PUSH1 0x20 DUP1 SWAP2 DIV MUL PUSH1 0x20 ADD PUSH1 0x40 MLOAD SWAP1 DUP2 ADD PUSH1 0x40 MSTORE DUP1 SWAP3 SWAP2 SWAP1 DUP2 DUP2 MSTORE PUSH1 0x20 ADD DUP3 DUP1 SLOAD PUSH2 0x31C SWAP1 PUSH2 0x13F3 JUMP JUMPDEST DUP1 ISZERO PUSH2 0x367 JUMPI DUP1 PUSH1 0x1F LT PUSH2 0x33E JUMPI PUSH2 0x100 DUP1 DUP4 SLOAD DIV MUL DUP4 MSTORE SWAP2 PUSH1 0x20 ADD SWAP2 PUSH2 0x367 JUMP JUMPDEST DUP3 ADD SWAP2 SWAP1 PUSH0 MSTORE PUSH1 0x20 PUSH0 KECCAK256 SWAP1 JUMPDEST DUP2 SLOAD DUP2 MSTORE SWAP1 PUSH1 0x1 ADD SWAP1 PUSH1 0x20 ADD DUP1 DUP4 GT PUSH2 0x34A JUMPI DUP3 SWAP1 SUB PUSH1 0x1F AND DUP3 ADD SWAP2 JUMPDEST POP POP POP POP POP DUP2 JUMP JUMPDEST PUSH0 PUSH2 0x37B CALLER DUP5 DUP5 PUSH2 0x94B JUMP JUMPDEST PUSH1 0x1 SWAP1 POP SWAP3 SWAP2 POP POP JUMP JUMPDEST PUSH0 DUP2 PUSH1 0x6 PUSH0 DUP7 PUSH20 0xFFFFFFFFFFFFFFFFFFFFFFFFFFFFFFFFFFFFFFFF AND PUSH20 0xFFFFFFFFFFFFFFFFFFFFFFFFFFFFFFFFFFFFFFFF AND DUP2 MSTORE PUSH1 0x20 ADD SWAP1 DUP2 MSTORE PUSH1 0x20 ADD PUSH0 KECCAK256 PUSH0 CALLER PUSH20 0xFFFFFFFFFFFFFFFFFFFFFFFFFFFFFFFFFFFFFFFF AND PUSH20 0xFFFFFFFFFFFFFFFFFFFFFFFFFFFFFFFFFFFFFFFF AND DUP2 MSTORE PUSH1 0x20 ADD SWAP1 DUP2 MSTORE PUSH1 0x20 ADD PUSH0 KECCAK256 SLOAD LT ISZERO PUSH2 0x441 JUMPI PUSH1 0x40 MLOAD PUSH32 0x8C379A000000000000000000000000000000000000000000000000000000000 DUP2 MSTORE PUSH1 0x4 ADD PUSH2 0x438 SWAP1 PUSH2 0x146D JUMP JUMPDEST PUSH1 0x40 MLOAD DUP1 SWAP2 SUB SWAP1 REVERT JUMPDEST DUP2 PUSH1 0x6 PUSH0 DUP7 PUSH20 0xFFFFFFFFFFFFFFFFFFFFFFFFFFFFFFFFFFFFFFFF AND PUSH20 0xFFFFFFFFFFFFFFFFFFFFFFFFFFFFFFFFFFFFFFFF AND DUP2 MSTORE PUSH1 0x20 ADD SWAP1 DUP2 MSTORE PUSH1 0x20 ADD PUSH0 KECCAK256 PUSH0 CALLER PUSH20 0xFFFFFFFFFFFFFFFFFFFFFFFFFFFFFFFFFFFFFFFF AND PUSH20 0xFFFFFFFFFFFFFFFFFFFFFFFFFFFFFFFFFFFFFFFF AND DUP2 MSTORE PUSH1 0x20 ADD SWAP1 DUP2 MSTORE PUSH1 0x20 ADD PUSH0 KECCAK256 PUSH0 DUP3 DUP3 SLOAD PUSH2 0x4C8 SWAP2 SWAP1 PUSH2 0x14B8 JUMP JUMPDEST SWAP3 POP POP DUP2 SWAP1 SSTORE POP PUSH2 0x4DA DUP5 DUP5 DUP5 PUSH2 0xB0E JUMP JUMPDEST PUSH1 0x1 SWAP1 POP SWAP4 SWAP3 POP POP POP JUMP JUMPDEST PUSH1 0x2 PUSH0 SWAP1 SLOAD SWAP1 PUSH2 0x100 EXP SWAP1 DIV PUSH1 0xFF AND DUP2 JUMP JUMPDEST PUSH1 0x4 PUSH0 SWAP1 SLOAD SWAP1 PUSH2 0x100 EXP SWAP1 DIV PUSH20 0xFFFFFFFFFFFFFFFFFFFFFFFFFFFFFFFFFFFFFFFF AND PUSH20 0xFFFFFFFFFFFFFFFFFFFFFFFFFFFFFFFFFFFFFFFF AND CALLER PUSH20 0xFFFFFFFFFFFFFFFFFFFFFFFFFFFFFFFFFFFFFFFF AND EQ PUSH2 0x586 JUMPI PUSH1 0x40 MLOAD PUSH32 0x8C379A000000000000000000000000000000000000000000000000000000000 DUP2 MSTORE PUSH1 0x4 ADD PUSH2 0x57D SWAP1 PUSH2 0x1535 JUMP JUMPDEST PUSH1 0x40 MLOAD DUP1 SWAP2 SUB SWAP1 REVERT JUMPDEST PUSH2 0x5B8 DUP3 PUSH1 0x2 PUSH0 SWAP1 SLOAD SWAP1 PUSH2 0x100 EXP SWAP1 DIV PUSH1 0xFF AND PUSH1 0xFF AND PUSH1 0xA PUSH2 0x5A8 SWAP2 SWAP1 PUSH2 0x1682 JUMP JUMPDEST DUP4 PUSH2 0x5B3 SWAP2 SWAP1 PUSH2 0x16CC JUMP JUMPDEST PUSH2 0xD7A JUMP JUMPDEST POP POP JUMP JUMPDEST DUP1 PUSH1 0x5 PUSH0 CALLER PUSH20 0xFFFFFFFFFFFFFFFFFFFFFFFFFFFFFFFFFFFFFFFF AND PUSH20 0xFFFFFFFFFFFFFFFFFFFFFFFFFFFFFFFFFFFFFFFF AND DUP2 MSTORE PUSH1 0x20 ADD SWAP1 DUP2 MSTORE PUSH1 0x20 ADD PUSH0 KECCAK256 SLOAD LT ISZERO PUSH2 0x63C JUMPI PUSH1 0x40 MLOAD PUSH32 0x8C379A000000000000000000000000000000000000000000000000000000000 DUP2 MSTORE PUSH1 0x4 ADD PUSH2 0x633 SWAP1 PUSH2 0x1757 JUMP JUMPDEST PUSH1 0x40 MLOAD DUP1 SWAP2 SUB SWAP1 REVERT JUMPDEST PUSH2 0x646 CALLER DUP3 PUSH2 0xEBC JUMP JUMPDEST POP JUMP JUMPDEST PUSH1 0x4 PUSH1 0x14 SWAP1 SLOAD SWAP1 PUSH2 0x100 EXP SWAP1 DIV PUSH1 0xFF AND DUP2 JUMP JUMPDEST PUSH0 PUSH1 0x5 PUSH0 DUP4 PUSH20 0xFFFFFFFFFFFFFFFFFFFFFFFFFFFFFFFFFFFFFFFF AND PUSH20 0xFFFFFFFFFFFFFFFFFFFFFFFFFFFFFFFFFFFFFFFF AND DUP2 MSTORE PUSH1 0x20 ADD SWAP1 DUP2 MSTORE PUSH1 0x20 ADD PUSH0 KECCAK256 SLOAD SWAP1 POP SWAP2 SWAP1 POP JUMP JUMPDEST PUSH0 PUSH1 0x3 SLOAD SWAP1 POP SWAP1 JUMP JUMPDEST PUSH1 0x4 PUSH0 SWAP1 SLOAD SWAP1 PUSH2 0x100 EXP SWAP1 DIV PUSH20 0xFFFFFFFFFFFFFFFFFFFFFFFFFFFFFFFFFFFFFFFF AND DUP2 JUMP JUMPDEST PUSH1 0x1 DUP1 SLOAD PUSH2 0x6DD SWAP1 PUSH2 0x13F3 JUMP JUMPDEST DUP1 PUSH1 0x1F ADD PUSH1 0x20 DUP1 SWAP2 DIV MUL PUSH1 0x20 ADD PUSH1 0x40 MLOAD SWAP1 DUP2 ADD PUSH1 0x40 MSTORE DUP1 SWAP3 SWAP2 SWAP1 DUP2 DUP2 MSTORE PUSH1 0x20 ADD DUP3 DUP1 SLOAD PUSH2 0x709 SWAP1 PUSH2 0x13F3 JUMP JUMPDEST DUP1 ISZERO PUSH2 0x754 JUMPI DUP1 PUSH1 0x1F LT PUSH2 0x72B JUMPI PUSH2 0x100 DUP1 DUP4 SLOAD DIV MUL DUP4 MSTORE SWAP2 PUSH1 0x20 ADD SWAP2 PUSH2 0x754 JUMP JUMPDEST DUP3 ADD SWAP2 SWAP1 PUSH0 MSTORE PUSH1 0x20 PUSH0 KECCAK256 SWAP1 JUMPDEST DUP2 SLOAD DUP2 MSTORE SWAP1 PUSH1 0x1 ADD SWAP1 PUSH1 0x20 ADD DUP1 DUP4 GT PUSH2 0x737 JUMPI DUP3 SWAP1 SUB PUSH1 0x1F AND DUP3 ADD SWAP2 JUMPDEST POP POP POP POP POP DUP2 JUMP JUMPDEST PUSH0 PUSH2 0x768 CALLER DUP5 DUP5 PUSH2 0xB0E JUMP JUMPDEST PUSH1 0x1 SWAP1 POP SWAP3 SWAP2 POP POP JUMP JUMPDEST DUP1 PUSH1 0x6 PUSH0 DUP5 PUSH20 0xFFFFFFFFFFFFFFFFFFFFFFFFFFFFFFFFFFFFFFFF AND PUSH20 0xFFFFFFFFFFFFFFFFFFFFFFFFFFFFFFFFFFFFFFFF AND DUP2 MSTORE PUSH1 0x20 ADD SWAP1 DUP2 MSTORE PUSH1 0x20 ADD PUSH0 KECCAK256 PUSH0 CALLER PUSH20 0xFFFFFFFFFFFFFFFFFFFFFFFFFFFFFFFFFFFFFFFF AND PUSH20 0xFFFFFFFFFFFFFFFFFFFFFFFFFFFFFFFFFFFFFFFF AND DUP2 MSTORE PUSH1 0x20 ADD SWAP1 DUP2 MSTORE PUSH1 0x20 ADD PUSH0 KECCAK256 SLOAD LT ISZERO PUSH2 0x82D JUMPI PUSH1 0x40 MLOAD PUSH32 0x8C379A000000000000000000000000000000000000000000000000000000000 DUP2 MSTORE PUSH1 0x4 ADD PUSH2 0x824 SWAP1 PUSH2 0x17BF JUMP JUMPDEST PUSH1 0x40 MLOAD DUP1 SWAP2 SUB SWAP1 REVERT JUMPDEST DUP1 PUSH1 0x6 PUSH0 DUP5 PUSH20 0xFFFFFFFFFFFFFFFFFFFFFFFFFFFFFFFFFFFFFFFF AND PUSH20 0xFFFFFFFFFFFFFFFFFFFFFFFFFFFFFFFFFFFFFFFF AND DUP2 MSTORE PUSH1 0x20 ADD SWAP1 DUP2 MSTORE PUSH1 0x20 ADD PUSH0 KECCAK256 PUSH0 CALLER PUSH20 0xFFFFFFFFFFFFFFFFFFFFFFFFFFFFFFFFFFFFFFFF AND PUSH20 0xFFFFFFFFFFFFFFFFFFFFFFFFFFFFFFFFFFFFFFFF AND DUP2 MSTORE PUSH1 0x20 ADD SWAP1 DUP2 MSTORE PUSH1 0x20 ADD PUSH0 KECCAK256 PUSH0 DUP3 DUP3 SLOAD PUSH2 0x8B4 SWAP2 SWAP1 PUSH2 0x14B8 JUMP JUMPDEST SWAP3 POP POP DUP2 SWAP1 SSTORE POP PUSH2 0x8C5 DUP3 DUP3 PUSH2 0xEBC JUMP JUMPDEST POP POP JUMP JUMPDEST PUSH0 PUSH1 0x6 PUSH0 DUP5 PUSH20 0xFFFFFFFFFFFFFFFFFFFFFFFFFFFFFFFFFFFFFFFF AND PUSH20 0xFFFFFFFFFFFFFFFFFFFFFFFFFFFFFFFFFFFFFFFF AND DUP2 MSTORE PUSH1 0x20 ADD SWAP1 DUP2 MSTORE PUSH1 0x20 ADD PUSH0 KECCAK256 PUSH0 DUP4 PUSH20 0xFFFFFFFFFFFFFFFFFFFFFFFFFFFFFFFFFFFFFFFF AND PUSH20 0xFFFFFFFFFFFFFFFFFFFFFFFFFFFFFFFFFFFFFFFF AND DUP2 MSTORE PUSH1 0x20 ADD SWAP1 DUP2 MSTORE PUSH1 0x20 ADD PUSH0 KECCAK256 SLOAD SWAP1 POP SWAP3 SWAP2 POP POP JUMP JUMPDEST PUSH0 PUSH20 0xFFFFFFFFFFFFFFFFFFFFFFFFFFFFFFFFFFFFFFFF AND DUP4 PUSH20 0xFFFFFFFFFFFFFFFFFFFFFFFFFFFFFFFFFFFFFFFF AND SUB PUSH2 0x9B9 JUMPI PUSH1 0x40 MLOAD PUSH32 0x8C379A000000000000000000000000000000000000000000000000000000000 DUP2 MSTORE PUSH1 0x4 ADD PUSH2 0x9B0 SWAP1 PUSH2 0x1827 JUMP JUMPDEST PUSH1 0x40 MLOAD DUP1 SWAP2 SUB SWAP1 REVERT JUMPDEST PUSH0 PUSH20 0xFFFFFFFFFFFFFFFFFFFFFFFFFFFFFFFFFFFFFFFF AND DUP3 PUSH20 0xFFFFFFFFFFFFFFFFFFFFFFFFFFFFFFFFFFFFFFFF AND SUB PUSH2 0xA27 JUMPI PUSH1 0x40 MLOAD PUSH32 0x8C379A000000000000000000000000000000000000000000000000000000000 DUP2 MSTORE PUSH1 0x4 ADD PUSH2 0xA1E SWAP1 PUSH2 0x188F JUMP JUMPDEST PUSH1 0x40 MLOAD DUP1 SWAP2 SUB SWAP1 REVERT JUMPDEST DUP1 PUSH1 0x6 PUSH0 DUP6 PUSH20 0xFFFFFFFFFFFFFFFFFFFFFFFFFFFFFFFFFFFFFFFF AND PUSH20 0xFFFFFFFFFFFFFFFFFFFFFFFFFFFFFFFFFFFFFFFF AND DUP2 MSTORE PUSH1 0x20 ADD SWAP1 DUP2 MSTORE PUSH1 0x20 ADD PUSH0 KECCAK256 PUSH0 DUP5 PUSH20 0xFFFFFFFFFFFFFFFFFFFFFFFFFFFFFFFFFFFFFFFF AND PUSH20 0xFFFFFFFFFFFFFFFFFFFFFFFFFFFFFFFFFFFFFFFF AND DUP2 MSTORE PUSH1 0x20 ADD SWAP1 DUP2 MSTORE PUSH1 0x20 ADD PUSH0 KECCAK256 DUP2 SWAP1 SSTORE POP DUP2 PUSH20 0xFFFFFFFFFFFFFFFFFFFFFFFFFFFFFFFFFFFFFFFF AND DUP4 PUSH20 0xFFFFFFFFFFFFFFFFFFFFFFFFFFFFFFFFFFFFFFFF AND PUSH32 0x8C5BE1E5EBEC7D5BD14F71427D1E84F3DD0314C0F7B2291E5B200AC8C7C3B925 DUP4 PUSH1 0x40 MLOAD PUSH2 0xB01 SWAP2 SWAP1 PUSH2 0x1347 JUMP JUMPDEST PUSH1 0x40 MLOAD DUP1 SWAP2 SUB SWAP1 LOG3 POP POP POP JUMP JUMPDEST PUSH0 PUSH20 0xFFFFFFFFFFFFFFFFFFFFFFFFFFFFFFFFFFFFFFFF AND DUP4 PUSH20 0xFFFFFFFFFFFFFFFFFFFFFFFFFFFFFFFFFFFFFFFF AND SUB PUSH2 0xB7C JUMPI PUSH1 0x40 MLOAD PUSH32 0x8C379A000000000000000000000000000000000000000000000000000000000 DUP2 MSTORE PUSH1 0x4 ADD PUSH2 0xB73 SWAP1 PUSH2 0x18F7 JUMP JUMPDEST PUSH1 0x40 MLOAD DUP1 SWAP2 SUB SWAP1 REVERT JUMPDEST PUSH0 PUSH20 0xFFFFFFFFFFFFFFFFFFFFFFFFFFFFFFFFFFFFFFFF AND DUP3 PUSH20 0xFFFFFFFFFFFFFFFFFFFFFFFFFFFFFFFFFFFFFFFF AND SUB PUSH2 0xBEA JUMPI PUSH1 0x40 MLOAD PUSH32 0x8C379A000000000000000000000000000000000000000000000000000000000 DUP2 MSTORE PUSH1 0x4 ADD PUSH2 0xBE1 SWAP1 PUSH2 0x195F JUMP JUMPDEST PUSH1 0x40 MLOAD DUP1 SWAP2 SUB SWAP1 REVERT JUMPDEST DUP1 PUSH1 0x5 PUSH0 DUP6 PUSH20 0xFFFFFFFFFFFFFFFFFFFFFFFFFFFFFFFFFFFFFFFF AND PUSH20 0xFFFFFFFFFFFFFFFFFFFFFFFFFFFFFFFFFFFFFFFF AND DUP2 MSTORE PUSH1 0x20 ADD SWAP1 DUP2 MSTORE PUSH1 0x20 ADD PUSH0 KECCAK256 SLOAD LT ISZERO PUSH2 0xC6A JUMPI PUSH1 0x40 MLOAD PUSH32 0x8C379A000000000000000000000000000000000000000000000000000000000 DUP2 MSTORE PUSH1 0x4 ADD PUSH2 0xC61 SWAP1 PUSH2 0x19C7 JUMP JUMPDEST PUSH1 0x40 MLOAD DUP1 SWAP2 SUB SWAP1 REVERT JUMPDEST DUP1 PUSH1 0x5 PUSH0 DUP6 PUSH20 0xFFFFFFFFFFFFFFFFFFFFFFFFFFFFFFFFFFFFFFFF AND PUSH20 0xFFFFFFFFFFFFFFFFFFFFFFFFFFFFFFFFFFFFFFFF AND DUP2 MSTORE PUSH1 0x20 ADD SWAP1 DUP2 MSTORE PUSH1 0x20 ADD PUSH0 KECCAK256 PUSH0 DUP3 DUP3 SLOAD PUSH2 0xCB6 SWAP2 SWAP1 PUSH2 0x14B8 JUMP JUMPDEST SWAP3 POP POP DUP2 SWAP1 SSTORE POP DUP1 PUSH1 0x5 PUSH0 DUP5 PUSH20 0xFFFFFFFFFFFFFFFFFFFFFFFFFFFFFFFFFFFFFFFF AND PUSH20 0xFFFFFFFFFFFFFFFFFFFFFFFFFFFFFFFFFFFFFFFF AND DUP2 MSTORE PUSH1 0x20 ADD SWAP1 DUP2 MSTORE PUSH1 0x20 ADD PUSH0 KECCAK256 PUSH0 DUP3 DUP3 SLOAD PUSH2 0xD09 SWAP2 SWAP1 PUSH2 0x19E5 JUMP JUMPDEST SWAP3 POP POP DUP2 SWAP1 SSTORE POP DUP2 PUSH20 0xFFFFFFFFFFFFFFFFFFFFFFFFFFFFFFFFFFFFFFFF AND DUP4 PUSH20 0xFFFFFFFFFFFFFFFFFFFFFFFFFFFFFFFFFFFFFFFF AND PUSH32 0xDDF252AD1BE2C89B69C2B068FC378DAA952BA7F163C4A11628F55A4DF523B3EF DUP4 PUSH1 0x40 MLOAD PUSH2 0xD6D SWAP2 SWAP1 PUSH2 0x1347 JUMP JUMPDEST PUSH1 0x40 MLOAD DUP1 SWAP2 SUB SWAP1 LOG3 POP POP POP JUMP JUMPDEST PUSH0 PUSH20 0xFFFFFFFFFFFFFFFFFFFFFFFFFFFFFFFFFFFFFFFF AND DUP3 PUSH20 0xFFFFFFFFFFFFFFFFFFFFFFFFFFFFFFFFFFFFFFFF AND SUB PUSH2 0xDE8 JUMPI PUSH1 0x40 MLOAD PUSH32 0x8C379A000000000000000000000000000000000000000000000000000000000 DUP2 MSTORE PUSH1 0x4 ADD PUSH2 0xDDF SWAP1 PUSH2 0x1A62 JUMP JUMPDEST PUSH1 0x40 MLOAD DUP1 SWAP2 SUB SWAP1 REVERT JUMPDEST DUP1 PUSH1 0x3 PUSH0 DUP3 DUP3 SLOAD PUSH2 0xDF9 SWAP2 SWAP1 PUSH2 0x19E5 JUMP JUMPDEST SWAP3 POP POP DUP2 SWAP1 SSTORE POP DUP1 PUSH1 0x5 PUSH0 DUP5 PUSH20 0xFFFFFFFFFFFFFFFFFFFFFFFFFFFFFFFFFFFFFFFF AND PUSH20 0xFFFFFFFFFFFFFFFFFFFFFFFFFFFFFFFFFFFFFFFF AND DUP2 MSTORE PUSH1 0x20 ADD SWAP1 DUP2 MSTORE PUSH1 0x20 ADD PUSH0 KECCAK256 PUSH0 DUP3 DUP3 SLOAD PUSH2 0xE4C SWAP2 SWAP1 PUSH2 0x19E5 JUMP JUMPDEST SWAP3 POP POP DUP2 SWAP1 SSTORE POP DUP2 PUSH20 0xFFFFFFFFFFFFFFFFFFFFFFFFFFFFFFFFFFFFFFFF AND PUSH0 PUSH20 0xFFFFFFFFFFFFFFFFFFFFFFFFFFFFFFFFFFFFFFFF AND PUSH32 0xDDF252AD1BE2C89B69C2B068FC378DAA952BA7F163C4A11628F55A4DF523B3EF DUP4 PUSH1 0x40 MLOAD PUSH2 0xEB0 SWAP2 SWAP1 PUSH2 0x1347 JUMP JUMPDEST PUSH1 0x40 MLOAD DUP1 SWAP2 SUB SWAP1 LOG3 POP POP JUMP JUMPDEST PUSH0 PUSH20 0xFFFFFFFFFFFFFFFFFFFFFFFFFFFFFFFFFFFFFFFF AND DUP3 PUSH20 0xFFFFFFFFFFFFFFFFFFFFFFFFFFFFFFFFFFFFFFFF AND SUB PUSH2 0xF2A JUMPI PUSH1 0x40 MLOAD PUSH32 0x8C379A000000000000000000000000000000000000000000000000000000000 DUP2 MSTORE PUSH1 0x4 ADD PUSH2 0xF21 SWAP1 PUSH2 0x1A62 JUMP JUMPDEST PUSH1 0x40 MLOAD DUP1 SWAP2 SUB SWAP1 REVERT JUMPDEST DUP1 PUSH1 0x5 PUSH0 DUP5 PUSH20 0xFFFFFFFFFFFFFFFFFFFFFFFFFFFFFFFFFFFFFFFF AND PUSH20 0xFFFFFFFFFFFFFFFFFFFFFFFFFFFFFFFFFFFFFFFF AND DUP2 MSTORE PUSH1 0x20 ADD SWAP1 DUP2 MSTORE PUSH1 0x20 ADD PUSH0 KECCAK256 SLOAD LT ISZERO PUSH2 0xFAA JUMPI PUSH1 0x40 MLOAD PUSH32 0x8C379A000000000000000000000000000000000000000000000000000000000 DUP2 MSTORE PUSH1 0x4 ADD PUSH2 0xFA1 SWAP1 PUSH2 0x19C7 JUMP JUMPDEST PUSH1 0x40 MLOAD DUP1 SWAP2 SUB SWAP1 REVERT JUMPDEST DUP1 PUSH1 0x5 PUSH0 DUP5 PUSH20 0xFFFFFFFFFFFFFFFFFFFFFFFFFFFFFFFFFFFFFFFF AND PUSH20 0xFFFFFFFFFFFFFFFFFFFFFFFFFFFFFFFFFFFFFFFF AND DUP2 MSTORE PUSH1 0x20 ADD SWAP1 DUP2 MSTORE PUSH1 0x20 ADD PUSH0 KECCAK256 PUSH0 DUP3 DUP3 SLOAD PUSH2 0xFF6 SWAP2 SWAP1 PUSH2 0x14B8 JUMP JUMPDEST SWAP3 POP POP DUP2 SWAP1 SSTORE POP DUP1 PUSH1 0x3 PUSH0 DUP3 DUP3 SLOAD PUSH2 0x100E SWAP2 SWAP1 PUSH2 0x14B8 JUMP JUMPDEST SWAP3 POP POP DUP2 SWAP1 SSTORE POP DUP2 PUSH20 0xFFFFFFFFFFFFFFFFFFFFFFFFFFFFFFFFFFFFFFFF AND PUSH32 0xCC16F5DBB4873280815C1EE09DBD06736CFFCC184412CF7A71A0FDB75D397CA5 DUP3 PUSH1 0x40 MLOAD PUSH2 0x105B SWAP2 SWAP1 PUSH2 0x1347 JUMP JUMPDEST PUSH1 0x40 MLOAD DUP1 SWAP2 SUB SWAP1 LOG2 PUSH0 PUSH20 0xFFFFFFFFFFFFFFFFFFFFFFFFFFFFFFFFFFFFFFFF AND DUP3 PUSH20 0xFFFFFFFFFFFFFFFFFFFFFFFFFFFFFFFFFFFFFFFF AND PUSH32 0xDDF252AD1BE2C89B69C2B068FC378DAA952BA7F163C4A11628F55A4DF523B3EF DUP4 PUSH1 0x40 MLOAD PUSH2 0x10C0 SWAP2 SWAP1 PUSH2 0x1347 JUMP JUMPDEST PUSH1 0x40 MLOAD DUP1 SWAP2 SUB SWAP1 LOG3 POP POP JUMP JUMPDEST PUSH0 DUP2 MLOAD SWAP1 POP SWAP2 SWAP1 POP JUMP JUMPDEST PUSH0 DUP3 DUP3 MSTORE PUSH1 0x20 DUP3 ADD SWAP1 POP SWAP3 SWAP2 POP POP JUMP JUMPDEST DUP3 DUP2 DUP4 MCOPY PUSH0 DUP4 DUP4 ADD MSTORE POP POP POP JUMP JUMPDEST PUSH0 PUSH1 0x1F NOT PUSH1 0x1F DUP4 ADD AND SWAP1 POP SWAP2 SWAP1 POP JUMP JUMPDEST PUSH0 PUSH2 0x110E DUP3 PUSH2 0x10CC JUMP JUMPDEST PUSH2 0x1118 DUP2 DUP6 PUSH2 0x10D6 JUMP JUMPDEST SWAP4 POP PUSH2 0x1128 DUP2 DUP6 PUSH1 0x20 DUP7 ADD PUSH2 0x10E6 JUMP JUMPDEST PUSH2 0x1131 DUP2 PUSH2 0x10F4 JUMP JUMPDEST DUP5 ADD SWAP2 POP POP SWAP3 SWAP2 POP POP JUMP JUMPDEST PUSH0 PUSH1 0x20 DUP3 ADD SWAP1 POP DUP2 DUP2 SUB PUSH0 DUP4 ADD MSTORE PUSH2 0x1154 DUP2 DUP5 PUSH2 0x1104 JUMP JUMPDEST SWAP1 POP SWAP3 SWAP2 POP POP JUMP JUMPDEST PUSH0 PUSH0 REVERT JUMPDEST PUSH0 PUSH20 0xFFFFFFFFFFFFFFFFFFFFFFFFFFFFFFFFFFFFFFFF DUP3 AND SWAP1 POP SWAP2 SWAP1 POP JUMP JUMPDEST PUSH0 PUSH2 0x1189 DUP3 PUSH2 0x1160 JUMP JUMPDEST SWAP1 POP SWAP2 SWAP1 POP JUMP JUMPDEST PUSH2 0x1199 DUP2 PUSH2 0x117F JUMP JUMPDEST DUP2 EQ PUSH2 0x11A3 JUMPI PUSH0 PUSH0 REVERT JUMPDEST POP JUMP JUMPDEST PUSH0 DUP2 CALLDATALOAD SWAP1 POP PUSH2 0x11B4 DUP2 PUSH2 0x1190 JUMP JUMPDEST SWAP3 SWAP2 POP POP JUMP JUMPDEST PUSH0 DUP2 SWAP1 POP SWAP2 SWAP1 POP JUMP JUMPDEST PUSH2 0x11CC DUP2 PUSH2 0x11BA JUMP JUMPDEST DUP2 EQ PUSH2 0x11D6 JUMPI PUSH0 PUSH0 REVERT JUMPDEST POP JUMP JUMPDEST PUSH0 DUP2 CALLDATALOAD SWAP1 POP PUSH2 0x11E7 DUP2 PUSH2 0x11C3 JUMP JUMPDEST SWAP3 SWAP2 POP POP JUMP JUMPDEST PUSH0 PUSH0 PUSH1 0x40 DUP4 DUP6 SUB SLT ISZERO PUSH2 0x1203 JUMPI PUSH2 0x1202 PUSH2 0x115C JUMP JUMPDEST JUMPDEST PUSH0 PUSH2 0x1210 DUP6 DUP3 DUP7 ADD PUSH2 0x11A6 JUMP JUMPDEST SWAP3 POP POP PUSH1 0x20 PUSH2 0x1221 DUP6 DUP3 DUP7 ADD PUSH2 0x11D9 JUMP JUMPDEST SWAP2 POP POP SWAP3 POP SWAP3 SWAP1 POP JUMP JUMPDEST PUSH0 DUP2 ISZERO ISZERO SWAP1 POP SWAP2 SWAP1 POP JUMP JUMPDEST PUSH2 0x123F DUP2 PUSH2 0x122B JUMP JUMPDEST DUP3 MSTORE POP POP JUMP JUMPDEST PUSH0 PUSH1 0x20 DUP3 ADD SWAP1 POP PUSH2 0x1258 PUSH0 DUP4 ADD DUP5 PUSH2 0x1236 JUMP JUMPDEST SWAP3 SWAP2 POP POP JUMP JUMPDEST PUSH0 PUSH0 PUSH0 PUSH1 0x60 DUP5 DUP7 SUB SLT ISZERO PUSH2 0x1275 JUMPI PUSH2 0x1274 PUSH2 0x115C JUMP JUMPDEST JUMPDEST PUSH0 PUSH2 0x1282 DUP7 DUP3 DUP8 ADD PUSH2 0x11A6 JUMP JUMPDEST SWAP4 POP POP PUSH1 0x20 PUSH2 0x1293 DUP7 DUP3 DUP8 ADD PUSH2 0x11A6 JUMP JUMPDEST SWAP3 POP POP PUSH1 0x40 PUSH2 0x12A4 DUP7 DUP3 DUP8 ADD PUSH2 0x11D9 JUMP JUMPDEST SWAP2 POP POP SWAP3 POP SWAP3 POP SWAP3 JUMP JUMPDEST PUSH0 PUSH1 0xFF DUP3 AND SWAP1 POP SWAP2 SWAP1 POP JUMP JUMPDEST PUSH2 0x12C3 DUP2 PUSH2 0x12AE JUMP JUMPDEST DUP3 MSTORE POP POP JUMP JUMPDEST PUSH0 PUSH1 0x20 DUP3 ADD SWAP1 POP PUSH2 0x12DC PUSH0 DUP4 ADD DUP5 PUSH2 0x12BA JUMP JUMPDEST SWAP3 SWAP2 POP POP JUMP JUMPDEST PUSH0 PUSH1 0x20 DUP3 DUP5 SUB SLT ISZERO PUSH2 0x12F7 JUMPI PUSH2 0x12F6 PUSH2 0x115C JUMP JUMPDEST JUMPDEST PUSH0 PUSH2 0x1304 DUP5 DUP3 DUP6 ADD PUSH2 0x11D9 JUMP JUMPDEST SWAP2 POP POP SWAP3 SWAP2 POP POP JUMP JUMPDEST PUSH0 PUSH1 0x20 DUP3 DUP5 SUB SLT ISZERO PUSH2 0x1322 JUMPI PUSH2 0x1321 PUSH2 0x115C JUMP JUMPDEST JUMPDEST PUSH0 PUSH2 0x132F DUP5 DUP3 DUP6 ADD PUSH2 0x11A6 JUMP JUMPDEST SWAP2 POP POP SWAP3 SWAP2 POP POP JUMP JUMPDEST PUSH2 0x1341 DUP2 PUSH2 0x11BA JUMP JUMPDEST DUP3 MSTORE POP POP JUMP JUMPDEST PUSH0 PUSH1 0x20 DUP3 ADD SWAP1 POP PUSH2 0x135A PUSH0 DUP4 ADD DUP5 PUSH2 0x1338 JUMP JUMPDEST SWAP3 SWAP2 POP POP JUMP JUMPDEST PUSH2 0x1369 DUP2 PUSH2 0x117F JUMP JUMPDEST DUP3 MSTORE POP POP JUMP JUMPDEST PUSH0 PUSH1 0x20 DUP3 ADD SWAP1 POP PUSH2 0x1382 PUSH0 DUP4 ADD DUP5 PUSH2 0x1360 JUMP JUMPDEST SWAP3 SWAP2 POP POP JUMP JUMPDEST PUSH0 PUSH0 PUSH1 0x40 DUP4 DUP6 SUB SLT ISZERO PUSH2 0x139E JUMPI PUSH2 0x139D PUSH2 0x115C JUMP JUMPDEST JUMPDEST PUSH0 PUSH2 0x13AB DUP6 DUP3 DUP7 ADD PUSH2 0x11A6 JUMP JUMPDEST SWAP3 POP POP PUSH1 0x20 PUSH2 0x13BC DUP6 DUP3 DUP7 ADD PUSH2 0x11A6 JUMP JUMPDEST SWAP2 POP POP SWAP3 POP SWAP3 SWAP1 POP JUMP JUMPDEST PUSH32 0x4E487B7100000000000000000000000000000000000000000000000000000000 PUSH0 MSTORE PUSH1 0x22 PUSH1 0x4 MSTORE PUSH1 0x24 PUSH0 REVERT JUMPDEST PUSH0 PUSH1 0x2 DUP3 DIV SWAP1 POP PUSH1 0x1 DUP3 AND DUP1 PUSH2 0x140A JUMPI PUSH1 0x7F DUP3 AND SWAP2 POP JUMPDEST PUSH1 0x20 DUP3 LT DUP2 SUB PUSH2 0x141D JUMPI PUSH2 0x141C PUSH2 0x13C6 JUMP JUMPDEST JUMPDEST POP SWAP2 SWAP1 POP JUMP JUMPDEST PUSH32 0x45524332303A20696E73756666696369656E7420616C6C6F77616E6365000000 PUSH0 DUP3 ADD MSTORE POP JUMP JUMPDEST PUSH0 PUSH2 0x1457 PUSH1 0x1D DUP4 PUSH2 0x10D6 JUMP JUMPDEST SWAP2 POP PUSH2 0x1462 DUP3 PUSH2 0x1423 JUMP JUMPDEST PUSH1 0x20 DUP3 ADD SWAP1 POP SWAP2 SWAP1 POP JUMP JUMPDEST PUSH0 PUSH1 0x20 DUP3 ADD SWAP1 POP DUP2 DUP2 SUB PUSH0 DUP4 ADD MSTORE PUSH2 0x1484 DUP2 PUSH2 0x144B JUMP JUMPDEST SWAP1 POP SWAP2 SWAP1 POP JUMP JUMPDEST PUSH32 0x4E487B7100000000000000000000000000000000000000000000000000000000 PUSH0 MSTORE PUSH1 0x11 PUSH1 0x4 MSTORE PUSH1 0x24 PUSH0 REVERT JUMPDEST PUSH0 PUSH2 0x14C2 DUP3 PUSH2 0x11BA JUMP JUMPDEST SWAP2 POP PUSH2 0x14CD DUP4 PUSH2 0x11BA JUMP JUMPDEST SWAP3 POP DUP3 DUP3 SUB SWAP1 POP DUP2 DUP2 GT ISZERO PUSH2 0x14E5 JUMPI PUSH2 0x14E4 PUSH2 0x148B JUMP JUMPDEST JUMPDEST SWAP3 SWAP2 POP POP JUMP JUMPDEST PUSH32 0x4E6F7420636F6E7472616374204F776E65720000000000000000000000000000 PUSH0 DUP3 ADD MSTORE POP JUMP JUMPDEST PUSH0 PUSH2 0x151F PUSH1 0x12 DUP4 PUSH2 0x10D6 JUMP JUMPDEST SWAP2 POP PUSH2 0x152A DUP3 PUSH2 0x14EB JUMP JUMPDEST PUSH1 0x20 DUP3 ADD SWAP1 POP SWAP2 SWAP1 POP JUMP JUMPDEST PUSH0 PUSH1 0x20 DUP3 ADD SWAP1 POP DUP2 DUP2 SUB PUSH0 DUP4 ADD MSTORE PUSH2 0x154C DUP2 PUSH2 0x1513 JUMP JUMPDEST SWAP1 POP SWAP2 SWAP1 POP JUMP JUMPDEST PUSH0 DUP2 PUSH1 0x1 SHR SWAP1 POP SWAP2 SWAP1 POP JUMP JUMPDEST PUSH0 PUSH0 DUP3 SWAP2 POP DUP4 SWAP1 POP JUMPDEST PUSH1 0x1 DUP6 GT ISZERO PUSH2 0x15A8 JUMPI DUP1 DUP7 DIV DUP2 GT ISZERO PUSH2 0x1584 JUMPI PUSH2 0x1583 PUSH2 0x148B JUMP JUMPDEST JUMPDEST PUSH1 0x1 DUP6 AND ISZERO PUSH2 0x1593 JUMPI DUP1 DUP3 MUL SWAP2 POP JUMPDEST DUP1 DUP2 MUL SWAP1 POP PUSH2 0x15A1 DUP6 PUSH2 0x1553 JUMP JUMPDEST SWAP5 POP PUSH2 0x1568 JUMP JUMPDEST SWAP5 POP SWAP5 SWAP3 POP POP POP JUMP JUMPDEST PUSH0 DUP3 PUSH2 0x15C0 JUMPI PUSH1 0x1 SWAP1 POP PUSH2 0x167B JUMP JUMPDEST DUP2 PUSH2 0x15CD JUMPI PUSH0 SWAP1 POP PUSH2 0x167B JUMP JUMPDEST DUP2 PUSH1 0x1 DUP2 EQ PUSH2 0x15E3 JUMPI PUSH1 0x2 DUP2 EQ PUSH2 0x15ED JUMPI PUSH2 0x161C JUMP JUMPDEST PUSH1 0x1 SWAP2 POP POP PUSH2 0x167B JUMP JUMPDEST PUSH1 0xFF DUP5 GT ISZERO PUSH2 0x15FF JUMPI PUSH2 0x15FE PUSH2 0x148B JUMP JUMPDEST JUMPDEST DUP4 PUSH1 0x2 EXP SWAP2 POP DUP5 DUP3 GT ISZERO PUSH2 0x1616 JUMPI PUSH2 0x1615 PUSH2 0x148B JUMP JUMPDEST JUMPDEST POP PUSH2 0x167B JUMP JUMPDEST POP PUSH1 0x20 DUP4 LT PUSH2 0x133 DUP4 LT AND PUSH1 0x4E DUP5 LT PUSH1 0xB DUP5 LT AND OR ISZERO PUSH2 0x1651 JUMPI DUP3 DUP3 EXP SWAP1 POP DUP4 DUP2 GT ISZERO PUSH2 0x164C JUMPI PUSH2 0x164B PUSH2 0x148B JUMP JUMPDEST JUMPDEST PUSH2 0x167B JUMP JUMPDEST PUSH2 0x165E DUP5 DUP5 DUP5 PUSH1 0x1 PUSH2 0x155F JUMP JUMPDEST SWAP3 POP SWAP1 POP DUP2 DUP5 DIV DUP2 GT ISZERO PUSH2 0x1675 JUMPI PUSH2 0x1674 PUSH2 0x148B JUMP JUMPDEST JUMPDEST DUP2 DUP2 MUL SWAP1 POP JUMPDEST SWAP4 SWAP3 POP POP POP JUMP JUMPDEST PUSH0 PUSH2 0x168C DUP3 PUSH2 0x11BA JUMP JUMPDEST SWAP2 POP PUSH2 0x1697 DUP4 PUSH2 0x11BA JUMP JUMPDEST SWAP3 POP PUSH2 0x16C4 PUSH32 0xFFFFFFFFFFFFFFFFFFFFFFFFFFFFFFFFFFFFFFFFFFFFFFFFFFFFFFFFFFFFFFFF DUP5 DUP5 PUSH2 0x15B1 JUMP JUMPDEST SWAP1 POP SWAP3 SWAP2 POP POP JUMP JUMPDEST PUSH0 PUSH2 0x16D6 DUP3 PUSH2 0x11BA JUMP JUMPDEST SWAP2 POP PUSH2 0x16E1 DUP4 PUSH2 0x11BA JUMP JUMPDEST SWAP3 POP DUP3 DUP3 MUL PUSH2 0x16EF DUP2 PUSH2 0x11BA JUMP JUMPDEST SWAP2 POP DUP3 DUP3 DIV DUP5 EQ DUP4 ISZERO OR PUSH2 0x1706 JUMPI PUSH2 0x1705 PUSH2 0x148B JUMP JUMPDEST JUMPDEST POP SWAP3 SWAP2 POP POP JUMP JUMPDEST PUSH32 0x496E73756666696369656E742062616C616E636520746F206275726E00000000 PUSH0 DUP3 ADD MSTORE POP JUMP JUMPDEST PUSH0 PUSH2 0x1741 PUSH1 0x1C DUP4 PUSH2 0x10D6 JUMP JUMPDEST SWAP2 POP PUSH2 0x174C DUP3 PUSH2 0x170D JUMP JUMPDEST PUSH1 0x20 DUP3 ADD SWAP1 POP SWAP2 SWAP1 POP JUMP JUMPDEST PUSH0 PUSH1 0x20 DUP3 ADD SWAP1 POP DUP2 DUP2 SUB PUSH0 DUP4 ADD MSTORE PUSH2 0x176E DUP2 PUSH2 0x1735 JUMP JUMPDEST SWAP1 POP SWAP2 SWAP1 POP JUMP JUMPDEST PUSH32 0x416C6C6F77616E63652065786365656465640000000000000000000000000000 PUSH0 DUP3 ADD MSTORE POP JUMP JUMPDEST PUSH0 PUSH2 0x17A9 PUSH1 0x12 DUP4 PUSH2 0x10D6 JUMP JUMPDEST SWAP2 POP PUSH2 0x17B4 DUP3 PUSH2 0x1775 JUMP JUMPDEST PUSH1 0x20 DUP3 ADD SWAP1 POP SWAP2 SWAP1 POP JUMP JUMPDEST PUSH0 PUSH1 0x20 DUP3 ADD SWAP1 POP DUP2 DUP2 SUB PUSH0 DUP4 ADD MSTORE PUSH2 0x17D6 DUP2 PUSH2 0x179D JUMP JUMPDEST SWAP1 POP SWAP2 SWAP1 POP JUMP JUMPDEST PUSH32 0x45524332303A20617070726F76652066726F6D20307830000000000000000000 PUSH0 DUP3 ADD MSTORE POP JUMP JUMPDEST PUSH0 PUSH2 0x1811 PUSH1 0x17 DUP4 PUSH2 0x10D6 JUMP JUMPDEST SWAP2 POP PUSH2 0x181C DUP3 PUSH2 0x17DD JUMP JUMPDEST PUSH1 0x20 DUP3 ADD SWAP1 POP SWAP2 SWAP1 POP JUMP JUMPDEST PUSH0 PUSH1 0x20 DUP3 ADD SWAP1 POP DUP2 DUP2 SUB PUSH0 DUP4 ADD MSTORE PUSH2 0x183E DUP2 PUSH2 0x1805 JUMP JUMPDEST SWAP1 POP SWAP2 SWAP1 POP JUMP JUMPDEST PUSH32 0x45524332303A20617070726F766520746F203078300000000000000000000000 PUSH0 DUP3 ADD MSTORE POP JUMP JUMPDEST PUSH0 PUSH2 0x1879 PUSH1 0x15 DUP4 PUSH2 0x10D6 JUMP JUMPDEST SWAP2 POP PUSH2 0x1884 DUP3 PUSH2 0x1845 JUMP JUMPDEST PUSH1 0x20 DUP3 ADD SWAP1 POP SWAP2 SWAP1 POP JUMP JUMPDEST PUSH0 PUSH1 0x20 DUP3 ADD SWAP1 POP DUP2 DUP2 SUB PUSH0 DUP4 ADD MSTORE PUSH2 0x18A6 DUP2 PUSH2 0x186D JUMP JUMPDEST SWAP1 POP SWAP2 SWAP1 POP JUMP JUMPDEST PUSH32 0x45524332303A207472616E736665722066726F6D203078300000000000000000 PUSH0 DUP3 ADD MSTORE POP JUMP JUMPDEST PUSH0 PUSH2 0x18E1 PUSH1 0x18 DUP4 PUSH2 0x10D6 JUMP JUMPDEST SWAP2 POP PUSH2 0x18EC DUP3 PUSH2 0x18AD JUMP JUMPDEST PUSH1 0x20 DUP3 ADD SWAP1 POP SWAP2 SWAP1 POP JUMP JUMPDEST PUSH0 PUSH1 0x20 DUP3 ADD SWAP1 POP DUP2 DUP2 SUB PUSH0 DUP4 ADD MSTORE PUSH2 0x190E DUP2 PUSH2 0x18D5 JUMP JUMPDEST SWAP1 POP SWAP2 SWAP1 POP JUMP JUMPDEST PUSH32 0x45524332303A207472616E7366657220746F2030783000000000000000000000 PUSH0 DUP3 ADD MSTORE POP JUMP JUMPDEST PUSH0 PUSH2 0x1949 PUSH1 0x16 DUP4 PUSH2 0x10D6 JUMP JUMPDEST SWAP2 POP PUSH2 0x1954 DUP3 PUSH2 0x1915 JUMP JUMPDEST PUSH1 0x20 DUP3 ADD SWAP1 POP SWAP2 SWAP1 POP JUMP JUMPDEST PUSH0 PUSH1 0x20 DUP3 ADD SWAP1 POP DUP2 DUP2 SUB PUSH0 DUP4 ADD MSTORE PUSH2 0x1976 DUP2 PUSH2 0x193D JUMP JUMPDEST SWAP1 POP SWAP2 SWAP1 POP JUMP JUMPDEST PUSH32 0x45524332303A20696E73756666696369656E742062616C616E63650000000000 PUSH0 DUP3 ADD MSTORE POP JUMP JUMPDEST PUSH0 PUSH2 0x19B1 PUSH1 0x1B DUP4 PUSH2 0x10D6 JUMP JUMPDEST SWAP2 POP PUSH2 0x19BC DUP3 PUSH2 0x197D JUMP JUMPDEST PUSH1 0x20 DUP3 ADD SWAP1 POP SWAP2 SWAP1 POP JUMP JUMPDEST PUSH0 PUSH1 0x20 DUP3 ADD SWAP1 POP DUP2 DUP2 SUB PUSH0 DUP4 ADD MSTORE PUSH2 0x19DE DUP2 PUSH2 0x19A5 JUMP JUMPDEST SWAP1 POP SWAP2 SWAP1 POP JUMP JUMPDEST PUSH0 PUSH2 0x19EF DUP3 PUSH2 0x11BA JUMP JUMPDEST SWAP2 POP PUSH2 0x19FA DUP4 PUSH2 0x11BA JUMP JUMPDEST SWAP3 POP DUP3 DUP3 ADD SWAP1 POP DUP1 DUP3 GT ISZERO PUSH2 0x1A12 JUMPI PUSH2 0x1A11 PUSH2 0x148B JUMP JUMPDEST JUMPDEST SWAP3 SWAP2 POP POP JUMP JUMPDEST PUSH32 0x496E76616C696420616464726573730000000000000000000000000000000000 PUSH0 DUP3 ADD MSTORE POP JUMP JUMPDEST PUSH0 PUSH2 0x1A4C PUSH1 0xF DUP4 PUSH2 0x10D6 JUMP JUMPDEST SWAP2 POP PUSH2 0x1A57 DUP3 PUSH2 0x1A18 JUMP JUMPDEST PUSH1 0x20 DUP3 ADD SWAP1 POP SWAP2 SWAP1 POP JUMP JUMPDEST PUSH0 PUSH1 0x20 DUP3 ADD SWAP1 POP DUP2 DUP2 SUB PUSH0 DUP4 ADD MSTORE PUSH2 0x1A79 DUP2 PUSH2 0x1A40 JUMP JUMPDEST SWAP1 POP SWAP2 SWAP1 POP JUMP INVALID LOG2 PUSH5 0x6970667358 0x22 SLT KECCAK256 KECCAK256 0xAE EXTCODEHASH 0xCA 0xC2 0xCD CALLDATACOPY 0xC8 BLOBBASEFEE 0x22 MSIZE 0xD4 PUSH27 0x38F433FA11FE1EA9D9B7E738F4ECB262E2207264736F6C63430008 0x1E STOP CALLER "
				},
				"gasEstimates": {
					"creation": {
						"codeDepositCost": "1367600",
						"executionCost": "infinite",
						"totalCost": "infinite"
					},
					"external": {
						"allowance(address,address)": "infinite",
						"approve(address,uint256)": "infinite",
						"balanceOf(address)": "2852",
						"burn(uint256)": "infinite",
						"burnForm(address,uint256)": "infinite",
						"decimals()": "2489",
						"mint(address,uint256)": "infinite",
						"name()": "infinite",
						"owner()": "2575",
						"paused()": "2606",
						"symbol()": "infinite",
						"totalsupply()": "2477",
						"transfer(address,uint256)": "infinite",
						"transferFrom(address,address,uint256)": "infinite"
					},
					"internal": {
						"_approve(address,address,uint256)": "infinite",
						"_burn(address,uint256)": "infinite",
						"_mint(address,uint256)": "infinite",
						"_transfer(address,address,uint256)": "infinite"
					}
				},
				"methodIdentifiers": {
					"allowance(address,address)": "dd62ed3e",
					"approve(address,uint256)": "095ea7b3",
					"balanceOf(address)": "70a08231",
					"burn(uint256)": "42966c68",
					"burnForm(address,uint256)": "c62b3bea",
					"decimals()": "313ce567",
					"mint(address,uint256)": "40c10f19",
					"name()": "06fdde03",
					"owner()": "8da5cb5b",
					"paused()": "5c975abb",
					"symbol()": "95d89b41",
					"totalsupply()": "72dd529b",
					"transfer(address,uint256)": "a9059cbb",
					"transferFrom(address,address,uint256)": "23b872dd"
				}
			},
			"storageLayout": {
				"storage": [
					{
						"astId": 5,
						"contract": "Contract_Conqueror_Series/ERC20standards.sol:BasicToken",
						"label": "name",
						"offset": 0,
						"slot": "0",
						"type": "t_string_storage"
					},
					{
						"astId": 7,
						"contract": "Contract_Conqueror_Series/ERC20standards.sol:BasicToken",
						"label": "symbol",
						"offset": 0,
						"slot": "1",
						"type": "t_string_storage"
					},
					{
						"astId": 10,
						"contract": "Contract_Conqueror_Series/ERC20standards.sol:BasicToken",
						"label": "decimals",
						"offset": 0,
						"slot": "2",
						"type": "t_uint8"
					},
					{
						"astId": 12,
						"contract": "Contract_Conqueror_Series/ERC20standards.sol:BasicToken",
						"label": "_totalsupply",
						"offset": 0,
						"slot": "3",
						"type": "t_uint256"
					},
					{
						"astId": 16,
						"contract": "Contract_Conqueror_Series/ERC20standards.sol:BasicToken",
						"label": "owner",
						"offset": 0,
						"slot": "4",
						"type": "t_address"
					},
					{
						"astId": 19,
						"contract": "Contract_Conqueror_Series/ERC20standards.sol:BasicToken",
						"label": "paused",
						"offset": 20,
						"slot": "4",
						"type": "t_bool"
					},
					{
						"astId": 24,
						"contract": "Contract_Conqueror_Series/ERC20standards.sol:BasicToken",
						"label": "_balances",
						"offset": 0,
						"slot": "5",
						"type": "t_mapping(t_address,t_uint256)"
					},
					{
						"astId": 30,
						"contract": "Contract_Conqueror_Series/ERC20standards.sol:BasicToken",
						"label": "_allowances",
						"offset": 0,
						"slot": "6",
						"type": "t_mapping(t_address,t_mapping(t_address,t_uint256))"
					}
				],
				"types": {
					"t_address": {
						"encoding": "inplace",
						"label": "address",
						"numberOfBytes": "20"
					},
					"t_bool": {
						"encoding": "inplace",
						"label": "bool",
						"numberOfBytes": "1"
					},
					"t_mapping(t_address,t_mapping(t_address,t_uint256))": {
						"encoding": "mapping",
						"key": "t_address",
						"label": "mapping(address => mapping(address => uint256))",
						"numberOfBytes": "32",
						"value": "t_mapping(t_address,t_uint256)"
					},
					"t_mapping(t_address,t_uint256)": {
						"encoding": "mapping",
						"key": "t_address",
						"label": "mapping(address => uint256)",
						"numberOfBytes": "32",
						"value": "t_uint256"
					},
					"t_string_storage": {
						"encoding": "bytes",
						"label": "string",
						"numberOfBytes": "32"
					},
					"t_uint256": {
						"encoding": "inplace",
						"label": "uint256",
						"numberOfBytes": "32"
					},
					"t_uint8": {
						"encoding": "inplace",
						"label": "uint8",
						"numberOfBytes": "1"
					}
				}
			},
			"userdoc": {
				"kind": "user",
				"methods": {
					"allowance(address,address)": {
						"notice": "Transfer tokens using allowance"
					},
					"approve(address,uint256)": {
						"notice": "Transfer tokensApprove a spender"
					},
					"balanceOf(address)": {
						"notice": "Check balance of a specific address"
					},
					"burn(uint256)": {
						"notice": "Burn tokens from caller's balance"
					},
					"burnForm(address,uint256)": {
						"notice": "Burn tokens from another account with approval"
					},
					"mint(address,uint256)": {
						"notice": "Mint new tokens (only owner, capped)"
					},
					"name()": {
						"notice": "Token details"
					},
					"totalsupply()": {
						"notice": "Get max token capGet total token supply"
					},
					"transfer(address,uint256)": {
						"notice": "Transfer tokens from sender to recipient"
					},
					"transferFrom(address,address,uint256)": {
						"notice": "Transfer tokens on behalf of another address"
					}
				},
				"version": 1
			}
		}
	}
}