{
	"Contract_Conqueror_Series/StakingRewards.sol": {
		"StakingRewards": {
			"abi": [
				{
					"inputs": [
						{
							"internalType": "address",
							"name": "_stakingToken",
							"type": "address"
						},
						{
							"internalType": "address",
							"name": "_rewardsToken",
							"type": "address"
						},
						{
							"internalType": "uint256",
							"name": "_duration",
							"type": "uint256"
						}
					],
					"stateMutability": "nonpayable",
					"type": "constructor"
				},
				{
					"inputs": [
						{
							"internalType": "address",
							"name": "",
							"type": "address"
						}
					],
					"name": "balanceOf",
					"outputs": [
						{
							"internalType": "uint256",
							"name": "",
							"type": "uint256"
						}
					],
					"stateMutability": "view",
					"type": "function"
				},
				{
					"inputs": [],
					"name": "duration",
					"outputs": [
						{
							"internalType": "uint256",
							"name": "",
							"type": "uint256"
						}
					],
					"stateMutability": "view",
					"type": "function"
				},
				{
					"inputs": [
						{
							"internalType": "address",
							"name": "account",
							"type": "address"
						}
					],
					"name": "earned",
					"outputs": [
						{
							"internalType": "uint256",
							"name": "",
							"type": "uint256"
						}
					],
					"stateMutability": "view",
					"type": "function"
				},
				{
					"inputs": [],
					"name": "exit",
					"outputs": [],
					"stateMutability": "nonpayable",
					"type": "function"
				},
				{
					"inputs": [],
					"name": "finishAt",
					"outputs": [
						{
							"internalType": "uint256",
							"name": "",
							"type": "uint256"
						}
					],
					"stateMutability": "view",
					"type": "function"
				},
				{
					"inputs": [],
					"name": "getReward",
					"outputs": [],
					"stateMutability": "nonpayable",
					"type": "function"
				},
				{
					"inputs": [],
					"name": "lastTimeRewardApplicable",
					"outputs": [
						{
							"internalType": "uint256",
							"name": "",
							"type": "uint256"
						}
					],
					"stateMutability": "view",
					"type": "function"
				},
				{
					"inputs": [
						{
							"internalType": "uint256",
							"name": "amount",
							"type": "uint256"
						}
					],
					"name": "notifyRewardAmount",
					"outputs": [],
					"stateMutability": "nonpayable",
					"type": "function"
				},
				{
					"inputs": [],
					"name": "owner",
					"outputs": [
						{
							"internalType": "address",
							"name": "",
							"type": "address"
						}
					],
					"stateMutability": "view",
					"type": "function"
				},
				{
					"inputs": [],
					"name": "rewardPerToken",
					"outputs": [
						{
							"internalType": "uint256",
							"name": "",
							"type": "uint256"
						}
					],
					"stateMutability": "view",
					"type": "function"
				},
				{
					"inputs": [],
					"name": "rewardPerTokenStored",
					"outputs": [
						{
							"internalType": "uint256",
							"name": "",
							"type": "uint256"
						}
					],
					"stateMutability": "view",
					"type": "function"
				},
				{
					"inputs": [],
					"name": "rewardRate",
					"outputs": [
						{
							"internalType": "uint256",
							"name": "",
							"type": "uint256"
						}
					],
					"stateMutability": "view",
					"type": "function"
				},
				{
					"inputs": [
						{
							"internalType": "address",
							"name": "",
							"type": "address"
						}
					],
					"name": "rewards",
					"outputs": [
						{
							"internalType": "uint256",
							"name": "",
							"type": "uint256"
						}
					],
					"stateMutability": "view",
					"type": "function"
				},
				{
					"inputs": [],
					"name": "rewardsToken",
					"outputs": [
						{
							"internalType": "contract IERC20",
							"name": "",
							"type": "address"
						}
					],
					"stateMutability": "view",
					"type": "function"
				},
				{
					"inputs": [
						{
							"internalType": "uint256",
							"name": "amount",
							"type": "uint256"
						}
					],
					"name": "stake",
					"outputs": [],
					"stateMutability": "nonpayable",
					"type": "function"
				},
				{
					"inputs": [],
					"name": "stakingToken",
					"outputs": [
						{
							"internalType": "contract IERC20",
							"name": "",
							"type": "address"
						}
					],
					"stateMutability": "view",
					"type": "function"
				},
				{
					"inputs": [],
					"name": "totalSupply",
					"outputs": [
						{
							"internalType": "uint256",
							"name": "",
							"type": "uint256"
						}
					],
					"stateMutability": "view",
					"type": "function"
				},
				{
					"inputs": [],
					"name": "updatedAt",
					"outputs": [
						{
							"internalType": "uint256",
							"name": "",
							"type": "uint256"
						}
					],
					"stateMutability": "view",
					"type": "function"
				},
				{
					"inputs": [
						{
							"internalType": "address",
							"name": "",
							"type": "address"
						}
					],
					"name": "userRewardPerTokenPaid",
					"outputs": [
						{
							"internalType": "uint256",
							"name": "",
							"type": "uint256"
						}
					],
					"stateMutability": "view",
					"type": "function"
				},
				{
					"inputs": [
						{
							"internalType": "uint256",
							"name": "amount",
							"type": "uint256"
						}
					],
					"name": "withdraw",
					"outputs": [],
					"stateMutability": "nonpayable",
					"type": "function"
				}
			],
			"devdoc": {
				"kind": "dev",
				"methods": {},
				"version": 1
			},
			"evm": {
				"assembly": "    /* \"Contract_Conqueror_Series/StakingRewards.sol\":391:4667  contract StakingRewards {... */\n  mstore(0x40, 0xc0)\n    /* \"Contract_Conqueror_Series/StakingRewards.sol\":1797:2036  constructor(address _stakingToken, address _rewardsToken, uint256 _duration) {... */\n  callvalue\n  dup1\n  iszero\n  tag_1\n  jumpi\n  revert(0x00, 0x00)\ntag_1:\n  pop\n  mload(0x40)\n  sub(codesize, bytecodeSize)\n  dup1\n  bytecodeSize\n  dup4\n  codecopy\n  dup2\n  dup2\n  add\n  0x40\n  mstore\n  dup2\n  add\n  swap1\n  tag_2\n  swap2\n  swap1\n  tag_3\n  jump\t// in\ntag_2:\n    /* \"Contract_Conqueror_Series/StakingRewards.sol\":1893:1903  msg.sender */\n  caller\n    /* \"Contract_Conqueror_Series/StakingRewards.sol\":1885:1890  owner */\n  0x09\n  0x00\n    /* \"Contract_Conqueror_Series/StakingRewards.sol\":1885:1903  owner = msg.sender */\n  0x0100\n  exp\n  dup2\n  sload\n  dup2\n  0xffffffffffffffffffffffffffffffffffffffff\n  mul\n  not\n  and\n  swap1\n  dup4\n  0xffffffffffffffffffffffffffffffffffffffff\n  and\n  mul\n  or\n  swap1\n  sstore\n  pop\n    /* \"Contract_Conqueror_Series/StakingRewards.sol\":1936:1949  _stakingToken */\n  dup3\n    /* \"Contract_Conqueror_Series/StakingRewards.sol\":1914:1950  stakingToken = IERC20(_stakingToken) */\n  0xffffffffffffffffffffffffffffffffffffffff\n  and\n  0x80\n  dup2\n  0xffffffffffffffffffffffffffffffffffffffff\n  and\n  dup2\n  mstore\n  pop\n  pop\n    /* \"Contract_Conqueror_Series/StakingRewards.sol\":1983:1996  _rewardsToken */\n  dup2\n    /* \"Contract_Conqueror_Series/StakingRewards.sol\":1961:1997  rewardsToken = IERC20(_rewardsToken) */\n  0xffffffffffffffffffffffffffffffffffffffff\n  and\n  0xa0\n  dup2\n  0xffffffffffffffffffffffffffffffffffffffff\n  and\n  dup2\n  mstore\n  pop\n  pop\n    /* \"Contract_Conqueror_Series/StakingRewards.sol\":2019:2028  _duration */\n  dup1\n    /* \"Contract_Conqueror_Series/StakingRewards.sol\":2008:2016  duration */\n  0x00\n    /* \"Contract_Conqueror_Series/StakingRewards.sol\":2008:2028  duration = _duration */\n  dup2\n  swap1\n  sstore\n  pop\n    /* \"Contract_Conqueror_Series/StakingRewards.sol\":1797:2036  constructor(address _stakingToken, address _rewardsToken, uint256 _duration) {... */\n  pop\n  pop\n  pop\n    /* \"Contract_Conqueror_Series/StakingRewards.sol\":391:4667  contract StakingRewards {... */\n  jump(tag_6)\n    /* \"#utility.yul\":88:205   */\ntag_8:\n    /* \"#utility.yul\":197:198   */\n  0x00\n    /* \"#utility.yul\":194:195   */\n  0x00\n    /* \"#utility.yul\":187:199   */\n  revert\n    /* \"#utility.yul\":334:460   */\ntag_10:\n    /* \"#utility.yul\":371:378   */\n  0x00\n    /* \"#utility.yul\":411:453   */\n  0xffffffffffffffffffffffffffffffffffffffff\n    /* \"#utility.yul\":404:409   */\n  dup3\n    /* \"#utility.yul\":400:454   */\n  and\n    /* \"#utility.yul\":389:454   */\n  swap1\n  pop\n    /* \"#utility.yul\":334:460   */\n  swap2\n  swap1\n  pop\n  jump\t// out\n    /* \"#utility.yul\":466:562   */\ntag_11:\n    /* \"#utility.yul\":503:510   */\n  0x00\n    /* \"#utility.yul\":532:556   */\n  tag_23\n    /* \"#utility.yul\":550:555   */\n  dup3\n    /* \"#utility.yul\":532:556   */\n  tag_10\n  jump\t// in\ntag_23:\n    /* \"#utility.yul\":521:556   */\n  swap1\n  pop\n    /* \"#utility.yul\":466:562   */\n  swap2\n  swap1\n  pop\n  jump\t// out\n    /* \"#utility.yul\":568:690   */\ntag_12:\n    /* \"#utility.yul\":641:665   */\n  tag_25\n    /* \"#utility.yul\":659:664   */\n  dup2\n    /* \"#utility.yul\":641:665   */\n  tag_11\n  jump\t// in\ntag_25:\n    /* \"#utility.yul\":634:639   */\n  dup2\n    /* \"#utility.yul\":631:666   */\n  eq\n    /* \"#utility.yul\":621:684   */\n  tag_26\n  jumpi\n    /* \"#utility.yul\":680:681   */\n  0x00\n    /* \"#utility.yul\":677:678   */\n  0x00\n    /* \"#utility.yul\":670:682   */\n  revert\n    /* \"#utility.yul\":621:684   */\ntag_26:\n    /* \"#utility.yul\":568:690   */\n  pop\n  jump\t// out\n    /* \"#utility.yul\":696:839   */\ntag_13:\n    /* \"#utility.yul\":753:758   */\n  0x00\n    /* \"#utility.yul\":784:790   */\n  dup2\n    /* \"#utility.yul\":778:791   */\n  mload\n    /* \"#utility.yul\":769:791   */\n  swap1\n  pop\n    /* \"#utility.yul\":800:833   */\n  tag_28\n    /* \"#utility.yul\":827:832   */\n  dup2\n    /* \"#utility.yul\":800:833   */\n  tag_12\n  jump\t// in\ntag_28:\n    /* \"#utility.yul\":696:839   */\n  swap3\n  swap2\n  pop\n  pop\n  jump\t// out\n    /* \"#utility.yul\":845:922   */\ntag_14:\n    /* \"#utility.yul\":882:889   */\n  0x00\n    /* \"#utility.yul\":911:916   */\n  dup2\n    /* \"#utility.yul\":900:916   */\n  swap1\n  pop\n    /* \"#utility.yul\":845:922   */\n  swap2\n  swap1\n  pop\n  jump\t// out\n    /* \"#utility.yul\":928:1050   */\ntag_15:\n    /* \"#utility.yul\":1001:1025   */\n  tag_31\n    /* \"#utility.yul\":1019:1024   */\n  dup2\n    /* \"#utility.yul\":1001:1025   */\n  tag_14\n  jump\t// in\ntag_31:\n    /* \"#utility.yul\":994:999   */\n  dup2\n    /* \"#utility.yul\":991:1026   */\n  eq\n    /* \"#utility.yul\":981:1044   */\n  tag_32\n  jumpi\n    /* \"#utility.yul\":1040:1041   */\n  0x00\n    /* \"#utility.yul\":1037:1038   */\n  0x00\n    /* \"#utility.yul\":1030:1042   */\n  revert\n    /* \"#utility.yul\":981:1044   */\ntag_32:\n    /* \"#utility.yul\":928:1050   */\n  pop\n  jump\t// out\n    /* \"#utility.yul\":1056:1199   */\ntag_16:\n    /* \"#utility.yul\":1113:1118   */\n  0x00\n    /* \"#utility.yul\":1144:1150   */\n  dup2\n    /* \"#utility.yul\":1138:1151   */\n  mload\n    /* \"#utility.yul\":1129:1151   */\n  swap1\n  pop\n    /* \"#utility.yul\":1160:1193   */\n  tag_34\n    /* \"#utility.yul\":1187:1192   */\n  dup2\n    /* \"#utility.yul\":1160:1193   */\n  tag_15\n  jump\t// in\ntag_34:\n    /* \"#utility.yul\":1056:1199   */\n  swap3\n  swap2\n  pop\n  pop\n  jump\t// out\n    /* \"#utility.yul\":1205:1868   */\ntag_3:\n    /* \"#utility.yul\":1293:1299   */\n  0x00\n    /* \"#utility.yul\":1301:1307   */\n  0x00\n    /* \"#utility.yul\":1309:1315   */\n  0x00\n    /* \"#utility.yul\":1358:1360   */\n  0x60\n    /* \"#utility.yul\":1346:1355   */\n  dup5\n    /* \"#utility.yul\":1337:1344   */\n  dup7\n    /* \"#utility.yul\":1333:1356   */\n  sub\n    /* \"#utility.yul\":1329:1361   */\n  slt\n    /* \"#utility.yul\":1326:1445   */\n  iszero\n  tag_36\n  jumpi\n    /* \"#utility.yul\":1364:1443   */\n  tag_37\n  tag_8\n  jump\t// in\ntag_37:\n    /* \"#utility.yul\":1326:1445   */\ntag_36:\n    /* \"#utility.yul\":1484:1485   */\n  0x00\n    /* \"#utility.yul\":1509:1573   */\n  tag_38\n    /* \"#utility.yul\":1565:1572   */\n  dup7\n    /* \"#utility.yul\":1556:1562   */\n  dup3\n    /* \"#utility.yul\":1545:1554   */\n  dup8\n    /* \"#utility.yul\":1541:1563   */\n  add\n    /* \"#utility.yul\":1509:1573   */\n  tag_13\n  jump\t// in\ntag_38:\n    /* \"#utility.yul\":1499:1573   */\n  swap4\n  pop\n    /* \"#utility.yul\":1455:1583   */\n  pop\n    /* \"#utility.yul\":1622:1624   */\n  0x20\n    /* \"#utility.yul\":1648:1712   */\n  tag_39\n    /* \"#utility.yul\":1704:1711   */\n  dup7\n    /* \"#utility.yul\":1695:1701   */\n  dup3\n    /* \"#utility.yul\":1684:1693   */\n  dup8\n    /* \"#utility.yul\":1680:1702   */\n  add\n    /* \"#utility.yul\":1648:1712   */\n  tag_13\n  jump\t// in\ntag_39:\n    /* \"#utility.yul\":1638:1712   */\n  swap3\n  pop\n    /* \"#utility.yul\":1593:1722   */\n  pop\n    /* \"#utility.yul\":1761:1763   */\n  0x40\n    /* \"#utility.yul\":1787:1851   */\n  tag_40\n    /* \"#utility.yul\":1843:1850   */\n  dup7\n    /* \"#utility.yul\":1834:1840   */\n  dup3\n    /* \"#utility.yul\":1823:1832   */\n  dup8\n    /* \"#utility.yul\":1819:1841   */\n  add\n    /* \"#utility.yul\":1787:1851   */\n  tag_16\n  jump\t// in\ntag_40:\n    /* \"#utility.yul\":1777:1851   */\n  swap2\n  pop\n    /* \"#utility.yul\":1732:1861   */\n  pop\n    /* \"#utility.yul\":1205:1868   */\n  swap3\n  pop\n  swap3\n  pop\n  swap3\n  jump\t// out\n    /* \"Contract_Conqueror_Series/StakingRewards.sol\":391:4667  contract StakingRewards {... */\ntag_6:\n  mload(0x80)\n  mload(0xa0)\n  codecopy(0x00, dataOffset(sub_0), dataSize(sub_0))\n  0x00\n  assignImmutable(\"0x880de8116b3dfac28e9ff528a9fef1d1e0a51449c1addce011ffec1f302992b6\")\n  0x00\n  assignImmutable(\"0x5bc0457d8881b800fd1bc0d6df907345b3bf287e43a5790ded3d08dbacf9c03a\")\n  return(0x00, dataSize(sub_0))\nstop\n\nsub_0: assembly {\n        /* \"Contract_Conqueror_Series/StakingRewards.sol\":391:4667  contract StakingRewards {... */\n      mstore(0x40, 0x80)\n      callvalue\n      dup1\n      iszero\n      tag_1\n      jumpi\n      revert(0x00, 0x00)\n    tag_1:\n      pop\n      jumpi(tag_2, lt(calldatasize, 0x04))\n      shr(0xe0, calldataload(0x00))\n      dup1\n      0x7519ab50\n      gt\n      tag_23\n      jumpi\n      dup1\n      0xa694fc3a\n      gt\n      tag_24\n      jumpi\n      dup1\n      0xa694fc3a\n      eq\n      tag_18\n      jumpi\n      dup1\n      0xcd3daf9d\n      eq\n      tag_19\n      jumpi\n      dup1\n      0xd1af0c7d\n      eq\n      tag_20\n      jumpi\n      dup1\n      0xdf136d65\n      eq\n      tag_21\n      jumpi\n      dup1\n      0xe9fad8ee\n      eq\n      tag_22\n      jumpi\n      jump(tag_2)\n    tag_24:\n      dup1\n      0x7519ab50\n      eq\n      tag_13\n      jumpi\n      dup1\n      0x7b0a47ee\n      eq\n      tag_14\n      jumpi\n      dup1\n      0x80faa57d\n      eq\n      tag_15\n      jumpi\n      dup1\n      0x8b876347\n      eq\n      tag_16\n      jumpi\n      dup1\n      0x8da5cb5b\n      eq\n      tag_17\n      jumpi\n      jump(tag_2)\n    tag_23:\n      dup1\n      0x3c6b16ab\n      gt\n      tag_25\n      jumpi\n      dup1\n      0x3c6b16ab\n      eq\n      tag_8\n      jumpi\n      dup1\n      0x3d18b912\n      eq\n      tag_9\n      jumpi\n      dup1\n      0x67d3b488\n      eq\n      tag_10\n      jumpi\n      dup1\n      0x70a08231\n      eq\n      tag_11\n      jumpi\n      dup1\n      0x72f702f3\n      eq\n      tag_12\n      jumpi\n      jump(tag_2)\n    tag_25:\n      dup1\n      0x8cc262\n      eq\n      tag_3\n      jumpi\n      dup1\n      0x0700037d\n      eq\n      tag_4\n      jumpi\n      dup1\n      0x0fb5a6b4\n      eq\n      tag_5\n      jumpi\n      dup1\n      0x18160ddd\n      eq\n      tag_6\n      jumpi\n      dup1\n      0x2e1a7d4d\n      eq\n      tag_7\n      jumpi\n    tag_2:\n      revert(0x00, 0x00)\n        /* \"Contract_Conqueror_Series/StakingRewards.sol\":2500:2716  function earned(address account) public view returns (uint256) {... */\n    tag_3:\n      tag_26\n      0x04\n      dup1\n      calldatasize\n      sub\n      dup2\n      add\n      swap1\n      tag_27\n      swap2\n      swap1\n      tag_28\n      jump\t// in\n    tag_27:\n      tag_29\n      jump\t// in\n    tag_26:\n      mload(0x40)\n      tag_30\n      swap2\n      swap1\n      tag_31\n      jump\t// in\n    tag_30:\n      mload(0x40)\n      dup1\n      swap2\n      sub\n      swap1\n      return\n        /* \"Contract_Conqueror_Series/StakingRewards.sol\":1080:1122  mapping(address => uint256) public rewards */\n    tag_4:\n      tag_32\n      0x04\n      dup1\n      calldatasize\n      sub\n      dup2\n      add\n      swap1\n      tag_33\n      swap2\n      swap1\n      tag_28\n      jump\t// in\n    tag_33:\n      tag_34\n      jump\t// in\n    tag_32:\n      mload(0x40)\n      tag_35\n      swap2\n      swap1\n      tag_31\n      jump\t// in\n    tag_35:\n      mload(0x40)\n      dup1\n      swap2\n      sub\n      swap1\n      return\n        /* \"Contract_Conqueror_Series/StakingRewards.sol\":566:589  uint256 public duration */\n    tag_5:\n      tag_36\n      tag_37\n      jump\t// in\n    tag_36:\n      mload(0x40)\n      tag_38\n      swap2\n      swap1\n      tag_31\n      jump\t// in\n    tag_38:\n      mload(0x40)\n      dup1\n      swap2\n      sub\n      swap1\n      return\n        /* \"Contract_Conqueror_Series/StakingRewards.sol\":1185:1211  uint256 public totalSupply */\n    tag_6:\n      tag_39\n      tag_40\n      jump\t// in\n    tag_39:\n      mload(0x40)\n      tag_41\n      swap2\n      swap1\n      tag_31\n      jump\t// in\n    tag_41:\n      mload(0x40)\n      dup1\n      swap2\n      sub\n      swap1\n      return\n        /* \"Contract_Conqueror_Series/StakingRewards.sol\":3108:3477  function withdraw(uint256 amount) public updateReward(msg.sender) {... */\n    tag_7:\n      tag_42\n      0x04\n      dup1\n      calldatasize\n      sub\n      dup2\n      add\n      swap1\n      tag_43\n      swap2\n      swap1\n      tag_44\n      jump\t// in\n    tag_43:\n      tag_45\n      jump\t// in\n    tag_42:\n      stop\n        /* \"Contract_Conqueror_Series/StakingRewards.sol\":4026:4664  function notifyRewardAmount(uint256 amount) external onlyOwner updateReward(address(0)) {... */\n    tag_8:\n      tag_46\n      0x04\n      dup1\n      calldatasize\n      sub\n      dup2\n      add\n      swap1\n      tag_47\n      swap2\n      swap1\n      tag_44\n      jump\t// in\n    tag_47:\n      tag_48\n      jump\t// in\n    tag_46:\n      stop\n        /* \"Contract_Conqueror_Series/StakingRewards.sol\":3519:3794  function getReward() public updateReward(msg.sender) {... */\n    tag_9:\n      tag_49\n      tag_50\n      jump\t// in\n    tag_49:\n      stop\n        /* \"Contract_Conqueror_Series/StakingRewards.sol\":652:675  uint256 public finishAt */\n    tag_10:\n      tag_51\n      tag_52\n      jump\t// in\n    tag_51:\n      mload(0x40)\n      tag_53\n      swap2\n      swap1\n      tag_31\n      jump\t// in\n    tag_53:\n      mload(0x40)\n      dup1\n      swap2\n      sub\n      swap1\n      return\n        /* \"Contract_Conqueror_Series/StakingRewards.sol\":1248:1292  mapping(address => uint256) public balanceOf */\n    tag_11:\n      tag_54\n      0x04\n      dup1\n      calldatasize\n      sub\n      dup2\n      add\n      swap1\n      tag_55\n      swap2\n      swap1\n      tag_28\n      jump\t// in\n    tag_55:\n      tag_56\n      jump\t// in\n    tag_54:\n      mload(0x40)\n      tag_57\n      swap2\n      swap1\n      tag_31\n      jump\t// in\n    tag_57:\n      mload(0x40)\n      dup1\n      swap2\n      sub\n      swap1\n      return\n        /* \"Contract_Conqueror_Series/StakingRewards.sol\":422:458  IERC20 public immutable stakingToken */\n    tag_12:\n      tag_58\n      tag_59\n      jump\t// in\n    tag_58:\n      mload(0x40)\n      tag_60\n      swap2\n      swap1\n      tag_61\n      jump\t// in\n    tag_60:\n      mload(0x40)\n      dup1\n      swap2\n      sub\n      swap1\n      return\n        /* \"Contract_Conqueror_Series/StakingRewards.sol\":722:746  uint256 public updatedAt */\n    tag_13:\n      tag_62\n      tag_63\n      jump\t// in\n    tag_62:\n      mload(0x40)\n      tag_64\n      swap2\n      swap1\n      tag_31\n      jump\t// in\n    tag_64:\n      mload(0x40)\n      dup1\n      swap2\n      sub\n      swap1\n      return\n        /* \"Contract_Conqueror_Series/StakingRewards.sol\":808:833  uint256 public rewardRate */\n    tag_14:\n      tag_65\n      tag_66\n      jump\t// in\n    tag_65:\n      mload(0x40)\n      tag_67\n      swap2\n      swap1\n      tag_31\n      jump\t// in\n    tag_67:\n      mload(0x40)\n      dup1\n      swap2\n      sub\n      swap1\n      return\n        /* \"Contract_Conqueror_Series/StakingRewards.sol\":2044:2191  function lastTimeRewardApplicable() public view returns (uint256) {... */\n    tag_15:\n      tag_68\n      tag_69\n      jump\t// in\n    tag_68:\n      mload(0x40)\n      tag_70\n      swap2\n      swap1\n      tag_31\n      jump\t// in\n    tag_70:\n      mload(0x40)\n      dup1\n      swap2\n      sub\n      swap1\n      return\n        /* \"Contract_Conqueror_Series/StakingRewards.sol\":971:1028  mapping(address => uint256) public userRewardPerTokenPaid */\n    tag_16:\n      tag_71\n      0x04\n      dup1\n      calldatasize\n      sub\n      dup2\n      add\n      swap1\n      tag_72\n      swap2\n      swap1\n      tag_28\n      jump\t// in\n    tag_72:\n      tag_73\n      jump\t// in\n    tag_71:\n      mload(0x40)\n      tag_74\n      swap2\n      swap1\n      tag_31\n      jump\t// in\n    tag_74:\n      mload(0x40)\n      dup1\n      swap2\n      sub\n      swap1\n      return\n        /* \"Contract_Conqueror_Series/StakingRewards.sol\":1327:1347  address public owner */\n    tag_17:\n      tag_75\n      tag_76\n      jump\t// in\n    tag_75:\n      mload(0x40)\n      tag_77\n      swap2\n      swap1\n      tag_78\n      jump\t// in\n    tag_77:\n      mload(0x40)\n      dup1\n      swap2\n      sub\n      swap1\n      return\n        /* \"Contract_Conqueror_Series/StakingRewards.sol\":2771:3069  function stake(uint256 amount) external updateReward(msg.sender) {... */\n    tag_18:\n      tag_79\n      0x04\n      dup1\n      calldatasize\n      sub\n      dup2\n      add\n      swap1\n      tag_80\n      swap2\n      swap1\n      tag_44\n      jump\t// in\n    tag_80:\n      tag_81\n      jump\t// in\n    tag_79:\n      stop\n        /* \"Contract_Conqueror_Series/StakingRewards.sol\":2199:2492  function rewardPerToken() public view returns (uint256) {... */\n    tag_19:\n      tag_82\n      tag_83\n      jump\t// in\n    tag_82:\n      mload(0x40)\n      tag_84\n      swap2\n      swap1\n      tag_31\n      jump\t// in\n    tag_84:\n      mload(0x40)\n      dup1\n      swap2\n      sub\n      swap1\n      return\n        /* \"Contract_Conqueror_Series/StakingRewards.sol\":487:523  IERC20 public immutable rewardsToken */\n    tag_20:\n      tag_85\n      tag_86\n      jump\t// in\n    tag_85:\n      mload(0x40)\n      tag_87\n      swap2\n      swap1\n      tag_61\n      jump\t// in\n    tag_87:\n      mload(0x40)\n      dup1\n      swap2\n      sub\n      swap1\n      return\n        /* \"Contract_Conqueror_Series/StakingRewards.sol\":888:923  uint256 public rewardPerTokenStored */\n    tag_21:\n      tag_88\n      tag_89\n      jump\t// in\n    tag_88:\n      mload(0x40)\n      tag_90\n      swap2\n      swap1\n      tag_31\n      jump\t// in\n    tag_90:\n      mload(0x40)\n      dup1\n      swap2\n      sub\n      swap1\n      return\n        /* \"Contract_Conqueror_Series/StakingRewards.sol\":3863:3960  function exit() external {... */\n    tag_22:\n      tag_91\n      tag_92\n      jump\t// in\n    tag_91:\n      stop\n        /* \"Contract_Conqueror_Series/StakingRewards.sol\":2500:2716  function earned(address account) public view returns (uint256) {... */\n    tag_29:\n        /* \"Contract_Conqueror_Series/StakingRewards.sol\":2554:2561  uint256 */\n      0x00\n        /* \"Contract_Conqueror_Series/StakingRewards.sol\":2692:2699  rewards */\n      0x06\n        /* \"Contract_Conqueror_Series/StakingRewards.sol\":2692:2708  rewards[account] */\n      0x00\n        /* \"Contract_Conqueror_Series/StakingRewards.sol\":2700:2707  account */\n      dup4\n        /* \"Contract_Conqueror_Series/StakingRewards.sol\":2692:2708  rewards[account] */\n      0xffffffffffffffffffffffffffffffffffffffff\n      and\n      0xffffffffffffffffffffffffffffffffffffffff\n      and\n      dup2\n      mstore\n      0x20\n      add\n      swap1\n      dup2\n      mstore\n      0x20\n      add\n      0x00\n      keccak256\n      sload\n        /* \"Contract_Conqueror_Series/StakingRewards.sol\":2672:2676  1e18 */\n      0x0de0b6b3a7640000\n        /* \"Contract_Conqueror_Series/StakingRewards.sol\":2636:2658  userRewardPerTokenPaid */\n      0x05\n        /* \"Contract_Conqueror_Series/StakingRewards.sol\":2636:2667  userRewardPerTokenPaid[account] */\n      0x00\n        /* \"Contract_Conqueror_Series/StakingRewards.sol\":2659:2666  account */\n      dup6\n        /* \"Contract_Conqueror_Series/StakingRewards.sol\":2636:2667  userRewardPerTokenPaid[account] */\n      0xffffffffffffffffffffffffffffffffffffffff\n      and\n      0xffffffffffffffffffffffffffffffffffffffff\n      and\n      dup2\n      mstore\n      0x20\n      add\n      swap1\n      dup2\n      mstore\n      0x20\n      add\n      0x00\n      keccak256\n      sload\n        /* \"Contract_Conqueror_Series/StakingRewards.sol\":2617:2633  rewardPerToken() */\n      tag_94\n        /* \"Contract_Conqueror_Series/StakingRewards.sol\":2617:2631  rewardPerToken */\n      tag_83\n        /* \"Contract_Conqueror_Series/StakingRewards.sol\":2617:2633  rewardPerToken() */\n      jump\t// in\n    tag_94:\n        /* \"Contract_Conqueror_Series/StakingRewards.sol\":2617:2667  rewardPerToken() - userRewardPerTokenPaid[account] */\n      tag_95\n      swap2\n      swap1\n      tag_96\n      jump\t// in\n    tag_95:\n        /* \"Contract_Conqueror_Series/StakingRewards.sol\":2595:2604  balanceOf */\n      0x08\n        /* \"Contract_Conqueror_Series/StakingRewards.sol\":2595:2613  balanceOf[account] */\n      0x00\n        /* \"Contract_Conqueror_Series/StakingRewards.sol\":2605:2612  account */\n      dup7\n        /* \"Contract_Conqueror_Series/StakingRewards.sol\":2595:2613  balanceOf[account] */\n      0xffffffffffffffffffffffffffffffffffffffff\n      and\n      0xffffffffffffffffffffffffffffffffffffffff\n      and\n      dup2\n      mstore\n      0x20\n      add\n      swap1\n      dup2\n      mstore\n      0x20\n      add\n      0x00\n      keccak256\n      sload\n        /* \"Contract_Conqueror_Series/StakingRewards.sol\":2595:2668  balanceOf[account] * (rewardPerToken() - userRewardPerTokenPaid[account]) */\n      tag_97\n      swap2\n      swap1\n      tag_98\n      jump\t// in\n    tag_97:\n        /* \"Contract_Conqueror_Series/StakingRewards.sol\":2594:2676  (balanceOf[account] * (rewardPerToken() - userRewardPerTokenPaid[account])) / 1e18 */\n      tag_99\n      swap2\n      swap1\n      tag_100\n      jump\t// in\n    tag_99:\n        /* \"Contract_Conqueror_Series/StakingRewards.sol\":2594:2708  (balanceOf[account] * (rewardPerToken() - userRewardPerTokenPaid[account])) / 1e18... */\n      tag_101\n      swap2\n      swap1\n      tag_102\n      jump\t// in\n    tag_101:\n        /* \"Contract_Conqueror_Series/StakingRewards.sol\":2574:2708  return... */\n      swap1\n      pop\n        /* \"Contract_Conqueror_Series/StakingRewards.sol\":2500:2716  function earned(address account) public view returns (uint256) {... */\n      swap2\n      swap1\n      pop\n      jump\t// out\n        /* \"Contract_Conqueror_Series/StakingRewards.sol\":1080:1122  mapping(address => uint256) public rewards */\n    tag_34:\n      mstore(0x20, 0x06)\n      dup1\n      0x00\n      mstore\n      keccak256(0x00, 0x40)\n      0x00\n      swap2\n      pop\n      swap1\n      pop\n      sload\n      dup2\n      jump\t// out\n        /* \"Contract_Conqueror_Series/StakingRewards.sol\":566:589  uint256 public duration */\n    tag_37:\n      sload(0x00)\n      dup2\n      jump\t// out\n        /* \"Contract_Conqueror_Series/StakingRewards.sol\":1185:1211  uint256 public totalSupply */\n    tag_40:\n      sload(0x07)\n      dup2\n      jump\t// out\n        /* \"Contract_Conqueror_Series/StakingRewards.sol\":3108:3477  function withdraw(uint256 amount) public updateReward(msg.sender) {... */\n    tag_45:\n        /* \"Contract_Conqueror_Series/StakingRewards.sol\":3162:3172  msg.sender */\n      caller\n        /* \"Contract_Conqueror_Series/StakingRewards.sol\":1535:1551  rewardPerToken() */\n      tag_104\n        /* \"Contract_Conqueror_Series/StakingRewards.sol\":1535:1549  rewardPerToken */\n      tag_83\n        /* \"Contract_Conqueror_Series/StakingRewards.sol\":1535:1551  rewardPerToken() */\n      jump\t// in\n    tag_104:\n        /* \"Contract_Conqueror_Series/StakingRewards.sol\":1512:1532  rewardPerTokenStored */\n      0x04\n        /* \"Contract_Conqueror_Series/StakingRewards.sol\":1512:1551  rewardPerTokenStored = rewardPerToken() */\n      dup2\n      swap1\n      sstore\n      pop\n        /* \"Contract_Conqueror_Series/StakingRewards.sol\":1574:1600  lastTimeRewardApplicable() */\n      tag_105\n        /* \"Contract_Conqueror_Series/StakingRewards.sol\":1574:1598  lastTimeRewardApplicable */\n      tag_69\n        /* \"Contract_Conqueror_Series/StakingRewards.sol\":1574:1600  lastTimeRewardApplicable() */\n      jump\t// in\n    tag_105:\n        /* \"Contract_Conqueror_Series/StakingRewards.sol\":1562:1571  updatedAt */\n      0x02\n        /* \"Contract_Conqueror_Series/StakingRewards.sol\":1562:1600  updatedAt = lastTimeRewardApplicable() */\n      dup2\n      swap1\n      sstore\n      pop\n        /* \"Contract_Conqueror_Series/StakingRewards.sol\":1636:1637  0 */\n      0x00\n        /* \"Contract_Conqueror_Series/StakingRewards.sol\":1617:1638  account != address(0) */\n      0xffffffffffffffffffffffffffffffffffffffff\n      and\n        /* \"Contract_Conqueror_Series/StakingRewards.sol\":1617:1624  account */\n      dup2\n        /* \"Contract_Conqueror_Series/StakingRewards.sol\":1617:1638  account != address(0) */\n      0xffffffffffffffffffffffffffffffffffffffff\n      and\n      eq\n        /* \"Contract_Conqueror_Series/StakingRewards.sol\":1613:1770  if (account != address(0)) {... */\n      tag_106\n      jumpi\n        /* \"Contract_Conqueror_Series/StakingRewards.sol\":1674:1689  earned(account) */\n      tag_107\n        /* \"Contract_Conqueror_Series/StakingRewards.sol\":1681:1688  account */\n      dup2\n        /* \"Contract_Conqueror_Series/StakingRewards.sol\":1674:1680  earned */\n      tag_29\n        /* \"Contract_Conqueror_Series/StakingRewards.sol\":1674:1689  earned(account) */\n      jump\t// in\n    tag_107:\n        /* \"Contract_Conqueror_Series/StakingRewards.sol\":1655:1662  rewards */\n      0x06\n        /* \"Contract_Conqueror_Series/StakingRewards.sol\":1655:1671  rewards[account] */\n      0x00\n        /* \"Contract_Conqueror_Series/StakingRewards.sol\":1663:1670  account */\n      dup4\n        /* \"Contract_Conqueror_Series/StakingRewards.sol\":1655:1671  rewards[account] */\n      0xffffffffffffffffffffffffffffffffffffffff\n      and\n      0xffffffffffffffffffffffffffffffffffffffff\n      and\n      dup2\n      mstore\n      0x20\n      add\n      swap1\n      dup2\n      mstore\n      0x20\n      add\n      0x00\n      keccak256\n        /* \"Contract_Conqueror_Series/StakingRewards.sol\":1655:1689  rewards[account] = earned(account) */\n      dup2\n      swap1\n      sstore\n      pop\n        /* \"Contract_Conqueror_Series/StakingRewards.sol\":1738:1758  rewardPerTokenStored */\n      sload(0x04)\n        /* \"Contract_Conqueror_Series/StakingRewards.sol\":1704:1726  userRewardPerTokenPaid */\n      0x05\n        /* \"Contract_Conqueror_Series/StakingRewards.sol\":1704:1735  userRewardPerTokenPaid[account] */\n      0x00\n        /* \"Contract_Conqueror_Series/StakingRewards.sol\":1727:1734  account */\n      dup4\n        /* \"Contract_Conqueror_Series/StakingRewards.sol\":1704:1735  userRewardPerTokenPaid[account] */\n      0xffffffffffffffffffffffffffffffffffffffff\n      and\n      0xffffffffffffffffffffffffffffffffffffffff\n      and\n      dup2\n      mstore\n      0x20\n      add\n      swap1\n      dup2\n      mstore\n      0x20\n      add\n      0x00\n      keccak256\n        /* \"Contract_Conqueror_Series/StakingRewards.sol\":1704:1758  userRewardPerTokenPaid[account] = rewardPerTokenStored */\n      dup2\n      swap1\n      sstore\n      pop\n        /* \"Contract_Conqueror_Series/StakingRewards.sol\":1613:1770  if (account != address(0)) {... */\n    tag_106:\n        /* \"Contract_Conqueror_Series/StakingRewards.sol\":3202:3203  0 */\n      0x00\n        /* \"Contract_Conqueror_Series/StakingRewards.sol\":3193:3199  amount */\n      dup3\n        /* \"Contract_Conqueror_Series/StakingRewards.sol\":3193:3203  amount > 0 */\n      gt\n        /* \"Contract_Conqueror_Series/StakingRewards.sol\":3185:3225  require(amount > 0, \"Cannot withdraw 0\") */\n      tag_109\n      jumpi\n      mload(0x40)\n      0x08c379a000000000000000000000000000000000000000000000000000000000\n      dup2\n      mstore\n      0x04\n      add\n      tag_110\n      swap1\n      tag_111\n      jump\t// in\n    tag_110:\n      mload(0x40)\n      dup1\n      swap2\n      sub\n      swap1\n      revert\n    tag_109:\n        /* \"Contract_Conqueror_Series/StakingRewards.sol\":3269:3275  amount */\n      dup2\n        /* \"Contract_Conqueror_Series/StakingRewards.sol\":3244:3253  balanceOf */\n      0x08\n        /* \"Contract_Conqueror_Series/StakingRewards.sol\":3244:3265  balanceOf[msg.sender] */\n      0x00\n        /* \"Contract_Conqueror_Series/StakingRewards.sol\":3254:3264  msg.sender */\n      caller\n        /* \"Contract_Conqueror_Series/StakingRewards.sol\":3244:3265  balanceOf[msg.sender] */\n      0xffffffffffffffffffffffffffffffffffffffff\n      and\n      0xffffffffffffffffffffffffffffffffffffffff\n      and\n      dup2\n      mstore\n      0x20\n      add\n      swap1\n      dup2\n      mstore\n      0x20\n      add\n      0x00\n      keccak256\n      sload\n        /* \"Contract_Conqueror_Series/StakingRewards.sol\":3244:3275  balanceOf[msg.sender] >= amount */\n      lt\n      iszero\n        /* \"Contract_Conqueror_Series/StakingRewards.sol\":3236:3311  require(balanceOf[msg.sender] >= amount, \"Withdraw amount exceeds balance\") */\n      tag_112\n      jumpi\n      mload(0x40)\n      0x08c379a000000000000000000000000000000000000000000000000000000000\n      dup2\n      mstore\n      0x04\n      add\n      tag_113\n      swap1\n      tag_114\n      jump\t// in\n    tag_113:\n      mload(0x40)\n      dup1\n      swap2\n      sub\n      swap1\n      revert\n    tag_112:\n        /* \"Contract_Conqueror_Series/StakingRewards.sol\":3339:3345  amount */\n      dup2\n        /* \"Contract_Conqueror_Series/StakingRewards.sol\":3324:3335  totalSupply */\n      0x07\n      0x00\n        /* \"Contract_Conqueror_Series/StakingRewards.sol\":3324:3345  totalSupply -= amount */\n      dup3\n      dup3\n      sload\n      tag_115\n      swap2\n      swap1\n      tag_96\n      jump\t// in\n    tag_115:\n      swap3\n      pop\n      pop\n      dup2\n      swap1\n      sstore\n      pop\n        /* \"Contract_Conqueror_Series/StakingRewards.sol\":3381:3387  amount */\n      dup2\n        /* \"Contract_Conqueror_Series/StakingRewards.sol\":3356:3365  balanceOf */\n      0x08\n        /* \"Contract_Conqueror_Series/StakingRewards.sol\":3356:3377  balanceOf[msg.sender] */\n      0x00\n        /* \"Contract_Conqueror_Series/StakingRewards.sol\":3366:3376  msg.sender */\n      caller\n        /* \"Contract_Conqueror_Series/StakingRewards.sol\":3356:3377  balanceOf[msg.sender] */\n      0xffffffffffffffffffffffffffffffffffffffff\n      and\n      0xffffffffffffffffffffffffffffffffffffffff\n      and\n      dup2\n      mstore\n      0x20\n      add\n      swap1\n      dup2\n      mstore\n      0x20\n      add\n      0x00\n      keccak256\n      0x00\n        /* \"Contract_Conqueror_Series/StakingRewards.sol\":3356:3387  balanceOf[msg.sender] -= amount */\n      dup3\n      dup3\n      sload\n      tag_116\n      swap2\n      swap1\n      tag_96\n      jump\t// in\n    tag_116:\n      swap3\n      pop\n      pop\n      dup2\n      swap1\n      sstore\n      pop\n        /* \"Contract_Conqueror_Series/StakingRewards.sol\":3408:3420  stakingToken */\n      immutable(\"0x5bc0457d8881b800fd1bc0d6df907345b3bf287e43a5790ded3d08dbacf9c03a\")\n        /* \"Contract_Conqueror_Series/StakingRewards.sol\":3408:3429  stakingToken.transfer */\n      0xffffffffffffffffffffffffffffffffffffffff\n      and\n      0xa9059cbb\n        /* \"Contract_Conqueror_Series/StakingRewards.sol\":3430:3440  msg.sender */\n      caller\n        /* \"Contract_Conqueror_Series/StakingRewards.sol\":3442:3448  amount */\n      dup5\n        /* \"Contract_Conqueror_Series/StakingRewards.sol\":3408:3449  stakingToken.transfer(msg.sender, amount) */\n      mload(0x40)\n      dup4\n      0xffffffff\n      and\n      0xe0\n      shl\n      dup2\n      mstore\n      0x04\n      add\n      tag_117\n      swap3\n      swap2\n      swap1\n      tag_118\n      jump\t// in\n    tag_117:\n      0x20\n      mload(0x40)\n      dup1\n      dup4\n      sub\n      dup2\n      0x00\n      dup8\n      gas\n      call\n      iszero\n      dup1\n      iszero\n      tag_120\n      jumpi\n      returndatacopy(0x00, 0x00, returndatasize)\n      revert(0x00, returndatasize)\n    tag_120:\n      pop\n      pop\n      pop\n      pop\n      mload(0x40)\n      returndatasize\n      not(0x1f)\n      0x1f\n      dup3\n      add\n      and\n      dup3\n      add\n      dup1\n      0x40\n      mstore\n      pop\n      dup2\n      add\n      swap1\n      tag_121\n      swap2\n      swap1\n      tag_122\n      jump\t// in\n    tag_121:\n        /* \"Contract_Conqueror_Series/StakingRewards.sol\":3400:3469  require(stakingToken.transfer(msg.sender, amount), \"Transfer failed\") */\n      tag_123\n      jumpi\n      mload(0x40)\n      0x08c379a000000000000000000000000000000000000000000000000000000000\n      dup2\n      mstore\n      0x04\n      add\n      tag_124\n      swap1\n      tag_125\n      jump\t// in\n    tag_124:\n      mload(0x40)\n      dup1\n      swap2\n      sub\n      swap1\n      revert\n    tag_123:\n        /* \"Contract_Conqueror_Series/StakingRewards.sol\":3108:3477  function withdraw(uint256 amount) public updateReward(msg.sender) {... */\n      pop\n      pop\n      jump\t// out\n        /* \"Contract_Conqueror_Series/StakingRewards.sol\":4026:4664  function notifyRewardAmount(uint256 amount) external onlyOwner updateReward(address(0)) {... */\n    tag_48:\n        /* \"Contract_Conqueror_Series/StakingRewards.sol\":1410:1415  owner */\n      0x09\n      0x00\n      swap1\n      sload\n      swap1\n      0x0100\n      exp\n      swap1\n      div\n      0xffffffffffffffffffffffffffffffffffffffff\n      and\n        /* \"Contract_Conqueror_Series/StakingRewards.sol\":1396:1415  msg.sender == owner */\n      0xffffffffffffffffffffffffffffffffffffffff\n      and\n        /* \"Contract_Conqueror_Series/StakingRewards.sol\":1396:1406  msg.sender */\n      caller\n        /* \"Contract_Conqueror_Series/StakingRewards.sol\":1396:1415  msg.sender == owner */\n      0xffffffffffffffffffffffffffffffffffffffff\n      and\n      eq\n        /* \"Contract_Conqueror_Series/StakingRewards.sol\":1388:1434  require(msg.sender == owner, \"not authorized\") */\n      tag_127\n      jumpi\n      mload(0x40)\n      0x08c379a000000000000000000000000000000000000000000000000000000000\n      dup2\n      mstore\n      0x04\n      add\n      tag_128\n      swap1\n      tag_129\n      jump\t// in\n    tag_128:\n      mload(0x40)\n      dup1\n      swap2\n      sub\n      swap1\n      revert\n    tag_127:\n        /* \"Contract_Conqueror_Series/StakingRewards.sol\":4110:4111  0 */\n      0x00\n        /* \"Contract_Conqueror_Series/StakingRewards.sol\":1535:1551  rewardPerToken() */\n      tag_131\n        /* \"Contract_Conqueror_Series/StakingRewards.sol\":1535:1549  rewardPerToken */\n      tag_83\n        /* \"Contract_Conqueror_Series/StakingRewards.sol\":1535:1551  rewardPerToken() */\n      jump\t// in\n    tag_131:\n        /* \"Contract_Conqueror_Series/StakingRewards.sol\":1512:1532  rewardPerTokenStored */\n      0x04\n        /* \"Contract_Conqueror_Series/StakingRewards.sol\":1512:1551  rewardPerTokenStored = rewardPerToken() */\n      dup2\n      swap1\n      sstore\n      pop\n        /* \"Contract_Conqueror_Series/StakingRewards.sol\":1574:1600  lastTimeRewardApplicable() */\n      tag_132\n        /* \"Contract_Conqueror_Series/StakingRewards.sol\":1574:1598  lastTimeRewardApplicable */\n      tag_69\n        /* \"Contract_Conqueror_Series/StakingRewards.sol\":1574:1600  lastTimeRewardApplicable() */\n      jump\t// in\n    tag_132:\n        /* \"Contract_Conqueror_Series/StakingRewards.sol\":1562:1571  updatedAt */\n      0x02\n        /* \"Contract_Conqueror_Series/StakingRewards.sol\":1562:1600  updatedAt = lastTimeRewardApplicable() */\n      dup2\n      swap1\n      sstore\n      pop\n        /* \"Contract_Conqueror_Series/StakingRewards.sol\":1636:1637  0 */\n      0x00\n        /* \"Contract_Conqueror_Series/StakingRewards.sol\":1617:1638  account != address(0) */\n      0xffffffffffffffffffffffffffffffffffffffff\n      and\n        /* \"Contract_Conqueror_Series/StakingRewards.sol\":1617:1624  account */\n      dup2\n        /* \"Contract_Conqueror_Series/StakingRewards.sol\":1617:1638  account != address(0) */\n      0xffffffffffffffffffffffffffffffffffffffff\n      and\n      eq\n        /* \"Contract_Conqueror_Series/StakingRewards.sol\":1613:1770  if (account != address(0)) {... */\n      tag_133\n      jumpi\n        /* \"Contract_Conqueror_Series/StakingRewards.sol\":1674:1689  earned(account) */\n      tag_134\n        /* \"Contract_Conqueror_Series/StakingRewards.sol\":1681:1688  account */\n      dup2\n        /* \"Contract_Conqueror_Series/StakingRewards.sol\":1674:1680  earned */\n      tag_29\n        /* \"Contract_Conqueror_Series/StakingRewards.sol\":1674:1689  earned(account) */\n      jump\t// in\n    tag_134:\n        /* \"Contract_Conqueror_Series/StakingRewards.sol\":1655:1662  rewards */\n      0x06\n        /* \"Contract_Conqueror_Series/StakingRewards.sol\":1655:1671  rewards[account] */\n      0x00\n        /* \"Contract_Conqueror_Series/StakingRewards.sol\":1663:1670  account */\n      dup4\n        /* \"Contract_Conqueror_Series/StakingRewards.sol\":1655:1671  rewards[account] */\n      0xffffffffffffffffffffffffffffffffffffffff\n      and\n      0xffffffffffffffffffffffffffffffffffffffff\n      and\n      dup2\n      mstore\n      0x20\n      add\n      swap1\n      dup2\n      mstore\n      0x20\n      add\n      0x00\n      keccak256\n        /* \"Contract_Conqueror_Series/StakingRewards.sol\":1655:1689  rewards[account] = earned(account) */\n      dup2\n      swap1\n      sstore\n      pop\n        /* \"Contract_Conqueror_Series/StakingRewards.sol\":1738:1758  rewardPerTokenStored */\n      sload(0x04)\n        /* \"Contract_Conqueror_Series/StakingRewards.sol\":1704:1726  userRewardPerTokenPaid */\n      0x05\n        /* \"Contract_Conqueror_Series/StakingRewards.sol\":1704:1735  userRewardPerTokenPaid[account] */\n      0x00\n        /* \"Contract_Conqueror_Series/StakingRewards.sol\":1727:1734  account */\n      dup4\n        /* \"Contract_Conqueror_Series/StakingRewards.sol\":1704:1735  userRewardPerTokenPaid[account] */\n      0xffffffffffffffffffffffffffffffffffffffff\n      and\n      0xffffffffffffffffffffffffffffffffffffffff\n      and\n      dup2\n      mstore\n      0x20\n      add\n      swap1\n      dup2\n      mstore\n      0x20\n      add\n      0x00\n      keccak256\n        /* \"Contract_Conqueror_Series/StakingRewards.sol\":1704:1758  userRewardPerTokenPaid[account] = rewardPerTokenStored */\n      dup2\n      swap1\n      sstore\n      pop\n        /* \"Contract_Conqueror_Series/StakingRewards.sol\":1613:1770  if (account != address(0)) {... */\n    tag_133:\n        /* \"Contract_Conqueror_Series/StakingRewards.sol\":4148:4156  finishAt */\n      sload(0x01)\n        /* \"Contract_Conqueror_Series/StakingRewards.sol\":4129:4144  block.timestamp */\n      timestamp\n        /* \"Contract_Conqueror_Series/StakingRewards.sol\":4129:4156  block.timestamp >= finishAt */\n      lt\n        /* \"Contract_Conqueror_Series/StakingRewards.sol\":4125:4408  if (block.timestamp >= finishAt) {... */\n      tag_136\n      jumpi\n        /* \"Contract_Conqueror_Series/StakingRewards.sol\":4195:4203  duration */\n      sload(0x00)\n        /* \"Contract_Conqueror_Series/StakingRewards.sol\":4186:4192  amount */\n      dup3\n        /* \"Contract_Conqueror_Series/StakingRewards.sol\":4186:4203  amount / duration */\n      tag_137\n      swap2\n      swap1\n      tag_100\n      jump\t// in\n    tag_137:\n        /* \"Contract_Conqueror_Series/StakingRewards.sol\":4173:4183  rewardRate */\n      0x03\n        /* \"Contract_Conqueror_Series/StakingRewards.sol\":4173:4203  rewardRate = amount / duration */\n      dup2\n      swap1\n      sstore\n      pop\n        /* \"Contract_Conqueror_Series/StakingRewards.sol\":4125:4408  if (block.timestamp >= finishAt) {... */\n      jump(tag_138)\n    tag_136:\n        /* \"Contract_Conqueror_Series/StakingRewards.sol\":4236:4253  uint256 remaining */\n      0x00\n        /* \"Contract_Conqueror_Series/StakingRewards.sol\":4267:4282  block.timestamp */\n      timestamp\n        /* \"Contract_Conqueror_Series/StakingRewards.sol\":4256:4264  finishAt */\n      sload(0x01)\n        /* \"Contract_Conqueror_Series/StakingRewards.sol\":4256:4282  finishAt - block.timestamp */\n      tag_139\n      swap2\n      swap1\n      tag_96\n      jump\t// in\n    tag_139:\n        /* \"Contract_Conqueror_Series/StakingRewards.sol\":4236:4282  uint256 remaining = finishAt - block.timestamp */\n      swap1\n      pop\n        /* \"Contract_Conqueror_Series/StakingRewards.sol\":4297:4313  uint256 leftover */\n      0x00\n        /* \"Contract_Conqueror_Series/StakingRewards.sol\":4328:4338  rewardRate */\n      sload(0x03)\n        /* \"Contract_Conqueror_Series/StakingRewards.sol\":4316:4325  remaining */\n      dup3\n        /* \"Contract_Conqueror_Series/StakingRewards.sol\":4316:4338  remaining * rewardRate */\n      tag_140\n      swap2\n      swap1\n      tag_98\n      jump\t// in\n    tag_140:\n        /* \"Contract_Conqueror_Series/StakingRewards.sol\":4297:4338  uint256 leftover = remaining * rewardRate */\n      swap1\n      pop\n        /* \"Contract_Conqueror_Series/StakingRewards.sol\":4388:4396  duration */\n      sload(0x00)\n        /* \"Contract_Conqueror_Series/StakingRewards.sol\":4376:4384  leftover */\n      dup2\n        /* \"Contract_Conqueror_Series/StakingRewards.sol\":4367:4373  amount */\n      dup6\n        /* \"Contract_Conqueror_Series/StakingRewards.sol\":4367:4384  amount + leftover */\n      tag_141\n      swap2\n      swap1\n      tag_102\n      jump\t// in\n    tag_141:\n        /* \"Contract_Conqueror_Series/StakingRewards.sol\":4366:4396  (amount + leftover) / duration */\n      tag_142\n      swap2\n      swap1\n      tag_100\n      jump\t// in\n    tag_142:\n        /* \"Contract_Conqueror_Series/StakingRewards.sol\":4353:4363  rewardRate */\n      0x03\n        /* \"Contract_Conqueror_Series/StakingRewards.sol\":4353:4396  rewardRate = (amount + leftover) / duration */\n      dup2\n      swap1\n      sstore\n      pop\n        /* \"Contract_Conqueror_Series/StakingRewards.sol\":4221:4408  {... */\n      pop\n      pop\n        /* \"Contract_Conqueror_Series/StakingRewards.sol\":4125:4408  if (block.timestamp >= finishAt) {... */\n    tag_138:\n        /* \"Contract_Conqueror_Series/StakingRewards.sol\":4441:4442  0 */\n      0x00\n        /* \"Contract_Conqueror_Series/StakingRewards.sol\":4428:4438  rewardRate */\n      sload(0x03)\n        /* \"Contract_Conqueror_Series/StakingRewards.sol\":4428:4442  rewardRate > 0 */\n      gt\n        /* \"Contract_Conqueror_Series/StakingRewards.sol\":4420:4462  require(rewardRate > 0, \"Reward rate = 0\") */\n      tag_143\n      jumpi\n      mload(0x40)\n      0x08c379a000000000000000000000000000000000000000000000000000000000\n      dup2\n      mstore\n      0x04\n      add\n      tag_144\n      swap1\n      tag_145\n      jump\t// in\n    tag_144:\n      mload(0x40)\n      dup1\n      swap2\n      sub\n      swap1\n      revert\n    tag_143:\n        /* \"Contract_Conqueror_Series/StakingRewards.sol\":4506:4518  rewardsToken */\n      immutable(\"0x880de8116b3dfac28e9ff528a9fef1d1e0a51449c1addce011ffec1f302992b6\")\n        /* \"Contract_Conqueror_Series/StakingRewards.sol\":4506:4528  rewardsToken.balanceOf */\n      0xffffffffffffffffffffffffffffffffffffffff\n      and\n      0x70a08231\n        /* \"Contract_Conqueror_Series/StakingRewards.sol\":4537:4541  this */\n      address\n        /* \"Contract_Conqueror_Series/StakingRewards.sol\":4506:4543  rewardsToken.balanceOf(address(this)) */\n      mload(0x40)\n      dup3\n      0xffffffff\n      and\n      0xe0\n      shl\n      dup2\n      mstore\n      0x04\n      add\n      tag_146\n      swap2\n      swap1\n      tag_78\n      jump\t// in\n    tag_146:\n      0x20\n      mload(0x40)\n      dup1\n      dup4\n      sub\n      dup2\n      dup7\n      gas\n      staticcall\n      iszero\n      dup1\n      iszero\n      tag_148\n      jumpi\n      returndatacopy(0x00, 0x00, returndatasize)\n      revert(0x00, returndatasize)\n    tag_148:\n      pop\n      pop\n      pop\n      pop\n      mload(0x40)\n      returndatasize\n      not(0x1f)\n      0x1f\n      dup3\n      add\n      and\n      dup3\n      add\n      dup1\n      0x40\n      mstore\n      pop\n      dup2\n      add\n      swap1\n      tag_149\n      swap2\n      swap1\n      tag_150\n      jump\t// in\n    tag_149:\n        /* \"Contract_Conqueror_Series/StakingRewards.sol\":4494:4502  duration */\n      sload(0x00)\n        /* \"Contract_Conqueror_Series/StakingRewards.sol\":4481:4491  rewardRate */\n      sload(0x03)\n        /* \"Contract_Conqueror_Series/StakingRewards.sol\":4481:4502  rewardRate * duration */\n      tag_151\n      swap2\n      swap1\n      tag_98\n      jump\t// in\n    tag_151:\n        /* \"Contract_Conqueror_Series/StakingRewards.sol\":4481:4543  rewardRate * duration <= rewardsToken.balanceOf(address(this)) */\n      gt\n      iszero\n        /* \"Contract_Conqueror_Series/StakingRewards.sol\":4473:4568  require(rewardRate * duration <= rewardsToken.balanceOf(address(this)), \"Insufficient rewards\") */\n      tag_152\n      jumpi\n      mload(0x40)\n      0x08c379a000000000000000000000000000000000000000000000000000000000\n      dup2\n      mstore\n      0x04\n      add\n      tag_153\n      swap1\n      tag_154\n      jump\t// in\n    tag_153:\n      mload(0x40)\n      dup1\n      swap2\n      sub\n      swap1\n      revert\n    tag_152:\n        /* \"Contract_Conqueror_Series/StakingRewards.sol\":4610:4618  duration */\n      sload(0x00)\n        /* \"Contract_Conqueror_Series/StakingRewards.sol\":4592:4607  block.timestamp */\n      timestamp\n        /* \"Contract_Conqueror_Series/StakingRewards.sol\":4592:4618  block.timestamp + duration */\n      tag_155\n      swap2\n      swap1\n      tag_102\n      jump\t// in\n    tag_155:\n        /* \"Contract_Conqueror_Series/StakingRewards.sol\":4581:4589  finishAt */\n      0x01\n        /* \"Contract_Conqueror_Series/StakingRewards.sol\":4581:4618  finishAt = block.timestamp + duration */\n      dup2\n      swap1\n      sstore\n      pop\n        /* \"Contract_Conqueror_Series/StakingRewards.sol\":4641:4656  block.timestamp */\n      timestamp\n        /* \"Contract_Conqueror_Series/StakingRewards.sol\":4629:4638  updatedAt */\n      0x02\n        /* \"Contract_Conqueror_Series/StakingRewards.sol\":4629:4656  updatedAt = block.timestamp */\n      dup2\n      swap1\n      sstore\n      pop\n        /* \"Contract_Conqueror_Series/StakingRewards.sol\":1445:1446  _ */\n      pop\n        /* \"Contract_Conqueror_Series/StakingRewards.sol\":4026:4664  function notifyRewardAmount(uint256 amount) external onlyOwner updateReward(address(0)) {... */\n      pop\n      jump\t// out\n        /* \"Contract_Conqueror_Series/StakingRewards.sol\":3519:3794  function getReward() public updateReward(msg.sender) {... */\n    tag_50:\n        /* \"Contract_Conqueror_Series/StakingRewards.sol\":3560:3570  msg.sender */\n      caller\n        /* \"Contract_Conqueror_Series/StakingRewards.sol\":1535:1551  rewardPerToken() */\n      tag_157\n        /* \"Contract_Conqueror_Series/StakingRewards.sol\":1535:1549  rewardPerToken */\n      tag_83\n        /* \"Contract_Conqueror_Series/StakingRewards.sol\":1535:1551  rewardPerToken() */\n      jump\t// in\n    tag_157:\n        /* \"Contract_Conqueror_Series/StakingRewards.sol\":1512:1532  rewardPerTokenStored */\n      0x04\n        /* \"Contract_Conqueror_Series/StakingRewards.sol\":1512:1551  rewardPerTokenStored = rewardPerToken() */\n      dup2\n      swap1\n      sstore\n      pop\n        /* \"Contract_Conqueror_Series/StakingRewards.sol\":1574:1600  lastTimeRewardApplicable() */\n      tag_158\n        /* \"Contract_Conqueror_Series/StakingRewards.sol\":1574:1598  lastTimeRewardApplicable */\n      tag_69\n        /* \"Contract_Conqueror_Series/StakingRewards.sol\":1574:1600  lastTimeRewardApplicable() */\n      jump\t// in\n    tag_158:\n        /* \"Contract_Conqueror_Series/StakingRewards.sol\":1562:1571  updatedAt */\n      0x02\n        /* \"Contract_Conqueror_Series/StakingRewards.sol\":1562:1600  updatedAt = lastTimeRewardApplicable() */\n      dup2\n      swap1\n      sstore\n      pop\n        /* \"Contract_Conqueror_Series/StakingRewards.sol\":1636:1637  0 */\n      0x00\n        /* \"Contract_Conqueror_Series/StakingRewards.sol\":1617:1638  account != address(0) */\n      0xffffffffffffffffffffffffffffffffffffffff\n      and\n        /* \"Contract_Conqueror_Series/StakingRewards.sol\":1617:1624  account */\n      dup2\n        /* \"Contract_Conqueror_Series/StakingRewards.sol\":1617:1638  account != address(0) */\n      0xffffffffffffffffffffffffffffffffffffffff\n      and\n      eq\n        /* \"Contract_Conqueror_Series/StakingRewards.sol\":1613:1770  if (account != address(0)) {... */\n      tag_159\n      jumpi\n        /* \"Contract_Conqueror_Series/StakingRewards.sol\":1674:1689  earned(account) */\n      tag_160\n        /* \"Contract_Conqueror_Series/StakingRewards.sol\":1681:1688  account */\n      dup2\n        /* \"Contract_Conqueror_Series/StakingRewards.sol\":1674:1680  earned */\n      tag_29\n        /* \"Contract_Conqueror_Series/StakingRewards.sol\":1674:1689  earned(account) */\n      jump\t// in\n    tag_160:\n        /* \"Contract_Conqueror_Series/StakingRewards.sol\":1655:1662  rewards */\n      0x06\n        /* \"Contract_Conqueror_Series/StakingRewards.sol\":1655:1671  rewards[account] */\n      0x00\n        /* \"Contract_Conqueror_Series/StakingRewards.sol\":1663:1670  account */\n      dup4\n        /* \"Contract_Conqueror_Series/StakingRewards.sol\":1655:1671  rewards[account] */\n      0xffffffffffffffffffffffffffffffffffffffff\n      and\n      0xffffffffffffffffffffffffffffffffffffffff\n      and\n      dup2\n      mstore\n      0x20\n      add\n      swap1\n      dup2\n      mstore\n      0x20\n      add\n      0x00\n      keccak256\n        /* \"Contract_Conqueror_Series/StakingRewards.sol\":1655:1689  rewards[account] = earned(account) */\n      dup2\n      swap1\n      sstore\n      pop\n        /* \"Contract_Conqueror_Series/StakingRewards.sol\":1738:1758  rewardPerTokenStored */\n      sload(0x04)\n        /* \"Contract_Conqueror_Series/StakingRewards.sol\":1704:1726  userRewardPerTokenPaid */\n      0x05\n        /* \"Contract_Conqueror_Series/StakingRewards.sol\":1704:1735  userRewardPerTokenPaid[account] */\n      0x00\n        /* \"Contract_Conqueror_Series/StakingRewards.sol\":1727:1734  account */\n      dup4\n        /* \"Contract_Conqueror_Series/StakingRewards.sol\":1704:1735  userRewardPerTokenPaid[account] */\n      0xffffffffffffffffffffffffffffffffffffffff\n      and\n      0xffffffffffffffffffffffffffffffffffffffff\n      and\n      dup2\n      mstore\n      0x20\n      add\n      swap1\n      dup2\n      mstore\n      0x20\n      add\n      0x00\n      keccak256\n        /* \"Contract_Conqueror_Series/StakingRewards.sol\":1704:1758  userRewardPerTokenPaid[account] = rewardPerTokenStored */\n      dup2\n      swap1\n      sstore\n      pop\n        /* \"Contract_Conqueror_Series/StakingRewards.sol\":1613:1770  if (account != address(0)) {... */\n    tag_159:\n        /* \"Contract_Conqueror_Series/StakingRewards.sol\":3583:3597  uint256 reward */\n      0x00\n        /* \"Contract_Conqueror_Series/StakingRewards.sol\":3600:3607  rewards */\n      0x06\n        /* \"Contract_Conqueror_Series/StakingRewards.sol\":3600:3619  rewards[msg.sender] */\n      0x00\n        /* \"Contract_Conqueror_Series/StakingRewards.sol\":3608:3618  msg.sender */\n      caller\n        /* \"Contract_Conqueror_Series/StakingRewards.sol\":3600:3619  rewards[msg.sender] */\n      0xffffffffffffffffffffffffffffffffffffffff\n      and\n      0xffffffffffffffffffffffffffffffffffffffff\n      and\n      dup2\n      mstore\n      0x20\n      add\n      swap1\n      dup2\n      mstore\n      0x20\n      add\n      0x00\n      keccak256\n      sload\n        /* \"Contract_Conqueror_Series/StakingRewards.sol\":3583:3619  uint256 reward = rewards[msg.sender] */\n      swap1\n      pop\n        /* \"Contract_Conqueror_Series/StakingRewards.sol\":3643:3644  0 */\n      0x00\n        /* \"Contract_Conqueror_Series/StakingRewards.sol\":3634:3640  reward */\n      dup2\n        /* \"Contract_Conqueror_Series/StakingRewards.sol\":3634:3644  reward > 0 */\n      gt\n        /* \"Contract_Conqueror_Series/StakingRewards.sol\":3630:3787  if (reward > 0) {... */\n      iszero\n      tag_162\n      jumpi\n        /* \"Contract_Conqueror_Series/StakingRewards.sol\":3683:3684  0 */\n      0x00\n        /* \"Contract_Conqueror_Series/StakingRewards.sol\":3661:3668  rewards */\n      0x06\n        /* \"Contract_Conqueror_Series/StakingRewards.sol\":3661:3680  rewards[msg.sender] */\n      0x00\n        /* \"Contract_Conqueror_Series/StakingRewards.sol\":3669:3679  msg.sender */\n      caller\n        /* \"Contract_Conqueror_Series/StakingRewards.sol\":3661:3680  rewards[msg.sender] */\n      0xffffffffffffffffffffffffffffffffffffffff\n      and\n      0xffffffffffffffffffffffffffffffffffffffff\n      and\n      dup2\n      mstore\n      0x20\n      add\n      swap1\n      dup2\n      mstore\n      0x20\n      add\n      0x00\n      keccak256\n        /* \"Contract_Conqueror_Series/StakingRewards.sol\":3661:3684  rewards[msg.sender] = 0 */\n      dup2\n      swap1\n      sstore\n      pop\n        /* \"Contract_Conqueror_Series/StakingRewards.sol\":3707:3719  rewardsToken */\n      immutable(\"0x880de8116b3dfac28e9ff528a9fef1d1e0a51449c1addce011ffec1f302992b6\")\n        /* \"Contract_Conqueror_Series/StakingRewards.sol\":3707:3728  rewardsToken.transfer */\n      0xffffffffffffffffffffffffffffffffffffffff\n      and\n      0xa9059cbb\n        /* \"Contract_Conqueror_Series/StakingRewards.sol\":3729:3739  msg.sender */\n      caller\n        /* \"Contract_Conqueror_Series/StakingRewards.sol\":3741:3747  reward */\n      dup4\n        /* \"Contract_Conqueror_Series/StakingRewards.sol\":3707:3748  rewardsToken.transfer(msg.sender, reward) */\n      mload(0x40)\n      dup4\n      0xffffffff\n      and\n      0xe0\n      shl\n      dup2\n      mstore\n      0x04\n      add\n      tag_163\n      swap3\n      swap2\n      swap1\n      tag_118\n      jump\t// in\n    tag_163:\n      0x20\n      mload(0x40)\n      dup1\n      dup4\n      sub\n      dup2\n      0x00\n      dup8\n      gas\n      call\n      iszero\n      dup1\n      iszero\n      tag_165\n      jumpi\n      returndatacopy(0x00, 0x00, returndatasize)\n      revert(0x00, returndatasize)\n    tag_165:\n      pop\n      pop\n      pop\n      pop\n      mload(0x40)\n      returndatasize\n      not(0x1f)\n      0x1f\n      dup3\n      add\n      and\n      dup3\n      add\n      dup1\n      0x40\n      mstore\n      pop\n      dup2\n      add\n      swap1\n      tag_166\n      swap2\n      swap1\n      tag_122\n      jump\t// in\n    tag_166:\n        /* \"Contract_Conqueror_Series/StakingRewards.sol\":3699:3775  require(rewardsToken.transfer(msg.sender, reward), \"Reward transfer failed\") */\n      tag_167\n      jumpi\n      mload(0x40)\n      0x08c379a000000000000000000000000000000000000000000000000000000000\n      dup2\n      mstore\n      0x04\n      add\n      tag_168\n      swap1\n      tag_169\n      jump\t// in\n    tag_168:\n      mload(0x40)\n      dup1\n      swap2\n      sub\n      swap1\n      revert\n    tag_167:\n        /* \"Contract_Conqueror_Series/StakingRewards.sol\":3630:3787  if (reward > 0) {... */\n    tag_162:\n        /* \"Contract_Conqueror_Series/StakingRewards.sol\":3572:3794  {... */\n      pop\n        /* \"Contract_Conqueror_Series/StakingRewards.sol\":3519:3794  function getReward() public updateReward(msg.sender) {... */\n      pop\n      jump\t// out\n        /* \"Contract_Conqueror_Series/StakingRewards.sol\":652:675  uint256 public finishAt */\n    tag_52:\n      sload(0x01)\n      dup2\n      jump\t// out\n        /* \"Contract_Conqueror_Series/StakingRewards.sol\":1248:1292  mapping(address => uint256) public balanceOf */\n    tag_56:\n      mstore(0x20, 0x08)\n      dup1\n      0x00\n      mstore\n      keccak256(0x00, 0x40)\n      0x00\n      swap2\n      pop\n      swap1\n      pop\n      sload\n      dup2\n      jump\t// out\n        /* \"Contract_Conqueror_Series/StakingRewards.sol\":422:458  IERC20 public immutable stakingToken */\n    tag_59:\n      immutable(\"0x5bc0457d8881b800fd1bc0d6df907345b3bf287e43a5790ded3d08dbacf9c03a\")\n      dup2\n      jump\t// out\n        /* \"Contract_Conqueror_Series/StakingRewards.sol\":722:746  uint256 public updatedAt */\n    tag_63:\n      sload(0x02)\n      dup2\n      jump\t// out\n        /* \"Contract_Conqueror_Series/StakingRewards.sol\":808:833  uint256 public rewardRate */\n    tag_66:\n      sload(0x03)\n      dup2\n      jump\t// out\n        /* \"Contract_Conqueror_Series/StakingRewards.sol\":2044:2191  function lastTimeRewardApplicable() public view returns (uint256) {... */\n    tag_69:\n        /* \"Contract_Conqueror_Series/StakingRewards.sol\":2101:2108  uint256 */\n      0x00\n        /* \"Contract_Conqueror_Series/StakingRewards.sol\":2146:2154  finishAt */\n      sload(0x01)\n        /* \"Contract_Conqueror_Series/StakingRewards.sol\":2128:2143  block.timestamp */\n      timestamp\n        /* \"Contract_Conqueror_Series/StakingRewards.sol\":2128:2154  block.timestamp < finishAt */\n      lt\n        /* \"Contract_Conqueror_Series/StakingRewards.sol\":2128:2183  block.timestamp < finishAt ? block.timestamp : finishAt */\n      tag_171\n      jumpi\n        /* \"Contract_Conqueror_Series/StakingRewards.sol\":2175:2183  finishAt */\n      sload(0x01)\n        /* \"Contract_Conqueror_Series/StakingRewards.sol\":2128:2183  block.timestamp < finishAt ? block.timestamp : finishAt */\n      jump(tag_172)\n    tag_171:\n        /* \"Contract_Conqueror_Series/StakingRewards.sol\":2157:2172  block.timestamp */\n      timestamp\n        /* \"Contract_Conqueror_Series/StakingRewards.sol\":2128:2183  block.timestamp < finishAt ? block.timestamp : finishAt */\n    tag_172:\n        /* \"Contract_Conqueror_Series/StakingRewards.sol\":2121:2183  return block.timestamp < finishAt ? block.timestamp : finishAt */\n      swap1\n      pop\n        /* \"Contract_Conqueror_Series/StakingRewards.sol\":2044:2191  function lastTimeRewardApplicable() public view returns (uint256) {... */\n      swap1\n      jump\t// out\n        /* \"Contract_Conqueror_Series/StakingRewards.sol\":971:1028  mapping(address => uint256) public userRewardPerTokenPaid */\n    tag_73:\n      mstore(0x20, 0x05)\n      dup1\n      0x00\n      mstore\n      keccak256(0x00, 0x40)\n      0x00\n      swap2\n      pop\n      swap1\n      pop\n      sload\n      dup2\n      jump\t// out\n        /* \"Contract_Conqueror_Series/StakingRewards.sol\":1327:1347  address public owner */\n    tag_76:\n      0x09\n      0x00\n      swap1\n      sload\n      swap1\n      0x0100\n      exp\n      swap1\n      div\n      0xffffffffffffffffffffffffffffffffffffffff\n      and\n      dup2\n      jump\t// out\n        /* \"Contract_Conqueror_Series/StakingRewards.sol\":2771:3069  function stake(uint256 amount) external updateReward(msg.sender) {... */\n    tag_81:\n        /* \"Contract_Conqueror_Series/StakingRewards.sol\":2824:2834  msg.sender */\n      caller\n        /* \"Contract_Conqueror_Series/StakingRewards.sol\":1535:1551  rewardPerToken() */\n      tag_174\n        /* \"Contract_Conqueror_Series/StakingRewards.sol\":1535:1549  rewardPerToken */\n      tag_83\n        /* \"Contract_Conqueror_Series/StakingRewards.sol\":1535:1551  rewardPerToken() */\n      jump\t// in\n    tag_174:\n        /* \"Contract_Conqueror_Series/StakingRewards.sol\":1512:1532  rewardPerTokenStored */\n      0x04\n        /* \"Contract_Conqueror_Series/StakingRewards.sol\":1512:1551  rewardPerTokenStored = rewardPerToken() */\n      dup2\n      swap1\n      sstore\n      pop\n        /* \"Contract_Conqueror_Series/StakingRewards.sol\":1574:1600  lastTimeRewardApplicable() */\n      tag_175\n        /* \"Contract_Conqueror_Series/StakingRewards.sol\":1574:1598  lastTimeRewardApplicable */\n      tag_69\n        /* \"Contract_Conqueror_Series/StakingRewards.sol\":1574:1600  lastTimeRewardApplicable() */\n      jump\t// in\n    tag_175:\n        /* \"Contract_Conqueror_Series/StakingRewards.sol\":1562:1571  updatedAt */\n      0x02\n        /* \"Contract_Conqueror_Series/StakingRewards.sol\":1562:1600  updatedAt = lastTimeRewardApplicable() */\n      dup2\n      swap1\n      sstore\n      pop\n        /* \"Contract_Conqueror_Series/StakingRewards.sol\":1636:1637  0 */\n      0x00\n        /* \"Contract_Conqueror_Series/StakingRewards.sol\":1617:1638  account != address(0) */\n      0xffffffffffffffffffffffffffffffffffffffff\n      and\n        /* \"Contract_Conqueror_Series/StakingRewards.sol\":1617:1624  account */\n      dup2\n        /* \"Contract_Conqueror_Series/StakingRewards.sol\":1617:1638  account != address(0) */\n      0xffffffffffffffffffffffffffffffffffffffff\n      and\n      eq\n        /* \"Contract_Conqueror_Series/StakingRewards.sol\":1613:1770  if (account != address(0)) {... */\n      tag_176\n      jumpi\n        /* \"Contract_Conqueror_Series/StakingRewards.sol\":1674:1689  earned(account) */\n      tag_177\n        /* \"Contract_Conqueror_Series/StakingRewards.sol\":1681:1688  account */\n      dup2\n        /* \"Contract_Conqueror_Series/StakingRewards.sol\":1674:1680  earned */\n      tag_29\n        /* \"Contract_Conqueror_Series/StakingRewards.sol\":1674:1689  earned(account) */\n      jump\t// in\n    tag_177:\n        /* \"Contract_Conqueror_Series/StakingRewards.sol\":1655:1662  rewards */\n      0x06\n        /* \"Contract_Conqueror_Series/StakingRewards.sol\":1655:1671  rewards[account] */\n      0x00\n        /* \"Contract_Conqueror_Series/StakingRewards.sol\":1663:1670  account */\n      dup4\n        /* \"Contract_Conqueror_Series/StakingRewards.sol\":1655:1671  rewards[account] */\n      0xffffffffffffffffffffffffffffffffffffffff\n      and\n      0xffffffffffffffffffffffffffffffffffffffff\n      and\n      dup2\n      mstore\n      0x20\n      add\n      swap1\n      dup2\n      mstore\n      0x20\n      add\n      0x00\n      keccak256\n        /* \"Contract_Conqueror_Series/StakingRewards.sol\":1655:1689  rewards[account] = earned(account) */\n      dup2\n      swap1\n      sstore\n      pop\n        /* \"Contract_Conqueror_Series/StakingRewards.sol\":1738:1758  rewardPerTokenStored */\n      sload(0x04)\n        /* \"Contract_Conqueror_Series/StakingRewards.sol\":1704:1726  userRewardPerTokenPaid */\n      0x05\n        /* \"Contract_Conqueror_Series/StakingRewards.sol\":1704:1735  userRewardPerTokenPaid[account] */\n      0x00\n        /* \"Contract_Conqueror_Series/StakingRewards.sol\":1727:1734  account */\n      dup4\n        /* \"Contract_Conqueror_Series/StakingRewards.sol\":1704:1735  userRewardPerTokenPaid[account] */\n      0xffffffffffffffffffffffffffffffffffffffff\n      and\n      0xffffffffffffffffffffffffffffffffffffffff\n      and\n      dup2\n      mstore\n      0x20\n      add\n      swap1\n      dup2\n      mstore\n      0x20\n      add\n      0x00\n      keccak256\n        /* \"Contract_Conqueror_Series/StakingRewards.sol\":1704:1758  userRewardPerTokenPaid[account] = rewardPerTokenStored */\n      dup2\n      swap1\n      sstore\n      pop\n        /* \"Contract_Conqueror_Series/StakingRewards.sol\":1613:1770  if (account != address(0)) {... */\n    tag_176:\n        /* \"Contract_Conqueror_Series/StakingRewards.sol\":2864:2865  0 */\n      0x00\n        /* \"Contract_Conqueror_Series/StakingRewards.sol\":2855:2861  amount */\n      dup3\n        /* \"Contract_Conqueror_Series/StakingRewards.sol\":2855:2865  amount > 0 */\n      gt\n        /* \"Contract_Conqueror_Series/StakingRewards.sol\":2847:2884  require(amount > 0, \"Cannot stake 0\") */\n      tag_179\n      jumpi\n      mload(0x40)\n      0x08c379a000000000000000000000000000000000000000000000000000000000\n      dup2\n      mstore\n      0x04\n      add\n      tag_180\n      swap1\n      tag_181\n      jump\t// in\n    tag_180:\n      mload(0x40)\n      dup1\n      swap2\n      sub\n      swap1\n      revert\n    tag_179:\n        /* \"Contract_Conqueror_Series/StakingRewards.sol\":2912:2918  amount */\n      dup2\n        /* \"Contract_Conqueror_Series/StakingRewards.sol\":2897:2908  totalSupply */\n      0x07\n      0x00\n        /* \"Contract_Conqueror_Series/StakingRewards.sol\":2897:2918  totalSupply += amount */\n      dup3\n      dup3\n      sload\n      tag_182\n      swap2\n      swap1\n      tag_102\n      jump\t// in\n    tag_182:\n      swap3\n      pop\n      pop\n      dup2\n      swap1\n      sstore\n      pop\n        /* \"Contract_Conqueror_Series/StakingRewards.sol\":2954:2960  amount */\n      dup2\n        /* \"Contract_Conqueror_Series/StakingRewards.sol\":2929:2938  balanceOf */\n      0x08\n        /* \"Contract_Conqueror_Series/StakingRewards.sol\":2929:2950  balanceOf[msg.sender] */\n      0x00\n        /* \"Contract_Conqueror_Series/StakingRewards.sol\":2939:2949  msg.sender */\n      caller\n        /* \"Contract_Conqueror_Series/StakingRewards.sol\":2929:2950  balanceOf[msg.sender] */\n      0xffffffffffffffffffffffffffffffffffffffff\n      and\n      0xffffffffffffffffffffffffffffffffffffffff\n      and\n      dup2\n      mstore\n      0x20\n      add\n      swap1\n      dup2\n      mstore\n      0x20\n      add\n      0x00\n      keccak256\n      0x00\n        /* \"Contract_Conqueror_Series/StakingRewards.sol\":2929:2960  balanceOf[msg.sender] += amount */\n      dup3\n      dup3\n      sload\n      tag_183\n      swap2\n      swap1\n      tag_102\n      jump\t// in\n    tag_183:\n      swap3\n      pop\n      pop\n      dup2\n      swap1\n      sstore\n      pop\n        /* \"Contract_Conqueror_Series/StakingRewards.sol\":2981:2993  stakingToken */\n      immutable(\"0x5bc0457d8881b800fd1bc0d6df907345b3bf287e43a5790ded3d08dbacf9c03a\")\n        /* \"Contract_Conqueror_Series/StakingRewards.sol\":2981:3006  stakingToken.transferFrom */\n      0xffffffffffffffffffffffffffffffffffffffff\n      and\n      0x23b872dd\n        /* \"Contract_Conqueror_Series/StakingRewards.sol\":3007:3017  msg.sender */\n      caller\n        /* \"Contract_Conqueror_Series/StakingRewards.sol\":3027:3031  this */\n      address\n        /* \"Contract_Conqueror_Series/StakingRewards.sol\":3034:3040  amount */\n      dup6\n        /* \"Contract_Conqueror_Series/StakingRewards.sol\":2981:3041  stakingToken.transferFrom(msg.sender, address(this), amount) */\n      mload(0x40)\n      dup5\n      0xffffffff\n      and\n      0xe0\n      shl\n      dup2\n      mstore\n      0x04\n      add\n      tag_184\n      swap4\n      swap3\n      swap2\n      swap1\n      tag_185\n      jump\t// in\n    tag_184:\n      0x20\n      mload(0x40)\n      dup1\n      dup4\n      sub\n      dup2\n      0x00\n      dup8\n      gas\n      call\n      iszero\n      dup1\n      iszero\n      tag_187\n      jumpi\n      returndatacopy(0x00, 0x00, returndatasize)\n      revert(0x00, returndatasize)\n    tag_187:\n      pop\n      pop\n      pop\n      pop\n      mload(0x40)\n      returndatasize\n      not(0x1f)\n      0x1f\n      dup3\n      add\n      and\n      dup3\n      add\n      dup1\n      0x40\n      mstore\n      pop\n      dup2\n      add\n      swap1\n      tag_188\n      swap2\n      swap1\n      tag_122\n      jump\t// in\n    tag_188:\n        /* \"Contract_Conqueror_Series/StakingRewards.sol\":2973:3061  require(stakingToken.transferFrom(msg.sender, address(this), amount), \"Transfer failed\") */\n      tag_189\n      jumpi\n      mload(0x40)\n      0x08c379a000000000000000000000000000000000000000000000000000000000\n      dup2\n      mstore\n      0x04\n      add\n      tag_190\n      swap1\n      tag_125\n      jump\t// in\n    tag_190:\n      mload(0x40)\n      dup1\n      swap2\n      sub\n      swap1\n      revert\n    tag_189:\n        /* \"Contract_Conqueror_Series/StakingRewards.sol\":2771:3069  function stake(uint256 amount) external updateReward(msg.sender) {... */\n      pop\n      pop\n      jump\t// out\n        /* \"Contract_Conqueror_Series/StakingRewards.sol\":2199:2492  function rewardPerToken() public view returns (uint256) {... */\n    tag_83:\n        /* \"Contract_Conqueror_Series/StakingRewards.sol\":2246:2253  uint256 */\n      0x00\n        /* \"Contract_Conqueror_Series/StakingRewards.sol\":2285:2286  0 */\n      0x00\n        /* \"Contract_Conqueror_Series/StakingRewards.sol\":2270:2281  totalSupply */\n      sload(0x07)\n        /* \"Contract_Conqueror_Series/StakingRewards.sol\":2270:2286  totalSupply == 0 */\n      sub\n        /* \"Contract_Conqueror_Series/StakingRewards.sol\":2266:2342  if (totalSupply == 0) {... */\n      tag_192\n      jumpi\n        /* \"Contract_Conqueror_Series/StakingRewards.sol\":2310:2330  rewardPerTokenStored */\n      sload(0x04)\n        /* \"Contract_Conqueror_Series/StakingRewards.sol\":2303:2330  return rewardPerTokenStored */\n      swap1\n      pop\n      jump(tag_191)\n        /* \"Contract_Conqueror_Series/StakingRewards.sol\":2266:2342  if (totalSupply == 0) {... */\n    tag_192:\n        /* \"Contract_Conqueror_Series/StakingRewards.sol\":2473:2484  totalSupply */\n      sload(0x07)\n        /* \"Contract_Conqueror_Series/StakingRewards.sol\":2465:2469  1e18 */\n      0x0de0b6b3a7640000\n        /* \"Contract_Conqueror_Series/StakingRewards.sol\":2452:2461  updatedAt */\n      sload(0x02)\n        /* \"Contract_Conqueror_Series/StakingRewards.sol\":2423:2449  lastTimeRewardApplicable() */\n      tag_193\n        /* \"Contract_Conqueror_Series/StakingRewards.sol\":2423:2447  lastTimeRewardApplicable */\n      tag_69\n        /* \"Contract_Conqueror_Series/StakingRewards.sol\":2423:2449  lastTimeRewardApplicable() */\n      jump\t// in\n    tag_193:\n        /* \"Contract_Conqueror_Series/StakingRewards.sol\":2423:2461  lastTimeRewardApplicable() - updatedAt */\n      tag_194\n      swap2\n      swap1\n      tag_96\n      jump\t// in\n    tag_194:\n        /* \"Contract_Conqueror_Series/StakingRewards.sol\":2409:2419  rewardRate */\n      sload(0x03)\n        /* \"Contract_Conqueror_Series/StakingRewards.sol\":2409:2462  rewardRate * (lastTimeRewardApplicable() - updatedAt) */\n      tag_195\n      swap2\n      swap1\n      tag_98\n      jump\t// in\n    tag_195:\n        /* \"Contract_Conqueror_Series/StakingRewards.sol\":2409:2469  rewardRate * (lastTimeRewardApplicable() - updatedAt) * 1e18 */\n      tag_196\n      swap2\n      swap1\n      tag_98\n      jump\t// in\n    tag_196:\n        /* \"Contract_Conqueror_Series/StakingRewards.sol\":2408:2484  (rewardRate * (lastTimeRewardApplicable() - updatedAt) * 1e18) / totalSupply */\n      tag_197\n      swap2\n      swap1\n      tag_100\n      jump\t// in\n    tag_197:\n        /* \"Contract_Conqueror_Series/StakingRewards.sol\":2372:2392  rewardPerTokenStored */\n      sload(0x04)\n        /* \"Contract_Conqueror_Series/StakingRewards.sol\":2372:2484  rewardPerTokenStored... */\n      tag_198\n      swap2\n      swap1\n      tag_102\n      jump\t// in\n    tag_198:\n        /* \"Contract_Conqueror_Series/StakingRewards.sol\":2352:2484  return... */\n      swap1\n      pop\n        /* \"Contract_Conqueror_Series/StakingRewards.sol\":2199:2492  function rewardPerToken() public view returns (uint256) {... */\n    tag_191:\n      swap1\n      jump\t// out\n        /* \"Contract_Conqueror_Series/StakingRewards.sol\":487:523  IERC20 public immutable rewardsToken */\n    tag_86:\n      immutable(\"0x880de8116b3dfac28e9ff528a9fef1d1e0a51449c1addce011ffec1f302992b6\")\n      dup2\n      jump\t// out\n        /* \"Contract_Conqueror_Series/StakingRewards.sol\":888:923  uint256 public rewardPerTokenStored */\n    tag_89:\n      sload(0x04)\n      dup2\n      jump\t// out\n        /* \"Contract_Conqueror_Series/StakingRewards.sol\":3863:3960  function exit() external {... */\n    tag_92:\n        /* \"Contract_Conqueror_Series/StakingRewards.sol\":3899:3930  withdraw(balanceOf[msg.sender]) */\n      tag_200\n        /* \"Contract_Conqueror_Series/StakingRewards.sol\":3908:3917  balanceOf */\n      0x08\n        /* \"Contract_Conqueror_Series/StakingRewards.sol\":3908:3929  balanceOf[msg.sender] */\n      0x00\n        /* \"Contract_Conqueror_Series/StakingRewards.sol\":3918:3928  msg.sender */\n      caller\n        /* \"Contract_Conqueror_Series/StakingRewards.sol\":3908:3929  balanceOf[msg.sender] */\n      0xffffffffffffffffffffffffffffffffffffffff\n      and\n      0xffffffffffffffffffffffffffffffffffffffff\n      and\n      dup2\n      mstore\n      0x20\n      add\n      swap1\n      dup2\n      mstore\n      0x20\n      add\n      0x00\n      keccak256\n      sload\n        /* \"Contract_Conqueror_Series/StakingRewards.sol\":3899:3907  withdraw */\n      tag_45\n        /* \"Contract_Conqueror_Series/StakingRewards.sol\":3899:3930  withdraw(balanceOf[msg.sender]) */\n      jump\t// in\n    tag_200:\n        /* \"Contract_Conqueror_Series/StakingRewards.sol\":3941:3952  getReward() */\n      tag_201\n        /* \"Contract_Conqueror_Series/StakingRewards.sol\":3941:3950  getReward */\n      tag_50\n        /* \"Contract_Conqueror_Series/StakingRewards.sol\":3941:3952  getReward() */\n      jump\t// in\n    tag_201:\n        /* \"Contract_Conqueror_Series/StakingRewards.sol\":3863:3960  function exit() external {... */\n      jump\t// out\n        /* \"#utility.yul\":88:205   */\n    tag_203:\n        /* \"#utility.yul\":197:198   */\n      0x00\n        /* \"#utility.yul\":194:195   */\n      0x00\n        /* \"#utility.yul\":187:199   */\n      revert\n        /* \"#utility.yul\":334:460   */\n    tag_205:\n        /* \"#utility.yul\":371:378   */\n      0x00\n        /* \"#utility.yul\":411:453   */\n      0xffffffffffffffffffffffffffffffffffffffff\n        /* \"#utility.yul\":404:409   */\n      dup3\n        /* \"#utility.yul\":400:454   */\n      and\n        /* \"#utility.yul\":389:454   */\n      swap1\n      pop\n        /* \"#utility.yul\":334:460   */\n      swap2\n      swap1\n      pop\n      jump\t// out\n        /* \"#utility.yul\":466:562   */\n    tag_206:\n        /* \"#utility.yul\":503:510   */\n      0x00\n        /* \"#utility.yul\":532:556   */\n      tag_248\n        /* \"#utility.yul\":550:555   */\n      dup3\n        /* \"#utility.yul\":532:556   */\n      tag_205\n      jump\t// in\n    tag_248:\n        /* \"#utility.yul\":521:556   */\n      swap1\n      pop\n        /* \"#utility.yul\":466:562   */\n      swap2\n      swap1\n      pop\n      jump\t// out\n        /* \"#utility.yul\":568:690   */\n    tag_207:\n        /* \"#utility.yul\":641:665   */\n      tag_250\n        /* \"#utility.yul\":659:664   */\n      dup2\n        /* \"#utility.yul\":641:665   */\n      tag_206\n      jump\t// in\n    tag_250:\n        /* \"#utility.yul\":634:639   */\n      dup2\n        /* \"#utility.yul\":631:666   */\n      eq\n        /* \"#utility.yul\":621:684   */\n      tag_251\n      jumpi\n        /* \"#utility.yul\":680:681   */\n      0x00\n        /* \"#utility.yul\":677:678   */\n      0x00\n        /* \"#utility.yul\":670:682   */\n      revert\n        /* \"#utility.yul\":621:684   */\n    tag_251:\n        /* \"#utility.yul\":568:690   */\n      pop\n      jump\t// out\n        /* \"#utility.yul\":696:835   */\n    tag_208:\n        /* \"#utility.yul\":742:747   */\n      0x00\n        /* \"#utility.yul\":780:786   */\n      dup2\n        /* \"#utility.yul\":767:787   */\n      calldataload\n        /* \"#utility.yul\":758:787   */\n      swap1\n      pop\n        /* \"#utility.yul\":796:829   */\n      tag_253\n        /* \"#utility.yul\":823:828   */\n      dup2\n        /* \"#utility.yul\":796:829   */\n      tag_207\n      jump\t// in\n    tag_253:\n        /* \"#utility.yul\":696:835   */\n      swap3\n      swap2\n      pop\n      pop\n      jump\t// out\n        /* \"#utility.yul\":841:1170   */\n    tag_28:\n        /* \"#utility.yul\":900:906   */\n      0x00\n        /* \"#utility.yul\":949:951   */\n      0x20\n        /* \"#utility.yul\":937:946   */\n      dup3\n        /* \"#utility.yul\":928:935   */\n      dup5\n        /* \"#utility.yul\":924:947   */\n      sub\n        /* \"#utility.yul\":920:952   */\n      slt\n        /* \"#utility.yul\":917:1036   */\n      iszero\n      tag_255\n      jumpi\n        /* \"#utility.yul\":955:1034   */\n      tag_256\n      tag_203\n      jump\t// in\n    tag_256:\n        /* \"#utility.yul\":917:1036   */\n    tag_255:\n        /* \"#utility.yul\":1075:1076   */\n      0x00\n        /* \"#utility.yul\":1100:1153   */\n      tag_257\n        /* \"#utility.yul\":1145:1152   */\n      dup5\n        /* \"#utility.yul\":1136:1142   */\n      dup3\n        /* \"#utility.yul\":1125:1134   */\n      dup6\n        /* \"#utility.yul\":1121:1143   */\n      add\n        /* \"#utility.yul\":1100:1153   */\n      tag_208\n      jump\t// in\n    tag_257:\n        /* \"#utility.yul\":1090:1153   */\n      swap2\n      pop\n        /* \"#utility.yul\":1046:1163   */\n      pop\n        /* \"#utility.yul\":841:1170   */\n      swap3\n      swap2\n      pop\n      pop\n      jump\t// out\n        /* \"#utility.yul\":1176:1253   */\n    tag_209:\n        /* \"#utility.yul\":1213:1220   */\n      0x00\n        /* \"#utility.yul\":1242:1247   */\n      dup2\n        /* \"#utility.yul\":1231:1247   */\n      swap1\n      pop\n        /* \"#utility.yul\":1176:1253   */\n      swap2\n      swap1\n      pop\n      jump\t// out\n        /* \"#utility.yul\":1259:1377   */\n    tag_210:\n        /* \"#utility.yul\":1346:1370   */\n      tag_260\n        /* \"#utility.yul\":1364:1369   */\n      dup2\n        /* \"#utility.yul\":1346:1370   */\n      tag_209\n      jump\t// in\n    tag_260:\n        /* \"#utility.yul\":1341:1344   */\n      dup3\n        /* \"#utility.yul\":1334:1371   */\n      mstore\n        /* \"#utility.yul\":1259:1377   */\n      pop\n      pop\n      jump\t// out\n        /* \"#utility.yul\":1383:1605   */\n    tag_31:\n        /* \"#utility.yul\":1476:1480   */\n      0x00\n        /* \"#utility.yul\":1514:1516   */\n      0x20\n        /* \"#utility.yul\":1503:1512   */\n      dup3\n        /* \"#utility.yul\":1499:1517   */\n      add\n        /* \"#utility.yul\":1491:1517   */\n      swap1\n      pop\n        /* \"#utility.yul\":1527:1598   */\n      tag_262\n        /* \"#utility.yul\":1595:1596   */\n      0x00\n        /* \"#utility.yul\":1584:1593   */\n      dup4\n        /* \"#utility.yul\":1580:1597   */\n      add\n        /* \"#utility.yul\":1571:1577   */\n      dup5\n        /* \"#utility.yul\":1527:1598   */\n      tag_210\n      jump\t// in\n    tag_262:\n        /* \"#utility.yul\":1383:1605   */\n      swap3\n      swap2\n      pop\n      pop\n      jump\t// out\n        /* \"#utility.yul\":1611:1733   */\n    tag_211:\n        /* \"#utility.yul\":1684:1708   */\n      tag_264\n        /* \"#utility.yul\":1702:1707   */\n      dup2\n        /* \"#utility.yul\":1684:1708   */\n      tag_209\n      jump\t// in\n    tag_264:\n        /* \"#utility.yul\":1677:1682   */\n      dup2\n        /* \"#utility.yul\":1674:1709   */\n      eq\n        /* \"#utility.yul\":1664:1727   */\n      tag_265\n      jumpi\n        /* \"#utility.yul\":1723:1724   */\n      0x00\n        /* \"#utility.yul\":1720:1721   */\n      0x00\n        /* \"#utility.yul\":1713:1725   */\n      revert\n        /* \"#utility.yul\":1664:1727   */\n    tag_265:\n        /* \"#utility.yul\":1611:1733   */\n      pop\n      jump\t// out\n        /* \"#utility.yul\":1739:1878   */\n    tag_212:\n        /* \"#utility.yul\":1785:1790   */\n      0x00\n        /* \"#utility.yul\":1823:1829   */\n      dup2\n        /* \"#utility.yul\":1810:1830   */\n      calldataload\n        /* \"#utility.yul\":1801:1830   */\n      swap1\n      pop\n        /* \"#utility.yul\":1839:1872   */\n      tag_267\n        /* \"#utility.yul\":1866:1871   */\n      dup2\n        /* \"#utility.yul\":1839:1872   */\n      tag_211\n      jump\t// in\n    tag_267:\n        /* \"#utility.yul\":1739:1878   */\n      swap3\n      swap2\n      pop\n      pop\n      jump\t// out\n        /* \"#utility.yul\":1884:2213   */\n    tag_44:\n        /* \"#utility.yul\":1943:1949   */\n      0x00\n        /* \"#utility.yul\":1992:1994   */\n      0x20\n        /* \"#utility.yul\":1980:1989   */\n      dup3\n        /* \"#utility.yul\":1971:1978   */\n      dup5\n        /* \"#utility.yul\":1967:1990   */\n      sub\n        /* \"#utility.yul\":1963:1995   */\n      slt\n        /* \"#utility.yul\":1960:2079   */\n      iszero\n      tag_269\n      jumpi\n        /* \"#utility.yul\":1998:2077   */\n      tag_270\n      tag_203\n      jump\t// in\n    tag_270:\n        /* \"#utility.yul\":1960:2079   */\n    tag_269:\n        /* \"#utility.yul\":2118:2119   */\n      0x00\n        /* \"#utility.yul\":2143:2196   */\n      tag_271\n        /* \"#utility.yul\":2188:2195   */\n      dup5\n        /* \"#utility.yul\":2179:2185   */\n      dup3\n        /* \"#utility.yul\":2168:2177   */\n      dup6\n        /* \"#utility.yul\":2164:2186   */\n      add\n        /* \"#utility.yul\":2143:2196   */\n      tag_212\n      jump\t// in\n    tag_271:\n        /* \"#utility.yul\":2133:2196   */\n      swap2\n      pop\n        /* \"#utility.yul\":2089:2206   */\n      pop\n        /* \"#utility.yul\":1884:2213   */\n      swap3\n      swap2\n      pop\n      pop\n      jump\t// out\n        /* \"#utility.yul\":2219:2279   */\n    tag_213:\n        /* \"#utility.yul\":2247:2250   */\n      0x00\n        /* \"#utility.yul\":2268:2273   */\n      dup2\n        /* \"#utility.yul\":2261:2273   */\n      swap1\n      pop\n        /* \"#utility.yul\":2219:2279   */\n      swap2\n      swap1\n      pop\n      jump\t// out\n        /* \"#utility.yul\":2285:2427   */\n    tag_214:\n        /* \"#utility.yul\":2335:2344   */\n      0x00\n        /* \"#utility.yul\":2368:2421   */\n      tag_274\n        /* \"#utility.yul\":2386:2420   */\n      tag_275\n        /* \"#utility.yul\":2395:2419   */\n      tag_276\n        /* \"#utility.yul\":2413:2418   */\n      dup5\n        /* \"#utility.yul\":2395:2419   */\n      tag_205\n      jump\t// in\n    tag_276:\n        /* \"#utility.yul\":2386:2420   */\n      tag_213\n      jump\t// in\n    tag_275:\n        /* \"#utility.yul\":2368:2421   */\n      tag_205\n      jump\t// in\n    tag_274:\n        /* \"#utility.yul\":2355:2421   */\n      swap1\n      pop\n        /* \"#utility.yul\":2285:2427   */\n      swap2\n      swap1\n      pop\n      jump\t// out\n        /* \"#utility.yul\":2433:2559   */\n    tag_215:\n        /* \"#utility.yul\":2483:2492   */\n      0x00\n        /* \"#utility.yul\":2516:2553   */\n      tag_278\n        /* \"#utility.yul\":2547:2552   */\n      dup3\n        /* \"#utility.yul\":2516:2553   */\n      tag_214\n      jump\t// in\n    tag_278:\n        /* \"#utility.yul\":2503:2553   */\n      swap1\n      pop\n        /* \"#utility.yul\":2433:2559   */\n      swap2\n      swap1\n      pop\n      jump\t// out\n        /* \"#utility.yul\":2565:2704   */\n    tag_216:\n        /* \"#utility.yul\":2628:2637   */\n      0x00\n        /* \"#utility.yul\":2661:2698   */\n      tag_280\n        /* \"#utility.yul\":2692:2697   */\n      dup3\n        /* \"#utility.yul\":2661:2698   */\n      tag_215\n      jump\t// in\n    tag_280:\n        /* \"#utility.yul\":2648:2698   */\n      swap1\n      pop\n        /* \"#utility.yul\":2565:2704   */\n      swap2\n      swap1\n      pop\n      jump\t// out\n        /* \"#utility.yul\":2710:2867   */\n    tag_217:\n        /* \"#utility.yul\":2810:2860   */\n      tag_282\n        /* \"#utility.yul\":2854:2859   */\n      dup2\n        /* \"#utility.yul\":2810:2860   */\n      tag_216\n      jump\t// in\n    tag_282:\n        /* \"#utility.yul\":2805:2808   */\n      dup3\n        /* \"#utility.yul\":2798:2861   */\n      mstore\n        /* \"#utility.yul\":2710:2867   */\n      pop\n      pop\n      jump\t// out\n        /* \"#utility.yul\":2873:3121   */\n    tag_61:\n        /* \"#utility.yul\":2979:2983   */\n      0x00\n        /* \"#utility.yul\":3017:3019   */\n      0x20\n        /* \"#utility.yul\":3006:3015   */\n      dup3\n        /* \"#utility.yul\":3002:3020   */\n      add\n        /* \"#utility.yul\":2994:3020   */\n      swap1\n      pop\n        /* \"#utility.yul\":3030:3114   */\n      tag_284\n        /* \"#utility.yul\":3111:3112   */\n      0x00\n        /* \"#utility.yul\":3100:3109   */\n      dup4\n        /* \"#utility.yul\":3096:3113   */\n      add\n        /* \"#utility.yul\":3087:3093   */\n      dup5\n        /* \"#utility.yul\":3030:3114   */\n      tag_217\n      jump\t// in\n    tag_284:\n        /* \"#utility.yul\":2873:3121   */\n      swap3\n      swap2\n      pop\n      pop\n      jump\t// out\n        /* \"#utility.yul\":3127:3245   */\n    tag_218:\n        /* \"#utility.yul\":3214:3238   */\n      tag_286\n        /* \"#utility.yul\":3232:3237   */\n      dup2\n        /* \"#utility.yul\":3214:3238   */\n      tag_206\n      jump\t// in\n    tag_286:\n        /* \"#utility.yul\":3209:3212   */\n      dup3\n        /* \"#utility.yul\":3202:3239   */\n      mstore\n        /* \"#utility.yul\":3127:3245   */\n      pop\n      pop\n      jump\t// out\n        /* \"#utility.yul\":3251:3473   */\n    tag_78:\n        /* \"#utility.yul\":3344:3348   */\n      0x00\n        /* \"#utility.yul\":3382:3384   */\n      0x20\n        /* \"#utility.yul\":3371:3380   */\n      dup3\n        /* \"#utility.yul\":3367:3385   */\n      add\n        /* \"#utility.yul\":3359:3385   */\n      swap1\n      pop\n        /* \"#utility.yul\":3395:3466   */\n      tag_288\n        /* \"#utility.yul\":3463:3464   */\n      0x00\n        /* \"#utility.yul\":3452:3461   */\n      dup4\n        /* \"#utility.yul\":3448:3465   */\n      add\n        /* \"#utility.yul\":3439:3445   */\n      dup5\n        /* \"#utility.yul\":3395:3466   */\n      tag_218\n      jump\t// in\n    tag_288:\n        /* \"#utility.yul\":3251:3473   */\n      swap3\n      swap2\n      pop\n      pop\n      jump\t// out\n        /* \"#utility.yul\":3479:3659   */\n    tag_219:\n        /* \"#utility.yul\":3527:3604   */\n      0x4e487b7100000000000000000000000000000000000000000000000000000000\n        /* \"#utility.yul\":3524:3525   */\n      0x00\n        /* \"#utility.yul\":3517:3605   */\n      mstore\n        /* \"#utility.yul\":3624:3628   */\n      0x11\n        /* \"#utility.yul\":3621:3622   */\n      0x04\n        /* \"#utility.yul\":3614:3629   */\n      mstore\n        /* \"#utility.yul\":3648:3652   */\n      0x24\n        /* \"#utility.yul\":3645:3646   */\n      0x00\n        /* \"#utility.yul\":3638:3653   */\n      revert\n        /* \"#utility.yul\":3665:3859   */\n    tag_96:\n        /* \"#utility.yul\":3705:3709   */\n      0x00\n        /* \"#utility.yul\":3725:3745   */\n      tag_291\n        /* \"#utility.yul\":3743:3744   */\n      dup3\n        /* \"#utility.yul\":3725:3745   */\n      tag_209\n      jump\t// in\n    tag_291:\n        /* \"#utility.yul\":3720:3745   */\n      swap2\n      pop\n        /* \"#utility.yul\":3759:3779   */\n      tag_292\n        /* \"#utility.yul\":3777:3778   */\n      dup4\n        /* \"#utility.yul\":3759:3779   */\n      tag_209\n      jump\t// in\n    tag_292:\n        /* \"#utility.yul\":3754:3779   */\n      swap3\n      pop\n        /* \"#utility.yul\":3803:3804   */\n      dup3\n        /* \"#utility.yul\":3800:3801   */\n      dup3\n        /* \"#utility.yul\":3796:3805   */\n      sub\n        /* \"#utility.yul\":3788:3805   */\n      swap1\n      pop\n        /* \"#utility.yul\":3827:3828   */\n      dup2\n        /* \"#utility.yul\":3821:3825   */\n      dup2\n        /* \"#utility.yul\":3818:3829   */\n      gt\n        /* \"#utility.yul\":3815:3852   */\n      iszero\n      tag_293\n      jumpi\n        /* \"#utility.yul\":3832:3850   */\n      tag_294\n      tag_219\n      jump\t// in\n    tag_294:\n        /* \"#utility.yul\":3815:3852   */\n    tag_293:\n        /* \"#utility.yul\":3665:3859   */\n      swap3\n      swap2\n      pop\n      pop\n      jump\t// out\n        /* \"#utility.yul\":3865:4275   */\n    tag_98:\n        /* \"#utility.yul\":3905:3912   */\n      0x00\n        /* \"#utility.yul\":3928:3948   */\n      tag_296\n        /* \"#utility.yul\":3946:3947   */\n      dup3\n        /* \"#utility.yul\":3928:3948   */\n      tag_209\n      jump\t// in\n    tag_296:\n        /* \"#utility.yul\":3923:3948   */\n      swap2\n      pop\n        /* \"#utility.yul\":3962:3982   */\n      tag_297\n        /* \"#utility.yul\":3980:3981   */\n      dup4\n        /* \"#utility.yul\":3962:3982   */\n      tag_209\n      jump\t// in\n    tag_297:\n        /* \"#utility.yul\":3957:3982   */\n      swap3\n      pop\n        /* \"#utility.yul\":4017:4018   */\n      dup3\n        /* \"#utility.yul\":4014:4015   */\n      dup3\n        /* \"#utility.yul\":4010:4019   */\n      mul\n        /* \"#utility.yul\":4039:4069   */\n      tag_298\n        /* \"#utility.yul\":4057:4068   */\n      dup2\n        /* \"#utility.yul\":4039:4069   */\n      tag_209\n      jump\t// in\n    tag_298:\n        /* \"#utility.yul\":4028:4069   */\n      swap2\n      pop\n        /* \"#utility.yul\":4218:4219   */\n      dup3\n        /* \"#utility.yul\":4209:4216   */\n      dup3\n        /* \"#utility.yul\":4205:4220   */\n      div\n        /* \"#utility.yul\":4202:4203   */\n      dup5\n        /* \"#utility.yul\":4199:4221   */\n      eq\n        /* \"#utility.yul\":4179:4180   */\n      dup4\n        /* \"#utility.yul\":4172:4181   */\n      iszero\n        /* \"#utility.yul\":4152:4235   */\n      or\n        /* \"#utility.yul\":4129:4268   */\n      tag_299\n      jumpi\n        /* \"#utility.yul\":4248:4266   */\n      tag_300\n      tag_219\n      jump\t// in\n    tag_300:\n        /* \"#utility.yul\":4129:4268   */\n    tag_299:\n        /* \"#utility.yul\":3913:4275   */\n      pop\n        /* \"#utility.yul\":3865:4275   */\n      swap3\n      swap2\n      pop\n      pop\n      jump\t// out\n        /* \"#utility.yul\":4281:4461   */\n    tag_220:\n        /* \"#utility.yul\":4329:4406   */\n      0x4e487b7100000000000000000000000000000000000000000000000000000000\n        /* \"#utility.yul\":4326:4327   */\n      0x00\n        /* \"#utility.yul\":4319:4407   */\n      mstore\n        /* \"#utility.yul\":4426:4430   */\n      0x12\n        /* \"#utility.yul\":4423:4424   */\n      0x04\n        /* \"#utility.yul\":4416:4431   */\n      mstore\n        /* \"#utility.yul\":4450:4454   */\n      0x24\n        /* \"#utility.yul\":4447:4448   */\n      0x00\n        /* \"#utility.yul\":4440:4455   */\n      revert\n        /* \"#utility.yul\":4467:4652   */\n    tag_100:\n        /* \"#utility.yul\":4507:4508   */\n      0x00\n        /* \"#utility.yul\":4524:4544   */\n      tag_303\n        /* \"#utility.yul\":4542:4543   */\n      dup3\n        /* \"#utility.yul\":4524:4544   */\n      tag_209\n      jump\t// in\n    tag_303:\n        /* \"#utility.yul\":4519:4544   */\n      swap2\n      pop\n        /* \"#utility.yul\":4558:4578   */\n      tag_304\n        /* \"#utility.yul\":4576:4577   */\n      dup4\n        /* \"#utility.yul\":4558:4578   */\n      tag_209\n      jump\t// in\n    tag_304:\n        /* \"#utility.yul\":4553:4578   */\n      swap3\n      pop\n        /* \"#utility.yul\":4597:4598   */\n      dup3\n        /* \"#utility.yul\":4587:4622   */\n      tag_305\n      jumpi\n        /* \"#utility.yul\":4602:4620   */\n      tag_306\n      tag_220\n      jump\t// in\n    tag_306:\n        /* \"#utility.yul\":4587:4622   */\n    tag_305:\n        /* \"#utility.yul\":4644:4645   */\n      dup3\n        /* \"#utility.yul\":4641:4642   */\n      dup3\n        /* \"#utility.yul\":4637:4646   */\n      div\n        /* \"#utility.yul\":4632:4646   */\n      swap1\n      pop\n        /* \"#utility.yul\":4467:4652   */\n      swap3\n      swap2\n      pop\n      pop\n      jump\t// out\n        /* \"#utility.yul\":4658:4849   */\n    tag_102:\n        /* \"#utility.yul\":4698:4701   */\n      0x00\n        /* \"#utility.yul\":4717:4737   */\n      tag_308\n        /* \"#utility.yul\":4735:4736   */\n      dup3\n        /* \"#utility.yul\":4717:4737   */\n      tag_209\n      jump\t// in\n    tag_308:\n        /* \"#utility.yul\":4712:4737   */\n      swap2\n      pop\n        /* \"#utility.yul\":4751:4771   */\n      tag_309\n        /* \"#utility.yul\":4769:4770   */\n      dup4\n        /* \"#utility.yul\":4751:4771   */\n      tag_209\n      jump\t// in\n    tag_309:\n        /* \"#utility.yul\":4746:4771   */\n      swap3\n      pop\n        /* \"#utility.yul\":4794:4795   */\n      dup3\n        /* \"#utility.yul\":4791:4792   */\n      dup3\n        /* \"#utility.yul\":4787:4796   */\n      add\n        /* \"#utility.yul\":4780:4796   */\n      swap1\n      pop\n        /* \"#utility.yul\":4815:4818   */\n      dup1\n        /* \"#utility.yul\":4812:4813   */\n      dup3\n        /* \"#utility.yul\":4809:4819   */\n      gt\n        /* \"#utility.yul\":4806:4842   */\n      iszero\n      tag_310\n      jumpi\n        /* \"#utility.yul\":4822:4840   */\n      tag_311\n      tag_219\n      jump\t// in\n    tag_311:\n        /* \"#utility.yul\":4806:4842   */\n    tag_310:\n        /* \"#utility.yul\":4658:4849   */\n      swap3\n      swap2\n      pop\n      pop\n      jump\t// out\n        /* \"#utility.yul\":4855:5024   */\n    tag_221:\n        /* \"#utility.yul\":4939:4950   */\n      0x00\n        /* \"#utility.yul\":4973:4979   */\n      dup3\n        /* \"#utility.yul\":4968:4971   */\n      dup3\n        /* \"#utility.yul\":4961:4980   */\n      mstore\n        /* \"#utility.yul\":5013:5017   */\n      0x20\n        /* \"#utility.yul\":5008:5011   */\n      dup3\n        /* \"#utility.yul\":5004:5018   */\n      add\n        /* \"#utility.yul\":4989:5018   */\n      swap1\n      pop\n        /* \"#utility.yul\":4855:5024   */\n      swap3\n      swap2\n      pop\n      pop\n      jump\t// out\n        /* \"#utility.yul\":5030:5197   */\n    tag_222:\n        /* \"#utility.yul\":5170:5189   */\n      0x43616e6e6f742077697468647261772030000000000000000000000000000000\n        /* \"#utility.yul\":5166:5167   */\n      0x00\n        /* \"#utility.yul\":5158:5164   */\n      dup3\n        /* \"#utility.yul\":5154:5168   */\n      add\n        /* \"#utility.yul\":5147:5190   */\n      mstore\n        /* \"#utility.yul\":5030:5197   */\n      pop\n      jump\t// out\n        /* \"#utility.yul\":5203:5569   */\n    tag_223:\n        /* \"#utility.yul\":5345:5348   */\n      0x00\n        /* \"#utility.yul\":5366:5433   */\n      tag_315\n        /* \"#utility.yul\":5430:5432   */\n      0x11\n        /* \"#utility.yul\":5425:5428   */\n      dup4\n        /* \"#utility.yul\":5366:5433   */\n      tag_221\n      jump\t// in\n    tag_315:\n        /* \"#utility.yul\":5359:5433   */\n      swap2\n      pop\n        /* \"#utility.yul\":5442:5535   */\n      tag_316\n        /* \"#utility.yul\":5531:5534   */\n      dup3\n        /* \"#utility.yul\":5442:5535   */\n      tag_222\n      jump\t// in\n    tag_316:\n        /* \"#utility.yul\":5560:5562   */\n      0x20\n        /* \"#utility.yul\":5555:5558   */\n      dup3\n        /* \"#utility.yul\":5551:5563   */\n      add\n        /* \"#utility.yul\":5544:5563   */\n      swap1\n      pop\n        /* \"#utility.yul\":5203:5569   */\n      swap2\n      swap1\n      pop\n      jump\t// out\n        /* \"#utility.yul\":5575:5994   */\n    tag_111:\n        /* \"#utility.yul\":5741:5745   */\n      0x00\n        /* \"#utility.yul\":5779:5781   */\n      0x20\n        /* \"#utility.yul\":5768:5777   */\n      dup3\n        /* \"#utility.yul\":5764:5782   */\n      add\n        /* \"#utility.yul\":5756:5782   */\n      swap1\n      pop\n        /* \"#utility.yul\":5828:5837   */\n      dup2\n        /* \"#utility.yul\":5822:5826   */\n      dup2\n        /* \"#utility.yul\":5818:5838   */\n      sub\n        /* \"#utility.yul\":5814:5815   */\n      0x00\n        /* \"#utility.yul\":5803:5812   */\n      dup4\n        /* \"#utility.yul\":5799:5816   */\n      add\n        /* \"#utility.yul\":5792:5839   */\n      mstore\n        /* \"#utility.yul\":5856:5987   */\n      tag_318\n        /* \"#utility.yul\":5982:5986   */\n      dup2\n        /* \"#utility.yul\":5856:5987   */\n      tag_223\n      jump\t// in\n    tag_318:\n        /* \"#utility.yul\":5848:5987   */\n      swap1\n      pop\n        /* \"#utility.yul\":5575:5994   */\n      swap2\n      swap1\n      pop\n      jump\t// out\n        /* \"#utility.yul\":6000:6181   */\n    tag_224:\n        /* \"#utility.yul\":6140:6173   */\n      0x576974686472617720616d6f756e7420657863656564732062616c616e636500\n        /* \"#utility.yul\":6136:6137   */\n      0x00\n        /* \"#utility.yul\":6128:6134   */\n      dup3\n        /* \"#utility.yul\":6124:6138   */\n      add\n        /* \"#utility.yul\":6117:6174   */\n      mstore\n        /* \"#utility.yul\":6000:6181   */\n      pop\n      jump\t// out\n        /* \"#utility.yul\":6187:6553   */\n    tag_225:\n        /* \"#utility.yul\":6329:6332   */\n      0x00\n        /* \"#utility.yul\":6350:6417   */\n      tag_321\n        /* \"#utility.yul\":6414:6416   */\n      0x1f\n        /* \"#utility.yul\":6409:6412   */\n      dup4\n        /* \"#utility.yul\":6350:6417   */\n      tag_221\n      jump\t// in\n    tag_321:\n        /* \"#utility.yul\":6343:6417   */\n      swap2\n      pop\n        /* \"#utility.yul\":6426:6519   */\n      tag_322\n        /* \"#utility.yul\":6515:6518   */\n      dup3\n        /* \"#utility.yul\":6426:6519   */\n      tag_224\n      jump\t// in\n    tag_322:\n        /* \"#utility.yul\":6544:6546   */\n      0x20\n        /* \"#utility.yul\":6539:6542   */\n      dup3\n        /* \"#utility.yul\":6535:6547   */\n      add\n        /* \"#utility.yul\":6528:6547   */\n      swap1\n      pop\n        /* \"#utility.yul\":6187:6553   */\n      swap2\n      swap1\n      pop\n      jump\t// out\n        /* \"#utility.yul\":6559:6978   */\n    tag_114:\n        /* \"#utility.yul\":6725:6729   */\n      0x00\n        /* \"#utility.yul\":6763:6765   */\n      0x20\n        /* \"#utility.yul\":6752:6761   */\n      dup3\n        /* \"#utility.yul\":6748:6766   */\n      add\n        /* \"#utility.yul\":6740:6766   */\n      swap1\n      pop\n        /* \"#utility.yul\":6812:6821   */\n      dup2\n        /* \"#utility.yul\":6806:6810   */\n      dup2\n        /* \"#utility.yul\":6802:6822   */\n      sub\n        /* \"#utility.yul\":6798:6799   */\n      0x00\n        /* \"#utility.yul\":6787:6796   */\n      dup4\n        /* \"#utility.yul\":6783:6800   */\n      add\n        /* \"#utility.yul\":6776:6823   */\n      mstore\n        /* \"#utility.yul\":6840:6971   */\n      tag_324\n        /* \"#utility.yul\":6966:6970   */\n      dup2\n        /* \"#utility.yul\":6840:6971   */\n      tag_225\n      jump\t// in\n    tag_324:\n        /* \"#utility.yul\":6832:6971   */\n      swap1\n      pop\n        /* \"#utility.yul\":6559:6978   */\n      swap2\n      swap1\n      pop\n      jump\t// out\n        /* \"#utility.yul\":6984:7316   */\n    tag_118:\n        /* \"#utility.yul\":7105:7109   */\n      0x00\n        /* \"#utility.yul\":7143:7145   */\n      0x40\n        /* \"#utility.yul\":7132:7141   */\n      dup3\n        /* \"#utility.yul\":7128:7146   */\n      add\n        /* \"#utility.yul\":7120:7146   */\n      swap1\n      pop\n        /* \"#utility.yul\":7156:7227   */\n      tag_326\n        /* \"#utility.yul\":7224:7225   */\n      0x00\n        /* \"#utility.yul\":7213:7222   */\n      dup4\n        /* \"#utility.yul\":7209:7226   */\n      add\n        /* \"#utility.yul\":7200:7206   */\n      dup6\n        /* \"#utility.yul\":7156:7227   */\n      tag_218\n      jump\t// in\n    tag_326:\n        /* \"#utility.yul\":7237:7309   */\n      tag_327\n        /* \"#utility.yul\":7305:7307   */\n      0x20\n        /* \"#utility.yul\":7294:7303   */\n      dup4\n        /* \"#utility.yul\":7290:7308   */\n      add\n        /* \"#utility.yul\":7281:7287   */\n      dup5\n        /* \"#utility.yul\":7237:7309   */\n      tag_210\n      jump\t// in\n    tag_327:\n        /* \"#utility.yul\":6984:7316   */\n      swap4\n      swap3\n      pop\n      pop\n      pop\n      jump\t// out\n        /* \"#utility.yul\":7322:7412   */\n    tag_226:\n        /* \"#utility.yul\":7356:7363   */\n      0x00\n        /* \"#utility.yul\":7399:7404   */\n      dup2\n        /* \"#utility.yul\":7392:7405   */\n      iszero\n        /* \"#utility.yul\":7385:7406   */\n      iszero\n        /* \"#utility.yul\":7374:7406   */\n      swap1\n      pop\n        /* \"#utility.yul\":7322:7412   */\n      swap2\n      swap1\n      pop\n      jump\t// out\n        /* \"#utility.yul\":7418:7534   */\n    tag_227:\n        /* \"#utility.yul\":7488:7509   */\n      tag_330\n        /* \"#utility.yul\":7503:7508   */\n      dup2\n        /* \"#utility.yul\":7488:7509   */\n      tag_226\n      jump\t// in\n    tag_330:\n        /* \"#utility.yul\":7481:7486   */\n      dup2\n        /* \"#utility.yul\":7478:7510   */\n      eq\n        /* \"#utility.yul\":7468:7528   */\n      tag_331\n      jumpi\n        /* \"#utility.yul\":7524:7525   */\n      0x00\n        /* \"#utility.yul\":7521:7522   */\n      0x00\n        /* \"#utility.yul\":7514:7526   */\n      revert\n        /* \"#utility.yul\":7468:7528   */\n    tag_331:\n        /* \"#utility.yul\":7418:7534   */\n      pop\n      jump\t// out\n        /* \"#utility.yul\":7540:7677   */\n    tag_228:\n        /* \"#utility.yul\":7594:7599   */\n      0x00\n        /* \"#utility.yul\":7625:7631   */\n      dup2\n        /* \"#utility.yul\":7619:7632   */\n      mload\n        /* \"#utility.yul\":7610:7632   */\n      swap1\n      pop\n        /* \"#utility.yul\":7641:7671   */\n      tag_333\n        /* \"#utility.yul\":7665:7670   */\n      dup2\n        /* \"#utility.yul\":7641:7671   */\n      tag_227\n      jump\t// in\n    tag_333:\n        /* \"#utility.yul\":7540:7677   */\n      swap3\n      swap2\n      pop\n      pop\n      jump\t// out\n        /* \"#utility.yul\":7683:8028   */\n    tag_122:\n        /* \"#utility.yul\":7750:7756   */\n      0x00\n        /* \"#utility.yul\":7799:7801   */\n      0x20\n        /* \"#utility.yul\":7787:7796   */\n      dup3\n        /* \"#utility.yul\":7778:7785   */\n      dup5\n        /* \"#utility.yul\":7774:7797   */\n      sub\n        /* \"#utility.yul\":7770:7802   */\n      slt\n        /* \"#utility.yul\":7767:7886   */\n      iszero\n      tag_335\n      jumpi\n        /* \"#utility.yul\":7805:7884   */\n      tag_336\n      tag_203\n      jump\t// in\n    tag_336:\n        /* \"#utility.yul\":7767:7886   */\n    tag_335:\n        /* \"#utility.yul\":7925:7926   */\n      0x00\n        /* \"#utility.yul\":7950:8011   */\n      tag_337\n        /* \"#utility.yul\":8003:8010   */\n      dup5\n        /* \"#utility.yul\":7994:8000   */\n      dup3\n        /* \"#utility.yul\":7983:7992   */\n      dup6\n        /* \"#utility.yul\":7979:8001   */\n      add\n        /* \"#utility.yul\":7950:8011   */\n      tag_228\n      jump\t// in\n    tag_337:\n        /* \"#utility.yul\":7940:8011   */\n      swap2\n      pop\n        /* \"#utility.yul\":7896:8021   */\n      pop\n        /* \"#utility.yul\":7683:8028   */\n      swap3\n      swap2\n      pop\n      pop\n      jump\t// out\n        /* \"#utility.yul\":8034:8199   */\n    tag_229:\n        /* \"#utility.yul\":8174:8191   */\n      0x5472616e73666572206661696c65640000000000000000000000000000000000\n        /* \"#utility.yul\":8170:8171   */\n      0x00\n        /* \"#utility.yul\":8162:8168   */\n      dup3\n        /* \"#utility.yul\":8158:8172   */\n      add\n        /* \"#utility.yul\":8151:8192   */\n      mstore\n        /* \"#utility.yul\":8034:8199   */\n      pop\n      jump\t// out\n        /* \"#utility.yul\":8205:8571   */\n    tag_230:\n        /* \"#utility.yul\":8347:8350   */\n      0x00\n        /* \"#utility.yul\":8368:8435   */\n      tag_340\n        /* \"#utility.yul\":8432:8434   */\n      0x0f\n        /* \"#utility.yul\":8427:8430   */\n      dup4\n        /* \"#utility.yul\":8368:8435   */\n      tag_221\n      jump\t// in\n    tag_340:\n        /* \"#utility.yul\":8361:8435   */\n      swap2\n      pop\n        /* \"#utility.yul\":8444:8537   */\n      tag_341\n        /* \"#utility.yul\":8533:8536   */\n      dup3\n        /* \"#utility.yul\":8444:8537   */\n      tag_229\n      jump\t// in\n    tag_341:\n        /* \"#utility.yul\":8562:8564   */\n      0x20\n        /* \"#utility.yul\":8557:8560   */\n      dup3\n        /* \"#utility.yul\":8553:8565   */\n      add\n        /* \"#utility.yul\":8546:8565   */\n      swap1\n      pop\n        /* \"#utility.yul\":8205:8571   */\n      swap2\n      swap1\n      pop\n      jump\t// out\n        /* \"#utility.yul\":8577:8996   */\n    tag_125:\n        /* \"#utility.yul\":8743:8747   */\n      0x00\n        /* \"#utility.yul\":8781:8783   */\n      0x20\n        /* \"#utility.yul\":8770:8779   */\n      dup3\n        /* \"#utility.yul\":8766:8784   */\n      add\n        /* \"#utility.yul\":8758:8784   */\n      swap1\n      pop\n        /* \"#utility.yul\":8830:8839   */\n      dup2\n        /* \"#utility.yul\":8824:8828   */\n      dup2\n        /* \"#utility.yul\":8820:8840   */\n      sub\n        /* \"#utility.yul\":8816:8817   */\n      0x00\n        /* \"#utility.yul\":8805:8814   */\n      dup4\n        /* \"#utility.yul\":8801:8818   */\n      add\n        /* \"#utility.yul\":8794:8841   */\n      mstore\n        /* \"#utility.yul\":8858:8989   */\n      tag_343\n        /* \"#utility.yul\":8984:8988   */\n      dup2\n        /* \"#utility.yul\":8858:8989   */\n      tag_230\n      jump\t// in\n    tag_343:\n        /* \"#utility.yul\":8850:8989   */\n      swap1\n      pop\n        /* \"#utility.yul\":8577:8996   */\n      swap2\n      swap1\n      pop\n      jump\t// out\n        /* \"#utility.yul\":9002:9166   */\n    tag_231:\n        /* \"#utility.yul\":9142:9158   */\n      0x6e6f7420617574686f72697a6564000000000000000000000000000000000000\n        /* \"#utility.yul\":9138:9139   */\n      0x00\n        /* \"#utility.yul\":9130:9136   */\n      dup3\n        /* \"#utility.yul\":9126:9140   */\n      add\n        /* \"#utility.yul\":9119:9159   */\n      mstore\n        /* \"#utility.yul\":9002:9166   */\n      pop\n      jump\t// out\n        /* \"#utility.yul\":9172:9538   */\n    tag_232:\n        /* \"#utility.yul\":9314:9317   */\n      0x00\n        /* \"#utility.yul\":9335:9402   */\n      tag_346\n        /* \"#utility.yul\":9399:9401   */\n      0x0e\n        /* \"#utility.yul\":9394:9397   */\n      dup4\n        /* \"#utility.yul\":9335:9402   */\n      tag_221\n      jump\t// in\n    tag_346:\n        /* \"#utility.yul\":9328:9402   */\n      swap2\n      pop\n        /* \"#utility.yul\":9411:9504   */\n      tag_347\n        /* \"#utility.yul\":9500:9503   */\n      dup3\n        /* \"#utility.yul\":9411:9504   */\n      tag_231\n      jump\t// in\n    tag_347:\n        /* \"#utility.yul\":9529:9531   */\n      0x20\n        /* \"#utility.yul\":9524:9527   */\n      dup3\n        /* \"#utility.yul\":9520:9532   */\n      add\n        /* \"#utility.yul\":9513:9532   */\n      swap1\n      pop\n        /* \"#utility.yul\":9172:9538   */\n      swap2\n      swap1\n      pop\n      jump\t// out\n        /* \"#utility.yul\":9544:9963   */\n    tag_129:\n        /* \"#utility.yul\":9710:9714   */\n      0x00\n        /* \"#utility.yul\":9748:9750   */\n      0x20\n        /* \"#utility.yul\":9737:9746   */\n      dup3\n        /* \"#utility.yul\":9733:9751   */\n      add\n        /* \"#utility.yul\":9725:9751   */\n      swap1\n      pop\n        /* \"#utility.yul\":9797:9806   */\n      dup2\n        /* \"#utility.yul\":9791:9795   */\n      dup2\n        /* \"#utility.yul\":9787:9807   */\n      sub\n        /* \"#utility.yul\":9783:9784   */\n      0x00\n        /* \"#utility.yul\":9772:9781   */\n      dup4\n        /* \"#utility.yul\":9768:9785   */\n      add\n        /* \"#utility.yul\":9761:9808   */\n      mstore\n        /* \"#utility.yul\":9825:9956   */\n      tag_349\n        /* \"#utility.yul\":9951:9955   */\n      dup2\n        /* \"#utility.yul\":9825:9956   */\n      tag_232\n      jump\t// in\n    tag_349:\n        /* \"#utility.yul\":9817:9956   */\n      swap1\n      pop\n        /* \"#utility.yul\":9544:9963   */\n      swap2\n      swap1\n      pop\n      jump\t// out\n        /* \"#utility.yul\":9969:10134   */\n    tag_233:\n        /* \"#utility.yul\":10109:10126   */\n      0x5265776172642072617465203d20300000000000000000000000000000000000\n        /* \"#utility.yul\":10105:10106   */\n      0x00\n        /* \"#utility.yul\":10097:10103   */\n      dup3\n        /* \"#utility.yul\":10093:10107   */\n      add\n        /* \"#utility.yul\":10086:10127   */\n      mstore\n        /* \"#utility.yul\":9969:10134   */\n      pop\n      jump\t// out\n        /* \"#utility.yul\":10140:10506   */\n    tag_234:\n        /* \"#utility.yul\":10282:10285   */\n      0x00\n        /* \"#utility.yul\":10303:10370   */\n      tag_352\n        /* \"#utility.yul\":10367:10369   */\n      0x0f\n        /* \"#utility.yul\":10362:10365   */\n      dup4\n        /* \"#utility.yul\":10303:10370   */\n      tag_221\n      jump\t// in\n    tag_352:\n        /* \"#utility.yul\":10296:10370   */\n      swap2\n      pop\n        /* \"#utility.yul\":10379:10472   */\n      tag_353\n        /* \"#utility.yul\":10468:10471   */\n      dup3\n        /* \"#utility.yul\":10379:10472   */\n      tag_233\n      jump\t// in\n    tag_353:\n        /* \"#utility.yul\":10497:10499   */\n      0x20\n        /* \"#utility.yul\":10492:10495   */\n      dup3\n        /* \"#utility.yul\":10488:10500   */\n      add\n        /* \"#utility.yul\":10481:10500   */\n      swap1\n      pop\n        /* \"#utility.yul\":10140:10506   */\n      swap2\n      swap1\n      pop\n      jump\t// out\n        /* \"#utility.yul\":10512:10931   */\n    tag_145:\n        /* \"#utility.yul\":10678:10682   */\n      0x00\n        /* \"#utility.yul\":10716:10718   */\n      0x20\n        /* \"#utility.yul\":10705:10714   */\n      dup3\n        /* \"#utility.yul\":10701:10719   */\n      add\n        /* \"#utility.yul\":10693:10719   */\n      swap1\n      pop\n        /* \"#utility.yul\":10765:10774   */\n      dup2\n        /* \"#utility.yul\":10759:10763   */\n      dup2\n        /* \"#utility.yul\":10755:10775   */\n      sub\n        /* \"#utility.yul\":10751:10752   */\n      0x00\n        /* \"#utility.yul\":10740:10749   */\n      dup4\n        /* \"#utility.yul\":10736:10753   */\n      add\n        /* \"#utility.yul\":10729:10776   */\n      mstore\n        /* \"#utility.yul\":10793:10924   */\n      tag_355\n        /* \"#utility.yul\":10919:10923   */\n      dup2\n        /* \"#utility.yul\":10793:10924   */\n      tag_234\n      jump\t// in\n    tag_355:\n        /* \"#utility.yul\":10785:10924   */\n      swap1\n      pop\n        /* \"#utility.yul\":10512:10931   */\n      swap2\n      swap1\n      pop\n      jump\t// out\n        /* \"#utility.yul\":10937:11080   */\n    tag_235:\n        /* \"#utility.yul\":10994:10999   */\n      0x00\n        /* \"#utility.yul\":11025:11031   */\n      dup2\n        /* \"#utility.yul\":11019:11032   */\n      mload\n        /* \"#utility.yul\":11010:11032   */\n      swap1\n      pop\n        /* \"#utility.yul\":11041:11074   */\n      tag_357\n        /* \"#utility.yul\":11068:11073   */\n      dup2\n        /* \"#utility.yul\":11041:11074   */\n      tag_211\n      jump\t// in\n    tag_357:\n        /* \"#utility.yul\":10937:11080   */\n      swap3\n      swap2\n      pop\n      pop\n      jump\t// out\n        /* \"#utility.yul\":11086:11437   */\n    tag_150:\n        /* \"#utility.yul\":11156:11162   */\n      0x00\n        /* \"#utility.yul\":11205:11207   */\n      0x20\n        /* \"#utility.yul\":11193:11202   */\n      dup3\n        /* \"#utility.yul\":11184:11191   */\n      dup5\n        /* \"#utility.yul\":11180:11203   */\n      sub\n        /* \"#utility.yul\":11176:11208   */\n      slt\n        /* \"#utility.yul\":11173:11292   */\n      iszero\n      tag_359\n      jumpi\n        /* \"#utility.yul\":11211:11290   */\n      tag_360\n      tag_203\n      jump\t// in\n    tag_360:\n        /* \"#utility.yul\":11173:11292   */\n    tag_359:\n        /* \"#utility.yul\":11331:11332   */\n      0x00\n        /* \"#utility.yul\":11356:11420   */\n      tag_361\n        /* \"#utility.yul\":11412:11419   */\n      dup5\n        /* \"#utility.yul\":11403:11409   */\n      dup3\n        /* \"#utility.yul\":11392:11401   */\n      dup6\n        /* \"#utility.yul\":11388:11410   */\n      add\n        /* \"#utility.yul\":11356:11420   */\n      tag_235\n      jump\t// in\n    tag_361:\n        /* \"#utility.yul\":11346:11420   */\n      swap2\n      pop\n        /* \"#utility.yul\":11302:11430   */\n      pop\n        /* \"#utility.yul\":11086:11437   */\n      swap3\n      swap2\n      pop\n      pop\n      jump\t// out\n        /* \"#utility.yul\":11443:11613   */\n    tag_236:\n        /* \"#utility.yul\":11583:11605   */\n      0x496e73756666696369656e742072657761726473000000000000000000000000\n        /* \"#utility.yul\":11579:11580   */\n      0x00\n        /* \"#utility.yul\":11571:11577   */\n      dup3\n        /* \"#utility.yul\":11567:11581   */\n      add\n        /* \"#utility.yul\":11560:11606   */\n      mstore\n        /* \"#utility.yul\":11443:11613   */\n      pop\n      jump\t// out\n        /* \"#utility.yul\":11619:11985   */\n    tag_237:\n        /* \"#utility.yul\":11761:11764   */\n      0x00\n        /* \"#utility.yul\":11782:11849   */\n      tag_364\n        /* \"#utility.yul\":11846:11848   */\n      0x14\n        /* \"#utility.yul\":11841:11844   */\n      dup4\n        /* \"#utility.yul\":11782:11849   */\n      tag_221\n      jump\t// in\n    tag_364:\n        /* \"#utility.yul\":11775:11849   */\n      swap2\n      pop\n        /* \"#utility.yul\":11858:11951   */\n      tag_365\n        /* \"#utility.yul\":11947:11950   */\n      dup3\n        /* \"#utility.yul\":11858:11951   */\n      tag_236\n      jump\t// in\n    tag_365:\n        /* \"#utility.yul\":11976:11978   */\n      0x20\n        /* \"#utility.yul\":11971:11974   */\n      dup3\n        /* \"#utility.yul\":11967:11979   */\n      add\n        /* \"#utility.yul\":11960:11979   */\n      swap1\n      pop\n        /* \"#utility.yul\":11619:11985   */\n      swap2\n      swap1\n      pop\n      jump\t// out\n        /* \"#utility.yul\":11991:12410   */\n    tag_154:\n        /* \"#utility.yul\":12157:12161   */\n      0x00\n        /* \"#utility.yul\":12195:12197   */\n      0x20\n        /* \"#utility.yul\":12184:12193   */\n      dup3\n        /* \"#utility.yul\":12180:12198   */\n      add\n        /* \"#utility.yul\":12172:12198   */\n      swap1\n      pop\n        /* \"#utility.yul\":12244:12253   */\n      dup2\n        /* \"#utility.yul\":12238:12242   */\n      dup2\n        /* \"#utility.yul\":12234:12254   */\n      sub\n        /* \"#utility.yul\":12230:12231   */\n      0x00\n        /* \"#utility.yul\":12219:12228   */\n      dup4\n        /* \"#utility.yul\":12215:12232   */\n      add\n        /* \"#utility.yul\":12208:12255   */\n      mstore\n        /* \"#utility.yul\":12272:12403   */\n      tag_367\n        /* \"#utility.yul\":12398:12402   */\n      dup2\n        /* \"#utility.yul\":12272:12403   */\n      tag_237\n      jump\t// in\n    tag_367:\n        /* \"#utility.yul\":12264:12403   */\n      swap1\n      pop\n        /* \"#utility.yul\":11991:12410   */\n      swap2\n      swap1\n      pop\n      jump\t// out\n        /* \"#utility.yul\":12416:12588   */\n    tag_238:\n        /* \"#utility.yul\":12556:12580   */\n      0x526577617264207472616e73666572206661696c656400000000000000000000\n        /* \"#utility.yul\":12552:12553   */\n      0x00\n        /* \"#utility.yul\":12544:12550   */\n      dup3\n        /* \"#utility.yul\":12540:12554   */\n      add\n        /* \"#utility.yul\":12533:12581   */\n      mstore\n        /* \"#utility.yul\":12416:12588   */\n      pop\n      jump\t// out\n        /* \"#utility.yul\":12594:12960   */\n    tag_239:\n        /* \"#utility.yul\":12736:12739   */\n      0x00\n        /* \"#utility.yul\":12757:12824   */\n      tag_370\n        /* \"#utility.yul\":12821:12823   */\n      0x16\n        /* \"#utility.yul\":12816:12819   */\n      dup4\n        /* \"#utility.yul\":12757:12824   */\n      tag_221\n      jump\t// in\n    tag_370:\n        /* \"#utility.yul\":12750:12824   */\n      swap2\n      pop\n        /* \"#utility.yul\":12833:12926   */\n      tag_371\n        /* \"#utility.yul\":12922:12925   */\n      dup3\n        /* \"#utility.yul\":12833:12926   */\n      tag_238\n      jump\t// in\n    tag_371:\n        /* \"#utility.yul\":12951:12953   */\n      0x20\n        /* \"#utility.yul\":12946:12949   */\n      dup3\n        /* \"#utility.yul\":12942:12954   */\n      add\n        /* \"#utility.yul\":12935:12954   */\n      swap1\n      pop\n        /* \"#utility.yul\":12594:12960   */\n      swap2\n      swap1\n      pop\n      jump\t// out\n        /* \"#utility.yul\":12966:13385   */\n    tag_169:\n        /* \"#utility.yul\":13132:13136   */\n      0x00\n        /* \"#utility.yul\":13170:13172   */\n      0x20\n        /* \"#utility.yul\":13159:13168   */\n      dup3\n        /* \"#utility.yul\":13155:13173   */\n      add\n        /* \"#utility.yul\":13147:13173   */\n      swap1\n      pop\n        /* \"#utility.yul\":13219:13228   */\n      dup2\n        /* \"#utility.yul\":13213:13217   */\n      dup2\n        /* \"#utility.yul\":13209:13229   */\n      sub\n        /* \"#utility.yul\":13205:13206   */\n      0x00\n        /* \"#utility.yul\":13194:13203   */\n      dup4\n        /* \"#utility.yul\":13190:13207   */\n      add\n        /* \"#utility.yul\":13183:13230   */\n      mstore\n        /* \"#utility.yul\":13247:13378   */\n      tag_373\n        /* \"#utility.yul\":13373:13377   */\n      dup2\n        /* \"#utility.yul\":13247:13378   */\n      tag_239\n      jump\t// in\n    tag_373:\n        /* \"#utility.yul\":13239:13378   */\n      swap1\n      pop\n        /* \"#utility.yul\":12966:13385   */\n      swap2\n      swap1\n      pop\n      jump\t// out\n        /* \"#utility.yul\":13391:13555   */\n    tag_240:\n        /* \"#utility.yul\":13531:13547   */\n      0x43616e6e6f74207374616b652030000000000000000000000000000000000000\n        /* \"#utility.yul\":13527:13528   */\n      0x00\n        /* \"#utility.yul\":13519:13525   */\n      dup3\n        /* \"#utility.yul\":13515:13529   */\n      add\n        /* \"#utility.yul\":13508:13548   */\n      mstore\n        /* \"#utility.yul\":13391:13555   */\n      pop\n      jump\t// out\n        /* \"#utility.yul\":13561:13927   */\n    tag_241:\n        /* \"#utility.yul\":13703:13706   */\n      0x00\n        /* \"#utility.yul\":13724:13791   */\n      tag_376\n        /* \"#utility.yul\":13788:13790   */\n      0x0e\n        /* \"#utility.yul\":13783:13786   */\n      dup4\n        /* \"#utility.yul\":13724:13791   */\n      tag_221\n      jump\t// in\n    tag_376:\n        /* \"#utility.yul\":13717:13791   */\n      swap2\n      pop\n        /* \"#utility.yul\":13800:13893   */\n      tag_377\n        /* \"#utility.yul\":13889:13892   */\n      dup3\n        /* \"#utility.yul\":13800:13893   */\n      tag_240\n      jump\t// in\n    tag_377:\n        /* \"#utility.yul\":13918:13920   */\n      0x20\n        /* \"#utility.yul\":13913:13916   */\n      dup3\n        /* \"#utility.yul\":13909:13921   */\n      add\n        /* \"#utility.yul\":13902:13921   */\n      swap1\n      pop\n        /* \"#utility.yul\":13561:13927   */\n      swap2\n      swap1\n      pop\n      jump\t// out\n        /* \"#utility.yul\":13933:14352   */\n    tag_181:\n        /* \"#utility.yul\":14099:14103   */\n      0x00\n        /* \"#utility.yul\":14137:14139   */\n      0x20\n        /* \"#utility.yul\":14126:14135   */\n      dup3\n        /* \"#utility.yul\":14122:14140   */\n      add\n        /* \"#utility.yul\":14114:14140   */\n      swap1\n      pop\n        /* \"#utility.yul\":14186:14195   */\n      dup2\n        /* \"#utility.yul\":14180:14184   */\n      dup2\n        /* \"#utility.yul\":14176:14196   */\n      sub\n        /* \"#utility.yul\":14172:14173   */\n      0x00\n        /* \"#utility.yul\":14161:14170   */\n      dup4\n        /* \"#utility.yul\":14157:14174   */\n      add\n        /* \"#utility.yul\":14150:14197   */\n      mstore\n        /* \"#utility.yul\":14214:14345   */\n      tag_379\n        /* \"#utility.yul\":14340:14344   */\n      dup2\n        /* \"#utility.yul\":14214:14345   */\n      tag_241\n      jump\t// in\n    tag_379:\n        /* \"#utility.yul\":14206:14345   */\n      swap1\n      pop\n        /* \"#utility.yul\":13933:14352   */\n      swap2\n      swap1\n      pop\n      jump\t// out\n        /* \"#utility.yul\":14358:14800   */\n    tag_185:\n        /* \"#utility.yul\":14507:14511   */\n      0x00\n        /* \"#utility.yul\":14545:14547   */\n      0x60\n        /* \"#utility.yul\":14534:14543   */\n      dup3\n        /* \"#utility.yul\":14530:14548   */\n      add\n        /* \"#utility.yul\":14522:14548   */\n      swap1\n      pop\n        /* \"#utility.yul\":14558:14629   */\n      tag_381\n        /* \"#utility.yul\":14626:14627   */\n      0x00\n        /* \"#utility.yul\":14615:14624   */\n      dup4\n        /* \"#utility.yul\":14611:14628   */\n      add\n        /* \"#utility.yul\":14602:14608   */\n      dup7\n        /* \"#utility.yul\":14558:14629   */\n      tag_218\n      jump\t// in\n    tag_381:\n        /* \"#utility.yul\":14639:14711   */\n      tag_382\n        /* \"#utility.yul\":14707:14709   */\n      0x20\n        /* \"#utility.yul\":14696:14705   */\n      dup4\n        /* \"#utility.yul\":14692:14710   */\n      add\n        /* \"#utility.yul\":14683:14689   */\n      dup6\n        /* \"#utility.yul\":14639:14711   */\n      tag_218\n      jump\t// in\n    tag_382:\n        /* \"#utility.yul\":14721:14793   */\n      tag_383\n        /* \"#utility.yul\":14789:14791   */\n      0x40\n        /* \"#utility.yul\":14778:14787   */\n      dup4\n        /* \"#utility.yul\":14774:14792   */\n      add\n        /* \"#utility.yul\":14765:14771   */\n      dup5\n        /* \"#utility.yul\":14721:14793   */\n      tag_210\n      jump\t// in\n    tag_383:\n        /* \"#utility.yul\":14358:14800   */\n      swap5\n      swap4\n      pop\n      pop\n      pop\n      pop\n      jump\t// out\n\n    auxdata: 0xa2646970667358221220ceb227d4a7a3042bc58aa9ddf5f6933f094c2b022b84c18de1ee1e2bbb482cab64736f6c634300081e0033\n}\n",
				"bytecode": {
					"linkReferences": {},
					"object": "60c060405234801561000f575f5ffd5b50604051611a58380380611a5883398181016040528101906100319190610178565b3360095f6101000a81548173ffffffffffffffffffffffffffffffffffffffff021916908373ffffffffffffffffffffffffffffffffffffffff1602179055508273ffffffffffffffffffffffffffffffffffffffff1660808173ffffffffffffffffffffffffffffffffffffffff16815250508173ffffffffffffffffffffffffffffffffffffffff1660a08173ffffffffffffffffffffffffffffffffffffffff1681525050805f819055505050506101c8565b5f5ffd5b5f73ffffffffffffffffffffffffffffffffffffffff82169050919050565b5f610114826100eb565b9050919050565b6101248161010a565b811461012e575f5ffd5b50565b5f8151905061013f8161011b565b92915050565b5f819050919050565b61015781610145565b8114610161575f5ffd5b50565b5f815190506101728161014e565b92915050565b5f5f5f6060848603121561018f5761018e6100e7565b5b5f61019c86828701610131565b93505060206101ad86828701610131565b92505060406101be86828701610164565b9150509250925092565b60805160a0516118536102055f395f81816109bc01528181610c2c015261107e01525f81816106c801528181610d260152610f3501526118535ff3fe608060405234801561000f575f5ffd5b5060043610610129575f3560e01c80637519ab50116100ab578063a694fc3a1161006f578063a694fc3a1461031f578063cd3daf9d1461033b578063d1af0c7d14610359578063df136d6514610377578063e9fad8ee1461039557610129565b80637519ab50146102775780637b0a47ee1461029557806380faa57d146102b35780638b876347146102d15780638da5cb5b1461030157610129565b80633c6b16ab116100f25780633c6b16ab146101e55780633d18b9121461020157806367d3b4881461020b57806370a082311461022957806372f702f31461025957610129565b80628cc2621461012d5780630700037d1461015d5780630fb5a6b41461018d57806318160ddd146101ab5780632e1a7d4d146101c9575b5f5ffd5b61014760048036038101906101429190611154565b61039f565b6040516101549190611197565b60405180910390f35b61017760048036038101906101729190611154565b61049a565b6040516101849190611197565b60405180910390f35b6101956104af565b6040516101a29190611197565b60405180910390f35b6101b36104b4565b6040516101c09190611197565b60405180910390f35b6101e360048036038101906101de91906111da565b6104ba565b005b6101ff60048036038101906101fa91906111da565b6107a4565b005b610209610ac0565b005b610213610d09565b6040516102209190611197565b60405180910390f35b610243600480360381019061023e9190611154565b610d0f565b6040516102509190611197565b60405180910390f35b610261610d24565b60405161026e9190611260565b60405180910390f35b61027f610d48565b60405161028c9190611197565b60405180910390f35b61029d610d4e565b6040516102aa9190611197565b60405180910390f35b6102bb610d54565b6040516102c89190611197565b60405180910390f35b6102eb60048036038101906102e69190611154565b610d6d565b6040516102f89190611197565b60405180910390f35b610309610d82565b6040516103169190611288565b60405180910390f35b610339600480360381019061033491906111da565b610da7565b005b610343611013565b6040516103509190611197565b60405180910390f35b61036161107c565b60405161036e9190611260565b60405180910390f35b61037f6110a0565b60405161038c9190611197565b60405180910390f35b61039d6110a6565b005b5f60065f8373ffffffffffffffffffffffffffffffffffffffff1673ffffffffffffffffffffffffffffffffffffffff1681526020019081526020015f2054670de0b6b3a764000060055f8573ffffffffffffffffffffffffffffffffffffffff1673ffffffffffffffffffffffffffffffffffffffff1681526020019081526020015f205461042d611013565b61043791906112ce565b60085f8673ffffffffffffffffffffffffffffffffffffffff1673ffffffffffffffffffffffffffffffffffffffff1681526020019081526020015f205461047f9190611301565b610489919061136f565b610493919061139f565b9050919050565b6006602052805f5260405f205f915090505481565b5f5481565b60075481565b336104c3611013565b6004819055506104d1610d54565b6002819055505f73ffffffffffffffffffffffffffffffffffffffff168173ffffffffffffffffffffffffffffffffffffffff1614610599576105138161039f565b60065f8373ffffffffffffffffffffffffffffffffffffffff1673ffffffffffffffffffffffffffffffffffffffff1681526020019081526020015f208190555060045460055f8373ffffffffffffffffffffffffffffffffffffffff1673ffffffffffffffffffffffffffffffffffffffff1681526020019081526020015f20819055505b5f82116105db576040517f08c379a00000000000000000000000000000000000000000000000000000000081526004016105d29061142c565b60405180910390fd5b8160085f3373ffffffffffffffffffffffffffffffffffffffff1673ffffffffffffffffffffffffffffffffffffffff1681526020019081526020015f2054101561065b576040517f08c379a000000000000000000000000000000000000000000000000000000000815260040161065290611494565b60405180910390fd5b8160075f82825461066c91906112ce565b925050819055508160085f3373ffffffffffffffffffffffffffffffffffffffff1673ffffffffffffffffffffffffffffffffffffffff1681526020019081526020015f205f8282546106bf91906112ce565b925050819055507f000000000000000000000000000000000000000000000000000000000000000073ffffffffffffffffffffffffffffffffffffffff1663a9059cbb33846040518363ffffffff1660e01b81526004016107219291906114b2565b6020604051808303815f875af115801561073d573d5f5f3e3d5ffd5b505050506040513d601f19601f82011682018060405250810190610761919061150e565b6107a0576040517f08c379a000000000000000000000000000000000000000000000000000000000815260040161079790611583565b60405180910390fd5b5050565b60095f9054906101000a900473ffffffffffffffffffffffffffffffffffffffff1673ffffffffffffffffffffffffffffffffffffffff163373ffffffffffffffffffffffffffffffffffffffff1614610833576040517f08c379a000000000000000000000000000000000000000000000000000000000815260040161082a906115eb565b60405180910390fd5b5f61083c611013565b60048190555061084a610d54565b6002819055505f73ffffffffffffffffffffffffffffffffffffffff168173ffffffffffffffffffffffffffffffffffffffff16146109125761088c8161039f565b60065f8373ffffffffffffffffffffffffffffffffffffffff1673ffffffffffffffffffffffffffffffffffffffff1681526020019081526020015f208190555060045460055f8373ffffffffffffffffffffffffffffffffffffffff1673ffffffffffffffffffffffffffffffffffffffff1681526020019081526020015f20819055505b6001544210610933575f5482610928919061136f565b600381905550610976565b5f4260015461094291906112ce565b90505f600354826109539190611301565b90505f548185610963919061139f565b61096d919061136f565b60038190555050505b5f600354116109ba576040517f08c379a00000000000000000000000000000000000000000000000000000000081526004016109b190611653565b60405180910390fd5b7f000000000000000000000000000000000000000000000000000000000000000073ffffffffffffffffffffffffffffffffffffffff166370a08231306040518263ffffffff1660e01b8152600401610a139190611288565b602060405180830381865afa158015610a2e573d5f5f3e3d5ffd5b505050506040513d601f19601f82011682018060405250810190610a529190611685565b5f54600354610a619190611301565b1115610aa2576040517f08c379a0000000000000000000000000000000000000000000000000000000008152600401610a99906116fa565b60405180910390fd5b5f5442610aaf919061139f565b600181905550426002819055505050565b33610ac9611013565b600481905550610ad7610d54565b6002819055505f73ffffffffffffffffffffffffffffffffffffffff168173ffffffffffffffffffffffffffffffffffffffff1614610b9f57610b198161039f565b60065f8373ffffffffffffffffffffffffffffffffffffffff1673ffffffffffffffffffffffffffffffffffffffff1681526020019081526020015f208190555060045460055f8373ffffffffffffffffffffffffffffffffffffffff1673ffffffffffffffffffffffffffffffffffffffff1681526020019081526020015f20819055505b5f60065f3373ffffffffffffffffffffffffffffffffffffffff1673ffffffffffffffffffffffffffffffffffffffff1681526020019081526020015f205490505f811115610d05575f60065f3373ffffffffffffffffffffffffffffffffffffffff1673ffffffffffffffffffffffffffffffffffffffff1681526020019081526020015f20819055507f000000000000000000000000000000000000000000000000000000000000000073ffffffffffffffffffffffffffffffffffffffff1663a9059cbb33836040518363ffffffff1660e01b8152600401610c859291906114b2565b6020604051808303815f875af1158015610ca1573d5f5f3e3d5ffd5b505050506040513d601f19601f82011682018060405250810190610cc5919061150e565b610d04576040517f08c379a0000000000000000000000000000000000000000000000000000000008152600401610cfb90611762565b60405180910390fd5b5b5050565b60015481565b6008602052805f5260405f205f915090505481565b7f000000000000000000000000000000000000000000000000000000000000000081565b60025481565b60035481565b5f6001544210610d6657600154610d68565b425b905090565b6005602052805f5260405f205f915090505481565b60095f9054906101000a900473ffffffffffffffffffffffffffffffffffffffff1681565b33610db0611013565b600481905550610dbe610d54565b6002819055505f73ffffffffffffffffffffffffffffffffffffffff168173ffffffffffffffffffffffffffffffffffffffff1614610e8657610e008161039f565b60065f8373ffffffffffffffffffffffffffffffffffffffff1673ffffffffffffffffffffffffffffffffffffffff1681526020019081526020015f208190555060045460055f8373ffffffffffffffffffffffffffffffffffffffff1673ffffffffffffffffffffffffffffffffffffffff1681526020019081526020015f20819055505b5f8211610ec8576040517f08c379a0000000000000000000000000000000000000000000000000000000008152600401610ebf906117ca565b60405180910390fd5b8160075f828254610ed9919061139f565b925050819055508160085f3373ffffffffffffffffffffffffffffffffffffffff1673ffffffffffffffffffffffffffffffffffffffff1681526020019081526020015f205f828254610f2c919061139f565b925050819055507f000000000000000000000000000000000000000000000000000000000000000073ffffffffffffffffffffffffffffffffffffffff166323b872dd3330856040518463ffffffff1660e01b8152600401610f90939291906117e8565b6020604051808303815f875af1158015610fac573d5f5f3e3d5ffd5b505050506040513d601f19601f82011682018060405250810190610fd0919061150e565b61100f576040517f08c379a000000000000000000000000000000000000000000000000000000000815260040161100690611583565b60405180910390fd5b5050565b5f5f60075403611027576004549050611079565b600754670de0b6b3a764000060025461103e610d54565b61104891906112ce565b6003546110559190611301565b61105f9190611301565b611069919061136f565b600454611076919061139f565b90505b90565b7f000000000000000000000000000000000000000000000000000000000000000081565b60045481565b6110ec60085f3373ffffffffffffffffffffffffffffffffffffffff1673ffffffffffffffffffffffffffffffffffffffff1681526020019081526020015f20546104ba565b6110f4610ac0565b565b5f5ffd5b5f73ffffffffffffffffffffffffffffffffffffffff82169050919050565b5f611123826110fa565b9050919050565b61113381611119565b811461113d575f5ffd5b50565b5f8135905061114e8161112a565b92915050565b5f60208284031215611169576111686110f6565b5b5f61117684828501611140565b91505092915050565b5f819050919050565b6111918161117f565b82525050565b5f6020820190506111aa5f830184611188565b92915050565b6111b98161117f565b81146111c3575f5ffd5b50565b5f813590506111d4816111b0565b92915050565b5f602082840312156111ef576111ee6110f6565b5b5f6111fc848285016111c6565b91505092915050565b5f819050919050565b5f61122861122361121e846110fa565b611205565b6110fa565b9050919050565b5f6112398261120e565b9050919050565b5f61124a8261122f565b9050919050565b61125a81611240565b82525050565b5f6020820190506112735f830184611251565b92915050565b61128281611119565b82525050565b5f60208201905061129b5f830184611279565b92915050565b7f4e487b71000000000000000000000000000000000000000000000000000000005f52601160045260245ffd5b5f6112d88261117f565b91506112e38361117f565b92508282039050818111156112fb576112fa6112a1565b5b92915050565b5f61130b8261117f565b91506113168361117f565b92508282026113248161117f565b9150828204841483151761133b5761133a6112a1565b5b5092915050565b7f4e487b71000000000000000000000000000000000000000000000000000000005f52601260045260245ffd5b5f6113798261117f565b91506113848361117f565b92508261139457611393611342565b5b828204905092915050565b5f6113a98261117f565b91506113b48361117f565b92508282019050808211156113cc576113cb6112a1565b5b92915050565b5f82825260208201905092915050565b7f43616e6e6f7420776974686472617720300000000000000000000000000000005f82015250565b5f6114166011836113d2565b9150611421826113e2565b602082019050919050565b5f6020820190508181035f8301526114438161140a565b9050919050565b7f576974686472617720616d6f756e7420657863656564732062616c616e6365005f82015250565b5f61147e601f836113d2565b91506114898261144a565b602082019050919050565b5f6020820190508181035f8301526114ab81611472565b9050919050565b5f6040820190506114c55f830185611279565b6114d26020830184611188565b9392505050565b5f8115159050919050565b6114ed816114d9565b81146114f7575f5ffd5b50565b5f81519050611508816114e4565b92915050565b5f60208284031215611523576115226110f6565b5b5f611530848285016114fa565b91505092915050565b7f5472616e73666572206661696c656400000000000000000000000000000000005f82015250565b5f61156d600f836113d2565b915061157882611539565b602082019050919050565b5f6020820190508181035f83015261159a81611561565b9050919050565b7f6e6f7420617574686f72697a65640000000000000000000000000000000000005f82015250565b5f6115d5600e836113d2565b91506115e0826115a1565b602082019050919050565b5f6020820190508181035f830152611602816115c9565b9050919050565b7f5265776172642072617465203d203000000000000000000000000000000000005f82015250565b5f61163d600f836113d2565b915061164882611609565b602082019050919050565b5f6020820190508181035f83015261166a81611631565b9050919050565b5f8151905061167f816111b0565b92915050565b5f6020828403121561169a576116996110f6565b5b5f6116a784828501611671565b91505092915050565b7f496e73756666696369656e7420726577617264730000000000000000000000005f82015250565b5f6116e46014836113d2565b91506116ef826116b0565b602082019050919050565b5f6020820190508181035f830152611711816116d8565b9050919050565b7f526577617264207472616e73666572206661696c6564000000000000000000005f82015250565b5f61174c6016836113d2565b915061175782611718565b602082019050919050565b5f6020820190508181035f83015261177981611740565b9050919050565b7f43616e6e6f74207374616b6520300000000000000000000000000000000000005f82015250565b5f6117b4600e836113d2565b91506117bf82611780565b602082019050919050565b5f6020820190508181035f8301526117e1816117a8565b9050919050565b5f6060820190506117fb5f830186611279565b6118086020830185611279565b6118156040830184611188565b94935050505056fea2646970667358221220ceb227d4a7a3042bc58aa9ddf5f6933f094c2b022b84c18de1ee1e2bbb482cab64736f6c634300081e0033",
					"opcodes": "PUSH1 0xC0 PUSH1 0x40 MSTORE CALLVALUE DUP1 ISZERO PUSH2 0xF JUMPI PUSH0 PUSH0 REVERT JUMPDEST POP PUSH1 0x40 MLOAD PUSH2 0x1A58 CODESIZE SUB DUP1 PUSH2 0x1A58 DUP4 CODECOPY DUP2 DUP2 ADD PUSH1 0x40 MSTORE DUP2 ADD SWAP1 PUSH2 0x31 SWAP2 SWAP1 PUSH2 0x178 JUMP JUMPDEST CALLER PUSH1 0x9 PUSH0 PUSH2 0x100 EXP DUP2 SLOAD DUP2 PUSH20 0xFFFFFFFFFFFFFFFFFFFFFFFFFFFFFFFFFFFFFFFF MUL NOT AND SWAP1 DUP4 PUSH20 0xFFFFFFFFFFFFFFFFFFFFFFFFFFFFFFFFFFFFFFFF AND MUL OR SWAP1 SSTORE POP DUP3 PUSH20 0xFFFFFFFFFFFFFFFFFFFFFFFFFFFFFFFFFFFFFFFF AND PUSH1 0x80 DUP2 PUSH20 0xFFFFFFFFFFFFFFFFFFFFFFFFFFFFFFFFFFFFFFFF AND DUP2 MSTORE POP POP DUP2 PUSH20 0xFFFFFFFFFFFFFFFFFFFFFFFFFFFFFFFFFFFFFFFF AND PUSH1 0xA0 DUP2 PUSH20 0xFFFFFFFFFFFFFFFFFFFFFFFFFFFFFFFFFFFFFFFF AND DUP2 MSTORE POP POP DUP1 PUSH0 DUP2 SWAP1 SSTORE POP POP POP POP PUSH2 0x1C8 JUMP JUMPDEST PUSH0 PUSH0 REVERT JUMPDEST PUSH0 PUSH20 0xFFFFFFFFFFFFFFFFFFFFFFFFFFFFFFFFFFFFFFFF DUP3 AND SWAP1 POP SWAP2 SWAP1 POP JUMP JUMPDEST PUSH0 PUSH2 0x114 DUP3 PUSH2 0xEB JUMP JUMPDEST SWAP1 POP SWAP2 SWAP1 POP JUMP JUMPDEST PUSH2 0x124 DUP2 PUSH2 0x10A JUMP JUMPDEST DUP2 EQ PUSH2 0x12E JUMPI PUSH0 PUSH0 REVERT JUMPDEST POP JUMP JUMPDEST PUSH0 DUP2 MLOAD SWAP1 POP PUSH2 0x13F DUP2 PUSH2 0x11B JUMP JUMPDEST SWAP3 SWAP2 POP POP JUMP JUMPDEST PUSH0 DUP2 SWAP1 POP SWAP2 SWAP1 POP JUMP JUMPDEST PUSH2 0x157 DUP2 PUSH2 0x145 JUMP JUMPDEST DUP2 EQ PUSH2 0x161 JUMPI PUSH0 PUSH0 REVERT JUMPDEST POP JUMP JUMPDEST PUSH0 DUP2 MLOAD SWAP1 POP PUSH2 0x172 DUP2 PUSH2 0x14E JUMP JUMPDEST SWAP3 SWAP2 POP POP JUMP JUMPDEST PUSH0 PUSH0 PUSH0 PUSH1 0x60 DUP5 DUP7 SUB SLT ISZERO PUSH2 0x18F JUMPI PUSH2 0x18E PUSH2 0xE7 JUMP JUMPDEST JUMPDEST PUSH0 PUSH2 0x19C DUP7 DUP3 DUP8 ADD PUSH2 0x131 JUMP JUMPDEST SWAP4 POP POP PUSH1 0x20 PUSH2 0x1AD DUP7 DUP3 DUP8 ADD PUSH2 0x131 JUMP JUMPDEST SWAP3 POP POP PUSH1 0x40 PUSH2 0x1BE DUP7 DUP3 DUP8 ADD PUSH2 0x164 JUMP JUMPDEST SWAP2 POP POP SWAP3 POP SWAP3 POP SWAP3 JUMP JUMPDEST PUSH1 0x80 MLOAD PUSH1 0xA0 MLOAD PUSH2 0x1853 PUSH2 0x205 PUSH0 CODECOPY PUSH0 DUP2 DUP2 PUSH2 0x9BC ADD MSTORE DUP2 DUP2 PUSH2 0xC2C ADD MSTORE PUSH2 0x107E ADD MSTORE PUSH0 DUP2 DUP2 PUSH2 0x6C8 ADD MSTORE DUP2 DUP2 PUSH2 0xD26 ADD MSTORE PUSH2 0xF35 ADD MSTORE PUSH2 0x1853 PUSH0 RETURN INVALID PUSH1 0x80 PUSH1 0x40 MSTORE CALLVALUE DUP1 ISZERO PUSH2 0xF JUMPI PUSH0 PUSH0 REVERT JUMPDEST POP PUSH1 0x4 CALLDATASIZE LT PUSH2 0x129 JUMPI PUSH0 CALLDATALOAD PUSH1 0xE0 SHR DUP1 PUSH4 0x7519AB50 GT PUSH2 0xAB JUMPI DUP1 PUSH4 0xA694FC3A GT PUSH2 0x6F JUMPI DUP1 PUSH4 0xA694FC3A EQ PUSH2 0x31F JUMPI DUP1 PUSH4 0xCD3DAF9D EQ PUSH2 0x33B JUMPI DUP1 PUSH4 0xD1AF0C7D EQ PUSH2 0x359 JUMPI DUP1 PUSH4 0xDF136D65 EQ PUSH2 0x377 JUMPI DUP1 PUSH4 0xE9FAD8EE EQ PUSH2 0x395 JUMPI PUSH2 0x129 JUMP JUMPDEST DUP1 PUSH4 0x7519AB50 EQ PUSH2 0x277 JUMPI DUP1 PUSH4 0x7B0A47EE EQ PUSH2 0x295 JUMPI DUP1 PUSH4 0x80FAA57D EQ PUSH2 0x2B3 JUMPI DUP1 PUSH4 0x8B876347 EQ PUSH2 0x2D1 JUMPI DUP1 PUSH4 0x8DA5CB5B EQ PUSH2 0x301 JUMPI PUSH2 0x129 JUMP JUMPDEST DUP1 PUSH4 0x3C6B16AB GT PUSH2 0xF2 JUMPI DUP1 PUSH4 0x3C6B16AB EQ PUSH2 0x1E5 JUMPI DUP1 PUSH4 0x3D18B912 EQ PUSH2 0x201 JUMPI DUP1 PUSH4 0x67D3B488 EQ PUSH2 0x20B JUMPI DUP1 PUSH4 0x70A08231 EQ PUSH2 0x229 JUMPI DUP1 PUSH4 0x72F702F3 EQ PUSH2 0x259 JUMPI PUSH2 0x129 JUMP JUMPDEST DUP1 PUSH3 0x8CC262 EQ PUSH2 0x12D JUMPI DUP1 PUSH4 0x700037D EQ PUSH2 0x15D JUMPI DUP1 PUSH4 0xFB5A6B4 EQ PUSH2 0x18D JUMPI DUP1 PUSH4 0x18160DDD EQ PUSH2 0x1AB JUMPI DUP1 PUSH4 0x2E1A7D4D EQ PUSH2 0x1C9 JUMPI JUMPDEST PUSH0 PUSH0 REVERT JUMPDEST PUSH2 0x147 PUSH1 0x4 DUP1 CALLDATASIZE SUB DUP2 ADD SWAP1 PUSH2 0x142 SWAP2 SWAP1 PUSH2 0x1154 JUMP JUMPDEST PUSH2 0x39F JUMP JUMPDEST PUSH1 0x40 MLOAD PUSH2 0x154 SWAP2 SWAP1 PUSH2 0x1197 JUMP JUMPDEST PUSH1 0x40 MLOAD DUP1 SWAP2 SUB SWAP1 RETURN JUMPDEST PUSH2 0x177 PUSH1 0x4 DUP1 CALLDATASIZE SUB DUP2 ADD SWAP1 PUSH2 0x172 SWAP2 SWAP1 PUSH2 0x1154 JUMP JUMPDEST PUSH2 0x49A JUMP JUMPDEST PUSH1 0x40 MLOAD PUSH2 0x184 SWAP2 SWAP1 PUSH2 0x1197 JUMP JUMPDEST PUSH1 0x40 MLOAD DUP1 SWAP2 SUB SWAP1 RETURN JUMPDEST PUSH2 0x195 PUSH2 0x4AF JUMP JUMPDEST PUSH1 0x40 MLOAD PUSH2 0x1A2 SWAP2 SWAP1 PUSH2 0x1197 JUMP JUMPDEST PUSH1 0x40 MLOAD DUP1 SWAP2 SUB SWAP1 RETURN JUMPDEST PUSH2 0x1B3 PUSH2 0x4B4 JUMP JUMPDEST PUSH1 0x40 MLOAD PUSH2 0x1C0 SWAP2 SWAP1 PUSH2 0x1197 JUMP JUMPDEST PUSH1 0x40 MLOAD DUP1 SWAP2 SUB SWAP1 RETURN JUMPDEST PUSH2 0x1E3 PUSH1 0x4 DUP1 CALLDATASIZE SUB DUP2 ADD SWAP1 PUSH2 0x1DE SWAP2 SWAP1 PUSH2 0x11DA JUMP JUMPDEST PUSH2 0x4BA JUMP JUMPDEST STOP JUMPDEST PUSH2 0x1FF PUSH1 0x4 DUP1 CALLDATASIZE SUB DUP2 ADD SWAP1 PUSH2 0x1FA SWAP2 SWAP1 PUSH2 0x11DA JUMP JUMPDEST PUSH2 0x7A4 JUMP JUMPDEST STOP JUMPDEST PUSH2 0x209 PUSH2 0xAC0 JUMP JUMPDEST STOP JUMPDEST PUSH2 0x213 PUSH2 0xD09 JUMP JUMPDEST PUSH1 0x40 MLOAD PUSH2 0x220 SWAP2 SWAP1 PUSH2 0x1197 JUMP JUMPDEST PUSH1 0x40 MLOAD DUP1 SWAP2 SUB SWAP1 RETURN JUMPDEST PUSH2 0x243 PUSH1 0x4 DUP1 CALLDATASIZE SUB DUP2 ADD SWAP1 PUSH2 0x23E SWAP2 SWAP1 PUSH2 0x1154 JUMP JUMPDEST PUSH2 0xD0F JUMP JUMPDEST PUSH1 0x40 MLOAD PUSH2 0x250 SWAP2 SWAP1 PUSH2 0x1197 JUMP JUMPDEST PUSH1 0x40 MLOAD DUP1 SWAP2 SUB SWAP1 RETURN JUMPDEST PUSH2 0x261 PUSH2 0xD24 JUMP JUMPDEST PUSH1 0x40 MLOAD PUSH2 0x26E SWAP2 SWAP1 PUSH2 0x1260 JUMP JUMPDEST PUSH1 0x40 MLOAD DUP1 SWAP2 SUB SWAP1 RETURN JUMPDEST PUSH2 0x27F PUSH2 0xD48 JUMP JUMPDEST PUSH1 0x40 MLOAD PUSH2 0x28C SWAP2 SWAP1 PUSH2 0x1197 JUMP JUMPDEST PUSH1 0x40 MLOAD DUP1 SWAP2 SUB SWAP1 RETURN JUMPDEST PUSH2 0x29D PUSH2 0xD4E JUMP JUMPDEST PUSH1 0x40 MLOAD PUSH2 0x2AA SWAP2 SWAP1 PUSH2 0x1197 JUMP JUMPDEST PUSH1 0x40 MLOAD DUP1 SWAP2 SUB SWAP1 RETURN JUMPDEST PUSH2 0x2BB PUSH2 0xD54 JUMP JUMPDEST PUSH1 0x40 MLOAD PUSH2 0x2C8 SWAP2 SWAP1 PUSH2 0x1197 JUMP JUMPDEST PUSH1 0x40 MLOAD DUP1 SWAP2 SUB SWAP1 RETURN JUMPDEST PUSH2 0x2EB PUSH1 0x4 DUP1 CALLDATASIZE SUB DUP2 ADD SWAP1 PUSH2 0x2E6 SWAP2 SWAP1 PUSH2 0x1154 JUMP JUMPDEST PUSH2 0xD6D JUMP JUMPDEST PUSH1 0x40 MLOAD PUSH2 0x2F8 SWAP2 SWAP1 PUSH2 0x1197 JUMP JUMPDEST PUSH1 0x40 MLOAD DUP1 SWAP2 SUB SWAP1 RETURN JUMPDEST PUSH2 0x309 PUSH2 0xD82 JUMP JUMPDEST PUSH1 0x40 MLOAD PUSH2 0x316 SWAP2 SWAP1 PUSH2 0x1288 JUMP JUMPDEST PUSH1 0x40 MLOAD DUP1 SWAP2 SUB SWAP1 RETURN JUMPDEST PUSH2 0x339 PUSH1 0x4 DUP1 CALLDATASIZE SUB DUP2 ADD SWAP1 PUSH2 0x334 SWAP2 SWAP1 PUSH2 0x11DA JUMP JUMPDEST PUSH2 0xDA7 JUMP JUMPDEST STOP JUMPDEST PUSH2 0x343 PUSH2 0x1013 JUMP JUMPDEST PUSH1 0x40 MLOAD PUSH2 0x350 SWAP2 SWAP1 PUSH2 0x1197 JUMP JUMPDEST PUSH1 0x40 MLOAD DUP1 SWAP2 SUB SWAP1 RETURN JUMPDEST PUSH2 0x361 PUSH2 0x107C JUMP JUMPDEST PUSH1 0x40 MLOAD PUSH2 0x36E SWAP2 SWAP1 PUSH2 0x1260 JUMP JUMPDEST PUSH1 0x40 MLOAD DUP1 SWAP2 SUB SWAP1 RETURN JUMPDEST PUSH2 0x37F PUSH2 0x10A0 JUMP JUMPDEST PUSH1 0x40 MLOAD PUSH2 0x38C SWAP2 SWAP1 PUSH2 0x1197 JUMP JUMPDEST PUSH1 0x40 MLOAD DUP1 SWAP2 SUB SWAP1 RETURN JUMPDEST PUSH2 0x39D PUSH2 0x10A6 JUMP JUMPDEST STOP JUMPDEST PUSH0 PUSH1 0x6 PUSH0 DUP4 PUSH20 0xFFFFFFFFFFFFFFFFFFFFFFFFFFFFFFFFFFFFFFFF AND PUSH20 0xFFFFFFFFFFFFFFFFFFFFFFFFFFFFFFFFFFFFFFFF AND DUP2 MSTORE PUSH1 0x20 ADD SWAP1 DUP2 MSTORE PUSH1 0x20 ADD PUSH0 KECCAK256 SLOAD PUSH8 0xDE0B6B3A7640000 PUSH1 0x5 PUSH0 DUP6 PUSH20 0xFFFFFFFFFFFFFFFFFFFFFFFFFFFFFFFFFFFFFFFF AND PUSH20 0xFFFFFFFFFFFFFFFFFFFFFFFFFFFFFFFFFFFFFFFF AND DUP2 MSTORE PUSH1 0x20 ADD SWAP1 DUP2 MSTORE PUSH1 0x20 ADD PUSH0 KECCAK256 SLOAD PUSH2 0x42D PUSH2 0x1013 JUMP JUMPDEST PUSH2 0x437 SWAP2 SWAP1 PUSH2 0x12CE JUMP JUMPDEST PUSH1 0x8 PUSH0 DUP7 PUSH20 0xFFFFFFFFFFFFFFFFFFFFFFFFFFFFFFFFFFFFFFFF AND PUSH20 0xFFFFFFFFFFFFFFFFFFFFFFFFFFFFFFFFFFFFFFFF AND DUP2 MSTORE PUSH1 0x20 ADD SWAP1 DUP2 MSTORE PUSH1 0x20 ADD PUSH0 KECCAK256 SLOAD PUSH2 0x47F SWAP2 SWAP1 PUSH2 0x1301 JUMP JUMPDEST PUSH2 0x489 SWAP2 SWAP1 PUSH2 0x136F JUMP JUMPDEST PUSH2 0x493 SWAP2 SWAP1 PUSH2 0x139F JUMP JUMPDEST SWAP1 POP SWAP2 SWAP1 POP JUMP JUMPDEST PUSH1 0x6 PUSH1 0x20 MSTORE DUP1 PUSH0 MSTORE PUSH1 0x40 PUSH0 KECCAK256 PUSH0 SWAP2 POP SWAP1 POP SLOAD DUP2 JUMP JUMPDEST PUSH0 SLOAD DUP2 JUMP JUMPDEST PUSH1 0x7 SLOAD DUP2 JUMP JUMPDEST CALLER PUSH2 0x4C3 PUSH2 0x1013 JUMP JUMPDEST PUSH1 0x4 DUP2 SWAP1 SSTORE POP PUSH2 0x4D1 PUSH2 0xD54 JUMP JUMPDEST PUSH1 0x2 DUP2 SWAP1 SSTORE POP PUSH0 PUSH20 0xFFFFFFFFFFFFFFFFFFFFFFFFFFFFFFFFFFFFFFFF AND DUP2 PUSH20 0xFFFFFFFFFFFFFFFFFFFFFFFFFFFFFFFFFFFFFFFF AND EQ PUSH2 0x599 JUMPI PUSH2 0x513 DUP2 PUSH2 0x39F JUMP JUMPDEST PUSH1 0x6 PUSH0 DUP4 PUSH20 0xFFFFFFFFFFFFFFFFFFFFFFFFFFFFFFFFFFFFFFFF AND PUSH20 0xFFFFFFFFFFFFFFFFFFFFFFFFFFFFFFFFFFFFFFFF AND DUP2 MSTORE PUSH1 0x20 ADD SWAP1 DUP2 MSTORE PUSH1 0x20 ADD PUSH0 KECCAK256 DUP2 SWAP1 SSTORE POP PUSH1 0x4 SLOAD PUSH1 0x5 PUSH0 DUP4 PUSH20 0xFFFFFFFFFFFFFFFFFFFFFFFFFFFFFFFFFFFFFFFF AND PUSH20 0xFFFFFFFFFFFFFFFFFFFFFFFFFFFFFFFFFFFFFFFF AND DUP2 MSTORE PUSH1 0x20 ADD SWAP1 DUP2 MSTORE PUSH1 0x20 ADD PUSH0 KECCAK256 DUP2 SWAP1 SSTORE POP JUMPDEST PUSH0 DUP3 GT PUSH2 0x5DB JUMPI PUSH1 0x40 MLOAD PUSH32 0x8C379A000000000000000000000000000000000000000000000000000000000 DUP2 MSTORE PUSH1 0x4 ADD PUSH2 0x5D2 SWAP1 PUSH2 0x142C JUMP JUMPDEST PUSH1 0x40 MLOAD DUP1 SWAP2 SUB SWAP1 REVERT JUMPDEST DUP2 PUSH1 0x8 PUSH0 CALLER PUSH20 0xFFFFFFFFFFFFFFFFFFFFFFFFFFFFFFFFFFFFFFFF AND PUSH20 0xFFFFFFFFFFFFFFFFFFFFFFFFFFFFFFFFFFFFFFFF AND DUP2 MSTORE PUSH1 0x20 ADD SWAP1 DUP2 MSTORE PUSH1 0x20 ADD PUSH0 KECCAK256 SLOAD LT ISZERO PUSH2 0x65B JUMPI PUSH1 0x40 MLOAD PUSH32 0x8C379A000000000000000000000000000000000000000000000000000000000 DUP2 MSTORE PUSH1 0x4 ADD PUSH2 0x652 SWAP1 PUSH2 0x1494 JUMP JUMPDEST PUSH1 0x40 MLOAD DUP1 SWAP2 SUB SWAP1 REVERT JUMPDEST DUP2 PUSH1 0x7 PUSH0 DUP3 DUP3 SLOAD PUSH2 0x66C SWAP2 SWAP1 PUSH2 0x12CE JUMP JUMPDEST SWAP3 POP POP DUP2 SWAP1 SSTORE POP DUP2 PUSH1 0x8 PUSH0 CALLER PUSH20 0xFFFFFFFFFFFFFFFFFFFFFFFFFFFFFFFFFFFFFFFF AND PUSH20 0xFFFFFFFFFFFFFFFFFFFFFFFFFFFFFFFFFFFFFFFF AND DUP2 MSTORE PUSH1 0x20 ADD SWAP1 DUP2 MSTORE PUSH1 0x20 ADD PUSH0 KECCAK256 PUSH0 DUP3 DUP3 SLOAD PUSH2 0x6BF SWAP2 SWAP1 PUSH2 0x12CE JUMP JUMPDEST SWAP3 POP POP DUP2 SWAP1 SSTORE POP PUSH32 0x0 PUSH20 0xFFFFFFFFFFFFFFFFFFFFFFFFFFFFFFFFFFFFFFFF AND PUSH4 0xA9059CBB CALLER DUP5 PUSH1 0x40 MLOAD DUP4 PUSH4 0xFFFFFFFF AND PUSH1 0xE0 SHL DUP2 MSTORE PUSH1 0x4 ADD PUSH2 0x721 SWAP3 SWAP2 SWAP1 PUSH2 0x14B2 JUMP JUMPDEST PUSH1 0x20 PUSH1 0x40 MLOAD DUP1 DUP4 SUB DUP2 PUSH0 DUP8 GAS CALL ISZERO DUP1 ISZERO PUSH2 0x73D JUMPI RETURNDATASIZE PUSH0 PUSH0 RETURNDATACOPY RETURNDATASIZE PUSH0 REVERT JUMPDEST POP POP POP POP PUSH1 0x40 MLOAD RETURNDATASIZE PUSH1 0x1F NOT PUSH1 0x1F DUP3 ADD AND DUP3 ADD DUP1 PUSH1 0x40 MSTORE POP DUP2 ADD SWAP1 PUSH2 0x761 SWAP2 SWAP1 PUSH2 0x150E JUMP JUMPDEST PUSH2 0x7A0 JUMPI PUSH1 0x40 MLOAD PUSH32 0x8C379A000000000000000000000000000000000000000000000000000000000 DUP2 MSTORE PUSH1 0x4 ADD PUSH2 0x797 SWAP1 PUSH2 0x1583 JUMP JUMPDEST PUSH1 0x40 MLOAD DUP1 SWAP2 SUB SWAP1 REVERT JUMPDEST POP POP JUMP JUMPDEST PUSH1 0x9 PUSH0 SWAP1 SLOAD SWAP1 PUSH2 0x100 EXP SWAP1 DIV PUSH20 0xFFFFFFFFFFFFFFFFFFFFFFFFFFFFFFFFFFFFFFFF AND PUSH20 0xFFFFFFFFFFFFFFFFFFFFFFFFFFFFFFFFFFFFFFFF AND CALLER PUSH20 0xFFFFFFFFFFFFFFFFFFFFFFFFFFFFFFFFFFFFFFFF AND EQ PUSH2 0x833 JUMPI PUSH1 0x40 MLOAD PUSH32 0x8C379A000000000000000000000000000000000000000000000000000000000 DUP2 MSTORE PUSH1 0x4 ADD PUSH2 0x82A SWAP1 PUSH2 0x15EB JUMP JUMPDEST PUSH1 0x40 MLOAD DUP1 SWAP2 SUB SWAP1 REVERT JUMPDEST PUSH0 PUSH2 0x83C PUSH2 0x1013 JUMP JUMPDEST PUSH1 0x4 DUP2 SWAP1 SSTORE POP PUSH2 0x84A PUSH2 0xD54 JUMP JUMPDEST PUSH1 0x2 DUP2 SWAP1 SSTORE POP PUSH0 PUSH20 0xFFFFFFFFFFFFFFFFFFFFFFFFFFFFFFFFFFFFFFFF AND DUP2 PUSH20 0xFFFFFFFFFFFFFFFFFFFFFFFFFFFFFFFFFFFFFFFF AND EQ PUSH2 0x912 JUMPI PUSH2 0x88C DUP2 PUSH2 0x39F JUMP JUMPDEST PUSH1 0x6 PUSH0 DUP4 PUSH20 0xFFFFFFFFFFFFFFFFFFFFFFFFFFFFFFFFFFFFFFFF AND PUSH20 0xFFFFFFFFFFFFFFFFFFFFFFFFFFFFFFFFFFFFFFFF AND DUP2 MSTORE PUSH1 0x20 ADD SWAP1 DUP2 MSTORE PUSH1 0x20 ADD PUSH0 KECCAK256 DUP2 SWAP1 SSTORE POP PUSH1 0x4 SLOAD PUSH1 0x5 PUSH0 DUP4 PUSH20 0xFFFFFFFFFFFFFFFFFFFFFFFFFFFFFFFFFFFFFFFF AND PUSH20 0xFFFFFFFFFFFFFFFFFFFFFFFFFFFFFFFFFFFFFFFF AND DUP2 MSTORE PUSH1 0x20 ADD SWAP1 DUP2 MSTORE PUSH1 0x20 ADD PUSH0 KECCAK256 DUP2 SWAP1 SSTORE POP JUMPDEST PUSH1 0x1 SLOAD TIMESTAMP LT PUSH2 0x933 JUMPI PUSH0 SLOAD DUP3 PUSH2 0x928 SWAP2 SWAP1 PUSH2 0x136F JUMP JUMPDEST PUSH1 0x3 DUP2 SWAP1 SSTORE POP PUSH2 0x976 JUMP JUMPDEST PUSH0 TIMESTAMP PUSH1 0x1 SLOAD PUSH2 0x942 SWAP2 SWAP1 PUSH2 0x12CE JUMP JUMPDEST SWAP1 POP PUSH0 PUSH1 0x3 SLOAD DUP3 PUSH2 0x953 SWAP2 SWAP1 PUSH2 0x1301 JUMP JUMPDEST SWAP1 POP PUSH0 SLOAD DUP2 DUP6 PUSH2 0x963 SWAP2 SWAP1 PUSH2 0x139F JUMP JUMPDEST PUSH2 0x96D SWAP2 SWAP1 PUSH2 0x136F JUMP JUMPDEST PUSH1 0x3 DUP2 SWAP1 SSTORE POP POP POP JUMPDEST PUSH0 PUSH1 0x3 SLOAD GT PUSH2 0x9BA JUMPI PUSH1 0x40 MLOAD PUSH32 0x8C379A000000000000000000000000000000000000000000000000000000000 DUP2 MSTORE PUSH1 0x4 ADD PUSH2 0x9B1 SWAP1 PUSH2 0x1653 JUMP JUMPDEST PUSH1 0x40 MLOAD DUP1 SWAP2 SUB SWAP1 REVERT JUMPDEST PUSH32 0x0 PUSH20 0xFFFFFFFFFFFFFFFFFFFFFFFFFFFFFFFFFFFFFFFF AND PUSH4 0x70A08231 ADDRESS PUSH1 0x40 MLOAD DUP3 PUSH4 0xFFFFFFFF AND PUSH1 0xE0 SHL DUP2 MSTORE PUSH1 0x4 ADD PUSH2 0xA13 SWAP2 SWAP1 PUSH2 0x1288 JUMP JUMPDEST PUSH1 0x20 PUSH1 0x40 MLOAD DUP1 DUP4 SUB DUP2 DUP7 GAS STATICCALL ISZERO DUP1 ISZERO PUSH2 0xA2E JUMPI RETURNDATASIZE PUSH0 PUSH0 RETURNDATACOPY RETURNDATASIZE PUSH0 REVERT JUMPDEST POP POP POP POP PUSH1 0x40 MLOAD RETURNDATASIZE PUSH1 0x1F NOT PUSH1 0x1F DUP3 ADD AND DUP3 ADD DUP1 PUSH1 0x40 MSTORE POP DUP2 ADD SWAP1 PUSH2 0xA52 SWAP2 SWAP1 PUSH2 0x1685 JUMP JUMPDEST PUSH0 SLOAD PUSH1 0x3 SLOAD PUSH2 0xA61 SWAP2 SWAP1 PUSH2 0x1301 JUMP JUMPDEST GT ISZERO PUSH2 0xAA2 JUMPI PUSH1 0x40 MLOAD PUSH32 0x8C379A000000000000000000000000000000000000000000000000000000000 DUP2 MSTORE PUSH1 0x4 ADD PUSH2 0xA99 SWAP1 PUSH2 0x16FA JUMP JUMPDEST PUSH1 0x40 MLOAD DUP1 SWAP2 SUB SWAP1 REVERT JUMPDEST PUSH0 SLOAD TIMESTAMP PUSH2 0xAAF SWAP2 SWAP1 PUSH2 0x139F JUMP JUMPDEST PUSH1 0x1 DUP2 SWAP1 SSTORE POP TIMESTAMP PUSH1 0x2 DUP2 SWAP1 SSTORE POP POP POP JUMP JUMPDEST CALLER PUSH2 0xAC9 PUSH2 0x1013 JUMP JUMPDEST PUSH1 0x4 DUP2 SWAP1 SSTORE POP PUSH2 0xAD7 PUSH2 0xD54 JUMP JUMPDEST PUSH1 0x2 DUP2 SWAP1 SSTORE POP PUSH0 PUSH20 0xFFFFFFFFFFFFFFFFFFFFFFFFFFFFFFFFFFFFFFFF AND DUP2 PUSH20 0xFFFFFFFFFFFFFFFFFFFFFFFFFFFFFFFFFFFFFFFF AND EQ PUSH2 0xB9F JUMPI PUSH2 0xB19 DUP2 PUSH2 0x39F JUMP JUMPDEST PUSH1 0x6 PUSH0 DUP4 PUSH20 0xFFFFFFFFFFFFFFFFFFFFFFFFFFFFFFFFFFFFFFFF AND PUSH20 0xFFFFFFFFFFFFFFFFFFFFFFFFFFFFFFFFFFFFFFFF AND DUP2 MSTORE PUSH1 0x20 ADD SWAP1 DUP2 MSTORE PUSH1 0x20 ADD PUSH0 KECCAK256 DUP2 SWAP1 SSTORE POP PUSH1 0x4 SLOAD PUSH1 0x5 PUSH0 DUP4 PUSH20 0xFFFFFFFFFFFFFFFFFFFFFFFFFFFFFFFFFFFFFFFF AND PUSH20 0xFFFFFFFFFFFFFFFFFFFFFFFFFFFFFFFFFFFFFFFF AND DUP2 MSTORE PUSH1 0x20 ADD SWAP1 DUP2 MSTORE PUSH1 0x20 ADD PUSH0 KECCAK256 DUP2 SWAP1 SSTORE POP JUMPDEST PUSH0 PUSH1 0x6 PUSH0 CALLER PUSH20 0xFFFFFFFFFFFFFFFFFFFFFFFFFFFFFFFFFFFFFFFF AND PUSH20 0xFFFFFFFFFFFFFFFFFFFFFFFFFFFFFFFFFFFFFFFF AND DUP2 MSTORE PUSH1 0x20 ADD SWAP1 DUP2 MSTORE PUSH1 0x20 ADD PUSH0 KECCAK256 SLOAD SWAP1 POP PUSH0 DUP2 GT ISZERO PUSH2 0xD05 JUMPI PUSH0 PUSH1 0x6 PUSH0 CALLER PUSH20 0xFFFFFFFFFFFFFFFFFFFFFFFFFFFFFFFFFFFFFFFF AND PUSH20 0xFFFFFFFFFFFFFFFFFFFFFFFFFFFFFFFFFFFFFFFF AND DUP2 MSTORE PUSH1 0x20 ADD SWAP1 DUP2 MSTORE PUSH1 0x20 ADD PUSH0 KECCAK256 DUP2 SWAP1 SSTORE POP PUSH32 0x0 PUSH20 0xFFFFFFFFFFFFFFFFFFFFFFFFFFFFFFFFFFFFFFFF AND PUSH4 0xA9059CBB CALLER DUP4 PUSH1 0x40 MLOAD DUP4 PUSH4 0xFFFFFFFF AND PUSH1 0xE0 SHL DUP2 MSTORE PUSH1 0x4 ADD PUSH2 0xC85 SWAP3 SWAP2 SWAP1 PUSH2 0x14B2 JUMP JUMPDEST PUSH1 0x20 PUSH1 0x40 MLOAD DUP1 DUP4 SUB DUP2 PUSH0 DUP8 GAS CALL ISZERO DUP1 ISZERO PUSH2 0xCA1 JUMPI RETURNDATASIZE PUSH0 PUSH0 RETURNDATACOPY RETURNDATASIZE PUSH0 REVERT JUMPDEST POP POP POP POP PUSH1 0x40 MLOAD RETURNDATASIZE PUSH1 0x1F NOT PUSH1 0x1F DUP3 ADD AND DUP3 ADD DUP1 PUSH1 0x40 MSTORE POP DUP2 ADD SWAP1 PUSH2 0xCC5 SWAP2 SWAP1 PUSH2 0x150E JUMP JUMPDEST PUSH2 0xD04 JUMPI PUSH1 0x40 MLOAD PUSH32 0x8C379A000000000000000000000000000000000000000000000000000000000 DUP2 MSTORE PUSH1 0x4 ADD PUSH2 0xCFB SWAP1 PUSH2 0x1762 JUMP JUMPDEST PUSH1 0x40 MLOAD DUP1 SWAP2 SUB SWAP1 REVERT JUMPDEST JUMPDEST POP POP JUMP JUMPDEST PUSH1 0x1 SLOAD DUP2 JUMP JUMPDEST PUSH1 0x8 PUSH1 0x20 MSTORE DUP1 PUSH0 MSTORE PUSH1 0x40 PUSH0 KECCAK256 PUSH0 SWAP2 POP SWAP1 POP SLOAD DUP2 JUMP JUMPDEST PUSH32 0x0 DUP2 JUMP JUMPDEST PUSH1 0x2 SLOAD DUP2 JUMP JUMPDEST PUSH1 0x3 SLOAD DUP2 JUMP JUMPDEST PUSH0 PUSH1 0x1 SLOAD TIMESTAMP LT PUSH2 0xD66 JUMPI PUSH1 0x1 SLOAD PUSH2 0xD68 JUMP JUMPDEST TIMESTAMP JUMPDEST SWAP1 POP SWAP1 JUMP JUMPDEST PUSH1 0x5 PUSH1 0x20 MSTORE DUP1 PUSH0 MSTORE PUSH1 0x40 PUSH0 KECCAK256 PUSH0 SWAP2 POP SWAP1 POP SLOAD DUP2 JUMP JUMPDEST PUSH1 0x9 PUSH0 SWAP1 SLOAD SWAP1 PUSH2 0x100 EXP SWAP1 DIV PUSH20 0xFFFFFFFFFFFFFFFFFFFFFFFFFFFFFFFFFFFFFFFF AND DUP2 JUMP JUMPDEST CALLER PUSH2 0xDB0 PUSH2 0x1013 JUMP JUMPDEST PUSH1 0x4 DUP2 SWAP1 SSTORE POP PUSH2 0xDBE PUSH2 0xD54 JUMP JUMPDEST PUSH1 0x2 DUP2 SWAP1 SSTORE POP PUSH0 PUSH20 0xFFFFFFFFFFFFFFFFFFFFFFFFFFFFFFFFFFFFFFFF AND DUP2 PUSH20 0xFFFFFFFFFFFFFFFFFFFFFFFFFFFFFFFFFFFFFFFF AND EQ PUSH2 0xE86 JUMPI PUSH2 0xE00 DUP2 PUSH2 0x39F JUMP JUMPDEST PUSH1 0x6 PUSH0 DUP4 PUSH20 0xFFFFFFFFFFFFFFFFFFFFFFFFFFFFFFFFFFFFFFFF AND PUSH20 0xFFFFFFFFFFFFFFFFFFFFFFFFFFFFFFFFFFFFFFFF AND DUP2 MSTORE PUSH1 0x20 ADD SWAP1 DUP2 MSTORE PUSH1 0x20 ADD PUSH0 KECCAK256 DUP2 SWAP1 SSTORE POP PUSH1 0x4 SLOAD PUSH1 0x5 PUSH0 DUP4 PUSH20 0xFFFFFFFFFFFFFFFFFFFFFFFFFFFFFFFFFFFFFFFF AND PUSH20 0xFFFFFFFFFFFFFFFFFFFFFFFFFFFFFFFFFFFFFFFF AND DUP2 MSTORE PUSH1 0x20 ADD SWAP1 DUP2 MSTORE PUSH1 0x20 ADD PUSH0 KECCAK256 DUP2 SWAP1 SSTORE POP JUMPDEST PUSH0 DUP3 GT PUSH2 0xEC8 JUMPI PUSH1 0x40 MLOAD PUSH32 0x8C379A000000000000000000000000000000000000000000000000000000000 DUP2 MSTORE PUSH1 0x4 ADD PUSH2 0xEBF SWAP1 PUSH2 0x17CA JUMP JUMPDEST PUSH1 0x40 MLOAD DUP1 SWAP2 SUB SWAP1 REVERT JUMPDEST DUP2 PUSH1 0x7 PUSH0 DUP3 DUP3 SLOAD PUSH2 0xED9 SWAP2 SWAP1 PUSH2 0x139F JUMP JUMPDEST SWAP3 POP POP DUP2 SWAP1 SSTORE POP DUP2 PUSH1 0x8 PUSH0 CALLER PUSH20 0xFFFFFFFFFFFFFFFFFFFFFFFFFFFFFFFFFFFFFFFF AND PUSH20 0xFFFFFFFFFFFFFFFFFFFFFFFFFFFFFFFFFFFFFFFF AND DUP2 MSTORE PUSH1 0x20 ADD SWAP1 DUP2 MSTORE PUSH1 0x20 ADD PUSH0 KECCAK256 PUSH0 DUP3 DUP3 SLOAD PUSH2 0xF2C SWAP2 SWAP1 PUSH2 0x139F JUMP JUMPDEST SWAP3 POP POP DUP2 SWAP1 SSTORE POP PUSH32 0x0 PUSH20 0xFFFFFFFFFFFFFFFFFFFFFFFFFFFFFFFFFFFFFFFF AND PUSH4 0x23B872DD CALLER ADDRESS DUP6 PUSH1 0x40 MLOAD DUP5 PUSH4 0xFFFFFFFF AND PUSH1 0xE0 SHL DUP2 MSTORE PUSH1 0x4 ADD PUSH2 0xF90 SWAP4 SWAP3 SWAP2 SWAP1 PUSH2 0x17E8 JUMP JUMPDEST PUSH1 0x20 PUSH1 0x40 MLOAD DUP1 DUP4 SUB DUP2 PUSH0 DUP8 GAS CALL ISZERO DUP1 ISZERO PUSH2 0xFAC JUMPI RETURNDATASIZE PUSH0 PUSH0 RETURNDATACOPY RETURNDATASIZE PUSH0 REVERT JUMPDEST POP POP POP POP PUSH1 0x40 MLOAD RETURNDATASIZE PUSH1 0x1F NOT PUSH1 0x1F DUP3 ADD AND DUP3 ADD DUP1 PUSH1 0x40 MSTORE POP DUP2 ADD SWAP1 PUSH2 0xFD0 SWAP2 SWAP1 PUSH2 0x150E JUMP JUMPDEST PUSH2 0x100F JUMPI PUSH1 0x40 MLOAD PUSH32 0x8C379A000000000000000000000000000000000000000000000000000000000 DUP2 MSTORE PUSH1 0x4 ADD PUSH2 0x1006 SWAP1 PUSH2 0x1583 JUMP JUMPDEST PUSH1 0x40 MLOAD DUP1 SWAP2 SUB SWAP1 REVERT JUMPDEST POP POP JUMP JUMPDEST PUSH0 PUSH0 PUSH1 0x7 SLOAD SUB PUSH2 0x1027 JUMPI PUSH1 0x4 SLOAD SWAP1 POP PUSH2 0x1079 JUMP JUMPDEST PUSH1 0x7 SLOAD PUSH8 0xDE0B6B3A7640000 PUSH1 0x2 SLOAD PUSH2 0x103E PUSH2 0xD54 JUMP JUMPDEST PUSH2 0x1048 SWAP2 SWAP1 PUSH2 0x12CE JUMP JUMPDEST PUSH1 0x3 SLOAD PUSH2 0x1055 SWAP2 SWAP1 PUSH2 0x1301 JUMP JUMPDEST PUSH2 0x105F SWAP2 SWAP1 PUSH2 0x1301 JUMP JUMPDEST PUSH2 0x1069 SWAP2 SWAP1 PUSH2 0x136F JUMP JUMPDEST PUSH1 0x4 SLOAD PUSH2 0x1076 SWAP2 SWAP1 PUSH2 0x139F JUMP JUMPDEST SWAP1 POP JUMPDEST SWAP1 JUMP JUMPDEST PUSH32 0x0 DUP2 JUMP JUMPDEST PUSH1 0x4 SLOAD DUP2 JUMP JUMPDEST PUSH2 0x10EC PUSH1 0x8 PUSH0 CALLER PUSH20 0xFFFFFFFFFFFFFFFFFFFFFFFFFFFFFFFFFFFFFFFF AND PUSH20 0xFFFFFFFFFFFFFFFFFFFFFFFFFFFFFFFFFFFFFFFF AND DUP2 MSTORE PUSH1 0x20 ADD SWAP1 DUP2 MSTORE PUSH1 0x20 ADD PUSH0 KECCAK256 SLOAD PUSH2 0x4BA JUMP JUMPDEST PUSH2 0x10F4 PUSH2 0xAC0 JUMP JUMPDEST JUMP JUMPDEST PUSH0 PUSH0 REVERT JUMPDEST PUSH0 PUSH20 0xFFFFFFFFFFFFFFFFFFFFFFFFFFFFFFFFFFFFFFFF DUP3 AND SWAP1 POP SWAP2 SWAP1 POP JUMP JUMPDEST PUSH0 PUSH2 0x1123 DUP3 PUSH2 0x10FA JUMP JUMPDEST SWAP1 POP SWAP2 SWAP1 POP JUMP JUMPDEST PUSH2 0x1133 DUP2 PUSH2 0x1119 JUMP JUMPDEST DUP2 EQ PUSH2 0x113D JUMPI PUSH0 PUSH0 REVERT JUMPDEST POP JUMP JUMPDEST PUSH0 DUP2 CALLDATALOAD SWAP1 POP PUSH2 0x114E DUP2 PUSH2 0x112A JUMP JUMPDEST SWAP3 SWAP2 POP POP JUMP JUMPDEST PUSH0 PUSH1 0x20 DUP3 DUP5 SUB SLT ISZERO PUSH2 0x1169 JUMPI PUSH2 0x1168 PUSH2 0x10F6 JUMP JUMPDEST JUMPDEST PUSH0 PUSH2 0x1176 DUP5 DUP3 DUP6 ADD PUSH2 0x1140 JUMP JUMPDEST SWAP2 POP POP SWAP3 SWAP2 POP POP JUMP JUMPDEST PUSH0 DUP2 SWAP1 POP SWAP2 SWAP1 POP JUMP JUMPDEST PUSH2 0x1191 DUP2 PUSH2 0x117F JUMP JUMPDEST DUP3 MSTORE POP POP JUMP JUMPDEST PUSH0 PUSH1 0x20 DUP3 ADD SWAP1 POP PUSH2 0x11AA PUSH0 DUP4 ADD DUP5 PUSH2 0x1188 JUMP JUMPDEST SWAP3 SWAP2 POP POP JUMP JUMPDEST PUSH2 0x11B9 DUP2 PUSH2 0x117F JUMP JUMPDEST DUP2 EQ PUSH2 0x11C3 JUMPI PUSH0 PUSH0 REVERT JUMPDEST POP JUMP JUMPDEST PUSH0 DUP2 CALLDATALOAD SWAP1 POP PUSH2 0x11D4 DUP2 PUSH2 0x11B0 JUMP JUMPDEST SWAP3 SWAP2 POP POP JUMP JUMPDEST PUSH0 PUSH1 0x20 DUP3 DUP5 SUB SLT ISZERO PUSH2 0x11EF JUMPI PUSH2 0x11EE PUSH2 0x10F6 JUMP JUMPDEST JUMPDEST PUSH0 PUSH2 0x11FC DUP5 DUP3 DUP6 ADD PUSH2 0x11C6 JUMP JUMPDEST SWAP2 POP POP SWAP3 SWAP2 POP POP JUMP JUMPDEST PUSH0 DUP2 SWAP1 POP SWAP2 SWAP1 POP JUMP JUMPDEST PUSH0 PUSH2 0x1228 PUSH2 0x1223 PUSH2 0x121E DUP5 PUSH2 0x10FA JUMP JUMPDEST PUSH2 0x1205 JUMP JUMPDEST PUSH2 0x10FA JUMP JUMPDEST SWAP1 POP SWAP2 SWAP1 POP JUMP JUMPDEST PUSH0 PUSH2 0x1239 DUP3 PUSH2 0x120E JUMP JUMPDEST SWAP1 POP SWAP2 SWAP1 POP JUMP JUMPDEST PUSH0 PUSH2 0x124A DUP3 PUSH2 0x122F JUMP JUMPDEST SWAP1 POP SWAP2 SWAP1 POP JUMP JUMPDEST PUSH2 0x125A DUP2 PUSH2 0x1240 JUMP JUMPDEST DUP3 MSTORE POP POP JUMP JUMPDEST PUSH0 PUSH1 0x20 DUP3 ADD SWAP1 POP PUSH2 0x1273 PUSH0 DUP4 ADD DUP5 PUSH2 0x1251 JUMP JUMPDEST SWAP3 SWAP2 POP POP JUMP JUMPDEST PUSH2 0x1282 DUP2 PUSH2 0x1119 JUMP JUMPDEST DUP3 MSTORE POP POP JUMP JUMPDEST PUSH0 PUSH1 0x20 DUP3 ADD SWAP1 POP PUSH2 0x129B PUSH0 DUP4 ADD DUP5 PUSH2 0x1279 JUMP JUMPDEST SWAP3 SWAP2 POP POP JUMP JUMPDEST PUSH32 0x4E487B7100000000000000000000000000000000000000000000000000000000 PUSH0 MSTORE PUSH1 0x11 PUSH1 0x4 MSTORE PUSH1 0x24 PUSH0 REVERT JUMPDEST PUSH0 PUSH2 0x12D8 DUP3 PUSH2 0x117F JUMP JUMPDEST SWAP2 POP PUSH2 0x12E3 DUP4 PUSH2 0x117F JUMP JUMPDEST SWAP3 POP DUP3 DUP3 SUB SWAP1 POP DUP2 DUP2 GT ISZERO PUSH2 0x12FB JUMPI PUSH2 0x12FA PUSH2 0x12A1 JUMP JUMPDEST JUMPDEST SWAP3 SWAP2 POP POP JUMP JUMPDEST PUSH0 PUSH2 0x130B DUP3 PUSH2 0x117F JUMP JUMPDEST SWAP2 POP PUSH2 0x1316 DUP4 PUSH2 0x117F JUMP JUMPDEST SWAP3 POP DUP3 DUP3 MUL PUSH2 0x1324 DUP2 PUSH2 0x117F JUMP JUMPDEST SWAP2 POP DUP3 DUP3 DIV DUP5 EQ DUP4 ISZERO OR PUSH2 0x133B JUMPI PUSH2 0x133A PUSH2 0x12A1 JUMP JUMPDEST JUMPDEST POP SWAP3 SWAP2 POP POP JUMP JUMPDEST PUSH32 0x4E487B7100000000000000000000000000000000000000000000000000000000 PUSH0 MSTORE PUSH1 0x12 PUSH1 0x4 MSTORE PUSH1 0x24 PUSH0 REVERT JUMPDEST PUSH0 PUSH2 0x1379 DUP3 PUSH2 0x117F JUMP JUMPDEST SWAP2 POP PUSH2 0x1384 DUP4 PUSH2 0x117F JUMP JUMPDEST SWAP3 POP DUP3 PUSH2 0x1394 JUMPI PUSH2 0x1393 PUSH2 0x1342 JUMP JUMPDEST JUMPDEST DUP3 DUP3 DIV SWAP1 POP SWAP3 SWAP2 POP POP JUMP JUMPDEST PUSH0 PUSH2 0x13A9 DUP3 PUSH2 0x117F JUMP JUMPDEST SWAP2 POP PUSH2 0x13B4 DUP4 PUSH2 0x117F JUMP JUMPDEST SWAP3 POP DUP3 DUP3 ADD SWAP1 POP DUP1 DUP3 GT ISZERO PUSH2 0x13CC JUMPI PUSH2 0x13CB PUSH2 0x12A1 JUMP JUMPDEST JUMPDEST SWAP3 SWAP2 POP POP JUMP JUMPDEST PUSH0 DUP3 DUP3 MSTORE PUSH1 0x20 DUP3 ADD SWAP1 POP SWAP3 SWAP2 POP POP JUMP JUMPDEST PUSH32 0x43616E6E6F742077697468647261772030000000000000000000000000000000 PUSH0 DUP3 ADD MSTORE POP JUMP JUMPDEST PUSH0 PUSH2 0x1416 PUSH1 0x11 DUP4 PUSH2 0x13D2 JUMP JUMPDEST SWAP2 POP PUSH2 0x1421 DUP3 PUSH2 0x13E2 JUMP JUMPDEST PUSH1 0x20 DUP3 ADD SWAP1 POP SWAP2 SWAP1 POP JUMP JUMPDEST PUSH0 PUSH1 0x20 DUP3 ADD SWAP1 POP DUP2 DUP2 SUB PUSH0 DUP4 ADD MSTORE PUSH2 0x1443 DUP2 PUSH2 0x140A JUMP JUMPDEST SWAP1 POP SWAP2 SWAP1 POP JUMP JUMPDEST PUSH32 0x576974686472617720616D6F756E7420657863656564732062616C616E636500 PUSH0 DUP3 ADD MSTORE POP JUMP JUMPDEST PUSH0 PUSH2 0x147E PUSH1 0x1F DUP4 PUSH2 0x13D2 JUMP JUMPDEST SWAP2 POP PUSH2 0x1489 DUP3 PUSH2 0x144A JUMP JUMPDEST PUSH1 0x20 DUP3 ADD SWAP1 POP SWAP2 SWAP1 POP JUMP JUMPDEST PUSH0 PUSH1 0x20 DUP3 ADD SWAP1 POP DUP2 DUP2 SUB PUSH0 DUP4 ADD MSTORE PUSH2 0x14AB DUP2 PUSH2 0x1472 JUMP JUMPDEST SWAP1 POP SWAP2 SWAP1 POP JUMP JUMPDEST PUSH0 PUSH1 0x40 DUP3 ADD SWAP1 POP PUSH2 0x14C5 PUSH0 DUP4 ADD DUP6 PUSH2 0x1279 JUMP JUMPDEST PUSH2 0x14D2 PUSH1 0x20 DUP4 ADD DUP5 PUSH2 0x1188 JUMP JUMPDEST SWAP4 SWAP3 POP POP POP JUMP JUMPDEST PUSH0 DUP2 ISZERO ISZERO SWAP1 POP SWAP2 SWAP1 POP JUMP JUMPDEST PUSH2 0x14ED DUP2 PUSH2 0x14D9 JUMP JUMPDEST DUP2 EQ PUSH2 0x14F7 JUMPI PUSH0 PUSH0 REVERT JUMPDEST POP JUMP JUMPDEST PUSH0 DUP2 MLOAD SWAP1 POP PUSH2 0x1508 DUP2 PUSH2 0x14E4 JUMP JUMPDEST SWAP3 SWAP2 POP POP JUMP JUMPDEST PUSH0 PUSH1 0x20 DUP3 DUP5 SUB SLT ISZERO PUSH2 0x1523 JUMPI PUSH2 0x1522 PUSH2 0x10F6 JUMP JUMPDEST JUMPDEST PUSH0 PUSH2 0x1530 DUP5 DUP3 DUP6 ADD PUSH2 0x14FA JUMP JUMPDEST SWAP2 POP POP SWAP3 SWAP2 POP POP JUMP JUMPDEST PUSH32 0x5472616E73666572206661696C65640000000000000000000000000000000000 PUSH0 DUP3 ADD MSTORE POP JUMP JUMPDEST PUSH0 PUSH2 0x156D PUSH1 0xF DUP4 PUSH2 0x13D2 JUMP JUMPDEST SWAP2 POP PUSH2 0x1578 DUP3 PUSH2 0x1539 JUMP JUMPDEST PUSH1 0x20 DUP3 ADD SWAP1 POP SWAP2 SWAP1 POP JUMP JUMPDEST PUSH0 PUSH1 0x20 DUP3 ADD SWAP1 POP DUP2 DUP2 SUB PUSH0 DUP4 ADD MSTORE PUSH2 0x159A DUP2 PUSH2 0x1561 JUMP JUMPDEST SWAP1 POP SWAP2 SWAP1 POP JUMP JUMPDEST PUSH32 0x6E6F7420617574686F72697A6564000000000000000000000000000000000000 PUSH0 DUP3 ADD MSTORE POP JUMP JUMPDEST PUSH0 PUSH2 0x15D5 PUSH1 0xE DUP4 PUSH2 0x13D2 JUMP JUMPDEST SWAP2 POP PUSH2 0x15E0 DUP3 PUSH2 0x15A1 JUMP JUMPDEST PUSH1 0x20 DUP3 ADD SWAP1 POP SWAP2 SWAP1 POP JUMP JUMPDEST PUSH0 PUSH1 0x20 DUP3 ADD SWAP1 POP DUP2 DUP2 SUB PUSH0 DUP4 ADD MSTORE PUSH2 0x1602 DUP2 PUSH2 0x15C9 JUMP JUMPDEST SWAP1 POP SWAP2 SWAP1 POP JUMP JUMPDEST PUSH32 0x5265776172642072617465203D20300000000000000000000000000000000000 PUSH0 DUP3 ADD MSTORE POP JUMP JUMPDEST PUSH0 PUSH2 0x163D PUSH1 0xF DUP4 PUSH2 0x13D2 JUMP JUMPDEST SWAP2 POP PUSH2 0x1648 DUP3 PUSH2 0x1609 JUMP JUMPDEST PUSH1 0x20 DUP3 ADD SWAP1 POP SWAP2 SWAP1 POP JUMP JUMPDEST PUSH0 PUSH1 0x20 DUP3 ADD SWAP1 POP DUP2 DUP2 SUB PUSH0 DUP4 ADD MSTORE PUSH2 0x166A DUP2 PUSH2 0x1631 JUMP JUMPDEST SWAP1 POP SWAP2 SWAP1 POP JUMP JUMPDEST PUSH0 DUP2 MLOAD SWAP1 POP PUSH2 0x167F DUP2 PUSH2 0x11B0 JUMP JUMPDEST SWAP3 SWAP2 POP POP JUMP JUMPDEST PUSH0 PUSH1 0x20 DUP3 DUP5 SUB SLT ISZERO PUSH2 0x169A JUMPI PUSH2 0x1699 PUSH2 0x10F6 JUMP JUMPDEST JUMPDEST PUSH0 PUSH2 0x16A7 DUP5 DUP3 DUP6 ADD PUSH2 0x1671 JUMP JUMPDEST SWAP2 POP POP SWAP3 SWAP2 POP POP JUMP JUMPDEST PUSH32 0x496E73756666696369656E742072657761726473000000000000000000000000 PUSH0 DUP3 ADD MSTORE POP JUMP JUMPDEST PUSH0 PUSH2 0x16E4 PUSH1 0x14 DUP4 PUSH2 0x13D2 JUMP JUMPDEST SWAP2 POP PUSH2 0x16EF DUP3 PUSH2 0x16B0 JUMP JUMPDEST PUSH1 0x20 DUP3 ADD SWAP1 POP SWAP2 SWAP1 POP JUMP JUMPDEST PUSH0 PUSH1 0x20 DUP3 ADD SWAP1 POP DUP2 DUP2 SUB PUSH0 DUP4 ADD MSTORE PUSH2 0x1711 DUP2 PUSH2 0x16D8 JUMP JUMPDEST SWAP1 POP SWAP2 SWAP1 POP JUMP JUMPDEST PUSH32 0x526577617264207472616E73666572206661696C656400000000000000000000 PUSH0 DUP3 ADD MSTORE POP JUMP JUMPDEST PUSH0 PUSH2 0x174C PUSH1 0x16 DUP4 PUSH2 0x13D2 JUMP JUMPDEST SWAP2 POP PUSH2 0x1757 DUP3 PUSH2 0x1718 JUMP JUMPDEST PUSH1 0x20 DUP3 ADD SWAP1 POP SWAP2 SWAP1 POP JUMP JUMPDEST PUSH0 PUSH1 0x20 DUP3 ADD SWAP1 POP DUP2 DUP2 SUB PUSH0 DUP4 ADD MSTORE PUSH2 0x1779 DUP2 PUSH2 0x1740 JUMP JUMPDEST SWAP1 POP SWAP2 SWAP1 POP JUMP JUMPDEST PUSH32 0x43616E6E6F74207374616B652030000000000000000000000000000000000000 PUSH0 DUP3 ADD MSTORE POP JUMP JUMPDEST PUSH0 PUSH2 0x17B4 PUSH1 0xE DUP4 PUSH2 0x13D2 JUMP JUMPDEST SWAP2 POP PUSH2 0x17BF DUP3 PUSH2 0x1780 JUMP JUMPDEST PUSH1 0x20 DUP3 ADD SWAP1 POP SWAP2 SWAP1 POP JUMP JUMPDEST PUSH0 PUSH1 0x20 DUP3 ADD SWAP1 POP DUP2 DUP2 SUB PUSH0 DUP4 ADD MSTORE PUSH2 0x17E1 DUP2 PUSH2 0x17A8 JUMP JUMPDEST SWAP1 POP SWAP2 SWAP1 POP JUMP JUMPDEST PUSH0 PUSH1 0x60 DUP3 ADD SWAP1 POP PUSH2 0x17FB PUSH0 DUP4 ADD DUP7 PUSH2 0x1279 JUMP JUMPDEST PUSH2 0x1808 PUSH1 0x20 DUP4 ADD DUP6 PUSH2 0x1279 JUMP JUMPDEST PUSH2 0x1815 PUSH1 0x40 DUP4 ADD DUP5 PUSH2 0x1188 JUMP JUMPDEST SWAP5 SWAP4 POP POP POP POP JUMP INVALID LOG2 PUSH5 0x6970667358 0x22 SLT KECCAK256 0xCE 0xB2 0x27 0xD4 0xA7 LOG3 DIV 0x2B 0xC5 DUP11 0xA9 0xDD CREATE2 0xF6 SWAP4 EXTCODEHASH MULMOD 0x4C 0x2B MUL 0x2B DUP5 0xC1 DUP14 RJUMPI 0xEE1E 0x2B 0xBB BASEFEE 0x2C 0xAB PUSH5 0x736F6C6343 STOP ADDMOD 0x1E STOP CALLER "
				},
				"gasEstimates": {
					"creation": {
						"codeDepositCost": "1245400",
						"executionCost": "infinite",
						"totalCost": "infinite"
					},
					"external": {
						"balanceOf(address)": "2891",
						"duration()": "2492",
						"earned(address)": "infinite",
						"exit()": "infinite",
						"finishAt()": "2492",
						"getReward()": "infinite",
						"lastTimeRewardApplicable()": "4632",
						"notifyRewardAmount(uint256)": "infinite",
						"owner()": "2619",
						"rewardPerToken()": "infinite",
						"rewardPerTokenStored()": "2513",
						"rewardRate()": "2470",
						"rewards(address)": "2848",
						"rewardsToken()": "infinite",
						"stake(uint256)": "infinite",
						"stakingToken()": "infinite",
						"totalSupply()": "2515",
						"updatedAt()": "2448",
						"userRewardPerTokenPaid(address)": "2891",
						"withdraw(uint256)": "infinite"
					}
				},
				"methodIdentifiers": {
					"balanceOf(address)": "70a08231",
					"duration()": "0fb5a6b4",
					"earned(address)": "008cc262",
					"exit()": "e9fad8ee",
					"finishAt()": "67d3b488",
					"getReward()": "3d18b912",
					"lastTimeRewardApplicable()": "80faa57d",
					"notifyRewardAmount(uint256)": "3c6b16ab",
					"owner()": "8da5cb5b",
					"rewardPerToken()": "cd3daf9d",
					"rewardPerTokenStored()": "df136d65",
					"rewardRate()": "7b0a47ee",
					"rewards(address)": "0700037d",
					"rewardsToken()": "d1af0c7d",
					"stake(uint256)": "a694fc3a",
					"stakingToken()": "72f702f3",
					"totalSupply()": "18160ddd",
					"updatedAt()": "7519ab50",
					"userRewardPerTokenPaid(address)": "8b876347",
					"withdraw(uint256)": "2e1a7d4d"
				}
			},
			"storageLayout": {
				"storage": [
					{
						"astId": 42,
						"contract": "Contract_Conqueror_Series/StakingRewards.sol:StakingRewards",
						"label": "duration",
						"offset": 0,
						"slot": "0",
						"type": "t_uint256"
					},
					{
						"astId": 44,
						"contract": "Contract_Conqueror_Series/StakingRewards.sol:StakingRewards",
						"label": "finishAt",
						"offset": 0,
						"slot": "1",
						"type": "t_uint256"
					},
					{
						"astId": 46,
						"contract": "Contract_Conqueror_Series/StakingRewards.sol:StakingRewards",
						"label": "updatedAt",
						"offset": 0,
						"slot": "2",
						"type": "t_uint256"
					},
					{
						"astId": 48,
						"contract": "Contract_Conqueror_Series/StakingRewards.sol:StakingRewards",
						"label": "rewardRate",
						"offset": 0,
						"slot": "3",
						"type": "t_uint256"
					},
					{
						"astId": 50,
						"contract": "Contract_Conqueror_Series/StakingRewards.sol:StakingRewards",
						"label": "rewardPerTokenStored",
						"offset": 0,
						"slot": "4",
						"type": "t_uint256"
					},
					{
						"astId": 54,
						"contract": "Contract_Conqueror_Series/StakingRewards.sol:StakingRewards",
						"label": "userRewardPerTokenPaid",
						"offset": 0,
						"slot": "5",
						"type": "t_mapping(t_address,t_uint256)"
					},
					{
						"astId": 58,
						"contract": "Contract_Conqueror_Series/StakingRewards.sol:StakingRewards",
						"label": "rewards",
						"offset": 0,
						"slot": "6",
						"type": "t_mapping(t_address,t_uint256)"
					},
					{
						"astId": 60,
						"contract": "Contract_Conqueror_Series/StakingRewards.sol:StakingRewards",
						"label": "totalSupply",
						"offset": 0,
						"slot": "7",
						"type": "t_uint256"
					},
					{
						"astId": 64,
						"contract": "Contract_Conqueror_Series/StakingRewards.sol:StakingRewards",
						"label": "balanceOf",
						"offset": 0,
						"slot": "8",
						"type": "t_mapping(t_address,t_uint256)"
					},
					{
						"astId": 66,
						"contract": "Contract_Conqueror_Series/StakingRewards.sol:StakingRewards",
						"label": "owner",
						"offset": 0,
						"slot": "9",
						"type": "t_address"
					}
				],
				"types": {
					"t_address": {
						"encoding": "inplace",
						"label": "address",
						"numberOfBytes": "20"
					},
					"t_mapping(t_address,t_uint256)": {
						"encoding": "mapping",
						"key": "t_address",
						"label": "mapping(address => uint256)",
						"numberOfBytes": "32",
						"value": "t_uint256"
					},
					"t_uint256": {
						"encoding": "inplace",
						"label": "uint256",
						"numberOfBytes": "32"
					}
				}
			},
			"userdoc": {
				"kind": "user",
				"methods": {},
				"version": 1
			}
		}
	}
}