{
	"Contract_Conqueror_Series/AdvancedERC1155RoyaltyAuctionAccess.sol": {
		"AdvancedERC1155RoyaltyAuctionAccess": {
			"abi": [
				{
					"inputs": [],
					"stateMutability": "nonpayable",
					"type": "constructor"
				},
				{
					"anonymous": false,
					"inputs": [
						{
							"indexed": true,
							"internalType": "address",
							"name": "account",
							"type": "address"
						},
						{
							"indexed": true,
							"internalType": "address",
							"name": "operator",
							"type": "address"
						},
						{
							"indexed": false,
							"internalType": "bool",
							"name": "approved",
							"type": "bool"
						}
					],
					"name": "ApprovalForAll",
					"type": "event"
				},
				{
					"anonymous": false,
					"inputs": [
						{
							"indexed": true,
							"internalType": "uint256",
							"name": "auctionId",
							"type": "uint256"
						},
						{
							"indexed": true,
							"internalType": "address",
							"name": "seller",
							"type": "address"
						},
						{
							"indexed": false,
							"internalType": "uint256",
							"name": "tokenId",
							"type": "uint256"
						},
						{
							"indexed": false,
							"internalType": "uint256",
							"name": "endTime",
							"type": "uint256"
						}
					],
					"name": "AuctionCreated",
					"type": "event"
				},
				{
					"anonymous": false,
					"inputs": [
						{
							"indexed": true,
							"internalType": "uint256",
							"name": "auctionId",
							"type": "uint256"
						},
						{
							"indexed": false,
							"internalType": "address",
							"name": "winner",
							"type": "address"
						},
						{
							"indexed": false,
							"internalType": "uint256",
							"name": "amount",
							"type": "uint256"
						}
					],
					"name": "AuctionEnded",
					"type": "event"
				},
				{
					"anonymous": false,
					"inputs": [
						{
							"indexed": true,
							"internalType": "uint256",
							"name": "auctionId",
							"type": "uint256"
						},
						{
							"indexed": true,
							"internalType": "address",
							"name": "bidder",
							"type": "address"
						},
						{
							"indexed": false,
							"internalType": "uint256",
							"name": "amount",
							"type": "uint256"
						}
					],
					"name": "BidPlaced",
					"type": "event"
				},
				{
					"anonymous": false,
					"inputs": [
						{
							"indexed": true,
							"internalType": "uint256",
							"name": "auctionId",
							"type": "uint256"
						},
						{
							"indexed": false,
							"internalType": "address",
							"name": "bidder",
							"type": "address"
						},
						{
							"indexed": false,
							"internalType": "uint256",
							"name": "amount",
							"type": "uint256"
						}
					],
					"name": "Refunded",
					"type": "event"
				},
				{
					"anonymous": false,
					"inputs": [
						{
							"indexed": true,
							"internalType": "address",
							"name": "operator",
							"type": "address"
						},
						{
							"indexed": true,
							"internalType": "address",
							"name": "from",
							"type": "address"
						},
						{
							"indexed": true,
							"internalType": "address",
							"name": "to",
							"type": "address"
						},
						{
							"indexed": false,
							"internalType": "uint256[]",
							"name": "ids",
							"type": "uint256[]"
						},
						{
							"indexed": false,
							"internalType": "uint256[]",
							"name": "values",
							"type": "uint256[]"
						}
					],
					"name": "TransferBatch",
					"type": "event"
				},
				{
					"anonymous": false,
					"inputs": [
						{
							"indexed": true,
							"internalType": "address",
							"name": "operator",
							"type": "address"
						},
						{
							"indexed": true,
							"internalType": "address",
							"name": "from",
							"type": "address"
						},
						{
							"indexed": true,
							"internalType": "address",
							"name": "to",
							"type": "address"
						},
						{
							"indexed": false,
							"internalType": "uint256",
							"name": "id",
							"type": "uint256"
						},
						{
							"indexed": false,
							"internalType": "uint256",
							"name": "value",
							"type": "uint256"
						}
					],
					"name": "TransferSingle",
					"type": "event"
				},
				{
					"anonymous": false,
					"inputs": [
						{
							"indexed": false,
							"internalType": "string",
							"name": "value",
							"type": "string"
						},
						{
							"indexed": true,
							"internalType": "uint256",
							"name": "id",
							"type": "uint256"
						}
					],
					"name": "URI",
					"type": "event"
				},
				{
					"inputs": [],
					"name": "auctionCount",
					"outputs": [
						{
							"internalType": "uint256",
							"name": "",
							"type": "uint256"
						}
					],
					"stateMutability": "view",
					"type": "function"
				},
				{
					"inputs": [
						{
							"internalType": "uint256",
							"name": "",
							"type": "uint256"
						}
					],
					"name": "auctions",
					"outputs": [
						{
							"internalType": "address",
							"name": "seller",
							"type": "address"
						},
						{
							"internalType": "uint256",
							"name": "tokenId",
							"type": "uint256"
						},
						{
							"internalType": "uint256",
							"name": "amount",
							"type": "uint256"
						},
						{
							"internalType": "uint256",
							"name": "endTime",
							"type": "uint256"
						},
						{
							"internalType": "uint256",
							"name": "highestBid",
							"type": "uint256"
						},
						{
							"internalType": "address",
							"name": "highestBidder",
							"type": "address"
						},
						{
							"internalType": "bool",
							"name": "ended",
							"type": "bool"
						}
					],
					"stateMutability": "view",
					"type": "function"
				},
				{
					"inputs": [
						{
							"internalType": "address",
							"name": "account",
							"type": "address"
						},
						{
							"internalType": "uint256",
							"name": "id",
							"type": "uint256"
						}
					],
					"name": "balanceOf",
					"outputs": [
						{
							"internalType": "uint256",
							"name": "",
							"type": "uint256"
						}
					],
					"stateMutability": "view",
					"type": "function"
				},
				{
					"inputs": [
						{
							"internalType": "address[]",
							"name": "accounts",
							"type": "address[]"
						},
						{
							"internalType": "uint256[]",
							"name": "ids",
							"type": "uint256[]"
						}
					],
					"name": "balanceOfBatch",
					"outputs": [
						{
							"internalType": "uint256[]",
							"name": "",
							"type": "uint256[]"
						}
					],
					"stateMutability": "view",
					"type": "function"
				},
				{
					"inputs": [
						{
							"internalType": "uint256",
							"name": "auctionId",
							"type": "uint256"
						}
					],
					"name": "bid",
					"outputs": [],
					"stateMutability": "payable",
					"type": "function"
				},
				{
					"inputs": [
						{
							"internalType": "uint256",
							"name": "",
							"type": "uint256"
						},
						{
							"internalType": "address",
							"name": "",
							"type": "address"
						}
					],
					"name": "bids",
					"outputs": [
						{
							"internalType": "uint256",
							"name": "",
							"type": "uint256"
						}
					],
					"stateMutability": "view",
					"type": "function"
				},
				{
					"inputs": [
						{
							"internalType": "uint256",
							"name": "tokenId",
							"type": "uint256"
						},
						{
							"internalType": "uint256",
							"name": "amount",
							"type": "uint256"
						},
						{
							"internalType": "uint256",
							"name": "duration",
							"type": "uint256"
						}
					],
					"name": "createAuction",
					"outputs": [
						{
							"internalType": "uint256",
							"name": "",
							"type": "uint256"
						}
					],
					"stateMutability": "nonpayable",
					"type": "function"
				},
				{
					"inputs": [
						{
							"internalType": "uint256",
							"name": "auctionId",
							"type": "uint256"
						}
					],
					"name": "endAuction",
					"outputs": [],
					"stateMutability": "nonpayable",
					"type": "function"
				},
				{
					"inputs": [
						{
							"internalType": "address",
							"name": "account",
							"type": "address"
						},
						{
							"internalType": "address",
							"name": "operator",
							"type": "address"
						}
					],
					"name": "isApprovedForAll",
					"outputs": [
						{
							"internalType": "bool",
							"name": "",
							"type": "bool"
						}
					],
					"stateMutability": "view",
					"type": "function"
				},
				{
					"inputs": [
						{
							"internalType": "address",
							"name": "to",
							"type": "address"
						},
						{
							"internalType": "uint256",
							"name": "id",
							"type": "uint256"
						},
						{
							"internalType": "uint256",
							"name": "amount",
							"type": "uint256"
						},
						{
							"internalType": "string",
							"name": "uri_",
							"type": "string"
						},
						{
							"internalType": "address",
							"name": "royaltyReceiver",
							"type": "address"
						},
						{
							"internalType": "uint96",
							"name": "royaltyFee",
							"type": "uint96"
						}
					],
					"name": "mint",
					"outputs": [],
					"stateMutability": "nonpayable",
					"type": "function"
				},
				{
					"inputs": [],
					"name": "owner",
					"outputs": [
						{
							"internalType": "address",
							"name": "",
							"type": "address"
						}
					],
					"stateMutability": "view",
					"type": "function"
				},
				{
					"inputs": [],
					"name": "pause",
					"outputs": [],
					"stateMutability": "nonpayable",
					"type": "function"
				},
				{
					"inputs": [],
					"name": "paused",
					"outputs": [
						{
							"internalType": "bool",
							"name": "",
							"type": "bool"
						}
					],
					"stateMutability": "view",
					"type": "function"
				},
				{
					"inputs": [
						{
							"internalType": "uint256",
							"name": "tokenId",
							"type": "uint256"
						},
						{
							"internalType": "uint256",
							"name": "salePrice",
							"type": "uint256"
						}
					],
					"name": "royaltyInfo",
					"outputs": [
						{
							"internalType": "address",
							"name": "",
							"type": "address"
						},
						{
							"internalType": "uint256",
							"name": "",
							"type": "uint256"
						}
					],
					"stateMutability": "view",
					"type": "function"
				},
				{
					"inputs": [
						{
							"internalType": "address",
							"name": "from",
							"type": "address"
						},
						{
							"internalType": "address",
							"name": "to",
							"type": "address"
						},
						{
							"internalType": "uint256[]",
							"name": "ids",
							"type": "uint256[]"
						},
						{
							"internalType": "uint256[]",
							"name": "amounts",
							"type": "uint256[]"
						}
					],
					"name": "safeBatchTransferFrom",
					"outputs": [],
					"stateMutability": "nonpayable",
					"type": "function"
				},
				{
					"inputs": [
						{
							"internalType": "address",
							"name": "from",
							"type": "address"
						},
						{
							"internalType": "address",
							"name": "to",
							"type": "address"
						},
						{
							"internalType": "uint256",
							"name": "id",
							"type": "uint256"
						},
						{
							"internalType": "uint256",
							"name": "amount",
							"type": "uint256"
						}
					],
					"name": "safeTransferFrom",
					"outputs": [],
					"stateMutability": "nonpayable",
					"type": "function"
				},
				{
					"inputs": [
						{
							"internalType": "address",
							"name": "operator",
							"type": "address"
						},
						{
							"internalType": "bool",
							"name": "approved",
							"type": "bool"
						}
					],
					"name": "setApprovalForAll",
					"outputs": [],
					"stateMutability": "nonpayable",
					"type": "function"
				},
				{
					"inputs": [
						{
							"internalType": "bytes4",
							"name": "interfaceId",
							"type": "bytes4"
						}
					],
					"name": "supportsInterface",
					"outputs": [
						{
							"internalType": "bool",
							"name": "",
							"type": "bool"
						}
					],
					"stateMutability": "pure",
					"type": "function"
				},
				{
					"inputs": [],
					"name": "unpause",
					"outputs": [],
					"stateMutability": "nonpayable",
					"type": "function"
				},
				{
					"inputs": [
						{
							"internalType": "uint256",
							"name": "id",
							"type": "uint256"
						}
					],
					"name": "uri",
					"outputs": [
						{
							"internalType": "string",
							"name": "",
							"type": "string"
						}
					],
					"stateMutability": "view",
					"type": "function"
				},
				{
					"inputs": [
						{
							"internalType": "uint256",
							"name": "auctionId",
							"type": "uint256"
						}
					],
					"name": "withdrawBid",
					"outputs": [],
					"stateMutability": "nonpayable",
					"type": "function"
				}
			],
			"devdoc": {
				"kind": "dev",
				"methods": {},
				"title": "AdvancedERC1155RoyaltyAuctionAccess",
				"version": 1
			},
			"evm": {
				"assembly": "    /* \"Contract_Conqueror_Series/AdvancedERC1155RoyaltyAuctionAccess.sol\":198:8736  contract AdvancedERC1155RoyaltyAuctionAccess {... */\n  mstore(0x40, 0x80)\n    /* \"Contract_Conqueror_Series/AdvancedERC1155RoyaltyAuctionAccess.sol\":1395:1446  constructor() {... */\n  callvalue\n  dup1\n  iszero\n  tag_1\n  jumpi\n  revert(0x00, 0x00)\ntag_1:\n  pop\n    /* \"Contract_Conqueror_Series/AdvancedERC1155RoyaltyAuctionAccess.sol\":1428:1438  msg.sender */\n  caller\n    /* \"Contract_Conqueror_Series/AdvancedERC1155RoyaltyAuctionAccess.sol\":1420:1425  owner */\n  0x07\n  0x00\n    /* \"Contract_Conqueror_Series/AdvancedERC1155RoyaltyAuctionAccess.sol\":1420:1438  owner = msg.sender */\n  0x0100\n  exp\n  dup2\n  sload\n  dup2\n  0xffffffffffffffffffffffffffffffffffffffff\n  mul\n  not\n  and\n  swap1\n  dup4\n  0xffffffffffffffffffffffffffffffffffffffff\n  and\n  mul\n  or\n  swap1\n  sstore\n  pop\n    /* \"Contract_Conqueror_Series/AdvancedERC1155RoyaltyAuctionAccess.sol\":198:8736  contract AdvancedERC1155RoyaltyAuctionAccess {... */\n  dataSize(sub_0)\n  dup1\n  dataOffset(sub_0)\n  0x00\n  codecopy\n  0x00\n  return\nstop\n\nsub_0: assembly {\n        /* \"Contract_Conqueror_Series/AdvancedERC1155RoyaltyAuctionAccess.sol\":198:8736  contract AdvancedERC1155RoyaltyAuctionAccess {... */\n      mstore(0x40, 0x80)\n      jumpi(tag_1, lt(calldatasize, 0x04))\n      shr(0xe0, calldataload(0x00))\n      dup1\n      0x4e1273f4\n      gt\n      tag_23\n      jumpi\n      dup1\n      0xa22cb465\n      gt\n      tag_24\n      jumpi\n      dup1\n      0xa22cb465\n      eq\n      tag_17\n      jumpi\n      dup1\n      0xb9a2de3a\n      eq\n      tag_18\n      jumpi\n      dup1\n      0xcda4beef\n      eq\n      tag_19\n      jumpi\n      dup1\n      0xe985e9c5\n      eq\n      tag_20\n      jumpi\n      dup1\n      0xfba0ee64\n      eq\n      tag_21\n      jumpi\n      dup1\n      0xfd8bf596\n      eq\n      tag_22\n      jumpi\n      jump(tag_1)\n    tag_24:\n      dup1\n      0x4e1273f4\n      eq\n      tag_12\n      jumpi\n      dup1\n      0x571a26a0\n      eq\n      tag_13\n      jumpi\n      dup1\n      0x5c975abb\n      eq\n      tag_14\n      jumpi\n      dup1\n      0x8456cb59\n      eq\n      tag_15\n      jumpi\n      dup1\n      0x8da5cb5b\n      eq\n      tag_16\n      jumpi\n      jump(tag_1)\n    tag_23:\n      dup1\n      0x2a55205a\n      gt\n      tag_25\n      jumpi\n      dup1\n      0x2a55205a\n      eq\n      tag_7\n      jumpi\n      dup1\n      0x2ad71573\n      eq\n      tag_8\n      jumpi\n      dup1\n      0x3f1ffcec\n      eq\n      tag_9\n      jumpi\n      dup1\n      0x3f4ba83a\n      eq\n      tag_10\n      jumpi\n      dup1\n      0x454a2ab3\n      eq\n      tag_11\n      jumpi\n      jump(tag_1)\n    tag_25:\n      dup1\n      0xfdd58e\n      eq\n      tag_2\n      jumpi\n      dup1\n      0x01ffc9a7\n      eq\n      tag_3\n      jumpi\n      dup1\n      0x0e89341c\n      eq\n      tag_4\n      jumpi\n      dup1\n      0x0eaaf4c8\n      eq\n      tag_5\n      jumpi\n      dup1\n      0x0febdd49\n      eq\n      tag_6\n      jumpi\n    tag_1:\n      revert(0x00, 0x00)\n        /* \"Contract_Conqueror_Series/AdvancedERC1155RoyaltyAuctionAccess.sol\":2443:2626  function balanceOf(address account, uint256 id) public view returns (uint256) {... */\n    tag_2:\n      callvalue\n      dup1\n      iszero\n      tag_26\n      jumpi\n      revert(0x00, 0x00)\n    tag_26:\n      pop\n      tag_27\n      0x04\n      dup1\n      calldatasize\n      sub\n      dup2\n      add\n      swap1\n      tag_28\n      swap2\n      swap1\n      tag_29\n      jump\t// in\n    tag_28:\n      tag_30\n      jump\t// in\n    tag_27:\n      mload(0x40)\n      tag_31\n      swap2\n      swap1\n      tag_32\n      jump\t// in\n    tag_31:\n      mload(0x40)\n      dup1\n      swap2\n      sub\n      swap1\n      return\n        /* \"Contract_Conqueror_Series/AdvancedERC1155RoyaltyAuctionAccess.sol\":4675:4829  function supportsInterface(bytes4 interfaceId) public pure returns (bool) {... */\n    tag_3:\n      callvalue\n      dup1\n      iszero\n      tag_33\n      jumpi\n      revert(0x00, 0x00)\n    tag_33:\n      pop\n      tag_34\n      0x04\n      dup1\n      calldatasize\n      sub\n      dup2\n      add\n      swap1\n      tag_35\n      swap2\n      swap1\n      tag_36\n      jump\t// in\n    tag_35:\n      tag_37\n      jump\t// in\n    tag_34:\n      mload(0x40)\n      tag_38\n      swap2\n      swap1\n      tag_39\n      jump\t// in\n    tag_38:\n      mload(0x40)\n      dup1\n      swap2\n      sub\n      swap1\n      return\n        /* \"Contract_Conqueror_Series/AdvancedERC1155RoyaltyAuctionAccess.sol\":4571:4667  function uri(uint256 id) public view returns (string memory) {... */\n    tag_4:\n      callvalue\n      dup1\n      iszero\n      tag_40\n      jumpi\n      revert(0x00, 0x00)\n    tag_40:\n      pop\n      tag_41\n      0x04\n      dup1\n      calldatasize\n      sub\n      dup2\n      add\n      swap1\n      tag_42\n      swap2\n      swap1\n      tag_43\n      jump\t// in\n    tag_42:\n      tag_44\n      jump\t// in\n    tag_41:\n      mload(0x40)\n      tag_45\n      swap2\n      swap1\n      tag_46\n      jump\t// in\n    tag_45:\n      mload(0x40)\n      dup1\n      swap2\n      sub\n      swap1\n      return\n        /* \"Contract_Conqueror_Series/AdvancedERC1155RoyaltyAuctionAccess.sol\":7660:7985  function withdrawBid(uint256 auctionId) external whenNotPaused {... */\n    tag_5:\n      callvalue\n      dup1\n      iszero\n      tag_47\n      jumpi\n      revert(0x00, 0x00)\n    tag_47:\n      pop\n      tag_48\n      0x04\n      dup1\n      calldatasize\n      sub\n      dup2\n      add\n      swap1\n      tag_49\n      swap2\n      swap1\n      tag_43\n      jump\t// in\n    tag_49:\n      tag_50\n      jump\t// in\n    tag_48:\n      stop\n        /* \"Contract_Conqueror_Series/AdvancedERC1155RoyaltyAuctionAccess.sol\":3428:3896  function safeTransferFrom(address from, address to, uint256 id, uint256 amount) external whenNotPaused {... */\n    tag_6:\n      callvalue\n      dup1\n      iszero\n      tag_51\n      jumpi\n      revert(0x00, 0x00)\n    tag_51:\n      pop\n      tag_52\n      0x04\n      dup1\n      calldatasize\n      sub\n      dup2\n      add\n      swap1\n      tag_53\n      swap2\n      swap1\n      tag_54\n      jump\t// in\n    tag_53:\n      tag_55\n      jump\t// in\n    tag_52:\n      stop\n        /* \"Contract_Conqueror_Series/AdvancedERC1155RoyaltyAuctionAccess.sol\":5579:5875  function royaltyInfo(uint256 tokenId, uint256 salePrice) external view returns (address, uint256) {... */\n    tag_7:\n      callvalue\n      dup1\n      iszero\n      tag_56\n      jumpi\n      revert(0x00, 0x00)\n    tag_56:\n      pop\n      tag_57\n      0x04\n      dup1\n      calldatasize\n      sub\n      dup2\n      add\n      swap1\n      tag_58\n      swap2\n      swap1\n      tag_59\n      jump\t// in\n    tag_58:\n      tag_60\n      jump\t// in\n    tag_57:\n      mload(0x40)\n      tag_61\n      swap3\n      swap2\n      swap1\n      tag_62\n      jump\t// in\n    tag_61:\n      mload(0x40)\n      dup1\n      swap2\n      sub\n      swap1\n      return\n        /* \"Contract_Conqueror_Series/AdvancedERC1155RoyaltyAuctionAccess.sol\":945:972  uint256 public auctionCount */\n    tag_8:\n      callvalue\n      dup1\n      iszero\n      tag_63\n      jumpi\n      revert(0x00, 0x00)\n    tag_63:\n      pop\n      tag_64\n      tag_65\n      jump\t// in\n    tag_64:\n      mload(0x40)\n      tag_66\n      swap2\n      swap1\n      tag_32\n      jump\t// in\n    tag_66:\n      mload(0x40)\n      dup1\n      swap2\n      sub\n      swap1\n      return\n        /* \"Contract_Conqueror_Series/AdvancedERC1155RoyaltyAuctionAccess.sol\":1029:1088  mapping(uint256 => mapping(address => uint256)) public bids */\n    tag_9:\n      callvalue\n      dup1\n      iszero\n      tag_67\n      jumpi\n      revert(0x00, 0x00)\n    tag_67:\n      pop\n      tag_68\n      0x04\n      dup1\n      calldatasize\n      sub\n      dup2\n      add\n      swap1\n      tag_69\n      swap2\n      swap1\n      tag_70\n      jump\t// in\n    tag_69:\n      tag_71\n      jump\t// in\n    tag_68:\n      mload(0x40)\n      tag_72\n      swap2\n      swap1\n      tag_32\n      jump\t// in\n    tag_72:\n      mload(0x40)\n      dup1\n      swap2\n      sub\n      swap1\n      return\n        /* \"Contract_Conqueror_Series/AdvancedERC1155RoyaltyAuctionAccess.sol\":1530:1601  function unpause() external onlyOwner {... */\n    tag_10:\n      callvalue\n      dup1\n      iszero\n      tag_73\n      jumpi\n      revert(0x00, 0x00)\n    tag_73:\n      pop\n      tag_74\n      tag_75\n      jump\t// in\n    tag_74:\n      stop\n        /* \"Contract_Conqueror_Series/AdvancedERC1155RoyaltyAuctionAccess.sol\":7150:7652  function bid(uint256 auctionId) external payable onlyBeforeEnd(auctionId) whenNotPaused {... */\n    tag_11:\n      tag_76\n      0x04\n      dup1\n      calldatasize\n      sub\n      dup2\n      add\n      swap1\n      tag_77\n      swap2\n      swap1\n      tag_43\n      jump\t// in\n    tag_77:\n      tag_78\n      jump\t// in\n    tag_76:\n      stop\n        /* \"Contract_Conqueror_Series/AdvancedERC1155RoyaltyAuctionAccess.sol\":2634:3036  function balanceOfBatch(address[] calldata accounts, uint256[] calldata ids) external view returns (uint256[] memory) {... */\n    tag_12:\n      callvalue\n      dup1\n      iszero\n      tag_79\n      jumpi\n      revert(0x00, 0x00)\n    tag_79:\n      pop\n      tag_80\n      0x04\n      dup1\n      calldatasize\n      sub\n      dup2\n      add\n      swap1\n      tag_81\n      swap2\n      swap1\n      tag_82\n      jump\t// in\n    tag_81:\n      tag_83\n      jump\t// in\n    tag_80:\n      mload(0x40)\n      tag_84\n      swap2\n      swap1\n      tag_85\n      jump\t// in\n    tag_84:\n      mload(0x40)\n      dup1\n      swap2\n      sub\n      swap1\n      return\n        /* \"Contract_Conqueror_Series/AdvancedERC1155RoyaltyAuctionAccess.sol\":979:1022  mapping(uint256 => Auction) public auctions */\n    tag_13:\n      callvalue\n      dup1\n      iszero\n      tag_86\n      jumpi\n      revert(0x00, 0x00)\n    tag_86:\n      pop\n      tag_87\n      0x04\n      dup1\n      calldatasize\n      sub\n      dup2\n      add\n      swap1\n      tag_88\n      swap2\n      swap1\n      tag_43\n      jump\t// in\n    tag_88:\n      tag_89\n      jump\t// in\n    tag_87:\n      mload(0x40)\n      tag_90\n      swap8\n      swap7\n      swap6\n      swap5\n      swap4\n      swap3\n      swap2\n      swap1\n      tag_91\n      jump\t// in\n    tag_90:\n      mload(0x40)\n      dup1\n      swap2\n      sub\n      swap1\n      return\n        /* \"Contract_Conqueror_Series/AdvancedERC1155RoyaltyAuctionAccess.sol\":1177:1195  bool public paused */\n    tag_14:\n      callvalue\n      dup1\n      iszero\n      tag_92\n      jumpi\n      revert(0x00, 0x00)\n    tag_92:\n      pop\n      tag_93\n      tag_94\n      jump\t// in\n    tag_93:\n      mload(0x40)\n      tag_95\n      swap2\n      swap1\n      tag_39\n      jump\t// in\n    tag_95:\n      mload(0x40)\n      dup1\n      swap2\n      sub\n      swap1\n      return\n        /* \"Contract_Conqueror_Series/AdvancedERC1155RoyaltyAuctionAccess.sol\":1454:1522  function pause() external onlyOwner {... */\n    tag_15:\n      callvalue\n      dup1\n      iszero\n      tag_96\n      jumpi\n      revert(0x00, 0x00)\n    tag_96:\n      pop\n      tag_97\n      tag_98\n      jump\t// in\n    tag_97:\n      stop\n        /* \"Contract_Conqueror_Series/AdvancedERC1155RoyaltyAuctionAccess.sol\":1150:1170  address public owner */\n    tag_16:\n      callvalue\n      dup1\n      iszero\n      tag_99\n      jumpi\n      revert(0x00, 0x00)\n    tag_99:\n      pop\n      tag_100\n      tag_101\n      jump\t// in\n    tag_100:\n      mload(0x40)\n      tag_102\n      swap2\n      swap1\n      tag_103\n      jump\t// in\n    tag_102:\n      mload(0x40)\n      dup1\n      swap2\n      sub\n      swap1\n      return\n        /* \"Contract_Conqueror_Series/AdvancedERC1155RoyaltyAuctionAccess.sol\":3044:3259  function setApprovalForAll(address operator, bool approved) external whenNotPaused {... */\n    tag_17:\n      callvalue\n      dup1\n      iszero\n      tag_104\n      jumpi\n      revert(0x00, 0x00)\n    tag_104:\n      pop\n      tag_105\n      0x04\n      dup1\n      calldatasize\n      sub\n      dup2\n      add\n      swap1\n      tag_106\n      swap2\n      swap1\n      tag_107\n      jump\t// in\n    tag_106:\n      tag_108\n      jump\t// in\n    tag_105:\n      stop\n        /* \"Contract_Conqueror_Series/AdvancedERC1155RoyaltyAuctionAccess.sol\":7993:8733  function endAuction(uint256 auctionId) external onlyAfterEnd(auctionId) notEnded(auctionId) whenNotPaused {... */\n    tag_18:\n      callvalue\n      dup1\n      iszero\n      tag_109\n      jumpi\n      revert(0x00, 0x00)\n    tag_109:\n      pop\n      tag_110\n      0x04\n      dup1\n      calldatasize\n      sub\n      dup2\n      add\n      swap1\n      tag_111\n      swap2\n      swap1\n      tag_43\n      jump\t// in\n    tag_111:\n      tag_112\n      jump\t// in\n    tag_110:\n      stop\n        /* \"Contract_Conqueror_Series/AdvancedERC1155RoyaltyAuctionAccess.sol\":6339:7142  function createAuction(uint256 tokenId, uint256 amount, uint256 duration) external whenNotPaused returns (uint256) {... */\n    tag_19:\n      callvalue\n      dup1\n      iszero\n      tag_113\n      jumpi\n      revert(0x00, 0x00)\n    tag_113:\n      pop\n      tag_114\n      0x04\n      dup1\n      calldatasize\n      sub\n      dup2\n      add\n      swap1\n      tag_115\n      swap2\n      swap1\n      tag_116\n      jump\t// in\n    tag_115:\n      tag_117\n      jump\t// in\n    tag_114:\n      mload(0x40)\n      tag_118\n      swap2\n      swap1\n      tag_32\n      jump\t// in\n    tag_118:\n      mload(0x40)\n      dup1\n      swap2\n      sub\n      swap1\n      return\n        /* \"Contract_Conqueror_Series/AdvancedERC1155RoyaltyAuctionAccess.sol\":3267:3420  function isApprovedForAll(address account, address operator) external view returns (bool) {... */\n    tag_20:\n      callvalue\n      dup1\n      iszero\n      tag_119\n      jumpi\n      revert(0x00, 0x00)\n    tag_119:\n      pop\n      tag_120\n      0x04\n      dup1\n      calldatasize\n      sub\n      dup2\n      add\n      swap1\n      tag_121\n      swap2\n      swap1\n      tag_122\n      jump\t// in\n    tag_121:\n      tag_123\n      jump\t// in\n    tag_120:\n      mload(0x40)\n      tag_124\n      swap2\n      swap1\n      tag_39\n      jump\t// in\n    tag_124:\n      mload(0x40)\n      dup1\n      swap2\n      sub\n      swap1\n      return\n        /* \"Contract_Conqueror_Series/AdvancedERC1155RoyaltyAuctionAccess.sol\":3904:4563  function safeBatchTransferFrom(address from, address to, uint256[] calldata ids, uint256[] calldata amounts) external whenNotPaused {... */\n    tag_21:\n      callvalue\n      dup1\n      iszero\n      tag_125\n      jumpi\n      revert(0x00, 0x00)\n    tag_125:\n      pop\n      tag_126\n      0x04\n      dup1\n      calldatasize\n      sub\n      dup2\n      add\n      swap1\n      tag_127\n      swap2\n      swap1\n      tag_128\n      jump\t// in\n    tag_127:\n      tag_129\n      jump\t// in\n    tag_126:\n      stop\n        /* \"Contract_Conqueror_Series/AdvancedERC1155RoyaltyAuctionAccess.sol\":4875:5571  function mint(... */\n    tag_22:\n      callvalue\n      dup1\n      iszero\n      tag_130\n      jumpi\n      revert(0x00, 0x00)\n    tag_130:\n      pop\n      tag_131\n      0x04\n      dup1\n      calldatasize\n      sub\n      dup2\n      add\n      swap1\n      tag_132\n      swap2\n      swap1\n      tag_133\n      jump\t// in\n    tag_132:\n      tag_134\n      jump\t// in\n    tag_131:\n      stop\n        /* \"Contract_Conqueror_Series/AdvancedERC1155RoyaltyAuctionAccess.sol\":2443:2626  function balanceOf(address account, uint256 id) public view returns (uint256) {... */\n    tag_30:\n        /* \"Contract_Conqueror_Series/AdvancedERC1155RoyaltyAuctionAccess.sol\":2512:2519  uint256 */\n      0x00\n        /* \"Contract_Conqueror_Series/AdvancedERC1155RoyaltyAuctionAccess.sol\":2559:2560  0 */\n      0x00\n        /* \"Contract_Conqueror_Series/AdvancedERC1155RoyaltyAuctionAccess.sol\":2540:2561  account != address(0) */\n      0xffffffffffffffffffffffffffffffffffffffff\n      and\n        /* \"Contract_Conqueror_Series/AdvancedERC1155RoyaltyAuctionAccess.sol\":2540:2547  account */\n      dup4\n        /* \"Contract_Conqueror_Series/AdvancedERC1155RoyaltyAuctionAccess.sol\":2540:2561  account != address(0) */\n      0xffffffffffffffffffffffffffffffffffffffff\n      and\n      sub\n        /* \"Contract_Conqueror_Series/AdvancedERC1155RoyaltyAuctionAccess.sol\":2532:2578  require(account != address(0), \"Zero address\") */\n      tag_136\n      jumpi\n      mload(0x40)\n      0x08c379a000000000000000000000000000000000000000000000000000000000\n      dup2\n      mstore\n      0x04\n      add\n      tag_137\n      swap1\n      tag_138\n      jump\t// in\n    tag_137:\n      mload(0x40)\n      dup1\n      swap2\n      sub\n      swap1\n      revert\n    tag_136:\n        /* \"Contract_Conqueror_Series/AdvancedERC1155RoyaltyAuctionAccess.sol\":2596:2605  _balances */\n      0x00\n        /* \"Contract_Conqueror_Series/AdvancedERC1155RoyaltyAuctionAccess.sol\":2596:2609  _balances[id] */\n      0x00\n        /* \"Contract_Conqueror_Series/AdvancedERC1155RoyaltyAuctionAccess.sol\":2606:2608  id */\n      dup4\n        /* \"Contract_Conqueror_Series/AdvancedERC1155RoyaltyAuctionAccess.sol\":2596:2609  _balances[id] */\n      dup2\n      mstore\n      0x20\n      add\n      swap1\n      dup2\n      mstore\n      0x20\n      add\n      0x00\n      keccak256\n        /* \"Contract_Conqueror_Series/AdvancedERC1155RoyaltyAuctionAccess.sol\":2596:2618  _balances[id][account] */\n      0x00\n        /* \"Contract_Conqueror_Series/AdvancedERC1155RoyaltyAuctionAccess.sol\":2610:2617  account */\n      dup5\n        /* \"Contract_Conqueror_Series/AdvancedERC1155RoyaltyAuctionAccess.sol\":2596:2618  _balances[id][account] */\n      0xffffffffffffffffffffffffffffffffffffffff\n      and\n      0xffffffffffffffffffffffffffffffffffffffff\n      and\n      dup2\n      mstore\n      0x20\n      add\n      swap1\n      dup2\n      mstore\n      0x20\n      add\n      0x00\n      keccak256\n      sload\n        /* \"Contract_Conqueror_Series/AdvancedERC1155RoyaltyAuctionAccess.sol\":2589:2618  return _balances[id][account] */\n      swap1\n      pop\n        /* \"Contract_Conqueror_Series/AdvancedERC1155RoyaltyAuctionAccess.sol\":2443:2626  function balanceOf(address account, uint256 id) public view returns (uint256) {... */\n      swap3\n      swap2\n      pop\n      pop\n      jump\t// out\n        /* \"Contract_Conqueror_Series/AdvancedERC1155RoyaltyAuctionAccess.sol\":4675:4829  function supportsInterface(bytes4 interfaceId) public pure returns (bool) {... */\n    tag_37:\n        /* \"Contract_Conqueror_Series/AdvancedERC1155RoyaltyAuctionAccess.sol\":4743:4747  bool */\n      0x00\n        /* \"Contract_Conqueror_Series/AdvancedERC1155RoyaltyAuctionAccess.sol\":4782:4792  0xd9b67a26 */\n      0xd9b67a26\n        /* \"Contract_Conqueror_Series/AdvancedERC1155RoyaltyAuctionAccess.sol\":4767:4792  interfaceId == 0xd9b67a26 */\n      0xe0\n      shl\n        /* \"Contract_Conqueror_Series/AdvancedERC1155RoyaltyAuctionAccess.sol\":4767:4778  interfaceId */\n      dup3\n        /* \"Contract_Conqueror_Series/AdvancedERC1155RoyaltyAuctionAccess.sol\":4767:4792  interfaceId == 0xd9b67a26 */\n      not(0xffffffffffffffffffffffffffffffffffffffffffffffffffffffff)\n      and\n      eq\n        /* \"Contract_Conqueror_Series/AdvancedERC1155RoyaltyAuctionAccess.sol\":4767:4821  interfaceId == 0xd9b67a26 || interfaceId == 0x2a55205a */\n      dup1\n      tag_140\n      jumpi\n      pop\n        /* \"Contract_Conqueror_Series/AdvancedERC1155RoyaltyAuctionAccess.sol\":4811:4821  0x2a55205a */\n      0x2a55205a\n        /* \"Contract_Conqueror_Series/AdvancedERC1155RoyaltyAuctionAccess.sol\":4796:4821  interfaceId == 0x2a55205a */\n      0xe0\n      shl\n        /* \"Contract_Conqueror_Series/AdvancedERC1155RoyaltyAuctionAccess.sol\":4796:4807  interfaceId */\n      dup3\n        /* \"Contract_Conqueror_Series/AdvancedERC1155RoyaltyAuctionAccess.sol\":4796:4821  interfaceId == 0x2a55205a */\n      not(0xffffffffffffffffffffffffffffffffffffffffffffffffffffffff)\n      and\n      eq\n        /* \"Contract_Conqueror_Series/AdvancedERC1155RoyaltyAuctionAccess.sol\":4767:4821  interfaceId == 0xd9b67a26 || interfaceId == 0x2a55205a */\n    tag_140:\n        /* \"Contract_Conqueror_Series/AdvancedERC1155RoyaltyAuctionAccess.sol\":4760:4821  return interfaceId == 0xd9b67a26 || interfaceId == 0x2a55205a */\n      swap1\n      pop\n        /* \"Contract_Conqueror_Series/AdvancedERC1155RoyaltyAuctionAccess.sol\":4675:4829  function supportsInterface(bytes4 interfaceId) public pure returns (bool) {... */\n      swap2\n      swap1\n      pop\n      jump\t// out\n        /* \"Contract_Conqueror_Series/AdvancedERC1155RoyaltyAuctionAccess.sol\":4571:4667  function uri(uint256 id) public view returns (string memory) {... */\n    tag_44:\n        /* \"Contract_Conqueror_Series/AdvancedERC1155RoyaltyAuctionAccess.sol\":4617:4630  string memory */\n      0x60\n        /* \"Contract_Conqueror_Series/AdvancedERC1155RoyaltyAuctionAccess.sol\":4650:4655  _uris */\n      0x02\n        /* \"Contract_Conqueror_Series/AdvancedERC1155RoyaltyAuctionAccess.sol\":4650:4659  _uris[id] */\n      0x00\n        /* \"Contract_Conqueror_Series/AdvancedERC1155RoyaltyAuctionAccess.sol\":4656:4658  id */\n      dup4\n        /* \"Contract_Conqueror_Series/AdvancedERC1155RoyaltyAuctionAccess.sol\":4650:4659  _uris[id] */\n      dup2\n      mstore\n      0x20\n      add\n      swap1\n      dup2\n      mstore\n      0x20\n      add\n      0x00\n      keccak256\n        /* \"Contract_Conqueror_Series/AdvancedERC1155RoyaltyAuctionAccess.sol\":4643:4659  return _uris[id] */\n      dup1\n      sload\n      tag_142\n      swap1\n      tag_143\n      jump\t// in\n    tag_142:\n      dup1\n      0x1f\n      add\n      0x20\n      dup1\n      swap2\n      div\n      mul\n      0x20\n      add\n      mload(0x40)\n      swap1\n      dup2\n      add\n      0x40\n      mstore\n      dup1\n      swap3\n      swap2\n      swap1\n      dup2\n      dup2\n      mstore\n      0x20\n      add\n      dup3\n      dup1\n      sload\n      tag_144\n      swap1\n      tag_143\n      jump\t// in\n    tag_144:\n      dup1\n      iszero\n      tag_145\n      jumpi\n      dup1\n      0x1f\n      lt\n      tag_146\n      jumpi\n      0x0100\n      dup1\n      dup4\n      sload\n      div\n      mul\n      dup4\n      mstore\n      swap2\n      0x20\n      add\n      swap2\n      jump(tag_145)\n    tag_146:\n      dup3\n      add\n      swap2\n      swap1\n      0x00\n      mstore\n      keccak256(0x00, 0x20)\n      swap1\n    tag_147:\n      dup2\n      sload\n      dup2\n      mstore\n      swap1\n      0x01\n      add\n      swap1\n      0x20\n      add\n      dup1\n      dup4\n      gt\n      tag_147\n      jumpi\n      dup3\n      swap1\n      sub\n      0x1f\n      and\n      dup3\n      add\n      swap2\n    tag_145:\n      pop\n      pop\n      pop\n      pop\n      pop\n      swap1\n      pop\n        /* \"Contract_Conqueror_Series/AdvancedERC1155RoyaltyAuctionAccess.sol\":4571:4667  function uri(uint256 id) public view returns (string memory) {... */\n      swap2\n      swap1\n      pop\n      jump\t// out\n        /* \"Contract_Conqueror_Series/AdvancedERC1155RoyaltyAuctionAccess.sol\":7660:7985  function withdrawBid(uint256 auctionId) external whenNotPaused {... */\n    tag_50:\n        /* \"Contract_Conqueror_Series/AdvancedERC1155RoyaltyAuctionAccess.sol\":1350:1356  paused */\n      0x07\n      0x14\n      swap1\n      sload\n      swap1\n      0x0100\n      exp\n      swap1\n      div\n      0xff\n      and\n        /* \"Contract_Conqueror_Series/AdvancedERC1155RoyaltyAuctionAccess.sol\":1349:1356  !paused */\n      iszero\n        /* \"Contract_Conqueror_Series/AdvancedERC1155RoyaltyAuctionAccess.sol\":1341:1367  require(!paused, \"Paused\") */\n      tag_149\n      jumpi\n      mload(0x40)\n      0x08c379a000000000000000000000000000000000000000000000000000000000\n      dup2\n      mstore\n      0x04\n      add\n      tag_150\n      swap1\n      tag_151\n      jump\t// in\n    tag_150:\n      mload(0x40)\n      dup1\n      swap2\n      sub\n      swap1\n      revert\n    tag_149:\n        /* \"Contract_Conqueror_Series/AdvancedERC1155RoyaltyAuctionAccess.sol\":7734:7748  uint256 refund */\n      0x00\n        /* \"Contract_Conqueror_Series/AdvancedERC1155RoyaltyAuctionAccess.sol\":7751:7755  bids */\n      0x06\n        /* \"Contract_Conqueror_Series/AdvancedERC1155RoyaltyAuctionAccess.sol\":7751:7766  bids[auctionId] */\n      0x00\n        /* \"Contract_Conqueror_Series/AdvancedERC1155RoyaltyAuctionAccess.sol\":7756:7765  auctionId */\n      dup4\n        /* \"Contract_Conqueror_Series/AdvancedERC1155RoyaltyAuctionAccess.sol\":7751:7766  bids[auctionId] */\n      dup2\n      mstore\n      0x20\n      add\n      swap1\n      dup2\n      mstore\n      0x20\n      add\n      0x00\n      keccak256\n        /* \"Contract_Conqueror_Series/AdvancedERC1155RoyaltyAuctionAccess.sol\":7751:7778  bids[auctionId][msg.sender] */\n      0x00\n        /* \"Contract_Conqueror_Series/AdvancedERC1155RoyaltyAuctionAccess.sol\":7767:7777  msg.sender */\n      caller\n        /* \"Contract_Conqueror_Series/AdvancedERC1155RoyaltyAuctionAccess.sol\":7751:7778  bids[auctionId][msg.sender] */\n      0xffffffffffffffffffffffffffffffffffffffff\n      and\n      0xffffffffffffffffffffffffffffffffffffffff\n      and\n      dup2\n      mstore\n      0x20\n      add\n      swap1\n      dup2\n      mstore\n      0x20\n      add\n      0x00\n      keccak256\n      sload\n        /* \"Contract_Conqueror_Series/AdvancedERC1155RoyaltyAuctionAccess.sol\":7734:7778  uint256 refund = bids[auctionId][msg.sender] */\n      swap1\n      pop\n        /* \"Contract_Conqueror_Series/AdvancedERC1155RoyaltyAuctionAccess.sol\":7806:7807  0 */\n      0x00\n        /* \"Contract_Conqueror_Series/AdvancedERC1155RoyaltyAuctionAccess.sol\":7797:7803  refund */\n      dup2\n        /* \"Contract_Conqueror_Series/AdvancedERC1155RoyaltyAuctionAccess.sol\":7797:7807  refund > 0 */\n      gt\n        /* \"Contract_Conqueror_Series/AdvancedERC1155RoyaltyAuctionAccess.sol\":7789:7829  require(refund > 0, \"Nothing to refund\") */\n      tag_153\n      jumpi\n      mload(0x40)\n      0x08c379a000000000000000000000000000000000000000000000000000000000\n      dup2\n      mstore\n      0x04\n      add\n      tag_154\n      swap1\n      tag_155\n      jump\t// in\n    tag_154:\n      mload(0x40)\n      dup1\n      swap2\n      sub\n      swap1\n      revert\n    tag_153:\n        /* \"Contract_Conqueror_Series/AdvancedERC1155RoyaltyAuctionAccess.sol\":7872:7873  0 */\n      0x00\n        /* \"Contract_Conqueror_Series/AdvancedERC1155RoyaltyAuctionAccess.sol\":7842:7846  bids */\n      0x06\n        /* \"Contract_Conqueror_Series/AdvancedERC1155RoyaltyAuctionAccess.sol\":7842:7857  bids[auctionId] */\n      0x00\n        /* \"Contract_Conqueror_Series/AdvancedERC1155RoyaltyAuctionAccess.sol\":7847:7856  auctionId */\n      dup5\n        /* \"Contract_Conqueror_Series/AdvancedERC1155RoyaltyAuctionAccess.sol\":7842:7857  bids[auctionId] */\n      dup2\n      mstore\n      0x20\n      add\n      swap1\n      dup2\n      mstore\n      0x20\n      add\n      0x00\n      keccak256\n        /* \"Contract_Conqueror_Series/AdvancedERC1155RoyaltyAuctionAccess.sol\":7842:7869  bids[auctionId][msg.sender] */\n      0x00\n        /* \"Contract_Conqueror_Series/AdvancedERC1155RoyaltyAuctionAccess.sol\":7858:7868  msg.sender */\n      caller\n        /* \"Contract_Conqueror_Series/AdvancedERC1155RoyaltyAuctionAccess.sol\":7842:7869  bids[auctionId][msg.sender] */\n      0xffffffffffffffffffffffffffffffffffffffff\n      and\n      0xffffffffffffffffffffffffffffffffffffffff\n      and\n      dup2\n      mstore\n      0x20\n      add\n      swap1\n      dup2\n      mstore\n      0x20\n      add\n      0x00\n      keccak256\n        /* \"Contract_Conqueror_Series/AdvancedERC1155RoyaltyAuctionAccess.sol\":7842:7873  bids[auctionId][msg.sender] = 0 */\n      dup2\n      swap1\n      sstore\n      pop\n        /* \"Contract_Conqueror_Series/AdvancedERC1155RoyaltyAuctionAccess.sol\":7892:7902  msg.sender */\n      caller\n        /* \"Contract_Conqueror_Series/AdvancedERC1155RoyaltyAuctionAccess.sol\":7884:7912  payable(msg.sender).transfer */\n      0xffffffffffffffffffffffffffffffffffffffff\n      and\n        /* \"Contract_Conqueror_Series/AdvancedERC1155RoyaltyAuctionAccess.sol\":7884:7920  payable(msg.sender).transfer(refund) */\n      0x08fc\n        /* \"Contract_Conqueror_Series/AdvancedERC1155RoyaltyAuctionAccess.sol\":7913:7919  refund */\n      dup3\n        /* \"Contract_Conqueror_Series/AdvancedERC1155RoyaltyAuctionAccess.sol\":7884:7920  payable(msg.sender).transfer(refund) */\n      swap1\n      dup2\n      iszero\n      mul\n      swap1\n      mload(0x40)\n      0x00\n      mload(0x40)\n      dup1\n      dup4\n      sub\n      dup2\n      dup6\n      dup9\n      dup9\n      call\n      swap4\n      pop\n      pop\n      pop\n      pop\n      iszero\n      dup1\n      iszero\n      tag_157\n      jumpi\n      returndatacopy(0x00, 0x00, returndatasize)\n      revert(0x00, returndatasize)\n    tag_157:\n      pop\n        /* \"Contract_Conqueror_Series/AdvancedERC1155RoyaltyAuctionAccess.sol\":7947:7956  auctionId */\n      dup2\n        /* \"Contract_Conqueror_Series/AdvancedERC1155RoyaltyAuctionAccess.sol\":7938:7977  Refunded(auctionId, msg.sender, refund) */\n      0x7ca5472b7ea78c2c0141c5a12ee6d170cf4ce8ed06be3d22c8252ddfc7a6a2c4\n        /* \"Contract_Conqueror_Series/AdvancedERC1155RoyaltyAuctionAccess.sol\":7958:7968  msg.sender */\n      caller\n        /* \"Contract_Conqueror_Series/AdvancedERC1155RoyaltyAuctionAccess.sol\":7970:7976  refund */\n      dup4\n        /* \"Contract_Conqueror_Series/AdvancedERC1155RoyaltyAuctionAccess.sol\":7938:7977  Refunded(auctionId, msg.sender, refund) */\n      mload(0x40)\n      tag_158\n      swap3\n      swap2\n      swap1\n      tag_62\n      jump\t// in\n    tag_158:\n      mload(0x40)\n      dup1\n      swap2\n      sub\n      swap1\n      log2\n        /* \"Contract_Conqueror_Series/AdvancedERC1155RoyaltyAuctionAccess.sol\":7723:7985  {... */\n      pop\n        /* \"Contract_Conqueror_Series/AdvancedERC1155RoyaltyAuctionAccess.sol\":7660:7985  function withdrawBid(uint256 auctionId) external whenNotPaused {... */\n      pop\n      jump\t// out\n        /* \"Contract_Conqueror_Series/AdvancedERC1155RoyaltyAuctionAccess.sol\":3428:3896  function safeTransferFrom(address from, address to, uint256 id, uint256 amount) external whenNotPaused {... */\n    tag_55:\n        /* \"Contract_Conqueror_Series/AdvancedERC1155RoyaltyAuctionAccess.sol\":1350:1356  paused */\n      0x07\n      0x14\n      swap1\n      sload\n      swap1\n      0x0100\n      exp\n      swap1\n      div\n      0xff\n      and\n        /* \"Contract_Conqueror_Series/AdvancedERC1155RoyaltyAuctionAccess.sol\":1349:1356  !paused */\n      iszero\n        /* \"Contract_Conqueror_Series/AdvancedERC1155RoyaltyAuctionAccess.sol\":1341:1367  require(!paused, \"Paused\") */\n      tag_160\n      jumpi\n      mload(0x40)\n      0x08c379a000000000000000000000000000000000000000000000000000000000\n      dup2\n      mstore\n      0x04\n      add\n      tag_161\n      swap1\n      tag_151\n      jump\t// in\n    tag_161:\n      mload(0x40)\n      dup1\n      swap2\n      sub\n      swap1\n      revert\n    tag_160:\n        /* \"Contract_Conqueror_Series/AdvancedERC1155RoyaltyAuctionAccess.sol\":3558:3568  msg.sender */\n      caller\n        /* \"Contract_Conqueror_Series/AdvancedERC1155RoyaltyAuctionAccess.sol\":3550:3568  from == msg.sender */\n      0xffffffffffffffffffffffffffffffffffffffff\n      and\n        /* \"Contract_Conqueror_Series/AdvancedERC1155RoyaltyAuctionAccess.sol\":3550:3554  from */\n      dup5\n        /* \"Contract_Conqueror_Series/AdvancedERC1155RoyaltyAuctionAccess.sol\":3550:3568  from == msg.sender */\n      0xffffffffffffffffffffffffffffffffffffffff\n      and\n      eq\n        /* \"Contract_Conqueror_Series/AdvancedERC1155RoyaltyAuctionAccess.sol\":3550:3608  from == msg.sender || _operatorApprovals[from][msg.sender] */\n      dup1\n      tag_163\n      jumpi\n      pop\n        /* \"Contract_Conqueror_Series/AdvancedERC1155RoyaltyAuctionAccess.sol\":3572:3590  _operatorApprovals */\n      0x01\n        /* \"Contract_Conqueror_Series/AdvancedERC1155RoyaltyAuctionAccess.sol\":3572:3596  _operatorApprovals[from] */\n      0x00\n        /* \"Contract_Conqueror_Series/AdvancedERC1155RoyaltyAuctionAccess.sol\":3591:3595  from */\n      dup6\n        /* \"Contract_Conqueror_Series/AdvancedERC1155RoyaltyAuctionAccess.sol\":3572:3596  _operatorApprovals[from] */\n      0xffffffffffffffffffffffffffffffffffffffff\n      and\n      0xffffffffffffffffffffffffffffffffffffffff\n      and\n      dup2\n      mstore\n      0x20\n      add\n      swap1\n      dup2\n      mstore\n      0x20\n      add\n      0x00\n      keccak256\n        /* \"Contract_Conqueror_Series/AdvancedERC1155RoyaltyAuctionAccess.sol\":3572:3608  _operatorApprovals[from][msg.sender] */\n      0x00\n        /* \"Contract_Conqueror_Series/AdvancedERC1155RoyaltyAuctionAccess.sol\":3597:3607  msg.sender */\n      caller\n        /* \"Contract_Conqueror_Series/AdvancedERC1155RoyaltyAuctionAccess.sol\":3572:3608  _operatorApprovals[from][msg.sender] */\n      0xffffffffffffffffffffffffffffffffffffffff\n      and\n      0xffffffffffffffffffffffffffffffffffffffff\n      and\n      dup2\n      mstore\n      0x20\n      add\n      swap1\n      dup2\n      mstore\n      0x20\n      add\n      0x00\n      keccak256\n      0x00\n      swap1\n      sload\n      swap1\n      0x0100\n      exp\n      swap1\n      div\n      0xff\n      and\n        /* \"Contract_Conqueror_Series/AdvancedERC1155RoyaltyAuctionAccess.sol\":3550:3608  from == msg.sender || _operatorApprovals[from][msg.sender] */\n    tag_163:\n        /* \"Contract_Conqueror_Series/AdvancedERC1155RoyaltyAuctionAccess.sol\":3542:3625  require(from == msg.sender || _operatorApprovals[from][msg.sender], \"Not approved\") */\n      tag_164\n      jumpi\n      mload(0x40)\n      0x08c379a000000000000000000000000000000000000000000000000000000000\n      dup2\n      mstore\n      0x04\n      add\n      tag_165\n      swap1\n      tag_166\n      jump\t// in\n    tag_165:\n      mload(0x40)\n      dup1\n      swap2\n      sub\n      swap1\n      revert\n    tag_164:\n        /* \"Contract_Conqueror_Series/AdvancedERC1155RoyaltyAuctionAccess.sol\":3658:3659  0 */\n      0x00\n        /* \"Contract_Conqueror_Series/AdvancedERC1155RoyaltyAuctionAccess.sol\":3644:3660  to != address(0) */\n      0xffffffffffffffffffffffffffffffffffffffff\n      and\n        /* \"Contract_Conqueror_Series/AdvancedERC1155RoyaltyAuctionAccess.sol\":3644:3646  to */\n      dup4\n        /* \"Contract_Conqueror_Series/AdvancedERC1155RoyaltyAuctionAccess.sol\":3644:3660  to != address(0) */\n      0xffffffffffffffffffffffffffffffffffffffff\n      and\n      sub\n        /* \"Contract_Conqueror_Series/AdvancedERC1155RoyaltyAuctionAccess.sol\":3636:3677  require(to != address(0), \"Zero address\") */\n      tag_167\n      jumpi\n      mload(0x40)\n      0x08c379a000000000000000000000000000000000000000000000000000000000\n      dup2\n      mstore\n      0x04\n      add\n      tag_168\n      swap1\n      tag_138\n      jump\t// in\n    tag_168:\n      mload(0x40)\n      dup1\n      swap2\n      sub\n      swap1\n      revert\n    tag_167:\n        /* \"Contract_Conqueror_Series/AdvancedERC1155RoyaltyAuctionAccess.sol\":3719:3725  amount */\n      dup1\n        /* \"Contract_Conqueror_Series/AdvancedERC1155RoyaltyAuctionAccess.sol\":3696:3705  _balances */\n      0x00\n        /* \"Contract_Conqueror_Series/AdvancedERC1155RoyaltyAuctionAccess.sol\":3696:3709  _balances[id] */\n      0x00\n        /* \"Contract_Conqueror_Series/AdvancedERC1155RoyaltyAuctionAccess.sol\":3706:3708  id */\n      dup5\n        /* \"Contract_Conqueror_Series/AdvancedERC1155RoyaltyAuctionAccess.sol\":3696:3709  _balances[id] */\n      dup2\n      mstore\n      0x20\n      add\n      swap1\n      dup2\n      mstore\n      0x20\n      add\n      0x00\n      keccak256\n        /* \"Contract_Conqueror_Series/AdvancedERC1155RoyaltyAuctionAccess.sol\":3696:3715  _balances[id][from] */\n      0x00\n        /* \"Contract_Conqueror_Series/AdvancedERC1155RoyaltyAuctionAccess.sol\":3710:3714  from */\n      dup7\n        /* \"Contract_Conqueror_Series/AdvancedERC1155RoyaltyAuctionAccess.sol\":3696:3715  _balances[id][from] */\n      0xffffffffffffffffffffffffffffffffffffffff\n      and\n      0xffffffffffffffffffffffffffffffffffffffff\n      and\n      dup2\n      mstore\n      0x20\n      add\n      swap1\n      dup2\n      mstore\n      0x20\n      add\n      0x00\n      keccak256\n      sload\n        /* \"Contract_Conqueror_Series/AdvancedERC1155RoyaltyAuctionAccess.sol\":3696:3725  _balances[id][from] >= amount */\n      lt\n      iszero\n        /* \"Contract_Conqueror_Series/AdvancedERC1155RoyaltyAuctionAccess.sol\":3688:3742  require(_balances[id][from] >= amount, \"Insufficient\") */\n      tag_169\n      jumpi\n      mload(0x40)\n      0x08c379a000000000000000000000000000000000000000000000000000000000\n      dup2\n      mstore\n      0x04\n      add\n      tag_170\n      swap1\n      tag_171\n      jump\t// in\n    tag_170:\n      mload(0x40)\n      dup1\n      swap2\n      sub\n      swap1\n      revert\n    tag_169:\n        /* \"Contract_Conqueror_Series/AdvancedERC1155RoyaltyAuctionAccess.sol\":3778:3784  amount */\n      dup1\n        /* \"Contract_Conqueror_Series/AdvancedERC1155RoyaltyAuctionAccess.sol\":3755:3764  _balances */\n      0x00\n        /* \"Contract_Conqueror_Series/AdvancedERC1155RoyaltyAuctionAccess.sol\":3755:3768  _balances[id] */\n      0x00\n        /* \"Contract_Conqueror_Series/AdvancedERC1155RoyaltyAuctionAccess.sol\":3765:3767  id */\n      dup5\n        /* \"Contract_Conqueror_Series/AdvancedERC1155RoyaltyAuctionAccess.sol\":3755:3768  _balances[id] */\n      dup2\n      mstore\n      0x20\n      add\n      swap1\n      dup2\n      mstore\n      0x20\n      add\n      0x00\n      keccak256\n        /* \"Contract_Conqueror_Series/AdvancedERC1155RoyaltyAuctionAccess.sol\":3755:3774  _balances[id][from] */\n      0x00\n        /* \"Contract_Conqueror_Series/AdvancedERC1155RoyaltyAuctionAccess.sol\":3769:3773  from */\n      dup7\n        /* \"Contract_Conqueror_Series/AdvancedERC1155RoyaltyAuctionAccess.sol\":3755:3774  _balances[id][from] */\n      0xffffffffffffffffffffffffffffffffffffffff\n      and\n      0xffffffffffffffffffffffffffffffffffffffff\n      and\n      dup2\n      mstore\n      0x20\n      add\n      swap1\n      dup2\n      mstore\n      0x20\n      add\n      0x00\n      keccak256\n      0x00\n        /* \"Contract_Conqueror_Series/AdvancedERC1155RoyaltyAuctionAccess.sol\":3755:3784  _balances[id][from] -= amount */\n      dup3\n      dup3\n      sload\n      tag_172\n      swap2\n      swap1\n      tag_173\n      jump\t// in\n    tag_172:\n      swap3\n      pop\n      pop\n      dup2\n      swap1\n      sstore\n      pop\n        /* \"Contract_Conqueror_Series/AdvancedERC1155RoyaltyAuctionAccess.sol\":3816:3822  amount */\n      dup1\n        /* \"Contract_Conqueror_Series/AdvancedERC1155RoyaltyAuctionAccess.sol\":3795:3804  _balances */\n      0x00\n        /* \"Contract_Conqueror_Series/AdvancedERC1155RoyaltyAuctionAccess.sol\":3795:3808  _balances[id] */\n      0x00\n        /* \"Contract_Conqueror_Series/AdvancedERC1155RoyaltyAuctionAccess.sol\":3805:3807  id */\n      dup5\n        /* \"Contract_Conqueror_Series/AdvancedERC1155RoyaltyAuctionAccess.sol\":3795:3808  _balances[id] */\n      dup2\n      mstore\n      0x20\n      add\n      swap1\n      dup2\n      mstore\n      0x20\n      add\n      0x00\n      keccak256\n        /* \"Contract_Conqueror_Series/AdvancedERC1155RoyaltyAuctionAccess.sol\":3795:3812  _balances[id][to] */\n      0x00\n        /* \"Contract_Conqueror_Series/AdvancedERC1155RoyaltyAuctionAccess.sol\":3809:3811  to */\n      dup6\n        /* \"Contract_Conqueror_Series/AdvancedERC1155RoyaltyAuctionAccess.sol\":3795:3812  _balances[id][to] */\n      0xffffffffffffffffffffffffffffffffffffffff\n      and\n      0xffffffffffffffffffffffffffffffffffffffff\n      and\n      dup2\n      mstore\n      0x20\n      add\n      swap1\n      dup2\n      mstore\n      0x20\n      add\n      0x00\n      keccak256\n      0x00\n        /* \"Contract_Conqueror_Series/AdvancedERC1155RoyaltyAuctionAccess.sol\":3795:3822  _balances[id][to] += amount */\n      dup3\n      dup3\n      sload\n      tag_174\n      swap2\n      swap1\n      tag_175\n      jump\t// in\n    tag_174:\n      swap3\n      pop\n      pop\n      dup2\n      swap1\n      sstore\n      pop\n        /* \"Contract_Conqueror_Series/AdvancedERC1155RoyaltyAuctionAccess.sol\":3873:3875  to */\n      dup3\n        /* \"Contract_Conqueror_Series/AdvancedERC1155RoyaltyAuctionAccess.sol\":3840:3888  TransferSingle(msg.sender, from, to, id, amount) */\n      0xffffffffffffffffffffffffffffffffffffffff\n      and\n        /* \"Contract_Conqueror_Series/AdvancedERC1155RoyaltyAuctionAccess.sol\":3867:3871  from */\n      dup5\n        /* \"Contract_Conqueror_Series/AdvancedERC1155RoyaltyAuctionAccess.sol\":3840:3888  TransferSingle(msg.sender, from, to, id, amount) */\n      0xffffffffffffffffffffffffffffffffffffffff\n      and\n        /* \"Contract_Conqueror_Series/AdvancedERC1155RoyaltyAuctionAccess.sol\":3855:3865  msg.sender */\n      caller\n        /* \"Contract_Conqueror_Series/AdvancedERC1155RoyaltyAuctionAccess.sol\":3840:3888  TransferSingle(msg.sender, from, to, id, amount) */\n      0xffffffffffffffffffffffffffffffffffffffff\n      and\n      0xc3d58168c5ae7397731d063d5bbf3d657854427343f4c083240f7aacaa2d0f62\n        /* \"Contract_Conqueror_Series/AdvancedERC1155RoyaltyAuctionAccess.sol\":3877:3879  id */\n      dup6\n        /* \"Contract_Conqueror_Series/AdvancedERC1155RoyaltyAuctionAccess.sol\":3881:3887  amount */\n      dup6\n        /* \"Contract_Conqueror_Series/AdvancedERC1155RoyaltyAuctionAccess.sol\":3840:3888  TransferSingle(msg.sender, from, to, id, amount) */\n      mload(0x40)\n      tag_176\n      swap3\n      swap2\n      swap1\n      tag_177\n      jump\t// in\n    tag_176:\n      mload(0x40)\n      dup1\n      swap2\n      sub\n      swap1\n      log4\n        /* \"Contract_Conqueror_Series/AdvancedERC1155RoyaltyAuctionAccess.sol\":3428:3896  function safeTransferFrom(address from, address to, uint256 id, uint256 amount) external whenNotPaused {... */\n      pop\n      pop\n      pop\n      pop\n      jump\t// out\n        /* \"Contract_Conqueror_Series/AdvancedERC1155RoyaltyAuctionAccess.sol\":5579:5875  function royaltyInfo(uint256 tokenId, uint256 salePrice) external view returns (address, uint256) {... */\n    tag_60:\n        /* \"Contract_Conqueror_Series/AdvancedERC1155RoyaltyAuctionAccess.sol\":5659:5666  address */\n      0x00\n        /* \"Contract_Conqueror_Series/AdvancedERC1155RoyaltyAuctionAccess.sol\":5668:5675  uint256 */\n      0x00\n        /* \"Contract_Conqueror_Series/AdvancedERC1155RoyaltyAuctionAccess.sol\":5688:5714  RoyaltyInfo memory royalty */\n      0x00\n        /* \"Contract_Conqueror_Series/AdvancedERC1155RoyaltyAuctionAccess.sol\":5717:5727  _royalties */\n      0x03\n        /* \"Contract_Conqueror_Series/AdvancedERC1155RoyaltyAuctionAccess.sol\":5717:5736  _royalties[tokenId] */\n      0x00\n        /* \"Contract_Conqueror_Series/AdvancedERC1155RoyaltyAuctionAccess.sol\":5728:5735  tokenId */\n      dup7\n        /* \"Contract_Conqueror_Series/AdvancedERC1155RoyaltyAuctionAccess.sol\":5717:5736  _royalties[tokenId] */\n      dup2\n      mstore\n      0x20\n      add\n      swap1\n      dup2\n      mstore\n      0x20\n      add\n      0x00\n      keccak256\n        /* \"Contract_Conqueror_Series/AdvancedERC1155RoyaltyAuctionAccess.sol\":5688:5736  RoyaltyInfo memory royalty = _royalties[tokenId] */\n      mload(0x40)\n      dup1\n      0x40\n      add\n      0x40\n      mstore\n      swap1\n      dup2\n      0x00\n      dup3\n      add\n      0x00\n      swap1\n      sload\n      swap1\n      0x0100\n      exp\n      swap1\n      div\n      0xffffffffffffffffffffffffffffffffffffffff\n      and\n      0xffffffffffffffffffffffffffffffffffffffff\n      and\n      0xffffffffffffffffffffffffffffffffffffffff\n      and\n      dup2\n      mstore\n      0x20\n      add\n      0x00\n      dup3\n      add\n      0x14\n      swap1\n      sload\n      swap1\n      0x0100\n      exp\n      swap1\n      div\n      0xffffffffffffffffffffffff\n      and\n      0xffffffffffffffffffffffff\n      and\n      0xffffffffffffffffffffffff\n      and\n      dup2\n      mstore\n      pop\n      pop\n      swap1\n      pop\n        /* \"Contract_Conqueror_Series/AdvancedERC1155RoyaltyAuctionAccess.sol\":5747:5768  uint256 royaltyAmount */\n      0x00\n        /* \"Contract_Conqueror_Series/AdvancedERC1155RoyaltyAuctionAccess.sol\":5811:5816  10000 */\n      0x2710\n        /* \"Contract_Conqueror_Series/AdvancedERC1155RoyaltyAuctionAccess.sol\":5784:5791  royalty */\n      dup3\n        /* \"Contract_Conqueror_Series/AdvancedERC1155RoyaltyAuctionAccess.sol\":5784:5807  royalty.royaltyFraction */\n      0x20\n      add\n      mload\n        /* \"Contract_Conqueror_Series/AdvancedERC1155RoyaltyAuctionAccess.sol\":5772:5807  salePrice * royalty.royaltyFraction */\n      0xffffffffffffffffffffffff\n      and\n        /* \"Contract_Conqueror_Series/AdvancedERC1155RoyaltyAuctionAccess.sol\":5772:5781  salePrice */\n      dup7\n        /* \"Contract_Conqueror_Series/AdvancedERC1155RoyaltyAuctionAccess.sol\":5772:5807  salePrice * royalty.royaltyFraction */\n      tag_179\n      swap2\n      swap1\n      tag_180\n      jump\t// in\n    tag_179:\n        /* \"Contract_Conqueror_Series/AdvancedERC1155RoyaltyAuctionAccess.sol\":5771:5816  (salePrice * royalty.royaltyFraction) / 10000 */\n      tag_181\n      swap2\n      swap1\n      tag_182\n      jump\t// in\n    tag_181:\n        /* \"Contract_Conqueror_Series/AdvancedERC1155RoyaltyAuctionAccess.sol\":5747:5816  uint256 royaltyAmount = (salePrice * royalty.royaltyFraction) / 10000 */\n      swap1\n      pop\n        /* \"Contract_Conqueror_Series/AdvancedERC1155RoyaltyAuctionAccess.sol\":5835:5842  royalty */\n      dup2\n        /* \"Contract_Conqueror_Series/AdvancedERC1155RoyaltyAuctionAccess.sol\":5835:5851  royalty.receiver */\n      0x00\n      add\n      mload\n        /* \"Contract_Conqueror_Series/AdvancedERC1155RoyaltyAuctionAccess.sol\":5853:5866  royaltyAmount */\n      dup2\n        /* \"Contract_Conqueror_Series/AdvancedERC1155RoyaltyAuctionAccess.sol\":5827:5867  return (royalty.receiver, royaltyAmount) */\n      swap4\n      pop\n      swap4\n      pop\n      pop\n      pop\n        /* \"Contract_Conqueror_Series/AdvancedERC1155RoyaltyAuctionAccess.sol\":5579:5875  function royaltyInfo(uint256 tokenId, uint256 salePrice) external view returns (address, uint256) {... */\n      swap3\n      pop\n      swap3\n      swap1\n      pop\n      jump\t// out\n        /* \"Contract_Conqueror_Series/AdvancedERC1155RoyaltyAuctionAccess.sol\":945:972  uint256 public auctionCount */\n    tag_65:\n      sload(0x04)\n      dup2\n      jump\t// out\n        /* \"Contract_Conqueror_Series/AdvancedERC1155RoyaltyAuctionAccess.sol\":1029:1088  mapping(uint256 => mapping(address => uint256)) public bids */\n    tag_71:\n      mstore(0x20, 0x06)\n      dup2\n      0x00\n      mstore\n      mstore(0x20, keccak256(0x00, 0x40))\n      dup1\n      0x00\n      mstore\n      keccak256(0x00, 0x40)\n      0x00\n      swap2\n      pop\n      swap2\n      pop\n      pop\n      sload\n      dup2\n      jump\t// out\n        /* \"Contract_Conqueror_Series/AdvancedERC1155RoyaltyAuctionAccess.sol\":1530:1601  function unpause() external onlyOwner {... */\n    tag_75:\n        /* \"Contract_Conqueror_Series/AdvancedERC1155RoyaltyAuctionAccess.sol\":1258:1263  owner */\n      0x07\n      0x00\n      swap1\n      sload\n      swap1\n      0x0100\n      exp\n      swap1\n      div\n      0xffffffffffffffffffffffffffffffffffffffff\n      and\n        /* \"Contract_Conqueror_Series/AdvancedERC1155RoyaltyAuctionAccess.sol\":1244:1263  msg.sender == owner */\n      0xffffffffffffffffffffffffffffffffffffffff\n      and\n        /* \"Contract_Conqueror_Series/AdvancedERC1155RoyaltyAuctionAccess.sol\":1244:1254  msg.sender */\n      caller\n        /* \"Contract_Conqueror_Series/AdvancedERC1155RoyaltyAuctionAccess.sol\":1244:1263  msg.sender == owner */\n      0xffffffffffffffffffffffffffffffffffffffff\n      and\n      eq\n        /* \"Contract_Conqueror_Series/AdvancedERC1155RoyaltyAuctionAccess.sol\":1236:1277  require(msg.sender == owner, \"Not owner\") */\n      tag_184\n      jumpi\n      mload(0x40)\n      0x08c379a000000000000000000000000000000000000000000000000000000000\n      dup2\n      mstore\n      0x04\n      add\n      tag_185\n      swap1\n      tag_186\n      jump\t// in\n    tag_185:\n      mload(0x40)\n      dup1\n      swap2\n      sub\n      swap1\n      revert\n    tag_184:\n        /* \"Contract_Conqueror_Series/AdvancedERC1155RoyaltyAuctionAccess.sol\":1588:1593  false */\n      0x00\n        /* \"Contract_Conqueror_Series/AdvancedERC1155RoyaltyAuctionAccess.sol\":1579:1585  paused */\n      0x07\n      0x14\n        /* \"Contract_Conqueror_Series/AdvancedERC1155RoyaltyAuctionAccess.sol\":1579:1593  paused = false */\n      0x0100\n      exp\n      dup2\n      sload\n      dup2\n      0xff\n      mul\n      not\n      and\n      swap1\n      dup4\n      iszero\n      iszero\n      mul\n      or\n      swap1\n      sstore\n      pop\n        /* \"Contract_Conqueror_Series/AdvancedERC1155RoyaltyAuctionAccess.sol\":1530:1601  function unpause() external onlyOwner {... */\n      jump\t// out\n        /* \"Contract_Conqueror_Series/AdvancedERC1155RoyaltyAuctionAccess.sol\":7150:7652  function bid(uint256 auctionId) external payable onlyBeforeEnd(auctionId) whenNotPaused {... */\n    tag_78:\n        /* \"Contract_Conqueror_Series/AdvancedERC1155RoyaltyAuctionAccess.sol\":7213:7222  auctionId */\n      dup1\n        /* \"Contract_Conqueror_Series/AdvancedERC1155RoyaltyAuctionAccess.sol\":6000:6008  auctions */\n      0x05\n        /* \"Contract_Conqueror_Series/AdvancedERC1155RoyaltyAuctionAccess.sol\":6000:6019  auctions[auctionId] */\n      0x00\n        /* \"Contract_Conqueror_Series/AdvancedERC1155RoyaltyAuctionAccess.sol\":6009:6018  auctionId */\n      dup3\n        /* \"Contract_Conqueror_Series/AdvancedERC1155RoyaltyAuctionAccess.sol\":6000:6019  auctions[auctionId] */\n      dup2\n      mstore\n      0x20\n      add\n      swap1\n      dup2\n      mstore\n      0x20\n      add\n      0x00\n      keccak256\n        /* \"Contract_Conqueror_Series/AdvancedERC1155RoyaltyAuctionAccess.sol\":6000:6027  auctions[auctionId].endTime */\n      0x03\n      add\n      sload\n        /* \"Contract_Conqueror_Series/AdvancedERC1155RoyaltyAuctionAccess.sol\":5982:5997  block.timestamp */\n      timestamp\n        /* \"Contract_Conqueror_Series/AdvancedERC1155RoyaltyAuctionAccess.sol\":5982:6027  block.timestamp < auctions[auctionId].endTime */\n      lt\n        /* \"Contract_Conqueror_Series/AdvancedERC1155RoyaltyAuctionAccess.sol\":5974:6037  require(block.timestamp < auctions[auctionId].endTime, \"Ended\") */\n      tag_189\n      jumpi\n      mload(0x40)\n      0x08c379a000000000000000000000000000000000000000000000000000000000\n      dup2\n      mstore\n      0x04\n      add\n      tag_190\n      swap1\n      tag_191\n      jump\t// in\n    tag_190:\n      mload(0x40)\n      dup1\n      swap2\n      sub\n      swap1\n      revert\n    tag_189:\n        /* \"Contract_Conqueror_Series/AdvancedERC1155RoyaltyAuctionAccess.sol\":1350:1356  paused */\n      0x07\n      0x14\n      swap1\n      sload\n      swap1\n      0x0100\n      exp\n      swap1\n      div\n      0xff\n      and\n        /* \"Contract_Conqueror_Series/AdvancedERC1155RoyaltyAuctionAccess.sol\":1349:1356  !paused */\n      iszero\n        /* \"Contract_Conqueror_Series/AdvancedERC1155RoyaltyAuctionAccess.sol\":1341:1367  require(!paused, \"Paused\") */\n      tag_193\n      jumpi\n      mload(0x40)\n      0x08c379a000000000000000000000000000000000000000000000000000000000\n      dup2\n      mstore\n      0x04\n      add\n      tag_194\n      swap1\n      tag_151\n      jump\t// in\n    tag_194:\n      mload(0x40)\n      dup1\n      swap2\n      sub\n      swap1\n      revert\n    tag_193:\n        /* \"Contract_Conqueror_Series/AdvancedERC1155RoyaltyAuctionAccess.sol\":7249:7272  Auction storage auction */\n      0x00\n        /* \"Contract_Conqueror_Series/AdvancedERC1155RoyaltyAuctionAccess.sol\":7275:7283  auctions */\n      0x05\n        /* \"Contract_Conqueror_Series/AdvancedERC1155RoyaltyAuctionAccess.sol\":7275:7294  auctions[auctionId] */\n      0x00\n        /* \"Contract_Conqueror_Series/AdvancedERC1155RoyaltyAuctionAccess.sol\":7284:7293  auctionId */\n      dup5\n        /* \"Contract_Conqueror_Series/AdvancedERC1155RoyaltyAuctionAccess.sol\":7275:7294  auctions[auctionId] */\n      dup2\n      mstore\n      0x20\n      add\n      swap1\n      dup2\n      mstore\n      0x20\n      add\n      0x00\n      keccak256\n        /* \"Contract_Conqueror_Series/AdvancedERC1155RoyaltyAuctionAccess.sol\":7249:7294  Auction storage auction = auctions[auctionId] */\n      swap1\n      pop\n        /* \"Contract_Conqueror_Series/AdvancedERC1155RoyaltyAuctionAccess.sol\":7325:7332  auction */\n      dup1\n        /* \"Contract_Conqueror_Series/AdvancedERC1155RoyaltyAuctionAccess.sol\":7325:7343  auction.highestBid */\n      0x04\n      add\n      sload\n        /* \"Contract_Conqueror_Series/AdvancedERC1155RoyaltyAuctionAccess.sol\":7313:7322  msg.value */\n      callvalue\n        /* \"Contract_Conqueror_Series/AdvancedERC1155RoyaltyAuctionAccess.sol\":7313:7343  msg.value > auction.highestBid */\n      gt\n        /* \"Contract_Conqueror_Series/AdvancedERC1155RoyaltyAuctionAccess.sol\":7305:7355  require(msg.value > auction.highestBid, \"Low bid\") */\n      tag_196\n      jumpi\n      mload(0x40)\n      0x08c379a000000000000000000000000000000000000000000000000000000000\n      dup2\n      mstore\n      0x04\n      add\n      tag_197\n      swap1\n      tag_198\n      jump\t// in\n    tag_197:\n      mload(0x40)\n      dup1\n      swap2\n      sub\n      swap1\n      revert\n    tag_196:\n        /* \"Contract_Conqueror_Series/AdvancedERC1155RoyaltyAuctionAccess.sol\":7405:7406  0 */\n      0x00\n        /* \"Contract_Conqueror_Series/AdvancedERC1155RoyaltyAuctionAccess.sol\":7372:7407  auction.highestBidder != address(0) */\n      0xffffffffffffffffffffffffffffffffffffffff\n      and\n        /* \"Contract_Conqueror_Series/AdvancedERC1155RoyaltyAuctionAccess.sol\":7372:7379  auction */\n      dup2\n        /* \"Contract_Conqueror_Series/AdvancedERC1155RoyaltyAuctionAccess.sol\":7372:7393  auction.highestBidder */\n      0x05\n      add\n      0x00\n      swap1\n      sload\n      swap1\n      0x0100\n      exp\n      swap1\n      div\n      0xffffffffffffffffffffffffffffffffffffffff\n      and\n        /* \"Contract_Conqueror_Series/AdvancedERC1155RoyaltyAuctionAccess.sol\":7372:7407  auction.highestBidder != address(0) */\n      0xffffffffffffffffffffffffffffffffffffffff\n      and\n      eq\n        /* \"Contract_Conqueror_Series/AdvancedERC1155RoyaltyAuctionAccess.sol\":7368:7496  if (auction.highestBidder != address(0)) {... */\n      tag_199\n      jumpi\n        /* \"Contract_Conqueror_Series/AdvancedERC1155RoyaltyAuctionAccess.sol\":7466:7473  auction */\n      dup1\n        /* \"Contract_Conqueror_Series/AdvancedERC1155RoyaltyAuctionAccess.sol\":7466:7484  auction.highestBid */\n      0x04\n      add\n      sload\n        /* \"Contract_Conqueror_Series/AdvancedERC1155RoyaltyAuctionAccess.sol\":7424:7428  bids */\n      0x06\n        /* \"Contract_Conqueror_Series/AdvancedERC1155RoyaltyAuctionAccess.sol\":7424:7439  bids[auctionId] */\n      0x00\n        /* \"Contract_Conqueror_Series/AdvancedERC1155RoyaltyAuctionAccess.sol\":7429:7438  auctionId */\n      dup6\n        /* \"Contract_Conqueror_Series/AdvancedERC1155RoyaltyAuctionAccess.sol\":7424:7439  bids[auctionId] */\n      dup2\n      mstore\n      0x20\n      add\n      swap1\n      dup2\n      mstore\n      0x20\n      add\n      0x00\n      keccak256\n        /* \"Contract_Conqueror_Series/AdvancedERC1155RoyaltyAuctionAccess.sol\":7424:7462  bids[auctionId][auction.highestBidder] */\n      0x00\n        /* \"Contract_Conqueror_Series/AdvancedERC1155RoyaltyAuctionAccess.sol\":7440:7447  auction */\n      dup4\n        /* \"Contract_Conqueror_Series/AdvancedERC1155RoyaltyAuctionAccess.sol\":7440:7461  auction.highestBidder */\n      0x05\n      add\n      0x00\n      swap1\n      sload\n      swap1\n      0x0100\n      exp\n      swap1\n      div\n      0xffffffffffffffffffffffffffffffffffffffff\n      and\n        /* \"Contract_Conqueror_Series/AdvancedERC1155RoyaltyAuctionAccess.sol\":7424:7462  bids[auctionId][auction.highestBidder] */\n      0xffffffffffffffffffffffffffffffffffffffff\n      and\n      0xffffffffffffffffffffffffffffffffffffffff\n      and\n      dup2\n      mstore\n      0x20\n      add\n      swap1\n      dup2\n      mstore\n      0x20\n      add\n      0x00\n      keccak256\n      0x00\n        /* \"Contract_Conqueror_Series/AdvancedERC1155RoyaltyAuctionAccess.sol\":7424:7484  bids[auctionId][auction.highestBidder] += auction.highestBid */\n      dup3\n      dup3\n      sload\n      tag_200\n      swap2\n      swap1\n      tag_175\n      jump\t// in\n    tag_200:\n      swap3\n      pop\n      pop\n      dup2\n      swap1\n      sstore\n      pop\n        /* \"Contract_Conqueror_Series/AdvancedERC1155RoyaltyAuctionAccess.sol\":7368:7496  if (auction.highestBidder != address(0)) {... */\n    tag_199:\n        /* \"Contract_Conqueror_Series/AdvancedERC1155RoyaltyAuctionAccess.sol\":7529:7538  msg.value */\n      callvalue\n        /* \"Contract_Conqueror_Series/AdvancedERC1155RoyaltyAuctionAccess.sol\":7508:7515  auction */\n      dup2\n        /* \"Contract_Conqueror_Series/AdvancedERC1155RoyaltyAuctionAccess.sol\":7508:7526  auction.highestBid */\n      0x04\n      add\n        /* \"Contract_Conqueror_Series/AdvancedERC1155RoyaltyAuctionAccess.sol\":7508:7538  auction.highestBid = msg.value */\n      dup2\n      swap1\n      sstore\n      pop\n        /* \"Contract_Conqueror_Series/AdvancedERC1155RoyaltyAuctionAccess.sol\":7573:7583  msg.sender */\n      caller\n        /* \"Contract_Conqueror_Series/AdvancedERC1155RoyaltyAuctionAccess.sol\":7549:7556  auction */\n      dup2\n        /* \"Contract_Conqueror_Series/AdvancedERC1155RoyaltyAuctionAccess.sol\":7549:7570  auction.highestBidder */\n      0x05\n      add\n      0x00\n        /* \"Contract_Conqueror_Series/AdvancedERC1155RoyaltyAuctionAccess.sol\":7549:7583  auction.highestBidder = msg.sender */\n      0x0100\n      exp\n      dup2\n      sload\n      dup2\n      0xffffffffffffffffffffffffffffffffffffffff\n      mul\n      not\n      and\n      swap1\n      dup4\n      0xffffffffffffffffffffffffffffffffffffffff\n      and\n      mul\n      or\n      swap1\n      sstore\n      pop\n        /* \"Contract_Conqueror_Series/AdvancedERC1155RoyaltyAuctionAccess.sol\":7622:7632  msg.sender */\n      caller\n        /* \"Contract_Conqueror_Series/AdvancedERC1155RoyaltyAuctionAccess.sol\":7601:7644  BidPlaced(auctionId, msg.sender, msg.value) */\n      0xffffffffffffffffffffffffffffffffffffffff\n      and\n        /* \"Contract_Conqueror_Series/AdvancedERC1155RoyaltyAuctionAccess.sol\":7611:7620  auctionId */\n      dup4\n        /* \"Contract_Conqueror_Series/AdvancedERC1155RoyaltyAuctionAccess.sol\":7601:7644  BidPlaced(auctionId, msg.sender, msg.value) */\n      0x0e54eff26401bf69b81b26f60bd85ef47f5d85275c1d268d84f68d6897431c47\n        /* \"Contract_Conqueror_Series/AdvancedERC1155RoyaltyAuctionAccess.sol\":7634:7643  msg.value */\n      callvalue\n        /* \"Contract_Conqueror_Series/AdvancedERC1155RoyaltyAuctionAccess.sol\":7601:7644  BidPlaced(auctionId, msg.sender, msg.value) */\n      mload(0x40)\n      tag_201\n      swap2\n      swap1\n      tag_32\n      jump\t// in\n    tag_201:\n      mload(0x40)\n      dup1\n      swap2\n      sub\n      swap1\n      log3\n        /* \"Contract_Conqueror_Series/AdvancedERC1155RoyaltyAuctionAccess.sol\":7238:7652  {... */\n      pop\n        /* \"Contract_Conqueror_Series/AdvancedERC1155RoyaltyAuctionAccess.sol\":7150:7652  function bid(uint256 auctionId) external payable onlyBeforeEnd(auctionId) whenNotPaused {... */\n      pop\n      pop\n      jump\t// out\n        /* \"Contract_Conqueror_Series/AdvancedERC1155RoyaltyAuctionAccess.sol\":2634:3036  function balanceOfBatch(address[] calldata accounts, uint256[] calldata ids) external view returns (uint256[] memory) {... */\n    tag_83:\n        /* \"Contract_Conqueror_Series/AdvancedERC1155RoyaltyAuctionAccess.sol\":2734:2750  uint256[] memory */\n      0x60\n        /* \"Contract_Conqueror_Series/AdvancedERC1155RoyaltyAuctionAccess.sol\":2790:2793  ids */\n      dup3\n      dup3\n        /* \"Contract_Conqueror_Series/AdvancedERC1155RoyaltyAuctionAccess.sol\":2790:2800  ids.length */\n      swap1\n      pop\n        /* \"Contract_Conqueror_Series/AdvancedERC1155RoyaltyAuctionAccess.sol\":2771:2779  accounts */\n      dup6\n      dup6\n        /* \"Contract_Conqueror_Series/AdvancedERC1155RoyaltyAuctionAccess.sol\":2771:2786  accounts.length */\n      swap1\n      pop\n        /* \"Contract_Conqueror_Series/AdvancedERC1155RoyaltyAuctionAccess.sol\":2771:2800  accounts.length == ids.length */\n      eq\n        /* \"Contract_Conqueror_Series/AdvancedERC1155RoyaltyAuctionAccess.sol\":2763:2815  require(accounts.length == ids.length, \"Mismatched\") */\n      tag_203\n      jumpi\n      mload(0x40)\n      0x08c379a000000000000000000000000000000000000000000000000000000000\n      dup2\n      mstore\n      0x04\n      add\n      tag_204\n      swap1\n      tag_205\n      jump\t// in\n    tag_204:\n      mload(0x40)\n      dup1\n      swap2\n      sub\n      swap1\n      revert\n    tag_203:\n        /* \"Contract_Conqueror_Series/AdvancedERC1155RoyaltyAuctionAccess.sol\":2826:2848  uint256[] memory batch */\n      0x00\n        /* \"Contract_Conqueror_Series/AdvancedERC1155RoyaltyAuctionAccess.sol\":2865:2873  accounts */\n      dup6\n      dup6\n        /* \"Contract_Conqueror_Series/AdvancedERC1155RoyaltyAuctionAccess.sol\":2865:2880  accounts.length */\n      swap1\n      pop\n        /* \"Contract_Conqueror_Series/AdvancedERC1155RoyaltyAuctionAccess.sol\":2851:2881  new uint256[](accounts.length) */\n      0xffffffffffffffff\n      dup2\n      gt\n      iszero\n      tag_206\n      jumpi\n      tag_207\n      tag_208\n      jump\t// in\n    tag_207:\n    tag_206:\n      mload(0x40)\n      swap1\n      dup1\n      dup3\n      mstore\n      dup1\n      0x20\n      mul\n      0x20\n      add\n      dup3\n      add\n      0x40\n      mstore\n      dup1\n      iszero\n      tag_209\n      jumpi\n      dup2\n      0x20\n      add\n      0x20\n      dup3\n      mul\n      dup1\n      calldatasize\n      dup4\n      calldatacopy\n      dup1\n      dup3\n      add\n      swap2\n      pop\n      pop\n      swap1\n      pop\n    tag_209:\n      pop\n        /* \"Contract_Conqueror_Series/AdvancedERC1155RoyaltyAuctionAccess.sol\":2826:2881  uint256[] memory batch = new uint256[](accounts.length) */\n      swap1\n      pop\n        /* \"Contract_Conqueror_Series/AdvancedERC1155RoyaltyAuctionAccess.sol\":2897:2906  uint256 i */\n      0x00\n        /* \"Contract_Conqueror_Series/AdvancedERC1155RoyaltyAuctionAccess.sol\":2909:2910  0 */\n      0x00\n        /* \"Contract_Conqueror_Series/AdvancedERC1155RoyaltyAuctionAccess.sol\":2897:2910  uint256 i = 0 */\n      swap1\n      pop\n        /* \"Contract_Conqueror_Series/AdvancedERC1155RoyaltyAuctionAccess.sol\":2892:3006  for (uint256 i = 0; i < accounts.length; i++) {... */\n    tag_210:\n        /* \"Contract_Conqueror_Series/AdvancedERC1155RoyaltyAuctionAccess.sol\":2916:2924  accounts */\n      dup7\n      dup7\n        /* \"Contract_Conqueror_Series/AdvancedERC1155RoyaltyAuctionAccess.sol\":2916:2931  accounts.length */\n      swap1\n      pop\n        /* \"Contract_Conqueror_Series/AdvancedERC1155RoyaltyAuctionAccess.sol\":2912:2913  i */\n      dup2\n        /* \"Contract_Conqueror_Series/AdvancedERC1155RoyaltyAuctionAccess.sol\":2912:2931  i < accounts.length */\n      lt\n        /* \"Contract_Conqueror_Series/AdvancedERC1155RoyaltyAuctionAccess.sol\":2892:3006  for (uint256 i = 0; i < accounts.length; i++) {... */\n      iszero\n      tag_211\n      jumpi\n        /* \"Contract_Conqueror_Series/AdvancedERC1155RoyaltyAuctionAccess.sol\":2964:2973  _balances */\n      0x00\n        /* \"Contract_Conqueror_Series/AdvancedERC1155RoyaltyAuctionAccess.sol\":2964:2981  _balances[ids[i]] */\n      0x00\n        /* \"Contract_Conqueror_Series/AdvancedERC1155RoyaltyAuctionAccess.sol\":2974:2977  ids */\n      dup7\n      dup7\n        /* \"Contract_Conqueror_Series/AdvancedERC1155RoyaltyAuctionAccess.sol\":2978:2979  i */\n      dup5\n        /* \"Contract_Conqueror_Series/AdvancedERC1155RoyaltyAuctionAccess.sol\":2974:2980  ids[i] */\n      dup2\n      dup2\n      lt\n      tag_213\n      jumpi\n      tag_214\n      tag_215\n      jump\t// in\n    tag_214:\n    tag_213:\n      swap1\n      pop\n      0x20\n      mul\n      add\n      calldataload\n        /* \"Contract_Conqueror_Series/AdvancedERC1155RoyaltyAuctionAccess.sol\":2964:2981  _balances[ids[i]] */\n      dup2\n      mstore\n      0x20\n      add\n      swap1\n      dup2\n      mstore\n      0x20\n      add\n      0x00\n      keccak256\n        /* \"Contract_Conqueror_Series/AdvancedERC1155RoyaltyAuctionAccess.sol\":2964:2994  _balances[ids[i]][accounts[i]] */\n      0x00\n        /* \"Contract_Conqueror_Series/AdvancedERC1155RoyaltyAuctionAccess.sol\":2982:2990  accounts */\n      dup9\n      dup9\n        /* \"Contract_Conqueror_Series/AdvancedERC1155RoyaltyAuctionAccess.sol\":2991:2992  i */\n      dup5\n        /* \"Contract_Conqueror_Series/AdvancedERC1155RoyaltyAuctionAccess.sol\":2982:2993  accounts[i] */\n      dup2\n      dup2\n      lt\n      tag_216\n      jumpi\n      tag_217\n      tag_215\n      jump\t// in\n    tag_217:\n    tag_216:\n      swap1\n      pop\n      0x20\n      mul\n      add\n      0x20\n      dup2\n      add\n      swap1\n      tag_218\n      swap2\n      swap1\n      tag_219\n      jump\t// in\n    tag_218:\n        /* \"Contract_Conqueror_Series/AdvancedERC1155RoyaltyAuctionAccess.sol\":2964:2994  _balances[ids[i]][accounts[i]] */\n      0xffffffffffffffffffffffffffffffffffffffff\n      and\n      0xffffffffffffffffffffffffffffffffffffffff\n      and\n      dup2\n      mstore\n      0x20\n      add\n      swap1\n      dup2\n      mstore\n      0x20\n      add\n      0x00\n      keccak256\n      sload\n        /* \"Contract_Conqueror_Series/AdvancedERC1155RoyaltyAuctionAccess.sol\":2953:2958  batch */\n      dup3\n        /* \"Contract_Conqueror_Series/AdvancedERC1155RoyaltyAuctionAccess.sol\":2959:2960  i */\n      dup3\n        /* \"Contract_Conqueror_Series/AdvancedERC1155RoyaltyAuctionAccess.sol\":2953:2961  batch[i] */\n      dup2\n      mload\n      dup2\n      lt\n      tag_220\n      jumpi\n      tag_221\n      tag_215\n      jump\t// in\n    tag_221:\n    tag_220:\n      0x20\n      mul\n      0x20\n      add\n      add\n        /* \"Contract_Conqueror_Series/AdvancedERC1155RoyaltyAuctionAccess.sol\":2953:2994  batch[i] = _balances[ids[i]][accounts[i]] */\n      dup2\n      dup2\n      mstore\n      pop\n      pop\n        /* \"Contract_Conqueror_Series/AdvancedERC1155RoyaltyAuctionAccess.sol\":2933:2936  i++ */\n      dup1\n      dup1\n      0x01\n      add\n      swap2\n      pop\n      pop\n        /* \"Contract_Conqueror_Series/AdvancedERC1155RoyaltyAuctionAccess.sol\":2892:3006  for (uint256 i = 0; i < accounts.length; i++) {... */\n      jump(tag_210)\n    tag_211:\n      pop\n        /* \"Contract_Conqueror_Series/AdvancedERC1155RoyaltyAuctionAccess.sol\":3023:3028  batch */\n      dup1\n        /* \"Contract_Conqueror_Series/AdvancedERC1155RoyaltyAuctionAccess.sol\":3016:3028  return batch */\n      swap2\n      pop\n      pop\n        /* \"Contract_Conqueror_Series/AdvancedERC1155RoyaltyAuctionAccess.sol\":2634:3036  function balanceOfBatch(address[] calldata accounts, uint256[] calldata ids) external view returns (uint256[] memory) {... */\n      swap5\n      swap4\n      pop\n      pop\n      pop\n      pop\n      jump\t// out\n        /* \"Contract_Conqueror_Series/AdvancedERC1155RoyaltyAuctionAccess.sol\":979:1022  mapping(uint256 => Auction) public auctions */\n    tag_89:\n      mstore(0x20, 0x05)\n      dup1\n      0x00\n      mstore\n      keccak256(0x00, 0x40)\n      0x00\n      swap2\n      pop\n      swap1\n      pop\n      dup1\n      0x00\n      add\n      0x00\n      swap1\n      sload\n      swap1\n      0x0100\n      exp\n      swap1\n      div\n      0xffffffffffffffffffffffffffffffffffffffff\n      and\n      swap1\n      dup1\n      0x01\n      add\n      sload\n      swap1\n      dup1\n      0x02\n      add\n      sload\n      swap1\n      dup1\n      0x03\n      add\n      sload\n      swap1\n      dup1\n      0x04\n      add\n      sload\n      swap1\n      dup1\n      0x05\n      add\n      0x00\n      swap1\n      sload\n      swap1\n      0x0100\n      exp\n      swap1\n      div\n      0xffffffffffffffffffffffffffffffffffffffff\n      and\n      swap1\n      dup1\n      0x05\n      add\n      0x14\n      swap1\n      sload\n      swap1\n      0x0100\n      exp\n      swap1\n      div\n      0xff\n      and\n      swap1\n      pop\n      dup8\n      jump\t// out\n        /* \"Contract_Conqueror_Series/AdvancedERC1155RoyaltyAuctionAccess.sol\":1177:1195  bool public paused */\n    tag_94:\n      0x07\n      0x14\n      swap1\n      sload\n      swap1\n      0x0100\n      exp\n      swap1\n      div\n      0xff\n      and\n      dup2\n      jump\t// out\n        /* \"Contract_Conqueror_Series/AdvancedERC1155RoyaltyAuctionAccess.sol\":1454:1522  function pause() external onlyOwner {... */\n    tag_98:\n        /* \"Contract_Conqueror_Series/AdvancedERC1155RoyaltyAuctionAccess.sol\":1258:1263  owner */\n      0x07\n      0x00\n      swap1\n      sload\n      swap1\n      0x0100\n      exp\n      swap1\n      div\n      0xffffffffffffffffffffffffffffffffffffffff\n      and\n        /* \"Contract_Conqueror_Series/AdvancedERC1155RoyaltyAuctionAccess.sol\":1244:1263  msg.sender == owner */\n      0xffffffffffffffffffffffffffffffffffffffff\n      and\n        /* \"Contract_Conqueror_Series/AdvancedERC1155RoyaltyAuctionAccess.sol\":1244:1254  msg.sender */\n      caller\n        /* \"Contract_Conqueror_Series/AdvancedERC1155RoyaltyAuctionAccess.sol\":1244:1263  msg.sender == owner */\n      0xffffffffffffffffffffffffffffffffffffffff\n      and\n      eq\n        /* \"Contract_Conqueror_Series/AdvancedERC1155RoyaltyAuctionAccess.sol\":1236:1277  require(msg.sender == owner, \"Not owner\") */\n      tag_223\n      jumpi\n      mload(0x40)\n      0x08c379a000000000000000000000000000000000000000000000000000000000\n      dup2\n      mstore\n      0x04\n      add\n      tag_224\n      swap1\n      tag_186\n      jump\t// in\n    tag_224:\n      mload(0x40)\n      dup1\n      swap2\n      sub\n      swap1\n      revert\n    tag_223:\n        /* \"Contract_Conqueror_Series/AdvancedERC1155RoyaltyAuctionAccess.sol\":1510:1514  true */\n      0x01\n        /* \"Contract_Conqueror_Series/AdvancedERC1155RoyaltyAuctionAccess.sol\":1501:1507  paused */\n      0x07\n      0x14\n        /* \"Contract_Conqueror_Series/AdvancedERC1155RoyaltyAuctionAccess.sol\":1501:1514  paused = true */\n      0x0100\n      exp\n      dup2\n      sload\n      dup2\n      0xff\n      mul\n      not\n      and\n      swap1\n      dup4\n      iszero\n      iszero\n      mul\n      or\n      swap1\n      sstore\n      pop\n        /* \"Contract_Conqueror_Series/AdvancedERC1155RoyaltyAuctionAccess.sol\":1454:1522  function pause() external onlyOwner {... */\n      jump\t// out\n        /* \"Contract_Conqueror_Series/AdvancedERC1155RoyaltyAuctionAccess.sol\":1150:1170  address public owner */\n    tag_101:\n      0x07\n      0x00\n      swap1\n      sload\n      swap1\n      0x0100\n      exp\n      swap1\n      div\n      0xffffffffffffffffffffffffffffffffffffffff\n      and\n      dup2\n      jump\t// out\n        /* \"Contract_Conqueror_Series/AdvancedERC1155RoyaltyAuctionAccess.sol\":3044:3259  function setApprovalForAll(address operator, bool approved) external whenNotPaused {... */\n    tag_108:\n        /* \"Contract_Conqueror_Series/AdvancedERC1155RoyaltyAuctionAccess.sol\":1350:1356  paused */\n      0x07\n      0x14\n      swap1\n      sload\n      swap1\n      0x0100\n      exp\n      swap1\n      div\n      0xff\n      and\n        /* \"Contract_Conqueror_Series/AdvancedERC1155RoyaltyAuctionAccess.sol\":1349:1356  !paused */\n      iszero\n        /* \"Contract_Conqueror_Series/AdvancedERC1155RoyaltyAuctionAccess.sol\":1341:1367  require(!paused, \"Paused\") */\n      tag_227\n      jumpi\n      mload(0x40)\n      0x08c379a000000000000000000000000000000000000000000000000000000000\n      dup2\n      mstore\n      0x04\n      add\n      tag_228\n      swap1\n      tag_151\n      jump\t// in\n    tag_228:\n      mload(0x40)\n      dup1\n      swap2\n      sub\n      swap1\n      revert\n    tag_227:\n        /* \"Contract_Conqueror_Series/AdvancedERC1155RoyaltyAuctionAccess.sol\":3181:3189  approved */\n      dup1\n        /* \"Contract_Conqueror_Series/AdvancedERC1155RoyaltyAuctionAccess.sol\":3138:3156  _operatorApprovals */\n      0x01\n        /* \"Contract_Conqueror_Series/AdvancedERC1155RoyaltyAuctionAccess.sol\":3138:3168  _operatorApprovals[msg.sender] */\n      0x00\n        /* \"Contract_Conqueror_Series/AdvancedERC1155RoyaltyAuctionAccess.sol\":3157:3167  msg.sender */\n      caller\n        /* \"Contract_Conqueror_Series/AdvancedERC1155RoyaltyAuctionAccess.sol\":3138:3168  _operatorApprovals[msg.sender] */\n      0xffffffffffffffffffffffffffffffffffffffff\n      and\n      0xffffffffffffffffffffffffffffffffffffffff\n      and\n      dup2\n      mstore\n      0x20\n      add\n      swap1\n      dup2\n      mstore\n      0x20\n      add\n      0x00\n      keccak256\n        /* \"Contract_Conqueror_Series/AdvancedERC1155RoyaltyAuctionAccess.sol\":3138:3178  _operatorApprovals[msg.sender][operator] */\n      0x00\n        /* \"Contract_Conqueror_Series/AdvancedERC1155RoyaltyAuctionAccess.sol\":3169:3177  operator */\n      dup5\n        /* \"Contract_Conqueror_Series/AdvancedERC1155RoyaltyAuctionAccess.sol\":3138:3178  _operatorApprovals[msg.sender][operator] */\n      0xffffffffffffffffffffffffffffffffffffffff\n      and\n      0xffffffffffffffffffffffffffffffffffffffff\n      and\n      dup2\n      mstore\n      0x20\n      add\n      swap1\n      dup2\n      mstore\n      0x20\n      add\n      0x00\n      keccak256\n      0x00\n        /* \"Contract_Conqueror_Series/AdvancedERC1155RoyaltyAuctionAccess.sol\":3138:3189  _operatorApprovals[msg.sender][operator] = approved */\n      0x0100\n      exp\n      dup2\n      sload\n      dup2\n      0xff\n      mul\n      not\n      and\n      swap1\n      dup4\n      iszero\n      iszero\n      mul\n      or\n      swap1\n      sstore\n      pop\n        /* \"Contract_Conqueror_Series/AdvancedERC1155RoyaltyAuctionAccess.sol\":3232:3240  operator */\n      dup2\n        /* \"Contract_Conqueror_Series/AdvancedERC1155RoyaltyAuctionAccess.sol\":3205:3251  ApprovalForAll(msg.sender, operator, approved) */\n      0xffffffffffffffffffffffffffffffffffffffff\n      and\n        /* \"Contract_Conqueror_Series/AdvancedERC1155RoyaltyAuctionAccess.sol\":3220:3230  msg.sender */\n      caller\n        /* \"Contract_Conqueror_Series/AdvancedERC1155RoyaltyAuctionAccess.sol\":3205:3251  ApprovalForAll(msg.sender, operator, approved) */\n      0xffffffffffffffffffffffffffffffffffffffff\n      and\n      0x17307eab39ab6107e8899845ad3d59bd9653f200f220920489ca2b5937696c31\n        /* \"Contract_Conqueror_Series/AdvancedERC1155RoyaltyAuctionAccess.sol\":3242:3250  approved */\n      dup4\n        /* \"Contract_Conqueror_Series/AdvancedERC1155RoyaltyAuctionAccess.sol\":3205:3251  ApprovalForAll(msg.sender, operator, approved) */\n      mload(0x40)\n      tag_230\n      swap2\n      swap1\n      tag_39\n      jump\t// in\n    tag_230:\n      mload(0x40)\n      dup1\n      swap2\n      sub\n      swap1\n      log3\n        /* \"Contract_Conqueror_Series/AdvancedERC1155RoyaltyAuctionAccess.sol\":3044:3259  function setApprovalForAll(address operator, bool approved) external whenNotPaused {... */\n      pop\n      pop\n      jump\t// out\n        /* \"Contract_Conqueror_Series/AdvancedERC1155RoyaltyAuctionAccess.sol\":7993:8733  function endAuction(uint256 auctionId) external onlyAfterEnd(auctionId) notEnded(auctionId) whenNotPaused {... */\n    tag_112:\n        /* \"Contract_Conqueror_Series/AdvancedERC1155RoyaltyAuctionAccess.sol\":8054:8063  auctionId */\n      dup1\n        /* \"Contract_Conqueror_Series/AdvancedERC1155RoyaltyAuctionAccess.sol\":6144:6152  auctions */\n      0x05\n        /* \"Contract_Conqueror_Series/AdvancedERC1155RoyaltyAuctionAccess.sol\":6144:6163  auctions[auctionId] */\n      0x00\n        /* \"Contract_Conqueror_Series/AdvancedERC1155RoyaltyAuctionAccess.sol\":6153:6162  auctionId */\n      dup3\n        /* \"Contract_Conqueror_Series/AdvancedERC1155RoyaltyAuctionAccess.sol\":6144:6163  auctions[auctionId] */\n      dup2\n      mstore\n      0x20\n      add\n      swap1\n      dup2\n      mstore\n      0x20\n      add\n      0x00\n      keccak256\n        /* \"Contract_Conqueror_Series/AdvancedERC1155RoyaltyAuctionAccess.sol\":6144:6171  auctions[auctionId].endTime */\n      0x03\n      add\n      sload\n        /* \"Contract_Conqueror_Series/AdvancedERC1155RoyaltyAuctionAccess.sol\":6125:6140  block.timestamp */\n      timestamp\n        /* \"Contract_Conqueror_Series/AdvancedERC1155RoyaltyAuctionAccess.sol\":6125:6171  block.timestamp >= auctions[auctionId].endTime */\n      lt\n      iszero\n        /* \"Contract_Conqueror_Series/AdvancedERC1155RoyaltyAuctionAccess.sol\":6117:6183  require(block.timestamp >= auctions[auctionId].endTime, \"Not yet\") */\n      tag_232\n      jumpi\n      mload(0x40)\n      0x08c379a000000000000000000000000000000000000000000000000000000000\n      dup2\n      mstore\n      0x04\n      add\n      tag_233\n      swap1\n      tag_234\n      jump\t// in\n    tag_233:\n      mload(0x40)\n      dup1\n      swap2\n      sub\n      swap1\n      revert\n    tag_232:\n        /* \"Contract_Conqueror_Series/AdvancedERC1155RoyaltyAuctionAccess.sol\":8074:8083  auctionId */\n      dup2\n        /* \"Contract_Conqueror_Series/AdvancedERC1155RoyaltyAuctionAccess.sol\":6268:6276  auctions */\n      0x05\n        /* \"Contract_Conqueror_Series/AdvancedERC1155RoyaltyAuctionAccess.sol\":6268:6287  auctions[auctionId] */\n      0x00\n        /* \"Contract_Conqueror_Series/AdvancedERC1155RoyaltyAuctionAccess.sol\":6277:6286  auctionId */\n      dup3\n        /* \"Contract_Conqueror_Series/AdvancedERC1155RoyaltyAuctionAccess.sol\":6268:6287  auctions[auctionId] */\n      dup2\n      mstore\n      0x20\n      add\n      swap1\n      dup2\n      mstore\n      0x20\n      add\n      0x00\n      keccak256\n        /* \"Contract_Conqueror_Series/AdvancedERC1155RoyaltyAuctionAccess.sol\":6268:6293  auctions[auctionId].ended */\n      0x05\n      add\n      0x14\n      swap1\n      sload\n      swap1\n      0x0100\n      exp\n      swap1\n      div\n      0xff\n      and\n        /* \"Contract_Conqueror_Series/AdvancedERC1155RoyaltyAuctionAccess.sol\":6267:6293  !auctions[auctionId].ended */\n      iszero\n        /* \"Contract_Conqueror_Series/AdvancedERC1155RoyaltyAuctionAccess.sol\":6259:6311  require(!auctions[auctionId].ended, \"Already ended\") */\n      tag_236\n      jumpi\n      mload(0x40)\n      0x08c379a000000000000000000000000000000000000000000000000000000000\n      dup2\n      mstore\n      0x04\n      add\n      tag_237\n      swap1\n      tag_238\n      jump\t// in\n    tag_237:\n      mload(0x40)\n      dup1\n      swap2\n      sub\n      swap1\n      revert\n    tag_236:\n        /* \"Contract_Conqueror_Series/AdvancedERC1155RoyaltyAuctionAccess.sol\":1350:1356  paused */\n      0x07\n      0x14\n      swap1\n      sload\n      swap1\n      0x0100\n      exp\n      swap1\n      div\n      0xff\n      and\n        /* \"Contract_Conqueror_Series/AdvancedERC1155RoyaltyAuctionAccess.sol\":1349:1356  !paused */\n      iszero\n        /* \"Contract_Conqueror_Series/AdvancedERC1155RoyaltyAuctionAccess.sol\":1341:1367  require(!paused, \"Paused\") */\n      tag_240\n      jumpi\n      mload(0x40)\n      0x08c379a000000000000000000000000000000000000000000000000000000000\n      dup2\n      mstore\n      0x04\n      add\n      tag_241\n      swap1\n      tag_151\n      jump\t// in\n    tag_241:\n      mload(0x40)\n      dup1\n      swap2\n      sub\n      swap1\n      revert\n    tag_240:\n        /* \"Contract_Conqueror_Series/AdvancedERC1155RoyaltyAuctionAccess.sol\":8110:8133  Auction storage auction */\n      0x00\n        /* \"Contract_Conqueror_Series/AdvancedERC1155RoyaltyAuctionAccess.sol\":8136:8144  auctions */\n      0x05\n        /* \"Contract_Conqueror_Series/AdvancedERC1155RoyaltyAuctionAccess.sol\":8136:8155  auctions[auctionId] */\n      0x00\n        /* \"Contract_Conqueror_Series/AdvancedERC1155RoyaltyAuctionAccess.sol\":8145:8154  auctionId */\n      dup6\n        /* \"Contract_Conqueror_Series/AdvancedERC1155RoyaltyAuctionAccess.sol\":8136:8155  auctions[auctionId] */\n      dup2\n      mstore\n      0x20\n      add\n      swap1\n      dup2\n      mstore\n      0x20\n      add\n      0x00\n      keccak256\n        /* \"Contract_Conqueror_Series/AdvancedERC1155RoyaltyAuctionAccess.sol\":8110:8155  Auction storage auction = auctions[auctionId] */\n      swap1\n      pop\n        /* \"Contract_Conqueror_Series/AdvancedERC1155RoyaltyAuctionAccess.sol\":8182:8186  true */\n      0x01\n        /* \"Contract_Conqueror_Series/AdvancedERC1155RoyaltyAuctionAccess.sol\":8166:8173  auction */\n      dup2\n        /* \"Contract_Conqueror_Series/AdvancedERC1155RoyaltyAuctionAccess.sol\":8166:8179  auction.ended */\n      0x05\n      add\n      0x14\n        /* \"Contract_Conqueror_Series/AdvancedERC1155RoyaltyAuctionAccess.sol\":8166:8186  auction.ended = true */\n      0x0100\n      exp\n      dup2\n      sload\n      dup2\n      0xff\n      mul\n      not\n      and\n      swap1\n      dup4\n      iszero\n      iszero\n      mul\n      or\n      swap1\n      sstore\n      pop\n        /* \"Contract_Conqueror_Series/AdvancedERC1155RoyaltyAuctionAccess.sol\":8236:8237  0 */\n      0x00\n        /* \"Contract_Conqueror_Series/AdvancedERC1155RoyaltyAuctionAccess.sol\":8203:8238  auction.highestBidder != address(0) */\n      0xffffffffffffffffffffffffffffffffffffffff\n      and\n        /* \"Contract_Conqueror_Series/AdvancedERC1155RoyaltyAuctionAccess.sol\":8203:8210  auction */\n      dup2\n        /* \"Contract_Conqueror_Series/AdvancedERC1155RoyaltyAuctionAccess.sol\":8203:8224  auction.highestBidder */\n      0x05\n      add\n      0x00\n      swap1\n      sload\n      swap1\n      0x0100\n      exp\n      swap1\n      div\n      0xffffffffffffffffffffffffffffffffffffffff\n      and\n        /* \"Contract_Conqueror_Series/AdvancedERC1155RoyaltyAuctionAccess.sol\":8203:8238  auction.highestBidder != address(0) */\n      0xffffffffffffffffffffffffffffffffffffffff\n      and\n      eq\n        /* \"Contract_Conqueror_Series/AdvancedERC1155RoyaltyAuctionAccess.sol\":8199:8642  if (auction.highestBidder != address(0)) {... */\n      tag_243\n      jumpi\n        /* \"Contract_Conqueror_Series/AdvancedERC1155RoyaltyAuctionAccess.sol\":8300:8307  auction */\n      dup1\n        /* \"Contract_Conqueror_Series/AdvancedERC1155RoyaltyAuctionAccess.sol\":8300:8314  auction.amount */\n      0x02\n      add\n      sload\n        /* \"Contract_Conqueror_Series/AdvancedERC1155RoyaltyAuctionAccess.sol\":8255:8264  _balances */\n      0x00\n        /* \"Contract_Conqueror_Series/AdvancedERC1155RoyaltyAuctionAccess.sol\":8255:8281  _balances[auction.tokenId] */\n      0x00\n        /* \"Contract_Conqueror_Series/AdvancedERC1155RoyaltyAuctionAccess.sol\":8265:8272  auction */\n      dup4\n        /* \"Contract_Conqueror_Series/AdvancedERC1155RoyaltyAuctionAccess.sol\":8265:8280  auction.tokenId */\n      0x01\n      add\n      sload\n        /* \"Contract_Conqueror_Series/AdvancedERC1155RoyaltyAuctionAccess.sol\":8255:8281  _balances[auction.tokenId] */\n      dup2\n      mstore\n      0x20\n      add\n      swap1\n      dup2\n      mstore\n      0x20\n      add\n      0x00\n      keccak256\n        /* \"Contract_Conqueror_Series/AdvancedERC1155RoyaltyAuctionAccess.sol\":8255:8296  _balances[auction.tokenId][address(this)] */\n      0x00\n        /* \"Contract_Conqueror_Series/AdvancedERC1155RoyaltyAuctionAccess.sol\":8290:8294  this */\n      address\n        /* \"Contract_Conqueror_Series/AdvancedERC1155RoyaltyAuctionAccess.sol\":8255:8296  _balances[auction.tokenId][address(this)] */\n      0xffffffffffffffffffffffffffffffffffffffff\n      and\n      0xffffffffffffffffffffffffffffffffffffffff\n      and\n      dup2\n      mstore\n      0x20\n      add\n      swap1\n      dup2\n      mstore\n      0x20\n      add\n      0x00\n      keccak256\n      0x00\n        /* \"Contract_Conqueror_Series/AdvancedERC1155RoyaltyAuctionAccess.sol\":8255:8314  _balances[auction.tokenId][address(this)] -= auction.amount */\n      dup3\n      dup3\n      sload\n      tag_244\n      swap2\n      swap1\n      tag_173\n      jump\t// in\n    tag_244:\n      swap3\n      pop\n      pop\n      dup2\n      swap1\n      sstore\n      pop\n        /* \"Contract_Conqueror_Series/AdvancedERC1155RoyaltyAuctionAccess.sol\":8382:8389  auction */\n      dup1\n        /* \"Contract_Conqueror_Series/AdvancedERC1155RoyaltyAuctionAccess.sol\":8382:8396  auction.amount */\n      0x02\n      add\n      sload\n        /* \"Contract_Conqueror_Series/AdvancedERC1155RoyaltyAuctionAccess.sol\":8329:8338  _balances */\n      0x00\n        /* \"Contract_Conqueror_Series/AdvancedERC1155RoyaltyAuctionAccess.sol\":8329:8355  _balances[auction.tokenId] */\n      0x00\n        /* \"Contract_Conqueror_Series/AdvancedERC1155RoyaltyAuctionAccess.sol\":8339:8346  auction */\n      dup4\n        /* \"Contract_Conqueror_Series/AdvancedERC1155RoyaltyAuctionAccess.sol\":8339:8354  auction.tokenId */\n      0x01\n      add\n      sload\n        /* \"Contract_Conqueror_Series/AdvancedERC1155RoyaltyAuctionAccess.sol\":8329:8355  _balances[auction.tokenId] */\n      dup2\n      mstore\n      0x20\n      add\n      swap1\n      dup2\n      mstore\n      0x20\n      add\n      0x00\n      keccak256\n        /* \"Contract_Conqueror_Series/AdvancedERC1155RoyaltyAuctionAccess.sol\":8329:8378  _balances[auction.tokenId][auction.highestBidder] */\n      0x00\n        /* \"Contract_Conqueror_Series/AdvancedERC1155RoyaltyAuctionAccess.sol\":8356:8363  auction */\n      dup4\n        /* \"Contract_Conqueror_Series/AdvancedERC1155RoyaltyAuctionAccess.sol\":8356:8377  auction.highestBidder */\n      0x05\n      add\n      0x00\n      swap1\n      sload\n      swap1\n      0x0100\n      exp\n      swap1\n      div\n      0xffffffffffffffffffffffffffffffffffffffff\n      and\n        /* \"Contract_Conqueror_Series/AdvancedERC1155RoyaltyAuctionAccess.sol\":8329:8378  _balances[auction.tokenId][auction.highestBidder] */\n      0xffffffffffffffffffffffffffffffffffffffff\n      and\n      0xffffffffffffffffffffffffffffffffffffffff\n      and\n      dup2\n      mstore\n      0x20\n      add\n      swap1\n      dup2\n      mstore\n      0x20\n      add\n      0x00\n      keccak256\n      0x00\n        /* \"Contract_Conqueror_Series/AdvancedERC1155RoyaltyAuctionAccess.sol\":8329:8396  _balances[auction.tokenId][auction.highestBidder] += auction.amount */\n      dup3\n      dup3\n      sload\n      tag_245\n      swap2\n      swap1\n      tag_175\n      jump\t// in\n    tag_245:\n      swap3\n      pop\n      pop\n      dup2\n      swap1\n      sstore\n      pop\n        /* \"Contract_Conqueror_Series/AdvancedERC1155RoyaltyAuctionAccess.sol\":8419:8426  auction */\n      dup1\n        /* \"Contract_Conqueror_Series/AdvancedERC1155RoyaltyAuctionAccess.sol\":8419:8433  auction.seller */\n      0x00\n      add\n      0x00\n      swap1\n      sload\n      swap1\n      0x0100\n      exp\n      swap1\n      div\n      0xffffffffffffffffffffffffffffffffffffffff\n      and\n        /* \"Contract_Conqueror_Series/AdvancedERC1155RoyaltyAuctionAccess.sol\":8411:8443  payable(auction.seller).transfer */\n      0xffffffffffffffffffffffffffffffffffffffff\n      and\n        /* \"Contract_Conqueror_Series/AdvancedERC1155RoyaltyAuctionAccess.sol\":8411:8463  payable(auction.seller).transfer(auction.highestBid) */\n      0x08fc\n        /* \"Contract_Conqueror_Series/AdvancedERC1155RoyaltyAuctionAccess.sol\":8444:8451  auction */\n      dup3\n        /* \"Contract_Conqueror_Series/AdvancedERC1155RoyaltyAuctionAccess.sol\":8444:8462  auction.highestBid */\n      0x04\n      add\n      sload\n        /* \"Contract_Conqueror_Series/AdvancedERC1155RoyaltyAuctionAccess.sol\":8411:8463  payable(auction.seller).transfer(auction.highestBid) */\n      swap1\n      dup2\n      iszero\n      mul\n      swap1\n      mload(0x40)\n      0x00\n      mload(0x40)\n      dup1\n      dup4\n      sub\n      dup2\n      dup6\n      dup9\n      dup9\n      call\n      swap4\n      pop\n      pop\n      pop\n      pop\n      iszero\n      dup1\n      iszero\n      tag_247\n      jumpi\n      returndatacopy(0x00, 0x00, returndatasize)\n      revert(0x00, returndatasize)\n    tag_247:\n      pop\n        /* \"Contract_Conqueror_Series/AdvancedERC1155RoyaltyAuctionAccess.sol\":8199:8642  if (auction.highestBidder != address(0)) {... */\n      jump(tag_248)\n    tag_243:\n        /* \"Contract_Conqueror_Series/AdvancedERC1155RoyaltyAuctionAccess.sol\":8541:8548  auction */\n      dup1\n        /* \"Contract_Conqueror_Series/AdvancedERC1155RoyaltyAuctionAccess.sol\":8541:8555  auction.amount */\n      0x02\n      add\n      sload\n        /* \"Contract_Conqueror_Series/AdvancedERC1155RoyaltyAuctionAccess.sol\":8496:8505  _balances */\n      0x00\n        /* \"Contract_Conqueror_Series/AdvancedERC1155RoyaltyAuctionAccess.sol\":8496:8522  _balances[auction.tokenId] */\n      0x00\n        /* \"Contract_Conqueror_Series/AdvancedERC1155RoyaltyAuctionAccess.sol\":8506:8513  auction */\n      dup4\n        /* \"Contract_Conqueror_Series/AdvancedERC1155RoyaltyAuctionAccess.sol\":8506:8521  auction.tokenId */\n      0x01\n      add\n      sload\n        /* \"Contract_Conqueror_Series/AdvancedERC1155RoyaltyAuctionAccess.sol\":8496:8522  _balances[auction.tokenId] */\n      dup2\n      mstore\n      0x20\n      add\n      swap1\n      dup2\n      mstore\n      0x20\n      add\n      0x00\n      keccak256\n        /* \"Contract_Conqueror_Series/AdvancedERC1155RoyaltyAuctionAccess.sol\":8496:8537  _balances[auction.tokenId][address(this)] */\n      0x00\n        /* \"Contract_Conqueror_Series/AdvancedERC1155RoyaltyAuctionAccess.sol\":8531:8535  this */\n      address\n        /* \"Contract_Conqueror_Series/AdvancedERC1155RoyaltyAuctionAccess.sol\":8496:8537  _balances[auction.tokenId][address(this)] */\n      0xffffffffffffffffffffffffffffffffffffffff\n      and\n      0xffffffffffffffffffffffffffffffffffffffff\n      and\n      dup2\n      mstore\n      0x20\n      add\n      swap1\n      dup2\n      mstore\n      0x20\n      add\n      0x00\n      keccak256\n      0x00\n        /* \"Contract_Conqueror_Series/AdvancedERC1155RoyaltyAuctionAccess.sol\":8496:8555  _balances[auction.tokenId][address(this)] -= auction.amount */\n      dup3\n      dup3\n      sload\n      tag_249\n      swap2\n      swap1\n      tag_173\n      jump\t// in\n    tag_249:\n      swap3\n      pop\n      pop\n      dup2\n      swap1\n      sstore\n      pop\n        /* \"Contract_Conqueror_Series/AdvancedERC1155RoyaltyAuctionAccess.sol\":8616:8623  auction */\n      dup1\n        /* \"Contract_Conqueror_Series/AdvancedERC1155RoyaltyAuctionAccess.sol\":8616:8630  auction.amount */\n      0x02\n      add\n      sload\n        /* \"Contract_Conqueror_Series/AdvancedERC1155RoyaltyAuctionAccess.sol\":8570:8579  _balances */\n      0x00\n        /* \"Contract_Conqueror_Series/AdvancedERC1155RoyaltyAuctionAccess.sol\":8570:8596  _balances[auction.tokenId] */\n      0x00\n        /* \"Contract_Conqueror_Series/AdvancedERC1155RoyaltyAuctionAccess.sol\":8580:8587  auction */\n      dup4\n        /* \"Contract_Conqueror_Series/AdvancedERC1155RoyaltyAuctionAccess.sol\":8580:8595  auction.tokenId */\n      0x01\n      add\n      sload\n        /* \"Contract_Conqueror_Series/AdvancedERC1155RoyaltyAuctionAccess.sol\":8570:8596  _balances[auction.tokenId] */\n      dup2\n      mstore\n      0x20\n      add\n      swap1\n      dup2\n      mstore\n      0x20\n      add\n      0x00\n      keccak256\n        /* \"Contract_Conqueror_Series/AdvancedERC1155RoyaltyAuctionAccess.sol\":8570:8612  _balances[auction.tokenId][auction.seller] */\n      0x00\n        /* \"Contract_Conqueror_Series/AdvancedERC1155RoyaltyAuctionAccess.sol\":8597:8604  auction */\n      dup4\n        /* \"Contract_Conqueror_Series/AdvancedERC1155RoyaltyAuctionAccess.sol\":8597:8611  auction.seller */\n      0x00\n      add\n      0x00\n      swap1\n      sload\n      swap1\n      0x0100\n      exp\n      swap1\n      div\n      0xffffffffffffffffffffffffffffffffffffffff\n      and\n        /* \"Contract_Conqueror_Series/AdvancedERC1155RoyaltyAuctionAccess.sol\":8570:8612  _balances[auction.tokenId][auction.seller] */\n      0xffffffffffffffffffffffffffffffffffffffff\n      and\n      0xffffffffffffffffffffffffffffffffffffffff\n      and\n      dup2\n      mstore\n      0x20\n      add\n      swap1\n      dup2\n      mstore\n      0x20\n      add\n      0x00\n      keccak256\n      0x00\n        /* \"Contract_Conqueror_Series/AdvancedERC1155RoyaltyAuctionAccess.sol\":8570:8630  _balances[auction.tokenId][auction.seller] += auction.amount */\n      dup3\n      dup3\n      sload\n      tag_250\n      swap2\n      swap1\n      tag_175\n      jump\t// in\n    tag_250:\n      swap3\n      pop\n      pop\n      dup2\n      swap1\n      sstore\n      pop\n        /* \"Contract_Conqueror_Series/AdvancedERC1155RoyaltyAuctionAccess.sol\":8199:8642  if (auction.highestBidder != address(0)) {... */\n    tag_248:\n        /* \"Contract_Conqueror_Series/AdvancedERC1155RoyaltyAuctionAccess.sol\":8672:8681  auctionId */\n      dup4\n        /* \"Contract_Conqueror_Series/AdvancedERC1155RoyaltyAuctionAccess.sol\":8659:8725  AuctionEnded(auctionId, auction.highestBidder, auction.highestBid) */\n      0xd2aa34a4fdbbc6dff6a3e56f46e0f3ae2a31d7785ff3487aa5c95c642acea501\n        /* \"Contract_Conqueror_Series/AdvancedERC1155RoyaltyAuctionAccess.sol\":8683:8690  auction */\n      dup3\n        /* \"Contract_Conqueror_Series/AdvancedERC1155RoyaltyAuctionAccess.sol\":8683:8704  auction.highestBidder */\n      0x05\n      add\n      0x00\n      swap1\n      sload\n      swap1\n      0x0100\n      exp\n      swap1\n      div\n      0xffffffffffffffffffffffffffffffffffffffff\n      and\n        /* \"Contract_Conqueror_Series/AdvancedERC1155RoyaltyAuctionAccess.sol\":8706:8713  auction */\n      dup4\n        /* \"Contract_Conqueror_Series/AdvancedERC1155RoyaltyAuctionAccess.sol\":8706:8724  auction.highestBid */\n      0x04\n      add\n      sload\n        /* \"Contract_Conqueror_Series/AdvancedERC1155RoyaltyAuctionAccess.sol\":8659:8725  AuctionEnded(auctionId, auction.highestBidder, auction.highestBid) */\n      mload(0x40)\n      tag_251\n      swap3\n      swap2\n      swap1\n      tag_62\n      jump\t// in\n    tag_251:\n      mload(0x40)\n      dup1\n      swap2\n      sub\n      swap1\n      log2\n        /* \"Contract_Conqueror_Series/AdvancedERC1155RoyaltyAuctionAccess.sol\":8099:8733  {... */\n      pop\n        /* \"Contract_Conqueror_Series/AdvancedERC1155RoyaltyAuctionAccess.sol\":6194:6195  _ */\n      pop\n        /* \"Contract_Conqueror_Series/AdvancedERC1155RoyaltyAuctionAccess.sol\":7993:8733  function endAuction(uint256 auctionId) external onlyAfterEnd(auctionId) notEnded(auctionId) whenNotPaused {... */\n      pop\n      pop\n      jump\t// out\n        /* \"Contract_Conqueror_Series/AdvancedERC1155RoyaltyAuctionAccess.sol\":6339:7142  function createAuction(uint256 tokenId, uint256 amount, uint256 duration) external whenNotPaused returns (uint256) {... */\n    tag_117:\n        /* \"Contract_Conqueror_Series/AdvancedERC1155RoyaltyAuctionAccess.sol\":6445:6452  uint256 */\n      0x00\n        /* \"Contract_Conqueror_Series/AdvancedERC1155RoyaltyAuctionAccess.sol\":1350:1356  paused */\n      0x07\n      0x14\n      swap1\n      sload\n      swap1\n      0x0100\n      exp\n      swap1\n      div\n      0xff\n      and\n        /* \"Contract_Conqueror_Series/AdvancedERC1155RoyaltyAuctionAccess.sol\":1349:1356  !paused */\n      iszero\n        /* \"Contract_Conqueror_Series/AdvancedERC1155RoyaltyAuctionAccess.sol\":1341:1367  require(!paused, \"Paused\") */\n      tag_253\n      jumpi\n      mload(0x40)\n      0x08c379a000000000000000000000000000000000000000000000000000000000\n      dup2\n      mstore\n      0x04\n      add\n      tag_254\n      swap1\n      tag_151\n      jump\t// in\n    tag_254:\n      mload(0x40)\n      dup1\n      swap2\n      sub\n      swap1\n      revert\n    tag_253:\n        /* \"Contract_Conqueror_Series/AdvancedERC1155RoyaltyAuctionAccess.sol\":6507:6513  amount */\n      dup3\n        /* \"Contract_Conqueror_Series/AdvancedERC1155RoyaltyAuctionAccess.sol\":6473:6482  _balances */\n      0x00\n        /* \"Contract_Conqueror_Series/AdvancedERC1155RoyaltyAuctionAccess.sol\":6473:6491  _balances[tokenId] */\n      0x00\n        /* \"Contract_Conqueror_Series/AdvancedERC1155RoyaltyAuctionAccess.sol\":6483:6490  tokenId */\n      dup7\n        /* \"Contract_Conqueror_Series/AdvancedERC1155RoyaltyAuctionAccess.sol\":6473:6491  _balances[tokenId] */\n      dup2\n      mstore\n      0x20\n      add\n      swap1\n      dup2\n      mstore\n      0x20\n      add\n      0x00\n      keccak256\n        /* \"Contract_Conqueror_Series/AdvancedERC1155RoyaltyAuctionAccess.sol\":6473:6503  _balances[tokenId][msg.sender] */\n      0x00\n        /* \"Contract_Conqueror_Series/AdvancedERC1155RoyaltyAuctionAccess.sol\":6492:6502  msg.sender */\n      caller\n        /* \"Contract_Conqueror_Series/AdvancedERC1155RoyaltyAuctionAccess.sol\":6473:6503  _balances[tokenId][msg.sender] */\n      0xffffffffffffffffffffffffffffffffffffffff\n      and\n      0xffffffffffffffffffffffffffffffffffffffff\n      and\n      dup2\n      mstore\n      0x20\n      add\n      swap1\n      dup2\n      mstore\n      0x20\n      add\n      0x00\n      keccak256\n      sload\n        /* \"Contract_Conqueror_Series/AdvancedERC1155RoyaltyAuctionAccess.sol\":6473:6513  _balances[tokenId][msg.sender] >= amount */\n      lt\n      iszero\n        /* \"Contract_Conqueror_Series/AdvancedERC1155RoyaltyAuctionAccess.sol\":6465:6527  require(_balances[tokenId][msg.sender] >= amount, \"Not owner\") */\n      tag_256\n      jumpi\n      mload(0x40)\n      0x08c379a000000000000000000000000000000000000000000000000000000000\n      dup2\n      mstore\n      0x04\n      add\n      tag_257\n      swap1\n      tag_186\n      jump\t// in\n    tag_257:\n      mload(0x40)\n      dup1\n      swap2\n      sub\n      swap1\n      revert\n    tag_256:\n        /* \"Contract_Conqueror_Series/AdvancedERC1155RoyaltyAuctionAccess.sol\":6558:6567  1 minutes */\n      0x3c\n        /* \"Contract_Conqueror_Series/AdvancedERC1155RoyaltyAuctionAccess.sol\":6546:6554  duration */\n      dup3\n        /* \"Contract_Conqueror_Series/AdvancedERC1155RoyaltyAuctionAccess.sol\":6546:6567  duration >= 1 minutes */\n      lt\n      iszero\n        /* \"Contract_Conqueror_Series/AdvancedERC1155RoyaltyAuctionAccess.sol\":6538:6581  require(duration >= 1 minutes, \"Too short\") */\n      tag_258\n      jumpi\n      mload(0x40)\n      0x08c379a000000000000000000000000000000000000000000000000000000000\n      dup2\n      mstore\n      0x04\n      add\n      tag_259\n      swap1\n      tag_260\n      jump\t// in\n    tag_259:\n      mload(0x40)\n      dup1\n      swap2\n      sub\n      swap1\n      revert\n    tag_258:\n        /* \"Contract_Conqueror_Series/AdvancedERC1155RoyaltyAuctionAccess.sol\":6628:6634  amount */\n      dup3\n        /* \"Contract_Conqueror_Series/AdvancedERC1155RoyaltyAuctionAccess.sol\":6594:6603  _balances */\n      0x00\n        /* \"Contract_Conqueror_Series/AdvancedERC1155RoyaltyAuctionAccess.sol\":6594:6612  _balances[tokenId] */\n      0x00\n        /* \"Contract_Conqueror_Series/AdvancedERC1155RoyaltyAuctionAccess.sol\":6604:6611  tokenId */\n      dup7\n        /* \"Contract_Conqueror_Series/AdvancedERC1155RoyaltyAuctionAccess.sol\":6594:6612  _balances[tokenId] */\n      dup2\n      mstore\n      0x20\n      add\n      swap1\n      dup2\n      mstore\n      0x20\n      add\n      0x00\n      keccak256\n        /* \"Contract_Conqueror_Series/AdvancedERC1155RoyaltyAuctionAccess.sol\":6594:6624  _balances[tokenId][msg.sender] */\n      0x00\n        /* \"Contract_Conqueror_Series/AdvancedERC1155RoyaltyAuctionAccess.sol\":6613:6623  msg.sender */\n      caller\n        /* \"Contract_Conqueror_Series/AdvancedERC1155RoyaltyAuctionAccess.sol\":6594:6624  _balances[tokenId][msg.sender] */\n      0xffffffffffffffffffffffffffffffffffffffff\n      and\n      0xffffffffffffffffffffffffffffffffffffffff\n      and\n      dup2\n      mstore\n      0x20\n      add\n      swap1\n      dup2\n      mstore\n      0x20\n      add\n      0x00\n      keccak256\n      0x00\n        /* \"Contract_Conqueror_Series/AdvancedERC1155RoyaltyAuctionAccess.sol\":6594:6634  _balances[tokenId][msg.sender] -= amount */\n      dup3\n      dup3\n      sload\n      tag_261\n      swap2\n      swap1\n      tag_173\n      jump\t// in\n    tag_261:\n      swap3\n      pop\n      pop\n      dup2\n      swap1\n      sstore\n      pop\n        /* \"Contract_Conqueror_Series/AdvancedERC1155RoyaltyAuctionAccess.sol\":6682:6688  amount */\n      dup3\n        /* \"Contract_Conqueror_Series/AdvancedERC1155RoyaltyAuctionAccess.sol\":6645:6654  _balances */\n      0x00\n        /* \"Contract_Conqueror_Series/AdvancedERC1155RoyaltyAuctionAccess.sol\":6645:6663  _balances[tokenId] */\n      0x00\n        /* \"Contract_Conqueror_Series/AdvancedERC1155RoyaltyAuctionAccess.sol\":6655:6662  tokenId */\n      dup7\n        /* \"Contract_Conqueror_Series/AdvancedERC1155RoyaltyAuctionAccess.sol\":6645:6663  _balances[tokenId] */\n      dup2\n      mstore\n      0x20\n      add\n      swap1\n      dup2\n      mstore\n      0x20\n      add\n      0x00\n      keccak256\n        /* \"Contract_Conqueror_Series/AdvancedERC1155RoyaltyAuctionAccess.sol\":6645:6678  _balances[tokenId][address(this)] */\n      0x00\n        /* \"Contract_Conqueror_Series/AdvancedERC1155RoyaltyAuctionAccess.sol\":6672:6676  this */\n      address\n        /* \"Contract_Conqueror_Series/AdvancedERC1155RoyaltyAuctionAccess.sol\":6645:6678  _balances[tokenId][address(this)] */\n      0xffffffffffffffffffffffffffffffffffffffff\n      and\n      0xffffffffffffffffffffffffffffffffffffffff\n      and\n      dup2\n      mstore\n      0x20\n      add\n      swap1\n      dup2\n      mstore\n      0x20\n      add\n      0x00\n      keccak256\n      0x00\n        /* \"Contract_Conqueror_Series/AdvancedERC1155RoyaltyAuctionAccess.sol\":6645:6688  _balances[tokenId][address(this)] += amount */\n      dup3\n      dup3\n      sload\n      tag_262\n      swap2\n      swap1\n      tag_175\n      jump\t// in\n    tag_262:\n      swap3\n      pop\n      pop\n      dup2\n      swap1\n      sstore\n      pop\n        /* \"Contract_Conqueror_Series/AdvancedERC1155RoyaltyAuctionAccess.sol\":6701:6713  auctionCount */\n      0x04\n      0x00\n        /* \"Contract_Conqueror_Series/AdvancedERC1155RoyaltyAuctionAccess.sol\":6701:6715  auctionCount++ */\n      dup2\n      sload\n      dup1\n      swap3\n      swap2\n      swap1\n      tag_263\n      swap1\n      tag_264\n      jump\t// in\n    tag_263:\n      swap2\n      swap1\n      pop\n      sstore\n      pop\n        /* \"Contract_Conqueror_Series/AdvancedERC1155RoyaltyAuctionAccess.sol\":6751:7009  Auction({... */\n      mload(0x40)\n      dup1\n      0xe0\n      add\n      0x40\n      mstore\n      dup1\n        /* \"Contract_Conqueror_Series/AdvancedERC1155RoyaltyAuctionAccess.sol\":6782:6792  msg.sender */\n      caller\n        /* \"Contract_Conqueror_Series/AdvancedERC1155RoyaltyAuctionAccess.sol\":6751:7009  Auction({... */\n      0xffffffffffffffffffffffffffffffffffffffff\n      and\n      dup2\n      mstore\n      0x20\n      add\n        /* \"Contract_Conqueror_Series/AdvancedERC1155RoyaltyAuctionAccess.sol\":6816:6823  tokenId */\n      dup6\n        /* \"Contract_Conqueror_Series/AdvancedERC1155RoyaltyAuctionAccess.sol\":6751:7009  Auction({... */\n      dup2\n      mstore\n      0x20\n      add\n        /* \"Contract_Conqueror_Series/AdvancedERC1155RoyaltyAuctionAccess.sol\":6846:6852  amount */\n      dup5\n        /* \"Contract_Conqueror_Series/AdvancedERC1155RoyaltyAuctionAccess.sol\":6751:7009  Auction({... */\n      dup2\n      mstore\n      0x20\n      add\n        /* \"Contract_Conqueror_Series/AdvancedERC1155RoyaltyAuctionAccess.sol\":6894:6902  duration */\n      dup4\n        /* \"Contract_Conqueror_Series/AdvancedERC1155RoyaltyAuctionAccess.sol\":6876:6891  block.timestamp */\n      timestamp\n        /* \"Contract_Conqueror_Series/AdvancedERC1155RoyaltyAuctionAccess.sol\":6876:6902  block.timestamp + duration */\n      tag_265\n      swap2\n      swap1\n      tag_175\n      jump\t// in\n    tag_265:\n        /* \"Contract_Conqueror_Series/AdvancedERC1155RoyaltyAuctionAccess.sol\":6751:7009  Auction({... */\n      dup2\n      mstore\n      0x20\n      add\n        /* \"Contract_Conqueror_Series/AdvancedERC1155RoyaltyAuctionAccess.sol\":6929:6930  0 */\n      0x00\n        /* \"Contract_Conqueror_Series/AdvancedERC1155RoyaltyAuctionAccess.sol\":6751:7009  Auction({... */\n      dup2\n      mstore\n      0x20\n      add\n        /* \"Contract_Conqueror_Series/AdvancedERC1155RoyaltyAuctionAccess.sol\":6968:6969  0 */\n      0x00\n        /* \"Contract_Conqueror_Series/AdvancedERC1155RoyaltyAuctionAccess.sol\":6751:7009  Auction({... */\n      0xffffffffffffffffffffffffffffffffffffffff\n      and\n      dup2\n      mstore\n      0x20\n      add\n        /* \"Contract_Conqueror_Series/AdvancedERC1155RoyaltyAuctionAccess.sol\":6992:6997  false */\n      0x00\n        /* \"Contract_Conqueror_Series/AdvancedERC1155RoyaltyAuctionAccess.sol\":6751:7009  Auction({... */\n      iszero\n      iszero\n      dup2\n      mstore\n      pop\n        /* \"Contract_Conqueror_Series/AdvancedERC1155RoyaltyAuctionAccess.sol\":6726:6734  auctions */\n      0x05\n        /* \"Contract_Conqueror_Series/AdvancedERC1155RoyaltyAuctionAccess.sol\":6726:6748  auctions[auctionCount] */\n      0x00\n        /* \"Contract_Conqueror_Series/AdvancedERC1155RoyaltyAuctionAccess.sol\":6735:6747  auctionCount */\n      sload(0x04)\n        /* \"Contract_Conqueror_Series/AdvancedERC1155RoyaltyAuctionAccess.sol\":6726:6748  auctions[auctionCount] */\n      dup2\n      mstore\n      0x20\n      add\n      swap1\n      dup2\n      mstore\n      0x20\n      add\n      0x00\n      keccak256\n        /* \"Contract_Conqueror_Series/AdvancedERC1155RoyaltyAuctionAccess.sol\":6726:7009  auctions[auctionCount] = Auction({... */\n      0x00\n      dup3\n      add\n      mload\n      dup2\n      0x00\n      add\n      exp(0x0100, 0x00)\n      dup2\n      sload\n      dup2\n      0xffffffffffffffffffffffffffffffffffffffff\n      mul\n      not\n      and\n      swap1\n      dup4\n      0xffffffffffffffffffffffffffffffffffffffff\n      and\n      mul\n      or\n      swap1\n      sstore\n      pop\n      0x20\n      dup3\n      add\n      mload\n      dup2\n      0x01\n      add\n      sstore\n      0x40\n      dup3\n      add\n      mload\n      dup2\n      0x02\n      add\n      sstore\n      0x60\n      dup3\n      add\n      mload\n      dup2\n      0x03\n      add\n      sstore\n      0x80\n      dup3\n      add\n      mload\n      dup2\n      0x04\n      add\n      sstore\n      0xa0\n      dup3\n      add\n      mload\n      dup2\n      0x05\n      add\n      exp(0x0100, 0x00)\n      dup2\n      sload\n      dup2\n      0xffffffffffffffffffffffffffffffffffffffff\n      mul\n      not\n      and\n      swap1\n      dup4\n      0xffffffffffffffffffffffffffffffffffffffff\n      and\n      mul\n      or\n      swap1\n      sstore\n      pop\n      0xc0\n      dup3\n      add\n      mload\n      dup2\n      0x05\n      add\n      exp(0x0100, 0x14)\n      dup2\n      sload\n      dup2\n      0xff\n      mul\n      not\n      and\n      swap1\n      dup4\n      iszero\n      iszero\n      mul\n      or\n      swap1\n      sstore\n      pop\n      swap1\n      pop\n      pop\n        /* \"Contract_Conqueror_Series/AdvancedERC1155RoyaltyAuctionAccess.sol\":7056:7066  msg.sender */\n      caller\n        /* \"Contract_Conqueror_Series/AdvancedERC1155RoyaltyAuctionAccess.sol\":7027:7104  AuctionCreated(auctionCount, msg.sender, tokenId, block.timestamp + duration) */\n      0xffffffffffffffffffffffffffffffffffffffff\n      and\n        /* \"Contract_Conqueror_Series/AdvancedERC1155RoyaltyAuctionAccess.sol\":7042:7054  auctionCount */\n      sload(0x04)\n        /* \"Contract_Conqueror_Series/AdvancedERC1155RoyaltyAuctionAccess.sol\":7027:7104  AuctionCreated(auctionCount, msg.sender, tokenId, block.timestamp + duration) */\n      0xc9050d42180a61cb0d9ebb8ad118b62fe6eab12cf12ff752c4a0cc7da9ddf627\n        /* \"Contract_Conqueror_Series/AdvancedERC1155RoyaltyAuctionAccess.sol\":7068:7075  tokenId */\n      dup7\n        /* \"Contract_Conqueror_Series/AdvancedERC1155RoyaltyAuctionAccess.sol\":7095:7103  duration */\n      dup6\n        /* \"Contract_Conqueror_Series/AdvancedERC1155RoyaltyAuctionAccess.sol\":7077:7092  block.timestamp */\n      timestamp\n        /* \"Contract_Conqueror_Series/AdvancedERC1155RoyaltyAuctionAccess.sol\":7077:7103  block.timestamp + duration */\n      tag_266\n      swap2\n      swap1\n      tag_175\n      jump\t// in\n    tag_266:\n        /* \"Contract_Conqueror_Series/AdvancedERC1155RoyaltyAuctionAccess.sol\":7027:7104  AuctionCreated(auctionCount, msg.sender, tokenId, block.timestamp + duration) */\n      mload(0x40)\n      tag_267\n      swap3\n      swap2\n      swap1\n      tag_177\n      jump\t// in\n    tag_267:\n      mload(0x40)\n      dup1\n      swap2\n      sub\n      swap1\n      log3\n        /* \"Contract_Conqueror_Series/AdvancedERC1155RoyaltyAuctionAccess.sol\":7122:7134  auctionCount */\n      sload(0x04)\n        /* \"Contract_Conqueror_Series/AdvancedERC1155RoyaltyAuctionAccess.sol\":7115:7134  return auctionCount */\n      swap1\n      pop\n        /* \"Contract_Conqueror_Series/AdvancedERC1155RoyaltyAuctionAccess.sol\":6339:7142  function createAuction(uint256 tokenId, uint256 amount, uint256 duration) external whenNotPaused returns (uint256) {... */\n      swap4\n      swap3\n      pop\n      pop\n      pop\n      jump\t// out\n        /* \"Contract_Conqueror_Series/AdvancedERC1155RoyaltyAuctionAccess.sol\":3267:3420  function isApprovedForAll(address account, address operator) external view returns (bool) {... */\n    tag_123:\n        /* \"Contract_Conqueror_Series/AdvancedERC1155RoyaltyAuctionAccess.sol\":3351:3355  bool */\n      0x00\n        /* \"Contract_Conqueror_Series/AdvancedERC1155RoyaltyAuctionAccess.sol\":3375:3393  _operatorApprovals */\n      0x01\n        /* \"Contract_Conqueror_Series/AdvancedERC1155RoyaltyAuctionAccess.sol\":3375:3402  _operatorApprovals[account] */\n      0x00\n        /* \"Contract_Conqueror_Series/AdvancedERC1155RoyaltyAuctionAccess.sol\":3394:3401  account */\n      dup5\n        /* \"Contract_Conqueror_Series/AdvancedERC1155RoyaltyAuctionAccess.sol\":3375:3402  _operatorApprovals[account] */\n      0xffffffffffffffffffffffffffffffffffffffff\n      and\n      0xffffffffffffffffffffffffffffffffffffffff\n      and\n      dup2\n      mstore\n      0x20\n      add\n      swap1\n      dup2\n      mstore\n      0x20\n      add\n      0x00\n      keccak256\n        /* \"Contract_Conqueror_Series/AdvancedERC1155RoyaltyAuctionAccess.sol\":3375:3412  _operatorApprovals[account][operator] */\n      0x00\n        /* \"Contract_Conqueror_Series/AdvancedERC1155RoyaltyAuctionAccess.sol\":3403:3411  operator */\n      dup4\n        /* \"Contract_Conqueror_Series/AdvancedERC1155RoyaltyAuctionAccess.sol\":3375:3412  _operatorApprovals[account][operator] */\n      0xffffffffffffffffffffffffffffffffffffffff\n      and\n      0xffffffffffffffffffffffffffffffffffffffff\n      and\n      dup2\n      mstore\n      0x20\n      add\n      swap1\n      dup2\n      mstore\n      0x20\n      add\n      0x00\n      keccak256\n      0x00\n      swap1\n      sload\n      swap1\n      0x0100\n      exp\n      swap1\n      div\n      0xff\n      and\n        /* \"Contract_Conqueror_Series/AdvancedERC1155RoyaltyAuctionAccess.sol\":3368:3412  return _operatorApprovals[account][operator] */\n      swap1\n      pop\n        /* \"Contract_Conqueror_Series/AdvancedERC1155RoyaltyAuctionAccess.sol\":3267:3420  function isApprovedForAll(address account, address operator) external view returns (bool) {... */\n      swap3\n      swap2\n      pop\n      pop\n      jump\t// out\n        /* \"Contract_Conqueror_Series/AdvancedERC1155RoyaltyAuctionAccess.sol\":3904:4563  function safeBatchTransferFrom(address from, address to, uint256[] calldata ids, uint256[] calldata amounts) external whenNotPaused {... */\n    tag_129:\n        /* \"Contract_Conqueror_Series/AdvancedERC1155RoyaltyAuctionAccess.sol\":1350:1356  paused */\n      0x07\n      0x14\n      swap1\n      sload\n      swap1\n      0x0100\n      exp\n      swap1\n      div\n      0xff\n      and\n        /* \"Contract_Conqueror_Series/AdvancedERC1155RoyaltyAuctionAccess.sol\":1349:1356  !paused */\n      iszero\n        /* \"Contract_Conqueror_Series/AdvancedERC1155RoyaltyAuctionAccess.sol\":1341:1367  require(!paused, \"Paused\") */\n      tag_270\n      jumpi\n      mload(0x40)\n      0x08c379a000000000000000000000000000000000000000000000000000000000\n      dup2\n      mstore\n      0x04\n      add\n      tag_271\n      swap1\n      tag_151\n      jump\t// in\n    tag_271:\n      mload(0x40)\n      dup1\n      swap2\n      sub\n      swap1\n      revert\n    tag_270:\n        /* \"Contract_Conqueror_Series/AdvancedERC1155RoyaltyAuctionAccess.sol\":4063:4073  msg.sender */\n      caller\n        /* \"Contract_Conqueror_Series/AdvancedERC1155RoyaltyAuctionAccess.sol\":4055:4073  from == msg.sender */\n      0xffffffffffffffffffffffffffffffffffffffff\n      and\n        /* \"Contract_Conqueror_Series/AdvancedERC1155RoyaltyAuctionAccess.sol\":4055:4059  from */\n      dup7\n        /* \"Contract_Conqueror_Series/AdvancedERC1155RoyaltyAuctionAccess.sol\":4055:4073  from == msg.sender */\n      0xffffffffffffffffffffffffffffffffffffffff\n      and\n      eq\n        /* \"Contract_Conqueror_Series/AdvancedERC1155RoyaltyAuctionAccess.sol\":4055:4113  from == msg.sender || _operatorApprovals[from][msg.sender] */\n      dup1\n      tag_273\n      jumpi\n      pop\n        /* \"Contract_Conqueror_Series/AdvancedERC1155RoyaltyAuctionAccess.sol\":4077:4095  _operatorApprovals */\n      0x01\n        /* \"Contract_Conqueror_Series/AdvancedERC1155RoyaltyAuctionAccess.sol\":4077:4101  _operatorApprovals[from] */\n      0x00\n        /* \"Contract_Conqueror_Series/AdvancedERC1155RoyaltyAuctionAccess.sol\":4096:4100  from */\n      dup8\n        /* \"Contract_Conqueror_Series/AdvancedERC1155RoyaltyAuctionAccess.sol\":4077:4101  _operatorApprovals[from] */\n      0xffffffffffffffffffffffffffffffffffffffff\n      and\n      0xffffffffffffffffffffffffffffffffffffffff\n      and\n      dup2\n      mstore\n      0x20\n      add\n      swap1\n      dup2\n      mstore\n      0x20\n      add\n      0x00\n      keccak256\n        /* \"Contract_Conqueror_Series/AdvancedERC1155RoyaltyAuctionAccess.sol\":4077:4113  _operatorApprovals[from][msg.sender] */\n      0x00\n        /* \"Contract_Conqueror_Series/AdvancedERC1155RoyaltyAuctionAccess.sol\":4102:4112  msg.sender */\n      caller\n        /* \"Contract_Conqueror_Series/AdvancedERC1155RoyaltyAuctionAccess.sol\":4077:4113  _operatorApprovals[from][msg.sender] */\n      0xffffffffffffffffffffffffffffffffffffffff\n      and\n      0xffffffffffffffffffffffffffffffffffffffff\n      and\n      dup2\n      mstore\n      0x20\n      add\n      swap1\n      dup2\n      mstore\n      0x20\n      add\n      0x00\n      keccak256\n      0x00\n      swap1\n      sload\n      swap1\n      0x0100\n      exp\n      swap1\n      div\n      0xff\n      and\n        /* \"Contract_Conqueror_Series/AdvancedERC1155RoyaltyAuctionAccess.sol\":4055:4113  from == msg.sender || _operatorApprovals[from][msg.sender] */\n    tag_273:\n        /* \"Contract_Conqueror_Series/AdvancedERC1155RoyaltyAuctionAccess.sol\":4047:4130  require(from == msg.sender || _operatorApprovals[from][msg.sender], \"Not approved\") */\n      tag_274\n      jumpi\n      mload(0x40)\n      0x08c379a000000000000000000000000000000000000000000000000000000000\n      dup2\n      mstore\n      0x04\n      add\n      tag_275\n      swap1\n      tag_166\n      jump\t// in\n    tag_275:\n      mload(0x40)\n      dup1\n      swap2\n      sub\n      swap1\n      revert\n    tag_274:\n        /* \"Contract_Conqueror_Series/AdvancedERC1155RoyaltyAuctionAccess.sol\":4163:4164  0 */\n      0x00\n        /* \"Contract_Conqueror_Series/AdvancedERC1155RoyaltyAuctionAccess.sol\":4149:4165  to != address(0) */\n      0xffffffffffffffffffffffffffffffffffffffff\n      and\n        /* \"Contract_Conqueror_Series/AdvancedERC1155RoyaltyAuctionAccess.sol\":4149:4151  to */\n      dup6\n        /* \"Contract_Conqueror_Series/AdvancedERC1155RoyaltyAuctionAccess.sol\":4149:4165  to != address(0) */\n      0xffffffffffffffffffffffffffffffffffffffff\n      and\n      sub\n        /* \"Contract_Conqueror_Series/AdvancedERC1155RoyaltyAuctionAccess.sol\":4141:4182  require(to != address(0), \"Zero address\") */\n      tag_276\n      jumpi\n      mload(0x40)\n      0x08c379a000000000000000000000000000000000000000000000000000000000\n      dup2\n      mstore\n      0x04\n      add\n      tag_277\n      swap1\n      tag_138\n      jump\t// in\n    tag_277:\n      mload(0x40)\n      dup1\n      swap2\n      sub\n      swap1\n      revert\n    tag_276:\n        /* \"Contract_Conqueror_Series/AdvancedERC1155RoyaltyAuctionAccess.sol\":4215:4222  amounts */\n      dup2\n      dup2\n        /* \"Contract_Conqueror_Series/AdvancedERC1155RoyaltyAuctionAccess.sol\":4215:4229  amounts.length */\n      swap1\n      pop\n        /* \"Contract_Conqueror_Series/AdvancedERC1155RoyaltyAuctionAccess.sol\":4201:4204  ids */\n      dup5\n      dup5\n        /* \"Contract_Conqueror_Series/AdvancedERC1155RoyaltyAuctionAccess.sol\":4201:4211  ids.length */\n      swap1\n      pop\n        /* \"Contract_Conqueror_Series/AdvancedERC1155RoyaltyAuctionAccess.sol\":4201:4229  ids.length == amounts.length */\n      eq\n        /* \"Contract_Conqueror_Series/AdvancedERC1155RoyaltyAuctionAccess.sol\":4193:4244  require(ids.length == amounts.length, \"Mismatched\") */\n      tag_278\n      jumpi\n      mload(0x40)\n      0x08c379a000000000000000000000000000000000000000000000000000000000\n      dup2\n      mstore\n      0x04\n      add\n      tag_279\n      swap1\n      tag_205\n      jump\t// in\n    tag_279:\n      mload(0x40)\n      dup1\n      swap2\n      sub\n      swap1\n      revert\n    tag_278:\n        /* \"Contract_Conqueror_Series/AdvancedERC1155RoyaltyAuctionAccess.sol\":4262:4271  uint256 i */\n      0x00\n        /* \"Contract_Conqueror_Series/AdvancedERC1155RoyaltyAuctionAccess.sol\":4274:4275  0 */\n      0x00\n        /* \"Contract_Conqueror_Series/AdvancedERC1155RoyaltyAuctionAccess.sol\":4262:4275  uint256 i = 0 */\n      swap1\n      pop\n        /* \"Contract_Conqueror_Series/AdvancedERC1155RoyaltyAuctionAccess.sol\":4257:4489  for (uint256 i = 0; i < ids.length; i++) {... */\n    tag_280:\n        /* \"Contract_Conqueror_Series/AdvancedERC1155RoyaltyAuctionAccess.sol\":4281:4284  ids */\n      dup5\n      dup5\n        /* \"Contract_Conqueror_Series/AdvancedERC1155RoyaltyAuctionAccess.sol\":4281:4291  ids.length */\n      swap1\n      pop\n        /* \"Contract_Conqueror_Series/AdvancedERC1155RoyaltyAuctionAccess.sol\":4277:4278  i */\n      dup2\n        /* \"Contract_Conqueror_Series/AdvancedERC1155RoyaltyAuctionAccess.sol\":4277:4291  i < ids.length */\n      lt\n        /* \"Contract_Conqueror_Series/AdvancedERC1155RoyaltyAuctionAccess.sol\":4257:4489  for (uint256 i = 0; i < ids.length; i++) {... */\n      iszero\n      tag_281\n      jumpi\n        /* \"Contract_Conqueror_Series/AdvancedERC1155RoyaltyAuctionAccess.sol\":4348:4355  amounts */\n      dup3\n      dup3\n        /* \"Contract_Conqueror_Series/AdvancedERC1155RoyaltyAuctionAccess.sol\":4356:4357  i */\n      dup3\n        /* \"Contract_Conqueror_Series/AdvancedERC1155RoyaltyAuctionAccess.sol\":4348:4358  amounts[i] */\n      dup2\n      dup2\n      lt\n      tag_283\n      jumpi\n      tag_284\n      tag_215\n      jump\t// in\n    tag_284:\n    tag_283:\n      swap1\n      pop\n      0x20\n      mul\n      add\n      calldataload\n        /* \"Contract_Conqueror_Series/AdvancedERC1155RoyaltyAuctionAccess.sol\":4321:4330  _balances */\n      0x00\n        /* \"Contract_Conqueror_Series/AdvancedERC1155RoyaltyAuctionAccess.sol\":4321:4338  _balances[ids[i]] */\n      0x00\n        /* \"Contract_Conqueror_Series/AdvancedERC1155RoyaltyAuctionAccess.sol\":4331:4334  ids */\n      dup8\n      dup8\n        /* \"Contract_Conqueror_Series/AdvancedERC1155RoyaltyAuctionAccess.sol\":4335:4336  i */\n      dup6\n        /* \"Contract_Conqueror_Series/AdvancedERC1155RoyaltyAuctionAccess.sol\":4331:4337  ids[i] */\n      dup2\n      dup2\n      lt\n      tag_285\n      jumpi\n      tag_286\n      tag_215\n      jump\t// in\n    tag_286:\n    tag_285:\n      swap1\n      pop\n      0x20\n      mul\n      add\n      calldataload\n        /* \"Contract_Conqueror_Series/AdvancedERC1155RoyaltyAuctionAccess.sol\":4321:4338  _balances[ids[i]] */\n      dup2\n      mstore\n      0x20\n      add\n      swap1\n      dup2\n      mstore\n      0x20\n      add\n      0x00\n      keccak256\n        /* \"Contract_Conqueror_Series/AdvancedERC1155RoyaltyAuctionAccess.sol\":4321:4344  _balances[ids[i]][from] */\n      0x00\n        /* \"Contract_Conqueror_Series/AdvancedERC1155RoyaltyAuctionAccess.sol\":4339:4343  from */\n      dup10\n        /* \"Contract_Conqueror_Series/AdvancedERC1155RoyaltyAuctionAccess.sol\":4321:4344  _balances[ids[i]][from] */\n      0xffffffffffffffffffffffffffffffffffffffff\n      and\n      0xffffffffffffffffffffffffffffffffffffffff\n      and\n      dup2\n      mstore\n      0x20\n      add\n      swap1\n      dup2\n      mstore\n      0x20\n      add\n      0x00\n      keccak256\n      sload\n        /* \"Contract_Conqueror_Series/AdvancedERC1155RoyaltyAuctionAccess.sol\":4321:4358  _balances[ids[i]][from] >= amounts[i] */\n      lt\n      iszero\n        /* \"Contract_Conqueror_Series/AdvancedERC1155RoyaltyAuctionAccess.sol\":4313:4375  require(_balances[ids[i]][from] >= amounts[i], \"Insufficient\") */\n      tag_287\n      jumpi\n      mload(0x40)\n      0x08c379a000000000000000000000000000000000000000000000000000000000\n      dup2\n      mstore\n      0x04\n      add\n      tag_288\n      swap1\n      tag_171\n      jump\t// in\n    tag_288:\n      mload(0x40)\n      dup1\n      swap2\n      sub\n      swap1\n      revert\n    tag_287:\n        /* \"Contract_Conqueror_Series/AdvancedERC1155RoyaltyAuctionAccess.sol\":4417:4424  amounts */\n      dup3\n      dup3\n        /* \"Contract_Conqueror_Series/AdvancedERC1155RoyaltyAuctionAccess.sol\":4425:4426  i */\n      dup3\n        /* \"Contract_Conqueror_Series/AdvancedERC1155RoyaltyAuctionAccess.sol\":4417:4427  amounts[i] */\n      dup2\n      dup2\n      lt\n      tag_289\n      jumpi\n      tag_290\n      tag_215\n      jump\t// in\n    tag_290:\n    tag_289:\n      swap1\n      pop\n      0x20\n      mul\n      add\n      calldataload\n        /* \"Contract_Conqueror_Series/AdvancedERC1155RoyaltyAuctionAccess.sol\":4390:4399  _balances */\n      0x00\n        /* \"Contract_Conqueror_Series/AdvancedERC1155RoyaltyAuctionAccess.sol\":4390:4407  _balances[ids[i]] */\n      0x00\n        /* \"Contract_Conqueror_Series/AdvancedERC1155RoyaltyAuctionAccess.sol\":4400:4403  ids */\n      dup8\n      dup8\n        /* \"Contract_Conqueror_Series/AdvancedERC1155RoyaltyAuctionAccess.sol\":4404:4405  i */\n      dup6\n        /* \"Contract_Conqueror_Series/AdvancedERC1155RoyaltyAuctionAccess.sol\":4400:4406  ids[i] */\n      dup2\n      dup2\n      lt\n      tag_291\n      jumpi\n      tag_292\n      tag_215\n      jump\t// in\n    tag_292:\n    tag_291:\n      swap1\n      pop\n      0x20\n      mul\n      add\n      calldataload\n        /* \"Contract_Conqueror_Series/AdvancedERC1155RoyaltyAuctionAccess.sol\":4390:4407  _balances[ids[i]] */\n      dup2\n      mstore\n      0x20\n      add\n      swap1\n      dup2\n      mstore\n      0x20\n      add\n      0x00\n      keccak256\n        /* \"Contract_Conqueror_Series/AdvancedERC1155RoyaltyAuctionAccess.sol\":4390:4413  _balances[ids[i]][from] */\n      0x00\n        /* \"Contract_Conqueror_Series/AdvancedERC1155RoyaltyAuctionAccess.sol\":4408:4412  from */\n      dup10\n        /* \"Contract_Conqueror_Series/AdvancedERC1155RoyaltyAuctionAccess.sol\":4390:4413  _balances[ids[i]][from] */\n      0xffffffffffffffffffffffffffffffffffffffff\n      and\n      0xffffffffffffffffffffffffffffffffffffffff\n      and\n      dup2\n      mstore\n      0x20\n      add\n      swap1\n      dup2\n      mstore\n      0x20\n      add\n      0x00\n      keccak256\n      0x00\n        /* \"Contract_Conqueror_Series/AdvancedERC1155RoyaltyAuctionAccess.sol\":4390:4427  _balances[ids[i]][from] -= amounts[i] */\n      dup3\n      dup3\n      sload\n      tag_293\n      swap2\n      swap1\n      tag_173\n      jump\t// in\n    tag_293:\n      swap3\n      pop\n      pop\n      dup2\n      swap1\n      sstore\n      pop\n        /* \"Contract_Conqueror_Series/AdvancedERC1155RoyaltyAuctionAccess.sol\":4467:4474  amounts */\n      dup3\n      dup3\n        /* \"Contract_Conqueror_Series/AdvancedERC1155RoyaltyAuctionAccess.sol\":4475:4476  i */\n      dup3\n        /* \"Contract_Conqueror_Series/AdvancedERC1155RoyaltyAuctionAccess.sol\":4467:4477  amounts[i] */\n      dup2\n      dup2\n      lt\n      tag_294\n      jumpi\n      tag_295\n      tag_215\n      jump\t// in\n    tag_295:\n    tag_294:\n      swap1\n      pop\n      0x20\n      mul\n      add\n      calldataload\n        /* \"Contract_Conqueror_Series/AdvancedERC1155RoyaltyAuctionAccess.sol\":4442:4451  _balances */\n      0x00\n        /* \"Contract_Conqueror_Series/AdvancedERC1155RoyaltyAuctionAccess.sol\":4442:4459  _balances[ids[i]] */\n      0x00\n        /* \"Contract_Conqueror_Series/AdvancedERC1155RoyaltyAuctionAccess.sol\":4452:4455  ids */\n      dup8\n      dup8\n        /* \"Contract_Conqueror_Series/AdvancedERC1155RoyaltyAuctionAccess.sol\":4456:4457  i */\n      dup6\n        /* \"Contract_Conqueror_Series/AdvancedERC1155RoyaltyAuctionAccess.sol\":4452:4458  ids[i] */\n      dup2\n      dup2\n      lt\n      tag_296\n      jumpi\n      tag_297\n      tag_215\n      jump\t// in\n    tag_297:\n    tag_296:\n      swap1\n      pop\n      0x20\n      mul\n      add\n      calldataload\n        /* \"Contract_Conqueror_Series/AdvancedERC1155RoyaltyAuctionAccess.sol\":4442:4459  _balances[ids[i]] */\n      dup2\n      mstore\n      0x20\n      add\n      swap1\n      dup2\n      mstore\n      0x20\n      add\n      0x00\n      keccak256\n        /* \"Contract_Conqueror_Series/AdvancedERC1155RoyaltyAuctionAccess.sol\":4442:4463  _balances[ids[i]][to] */\n      0x00\n        /* \"Contract_Conqueror_Series/AdvancedERC1155RoyaltyAuctionAccess.sol\":4460:4462  to */\n      dup9\n        /* \"Contract_Conqueror_Series/AdvancedERC1155RoyaltyAuctionAccess.sol\":4442:4463  _balances[ids[i]][to] */\n      0xffffffffffffffffffffffffffffffffffffffff\n      and\n      0xffffffffffffffffffffffffffffffffffffffff\n      and\n      dup2\n      mstore\n      0x20\n      add\n      swap1\n      dup2\n      mstore\n      0x20\n      add\n      0x00\n      keccak256\n      0x00\n        /* \"Contract_Conqueror_Series/AdvancedERC1155RoyaltyAuctionAccess.sol\":4442:4477  _balances[ids[i]][to] += amounts[i] */\n      dup3\n      dup3\n      sload\n      tag_298\n      swap2\n      swap1\n      tag_175\n      jump\t// in\n    tag_298:\n      swap3\n      pop\n      pop\n      dup2\n      swap1\n      sstore\n      pop\n        /* \"Contract_Conqueror_Series/AdvancedERC1155RoyaltyAuctionAccess.sol\":4293:4296  i++ */\n      dup1\n      dup1\n      0x01\n      add\n      swap2\n      pop\n      pop\n        /* \"Contract_Conqueror_Series/AdvancedERC1155RoyaltyAuctionAccess.sol\":4257:4489  for (uint256 i = 0; i < ids.length; i++) {... */\n      jump(tag_280)\n    tag_281:\n      pop\n        /* \"Contract_Conqueror_Series/AdvancedERC1155RoyaltyAuctionAccess.sol\":4538:4540  to */\n      dup5\n        /* \"Contract_Conqueror_Series/AdvancedERC1155RoyaltyAuctionAccess.sol\":4506:4555  TransferBatch(msg.sender, from, to, ids, amounts) */\n      0xffffffffffffffffffffffffffffffffffffffff\n      and\n        /* \"Contract_Conqueror_Series/AdvancedERC1155RoyaltyAuctionAccess.sol\":4532:4536  from */\n      dup7\n        /* \"Contract_Conqueror_Series/AdvancedERC1155RoyaltyAuctionAccess.sol\":4506:4555  TransferBatch(msg.sender, from, to, ids, amounts) */\n      0xffffffffffffffffffffffffffffffffffffffff\n      and\n        /* \"Contract_Conqueror_Series/AdvancedERC1155RoyaltyAuctionAccess.sol\":4520:4530  msg.sender */\n      caller\n        /* \"Contract_Conqueror_Series/AdvancedERC1155RoyaltyAuctionAccess.sol\":4506:4555  TransferBatch(msg.sender, from, to, ids, amounts) */\n      0xffffffffffffffffffffffffffffffffffffffff\n      and\n      0x4a39dc06d4c0dbc64b70af90fd698a233a518aa5d07e595d983b8c0526c8f7fb\n        /* \"Contract_Conqueror_Series/AdvancedERC1155RoyaltyAuctionAccess.sol\":4542:4545  ids */\n      dup8\n      dup8\n        /* \"Contract_Conqueror_Series/AdvancedERC1155RoyaltyAuctionAccess.sol\":4547:4554  amounts */\n      dup8\n      dup8\n        /* \"Contract_Conqueror_Series/AdvancedERC1155RoyaltyAuctionAccess.sol\":4506:4555  TransferBatch(msg.sender, from, to, ids, amounts) */\n      mload(0x40)\n      tag_299\n      swap5\n      swap4\n      swap3\n      swap2\n      swap1\n      tag_300\n      jump\t// in\n    tag_299:\n      mload(0x40)\n      dup1\n      swap2\n      sub\n      swap1\n      log4\n        /* \"Contract_Conqueror_Series/AdvancedERC1155RoyaltyAuctionAccess.sol\":3904:4563  function safeBatchTransferFrom(address from, address to, uint256[] calldata ids, uint256[] calldata amounts) external whenNotPaused {... */\n      pop\n      pop\n      pop\n      pop\n      pop\n      pop\n      jump\t// out\n        /* \"Contract_Conqueror_Series/AdvancedERC1155RoyaltyAuctionAccess.sol\":4875:5571  function mint(... */\n    tag_134:\n        /* \"Contract_Conqueror_Series/AdvancedERC1155RoyaltyAuctionAccess.sol\":1258:1263  owner */\n      0x07\n      0x00\n      swap1\n      sload\n      swap1\n      0x0100\n      exp\n      swap1\n      div\n      0xffffffffffffffffffffffffffffffffffffffff\n      and\n        /* \"Contract_Conqueror_Series/AdvancedERC1155RoyaltyAuctionAccess.sol\":1244:1263  msg.sender == owner */\n      0xffffffffffffffffffffffffffffffffffffffff\n      and\n        /* \"Contract_Conqueror_Series/AdvancedERC1155RoyaltyAuctionAccess.sol\":1244:1254  msg.sender */\n      caller\n        /* \"Contract_Conqueror_Series/AdvancedERC1155RoyaltyAuctionAccess.sol\":1244:1263  msg.sender == owner */\n      0xffffffffffffffffffffffffffffffffffffffff\n      and\n      eq\n        /* \"Contract_Conqueror_Series/AdvancedERC1155RoyaltyAuctionAccess.sol\":1236:1277  require(msg.sender == owner, \"Not owner\") */\n      tag_302\n      jumpi\n      mload(0x40)\n      0x08c379a000000000000000000000000000000000000000000000000000000000\n      dup2\n      mstore\n      0x04\n      add\n      tag_303\n      swap1\n      tag_186\n      jump\t// in\n    tag_303:\n      mload(0x40)\n      dup1\n      swap2\n      sub\n      swap1\n      revert\n    tag_302:\n        /* \"Contract_Conqueror_Series/AdvancedERC1155RoyaltyAuctionAccess.sol\":1350:1356  paused */\n      0x07\n      0x14\n      swap1\n      sload\n      swap1\n      0x0100\n      exp\n      swap1\n      div\n      0xff\n      and\n        /* \"Contract_Conqueror_Series/AdvancedERC1155RoyaltyAuctionAccess.sol\":1349:1356  !paused */\n      iszero\n        /* \"Contract_Conqueror_Series/AdvancedERC1155RoyaltyAuctionAccess.sol\":1341:1367  require(!paused, \"Paused\") */\n      tag_305\n      jumpi\n      mload(0x40)\n      0x08c379a000000000000000000000000000000000000000000000000000000000\n      dup2\n      mstore\n      0x04\n      add\n      tag_306\n      swap1\n      tag_151\n      jump\t// in\n    tag_306:\n      mload(0x40)\n      dup1\n      swap2\n      sub\n      swap1\n      revert\n    tag_305:\n        /* \"Contract_Conqueror_Series/AdvancedERC1155RoyaltyAuctionAccess.sol\":5120:5121  0 */\n      0x00\n        /* \"Contract_Conqueror_Series/AdvancedERC1155RoyaltyAuctionAccess.sol\":5106:5122  to != address(0) */\n      0xffffffffffffffffffffffffffffffffffffffff\n      and\n        /* \"Contract_Conqueror_Series/AdvancedERC1155RoyaltyAuctionAccess.sol\":5106:5108  to */\n      dup7\n        /* \"Contract_Conqueror_Series/AdvancedERC1155RoyaltyAuctionAccess.sol\":5106:5122  to != address(0) */\n      0xffffffffffffffffffffffffffffffffffffffff\n      and\n      sub\n        /* \"Contract_Conqueror_Series/AdvancedERC1155RoyaltyAuctionAccess.sol\":5098:5139  require(to != address(0), \"Zero address\") */\n      tag_308\n      jumpi\n      mload(0x40)\n      0x08c379a000000000000000000000000000000000000000000000000000000000\n      dup2\n      mstore\n      0x04\n      add\n      tag_309\n      swap1\n      tag_138\n      jump\t// in\n    tag_309:\n      mload(0x40)\n      dup1\n      swap2\n      sub\n      swap1\n      revert\n    tag_308:\n        /* \"Contract_Conqueror_Series/AdvancedERC1155RoyaltyAuctionAccess.sol\":5172:5177  10000 */\n      0x2710\n        /* \"Contract_Conqueror_Series/AdvancedERC1155RoyaltyAuctionAccess.sol\":5158:5168  royaltyFee */\n      dup2\n        /* \"Contract_Conqueror_Series/AdvancedERC1155RoyaltyAuctionAccess.sol\":5158:5177  royaltyFee <= 10000 */\n      0xffffffffffffffffffffffff\n      and\n      gt\n      iszero\n        /* \"Contract_Conqueror_Series/AdvancedERC1155RoyaltyAuctionAccess.sol\":5150:5190  require(royaltyFee <= 10000, \"Too high\") */\n      tag_310\n      jumpi\n      mload(0x40)\n      0x08c379a000000000000000000000000000000000000000000000000000000000\n      dup2\n      mstore\n      0x04\n      add\n      tag_311\n      swap1\n      tag_312\n      jump\t// in\n    tag_311:\n      mload(0x40)\n      dup1\n      swap2\n      sub\n      swap1\n      revert\n    tag_310:\n        /* \"Contract_Conqueror_Series/AdvancedERC1155RoyaltyAuctionAccess.sol\":5224:5230  amount */\n      dup4\n        /* \"Contract_Conqueror_Series/AdvancedERC1155RoyaltyAuctionAccess.sol\":5203:5212  _balances */\n      0x00\n        /* \"Contract_Conqueror_Series/AdvancedERC1155RoyaltyAuctionAccess.sol\":5203:5216  _balances[id] */\n      0x00\n        /* \"Contract_Conqueror_Series/AdvancedERC1155RoyaltyAuctionAccess.sol\":5213:5215  id */\n      dup8\n        /* \"Contract_Conqueror_Series/AdvancedERC1155RoyaltyAuctionAccess.sol\":5203:5216  _balances[id] */\n      dup2\n      mstore\n      0x20\n      add\n      swap1\n      dup2\n      mstore\n      0x20\n      add\n      0x00\n      keccak256\n        /* \"Contract_Conqueror_Series/AdvancedERC1155RoyaltyAuctionAccess.sol\":5203:5220  _balances[id][to] */\n      0x00\n        /* \"Contract_Conqueror_Series/AdvancedERC1155RoyaltyAuctionAccess.sol\":5217:5219  to */\n      dup9\n        /* \"Contract_Conqueror_Series/AdvancedERC1155RoyaltyAuctionAccess.sol\":5203:5220  _balances[id][to] */\n      0xffffffffffffffffffffffffffffffffffffffff\n      and\n      0xffffffffffffffffffffffffffffffffffffffff\n      and\n      dup2\n      mstore\n      0x20\n      add\n      swap1\n      dup2\n      mstore\n      0x20\n      add\n      0x00\n      keccak256\n      0x00\n        /* \"Contract_Conqueror_Series/AdvancedERC1155RoyaltyAuctionAccess.sol\":5203:5230  _balances[id][to] += amount */\n      dup3\n      dup3\n      sload\n      tag_313\n      swap2\n      swap1\n      tag_175\n      jump\t// in\n    tag_313:\n      swap3\n      pop\n      pop\n      dup2\n      swap1\n      sstore\n      pop\n        /* \"Contract_Conqueror_Series/AdvancedERC1155RoyaltyAuctionAccess.sol\":5274:5275  0 */\n      0x00\n        /* \"Contract_Conqueror_Series/AdvancedERC1155RoyaltyAuctionAccess.sol\":5253:5258  _uris */\n      0x02\n        /* \"Contract_Conqueror_Series/AdvancedERC1155RoyaltyAuctionAccess.sol\":5253:5262  _uris[id] */\n      0x00\n        /* \"Contract_Conqueror_Series/AdvancedERC1155RoyaltyAuctionAccess.sol\":5259:5261  id */\n      dup8\n        /* \"Contract_Conqueror_Series/AdvancedERC1155RoyaltyAuctionAccess.sol\":5253:5262  _uris[id] */\n      dup2\n      mstore\n      0x20\n      add\n      swap1\n      dup2\n      mstore\n      0x20\n      add\n      0x00\n      keccak256\n        /* \"Contract_Conqueror_Series/AdvancedERC1155RoyaltyAuctionAccess.sol\":5247:5270  bytes(_uris[id]).length */\n      dup1\n      sload\n      tag_314\n      swap1\n      tag_143\n      jump\t// in\n    tag_314:\n      swap1\n      pop\n        /* \"Contract_Conqueror_Series/AdvancedERC1155RoyaltyAuctionAccess.sol\":5247:5275  bytes(_uris[id]).length == 0 */\n      sub\n        /* \"Contract_Conqueror_Series/AdvancedERC1155RoyaltyAuctionAccess.sol\":5243:5353  if (bytes(_uris[id]).length == 0) {... */\n      tag_315\n      jumpi\n        /* \"Contract_Conqueror_Series/AdvancedERC1155RoyaltyAuctionAccess.sol\":5304:5308  uri_ */\n      dup3\n        /* \"Contract_Conqueror_Series/AdvancedERC1155RoyaltyAuctionAccess.sol\":5292:5297  _uris */\n      0x02\n        /* \"Contract_Conqueror_Series/AdvancedERC1155RoyaltyAuctionAccess.sol\":5292:5301  _uris[id] */\n      0x00\n        /* \"Contract_Conqueror_Series/AdvancedERC1155RoyaltyAuctionAccess.sol\":5298:5300  id */\n      dup8\n        /* \"Contract_Conqueror_Series/AdvancedERC1155RoyaltyAuctionAccess.sol\":5292:5301  _uris[id] */\n      dup2\n      mstore\n      0x20\n      add\n      swap1\n      dup2\n      mstore\n      0x20\n      add\n      0x00\n      keccak256\n        /* \"Contract_Conqueror_Series/AdvancedERC1155RoyaltyAuctionAccess.sol\":5292:5308  _uris[id] = uri_ */\n      swap1\n      dup2\n      tag_316\n      swap2\n      swap1\n      tag_317\n      jump\t// in\n    tag_316:\n      pop\n        /* \"Contract_Conqueror_Series/AdvancedERC1155RoyaltyAuctionAccess.sol\":5338:5340  id */\n      dup5\n        /* \"Contract_Conqueror_Series/AdvancedERC1155RoyaltyAuctionAccess.sol\":5328:5341  URI(uri_, id) */\n      0x6bb7ff708619ba0610cba295a58592e0451dee2622938c8755667688daf3529b\n        /* \"Contract_Conqueror_Series/AdvancedERC1155RoyaltyAuctionAccess.sol\":5332:5336  uri_ */\n      dup5\n        /* \"Contract_Conqueror_Series/AdvancedERC1155RoyaltyAuctionAccess.sol\":5328:5341  URI(uri_, id) */\n      mload(0x40)\n      tag_318\n      swap2\n      swap1\n      tag_46\n      jump\t// in\n    tag_318:\n      mload(0x40)\n      dup1\n      swap2\n      sub\n      swap1\n      log2\n        /* \"Contract_Conqueror_Series/AdvancedERC1155RoyaltyAuctionAccess.sol\":5243:5353  if (bytes(_uris[id]).length == 0) {... */\n    tag_315:\n        /* \"Contract_Conqueror_Series/AdvancedERC1155RoyaltyAuctionAccess.sol\":5404:5405  0 */\n      0x00\n        /* \"Contract_Conqueror_Series/AdvancedERC1155RoyaltyAuctionAccess.sol\":5369:5406  _royalties[id].receiver == address(0) */\n      0xffffffffffffffffffffffffffffffffffffffff\n      and\n        /* \"Contract_Conqueror_Series/AdvancedERC1155RoyaltyAuctionAccess.sol\":5369:5379  _royalties */\n      0x03\n        /* \"Contract_Conqueror_Series/AdvancedERC1155RoyaltyAuctionAccess.sol\":5369:5383  _royalties[id] */\n      0x00\n        /* \"Contract_Conqueror_Series/AdvancedERC1155RoyaltyAuctionAccess.sol\":5380:5382  id */\n      dup8\n        /* \"Contract_Conqueror_Series/AdvancedERC1155RoyaltyAuctionAccess.sol\":5369:5383  _royalties[id] */\n      dup2\n      mstore\n      0x20\n      add\n      swap1\n      dup2\n      mstore\n      0x20\n      add\n      0x00\n      keccak256\n        /* \"Contract_Conqueror_Series/AdvancedERC1155RoyaltyAuctionAccess.sol\":5369:5392  _royalties[id].receiver */\n      0x00\n      add\n      0x00\n      swap1\n      sload\n      swap1\n      0x0100\n      exp\n      swap1\n      div\n      0xffffffffffffffffffffffffffffffffffffffff\n      and\n        /* \"Contract_Conqueror_Series/AdvancedERC1155RoyaltyAuctionAccess.sol\":5369:5406  _royalties[id].receiver == address(0) */\n      0xffffffffffffffffffffffffffffffffffffffff\n      and\n      sub\n        /* \"Contract_Conqueror_Series/AdvancedERC1155RoyaltyAuctionAccess.sol\":5365:5492  if (_royalties[id].receiver == address(0)) {... */\n      tag_319\n      jumpi\n        /* \"Contract_Conqueror_Series/AdvancedERC1155RoyaltyAuctionAccess.sol\":5440:5480  RoyaltyInfo(royaltyReceiver, royaltyFee) */\n      mload(0x40)\n      dup1\n      0x40\n      add\n      0x40\n      mstore\n      dup1\n        /* \"Contract_Conqueror_Series/AdvancedERC1155RoyaltyAuctionAccess.sol\":5452:5467  royaltyReceiver */\n      dup4\n        /* \"Contract_Conqueror_Series/AdvancedERC1155RoyaltyAuctionAccess.sol\":5440:5480  RoyaltyInfo(royaltyReceiver, royaltyFee) */\n      0xffffffffffffffffffffffffffffffffffffffff\n      and\n      dup2\n      mstore\n      0x20\n      add\n        /* \"Contract_Conqueror_Series/AdvancedERC1155RoyaltyAuctionAccess.sol\":5469:5479  royaltyFee */\n      dup3\n        /* \"Contract_Conqueror_Series/AdvancedERC1155RoyaltyAuctionAccess.sol\":5440:5480  RoyaltyInfo(royaltyReceiver, royaltyFee) */\n      0xffffffffffffffffffffffff\n      and\n      dup2\n      mstore\n      pop\n        /* \"Contract_Conqueror_Series/AdvancedERC1155RoyaltyAuctionAccess.sol\":5423:5433  _royalties */\n      0x03\n        /* \"Contract_Conqueror_Series/AdvancedERC1155RoyaltyAuctionAccess.sol\":5423:5437  _royalties[id] */\n      0x00\n        /* \"Contract_Conqueror_Series/AdvancedERC1155RoyaltyAuctionAccess.sol\":5434:5436  id */\n      dup8\n        /* \"Contract_Conqueror_Series/AdvancedERC1155RoyaltyAuctionAccess.sol\":5423:5437  _royalties[id] */\n      dup2\n      mstore\n      0x20\n      add\n      swap1\n      dup2\n      mstore\n      0x20\n      add\n      0x00\n      keccak256\n        /* \"Contract_Conqueror_Series/AdvancedERC1155RoyaltyAuctionAccess.sol\":5423:5480  _royalties[id] = RoyaltyInfo(royaltyReceiver, royaltyFee) */\n      0x00\n      dup3\n      add\n      mload\n      dup2\n      0x00\n      add\n      exp(0x0100, 0x00)\n      dup2\n      sload\n      dup2\n      0xffffffffffffffffffffffffffffffffffffffff\n      mul\n      not\n      and\n      swap1\n      dup4\n      0xffffffffffffffffffffffffffffffffffffffff\n      and\n      mul\n      or\n      swap1\n      sstore\n      pop\n      0x20\n      dup3\n      add\n      mload\n      dup2\n      0x00\n      add\n      exp(0x0100, 0x14)\n      dup2\n      sload\n      dup2\n      0xffffffffffffffffffffffff\n      mul\n      not\n      and\n      swap1\n      dup4\n      0xffffffffffffffffffffffff\n      and\n      mul\n      or\n      swap1\n      sstore\n      pop\n      swap1\n      pop\n      pop\n        /* \"Contract_Conqueror_Series/AdvancedERC1155RoyaltyAuctionAccess.sol\":5365:5492  if (_royalties[id].receiver == address(0)) {... */\n    tag_319:\n        /* \"Contract_Conqueror_Series/AdvancedERC1155RoyaltyAuctionAccess.sol\":5548:5550  to */\n      dup6\n        /* \"Contract_Conqueror_Series/AdvancedERC1155RoyaltyAuctionAccess.sol\":5509:5563  TransferSingle(msg.sender, address(0), to, id, amount) */\n      0xffffffffffffffffffffffffffffffffffffffff\n      and\n        /* \"Contract_Conqueror_Series/AdvancedERC1155RoyaltyAuctionAccess.sol\":5544:5545  0 */\n      0x00\n        /* \"Contract_Conqueror_Series/AdvancedERC1155RoyaltyAuctionAccess.sol\":5509:5563  TransferSingle(msg.sender, address(0), to, id, amount) */\n      0xffffffffffffffffffffffffffffffffffffffff\n      and\n        /* \"Contract_Conqueror_Series/AdvancedERC1155RoyaltyAuctionAccess.sol\":5524:5534  msg.sender */\n      caller\n        /* \"Contract_Conqueror_Series/AdvancedERC1155RoyaltyAuctionAccess.sol\":5509:5563  TransferSingle(msg.sender, address(0), to, id, amount) */\n      0xffffffffffffffffffffffffffffffffffffffff\n      and\n      0xc3d58168c5ae7397731d063d5bbf3d657854427343f4c083240f7aacaa2d0f62\n        /* \"Contract_Conqueror_Series/AdvancedERC1155RoyaltyAuctionAccess.sol\":5552:5554  id */\n      dup9\n        /* \"Contract_Conqueror_Series/AdvancedERC1155RoyaltyAuctionAccess.sol\":5556:5562  amount */\n      dup9\n        /* \"Contract_Conqueror_Series/AdvancedERC1155RoyaltyAuctionAccess.sol\":5509:5563  TransferSingle(msg.sender, address(0), to, id, amount) */\n      mload(0x40)\n      tag_320\n      swap3\n      swap2\n      swap1\n      tag_177\n      jump\t// in\n    tag_320:\n      mload(0x40)\n      dup1\n      swap2\n      sub\n      swap1\n      log4\n        /* \"Contract_Conqueror_Series/AdvancedERC1155RoyaltyAuctionAccess.sol\":4875:5571  function mint(... */\n      pop\n      pop\n      pop\n      pop\n      pop\n      pop\n      jump\t// out\n        /* \"#utility.yul\":7:82   */\n    tag_321:\n        /* \"#utility.yul\":40:46   */\n      0x00\n        /* \"#utility.yul\":73:75   */\n      0x40\n        /* \"#utility.yul\":67:76   */\n      mload\n        /* \"#utility.yul\":57:76   */\n      swap1\n      pop\n        /* \"#utility.yul\":7:82   */\n      swap1\n      jump\t// out\n        /* \"#utility.yul\":88:205   */\n    tag_322:\n        /* \"#utility.yul\":197:198   */\n      0x00\n        /* \"#utility.yul\":194:195   */\n      0x00\n        /* \"#utility.yul\":187:199   */\n      revert\n        /* \"#utility.yul\":211:328   */\n    tag_323:\n        /* \"#utility.yul\":320:321   */\n      0x00\n        /* \"#utility.yul\":317:318   */\n      0x00\n        /* \"#utility.yul\":310:322   */\n      revert\n        /* \"#utility.yul\":334:460   */\n    tag_324:\n        /* \"#utility.yul\":371:378   */\n      0x00\n        /* \"#utility.yul\":411:453   */\n      0xffffffffffffffffffffffffffffffffffffffff\n        /* \"#utility.yul\":404:409   */\n      dup3\n        /* \"#utility.yul\":400:454   */\n      and\n        /* \"#utility.yul\":389:454   */\n      swap1\n      pop\n        /* \"#utility.yul\":334:460   */\n      swap2\n      swap1\n      pop\n      jump\t// out\n        /* \"#utility.yul\":466:562   */\n    tag_325:\n        /* \"#utility.yul\":503:510   */\n      0x00\n        /* \"#utility.yul\":532:556   */\n      tag_420\n        /* \"#utility.yul\":550:555   */\n      dup3\n        /* \"#utility.yul\":532:556   */\n      tag_324\n      jump\t// in\n    tag_420:\n        /* \"#utility.yul\":521:556   */\n      swap1\n      pop\n        /* \"#utility.yul\":466:562   */\n      swap2\n      swap1\n      pop\n      jump\t// out\n        /* \"#utility.yul\":568:690   */\n    tag_326:\n        /* \"#utility.yul\":641:665   */\n      tag_422\n        /* \"#utility.yul\":659:664   */\n      dup2\n        /* \"#utility.yul\":641:665   */\n      tag_325\n      jump\t// in\n    tag_422:\n        /* \"#utility.yul\":634:639   */\n      dup2\n        /* \"#utility.yul\":631:666   */\n      eq\n        /* \"#utility.yul\":621:684   */\n      tag_423\n      jumpi\n        /* \"#utility.yul\":680:681   */\n      0x00\n        /* \"#utility.yul\":677:678   */\n      0x00\n        /* \"#utility.yul\":670:682   */\n      revert\n        /* \"#utility.yul\":621:684   */\n    tag_423:\n        /* \"#utility.yul\":568:690   */\n      pop\n      jump\t// out\n        /* \"#utility.yul\":696:835   */\n    tag_327:\n        /* \"#utility.yul\":742:747   */\n      0x00\n        /* \"#utility.yul\":780:786   */\n      dup2\n        /* \"#utility.yul\":767:787   */\n      calldataload\n        /* \"#utility.yul\":758:787   */\n      swap1\n      pop\n        /* \"#utility.yul\":796:829   */\n      tag_425\n        /* \"#utility.yul\":823:828   */\n      dup2\n        /* \"#utility.yul\":796:829   */\n      tag_326\n      jump\t// in\n    tag_425:\n        /* \"#utility.yul\":696:835   */\n      swap3\n      swap2\n      pop\n      pop\n      jump\t// out\n        /* \"#utility.yul\":841:918   */\n    tag_328:\n        /* \"#utility.yul\":878:885   */\n      0x00\n        /* \"#utility.yul\":907:912   */\n      dup2\n        /* \"#utility.yul\":896:912   */\n      swap1\n      pop\n        /* \"#utility.yul\":841:918   */\n      swap2\n      swap1\n      pop\n      jump\t// out\n        /* \"#utility.yul\":924:1046   */\n    tag_329:\n        /* \"#utility.yul\":997:1021   */\n      tag_428\n        /* \"#utility.yul\":1015:1020   */\n      dup2\n        /* \"#utility.yul\":997:1021   */\n      tag_328\n      jump\t// in\n    tag_428:\n        /* \"#utility.yul\":990:995   */\n      dup2\n        /* \"#utility.yul\":987:1022   */\n      eq\n        /* \"#utility.yul\":977:1040   */\n      tag_429\n      jumpi\n        /* \"#utility.yul\":1036:1037   */\n      0x00\n        /* \"#utility.yul\":1033:1034   */\n      0x00\n        /* \"#utility.yul\":1026:1038   */\n      revert\n        /* \"#utility.yul\":977:1040   */\n    tag_429:\n        /* \"#utility.yul\":924:1046   */\n      pop\n      jump\t// out\n        /* \"#utility.yul\":1052:1191   */\n    tag_330:\n        /* \"#utility.yul\":1098:1103   */\n      0x00\n        /* \"#utility.yul\":1136:1142   */\n      dup2\n        /* \"#utility.yul\":1123:1143   */\n      calldataload\n        /* \"#utility.yul\":1114:1143   */\n      swap1\n      pop\n        /* \"#utility.yul\":1152:1185   */\n      tag_431\n        /* \"#utility.yul\":1179:1184   */\n      dup2\n        /* \"#utility.yul\":1152:1185   */\n      tag_329\n      jump\t// in\n    tag_431:\n        /* \"#utility.yul\":1052:1191   */\n      swap3\n      swap2\n      pop\n      pop\n      jump\t// out\n        /* \"#utility.yul\":1197:1671   */\n    tag_29:\n        /* \"#utility.yul\":1265:1271   */\n      0x00\n        /* \"#utility.yul\":1273:1279   */\n      0x00\n        /* \"#utility.yul\":1322:1324   */\n      0x40\n        /* \"#utility.yul\":1310:1319   */\n      dup4\n        /* \"#utility.yul\":1301:1308   */\n      dup6\n        /* \"#utility.yul\":1297:1320   */\n      sub\n        /* \"#utility.yul\":1293:1325   */\n      slt\n        /* \"#utility.yul\":1290:1409   */\n      iszero\n      tag_433\n      jumpi\n        /* \"#utility.yul\":1328:1407   */\n      tag_434\n      tag_322\n      jump\t// in\n    tag_434:\n        /* \"#utility.yul\":1290:1409   */\n    tag_433:\n        /* \"#utility.yul\":1448:1449   */\n      0x00\n        /* \"#utility.yul\":1473:1526   */\n      tag_435\n        /* \"#utility.yul\":1518:1525   */\n      dup6\n        /* \"#utility.yul\":1509:1515   */\n      dup3\n        /* \"#utility.yul\":1498:1507   */\n      dup7\n        /* \"#utility.yul\":1494:1516   */\n      add\n        /* \"#utility.yul\":1473:1526   */\n      tag_327\n      jump\t// in\n    tag_435:\n        /* \"#utility.yul\":1463:1526   */\n      swap3\n      pop\n        /* \"#utility.yul\":1419:1536   */\n      pop\n        /* \"#utility.yul\":1575:1577   */\n      0x20\n        /* \"#utility.yul\":1601:1654   */\n      tag_436\n        /* \"#utility.yul\":1646:1653   */\n      dup6\n        /* \"#utility.yul\":1637:1643   */\n      dup3\n        /* \"#utility.yul\":1626:1635   */\n      dup7\n        /* \"#utility.yul\":1622:1644   */\n      add\n        /* \"#utility.yul\":1601:1654   */\n      tag_330\n      jump\t// in\n    tag_436:\n        /* \"#utility.yul\":1591:1654   */\n      swap2\n      pop\n        /* \"#utility.yul\":1546:1664   */\n      pop\n        /* \"#utility.yul\":1197:1671   */\n      swap3\n      pop\n      swap3\n      swap1\n      pop\n      jump\t// out\n        /* \"#utility.yul\":1677:1795   */\n    tag_331:\n        /* \"#utility.yul\":1764:1788   */\n      tag_438\n        /* \"#utility.yul\":1782:1787   */\n      dup2\n        /* \"#utility.yul\":1764:1788   */\n      tag_328\n      jump\t// in\n    tag_438:\n        /* \"#utility.yul\":1759:1762   */\n      dup3\n        /* \"#utility.yul\":1752:1789   */\n      mstore\n        /* \"#utility.yul\":1677:1795   */\n      pop\n      pop\n      jump\t// out\n        /* \"#utility.yul\":1801:2023   */\n    tag_32:\n        /* \"#utility.yul\":1894:1898   */\n      0x00\n        /* \"#utility.yul\":1932:1934   */\n      0x20\n        /* \"#utility.yul\":1921:1930   */\n      dup3\n        /* \"#utility.yul\":1917:1935   */\n      add\n        /* \"#utility.yul\":1909:1935   */\n      swap1\n      pop\n        /* \"#utility.yul\":1945:2016   */\n      tag_440\n        /* \"#utility.yul\":2013:2014   */\n      0x00\n        /* \"#utility.yul\":2002:2011   */\n      dup4\n        /* \"#utility.yul\":1998:2015   */\n      add\n        /* \"#utility.yul\":1989:1995   */\n      dup5\n        /* \"#utility.yul\":1945:2016   */\n      tag_331\n      jump\t// in\n    tag_440:\n        /* \"#utility.yul\":1801:2023   */\n      swap3\n      swap2\n      pop\n      pop\n      jump\t// out\n        /* \"#utility.yul\":2029:2178   */\n    tag_332:\n        /* \"#utility.yul\":2065:2072   */\n      0x00\n        /* \"#utility.yul\":2105:2171   */\n      0xffffffff00000000000000000000000000000000000000000000000000000000\n        /* \"#utility.yul\":2098:2103   */\n      dup3\n        /* \"#utility.yul\":2094:2172   */\n      and\n        /* \"#utility.yul\":2083:2172   */\n      swap1\n      pop\n        /* \"#utility.yul\":2029:2178   */\n      swap2\n      swap1\n      pop\n      jump\t// out\n        /* \"#utility.yul\":2184:2304   */\n    tag_333:\n        /* \"#utility.yul\":2256:2279   */\n      tag_443\n        /* \"#utility.yul\":2273:2278   */\n      dup2\n        /* \"#utility.yul\":2256:2279   */\n      tag_332\n      jump\t// in\n    tag_443:\n        /* \"#utility.yul\":2249:2254   */\n      dup2\n        /* \"#utility.yul\":2246:2280   */\n      eq\n        /* \"#utility.yul\":2236:2298   */\n      tag_444\n      jumpi\n        /* \"#utility.yul\":2294:2295   */\n      0x00\n        /* \"#utility.yul\":2291:2292   */\n      0x00\n        /* \"#utility.yul\":2284:2296   */\n      revert\n        /* \"#utility.yul\":2236:2298   */\n    tag_444:\n        /* \"#utility.yul\":2184:2304   */\n      pop\n      jump\t// out\n        /* \"#utility.yul\":2310:2447   */\n    tag_334:\n        /* \"#utility.yul\":2355:2360   */\n      0x00\n        /* \"#utility.yul\":2393:2399   */\n      dup2\n        /* \"#utility.yul\":2380:2400   */\n      calldataload\n        /* \"#utility.yul\":2371:2400   */\n      swap1\n      pop\n        /* \"#utility.yul\":2409:2441   */\n      tag_446\n        /* \"#utility.yul\":2435:2440   */\n      dup2\n        /* \"#utility.yul\":2409:2441   */\n      tag_333\n      jump\t// in\n    tag_446:\n        /* \"#utility.yul\":2310:2447   */\n      swap3\n      swap2\n      pop\n      pop\n      jump\t// out\n        /* \"#utility.yul\":2453:2780   */\n    tag_36:\n        /* \"#utility.yul\":2511:2517   */\n      0x00\n        /* \"#utility.yul\":2560:2562   */\n      0x20\n        /* \"#utility.yul\":2548:2557   */\n      dup3\n        /* \"#utility.yul\":2539:2546   */\n      dup5\n        /* \"#utility.yul\":2535:2558   */\n      sub\n        /* \"#utility.yul\":2531:2563   */\n      slt\n        /* \"#utility.yul\":2528:2647   */\n      iszero\n      tag_448\n      jumpi\n        /* \"#utility.yul\":2566:2645   */\n      tag_449\n      tag_322\n      jump\t// in\n    tag_449:\n        /* \"#utility.yul\":2528:2647   */\n    tag_448:\n        /* \"#utility.yul\":2686:2687   */\n      0x00\n        /* \"#utility.yul\":2711:2763   */\n      tag_450\n        /* \"#utility.yul\":2755:2762   */\n      dup5\n        /* \"#utility.yul\":2746:2752   */\n      dup3\n        /* \"#utility.yul\":2735:2744   */\n      dup6\n        /* \"#utility.yul\":2731:2753   */\n      add\n        /* \"#utility.yul\":2711:2763   */\n      tag_334\n      jump\t// in\n    tag_450:\n        /* \"#utility.yul\":2701:2763   */\n      swap2\n      pop\n        /* \"#utility.yul\":2657:2773   */\n      pop\n        /* \"#utility.yul\":2453:2780   */\n      swap3\n      swap2\n      pop\n      pop\n      jump\t// out\n        /* \"#utility.yul\":2786:2876   */\n    tag_335:\n        /* \"#utility.yul\":2820:2827   */\n      0x00\n        /* \"#utility.yul\":2863:2868   */\n      dup2\n        /* \"#utility.yul\":2856:2869   */\n      iszero\n        /* \"#utility.yul\":2849:2870   */\n      iszero\n        /* \"#utility.yul\":2838:2870   */\n      swap1\n      pop\n        /* \"#utility.yul\":2786:2876   */\n      swap2\n      swap1\n      pop\n      jump\t// out\n        /* \"#utility.yul\":2882:2991   */\n    tag_336:\n        /* \"#utility.yul\":2963:2984   */\n      tag_453\n        /* \"#utility.yul\":2978:2983   */\n      dup2\n        /* \"#utility.yul\":2963:2984   */\n      tag_335\n      jump\t// in\n    tag_453:\n        /* \"#utility.yul\":2958:2961   */\n      dup3\n        /* \"#utility.yul\":2951:2985   */\n      mstore\n        /* \"#utility.yul\":2882:2991   */\n      pop\n      pop\n      jump\t// out\n        /* \"#utility.yul\":2997:3207   */\n    tag_39:\n        /* \"#utility.yul\":3084:3088   */\n      0x00\n        /* \"#utility.yul\":3122:3124   */\n      0x20\n        /* \"#utility.yul\":3111:3120   */\n      dup3\n        /* \"#utility.yul\":3107:3125   */\n      add\n        /* \"#utility.yul\":3099:3125   */\n      swap1\n      pop\n        /* \"#utility.yul\":3135:3200   */\n      tag_455\n        /* \"#utility.yul\":3197:3198   */\n      0x00\n        /* \"#utility.yul\":3186:3195   */\n      dup4\n        /* \"#utility.yul\":3182:3199   */\n      add\n        /* \"#utility.yul\":3173:3179   */\n      dup5\n        /* \"#utility.yul\":3135:3200   */\n      tag_336\n      jump\t// in\n    tag_455:\n        /* \"#utility.yul\":2997:3207   */\n      swap3\n      swap2\n      pop\n      pop\n      jump\t// out\n        /* \"#utility.yul\":3213:3542   */\n    tag_43:\n        /* \"#utility.yul\":3272:3278   */\n      0x00\n        /* \"#utility.yul\":3321:3323   */\n      0x20\n        /* \"#utility.yul\":3309:3318   */\n      dup3\n        /* \"#utility.yul\":3300:3307   */\n      dup5\n        /* \"#utility.yul\":3296:3319   */\n      sub\n        /* \"#utility.yul\":3292:3324   */\n      slt\n        /* \"#utility.yul\":3289:3408   */\n      iszero\n      tag_457\n      jumpi\n        /* \"#utility.yul\":3327:3406   */\n      tag_458\n      tag_322\n      jump\t// in\n    tag_458:\n        /* \"#utility.yul\":3289:3408   */\n    tag_457:\n        /* \"#utility.yul\":3447:3448   */\n      0x00\n        /* \"#utility.yul\":3472:3525   */\n      tag_459\n        /* \"#utility.yul\":3517:3524   */\n      dup5\n        /* \"#utility.yul\":3508:3514   */\n      dup3\n        /* \"#utility.yul\":3497:3506   */\n      dup6\n        /* \"#utility.yul\":3493:3515   */\n      add\n        /* \"#utility.yul\":3472:3525   */\n      tag_330\n      jump\t// in\n    tag_459:\n        /* \"#utility.yul\":3462:3525   */\n      swap2\n      pop\n        /* \"#utility.yul\":3418:3535   */\n      pop\n        /* \"#utility.yul\":3213:3542   */\n      swap3\n      swap2\n      pop\n      pop\n      jump\t// out\n        /* \"#utility.yul\":3548:3647   */\n    tag_337:\n        /* \"#utility.yul\":3600:3606   */\n      0x00\n        /* \"#utility.yul\":3634:3639   */\n      dup2\n        /* \"#utility.yul\":3628:3640   */\n      mload\n        /* \"#utility.yul\":3618:3640   */\n      swap1\n      pop\n        /* \"#utility.yul\":3548:3647   */\n      swap2\n      swap1\n      pop\n      jump\t// out\n        /* \"#utility.yul\":3653:3822   */\n    tag_338:\n        /* \"#utility.yul\":3737:3748   */\n      0x00\n        /* \"#utility.yul\":3771:3777   */\n      dup3\n        /* \"#utility.yul\":3766:3769   */\n      dup3\n        /* \"#utility.yul\":3759:3778   */\n      mstore\n        /* \"#utility.yul\":3811:3815   */\n      0x20\n        /* \"#utility.yul\":3806:3809   */\n      dup3\n        /* \"#utility.yul\":3802:3816   */\n      add\n        /* \"#utility.yul\":3787:3816   */\n      swap1\n      pop\n        /* \"#utility.yul\":3653:3822   */\n      swap3\n      swap2\n      pop\n      pop\n      jump\t// out\n        /* \"#utility.yul\":3828:3967   */\n    tag_339:\n        /* \"#utility.yul\":3917:3923   */\n      dup3\n        /* \"#utility.yul\":3912:3915   */\n      dup2\n        /* \"#utility.yul\":3907:3910   */\n      dup4\n        /* \"#utility.yul\":3901:3924   */\n      mcopy\n        /* \"#utility.yul\":3958:3959   */\n      0x00\n        /* \"#utility.yul\":3949:3955   */\n      dup4\n        /* \"#utility.yul\":3944:3947   */\n      dup4\n        /* \"#utility.yul\":3940:3956   */\n      add\n        /* \"#utility.yul\":3933:3960   */\n      mstore\n        /* \"#utility.yul\":3828:3967   */\n      pop\n      pop\n      pop\n      jump\t// out\n        /* \"#utility.yul\":3973:4075   */\n    tag_340:\n        /* \"#utility.yul\":4014:4020   */\n      0x00\n        /* \"#utility.yul\":4065:4067   */\n      0x1f\n        /* \"#utility.yul\":4061:4068   */\n      not\n        /* \"#utility.yul\":4056:4058   */\n      0x1f\n        /* \"#utility.yul\":4049:4054   */\n      dup4\n        /* \"#utility.yul\":4045:4059   */\n      add\n        /* \"#utility.yul\":4041:4069   */\n      and\n        /* \"#utility.yul\":4031:4069   */\n      swap1\n      pop\n        /* \"#utility.yul\":3973:4075   */\n      swap2\n      swap1\n      pop\n      jump\t// out\n        /* \"#utility.yul\":4081:4458   */\n    tag_341:\n        /* \"#utility.yul\":4169:4172   */\n      0x00\n        /* \"#utility.yul\":4197:4236   */\n      tag_465\n        /* \"#utility.yul\":4230:4235   */\n      dup3\n        /* \"#utility.yul\":4197:4236   */\n      tag_337\n      jump\t// in\n    tag_465:\n        /* \"#utility.yul\":4252:4323   */\n      tag_466\n        /* \"#utility.yul\":4316:4322   */\n      dup2\n        /* \"#utility.yul\":4311:4314   */\n      dup6\n        /* \"#utility.yul\":4252:4323   */\n      tag_338\n      jump\t// in\n    tag_466:\n        /* \"#utility.yul\":4245:4323   */\n      swap4\n      pop\n        /* \"#utility.yul\":4332:4397   */\n      tag_467\n        /* \"#utility.yul\":4390:4396   */\n      dup2\n        /* \"#utility.yul\":4385:4388   */\n      dup6\n        /* \"#utility.yul\":4378:4382   */\n      0x20\n        /* \"#utility.yul\":4371:4376   */\n      dup7\n        /* \"#utility.yul\":4367:4383   */\n      add\n        /* \"#utility.yul\":4332:4397   */\n      tag_339\n      jump\t// in\n    tag_467:\n        /* \"#utility.yul\":4422:4451   */\n      tag_468\n        /* \"#utility.yul\":4444:4450   */\n      dup2\n        /* \"#utility.yul\":4422:4451   */\n      tag_340\n      jump\t// in\n    tag_468:\n        /* \"#utility.yul\":4417:4420   */\n      dup5\n        /* \"#utility.yul\":4413:4452   */\n      add\n        /* \"#utility.yul\":4406:4452   */\n      swap2\n      pop\n        /* \"#utility.yul\":4173:4458   */\n      pop\n        /* \"#utility.yul\":4081:4458   */\n      swap3\n      swap2\n      pop\n      pop\n      jump\t// out\n        /* \"#utility.yul\":4464:4777   */\n    tag_46:\n        /* \"#utility.yul\":4577:4581   */\n      0x00\n        /* \"#utility.yul\":4615:4617   */\n      0x20\n        /* \"#utility.yul\":4604:4613   */\n      dup3\n        /* \"#utility.yul\":4600:4618   */\n      add\n        /* \"#utility.yul\":4592:4618   */\n      swap1\n      pop\n        /* \"#utility.yul\":4664:4673   */\n      dup2\n        /* \"#utility.yul\":4658:4662   */\n      dup2\n        /* \"#utility.yul\":4654:4674   */\n      sub\n        /* \"#utility.yul\":4650:4651   */\n      0x00\n        /* \"#utility.yul\":4639:4648   */\n      dup4\n        /* \"#utility.yul\":4635:4652   */\n      add\n        /* \"#utility.yul\":4628:4675   */\n      mstore\n        /* \"#utility.yul\":4692:4770   */\n      tag_470\n        /* \"#utility.yul\":4765:4769   */\n      dup2\n        /* \"#utility.yul\":4756:4762   */\n      dup5\n        /* \"#utility.yul\":4692:4770   */\n      tag_341\n      jump\t// in\n    tag_470:\n        /* \"#utility.yul\":4684:4770   */\n      swap1\n      pop\n        /* \"#utility.yul\":4464:4777   */\n      swap3\n      swap2\n      pop\n      pop\n      jump\t// out\n        /* \"#utility.yul\":4783:5548   */\n    tag_54:\n        /* \"#utility.yul\":4869:4875   */\n      0x00\n        /* \"#utility.yul\":4877:4883   */\n      0x00\n        /* \"#utility.yul\":4885:4891   */\n      0x00\n        /* \"#utility.yul\":4893:4899   */\n      0x00\n        /* \"#utility.yul\":4942:4945   */\n      0x80\n        /* \"#utility.yul\":4930:4939   */\n      dup6\n        /* \"#utility.yul\":4921:4928   */\n      dup8\n        /* \"#utility.yul\":4917:4940   */\n      sub\n        /* \"#utility.yul\":4913:4946   */\n      slt\n        /* \"#utility.yul\":4910:5030   */\n      iszero\n      tag_472\n      jumpi\n        /* \"#utility.yul\":4949:5028   */\n      tag_473\n      tag_322\n      jump\t// in\n    tag_473:\n        /* \"#utility.yul\":4910:5030   */\n    tag_472:\n        /* \"#utility.yul\":5069:5070   */\n      0x00\n        /* \"#utility.yul\":5094:5147   */\n      tag_474\n        /* \"#utility.yul\":5139:5146   */\n      dup8\n        /* \"#utility.yul\":5130:5136   */\n      dup3\n        /* \"#utility.yul\":5119:5128   */\n      dup9\n        /* \"#utility.yul\":5115:5137   */\n      add\n        /* \"#utility.yul\":5094:5147   */\n      tag_327\n      jump\t// in\n    tag_474:\n        /* \"#utility.yul\":5084:5147   */\n      swap5\n      pop\n        /* \"#utility.yul\":5040:5157   */\n      pop\n        /* \"#utility.yul\":5196:5198   */\n      0x20\n        /* \"#utility.yul\":5222:5275   */\n      tag_475\n        /* \"#utility.yul\":5267:5274   */\n      dup8\n        /* \"#utility.yul\":5258:5264   */\n      dup3\n        /* \"#utility.yul\":5247:5256   */\n      dup9\n        /* \"#utility.yul\":5243:5265   */\n      add\n        /* \"#utility.yul\":5222:5275   */\n      tag_327\n      jump\t// in\n    tag_475:\n        /* \"#utility.yul\":5212:5275   */\n      swap4\n      pop\n        /* \"#utility.yul\":5167:5285   */\n      pop\n        /* \"#utility.yul\":5324:5326   */\n      0x40\n        /* \"#utility.yul\":5350:5403   */\n      tag_476\n        /* \"#utility.yul\":5395:5402   */\n      dup8\n        /* \"#utility.yul\":5386:5392   */\n      dup3\n        /* \"#utility.yul\":5375:5384   */\n      dup9\n        /* \"#utility.yul\":5371:5393   */\n      add\n        /* \"#utility.yul\":5350:5403   */\n      tag_330\n      jump\t// in\n    tag_476:\n        /* \"#utility.yul\":5340:5403   */\n      swap3\n      pop\n        /* \"#utility.yul\":5295:5413   */\n      pop\n        /* \"#utility.yul\":5452:5454   */\n      0x60\n        /* \"#utility.yul\":5478:5531   */\n      tag_477\n        /* \"#utility.yul\":5523:5530   */\n      dup8\n        /* \"#utility.yul\":5514:5520   */\n      dup3\n        /* \"#utility.yul\":5503:5512   */\n      dup9\n        /* \"#utility.yul\":5499:5521   */\n      add\n        /* \"#utility.yul\":5478:5531   */\n      tag_330\n      jump\t// in\n    tag_477:\n        /* \"#utility.yul\":5468:5531   */\n      swap2\n      pop\n        /* \"#utility.yul\":5423:5541   */\n      pop\n        /* \"#utility.yul\":4783:5548   */\n      swap3\n      swap6\n      swap2\n      swap5\n      pop\n      swap3\n      pop\n      jump\t// out\n        /* \"#utility.yul\":5554:6028   */\n    tag_59:\n        /* \"#utility.yul\":5622:5628   */\n      0x00\n        /* \"#utility.yul\":5630:5636   */\n      0x00\n        /* \"#utility.yul\":5679:5681   */\n      0x40\n        /* \"#utility.yul\":5667:5676   */\n      dup4\n        /* \"#utility.yul\":5658:5665   */\n      dup6\n        /* \"#utility.yul\":5654:5677   */\n      sub\n        /* \"#utility.yul\":5650:5682   */\n      slt\n        /* \"#utility.yul\":5647:5766   */\n      iszero\n      tag_479\n      jumpi\n        /* \"#utility.yul\":5685:5764   */\n      tag_480\n      tag_322\n      jump\t// in\n    tag_480:\n        /* \"#utility.yul\":5647:5766   */\n    tag_479:\n        /* \"#utility.yul\":5805:5806   */\n      0x00\n        /* \"#utility.yul\":5830:5883   */\n      tag_481\n        /* \"#utility.yul\":5875:5882   */\n      dup6\n        /* \"#utility.yul\":5866:5872   */\n      dup3\n        /* \"#utility.yul\":5855:5864   */\n      dup7\n        /* \"#utility.yul\":5851:5873   */\n      add\n        /* \"#utility.yul\":5830:5883   */\n      tag_330\n      jump\t// in\n    tag_481:\n        /* \"#utility.yul\":5820:5883   */\n      swap3\n      pop\n        /* \"#utility.yul\":5776:5893   */\n      pop\n        /* \"#utility.yul\":5932:5934   */\n      0x20\n        /* \"#utility.yul\":5958:6011   */\n      tag_482\n        /* \"#utility.yul\":6003:6010   */\n      dup6\n        /* \"#utility.yul\":5994:6000   */\n      dup3\n        /* \"#utility.yul\":5983:5992   */\n      dup7\n        /* \"#utility.yul\":5979:6001   */\n      add\n        /* \"#utility.yul\":5958:6011   */\n      tag_330\n      jump\t// in\n    tag_482:\n        /* \"#utility.yul\":5948:6011   */\n      swap2\n      pop\n        /* \"#utility.yul\":5903:6021   */\n      pop\n        /* \"#utility.yul\":5554:6028   */\n      swap3\n      pop\n      swap3\n      swap1\n      pop\n      jump\t// out\n        /* \"#utility.yul\":6034:6152   */\n    tag_342:\n        /* \"#utility.yul\":6121:6145   */\n      tag_484\n        /* \"#utility.yul\":6139:6144   */\n      dup2\n        /* \"#utility.yul\":6121:6145   */\n      tag_325\n      jump\t// in\n    tag_484:\n        /* \"#utility.yul\":6116:6119   */\n      dup3\n        /* \"#utility.yul\":6109:6146   */\n      mstore\n        /* \"#utility.yul\":6034:6152   */\n      pop\n      pop\n      jump\t// out\n        /* \"#utility.yul\":6158:6490   */\n    tag_62:\n        /* \"#utility.yul\":6279:6283   */\n      0x00\n        /* \"#utility.yul\":6317:6319   */\n      0x40\n        /* \"#utility.yul\":6306:6315   */\n      dup3\n        /* \"#utility.yul\":6302:6320   */\n      add\n        /* \"#utility.yul\":6294:6320   */\n      swap1\n      pop\n        /* \"#utility.yul\":6330:6401   */\n      tag_486\n        /* \"#utility.yul\":6398:6399   */\n      0x00\n        /* \"#utility.yul\":6387:6396   */\n      dup4\n        /* \"#utility.yul\":6383:6400   */\n      add\n        /* \"#utility.yul\":6374:6380   */\n      dup6\n        /* \"#utility.yul\":6330:6401   */\n      tag_342\n      jump\t// in\n    tag_486:\n        /* \"#utility.yul\":6411:6483   */\n      tag_487\n        /* \"#utility.yul\":6479:6481   */\n      0x20\n        /* \"#utility.yul\":6468:6477   */\n      dup4\n        /* \"#utility.yul\":6464:6482   */\n      add\n        /* \"#utility.yul\":6455:6461   */\n      dup5\n        /* \"#utility.yul\":6411:6483   */\n      tag_331\n      jump\t// in\n    tag_487:\n        /* \"#utility.yul\":6158:6490   */\n      swap4\n      swap3\n      pop\n      pop\n      pop\n      jump\t// out\n        /* \"#utility.yul\":6496:6970   */\n    tag_70:\n        /* \"#utility.yul\":6564:6570   */\n      0x00\n        /* \"#utility.yul\":6572:6578   */\n      0x00\n        /* \"#utility.yul\":6621:6623   */\n      0x40\n        /* \"#utility.yul\":6609:6618   */\n      dup4\n        /* \"#utility.yul\":6600:6607   */\n      dup6\n        /* \"#utility.yul\":6596:6619   */\n      sub\n        /* \"#utility.yul\":6592:6624   */\n      slt\n        /* \"#utility.yul\":6589:6708   */\n      iszero\n      tag_489\n      jumpi\n        /* \"#utility.yul\":6627:6706   */\n      tag_490\n      tag_322\n      jump\t// in\n    tag_490:\n        /* \"#utility.yul\":6589:6708   */\n    tag_489:\n        /* \"#utility.yul\":6747:6748   */\n      0x00\n        /* \"#utility.yul\":6772:6825   */\n      tag_491\n        /* \"#utility.yul\":6817:6824   */\n      dup6\n        /* \"#utility.yul\":6808:6814   */\n      dup3\n        /* \"#utility.yul\":6797:6806   */\n      dup7\n        /* \"#utility.yul\":6793:6815   */\n      add\n        /* \"#utility.yul\":6772:6825   */\n      tag_330\n      jump\t// in\n    tag_491:\n        /* \"#utility.yul\":6762:6825   */\n      swap3\n      pop\n        /* \"#utility.yul\":6718:6835   */\n      pop\n        /* \"#utility.yul\":6874:6876   */\n      0x20\n        /* \"#utility.yul\":6900:6953   */\n      tag_492\n        /* \"#utility.yul\":6945:6952   */\n      dup6\n        /* \"#utility.yul\":6936:6942   */\n      dup3\n        /* \"#utility.yul\":6925:6934   */\n      dup7\n        /* \"#utility.yul\":6921:6943   */\n      add\n        /* \"#utility.yul\":6900:6953   */\n      tag_327\n      jump\t// in\n    tag_492:\n        /* \"#utility.yul\":6890:6953   */\n      swap2\n      pop\n        /* \"#utility.yul\":6845:6963   */\n      pop\n        /* \"#utility.yul\":6496:6970   */\n      swap3\n      pop\n      swap3\n      swap1\n      pop\n      jump\t// out\n        /* \"#utility.yul\":6976:7093   */\n    tag_343:\n        /* \"#utility.yul\":7085:7086   */\n      0x00\n        /* \"#utility.yul\":7082:7083   */\n      0x00\n        /* \"#utility.yul\":7075:7087   */\n      revert\n        /* \"#utility.yul\":7099:7216   */\n    tag_344:\n        /* \"#utility.yul\":7208:7209   */\n      0x00\n        /* \"#utility.yul\":7205:7206   */\n      0x00\n        /* \"#utility.yul\":7198:7210   */\n      revert\n        /* \"#utility.yul\":7222:7339   */\n    tag_345:\n        /* \"#utility.yul\":7331:7332   */\n      0x00\n        /* \"#utility.yul\":7328:7329   */\n      0x00\n        /* \"#utility.yul\":7321:7333   */\n      revert\n        /* \"#utility.yul\":7362:7930   */\n    tag_346:\n        /* \"#utility.yul\":7435:7443   */\n      0x00\n        /* \"#utility.yul\":7445:7451   */\n      0x00\n        /* \"#utility.yul\":7495:7498   */\n      dup4\n        /* \"#utility.yul\":7488:7492   */\n      0x1f\n        /* \"#utility.yul\":7480:7486   */\n      dup5\n        /* \"#utility.yul\":7476:7493   */\n      add\n        /* \"#utility.yul\":7472:7499   */\n      slt\n        /* \"#utility.yul\":7462:7584   */\n      tag_497\n      jumpi\n        /* \"#utility.yul\":7503:7582   */\n      tag_498\n      tag_343\n      jump\t// in\n    tag_498:\n        /* \"#utility.yul\":7462:7584   */\n    tag_497:\n        /* \"#utility.yul\":7616:7622   */\n      dup3\n        /* \"#utility.yul\":7603:7623   */\n      calldataload\n        /* \"#utility.yul\":7593:7623   */\n      swap1\n      pop\n        /* \"#utility.yul\":7646:7664   */\n      0xffffffffffffffff\n        /* \"#utility.yul\":7638:7644   */\n      dup2\n        /* \"#utility.yul\":7635:7665   */\n      gt\n        /* \"#utility.yul\":7632:7749   */\n      iszero\n      tag_499\n      jumpi\n        /* \"#utility.yul\":7668:7747   */\n      tag_500\n      tag_344\n      jump\t// in\n    tag_500:\n        /* \"#utility.yul\":7632:7749   */\n    tag_499:\n        /* \"#utility.yul\":7782:7786   */\n      0x20\n        /* \"#utility.yul\":7774:7780   */\n      dup4\n        /* \"#utility.yul\":7770:7787   */\n      add\n        /* \"#utility.yul\":7758:7787   */\n      swap2\n      pop\n        /* \"#utility.yul\":7836:7839   */\n      dup4\n        /* \"#utility.yul\":7828:7832   */\n      0x20\n        /* \"#utility.yul\":7820:7826   */\n      dup3\n        /* \"#utility.yul\":7816:7833   */\n      mul\n        /* \"#utility.yul\":7806:7814   */\n      dup4\n        /* \"#utility.yul\":7802:7834   */\n      add\n        /* \"#utility.yul\":7799:7840   */\n      gt\n        /* \"#utility.yul\":7796:7924   */\n      iszero\n      tag_501\n      jumpi\n        /* \"#utility.yul\":7843:7922   */\n      tag_502\n      tag_345\n      jump\t// in\n    tag_502:\n        /* \"#utility.yul\":7796:7924   */\n    tag_501:\n        /* \"#utility.yul\":7362:7930   */\n      swap3\n      pop\n      swap3\n      swap1\n      pop\n      jump\t// out\n        /* \"#utility.yul\":7953:8521   */\n    tag_347:\n        /* \"#utility.yul\":8026:8034   */\n      0x00\n        /* \"#utility.yul\":8036:8042   */\n      0x00\n        /* \"#utility.yul\":8086:8089   */\n      dup4\n        /* \"#utility.yul\":8079:8083   */\n      0x1f\n        /* \"#utility.yul\":8071:8077   */\n      dup5\n        /* \"#utility.yul\":8067:8084   */\n      add\n        /* \"#utility.yul\":8063:8090   */\n      slt\n        /* \"#utility.yul\":8053:8175   */\n      tag_504\n      jumpi\n        /* \"#utility.yul\":8094:8173   */\n      tag_505\n      tag_343\n      jump\t// in\n    tag_505:\n        /* \"#utility.yul\":8053:8175   */\n    tag_504:\n        /* \"#utility.yul\":8207:8213   */\n      dup3\n        /* \"#utility.yul\":8194:8214   */\n      calldataload\n        /* \"#utility.yul\":8184:8214   */\n      swap1\n      pop\n        /* \"#utility.yul\":8237:8255   */\n      0xffffffffffffffff\n        /* \"#utility.yul\":8229:8235   */\n      dup2\n        /* \"#utility.yul\":8226:8256   */\n      gt\n        /* \"#utility.yul\":8223:8340   */\n      iszero\n      tag_506\n      jumpi\n        /* \"#utility.yul\":8259:8338   */\n      tag_507\n      tag_344\n      jump\t// in\n    tag_507:\n        /* \"#utility.yul\":8223:8340   */\n    tag_506:\n        /* \"#utility.yul\":8373:8377   */\n      0x20\n        /* \"#utility.yul\":8365:8371   */\n      dup4\n        /* \"#utility.yul\":8361:8378   */\n      add\n        /* \"#utility.yul\":8349:8378   */\n      swap2\n      pop\n        /* \"#utility.yul\":8427:8430   */\n      dup4\n        /* \"#utility.yul\":8419:8423   */\n      0x20\n        /* \"#utility.yul\":8411:8417   */\n      dup3\n        /* \"#utility.yul\":8407:8424   */\n      mul\n        /* \"#utility.yul\":8397:8405   */\n      dup4\n        /* \"#utility.yul\":8393:8425   */\n      add\n        /* \"#utility.yul\":8390:8431   */\n      gt\n        /* \"#utility.yul\":8387:8515   */\n      iszero\n      tag_508\n      jumpi\n        /* \"#utility.yul\":8434:8513   */\n      tag_509\n      tag_345\n      jump\t// in\n    tag_509:\n        /* \"#utility.yul\":8387:8515   */\n    tag_508:\n        /* \"#utility.yul\":7953:8521   */\n      swap3\n      pop\n      swap3\n      swap1\n      pop\n      jump\t// out\n        /* \"#utility.yul\":8527:9461   */\n    tag_82:\n        /* \"#utility.yul\":8649:8655   */\n      0x00\n        /* \"#utility.yul\":8657:8663   */\n      0x00\n        /* \"#utility.yul\":8665:8671   */\n      0x00\n        /* \"#utility.yul\":8673:8679   */\n      0x00\n        /* \"#utility.yul\":8722:8724   */\n      0x40\n        /* \"#utility.yul\":8710:8719   */\n      dup6\n        /* \"#utility.yul\":8701:8708   */\n      dup8\n        /* \"#utility.yul\":8697:8720   */\n      sub\n        /* \"#utility.yul\":8693:8725   */\n      slt\n        /* \"#utility.yul\":8690:8809   */\n      iszero\n      tag_511\n      jumpi\n        /* \"#utility.yul\":8728:8807   */\n      tag_512\n      tag_322\n      jump\t// in\n    tag_512:\n        /* \"#utility.yul\":8690:8809   */\n    tag_511:\n        /* \"#utility.yul\":8876:8877   */\n      0x00\n        /* \"#utility.yul\":8865:8874   */\n      dup6\n        /* \"#utility.yul\":8861:8878   */\n      add\n        /* \"#utility.yul\":8848:8879   */\n      calldataload\n        /* \"#utility.yul\":8906:8924   */\n      0xffffffffffffffff\n        /* \"#utility.yul\":8898:8904   */\n      dup2\n        /* \"#utility.yul\":8895:8925   */\n      gt\n        /* \"#utility.yul\":8892:9009   */\n      iszero\n      tag_513\n      jumpi\n        /* \"#utility.yul\":8928:9007   */\n      tag_514\n      tag_323\n      jump\t// in\n    tag_514:\n        /* \"#utility.yul\":8892:9009   */\n    tag_513:\n        /* \"#utility.yul\":9041:9121   */\n      tag_515\n        /* \"#utility.yul\":9113:9120   */\n      dup8\n        /* \"#utility.yul\":9104:9110   */\n      dup3\n        /* \"#utility.yul\":9093:9102   */\n      dup9\n        /* \"#utility.yul\":9089:9111   */\n      add\n        /* \"#utility.yul\":9041:9121   */\n      tag_346\n      jump\t// in\n    tag_515:\n        /* \"#utility.yul\":9023:9121   */\n      swap5\n      pop\n      swap5\n      pop\n        /* \"#utility.yul\":8819:9131   */\n      pop\n        /* \"#utility.yul\":9198:9200   */\n      0x20\n        /* \"#utility.yul\":9187:9196   */\n      dup6\n        /* \"#utility.yul\":9183:9201   */\n      add\n        /* \"#utility.yul\":9170:9202   */\n      calldataload\n        /* \"#utility.yul\":9229:9247   */\n      0xffffffffffffffff\n        /* \"#utility.yul\":9221:9227   */\n      dup2\n        /* \"#utility.yul\":9218:9248   */\n      gt\n        /* \"#utility.yul\":9215:9332   */\n      iszero\n      tag_516\n      jumpi\n        /* \"#utility.yul\":9251:9330   */\n      tag_517\n      tag_323\n      jump\t// in\n    tag_517:\n        /* \"#utility.yul\":9215:9332   */\n    tag_516:\n        /* \"#utility.yul\":9364:9444   */\n      tag_518\n        /* \"#utility.yul\":9436:9443   */\n      dup8\n        /* \"#utility.yul\":9427:9433   */\n      dup3\n        /* \"#utility.yul\":9416:9425   */\n      dup9\n        /* \"#utility.yul\":9412:9434   */\n      add\n        /* \"#utility.yul\":9364:9444   */\n      tag_347\n      jump\t// in\n    tag_518:\n        /* \"#utility.yul\":9346:9444   */\n      swap3\n      pop\n      swap3\n      pop\n        /* \"#utility.yul\":9141:9454   */\n      pop\n        /* \"#utility.yul\":8527:9461   */\n      swap3\n      swap6\n      swap2\n      swap5\n      pop\n      swap3\n      pop\n      jump\t// out\n        /* \"#utility.yul\":9467:9581   */\n    tag_348:\n        /* \"#utility.yul\":9534:9540   */\n      0x00\n        /* \"#utility.yul\":9568:9573   */\n      dup2\n        /* \"#utility.yul\":9562:9574   */\n      mload\n        /* \"#utility.yul\":9552:9574   */\n      swap1\n      pop\n        /* \"#utility.yul\":9467:9581   */\n      swap2\n      swap1\n      pop\n      jump\t// out\n        /* \"#utility.yul\":9587:9771   */\n    tag_349:\n        /* \"#utility.yul\":9686:9697   */\n      0x00\n        /* \"#utility.yul\":9720:9726   */\n      dup3\n        /* \"#utility.yul\":9715:9718   */\n      dup3\n        /* \"#utility.yul\":9708:9727   */\n      mstore\n        /* \"#utility.yul\":9760:9764   */\n      0x20\n        /* \"#utility.yul\":9755:9758   */\n      dup3\n        /* \"#utility.yul\":9751:9765   */\n      add\n        /* \"#utility.yul\":9736:9765   */\n      swap1\n      pop\n        /* \"#utility.yul\":9587:9771   */\n      swap3\n      swap2\n      pop\n      pop\n      jump\t// out\n        /* \"#utility.yul\":9777:9909   */\n    tag_350:\n        /* \"#utility.yul\":9844:9848   */\n      0x00\n        /* \"#utility.yul\":9867:9870   */\n      dup2\n        /* \"#utility.yul\":9859:9870   */\n      swap1\n      pop\n        /* \"#utility.yul\":9897:9901   */\n      0x20\n        /* \"#utility.yul\":9892:9895   */\n      dup3\n        /* \"#utility.yul\":9888:9902   */\n      add\n        /* \"#utility.yul\":9880:9902   */\n      swap1\n      pop\n        /* \"#utility.yul\":9777:9909   */\n      swap2\n      swap1\n      pop\n      jump\t// out\n        /* \"#utility.yul\":9915:10023   */\n    tag_351:\n        /* \"#utility.yul\":9992:10016   */\n      tag_523\n        /* \"#utility.yul\":10010:10015   */\n      dup2\n        /* \"#utility.yul\":9992:10016   */\n      tag_328\n      jump\t// in\n    tag_523:\n        /* \"#utility.yul\":9987:9990   */\n      dup3\n        /* \"#utility.yul\":9980:10017   */\n      mstore\n        /* \"#utility.yul\":9915:10023   */\n      pop\n      pop\n      jump\t// out\n        /* \"#utility.yul\":10029:10208   */\n    tag_352:\n        /* \"#utility.yul\":10098:10108   */\n      0x00\n        /* \"#utility.yul\":10119:10165   */\n      tag_525\n        /* \"#utility.yul\":10161:10164   */\n      dup4\n        /* \"#utility.yul\":10153:10159   */\n      dup4\n        /* \"#utility.yul\":10119:10165   */\n      tag_351\n      jump\t// in\n    tag_525:\n        /* \"#utility.yul\":10197:10201   */\n      0x20\n        /* \"#utility.yul\":10192:10195   */\n      dup4\n        /* \"#utility.yul\":10188:10202   */\n      add\n        /* \"#utility.yul\":10174:10202   */\n      swap1\n      pop\n        /* \"#utility.yul\":10029:10208   */\n      swap3\n      swap2\n      pop\n      pop\n      jump\t// out\n        /* \"#utility.yul\":10214:10327   */\n    tag_353:\n        /* \"#utility.yul\":10284:10288   */\n      0x00\n        /* \"#utility.yul\":10316:10320   */\n      0x20\n        /* \"#utility.yul\":10311:10314   */\n      dup3\n        /* \"#utility.yul\":10307:10321   */\n      add\n        /* \"#utility.yul\":10299:10321   */\n      swap1\n      pop\n        /* \"#utility.yul\":10214:10327   */\n      swap2\n      swap1\n      pop\n      jump\t// out\n        /* \"#utility.yul\":10363:11095   */\n    tag_354:\n        /* \"#utility.yul\":10482:10485   */\n      0x00\n        /* \"#utility.yul\":10511:10565   */\n      tag_528\n        /* \"#utility.yul\":10559:10564   */\n      dup3\n        /* \"#utility.yul\":10511:10565   */\n      tag_348\n      jump\t// in\n    tag_528:\n        /* \"#utility.yul\":10581:10667   */\n      tag_529\n        /* \"#utility.yul\":10660:10666   */\n      dup2\n        /* \"#utility.yul\":10655:10658   */\n      dup6\n        /* \"#utility.yul\":10581:10667   */\n      tag_349\n      jump\t// in\n    tag_529:\n        /* \"#utility.yul\":10574:10667   */\n      swap4\n      pop\n        /* \"#utility.yul\":10691:10747   */\n      tag_530\n        /* \"#utility.yul\":10741:10746   */\n      dup4\n        /* \"#utility.yul\":10691:10747   */\n      tag_350\n      jump\t// in\n    tag_530:\n        /* \"#utility.yul\":10770:10777   */\n      dup1\n        /* \"#utility.yul\":10801:10802   */\n      0x00\n        /* \"#utility.yul\":10786:11070   */\n    tag_531:\n        /* \"#utility.yul\":10811:10817   */\n      dup4\n        /* \"#utility.yul\":10808:10809   */\n      dup2\n        /* \"#utility.yul\":10805:10818   */\n      lt\n        /* \"#utility.yul\":10786:11070   */\n      iszero\n      tag_533\n      jumpi\n        /* \"#utility.yul\":10887:10893   */\n      dup2\n        /* \"#utility.yul\":10881:10894   */\n      mload\n        /* \"#utility.yul\":10914:10977   */\n      tag_534\n        /* \"#utility.yul\":10973:10976   */\n      dup9\n        /* \"#utility.yul\":10958:10971   */\n      dup3\n        /* \"#utility.yul\":10914:10977   */\n      tag_352\n      jump\t// in\n    tag_534:\n        /* \"#utility.yul\":10907:10977   */\n      swap8\n      pop\n        /* \"#utility.yul\":11000:11060   */\n      tag_535\n        /* \"#utility.yul\":11053:11059   */\n      dup4\n        /* \"#utility.yul\":11000:11060   */\n      tag_353\n      jump\t// in\n    tag_535:\n        /* \"#utility.yul\":10990:11060   */\n      swap3\n      pop\n        /* \"#utility.yul\":10846:11070   */\n      pop\n        /* \"#utility.yul\":10833:10834   */\n      0x01\n        /* \"#utility.yul\":10830:10831   */\n      dup2\n        /* \"#utility.yul\":10826:10835   */\n      add\n        /* \"#utility.yul\":10821:10835   */\n      swap1\n      pop\n        /* \"#utility.yul\":10786:11070   */\n      jump(tag_531)\n    tag_533:\n        /* \"#utility.yul\":10790:10804   */\n      pop\n        /* \"#utility.yul\":11086:11089   */\n      dup6\n        /* \"#utility.yul\":11079:11089   */\n      swap4\n      pop\n        /* \"#utility.yul\":10487:11095   */\n      pop\n      pop\n      pop\n        /* \"#utility.yul\":10363:11095   */\n      swap3\n      swap2\n      pop\n      pop\n      jump\t// out\n        /* \"#utility.yul\":11101:11474   */\n    tag_85:\n        /* \"#utility.yul\":11244:11248   */\n      0x00\n        /* \"#utility.yul\":11282:11284   */\n      0x20\n        /* \"#utility.yul\":11271:11280   */\n      dup3\n        /* \"#utility.yul\":11267:11285   */\n      add\n        /* \"#utility.yul\":11259:11285   */\n      swap1\n      pop\n        /* \"#utility.yul\":11331:11340   */\n      dup2\n        /* \"#utility.yul\":11325:11329   */\n      dup2\n        /* \"#utility.yul\":11321:11341   */\n      sub\n        /* \"#utility.yul\":11317:11318   */\n      0x00\n        /* \"#utility.yul\":11306:11315   */\n      dup4\n        /* \"#utility.yul\":11302:11319   */\n      add\n        /* \"#utility.yul\":11295:11342   */\n      mstore\n        /* \"#utility.yul\":11359:11467   */\n      tag_537\n        /* \"#utility.yul\":11462:11466   */\n      dup2\n        /* \"#utility.yul\":11453:11459   */\n      dup5\n        /* \"#utility.yul\":11359:11467   */\n      tag_354\n      jump\t// in\n    tag_537:\n        /* \"#utility.yul\":11351:11467   */\n      swap1\n      pop\n        /* \"#utility.yul\":11101:11474   */\n      swap3\n      swap2\n      pop\n      pop\n      jump\t// out\n        /* \"#utility.yul\":11480:12354   */\n    tag_91:\n        /* \"#utility.yul\":11735:11739   */\n      0x00\n        /* \"#utility.yul\":11773:11776   */\n      0xe0\n        /* \"#utility.yul\":11762:11771   */\n      dup3\n        /* \"#utility.yul\":11758:11777   */\n      add\n        /* \"#utility.yul\":11750:11777   */\n      swap1\n      pop\n        /* \"#utility.yul\":11787:11858   */\n      tag_539\n        /* \"#utility.yul\":11855:11856   */\n      0x00\n        /* \"#utility.yul\":11844:11853   */\n      dup4\n        /* \"#utility.yul\":11840:11857   */\n      add\n        /* \"#utility.yul\":11831:11837   */\n      dup11\n        /* \"#utility.yul\":11787:11858   */\n      tag_342\n      jump\t// in\n    tag_539:\n        /* \"#utility.yul\":11868:11940   */\n      tag_540\n        /* \"#utility.yul\":11936:11938   */\n      0x20\n        /* \"#utility.yul\":11925:11934   */\n      dup4\n        /* \"#utility.yul\":11921:11939   */\n      add\n        /* \"#utility.yul\":11912:11918   */\n      dup10\n        /* \"#utility.yul\":11868:11940   */\n      tag_331\n      jump\t// in\n    tag_540:\n        /* \"#utility.yul\":11950:12022   */\n      tag_541\n        /* \"#utility.yul\":12018:12020   */\n      0x40\n        /* \"#utility.yul\":12007:12016   */\n      dup4\n        /* \"#utility.yul\":12003:12021   */\n      add\n        /* \"#utility.yul\":11994:12000   */\n      dup9\n        /* \"#utility.yul\":11950:12022   */\n      tag_331\n      jump\t// in\n    tag_541:\n        /* \"#utility.yul\":12032:12104   */\n      tag_542\n        /* \"#utility.yul\":12100:12102   */\n      0x60\n        /* \"#utility.yul\":12089:12098   */\n      dup4\n        /* \"#utility.yul\":12085:12103   */\n      add\n        /* \"#utility.yul\":12076:12082   */\n      dup8\n        /* \"#utility.yul\":12032:12104   */\n      tag_331\n      jump\t// in\n    tag_542:\n        /* \"#utility.yul\":12114:12187   */\n      tag_543\n        /* \"#utility.yul\":12182:12185   */\n      0x80\n        /* \"#utility.yul\":12171:12180   */\n      dup4\n        /* \"#utility.yul\":12167:12186   */\n      add\n        /* \"#utility.yul\":12158:12164   */\n      dup7\n        /* \"#utility.yul\":12114:12187   */\n      tag_331\n      jump\t// in\n    tag_543:\n        /* \"#utility.yul\":12197:12270   */\n      tag_544\n        /* \"#utility.yul\":12265:12268   */\n      0xa0\n        /* \"#utility.yul\":12254:12263   */\n      dup4\n        /* \"#utility.yul\":12250:12269   */\n      add\n        /* \"#utility.yul\":12241:12247   */\n      dup6\n        /* \"#utility.yul\":12197:12270   */\n      tag_342\n      jump\t// in\n    tag_544:\n        /* \"#utility.yul\":12280:12347   */\n      tag_545\n        /* \"#utility.yul\":12342:12345   */\n      0xc0\n        /* \"#utility.yul\":12331:12340   */\n      dup4\n        /* \"#utility.yul\":12327:12346   */\n      add\n        /* \"#utility.yul\":12318:12324   */\n      dup5\n        /* \"#utility.yul\":12280:12347   */\n      tag_336\n      jump\t// in\n    tag_545:\n        /* \"#utility.yul\":11480:12354   */\n      swap9\n      swap8\n      pop\n      pop\n      pop\n      pop\n      pop\n      pop\n      pop\n      pop\n      jump\t// out\n        /* \"#utility.yul\":12360:12582   */\n    tag_103:\n        /* \"#utility.yul\":12453:12457   */\n      0x00\n        /* \"#utility.yul\":12491:12493   */\n      0x20\n        /* \"#utility.yul\":12480:12489   */\n      dup3\n        /* \"#utility.yul\":12476:12494   */\n      add\n        /* \"#utility.yul\":12468:12494   */\n      swap1\n      pop\n        /* \"#utility.yul\":12504:12575   */\n      tag_547\n        /* \"#utility.yul\":12572:12573   */\n      0x00\n        /* \"#utility.yul\":12561:12570   */\n      dup4\n        /* \"#utility.yul\":12557:12574   */\n      add\n        /* \"#utility.yul\":12548:12554   */\n      dup5\n        /* \"#utility.yul\":12504:12575   */\n      tag_342\n      jump\t// in\n    tag_547:\n        /* \"#utility.yul\":12360:12582   */\n      swap3\n      swap2\n      pop\n      pop\n      jump\t// out\n        /* \"#utility.yul\":12588:12704   */\n    tag_355:\n        /* \"#utility.yul\":12658:12679   */\n      tag_549\n        /* \"#utility.yul\":12673:12678   */\n      dup2\n        /* \"#utility.yul\":12658:12679   */\n      tag_335\n      jump\t// in\n    tag_549:\n        /* \"#utility.yul\":12651:12656   */\n      dup2\n        /* \"#utility.yul\":12648:12680   */\n      eq\n        /* \"#utility.yul\":12638:12698   */\n      tag_550\n      jumpi\n        /* \"#utility.yul\":12694:12695   */\n      0x00\n        /* \"#utility.yul\":12691:12692   */\n      0x00\n        /* \"#utility.yul\":12684:12696   */\n      revert\n        /* \"#utility.yul\":12638:12698   */\n    tag_550:\n        /* \"#utility.yul\":12588:12704   */\n      pop\n      jump\t// out\n        /* \"#utility.yul\":12710:12843   */\n    tag_356:\n        /* \"#utility.yul\":12753:12758   */\n      0x00\n        /* \"#utility.yul\":12791:12797   */\n      dup2\n        /* \"#utility.yul\":12778:12798   */\n      calldataload\n        /* \"#utility.yul\":12769:12798   */\n      swap1\n      pop\n        /* \"#utility.yul\":12807:12837   */\n      tag_552\n        /* \"#utility.yul\":12831:12836   */\n      dup2\n        /* \"#utility.yul\":12807:12837   */\n      tag_355\n      jump\t// in\n    tag_552:\n        /* \"#utility.yul\":12710:12843   */\n      swap3\n      swap2\n      pop\n      pop\n      jump\t// out\n        /* \"#utility.yul\":12849:13317   */\n    tag_107:\n        /* \"#utility.yul\":12914:12920   */\n      0x00\n        /* \"#utility.yul\":12922:12928   */\n      0x00\n        /* \"#utility.yul\":12971:12973   */\n      0x40\n        /* \"#utility.yul\":12959:12968   */\n      dup4\n        /* \"#utility.yul\":12950:12957   */\n      dup6\n        /* \"#utility.yul\":12946:12969   */\n      sub\n        /* \"#utility.yul\":12942:12974   */\n      slt\n        /* \"#utility.yul\":12939:13058   */\n      iszero\n      tag_554\n      jumpi\n        /* \"#utility.yul\":12977:13056   */\n      tag_555\n      tag_322\n      jump\t// in\n    tag_555:\n        /* \"#utility.yul\":12939:13058   */\n    tag_554:\n        /* \"#utility.yul\":13097:13098   */\n      0x00\n        /* \"#utility.yul\":13122:13175   */\n      tag_556\n        /* \"#utility.yul\":13167:13174   */\n      dup6\n        /* \"#utility.yul\":13158:13164   */\n      dup3\n        /* \"#utility.yul\":13147:13156   */\n      dup7\n        /* \"#utility.yul\":13143:13165   */\n      add\n        /* \"#utility.yul\":13122:13175   */\n      tag_327\n      jump\t// in\n    tag_556:\n        /* \"#utility.yul\":13112:13175   */\n      swap3\n      pop\n        /* \"#utility.yul\":13068:13185   */\n      pop\n        /* \"#utility.yul\":13224:13226   */\n      0x20\n        /* \"#utility.yul\":13250:13300   */\n      tag_557\n        /* \"#utility.yul\":13292:13299   */\n      dup6\n        /* \"#utility.yul\":13283:13289   */\n      dup3\n        /* \"#utility.yul\":13272:13281   */\n      dup7\n        /* \"#utility.yul\":13268:13290   */\n      add\n        /* \"#utility.yul\":13250:13300   */\n      tag_356\n      jump\t// in\n    tag_557:\n        /* \"#utility.yul\":13240:13300   */\n      swap2\n      pop\n        /* \"#utility.yul\":13195:13310   */\n      pop\n        /* \"#utility.yul\":12849:13317   */\n      swap3\n      pop\n      swap3\n      swap1\n      pop\n      jump\t// out\n        /* \"#utility.yul\":13323:13942   */\n    tag_116:\n        /* \"#utility.yul\":13400:13406   */\n      0x00\n        /* \"#utility.yul\":13408:13414   */\n      0x00\n        /* \"#utility.yul\":13416:13422   */\n      0x00\n        /* \"#utility.yul\":13465:13467   */\n      0x60\n        /* \"#utility.yul\":13453:13462   */\n      dup5\n        /* \"#utility.yul\":13444:13451   */\n      dup7\n        /* \"#utility.yul\":13440:13463   */\n      sub\n        /* \"#utility.yul\":13436:13468   */\n      slt\n        /* \"#utility.yul\":13433:13552   */\n      iszero\n      tag_559\n      jumpi\n        /* \"#utility.yul\":13471:13550   */\n      tag_560\n      tag_322\n      jump\t// in\n    tag_560:\n        /* \"#utility.yul\":13433:13552   */\n    tag_559:\n        /* \"#utility.yul\":13591:13592   */\n      0x00\n        /* \"#utility.yul\":13616:13669   */\n      tag_561\n        /* \"#utility.yul\":13661:13668   */\n      dup7\n        /* \"#utility.yul\":13652:13658   */\n      dup3\n        /* \"#utility.yul\":13641:13650   */\n      dup8\n        /* \"#utility.yul\":13637:13659   */\n      add\n        /* \"#utility.yul\":13616:13669   */\n      tag_330\n      jump\t// in\n    tag_561:\n        /* \"#utility.yul\":13606:13669   */\n      swap4\n      pop\n        /* \"#utility.yul\":13562:13679   */\n      pop\n        /* \"#utility.yul\":13718:13720   */\n      0x20\n        /* \"#utility.yul\":13744:13797   */\n      tag_562\n        /* \"#utility.yul\":13789:13796   */\n      dup7\n        /* \"#utility.yul\":13780:13786   */\n      dup3\n        /* \"#utility.yul\":13769:13778   */\n      dup8\n        /* \"#utility.yul\":13765:13787   */\n      add\n        /* \"#utility.yul\":13744:13797   */\n      tag_330\n      jump\t// in\n    tag_562:\n        /* \"#utility.yul\":13734:13797   */\n      swap3\n      pop\n        /* \"#utility.yul\":13689:13807   */\n      pop\n        /* \"#utility.yul\":13846:13848   */\n      0x40\n        /* \"#utility.yul\":13872:13925   */\n      tag_563\n        /* \"#utility.yul\":13917:13924   */\n      dup7\n        /* \"#utility.yul\":13908:13914   */\n      dup3\n        /* \"#utility.yul\":13897:13906   */\n      dup8\n        /* \"#utility.yul\":13893:13915   */\n      add\n        /* \"#utility.yul\":13872:13925   */\n      tag_330\n      jump\t// in\n    tag_563:\n        /* \"#utility.yul\":13862:13925   */\n      swap2\n      pop\n        /* \"#utility.yul\":13817:13935   */\n      pop\n        /* \"#utility.yul\":13323:13942   */\n      swap3\n      pop\n      swap3\n      pop\n      swap3\n      jump\t// out\n        /* \"#utility.yul\":13948:14422   */\n    tag_122:\n        /* \"#utility.yul\":14016:14022   */\n      0x00\n        /* \"#utility.yul\":14024:14030   */\n      0x00\n        /* \"#utility.yul\":14073:14075   */\n      0x40\n        /* \"#utility.yul\":14061:14070   */\n      dup4\n        /* \"#utility.yul\":14052:14059   */\n      dup6\n        /* \"#utility.yul\":14048:14071   */\n      sub\n        /* \"#utility.yul\":14044:14076   */\n      slt\n        /* \"#utility.yul\":14041:14160   */\n      iszero\n      tag_565\n      jumpi\n        /* \"#utility.yul\":14079:14158   */\n      tag_566\n      tag_322\n      jump\t// in\n    tag_566:\n        /* \"#utility.yul\":14041:14160   */\n    tag_565:\n        /* \"#utility.yul\":14199:14200   */\n      0x00\n        /* \"#utility.yul\":14224:14277   */\n      tag_567\n        /* \"#utility.yul\":14269:14276   */\n      dup6\n        /* \"#utility.yul\":14260:14266   */\n      dup3\n        /* \"#utility.yul\":14249:14258   */\n      dup7\n        /* \"#utility.yul\":14245:14267   */\n      add\n        /* \"#utility.yul\":14224:14277   */\n      tag_327\n      jump\t// in\n    tag_567:\n        /* \"#utility.yul\":14214:14277   */\n      swap3\n      pop\n        /* \"#utility.yul\":14170:14287   */\n      pop\n        /* \"#utility.yul\":14326:14328   */\n      0x20\n        /* \"#utility.yul\":14352:14405   */\n      tag_568\n        /* \"#utility.yul\":14397:14404   */\n      dup6\n        /* \"#utility.yul\":14388:14394   */\n      dup3\n        /* \"#utility.yul\":14377:14386   */\n      dup7\n        /* \"#utility.yul\":14373:14395   */\n      add\n        /* \"#utility.yul\":14352:14405   */\n      tag_327\n      jump\t// in\n    tag_568:\n        /* \"#utility.yul\":14342:14405   */\n      swap2\n      pop\n        /* \"#utility.yul\":14297:14415   */\n      pop\n        /* \"#utility.yul\":13948:14422   */\n      swap3\n      pop\n      swap3\n      swap1\n      pop\n      jump\t// out\n        /* \"#utility.yul\":14428:15653   */\n    tag_128:\n        /* \"#utility.yul\":14568:14574   */\n      0x00\n        /* \"#utility.yul\":14576:14582   */\n      0x00\n        /* \"#utility.yul\":14584:14590   */\n      0x00\n        /* \"#utility.yul\":14592:14598   */\n      0x00\n        /* \"#utility.yul\":14600:14606   */\n      0x00\n        /* \"#utility.yul\":14608:14614   */\n      0x00\n        /* \"#utility.yul\":14657:14660   */\n      0x80\n        /* \"#utility.yul\":14645:14654   */\n      dup8\n        /* \"#utility.yul\":14636:14643   */\n      dup10\n        /* \"#utility.yul\":14632:14655   */\n      sub\n        /* \"#utility.yul\":14628:14661   */\n      slt\n        /* \"#utility.yul\":14625:14745   */\n      iszero\n      tag_570\n      jumpi\n        /* \"#utility.yul\":14664:14743   */\n      tag_571\n      tag_322\n      jump\t// in\n    tag_571:\n        /* \"#utility.yul\":14625:14745   */\n    tag_570:\n        /* \"#utility.yul\":14784:14785   */\n      0x00\n        /* \"#utility.yul\":14809:14862   */\n      tag_572\n        /* \"#utility.yul\":14854:14861   */\n      dup10\n        /* \"#utility.yul\":14845:14851   */\n      dup3\n        /* \"#utility.yul\":14834:14843   */\n      dup11\n        /* \"#utility.yul\":14830:14852   */\n      add\n        /* \"#utility.yul\":14809:14862   */\n      tag_327\n      jump\t// in\n    tag_572:\n        /* \"#utility.yul\":14799:14862   */\n      swap7\n      pop\n        /* \"#utility.yul\":14755:14872   */\n      pop\n        /* \"#utility.yul\":14911:14913   */\n      0x20\n        /* \"#utility.yul\":14937:14990   */\n      tag_573\n        /* \"#utility.yul\":14982:14989   */\n      dup10\n        /* \"#utility.yul\":14973:14979   */\n      dup3\n        /* \"#utility.yul\":14962:14971   */\n      dup11\n        /* \"#utility.yul\":14958:14980   */\n      add\n        /* \"#utility.yul\":14937:14990   */\n      tag_327\n      jump\t// in\n    tag_573:\n        /* \"#utility.yul\":14927:14990   */\n      swap6\n      pop\n        /* \"#utility.yul\":14882:15000   */\n      pop\n        /* \"#utility.yul\":15067:15069   */\n      0x40\n        /* \"#utility.yul\":15056:15065   */\n      dup8\n        /* \"#utility.yul\":15052:15070   */\n      add\n        /* \"#utility.yul\":15039:15071   */\n      calldataload\n        /* \"#utility.yul\":15098:15116   */\n      0xffffffffffffffff\n        /* \"#utility.yul\":15090:15096   */\n      dup2\n        /* \"#utility.yul\":15087:15117   */\n      gt\n        /* \"#utility.yul\":15084:15201   */\n      iszero\n      tag_574\n      jumpi\n        /* \"#utility.yul\":15120:15199   */\n      tag_575\n      tag_323\n      jump\t// in\n    tag_575:\n        /* \"#utility.yul\":15084:15201   */\n    tag_574:\n        /* \"#utility.yul\":15233:15313   */\n      tag_576\n        /* \"#utility.yul\":15305:15312   */\n      dup10\n        /* \"#utility.yul\":15296:15302   */\n      dup3\n        /* \"#utility.yul\":15285:15294   */\n      dup11\n        /* \"#utility.yul\":15281:15303   */\n      add\n        /* \"#utility.yul\":15233:15313   */\n      tag_347\n      jump\t// in\n    tag_576:\n        /* \"#utility.yul\":15215:15313   */\n      swap5\n      pop\n      swap5\n      pop\n        /* \"#utility.yul\":15010:15323   */\n      pop\n        /* \"#utility.yul\":15390:15392   */\n      0x60\n        /* \"#utility.yul\":15379:15388   */\n      dup8\n        /* \"#utility.yul\":15375:15393   */\n      add\n        /* \"#utility.yul\":15362:15394   */\n      calldataload\n        /* \"#utility.yul\":15421:15439   */\n      0xffffffffffffffff\n        /* \"#utility.yul\":15413:15419   */\n      dup2\n        /* \"#utility.yul\":15410:15440   */\n      gt\n        /* \"#utility.yul\":15407:15524   */\n      iszero\n      tag_577\n      jumpi\n        /* \"#utility.yul\":15443:15522   */\n      tag_578\n      tag_323\n      jump\t// in\n    tag_578:\n        /* \"#utility.yul\":15407:15524   */\n    tag_577:\n        /* \"#utility.yul\":15556:15636   */\n      tag_579\n        /* \"#utility.yul\":15628:15635   */\n      dup10\n        /* \"#utility.yul\":15619:15625   */\n      dup3\n        /* \"#utility.yul\":15608:15617   */\n      dup11\n        /* \"#utility.yul\":15604:15626   */\n      add\n        /* \"#utility.yul\":15556:15636   */\n      tag_347\n      jump\t// in\n    tag_579:\n        /* \"#utility.yul\":15538:15636   */\n      swap3\n      pop\n      swap3\n      pop\n        /* \"#utility.yul\":15333:15646   */\n      pop\n        /* \"#utility.yul\":14428:15653   */\n      swap3\n      swap6\n      pop\n      swap3\n      swap6\n      pop\n      swap3\n      swap6\n      jump\t// out\n        /* \"#utility.yul\":15659:15776   */\n    tag_357:\n        /* \"#utility.yul\":15768:15769   */\n      0x00\n        /* \"#utility.yul\":15765:15766   */\n      0x00\n        /* \"#utility.yul\":15758:15770   */\n      revert\n        /* \"#utility.yul\":15782:15962   */\n    tag_208:\n        /* \"#utility.yul\":15830:15907   */\n      0x4e487b7100000000000000000000000000000000000000000000000000000000\n        /* \"#utility.yul\":15827:15828   */\n      0x00\n        /* \"#utility.yul\":15820:15908   */\n      mstore\n        /* \"#utility.yul\":15927:15931   */\n      0x41\n        /* \"#utility.yul\":15924:15925   */\n      0x04\n        /* \"#utility.yul\":15917:15932   */\n      mstore\n        /* \"#utility.yul\":15951:15955   */\n      0x24\n        /* \"#utility.yul\":15948:15949   */\n      0x00\n        /* \"#utility.yul\":15941:15956   */\n      revert\n        /* \"#utility.yul\":15968:16249   */\n    tag_358:\n        /* \"#utility.yul\":16051:16078   */\n      tag_583\n        /* \"#utility.yul\":16073:16077   */\n      dup3\n        /* \"#utility.yul\":16051:16078   */\n      tag_340\n      jump\t// in\n    tag_583:\n        /* \"#utility.yul\":16043:16049   */\n      dup2\n        /* \"#utility.yul\":16039:16079   */\n      add\n        /* \"#utility.yul\":16181:16187   */\n      dup2\n        /* \"#utility.yul\":16169:16179   */\n      dup2\n        /* \"#utility.yul\":16166:16188   */\n      lt\n        /* \"#utility.yul\":16145:16163   */\n      0xffffffffffffffff\n        /* \"#utility.yul\":16133:16143   */\n      dup3\n        /* \"#utility.yul\":16130:16164   */\n      gt\n        /* \"#utility.yul\":16127:16189   */\n      or\n        /* \"#utility.yul\":16124:16212   */\n      iszero\n      tag_584\n      jumpi\n        /* \"#utility.yul\":16192:16210   */\n      tag_585\n      tag_208\n      jump\t// in\n    tag_585:\n        /* \"#utility.yul\":16124:16212   */\n    tag_584:\n        /* \"#utility.yul\":16232:16242   */\n      dup1\n        /* \"#utility.yul\":16228:16230   */\n      0x40\n        /* \"#utility.yul\":16221:16243   */\n      mstore\n        /* \"#utility.yul\":16011:16249   */\n      pop\n        /* \"#utility.yul\":15968:16249   */\n      pop\n      pop\n      jump\t// out\n        /* \"#utility.yul\":16255:16384   */\n    tag_359:\n        /* \"#utility.yul\":16289:16295   */\n      0x00\n        /* \"#utility.yul\":16316:16336   */\n      tag_587\n      tag_321\n      jump\t// in\n    tag_587:\n        /* \"#utility.yul\":16306:16336   */\n      swap1\n      pop\n        /* \"#utility.yul\":16345:16378   */\n      tag_588\n        /* \"#utility.yul\":16373:16377   */\n      dup3\n        /* \"#utility.yul\":16365:16371   */\n      dup3\n        /* \"#utility.yul\":16345:16378   */\n      tag_358\n      jump\t// in\n    tag_588:\n        /* \"#utility.yul\":16255:16384   */\n      swap2\n      swap1\n      pop\n      jump\t// out\n        /* \"#utility.yul\":16390:16698   */\n    tag_360:\n        /* \"#utility.yul\":16452:16456   */\n      0x00\n        /* \"#utility.yul\":16542:16560   */\n      0xffffffffffffffff\n        /* \"#utility.yul\":16534:16540   */\n      dup3\n        /* \"#utility.yul\":16531:16561   */\n      gt\n        /* \"#utility.yul\":16528:16584   */\n      iszero\n      tag_590\n      jumpi\n        /* \"#utility.yul\":16564:16582   */\n      tag_591\n      tag_208\n      jump\t// in\n    tag_591:\n        /* \"#utility.yul\":16528:16584   */\n    tag_590:\n        /* \"#utility.yul\":16602:16631   */\n      tag_592\n        /* \"#utility.yul\":16624:16630   */\n      dup3\n        /* \"#utility.yul\":16602:16631   */\n      tag_340\n      jump\t// in\n    tag_592:\n        /* \"#utility.yul\":16594:16631   */\n      swap1\n      pop\n        /* \"#utility.yul\":16686:16690   */\n      0x20\n        /* \"#utility.yul\":16680:16684   */\n      dup2\n        /* \"#utility.yul\":16676:16691   */\n      add\n        /* \"#utility.yul\":16668:16691   */\n      swap1\n      pop\n        /* \"#utility.yul\":16390:16698   */\n      swap2\n      swap1\n      pop\n      jump\t// out\n        /* \"#utility.yul\":16704:16852   */\n    tag_361:\n        /* \"#utility.yul\":16802:16808   */\n      dup3\n        /* \"#utility.yul\":16797:16800   */\n      dup2\n        /* \"#utility.yul\":16792:16795   */\n      dup4\n        /* \"#utility.yul\":16779:16809   */\n      calldatacopy\n        /* \"#utility.yul\":16843:16844   */\n      0x00\n        /* \"#utility.yul\":16834:16840   */\n      dup4\n        /* \"#utility.yul\":16829:16832   */\n      dup4\n        /* \"#utility.yul\":16825:16841   */\n      add\n        /* \"#utility.yul\":16818:16845   */\n      mstore\n        /* \"#utility.yul\":16704:16852   */\n      pop\n      pop\n      pop\n      jump\t// out\n        /* \"#utility.yul\":16858:17283   */\n    tag_362:\n        /* \"#utility.yul\":16936:16941   */\n      0x00\n        /* \"#utility.yul\":16961:17027   */\n      tag_595\n        /* \"#utility.yul\":16977:17026   */\n      tag_596\n        /* \"#utility.yul\":17019:17025   */\n      dup5\n        /* \"#utility.yul\":16977:17026   */\n      tag_360\n      jump\t// in\n    tag_596:\n        /* \"#utility.yul\":16961:17027   */\n      tag_359\n      jump\t// in\n    tag_595:\n        /* \"#utility.yul\":16952:17027   */\n      swap1\n      pop\n        /* \"#utility.yul\":17050:17056   */\n      dup3\n        /* \"#utility.yul\":17043:17048   */\n      dup2\n        /* \"#utility.yul\":17036:17057   */\n      mstore\n        /* \"#utility.yul\":17088:17092   */\n      0x20\n        /* \"#utility.yul\":17081:17086   */\n      dup2\n        /* \"#utility.yul\":17077:17093   */\n      add\n        /* \"#utility.yul\":17126:17129   */\n      dup5\n        /* \"#utility.yul\":17117:17123   */\n      dup5\n        /* \"#utility.yul\":17112:17115   */\n      dup5\n        /* \"#utility.yul\":17108:17124   */\n      add\n        /* \"#utility.yul\":17105:17130   */\n      gt\n        /* \"#utility.yul\":17102:17214   */\n      iszero\n      tag_597\n      jumpi\n        /* \"#utility.yul\":17133:17212   */\n      tag_598\n      tag_357\n      jump\t// in\n    tag_598:\n        /* \"#utility.yul\":17102:17214   */\n    tag_597:\n        /* \"#utility.yul\":17223:17277   */\n      tag_599\n        /* \"#utility.yul\":17270:17276   */\n      dup5\n        /* \"#utility.yul\":17265:17268   */\n      dup3\n        /* \"#utility.yul\":17260:17263   */\n      dup6\n        /* \"#utility.yul\":17223:17277   */\n      tag_361\n      jump\t// in\n    tag_599:\n        /* \"#utility.yul\":16942:17283   */\n      pop\n        /* \"#utility.yul\":16858:17283   */\n      swap4\n      swap3\n      pop\n      pop\n      pop\n      jump\t// out\n        /* \"#utility.yul\":17303:17643   */\n    tag_363:\n        /* \"#utility.yul\":17359:17364   */\n      0x00\n        /* \"#utility.yul\":17408:17411   */\n      dup3\n        /* \"#utility.yul\":17401:17405   */\n      0x1f\n        /* \"#utility.yul\":17393:17399   */\n      dup4\n        /* \"#utility.yul\":17389:17406   */\n      add\n        /* \"#utility.yul\":17385:17412   */\n      slt\n        /* \"#utility.yul\":17375:17497   */\n      tag_601\n      jumpi\n        /* \"#utility.yul\":17416:17495   */\n      tag_602\n      tag_343\n      jump\t// in\n    tag_602:\n        /* \"#utility.yul\":17375:17497   */\n    tag_601:\n        /* \"#utility.yul\":17533:17539   */\n      dup2\n        /* \"#utility.yul\":17520:17540   */\n      calldataload\n        /* \"#utility.yul\":17558:17637   */\n      tag_603\n        /* \"#utility.yul\":17633:17636   */\n      dup5\n        /* \"#utility.yul\":17625:17631   */\n      dup3\n        /* \"#utility.yul\":17618:17622   */\n      0x20\n        /* \"#utility.yul\":17610:17616   */\n      dup7\n        /* \"#utility.yul\":17606:17623   */\n      add\n        /* \"#utility.yul\":17558:17637   */\n      tag_362\n      jump\t// in\n    tag_603:\n        /* \"#utility.yul\":17549:17637   */\n      swap2\n      pop\n        /* \"#utility.yul\":17365:17643   */\n      pop\n        /* \"#utility.yul\":17303:17643   */\n      swap3\n      swap2\n      pop\n      pop\n      jump\t// out\n        /* \"#utility.yul\":17649:17758   */\n    tag_364:\n        /* \"#utility.yul\":17685:17692   */\n      0x00\n        /* \"#utility.yul\":17725:17751   */\n      0xffffffffffffffffffffffff\n        /* \"#utility.yul\":17718:17723   */\n      dup3\n        /* \"#utility.yul\":17714:17752   */\n      and\n        /* \"#utility.yul\":17703:17752   */\n      swap1\n      pop\n        /* \"#utility.yul\":17649:17758   */\n      swap2\n      swap1\n      pop\n      jump\t// out\n        /* \"#utility.yul\":17764:17884   */\n    tag_365:\n        /* \"#utility.yul\":17836:17859   */\n      tag_606\n        /* \"#utility.yul\":17853:17858   */\n      dup2\n        /* \"#utility.yul\":17836:17859   */\n      tag_364\n      jump\t// in\n    tag_606:\n        /* \"#utility.yul\":17829:17834   */\n      dup2\n        /* \"#utility.yul\":17826:17860   */\n      eq\n        /* \"#utility.yul\":17816:17878   */\n      tag_607\n      jumpi\n        /* \"#utility.yul\":17874:17875   */\n      0x00\n        /* \"#utility.yul\":17871:17872   */\n      0x00\n        /* \"#utility.yul\":17864:17876   */\n      revert\n        /* \"#utility.yul\":17816:17878   */\n    tag_607:\n        /* \"#utility.yul\":17764:17884   */\n      pop\n      jump\t// out\n        /* \"#utility.yul\":17890:18027   */\n    tag_366:\n        /* \"#utility.yul\":17935:17940   */\n      0x00\n        /* \"#utility.yul\":17973:17979   */\n      dup2\n        /* \"#utility.yul\":17960:17980   */\n      calldataload\n        /* \"#utility.yul\":17951:17980   */\n      swap1\n      pop\n        /* \"#utility.yul\":17989:18021   */\n      tag_609\n        /* \"#utility.yul\":18015:18020   */\n      dup2\n        /* \"#utility.yul\":17989:18021   */\n      tag_365\n      jump\t// in\n    tag_609:\n        /* \"#utility.yul\":17890:18027   */\n      swap3\n      swap2\n      pop\n      pop\n      jump\t// out\n        /* \"#utility.yul\":18033:19268   */\n    tag_133:\n        /* \"#utility.yul\":18146:18152   */\n      0x00\n        /* \"#utility.yul\":18154:18160   */\n      0x00\n        /* \"#utility.yul\":18162:18168   */\n      0x00\n        /* \"#utility.yul\":18170:18176   */\n      0x00\n        /* \"#utility.yul\":18178:18184   */\n      0x00\n        /* \"#utility.yul\":18186:18192   */\n      0x00\n        /* \"#utility.yul\":18235:18238   */\n      0xc0\n        /* \"#utility.yul\":18223:18232   */\n      dup8\n        /* \"#utility.yul\":18214:18221   */\n      dup10\n        /* \"#utility.yul\":18210:18233   */\n      sub\n        /* \"#utility.yul\":18206:18239   */\n      slt\n        /* \"#utility.yul\":18203:18323   */\n      iszero\n      tag_611\n      jumpi\n        /* \"#utility.yul\":18242:18321   */\n      tag_612\n      tag_322\n      jump\t// in\n    tag_612:\n        /* \"#utility.yul\":18203:18323   */\n    tag_611:\n        /* \"#utility.yul\":18362:18363   */\n      0x00\n        /* \"#utility.yul\":18387:18440   */\n      tag_613\n        /* \"#utility.yul\":18432:18439   */\n      dup10\n        /* \"#utility.yul\":18423:18429   */\n      dup3\n        /* \"#utility.yul\":18412:18421   */\n      dup11\n        /* \"#utility.yul\":18408:18430   */\n      add\n        /* \"#utility.yul\":18387:18440   */\n      tag_327\n      jump\t// in\n    tag_613:\n        /* \"#utility.yul\":18377:18440   */\n      swap7\n      pop\n        /* \"#utility.yul\":18333:18450   */\n      pop\n        /* \"#utility.yul\":18489:18491   */\n      0x20\n        /* \"#utility.yul\":18515:18568   */\n      tag_614\n        /* \"#utility.yul\":18560:18567   */\n      dup10\n        /* \"#utility.yul\":18551:18557   */\n      dup3\n        /* \"#utility.yul\":18540:18549   */\n      dup11\n        /* \"#utility.yul\":18536:18558   */\n      add\n        /* \"#utility.yul\":18515:18568   */\n      tag_330\n      jump\t// in\n    tag_614:\n        /* \"#utility.yul\":18505:18568   */\n      swap6\n      pop\n        /* \"#utility.yul\":18460:18578   */\n      pop\n        /* \"#utility.yul\":18617:18619   */\n      0x40\n        /* \"#utility.yul\":18643:18696   */\n      tag_615\n        /* \"#utility.yul\":18688:18695   */\n      dup10\n        /* \"#utility.yul\":18679:18685   */\n      dup3\n        /* \"#utility.yul\":18668:18677   */\n      dup11\n        /* \"#utility.yul\":18664:18686   */\n      add\n        /* \"#utility.yul\":18643:18696   */\n      tag_330\n      jump\t// in\n    tag_615:\n        /* \"#utility.yul\":18633:18696   */\n      swap5\n      pop\n        /* \"#utility.yul\":18588:18706   */\n      pop\n        /* \"#utility.yul\":18773:18775   */\n      0x60\n        /* \"#utility.yul\":18762:18771   */\n      dup8\n        /* \"#utility.yul\":18758:18776   */\n      add\n        /* \"#utility.yul\":18745:18777   */\n      calldataload\n        /* \"#utility.yul\":18804:18822   */\n      0xffffffffffffffff\n        /* \"#utility.yul\":18796:18802   */\n      dup2\n        /* \"#utility.yul\":18793:18823   */\n      gt\n        /* \"#utility.yul\":18790:18907   */\n      iszero\n      tag_616\n      jumpi\n        /* \"#utility.yul\":18826:18905   */\n      tag_617\n      tag_323\n      jump\t// in\n    tag_617:\n        /* \"#utility.yul\":18790:18907   */\n    tag_616:\n        /* \"#utility.yul\":18931:18994   */\n      tag_618\n        /* \"#utility.yul\":18986:18993   */\n      dup10\n        /* \"#utility.yul\":18977:18983   */\n      dup3\n        /* \"#utility.yul\":18966:18975   */\n      dup11\n        /* \"#utility.yul\":18962:18984   */\n      add\n        /* \"#utility.yul\":18931:18994   */\n      tag_363\n      jump\t// in\n    tag_618:\n        /* \"#utility.yul\":18921:18994   */\n      swap4\n      pop\n        /* \"#utility.yul\":18716:19004   */\n      pop\n        /* \"#utility.yul\":19043:19046   */\n      0x80\n        /* \"#utility.yul\":19070:19123   */\n      tag_619\n        /* \"#utility.yul\":19115:19122   */\n      dup10\n        /* \"#utility.yul\":19106:19112   */\n      dup3\n        /* \"#utility.yul\":19095:19104   */\n      dup11\n        /* \"#utility.yul\":19091:19113   */\n      add\n        /* \"#utility.yul\":19070:19123   */\n      tag_327\n      jump\t// in\n    tag_619:\n        /* \"#utility.yul\":19060:19123   */\n      swap3\n      pop\n        /* \"#utility.yul\":19014:19133   */\n      pop\n        /* \"#utility.yul\":19172:19175   */\n      0xa0\n        /* \"#utility.yul\":19199:19251   */\n      tag_620\n        /* \"#utility.yul\":19243:19250   */\n      dup10\n        /* \"#utility.yul\":19234:19240   */\n      dup3\n        /* \"#utility.yul\":19223:19232   */\n      dup11\n        /* \"#utility.yul\":19219:19241   */\n      add\n        /* \"#utility.yul\":19199:19251   */\n      tag_366\n      jump\t// in\n    tag_620:\n        /* \"#utility.yul\":19189:19251   */\n      swap2\n      pop\n        /* \"#utility.yul\":19143:19261   */\n      pop\n        /* \"#utility.yul\":18033:19268   */\n      swap3\n      swap6\n      pop\n      swap3\n      swap6\n      pop\n      swap3\n      swap6\n      jump\t// out\n        /* \"#utility.yul\":19274:19436   */\n    tag_367:\n        /* \"#utility.yul\":19414:19428   */\n      0x5a65726f20616464726573730000000000000000000000000000000000000000\n        /* \"#utility.yul\":19410:19411   */\n      0x00\n        /* \"#utility.yul\":19402:19408   */\n      dup3\n        /* \"#utility.yul\":19398:19412   */\n      add\n        /* \"#utility.yul\":19391:19429   */\n      mstore\n        /* \"#utility.yul\":19274:19436   */\n      pop\n      jump\t// out\n        /* \"#utility.yul\":19442:19808   */\n    tag_368:\n        /* \"#utility.yul\":19584:19587   */\n      0x00\n        /* \"#utility.yul\":19605:19672   */\n      tag_623\n        /* \"#utility.yul\":19669:19671   */\n      0x0c\n        /* \"#utility.yul\":19664:19667   */\n      dup4\n        /* \"#utility.yul\":19605:19672   */\n      tag_338\n      jump\t// in\n    tag_623:\n        /* \"#utility.yul\":19598:19672   */\n      swap2\n      pop\n        /* \"#utility.yul\":19681:19774   */\n      tag_624\n        /* \"#utility.yul\":19770:19773   */\n      dup3\n        /* \"#utility.yul\":19681:19774   */\n      tag_367\n      jump\t// in\n    tag_624:\n        /* \"#utility.yul\":19799:19801   */\n      0x20\n        /* \"#utility.yul\":19794:19797   */\n      dup3\n        /* \"#utility.yul\":19790:19802   */\n      add\n        /* \"#utility.yul\":19783:19802   */\n      swap1\n      pop\n        /* \"#utility.yul\":19442:19808   */\n      swap2\n      swap1\n      pop\n      jump\t// out\n        /* \"#utility.yul\":19814:20233   */\n    tag_138:\n        /* \"#utility.yul\":19980:19984   */\n      0x00\n        /* \"#utility.yul\":20018:20020   */\n      0x20\n        /* \"#utility.yul\":20007:20016   */\n      dup3\n        /* \"#utility.yul\":20003:20021   */\n      add\n        /* \"#utility.yul\":19995:20021   */\n      swap1\n      pop\n        /* \"#utility.yul\":20067:20076   */\n      dup2\n        /* \"#utility.yul\":20061:20065   */\n      dup2\n        /* \"#utility.yul\":20057:20077   */\n      sub\n        /* \"#utility.yul\":20053:20054   */\n      0x00\n        /* \"#utility.yul\":20042:20051   */\n      dup4\n        /* \"#utility.yul\":20038:20055   */\n      add\n        /* \"#utility.yul\":20031:20078   */\n      mstore\n        /* \"#utility.yul\":20095:20226   */\n      tag_626\n        /* \"#utility.yul\":20221:20225   */\n      dup2\n        /* \"#utility.yul\":20095:20226   */\n      tag_368\n      jump\t// in\n    tag_626:\n        /* \"#utility.yul\":20087:20226   */\n      swap1\n      pop\n        /* \"#utility.yul\":19814:20233   */\n      swap2\n      swap1\n      pop\n      jump\t// out\n        /* \"#utility.yul\":20239:20419   */\n    tag_369:\n        /* \"#utility.yul\":20287:20364   */\n      0x4e487b7100000000000000000000000000000000000000000000000000000000\n        /* \"#utility.yul\":20284:20285   */\n      0x00\n        /* \"#utility.yul\":20277:20365   */\n      mstore\n        /* \"#utility.yul\":20384:20388   */\n      0x22\n        /* \"#utility.yul\":20381:20382   */\n      0x04\n        /* \"#utility.yul\":20374:20389   */\n      mstore\n        /* \"#utility.yul\":20408:20412   */\n      0x24\n        /* \"#utility.yul\":20405:20406   */\n      0x00\n        /* \"#utility.yul\":20398:20413   */\n      revert\n        /* \"#utility.yul\":20425:20745   */\n    tag_143:\n        /* \"#utility.yul\":20469:20475   */\n      0x00\n        /* \"#utility.yul\":20506:20507   */\n      0x02\n        /* \"#utility.yul\":20500:20504   */\n      dup3\n        /* \"#utility.yul\":20496:20508   */\n      div\n        /* \"#utility.yul\":20486:20508   */\n      swap1\n      pop\n        /* \"#utility.yul\":20553:20554   */\n      0x01\n        /* \"#utility.yul\":20547:20551   */\n      dup3\n        /* \"#utility.yul\":20543:20555   */\n      and\n        /* \"#utility.yul\":20574:20592   */\n      dup1\n        /* \"#utility.yul\":20564:20645   */\n      tag_629\n      jumpi\n        /* \"#utility.yul\":20630:20634   */\n      0x7f\n        /* \"#utility.yul\":20622:20628   */\n      dup3\n        /* \"#utility.yul\":20618:20635   */\n      and\n        /* \"#utility.yul\":20608:20635   */\n      swap2\n      pop\n        /* \"#utility.yul\":20564:20645   */\n    tag_629:\n        /* \"#utility.yul\":20692:20694   */\n      0x20\n        /* \"#utility.yul\":20684:20690   */\n      dup3\n        /* \"#utility.yul\":20681:20695   */\n      lt\n        /* \"#utility.yul\":20661:20679   */\n      dup2\n        /* \"#utility.yul\":20658:20696   */\n      sub\n        /* \"#utility.yul\":20655:20739   */\n      tag_630\n      jumpi\n        /* \"#utility.yul\":20711:20729   */\n      tag_631\n      tag_369\n      jump\t// in\n    tag_631:\n        /* \"#utility.yul\":20655:20739   */\n    tag_630:\n        /* \"#utility.yul\":20476:20745   */\n      pop\n        /* \"#utility.yul\":20425:20745   */\n      swap2\n      swap1\n      pop\n      jump\t// out\n        /* \"#utility.yul\":20751:20907   */\n    tag_370:\n        /* \"#utility.yul\":20891:20899   */\n      0x5061757365640000000000000000000000000000000000000000000000000000\n        /* \"#utility.yul\":20887:20888   */\n      0x00\n        /* \"#utility.yul\":20879:20885   */\n      dup3\n        /* \"#utility.yul\":20875:20889   */\n      add\n        /* \"#utility.yul\":20868:20900   */\n      mstore\n        /* \"#utility.yul\":20751:20907   */\n      pop\n      jump\t// out\n        /* \"#utility.yul\":20913:21278   */\n    tag_371:\n        /* \"#utility.yul\":21055:21058   */\n      0x00\n        /* \"#utility.yul\":21076:21142   */\n      tag_634\n        /* \"#utility.yul\":21140:21141   */\n      0x06\n        /* \"#utility.yul\":21135:21138   */\n      dup4\n        /* \"#utility.yul\":21076:21142   */\n      tag_338\n      jump\t// in\n    tag_634:\n        /* \"#utility.yul\":21069:21142   */\n      swap2\n      pop\n        /* \"#utility.yul\":21151:21244   */\n      tag_635\n        /* \"#utility.yul\":21240:21243   */\n      dup3\n        /* \"#utility.yul\":21151:21244   */\n      tag_370\n      jump\t// in\n    tag_635:\n        /* \"#utility.yul\":21269:21271   */\n      0x20\n        /* \"#utility.yul\":21264:21267   */\n      dup3\n        /* \"#utility.yul\":21260:21272   */\n      add\n        /* \"#utility.yul\":21253:21272   */\n      swap1\n      pop\n        /* \"#utility.yul\":20913:21278   */\n      swap2\n      swap1\n      pop\n      jump\t// out\n        /* \"#utility.yul\":21284:21703   */\n    tag_151:\n        /* \"#utility.yul\":21450:21454   */\n      0x00\n        /* \"#utility.yul\":21488:21490   */\n      0x20\n        /* \"#utility.yul\":21477:21486   */\n      dup3\n        /* \"#utility.yul\":21473:21491   */\n      add\n        /* \"#utility.yul\":21465:21491   */\n      swap1\n      pop\n        /* \"#utility.yul\":21537:21546   */\n      dup2\n        /* \"#utility.yul\":21531:21535   */\n      dup2\n        /* \"#utility.yul\":21527:21547   */\n      sub\n        /* \"#utility.yul\":21523:21524   */\n      0x00\n        /* \"#utility.yul\":21512:21521   */\n      dup4\n        /* \"#utility.yul\":21508:21525   */\n      add\n        /* \"#utility.yul\":21501:21548   */\n      mstore\n        /* \"#utility.yul\":21565:21696   */\n      tag_637\n        /* \"#utility.yul\":21691:21695   */\n      dup2\n        /* \"#utility.yul\":21565:21696   */\n      tag_371\n      jump\t// in\n    tag_637:\n        /* \"#utility.yul\":21557:21696   */\n      swap1\n      pop\n        /* \"#utility.yul\":21284:21703   */\n      swap2\n      swap1\n      pop\n      jump\t// out\n        /* \"#utility.yul\":21709:21876   */\n    tag_372:\n        /* \"#utility.yul\":21849:21868   */\n      0x4e6f7468696e6720746f20726566756e64000000000000000000000000000000\n        /* \"#utility.yul\":21845:21846   */\n      0x00\n        /* \"#utility.yul\":21837:21843   */\n      dup3\n        /* \"#utility.yul\":21833:21847   */\n      add\n        /* \"#utility.yul\":21826:21869   */\n      mstore\n        /* \"#utility.yul\":21709:21876   */\n      pop\n      jump\t// out\n        /* \"#utility.yul\":21882:22248   */\n    tag_373:\n        /* \"#utility.yul\":22024:22027   */\n      0x00\n        /* \"#utility.yul\":22045:22112   */\n      tag_640\n        /* \"#utility.yul\":22109:22111   */\n      0x11\n        /* \"#utility.yul\":22104:22107   */\n      dup4\n        /* \"#utility.yul\":22045:22112   */\n      tag_338\n      jump\t// in\n    tag_640:\n        /* \"#utility.yul\":22038:22112   */\n      swap2\n      pop\n        /* \"#utility.yul\":22121:22214   */\n      tag_641\n        /* \"#utility.yul\":22210:22213   */\n      dup3\n        /* \"#utility.yul\":22121:22214   */\n      tag_372\n      jump\t// in\n    tag_641:\n        /* \"#utility.yul\":22239:22241   */\n      0x20\n        /* \"#utility.yul\":22234:22237   */\n      dup3\n        /* \"#utility.yul\":22230:22242   */\n      add\n        /* \"#utility.yul\":22223:22242   */\n      swap1\n      pop\n        /* \"#utility.yul\":21882:22248   */\n      swap2\n      swap1\n      pop\n      jump\t// out\n        /* \"#utility.yul\":22254:22673   */\n    tag_155:\n        /* \"#utility.yul\":22420:22424   */\n      0x00\n        /* \"#utility.yul\":22458:22460   */\n      0x20\n        /* \"#utility.yul\":22447:22456   */\n      dup3\n        /* \"#utility.yul\":22443:22461   */\n      add\n        /* \"#utility.yul\":22435:22461   */\n      swap1\n      pop\n        /* \"#utility.yul\":22507:22516   */\n      dup2\n        /* \"#utility.yul\":22501:22505   */\n      dup2\n        /* \"#utility.yul\":22497:22517   */\n      sub\n        /* \"#utility.yul\":22493:22494   */\n      0x00\n        /* \"#utility.yul\":22482:22491   */\n      dup4\n        /* \"#utility.yul\":22478:22495   */\n      add\n        /* \"#utility.yul\":22471:22518   */\n      mstore\n        /* \"#utility.yul\":22535:22666   */\n      tag_643\n        /* \"#utility.yul\":22661:22665   */\n      dup2\n        /* \"#utility.yul\":22535:22666   */\n      tag_373\n      jump\t// in\n    tag_643:\n        /* \"#utility.yul\":22527:22666   */\n      swap1\n      pop\n        /* \"#utility.yul\":22254:22673   */\n      swap2\n      swap1\n      pop\n      jump\t// out\n        /* \"#utility.yul\":22679:22841   */\n    tag_374:\n        /* \"#utility.yul\":22819:22833   */\n      0x4e6f7420617070726f7665640000000000000000000000000000000000000000\n        /* \"#utility.yul\":22815:22816   */\n      0x00\n        /* \"#utility.yul\":22807:22813   */\n      dup3\n        /* \"#utility.yul\":22803:22817   */\n      add\n        /* \"#utility.yul\":22796:22834   */\n      mstore\n        /* \"#utility.yul\":22679:22841   */\n      pop\n      jump\t// out\n        /* \"#utility.yul\":22847:23213   */\n    tag_375:\n        /* \"#utility.yul\":22989:22992   */\n      0x00\n        /* \"#utility.yul\":23010:23077   */\n      tag_646\n        /* \"#utility.yul\":23074:23076   */\n      0x0c\n        /* \"#utility.yul\":23069:23072   */\n      dup4\n        /* \"#utility.yul\":23010:23077   */\n      tag_338\n      jump\t// in\n    tag_646:\n        /* \"#utility.yul\":23003:23077   */\n      swap2\n      pop\n        /* \"#utility.yul\":23086:23179   */\n      tag_647\n        /* \"#utility.yul\":23175:23178   */\n      dup3\n        /* \"#utility.yul\":23086:23179   */\n      tag_374\n      jump\t// in\n    tag_647:\n        /* \"#utility.yul\":23204:23206   */\n      0x20\n        /* \"#utility.yul\":23199:23202   */\n      dup3\n        /* \"#utility.yul\":23195:23207   */\n      add\n        /* \"#utility.yul\":23188:23207   */\n      swap1\n      pop\n        /* \"#utility.yul\":22847:23213   */\n      swap2\n      swap1\n      pop\n      jump\t// out\n        /* \"#utility.yul\":23219:23638   */\n    tag_166:\n        /* \"#utility.yul\":23385:23389   */\n      0x00\n        /* \"#utility.yul\":23423:23425   */\n      0x20\n        /* \"#utility.yul\":23412:23421   */\n      dup3\n        /* \"#utility.yul\":23408:23426   */\n      add\n        /* \"#utility.yul\":23400:23426   */\n      swap1\n      pop\n        /* \"#utility.yul\":23472:23481   */\n      dup2\n        /* \"#utility.yul\":23466:23470   */\n      dup2\n        /* \"#utility.yul\":23462:23482   */\n      sub\n        /* \"#utility.yul\":23458:23459   */\n      0x00\n        /* \"#utility.yul\":23447:23456   */\n      dup4\n        /* \"#utility.yul\":23443:23460   */\n      add\n        /* \"#utility.yul\":23436:23483   */\n      mstore\n        /* \"#utility.yul\":23500:23631   */\n      tag_649\n        /* \"#utility.yul\":23626:23630   */\n      dup2\n        /* \"#utility.yul\":23500:23631   */\n      tag_375\n      jump\t// in\n    tag_649:\n        /* \"#utility.yul\":23492:23631   */\n      swap1\n      pop\n        /* \"#utility.yul\":23219:23638   */\n      swap2\n      swap1\n      pop\n      jump\t// out\n        /* \"#utility.yul\":23644:23806   */\n    tag_376:\n        /* \"#utility.yul\":23784:23798   */\n      0x496e73756666696369656e740000000000000000000000000000000000000000\n        /* \"#utility.yul\":23780:23781   */\n      0x00\n        /* \"#utility.yul\":23772:23778   */\n      dup3\n        /* \"#utility.yul\":23768:23782   */\n      add\n        /* \"#utility.yul\":23761:23799   */\n      mstore\n        /* \"#utility.yul\":23644:23806   */\n      pop\n      jump\t// out\n        /* \"#utility.yul\":23812:24178   */\n    tag_377:\n        /* \"#utility.yul\":23954:23957   */\n      0x00\n        /* \"#utility.yul\":23975:24042   */\n      tag_652\n        /* \"#utility.yul\":24039:24041   */\n      0x0c\n        /* \"#utility.yul\":24034:24037   */\n      dup4\n        /* \"#utility.yul\":23975:24042   */\n      tag_338\n      jump\t// in\n    tag_652:\n        /* \"#utility.yul\":23968:24042   */\n      swap2\n      pop\n        /* \"#utility.yul\":24051:24144   */\n      tag_653\n        /* \"#utility.yul\":24140:24143   */\n      dup3\n        /* \"#utility.yul\":24051:24144   */\n      tag_376\n      jump\t// in\n    tag_653:\n        /* \"#utility.yul\":24169:24171   */\n      0x20\n        /* \"#utility.yul\":24164:24167   */\n      dup3\n        /* \"#utility.yul\":24160:24172   */\n      add\n        /* \"#utility.yul\":24153:24172   */\n      swap1\n      pop\n        /* \"#utility.yul\":23812:24178   */\n      swap2\n      swap1\n      pop\n      jump\t// out\n        /* \"#utility.yul\":24184:24603   */\n    tag_171:\n        /* \"#utility.yul\":24350:24354   */\n      0x00\n        /* \"#utility.yul\":24388:24390   */\n      0x20\n        /* \"#utility.yul\":24377:24386   */\n      dup3\n        /* \"#utility.yul\":24373:24391   */\n      add\n        /* \"#utility.yul\":24365:24391   */\n      swap1\n      pop\n        /* \"#utility.yul\":24437:24446   */\n      dup2\n        /* \"#utility.yul\":24431:24435   */\n      dup2\n        /* \"#utility.yul\":24427:24447   */\n      sub\n        /* \"#utility.yul\":24423:24424   */\n      0x00\n        /* \"#utility.yul\":24412:24421   */\n      dup4\n        /* \"#utility.yul\":24408:24425   */\n      add\n        /* \"#utility.yul\":24401:24448   */\n      mstore\n        /* \"#utility.yul\":24465:24596   */\n      tag_655\n        /* \"#utility.yul\":24591:24595   */\n      dup2\n        /* \"#utility.yul\":24465:24596   */\n      tag_377\n      jump\t// in\n    tag_655:\n        /* \"#utility.yul\":24457:24596   */\n      swap1\n      pop\n        /* \"#utility.yul\":24184:24603   */\n      swap2\n      swap1\n      pop\n      jump\t// out\n        /* \"#utility.yul\":24609:24789   */\n    tag_378:\n        /* \"#utility.yul\":24657:24734   */\n      0x4e487b7100000000000000000000000000000000000000000000000000000000\n        /* \"#utility.yul\":24654:24655   */\n      0x00\n        /* \"#utility.yul\":24647:24735   */\n      mstore\n        /* \"#utility.yul\":24754:24758   */\n      0x11\n        /* \"#utility.yul\":24751:24752   */\n      0x04\n        /* \"#utility.yul\":24744:24759   */\n      mstore\n        /* \"#utility.yul\":24778:24782   */\n      0x24\n        /* \"#utility.yul\":24775:24776   */\n      0x00\n        /* \"#utility.yul\":24768:24783   */\n      revert\n        /* \"#utility.yul\":24795:24989   */\n    tag_173:\n        /* \"#utility.yul\":24835:24839   */\n      0x00\n        /* \"#utility.yul\":24855:24875   */\n      tag_658\n        /* \"#utility.yul\":24873:24874   */\n      dup3\n        /* \"#utility.yul\":24855:24875   */\n      tag_328\n      jump\t// in\n    tag_658:\n        /* \"#utility.yul\":24850:24875   */\n      swap2\n      pop\n        /* \"#utility.yul\":24889:24909   */\n      tag_659\n        /* \"#utility.yul\":24907:24908   */\n      dup4\n        /* \"#utility.yul\":24889:24909   */\n      tag_328\n      jump\t// in\n    tag_659:\n        /* \"#utility.yul\":24884:24909   */\n      swap3\n      pop\n        /* \"#utility.yul\":24933:24934   */\n      dup3\n        /* \"#utility.yul\":24930:24931   */\n      dup3\n        /* \"#utility.yul\":24926:24935   */\n      sub\n        /* \"#utility.yul\":24918:24935   */\n      swap1\n      pop\n        /* \"#utility.yul\":24957:24958   */\n      dup2\n        /* \"#utility.yul\":24951:24955   */\n      dup2\n        /* \"#utility.yul\":24948:24959   */\n      gt\n        /* \"#utility.yul\":24945:24982   */\n      iszero\n      tag_660\n      jumpi\n        /* \"#utility.yul\":24962:24980   */\n      tag_661\n      tag_378\n      jump\t// in\n    tag_661:\n        /* \"#utility.yul\":24945:24982   */\n    tag_660:\n        /* \"#utility.yul\":24795:24989   */\n      swap3\n      swap2\n      pop\n      pop\n      jump\t// out\n        /* \"#utility.yul\":24995:25186   */\n    tag_175:\n        /* \"#utility.yul\":25035:25038   */\n      0x00\n        /* \"#utility.yul\":25054:25074   */\n      tag_663\n        /* \"#utility.yul\":25072:25073   */\n      dup3\n        /* \"#utility.yul\":25054:25074   */\n      tag_328\n      jump\t// in\n    tag_663:\n        /* \"#utility.yul\":25049:25074   */\n      swap2\n      pop\n        /* \"#utility.yul\":25088:25108   */\n      tag_664\n        /* \"#utility.yul\":25106:25107   */\n      dup4\n        /* \"#utility.yul\":25088:25108   */\n      tag_328\n      jump\t// in\n    tag_664:\n        /* \"#utility.yul\":25083:25108   */\n      swap3\n      pop\n        /* \"#utility.yul\":25131:25132   */\n      dup3\n        /* \"#utility.yul\":25128:25129   */\n      dup3\n        /* \"#utility.yul\":25124:25133   */\n      add\n        /* \"#utility.yul\":25117:25133   */\n      swap1\n      pop\n        /* \"#utility.yul\":25152:25155   */\n      dup1\n        /* \"#utility.yul\":25149:25150   */\n      dup3\n        /* \"#utility.yul\":25146:25156   */\n      gt\n        /* \"#utility.yul\":25143:25179   */\n      iszero\n      tag_665\n      jumpi\n        /* \"#utility.yul\":25159:25177   */\n      tag_666\n      tag_378\n      jump\t// in\n    tag_666:\n        /* \"#utility.yul\":25143:25179   */\n    tag_665:\n        /* \"#utility.yul\":24995:25186   */\n      swap3\n      swap2\n      pop\n      pop\n      jump\t// out\n        /* \"#utility.yul\":25192:25524   */\n    tag_177:\n        /* \"#utility.yul\":25313:25317   */\n      0x00\n        /* \"#utility.yul\":25351:25353   */\n      0x40\n        /* \"#utility.yul\":25340:25349   */\n      dup3\n        /* \"#utility.yul\":25336:25354   */\n      add\n        /* \"#utility.yul\":25328:25354   */\n      swap1\n      pop\n        /* \"#utility.yul\":25364:25435   */\n      tag_668\n        /* \"#utility.yul\":25432:25433   */\n      0x00\n        /* \"#utility.yul\":25421:25430   */\n      dup4\n        /* \"#utility.yul\":25417:25434   */\n      add\n        /* \"#utility.yul\":25408:25414   */\n      dup6\n        /* \"#utility.yul\":25364:25435   */\n      tag_331\n      jump\t// in\n    tag_668:\n        /* \"#utility.yul\":25445:25517   */\n      tag_669\n        /* \"#utility.yul\":25513:25515   */\n      0x20\n        /* \"#utility.yul\":25502:25511   */\n      dup4\n        /* \"#utility.yul\":25498:25516   */\n      add\n        /* \"#utility.yul\":25489:25495   */\n      dup5\n        /* \"#utility.yul\":25445:25517   */\n      tag_331\n      jump\t// in\n    tag_669:\n        /* \"#utility.yul\":25192:25524   */\n      swap4\n      swap3\n      pop\n      pop\n      pop\n      jump\t// out\n        /* \"#utility.yul\":25530:25940   */\n    tag_180:\n        /* \"#utility.yul\":25570:25577   */\n      0x00\n        /* \"#utility.yul\":25593:25613   */\n      tag_671\n        /* \"#utility.yul\":25611:25612   */\n      dup3\n        /* \"#utility.yul\":25593:25613   */\n      tag_328\n      jump\t// in\n    tag_671:\n        /* \"#utility.yul\":25588:25613   */\n      swap2\n      pop\n        /* \"#utility.yul\":25627:25647   */\n      tag_672\n        /* \"#utility.yul\":25645:25646   */\n      dup4\n        /* \"#utility.yul\":25627:25647   */\n      tag_328\n      jump\t// in\n    tag_672:\n        /* \"#utility.yul\":25622:25647   */\n      swap3\n      pop\n        /* \"#utility.yul\":25682:25683   */\n      dup3\n        /* \"#utility.yul\":25679:25680   */\n      dup3\n        /* \"#utility.yul\":25675:25684   */\n      mul\n        /* \"#utility.yul\":25704:25734   */\n      tag_673\n        /* \"#utility.yul\":25722:25733   */\n      dup2\n        /* \"#utility.yul\":25704:25734   */\n      tag_328\n      jump\t// in\n    tag_673:\n        /* \"#utility.yul\":25693:25734   */\n      swap2\n      pop\n        /* \"#utility.yul\":25883:25884   */\n      dup3\n        /* \"#utility.yul\":25874:25881   */\n      dup3\n        /* \"#utility.yul\":25870:25885   */\n      div\n        /* \"#utility.yul\":25867:25868   */\n      dup5\n        /* \"#utility.yul\":25864:25886   */\n      eq\n        /* \"#utility.yul\":25844:25845   */\n      dup4\n        /* \"#utility.yul\":25837:25846   */\n      iszero\n        /* \"#utility.yul\":25817:25900   */\n      or\n        /* \"#utility.yul\":25794:25933   */\n      tag_674\n      jumpi\n        /* \"#utility.yul\":25913:25931   */\n      tag_675\n      tag_378\n      jump\t// in\n    tag_675:\n        /* \"#utility.yul\":25794:25933   */\n    tag_674:\n        /* \"#utility.yul\":25578:25940   */\n      pop\n        /* \"#utility.yul\":25530:25940   */\n      swap3\n      swap2\n      pop\n      pop\n      jump\t// out\n        /* \"#utility.yul\":25946:26126   */\n    tag_379:\n        /* \"#utility.yul\":25994:26071   */\n      0x4e487b7100000000000000000000000000000000000000000000000000000000\n        /* \"#utility.yul\":25991:25992   */\n      0x00\n        /* \"#utility.yul\":25984:26072   */\n      mstore\n        /* \"#utility.yul\":26091:26095   */\n      0x12\n        /* \"#utility.yul\":26088:26089   */\n      0x04\n        /* \"#utility.yul\":26081:26096   */\n      mstore\n        /* \"#utility.yul\":26115:26119   */\n      0x24\n        /* \"#utility.yul\":26112:26113   */\n      0x00\n        /* \"#utility.yul\":26105:26120   */\n      revert\n        /* \"#utility.yul\":26132:26317   */\n    tag_182:\n        /* \"#utility.yul\":26172:26173   */\n      0x00\n        /* \"#utility.yul\":26189:26209   */\n      tag_678\n        /* \"#utility.yul\":26207:26208   */\n      dup3\n        /* \"#utility.yul\":26189:26209   */\n      tag_328\n      jump\t// in\n    tag_678:\n        /* \"#utility.yul\":26184:26209   */\n      swap2\n      pop\n        /* \"#utility.yul\":26223:26243   */\n      tag_679\n        /* \"#utility.yul\":26241:26242   */\n      dup4\n        /* \"#utility.yul\":26223:26243   */\n      tag_328\n      jump\t// in\n    tag_679:\n        /* \"#utility.yul\":26218:26243   */\n      swap3\n      pop\n        /* \"#utility.yul\":26262:26263   */\n      dup3\n        /* \"#utility.yul\":26252:26287   */\n      tag_680\n      jumpi\n        /* \"#utility.yul\":26267:26285   */\n      tag_681\n      tag_379\n      jump\t// in\n    tag_681:\n        /* \"#utility.yul\":26252:26287   */\n    tag_680:\n        /* \"#utility.yul\":26309:26310   */\n      dup3\n        /* \"#utility.yul\":26306:26307   */\n      dup3\n        /* \"#utility.yul\":26302:26311   */\n      div\n        /* \"#utility.yul\":26297:26311   */\n      swap1\n      pop\n        /* \"#utility.yul\":26132:26317   */\n      swap3\n      swap2\n      pop\n      pop\n      jump\t// out\n        /* \"#utility.yul\":26323:26482   */\n    tag_380:\n        /* \"#utility.yul\":26463:26474   */\n      0x4e6f74206f776e65720000000000000000000000000000000000000000000000\n        /* \"#utility.yul\":26459:26460   */\n      0x00\n        /* \"#utility.yul\":26451:26457   */\n      dup3\n        /* \"#utility.yul\":26447:26461   */\n      add\n        /* \"#utility.yul\":26440:26475   */\n      mstore\n        /* \"#utility.yul\":26323:26482   */\n      pop\n      jump\t// out\n        /* \"#utility.yul\":26488:26853   */\n    tag_381:\n        /* \"#utility.yul\":26630:26633   */\n      0x00\n        /* \"#utility.yul\":26651:26717   */\n      tag_684\n        /* \"#utility.yul\":26715:26716   */\n      0x09\n        /* \"#utility.yul\":26710:26713   */\n      dup4\n        /* \"#utility.yul\":26651:26717   */\n      tag_338\n      jump\t// in\n    tag_684:\n        /* \"#utility.yul\":26644:26717   */\n      swap2\n      pop\n        /* \"#utility.yul\":26726:26819   */\n      tag_685\n        /* \"#utility.yul\":26815:26818   */\n      dup3\n        /* \"#utility.yul\":26726:26819   */\n      tag_380\n      jump\t// in\n    tag_685:\n        /* \"#utility.yul\":26844:26846   */\n      0x20\n        /* \"#utility.yul\":26839:26842   */\n      dup3\n        /* \"#utility.yul\":26835:26847   */\n      add\n        /* \"#utility.yul\":26828:26847   */\n      swap1\n      pop\n        /* \"#utility.yul\":26488:26853   */\n      swap2\n      swap1\n      pop\n      jump\t// out\n        /* \"#utility.yul\":26859:27278   */\n    tag_186:\n        /* \"#utility.yul\":27025:27029   */\n      0x00\n        /* \"#utility.yul\":27063:27065   */\n      0x20\n        /* \"#utility.yul\":27052:27061   */\n      dup3\n        /* \"#utility.yul\":27048:27066   */\n      add\n        /* \"#utility.yul\":27040:27066   */\n      swap1\n      pop\n        /* \"#utility.yul\":27112:27121   */\n      dup2\n        /* \"#utility.yul\":27106:27110   */\n      dup2\n        /* \"#utility.yul\":27102:27122   */\n      sub\n        /* \"#utility.yul\":27098:27099   */\n      0x00\n        /* \"#utility.yul\":27087:27096   */\n      dup4\n        /* \"#utility.yul\":27083:27100   */\n      add\n        /* \"#utility.yul\":27076:27123   */\n      mstore\n        /* \"#utility.yul\":27140:27271   */\n      tag_687\n        /* \"#utility.yul\":27266:27270   */\n      dup2\n        /* \"#utility.yul\":27140:27271   */\n      tag_381\n      jump\t// in\n    tag_687:\n        /* \"#utility.yul\":27132:27271   */\n      swap1\n      pop\n        /* \"#utility.yul\":26859:27278   */\n      swap2\n      swap1\n      pop\n      jump\t// out\n        /* \"#utility.yul\":27284:27439   */\n    tag_382:\n        /* \"#utility.yul\":27424:27431   */\n      0x456e646564000000000000000000000000000000000000000000000000000000\n        /* \"#utility.yul\":27420:27421   */\n      0x00\n        /* \"#utility.yul\":27412:27418   */\n      dup3\n        /* \"#utility.yul\":27408:27422   */\n      add\n        /* \"#utility.yul\":27401:27432   */\n      mstore\n        /* \"#utility.yul\":27284:27439   */\n      pop\n      jump\t// out\n        /* \"#utility.yul\":27445:27810   */\n    tag_383:\n        /* \"#utility.yul\":27587:27590   */\n      0x00\n        /* \"#utility.yul\":27608:27674   */\n      tag_690\n        /* \"#utility.yul\":27672:27673   */\n      0x05\n        /* \"#utility.yul\":27667:27670   */\n      dup4\n        /* \"#utility.yul\":27608:27674   */\n      tag_338\n      jump\t// in\n    tag_690:\n        /* \"#utility.yul\":27601:27674   */\n      swap2\n      pop\n        /* \"#utility.yul\":27683:27776   */\n      tag_691\n        /* \"#utility.yul\":27772:27775   */\n      dup3\n        /* \"#utility.yul\":27683:27776   */\n      tag_382\n      jump\t// in\n    tag_691:\n        /* \"#utility.yul\":27801:27803   */\n      0x20\n        /* \"#utility.yul\":27796:27799   */\n      dup3\n        /* \"#utility.yul\":27792:27804   */\n      add\n        /* \"#utility.yul\":27785:27804   */\n      swap1\n      pop\n        /* \"#utility.yul\":27445:27810   */\n      swap2\n      swap1\n      pop\n      jump\t// out\n        /* \"#utility.yul\":27816:28235   */\n    tag_191:\n        /* \"#utility.yul\":27982:27986   */\n      0x00\n        /* \"#utility.yul\":28020:28022   */\n      0x20\n        /* \"#utility.yul\":28009:28018   */\n      dup3\n        /* \"#utility.yul\":28005:28023   */\n      add\n        /* \"#utility.yul\":27997:28023   */\n      swap1\n      pop\n        /* \"#utility.yul\":28069:28078   */\n      dup2\n        /* \"#utility.yul\":28063:28067   */\n      dup2\n        /* \"#utility.yul\":28059:28079   */\n      sub\n        /* \"#utility.yul\":28055:28056   */\n      0x00\n        /* \"#utility.yul\":28044:28053   */\n      dup4\n        /* \"#utility.yul\":28040:28057   */\n      add\n        /* \"#utility.yul\":28033:28080   */\n      mstore\n        /* \"#utility.yul\":28097:28228   */\n      tag_693\n        /* \"#utility.yul\":28223:28227   */\n      dup2\n        /* \"#utility.yul\":28097:28228   */\n      tag_383\n      jump\t// in\n    tag_693:\n        /* \"#utility.yul\":28089:28228   */\n      swap1\n      pop\n        /* \"#utility.yul\":27816:28235   */\n      swap2\n      swap1\n      pop\n      jump\t// out\n        /* \"#utility.yul\":28241:28398   */\n    tag_384:\n        /* \"#utility.yul\":28381:28390   */\n      0x4c6f772062696400000000000000000000000000000000000000000000000000\n        /* \"#utility.yul\":28377:28378   */\n      0x00\n        /* \"#utility.yul\":28369:28375   */\n      dup3\n        /* \"#utility.yul\":28365:28379   */\n      add\n        /* \"#utility.yul\":28358:28391   */\n      mstore\n        /* \"#utility.yul\":28241:28398   */\n      pop\n      jump\t// out\n        /* \"#utility.yul\":28404:28769   */\n    tag_385:\n        /* \"#utility.yul\":28546:28549   */\n      0x00\n        /* \"#utility.yul\":28567:28633   */\n      tag_696\n        /* \"#utility.yul\":28631:28632   */\n      0x07\n        /* \"#utility.yul\":28626:28629   */\n      dup4\n        /* \"#utility.yul\":28567:28633   */\n      tag_338\n      jump\t// in\n    tag_696:\n        /* \"#utility.yul\":28560:28633   */\n      swap2\n      pop\n        /* \"#utility.yul\":28642:28735   */\n      tag_697\n        /* \"#utility.yul\":28731:28734   */\n      dup3\n        /* \"#utility.yul\":28642:28735   */\n      tag_384\n      jump\t// in\n    tag_697:\n        /* \"#utility.yul\":28760:28762   */\n      0x20\n        /* \"#utility.yul\":28755:28758   */\n      dup3\n        /* \"#utility.yul\":28751:28763   */\n      add\n        /* \"#utility.yul\":28744:28763   */\n      swap1\n      pop\n        /* \"#utility.yul\":28404:28769   */\n      swap2\n      swap1\n      pop\n      jump\t// out\n        /* \"#utility.yul\":28775:29194   */\n    tag_198:\n        /* \"#utility.yul\":28941:28945   */\n      0x00\n        /* \"#utility.yul\":28979:28981   */\n      0x20\n        /* \"#utility.yul\":28968:28977   */\n      dup3\n        /* \"#utility.yul\":28964:28982   */\n      add\n        /* \"#utility.yul\":28956:28982   */\n      swap1\n      pop\n        /* \"#utility.yul\":29028:29037   */\n      dup2\n        /* \"#utility.yul\":29022:29026   */\n      dup2\n        /* \"#utility.yul\":29018:29038   */\n      sub\n        /* \"#utility.yul\":29014:29015   */\n      0x00\n        /* \"#utility.yul\":29003:29012   */\n      dup4\n        /* \"#utility.yul\":28999:29016   */\n      add\n        /* \"#utility.yul\":28992:29039   */\n      mstore\n        /* \"#utility.yul\":29056:29187   */\n      tag_699\n        /* \"#utility.yul\":29182:29186   */\n      dup2\n        /* \"#utility.yul\":29056:29187   */\n      tag_385\n      jump\t// in\n    tag_699:\n        /* \"#utility.yul\":29048:29187   */\n      swap1\n      pop\n        /* \"#utility.yul\":28775:29194   */\n      swap2\n      swap1\n      pop\n      jump\t// out\n        /* \"#utility.yul\":29200:29360   */\n    tag_386:\n        /* \"#utility.yul\":29340:29352   */\n      0x4d69736d61746368656400000000000000000000000000000000000000000000\n        /* \"#utility.yul\":29336:29337   */\n      0x00\n        /* \"#utility.yul\":29328:29334   */\n      dup3\n        /* \"#utility.yul\":29324:29338   */\n      add\n        /* \"#utility.yul\":29317:29353   */\n      mstore\n        /* \"#utility.yul\":29200:29360   */\n      pop\n      jump\t// out\n        /* \"#utility.yul\":29366:29732   */\n    tag_387:\n        /* \"#utility.yul\":29508:29511   */\n      0x00\n        /* \"#utility.yul\":29529:29596   */\n      tag_702\n        /* \"#utility.yul\":29593:29595   */\n      0x0a\n        /* \"#utility.yul\":29588:29591   */\n      dup4\n        /* \"#utility.yul\":29529:29596   */\n      tag_338\n      jump\t// in\n    tag_702:\n        /* \"#utility.yul\":29522:29596   */\n      swap2\n      pop\n        /* \"#utility.yul\":29605:29698   */\n      tag_703\n        /* \"#utility.yul\":29694:29697   */\n      dup3\n        /* \"#utility.yul\":29605:29698   */\n      tag_386\n      jump\t// in\n    tag_703:\n        /* \"#utility.yul\":29723:29725   */\n      0x20\n        /* \"#utility.yul\":29718:29721   */\n      dup3\n        /* \"#utility.yul\":29714:29726   */\n      add\n        /* \"#utility.yul\":29707:29726   */\n      swap1\n      pop\n        /* \"#utility.yul\":29366:29732   */\n      swap2\n      swap1\n      pop\n      jump\t// out\n        /* \"#utility.yul\":29738:30157   */\n    tag_205:\n        /* \"#utility.yul\":29904:29908   */\n      0x00\n        /* \"#utility.yul\":29942:29944   */\n      0x20\n        /* \"#utility.yul\":29931:29940   */\n      dup3\n        /* \"#utility.yul\":29927:29945   */\n      add\n        /* \"#utility.yul\":29919:29945   */\n      swap1\n      pop\n        /* \"#utility.yul\":29991:30000   */\n      dup2\n        /* \"#utility.yul\":29985:29989   */\n      dup2\n        /* \"#utility.yul\":29981:30001   */\n      sub\n        /* \"#utility.yul\":29977:29978   */\n      0x00\n        /* \"#utility.yul\":29966:29975   */\n      dup4\n        /* \"#utility.yul\":29962:29979   */\n      add\n        /* \"#utility.yul\":29955:30002   */\n      mstore\n        /* \"#utility.yul\":30019:30150   */\n      tag_705\n        /* \"#utility.yul\":30145:30149   */\n      dup2\n        /* \"#utility.yul\":30019:30150   */\n      tag_387\n      jump\t// in\n    tag_705:\n        /* \"#utility.yul\":30011:30150   */\n      swap1\n      pop\n        /* \"#utility.yul\":29738:30157   */\n      swap2\n      swap1\n      pop\n      jump\t// out\n        /* \"#utility.yul\":30163:30343   */\n    tag_215:\n        /* \"#utility.yul\":30211:30288   */\n      0x4e487b7100000000000000000000000000000000000000000000000000000000\n        /* \"#utility.yul\":30208:30209   */\n      0x00\n        /* \"#utility.yul\":30201:30289   */\n      mstore\n        /* \"#utility.yul\":30308:30312   */\n      0x32\n        /* \"#utility.yul\":30305:30306   */\n      0x04\n        /* \"#utility.yul\":30298:30313   */\n      mstore\n        /* \"#utility.yul\":30332:30336   */\n      0x24\n        /* \"#utility.yul\":30329:30330   */\n      0x00\n        /* \"#utility.yul\":30322:30337   */\n      revert\n        /* \"#utility.yul\":30349:30678   */\n    tag_219:\n        /* \"#utility.yul\":30408:30414   */\n      0x00\n        /* \"#utility.yul\":30457:30459   */\n      0x20\n        /* \"#utility.yul\":30445:30454   */\n      dup3\n        /* \"#utility.yul\":30436:30443   */\n      dup5\n        /* \"#utility.yul\":30432:30455   */\n      sub\n        /* \"#utility.yul\":30428:30460   */\n      slt\n        /* \"#utility.yul\":30425:30544   */\n      iszero\n      tag_708\n      jumpi\n        /* \"#utility.yul\":30463:30542   */\n      tag_709\n      tag_322\n      jump\t// in\n    tag_709:\n        /* \"#utility.yul\":30425:30544   */\n    tag_708:\n        /* \"#utility.yul\":30583:30584   */\n      0x00\n        /* \"#utility.yul\":30608:30661   */\n      tag_710\n        /* \"#utility.yul\":30653:30660   */\n      dup5\n        /* \"#utility.yul\":30644:30650   */\n      dup3\n        /* \"#utility.yul\":30633:30642   */\n      dup6\n        /* \"#utility.yul\":30629:30651   */\n      add\n        /* \"#utility.yul\":30608:30661   */\n      tag_327\n      jump\t// in\n    tag_710:\n        /* \"#utility.yul\":30598:30661   */\n      swap2\n      pop\n        /* \"#utility.yul\":30554:30671   */\n      pop\n        /* \"#utility.yul\":30349:30678   */\n      swap3\n      swap2\n      pop\n      pop\n      jump\t// out\n        /* \"#utility.yul\":30684:30841   */\n    tag_388:\n        /* \"#utility.yul\":30824:30833   */\n      0x4e6f742079657400000000000000000000000000000000000000000000000000\n        /* \"#utility.yul\":30820:30821   */\n      0x00\n        /* \"#utility.yul\":30812:30818   */\n      dup3\n        /* \"#utility.yul\":30808:30822   */\n      add\n        /* \"#utility.yul\":30801:30834   */\n      mstore\n        /* \"#utility.yul\":30684:30841   */\n      pop\n      jump\t// out\n        /* \"#utility.yul\":30847:31212   */\n    tag_389:\n        /* \"#utility.yul\":30989:30992   */\n      0x00\n        /* \"#utility.yul\":31010:31076   */\n      tag_713\n        /* \"#utility.yul\":31074:31075   */\n      0x07\n        /* \"#utility.yul\":31069:31072   */\n      dup4\n        /* \"#utility.yul\":31010:31076   */\n      tag_338\n      jump\t// in\n    tag_713:\n        /* \"#utility.yul\":31003:31076   */\n      swap2\n      pop\n        /* \"#utility.yul\":31085:31178   */\n      tag_714\n        /* \"#utility.yul\":31174:31177   */\n      dup3\n        /* \"#utility.yul\":31085:31178   */\n      tag_388\n      jump\t// in\n    tag_714:\n        /* \"#utility.yul\":31203:31205   */\n      0x20\n        /* \"#utility.yul\":31198:31201   */\n      dup3\n        /* \"#utility.yul\":31194:31206   */\n      add\n        /* \"#utility.yul\":31187:31206   */\n      swap1\n      pop\n        /* \"#utility.yul\":30847:31212   */\n      swap2\n      swap1\n      pop\n      jump\t// out\n        /* \"#utility.yul\":31218:31637   */\n    tag_234:\n        /* \"#utility.yul\":31384:31388   */\n      0x00\n        /* \"#utility.yul\":31422:31424   */\n      0x20\n        /* \"#utility.yul\":31411:31420   */\n      dup3\n        /* \"#utility.yul\":31407:31425   */\n      add\n        /* \"#utility.yul\":31399:31425   */\n      swap1\n      pop\n        /* \"#utility.yul\":31471:31480   */\n      dup2\n        /* \"#utility.yul\":31465:31469   */\n      dup2\n        /* \"#utility.yul\":31461:31481   */\n      sub\n        /* \"#utility.yul\":31457:31458   */\n      0x00\n        /* \"#utility.yul\":31446:31455   */\n      dup4\n        /* \"#utility.yul\":31442:31459   */\n      add\n        /* \"#utility.yul\":31435:31482   */\n      mstore\n        /* \"#utility.yul\":31499:31630   */\n      tag_716\n        /* \"#utility.yul\":31625:31629   */\n      dup2\n        /* \"#utility.yul\":31499:31630   */\n      tag_389\n      jump\t// in\n    tag_716:\n        /* \"#utility.yul\":31491:31630   */\n      swap1\n      pop\n        /* \"#utility.yul\":31218:31637   */\n      swap2\n      swap1\n      pop\n      jump\t// out\n        /* \"#utility.yul\":31643:31806   */\n    tag_390:\n        /* \"#utility.yul\":31783:31798   */\n      0x416c726561647920656e64656400000000000000000000000000000000000000\n        /* \"#utility.yul\":31779:31780   */\n      0x00\n        /* \"#utility.yul\":31771:31777   */\n      dup3\n        /* \"#utility.yul\":31767:31781   */\n      add\n        /* \"#utility.yul\":31760:31799   */\n      mstore\n        /* \"#utility.yul\":31643:31806   */\n      pop\n      jump\t// out\n        /* \"#utility.yul\":31812:32178   */\n    tag_391:\n        /* \"#utility.yul\":31954:31957   */\n      0x00\n        /* \"#utility.yul\":31975:32042   */\n      tag_719\n        /* \"#utility.yul\":32039:32041   */\n      0x0d\n        /* \"#utility.yul\":32034:32037   */\n      dup4\n        /* \"#utility.yul\":31975:32042   */\n      tag_338\n      jump\t// in\n    tag_719:\n        /* \"#utility.yul\":31968:32042   */\n      swap2\n      pop\n        /* \"#utility.yul\":32051:32144   */\n      tag_720\n        /* \"#utility.yul\":32140:32143   */\n      dup3\n        /* \"#utility.yul\":32051:32144   */\n      tag_390\n      jump\t// in\n    tag_720:\n        /* \"#utility.yul\":32169:32171   */\n      0x20\n        /* \"#utility.yul\":32164:32167   */\n      dup3\n        /* \"#utility.yul\":32160:32172   */\n      add\n        /* \"#utility.yul\":32153:32172   */\n      swap1\n      pop\n        /* \"#utility.yul\":31812:32178   */\n      swap2\n      swap1\n      pop\n      jump\t// out\n        /* \"#utility.yul\":32184:32603   */\n    tag_238:\n        /* \"#utility.yul\":32350:32354   */\n      0x00\n        /* \"#utility.yul\":32388:32390   */\n      0x20\n        /* \"#utility.yul\":32377:32386   */\n      dup3\n        /* \"#utility.yul\":32373:32391   */\n      add\n        /* \"#utility.yul\":32365:32391   */\n      swap1\n      pop\n        /* \"#utility.yul\":32437:32446   */\n      dup2\n        /* \"#utility.yul\":32431:32435   */\n      dup2\n        /* \"#utility.yul\":32427:32447   */\n      sub\n        /* \"#utility.yul\":32423:32424   */\n      0x00\n        /* \"#utility.yul\":32412:32421   */\n      dup4\n        /* \"#utility.yul\":32408:32425   */\n      add\n        /* \"#utility.yul\":32401:32448   */\n      mstore\n        /* \"#utility.yul\":32465:32596   */\n      tag_722\n        /* \"#utility.yul\":32591:32595   */\n      dup2\n        /* \"#utility.yul\":32465:32596   */\n      tag_391\n      jump\t// in\n    tag_722:\n        /* \"#utility.yul\":32457:32596   */\n      swap1\n      pop\n        /* \"#utility.yul\":32184:32603   */\n      swap2\n      swap1\n      pop\n      jump\t// out\n        /* \"#utility.yul\":32609:32768   */\n    tag_392:\n        /* \"#utility.yul\":32749:32760   */\n      0x546f6f2073686f72740000000000000000000000000000000000000000000000\n        /* \"#utility.yul\":32745:32746   */\n      0x00\n        /* \"#utility.yul\":32737:32743   */\n      dup3\n        /* \"#utility.yul\":32733:32747   */\n      add\n        /* \"#utility.yul\":32726:32761   */\n      mstore\n        /* \"#utility.yul\":32609:32768   */\n      pop\n      jump\t// out\n        /* \"#utility.yul\":32774:33139   */\n    tag_393:\n        /* \"#utility.yul\":32916:32919   */\n      0x00\n        /* \"#utility.yul\":32937:33003   */\n      tag_725\n        /* \"#utility.yul\":33001:33002   */\n      0x09\n        /* \"#utility.yul\":32996:32999   */\n      dup4\n        /* \"#utility.yul\":32937:33003   */\n      tag_338\n      jump\t// in\n    tag_725:\n        /* \"#utility.yul\":32930:33003   */\n      swap2\n      pop\n        /* \"#utility.yul\":33012:33105   */\n      tag_726\n        /* \"#utility.yul\":33101:33104   */\n      dup3\n        /* \"#utility.yul\":33012:33105   */\n      tag_392\n      jump\t// in\n    tag_726:\n        /* \"#utility.yul\":33130:33132   */\n      0x20\n        /* \"#utility.yul\":33125:33128   */\n      dup3\n        /* \"#utility.yul\":33121:33133   */\n      add\n        /* \"#utility.yul\":33114:33133   */\n      swap1\n      pop\n        /* \"#utility.yul\":32774:33139   */\n      swap2\n      swap1\n      pop\n      jump\t// out\n        /* \"#utility.yul\":33145:33564   */\n    tag_260:\n        /* \"#utility.yul\":33311:33315   */\n      0x00\n        /* \"#utility.yul\":33349:33351   */\n      0x20\n        /* \"#utility.yul\":33338:33347   */\n      dup3\n        /* \"#utility.yul\":33334:33352   */\n      add\n        /* \"#utility.yul\":33326:33352   */\n      swap1\n      pop\n        /* \"#utility.yul\":33398:33407   */\n      dup2\n        /* \"#utility.yul\":33392:33396   */\n      dup2\n        /* \"#utility.yul\":33388:33408   */\n      sub\n        /* \"#utility.yul\":33384:33385   */\n      0x00\n        /* \"#utility.yul\":33373:33382   */\n      dup4\n        /* \"#utility.yul\":33369:33386   */\n      add\n        /* \"#utility.yul\":33362:33409   */\n      mstore\n        /* \"#utility.yul\":33426:33557   */\n      tag_728\n        /* \"#utility.yul\":33552:33556   */\n      dup2\n        /* \"#utility.yul\":33426:33557   */\n      tag_393\n      jump\t// in\n    tag_728:\n        /* \"#utility.yul\":33418:33557   */\n      swap1\n      pop\n        /* \"#utility.yul\":33145:33564   */\n      swap2\n      swap1\n      pop\n      jump\t// out\n        /* \"#utility.yul\":33570:33803   */\n    tag_264:\n        /* \"#utility.yul\":33609:33612   */\n      0x00\n        /* \"#utility.yul\":33632:33656   */\n      tag_730\n        /* \"#utility.yul\":33650:33655   */\n      dup3\n        /* \"#utility.yul\":33632:33656   */\n      tag_328\n      jump\t// in\n    tag_730:\n        /* \"#utility.yul\":33623:33656   */\n      swap2\n      pop\n        /* \"#utility.yul\":33678:33744   */\n      0xffffffffffffffffffffffffffffffffffffffffffffffffffffffffffffffff\n        /* \"#utility.yul\":33671:33676   */\n      dup3\n        /* \"#utility.yul\":33668:33745   */\n      sub\n        /* \"#utility.yul\":33665:33768   */\n      tag_731\n      jumpi\n        /* \"#utility.yul\":33748:33766   */\n      tag_732\n      tag_378\n      jump\t// in\n    tag_732:\n        /* \"#utility.yul\":33665:33768   */\n    tag_731:\n        /* \"#utility.yul\":33795:33796   */\n      0x01\n        /* \"#utility.yul\":33788:33793   */\n      dup3\n        /* \"#utility.yul\":33784:33797   */\n      add\n        /* \"#utility.yul\":33777:33797   */\n      swap1\n      pop\n        /* \"#utility.yul\":33570:33803   */\n      swap2\n      swap1\n      pop\n      jump\t// out\n        /* \"#utility.yul\":33809:33926   */\n    tag_394:\n        /* \"#utility.yul\":33918:33919   */\n      0x00\n        /* \"#utility.yul\":33915:33916   */\n      0x00\n        /* \"#utility.yul\":33908:33920   */\n      revert\n        /* \"#utility.yul\":33932:34031   */\n    tag_395:\n        /* \"#utility.yul\":34017:34023   */\n      dup3\n        /* \"#utility.yul\":34012:34015   */\n      dup2\n        /* \"#utility.yul\":34007:34010   */\n      dup4\n        /* \"#utility.yul\":33994:34024   */\n      calldatacopy\n        /* \"#utility.yul\":33932:34031   */\n      pop\n      pop\n      pop\n      jump\t// out\n        /* \"#utility.yul\":34067:34604   */\n    tag_396:\n        /* \"#utility.yul\":34195:34198   */\n      0x00\n        /* \"#utility.yul\":34216:34302   */\n      tag_736\n        /* \"#utility.yul\":34295:34301   */\n      dup4\n        /* \"#utility.yul\":34290:34293   */\n      dup6\n        /* \"#utility.yul\":34216:34302   */\n      tag_349\n      jump\t// in\n    tag_736:\n        /* \"#utility.yul\":34209:34302   */\n      swap4\n      pop\n        /* \"#utility.yul\":34326:34392   */\n      0x07ffffffffffffffffffffffffffffffffffffffffffffffffffffffffffffff\n        /* \"#utility.yul\":34318:34324   */\n      dup4\n        /* \"#utility.yul\":34315:34393   */\n      gt\n        /* \"#utility.yul\":34312:34477   */\n      iszero\n      tag_737\n      jumpi\n        /* \"#utility.yul\":34396:34475   */\n      tag_738\n      tag_394\n      jump\t// in\n    tag_738:\n        /* \"#utility.yul\":34312:34477   */\n    tag_737:\n        /* \"#utility.yul\":34508:34512   */\n      0x20\n        /* \"#utility.yul\":34500:34506   */\n      dup4\n        /* \"#utility.yul\":34496:34513   */\n      mul\n        /* \"#utility.yul\":34486:34513   */\n      swap3\n      pop\n        /* \"#utility.yul\":34523:34566   */\n      tag_739\n        /* \"#utility.yul\":34559:34565   */\n      dup4\n        /* \"#utility.yul\":34554:34557   */\n      dup6\n        /* \"#utility.yul\":34547:34552   */\n      dup5\n        /* \"#utility.yul\":34523:34566   */\n      tag_395\n      jump\t// in\n    tag_739:\n        /* \"#utility.yul\":34591:34597   */\n      dup3\n        /* \"#utility.yul\":34586:34589   */\n      dup5\n        /* \"#utility.yul\":34582:34598   */\n      add\n        /* \"#utility.yul\":34575:34598   */\n      swap1\n      pop\n        /* \"#utility.yul\":34067:34604   */\n      swap4\n      swap3\n      pop\n      pop\n      pop\n      jump\t// out\n        /* \"#utility.yul\":34610:35284   */\n    tag_300:\n        /* \"#utility.yul\":34851:34855   */\n      0x00\n        /* \"#utility.yul\":34889:34891   */\n      0x40\n        /* \"#utility.yul\":34878:34887   */\n      dup3\n        /* \"#utility.yul\":34874:34892   */\n      add\n        /* \"#utility.yul\":34866:34892   */\n      swap1\n      pop\n        /* \"#utility.yul\":34938:34947   */\n      dup2\n        /* \"#utility.yul\":34932:34936   */\n      dup2\n        /* \"#utility.yul\":34928:34948   */\n      sub\n        /* \"#utility.yul\":34924:34925   */\n      0x00\n        /* \"#utility.yul\":34913:34922   */\n      dup4\n        /* \"#utility.yul\":34909:34926   */\n      add\n        /* \"#utility.yul\":34902:34949   */\n      mstore\n        /* \"#utility.yul\":34966:35084   */\n      tag_741\n        /* \"#utility.yul\":35079:35083   */\n      dup2\n        /* \"#utility.yul\":35070:35076   */\n      dup7\n        /* \"#utility.yul\":35062:35068   */\n      dup9\n        /* \"#utility.yul\":34966:35084   */\n      tag_396\n      jump\t// in\n    tag_741:\n        /* \"#utility.yul\":34958:35084   */\n      swap1\n      pop\n        /* \"#utility.yul\":35131:35140   */\n      dup2\n        /* \"#utility.yul\":35125:35129   */\n      dup2\n        /* \"#utility.yul\":35121:35141   */\n      sub\n        /* \"#utility.yul\":35116:35118   */\n      0x20\n        /* \"#utility.yul\":35105:35114   */\n      dup4\n        /* \"#utility.yul\":35101:35119   */\n      add\n        /* \"#utility.yul\":35094:35142   */\n      mstore\n        /* \"#utility.yul\":35159:35277   */\n      tag_742\n        /* \"#utility.yul\":35272:35276   */\n      dup2\n        /* \"#utility.yul\":35263:35269   */\n      dup5\n        /* \"#utility.yul\":35255:35261   */\n      dup7\n        /* \"#utility.yul\":35159:35277   */\n      tag_396\n      jump\t// in\n    tag_742:\n        /* \"#utility.yul\":35151:35277   */\n      swap1\n      pop\n        /* \"#utility.yul\":34610:35284   */\n      swap6\n      swap5\n      pop\n      pop\n      pop\n      pop\n      pop\n      jump\t// out\n        /* \"#utility.yul\":35290:35448   */\n    tag_397:\n        /* \"#utility.yul\":35430:35440   */\n      0x546f6f2068696768000000000000000000000000000000000000000000000000\n        /* \"#utility.yul\":35426:35427   */\n      0x00\n        /* \"#utility.yul\":35418:35424   */\n      dup3\n        /* \"#utility.yul\":35414:35428   */\n      add\n        /* \"#utility.yul\":35407:35441   */\n      mstore\n        /* \"#utility.yul\":35290:35448   */\n      pop\n      jump\t// out\n        /* \"#utility.yul\":35454:35819   */\n    tag_398:\n        /* \"#utility.yul\":35596:35599   */\n      0x00\n        /* \"#utility.yul\":35617:35683   */\n      tag_745\n        /* \"#utility.yul\":35681:35682   */\n      0x08\n        /* \"#utility.yul\":35676:35679   */\n      dup4\n        /* \"#utility.yul\":35617:35683   */\n      tag_338\n      jump\t// in\n    tag_745:\n        /* \"#utility.yul\":35610:35683   */\n      swap2\n      pop\n        /* \"#utility.yul\":35692:35785   */\n      tag_746\n        /* \"#utility.yul\":35781:35784   */\n      dup3\n        /* \"#utility.yul\":35692:35785   */\n      tag_397\n      jump\t// in\n    tag_746:\n        /* \"#utility.yul\":35810:35812   */\n      0x20\n        /* \"#utility.yul\":35805:35808   */\n      dup3\n        /* \"#utility.yul\":35801:35813   */\n      add\n        /* \"#utility.yul\":35794:35813   */\n      swap1\n      pop\n        /* \"#utility.yul\":35454:35819   */\n      swap2\n      swap1\n      pop\n      jump\t// out\n        /* \"#utility.yul\":35825:36244   */\n    tag_312:\n        /* \"#utility.yul\":35991:35995   */\n      0x00\n        /* \"#utility.yul\":36029:36031   */\n      0x20\n        /* \"#utility.yul\":36018:36027   */\n      dup3\n        /* \"#utility.yul\":36014:36032   */\n      add\n        /* \"#utility.yul\":36006:36032   */\n      swap1\n      pop\n        /* \"#utility.yul\":36078:36087   */\n      dup2\n        /* \"#utility.yul\":36072:36076   */\n      dup2\n        /* \"#utility.yul\":36068:36088   */\n      sub\n        /* \"#utility.yul\":36064:36065   */\n      0x00\n        /* \"#utility.yul\":36053:36062   */\n      dup4\n        /* \"#utility.yul\":36049:36066   */\n      add\n        /* \"#utility.yul\":36042:36089   */\n      mstore\n        /* \"#utility.yul\":36106:36237   */\n      tag_748\n        /* \"#utility.yul\":36232:36236   */\n      dup2\n        /* \"#utility.yul\":36106:36237   */\n      tag_398\n      jump\t// in\n    tag_748:\n        /* \"#utility.yul\":36098:36237   */\n      swap1\n      pop\n        /* \"#utility.yul\":35825:36244   */\n      swap2\n      swap1\n      pop\n      jump\t// out\n        /* \"#utility.yul\":36250:36391   */\n    tag_399:\n        /* \"#utility.yul\":36299:36303   */\n      0x00\n        /* \"#utility.yul\":36322:36325   */\n      dup2\n        /* \"#utility.yul\":36314:36325   */\n      swap1\n      pop\n        /* \"#utility.yul\":36345:36348   */\n      dup2\n        /* \"#utility.yul\":36342:36343   */\n      0x00\n        /* \"#utility.yul\":36335:36349   */\n      mstore\n        /* \"#utility.yul\":36379:36383   */\n      0x20\n        /* \"#utility.yul\":36376:36377   */\n      0x00\n        /* \"#utility.yul\":36366:36384   */\n      keccak256\n        /* \"#utility.yul\":36358:36384   */\n      swap1\n      pop\n        /* \"#utility.yul\":36250:36391   */\n      swap2\n      swap1\n      pop\n      jump\t// out\n        /* \"#utility.yul\":36397:36490   */\n    tag_400:\n        /* \"#utility.yul\":36434:36440   */\n      0x00\n        /* \"#utility.yul\":36481:36483   */\n      0x20\n        /* \"#utility.yul\":36476:36478   */\n      0x1f\n        /* \"#utility.yul\":36469:36474   */\n      dup4\n        /* \"#utility.yul\":36465:36479   */\n      add\n        /* \"#utility.yul\":36461:36484   */\n      div\n        /* \"#utility.yul\":36451:36484   */\n      swap1\n      pop\n        /* \"#utility.yul\":36397:36490   */\n      swap2\n      swap1\n      pop\n      jump\t// out\n        /* \"#utility.yul\":36496:36603   */\n    tag_401:\n        /* \"#utility.yul\":36540:36548   */\n      0x00\n        /* \"#utility.yul\":36590:36595   */\n      dup3\n        /* \"#utility.yul\":36584:36588   */\n      dup3\n        /* \"#utility.yul\":36580:36596   */\n      shl\n        /* \"#utility.yul\":36559:36596   */\n      swap1\n      pop\n        /* \"#utility.yul\":36496:36603   */\n      swap3\n      swap2\n      pop\n      pop\n      jump\t// out\n        /* \"#utility.yul\":36609:37002   */\n    tag_402:\n        /* \"#utility.yul\":36678:36684   */\n      0x00\n        /* \"#utility.yul\":36728:36729   */\n      0x08\n        /* \"#utility.yul\":36716:36726   */\n      dup4\n        /* \"#utility.yul\":36712:36730   */\n      mul\n        /* \"#utility.yul\":36751:36848   */\n      tag_753\n        /* \"#utility.yul\":36781:36847   */\n      0xffffffffffffffffffffffffffffffffffffffffffffffffffffffffffffffff\n        /* \"#utility.yul\":36770:36779   */\n      dup3\n        /* \"#utility.yul\":36751:36848   */\n      tag_401\n      jump\t// in\n    tag_753:\n        /* \"#utility.yul\":36869:36908   */\n      tag_754\n        /* \"#utility.yul\":36899:36907   */\n      dup7\n        /* \"#utility.yul\":36888:36897   */\n      dup4\n        /* \"#utility.yul\":36869:36908   */\n      tag_401\n      jump\t// in\n    tag_754:\n        /* \"#utility.yul\":36857:36908   */\n      swap6\n      pop\n        /* \"#utility.yul\":36941:36945   */\n      dup1\n        /* \"#utility.yul\":36937:36946   */\n      not\n        /* \"#utility.yul\":36930:36935   */\n      dup5\n        /* \"#utility.yul\":36926:36947   */\n      and\n        /* \"#utility.yul\":36917:36947   */\n      swap4\n      pop\n        /* \"#utility.yul\":36990:36994   */\n      dup1\n        /* \"#utility.yul\":36980:36988   */\n      dup7\n        /* \"#utility.yul\":36976:36995   */\n      and\n        /* \"#utility.yul\":36969:36974   */\n      dup5\n        /* \"#utility.yul\":36966:36996   */\n      or\n        /* \"#utility.yul\":36956:36996   */\n      swap3\n      pop\n        /* \"#utility.yul\":36685:37002   */\n      pop\n      pop\n        /* \"#utility.yul\":36609:37002   */\n      swap4\n      swap3\n      pop\n      pop\n      pop\n      jump\t// out\n        /* \"#utility.yul\":37008:37068   */\n    tag_403:\n        /* \"#utility.yul\":37036:37039   */\n      0x00\n        /* \"#utility.yul\":37057:37062   */\n      dup2\n        /* \"#utility.yul\":37050:37062   */\n      swap1\n      pop\n        /* \"#utility.yul\":37008:37068   */\n      swap2\n      swap1\n      pop\n      jump\t// out\n        /* \"#utility.yul\":37074:37216   */\n    tag_404:\n        /* \"#utility.yul\":37124:37133   */\n      0x00\n        /* \"#utility.yul\":37157:37210   */\n      tag_757\n        /* \"#utility.yul\":37175:37209   */\n      tag_758\n        /* \"#utility.yul\":37184:37208   */\n      tag_759\n        /* \"#utility.yul\":37202:37207   */\n      dup5\n        /* \"#utility.yul\":37184:37208   */\n      tag_328\n      jump\t// in\n    tag_759:\n        /* \"#utility.yul\":37175:37209   */\n      tag_403\n      jump\t// in\n    tag_758:\n        /* \"#utility.yul\":37157:37210   */\n      tag_328\n      jump\t// in\n    tag_757:\n        /* \"#utility.yul\":37144:37210   */\n      swap1\n      pop\n        /* \"#utility.yul\":37074:37216   */\n      swap2\n      swap1\n      pop\n      jump\t// out\n        /* \"#utility.yul\":37222:37297   */\n    tag_405:\n        /* \"#utility.yul\":37265:37268   */\n      0x00\n        /* \"#utility.yul\":37286:37291   */\n      dup2\n        /* \"#utility.yul\":37279:37291   */\n      swap1\n      pop\n        /* \"#utility.yul\":37222:37297   */\n      swap2\n      swap1\n      pop\n      jump\t// out\n        /* \"#utility.yul\":37303:37572   */\n    tag_406:\n        /* \"#utility.yul\":37413:37452   */\n      tag_762\n        /* \"#utility.yul\":37444:37451   */\n      dup4\n        /* \"#utility.yul\":37413:37452   */\n      tag_404\n      jump\t// in\n    tag_762:\n        /* \"#utility.yul\":37474:37565   */\n      tag_763\n        /* \"#utility.yul\":37523:37564   */\n      tag_764\n        /* \"#utility.yul\":37547:37563   */\n      dup3\n        /* \"#utility.yul\":37523:37564   */\n      tag_405\n      jump\t// in\n    tag_764:\n        /* \"#utility.yul\":37515:37521   */\n      dup5\n        /* \"#utility.yul\":37508:37512   */\n      dup5\n        /* \"#utility.yul\":37502:37513   */\n      sload\n        /* \"#utility.yul\":37474:37565   */\n      tag_402\n      jump\t// in\n    tag_763:\n        /* \"#utility.yul\":37468:37472   */\n      dup3\n        /* \"#utility.yul\":37461:37566   */\n      sstore\n        /* \"#utility.yul\":37379:37572   */\n      pop\n        /* \"#utility.yul\":37303:37572   */\n      pop\n      pop\n      pop\n      jump\t// out\n        /* \"#utility.yul\":37578:37651   */\n    tag_407:\n        /* \"#utility.yul\":37623:37626   */\n      0x00\n        /* \"#utility.yul\":37644:37645   */\n      0x00\n        /* \"#utility.yul\":37637:37645   */\n      swap1\n      pop\n        /* \"#utility.yul\":37578:37651   */\n      swap1\n      jump\t// out\n        /* \"#utility.yul\":37657:37846   */\n    tag_408:\n        /* \"#utility.yul\":37734:37766   */\n      tag_767\n      tag_407\n      jump\t// in\n    tag_767:\n        /* \"#utility.yul\":37775:37840   */\n      tag_768\n        /* \"#utility.yul\":37833:37839   */\n      dup2\n        /* \"#utility.yul\":37825:37831   */\n      dup5\n        /* \"#utility.yul\":37819:37823   */\n      dup5\n        /* \"#utility.yul\":37775:37840   */\n      tag_406\n      jump\t// in\n    tag_768:\n        /* \"#utility.yul\":37710:37846   */\n      pop\n        /* \"#utility.yul\":37657:37846   */\n      pop\n      pop\n      jump\t// out\n        /* \"#utility.yul\":37852:38038   */\n    tag_409:\n        /* \"#utility.yul\":37912:38032   */\n    tag_770:\n        /* \"#utility.yul\":37929:37932   */\n      dup2\n        /* \"#utility.yul\":37922:37927   */\n      dup2\n        /* \"#utility.yul\":37919:37933   */\n      lt\n        /* \"#utility.yul\":37912:38032   */\n      iszero\n      tag_772\n      jumpi\n        /* \"#utility.yul\":37983:38022   */\n      tag_773\n        /* \"#utility.yul\":38020:38021   */\n      0x00\n        /* \"#utility.yul\":38013:38018   */\n      dup3\n        /* \"#utility.yul\":37983:38022   */\n      tag_408\n      jump\t// in\n    tag_773:\n        /* \"#utility.yul\":37956:37957   */\n      0x01\n        /* \"#utility.yul\":37949:37954   */\n      dup2\n        /* \"#utility.yul\":37945:37958   */\n      add\n        /* \"#utility.yul\":37936:37958   */\n      swap1\n      pop\n        /* \"#utility.yul\":37912:38032   */\n      jump(tag_770)\n    tag_772:\n        /* \"#utility.yul\":37852:38038   */\n      pop\n      pop\n      jump\t// out\n        /* \"#utility.yul\":38044:38587   */\n    tag_410:\n        /* \"#utility.yul\":38145:38147   */\n      0x1f\n        /* \"#utility.yul\":38140:38143   */\n      dup3\n        /* \"#utility.yul\":38137:38148   */\n      gt\n        /* \"#utility.yul\":38134:38580   */\n      iszero\n      tag_775\n      jumpi\n        /* \"#utility.yul\":38179:38217   */\n      tag_776\n        /* \"#utility.yul\":38211:38216   */\n      dup2\n        /* \"#utility.yul\":38179:38217   */\n      tag_399\n      jump\t// in\n    tag_776:\n        /* \"#utility.yul\":38263:38292   */\n      tag_777\n        /* \"#utility.yul\":38281:38291   */\n      dup5\n        /* \"#utility.yul\":38263:38292   */\n      tag_400\n      jump\t// in\n    tag_777:\n        /* \"#utility.yul\":38253:38261   */\n      dup2\n        /* \"#utility.yul\":38249:38293   */\n      add\n        /* \"#utility.yul\":38446:38448   */\n      0x20\n        /* \"#utility.yul\":38434:38444   */\n      dup6\n        /* \"#utility.yul\":38431:38449   */\n      lt\n        /* \"#utility.yul\":38428:38477   */\n      iszero\n      tag_778\n      jumpi\n        /* \"#utility.yul\":38467:38475   */\n      dup2\n        /* \"#utility.yul\":38452:38475   */\n      swap1\n      pop\n        /* \"#utility.yul\":38428:38477   */\n    tag_778:\n        /* \"#utility.yul\":38490:38570   */\n      tag_779\n        /* \"#utility.yul\":38546:38568   */\n      tag_780\n        /* \"#utility.yul\":38564:38567   */\n      dup6\n        /* \"#utility.yul\":38546:38568   */\n      tag_400\n      jump\t// in\n    tag_780:\n        /* \"#utility.yul\":38536:38544   */\n      dup4\n        /* \"#utility.yul\":38532:38569   */\n      add\n        /* \"#utility.yul\":38519:38530   */\n      dup3\n        /* \"#utility.yul\":38490:38570   */\n      tag_409\n      jump\t// in\n    tag_779:\n        /* \"#utility.yul\":38149:38580   */\n      pop\n      pop\n        /* \"#utility.yul\":38134:38580   */\n    tag_775:\n        /* \"#utility.yul\":38044:38587   */\n      pop\n      pop\n      pop\n      jump\t// out\n        /* \"#utility.yul\":38593:38710   */\n    tag_411:\n        /* \"#utility.yul\":38647:38655   */\n      0x00\n        /* \"#utility.yul\":38697:38702   */\n      dup3\n        /* \"#utility.yul\":38691:38695   */\n      dup3\n        /* \"#utility.yul\":38687:38703   */\n      shr\n        /* \"#utility.yul\":38666:38703   */\n      swap1\n      pop\n        /* \"#utility.yul\":38593:38710   */\n      swap3\n      swap2\n      pop\n      pop\n      jump\t// out\n        /* \"#utility.yul\":38716:38885   */\n    tag_412:\n        /* \"#utility.yul\":38760:38766   */\n      0x00\n        /* \"#utility.yul\":38793:38844   */\n      tag_783\n        /* \"#utility.yul\":38841:38842   */\n      0x00\n        /* \"#utility.yul\":38837:38843   */\n      not\n        /* \"#utility.yul\":38829:38834   */\n      dup5\n        /* \"#utility.yul\":38826:38827   */\n      0x08\n        /* \"#utility.yul\":38822:38835   */\n      mul\n        /* \"#utility.yul\":38793:38844   */\n      tag_411\n      jump\t// in\n    tag_783:\n        /* \"#utility.yul\":38789:38845   */\n      not\n        /* \"#utility.yul\":38874:38878   */\n      dup1\n        /* \"#utility.yul\":38868:38872   */\n      dup4\n        /* \"#utility.yul\":38864:38879   */\n      and\n        /* \"#utility.yul\":38854:38879   */\n      swap2\n      pop\n        /* \"#utility.yul\":38767:38885   */\n      pop\n        /* \"#utility.yul\":38716:38885   */\n      swap3\n      swap2\n      pop\n      pop\n      jump\t// out\n        /* \"#utility.yul\":38890:39185   */\n    tag_413:\n        /* \"#utility.yul\":38966:38970   */\n      0x00\n        /* \"#utility.yul\":39112:39141   */\n      tag_785\n        /* \"#utility.yul\":39137:39140   */\n      dup4\n        /* \"#utility.yul\":39131:39135   */\n      dup4\n        /* \"#utility.yul\":39112:39141   */\n      tag_412\n      jump\t// in\n    tag_785:\n        /* \"#utility.yul\":39104:39141   */\n      swap2\n      pop\n        /* \"#utility.yul\":39174:39177   */\n      dup3\n        /* \"#utility.yul\":39171:39172   */\n      0x02\n        /* \"#utility.yul\":39167:39178   */\n      mul\n        /* \"#utility.yul\":39161:39165   */\n      dup3\n        /* \"#utility.yul\":39158:39179   */\n      or\n        /* \"#utility.yul\":39150:39179   */\n      swap1\n      pop\n        /* \"#utility.yul\":38890:39185   */\n      swap3\n      swap2\n      pop\n      pop\n      jump\t// out\n        /* \"#utility.yul\":39190:40585   */\n    tag_317:\n        /* \"#utility.yul\":39307:39344   */\n      tag_787\n        /* \"#utility.yul\":39340:39343   */\n      dup3\n        /* \"#utility.yul\":39307:39344   */\n      tag_337\n      jump\t// in\n    tag_787:\n        /* \"#utility.yul\":39409:39427   */\n      0xffffffffffffffff\n        /* \"#utility.yul\":39401:39407   */\n      dup2\n        /* \"#utility.yul\":39398:39428   */\n      gt\n        /* \"#utility.yul\":39395:39451   */\n      iszero\n      tag_788\n      jumpi\n        /* \"#utility.yul\":39431:39449   */\n      tag_789\n      tag_208\n      jump\t// in\n    tag_789:\n        /* \"#utility.yul\":39395:39451   */\n    tag_788:\n        /* \"#utility.yul\":39475:39513   */\n      tag_790\n        /* \"#utility.yul\":39507:39511   */\n      dup3\n        /* \"#utility.yul\":39501:39512   */\n      sload\n        /* \"#utility.yul\":39475:39513   */\n      tag_143\n      jump\t// in\n    tag_790:\n        /* \"#utility.yul\":39560:39627   */\n      tag_791\n        /* \"#utility.yul\":39620:39626   */\n      dup3\n        /* \"#utility.yul\":39612:39618   */\n      dup3\n        /* \"#utility.yul\":39606:39610   */\n      dup6\n        /* \"#utility.yul\":39560:39627   */\n      tag_410\n      jump\t// in\n    tag_791:\n        /* \"#utility.yul\":39654:39655   */\n      0x00\n        /* \"#utility.yul\":39678:39682   */\n      0x20\n        /* \"#utility.yul\":39665:39682   */\n      swap1\n      pop\n        /* \"#utility.yul\":39710:39712   */\n      0x1f\n        /* \"#utility.yul\":39702:39708   */\n      dup4\n        /* \"#utility.yul\":39699:39713   */\n      gt\n        /* \"#utility.yul\":39727:39728   */\n      0x01\n        /* \"#utility.yul\":39722:40340   */\n      dup2\n      eq\n      tag_793\n      jumpi\n        /* \"#utility.yul\":40384:40385   */\n      0x00\n        /* \"#utility.yul\":40401:40407   */\n      dup5\n        /* \"#utility.yul\":40398:40475   */\n      iszero\n      tag_794\n      jumpi\n        /* \"#utility.yul\":40450:40459   */\n      dup3\n        /* \"#utility.yul\":40445:40448   */\n      dup8\n        /* \"#utility.yul\":40441:40460   */\n      add\n        /* \"#utility.yul\":40435:40461   */\n      mload\n        /* \"#utility.yul\":40426:40461   */\n      swap1\n      pop\n        /* \"#utility.yul\":40398:40475   */\n    tag_794:\n        /* \"#utility.yul\":40501:40568   */\n      tag_795\n        /* \"#utility.yul\":40561:40567   */\n      dup6\n        /* \"#utility.yul\":40554:40559   */\n      dup3\n        /* \"#utility.yul\":40501:40568   */\n      tag_413\n      jump\t// in\n    tag_795:\n        /* \"#utility.yul\":40495:40499   */\n      dup7\n        /* \"#utility.yul\":40488:40569   */\n      sstore\n        /* \"#utility.yul\":40357:40579   */\n      pop\n        /* \"#utility.yul\":39692:40579   */\n      jump(tag_792)\n        /* \"#utility.yul\":39722:40340   */\n    tag_793:\n        /* \"#utility.yul\":39774:39778   */\n      0x1f\n        /* \"#utility.yul\":39770:39779   */\n      not\n        /* \"#utility.yul\":39762:39768   */\n      dup5\n        /* \"#utility.yul\":39758:39780   */\n      and\n        /* \"#utility.yul\":39808:39845   */\n      tag_796\n        /* \"#utility.yul\":39840:39844   */\n      dup7\n        /* \"#utility.yul\":39808:39845   */\n      tag_399\n      jump\t// in\n    tag_796:\n        /* \"#utility.yul\":39867:39868   */\n      0x00\n        /* \"#utility.yul\":39881:40089   */\n    tag_797:\n        /* \"#utility.yul\":39895:39902   */\n      dup3\n        /* \"#utility.yul\":39892:39893   */\n      dup2\n        /* \"#utility.yul\":39889:39903   */\n      lt\n        /* \"#utility.yul\":39881:40089   */\n      iszero\n      tag_799\n      jumpi\n        /* \"#utility.yul\":39974:39983   */\n      dup5\n        /* \"#utility.yul\":39969:39972   */\n      dup10\n        /* \"#utility.yul\":39965:39984   */\n      add\n        /* \"#utility.yul\":39959:39985   */\n      mload\n        /* \"#utility.yul\":39951:39957   */\n      dup3\n        /* \"#utility.yul\":39944:39986   */\n      sstore\n        /* \"#utility.yul\":40025:40026   */\n      0x01\n        /* \"#utility.yul\":40017:40023   */\n      dup3\n        /* \"#utility.yul\":40013:40027   */\n      add\n        /* \"#utility.yul\":40003:40027   */\n      swap2\n      pop\n        /* \"#utility.yul\":40072:40074   */\n      0x20\n        /* \"#utility.yul\":40061:40070   */\n      dup6\n        /* \"#utility.yul\":40057:40075   */\n      add\n        /* \"#utility.yul\":40044:40075   */\n      swap5\n      pop\n        /* \"#utility.yul\":39918:39922   */\n      0x20\n        /* \"#utility.yul\":39915:39916   */\n      dup2\n        /* \"#utility.yul\":39911:39923   */\n      add\n        /* \"#utility.yul\":39906:39923   */\n      swap1\n      pop\n        /* \"#utility.yul\":39881:40089   */\n      jump(tag_797)\n    tag_799:\n        /* \"#utility.yul\":40117:40123   */\n      dup7\n        /* \"#utility.yul\":40108:40115   */\n      dup4\n        /* \"#utility.yul\":40105:40124   */\n      lt\n        /* \"#utility.yul\":40102:40281   */\n      iszero\n      tag_800\n      jumpi\n        /* \"#utility.yul\":40175:40184   */\n      dup5\n        /* \"#utility.yul\":40170:40173   */\n      dup10\n        /* \"#utility.yul\":40166:40185   */\n      add\n        /* \"#utility.yul\":40160:40186   */\n      mload\n        /* \"#utility.yul\":40218:40266   */\n      tag_801\n        /* \"#utility.yul\":40260:40264   */\n      0x1f\n        /* \"#utility.yul\":40252:40258   */\n      dup10\n        /* \"#utility.yul\":40248:40265   */\n      and\n        /* \"#utility.yul\":40237:40246   */\n      dup3\n        /* \"#utility.yul\":40218:40266   */\n      tag_412\n      jump\t// in\n    tag_801:\n        /* \"#utility.yul\":40210:40216   */\n      dup4\n        /* \"#utility.yul\":40203:40267   */\n      sstore\n        /* \"#utility.yul\":40125:40281   */\n      pop\n        /* \"#utility.yul\":40102:40281   */\n    tag_800:\n        /* \"#utility.yul\":40327:40328   */\n      0x01\n        /* \"#utility.yul\":40323:40324   */\n      0x02\n        /* \"#utility.yul\":40315:40321   */\n      dup9\n        /* \"#utility.yul\":40311:40325   */\n      mul\n        /* \"#utility.yul\":40307:40329   */\n      add\n        /* \"#utility.yul\":40301:40305   */\n      dup9\n        /* \"#utility.yul\":40294:40330   */\n      sstore\n        /* \"#utility.yul\":39729:40340   */\n      pop\n      pop\n      pop\n        /* \"#utility.yul\":39692:40579   */\n    tag_792:\n      pop\n        /* \"#utility.yul\":39282:40585   */\n      pop\n      pop\n      pop\n        /* \"#utility.yul\":39190:40585   */\n      pop\n      pop\n      jump\t// out\n\n    auxdata: 0xa26469706673582212201cb527216409846981b1377c9829537d372d16ca71e3a3bdae36c097678310fd64736f6c634300081e0033\n}\n",
				"bytecode": {
					"linkReferences": {},
					"object": "6080604052348015600e575f5ffd5b503360075f6101000a81548173ffffffffffffffffffffffffffffffffffffffff021916908373ffffffffffffffffffffffffffffffffffffffff160217905550613a6b8061005c5f395ff3fe608060405260043610610128575f3560e01c80634e1273f4116100aa578063a22cb4651161006e578063a22cb465146103ed578063b9a2de3a14610415578063cda4beef1461043d578063e985e9c514610479578063fba0ee64146104b5578063fd8bf596146104dd57610128565b80634e1273f414610305578063571a26a0146103415780635c975abb146103835780638456cb59146103ad5780638da5cb5b146103c357610128565b80632a55205a116100f15780632a55205a146102305780632ad715731461026d5780633f1ffcec146102975780633f4ba83a146102d3578063454a2ab3146102e957610128565b8062fdd58e1461012c57806301ffc9a7146101685780630e89341c146101a45780630eaaf4c8146101e05780630febdd4914610208575b5f5ffd5b348015610137575f5ffd5b50610152600480360381019061014d9190612667565b610505565b60405161015f91906126b4565b60405180910390f35b348015610173575f5ffd5b5061018e60048036038101906101899190612722565b6105c8565b60405161019b9190612767565b60405180910390f35b3480156101af575f5ffd5b506101ca60048036038101906101c59190612780565b610629565b6040516101d7919061281b565b60405180910390f35b3480156101eb575f5ffd5b5061020660048036038101906102019190612780565b6106ca565b005b348015610213575f5ffd5b5061022e6004803603810190610229919061283b565b61087f565b005b34801561023b575f5ffd5b506102566004803603810190610251919061289f565b610c0b565b6040516102649291906128ec565b60405180910390f35b348015610278575f5ffd5b50610281610cfd565b60405161028e91906126b4565b60405180910390f35b3480156102a2575f5ffd5b506102bd60048036038101906102b89190612913565b610d03565b6040516102ca91906126b4565b60405180910390f35b3480156102de575f5ffd5b506102e7610d23565b005b61030360048036038101906102fe9190612780565b610dce565b005b348015610310575f5ffd5b5061032b60048036038101906103269190612a07565b61104e565b6040516103389190612b3c565b60405180910390f35b34801561034c575f5ffd5b5061036760048036038101906103629190612780565b6111bc565b60405161037a9796959493929190612b5c565b60405180910390f35b34801561038e575f5ffd5b50610397611245565b6040516103a49190612767565b60405180910390f35b3480156103b8575f5ffd5b506103c1611258565b005b3480156103ce575f5ffd5b506103d7611304565b6040516103e49190612bc9565b60405180910390f35b3480156103f8575f5ffd5b50610413600480360381019061040e9190612c0c565b611329565b005b348015610420575f5ffd5b5061043b60048036038101906104369190612780565b611471565b005b348015610448575f5ffd5b50610463600480360381019061045e9190612c4a565b6118c3565b60405161047091906126b4565b60405180910390f35b348015610484575f5ffd5b5061049f600480360381019061049a9190612c9a565b611c7d565b6040516104ac9190612767565b60405180910390f35b3480156104c0575f5ffd5b506104db60048036038101906104d69190612cd8565b611d0b565b005b3480156104e8575f5ffd5b5061050360048036038101906104fe9190612ee4565b612199565b005b5f5f73ffffffffffffffffffffffffffffffffffffffff168373ffffffffffffffffffffffffffffffffffffffff1603610574576040517f08c379a000000000000000000000000000000000000000000000000000000000815260040161056b90612fd3565b60405180910390fd5b5f5f8381526020019081526020015f205f8473ffffffffffffffffffffffffffffffffffffffff1673ffffffffffffffffffffffffffffffffffffffff1681526020019081526020015f2054905092915050565b5f63d9b67a2660e01b827bffffffffffffffffffffffffffffffffffffffffffffffffffffffff191614806106225750632a55205a60e01b827bffffffffffffffffffffffffffffffffffffffffffffffffffffffff1916145b9050919050565b606060025f8381526020019081526020015f2080546106479061301e565b80601f01602080910402602001604051908101604052809291908181526020018280546106739061301e565b80156106be5780601f10610695576101008083540402835291602001916106be565b820191905f5260205f20905b8154815290600101906020018083116106a157829003601f168201915b50505050509050919050565b600760149054906101000a900460ff161561071a576040517f08c379a000000000000000000000000000000000000000000000000000000000815260040161071190613098565b60405180910390fd5b5f60065f8381526020019081526020015f205f3373ffffffffffffffffffffffffffffffffffffffff1673ffffffffffffffffffffffffffffffffffffffff1681526020019081526020015f205490505f81116107ac576040517f08c379a00000000000000000000000000000000000000000000000000000000081526004016107a390613100565b60405180910390fd5b5f60065f8481526020019081526020015f205f3373ffffffffffffffffffffffffffffffffffffffff1673ffffffffffffffffffffffffffffffffffffffff1681526020019081526020015f20819055503373ffffffffffffffffffffffffffffffffffffffff166108fc8290811502906040515f60405180830381858888f19350505050158015610840573d5f5f3e3d5ffd5b50817f7ca5472b7ea78c2c0141c5a12ee6d170cf4ce8ed06be3d22c8252ddfc7a6a2c433836040516108739291906128ec565b60405180910390a25050565b600760149054906101000a900460ff16156108cf576040517f08c379a00000000000000000000000000000000000000000000000000000000081526004016108c690613098565b60405180910390fd5b3373ffffffffffffffffffffffffffffffffffffffff168473ffffffffffffffffffffffffffffffffffffffff16148061098a575060015f8573ffffffffffffffffffffffffffffffffffffffff1673ffffffffffffffffffffffffffffffffffffffff1681526020019081526020015f205f3373ffffffffffffffffffffffffffffffffffffffff1673ffffffffffffffffffffffffffffffffffffffff1681526020019081526020015f205f9054906101000a900460ff165b6109c9576040517f08c379a00000000000000000000000000000000000000000000000000000000081526004016109c090613168565b60405180910390fd5b5f73ffffffffffffffffffffffffffffffffffffffff168373ffffffffffffffffffffffffffffffffffffffff1603610a37576040517f08c379a0000000000000000000000000000000000000000000000000000000008152600401610a2e90612fd3565b60405180910390fd5b805f5f8481526020019081526020015f205f8673ffffffffffffffffffffffffffffffffffffffff1673ffffffffffffffffffffffffffffffffffffffff1681526020019081526020015f20541015610ac5576040517f08c379a0000000000000000000000000000000000000000000000000000000008152600401610abc906131d0565b60405180910390fd5b805f5f8481526020019081526020015f205f8673ffffffffffffffffffffffffffffffffffffffff1673ffffffffffffffffffffffffffffffffffffffff1681526020019081526020015f205f828254610b1f919061321b565b92505081905550805f5f8481526020019081526020015f205f8573ffffffffffffffffffffffffffffffffffffffff1673ffffffffffffffffffffffffffffffffffffffff1681526020019081526020015f205f828254610b80919061324e565b925050819055508273ffffffffffffffffffffffffffffffffffffffff168473ffffffffffffffffffffffffffffffffffffffff163373ffffffffffffffffffffffffffffffffffffffff167fc3d58168c5ae7397731d063d5bbf3d657854427343f4c083240f7aacaa2d0f628585604051610bfd929190613281565b60405180910390a450505050565b5f5f5f60035f8681526020019081526020015f206040518060400160405290815f82015f9054906101000a900473ffffffffffffffffffffffffffffffffffffffff1673ffffffffffffffffffffffffffffffffffffffff1673ffffffffffffffffffffffffffffffffffffffff1681526020015f820160149054906101000a90046bffffffffffffffffffffffff166bffffffffffffffffffffffff166bffffffffffffffffffffffff168152505090505f61271082602001516bffffffffffffffffffffffff1686610cdf91906132a8565b610ce99190613316565b9050815f0151819350935050509250929050565b60045481565b6006602052815f5260405f20602052805f5260405f205f91509150505481565b60075f9054906101000a900473ffffffffffffffffffffffffffffffffffffffff1673ffffffffffffffffffffffffffffffffffffffff163373ffffffffffffffffffffffffffffffffffffffff1614610db2576040517f08c379a0000000000000000000000000000000000000000000000000000000008152600401610da990613390565b60405180910390fd5b5f600760146101000a81548160ff021916908315150217905550565b8060055f8281526020019081526020015f20600301544210610e25576040517f08c379a0000000000000000000000000000000000000000000000000000000008152600401610e1c906133f8565b60405180910390fd5b600760149054906101000a900460ff1615610e75576040517f08c379a0000000000000000000000000000000000000000000000000000000008152600401610e6c90613098565b60405180910390fd5b5f60055f8481526020019081526020015f20905080600401543411610ecf576040517f08c379a0000000000000000000000000000000000000000000000000000000008152600401610ec690613460565b60405180910390fd5b5f73ffffffffffffffffffffffffffffffffffffffff16816005015f9054906101000a900473ffffffffffffffffffffffffffffffffffffffff1673ffffffffffffffffffffffffffffffffffffffff1614610faf57806004015460065f8581526020019081526020015f205f836005015f9054906101000a900473ffffffffffffffffffffffffffffffffffffffff1673ffffffffffffffffffffffffffffffffffffffff1673ffffffffffffffffffffffffffffffffffffffff1681526020019081526020015f205f828254610fa7919061324e565b925050819055505b34816004018190555033816005015f6101000a81548173ffffffffffffffffffffffffffffffffffffffff021916908373ffffffffffffffffffffffffffffffffffffffff1602179055503373ffffffffffffffffffffffffffffffffffffffff16837f0e54eff26401bf69b81b26f60bd85ef47f5d85275c1d268d84f68d6897431c473460405161104191906126b4565b60405180910390a3505050565b6060828290508585905014611098576040517f08c379a000000000000000000000000000000000000000000000000000000000815260040161108f906134c8565b60405180910390fd5b5f8585905067ffffffffffffffff8111156110b6576110b5612d7f565b5b6040519080825280602002602001820160405280156110e45781602001602082028036833780820191505090505b5090505f5f90505b868690508110156111af575f5f86868481811061110c5761110b6134e6565b5b9050602002013581526020019081526020015f205f888884818110611134576111336134e6565b5b90506020020160208101906111499190613513565b73ffffffffffffffffffffffffffffffffffffffff1673ffffffffffffffffffffffffffffffffffffffff1681526020019081526020015f2054828281518110611196576111956134e6565b5b60200260200101818152505080806001019150506110ec565b5080915050949350505050565b6005602052805f5260405f205f91509050805f015f9054906101000a900473ffffffffffffffffffffffffffffffffffffffff1690806001015490806002015490806003015490806004015490806005015f9054906101000a900473ffffffffffffffffffffffffffffffffffffffff16908060050160149054906101000a900460ff16905087565b600760149054906101000a900460ff1681565b60075f9054906101000a900473ffffffffffffffffffffffffffffffffffffffff1673ffffffffffffffffffffffffffffffffffffffff163373ffffffffffffffffffffffffffffffffffffffff16146112e7576040517f08c379a00000000000000000000000000000000000000000000000000000000081526004016112de90613390565b60405180910390fd5b6001600760146101000a81548160ff021916908315150217905550565b60075f9054906101000a900473ffffffffffffffffffffffffffffffffffffffff1681565b600760149054906101000a900460ff1615611379576040517f08c379a000000000000000000000000000000000000000000000000000000000815260040161137090613098565b60405180910390fd5b8060015f3373ffffffffffffffffffffffffffffffffffffffff1673ffffffffffffffffffffffffffffffffffffffff1681526020019081526020015f205f8473ffffffffffffffffffffffffffffffffffffffff1673ffffffffffffffffffffffffffffffffffffffff1681526020019081526020015f205f6101000a81548160ff0219169083151502179055508173ffffffffffffffffffffffffffffffffffffffff163373ffffffffffffffffffffffffffffffffffffffff167f17307eab39ab6107e8899845ad3d59bd9653f200f220920489ca2b5937696c31836040516114659190612767565b60405180910390a35050565b8060055f8281526020019081526020015f20600301544210156114c9576040517f08c379a00000000000000000000000000000000000000000000000000000000081526004016114c090613588565b60405180910390fd5b8160055f8281526020019081526020015f2060050160149054906101000a900460ff161561152c576040517f08c379a0000000000000000000000000000000000000000000000000000000008152600401611523906135f0565b60405180910390fd5b600760149054906101000a900460ff161561157c576040517f08c379a000000000000000000000000000000000000000000000000000000000815260040161157390613098565b60405180910390fd5b5f60055f8581526020019081526020015f20905060018160050160146101000a81548160ff0219169083151502179055505f73ffffffffffffffffffffffffffffffffffffffff16816005015f9054906101000a900473ffffffffffffffffffffffffffffffffffffffff1673ffffffffffffffffffffffffffffffffffffffff16146117675780600201545f5f836001015481526020019081526020015f205f3073ffffffffffffffffffffffffffffffffffffffff1673ffffffffffffffffffffffffffffffffffffffff1681526020019081526020015f205f828254611665919061321b565b9250508190555080600201545f5f836001015481526020019081526020015f205f836005015f9054906101000a900473ffffffffffffffffffffffffffffffffffffffff1673ffffffffffffffffffffffffffffffffffffffff1673ffffffffffffffffffffffffffffffffffffffff1681526020019081526020015f205f8282546116f1919061324e565b92505081905550805f015f9054906101000a900473ffffffffffffffffffffffffffffffffffffffff1673ffffffffffffffffffffffffffffffffffffffff166108fc826004015490811502906040515f60405180830381858888f19350505050158015611761573d5f5f3e3d5ffd5b5061185c565b80600201545f5f836001015481526020019081526020015f205f3073ffffffffffffffffffffffffffffffffffffffff1673ffffffffffffffffffffffffffffffffffffffff1681526020019081526020015f205f8282546117c9919061321b565b9250508190555080600201545f5f836001015481526020019081526020015f205f835f015f9054906101000a900473ffffffffffffffffffffffffffffffffffffffff1673ffffffffffffffffffffffffffffffffffffffff1673ffffffffffffffffffffffffffffffffffffffff1681526020019081526020015f205f828254611854919061324e565b925050819055505b837fd2aa34a4fdbbc6dff6a3e56f46e0f3ae2a31d7785ff3487aa5c95c642acea501826005015f9054906101000a900473ffffffffffffffffffffffffffffffffffffffff1683600401546040516118b59291906128ec565b60405180910390a250505050565b5f600760149054906101000a900460ff1615611914576040517f08c379a000000000000000000000000000000000000000000000000000000000815260040161190b90613098565b60405180910390fd5b825f5f8681526020019081526020015f205f3373ffffffffffffffffffffffffffffffffffffffff1673ffffffffffffffffffffffffffffffffffffffff1681526020019081526020015f205410156119a2576040517f08c379a000000000000000000000000000000000000000000000000000000000815260040161199990613390565b60405180910390fd5b603c8210156119e6576040517f08c379a00000000000000000000000000000000000000000000000000000000081526004016119dd90613658565b60405180910390fd5b825f5f8681526020019081526020015f205f3373ffffffffffffffffffffffffffffffffffffffff1673ffffffffffffffffffffffffffffffffffffffff1681526020019081526020015f205f828254611a40919061321b565b92505081905550825f5f8681526020019081526020015f205f3073ffffffffffffffffffffffffffffffffffffffff1673ffffffffffffffffffffffffffffffffffffffff1681526020019081526020015f205f828254611aa1919061324e565b9250508190555060045f815480929190611aba90613676565b91905055506040518060e001604052803373ffffffffffffffffffffffffffffffffffffffff1681526020018581526020018481526020018342611afe919061324e565b81526020015f81526020015f73ffffffffffffffffffffffffffffffffffffffff1681526020015f151581525060055f60045481526020019081526020015f205f820151815f015f6101000a81548173ffffffffffffffffffffffffffffffffffffffff021916908373ffffffffffffffffffffffffffffffffffffffff1602179055506020820151816001015560408201518160020155606082015181600301556080820151816004015560a0820151816005015f6101000a81548173ffffffffffffffffffffffffffffffffffffffff021916908373ffffffffffffffffffffffffffffffffffffffff16021790555060c08201518160050160146101000a81548160ff0219169083151502179055509050503373ffffffffffffffffffffffffffffffffffffffff166004547fc9050d42180a61cb0d9ebb8ad118b62fe6eab12cf12ff752c4a0cc7da9ddf627868542611c5b919061324e565b604051611c69929190613281565b60405180910390a360045490509392505050565b5f60015f8473ffffffffffffffffffffffffffffffffffffffff1673ffffffffffffffffffffffffffffffffffffffff1681526020019081526020015f205f8373ffffffffffffffffffffffffffffffffffffffff1673ffffffffffffffffffffffffffffffffffffffff1681526020019081526020015f205f9054906101000a900460ff16905092915050565b600760149054906101000a900460ff1615611d5b576040517f08c379a0000000000000000000000000000000000000000000000000000000008152600401611d5290613098565b60405180910390fd5b3373ffffffffffffffffffffffffffffffffffffffff168673ffffffffffffffffffffffffffffffffffffffff161480611e16575060015f8773ffffffffffffffffffffffffffffffffffffffff1673ffffffffffffffffffffffffffffffffffffffff1681526020019081526020015f205f3373ffffffffffffffffffffffffffffffffffffffff1673ffffffffffffffffffffffffffffffffffffffff1681526020019081526020015f205f9054906101000a900460ff165b611e55576040517f08c379a0000000000000000000000000000000000000000000000000000000008152600401611e4c90613168565b60405180910390fd5b5f73ffffffffffffffffffffffffffffffffffffffff168573ffffffffffffffffffffffffffffffffffffffff1603611ec3576040517f08c379a0000000000000000000000000000000000000000000000000000000008152600401611eba90612fd3565b60405180910390fd5b818190508484905014611f0b576040517f08c379a0000000000000000000000000000000000000000000000000000000008152600401611f02906134c8565b60405180910390fd5b5f5f90505b8484905081101561210e57828282818110611f2e57611f2d6134e6565b5b905060200201355f5f878785818110611f4a57611f496134e6565b5b9050602002013581526020019081526020015f205f8973ffffffffffffffffffffffffffffffffffffffff1673ffffffffffffffffffffffffffffffffffffffff1681526020019081526020015f20541015611fdb576040517f08c379a0000000000000000000000000000000000000000000000000000000008152600401611fd2906131d0565b60405180910390fd5b828282818110611fee57611fed6134e6565b5b905060200201355f5f87878581811061200a576120096134e6565b5b9050602002013581526020019081526020015f205f8973ffffffffffffffffffffffffffffffffffffffff1673ffffffffffffffffffffffffffffffffffffffff1681526020019081526020015f205f828254612067919061321b565b92505081905550828282818110612081576120806134e6565b5b905060200201355f5f87878581811061209d5761209c6134e6565b5b9050602002013581526020019081526020015f205f8873ffffffffffffffffffffffffffffffffffffffff1673ffffffffffffffffffffffffffffffffffffffff1681526020019081526020015f205f8282546120fa919061324e565b925050819055508080600101915050611f10565b508473ffffffffffffffffffffffffffffffffffffffff168673ffffffffffffffffffffffffffffffffffffffff163373ffffffffffffffffffffffffffffffffffffffff167f4a39dc06d4c0dbc64b70af90fd698a233a518aa5d07e595d983b8c0526c8f7fb878787876040516121899493929190613725565b60405180910390a4505050505050565b60075f9054906101000a900473ffffffffffffffffffffffffffffffffffffffff1673ffffffffffffffffffffffffffffffffffffffff163373ffffffffffffffffffffffffffffffffffffffff1614612228576040517f08c379a000000000000000000000000000000000000000000000000000000000815260040161221f90613390565b60405180910390fd5b600760149054906101000a900460ff1615612278576040517f08c379a000000000000000000000000000000000000000000000000000000000815260040161226f90613098565b60405180910390fd5b5f73ffffffffffffffffffffffffffffffffffffffff168673ffffffffffffffffffffffffffffffffffffffff16036122e6576040517f08c379a00000000000000000000000000000000000000000000000000000000081526004016122dd90612fd3565b60405180910390fd5b612710816bffffffffffffffffffffffff161115612339576040517f08c379a0000000000000000000000000000000000000000000000000000000008152600401612330906137a8565b60405180910390fd5b835f5f8781526020019081526020015f205f8873ffffffffffffffffffffffffffffffffffffffff1673ffffffffffffffffffffffffffffffffffffffff1681526020019081526020015f205f828254612393919061324e565b925050819055505f60025f8781526020019081526020015f2080546123b79061301e565b905003612416578260025f8781526020019081526020015f2090816123dc9190613966565b50847f6bb7ff708619ba0610cba295a58592e0451dee2622938c8755667688daf3529b8460405161240d919061281b565b60405180910390a25b5f73ffffffffffffffffffffffffffffffffffffffff1660035f8781526020019081526020015f205f015f9054906101000a900473ffffffffffffffffffffffffffffffffffffffff1673ffffffffffffffffffffffffffffffffffffffff16036125435760405180604001604052808373ffffffffffffffffffffffffffffffffffffffff168152602001826bffffffffffffffffffffffff1681525060035f8781526020019081526020015f205f820151815f015f6101000a81548173ffffffffffffffffffffffffffffffffffffffff021916908373ffffffffffffffffffffffffffffffffffffffff1602179055506020820151815f0160146101000a8154816bffffffffffffffffffffffff02191690836bffffffffffffffffffffffff1602179055509050505b8573ffffffffffffffffffffffffffffffffffffffff165f73ffffffffffffffffffffffffffffffffffffffff163373ffffffffffffffffffffffffffffffffffffffff167fc3d58168c5ae7397731d063d5bbf3d657854427343f4c083240f7aacaa2d0f6288886040516125b9929190613281565b60405180910390a4505050505050565b5f604051905090565b5f5ffd5b5f5ffd5b5f73ffffffffffffffffffffffffffffffffffffffff82169050919050565b5f612603826125da565b9050919050565b612613816125f9565b811461261d575f5ffd5b50565b5f8135905061262e8161260a565b92915050565b5f819050919050565b61264681612634565b8114612650575f5ffd5b50565b5f813590506126618161263d565b92915050565b5f5f6040838503121561267d5761267c6125d2565b5b5f61268a85828601612620565b925050602061269b85828601612653565b9150509250929050565b6126ae81612634565b82525050565b5f6020820190506126c75f8301846126a5565b92915050565b5f7fffffffff0000000000000000000000000000000000000000000000000000000082169050919050565b612701816126cd565b811461270b575f5ffd5b50565b5f8135905061271c816126f8565b92915050565b5f60208284031215612737576127366125d2565b5b5f6127448482850161270e565b91505092915050565b5f8115159050919050565b6127618161274d565b82525050565b5f60208201905061277a5f830184612758565b92915050565b5f60208284031215612795576127946125d2565b5b5f6127a284828501612653565b91505092915050565b5f81519050919050565b5f82825260208201905092915050565b8281835e5f83830152505050565b5f601f19601f8301169050919050565b5f6127ed826127ab565b6127f781856127b5565b93506128078185602086016127c5565b612810816127d3565b840191505092915050565b5f6020820190508181035f83015261283381846127e3565b905092915050565b5f5f5f5f60808587031215612853576128526125d2565b5b5f61286087828801612620565b945050602061287187828801612620565b935050604061288287828801612653565b925050606061289387828801612653565b91505092959194509250565b5f5f604083850312156128b5576128b46125d2565b5b5f6128c285828601612653565b92505060206128d385828601612653565b9150509250929050565b6128e6816125f9565b82525050565b5f6040820190506128ff5f8301856128dd565b61290c60208301846126a5565b9392505050565b5f5f60408385031215612929576129286125d2565b5b5f61293685828601612653565b925050602061294785828601612620565b9150509250929050565b5f5ffd5b5f5ffd5b5f5ffd5b5f5f83601f84011261297257612971612951565b5b8235905067ffffffffffffffff81111561298f5761298e612955565b5b6020830191508360208202830111156129ab576129aa612959565b5b9250929050565b5f5f83601f8401126129c7576129c6612951565b5b8235905067ffffffffffffffff8111156129e4576129e3612955565b5b602083019150836020820283011115612a00576129ff612959565b5b9250929050565b5f5f5f5f60408587031215612a1f57612a1e6125d2565b5b5f85013567ffffffffffffffff811115612a3c57612a3b6125d6565b5b612a488782880161295d565b9450945050602085013567ffffffffffffffff811115612a6b57612a6a6125d6565b5b612a77878288016129b2565b925092505092959194509250565b5f81519050919050565b5f82825260208201905092915050565b5f819050602082019050919050565b612ab781612634565b82525050565b5f612ac88383612aae565b60208301905092915050565b5f602082019050919050565b5f612aea82612a85565b612af48185612a8f565b9350612aff83612a9f565b805f5b83811015612b2f578151612b168882612abd565b9750612b2183612ad4565b925050600181019050612b02565b5085935050505092915050565b5f6020820190508181035f830152612b548184612ae0565b905092915050565b5f60e082019050612b6f5f83018a6128dd565b612b7c60208301896126a5565b612b8960408301886126a5565b612b9660608301876126a5565b612ba360808301866126a5565b612bb060a08301856128dd565b612bbd60c0830184612758565b98975050505050505050565b5f602082019050612bdc5f8301846128dd565b92915050565b612beb8161274d565b8114612bf5575f5ffd5b50565b5f81359050612c0681612be2565b92915050565b5f5f60408385031215612c2257612c216125d2565b5b5f612c2f85828601612620565b9250506020612c4085828601612bf8565b9150509250929050565b5f5f5f60608486031215612c6157612c606125d2565b5b5f612c6e86828701612653565b9350506020612c7f86828701612653565b9250506040612c9086828701612653565b9150509250925092565b5f5f60408385031215612cb057612caf6125d2565b5b5f612cbd85828601612620565b9250506020612cce85828601612620565b9150509250929050565b5f5f5f5f5f5f60808789031215612cf257612cf16125d2565b5b5f612cff89828a01612620565b9650506020612d1089828a01612620565b955050604087013567ffffffffffffffff811115612d3157612d306125d6565b5b612d3d89828a016129b2565b9450945050606087013567ffffffffffffffff811115612d6057612d5f6125d6565b5b612d6c89828a016129b2565b92509250509295509295509295565b5f5ffd5b7f4e487b71000000000000000000000000000000000000000000000000000000005f52604160045260245ffd5b612db5826127d3565b810181811067ffffffffffffffff82111715612dd457612dd3612d7f565b5b80604052505050565b5f612de66125c9565b9050612df28282612dac565b919050565b5f67ffffffffffffffff821115612e1157612e10612d7f565b5b612e1a826127d3565b9050602081019050919050565b828183375f83830152505050565b5f612e47612e4284612df7565b612ddd565b905082815260208101848484011115612e6357612e62612d7b565b5b612e6e848285612e27565b509392505050565b5f82601f830112612e8a57612e89612951565b5b8135612e9a848260208601612e35565b91505092915050565b5f6bffffffffffffffffffffffff82169050919050565b612ec381612ea3565b8114612ecd575f5ffd5b50565b5f81359050612ede81612eba565b92915050565b5f5f5f5f5f5f60c08789031215612efe57612efd6125d2565b5b5f612f0b89828a01612620565b9650506020612f1c89828a01612653565b9550506040612f2d89828a01612653565b945050606087013567ffffffffffffffff811115612f4e57612f4d6125d6565b5b612f5a89828a01612e76565b9350506080612f6b89828a01612620565b92505060a0612f7c89828a01612ed0565b9150509295509295509295565b7f5a65726f206164647265737300000000000000000000000000000000000000005f82015250565b5f612fbd600c836127b5565b9150612fc882612f89565b602082019050919050565b5f6020820190508181035f830152612fea81612fb1565b9050919050565b7f4e487b71000000000000000000000000000000000000000000000000000000005f52602260045260245ffd5b5f600282049050600182168061303557607f821691505b60208210810361304857613047612ff1565b5b50919050565b7f50617573656400000000000000000000000000000000000000000000000000005f82015250565b5f6130826006836127b5565b915061308d8261304e565b602082019050919050565b5f6020820190508181035f8301526130af81613076565b9050919050565b7f4e6f7468696e6720746f20726566756e640000000000000000000000000000005f82015250565b5f6130ea6011836127b5565b91506130f5826130b6565b602082019050919050565b5f6020820190508181035f830152613117816130de565b9050919050565b7f4e6f7420617070726f76656400000000000000000000000000000000000000005f82015250565b5f613152600c836127b5565b915061315d8261311e565b602082019050919050565b5f6020820190508181035f83015261317f81613146565b9050919050565b7f496e73756666696369656e7400000000000000000000000000000000000000005f82015250565b5f6131ba600c836127b5565b91506131c582613186565b602082019050919050565b5f6020820190508181035f8301526131e7816131ae565b9050919050565b7f4e487b71000000000000000000000000000000000000000000000000000000005f52601160045260245ffd5b5f61322582612634565b915061323083612634565b9250828203905081811115613248576132476131ee565b5b92915050565b5f61325882612634565b915061326383612634565b925082820190508082111561327b5761327a6131ee565b5b92915050565b5f6040820190506132945f8301856126a5565b6132a160208301846126a5565b9392505050565b5f6132b282612634565b91506132bd83612634565b92508282026132cb81612634565b915082820484148315176132e2576132e16131ee565b5b5092915050565b7f4e487b71000000000000000000000000000000000000000000000000000000005f52601260045260245ffd5b5f61332082612634565b915061332b83612634565b92508261333b5761333a6132e9565b5b828204905092915050565b7f4e6f74206f776e657200000000000000000000000000000000000000000000005f82015250565b5f61337a6009836127b5565b915061338582613346565b602082019050919050565b5f6020820190508181035f8301526133a78161336e565b9050919050565b7f456e6465640000000000000000000000000000000000000000000000000000005f82015250565b5f6133e26005836127b5565b91506133ed826133ae565b602082019050919050565b5f6020820190508181035f83015261340f816133d6565b9050919050565b7f4c6f7720626964000000000000000000000000000000000000000000000000005f82015250565b5f61344a6007836127b5565b915061345582613416565b602082019050919050565b5f6020820190508181035f8301526134778161343e565b9050919050565b7f4d69736d617463686564000000000000000000000000000000000000000000005f82015250565b5f6134b2600a836127b5565b91506134bd8261347e565b602082019050919050565b5f6020820190508181035f8301526134df816134a6565b9050919050565b7f4e487b71000000000000000000000000000000000000000000000000000000005f52603260045260245ffd5b5f60208284031215613528576135276125d2565b5b5f61353584828501612620565b91505092915050565b7f4e6f7420796574000000000000000000000000000000000000000000000000005f82015250565b5f6135726007836127b5565b915061357d8261353e565b602082019050919050565b5f6020820190508181035f83015261359f81613566565b9050919050565b7f416c726561647920656e646564000000000000000000000000000000000000005f82015250565b5f6135da600d836127b5565b91506135e5826135a6565b602082019050919050565b5f6020820190508181035f830152613607816135ce565b9050919050565b7f546f6f2073686f727400000000000000000000000000000000000000000000005f82015250565b5f6136426009836127b5565b915061364d8261360e565b602082019050919050565b5f6020820190508181035f83015261366f81613636565b9050919050565b5f61368082612634565b91507fffffffffffffffffffffffffffffffffffffffffffffffffffffffffffffffff82036136b2576136b16131ee565b5b600182019050919050565b5f5ffd5b82818337505050565b5f6136d58385612a8f565b93507f07ffffffffffffffffffffffffffffffffffffffffffffffffffffffffffffff831115613708576137076136bd565b5b6020830292506137198385846136c1565b82840190509392505050565b5f6040820190508181035f83015261373e8186886136ca565b905081810360208301526137538184866136ca565b905095945050505050565b7f546f6f20686967680000000000000000000000000000000000000000000000005f82015250565b5f6137926008836127b5565b915061379d8261375e565b602082019050919050565b5f6020820190508181035f8301526137bf81613786565b9050919050565b5f819050815f5260205f209050919050565b5f6020601f8301049050919050565b5f82821b905092915050565b5f600883026138227fffffffffffffffffffffffffffffffffffffffffffffffffffffffffffffffff826137e7565b61382c86836137e7565b95508019841693508086168417925050509392505050565b5f819050919050565b5f61386761386261385d84612634565b613844565b612634565b9050919050565b5f819050919050565b6138808361384d565b61389461388c8261386e565b8484546137f3565b825550505050565b5f5f905090565b6138ab61389c565b6138b6818484613877565b505050565b5b818110156138d9576138ce5f826138a3565b6001810190506138bc565b5050565b601f82111561391e576138ef816137c6565b6138f8846137d8565b81016020851015613907578190505b61391b613913856137d8565b8301826138bb565b50505b505050565b5f82821c905092915050565b5f61393e5f1984600802613923565b1980831691505092915050565b5f613956838361392f565b9150826002028217905092915050565b61396f826127ab565b67ffffffffffffffff81111561398857613987612d7f565b5b613992825461301e565b61399d8282856138dd565b5f60209050601f8311600181146139ce575f84156139bc578287015190505b6139c6858261394b565b865550613a2d565b601f1984166139dc866137c6565b5f5b82811015613a03578489015182556001820191506020850194506020810190506139de565b86831015613a205784890151613a1c601f89168261392f565b8355505b6001600288020188555050505b50505050505056fea26469706673582212201cb527216409846981b1377c9829537d372d16ca71e3a3bdae36c097678310fd64736f6c634300081e0033",
					"opcodes": "PUSH1 0x80 PUSH1 0x40 MSTORE CALLVALUE DUP1 ISZERO PUSH1 0xE JUMPI PUSH0 PUSH0 REVERT JUMPDEST POP CALLER PUSH1 0x7 PUSH0 PUSH2 0x100 EXP DUP2 SLOAD DUP2 PUSH20 0xFFFFFFFFFFFFFFFFFFFFFFFFFFFFFFFFFFFFFFFF MUL NOT AND SWAP1 DUP4 PUSH20 0xFFFFFFFFFFFFFFFFFFFFFFFFFFFFFFFFFFFFFFFF AND MUL OR SWAP1 SSTORE POP PUSH2 0x3A6B DUP1 PUSH2 0x5C PUSH0 CODECOPY PUSH0 RETURN INVALID PUSH1 0x80 PUSH1 0x40 MSTORE PUSH1 0x4 CALLDATASIZE LT PUSH2 0x128 JUMPI PUSH0 CALLDATALOAD PUSH1 0xE0 SHR DUP1 PUSH4 0x4E1273F4 GT PUSH2 0xAA JUMPI DUP1 PUSH4 0xA22CB465 GT PUSH2 0x6E JUMPI DUP1 PUSH4 0xA22CB465 EQ PUSH2 0x3ED JUMPI DUP1 PUSH4 0xB9A2DE3A EQ PUSH2 0x415 JUMPI DUP1 PUSH4 0xCDA4BEEF EQ PUSH2 0x43D JUMPI DUP1 PUSH4 0xE985E9C5 EQ PUSH2 0x479 JUMPI DUP1 PUSH4 0xFBA0EE64 EQ PUSH2 0x4B5 JUMPI DUP1 PUSH4 0xFD8BF596 EQ PUSH2 0x4DD JUMPI PUSH2 0x128 JUMP JUMPDEST DUP1 PUSH4 0x4E1273F4 EQ PUSH2 0x305 JUMPI DUP1 PUSH4 0x571A26A0 EQ PUSH2 0x341 JUMPI DUP1 PUSH4 0x5C975ABB EQ PUSH2 0x383 JUMPI DUP1 PUSH4 0x8456CB59 EQ PUSH2 0x3AD JUMPI DUP1 PUSH4 0x8DA5CB5B EQ PUSH2 0x3C3 JUMPI PUSH2 0x128 JUMP JUMPDEST DUP1 PUSH4 0x2A55205A GT PUSH2 0xF1 JUMPI DUP1 PUSH4 0x2A55205A EQ PUSH2 0x230 JUMPI DUP1 PUSH4 0x2AD71573 EQ PUSH2 0x26D JUMPI DUP1 PUSH4 0x3F1FFCEC EQ PUSH2 0x297 JUMPI DUP1 PUSH4 0x3F4BA83A EQ PUSH2 0x2D3 JUMPI DUP1 PUSH4 0x454A2AB3 EQ PUSH2 0x2E9 JUMPI PUSH2 0x128 JUMP JUMPDEST DUP1 PUSH3 0xFDD58E EQ PUSH2 0x12C JUMPI DUP1 PUSH4 0x1FFC9A7 EQ PUSH2 0x168 JUMPI DUP1 PUSH4 0xE89341C EQ PUSH2 0x1A4 JUMPI DUP1 PUSH4 0xEAAF4C8 EQ PUSH2 0x1E0 JUMPI DUP1 PUSH4 0xFEBDD49 EQ PUSH2 0x208 JUMPI JUMPDEST PUSH0 PUSH0 REVERT JUMPDEST CALLVALUE DUP1 ISZERO PUSH2 0x137 JUMPI PUSH0 PUSH0 REVERT JUMPDEST POP PUSH2 0x152 PUSH1 0x4 DUP1 CALLDATASIZE SUB DUP2 ADD SWAP1 PUSH2 0x14D SWAP2 SWAP1 PUSH2 0x2667 JUMP JUMPDEST PUSH2 0x505 JUMP JUMPDEST PUSH1 0x40 MLOAD PUSH2 0x15F SWAP2 SWAP1 PUSH2 0x26B4 JUMP JUMPDEST PUSH1 0x40 MLOAD DUP1 SWAP2 SUB SWAP1 RETURN JUMPDEST CALLVALUE DUP1 ISZERO PUSH2 0x173 JUMPI PUSH0 PUSH0 REVERT JUMPDEST POP PUSH2 0x18E PUSH1 0x4 DUP1 CALLDATASIZE SUB DUP2 ADD SWAP1 PUSH2 0x189 SWAP2 SWAP1 PUSH2 0x2722 JUMP JUMPDEST PUSH2 0x5C8 JUMP JUMPDEST PUSH1 0x40 MLOAD PUSH2 0x19B SWAP2 SWAP1 PUSH2 0x2767 JUMP JUMPDEST PUSH1 0x40 MLOAD DUP1 SWAP2 SUB SWAP1 RETURN JUMPDEST CALLVALUE DUP1 ISZERO PUSH2 0x1AF JUMPI PUSH0 PUSH0 REVERT JUMPDEST POP PUSH2 0x1CA PUSH1 0x4 DUP1 CALLDATASIZE SUB DUP2 ADD SWAP1 PUSH2 0x1C5 SWAP2 SWAP1 PUSH2 0x2780 JUMP JUMPDEST PUSH2 0x629 JUMP JUMPDEST PUSH1 0x40 MLOAD PUSH2 0x1D7 SWAP2 SWAP1 PUSH2 0x281B JUMP JUMPDEST PUSH1 0x40 MLOAD DUP1 SWAP2 SUB SWAP1 RETURN JUMPDEST CALLVALUE DUP1 ISZERO PUSH2 0x1EB JUMPI PUSH0 PUSH0 REVERT JUMPDEST POP PUSH2 0x206 PUSH1 0x4 DUP1 CALLDATASIZE SUB DUP2 ADD SWAP1 PUSH2 0x201 SWAP2 SWAP1 PUSH2 0x2780 JUMP JUMPDEST PUSH2 0x6CA JUMP JUMPDEST STOP JUMPDEST CALLVALUE DUP1 ISZERO PUSH2 0x213 JUMPI PUSH0 PUSH0 REVERT JUMPDEST POP PUSH2 0x22E PUSH1 0x4 DUP1 CALLDATASIZE SUB DUP2 ADD SWAP1 PUSH2 0x229 SWAP2 SWAP1 PUSH2 0x283B JUMP JUMPDEST PUSH2 0x87F JUMP JUMPDEST STOP JUMPDEST CALLVALUE DUP1 ISZERO PUSH2 0x23B JUMPI PUSH0 PUSH0 REVERT JUMPDEST POP PUSH2 0x256 PUSH1 0x4 DUP1 CALLDATASIZE SUB DUP2 ADD SWAP1 PUSH2 0x251 SWAP2 SWAP1 PUSH2 0x289F JUMP JUMPDEST PUSH2 0xC0B JUMP JUMPDEST PUSH1 0x40 MLOAD PUSH2 0x264 SWAP3 SWAP2 SWAP1 PUSH2 0x28EC JUMP JUMPDEST PUSH1 0x40 MLOAD DUP1 SWAP2 SUB SWAP1 RETURN JUMPDEST CALLVALUE DUP1 ISZERO PUSH2 0x278 JUMPI PUSH0 PUSH0 REVERT JUMPDEST POP PUSH2 0x281 PUSH2 0xCFD JUMP JUMPDEST PUSH1 0x40 MLOAD PUSH2 0x28E SWAP2 SWAP1 PUSH2 0x26B4 JUMP JUMPDEST PUSH1 0x40 MLOAD DUP1 SWAP2 SUB SWAP1 RETURN JUMPDEST CALLVALUE DUP1 ISZERO PUSH2 0x2A2 JUMPI PUSH0 PUSH0 REVERT JUMPDEST POP PUSH2 0x2BD PUSH1 0x4 DUP1 CALLDATASIZE SUB DUP2 ADD SWAP1 PUSH2 0x2B8 SWAP2 SWAP1 PUSH2 0x2913 JUMP JUMPDEST PUSH2 0xD03 JUMP JUMPDEST PUSH1 0x40 MLOAD PUSH2 0x2CA SWAP2 SWAP1 PUSH2 0x26B4 JUMP JUMPDEST PUSH1 0x40 MLOAD DUP1 SWAP2 SUB SWAP1 RETURN JUMPDEST CALLVALUE DUP1 ISZERO PUSH2 0x2DE JUMPI PUSH0 PUSH0 REVERT JUMPDEST POP PUSH2 0x2E7 PUSH2 0xD23 JUMP JUMPDEST STOP JUMPDEST PUSH2 0x303 PUSH1 0x4 DUP1 CALLDATASIZE SUB DUP2 ADD SWAP1 PUSH2 0x2FE SWAP2 SWAP1 PUSH2 0x2780 JUMP JUMPDEST PUSH2 0xDCE JUMP JUMPDEST STOP JUMPDEST CALLVALUE DUP1 ISZERO PUSH2 0x310 JUMPI PUSH0 PUSH0 REVERT JUMPDEST POP PUSH2 0x32B PUSH1 0x4 DUP1 CALLDATASIZE SUB DUP2 ADD SWAP1 PUSH2 0x326 SWAP2 SWAP1 PUSH2 0x2A07 JUMP JUMPDEST PUSH2 0x104E JUMP JUMPDEST PUSH1 0x40 MLOAD PUSH2 0x338 SWAP2 SWAP1 PUSH2 0x2B3C JUMP JUMPDEST PUSH1 0x40 MLOAD DUP1 SWAP2 SUB SWAP1 RETURN JUMPDEST CALLVALUE DUP1 ISZERO PUSH2 0x34C JUMPI PUSH0 PUSH0 REVERT JUMPDEST POP PUSH2 0x367 PUSH1 0x4 DUP1 CALLDATASIZE SUB DUP2 ADD SWAP1 PUSH2 0x362 SWAP2 SWAP1 PUSH2 0x2780 JUMP JUMPDEST PUSH2 0x11BC JUMP JUMPDEST PUSH1 0x40 MLOAD PUSH2 0x37A SWAP8 SWAP7 SWAP6 SWAP5 SWAP4 SWAP3 SWAP2 SWAP1 PUSH2 0x2B5C JUMP JUMPDEST PUSH1 0x40 MLOAD DUP1 SWAP2 SUB SWAP1 RETURN JUMPDEST CALLVALUE DUP1 ISZERO PUSH2 0x38E JUMPI PUSH0 PUSH0 REVERT JUMPDEST POP PUSH2 0x397 PUSH2 0x1245 JUMP JUMPDEST PUSH1 0x40 MLOAD PUSH2 0x3A4 SWAP2 SWAP1 PUSH2 0x2767 JUMP JUMPDEST PUSH1 0x40 MLOAD DUP1 SWAP2 SUB SWAP1 RETURN JUMPDEST CALLVALUE DUP1 ISZERO PUSH2 0x3B8 JUMPI PUSH0 PUSH0 REVERT JUMPDEST POP PUSH2 0x3C1 PUSH2 0x1258 JUMP JUMPDEST STOP JUMPDEST CALLVALUE DUP1 ISZERO PUSH2 0x3CE JUMPI PUSH0 PUSH0 REVERT JUMPDEST POP PUSH2 0x3D7 PUSH2 0x1304 JUMP JUMPDEST PUSH1 0x40 MLOAD PUSH2 0x3E4 SWAP2 SWAP1 PUSH2 0x2BC9 JUMP JUMPDEST PUSH1 0x40 MLOAD DUP1 SWAP2 SUB SWAP1 RETURN JUMPDEST CALLVALUE DUP1 ISZERO PUSH2 0x3F8 JUMPI PUSH0 PUSH0 REVERT JUMPDEST POP PUSH2 0x413 PUSH1 0x4 DUP1 CALLDATASIZE SUB DUP2 ADD SWAP1 PUSH2 0x40E SWAP2 SWAP1 PUSH2 0x2C0C JUMP JUMPDEST PUSH2 0x1329 JUMP JUMPDEST STOP JUMPDEST CALLVALUE DUP1 ISZERO PUSH2 0x420 JUMPI PUSH0 PUSH0 REVERT JUMPDEST POP PUSH2 0x43B PUSH1 0x4 DUP1 CALLDATASIZE SUB DUP2 ADD SWAP1 PUSH2 0x436 SWAP2 SWAP1 PUSH2 0x2780 JUMP JUMPDEST PUSH2 0x1471 JUMP JUMPDEST STOP JUMPDEST CALLVALUE DUP1 ISZERO PUSH2 0x448 JUMPI PUSH0 PUSH0 REVERT JUMPDEST POP PUSH2 0x463 PUSH1 0x4 DUP1 CALLDATASIZE SUB DUP2 ADD SWAP1 PUSH2 0x45E SWAP2 SWAP1 PUSH2 0x2C4A JUMP JUMPDEST PUSH2 0x18C3 JUMP JUMPDEST PUSH1 0x40 MLOAD PUSH2 0x470 SWAP2 SWAP1 PUSH2 0x26B4 JUMP JUMPDEST PUSH1 0x40 MLOAD DUP1 SWAP2 SUB SWAP1 RETURN JUMPDEST CALLVALUE DUP1 ISZERO PUSH2 0x484 JUMPI PUSH0 PUSH0 REVERT JUMPDEST POP PUSH2 0x49F PUSH1 0x4 DUP1 CALLDATASIZE SUB DUP2 ADD SWAP1 PUSH2 0x49A SWAP2 SWAP1 PUSH2 0x2C9A JUMP JUMPDEST PUSH2 0x1C7D JUMP JUMPDEST PUSH1 0x40 MLOAD PUSH2 0x4AC SWAP2 SWAP1 PUSH2 0x2767 JUMP JUMPDEST PUSH1 0x40 MLOAD DUP1 SWAP2 SUB SWAP1 RETURN JUMPDEST CALLVALUE DUP1 ISZERO PUSH2 0x4C0 JUMPI PUSH0 PUSH0 REVERT JUMPDEST POP PUSH2 0x4DB PUSH1 0x4 DUP1 CALLDATASIZE SUB DUP2 ADD SWAP1 PUSH2 0x4D6 SWAP2 SWAP1 PUSH2 0x2CD8 JUMP JUMPDEST PUSH2 0x1D0B JUMP JUMPDEST STOP JUMPDEST CALLVALUE DUP1 ISZERO PUSH2 0x4E8 JUMPI PUSH0 PUSH0 REVERT JUMPDEST POP PUSH2 0x503 PUSH1 0x4 DUP1 CALLDATASIZE SUB DUP2 ADD SWAP1 PUSH2 0x4FE SWAP2 SWAP1 PUSH2 0x2EE4 JUMP JUMPDEST PUSH2 0x2199 JUMP JUMPDEST STOP JUMPDEST PUSH0 PUSH0 PUSH20 0xFFFFFFFFFFFFFFFFFFFFFFFFFFFFFFFFFFFFFFFF AND DUP4 PUSH20 0xFFFFFFFFFFFFFFFFFFFFFFFFFFFFFFFFFFFFFFFF AND SUB PUSH2 0x574 JUMPI PUSH1 0x40 MLOAD PUSH32 0x8C379A000000000000000000000000000000000000000000000000000000000 DUP2 MSTORE PUSH1 0x4 ADD PUSH2 0x56B SWAP1 PUSH2 0x2FD3 JUMP JUMPDEST PUSH1 0x40 MLOAD DUP1 SWAP2 SUB SWAP1 REVERT JUMPDEST PUSH0 PUSH0 DUP4 DUP2 MSTORE PUSH1 0x20 ADD SWAP1 DUP2 MSTORE PUSH1 0x20 ADD PUSH0 KECCAK256 PUSH0 DUP5 PUSH20 0xFFFFFFFFFFFFFFFFFFFFFFFFFFFFFFFFFFFFFFFF AND PUSH20 0xFFFFFFFFFFFFFFFFFFFFFFFFFFFFFFFFFFFFFFFF AND DUP2 MSTORE PUSH1 0x20 ADD SWAP1 DUP2 MSTORE PUSH1 0x20 ADD PUSH0 KECCAK256 SLOAD SWAP1 POP SWAP3 SWAP2 POP POP JUMP JUMPDEST PUSH0 PUSH4 0xD9B67A26 PUSH1 0xE0 SHL DUP3 PUSH28 0xFFFFFFFFFFFFFFFFFFFFFFFFFFFFFFFFFFFFFFFFFFFFFFFFFFFFFFFF NOT AND EQ DUP1 PUSH2 0x622 JUMPI POP PUSH4 0x2A55205A PUSH1 0xE0 SHL DUP3 PUSH28 0xFFFFFFFFFFFFFFFFFFFFFFFFFFFFFFFFFFFFFFFFFFFFFFFFFFFFFFFF NOT AND EQ JUMPDEST SWAP1 POP SWAP2 SWAP1 POP JUMP JUMPDEST PUSH1 0x60 PUSH1 0x2 PUSH0 DUP4 DUP2 MSTORE PUSH1 0x20 ADD SWAP1 DUP2 MSTORE PUSH1 0x20 ADD PUSH0 KECCAK256 DUP1 SLOAD PUSH2 0x647 SWAP1 PUSH2 0x301E JUMP JUMPDEST DUP1 PUSH1 0x1F ADD PUSH1 0x20 DUP1 SWAP2 DIV MUL PUSH1 0x20 ADD PUSH1 0x40 MLOAD SWAP1 DUP2 ADD PUSH1 0x40 MSTORE DUP1 SWAP3 SWAP2 SWAP1 DUP2 DUP2 MSTORE PUSH1 0x20 ADD DUP3 DUP1 SLOAD PUSH2 0x673 SWAP1 PUSH2 0x301E JUMP JUMPDEST DUP1 ISZERO PUSH2 0x6BE JUMPI DUP1 PUSH1 0x1F LT PUSH2 0x695 JUMPI PUSH2 0x100 DUP1 DUP4 SLOAD DIV MUL DUP4 MSTORE SWAP2 PUSH1 0x20 ADD SWAP2 PUSH2 0x6BE JUMP JUMPDEST DUP3 ADD SWAP2 SWAP1 PUSH0 MSTORE PUSH1 0x20 PUSH0 KECCAK256 SWAP1 JUMPDEST DUP2 SLOAD DUP2 MSTORE SWAP1 PUSH1 0x1 ADD SWAP1 PUSH1 0x20 ADD DUP1 DUP4 GT PUSH2 0x6A1 JUMPI DUP3 SWAP1 SUB PUSH1 0x1F AND DUP3 ADD SWAP2 JUMPDEST POP POP POP POP POP SWAP1 POP SWAP2 SWAP1 POP JUMP JUMPDEST PUSH1 0x7 PUSH1 0x14 SWAP1 SLOAD SWAP1 PUSH2 0x100 EXP SWAP1 DIV PUSH1 0xFF AND ISZERO PUSH2 0x71A JUMPI PUSH1 0x40 MLOAD PUSH32 0x8C379A000000000000000000000000000000000000000000000000000000000 DUP2 MSTORE PUSH1 0x4 ADD PUSH2 0x711 SWAP1 PUSH2 0x3098 JUMP JUMPDEST PUSH1 0x40 MLOAD DUP1 SWAP2 SUB SWAP1 REVERT JUMPDEST PUSH0 PUSH1 0x6 PUSH0 DUP4 DUP2 MSTORE PUSH1 0x20 ADD SWAP1 DUP2 MSTORE PUSH1 0x20 ADD PUSH0 KECCAK256 PUSH0 CALLER PUSH20 0xFFFFFFFFFFFFFFFFFFFFFFFFFFFFFFFFFFFFFFFF AND PUSH20 0xFFFFFFFFFFFFFFFFFFFFFFFFFFFFFFFFFFFFFFFF AND DUP2 MSTORE PUSH1 0x20 ADD SWAP1 DUP2 MSTORE PUSH1 0x20 ADD PUSH0 KECCAK256 SLOAD SWAP1 POP PUSH0 DUP2 GT PUSH2 0x7AC JUMPI PUSH1 0x40 MLOAD PUSH32 0x8C379A000000000000000000000000000000000000000000000000000000000 DUP2 MSTORE PUSH1 0x4 ADD PUSH2 0x7A3 SWAP1 PUSH2 0x3100 JUMP JUMPDEST PUSH1 0x40 MLOAD DUP1 SWAP2 SUB SWAP1 REVERT JUMPDEST PUSH0 PUSH1 0x6 PUSH0 DUP5 DUP2 MSTORE PUSH1 0x20 ADD SWAP1 DUP2 MSTORE PUSH1 0x20 ADD PUSH0 KECCAK256 PUSH0 CALLER PUSH20 0xFFFFFFFFFFFFFFFFFFFFFFFFFFFFFFFFFFFFFFFF AND PUSH20 0xFFFFFFFFFFFFFFFFFFFFFFFFFFFFFFFFFFFFFFFF AND DUP2 MSTORE PUSH1 0x20 ADD SWAP1 DUP2 MSTORE PUSH1 0x20 ADD PUSH0 KECCAK256 DUP2 SWAP1 SSTORE POP CALLER PUSH20 0xFFFFFFFFFFFFFFFFFFFFFFFFFFFFFFFFFFFFFFFF AND PUSH2 0x8FC DUP3 SWAP1 DUP2 ISZERO MUL SWAP1 PUSH1 0x40 MLOAD PUSH0 PUSH1 0x40 MLOAD DUP1 DUP4 SUB DUP2 DUP6 DUP9 DUP9 CALL SWAP4 POP POP POP POP ISZERO DUP1 ISZERO PUSH2 0x840 JUMPI RETURNDATASIZE PUSH0 PUSH0 RETURNDATACOPY RETURNDATASIZE PUSH0 REVERT JUMPDEST POP DUP2 PUSH32 0x7CA5472B7EA78C2C0141C5A12EE6D170CF4CE8ED06BE3D22C8252DDFC7A6A2C4 CALLER DUP4 PUSH1 0x40 MLOAD PUSH2 0x873 SWAP3 SWAP2 SWAP1 PUSH2 0x28EC JUMP JUMPDEST PUSH1 0x40 MLOAD DUP1 SWAP2 SUB SWAP1 LOG2 POP POP JUMP JUMPDEST PUSH1 0x7 PUSH1 0x14 SWAP1 SLOAD SWAP1 PUSH2 0x100 EXP SWAP1 DIV PUSH1 0xFF AND ISZERO PUSH2 0x8CF JUMPI PUSH1 0x40 MLOAD PUSH32 0x8C379A000000000000000000000000000000000000000000000000000000000 DUP2 MSTORE PUSH1 0x4 ADD PUSH2 0x8C6 SWAP1 PUSH2 0x3098 JUMP JUMPDEST PUSH1 0x40 MLOAD DUP1 SWAP2 SUB SWAP1 REVERT JUMPDEST CALLER PUSH20 0xFFFFFFFFFFFFFFFFFFFFFFFFFFFFFFFFFFFFFFFF AND DUP5 PUSH20 0xFFFFFFFFFFFFFFFFFFFFFFFFFFFFFFFFFFFFFFFF AND EQ DUP1 PUSH2 0x98A JUMPI POP PUSH1 0x1 PUSH0 DUP6 PUSH20 0xFFFFFFFFFFFFFFFFFFFFFFFFFFFFFFFFFFFFFFFF AND PUSH20 0xFFFFFFFFFFFFFFFFFFFFFFFFFFFFFFFFFFFFFFFF AND DUP2 MSTORE PUSH1 0x20 ADD SWAP1 DUP2 MSTORE PUSH1 0x20 ADD PUSH0 KECCAK256 PUSH0 CALLER PUSH20 0xFFFFFFFFFFFFFFFFFFFFFFFFFFFFFFFFFFFFFFFF AND PUSH20 0xFFFFFFFFFFFFFFFFFFFFFFFFFFFFFFFFFFFFFFFF AND DUP2 MSTORE PUSH1 0x20 ADD SWAP1 DUP2 MSTORE PUSH1 0x20 ADD PUSH0 KECCAK256 PUSH0 SWAP1 SLOAD SWAP1 PUSH2 0x100 EXP SWAP1 DIV PUSH1 0xFF AND JUMPDEST PUSH2 0x9C9 JUMPI PUSH1 0x40 MLOAD PUSH32 0x8C379A000000000000000000000000000000000000000000000000000000000 DUP2 MSTORE PUSH1 0x4 ADD PUSH2 0x9C0 SWAP1 PUSH2 0x3168 JUMP JUMPDEST PUSH1 0x40 MLOAD DUP1 SWAP2 SUB SWAP1 REVERT JUMPDEST PUSH0 PUSH20 0xFFFFFFFFFFFFFFFFFFFFFFFFFFFFFFFFFFFFFFFF AND DUP4 PUSH20 0xFFFFFFFFFFFFFFFFFFFFFFFFFFFFFFFFFFFFFFFF AND SUB PUSH2 0xA37 JUMPI PUSH1 0x40 MLOAD PUSH32 0x8C379A000000000000000000000000000000000000000000000000000000000 DUP2 MSTORE PUSH1 0x4 ADD PUSH2 0xA2E SWAP1 PUSH2 0x2FD3 JUMP JUMPDEST PUSH1 0x40 MLOAD DUP1 SWAP2 SUB SWAP1 REVERT JUMPDEST DUP1 PUSH0 PUSH0 DUP5 DUP2 MSTORE PUSH1 0x20 ADD SWAP1 DUP2 MSTORE PUSH1 0x20 ADD PUSH0 KECCAK256 PUSH0 DUP7 PUSH20 0xFFFFFFFFFFFFFFFFFFFFFFFFFFFFFFFFFFFFFFFF AND PUSH20 0xFFFFFFFFFFFFFFFFFFFFFFFFFFFFFFFFFFFFFFFF AND DUP2 MSTORE PUSH1 0x20 ADD SWAP1 DUP2 MSTORE PUSH1 0x20 ADD PUSH0 KECCAK256 SLOAD LT ISZERO PUSH2 0xAC5 JUMPI PUSH1 0x40 MLOAD PUSH32 0x8C379A000000000000000000000000000000000000000000000000000000000 DUP2 MSTORE PUSH1 0x4 ADD PUSH2 0xABC SWAP1 PUSH2 0x31D0 JUMP JUMPDEST PUSH1 0x40 MLOAD DUP1 SWAP2 SUB SWAP1 REVERT JUMPDEST DUP1 PUSH0 PUSH0 DUP5 DUP2 MSTORE PUSH1 0x20 ADD SWAP1 DUP2 MSTORE PUSH1 0x20 ADD PUSH0 KECCAK256 PUSH0 DUP7 PUSH20 0xFFFFFFFFFFFFFFFFFFFFFFFFFFFFFFFFFFFFFFFF AND PUSH20 0xFFFFFFFFFFFFFFFFFFFFFFFFFFFFFFFFFFFFFFFF AND DUP2 MSTORE PUSH1 0x20 ADD SWAP1 DUP2 MSTORE PUSH1 0x20 ADD PUSH0 KECCAK256 PUSH0 DUP3 DUP3 SLOAD PUSH2 0xB1F SWAP2 SWAP1 PUSH2 0x321B JUMP JUMPDEST SWAP3 POP POP DUP2 SWAP1 SSTORE POP DUP1 PUSH0 PUSH0 DUP5 DUP2 MSTORE PUSH1 0x20 ADD SWAP1 DUP2 MSTORE PUSH1 0x20 ADD PUSH0 KECCAK256 PUSH0 DUP6 PUSH20 0xFFFFFFFFFFFFFFFFFFFFFFFFFFFFFFFFFFFFFFFF AND PUSH20 0xFFFFFFFFFFFFFFFFFFFFFFFFFFFFFFFFFFFFFFFF AND DUP2 MSTORE PUSH1 0x20 ADD SWAP1 DUP2 MSTORE PUSH1 0x20 ADD PUSH0 KECCAK256 PUSH0 DUP3 DUP3 SLOAD PUSH2 0xB80 SWAP2 SWAP1 PUSH2 0x324E JUMP JUMPDEST SWAP3 POP POP DUP2 SWAP1 SSTORE POP DUP3 PUSH20 0xFFFFFFFFFFFFFFFFFFFFFFFFFFFFFFFFFFFFFFFF AND DUP5 PUSH20 0xFFFFFFFFFFFFFFFFFFFFFFFFFFFFFFFFFFFFFFFF AND CALLER PUSH20 0xFFFFFFFFFFFFFFFFFFFFFFFFFFFFFFFFFFFFFFFF AND PUSH32 0xC3D58168C5AE7397731D063D5BBF3D657854427343F4C083240F7AACAA2D0F62 DUP6 DUP6 PUSH1 0x40 MLOAD PUSH2 0xBFD SWAP3 SWAP2 SWAP1 PUSH2 0x3281 JUMP JUMPDEST PUSH1 0x40 MLOAD DUP1 SWAP2 SUB SWAP1 LOG4 POP POP POP POP JUMP JUMPDEST PUSH0 PUSH0 PUSH0 PUSH1 0x3 PUSH0 DUP7 DUP2 MSTORE PUSH1 0x20 ADD SWAP1 DUP2 MSTORE PUSH1 0x20 ADD PUSH0 KECCAK256 PUSH1 0x40 MLOAD DUP1 PUSH1 0x40 ADD PUSH1 0x40 MSTORE SWAP1 DUP2 PUSH0 DUP3 ADD PUSH0 SWAP1 SLOAD SWAP1 PUSH2 0x100 EXP SWAP1 DIV PUSH20 0xFFFFFFFFFFFFFFFFFFFFFFFFFFFFFFFFFFFFFFFF AND PUSH20 0xFFFFFFFFFFFFFFFFFFFFFFFFFFFFFFFFFFFFFFFF AND PUSH20 0xFFFFFFFFFFFFFFFFFFFFFFFFFFFFFFFFFFFFFFFF AND DUP2 MSTORE PUSH1 0x20 ADD PUSH0 DUP3 ADD PUSH1 0x14 SWAP1 SLOAD SWAP1 PUSH2 0x100 EXP SWAP1 DIV PUSH12 0xFFFFFFFFFFFFFFFFFFFFFFFF AND PUSH12 0xFFFFFFFFFFFFFFFFFFFFFFFF AND PUSH12 0xFFFFFFFFFFFFFFFFFFFFFFFF AND DUP2 MSTORE POP POP SWAP1 POP PUSH0 PUSH2 0x2710 DUP3 PUSH1 0x20 ADD MLOAD PUSH12 0xFFFFFFFFFFFFFFFFFFFFFFFF AND DUP7 PUSH2 0xCDF SWAP2 SWAP1 PUSH2 0x32A8 JUMP JUMPDEST PUSH2 0xCE9 SWAP2 SWAP1 PUSH2 0x3316 JUMP JUMPDEST SWAP1 POP DUP2 PUSH0 ADD MLOAD DUP2 SWAP4 POP SWAP4 POP POP POP SWAP3 POP SWAP3 SWAP1 POP JUMP JUMPDEST PUSH1 0x4 SLOAD DUP2 JUMP JUMPDEST PUSH1 0x6 PUSH1 0x20 MSTORE DUP2 PUSH0 MSTORE PUSH1 0x40 PUSH0 KECCAK256 PUSH1 0x20 MSTORE DUP1 PUSH0 MSTORE PUSH1 0x40 PUSH0 KECCAK256 PUSH0 SWAP2 POP SWAP2 POP POP SLOAD DUP2 JUMP JUMPDEST PUSH1 0x7 PUSH0 SWAP1 SLOAD SWAP1 PUSH2 0x100 EXP SWAP1 DIV PUSH20 0xFFFFFFFFFFFFFFFFFFFFFFFFFFFFFFFFFFFFFFFF AND PUSH20 0xFFFFFFFFFFFFFFFFFFFFFFFFFFFFFFFFFFFFFFFF AND CALLER PUSH20 0xFFFFFFFFFFFFFFFFFFFFFFFFFFFFFFFFFFFFFFFF AND EQ PUSH2 0xDB2 JUMPI PUSH1 0x40 MLOAD PUSH32 0x8C379A000000000000000000000000000000000000000000000000000000000 DUP2 MSTORE PUSH1 0x4 ADD PUSH2 0xDA9 SWAP1 PUSH2 0x3390 JUMP JUMPDEST PUSH1 0x40 MLOAD DUP1 SWAP2 SUB SWAP1 REVERT JUMPDEST PUSH0 PUSH1 0x7 PUSH1 0x14 PUSH2 0x100 EXP DUP2 SLOAD DUP2 PUSH1 0xFF MUL NOT AND SWAP1 DUP4 ISZERO ISZERO MUL OR SWAP1 SSTORE POP JUMP JUMPDEST DUP1 PUSH1 0x5 PUSH0 DUP3 DUP2 MSTORE PUSH1 0x20 ADD SWAP1 DUP2 MSTORE PUSH1 0x20 ADD PUSH0 KECCAK256 PUSH1 0x3 ADD SLOAD TIMESTAMP LT PUSH2 0xE25 JUMPI PUSH1 0x40 MLOAD PUSH32 0x8C379A000000000000000000000000000000000000000000000000000000000 DUP2 MSTORE PUSH1 0x4 ADD PUSH2 0xE1C SWAP1 PUSH2 0x33F8 JUMP JUMPDEST PUSH1 0x40 MLOAD DUP1 SWAP2 SUB SWAP1 REVERT JUMPDEST PUSH1 0x7 PUSH1 0x14 SWAP1 SLOAD SWAP1 PUSH2 0x100 EXP SWAP1 DIV PUSH1 0xFF AND ISZERO PUSH2 0xE75 JUMPI PUSH1 0x40 MLOAD PUSH32 0x8C379A000000000000000000000000000000000000000000000000000000000 DUP2 MSTORE PUSH1 0x4 ADD PUSH2 0xE6C SWAP1 PUSH2 0x3098 JUMP JUMPDEST PUSH1 0x40 MLOAD DUP1 SWAP2 SUB SWAP1 REVERT JUMPDEST PUSH0 PUSH1 0x5 PUSH0 DUP5 DUP2 MSTORE PUSH1 0x20 ADD SWAP1 DUP2 MSTORE PUSH1 0x20 ADD PUSH0 KECCAK256 SWAP1 POP DUP1 PUSH1 0x4 ADD SLOAD CALLVALUE GT PUSH2 0xECF JUMPI PUSH1 0x40 MLOAD PUSH32 0x8C379A000000000000000000000000000000000000000000000000000000000 DUP2 MSTORE PUSH1 0x4 ADD PUSH2 0xEC6 SWAP1 PUSH2 0x3460 JUMP JUMPDEST PUSH1 0x40 MLOAD DUP1 SWAP2 SUB SWAP1 REVERT JUMPDEST PUSH0 PUSH20 0xFFFFFFFFFFFFFFFFFFFFFFFFFFFFFFFFFFFFFFFF AND DUP2 PUSH1 0x5 ADD PUSH0 SWAP1 SLOAD SWAP1 PUSH2 0x100 EXP SWAP1 DIV PUSH20 0xFFFFFFFFFFFFFFFFFFFFFFFFFFFFFFFFFFFFFFFF AND PUSH20 0xFFFFFFFFFFFFFFFFFFFFFFFFFFFFFFFFFFFFFFFF AND EQ PUSH2 0xFAF JUMPI DUP1 PUSH1 0x4 ADD SLOAD PUSH1 0x6 PUSH0 DUP6 DUP2 MSTORE PUSH1 0x20 ADD SWAP1 DUP2 MSTORE PUSH1 0x20 ADD PUSH0 KECCAK256 PUSH0 DUP4 PUSH1 0x5 ADD PUSH0 SWAP1 SLOAD SWAP1 PUSH2 0x100 EXP SWAP1 DIV PUSH20 0xFFFFFFFFFFFFFFFFFFFFFFFFFFFFFFFFFFFFFFFF AND PUSH20 0xFFFFFFFFFFFFFFFFFFFFFFFFFFFFFFFFFFFFFFFF AND PUSH20 0xFFFFFFFFFFFFFFFFFFFFFFFFFFFFFFFFFFFFFFFF AND DUP2 MSTORE PUSH1 0x20 ADD SWAP1 DUP2 MSTORE PUSH1 0x20 ADD PUSH0 KECCAK256 PUSH0 DUP3 DUP3 SLOAD PUSH2 0xFA7 SWAP2 SWAP1 PUSH2 0x324E JUMP JUMPDEST SWAP3 POP POP DUP2 SWAP1 SSTORE POP JUMPDEST CALLVALUE DUP2 PUSH1 0x4 ADD DUP2 SWAP1 SSTORE POP CALLER DUP2 PUSH1 0x5 ADD PUSH0 PUSH2 0x100 EXP DUP2 SLOAD DUP2 PUSH20 0xFFFFFFFFFFFFFFFFFFFFFFFFFFFFFFFFFFFFFFFF MUL NOT AND SWAP1 DUP4 PUSH20 0xFFFFFFFFFFFFFFFFFFFFFFFFFFFFFFFFFFFFFFFF AND MUL OR SWAP1 SSTORE POP CALLER PUSH20 0xFFFFFFFFFFFFFFFFFFFFFFFFFFFFFFFFFFFFFFFF AND DUP4 PUSH32 0xE54EFF26401BF69B81B26F60BD85EF47F5D85275C1D268D84F68D6897431C47 CALLVALUE PUSH1 0x40 MLOAD PUSH2 0x1041 SWAP2 SWAP1 PUSH2 0x26B4 JUMP JUMPDEST PUSH1 0x40 MLOAD DUP1 SWAP2 SUB SWAP1 LOG3 POP POP POP JUMP JUMPDEST PUSH1 0x60 DUP3 DUP3 SWAP1 POP DUP6 DUP6 SWAP1 POP EQ PUSH2 0x1098 JUMPI PUSH1 0x40 MLOAD PUSH32 0x8C379A000000000000000000000000000000000000000000000000000000000 DUP2 MSTORE PUSH1 0x4 ADD PUSH2 0x108F SWAP1 PUSH2 0x34C8 JUMP JUMPDEST PUSH1 0x40 MLOAD DUP1 SWAP2 SUB SWAP1 REVERT JUMPDEST PUSH0 DUP6 DUP6 SWAP1 POP PUSH8 0xFFFFFFFFFFFFFFFF DUP2 GT ISZERO PUSH2 0x10B6 JUMPI PUSH2 0x10B5 PUSH2 0x2D7F JUMP JUMPDEST JUMPDEST PUSH1 0x40 MLOAD SWAP1 DUP1 DUP3 MSTORE DUP1 PUSH1 0x20 MUL PUSH1 0x20 ADD DUP3 ADD PUSH1 0x40 MSTORE DUP1 ISZERO PUSH2 0x10E4 JUMPI DUP2 PUSH1 0x20 ADD PUSH1 0x20 DUP3 MUL DUP1 CALLDATASIZE DUP4 CALLDATACOPY DUP1 DUP3 ADD SWAP2 POP POP SWAP1 POP JUMPDEST POP SWAP1 POP PUSH0 PUSH0 SWAP1 POP JUMPDEST DUP7 DUP7 SWAP1 POP DUP2 LT ISZERO PUSH2 0x11AF JUMPI PUSH0 PUSH0 DUP7 DUP7 DUP5 DUP2 DUP2 LT PUSH2 0x110C JUMPI PUSH2 0x110B PUSH2 0x34E6 JUMP JUMPDEST JUMPDEST SWAP1 POP PUSH1 0x20 MUL ADD CALLDATALOAD DUP2 MSTORE PUSH1 0x20 ADD SWAP1 DUP2 MSTORE PUSH1 0x20 ADD PUSH0 KECCAK256 PUSH0 DUP9 DUP9 DUP5 DUP2 DUP2 LT PUSH2 0x1134 JUMPI PUSH2 0x1133 PUSH2 0x34E6 JUMP JUMPDEST JUMPDEST SWAP1 POP PUSH1 0x20 MUL ADD PUSH1 0x20 DUP2 ADD SWAP1 PUSH2 0x1149 SWAP2 SWAP1 PUSH2 0x3513 JUMP JUMPDEST PUSH20 0xFFFFFFFFFFFFFFFFFFFFFFFFFFFFFFFFFFFFFFFF AND PUSH20 0xFFFFFFFFFFFFFFFFFFFFFFFFFFFFFFFFFFFFFFFF AND DUP2 MSTORE PUSH1 0x20 ADD SWAP1 DUP2 MSTORE PUSH1 0x20 ADD PUSH0 KECCAK256 SLOAD DUP3 DUP3 DUP2 MLOAD DUP2 LT PUSH2 0x1196 JUMPI PUSH2 0x1195 PUSH2 0x34E6 JUMP JUMPDEST JUMPDEST PUSH1 0x20 MUL PUSH1 0x20 ADD ADD DUP2 DUP2 MSTORE POP POP DUP1 DUP1 PUSH1 0x1 ADD SWAP2 POP POP PUSH2 0x10EC JUMP JUMPDEST POP DUP1 SWAP2 POP POP SWAP5 SWAP4 POP POP POP POP JUMP JUMPDEST PUSH1 0x5 PUSH1 0x20 MSTORE DUP1 PUSH0 MSTORE PUSH1 0x40 PUSH0 KECCAK256 PUSH0 SWAP2 POP SWAP1 POP DUP1 PUSH0 ADD PUSH0 SWAP1 SLOAD SWAP1 PUSH2 0x100 EXP SWAP1 DIV PUSH20 0xFFFFFFFFFFFFFFFFFFFFFFFFFFFFFFFFFFFFFFFF AND SWAP1 DUP1 PUSH1 0x1 ADD SLOAD SWAP1 DUP1 PUSH1 0x2 ADD SLOAD SWAP1 DUP1 PUSH1 0x3 ADD SLOAD SWAP1 DUP1 PUSH1 0x4 ADD SLOAD SWAP1 DUP1 PUSH1 0x5 ADD PUSH0 SWAP1 SLOAD SWAP1 PUSH2 0x100 EXP SWAP1 DIV PUSH20 0xFFFFFFFFFFFFFFFFFFFFFFFFFFFFFFFFFFFFFFFF AND SWAP1 DUP1 PUSH1 0x5 ADD PUSH1 0x14 SWAP1 SLOAD SWAP1 PUSH2 0x100 EXP SWAP1 DIV PUSH1 0xFF AND SWAP1 POP DUP8 JUMP JUMPDEST PUSH1 0x7 PUSH1 0x14 SWAP1 SLOAD SWAP1 PUSH2 0x100 EXP SWAP1 DIV PUSH1 0xFF AND DUP2 JUMP JUMPDEST PUSH1 0x7 PUSH0 SWAP1 SLOAD SWAP1 PUSH2 0x100 EXP SWAP1 DIV PUSH20 0xFFFFFFFFFFFFFFFFFFFFFFFFFFFFFFFFFFFFFFFF AND PUSH20 0xFFFFFFFFFFFFFFFFFFFFFFFFFFFFFFFFFFFFFFFF AND CALLER PUSH20 0xFFFFFFFFFFFFFFFFFFFFFFFFFFFFFFFFFFFFFFFF AND EQ PUSH2 0x12E7 JUMPI PUSH1 0x40 MLOAD PUSH32 0x8C379A000000000000000000000000000000000000000000000000000000000 DUP2 MSTORE PUSH1 0x4 ADD PUSH2 0x12DE SWAP1 PUSH2 0x3390 JUMP JUMPDEST PUSH1 0x40 MLOAD DUP1 SWAP2 SUB SWAP1 REVERT JUMPDEST PUSH1 0x1 PUSH1 0x7 PUSH1 0x14 PUSH2 0x100 EXP DUP2 SLOAD DUP2 PUSH1 0xFF MUL NOT AND SWAP1 DUP4 ISZERO ISZERO MUL OR SWAP1 SSTORE POP JUMP JUMPDEST PUSH1 0x7 PUSH0 SWAP1 SLOAD SWAP1 PUSH2 0x100 EXP SWAP1 DIV PUSH20 0xFFFFFFFFFFFFFFFFFFFFFFFFFFFFFFFFFFFFFFFF AND DUP2 JUMP JUMPDEST PUSH1 0x7 PUSH1 0x14 SWAP1 SLOAD SWAP1 PUSH2 0x100 EXP SWAP1 DIV PUSH1 0xFF AND ISZERO PUSH2 0x1379 JUMPI PUSH1 0x40 MLOAD PUSH32 0x8C379A000000000000000000000000000000000000000000000000000000000 DUP2 MSTORE PUSH1 0x4 ADD PUSH2 0x1370 SWAP1 PUSH2 0x3098 JUMP JUMPDEST PUSH1 0x40 MLOAD DUP1 SWAP2 SUB SWAP1 REVERT JUMPDEST DUP1 PUSH1 0x1 PUSH0 CALLER PUSH20 0xFFFFFFFFFFFFFFFFFFFFFFFFFFFFFFFFFFFFFFFF AND PUSH20 0xFFFFFFFFFFFFFFFFFFFFFFFFFFFFFFFFFFFFFFFF AND DUP2 MSTORE PUSH1 0x20 ADD SWAP1 DUP2 MSTORE PUSH1 0x20 ADD PUSH0 KECCAK256 PUSH0 DUP5 PUSH20 0xFFFFFFFFFFFFFFFFFFFFFFFFFFFFFFFFFFFFFFFF AND PUSH20 0xFFFFFFFFFFFFFFFFFFFFFFFFFFFFFFFFFFFFFFFF AND DUP2 MSTORE PUSH1 0x20 ADD SWAP1 DUP2 MSTORE PUSH1 0x20 ADD PUSH0 KECCAK256 PUSH0 PUSH2 0x100 EXP DUP2 SLOAD DUP2 PUSH1 0xFF MUL NOT AND SWAP1 DUP4 ISZERO ISZERO MUL OR SWAP1 SSTORE POP DUP2 PUSH20 0xFFFFFFFFFFFFFFFFFFFFFFFFFFFFFFFFFFFFFFFF AND CALLER PUSH20 0xFFFFFFFFFFFFFFFFFFFFFFFFFFFFFFFFFFFFFFFF AND PUSH32 0x17307EAB39AB6107E8899845AD3D59BD9653F200F220920489CA2B5937696C31 DUP4 PUSH1 0x40 MLOAD PUSH2 0x1465 SWAP2 SWAP1 PUSH2 0x2767 JUMP JUMPDEST PUSH1 0x40 MLOAD DUP1 SWAP2 SUB SWAP1 LOG3 POP POP JUMP JUMPDEST DUP1 PUSH1 0x5 PUSH0 DUP3 DUP2 MSTORE PUSH1 0x20 ADD SWAP1 DUP2 MSTORE PUSH1 0x20 ADD PUSH0 KECCAK256 PUSH1 0x3 ADD SLOAD TIMESTAMP LT ISZERO PUSH2 0x14C9 JUMPI PUSH1 0x40 MLOAD PUSH32 0x8C379A000000000000000000000000000000000000000000000000000000000 DUP2 MSTORE PUSH1 0x4 ADD PUSH2 0x14C0 SWAP1 PUSH2 0x3588 JUMP JUMPDEST PUSH1 0x40 MLOAD DUP1 SWAP2 SUB SWAP1 REVERT JUMPDEST DUP2 PUSH1 0x5 PUSH0 DUP3 DUP2 MSTORE PUSH1 0x20 ADD SWAP1 DUP2 MSTORE PUSH1 0x20 ADD PUSH0 KECCAK256 PUSH1 0x5 ADD PUSH1 0x14 SWAP1 SLOAD SWAP1 PUSH2 0x100 EXP SWAP1 DIV PUSH1 0xFF AND ISZERO PUSH2 0x152C JUMPI PUSH1 0x40 MLOAD PUSH32 0x8C379A000000000000000000000000000000000000000000000000000000000 DUP2 MSTORE PUSH1 0x4 ADD PUSH2 0x1523 SWAP1 PUSH2 0x35F0 JUMP JUMPDEST PUSH1 0x40 MLOAD DUP1 SWAP2 SUB SWAP1 REVERT JUMPDEST PUSH1 0x7 PUSH1 0x14 SWAP1 SLOAD SWAP1 PUSH2 0x100 EXP SWAP1 DIV PUSH1 0xFF AND ISZERO PUSH2 0x157C JUMPI PUSH1 0x40 MLOAD PUSH32 0x8C379A000000000000000000000000000000000000000000000000000000000 DUP2 MSTORE PUSH1 0x4 ADD PUSH2 0x1573 SWAP1 PUSH2 0x3098 JUMP JUMPDEST PUSH1 0x40 MLOAD DUP1 SWAP2 SUB SWAP1 REVERT JUMPDEST PUSH0 PUSH1 0x5 PUSH0 DUP6 DUP2 MSTORE PUSH1 0x20 ADD SWAP1 DUP2 MSTORE PUSH1 0x20 ADD PUSH0 KECCAK256 SWAP1 POP PUSH1 0x1 DUP2 PUSH1 0x5 ADD PUSH1 0x14 PUSH2 0x100 EXP DUP2 SLOAD DUP2 PUSH1 0xFF MUL NOT AND SWAP1 DUP4 ISZERO ISZERO MUL OR SWAP1 SSTORE POP PUSH0 PUSH20 0xFFFFFFFFFFFFFFFFFFFFFFFFFFFFFFFFFFFFFFFF AND DUP2 PUSH1 0x5 ADD PUSH0 SWAP1 SLOAD SWAP1 PUSH2 0x100 EXP SWAP1 DIV PUSH20 0xFFFFFFFFFFFFFFFFFFFFFFFFFFFFFFFFFFFFFFFF AND PUSH20 0xFFFFFFFFFFFFFFFFFFFFFFFFFFFFFFFFFFFFFFFF AND EQ PUSH2 0x1767 JUMPI DUP1 PUSH1 0x2 ADD SLOAD PUSH0 PUSH0 DUP4 PUSH1 0x1 ADD SLOAD DUP2 MSTORE PUSH1 0x20 ADD SWAP1 DUP2 MSTORE PUSH1 0x20 ADD PUSH0 KECCAK256 PUSH0 ADDRESS PUSH20 0xFFFFFFFFFFFFFFFFFFFFFFFFFFFFFFFFFFFFFFFF AND PUSH20 0xFFFFFFFFFFFFFFFFFFFFFFFFFFFFFFFFFFFFFFFF AND DUP2 MSTORE PUSH1 0x20 ADD SWAP1 DUP2 MSTORE PUSH1 0x20 ADD PUSH0 KECCAK256 PUSH0 DUP3 DUP3 SLOAD PUSH2 0x1665 SWAP2 SWAP1 PUSH2 0x321B JUMP JUMPDEST SWAP3 POP POP DUP2 SWAP1 SSTORE POP DUP1 PUSH1 0x2 ADD SLOAD PUSH0 PUSH0 DUP4 PUSH1 0x1 ADD SLOAD DUP2 MSTORE PUSH1 0x20 ADD SWAP1 DUP2 MSTORE PUSH1 0x20 ADD PUSH0 KECCAK256 PUSH0 DUP4 PUSH1 0x5 ADD PUSH0 SWAP1 SLOAD SWAP1 PUSH2 0x100 EXP SWAP1 DIV PUSH20 0xFFFFFFFFFFFFFFFFFFFFFFFFFFFFFFFFFFFFFFFF AND PUSH20 0xFFFFFFFFFFFFFFFFFFFFFFFFFFFFFFFFFFFFFFFF AND PUSH20 0xFFFFFFFFFFFFFFFFFFFFFFFFFFFFFFFFFFFFFFFF AND DUP2 MSTORE PUSH1 0x20 ADD SWAP1 DUP2 MSTORE PUSH1 0x20 ADD PUSH0 KECCAK256 PUSH0 DUP3 DUP3 SLOAD PUSH2 0x16F1 SWAP2 SWAP1 PUSH2 0x324E JUMP JUMPDEST SWAP3 POP POP DUP2 SWAP1 SSTORE POP DUP1 PUSH0 ADD PUSH0 SWAP1 SLOAD SWAP1 PUSH2 0x100 EXP SWAP1 DIV PUSH20 0xFFFFFFFFFFFFFFFFFFFFFFFFFFFFFFFFFFFFFFFF AND PUSH20 0xFFFFFFFFFFFFFFFFFFFFFFFFFFFFFFFFFFFFFFFF AND PUSH2 0x8FC DUP3 PUSH1 0x4 ADD SLOAD SWAP1 DUP2 ISZERO MUL SWAP1 PUSH1 0x40 MLOAD PUSH0 PUSH1 0x40 MLOAD DUP1 DUP4 SUB DUP2 DUP6 DUP9 DUP9 CALL SWAP4 POP POP POP POP ISZERO DUP1 ISZERO PUSH2 0x1761 JUMPI RETURNDATASIZE PUSH0 PUSH0 RETURNDATACOPY RETURNDATASIZE PUSH0 REVERT JUMPDEST POP PUSH2 0x185C JUMP JUMPDEST DUP1 PUSH1 0x2 ADD SLOAD PUSH0 PUSH0 DUP4 PUSH1 0x1 ADD SLOAD DUP2 MSTORE PUSH1 0x20 ADD SWAP1 DUP2 MSTORE PUSH1 0x20 ADD PUSH0 KECCAK256 PUSH0 ADDRESS PUSH20 0xFFFFFFFFFFFFFFFFFFFFFFFFFFFFFFFFFFFFFFFF AND PUSH20 0xFFFFFFFFFFFFFFFFFFFFFFFFFFFFFFFFFFFFFFFF AND DUP2 MSTORE PUSH1 0x20 ADD SWAP1 DUP2 MSTORE PUSH1 0x20 ADD PUSH0 KECCAK256 PUSH0 DUP3 DUP3 SLOAD PUSH2 0x17C9 SWAP2 SWAP1 PUSH2 0x321B JUMP JUMPDEST SWAP3 POP POP DUP2 SWAP1 SSTORE POP DUP1 PUSH1 0x2 ADD SLOAD PUSH0 PUSH0 DUP4 PUSH1 0x1 ADD SLOAD DUP2 MSTORE PUSH1 0x20 ADD SWAP1 DUP2 MSTORE PUSH1 0x20 ADD PUSH0 KECCAK256 PUSH0 DUP4 PUSH0 ADD PUSH0 SWAP1 SLOAD SWAP1 PUSH2 0x100 EXP SWAP1 DIV PUSH20 0xFFFFFFFFFFFFFFFFFFFFFFFFFFFFFFFFFFFFFFFF AND PUSH20 0xFFFFFFFFFFFFFFFFFFFFFFFFFFFFFFFFFFFFFFFF AND PUSH20 0xFFFFFFFFFFFFFFFFFFFFFFFFFFFFFFFFFFFFFFFF AND DUP2 MSTORE PUSH1 0x20 ADD SWAP1 DUP2 MSTORE PUSH1 0x20 ADD PUSH0 KECCAK256 PUSH0 DUP3 DUP3 SLOAD PUSH2 0x1854 SWAP2 SWAP1 PUSH2 0x324E JUMP JUMPDEST SWAP3 POP POP DUP2 SWAP1 SSTORE POP JUMPDEST DUP4 PUSH32 0xD2AA34A4FDBBC6DFF6A3E56F46E0F3AE2A31D7785FF3487AA5C95C642ACEA501 DUP3 PUSH1 0x5 ADD PUSH0 SWAP1 SLOAD SWAP1 PUSH2 0x100 EXP SWAP1 DIV PUSH20 0xFFFFFFFFFFFFFFFFFFFFFFFFFFFFFFFFFFFFFFFF AND DUP4 PUSH1 0x4 ADD SLOAD PUSH1 0x40 MLOAD PUSH2 0x18B5 SWAP3 SWAP2 SWAP1 PUSH2 0x28EC JUMP JUMPDEST PUSH1 0x40 MLOAD DUP1 SWAP2 SUB SWAP1 LOG2 POP POP POP POP JUMP JUMPDEST PUSH0 PUSH1 0x7 PUSH1 0x14 SWAP1 SLOAD SWAP1 PUSH2 0x100 EXP SWAP1 DIV PUSH1 0xFF AND ISZERO PUSH2 0x1914 JUMPI PUSH1 0x40 MLOAD PUSH32 0x8C379A000000000000000000000000000000000000000000000000000000000 DUP2 MSTORE PUSH1 0x4 ADD PUSH2 0x190B SWAP1 PUSH2 0x3098 JUMP JUMPDEST PUSH1 0x40 MLOAD DUP1 SWAP2 SUB SWAP1 REVERT JUMPDEST DUP3 PUSH0 PUSH0 DUP7 DUP2 MSTORE PUSH1 0x20 ADD SWAP1 DUP2 MSTORE PUSH1 0x20 ADD PUSH0 KECCAK256 PUSH0 CALLER PUSH20 0xFFFFFFFFFFFFFFFFFFFFFFFFFFFFFFFFFFFFFFFF AND PUSH20 0xFFFFFFFFFFFFFFFFFFFFFFFFFFFFFFFFFFFFFFFF AND DUP2 MSTORE PUSH1 0x20 ADD SWAP1 DUP2 MSTORE PUSH1 0x20 ADD PUSH0 KECCAK256 SLOAD LT ISZERO PUSH2 0x19A2 JUMPI PUSH1 0x40 MLOAD PUSH32 0x8C379A000000000000000000000000000000000000000000000000000000000 DUP2 MSTORE PUSH1 0x4 ADD PUSH2 0x1999 SWAP1 PUSH2 0x3390 JUMP JUMPDEST PUSH1 0x40 MLOAD DUP1 SWAP2 SUB SWAP1 REVERT JUMPDEST PUSH1 0x3C DUP3 LT ISZERO PUSH2 0x19E6 JUMPI PUSH1 0x40 MLOAD PUSH32 0x8C379A000000000000000000000000000000000000000000000000000000000 DUP2 MSTORE PUSH1 0x4 ADD PUSH2 0x19DD SWAP1 PUSH2 0x3658 JUMP JUMPDEST PUSH1 0x40 MLOAD DUP1 SWAP2 SUB SWAP1 REVERT JUMPDEST DUP3 PUSH0 PUSH0 DUP7 DUP2 MSTORE PUSH1 0x20 ADD SWAP1 DUP2 MSTORE PUSH1 0x20 ADD PUSH0 KECCAK256 PUSH0 CALLER PUSH20 0xFFFFFFFFFFFFFFFFFFFFFFFFFFFFFFFFFFFFFFFF AND PUSH20 0xFFFFFFFFFFFFFFFFFFFFFFFFFFFFFFFFFFFFFFFF AND DUP2 MSTORE PUSH1 0x20 ADD SWAP1 DUP2 MSTORE PUSH1 0x20 ADD PUSH0 KECCAK256 PUSH0 DUP3 DUP3 SLOAD PUSH2 0x1A40 SWAP2 SWAP1 PUSH2 0x321B JUMP JUMPDEST SWAP3 POP POP DUP2 SWAP1 SSTORE POP DUP3 PUSH0 PUSH0 DUP7 DUP2 MSTORE PUSH1 0x20 ADD SWAP1 DUP2 MSTORE PUSH1 0x20 ADD PUSH0 KECCAK256 PUSH0 ADDRESS PUSH20 0xFFFFFFFFFFFFFFFFFFFFFFFFFFFFFFFFFFFFFFFF AND PUSH20 0xFFFFFFFFFFFFFFFFFFFFFFFFFFFFFFFFFFFFFFFF AND DUP2 MSTORE PUSH1 0x20 ADD SWAP1 DUP2 MSTORE PUSH1 0x20 ADD PUSH0 KECCAK256 PUSH0 DUP3 DUP3 SLOAD PUSH2 0x1AA1 SWAP2 SWAP1 PUSH2 0x324E JUMP JUMPDEST SWAP3 POP POP DUP2 SWAP1 SSTORE POP PUSH1 0x4 PUSH0 DUP2 SLOAD DUP1 SWAP3 SWAP2 SWAP1 PUSH2 0x1ABA SWAP1 PUSH2 0x3676 JUMP JUMPDEST SWAP2 SWAP1 POP SSTORE POP PUSH1 0x40 MLOAD DUP1 PUSH1 0xE0 ADD PUSH1 0x40 MSTORE DUP1 CALLER PUSH20 0xFFFFFFFFFFFFFFFFFFFFFFFFFFFFFFFFFFFFFFFF AND DUP2 MSTORE PUSH1 0x20 ADD DUP6 DUP2 MSTORE PUSH1 0x20 ADD DUP5 DUP2 MSTORE PUSH1 0x20 ADD DUP4 TIMESTAMP PUSH2 0x1AFE SWAP2 SWAP1 PUSH2 0x324E JUMP JUMPDEST DUP2 MSTORE PUSH1 0x20 ADD PUSH0 DUP2 MSTORE PUSH1 0x20 ADD PUSH0 PUSH20 0xFFFFFFFFFFFFFFFFFFFFFFFFFFFFFFFFFFFFFFFF AND DUP2 MSTORE PUSH1 0x20 ADD PUSH0 ISZERO ISZERO DUP2 MSTORE POP PUSH1 0x5 PUSH0 PUSH1 0x4 SLOAD DUP2 MSTORE PUSH1 0x20 ADD SWAP1 DUP2 MSTORE PUSH1 0x20 ADD PUSH0 KECCAK256 PUSH0 DUP3 ADD MLOAD DUP2 PUSH0 ADD PUSH0 PUSH2 0x100 EXP DUP2 SLOAD DUP2 PUSH20 0xFFFFFFFFFFFFFFFFFFFFFFFFFFFFFFFFFFFFFFFF MUL NOT AND SWAP1 DUP4 PUSH20 0xFFFFFFFFFFFFFFFFFFFFFFFFFFFFFFFFFFFFFFFF AND MUL OR SWAP1 SSTORE POP PUSH1 0x20 DUP3 ADD MLOAD DUP2 PUSH1 0x1 ADD SSTORE PUSH1 0x40 DUP3 ADD MLOAD DUP2 PUSH1 0x2 ADD SSTORE PUSH1 0x60 DUP3 ADD MLOAD DUP2 PUSH1 0x3 ADD SSTORE PUSH1 0x80 DUP3 ADD MLOAD DUP2 PUSH1 0x4 ADD SSTORE PUSH1 0xA0 DUP3 ADD MLOAD DUP2 PUSH1 0x5 ADD PUSH0 PUSH2 0x100 EXP DUP2 SLOAD DUP2 PUSH20 0xFFFFFFFFFFFFFFFFFFFFFFFFFFFFFFFFFFFFFFFF MUL NOT AND SWAP1 DUP4 PUSH20 0xFFFFFFFFFFFFFFFFFFFFFFFFFFFFFFFFFFFFFFFF AND MUL OR SWAP1 SSTORE POP PUSH1 0xC0 DUP3 ADD MLOAD DUP2 PUSH1 0x5 ADD PUSH1 0x14 PUSH2 0x100 EXP DUP2 SLOAD DUP2 PUSH1 0xFF MUL NOT AND SWAP1 DUP4 ISZERO ISZERO MUL OR SWAP1 SSTORE POP SWAP1 POP POP CALLER PUSH20 0xFFFFFFFFFFFFFFFFFFFFFFFFFFFFFFFFFFFFFFFF AND PUSH1 0x4 SLOAD PUSH32 0xC9050D42180A61CB0D9EBB8AD118B62FE6EAB12CF12FF752C4A0CC7DA9DDF627 DUP7 DUP6 TIMESTAMP PUSH2 0x1C5B SWAP2 SWAP1 PUSH2 0x324E JUMP JUMPDEST PUSH1 0x40 MLOAD PUSH2 0x1C69 SWAP3 SWAP2 SWAP1 PUSH2 0x3281 JUMP JUMPDEST PUSH1 0x40 MLOAD DUP1 SWAP2 SUB SWAP1 LOG3 PUSH1 0x4 SLOAD SWAP1 POP SWAP4 SWAP3 POP POP POP JUMP JUMPDEST PUSH0 PUSH1 0x1 PUSH0 DUP5 PUSH20 0xFFFFFFFFFFFFFFFFFFFFFFFFFFFFFFFFFFFFFFFF AND PUSH20 0xFFFFFFFFFFFFFFFFFFFFFFFFFFFFFFFFFFFFFFFF AND DUP2 MSTORE PUSH1 0x20 ADD SWAP1 DUP2 MSTORE PUSH1 0x20 ADD PUSH0 KECCAK256 PUSH0 DUP4 PUSH20 0xFFFFFFFFFFFFFFFFFFFFFFFFFFFFFFFFFFFFFFFF AND PUSH20 0xFFFFFFFFFFFFFFFFFFFFFFFFFFFFFFFFFFFFFFFF AND DUP2 MSTORE PUSH1 0x20 ADD SWAP1 DUP2 MSTORE PUSH1 0x20 ADD PUSH0 KECCAK256 PUSH0 SWAP1 SLOAD SWAP1 PUSH2 0x100 EXP SWAP1 DIV PUSH1 0xFF AND SWAP1 POP SWAP3 SWAP2 POP POP JUMP JUMPDEST PUSH1 0x7 PUSH1 0x14 SWAP1 SLOAD SWAP1 PUSH2 0x100 EXP SWAP1 DIV PUSH1 0xFF AND ISZERO PUSH2 0x1D5B JUMPI PUSH1 0x40 MLOAD PUSH32 0x8C379A000000000000000000000000000000000000000000000000000000000 DUP2 MSTORE PUSH1 0x4 ADD PUSH2 0x1D52 SWAP1 PUSH2 0x3098 JUMP JUMPDEST PUSH1 0x40 MLOAD DUP1 SWAP2 SUB SWAP1 REVERT JUMPDEST CALLER PUSH20 0xFFFFFFFFFFFFFFFFFFFFFFFFFFFFFFFFFFFFFFFF AND DUP7 PUSH20 0xFFFFFFFFFFFFFFFFFFFFFFFFFFFFFFFFFFFFFFFF AND EQ DUP1 PUSH2 0x1E16 JUMPI POP PUSH1 0x1 PUSH0 DUP8 PUSH20 0xFFFFFFFFFFFFFFFFFFFFFFFFFFFFFFFFFFFFFFFF AND PUSH20 0xFFFFFFFFFFFFFFFFFFFFFFFFFFFFFFFFFFFFFFFF AND DUP2 MSTORE PUSH1 0x20 ADD SWAP1 DUP2 MSTORE PUSH1 0x20 ADD PUSH0 KECCAK256 PUSH0 CALLER PUSH20 0xFFFFFFFFFFFFFFFFFFFFFFFFFFFFFFFFFFFFFFFF AND PUSH20 0xFFFFFFFFFFFFFFFFFFFFFFFFFFFFFFFFFFFFFFFF AND DUP2 MSTORE PUSH1 0x20 ADD SWAP1 DUP2 MSTORE PUSH1 0x20 ADD PUSH0 KECCAK256 PUSH0 SWAP1 SLOAD SWAP1 PUSH2 0x100 EXP SWAP1 DIV PUSH1 0xFF AND JUMPDEST PUSH2 0x1E55 JUMPI PUSH1 0x40 MLOAD PUSH32 0x8C379A000000000000000000000000000000000000000000000000000000000 DUP2 MSTORE PUSH1 0x4 ADD PUSH2 0x1E4C SWAP1 PUSH2 0x3168 JUMP JUMPDEST PUSH1 0x40 MLOAD DUP1 SWAP2 SUB SWAP1 REVERT JUMPDEST PUSH0 PUSH20 0xFFFFFFFFFFFFFFFFFFFFFFFFFFFFFFFFFFFFFFFF AND DUP6 PUSH20 0xFFFFFFFFFFFFFFFFFFFFFFFFFFFFFFFFFFFFFFFF AND SUB PUSH2 0x1EC3 JUMPI PUSH1 0x40 MLOAD PUSH32 0x8C379A000000000000000000000000000000000000000000000000000000000 DUP2 MSTORE PUSH1 0x4 ADD PUSH2 0x1EBA SWAP1 PUSH2 0x2FD3 JUMP JUMPDEST PUSH1 0x40 MLOAD DUP1 SWAP2 SUB SWAP1 REVERT JUMPDEST DUP2 DUP2 SWAP1 POP DUP5 DUP5 SWAP1 POP EQ PUSH2 0x1F0B JUMPI PUSH1 0x40 MLOAD PUSH32 0x8C379A000000000000000000000000000000000000000000000000000000000 DUP2 MSTORE PUSH1 0x4 ADD PUSH2 0x1F02 SWAP1 PUSH2 0x34C8 JUMP JUMPDEST PUSH1 0x40 MLOAD DUP1 SWAP2 SUB SWAP1 REVERT JUMPDEST PUSH0 PUSH0 SWAP1 POP JUMPDEST DUP5 DUP5 SWAP1 POP DUP2 LT ISZERO PUSH2 0x210E JUMPI DUP3 DUP3 DUP3 DUP2 DUP2 LT PUSH2 0x1F2E JUMPI PUSH2 0x1F2D PUSH2 0x34E6 JUMP JUMPDEST JUMPDEST SWAP1 POP PUSH1 0x20 MUL ADD CALLDATALOAD PUSH0 PUSH0 DUP8 DUP8 DUP6 DUP2 DUP2 LT PUSH2 0x1F4A JUMPI PUSH2 0x1F49 PUSH2 0x34E6 JUMP JUMPDEST JUMPDEST SWAP1 POP PUSH1 0x20 MUL ADD CALLDATALOAD DUP2 MSTORE PUSH1 0x20 ADD SWAP1 DUP2 MSTORE PUSH1 0x20 ADD PUSH0 KECCAK256 PUSH0 DUP10 PUSH20 0xFFFFFFFFFFFFFFFFFFFFFFFFFFFFFFFFFFFFFFFF AND PUSH20 0xFFFFFFFFFFFFFFFFFFFFFFFFFFFFFFFFFFFFFFFF AND DUP2 MSTORE PUSH1 0x20 ADD SWAP1 DUP2 MSTORE PUSH1 0x20 ADD PUSH0 KECCAK256 SLOAD LT ISZERO PUSH2 0x1FDB JUMPI PUSH1 0x40 MLOAD PUSH32 0x8C379A000000000000000000000000000000000000000000000000000000000 DUP2 MSTORE PUSH1 0x4 ADD PUSH2 0x1FD2 SWAP1 PUSH2 0x31D0 JUMP JUMPDEST PUSH1 0x40 MLOAD DUP1 SWAP2 SUB SWAP1 REVERT JUMPDEST DUP3 DUP3 DUP3 DUP2 DUP2 LT PUSH2 0x1FEE JUMPI PUSH2 0x1FED PUSH2 0x34E6 JUMP JUMPDEST JUMPDEST SWAP1 POP PUSH1 0x20 MUL ADD CALLDATALOAD PUSH0 PUSH0 DUP8 DUP8 DUP6 DUP2 DUP2 LT PUSH2 0x200A JUMPI PUSH2 0x2009 PUSH2 0x34E6 JUMP JUMPDEST JUMPDEST SWAP1 POP PUSH1 0x20 MUL ADD CALLDATALOAD DUP2 MSTORE PUSH1 0x20 ADD SWAP1 DUP2 MSTORE PUSH1 0x20 ADD PUSH0 KECCAK256 PUSH0 DUP10 PUSH20 0xFFFFFFFFFFFFFFFFFFFFFFFFFFFFFFFFFFFFFFFF AND PUSH20 0xFFFFFFFFFFFFFFFFFFFFFFFFFFFFFFFFFFFFFFFF AND DUP2 MSTORE PUSH1 0x20 ADD SWAP1 DUP2 MSTORE PUSH1 0x20 ADD PUSH0 KECCAK256 PUSH0 DUP3 DUP3 SLOAD PUSH2 0x2067 SWAP2 SWAP1 PUSH2 0x321B JUMP JUMPDEST SWAP3 POP POP DUP2 SWAP1 SSTORE POP DUP3 DUP3 DUP3 DUP2 DUP2 LT PUSH2 0x2081 JUMPI PUSH2 0x2080 PUSH2 0x34E6 JUMP JUMPDEST JUMPDEST SWAP1 POP PUSH1 0x20 MUL ADD CALLDATALOAD PUSH0 PUSH0 DUP8 DUP8 DUP6 DUP2 DUP2 LT PUSH2 0x209D JUMPI PUSH2 0x209C PUSH2 0x34E6 JUMP JUMPDEST JUMPDEST SWAP1 POP PUSH1 0x20 MUL ADD CALLDATALOAD DUP2 MSTORE PUSH1 0x20 ADD SWAP1 DUP2 MSTORE PUSH1 0x20 ADD PUSH0 KECCAK256 PUSH0 DUP9 PUSH20 0xFFFFFFFFFFFFFFFFFFFFFFFFFFFFFFFFFFFFFFFF AND PUSH20 0xFFFFFFFFFFFFFFFFFFFFFFFFFFFFFFFFFFFFFFFF AND DUP2 MSTORE PUSH1 0x20 ADD SWAP1 DUP2 MSTORE PUSH1 0x20 ADD PUSH0 KECCAK256 PUSH0 DUP3 DUP3 SLOAD PUSH2 0x20FA SWAP2 SWAP1 PUSH2 0x324E JUMP JUMPDEST SWAP3 POP POP DUP2 SWAP1 SSTORE POP DUP1 DUP1 PUSH1 0x1 ADD SWAP2 POP POP PUSH2 0x1F10 JUMP JUMPDEST POP DUP5 PUSH20 0xFFFFFFFFFFFFFFFFFFFFFFFFFFFFFFFFFFFFFFFF AND DUP7 PUSH20 0xFFFFFFFFFFFFFFFFFFFFFFFFFFFFFFFFFFFFFFFF AND CALLER PUSH20 0xFFFFFFFFFFFFFFFFFFFFFFFFFFFFFFFFFFFFFFFF AND PUSH32 0x4A39DC06D4C0DBC64B70AF90FD698A233A518AA5D07E595D983B8C0526C8F7FB DUP8 DUP8 DUP8 DUP8 PUSH1 0x40 MLOAD PUSH2 0x2189 SWAP5 SWAP4 SWAP3 SWAP2 SWAP1 PUSH2 0x3725 JUMP JUMPDEST PUSH1 0x40 MLOAD DUP1 SWAP2 SUB SWAP1 LOG4 POP POP POP POP POP POP JUMP JUMPDEST PUSH1 0x7 PUSH0 SWAP1 SLOAD SWAP1 PUSH2 0x100 EXP SWAP1 DIV PUSH20 0xFFFFFFFFFFFFFFFFFFFFFFFFFFFFFFFFFFFFFFFF AND PUSH20 0xFFFFFFFFFFFFFFFFFFFFFFFFFFFFFFFFFFFFFFFF AND CALLER PUSH20 0xFFFFFFFFFFFFFFFFFFFFFFFFFFFFFFFFFFFFFFFF AND EQ PUSH2 0x2228 JUMPI PUSH1 0x40 MLOAD PUSH32 0x8C379A000000000000000000000000000000000000000000000000000000000 DUP2 MSTORE PUSH1 0x4 ADD PUSH2 0x221F SWAP1 PUSH2 0x3390 JUMP JUMPDEST PUSH1 0x40 MLOAD DUP1 SWAP2 SUB SWAP1 REVERT JUMPDEST PUSH1 0x7 PUSH1 0x14 SWAP1 SLOAD SWAP1 PUSH2 0x100 EXP SWAP1 DIV PUSH1 0xFF AND ISZERO PUSH2 0x2278 JUMPI PUSH1 0x40 MLOAD PUSH32 0x8C379A000000000000000000000000000000000000000000000000000000000 DUP2 MSTORE PUSH1 0x4 ADD PUSH2 0x226F SWAP1 PUSH2 0x3098 JUMP JUMPDEST PUSH1 0x40 MLOAD DUP1 SWAP2 SUB SWAP1 REVERT JUMPDEST PUSH0 PUSH20 0xFFFFFFFFFFFFFFFFFFFFFFFFFFFFFFFFFFFFFFFF AND DUP7 PUSH20 0xFFFFFFFFFFFFFFFFFFFFFFFFFFFFFFFFFFFFFFFF AND SUB PUSH2 0x22E6 JUMPI PUSH1 0x40 MLOAD PUSH32 0x8C379A000000000000000000000000000000000000000000000000000000000 DUP2 MSTORE PUSH1 0x4 ADD PUSH2 0x22DD SWAP1 PUSH2 0x2FD3 JUMP JUMPDEST PUSH1 0x40 MLOAD DUP1 SWAP2 SUB SWAP1 REVERT JUMPDEST PUSH2 0x2710 DUP2 PUSH12 0xFFFFFFFFFFFFFFFFFFFFFFFF AND GT ISZERO PUSH2 0x2339 JUMPI PUSH1 0x40 MLOAD PUSH32 0x8C379A000000000000000000000000000000000000000000000000000000000 DUP2 MSTORE PUSH1 0x4 ADD PUSH2 0x2330 SWAP1 PUSH2 0x37A8 JUMP JUMPDEST PUSH1 0x40 MLOAD DUP1 SWAP2 SUB SWAP1 REVERT JUMPDEST DUP4 PUSH0 PUSH0 DUP8 DUP2 MSTORE PUSH1 0x20 ADD SWAP1 DUP2 MSTORE PUSH1 0x20 ADD PUSH0 KECCAK256 PUSH0 DUP9 PUSH20 0xFFFFFFFFFFFFFFFFFFFFFFFFFFFFFFFFFFFFFFFF AND PUSH20 0xFFFFFFFFFFFFFFFFFFFFFFFFFFFFFFFFFFFFFFFF AND DUP2 MSTORE PUSH1 0x20 ADD SWAP1 DUP2 MSTORE PUSH1 0x20 ADD PUSH0 KECCAK256 PUSH0 DUP3 DUP3 SLOAD PUSH2 0x2393 SWAP2 SWAP1 PUSH2 0x324E JUMP JUMPDEST SWAP3 POP POP DUP2 SWAP1 SSTORE POP PUSH0 PUSH1 0x2 PUSH0 DUP8 DUP2 MSTORE PUSH1 0x20 ADD SWAP1 DUP2 MSTORE PUSH1 0x20 ADD PUSH0 KECCAK256 DUP1 SLOAD PUSH2 0x23B7 SWAP1 PUSH2 0x301E JUMP JUMPDEST SWAP1 POP SUB PUSH2 0x2416 JUMPI DUP3 PUSH1 0x2 PUSH0 DUP8 DUP2 MSTORE PUSH1 0x20 ADD SWAP1 DUP2 MSTORE PUSH1 0x20 ADD PUSH0 KECCAK256 SWAP1 DUP2 PUSH2 0x23DC SWAP2 SWAP1 PUSH2 0x3966 JUMP JUMPDEST POP DUP5 PUSH32 0x6BB7FF708619BA0610CBA295A58592E0451DEE2622938C8755667688DAF3529B DUP5 PUSH1 0x40 MLOAD PUSH2 0x240D SWAP2 SWAP1 PUSH2 0x281B JUMP JUMPDEST PUSH1 0x40 MLOAD DUP1 SWAP2 SUB SWAP1 LOG2 JUMPDEST PUSH0 PUSH20 0xFFFFFFFFFFFFFFFFFFFFFFFFFFFFFFFFFFFFFFFF AND PUSH1 0x3 PUSH0 DUP8 DUP2 MSTORE PUSH1 0x20 ADD SWAP1 DUP2 MSTORE PUSH1 0x20 ADD PUSH0 KECCAK256 PUSH0 ADD PUSH0 SWAP1 SLOAD SWAP1 PUSH2 0x100 EXP SWAP1 DIV PUSH20 0xFFFFFFFFFFFFFFFFFFFFFFFFFFFFFFFFFFFFFFFF AND PUSH20 0xFFFFFFFFFFFFFFFFFFFFFFFFFFFFFFFFFFFFFFFF AND SUB PUSH2 0x2543 JUMPI PUSH1 0x40 MLOAD DUP1 PUSH1 0x40 ADD PUSH1 0x40 MSTORE DUP1 DUP4 PUSH20 0xFFFFFFFFFFFFFFFFFFFFFFFFFFFFFFFFFFFFFFFF AND DUP2 MSTORE PUSH1 0x20 ADD DUP3 PUSH12 0xFFFFFFFFFFFFFFFFFFFFFFFF AND DUP2 MSTORE POP PUSH1 0x3 PUSH0 DUP8 DUP2 MSTORE PUSH1 0x20 ADD SWAP1 DUP2 MSTORE PUSH1 0x20 ADD PUSH0 KECCAK256 PUSH0 DUP3 ADD MLOAD DUP2 PUSH0 ADD PUSH0 PUSH2 0x100 EXP DUP2 SLOAD DUP2 PUSH20 0xFFFFFFFFFFFFFFFFFFFFFFFFFFFFFFFFFFFFFFFF MUL NOT AND SWAP1 DUP4 PUSH20 0xFFFFFFFFFFFFFFFFFFFFFFFFFFFFFFFFFFFFFFFF AND MUL OR SWAP1 SSTORE POP PUSH1 0x20 DUP3 ADD MLOAD DUP2 PUSH0 ADD PUSH1 0x14 PUSH2 0x100 EXP DUP2 SLOAD DUP2 PUSH12 0xFFFFFFFFFFFFFFFFFFFFFFFF MUL NOT AND SWAP1 DUP4 PUSH12 0xFFFFFFFFFFFFFFFFFFFFFFFF AND MUL OR SWAP1 SSTORE POP SWAP1 POP POP JUMPDEST DUP6 PUSH20 0xFFFFFFFFFFFFFFFFFFFFFFFFFFFFFFFFFFFFFFFF AND PUSH0 PUSH20 0xFFFFFFFFFFFFFFFFFFFFFFFFFFFFFFFFFFFFFFFF AND CALLER PUSH20 0xFFFFFFFFFFFFFFFFFFFFFFFFFFFFFFFFFFFFFFFF AND PUSH32 0xC3D58168C5AE7397731D063D5BBF3D657854427343F4C083240F7AACAA2D0F62 DUP9 DUP9 PUSH1 0x40 MLOAD PUSH2 0x25B9 SWAP3 SWAP2 SWAP1 PUSH2 0x3281 JUMP JUMPDEST PUSH1 0x40 MLOAD DUP1 SWAP2 SUB SWAP1 LOG4 POP POP POP POP POP POP JUMP JUMPDEST PUSH0 PUSH1 0x40 MLOAD SWAP1 POP SWAP1 JUMP JUMPDEST PUSH0 PUSH0 REVERT JUMPDEST PUSH0 PUSH0 REVERT JUMPDEST PUSH0 PUSH20 0xFFFFFFFFFFFFFFFFFFFFFFFFFFFFFFFFFFFFFFFF DUP3 AND SWAP1 POP SWAP2 SWAP1 POP JUMP JUMPDEST PUSH0 PUSH2 0x2603 DUP3 PUSH2 0x25DA JUMP JUMPDEST SWAP1 POP SWAP2 SWAP1 POP JUMP JUMPDEST PUSH2 0x2613 DUP2 PUSH2 0x25F9 JUMP JUMPDEST DUP2 EQ PUSH2 0x261D JUMPI PUSH0 PUSH0 REVERT JUMPDEST POP JUMP JUMPDEST PUSH0 DUP2 CALLDATALOAD SWAP1 POP PUSH2 0x262E DUP2 PUSH2 0x260A JUMP JUMPDEST SWAP3 SWAP2 POP POP JUMP JUMPDEST PUSH0 DUP2 SWAP1 POP SWAP2 SWAP1 POP JUMP JUMPDEST PUSH2 0x2646 DUP2 PUSH2 0x2634 JUMP JUMPDEST DUP2 EQ PUSH2 0x2650 JUMPI PUSH0 PUSH0 REVERT JUMPDEST POP JUMP JUMPDEST PUSH0 DUP2 CALLDATALOAD SWAP1 POP PUSH2 0x2661 DUP2 PUSH2 0x263D JUMP JUMPDEST SWAP3 SWAP2 POP POP JUMP JUMPDEST PUSH0 PUSH0 PUSH1 0x40 DUP4 DUP6 SUB SLT ISZERO PUSH2 0x267D JUMPI PUSH2 0x267C PUSH2 0x25D2 JUMP JUMPDEST JUMPDEST PUSH0 PUSH2 0x268A DUP6 DUP3 DUP7 ADD PUSH2 0x2620 JUMP JUMPDEST SWAP3 POP POP PUSH1 0x20 PUSH2 0x269B DUP6 DUP3 DUP7 ADD PUSH2 0x2653 JUMP JUMPDEST SWAP2 POP POP SWAP3 POP SWAP3 SWAP1 POP JUMP JUMPDEST PUSH2 0x26AE DUP2 PUSH2 0x2634 JUMP JUMPDEST DUP3 MSTORE POP POP JUMP JUMPDEST PUSH0 PUSH1 0x20 DUP3 ADD SWAP1 POP PUSH2 0x26C7 PUSH0 DUP4 ADD DUP5 PUSH2 0x26A5 JUMP JUMPDEST SWAP3 SWAP2 POP POP JUMP JUMPDEST PUSH0 PUSH32 0xFFFFFFFF00000000000000000000000000000000000000000000000000000000 DUP3 AND SWAP1 POP SWAP2 SWAP1 POP JUMP JUMPDEST PUSH2 0x2701 DUP2 PUSH2 0x26CD JUMP JUMPDEST DUP2 EQ PUSH2 0x270B JUMPI PUSH0 PUSH0 REVERT JUMPDEST POP JUMP JUMPDEST PUSH0 DUP2 CALLDATALOAD SWAP1 POP PUSH2 0x271C DUP2 PUSH2 0x26F8 JUMP JUMPDEST SWAP3 SWAP2 POP POP JUMP JUMPDEST PUSH0 PUSH1 0x20 DUP3 DUP5 SUB SLT ISZERO PUSH2 0x2737 JUMPI PUSH2 0x2736 PUSH2 0x25D2 JUMP JUMPDEST JUMPDEST PUSH0 PUSH2 0x2744 DUP5 DUP3 DUP6 ADD PUSH2 0x270E JUMP JUMPDEST SWAP2 POP POP SWAP3 SWAP2 POP POP JUMP JUMPDEST PUSH0 DUP2 ISZERO ISZERO SWAP1 POP SWAP2 SWAP1 POP JUMP JUMPDEST PUSH2 0x2761 DUP2 PUSH2 0x274D JUMP JUMPDEST DUP3 MSTORE POP POP JUMP JUMPDEST PUSH0 PUSH1 0x20 DUP3 ADD SWAP1 POP PUSH2 0x277A PUSH0 DUP4 ADD DUP5 PUSH2 0x2758 JUMP JUMPDEST SWAP3 SWAP2 POP POP JUMP JUMPDEST PUSH0 PUSH1 0x20 DUP3 DUP5 SUB SLT ISZERO PUSH2 0x2795 JUMPI PUSH2 0x2794 PUSH2 0x25D2 JUMP JUMPDEST JUMPDEST PUSH0 PUSH2 0x27A2 DUP5 DUP3 DUP6 ADD PUSH2 0x2653 JUMP JUMPDEST SWAP2 POP POP SWAP3 SWAP2 POP POP JUMP JUMPDEST PUSH0 DUP2 MLOAD SWAP1 POP SWAP2 SWAP1 POP JUMP JUMPDEST PUSH0 DUP3 DUP3 MSTORE PUSH1 0x20 DUP3 ADD SWAP1 POP SWAP3 SWAP2 POP POP JUMP JUMPDEST DUP3 DUP2 DUP4 MCOPY PUSH0 DUP4 DUP4 ADD MSTORE POP POP POP JUMP JUMPDEST PUSH0 PUSH1 0x1F NOT PUSH1 0x1F DUP4 ADD AND SWAP1 POP SWAP2 SWAP1 POP JUMP JUMPDEST PUSH0 PUSH2 0x27ED DUP3 PUSH2 0x27AB JUMP JUMPDEST PUSH2 0x27F7 DUP2 DUP6 PUSH2 0x27B5 JUMP JUMPDEST SWAP4 POP PUSH2 0x2807 DUP2 DUP6 PUSH1 0x20 DUP7 ADD PUSH2 0x27C5 JUMP JUMPDEST PUSH2 0x2810 DUP2 PUSH2 0x27D3 JUMP JUMPDEST DUP5 ADD SWAP2 POP POP SWAP3 SWAP2 POP POP JUMP JUMPDEST PUSH0 PUSH1 0x20 DUP3 ADD SWAP1 POP DUP2 DUP2 SUB PUSH0 DUP4 ADD MSTORE PUSH2 0x2833 DUP2 DUP5 PUSH2 0x27E3 JUMP JUMPDEST SWAP1 POP SWAP3 SWAP2 POP POP JUMP JUMPDEST PUSH0 PUSH0 PUSH0 PUSH0 PUSH1 0x80 DUP6 DUP8 SUB SLT ISZERO PUSH2 0x2853 JUMPI PUSH2 0x2852 PUSH2 0x25D2 JUMP JUMPDEST JUMPDEST PUSH0 PUSH2 0x2860 DUP8 DUP3 DUP9 ADD PUSH2 0x2620 JUMP JUMPDEST SWAP5 POP POP PUSH1 0x20 PUSH2 0x2871 DUP8 DUP3 DUP9 ADD PUSH2 0x2620 JUMP JUMPDEST SWAP4 POP POP PUSH1 0x40 PUSH2 0x2882 DUP8 DUP3 DUP9 ADD PUSH2 0x2653 JUMP JUMPDEST SWAP3 POP POP PUSH1 0x60 PUSH2 0x2893 DUP8 DUP3 DUP9 ADD PUSH2 0x2653 JUMP JUMPDEST SWAP2 POP POP SWAP3 SWAP6 SWAP2 SWAP5 POP SWAP3 POP JUMP JUMPDEST PUSH0 PUSH0 PUSH1 0x40 DUP4 DUP6 SUB SLT ISZERO PUSH2 0x28B5 JUMPI PUSH2 0x28B4 PUSH2 0x25D2 JUMP JUMPDEST JUMPDEST PUSH0 PUSH2 0x28C2 DUP6 DUP3 DUP7 ADD PUSH2 0x2653 JUMP JUMPDEST SWAP3 POP POP PUSH1 0x20 PUSH2 0x28D3 DUP6 DUP3 DUP7 ADD PUSH2 0x2653 JUMP JUMPDEST SWAP2 POP POP SWAP3 POP SWAP3 SWAP1 POP JUMP JUMPDEST PUSH2 0x28E6 DUP2 PUSH2 0x25F9 JUMP JUMPDEST DUP3 MSTORE POP POP JUMP JUMPDEST PUSH0 PUSH1 0x40 DUP3 ADD SWAP1 POP PUSH2 0x28FF PUSH0 DUP4 ADD DUP6 PUSH2 0x28DD JUMP JUMPDEST PUSH2 0x290C PUSH1 0x20 DUP4 ADD DUP5 PUSH2 0x26A5 JUMP JUMPDEST SWAP4 SWAP3 POP POP POP JUMP JUMPDEST PUSH0 PUSH0 PUSH1 0x40 DUP4 DUP6 SUB SLT ISZERO PUSH2 0x2929 JUMPI PUSH2 0x2928 PUSH2 0x25D2 JUMP JUMPDEST JUMPDEST PUSH0 PUSH2 0x2936 DUP6 DUP3 DUP7 ADD PUSH2 0x2653 JUMP JUMPDEST SWAP3 POP POP PUSH1 0x20 PUSH2 0x2947 DUP6 DUP3 DUP7 ADD PUSH2 0x2620 JUMP JUMPDEST SWAP2 POP POP SWAP3 POP SWAP3 SWAP1 POP JUMP JUMPDEST PUSH0 PUSH0 REVERT JUMPDEST PUSH0 PUSH0 REVERT JUMPDEST PUSH0 PUSH0 REVERT JUMPDEST PUSH0 PUSH0 DUP4 PUSH1 0x1F DUP5 ADD SLT PUSH2 0x2972 JUMPI PUSH2 0x2971 PUSH2 0x2951 JUMP JUMPDEST JUMPDEST DUP3 CALLDATALOAD SWAP1 POP PUSH8 0xFFFFFFFFFFFFFFFF DUP2 GT ISZERO PUSH2 0x298F JUMPI PUSH2 0x298E PUSH2 0x2955 JUMP JUMPDEST JUMPDEST PUSH1 0x20 DUP4 ADD SWAP2 POP DUP4 PUSH1 0x20 DUP3 MUL DUP4 ADD GT ISZERO PUSH2 0x29AB JUMPI PUSH2 0x29AA PUSH2 0x2959 JUMP JUMPDEST JUMPDEST SWAP3 POP SWAP3 SWAP1 POP JUMP JUMPDEST PUSH0 PUSH0 DUP4 PUSH1 0x1F DUP5 ADD SLT PUSH2 0x29C7 JUMPI PUSH2 0x29C6 PUSH2 0x2951 JUMP JUMPDEST JUMPDEST DUP3 CALLDATALOAD SWAP1 POP PUSH8 0xFFFFFFFFFFFFFFFF DUP2 GT ISZERO PUSH2 0x29E4 JUMPI PUSH2 0x29E3 PUSH2 0x2955 JUMP JUMPDEST JUMPDEST PUSH1 0x20 DUP4 ADD SWAP2 POP DUP4 PUSH1 0x20 DUP3 MUL DUP4 ADD GT ISZERO PUSH2 0x2A00 JUMPI PUSH2 0x29FF PUSH2 0x2959 JUMP JUMPDEST JUMPDEST SWAP3 POP SWAP3 SWAP1 POP JUMP JUMPDEST PUSH0 PUSH0 PUSH0 PUSH0 PUSH1 0x40 DUP6 DUP8 SUB SLT ISZERO PUSH2 0x2A1F JUMPI PUSH2 0x2A1E PUSH2 0x25D2 JUMP JUMPDEST JUMPDEST PUSH0 DUP6 ADD CALLDATALOAD PUSH8 0xFFFFFFFFFFFFFFFF DUP2 GT ISZERO PUSH2 0x2A3C JUMPI PUSH2 0x2A3B PUSH2 0x25D6 JUMP JUMPDEST JUMPDEST PUSH2 0x2A48 DUP8 DUP3 DUP9 ADD PUSH2 0x295D JUMP JUMPDEST SWAP5 POP SWAP5 POP POP PUSH1 0x20 DUP6 ADD CALLDATALOAD PUSH8 0xFFFFFFFFFFFFFFFF DUP2 GT ISZERO PUSH2 0x2A6B JUMPI PUSH2 0x2A6A PUSH2 0x25D6 JUMP JUMPDEST JUMPDEST PUSH2 0x2A77 DUP8 DUP3 DUP9 ADD PUSH2 0x29B2 JUMP JUMPDEST SWAP3 POP SWAP3 POP POP SWAP3 SWAP6 SWAP2 SWAP5 POP SWAP3 POP JUMP JUMPDEST PUSH0 DUP2 MLOAD SWAP1 POP SWAP2 SWAP1 POP JUMP JUMPDEST PUSH0 DUP3 DUP3 MSTORE PUSH1 0x20 DUP3 ADD SWAP1 POP SWAP3 SWAP2 POP POP JUMP JUMPDEST PUSH0 DUP2 SWAP1 POP PUSH1 0x20 DUP3 ADD SWAP1 POP SWAP2 SWAP1 POP JUMP JUMPDEST PUSH2 0x2AB7 DUP2 PUSH2 0x2634 JUMP JUMPDEST DUP3 MSTORE POP POP JUMP JUMPDEST PUSH0 PUSH2 0x2AC8 DUP4 DUP4 PUSH2 0x2AAE JUMP JUMPDEST PUSH1 0x20 DUP4 ADD SWAP1 POP SWAP3 SWAP2 POP POP JUMP JUMPDEST PUSH0 PUSH1 0x20 DUP3 ADD SWAP1 POP SWAP2 SWAP1 POP JUMP JUMPDEST PUSH0 PUSH2 0x2AEA DUP3 PUSH2 0x2A85 JUMP JUMPDEST PUSH2 0x2AF4 DUP2 DUP6 PUSH2 0x2A8F JUMP JUMPDEST SWAP4 POP PUSH2 0x2AFF DUP4 PUSH2 0x2A9F JUMP JUMPDEST DUP1 PUSH0 JUMPDEST DUP4 DUP2 LT ISZERO PUSH2 0x2B2F JUMPI DUP2 MLOAD PUSH2 0x2B16 DUP9 DUP3 PUSH2 0x2ABD JUMP JUMPDEST SWAP8 POP PUSH2 0x2B21 DUP4 PUSH2 0x2AD4 JUMP JUMPDEST SWAP3 POP POP PUSH1 0x1 DUP2 ADD SWAP1 POP PUSH2 0x2B02 JUMP JUMPDEST POP DUP6 SWAP4 POP POP POP POP SWAP3 SWAP2 POP POP JUMP JUMPDEST PUSH0 PUSH1 0x20 DUP3 ADD SWAP1 POP DUP2 DUP2 SUB PUSH0 DUP4 ADD MSTORE PUSH2 0x2B54 DUP2 DUP5 PUSH2 0x2AE0 JUMP JUMPDEST SWAP1 POP SWAP3 SWAP2 POP POP JUMP JUMPDEST PUSH0 PUSH1 0xE0 DUP3 ADD SWAP1 POP PUSH2 0x2B6F PUSH0 DUP4 ADD DUP11 PUSH2 0x28DD JUMP JUMPDEST PUSH2 0x2B7C PUSH1 0x20 DUP4 ADD DUP10 PUSH2 0x26A5 JUMP JUMPDEST PUSH2 0x2B89 PUSH1 0x40 DUP4 ADD DUP9 PUSH2 0x26A5 JUMP JUMPDEST PUSH2 0x2B96 PUSH1 0x60 DUP4 ADD DUP8 PUSH2 0x26A5 JUMP JUMPDEST PUSH2 0x2BA3 PUSH1 0x80 DUP4 ADD DUP7 PUSH2 0x26A5 JUMP JUMPDEST PUSH2 0x2BB0 PUSH1 0xA0 DUP4 ADD DUP6 PUSH2 0x28DD JUMP JUMPDEST PUSH2 0x2BBD PUSH1 0xC0 DUP4 ADD DUP5 PUSH2 0x2758 JUMP JUMPDEST SWAP9 SWAP8 POP POP POP POP POP POP POP POP JUMP JUMPDEST PUSH0 PUSH1 0x20 DUP3 ADD SWAP1 POP PUSH2 0x2BDC PUSH0 DUP4 ADD DUP5 PUSH2 0x28DD JUMP JUMPDEST SWAP3 SWAP2 POP POP JUMP JUMPDEST PUSH2 0x2BEB DUP2 PUSH2 0x274D JUMP JUMPDEST DUP2 EQ PUSH2 0x2BF5 JUMPI PUSH0 PUSH0 REVERT JUMPDEST POP JUMP JUMPDEST PUSH0 DUP2 CALLDATALOAD SWAP1 POP PUSH2 0x2C06 DUP2 PUSH2 0x2BE2 JUMP JUMPDEST SWAP3 SWAP2 POP POP JUMP JUMPDEST PUSH0 PUSH0 PUSH1 0x40 DUP4 DUP6 SUB SLT ISZERO PUSH2 0x2C22 JUMPI PUSH2 0x2C21 PUSH2 0x25D2 JUMP JUMPDEST JUMPDEST PUSH0 PUSH2 0x2C2F DUP6 DUP3 DUP7 ADD PUSH2 0x2620 JUMP JUMPDEST SWAP3 POP POP PUSH1 0x20 PUSH2 0x2C40 DUP6 DUP3 DUP7 ADD PUSH2 0x2BF8 JUMP JUMPDEST SWAP2 POP POP SWAP3 POP SWAP3 SWAP1 POP JUMP JUMPDEST PUSH0 PUSH0 PUSH0 PUSH1 0x60 DUP5 DUP7 SUB SLT ISZERO PUSH2 0x2C61 JUMPI PUSH2 0x2C60 PUSH2 0x25D2 JUMP JUMPDEST JUMPDEST PUSH0 PUSH2 0x2C6E DUP7 DUP3 DUP8 ADD PUSH2 0x2653 JUMP JUMPDEST SWAP4 POP POP PUSH1 0x20 PUSH2 0x2C7F DUP7 DUP3 DUP8 ADD PUSH2 0x2653 JUMP JUMPDEST SWAP3 POP POP PUSH1 0x40 PUSH2 0x2C90 DUP7 DUP3 DUP8 ADD PUSH2 0x2653 JUMP JUMPDEST SWAP2 POP POP SWAP3 POP SWAP3 POP SWAP3 JUMP JUMPDEST PUSH0 PUSH0 PUSH1 0x40 DUP4 DUP6 SUB SLT ISZERO PUSH2 0x2CB0 JUMPI PUSH2 0x2CAF PUSH2 0x25D2 JUMP JUMPDEST JUMPDEST PUSH0 PUSH2 0x2CBD DUP6 DUP3 DUP7 ADD PUSH2 0x2620 JUMP JUMPDEST SWAP3 POP POP PUSH1 0x20 PUSH2 0x2CCE DUP6 DUP3 DUP7 ADD PUSH2 0x2620 JUMP JUMPDEST SWAP2 POP POP SWAP3 POP SWAP3 SWAP1 POP JUMP JUMPDEST PUSH0 PUSH0 PUSH0 PUSH0 PUSH0 PUSH0 PUSH1 0x80 DUP8 DUP10 SUB SLT ISZERO PUSH2 0x2CF2 JUMPI PUSH2 0x2CF1 PUSH2 0x25D2 JUMP JUMPDEST JUMPDEST PUSH0 PUSH2 0x2CFF DUP10 DUP3 DUP11 ADD PUSH2 0x2620 JUMP JUMPDEST SWAP7 POP POP PUSH1 0x20 PUSH2 0x2D10 DUP10 DUP3 DUP11 ADD PUSH2 0x2620 JUMP JUMPDEST SWAP6 POP POP PUSH1 0x40 DUP8 ADD CALLDATALOAD PUSH8 0xFFFFFFFFFFFFFFFF DUP2 GT ISZERO PUSH2 0x2D31 JUMPI PUSH2 0x2D30 PUSH2 0x25D6 JUMP JUMPDEST JUMPDEST PUSH2 0x2D3D DUP10 DUP3 DUP11 ADD PUSH2 0x29B2 JUMP JUMPDEST SWAP5 POP SWAP5 POP POP PUSH1 0x60 DUP8 ADD CALLDATALOAD PUSH8 0xFFFFFFFFFFFFFFFF DUP2 GT ISZERO PUSH2 0x2D60 JUMPI PUSH2 0x2D5F PUSH2 0x25D6 JUMP JUMPDEST JUMPDEST PUSH2 0x2D6C DUP10 DUP3 DUP11 ADD PUSH2 0x29B2 JUMP JUMPDEST SWAP3 POP SWAP3 POP POP SWAP3 SWAP6 POP SWAP3 SWAP6 POP SWAP3 SWAP6 JUMP JUMPDEST PUSH0 PUSH0 REVERT JUMPDEST PUSH32 0x4E487B7100000000000000000000000000000000000000000000000000000000 PUSH0 MSTORE PUSH1 0x41 PUSH1 0x4 MSTORE PUSH1 0x24 PUSH0 REVERT JUMPDEST PUSH2 0x2DB5 DUP3 PUSH2 0x27D3 JUMP JUMPDEST DUP2 ADD DUP2 DUP2 LT PUSH8 0xFFFFFFFFFFFFFFFF DUP3 GT OR ISZERO PUSH2 0x2DD4 JUMPI PUSH2 0x2DD3 PUSH2 0x2D7F JUMP JUMPDEST JUMPDEST DUP1 PUSH1 0x40 MSTORE POP POP POP JUMP JUMPDEST PUSH0 PUSH2 0x2DE6 PUSH2 0x25C9 JUMP JUMPDEST SWAP1 POP PUSH2 0x2DF2 DUP3 DUP3 PUSH2 0x2DAC JUMP JUMPDEST SWAP2 SWAP1 POP JUMP JUMPDEST PUSH0 PUSH8 0xFFFFFFFFFFFFFFFF DUP3 GT ISZERO PUSH2 0x2E11 JUMPI PUSH2 0x2E10 PUSH2 0x2D7F JUMP JUMPDEST JUMPDEST PUSH2 0x2E1A DUP3 PUSH2 0x27D3 JUMP JUMPDEST SWAP1 POP PUSH1 0x20 DUP2 ADD SWAP1 POP SWAP2 SWAP1 POP JUMP JUMPDEST DUP3 DUP2 DUP4 CALLDATACOPY PUSH0 DUP4 DUP4 ADD MSTORE POP POP POP JUMP JUMPDEST PUSH0 PUSH2 0x2E47 PUSH2 0x2E42 DUP5 PUSH2 0x2DF7 JUMP JUMPDEST PUSH2 0x2DDD JUMP JUMPDEST SWAP1 POP DUP3 DUP2 MSTORE PUSH1 0x20 DUP2 ADD DUP5 DUP5 DUP5 ADD GT ISZERO PUSH2 0x2E63 JUMPI PUSH2 0x2E62 PUSH2 0x2D7B JUMP JUMPDEST JUMPDEST PUSH2 0x2E6E DUP5 DUP3 DUP6 PUSH2 0x2E27 JUMP JUMPDEST POP SWAP4 SWAP3 POP POP POP JUMP JUMPDEST PUSH0 DUP3 PUSH1 0x1F DUP4 ADD SLT PUSH2 0x2E8A JUMPI PUSH2 0x2E89 PUSH2 0x2951 JUMP JUMPDEST JUMPDEST DUP2 CALLDATALOAD PUSH2 0x2E9A DUP5 DUP3 PUSH1 0x20 DUP7 ADD PUSH2 0x2E35 JUMP JUMPDEST SWAP2 POP POP SWAP3 SWAP2 POP POP JUMP JUMPDEST PUSH0 PUSH12 0xFFFFFFFFFFFFFFFFFFFFFFFF DUP3 AND SWAP1 POP SWAP2 SWAP1 POP JUMP JUMPDEST PUSH2 0x2EC3 DUP2 PUSH2 0x2EA3 JUMP JUMPDEST DUP2 EQ PUSH2 0x2ECD JUMPI PUSH0 PUSH0 REVERT JUMPDEST POP JUMP JUMPDEST PUSH0 DUP2 CALLDATALOAD SWAP1 POP PUSH2 0x2EDE DUP2 PUSH2 0x2EBA JUMP JUMPDEST SWAP3 SWAP2 POP POP JUMP JUMPDEST PUSH0 PUSH0 PUSH0 PUSH0 PUSH0 PUSH0 PUSH1 0xC0 DUP8 DUP10 SUB SLT ISZERO PUSH2 0x2EFE JUMPI PUSH2 0x2EFD PUSH2 0x25D2 JUMP JUMPDEST JUMPDEST PUSH0 PUSH2 0x2F0B DUP10 DUP3 DUP11 ADD PUSH2 0x2620 JUMP JUMPDEST SWAP7 POP POP PUSH1 0x20 PUSH2 0x2F1C DUP10 DUP3 DUP11 ADD PUSH2 0x2653 JUMP JUMPDEST SWAP6 POP POP PUSH1 0x40 PUSH2 0x2F2D DUP10 DUP3 DUP11 ADD PUSH2 0x2653 JUMP JUMPDEST SWAP5 POP POP PUSH1 0x60 DUP8 ADD CALLDATALOAD PUSH8 0xFFFFFFFFFFFFFFFF DUP2 GT ISZERO PUSH2 0x2F4E JUMPI PUSH2 0x2F4D PUSH2 0x25D6 JUMP JUMPDEST JUMPDEST PUSH2 0x2F5A DUP10 DUP3 DUP11 ADD PUSH2 0x2E76 JUMP JUMPDEST SWAP4 POP POP PUSH1 0x80 PUSH2 0x2F6B DUP10 DUP3 DUP11 ADD PUSH2 0x2620 JUMP JUMPDEST SWAP3 POP POP PUSH1 0xA0 PUSH2 0x2F7C DUP10 DUP3 DUP11 ADD PUSH2 0x2ED0 JUMP JUMPDEST SWAP2 POP POP SWAP3 SWAP6 POP SWAP3 SWAP6 POP SWAP3 SWAP6 JUMP JUMPDEST PUSH32 0x5A65726F20616464726573730000000000000000000000000000000000000000 PUSH0 DUP3 ADD MSTORE POP JUMP JUMPDEST PUSH0 PUSH2 0x2FBD PUSH1 0xC DUP4 PUSH2 0x27B5 JUMP JUMPDEST SWAP2 POP PUSH2 0x2FC8 DUP3 PUSH2 0x2F89 JUMP JUMPDEST PUSH1 0x20 DUP3 ADD SWAP1 POP SWAP2 SWAP1 POP JUMP JUMPDEST PUSH0 PUSH1 0x20 DUP3 ADD SWAP1 POP DUP2 DUP2 SUB PUSH0 DUP4 ADD MSTORE PUSH2 0x2FEA DUP2 PUSH2 0x2FB1 JUMP JUMPDEST SWAP1 POP SWAP2 SWAP1 POP JUMP JUMPDEST PUSH32 0x4E487B7100000000000000000000000000000000000000000000000000000000 PUSH0 MSTORE PUSH1 0x22 PUSH1 0x4 MSTORE PUSH1 0x24 PUSH0 REVERT JUMPDEST PUSH0 PUSH1 0x2 DUP3 DIV SWAP1 POP PUSH1 0x1 DUP3 AND DUP1 PUSH2 0x3035 JUMPI PUSH1 0x7F DUP3 AND SWAP2 POP JUMPDEST PUSH1 0x20 DUP3 LT DUP2 SUB PUSH2 0x3048 JUMPI PUSH2 0x3047 PUSH2 0x2FF1 JUMP JUMPDEST JUMPDEST POP SWAP2 SWAP1 POP JUMP JUMPDEST PUSH32 0x5061757365640000000000000000000000000000000000000000000000000000 PUSH0 DUP3 ADD MSTORE POP JUMP JUMPDEST PUSH0 PUSH2 0x3082 PUSH1 0x6 DUP4 PUSH2 0x27B5 JUMP JUMPDEST SWAP2 POP PUSH2 0x308D DUP3 PUSH2 0x304E JUMP JUMPDEST PUSH1 0x20 DUP3 ADD SWAP1 POP SWAP2 SWAP1 POP JUMP JUMPDEST PUSH0 PUSH1 0x20 DUP3 ADD SWAP1 POP DUP2 DUP2 SUB PUSH0 DUP4 ADD MSTORE PUSH2 0x30AF DUP2 PUSH2 0x3076 JUMP JUMPDEST SWAP1 POP SWAP2 SWAP1 POP JUMP JUMPDEST PUSH32 0x4E6F7468696E6720746F20726566756E64000000000000000000000000000000 PUSH0 DUP3 ADD MSTORE POP JUMP JUMPDEST PUSH0 PUSH2 0x30EA PUSH1 0x11 DUP4 PUSH2 0x27B5 JUMP JUMPDEST SWAP2 POP PUSH2 0x30F5 DUP3 PUSH2 0x30B6 JUMP JUMPDEST PUSH1 0x20 DUP3 ADD SWAP1 POP SWAP2 SWAP1 POP JUMP JUMPDEST PUSH0 PUSH1 0x20 DUP3 ADD SWAP1 POP DUP2 DUP2 SUB PUSH0 DUP4 ADD MSTORE PUSH2 0x3117 DUP2 PUSH2 0x30DE JUMP JUMPDEST SWAP1 POP SWAP2 SWAP1 POP JUMP JUMPDEST PUSH32 0x4E6F7420617070726F7665640000000000000000000000000000000000000000 PUSH0 DUP3 ADD MSTORE POP JUMP JUMPDEST PUSH0 PUSH2 0x3152 PUSH1 0xC DUP4 PUSH2 0x27B5 JUMP JUMPDEST SWAP2 POP PUSH2 0x315D DUP3 PUSH2 0x311E JUMP JUMPDEST PUSH1 0x20 DUP3 ADD SWAP1 POP SWAP2 SWAP1 POP JUMP JUMPDEST PUSH0 PUSH1 0x20 DUP3 ADD SWAP1 POP DUP2 DUP2 SUB PUSH0 DUP4 ADD MSTORE PUSH2 0x317F DUP2 PUSH2 0x3146 JUMP JUMPDEST SWAP1 POP SWAP2 SWAP1 POP JUMP JUMPDEST PUSH32 0x496E73756666696369656E740000000000000000000000000000000000000000 PUSH0 DUP3 ADD MSTORE POP JUMP JUMPDEST PUSH0 PUSH2 0x31BA PUSH1 0xC DUP4 PUSH2 0x27B5 JUMP JUMPDEST SWAP2 POP PUSH2 0x31C5 DUP3 PUSH2 0x3186 JUMP JUMPDEST PUSH1 0x20 DUP3 ADD SWAP1 POP SWAP2 SWAP1 POP JUMP JUMPDEST PUSH0 PUSH1 0x20 DUP3 ADD SWAP1 POP DUP2 DUP2 SUB PUSH0 DUP4 ADD MSTORE PUSH2 0x31E7 DUP2 PUSH2 0x31AE JUMP JUMPDEST SWAP1 POP SWAP2 SWAP1 POP JUMP JUMPDEST PUSH32 0x4E487B7100000000000000000000000000000000000000000000000000000000 PUSH0 MSTORE PUSH1 0x11 PUSH1 0x4 MSTORE PUSH1 0x24 PUSH0 REVERT JUMPDEST PUSH0 PUSH2 0x3225 DUP3 PUSH2 0x2634 JUMP JUMPDEST SWAP2 POP PUSH2 0x3230 DUP4 PUSH2 0x2634 JUMP JUMPDEST SWAP3 POP DUP3 DUP3 SUB SWAP1 POP DUP2 DUP2 GT ISZERO PUSH2 0x3248 JUMPI PUSH2 0x3247 PUSH2 0x31EE JUMP JUMPDEST JUMPDEST SWAP3 SWAP2 POP POP JUMP JUMPDEST PUSH0 PUSH2 0x3258 DUP3 PUSH2 0x2634 JUMP JUMPDEST SWAP2 POP PUSH2 0x3263 DUP4 PUSH2 0x2634 JUMP JUMPDEST SWAP3 POP DUP3 DUP3 ADD SWAP1 POP DUP1 DUP3 GT ISZERO PUSH2 0x327B JUMPI PUSH2 0x327A PUSH2 0x31EE JUMP JUMPDEST JUMPDEST SWAP3 SWAP2 POP POP JUMP JUMPDEST PUSH0 PUSH1 0x40 DUP3 ADD SWAP1 POP PUSH2 0x3294 PUSH0 DUP4 ADD DUP6 PUSH2 0x26A5 JUMP JUMPDEST PUSH2 0x32A1 PUSH1 0x20 DUP4 ADD DUP5 PUSH2 0x26A5 JUMP JUMPDEST SWAP4 SWAP3 POP POP POP JUMP JUMPDEST PUSH0 PUSH2 0x32B2 DUP3 PUSH2 0x2634 JUMP JUMPDEST SWAP2 POP PUSH2 0x32BD DUP4 PUSH2 0x2634 JUMP JUMPDEST SWAP3 POP DUP3 DUP3 MUL PUSH2 0x32CB DUP2 PUSH2 0x2634 JUMP JUMPDEST SWAP2 POP DUP3 DUP3 DIV DUP5 EQ DUP4 ISZERO OR PUSH2 0x32E2 JUMPI PUSH2 0x32E1 PUSH2 0x31EE JUMP JUMPDEST JUMPDEST POP SWAP3 SWAP2 POP POP JUMP JUMPDEST PUSH32 0x4E487B7100000000000000000000000000000000000000000000000000000000 PUSH0 MSTORE PUSH1 0x12 PUSH1 0x4 MSTORE PUSH1 0x24 PUSH0 REVERT JUMPDEST PUSH0 PUSH2 0x3320 DUP3 PUSH2 0x2634 JUMP JUMPDEST SWAP2 POP PUSH2 0x332B DUP4 PUSH2 0x2634 JUMP JUMPDEST SWAP3 POP DUP3 PUSH2 0x333B JUMPI PUSH2 0x333A PUSH2 0x32E9 JUMP JUMPDEST JUMPDEST DUP3 DUP3 DIV SWAP1 POP SWAP3 SWAP2 POP POP JUMP JUMPDEST PUSH32 0x4E6F74206F776E65720000000000000000000000000000000000000000000000 PUSH0 DUP3 ADD MSTORE POP JUMP JUMPDEST PUSH0 PUSH2 0x337A PUSH1 0x9 DUP4 PUSH2 0x27B5 JUMP JUMPDEST SWAP2 POP PUSH2 0x3385 DUP3 PUSH2 0x3346 JUMP JUMPDEST PUSH1 0x20 DUP3 ADD SWAP1 POP SWAP2 SWAP1 POP JUMP JUMPDEST PUSH0 PUSH1 0x20 DUP3 ADD SWAP1 POP DUP2 DUP2 SUB PUSH0 DUP4 ADD MSTORE PUSH2 0x33A7 DUP2 PUSH2 0x336E JUMP JUMPDEST SWAP1 POP SWAP2 SWAP1 POP JUMP JUMPDEST PUSH32 0x456E646564000000000000000000000000000000000000000000000000000000 PUSH0 DUP3 ADD MSTORE POP JUMP JUMPDEST PUSH0 PUSH2 0x33E2 PUSH1 0x5 DUP4 PUSH2 0x27B5 JUMP JUMPDEST SWAP2 POP PUSH2 0x33ED DUP3 PUSH2 0x33AE JUMP JUMPDEST PUSH1 0x20 DUP3 ADD SWAP1 POP SWAP2 SWAP1 POP JUMP JUMPDEST PUSH0 PUSH1 0x20 DUP3 ADD SWAP1 POP DUP2 DUP2 SUB PUSH0 DUP4 ADD MSTORE PUSH2 0x340F DUP2 PUSH2 0x33D6 JUMP JUMPDEST SWAP1 POP SWAP2 SWAP1 POP JUMP JUMPDEST PUSH32 0x4C6F772062696400000000000000000000000000000000000000000000000000 PUSH0 DUP3 ADD MSTORE POP JUMP JUMPDEST PUSH0 PUSH2 0x344A PUSH1 0x7 DUP4 PUSH2 0x27B5 JUMP JUMPDEST SWAP2 POP PUSH2 0x3455 DUP3 PUSH2 0x3416 JUMP JUMPDEST PUSH1 0x20 DUP3 ADD SWAP1 POP SWAP2 SWAP1 POP JUMP JUMPDEST PUSH0 PUSH1 0x20 DUP3 ADD SWAP1 POP DUP2 DUP2 SUB PUSH0 DUP4 ADD MSTORE PUSH2 0x3477 DUP2 PUSH2 0x343E JUMP JUMPDEST SWAP1 POP SWAP2 SWAP1 POP JUMP JUMPDEST PUSH32 0x4D69736D61746368656400000000000000000000000000000000000000000000 PUSH0 DUP3 ADD MSTORE POP JUMP JUMPDEST PUSH0 PUSH2 0x34B2 PUSH1 0xA DUP4 PUSH2 0x27B5 JUMP JUMPDEST SWAP2 POP PUSH2 0x34BD DUP3 PUSH2 0x347E JUMP JUMPDEST PUSH1 0x20 DUP3 ADD SWAP1 POP SWAP2 SWAP1 POP JUMP JUMPDEST PUSH0 PUSH1 0x20 DUP3 ADD SWAP1 POP DUP2 DUP2 SUB PUSH0 DUP4 ADD MSTORE PUSH2 0x34DF DUP2 PUSH2 0x34A6 JUMP JUMPDEST SWAP1 POP SWAP2 SWAP1 POP JUMP JUMPDEST PUSH32 0x4E487B7100000000000000000000000000000000000000000000000000000000 PUSH0 MSTORE PUSH1 0x32 PUSH1 0x4 MSTORE PUSH1 0x24 PUSH0 REVERT JUMPDEST PUSH0 PUSH1 0x20 DUP3 DUP5 SUB SLT ISZERO PUSH2 0x3528 JUMPI PUSH2 0x3527 PUSH2 0x25D2 JUMP JUMPDEST JUMPDEST PUSH0 PUSH2 0x3535 DUP5 DUP3 DUP6 ADD PUSH2 0x2620 JUMP JUMPDEST SWAP2 POP POP SWAP3 SWAP2 POP POP JUMP JUMPDEST PUSH32 0x4E6F742079657400000000000000000000000000000000000000000000000000 PUSH0 DUP3 ADD MSTORE POP JUMP JUMPDEST PUSH0 PUSH2 0x3572 PUSH1 0x7 DUP4 PUSH2 0x27B5 JUMP JUMPDEST SWAP2 POP PUSH2 0x357D DUP3 PUSH2 0x353E JUMP JUMPDEST PUSH1 0x20 DUP3 ADD SWAP1 POP SWAP2 SWAP1 POP JUMP JUMPDEST PUSH0 PUSH1 0x20 DUP3 ADD SWAP1 POP DUP2 DUP2 SUB PUSH0 DUP4 ADD MSTORE PUSH2 0x359F DUP2 PUSH2 0x3566 JUMP JUMPDEST SWAP1 POP SWAP2 SWAP1 POP JUMP JUMPDEST PUSH32 0x416C726561647920656E64656400000000000000000000000000000000000000 PUSH0 DUP3 ADD MSTORE POP JUMP JUMPDEST PUSH0 PUSH2 0x35DA PUSH1 0xD DUP4 PUSH2 0x27B5 JUMP JUMPDEST SWAP2 POP PUSH2 0x35E5 DUP3 PUSH2 0x35A6 JUMP JUMPDEST PUSH1 0x20 DUP3 ADD SWAP1 POP SWAP2 SWAP1 POP JUMP JUMPDEST PUSH0 PUSH1 0x20 DUP3 ADD SWAP1 POP DUP2 DUP2 SUB PUSH0 DUP4 ADD MSTORE PUSH2 0x3607 DUP2 PUSH2 0x35CE JUMP JUMPDEST SWAP1 POP SWAP2 SWAP1 POP JUMP JUMPDEST PUSH32 0x546F6F2073686F72740000000000000000000000000000000000000000000000 PUSH0 DUP3 ADD MSTORE POP JUMP JUMPDEST PUSH0 PUSH2 0x3642 PUSH1 0x9 DUP4 PUSH2 0x27B5 JUMP JUMPDEST SWAP2 POP PUSH2 0x364D DUP3 PUSH2 0x360E JUMP JUMPDEST PUSH1 0x20 DUP3 ADD SWAP1 POP SWAP2 SWAP1 POP JUMP JUMPDEST PUSH0 PUSH1 0x20 DUP3 ADD SWAP1 POP DUP2 DUP2 SUB PUSH0 DUP4 ADD MSTORE PUSH2 0x366F DUP2 PUSH2 0x3636 JUMP JUMPDEST SWAP1 POP SWAP2 SWAP1 POP JUMP JUMPDEST PUSH0 PUSH2 0x3680 DUP3 PUSH2 0x2634 JUMP JUMPDEST SWAP2 POP PUSH32 0xFFFFFFFFFFFFFFFFFFFFFFFFFFFFFFFFFFFFFFFFFFFFFFFFFFFFFFFFFFFFFFFF DUP3 SUB PUSH2 0x36B2 JUMPI PUSH2 0x36B1 PUSH2 0x31EE JUMP JUMPDEST JUMPDEST PUSH1 0x1 DUP3 ADD SWAP1 POP SWAP2 SWAP1 POP JUMP JUMPDEST PUSH0 PUSH0 REVERT JUMPDEST DUP3 DUP2 DUP4 CALLDATACOPY POP POP POP JUMP JUMPDEST PUSH0 PUSH2 0x36D5 DUP4 DUP6 PUSH2 0x2A8F JUMP JUMPDEST SWAP4 POP PUSH32 0x7FFFFFFFFFFFFFFFFFFFFFFFFFFFFFFFFFFFFFFFFFFFFFFFFFFFFFFFFFFFFFF DUP4 GT ISZERO PUSH2 0x3708 JUMPI PUSH2 0x3707 PUSH2 0x36BD JUMP JUMPDEST JUMPDEST PUSH1 0x20 DUP4 MUL SWAP3 POP PUSH2 0x3719 DUP4 DUP6 DUP5 PUSH2 0x36C1 JUMP JUMPDEST DUP3 DUP5 ADD SWAP1 POP SWAP4 SWAP3 POP POP POP JUMP JUMPDEST PUSH0 PUSH1 0x40 DUP3 ADD SWAP1 POP DUP2 DUP2 SUB PUSH0 DUP4 ADD MSTORE PUSH2 0x373E DUP2 DUP7 DUP9 PUSH2 0x36CA JUMP JUMPDEST SWAP1 POP DUP2 DUP2 SUB PUSH1 0x20 DUP4 ADD MSTORE PUSH2 0x3753 DUP2 DUP5 DUP7 PUSH2 0x36CA JUMP JUMPDEST SWAP1 POP SWAP6 SWAP5 POP POP POP POP POP JUMP JUMPDEST PUSH32 0x546F6F2068696768000000000000000000000000000000000000000000000000 PUSH0 DUP3 ADD MSTORE POP JUMP JUMPDEST PUSH0 PUSH2 0x3792 PUSH1 0x8 DUP4 PUSH2 0x27B5 JUMP JUMPDEST SWAP2 POP PUSH2 0x379D DUP3 PUSH2 0x375E JUMP JUMPDEST PUSH1 0x20 DUP3 ADD SWAP1 POP SWAP2 SWAP1 POP JUMP JUMPDEST PUSH0 PUSH1 0x20 DUP3 ADD SWAP1 POP DUP2 DUP2 SUB PUSH0 DUP4 ADD MSTORE PUSH2 0x37BF DUP2 PUSH2 0x3786 JUMP JUMPDEST SWAP1 POP SWAP2 SWAP1 POP JUMP JUMPDEST PUSH0 DUP2 SWAP1 POP DUP2 PUSH0 MSTORE PUSH1 0x20 PUSH0 KECCAK256 SWAP1 POP SWAP2 SWAP1 POP JUMP JUMPDEST PUSH0 PUSH1 0x20 PUSH1 0x1F DUP4 ADD DIV SWAP1 POP SWAP2 SWAP1 POP JUMP JUMPDEST PUSH0 DUP3 DUP3 SHL SWAP1 POP SWAP3 SWAP2 POP POP JUMP JUMPDEST PUSH0 PUSH1 0x8 DUP4 MUL PUSH2 0x3822 PUSH32 0xFFFFFFFFFFFFFFFFFFFFFFFFFFFFFFFFFFFFFFFFFFFFFFFFFFFFFFFFFFFFFFFF DUP3 PUSH2 0x37E7 JUMP JUMPDEST PUSH2 0x382C DUP7 DUP4 PUSH2 0x37E7 JUMP JUMPDEST SWAP6 POP DUP1 NOT DUP5 AND SWAP4 POP DUP1 DUP7 AND DUP5 OR SWAP3 POP POP POP SWAP4 SWAP3 POP POP POP JUMP JUMPDEST PUSH0 DUP2 SWAP1 POP SWAP2 SWAP1 POP JUMP JUMPDEST PUSH0 PUSH2 0x3867 PUSH2 0x3862 PUSH2 0x385D DUP5 PUSH2 0x2634 JUMP JUMPDEST PUSH2 0x3844 JUMP JUMPDEST PUSH2 0x2634 JUMP JUMPDEST SWAP1 POP SWAP2 SWAP1 POP JUMP JUMPDEST PUSH0 DUP2 SWAP1 POP SWAP2 SWAP1 POP JUMP JUMPDEST PUSH2 0x3880 DUP4 PUSH2 0x384D JUMP JUMPDEST PUSH2 0x3894 PUSH2 0x388C DUP3 PUSH2 0x386E JUMP JUMPDEST DUP5 DUP5 SLOAD PUSH2 0x37F3 JUMP JUMPDEST DUP3 SSTORE POP POP POP POP JUMP JUMPDEST PUSH0 PUSH0 SWAP1 POP SWAP1 JUMP JUMPDEST PUSH2 0x38AB PUSH2 0x389C JUMP JUMPDEST PUSH2 0x38B6 DUP2 DUP5 DUP5 PUSH2 0x3877 JUMP JUMPDEST POP POP POP JUMP JUMPDEST JUMPDEST DUP2 DUP2 LT ISZERO PUSH2 0x38D9 JUMPI PUSH2 0x38CE PUSH0 DUP3 PUSH2 0x38A3 JUMP JUMPDEST PUSH1 0x1 DUP2 ADD SWAP1 POP PUSH2 0x38BC JUMP JUMPDEST POP POP JUMP JUMPDEST PUSH1 0x1F DUP3 GT ISZERO PUSH2 0x391E JUMPI PUSH2 0x38EF DUP2 PUSH2 0x37C6 JUMP JUMPDEST PUSH2 0x38F8 DUP5 PUSH2 0x37D8 JUMP JUMPDEST DUP2 ADD PUSH1 0x20 DUP6 LT ISZERO PUSH2 0x3907 JUMPI DUP2 SWAP1 POP JUMPDEST PUSH2 0x391B PUSH2 0x3913 DUP6 PUSH2 0x37D8 JUMP JUMPDEST DUP4 ADD DUP3 PUSH2 0x38BB JUMP JUMPDEST POP POP JUMPDEST POP POP POP JUMP JUMPDEST PUSH0 DUP3 DUP3 SHR SWAP1 POP SWAP3 SWAP2 POP POP JUMP JUMPDEST PUSH0 PUSH2 0x393E PUSH0 NOT DUP5 PUSH1 0x8 MUL PUSH2 0x3923 JUMP JUMPDEST NOT DUP1 DUP4 AND SWAP2 POP POP SWAP3 SWAP2 POP POP JUMP JUMPDEST PUSH0 PUSH2 0x3956 DUP4 DUP4 PUSH2 0x392F JUMP JUMPDEST SWAP2 POP DUP3 PUSH1 0x2 MUL DUP3 OR SWAP1 POP SWAP3 SWAP2 POP POP JUMP JUMPDEST PUSH2 0x396F DUP3 PUSH2 0x27AB JUMP JUMPDEST PUSH8 0xFFFFFFFFFFFFFFFF DUP2 GT ISZERO PUSH2 0x3988 JUMPI PUSH2 0x3987 PUSH2 0x2D7F JUMP JUMPDEST JUMPDEST PUSH2 0x3992 DUP3 SLOAD PUSH2 0x301E JUMP JUMPDEST PUSH2 0x399D DUP3 DUP3 DUP6 PUSH2 0x38DD JUMP JUMPDEST PUSH0 PUSH1 0x20 SWAP1 POP PUSH1 0x1F DUP4 GT PUSH1 0x1 DUP2 EQ PUSH2 0x39CE JUMPI PUSH0 DUP5 ISZERO PUSH2 0x39BC JUMPI DUP3 DUP8 ADD MLOAD SWAP1 POP JUMPDEST PUSH2 0x39C6 DUP6 DUP3 PUSH2 0x394B JUMP JUMPDEST DUP7 SSTORE POP PUSH2 0x3A2D JUMP JUMPDEST PUSH1 0x1F NOT DUP5 AND PUSH2 0x39DC DUP7 PUSH2 0x37C6 JUMP JUMPDEST PUSH0 JUMPDEST DUP3 DUP2 LT ISZERO PUSH2 0x3A03 JUMPI DUP5 DUP10 ADD MLOAD DUP3 SSTORE PUSH1 0x1 DUP3 ADD SWAP2 POP PUSH1 0x20 DUP6 ADD SWAP5 POP PUSH1 0x20 DUP2 ADD SWAP1 POP PUSH2 0x39DE JUMP JUMPDEST DUP7 DUP4 LT ISZERO PUSH2 0x3A20 JUMPI DUP5 DUP10 ADD MLOAD PUSH2 0x3A1C PUSH1 0x1F DUP10 AND DUP3 PUSH2 0x392F JUMP JUMPDEST DUP4 SSTORE POP JUMPDEST PUSH1 0x1 PUSH1 0x2 DUP9 MUL ADD DUP9 SSTORE POP POP POP JUMPDEST POP POP POP POP POP POP JUMP INVALID LOG2 PUSH5 0x6970667358 0x22 SLT KECCAK256 SHR 0xB5 0x27 0x21 PUSH5 0x9846981B1 CALLDATACOPY PUSH29 0x9829537D372D16CA71E3A3BDAE36C097678310FD64736F6C634300081E STOP CALLER "
				},
				"gasEstimates": {
					"creation": {
						"codeDepositCost": "2991000",
						"executionCost": "27549",
						"totalCost": "3018549"
					},
					"external": {
						"auctionCount()": "2470",
						"auctions(uint256)": "infinite",
						"balanceOf(address,uint256)": "infinite",
						"balanceOfBatch(address[],uint256[])": "infinite",
						"bid(uint256)": "infinite",
						"bids(uint256,address)": "infinite",
						"createAuction(uint256,uint256,uint256)": "infinite",
						"endAuction(uint256)": "infinite",
						"isApprovedForAll(address,address)": "infinite",
						"mint(address,uint256,uint256,string,address,uint96)": "infinite",
						"owner()": "2619",
						"pause()": "26718",
						"paused()": "2584",
						"royaltyInfo(uint256,uint256)": "infinite",
						"safeBatchTransferFrom(address,address,uint256[],uint256[])": "infinite",
						"safeTransferFrom(address,address,uint256,uint256)": "infinite",
						"setApprovalForAll(address,bool)": "infinite",
						"supportsInterface(bytes4)": "715",
						"unpause()": "26717",
						"uri(uint256)": "infinite",
						"withdrawBid(uint256)": "infinite"
					}
				},
				"methodIdentifiers": {
					"auctionCount()": "2ad71573",
					"auctions(uint256)": "571a26a0",
					"balanceOf(address,uint256)": "00fdd58e",
					"balanceOfBatch(address[],uint256[])": "4e1273f4",
					"bid(uint256)": "454a2ab3",
					"bids(uint256,address)": "3f1ffcec",
					"createAuction(uint256,uint256,uint256)": "cda4beef",
					"endAuction(uint256)": "b9a2de3a",
					"isApprovedForAll(address,address)": "e985e9c5",
					"mint(address,uint256,uint256,string,address,uint96)": "fd8bf596",
					"owner()": "8da5cb5b",
					"pause()": "8456cb59",
					"paused()": "5c975abb",
					"royaltyInfo(uint256,uint256)": "2a55205a",
					"safeBatchTransferFrom(address,address,uint256[],uint256[])": "fba0ee64",
					"safeTransferFrom(address,address,uint256,uint256)": "0febdd49",
					"setApprovalForAll(address,bool)": "a22cb465",
					"supportsInterface(bytes4)": "01ffc9a7",
					"unpause()": "3f4ba83a",
					"uri(uint256)": "0e89341c",
					"withdrawBid(uint256)": "0eaaf4c8"
				}
			},
			"storageLayout": {
				"storage": [
					{
						"astId": 8,
						"contract": "Contract_Conqueror_Series/AdvancedERC1155RoyaltyAuctionAccess.sol:AdvancedERC1155RoyaltyAuctionAccess",
						"label": "_balances",
						"offset": 0,
						"slot": "0",
						"type": "t_mapping(t_uint256,t_mapping(t_address,t_uint256))"
					},
					{
						"astId": 14,
						"contract": "Contract_Conqueror_Series/AdvancedERC1155RoyaltyAuctionAccess.sol:AdvancedERC1155RoyaltyAuctionAccess",
						"label": "_operatorApprovals",
						"offset": 0,
						"slot": "1",
						"type": "t_mapping(t_address,t_mapping(t_address,t_bool))"
					},
					{
						"astId": 18,
						"contract": "Contract_Conqueror_Series/AdvancedERC1155RoyaltyAuctionAccess.sol:AdvancedERC1155RoyaltyAuctionAccess",
						"label": "_uris",
						"offset": 0,
						"slot": "2",
						"type": "t_mapping(t_uint256,t_string_storage)"
					},
					{
						"astId": 28,
						"contract": "Contract_Conqueror_Series/AdvancedERC1155RoyaltyAuctionAccess.sol:AdvancedERC1155RoyaltyAuctionAccess",
						"label": "_royalties",
						"offset": 0,
						"slot": "3",
						"type": "t_mapping(t_uint256,t_struct(RoyaltyInfo)23_storage)"
					},
					{
						"astId": 45,
						"contract": "Contract_Conqueror_Series/AdvancedERC1155RoyaltyAuctionAccess.sol:AdvancedERC1155RoyaltyAuctionAccess",
						"label": "auctionCount",
						"offset": 0,
						"slot": "4",
						"type": "t_uint256"
					},
					{
						"astId": 50,
						"contract": "Contract_Conqueror_Series/AdvancedERC1155RoyaltyAuctionAccess.sol:AdvancedERC1155RoyaltyAuctionAccess",
						"label": "auctions",
						"offset": 0,
						"slot": "5",
						"type": "t_mapping(t_uint256,t_struct(Auction)43_storage)"
					},
					{
						"astId": 56,
						"contract": "Contract_Conqueror_Series/AdvancedERC1155RoyaltyAuctionAccess.sol:AdvancedERC1155RoyaltyAuctionAccess",
						"label": "bids",
						"offset": 0,
						"slot": "6",
						"type": "t_mapping(t_uint256,t_mapping(t_address,t_uint256))"
					},
					{
						"astId": 58,
						"contract": "Contract_Conqueror_Series/AdvancedERC1155RoyaltyAuctionAccess.sol:AdvancedERC1155RoyaltyAuctionAccess",
						"label": "owner",
						"offset": 0,
						"slot": "7",
						"type": "t_address"
					},
					{
						"astId": 60,
						"contract": "Contract_Conqueror_Series/AdvancedERC1155RoyaltyAuctionAccess.sol:AdvancedERC1155RoyaltyAuctionAccess",
						"label": "paused",
						"offset": 20,
						"slot": "7",
						"type": "t_bool"
					}
				],
				"types": {
					"t_address": {
						"encoding": "inplace",
						"label": "address",
						"numberOfBytes": "20"
					},
					"t_bool": {
						"encoding": "inplace",
						"label": "bool",
						"numberOfBytes": "1"
					},
					"t_mapping(t_address,t_bool)": {
						"encoding": "mapping",
						"key": "t_address",
						"label": "mapping(address => bool)",
						"numberOfBytes": "32",
						"value": "t_bool"
					},
					"t_mapping(t_address,t_mapping(t_address,t_bool))": {
						"encoding": "mapping",
						"key": "t_address",
						"label": "mapping(address => mapping(address => bool))",
						"numberOfBytes": "32",
						"value": "t_mapping(t_address,t_bool)"
					},
					"t_mapping(t_address,t_uint256)": {
						"encoding": "mapping",
						"key": "t_address",
						"label": "mapping(address => uint256)",
						"numberOfBytes": "32",
						"value": "t_uint256"
					},
					"t_mapping(t_uint256,t_mapping(t_address,t_uint256))": {
						"encoding": "mapping",
						"key": "t_uint256",
						"label": "mapping(uint256 => mapping(address => uint256))",
						"numberOfBytes": "32",
						"value": "t_mapping(t_address,t_uint256)"
					},
					"t_mapping(t_uint256,t_string_storage)": {
						"encoding": "mapping",
						"key": "t_uint256",
						"label": "mapping(uint256 => string)",
						"numberOfBytes": "32",
						"value": "t_string_storage"
					},
					"t_mapping(t_uint256,t_struct(Auction)43_storage)": {
						"encoding": "mapping",
						"key": "t_uint256",
						"label": "mapping(uint256 => struct AdvancedERC1155RoyaltyAuctionAccess.Auction)",
						"numberOfBytes": "32",
						"value": "t_struct(Auction)43_storage"
					},
					"t_mapping(t_uint256,t_struct(RoyaltyInfo)23_storage)": {
						"encoding": "mapping",
						"key": "t_uint256",
						"label": "mapping(uint256 => struct AdvancedERC1155RoyaltyAuctionAccess.RoyaltyInfo)",
						"numberOfBytes": "32",
						"value": "t_struct(RoyaltyInfo)23_storage"
					},
					"t_string_storage": {
						"encoding": "bytes",
						"label": "string",
						"numberOfBytes": "32"
					},
					"t_struct(Auction)43_storage": {
						"encoding": "inplace",
						"label": "struct AdvancedERC1155RoyaltyAuctionAccess.Auction",
						"members": [
							{
								"astId": 30,
								"contract": "Contract_Conqueror_Series/AdvancedERC1155RoyaltyAuctionAccess.sol:AdvancedERC1155RoyaltyAuctionAccess",
								"label": "seller",
								"offset": 0,
								"slot": "0",
								"type": "t_address"
							},
							{
								"astId": 32,
								"contract": "Contract_Conqueror_Series/AdvancedERC1155RoyaltyAuctionAccess.sol:AdvancedERC1155RoyaltyAuctionAccess",
								"label": "tokenId",
								"offset": 0,
								"slot": "1",
								"type": "t_uint256"
							},
							{
								"astId": 34,
								"contract": "Contract_Conqueror_Series/AdvancedERC1155RoyaltyAuctionAccess.sol:AdvancedERC1155RoyaltyAuctionAccess",
								"label": "amount",
								"offset": 0,
								"slot": "2",
								"type": "t_uint256"
							},
							{
								"astId": 36,
								"contract": "Contract_Conqueror_Series/AdvancedERC1155RoyaltyAuctionAccess.sol:AdvancedERC1155RoyaltyAuctionAccess",
								"label": "endTime",
								"offset": 0,
								"slot": "3",
								"type": "t_uint256"
							},
							{
								"astId": 38,
								"contract": "Contract_Conqueror_Series/AdvancedERC1155RoyaltyAuctionAccess.sol:AdvancedERC1155RoyaltyAuctionAccess",
								"label": "highestBid",
								"offset": 0,
								"slot": "4",
								"type": "t_uint256"
							},
							{
								"astId": 40,
								"contract": "Contract_Conqueror_Series/AdvancedERC1155RoyaltyAuctionAccess.sol:AdvancedERC1155RoyaltyAuctionAccess",
								"label": "highestBidder",
								"offset": 0,
								"slot": "5",
								"type": "t_address"
							},
							{
								"astId": 42,
								"contract": "Contract_Conqueror_Series/AdvancedERC1155RoyaltyAuctionAccess.sol:AdvancedERC1155RoyaltyAuctionAccess",
								"label": "ended",
								"offset": 20,
								"slot": "5",
								"type": "t_bool"
							}
						],
						"numberOfBytes": "192"
					},
					"t_struct(RoyaltyInfo)23_storage": {
						"encoding": "inplace",
						"label": "struct AdvancedERC1155RoyaltyAuctionAccess.RoyaltyInfo",
						"members": [
							{
								"astId": 20,
								"contract": "Contract_Conqueror_Series/AdvancedERC1155RoyaltyAuctionAccess.sol:AdvancedERC1155RoyaltyAuctionAccess",
								"label": "receiver",
								"offset": 0,
								"slot": "0",
								"type": "t_address"
							},
							{
								"astId": 22,
								"contract": "Contract_Conqueror_Series/AdvancedERC1155RoyaltyAuctionAccess.sol:AdvancedERC1155RoyaltyAuctionAccess",
								"label": "royaltyFraction",
								"offset": 20,
								"slot": "0",
								"type": "t_uint96"
							}
						],
						"numberOfBytes": "32"
					},
					"t_uint256": {
						"encoding": "inplace",
						"label": "uint256",
						"numberOfBytes": "32"
					},
					"t_uint96": {
						"encoding": "inplace",
						"label": "uint96",
						"numberOfBytes": "12"
					}
				}
			},
			"userdoc": {
				"kind": "user",
				"methods": {},
				"notice": "ERC1155 + Royalty + Auction + Access Control + Pausable (No OpenZeppelin)",
				"version": 1
			}
		}
	}
}