{
	"Contract_Conqueror_Series/ERC1155standards.sol": {
		"MyERC1155": {
			"abi": [
				{
					"anonymous": false,
					"inputs": [
						{
							"indexed": true,
							"internalType": "address",
							"name": "account",
							"type": "address"
						},
						{
							"indexed": true,
							"internalType": "address",
							"name": "operator",
							"type": "address"
						},
						{
							"indexed": false,
							"internalType": "bool",
							"name": "approved",
							"type": "bool"
						}
					],
					"name": "ApprovalForAll",
					"type": "event"
				},
				{
					"anonymous": false,
					"inputs": [
						{
							"indexed": true,
							"internalType": "address",
							"name": "operator",
							"type": "address"
						},
						{
							"indexed": true,
							"internalType": "address",
							"name": "from",
							"type": "address"
						},
						{
							"indexed": true,
							"internalType": "address",
							"name": "to",
							"type": "address"
						},
						{
							"indexed": false,
							"internalType": "uint256[]",
							"name": "ids",
							"type": "uint256[]"
						},
						{
							"indexed": false,
							"internalType": "uint256[]",
							"name": "values",
							"type": "uint256[]"
						}
					],
					"name": "TransferBatch",
					"type": "event"
				},
				{
					"anonymous": false,
					"inputs": [
						{
							"indexed": true,
							"internalType": "address",
							"name": "operator",
							"type": "address"
						},
						{
							"indexed": true,
							"internalType": "address",
							"name": "from",
							"type": "address"
						},
						{
							"indexed": true,
							"internalType": "address",
							"name": "to",
							"type": "address"
						},
						{
							"indexed": false,
							"internalType": "uint256",
							"name": "id",
							"type": "uint256"
						},
						{
							"indexed": false,
							"internalType": "uint256",
							"name": "value",
							"type": "uint256"
						}
					],
					"name": "TransferSingle",
					"type": "event"
				},
				{
					"anonymous": false,
					"inputs": [
						{
							"indexed": false,
							"internalType": "string",
							"name": "value",
							"type": "string"
						},
						{
							"indexed": true,
							"internalType": "uint256",
							"name": "id",
							"type": "uint256"
						}
					],
					"name": "URI",
					"type": "event"
				},
				{
					"inputs": [
						{
							"internalType": "address",
							"name": "account",
							"type": "address"
						},
						{
							"internalType": "uint256",
							"name": "id",
							"type": "uint256"
						}
					],
					"name": "balanceOf",
					"outputs": [
						{
							"internalType": "uint256",
							"name": "",
							"type": "uint256"
						}
					],
					"stateMutability": "view",
					"type": "function"
				},
				{
					"inputs": [
						{
							"internalType": "address[]",
							"name": "accounts",
							"type": "address[]"
						},
						{
							"internalType": "uint256[]",
							"name": "ids",
							"type": "uint256[]"
						}
					],
					"name": "balanceOfBatch",
					"outputs": [
						{
							"internalType": "uint256[]",
							"name": "",
							"type": "uint256[]"
						}
					],
					"stateMutability": "view",
					"type": "function"
				},
				{
					"inputs": [
						{
							"internalType": "address",
							"name": "account",
							"type": "address"
						},
						{
							"internalType": "address",
							"name": "operator",
							"type": "address"
						}
					],
					"name": "isApprovedForAll",
					"outputs": [
						{
							"internalType": "bool",
							"name": "",
							"type": "bool"
						}
					],
					"stateMutability": "view",
					"type": "function"
				},
				{
					"inputs": [
						{
							"internalType": "address",
							"name": "to",
							"type": "address"
						},
						{
							"internalType": "uint256",
							"name": "id",
							"type": "uint256"
						},
						{
							"internalType": "uint256",
							"name": "amount",
							"type": "uint256"
						},
						{
							"internalType": "string",
							"name": "uri_",
							"type": "string"
						}
					],
					"name": "mint",
					"outputs": [],
					"stateMutability": "nonpayable",
					"type": "function"
				},
				{
					"inputs": [
						{
							"internalType": "address",
							"name": "to",
							"type": "address"
						},
						{
							"internalType": "uint256[]",
							"name": "ids",
							"type": "uint256[]"
						},
						{
							"internalType": "uint256[]",
							"name": "amounts",
							"type": "uint256[]"
						},
						{
							"internalType": "string[]",
							"name": "uris_",
							"type": "string[]"
						}
					],
					"name": "mintBatch",
					"outputs": [],
					"stateMutability": "nonpayable",
					"type": "function"
				},
				{
					"inputs": [
						{
							"internalType": "address",
							"name": "from",
							"type": "address"
						},
						{
							"internalType": "address",
							"name": "to",
							"type": "address"
						},
						{
							"internalType": "uint256[]",
							"name": "ids",
							"type": "uint256[]"
						},
						{
							"internalType": "uint256[]",
							"name": "amounts",
							"type": "uint256[]"
						}
					],
					"name": "safeBatchTransferFrom",
					"outputs": [],
					"stateMutability": "nonpayable",
					"type": "function"
				},
				{
					"inputs": [
						{
							"internalType": "address",
							"name": "from",
							"type": "address"
						},
						{
							"internalType": "address",
							"name": "to",
							"type": "address"
						},
						{
							"internalType": "uint256",
							"name": "id",
							"type": "uint256"
						},
						{
							"internalType": "uint256",
							"name": "amount",
							"type": "uint256"
						}
					],
					"name": "safeTransferFrom",
					"outputs": [],
					"stateMutability": "nonpayable",
					"type": "function"
				},
				{
					"inputs": [
						{
							"internalType": "address",
							"name": "operator",
							"type": "address"
						},
						{
							"internalType": "bool",
							"name": "approved",
							"type": "bool"
						}
					],
					"name": "setApprovalForAll",
					"outputs": [],
					"stateMutability": "nonpayable",
					"type": "function"
				},
				{
					"inputs": [
						{
							"internalType": "bytes4",
							"name": "interfaceId",
							"type": "bytes4"
						}
					],
					"name": "supportsInterface",
					"outputs": [
						{
							"internalType": "bool",
							"name": "",
							"type": "bool"
						}
					],
					"stateMutability": "pure",
					"type": "function"
				},
				{
					"inputs": [
						{
							"internalType": "uint256",
							"name": "id",
							"type": "uint256"
						}
					],
					"name": "uri",
					"outputs": [
						{
							"internalType": "string",
							"name": "",
							"type": "string"
						}
					],
					"stateMutability": "view",
					"type": "function"
				}
			],
			"devdoc": {
				"kind": "dev",
				"methods": {
					"mint(address,uint256,uint256,string)": {
						"details": "Only contract owner should mint; for simplicity no access control"
					}
				},
				"title": "MyERC1155",
				"version": 1
			},
			"evm": {
				"assembly": "    /* \"Contract_Conqueror_Series/ERC1155standards.sol\":149:4454  contract MyERC1155 {... */\n  mstore(0x40, 0x80)\n  callvalue\n  dup1\n  iszero\n  tag_1\n  jumpi\n  revert(0x00, 0x00)\ntag_1:\n  pop\n  dataSize(sub_0)\n  dup1\n  dataOffset(sub_0)\n  0x00\n  codecopy\n  0x00\n  return\nstop\n\nsub_0: assembly {\n        /* \"Contract_Conqueror_Series/ERC1155standards.sol\":149:4454  contract MyERC1155 {... */\n      mstore(0x40, 0x80)\n      callvalue\n      dup1\n      iszero\n      tag_1\n      jumpi\n      revert(0x00, 0x00)\n    tag_1:\n      pop\n      jumpi(tag_2, lt(calldatasize, 0x04))\n      shr(0xe0, calldataload(0x00))\n      dup1\n      0xa22cb465\n      gt\n      tag_13\n      jumpi\n      dup1\n      0xa22cb465\n      eq\n      tag_8\n      jumpi\n      dup1\n      0xa55784ef\n      eq\n      tag_9\n      jumpi\n      dup1\n      0xbb7fde71\n      eq\n      tag_10\n      jumpi\n      dup1\n      0xe985e9c5\n      eq\n      tag_11\n      jumpi\n      dup1\n      0xfba0ee64\n      eq\n      tag_12\n      jumpi\n      jump(tag_2)\n    tag_13:\n      dup1\n      0xfdd58e\n      eq\n      tag_3\n      jumpi\n      dup1\n      0x01ffc9a7\n      eq\n      tag_4\n      jumpi\n      dup1\n      0x0e89341c\n      eq\n      tag_5\n      jumpi\n      dup1\n      0x0febdd49\n      eq\n      tag_6\n      jumpi\n      dup1\n      0x4e1273f4\n      eq\n      tag_7\n      jumpi\n    tag_2:\n      revert(0x00, 0x00)\n        /* \"Contract_Conqueror_Series/ERC1155standards.sol\":928:1112  function balanceOf(address account, uint256 id) public view returns (uint256) { ... */\n    tag_3:\n      tag_14\n      0x04\n      dup1\n      calldatasize\n      sub\n      dup2\n      add\n      swap1\n      tag_15\n      swap2\n      swap1\n      tag_16\n      jump\t// in\n    tag_15:\n      tag_17\n      jump\t// in\n    tag_14:\n      mload(0x40)\n      tag_18\n      swap2\n      swap1\n      tag_19\n      jump\t// in\n    tag_18:\n      mload(0x40)\n      dup1\n      swap2\n      sub\n      swap1\n      return\n        /* \"Contract_Conqueror_Series/ERC1155standards.sol\":4302:4451  function supportsInterface(bytes4 interfaceId) public pure returns (bool) {... */\n    tag_4:\n      tag_20\n      0x04\n      dup1\n      calldatasize\n      sub\n      dup2\n      add\n      swap1\n      tag_21\n      swap2\n      swap1\n      tag_22\n      jump\t// in\n    tag_21:\n      tag_23\n      jump\t// in\n    tag_20:\n      mload(0x40)\n      tag_24\n      swap2\n      swap1\n      tag_25\n      jump\t// in\n    tag_24:\n      mload(0x40)\n      dup1\n      swap2\n      sub\n      swap1\n      return\n        /* \"Contract_Conqueror_Series/ERC1155standards.sol\":4154:4250  function uri(uint256 id) public view returns (string memory) {... */\n    tag_5:\n      tag_26\n      0x04\n      dup1\n      calldatasize\n      sub\n      dup2\n      add\n      swap1\n      tag_27\n      swap2\n      swap1\n      tag_28\n      jump\t// in\n    tag_27:\n      tag_29\n      jump\t// in\n    tag_26:\n      mload(0x40)\n      tag_30\n      swap2\n      swap1\n      tag_31\n      jump\t// in\n    tag_30:\n      mload(0x40)\n      dup1\n      swap2\n      sub\n      swap1\n      return\n        /* \"Contract_Conqueror_Series/ERC1155standards.sol\":1931:2362  function safeTransferFrom(address from, address to, uint256 id, uint256 amount) external onlyApproved(from) {... */\n    tag_6:\n      tag_32\n      0x04\n      dup1\n      calldatasize\n      sub\n      dup2\n      add\n      swap1\n      tag_33\n      swap2\n      swap1\n      tag_34\n      jump\t// in\n    tag_33:\n      tag_35\n      jump\t// in\n    tag_32:\n      stop\n        /* \"Contract_Conqueror_Series/ERC1155standards.sol\":1120:1553  function balanceOfBatch(address[] calldata accounts, uint256[] calldata ids) external view returns (uint256[] memory) {... */\n    tag_7:\n      tag_36\n      0x04\n      dup1\n      calldatasize\n      sub\n      dup2\n      add\n      swap1\n      tag_37\n      swap2\n      swap1\n      tag_38\n      jump\t// in\n    tag_37:\n      tag_39\n      jump\t// in\n    tag_36:\n      mload(0x40)\n      tag_40\n      swap2\n      swap1\n      tag_41\n      jump\t// in\n    tag_40:\n      mload(0x40)\n      dup1\n      swap2\n      sub\n      swap1\n      return\n        /* \"Contract_Conqueror_Series/ERC1155standards.sol\":1561:1762  function setApprovalForAll(address operator, bool approved) external {... */\n    tag_8:\n      tag_42\n      0x04\n      dup1\n      calldatasize\n      sub\n      dup2\n      add\n      swap1\n      tag_43\n      swap2\n      swap1\n      tag_44\n      jump\t// in\n    tag_43:\n      tag_45\n      jump\t// in\n    tag_42:\n      stop\n        /* \"Contract_Conqueror_Series/ERC1155standards.sol\":3526:4146  function mintBatch(address to, uint256[] calldata ids, uint256[] calldata amounts, string[] calldata uris_) external {... */\n    tag_9:\n      tag_46\n      0x04\n      dup1\n      calldatasize\n      sub\n      dup2\n      add\n      swap1\n      tag_47\n      swap2\n      swap1\n      tag_48\n      jump\t// in\n    tag_47:\n      tag_49\n      jump\t// in\n    tag_46:\n      stop\n        /* \"Contract_Conqueror_Series/ERC1155standards.sol\":3143:3518  function mint(address to, uint256 id, uint256 amount, string memory uri_) external {... */\n    tag_10:\n      tag_50\n      0x04\n      dup1\n      calldatasize\n      sub\n      dup2\n      add\n      swap1\n      tag_51\n      swap2\n      swap1\n      tag_52\n      jump\t// in\n    tag_51:\n      tag_53\n      jump\t// in\n    tag_50:\n      stop\n        /* \"Contract_Conqueror_Series/ERC1155standards.sol\":1770:1923  function isApprovedForAll(address account, address operator) external view returns (bool) {... */\n    tag_11:\n      tag_54\n      0x04\n      dup1\n      calldatasize\n      sub\n      dup2\n      add\n      swap1\n      tag_55\n      swap2\n      swap1\n      tag_56\n      jump\t// in\n    tag_55:\n      tag_57\n      jump\t// in\n    tag_54:\n      mload(0x40)\n      tag_58\n      swap2\n      swap1\n      tag_25\n      jump\t// in\n    tag_58:\n      mload(0x40)\n      dup1\n      swap2\n      sub\n      swap1\n      return\n        /* \"Contract_Conqueror_Series/ERC1155standards.sol\":2370:3055  function safeBatchTransferFrom(address from, address to, uint256[] calldata ids, uint256[] calldata amounts) external onlyApproved(from) {... */\n    tag_12:\n      tag_59\n      0x04\n      dup1\n      calldatasize\n      sub\n      dup2\n      add\n      swap1\n      tag_60\n      swap2\n      swap1\n      tag_61\n      jump\t// in\n    tag_60:\n      tag_62\n      jump\t// in\n    tag_59:\n      stop\n        /* \"Contract_Conqueror_Series/ERC1155standards.sol\":928:1112  function balanceOf(address account, uint256 id) public view returns (uint256) { ... */\n    tag_17:\n        /* \"Contract_Conqueror_Series/ERC1155standards.sol\":997:1004  uint256 */\n      0x00\n        /* \"Contract_Conqueror_Series/ERC1155standards.sol\":1045:1046  0 */\n      0x00\n        /* \"Contract_Conqueror_Series/ERC1155standards.sol\":1026:1047  account != address(0) */\n      0xffffffffffffffffffffffffffffffffffffffff\n      and\n        /* \"Contract_Conqueror_Series/ERC1155standards.sol\":1026:1033  account */\n      dup4\n        /* \"Contract_Conqueror_Series/ERC1155standards.sol\":1026:1047  account != address(0) */\n      0xffffffffffffffffffffffffffffffffffffffff\n      and\n      sub\n        /* \"Contract_Conqueror_Series/ERC1155standards.sol\":1018:1064  require(account != address(0), \"Zero address\") */\n      tag_64\n      jumpi\n      mload(0x40)\n      0x08c379a000000000000000000000000000000000000000000000000000000000\n      dup2\n      mstore\n      0x04\n      add\n      tag_65\n      swap1\n      tag_66\n      jump\t// in\n    tag_65:\n      mload(0x40)\n      dup1\n      swap2\n      sub\n      swap1\n      revert\n    tag_64:\n        /* \"Contract_Conqueror_Series/ERC1155standards.sol\":1082:1091  _balances */\n      0x00\n        /* \"Contract_Conqueror_Series/ERC1155standards.sol\":1082:1095  _balances[id] */\n      0x00\n        /* \"Contract_Conqueror_Series/ERC1155standards.sol\":1092:1094  id */\n      dup4\n        /* \"Contract_Conqueror_Series/ERC1155standards.sol\":1082:1095  _balances[id] */\n      dup2\n      mstore\n      0x20\n      add\n      swap1\n      dup2\n      mstore\n      0x20\n      add\n      0x00\n      keccak256\n        /* \"Contract_Conqueror_Series/ERC1155standards.sol\":1082:1104  _balances[id][account] */\n      0x00\n        /* \"Contract_Conqueror_Series/ERC1155standards.sol\":1096:1103  account */\n      dup5\n        /* \"Contract_Conqueror_Series/ERC1155standards.sol\":1082:1104  _balances[id][account] */\n      0xffffffffffffffffffffffffffffffffffffffff\n      and\n      0xffffffffffffffffffffffffffffffffffffffff\n      and\n      dup2\n      mstore\n      0x20\n      add\n      swap1\n      dup2\n      mstore\n      0x20\n      add\n      0x00\n      keccak256\n      sload\n        /* \"Contract_Conqueror_Series/ERC1155standards.sol\":1075:1104  return _balances[id][account] */\n      swap1\n      pop\n        /* \"Contract_Conqueror_Series/ERC1155standards.sol\":928:1112  function balanceOf(address account, uint256 id) public view returns (uint256) { ... */\n      swap3\n      swap2\n      pop\n      pop\n      jump\t// out\n        /* \"Contract_Conqueror_Series/ERC1155standards.sol\":4302:4451  function supportsInterface(bytes4 interfaceId) public pure returns (bool) {... */\n    tag_23:\n        /* \"Contract_Conqueror_Series/ERC1155standards.sol\":4370:4374  bool */\n      0x00\n        /* \"Contract_Conqueror_Series/ERC1155standards.sol\":4409:4419  0xd9b67a26 */\n      0xd9b67a26\n        /* \"Contract_Conqueror_Series/ERC1155standards.sol\":4394:4419  interfaceId == 0xd9b67a26 */\n      0xe0\n      shl\n        /* \"Contract_Conqueror_Series/ERC1155standards.sol\":4394:4405  interfaceId */\n      dup3\n        /* \"Contract_Conqueror_Series/ERC1155standards.sol\":4394:4419  interfaceId == 0xd9b67a26 */\n      not(0xffffffffffffffffffffffffffffffffffffffffffffffffffffffff)\n      and\n      eq\n        /* \"Contract_Conqueror_Series/ERC1155standards.sol\":4387:4419  return interfaceId == 0xd9b67a26 */\n      swap1\n      pop\n        /* \"Contract_Conqueror_Series/ERC1155standards.sol\":4302:4451  function supportsInterface(bytes4 interfaceId) public pure returns (bool) {... */\n      swap2\n      swap1\n      pop\n      jump\t// out\n        /* \"Contract_Conqueror_Series/ERC1155standards.sol\":4154:4250  function uri(uint256 id) public view returns (string memory) {... */\n    tag_29:\n        /* \"Contract_Conqueror_Series/ERC1155standards.sol\":4200:4213  string memory */\n      0x60\n        /* \"Contract_Conqueror_Series/ERC1155standards.sol\":4233:4238  _uris */\n      0x02\n        /* \"Contract_Conqueror_Series/ERC1155standards.sol\":4233:4242  _uris[id] */\n      0x00\n        /* \"Contract_Conqueror_Series/ERC1155standards.sol\":4239:4241  id */\n      dup4\n        /* \"Contract_Conqueror_Series/ERC1155standards.sol\":4233:4242  _uris[id] */\n      dup2\n      mstore\n      0x20\n      add\n      swap1\n      dup2\n      mstore\n      0x20\n      add\n      0x00\n      keccak256\n        /* \"Contract_Conqueror_Series/ERC1155standards.sol\":4226:4242  return _uris[id] */\n      dup1\n      sload\n      tag_69\n      swap1\n      tag_70\n      jump\t// in\n    tag_69:\n      dup1\n      0x1f\n      add\n      0x20\n      dup1\n      swap2\n      div\n      mul\n      0x20\n      add\n      mload(0x40)\n      swap1\n      dup2\n      add\n      0x40\n      mstore\n      dup1\n      swap3\n      swap2\n      swap1\n      dup2\n      dup2\n      mstore\n      0x20\n      add\n      dup3\n      dup1\n      sload\n      tag_71\n      swap1\n      tag_70\n      jump\t// in\n    tag_71:\n      dup1\n      iszero\n      tag_72\n      jumpi\n      dup1\n      0x1f\n      lt\n      tag_73\n      jumpi\n      0x0100\n      dup1\n      dup4\n      sload\n      div\n      mul\n      dup4\n      mstore\n      swap2\n      0x20\n      add\n      swap2\n      jump(tag_72)\n    tag_73:\n      dup3\n      add\n      swap2\n      swap1\n      0x00\n      mstore\n      keccak256(0x00, 0x20)\n      swap1\n    tag_74:\n      dup2\n      sload\n      dup2\n      mstore\n      swap1\n      0x01\n      add\n      swap1\n      0x20\n      add\n      dup1\n      dup4\n      gt\n      tag_74\n      jumpi\n      dup3\n      swap1\n      sub\n      0x1f\n      and\n      dup3\n      add\n      swap2\n    tag_72:\n      pop\n      pop\n      pop\n      pop\n      pop\n      swap1\n      pop\n        /* \"Contract_Conqueror_Series/ERC1155standards.sol\":4154:4250  function uri(uint256 id) public view returns (string memory) {... */\n      swap2\n      swap1\n      pop\n      jump\t// out\n        /* \"Contract_Conqueror_Series/ERC1155standards.sol\":1931:2362  function safeTransferFrom(address from, address to, uint256 id, uint256 amount) external onlyApproved(from) {... */\n    tag_35:\n        /* \"Contract_Conqueror_Series/ERC1155standards.sol\":2033:2037  from */\n      dup4\n        /* \"Contract_Conqueror_Series/ERC1155standards.sol\":831:841  msg.sender */\n      caller\n        /* \"Contract_Conqueror_Series/ERC1155standards.sol\":823:841  from == msg.sender */\n      0xffffffffffffffffffffffffffffffffffffffff\n      and\n        /* \"Contract_Conqueror_Series/ERC1155standards.sol\":823:827  from */\n      dup2\n        /* \"Contract_Conqueror_Series/ERC1155standards.sol\":823:841  from == msg.sender */\n      0xffffffffffffffffffffffffffffffffffffffff\n      and\n      eq\n        /* \"Contract_Conqueror_Series/ERC1155standards.sol\":823:881  from == msg.sender || _operatorApprovals[from][msg.sender] */\n      dup1\n      tag_76\n      jumpi\n      pop\n        /* \"Contract_Conqueror_Series/ERC1155standards.sol\":845:863  _operatorApprovals */\n      0x01\n        /* \"Contract_Conqueror_Series/ERC1155standards.sol\":845:869  _operatorApprovals[from] */\n      0x00\n        /* \"Contract_Conqueror_Series/ERC1155standards.sol\":864:868  from */\n      dup3\n        /* \"Contract_Conqueror_Series/ERC1155standards.sol\":845:869  _operatorApprovals[from] */\n      0xffffffffffffffffffffffffffffffffffffffff\n      and\n      0xffffffffffffffffffffffffffffffffffffffff\n      and\n      dup2\n      mstore\n      0x20\n      add\n      swap1\n      dup2\n      mstore\n      0x20\n      add\n      0x00\n      keccak256\n        /* \"Contract_Conqueror_Series/ERC1155standards.sol\":845:881  _operatorApprovals[from][msg.sender] */\n      0x00\n        /* \"Contract_Conqueror_Series/ERC1155standards.sol\":870:880  msg.sender */\n      caller\n        /* \"Contract_Conqueror_Series/ERC1155standards.sol\":845:881  _operatorApprovals[from][msg.sender] */\n      0xffffffffffffffffffffffffffffffffffffffff\n      and\n      0xffffffffffffffffffffffffffffffffffffffff\n      and\n      dup2\n      mstore\n      0x20\n      add\n      swap1\n      dup2\n      mstore\n      0x20\n      add\n      0x00\n      keccak256\n      0x00\n      swap1\n      sload\n      swap1\n      0x0100\n      exp\n      swap1\n      div\n      0xff\n      and\n        /* \"Contract_Conqueror_Series/ERC1155standards.sol\":823:881  from == msg.sender || _operatorApprovals[from][msg.sender] */\n    tag_76:\n        /* \"Contract_Conqueror_Series/ERC1155standards.sol\":815:900  require(from == msg.sender || _operatorApprovals[from][msg.sender], \"Not authorized\") */\n      tag_77\n      jumpi\n      mload(0x40)\n      0x08c379a000000000000000000000000000000000000000000000000000000000\n      dup2\n      mstore\n      0x04\n      add\n      tag_78\n      swap1\n      tag_79\n      jump\t// in\n    tag_78:\n      mload(0x40)\n      dup1\n      swap2\n      sub\n      swap1\n      revert\n    tag_77:\n        /* \"Contract_Conqueror_Series/ERC1155standards.sol\":2072:2073  0 */\n      0x00\n        /* \"Contract_Conqueror_Series/ERC1155standards.sol\":2058:2074  to != address(0) */\n      0xffffffffffffffffffffffffffffffffffffffff\n      and\n        /* \"Contract_Conqueror_Series/ERC1155standards.sol\":2058:2060  to */\n      dup5\n        /* \"Contract_Conqueror_Series/ERC1155standards.sol\":2058:2074  to != address(0) */\n      0xffffffffffffffffffffffffffffffffffffffff\n      and\n      sub\n        /* \"Contract_Conqueror_Series/ERC1155standards.sol\":2050:2091  require(to != address(0), \"Zero address\") */\n      tag_81\n      jumpi\n      mload(0x40)\n      0x08c379a000000000000000000000000000000000000000000000000000000000\n      dup2\n      mstore\n      0x04\n      add\n      tag_82\n      swap1\n      tag_66\n      jump\t// in\n    tag_82:\n      mload(0x40)\n      dup1\n      swap2\n      sub\n      swap1\n      revert\n    tag_81:\n        /* \"Contract_Conqueror_Series/ERC1155standards.sol\":2102:2121  uint256 fromBalance */\n      0x00\n        /* \"Contract_Conqueror_Series/ERC1155standards.sol\":2124:2133  _balances */\n      0x00\n        /* \"Contract_Conqueror_Series/ERC1155standards.sol\":2124:2137  _balances[id] */\n      0x00\n        /* \"Contract_Conqueror_Series/ERC1155standards.sol\":2134:2136  id */\n      dup6\n        /* \"Contract_Conqueror_Series/ERC1155standards.sol\":2124:2137  _balances[id] */\n      dup2\n      mstore\n      0x20\n      add\n      swap1\n      dup2\n      mstore\n      0x20\n      add\n      0x00\n      keccak256\n        /* \"Contract_Conqueror_Series/ERC1155standards.sol\":2124:2143  _balances[id][from] */\n      0x00\n        /* \"Contract_Conqueror_Series/ERC1155standards.sol\":2138:2142  from */\n      dup8\n        /* \"Contract_Conqueror_Series/ERC1155standards.sol\":2124:2143  _balances[id][from] */\n      0xffffffffffffffffffffffffffffffffffffffff\n      and\n      0xffffffffffffffffffffffffffffffffffffffff\n      and\n      dup2\n      mstore\n      0x20\n      add\n      swap1\n      dup2\n      mstore\n      0x20\n      add\n      0x00\n      keccak256\n      sload\n        /* \"Contract_Conqueror_Series/ERC1155standards.sol\":2102:2143  uint256 fromBalance = _balances[id][from] */\n      swap1\n      pop\n        /* \"Contract_Conqueror_Series/ERC1155standards.sol\":2177:2183  amount */\n      dup3\n        /* \"Contract_Conqueror_Series/ERC1155standards.sol\":2162:2173  fromBalance */\n      dup2\n        /* \"Contract_Conqueror_Series/ERC1155standards.sol\":2162:2183  fromBalance >= amount */\n      lt\n      iszero\n        /* \"Contract_Conqueror_Series/ERC1155standards.sol\":2154:2208  require(fromBalance >= amount, \"Insufficient balance\") */\n      tag_83\n      jumpi\n      mload(0x40)\n      0x08c379a000000000000000000000000000000000000000000000000000000000\n      dup2\n      mstore\n      0x04\n      add\n      tag_84\n      swap1\n      tag_85\n      jump\t// in\n    tag_84:\n      mload(0x40)\n      dup1\n      swap2\n      sub\n      swap1\n      revert\n    tag_83:\n        /* \"Contract_Conqueror_Series/ERC1155standards.sol\":2244:2250  amount */\n      dup3\n        /* \"Contract_Conqueror_Series/ERC1155standards.sol\":2221:2230  _balances */\n      0x00\n        /* \"Contract_Conqueror_Series/ERC1155standards.sol\":2221:2234  _balances[id] */\n      0x00\n        /* \"Contract_Conqueror_Series/ERC1155standards.sol\":2231:2233  id */\n      dup7\n        /* \"Contract_Conqueror_Series/ERC1155standards.sol\":2221:2234  _balances[id] */\n      dup2\n      mstore\n      0x20\n      add\n      swap1\n      dup2\n      mstore\n      0x20\n      add\n      0x00\n      keccak256\n        /* \"Contract_Conqueror_Series/ERC1155standards.sol\":2221:2240  _balances[id][from] */\n      0x00\n        /* \"Contract_Conqueror_Series/ERC1155standards.sol\":2235:2239  from */\n      dup9\n        /* \"Contract_Conqueror_Series/ERC1155standards.sol\":2221:2240  _balances[id][from] */\n      0xffffffffffffffffffffffffffffffffffffffff\n      and\n      0xffffffffffffffffffffffffffffffffffffffff\n      and\n      dup2\n      mstore\n      0x20\n      add\n      swap1\n      dup2\n      mstore\n      0x20\n      add\n      0x00\n      keccak256\n      0x00\n        /* \"Contract_Conqueror_Series/ERC1155standards.sol\":2221:2250  _balances[id][from] -= amount */\n      dup3\n      dup3\n      sload\n      tag_86\n      swap2\n      swap1\n      tag_87\n      jump\t// in\n    tag_86:\n      swap3\n      pop\n      pop\n      dup2\n      swap1\n      sstore\n      pop\n        /* \"Contract_Conqueror_Series/ERC1155standards.sol\":2282:2288  amount */\n      dup3\n        /* \"Contract_Conqueror_Series/ERC1155standards.sol\":2261:2270  _balances */\n      0x00\n        /* \"Contract_Conqueror_Series/ERC1155standards.sol\":2261:2274  _balances[id] */\n      0x00\n        /* \"Contract_Conqueror_Series/ERC1155standards.sol\":2271:2273  id */\n      dup7\n        /* \"Contract_Conqueror_Series/ERC1155standards.sol\":2261:2274  _balances[id] */\n      dup2\n      mstore\n      0x20\n      add\n      swap1\n      dup2\n      mstore\n      0x20\n      add\n      0x00\n      keccak256\n        /* \"Contract_Conqueror_Series/ERC1155standards.sol\":2261:2278  _balances[id][to] */\n      0x00\n        /* \"Contract_Conqueror_Series/ERC1155standards.sol\":2275:2277  to */\n      dup8\n        /* \"Contract_Conqueror_Series/ERC1155standards.sol\":2261:2278  _balances[id][to] */\n      0xffffffffffffffffffffffffffffffffffffffff\n      and\n      0xffffffffffffffffffffffffffffffffffffffff\n      and\n      dup2\n      mstore\n      0x20\n      add\n      swap1\n      dup2\n      mstore\n      0x20\n      add\n      0x00\n      keccak256\n      0x00\n        /* \"Contract_Conqueror_Series/ERC1155standards.sol\":2261:2288  _balances[id][to] += amount */\n      dup3\n      dup3\n      sload\n      tag_88\n      swap2\n      swap1\n      tag_89\n      jump\t// in\n    tag_88:\n      swap3\n      pop\n      pop\n      dup2\n      swap1\n      sstore\n      pop\n        /* \"Contract_Conqueror_Series/ERC1155standards.sol\":2339:2341  to */\n      dup5\n        /* \"Contract_Conqueror_Series/ERC1155standards.sol\":2306:2354  TransferSingle(msg.sender, from, to, id, amount) */\n      0xffffffffffffffffffffffffffffffffffffffff\n      and\n        /* \"Contract_Conqueror_Series/ERC1155standards.sol\":2333:2337  from */\n      dup7\n        /* \"Contract_Conqueror_Series/ERC1155standards.sol\":2306:2354  TransferSingle(msg.sender, from, to, id, amount) */\n      0xffffffffffffffffffffffffffffffffffffffff\n      and\n        /* \"Contract_Conqueror_Series/ERC1155standards.sol\":2321:2331  msg.sender */\n      caller\n        /* \"Contract_Conqueror_Series/ERC1155standards.sol\":2306:2354  TransferSingle(msg.sender, from, to, id, amount) */\n      0xffffffffffffffffffffffffffffffffffffffff\n      and\n      0xc3d58168c5ae7397731d063d5bbf3d657854427343f4c083240f7aacaa2d0f62\n        /* \"Contract_Conqueror_Series/ERC1155standards.sol\":2343:2345  id */\n      dup8\n        /* \"Contract_Conqueror_Series/ERC1155standards.sol\":2347:2353  amount */\n      dup8\n        /* \"Contract_Conqueror_Series/ERC1155standards.sol\":2306:2354  TransferSingle(msg.sender, from, to, id, amount) */\n      mload(0x40)\n      tag_90\n      swap3\n      swap2\n      swap1\n      tag_91\n      jump\t// in\n    tag_90:\n      mload(0x40)\n      dup1\n      swap2\n      sub\n      swap1\n      log4\n        /* \"Contract_Conqueror_Series/ERC1155standards.sol\":2039:2362  {... */\n      pop\n        /* \"Contract_Conqueror_Series/ERC1155standards.sol\":1931:2362  function safeTransferFrom(address from, address to, uint256 id, uint256 amount) external onlyApproved(from) {... */\n      pop\n      pop\n      pop\n      pop\n      pop\n      jump\t// out\n        /* \"Contract_Conqueror_Series/ERC1155standards.sol\":1120:1553  function balanceOfBatch(address[] calldata accounts, uint256[] calldata ids) external view returns (uint256[] memory) {... */\n    tag_39:\n        /* \"Contract_Conqueror_Series/ERC1155standards.sol\":1220:1236  uint256[] memory */\n      0x60\n        /* \"Contract_Conqueror_Series/ERC1155standards.sol\":1276:1279  ids */\n      dup3\n      dup3\n        /* \"Contract_Conqueror_Series/ERC1155standards.sol\":1276:1286  ids.length */\n      swap1\n      pop\n        /* \"Contract_Conqueror_Series/ERC1155standards.sol\":1257:1265  accounts */\n      dup6\n      dup6\n        /* \"Contract_Conqueror_Series/ERC1155standards.sol\":1257:1272  accounts.length */\n      swap1\n      pop\n        /* \"Contract_Conqueror_Series/ERC1155standards.sol\":1257:1286  accounts.length == ids.length */\n      eq\n        /* \"Contract_Conqueror_Series/ERC1155standards.sol\":1249:1308  require(accounts.length == ids.length, \"Mismatched arrays\") */\n      tag_93\n      jumpi\n      mload(0x40)\n      0x08c379a000000000000000000000000000000000000000000000000000000000\n      dup2\n      mstore\n      0x04\n      add\n      tag_94\n      swap1\n      tag_95\n      jump\t// in\n    tag_94:\n      mload(0x40)\n      dup1\n      swap2\n      sub\n      swap1\n      revert\n    tag_93:\n        /* \"Contract_Conqueror_Series/ERC1155standards.sol\":1319:1349  uint256[] memory batchBalances */\n      0x00\n        /* \"Contract_Conqueror_Series/ERC1155standards.sol\":1366:1374  accounts */\n      dup6\n      dup6\n        /* \"Contract_Conqueror_Series/ERC1155standards.sol\":1366:1381  accounts.length */\n      swap1\n      pop\n        /* \"Contract_Conqueror_Series/ERC1155standards.sol\":1352:1382  new uint256[](accounts.length) */\n      0xffffffffffffffff\n      dup2\n      gt\n      iszero\n      tag_96\n      jumpi\n      tag_97\n      tag_98\n      jump\t// in\n    tag_97:\n    tag_96:\n      mload(0x40)\n      swap1\n      dup1\n      dup3\n      mstore\n      dup1\n      0x20\n      mul\n      0x20\n      add\n      dup3\n      add\n      0x40\n      mstore\n      dup1\n      iszero\n      tag_99\n      jumpi\n      dup2\n      0x20\n      add\n      0x20\n      dup3\n      mul\n      dup1\n      calldatasize\n      dup4\n      calldatacopy\n      dup1\n      dup3\n      add\n      swap2\n      pop\n      pop\n      swap1\n      pop\n    tag_99:\n      pop\n        /* \"Contract_Conqueror_Series/ERC1155standards.sol\":1319:1382  uint256[] memory batchBalances = new uint256[](accounts.length) */\n      swap1\n      pop\n        /* \"Contract_Conqueror_Series/ERC1155standards.sol\":1398:1407  uint256 i */\n      0x00\n        /* \"Contract_Conqueror_Series/ERC1155standards.sol\":1410:1411  0 */\n      0x00\n        /* \"Contract_Conqueror_Series/ERC1155standards.sol\":1398:1411  uint256 i = 0 */\n      swap1\n      pop\n        /* \"Contract_Conqueror_Series/ERC1155standards.sol\":1393:1515  for (uint256 i = 0; i < accounts.length; i++) {... */\n    tag_100:\n        /* \"Contract_Conqueror_Series/ERC1155standards.sol\":1417:1425  accounts */\n      dup7\n      dup7\n        /* \"Contract_Conqueror_Series/ERC1155standards.sol\":1417:1432  accounts.length */\n      swap1\n      pop\n        /* \"Contract_Conqueror_Series/ERC1155standards.sol\":1413:1414  i */\n      dup2\n        /* \"Contract_Conqueror_Series/ERC1155standards.sol\":1413:1432  i < accounts.length */\n      lt\n        /* \"Contract_Conqueror_Series/ERC1155standards.sol\":1393:1515  for (uint256 i = 0; i < accounts.length; i++) {... */\n      iszero\n      tag_101\n      jumpi\n        /* \"Contract_Conqueror_Series/ERC1155standards.sol\":1473:1503  balanceOf(accounts[i], ids[i]) */\n      tag_103\n        /* \"Contract_Conqueror_Series/ERC1155standards.sol\":1483:1491  accounts */\n      dup8\n      dup8\n        /* \"Contract_Conqueror_Series/ERC1155standards.sol\":1492:1493  i */\n      dup4\n        /* \"Contract_Conqueror_Series/ERC1155standards.sol\":1483:1494  accounts[i] */\n      dup2\n      dup2\n      lt\n      tag_104\n      jumpi\n      tag_105\n      tag_106\n      jump\t// in\n    tag_105:\n    tag_104:\n      swap1\n      pop\n      0x20\n      mul\n      add\n      0x20\n      dup2\n      add\n      swap1\n      tag_107\n      swap2\n      swap1\n      tag_108\n      jump\t// in\n    tag_107:\n        /* \"Contract_Conqueror_Series/ERC1155standards.sol\":1496:1499  ids */\n      dup7\n      dup7\n        /* \"Contract_Conqueror_Series/ERC1155standards.sol\":1500:1501  i */\n      dup5\n        /* \"Contract_Conqueror_Series/ERC1155standards.sol\":1496:1502  ids[i] */\n      dup2\n      dup2\n      lt\n      tag_109\n      jumpi\n      tag_110\n      tag_106\n      jump\t// in\n    tag_110:\n    tag_109:\n      swap1\n      pop\n      0x20\n      mul\n      add\n      calldataload\n        /* \"Contract_Conqueror_Series/ERC1155standards.sol\":1473:1482  balanceOf */\n      tag_17\n        /* \"Contract_Conqueror_Series/ERC1155standards.sol\":1473:1503  balanceOf(accounts[i], ids[i]) */\n      jump\t// in\n    tag_103:\n        /* \"Contract_Conqueror_Series/ERC1155standards.sol\":1454:1467  batchBalances */\n      dup3\n        /* \"Contract_Conqueror_Series/ERC1155standards.sol\":1468:1469  i */\n      dup3\n        /* \"Contract_Conqueror_Series/ERC1155standards.sol\":1454:1470  batchBalances[i] */\n      dup2\n      mload\n      dup2\n      lt\n      tag_111\n      jumpi\n      tag_112\n      tag_106\n      jump\t// in\n    tag_112:\n    tag_111:\n      0x20\n      mul\n      0x20\n      add\n      add\n        /* \"Contract_Conqueror_Series/ERC1155standards.sol\":1454:1503  batchBalances[i] = balanceOf(accounts[i], ids[i]) */\n      dup2\n      dup2\n      mstore\n      pop\n      pop\n        /* \"Contract_Conqueror_Series/ERC1155standards.sol\":1434:1437  i++ */\n      dup1\n      dup1\n      0x01\n      add\n      swap2\n      pop\n      pop\n        /* \"Contract_Conqueror_Series/ERC1155standards.sol\":1393:1515  for (uint256 i = 0; i < accounts.length; i++) {... */\n      jump(tag_100)\n    tag_101:\n      pop\n        /* \"Contract_Conqueror_Series/ERC1155standards.sol\":1532:1545  batchBalances */\n      dup1\n        /* \"Contract_Conqueror_Series/ERC1155standards.sol\":1525:1545  return batchBalances */\n      swap2\n      pop\n      pop\n        /* \"Contract_Conqueror_Series/ERC1155standards.sol\":1120:1553  function balanceOfBatch(address[] calldata accounts, uint256[] calldata ids) external view returns (uint256[] memory) {... */\n      swap5\n      swap4\n      pop\n      pop\n      pop\n      pop\n      jump\t// out\n        /* \"Contract_Conqueror_Series/ERC1155standards.sol\":1561:1762  function setApprovalForAll(address operator, bool approved) external {... */\n    tag_45:\n        /* \"Contract_Conqueror_Series/ERC1155standards.sol\":1684:1692  approved */\n      dup1\n        /* \"Contract_Conqueror_Series/ERC1155standards.sol\":1641:1659  _operatorApprovals */\n      0x01\n        /* \"Contract_Conqueror_Series/ERC1155standards.sol\":1641:1671  _operatorApprovals[msg.sender] */\n      0x00\n        /* \"Contract_Conqueror_Series/ERC1155standards.sol\":1660:1670  msg.sender */\n      caller\n        /* \"Contract_Conqueror_Series/ERC1155standards.sol\":1641:1671  _operatorApprovals[msg.sender] */\n      0xffffffffffffffffffffffffffffffffffffffff\n      and\n      0xffffffffffffffffffffffffffffffffffffffff\n      and\n      dup2\n      mstore\n      0x20\n      add\n      swap1\n      dup2\n      mstore\n      0x20\n      add\n      0x00\n      keccak256\n        /* \"Contract_Conqueror_Series/ERC1155standards.sol\":1641:1681  _operatorApprovals[msg.sender][operator] */\n      0x00\n        /* \"Contract_Conqueror_Series/ERC1155standards.sol\":1672:1680  operator */\n      dup5\n        /* \"Contract_Conqueror_Series/ERC1155standards.sol\":1641:1681  _operatorApprovals[msg.sender][operator] */\n      0xffffffffffffffffffffffffffffffffffffffff\n      and\n      0xffffffffffffffffffffffffffffffffffffffff\n      and\n      dup2\n      mstore\n      0x20\n      add\n      swap1\n      dup2\n      mstore\n      0x20\n      add\n      0x00\n      keccak256\n      0x00\n        /* \"Contract_Conqueror_Series/ERC1155standards.sol\":1641:1692  _operatorApprovals[msg.sender][operator] = approved */\n      0x0100\n      exp\n      dup2\n      sload\n      dup2\n      0xff\n      mul\n      not\n      and\n      swap1\n      dup4\n      iszero\n      iszero\n      mul\n      or\n      swap1\n      sstore\n      pop\n        /* \"Contract_Conqueror_Series/ERC1155standards.sol\":1735:1743  operator */\n      dup2\n        /* \"Contract_Conqueror_Series/ERC1155standards.sol\":1708:1754  ApprovalForAll(msg.sender, operator, approved) */\n      0xffffffffffffffffffffffffffffffffffffffff\n      and\n        /* \"Contract_Conqueror_Series/ERC1155standards.sol\":1723:1733  msg.sender */\n      caller\n        /* \"Contract_Conqueror_Series/ERC1155standards.sol\":1708:1754  ApprovalForAll(msg.sender, operator, approved) */\n      0xffffffffffffffffffffffffffffffffffffffff\n      and\n      0x17307eab39ab6107e8899845ad3d59bd9653f200f220920489ca2b5937696c31\n        /* \"Contract_Conqueror_Series/ERC1155standards.sol\":1745:1753  approved */\n      dup4\n        /* \"Contract_Conqueror_Series/ERC1155standards.sol\":1708:1754  ApprovalForAll(msg.sender, operator, approved) */\n      mload(0x40)\n      tag_114\n      swap2\n      swap1\n      tag_25\n      jump\t// in\n    tag_114:\n      mload(0x40)\n      dup1\n      swap2\n      sub\n      swap1\n      log3\n        /* \"Contract_Conqueror_Series/ERC1155standards.sol\":1561:1762  function setApprovalForAll(address operator, bool approved) external {... */\n      pop\n      pop\n      jump\t// out\n        /* \"Contract_Conqueror_Series/ERC1155standards.sol\":3526:4146  function mintBatch(address to, uint256[] calldata ids, uint256[] calldata amounts, string[] calldata uris_) external {... */\n    tag_49:\n        /* \"Contract_Conqueror_Series/ERC1155standards.sol\":3676:3677  0 */\n      0x00\n        /* \"Contract_Conqueror_Series/ERC1155standards.sol\":3662:3678  to != address(0) */\n      0xffffffffffffffffffffffffffffffffffffffff\n      and\n        /* \"Contract_Conqueror_Series/ERC1155standards.sol\":3662:3664  to */\n      dup8\n        /* \"Contract_Conqueror_Series/ERC1155standards.sol\":3662:3678  to != address(0) */\n      0xffffffffffffffffffffffffffffffffffffffff\n      and\n      sub\n        /* \"Contract_Conqueror_Series/ERC1155standards.sol\":3654:3695  require(to != address(0), \"Zero address\") */\n      tag_116\n      jumpi\n      mload(0x40)\n      0x08c379a000000000000000000000000000000000000000000000000000000000\n      dup2\n      mstore\n      0x04\n      add\n      tag_117\n      swap1\n      tag_66\n      jump\t// in\n    tag_117:\n      mload(0x40)\n      dup1\n      swap2\n      sub\n      swap1\n      revert\n    tag_116:\n        /* \"Contract_Conqueror_Series/ERC1155standards.sol\":3728:3735  amounts */\n      dup4\n      dup4\n        /* \"Contract_Conqueror_Series/ERC1155standards.sol\":3728:3742  amounts.length */\n      swap1\n      pop\n        /* \"Contract_Conqueror_Series/ERC1155standards.sol\":3714:3717  ids */\n      dup7\n      dup7\n        /* \"Contract_Conqueror_Series/ERC1155standards.sol\":3714:3724  ids.length */\n      swap1\n      pop\n        /* \"Contract_Conqueror_Series/ERC1155standards.sol\":3714:3742  ids.length == amounts.length */\n      eq\n        /* \"Contract_Conqueror_Series/ERC1155standards.sol\":3714:3772  ids.length == amounts.length && ids.length == uris_.length */\n      dup1\n      iszero\n      tag_118\n      jumpi\n      pop\n        /* \"Contract_Conqueror_Series/ERC1155standards.sol\":3760:3765  uris_ */\n      dup2\n      dup2\n        /* \"Contract_Conqueror_Series/ERC1155standards.sol\":3760:3772  uris_.length */\n      swap1\n      pop\n        /* \"Contract_Conqueror_Series/ERC1155standards.sol\":3746:3749  ids */\n      dup7\n      dup7\n        /* \"Contract_Conqueror_Series/ERC1155standards.sol\":3746:3756  ids.length */\n      swap1\n      pop\n        /* \"Contract_Conqueror_Series/ERC1155standards.sol\":3746:3772  ids.length == uris_.length */\n      eq\n        /* \"Contract_Conqueror_Series/ERC1155standards.sol\":3714:3772  ids.length == amounts.length && ids.length == uris_.length */\n    tag_118:\n        /* \"Contract_Conqueror_Series/ERC1155standards.sol\":3706:3794  require(ids.length == amounts.length && ids.length == uris_.length, \"Mismatched inputs\") */\n      tag_119\n      jumpi\n      mload(0x40)\n      0x08c379a000000000000000000000000000000000000000000000000000000000\n      dup2\n      mstore\n      0x04\n      add\n      tag_120\n      swap1\n      tag_121\n      jump\t// in\n    tag_120:\n      mload(0x40)\n      dup1\n      swap2\n      sub\n      swap1\n      revert\n    tag_119:\n        /* \"Contract_Conqueror_Series/ERC1155standards.sol\":3812:3821  uint256 i */\n      0x00\n        /* \"Contract_Conqueror_Series/ERC1155standards.sol\":3824:3825  0 */\n      0x00\n        /* \"Contract_Conqueror_Series/ERC1155standards.sol\":3812:3825  uint256 i = 0 */\n      swap1\n      pop\n        /* \"Contract_Conqueror_Series/ERC1155standards.sol\":3807:4066  for (uint256 i = 0; i < ids.length; i++) {... */\n    tag_122:\n        /* \"Contract_Conqueror_Series/ERC1155standards.sol\":3831:3834  ids */\n      dup7\n      dup7\n        /* \"Contract_Conqueror_Series/ERC1155standards.sol\":3831:3841  ids.length */\n      swap1\n      pop\n        /* \"Contract_Conqueror_Series/ERC1155standards.sol\":3827:3828  i */\n      dup2\n        /* \"Contract_Conqueror_Series/ERC1155standards.sol\":3827:3841  i < ids.length */\n      lt\n        /* \"Contract_Conqueror_Series/ERC1155standards.sol\":3807:4066  for (uint256 i = 0; i < ids.length; i++) {... */\n      iszero\n      tag_123\n      jumpi\n        /* \"Contract_Conqueror_Series/ERC1155standards.sol\":3888:3895  amounts */\n      dup5\n      dup5\n        /* \"Contract_Conqueror_Series/ERC1155standards.sol\":3896:3897  i */\n      dup3\n        /* \"Contract_Conqueror_Series/ERC1155standards.sol\":3888:3898  amounts[i] */\n      dup2\n      dup2\n      lt\n      tag_125\n      jumpi\n      tag_126\n      tag_106\n      jump\t// in\n    tag_126:\n    tag_125:\n      swap1\n      pop\n      0x20\n      mul\n      add\n      calldataload\n        /* \"Contract_Conqueror_Series/ERC1155standards.sol\":3863:3872  _balances */\n      0x00\n        /* \"Contract_Conqueror_Series/ERC1155standards.sol\":3863:3880  _balances[ids[i]] */\n      0x00\n        /* \"Contract_Conqueror_Series/ERC1155standards.sol\":3873:3876  ids */\n      dup10\n      dup10\n        /* \"Contract_Conqueror_Series/ERC1155standards.sol\":3877:3878  i */\n      dup6\n        /* \"Contract_Conqueror_Series/ERC1155standards.sol\":3873:3879  ids[i] */\n      dup2\n      dup2\n      lt\n      tag_127\n      jumpi\n      tag_128\n      tag_106\n      jump\t// in\n    tag_128:\n    tag_127:\n      swap1\n      pop\n      0x20\n      mul\n      add\n      calldataload\n        /* \"Contract_Conqueror_Series/ERC1155standards.sol\":3863:3880  _balances[ids[i]] */\n      dup2\n      mstore\n      0x20\n      add\n      swap1\n      dup2\n      mstore\n      0x20\n      add\n      0x00\n      keccak256\n        /* \"Contract_Conqueror_Series/ERC1155standards.sol\":3863:3884  _balances[ids[i]][to] */\n      0x00\n        /* \"Contract_Conqueror_Series/ERC1155standards.sol\":3881:3883  to */\n      dup11\n        /* \"Contract_Conqueror_Series/ERC1155standards.sol\":3863:3884  _balances[ids[i]][to] */\n      0xffffffffffffffffffffffffffffffffffffffff\n      and\n      0xffffffffffffffffffffffffffffffffffffffff\n      and\n      dup2\n      mstore\n      0x20\n      add\n      swap1\n      dup2\n      mstore\n      0x20\n      add\n      0x00\n      keccak256\n      0x00\n        /* \"Contract_Conqueror_Series/ERC1155standards.sol\":3863:3898  _balances[ids[i]][to] += amounts[i] */\n      dup3\n      dup3\n      sload\n      tag_129\n      swap2\n      swap1\n      tag_89\n      jump\t// in\n    tag_129:\n      swap3\n      pop\n      pop\n      dup2\n      swap1\n      sstore\n      pop\n        /* \"Contract_Conqueror_Series/ERC1155standards.sol\":3948:3949  0 */\n      0x00\n        /* \"Contract_Conqueror_Series/ERC1155standards.sol\":3923:3928  _uris */\n      0x02\n        /* \"Contract_Conqueror_Series/ERC1155standards.sol\":3923:3936  _uris[ids[i]] */\n      0x00\n        /* \"Contract_Conqueror_Series/ERC1155standards.sol\":3929:3932  ids */\n      dup10\n      dup10\n        /* \"Contract_Conqueror_Series/ERC1155standards.sol\":3933:3934  i */\n      dup6\n        /* \"Contract_Conqueror_Series/ERC1155standards.sol\":3929:3935  ids[i] */\n      dup2\n      dup2\n      lt\n      tag_130\n      jumpi\n      tag_131\n      tag_106\n      jump\t// in\n    tag_131:\n    tag_130:\n      swap1\n      pop\n      0x20\n      mul\n      add\n      calldataload\n        /* \"Contract_Conqueror_Series/ERC1155standards.sol\":3923:3936  _uris[ids[i]] */\n      dup2\n      mstore\n      0x20\n      add\n      swap1\n      dup2\n      mstore\n      0x20\n      add\n      0x00\n      keccak256\n        /* \"Contract_Conqueror_Series/ERC1155standards.sol\":3917:3944  bytes(_uris[ids[i]]).length */\n      dup1\n      sload\n      tag_132\n      swap1\n      tag_70\n      jump\t// in\n    tag_132:\n      swap1\n      pop\n        /* \"Contract_Conqueror_Series/ERC1155standards.sol\":3917:3949  bytes(_uris[ids[i]]).length == 0 */\n      sub\n        /* \"Contract_Conqueror_Series/ERC1155standards.sol\":3913:4055  if (bytes(_uris[ids[i]]).length == 0) {... */\n      tag_133\n      jumpi\n        /* \"Contract_Conqueror_Series/ERC1155standards.sol\":3986:3991  uris_ */\n      dup3\n      dup3\n        /* \"Contract_Conqueror_Series/ERC1155standards.sol\":3992:3993  i */\n      dup3\n        /* \"Contract_Conqueror_Series/ERC1155standards.sol\":3986:3994  uris_[i] */\n      dup2\n      dup2\n      lt\n      tag_134\n      jumpi\n      tag_135\n      tag_106\n      jump\t// in\n    tag_135:\n    tag_134:\n      swap1\n      pop\n      0x20\n      mul\n      dup2\n      add\n      swap1\n      tag_136\n      swap2\n      swap1\n      tag_137\n      jump\t// in\n    tag_136:\n        /* \"Contract_Conqueror_Series/ERC1155standards.sol\":3970:3975  _uris */\n      0x02\n        /* \"Contract_Conqueror_Series/ERC1155standards.sol\":3970:3983  _uris[ids[i]] */\n      0x00\n        /* \"Contract_Conqueror_Series/ERC1155standards.sol\":3976:3979  ids */\n      dup11\n      dup11\n        /* \"Contract_Conqueror_Series/ERC1155standards.sol\":3980:3981  i */\n      dup7\n        /* \"Contract_Conqueror_Series/ERC1155standards.sol\":3976:3982  ids[i] */\n      dup2\n      dup2\n      lt\n      tag_138\n      jumpi\n      tag_139\n      tag_106\n      jump\t// in\n    tag_139:\n    tag_138:\n      swap1\n      pop\n      0x20\n      mul\n      add\n      calldataload\n        /* \"Contract_Conqueror_Series/ERC1155standards.sol\":3970:3983  _uris[ids[i]] */\n      dup2\n      mstore\n      0x20\n      add\n      swap1\n      dup2\n      mstore\n      0x20\n      add\n      0x00\n      keccak256\n        /* \"Contract_Conqueror_Series/ERC1155standards.sol\":3970:3994  _uris[ids[i]] = uris_[i] */\n      swap2\n      dup3\n      tag_140\n      swap3\n      swap2\n      swap1\n      tag_141\n      jump\t// in\n    tag_140:\n      pop\n        /* \"Contract_Conqueror_Series/ERC1155standards.sol\":4032:4035  ids */\n      dup7\n      dup7\n        /* \"Contract_Conqueror_Series/ERC1155standards.sol\":4036:4037  i */\n      dup3\n        /* \"Contract_Conqueror_Series/ERC1155standards.sol\":4032:4038  ids[i] */\n      dup2\n      dup2\n      lt\n      tag_142\n      jumpi\n      tag_143\n      tag_106\n      jump\t// in\n    tag_143:\n    tag_142:\n      swap1\n      pop\n      0x20\n      mul\n      add\n      calldataload\n        /* \"Contract_Conqueror_Series/ERC1155standards.sol\":4018:4039  URI(uris_[i], ids[i]) */\n      0x6bb7ff708619ba0610cba295a58592e0451dee2622938c8755667688daf3529b\n        /* \"Contract_Conqueror_Series/ERC1155standards.sol\":4022:4027  uris_ */\n      dup5\n      dup5\n        /* \"Contract_Conqueror_Series/ERC1155standards.sol\":4028:4029  i */\n      dup5\n        /* \"Contract_Conqueror_Series/ERC1155standards.sol\":4022:4030  uris_[i] */\n      dup2\n      dup2\n      lt\n      tag_144\n      jumpi\n      tag_145\n      tag_106\n      jump\t// in\n    tag_145:\n    tag_144:\n      swap1\n      pop\n      0x20\n      mul\n      dup2\n      add\n      swap1\n      tag_146\n      swap2\n      swap1\n      tag_137\n      jump\t// in\n    tag_146:\n        /* \"Contract_Conqueror_Series/ERC1155standards.sol\":4018:4039  URI(uris_[i], ids[i]) */\n      mload(0x40)\n      tag_147\n      swap3\n      swap2\n      swap1\n      tag_148\n      jump\t// in\n    tag_147:\n      mload(0x40)\n      dup1\n      swap2\n      sub\n      swap1\n      log2\n        /* \"Contract_Conqueror_Series/ERC1155standards.sol\":3913:4055  if (bytes(_uris[ids[i]]).length == 0) {... */\n    tag_133:\n        /* \"Contract_Conqueror_Series/ERC1155standards.sol\":3843:3846  i++ */\n      dup1\n      dup1\n      0x01\n      add\n      swap2\n      pop\n      pop\n        /* \"Contract_Conqueror_Series/ERC1155standards.sol\":3807:4066  for (uint256 i = 0; i < ids.length; i++) {... */\n      jump(tag_122)\n    tag_123:\n      pop\n        /* \"Contract_Conqueror_Series/ERC1155standards.sol\":4121:4123  to */\n      dup7\n        /* \"Contract_Conqueror_Series/ERC1155standards.sol\":4083:4138  TransferBatch(msg.sender, address(0), to, ids, amounts) */\n      0xffffffffffffffffffffffffffffffffffffffff\n      and\n        /* \"Contract_Conqueror_Series/ERC1155standards.sol\":4117:4118  0 */\n      0x00\n        /* \"Contract_Conqueror_Series/ERC1155standards.sol\":4083:4138  TransferBatch(msg.sender, address(0), to, ids, amounts) */\n      0xffffffffffffffffffffffffffffffffffffffff\n      and\n        /* \"Contract_Conqueror_Series/ERC1155standards.sol\":4097:4107  msg.sender */\n      caller\n        /* \"Contract_Conqueror_Series/ERC1155standards.sol\":4083:4138  TransferBatch(msg.sender, address(0), to, ids, amounts) */\n      0xffffffffffffffffffffffffffffffffffffffff\n      and\n      0x4a39dc06d4c0dbc64b70af90fd698a233a518aa5d07e595d983b8c0526c8f7fb\n        /* \"Contract_Conqueror_Series/ERC1155standards.sol\":4125:4128  ids */\n      dup10\n      dup10\n        /* \"Contract_Conqueror_Series/ERC1155standards.sol\":4130:4137  amounts */\n      dup10\n      dup10\n        /* \"Contract_Conqueror_Series/ERC1155standards.sol\":4083:4138  TransferBatch(msg.sender, address(0), to, ids, amounts) */\n      mload(0x40)\n      tag_149\n      swap5\n      swap4\n      swap3\n      swap2\n      swap1\n      tag_150\n      jump\t// in\n    tag_149:\n      mload(0x40)\n      dup1\n      swap2\n      sub\n      swap1\n      log4\n        /* \"Contract_Conqueror_Series/ERC1155standards.sol\":3526:4146  function mintBatch(address to, uint256[] calldata ids, uint256[] calldata amounts, string[] calldata uris_) external {... */\n      pop\n      pop\n      pop\n      pop\n      pop\n      pop\n      pop\n      jump\t// out\n        /* \"Contract_Conqueror_Series/ERC1155standards.sol\":3143:3518  function mint(address to, uint256 id, uint256 amount, string memory uri_) external {... */\n    tag_53:\n        /* \"Contract_Conqueror_Series/ERC1155standards.sol\":3259:3260  0 */\n      0x00\n        /* \"Contract_Conqueror_Series/ERC1155standards.sol\":3245:3261  to != address(0) */\n      0xffffffffffffffffffffffffffffffffffffffff\n      and\n        /* \"Contract_Conqueror_Series/ERC1155standards.sol\":3245:3247  to */\n      dup5\n        /* \"Contract_Conqueror_Series/ERC1155standards.sol\":3245:3261  to != address(0) */\n      0xffffffffffffffffffffffffffffffffffffffff\n      and\n      sub\n        /* \"Contract_Conqueror_Series/ERC1155standards.sol\":3237:3278  require(to != address(0), \"Zero address\") */\n      tag_152\n      jumpi\n      mload(0x40)\n      0x08c379a000000000000000000000000000000000000000000000000000000000\n      dup2\n      mstore\n      0x04\n      add\n      tag_153\n      swap1\n      tag_66\n      jump\t// in\n    tag_153:\n      mload(0x40)\n      dup1\n      swap2\n      sub\n      swap1\n      revert\n    tag_152:\n        /* \"Contract_Conqueror_Series/ERC1155standards.sol\":3310:3316  amount */\n      dup2\n        /* \"Contract_Conqueror_Series/ERC1155standards.sol\":3289:3298  _balances */\n      0x00\n        /* \"Contract_Conqueror_Series/ERC1155standards.sol\":3289:3302  _balances[id] */\n      0x00\n        /* \"Contract_Conqueror_Series/ERC1155standards.sol\":3299:3301  id */\n      dup6\n        /* \"Contract_Conqueror_Series/ERC1155standards.sol\":3289:3302  _balances[id] */\n      dup2\n      mstore\n      0x20\n      add\n      swap1\n      dup2\n      mstore\n      0x20\n      add\n      0x00\n      keccak256\n        /* \"Contract_Conqueror_Series/ERC1155standards.sol\":3289:3306  _balances[id][to] */\n      0x00\n        /* \"Contract_Conqueror_Series/ERC1155standards.sol\":3303:3305  to */\n      dup7\n        /* \"Contract_Conqueror_Series/ERC1155standards.sol\":3289:3306  _balances[id][to] */\n      0xffffffffffffffffffffffffffffffffffffffff\n      and\n      0xffffffffffffffffffffffffffffffffffffffff\n      and\n      dup2\n      mstore\n      0x20\n      add\n      swap1\n      dup2\n      mstore\n      0x20\n      add\n      0x00\n      keccak256\n      0x00\n        /* \"Contract_Conqueror_Series/ERC1155standards.sol\":3289:3316  _balances[id][to] += amount */\n      dup3\n      dup3\n      sload\n      tag_154\n      swap2\n      swap1\n      tag_89\n      jump\t// in\n    tag_154:\n      swap3\n      pop\n      pop\n      dup2\n      swap1\n      sstore\n      pop\n        /* \"Contract_Conqueror_Series/ERC1155standards.sol\":3360:3361  0 */\n      0x00\n        /* \"Contract_Conqueror_Series/ERC1155standards.sol\":3339:3344  _uris */\n      0x02\n        /* \"Contract_Conqueror_Series/ERC1155standards.sol\":3339:3348  _uris[id] */\n      0x00\n        /* \"Contract_Conqueror_Series/ERC1155standards.sol\":3345:3347  id */\n      dup6\n        /* \"Contract_Conqueror_Series/ERC1155standards.sol\":3339:3348  _uris[id] */\n      dup2\n      mstore\n      0x20\n      add\n      swap1\n      dup2\n      mstore\n      0x20\n      add\n      0x00\n      keccak256\n        /* \"Contract_Conqueror_Series/ERC1155standards.sol\":3333:3356  bytes(_uris[id]).length */\n      dup1\n      sload\n      tag_155\n      swap1\n      tag_70\n      jump\t// in\n    tag_155:\n      swap1\n      pop\n        /* \"Contract_Conqueror_Series/ERC1155standards.sol\":3333:3361  bytes(_uris[id]).length == 0 */\n      sub\n        /* \"Contract_Conqueror_Series/ERC1155standards.sol\":3329:3439  if (bytes(_uris[id]).length == 0) {... */\n      tag_156\n      jumpi\n        /* \"Contract_Conqueror_Series/ERC1155standards.sol\":3390:3394  uri_ */\n      dup1\n        /* \"Contract_Conqueror_Series/ERC1155standards.sol\":3378:3383  _uris */\n      0x02\n        /* \"Contract_Conqueror_Series/ERC1155standards.sol\":3378:3387  _uris[id] */\n      0x00\n        /* \"Contract_Conqueror_Series/ERC1155standards.sol\":3384:3386  id */\n      dup6\n        /* \"Contract_Conqueror_Series/ERC1155standards.sol\":3378:3387  _uris[id] */\n      dup2\n      mstore\n      0x20\n      add\n      swap1\n      dup2\n      mstore\n      0x20\n      add\n      0x00\n      keccak256\n        /* \"Contract_Conqueror_Series/ERC1155standards.sol\":3378:3394  _uris[id] = uri_ */\n      swap1\n      dup2\n      tag_157\n      swap2\n      swap1\n      tag_158\n      jump\t// in\n    tag_157:\n      pop\n        /* \"Contract_Conqueror_Series/ERC1155standards.sol\":3424:3426  id */\n      dup3\n        /* \"Contract_Conqueror_Series/ERC1155standards.sol\":3414:3427  URI(uri_, id) */\n      0x6bb7ff708619ba0610cba295a58592e0451dee2622938c8755667688daf3529b\n        /* \"Contract_Conqueror_Series/ERC1155standards.sol\":3418:3422  uri_ */\n      dup3\n        /* \"Contract_Conqueror_Series/ERC1155standards.sol\":3414:3427  URI(uri_, id) */\n      mload(0x40)\n      tag_159\n      swap2\n      swap1\n      tag_31\n      jump\t// in\n    tag_159:\n      mload(0x40)\n      dup1\n      swap2\n      sub\n      swap1\n      log2\n        /* \"Contract_Conqueror_Series/ERC1155standards.sol\":3329:3439  if (bytes(_uris[id]).length == 0) {... */\n    tag_156:\n        /* \"Contract_Conqueror_Series/ERC1155standards.sol\":3495:3497  to */\n      dup4\n        /* \"Contract_Conqueror_Series/ERC1155standards.sol\":3456:3510  TransferSingle(msg.sender, address(0), to, id, amount) */\n      0xffffffffffffffffffffffffffffffffffffffff\n      and\n        /* \"Contract_Conqueror_Series/ERC1155standards.sol\":3491:3492  0 */\n      0x00\n        /* \"Contract_Conqueror_Series/ERC1155standards.sol\":3456:3510  TransferSingle(msg.sender, address(0), to, id, amount) */\n      0xffffffffffffffffffffffffffffffffffffffff\n      and\n        /* \"Contract_Conqueror_Series/ERC1155standards.sol\":3471:3481  msg.sender */\n      caller\n        /* \"Contract_Conqueror_Series/ERC1155standards.sol\":3456:3510  TransferSingle(msg.sender, address(0), to, id, amount) */\n      0xffffffffffffffffffffffffffffffffffffffff\n      and\n      0xc3d58168c5ae7397731d063d5bbf3d657854427343f4c083240f7aacaa2d0f62\n        /* \"Contract_Conqueror_Series/ERC1155standards.sol\":3499:3501  id */\n      dup7\n        /* \"Contract_Conqueror_Series/ERC1155standards.sol\":3503:3509  amount */\n      dup7\n        /* \"Contract_Conqueror_Series/ERC1155standards.sol\":3456:3510  TransferSingle(msg.sender, address(0), to, id, amount) */\n      mload(0x40)\n      tag_160\n      swap3\n      swap2\n      swap1\n      tag_91\n      jump\t// in\n    tag_160:\n      mload(0x40)\n      dup1\n      swap2\n      sub\n      swap1\n      log4\n        /* \"Contract_Conqueror_Series/ERC1155standards.sol\":3143:3518  function mint(address to, uint256 id, uint256 amount, string memory uri_) external {... */\n      pop\n      pop\n      pop\n      pop\n      jump\t// out\n        /* \"Contract_Conqueror_Series/ERC1155standards.sol\":1770:1923  function isApprovedForAll(address account, address operator) external view returns (bool) {... */\n    tag_57:\n        /* \"Contract_Conqueror_Series/ERC1155standards.sol\":1854:1858  bool */\n      0x00\n        /* \"Contract_Conqueror_Series/ERC1155standards.sol\":1878:1896  _operatorApprovals */\n      0x01\n        /* \"Contract_Conqueror_Series/ERC1155standards.sol\":1878:1905  _operatorApprovals[account] */\n      0x00\n        /* \"Contract_Conqueror_Series/ERC1155standards.sol\":1897:1904  account */\n      dup5\n        /* \"Contract_Conqueror_Series/ERC1155standards.sol\":1878:1905  _operatorApprovals[account] */\n      0xffffffffffffffffffffffffffffffffffffffff\n      and\n      0xffffffffffffffffffffffffffffffffffffffff\n      and\n      dup2\n      mstore\n      0x20\n      add\n      swap1\n      dup2\n      mstore\n      0x20\n      add\n      0x00\n      keccak256\n        /* \"Contract_Conqueror_Series/ERC1155standards.sol\":1878:1915  _operatorApprovals[account][operator] */\n      0x00\n        /* \"Contract_Conqueror_Series/ERC1155standards.sol\":1906:1914  operator */\n      dup4\n        /* \"Contract_Conqueror_Series/ERC1155standards.sol\":1878:1915  _operatorApprovals[account][operator] */\n      0xffffffffffffffffffffffffffffffffffffffff\n      and\n      0xffffffffffffffffffffffffffffffffffffffff\n      and\n      dup2\n      mstore\n      0x20\n      add\n      swap1\n      dup2\n      mstore\n      0x20\n      add\n      0x00\n      keccak256\n      0x00\n      swap1\n      sload\n      swap1\n      0x0100\n      exp\n      swap1\n      div\n      0xff\n      and\n        /* \"Contract_Conqueror_Series/ERC1155standards.sol\":1871:1915  return _operatorApprovals[account][operator] */\n      swap1\n      pop\n        /* \"Contract_Conqueror_Series/ERC1155standards.sol\":1770:1923  function isApprovedForAll(address account, address operator) external view returns (bool) {... */\n      swap3\n      swap2\n      pop\n      pop\n      jump\t// out\n        /* \"Contract_Conqueror_Series/ERC1155standards.sol\":2370:3055  function safeBatchTransferFrom(address from, address to, uint256[] calldata ids, uint256[] calldata amounts) external onlyApproved(from) {... */\n    tag_62:\n        /* \"Contract_Conqueror_Series/ERC1155standards.sol\":2501:2505  from */\n      dup6\n        /* \"Contract_Conqueror_Series/ERC1155standards.sol\":831:841  msg.sender */\n      caller\n        /* \"Contract_Conqueror_Series/ERC1155standards.sol\":823:841  from == msg.sender */\n      0xffffffffffffffffffffffffffffffffffffffff\n      and\n        /* \"Contract_Conqueror_Series/ERC1155standards.sol\":823:827  from */\n      dup2\n        /* \"Contract_Conqueror_Series/ERC1155standards.sol\":823:841  from == msg.sender */\n      0xffffffffffffffffffffffffffffffffffffffff\n      and\n      eq\n        /* \"Contract_Conqueror_Series/ERC1155standards.sol\":823:881  from == msg.sender || _operatorApprovals[from][msg.sender] */\n      dup1\n      tag_163\n      jumpi\n      pop\n        /* \"Contract_Conqueror_Series/ERC1155standards.sol\":845:863  _operatorApprovals */\n      0x01\n        /* \"Contract_Conqueror_Series/ERC1155standards.sol\":845:869  _operatorApprovals[from] */\n      0x00\n        /* \"Contract_Conqueror_Series/ERC1155standards.sol\":864:868  from */\n      dup3\n        /* \"Contract_Conqueror_Series/ERC1155standards.sol\":845:869  _operatorApprovals[from] */\n      0xffffffffffffffffffffffffffffffffffffffff\n      and\n      0xffffffffffffffffffffffffffffffffffffffff\n      and\n      dup2\n      mstore\n      0x20\n      add\n      swap1\n      dup2\n      mstore\n      0x20\n      add\n      0x00\n      keccak256\n        /* \"Contract_Conqueror_Series/ERC1155standards.sol\":845:881  _operatorApprovals[from][msg.sender] */\n      0x00\n        /* \"Contract_Conqueror_Series/ERC1155standards.sol\":870:880  msg.sender */\n      caller\n        /* \"Contract_Conqueror_Series/ERC1155standards.sol\":845:881  _operatorApprovals[from][msg.sender] */\n      0xffffffffffffffffffffffffffffffffffffffff\n      and\n      0xffffffffffffffffffffffffffffffffffffffff\n      and\n      dup2\n      mstore\n      0x20\n      add\n      swap1\n      dup2\n      mstore\n      0x20\n      add\n      0x00\n      keccak256\n      0x00\n      swap1\n      sload\n      swap1\n      0x0100\n      exp\n      swap1\n      div\n      0xff\n      and\n        /* \"Contract_Conqueror_Series/ERC1155standards.sol\":823:881  from == msg.sender || _operatorApprovals[from][msg.sender] */\n    tag_163:\n        /* \"Contract_Conqueror_Series/ERC1155standards.sol\":815:900  require(from == msg.sender || _operatorApprovals[from][msg.sender], \"Not authorized\") */\n      tag_164\n      jumpi\n      mload(0x40)\n      0x08c379a000000000000000000000000000000000000000000000000000000000\n      dup2\n      mstore\n      0x04\n      add\n      tag_165\n      swap1\n      tag_79\n      jump\t// in\n    tag_165:\n      mload(0x40)\n      dup1\n      swap2\n      sub\n      swap1\n      revert\n    tag_164:\n        /* \"Contract_Conqueror_Series/ERC1155standards.sol\":2540:2547  amounts */\n      dup3\n      dup3\n        /* \"Contract_Conqueror_Series/ERC1155standards.sol\":2540:2554  amounts.length */\n      swap1\n      pop\n        /* \"Contract_Conqueror_Series/ERC1155standards.sol\":2526:2529  ids */\n      dup6\n      dup6\n        /* \"Contract_Conqueror_Series/ERC1155standards.sol\":2526:2536  ids.length */\n      swap1\n      pop\n        /* \"Contract_Conqueror_Series/ERC1155standards.sol\":2526:2554  ids.length == amounts.length */\n      eq\n        /* \"Contract_Conqueror_Series/ERC1155standards.sol\":2518:2576  require(ids.length == amounts.length, \"Mismatched arrays\") */\n      tag_167\n      jumpi\n      mload(0x40)\n      0x08c379a000000000000000000000000000000000000000000000000000000000\n      dup2\n      mstore\n      0x04\n      add\n      tag_168\n      swap1\n      tag_95\n      jump\t// in\n    tag_168:\n      mload(0x40)\n      dup1\n      swap2\n      sub\n      swap1\n      revert\n    tag_167:\n        /* \"Contract_Conqueror_Series/ERC1155standards.sol\":2609:2610  0 */\n      0x00\n        /* \"Contract_Conqueror_Series/ERC1155standards.sol\":2595:2611  to != address(0) */\n      0xffffffffffffffffffffffffffffffffffffffff\n      and\n        /* \"Contract_Conqueror_Series/ERC1155standards.sol\":2595:2597  to */\n      dup7\n        /* \"Contract_Conqueror_Series/ERC1155standards.sol\":2595:2611  to != address(0) */\n      0xffffffffffffffffffffffffffffffffffffffff\n      and\n      sub\n        /* \"Contract_Conqueror_Series/ERC1155standards.sol\":2587:2628  require(to != address(0), \"Zero address\") */\n      tag_169\n      jumpi\n      mload(0x40)\n      0x08c379a000000000000000000000000000000000000000000000000000000000\n      dup2\n      mstore\n      0x04\n      add\n      tag_170\n      swap1\n      tag_66\n      jump\t// in\n    tag_170:\n      mload(0x40)\n      dup1\n      swap2\n      sub\n      swap1\n      revert\n    tag_169:\n        /* \"Contract_Conqueror_Series/ERC1155standards.sol\":2646:2655  uint256 i */\n      0x00\n        /* \"Contract_Conqueror_Series/ERC1155standards.sol\":2658:2659  0 */\n      0x00\n        /* \"Contract_Conqueror_Series/ERC1155standards.sol\":2646:2659  uint256 i = 0 */\n      swap1\n      pop\n        /* \"Contract_Conqueror_Series/ERC1155standards.sol\":2641:2981  for (uint256 i = 0; i < ids.length; i++) {... */\n    tag_171:\n        /* \"Contract_Conqueror_Series/ERC1155standards.sol\":2665:2668  ids */\n      dup6\n      dup6\n        /* \"Contract_Conqueror_Series/ERC1155standards.sol\":2665:2675  ids.length */\n      swap1\n      pop\n        /* \"Contract_Conqueror_Series/ERC1155standards.sol\":2661:2662  i */\n      dup2\n        /* \"Contract_Conqueror_Series/ERC1155standards.sol\":2661:2675  i < ids.length */\n      lt\n        /* \"Contract_Conqueror_Series/ERC1155standards.sol\":2641:2981  for (uint256 i = 0; i < ids.length; i++) {... */\n      iszero\n      tag_172\n      jumpi\n        /* \"Contract_Conqueror_Series/ERC1155standards.sol\":2697:2707  uint256 id */\n      0x00\n        /* \"Contract_Conqueror_Series/ERC1155standards.sol\":2710:2713  ids */\n      dup7\n      dup7\n        /* \"Contract_Conqueror_Series/ERC1155standards.sol\":2714:2715  i */\n      dup4\n        /* \"Contract_Conqueror_Series/ERC1155standards.sol\":2710:2716  ids[i] */\n      dup2\n      dup2\n      lt\n      tag_174\n      jumpi\n      tag_175\n      tag_106\n      jump\t// in\n    tag_175:\n    tag_174:\n      swap1\n      pop\n      0x20\n      mul\n      add\n      calldataload\n        /* \"Contract_Conqueror_Series/ERC1155standards.sol\":2697:2716  uint256 id = ids[i] */\n      swap1\n      pop\n        /* \"Contract_Conqueror_Series/ERC1155standards.sol\":2731:2745  uint256 amount */\n      0x00\n        /* \"Contract_Conqueror_Series/ERC1155standards.sol\":2748:2755  amounts */\n      dup6\n      dup6\n        /* \"Contract_Conqueror_Series/ERC1155standards.sol\":2756:2757  i */\n      dup5\n        /* \"Contract_Conqueror_Series/ERC1155standards.sol\":2748:2758  amounts[i] */\n      dup2\n      dup2\n      lt\n      tag_176\n      jumpi\n      tag_177\n      tag_106\n      jump\t// in\n    tag_177:\n    tag_176:\n      swap1\n      pop\n      0x20\n      mul\n      add\n      calldataload\n        /* \"Contract_Conqueror_Series/ERC1155standards.sol\":2731:2758  uint256 amount = amounts[i] */\n      swap1\n      pop\n        /* \"Contract_Conqueror_Series/ERC1155standards.sol\":2773:2792  uint256 fromBalance */\n      0x00\n        /* \"Contract_Conqueror_Series/ERC1155standards.sol\":2795:2804  _balances */\n      0x00\n        /* \"Contract_Conqueror_Series/ERC1155standards.sol\":2795:2808  _balances[id] */\n      0x00\n        /* \"Contract_Conqueror_Series/ERC1155standards.sol\":2805:2807  id */\n      dup5\n        /* \"Contract_Conqueror_Series/ERC1155standards.sol\":2795:2808  _balances[id] */\n      dup2\n      mstore\n      0x20\n      add\n      swap1\n      dup2\n      mstore\n      0x20\n      add\n      0x00\n      keccak256\n        /* \"Contract_Conqueror_Series/ERC1155standards.sol\":2795:2814  _balances[id][from] */\n      0x00\n        /* \"Contract_Conqueror_Series/ERC1155standards.sol\":2809:2813  from */\n      dup13\n        /* \"Contract_Conqueror_Series/ERC1155standards.sol\":2795:2814  _balances[id][from] */\n      0xffffffffffffffffffffffffffffffffffffffff\n      and\n      0xffffffffffffffffffffffffffffffffffffffff\n      and\n      dup2\n      mstore\n      0x20\n      add\n      swap1\n      dup2\n      mstore\n      0x20\n      add\n      0x00\n      keccak256\n      sload\n        /* \"Contract_Conqueror_Series/ERC1155standards.sol\":2773:2814  uint256 fromBalance = _balances[id][from] */\n      swap1\n      pop\n        /* \"Contract_Conqueror_Series/ERC1155standards.sol\":2852:2858  amount */\n      dup2\n        /* \"Contract_Conqueror_Series/ERC1155standards.sol\":2837:2848  fromBalance */\n      dup2\n        /* \"Contract_Conqueror_Series/ERC1155standards.sol\":2837:2858  fromBalance >= amount */\n      lt\n      iszero\n        /* \"Contract_Conqueror_Series/ERC1155standards.sol\":2829:2883  require(fromBalance >= amount, \"Insufficient balance\") */\n      tag_178\n      jumpi\n      mload(0x40)\n      0x08c379a000000000000000000000000000000000000000000000000000000000\n      dup2\n      mstore\n      0x04\n      add\n      tag_179\n      swap1\n      tag_85\n      jump\t// in\n    tag_179:\n      mload(0x40)\n      dup1\n      swap2\n      sub\n      swap1\n      revert\n    tag_178:\n        /* \"Contract_Conqueror_Series/ERC1155standards.sol\":2921:2927  amount */\n      dup2\n        /* \"Contract_Conqueror_Series/ERC1155standards.sol\":2898:2907  _balances */\n      0x00\n        /* \"Contract_Conqueror_Series/ERC1155standards.sol\":2898:2911  _balances[id] */\n      0x00\n        /* \"Contract_Conqueror_Series/ERC1155standards.sol\":2908:2910  id */\n      dup6\n        /* \"Contract_Conqueror_Series/ERC1155standards.sol\":2898:2911  _balances[id] */\n      dup2\n      mstore\n      0x20\n      add\n      swap1\n      dup2\n      mstore\n      0x20\n      add\n      0x00\n      keccak256\n        /* \"Contract_Conqueror_Series/ERC1155standards.sol\":2898:2917  _balances[id][from] */\n      0x00\n        /* \"Contract_Conqueror_Series/ERC1155standards.sol\":2912:2916  from */\n      dup14\n        /* \"Contract_Conqueror_Series/ERC1155standards.sol\":2898:2917  _balances[id][from] */\n      0xffffffffffffffffffffffffffffffffffffffff\n      and\n      0xffffffffffffffffffffffffffffffffffffffff\n      and\n      dup2\n      mstore\n      0x20\n      add\n      swap1\n      dup2\n      mstore\n      0x20\n      add\n      0x00\n      keccak256\n      0x00\n        /* \"Contract_Conqueror_Series/ERC1155standards.sol\":2898:2927  _balances[id][from] -= amount */\n      dup3\n      dup3\n      sload\n      tag_180\n      swap2\n      swap1\n      tag_87\n      jump\t// in\n    tag_180:\n      swap3\n      pop\n      pop\n      dup2\n      swap1\n      sstore\n      pop\n        /* \"Contract_Conqueror_Series/ERC1155standards.sol\":2963:2969  amount */\n      dup2\n        /* \"Contract_Conqueror_Series/ERC1155standards.sol\":2942:2951  _balances */\n      0x00\n        /* \"Contract_Conqueror_Series/ERC1155standards.sol\":2942:2955  _balances[id] */\n      0x00\n        /* \"Contract_Conqueror_Series/ERC1155standards.sol\":2952:2954  id */\n      dup6\n        /* \"Contract_Conqueror_Series/ERC1155standards.sol\":2942:2955  _balances[id] */\n      dup2\n      mstore\n      0x20\n      add\n      swap1\n      dup2\n      mstore\n      0x20\n      add\n      0x00\n      keccak256\n        /* \"Contract_Conqueror_Series/ERC1155standards.sol\":2942:2959  _balances[id][to] */\n      0x00\n        /* \"Contract_Conqueror_Series/ERC1155standards.sol\":2956:2958  to */\n      dup13\n        /* \"Contract_Conqueror_Series/ERC1155standards.sol\":2942:2959  _balances[id][to] */\n      0xffffffffffffffffffffffffffffffffffffffff\n      and\n      0xffffffffffffffffffffffffffffffffffffffff\n      and\n      dup2\n      mstore\n      0x20\n      add\n      swap1\n      dup2\n      mstore\n      0x20\n      add\n      0x00\n      keccak256\n      0x00\n        /* \"Contract_Conqueror_Series/ERC1155standards.sol\":2942:2969  _balances[id][to] += amount */\n      dup3\n      dup3\n      sload\n      tag_181\n      swap2\n      swap1\n      tag_89\n      jump\t// in\n    tag_181:\n      swap3\n      pop\n      pop\n      dup2\n      swap1\n      sstore\n      pop\n        /* \"Contract_Conqueror_Series/ERC1155standards.sol\":2682:2981  {... */\n      pop\n      pop\n      pop\n        /* \"Contract_Conqueror_Series/ERC1155standards.sol\":2677:2680  i++ */\n      dup1\n      dup1\n      0x01\n      add\n      swap2\n      pop\n      pop\n        /* \"Contract_Conqueror_Series/ERC1155standards.sol\":2641:2981  for (uint256 i = 0; i < ids.length; i++) {... */\n      jump(tag_171)\n    tag_172:\n      pop\n        /* \"Contract_Conqueror_Series/ERC1155standards.sol\":3030:3032  to */\n      dup6\n        /* \"Contract_Conqueror_Series/ERC1155standards.sol\":2998:3047  TransferBatch(msg.sender, from, to, ids, amounts) */\n      0xffffffffffffffffffffffffffffffffffffffff\n      and\n        /* \"Contract_Conqueror_Series/ERC1155standards.sol\":3024:3028  from */\n      dup8\n        /* \"Contract_Conqueror_Series/ERC1155standards.sol\":2998:3047  TransferBatch(msg.sender, from, to, ids, amounts) */\n      0xffffffffffffffffffffffffffffffffffffffff\n      and\n        /* \"Contract_Conqueror_Series/ERC1155standards.sol\":3012:3022  msg.sender */\n      caller\n        /* \"Contract_Conqueror_Series/ERC1155standards.sol\":2998:3047  TransferBatch(msg.sender, from, to, ids, amounts) */\n      0xffffffffffffffffffffffffffffffffffffffff\n      and\n      0x4a39dc06d4c0dbc64b70af90fd698a233a518aa5d07e595d983b8c0526c8f7fb\n        /* \"Contract_Conqueror_Series/ERC1155standards.sol\":3034:3037  ids */\n      dup9\n      dup9\n        /* \"Contract_Conqueror_Series/ERC1155standards.sol\":3039:3046  amounts */\n      dup9\n      dup9\n        /* \"Contract_Conqueror_Series/ERC1155standards.sol\":2998:3047  TransferBatch(msg.sender, from, to, ids, amounts) */\n      mload(0x40)\n      tag_182\n      swap5\n      swap4\n      swap3\n      swap2\n      swap1\n      tag_150\n      jump\t// in\n    tag_182:\n      mload(0x40)\n      dup1\n      swap2\n      sub\n      swap1\n      log4\n        /* \"Contract_Conqueror_Series/ERC1155standards.sol\":2370:3055  function safeBatchTransferFrom(address from, address to, uint256[] calldata ids, uint256[] calldata amounts) external onlyApproved(from) {... */\n      pop\n      pop\n      pop\n      pop\n      pop\n      pop\n      pop\n      jump\t// out\n        /* \"#utility.yul\":7:82   */\n    tag_183:\n        /* \"#utility.yul\":40:46   */\n      0x00\n        /* \"#utility.yul\":73:75   */\n      0x40\n        /* \"#utility.yul\":67:76   */\n      mload\n        /* \"#utility.yul\":57:76   */\n      swap1\n      pop\n        /* \"#utility.yul\":7:82   */\n      swap1\n      jump\t// out\n        /* \"#utility.yul\":88:205   */\n    tag_184:\n        /* \"#utility.yul\":197:198   */\n      0x00\n        /* \"#utility.yul\":194:195   */\n      0x00\n        /* \"#utility.yul\":187:199   */\n      revert\n        /* \"#utility.yul\":211:328   */\n    tag_185:\n        /* \"#utility.yul\":320:321   */\n      0x00\n        /* \"#utility.yul\":317:318   */\n      0x00\n        /* \"#utility.yul\":310:322   */\n      revert\n        /* \"#utility.yul\":334:460   */\n    tag_186:\n        /* \"#utility.yul\":371:378   */\n      0x00\n        /* \"#utility.yul\":411:453   */\n      0xffffffffffffffffffffffffffffffffffffffff\n        /* \"#utility.yul\":404:409   */\n      dup3\n        /* \"#utility.yul\":400:454   */\n      and\n        /* \"#utility.yul\":389:454   */\n      swap1\n      pop\n        /* \"#utility.yul\":334:460   */\n      swap2\n      swap1\n      pop\n      jump\t// out\n        /* \"#utility.yul\":466:562   */\n    tag_187:\n        /* \"#utility.yul\":503:510   */\n      0x00\n        /* \"#utility.yul\":532:556   */\n      tag_267\n        /* \"#utility.yul\":550:555   */\n      dup3\n        /* \"#utility.yul\":532:556   */\n      tag_186\n      jump\t// in\n    tag_267:\n        /* \"#utility.yul\":521:556   */\n      swap1\n      pop\n        /* \"#utility.yul\":466:562   */\n      swap2\n      swap1\n      pop\n      jump\t// out\n        /* \"#utility.yul\":568:690   */\n    tag_188:\n        /* \"#utility.yul\":641:665   */\n      tag_269\n        /* \"#utility.yul\":659:664   */\n      dup2\n        /* \"#utility.yul\":641:665   */\n      tag_187\n      jump\t// in\n    tag_269:\n        /* \"#utility.yul\":634:639   */\n      dup2\n        /* \"#utility.yul\":631:666   */\n      eq\n        /* \"#utility.yul\":621:684   */\n      tag_270\n      jumpi\n        /* \"#utility.yul\":680:681   */\n      0x00\n        /* \"#utility.yul\":677:678   */\n      0x00\n        /* \"#utility.yul\":670:682   */\n      revert\n        /* \"#utility.yul\":621:684   */\n    tag_270:\n        /* \"#utility.yul\":568:690   */\n      pop\n      jump\t// out\n        /* \"#utility.yul\":696:835   */\n    tag_189:\n        /* \"#utility.yul\":742:747   */\n      0x00\n        /* \"#utility.yul\":780:786   */\n      dup2\n        /* \"#utility.yul\":767:787   */\n      calldataload\n        /* \"#utility.yul\":758:787   */\n      swap1\n      pop\n        /* \"#utility.yul\":796:829   */\n      tag_272\n        /* \"#utility.yul\":823:828   */\n      dup2\n        /* \"#utility.yul\":796:829   */\n      tag_188\n      jump\t// in\n    tag_272:\n        /* \"#utility.yul\":696:835   */\n      swap3\n      swap2\n      pop\n      pop\n      jump\t// out\n        /* \"#utility.yul\":841:918   */\n    tag_190:\n        /* \"#utility.yul\":878:885   */\n      0x00\n        /* \"#utility.yul\":907:912   */\n      dup2\n        /* \"#utility.yul\":896:912   */\n      swap1\n      pop\n        /* \"#utility.yul\":841:918   */\n      swap2\n      swap1\n      pop\n      jump\t// out\n        /* \"#utility.yul\":924:1046   */\n    tag_191:\n        /* \"#utility.yul\":997:1021   */\n      tag_275\n        /* \"#utility.yul\":1015:1020   */\n      dup2\n        /* \"#utility.yul\":997:1021   */\n      tag_190\n      jump\t// in\n    tag_275:\n        /* \"#utility.yul\":990:995   */\n      dup2\n        /* \"#utility.yul\":987:1022   */\n      eq\n        /* \"#utility.yul\":977:1040   */\n      tag_276\n      jumpi\n        /* \"#utility.yul\":1036:1037   */\n      0x00\n        /* \"#utility.yul\":1033:1034   */\n      0x00\n        /* \"#utility.yul\":1026:1038   */\n      revert\n        /* \"#utility.yul\":977:1040   */\n    tag_276:\n        /* \"#utility.yul\":924:1046   */\n      pop\n      jump\t// out\n        /* \"#utility.yul\":1052:1191   */\n    tag_192:\n        /* \"#utility.yul\":1098:1103   */\n      0x00\n        /* \"#utility.yul\":1136:1142   */\n      dup2\n        /* \"#utility.yul\":1123:1143   */\n      calldataload\n        /* \"#utility.yul\":1114:1143   */\n      swap1\n      pop\n        /* \"#utility.yul\":1152:1185   */\n      tag_278\n        /* \"#utility.yul\":1179:1184   */\n      dup2\n        /* \"#utility.yul\":1152:1185   */\n      tag_191\n      jump\t// in\n    tag_278:\n        /* \"#utility.yul\":1052:1191   */\n      swap3\n      swap2\n      pop\n      pop\n      jump\t// out\n        /* \"#utility.yul\":1197:1671   */\n    tag_16:\n        /* \"#utility.yul\":1265:1271   */\n      0x00\n        /* \"#utility.yul\":1273:1279   */\n      0x00\n        /* \"#utility.yul\":1322:1324   */\n      0x40\n        /* \"#utility.yul\":1310:1319   */\n      dup4\n        /* \"#utility.yul\":1301:1308   */\n      dup6\n        /* \"#utility.yul\":1297:1320   */\n      sub\n        /* \"#utility.yul\":1293:1325   */\n      slt\n        /* \"#utility.yul\":1290:1409   */\n      iszero\n      tag_280\n      jumpi\n        /* \"#utility.yul\":1328:1407   */\n      tag_281\n      tag_184\n      jump\t// in\n    tag_281:\n        /* \"#utility.yul\":1290:1409   */\n    tag_280:\n        /* \"#utility.yul\":1448:1449   */\n      0x00\n        /* \"#utility.yul\":1473:1526   */\n      tag_282\n        /* \"#utility.yul\":1518:1525   */\n      dup6\n        /* \"#utility.yul\":1509:1515   */\n      dup3\n        /* \"#utility.yul\":1498:1507   */\n      dup7\n        /* \"#utility.yul\":1494:1516   */\n      add\n        /* \"#utility.yul\":1473:1526   */\n      tag_189\n      jump\t// in\n    tag_282:\n        /* \"#utility.yul\":1463:1526   */\n      swap3\n      pop\n        /* \"#utility.yul\":1419:1536   */\n      pop\n        /* \"#utility.yul\":1575:1577   */\n      0x20\n        /* \"#utility.yul\":1601:1654   */\n      tag_283\n        /* \"#utility.yul\":1646:1653   */\n      dup6\n        /* \"#utility.yul\":1637:1643   */\n      dup3\n        /* \"#utility.yul\":1626:1635   */\n      dup7\n        /* \"#utility.yul\":1622:1644   */\n      add\n        /* \"#utility.yul\":1601:1654   */\n      tag_192\n      jump\t// in\n    tag_283:\n        /* \"#utility.yul\":1591:1654   */\n      swap2\n      pop\n        /* \"#utility.yul\":1546:1664   */\n      pop\n        /* \"#utility.yul\":1197:1671   */\n      swap3\n      pop\n      swap3\n      swap1\n      pop\n      jump\t// out\n        /* \"#utility.yul\":1677:1795   */\n    tag_193:\n        /* \"#utility.yul\":1764:1788   */\n      tag_285\n        /* \"#utility.yul\":1782:1787   */\n      dup2\n        /* \"#utility.yul\":1764:1788   */\n      tag_190\n      jump\t// in\n    tag_285:\n        /* \"#utility.yul\":1759:1762   */\n      dup3\n        /* \"#utility.yul\":1752:1789   */\n      mstore\n        /* \"#utility.yul\":1677:1795   */\n      pop\n      pop\n      jump\t// out\n        /* \"#utility.yul\":1801:2023   */\n    tag_19:\n        /* \"#utility.yul\":1894:1898   */\n      0x00\n        /* \"#utility.yul\":1932:1934   */\n      0x20\n        /* \"#utility.yul\":1921:1930   */\n      dup3\n        /* \"#utility.yul\":1917:1935   */\n      add\n        /* \"#utility.yul\":1909:1935   */\n      swap1\n      pop\n        /* \"#utility.yul\":1945:2016   */\n      tag_287\n        /* \"#utility.yul\":2013:2014   */\n      0x00\n        /* \"#utility.yul\":2002:2011   */\n      dup4\n        /* \"#utility.yul\":1998:2015   */\n      add\n        /* \"#utility.yul\":1989:1995   */\n      dup5\n        /* \"#utility.yul\":1945:2016   */\n      tag_193\n      jump\t// in\n    tag_287:\n        /* \"#utility.yul\":1801:2023   */\n      swap3\n      swap2\n      pop\n      pop\n      jump\t// out\n        /* \"#utility.yul\":2029:2178   */\n    tag_194:\n        /* \"#utility.yul\":2065:2072   */\n      0x00\n        /* \"#utility.yul\":2105:2171   */\n      0xffffffff00000000000000000000000000000000000000000000000000000000\n        /* \"#utility.yul\":2098:2103   */\n      dup3\n        /* \"#utility.yul\":2094:2172   */\n      and\n        /* \"#utility.yul\":2083:2172   */\n      swap1\n      pop\n        /* \"#utility.yul\":2029:2178   */\n      swap2\n      swap1\n      pop\n      jump\t// out\n        /* \"#utility.yul\":2184:2304   */\n    tag_195:\n        /* \"#utility.yul\":2256:2279   */\n      tag_290\n        /* \"#utility.yul\":2273:2278   */\n      dup2\n        /* \"#utility.yul\":2256:2279   */\n      tag_194\n      jump\t// in\n    tag_290:\n        /* \"#utility.yul\":2249:2254   */\n      dup2\n        /* \"#utility.yul\":2246:2280   */\n      eq\n        /* \"#utility.yul\":2236:2298   */\n      tag_291\n      jumpi\n        /* \"#utility.yul\":2294:2295   */\n      0x00\n        /* \"#utility.yul\":2291:2292   */\n      0x00\n        /* \"#utility.yul\":2284:2296   */\n      revert\n        /* \"#utility.yul\":2236:2298   */\n    tag_291:\n        /* \"#utility.yul\":2184:2304   */\n      pop\n      jump\t// out\n        /* \"#utility.yul\":2310:2447   */\n    tag_196:\n        /* \"#utility.yul\":2355:2360   */\n      0x00\n        /* \"#utility.yul\":2393:2399   */\n      dup2\n        /* \"#utility.yul\":2380:2400   */\n      calldataload\n        /* \"#utility.yul\":2371:2400   */\n      swap1\n      pop\n        /* \"#utility.yul\":2409:2441   */\n      tag_293\n        /* \"#utility.yul\":2435:2440   */\n      dup2\n        /* \"#utility.yul\":2409:2441   */\n      tag_195\n      jump\t// in\n    tag_293:\n        /* \"#utility.yul\":2310:2447   */\n      swap3\n      swap2\n      pop\n      pop\n      jump\t// out\n        /* \"#utility.yul\":2453:2780   */\n    tag_22:\n        /* \"#utility.yul\":2511:2517   */\n      0x00\n        /* \"#utility.yul\":2560:2562   */\n      0x20\n        /* \"#utility.yul\":2548:2557   */\n      dup3\n        /* \"#utility.yul\":2539:2546   */\n      dup5\n        /* \"#utility.yul\":2535:2558   */\n      sub\n        /* \"#utility.yul\":2531:2563   */\n      slt\n        /* \"#utility.yul\":2528:2647   */\n      iszero\n      tag_295\n      jumpi\n        /* \"#utility.yul\":2566:2645   */\n      tag_296\n      tag_184\n      jump\t// in\n    tag_296:\n        /* \"#utility.yul\":2528:2647   */\n    tag_295:\n        /* \"#utility.yul\":2686:2687   */\n      0x00\n        /* \"#utility.yul\":2711:2763   */\n      tag_297\n        /* \"#utility.yul\":2755:2762   */\n      dup5\n        /* \"#utility.yul\":2746:2752   */\n      dup3\n        /* \"#utility.yul\":2735:2744   */\n      dup6\n        /* \"#utility.yul\":2731:2753   */\n      add\n        /* \"#utility.yul\":2711:2763   */\n      tag_196\n      jump\t// in\n    tag_297:\n        /* \"#utility.yul\":2701:2763   */\n      swap2\n      pop\n        /* \"#utility.yul\":2657:2773   */\n      pop\n        /* \"#utility.yul\":2453:2780   */\n      swap3\n      swap2\n      pop\n      pop\n      jump\t// out\n        /* \"#utility.yul\":2786:2876   */\n    tag_197:\n        /* \"#utility.yul\":2820:2827   */\n      0x00\n        /* \"#utility.yul\":2863:2868   */\n      dup2\n        /* \"#utility.yul\":2856:2869   */\n      iszero\n        /* \"#utility.yul\":2849:2870   */\n      iszero\n        /* \"#utility.yul\":2838:2870   */\n      swap1\n      pop\n        /* \"#utility.yul\":2786:2876   */\n      swap2\n      swap1\n      pop\n      jump\t// out\n        /* \"#utility.yul\":2882:2991   */\n    tag_198:\n        /* \"#utility.yul\":2963:2984   */\n      tag_300\n        /* \"#utility.yul\":2978:2983   */\n      dup2\n        /* \"#utility.yul\":2963:2984   */\n      tag_197\n      jump\t// in\n    tag_300:\n        /* \"#utility.yul\":2958:2961   */\n      dup3\n        /* \"#utility.yul\":2951:2985   */\n      mstore\n        /* \"#utility.yul\":2882:2991   */\n      pop\n      pop\n      jump\t// out\n        /* \"#utility.yul\":2997:3207   */\n    tag_25:\n        /* \"#utility.yul\":3084:3088   */\n      0x00\n        /* \"#utility.yul\":3122:3124   */\n      0x20\n        /* \"#utility.yul\":3111:3120   */\n      dup3\n        /* \"#utility.yul\":3107:3125   */\n      add\n        /* \"#utility.yul\":3099:3125   */\n      swap1\n      pop\n        /* \"#utility.yul\":3135:3200   */\n      tag_302\n        /* \"#utility.yul\":3197:3198   */\n      0x00\n        /* \"#utility.yul\":3186:3195   */\n      dup4\n        /* \"#utility.yul\":3182:3199   */\n      add\n        /* \"#utility.yul\":3173:3179   */\n      dup5\n        /* \"#utility.yul\":3135:3200   */\n      tag_198\n      jump\t// in\n    tag_302:\n        /* \"#utility.yul\":2997:3207   */\n      swap3\n      swap2\n      pop\n      pop\n      jump\t// out\n        /* \"#utility.yul\":3213:3542   */\n    tag_28:\n        /* \"#utility.yul\":3272:3278   */\n      0x00\n        /* \"#utility.yul\":3321:3323   */\n      0x20\n        /* \"#utility.yul\":3309:3318   */\n      dup3\n        /* \"#utility.yul\":3300:3307   */\n      dup5\n        /* \"#utility.yul\":3296:3319   */\n      sub\n        /* \"#utility.yul\":3292:3324   */\n      slt\n        /* \"#utility.yul\":3289:3408   */\n      iszero\n      tag_304\n      jumpi\n        /* \"#utility.yul\":3327:3406   */\n      tag_305\n      tag_184\n      jump\t// in\n    tag_305:\n        /* \"#utility.yul\":3289:3408   */\n    tag_304:\n        /* \"#utility.yul\":3447:3448   */\n      0x00\n        /* \"#utility.yul\":3472:3525   */\n      tag_306\n        /* \"#utility.yul\":3517:3524   */\n      dup5\n        /* \"#utility.yul\":3508:3514   */\n      dup3\n        /* \"#utility.yul\":3497:3506   */\n      dup6\n        /* \"#utility.yul\":3493:3515   */\n      add\n        /* \"#utility.yul\":3472:3525   */\n      tag_192\n      jump\t// in\n    tag_306:\n        /* \"#utility.yul\":3462:3525   */\n      swap2\n      pop\n        /* \"#utility.yul\":3418:3535   */\n      pop\n        /* \"#utility.yul\":3213:3542   */\n      swap3\n      swap2\n      pop\n      pop\n      jump\t// out\n        /* \"#utility.yul\":3548:3647   */\n    tag_199:\n        /* \"#utility.yul\":3600:3606   */\n      0x00\n        /* \"#utility.yul\":3634:3639   */\n      dup2\n        /* \"#utility.yul\":3628:3640   */\n      mload\n        /* \"#utility.yul\":3618:3640   */\n      swap1\n      pop\n        /* \"#utility.yul\":3548:3647   */\n      swap2\n      swap1\n      pop\n      jump\t// out\n        /* \"#utility.yul\":3653:3822   */\n    tag_200:\n        /* \"#utility.yul\":3737:3748   */\n      0x00\n        /* \"#utility.yul\":3771:3777   */\n      dup3\n        /* \"#utility.yul\":3766:3769   */\n      dup3\n        /* \"#utility.yul\":3759:3778   */\n      mstore\n        /* \"#utility.yul\":3811:3815   */\n      0x20\n        /* \"#utility.yul\":3806:3809   */\n      dup3\n        /* \"#utility.yul\":3802:3816   */\n      add\n        /* \"#utility.yul\":3787:3816   */\n      swap1\n      pop\n        /* \"#utility.yul\":3653:3822   */\n      swap3\n      swap2\n      pop\n      pop\n      jump\t// out\n        /* \"#utility.yul\":3828:3967   */\n    tag_201:\n        /* \"#utility.yul\":3917:3923   */\n      dup3\n        /* \"#utility.yul\":3912:3915   */\n      dup2\n        /* \"#utility.yul\":3907:3910   */\n      dup4\n        /* \"#utility.yul\":3901:3924   */\n      mcopy\n        /* \"#utility.yul\":3958:3959   */\n      0x00\n        /* \"#utility.yul\":3949:3955   */\n      dup4\n        /* \"#utility.yul\":3944:3947   */\n      dup4\n        /* \"#utility.yul\":3940:3956   */\n      add\n        /* \"#utility.yul\":3933:3960   */\n      mstore\n        /* \"#utility.yul\":3828:3967   */\n      pop\n      pop\n      pop\n      jump\t// out\n        /* \"#utility.yul\":3973:4075   */\n    tag_202:\n        /* \"#utility.yul\":4014:4020   */\n      0x00\n        /* \"#utility.yul\":4065:4067   */\n      0x1f\n        /* \"#utility.yul\":4061:4068   */\n      not\n        /* \"#utility.yul\":4056:4058   */\n      0x1f\n        /* \"#utility.yul\":4049:4054   */\n      dup4\n        /* \"#utility.yul\":4045:4059   */\n      add\n        /* \"#utility.yul\":4041:4069   */\n      and\n        /* \"#utility.yul\":4031:4069   */\n      swap1\n      pop\n        /* \"#utility.yul\":3973:4075   */\n      swap2\n      swap1\n      pop\n      jump\t// out\n        /* \"#utility.yul\":4081:4458   */\n    tag_203:\n        /* \"#utility.yul\":4169:4172   */\n      0x00\n        /* \"#utility.yul\":4197:4236   */\n      tag_312\n        /* \"#utility.yul\":4230:4235   */\n      dup3\n        /* \"#utility.yul\":4197:4236   */\n      tag_199\n      jump\t// in\n    tag_312:\n        /* \"#utility.yul\":4252:4323   */\n      tag_313\n        /* \"#utility.yul\":4316:4322   */\n      dup2\n        /* \"#utility.yul\":4311:4314   */\n      dup6\n        /* \"#utility.yul\":4252:4323   */\n      tag_200\n      jump\t// in\n    tag_313:\n        /* \"#utility.yul\":4245:4323   */\n      swap4\n      pop\n        /* \"#utility.yul\":4332:4397   */\n      tag_314\n        /* \"#utility.yul\":4390:4396   */\n      dup2\n        /* \"#utility.yul\":4385:4388   */\n      dup6\n        /* \"#utility.yul\":4378:4382   */\n      0x20\n        /* \"#utility.yul\":4371:4376   */\n      dup7\n        /* \"#utility.yul\":4367:4383   */\n      add\n        /* \"#utility.yul\":4332:4397   */\n      tag_201\n      jump\t// in\n    tag_314:\n        /* \"#utility.yul\":4422:4451   */\n      tag_315\n        /* \"#utility.yul\":4444:4450   */\n      dup2\n        /* \"#utility.yul\":4422:4451   */\n      tag_202\n      jump\t// in\n    tag_315:\n        /* \"#utility.yul\":4417:4420   */\n      dup5\n        /* \"#utility.yul\":4413:4452   */\n      add\n        /* \"#utility.yul\":4406:4452   */\n      swap2\n      pop\n        /* \"#utility.yul\":4173:4458   */\n      pop\n        /* \"#utility.yul\":4081:4458   */\n      swap3\n      swap2\n      pop\n      pop\n      jump\t// out\n        /* \"#utility.yul\":4464:4777   */\n    tag_31:\n        /* \"#utility.yul\":4577:4581   */\n      0x00\n        /* \"#utility.yul\":4615:4617   */\n      0x20\n        /* \"#utility.yul\":4604:4613   */\n      dup3\n        /* \"#utility.yul\":4600:4618   */\n      add\n        /* \"#utility.yul\":4592:4618   */\n      swap1\n      pop\n        /* \"#utility.yul\":4664:4673   */\n      dup2\n        /* \"#utility.yul\":4658:4662   */\n      dup2\n        /* \"#utility.yul\":4654:4674   */\n      sub\n        /* \"#utility.yul\":4650:4651   */\n      0x00\n        /* \"#utility.yul\":4639:4648   */\n      dup4\n        /* \"#utility.yul\":4635:4652   */\n      add\n        /* \"#utility.yul\":4628:4675   */\n      mstore\n        /* \"#utility.yul\":4692:4770   */\n      tag_317\n        /* \"#utility.yul\":4765:4769   */\n      dup2\n        /* \"#utility.yul\":4756:4762   */\n      dup5\n        /* \"#utility.yul\":4692:4770   */\n      tag_203\n      jump\t// in\n    tag_317:\n        /* \"#utility.yul\":4684:4770   */\n      swap1\n      pop\n        /* \"#utility.yul\":4464:4777   */\n      swap3\n      swap2\n      pop\n      pop\n      jump\t// out\n        /* \"#utility.yul\":4783:5548   */\n    tag_34:\n        /* \"#utility.yul\":4869:4875   */\n      0x00\n        /* \"#utility.yul\":4877:4883   */\n      0x00\n        /* \"#utility.yul\":4885:4891   */\n      0x00\n        /* \"#utility.yul\":4893:4899   */\n      0x00\n        /* \"#utility.yul\":4942:4945   */\n      0x80\n        /* \"#utility.yul\":4930:4939   */\n      dup6\n        /* \"#utility.yul\":4921:4928   */\n      dup8\n        /* \"#utility.yul\":4917:4940   */\n      sub\n        /* \"#utility.yul\":4913:4946   */\n      slt\n        /* \"#utility.yul\":4910:5030   */\n      iszero\n      tag_319\n      jumpi\n        /* \"#utility.yul\":4949:5028   */\n      tag_320\n      tag_184\n      jump\t// in\n    tag_320:\n        /* \"#utility.yul\":4910:5030   */\n    tag_319:\n        /* \"#utility.yul\":5069:5070   */\n      0x00\n        /* \"#utility.yul\":5094:5147   */\n      tag_321\n        /* \"#utility.yul\":5139:5146   */\n      dup8\n        /* \"#utility.yul\":5130:5136   */\n      dup3\n        /* \"#utility.yul\":5119:5128   */\n      dup9\n        /* \"#utility.yul\":5115:5137   */\n      add\n        /* \"#utility.yul\":5094:5147   */\n      tag_189\n      jump\t// in\n    tag_321:\n        /* \"#utility.yul\":5084:5147   */\n      swap5\n      pop\n        /* \"#utility.yul\":5040:5157   */\n      pop\n        /* \"#utility.yul\":5196:5198   */\n      0x20\n        /* \"#utility.yul\":5222:5275   */\n      tag_322\n        /* \"#utility.yul\":5267:5274   */\n      dup8\n        /* \"#utility.yul\":5258:5264   */\n      dup3\n        /* \"#utility.yul\":5247:5256   */\n      dup9\n        /* \"#utility.yul\":5243:5265   */\n      add\n        /* \"#utility.yul\":5222:5275   */\n      tag_189\n      jump\t// in\n    tag_322:\n        /* \"#utility.yul\":5212:5275   */\n      swap4\n      pop\n        /* \"#utility.yul\":5167:5285   */\n      pop\n        /* \"#utility.yul\":5324:5326   */\n      0x40\n        /* \"#utility.yul\":5350:5403   */\n      tag_323\n        /* \"#utility.yul\":5395:5402   */\n      dup8\n        /* \"#utility.yul\":5386:5392   */\n      dup3\n        /* \"#utility.yul\":5375:5384   */\n      dup9\n        /* \"#utility.yul\":5371:5393   */\n      add\n        /* \"#utility.yul\":5350:5403   */\n      tag_192\n      jump\t// in\n    tag_323:\n        /* \"#utility.yul\":5340:5403   */\n      swap3\n      pop\n        /* \"#utility.yul\":5295:5413   */\n      pop\n        /* \"#utility.yul\":5452:5454   */\n      0x60\n        /* \"#utility.yul\":5478:5531   */\n      tag_324\n        /* \"#utility.yul\":5523:5530   */\n      dup8\n        /* \"#utility.yul\":5514:5520   */\n      dup3\n        /* \"#utility.yul\":5503:5512   */\n      dup9\n        /* \"#utility.yul\":5499:5521   */\n      add\n        /* \"#utility.yul\":5478:5531   */\n      tag_192\n      jump\t// in\n    tag_324:\n        /* \"#utility.yul\":5468:5531   */\n      swap2\n      pop\n        /* \"#utility.yul\":5423:5541   */\n      pop\n        /* \"#utility.yul\":4783:5548   */\n      swap3\n      swap6\n      swap2\n      swap5\n      pop\n      swap3\n      pop\n      jump\t// out\n        /* \"#utility.yul\":5554:5671   */\n    tag_204:\n        /* \"#utility.yul\":5663:5664   */\n      0x00\n        /* \"#utility.yul\":5660:5661   */\n      0x00\n        /* \"#utility.yul\":5653:5665   */\n      revert\n        /* \"#utility.yul\":5677:5794   */\n    tag_205:\n        /* \"#utility.yul\":5786:5787   */\n      0x00\n        /* \"#utility.yul\":5783:5784   */\n      0x00\n        /* \"#utility.yul\":5776:5788   */\n      revert\n        /* \"#utility.yul\":5800:5917   */\n    tag_206:\n        /* \"#utility.yul\":5909:5910   */\n      0x00\n        /* \"#utility.yul\":5906:5907   */\n      0x00\n        /* \"#utility.yul\":5899:5911   */\n      revert\n        /* \"#utility.yul\":5940:6508   */\n    tag_207:\n        /* \"#utility.yul\":6013:6021   */\n      0x00\n        /* \"#utility.yul\":6023:6029   */\n      0x00\n        /* \"#utility.yul\":6073:6076   */\n      dup4\n        /* \"#utility.yul\":6066:6070   */\n      0x1f\n        /* \"#utility.yul\":6058:6064   */\n      dup5\n        /* \"#utility.yul\":6054:6071   */\n      add\n        /* \"#utility.yul\":6050:6077   */\n      slt\n        /* \"#utility.yul\":6040:6162   */\n      tag_329\n      jumpi\n        /* \"#utility.yul\":6081:6160   */\n      tag_330\n      tag_204\n      jump\t// in\n    tag_330:\n        /* \"#utility.yul\":6040:6162   */\n    tag_329:\n        /* \"#utility.yul\":6194:6200   */\n      dup3\n        /* \"#utility.yul\":6181:6201   */\n      calldataload\n        /* \"#utility.yul\":6171:6201   */\n      swap1\n      pop\n        /* \"#utility.yul\":6224:6242   */\n      0xffffffffffffffff\n        /* \"#utility.yul\":6216:6222   */\n      dup2\n        /* \"#utility.yul\":6213:6243   */\n      gt\n        /* \"#utility.yul\":6210:6327   */\n      iszero\n      tag_331\n      jumpi\n        /* \"#utility.yul\":6246:6325   */\n      tag_332\n      tag_205\n      jump\t// in\n    tag_332:\n        /* \"#utility.yul\":6210:6327   */\n    tag_331:\n        /* \"#utility.yul\":6360:6364   */\n      0x20\n        /* \"#utility.yul\":6352:6358   */\n      dup4\n        /* \"#utility.yul\":6348:6365   */\n      add\n        /* \"#utility.yul\":6336:6365   */\n      swap2\n      pop\n        /* \"#utility.yul\":6414:6417   */\n      dup4\n        /* \"#utility.yul\":6406:6410   */\n      0x20\n        /* \"#utility.yul\":6398:6404   */\n      dup3\n        /* \"#utility.yul\":6394:6411   */\n      mul\n        /* \"#utility.yul\":6384:6392   */\n      dup4\n        /* \"#utility.yul\":6380:6412   */\n      add\n        /* \"#utility.yul\":6377:6418   */\n      gt\n        /* \"#utility.yul\":6374:6502   */\n      iszero\n      tag_333\n      jumpi\n        /* \"#utility.yul\":6421:6500   */\n      tag_334\n      tag_206\n      jump\t// in\n    tag_334:\n        /* \"#utility.yul\":6374:6502   */\n    tag_333:\n        /* \"#utility.yul\":5940:6508   */\n      swap3\n      pop\n      swap3\n      swap1\n      pop\n      jump\t// out\n        /* \"#utility.yul\":6531:7099   */\n    tag_208:\n        /* \"#utility.yul\":6604:6612   */\n      0x00\n        /* \"#utility.yul\":6614:6620   */\n      0x00\n        /* \"#utility.yul\":6664:6667   */\n      dup4\n        /* \"#utility.yul\":6657:6661   */\n      0x1f\n        /* \"#utility.yul\":6649:6655   */\n      dup5\n        /* \"#utility.yul\":6645:6662   */\n      add\n        /* \"#utility.yul\":6641:6668   */\n      slt\n        /* \"#utility.yul\":6631:6753   */\n      tag_336\n      jumpi\n        /* \"#utility.yul\":6672:6751   */\n      tag_337\n      tag_204\n      jump\t// in\n    tag_337:\n        /* \"#utility.yul\":6631:6753   */\n    tag_336:\n        /* \"#utility.yul\":6785:6791   */\n      dup3\n        /* \"#utility.yul\":6772:6792   */\n      calldataload\n        /* \"#utility.yul\":6762:6792   */\n      swap1\n      pop\n        /* \"#utility.yul\":6815:6833   */\n      0xffffffffffffffff\n        /* \"#utility.yul\":6807:6813   */\n      dup2\n        /* \"#utility.yul\":6804:6834   */\n      gt\n        /* \"#utility.yul\":6801:6918   */\n      iszero\n      tag_338\n      jumpi\n        /* \"#utility.yul\":6837:6916   */\n      tag_339\n      tag_205\n      jump\t// in\n    tag_339:\n        /* \"#utility.yul\":6801:6918   */\n    tag_338:\n        /* \"#utility.yul\":6951:6955   */\n      0x20\n        /* \"#utility.yul\":6943:6949   */\n      dup4\n        /* \"#utility.yul\":6939:6956   */\n      add\n        /* \"#utility.yul\":6927:6956   */\n      swap2\n      pop\n        /* \"#utility.yul\":7005:7008   */\n      dup4\n        /* \"#utility.yul\":6997:7001   */\n      0x20\n        /* \"#utility.yul\":6989:6995   */\n      dup3\n        /* \"#utility.yul\":6985:7002   */\n      mul\n        /* \"#utility.yul\":6975:6983   */\n      dup4\n        /* \"#utility.yul\":6971:7003   */\n      add\n        /* \"#utility.yul\":6968:7009   */\n      gt\n        /* \"#utility.yul\":6965:7093   */\n      iszero\n      tag_340\n      jumpi\n        /* \"#utility.yul\":7012:7091   */\n      tag_341\n      tag_206\n      jump\t// in\n    tag_341:\n        /* \"#utility.yul\":6965:7093   */\n    tag_340:\n        /* \"#utility.yul\":6531:7099   */\n      swap3\n      pop\n      swap3\n      swap1\n      pop\n      jump\t// out\n        /* \"#utility.yul\":7105:8039   */\n    tag_38:\n        /* \"#utility.yul\":7227:7233   */\n      0x00\n        /* \"#utility.yul\":7235:7241   */\n      0x00\n        /* \"#utility.yul\":7243:7249   */\n      0x00\n        /* \"#utility.yul\":7251:7257   */\n      0x00\n        /* \"#utility.yul\":7300:7302   */\n      0x40\n        /* \"#utility.yul\":7288:7297   */\n      dup6\n        /* \"#utility.yul\":7279:7286   */\n      dup8\n        /* \"#utility.yul\":7275:7298   */\n      sub\n        /* \"#utility.yul\":7271:7303   */\n      slt\n        /* \"#utility.yul\":7268:7387   */\n      iszero\n      tag_343\n      jumpi\n        /* \"#utility.yul\":7306:7385   */\n      tag_344\n      tag_184\n      jump\t// in\n    tag_344:\n        /* \"#utility.yul\":7268:7387   */\n    tag_343:\n        /* \"#utility.yul\":7454:7455   */\n      0x00\n        /* \"#utility.yul\":7443:7452   */\n      dup6\n        /* \"#utility.yul\":7439:7456   */\n      add\n        /* \"#utility.yul\":7426:7457   */\n      calldataload\n        /* \"#utility.yul\":7484:7502   */\n      0xffffffffffffffff\n        /* \"#utility.yul\":7476:7482   */\n      dup2\n        /* \"#utility.yul\":7473:7503   */\n      gt\n        /* \"#utility.yul\":7470:7587   */\n      iszero\n      tag_345\n      jumpi\n        /* \"#utility.yul\":7506:7585   */\n      tag_346\n      tag_185\n      jump\t// in\n    tag_346:\n        /* \"#utility.yul\":7470:7587   */\n    tag_345:\n        /* \"#utility.yul\":7619:7699   */\n      tag_347\n        /* \"#utility.yul\":7691:7698   */\n      dup8\n        /* \"#utility.yul\":7682:7688   */\n      dup3\n        /* \"#utility.yul\":7671:7680   */\n      dup9\n        /* \"#utility.yul\":7667:7689   */\n      add\n        /* \"#utility.yul\":7619:7699   */\n      tag_207\n      jump\t// in\n    tag_347:\n        /* \"#utility.yul\":7601:7699   */\n      swap5\n      pop\n      swap5\n      pop\n        /* \"#utility.yul\":7397:7709   */\n      pop\n        /* \"#utility.yul\":7776:7778   */\n      0x20\n        /* \"#utility.yul\":7765:7774   */\n      dup6\n        /* \"#utility.yul\":7761:7779   */\n      add\n        /* \"#utility.yul\":7748:7780   */\n      calldataload\n        /* \"#utility.yul\":7807:7825   */\n      0xffffffffffffffff\n        /* \"#utility.yul\":7799:7805   */\n      dup2\n        /* \"#utility.yul\":7796:7826   */\n      gt\n        /* \"#utility.yul\":7793:7910   */\n      iszero\n      tag_348\n      jumpi\n        /* \"#utility.yul\":7829:7908   */\n      tag_349\n      tag_185\n      jump\t// in\n    tag_349:\n        /* \"#utility.yul\":7793:7910   */\n    tag_348:\n        /* \"#utility.yul\":7942:8022   */\n      tag_350\n        /* \"#utility.yul\":8014:8021   */\n      dup8\n        /* \"#utility.yul\":8005:8011   */\n      dup3\n        /* \"#utility.yul\":7994:8003   */\n      dup9\n        /* \"#utility.yul\":7990:8012   */\n      add\n        /* \"#utility.yul\":7942:8022   */\n      tag_208\n      jump\t// in\n    tag_350:\n        /* \"#utility.yul\":7924:8022   */\n      swap3\n      pop\n      swap3\n      pop\n        /* \"#utility.yul\":7719:8032   */\n      pop\n        /* \"#utility.yul\":7105:8039   */\n      swap3\n      swap6\n      swap2\n      swap5\n      pop\n      swap3\n      pop\n      jump\t// out\n        /* \"#utility.yul\":8045:8159   */\n    tag_209:\n        /* \"#utility.yul\":8112:8118   */\n      0x00\n        /* \"#utility.yul\":8146:8151   */\n      dup2\n        /* \"#utility.yul\":8140:8152   */\n      mload\n        /* \"#utility.yul\":8130:8152   */\n      swap1\n      pop\n        /* \"#utility.yul\":8045:8159   */\n      swap2\n      swap1\n      pop\n      jump\t// out\n        /* \"#utility.yul\":8165:8349   */\n    tag_210:\n        /* \"#utility.yul\":8264:8275   */\n      0x00\n        /* \"#utility.yul\":8298:8304   */\n      dup3\n        /* \"#utility.yul\":8293:8296   */\n      dup3\n        /* \"#utility.yul\":8286:8305   */\n      mstore\n        /* \"#utility.yul\":8338:8342   */\n      0x20\n        /* \"#utility.yul\":8333:8336   */\n      dup3\n        /* \"#utility.yul\":8329:8343   */\n      add\n        /* \"#utility.yul\":8314:8343   */\n      swap1\n      pop\n        /* \"#utility.yul\":8165:8349   */\n      swap3\n      swap2\n      pop\n      pop\n      jump\t// out\n        /* \"#utility.yul\":8355:8487   */\n    tag_211:\n        /* \"#utility.yul\":8422:8426   */\n      0x00\n        /* \"#utility.yul\":8445:8448   */\n      dup2\n        /* \"#utility.yul\":8437:8448   */\n      swap1\n      pop\n        /* \"#utility.yul\":8475:8479   */\n      0x20\n        /* \"#utility.yul\":8470:8473   */\n      dup3\n        /* \"#utility.yul\":8466:8480   */\n      add\n        /* \"#utility.yul\":8458:8480   */\n      swap1\n      pop\n        /* \"#utility.yul\":8355:8487   */\n      swap2\n      swap1\n      pop\n      jump\t// out\n        /* \"#utility.yul\":8493:8601   */\n    tag_212:\n        /* \"#utility.yul\":8570:8594   */\n      tag_355\n        /* \"#utility.yul\":8588:8593   */\n      dup2\n        /* \"#utility.yul\":8570:8594   */\n      tag_190\n      jump\t// in\n    tag_355:\n        /* \"#utility.yul\":8565:8568   */\n      dup3\n        /* \"#utility.yul\":8558:8595   */\n      mstore\n        /* \"#utility.yul\":8493:8601   */\n      pop\n      pop\n      jump\t// out\n        /* \"#utility.yul\":8607:8786   */\n    tag_213:\n        /* \"#utility.yul\":8676:8686   */\n      0x00\n        /* \"#utility.yul\":8697:8743   */\n      tag_357\n        /* \"#utility.yul\":8739:8742   */\n      dup4\n        /* \"#utility.yul\":8731:8737   */\n      dup4\n        /* \"#utility.yul\":8697:8743   */\n      tag_212\n      jump\t// in\n    tag_357:\n        /* \"#utility.yul\":8775:8779   */\n      0x20\n        /* \"#utility.yul\":8770:8773   */\n      dup4\n        /* \"#utility.yul\":8766:8780   */\n      add\n        /* \"#utility.yul\":8752:8780   */\n      swap1\n      pop\n        /* \"#utility.yul\":8607:8786   */\n      swap3\n      swap2\n      pop\n      pop\n      jump\t// out\n        /* \"#utility.yul\":8792:8905   */\n    tag_214:\n        /* \"#utility.yul\":8862:8866   */\n      0x00\n        /* \"#utility.yul\":8894:8898   */\n      0x20\n        /* \"#utility.yul\":8889:8892   */\n      dup3\n        /* \"#utility.yul\":8885:8899   */\n      add\n        /* \"#utility.yul\":8877:8899   */\n      swap1\n      pop\n        /* \"#utility.yul\":8792:8905   */\n      swap2\n      swap1\n      pop\n      jump\t// out\n        /* \"#utility.yul\":8941:9673   */\n    tag_215:\n        /* \"#utility.yul\":9060:9063   */\n      0x00\n        /* \"#utility.yul\":9089:9143   */\n      tag_360\n        /* \"#utility.yul\":9137:9142   */\n      dup3\n        /* \"#utility.yul\":9089:9143   */\n      tag_209\n      jump\t// in\n    tag_360:\n        /* \"#utility.yul\":9159:9245   */\n      tag_361\n        /* \"#utility.yul\":9238:9244   */\n      dup2\n        /* \"#utility.yul\":9233:9236   */\n      dup6\n        /* \"#utility.yul\":9159:9245   */\n      tag_210\n      jump\t// in\n    tag_361:\n        /* \"#utility.yul\":9152:9245   */\n      swap4\n      pop\n        /* \"#utility.yul\":9269:9325   */\n      tag_362\n        /* \"#utility.yul\":9319:9324   */\n      dup4\n        /* \"#utility.yul\":9269:9325   */\n      tag_211\n      jump\t// in\n    tag_362:\n        /* \"#utility.yul\":9348:9355   */\n      dup1\n        /* \"#utility.yul\":9379:9380   */\n      0x00\n        /* \"#utility.yul\":9364:9648   */\n    tag_363:\n        /* \"#utility.yul\":9389:9395   */\n      dup4\n        /* \"#utility.yul\":9386:9387   */\n      dup2\n        /* \"#utility.yul\":9383:9396   */\n      lt\n        /* \"#utility.yul\":9364:9648   */\n      iszero\n      tag_365\n      jumpi\n        /* \"#utility.yul\":9465:9471   */\n      dup2\n        /* \"#utility.yul\":9459:9472   */\n      mload\n        /* \"#utility.yul\":9492:9555   */\n      tag_366\n        /* \"#utility.yul\":9551:9554   */\n      dup9\n        /* \"#utility.yul\":9536:9549   */\n      dup3\n        /* \"#utility.yul\":9492:9555   */\n      tag_213\n      jump\t// in\n    tag_366:\n        /* \"#utility.yul\":9485:9555   */\n      swap8\n      pop\n        /* \"#utility.yul\":9578:9638   */\n      tag_367\n        /* \"#utility.yul\":9631:9637   */\n      dup4\n        /* \"#utility.yul\":9578:9638   */\n      tag_214\n      jump\t// in\n    tag_367:\n        /* \"#utility.yul\":9568:9638   */\n      swap3\n      pop\n        /* \"#utility.yul\":9424:9648   */\n      pop\n        /* \"#utility.yul\":9411:9412   */\n      0x01\n        /* \"#utility.yul\":9408:9409   */\n      dup2\n        /* \"#utility.yul\":9404:9413   */\n      add\n        /* \"#utility.yul\":9399:9413   */\n      swap1\n      pop\n        /* \"#utility.yul\":9364:9648   */\n      jump(tag_363)\n    tag_365:\n        /* \"#utility.yul\":9368:9382   */\n      pop\n        /* \"#utility.yul\":9664:9667   */\n      dup6\n        /* \"#utility.yul\":9657:9667   */\n      swap4\n      pop\n        /* \"#utility.yul\":9065:9673   */\n      pop\n      pop\n      pop\n        /* \"#utility.yul\":8941:9673   */\n      swap3\n      swap2\n      pop\n      pop\n      jump\t// out\n        /* \"#utility.yul\":9679:10052   */\n    tag_41:\n        /* \"#utility.yul\":9822:9826   */\n      0x00\n        /* \"#utility.yul\":9860:9862   */\n      0x20\n        /* \"#utility.yul\":9849:9858   */\n      dup3\n        /* \"#utility.yul\":9845:9863   */\n      add\n        /* \"#utility.yul\":9837:9863   */\n      swap1\n      pop\n        /* \"#utility.yul\":9909:9918   */\n      dup2\n        /* \"#utility.yul\":9903:9907   */\n      dup2\n        /* \"#utility.yul\":9899:9919   */\n      sub\n        /* \"#utility.yul\":9895:9896   */\n      0x00\n        /* \"#utility.yul\":9884:9893   */\n      dup4\n        /* \"#utility.yul\":9880:9897   */\n      add\n        /* \"#utility.yul\":9873:9920   */\n      mstore\n        /* \"#utility.yul\":9937:10045   */\n      tag_369\n        /* \"#utility.yul\":10040:10044   */\n      dup2\n        /* \"#utility.yul\":10031:10037   */\n      dup5\n        /* \"#utility.yul\":9937:10045   */\n      tag_215\n      jump\t// in\n    tag_369:\n        /* \"#utility.yul\":9929:10045   */\n      swap1\n      pop\n        /* \"#utility.yul\":9679:10052   */\n      swap3\n      swap2\n      pop\n      pop\n      jump\t// out\n        /* \"#utility.yul\":10058:10174   */\n    tag_216:\n        /* \"#utility.yul\":10128:10149   */\n      tag_371\n        /* \"#utility.yul\":10143:10148   */\n      dup2\n        /* \"#utility.yul\":10128:10149   */\n      tag_197\n      jump\t// in\n    tag_371:\n        /* \"#utility.yul\":10121:10126   */\n      dup2\n        /* \"#utility.yul\":10118:10150   */\n      eq\n        /* \"#utility.yul\":10108:10168   */\n      tag_372\n      jumpi\n        /* \"#utility.yul\":10164:10165   */\n      0x00\n        /* \"#utility.yul\":10161:10162   */\n      0x00\n        /* \"#utility.yul\":10154:10166   */\n      revert\n        /* \"#utility.yul\":10108:10168   */\n    tag_372:\n        /* \"#utility.yul\":10058:10174   */\n      pop\n      jump\t// out\n        /* \"#utility.yul\":10180:10313   */\n    tag_217:\n        /* \"#utility.yul\":10223:10228   */\n      0x00\n        /* \"#utility.yul\":10261:10267   */\n      dup2\n        /* \"#utility.yul\":10248:10268   */\n      calldataload\n        /* \"#utility.yul\":10239:10268   */\n      swap1\n      pop\n        /* \"#utility.yul\":10277:10307   */\n      tag_374\n        /* \"#utility.yul\":10301:10306   */\n      dup2\n        /* \"#utility.yul\":10277:10307   */\n      tag_216\n      jump\t// in\n    tag_374:\n        /* \"#utility.yul\":10180:10313   */\n      swap3\n      swap2\n      pop\n      pop\n      jump\t// out\n        /* \"#utility.yul\":10319:10787   */\n    tag_44:\n        /* \"#utility.yul\":10384:10390   */\n      0x00\n        /* \"#utility.yul\":10392:10398   */\n      0x00\n        /* \"#utility.yul\":10441:10443   */\n      0x40\n        /* \"#utility.yul\":10429:10438   */\n      dup4\n        /* \"#utility.yul\":10420:10427   */\n      dup6\n        /* \"#utility.yul\":10416:10439   */\n      sub\n        /* \"#utility.yul\":10412:10444   */\n      slt\n        /* \"#utility.yul\":10409:10528   */\n      iszero\n      tag_376\n      jumpi\n        /* \"#utility.yul\":10447:10526   */\n      tag_377\n      tag_184\n      jump\t// in\n    tag_377:\n        /* \"#utility.yul\":10409:10528   */\n    tag_376:\n        /* \"#utility.yul\":10567:10568   */\n      0x00\n        /* \"#utility.yul\":10592:10645   */\n      tag_378\n        /* \"#utility.yul\":10637:10644   */\n      dup6\n        /* \"#utility.yul\":10628:10634   */\n      dup3\n        /* \"#utility.yul\":10617:10626   */\n      dup7\n        /* \"#utility.yul\":10613:10635   */\n      add\n        /* \"#utility.yul\":10592:10645   */\n      tag_189\n      jump\t// in\n    tag_378:\n        /* \"#utility.yul\":10582:10645   */\n      swap3\n      pop\n        /* \"#utility.yul\":10538:10655   */\n      pop\n        /* \"#utility.yul\":10694:10696   */\n      0x20\n        /* \"#utility.yul\":10720:10770   */\n      tag_379\n        /* \"#utility.yul\":10762:10769   */\n      dup6\n        /* \"#utility.yul\":10753:10759   */\n      dup3\n        /* \"#utility.yul\":10742:10751   */\n      dup7\n        /* \"#utility.yul\":10738:10760   */\n      add\n        /* \"#utility.yul\":10720:10770   */\n      tag_217\n      jump\t// in\n    tag_379:\n        /* \"#utility.yul\":10710:10770   */\n      swap2\n      pop\n        /* \"#utility.yul\":10665:10780   */\n      pop\n        /* \"#utility.yul\":10319:10787   */\n      swap3\n      pop\n      swap3\n      swap1\n      pop\n      jump\t// out\n        /* \"#utility.yul\":10809:11389   */\n    tag_218:\n        /* \"#utility.yul\":10894:10902   */\n      0x00\n        /* \"#utility.yul\":10904:10910   */\n      0x00\n        /* \"#utility.yul\":10954:10957   */\n      dup4\n        /* \"#utility.yul\":10947:10951   */\n      0x1f\n        /* \"#utility.yul\":10939:10945   */\n      dup5\n        /* \"#utility.yul\":10935:10952   */\n      add\n        /* \"#utility.yul\":10931:10958   */\n      slt\n        /* \"#utility.yul\":10921:11043   */\n      tag_381\n      jumpi\n        /* \"#utility.yul\":10962:11041   */\n      tag_382\n      tag_204\n      jump\t// in\n    tag_382:\n        /* \"#utility.yul\":10921:11043   */\n    tag_381:\n        /* \"#utility.yul\":11075:11081   */\n      dup3\n        /* \"#utility.yul\":11062:11082   */\n      calldataload\n        /* \"#utility.yul\":11052:11082   */\n      swap1\n      pop\n        /* \"#utility.yul\":11105:11123   */\n      0xffffffffffffffff\n        /* \"#utility.yul\":11097:11103   */\n      dup2\n        /* \"#utility.yul\":11094:11124   */\n      gt\n        /* \"#utility.yul\":11091:11208   */\n      iszero\n      tag_383\n      jumpi\n        /* \"#utility.yul\":11127:11206   */\n      tag_384\n      tag_205\n      jump\t// in\n    tag_384:\n        /* \"#utility.yul\":11091:11208   */\n    tag_383:\n        /* \"#utility.yul\":11241:11245   */\n      0x20\n        /* \"#utility.yul\":11233:11239   */\n      dup4\n        /* \"#utility.yul\":11229:11246   */\n      add\n        /* \"#utility.yul\":11217:11246   */\n      swap2\n      pop\n        /* \"#utility.yul\":11295:11298   */\n      dup4\n        /* \"#utility.yul\":11287:11291   */\n      0x20\n        /* \"#utility.yul\":11279:11285   */\n      dup3\n        /* \"#utility.yul\":11275:11292   */\n      mul\n        /* \"#utility.yul\":11265:11273   */\n      dup4\n        /* \"#utility.yul\":11261:11293   */\n      add\n        /* \"#utility.yul\":11258:11299   */\n      gt\n        /* \"#utility.yul\":11255:11383   */\n      iszero\n      tag_385\n      jumpi\n        /* \"#utility.yul\":11302:11381   */\n      tag_386\n      tag_206\n      jump\t// in\n    tag_386:\n        /* \"#utility.yul\":11255:11383   */\n    tag_385:\n        /* \"#utility.yul\":10809:11389   */\n      swap3\n      pop\n      swap3\n      swap1\n      pop\n      jump\t// out\n        /* \"#utility.yul\":11395:12874   */\n    tag_48:\n        /* \"#utility.yul\":11574:11580   */\n      0x00\n        /* \"#utility.yul\":11582:11588   */\n      0x00\n        /* \"#utility.yul\":11590:11596   */\n      0x00\n        /* \"#utility.yul\":11598:11604   */\n      0x00\n        /* \"#utility.yul\":11606:11612   */\n      0x00\n        /* \"#utility.yul\":11614:11620   */\n      0x00\n        /* \"#utility.yul\":11622:11628   */\n      0x00\n        /* \"#utility.yul\":11671:11674   */\n      0x80\n        /* \"#utility.yul\":11659:11668   */\n      dup9\n        /* \"#utility.yul\":11650:11657   */\n      dup11\n        /* \"#utility.yul\":11646:11669   */\n      sub\n        /* \"#utility.yul\":11642:11675   */\n      slt\n        /* \"#utility.yul\":11639:11759   */\n      iszero\n      tag_388\n      jumpi\n        /* \"#utility.yul\":11678:11757   */\n      tag_389\n      tag_184\n      jump\t// in\n    tag_389:\n        /* \"#utility.yul\":11639:11759   */\n    tag_388:\n        /* \"#utility.yul\":11798:11799   */\n      0x00\n        /* \"#utility.yul\":11823:11876   */\n      tag_390\n        /* \"#utility.yul\":11868:11875   */\n      dup11\n        /* \"#utility.yul\":11859:11865   */\n      dup3\n        /* \"#utility.yul\":11848:11857   */\n      dup12\n        /* \"#utility.yul\":11844:11866   */\n      add\n        /* \"#utility.yul\":11823:11876   */\n      tag_189\n      jump\t// in\n    tag_390:\n        /* \"#utility.yul\":11813:11876   */\n      swap8\n      pop\n        /* \"#utility.yul\":11769:11886   */\n      pop\n        /* \"#utility.yul\":11953:11955   */\n      0x20\n        /* \"#utility.yul\":11942:11951   */\n      dup9\n        /* \"#utility.yul\":11938:11956   */\n      add\n        /* \"#utility.yul\":11925:11957   */\n      calldataload\n        /* \"#utility.yul\":11984:12002   */\n      0xffffffffffffffff\n        /* \"#utility.yul\":11976:11982   */\n      dup2\n        /* \"#utility.yul\":11973:12003   */\n      gt\n        /* \"#utility.yul\":11970:12087   */\n      iszero\n      tag_391\n      jumpi\n        /* \"#utility.yul\":12006:12085   */\n      tag_392\n      tag_185\n      jump\t// in\n    tag_392:\n        /* \"#utility.yul\":11970:12087   */\n    tag_391:\n        /* \"#utility.yul\":12119:12199   */\n      tag_393\n        /* \"#utility.yul\":12191:12198   */\n      dup11\n        /* \"#utility.yul\":12182:12188   */\n      dup3\n        /* \"#utility.yul\":12171:12180   */\n      dup12\n        /* \"#utility.yul\":12167:12189   */\n      add\n        /* \"#utility.yul\":12119:12199   */\n      tag_208\n      jump\t// in\n    tag_393:\n        /* \"#utility.yul\":12101:12199   */\n      swap7\n      pop\n      swap7\n      pop\n        /* \"#utility.yul\":11896:12209   */\n      pop\n        /* \"#utility.yul\":12276:12278   */\n      0x40\n        /* \"#utility.yul\":12265:12274   */\n      dup9\n        /* \"#utility.yul\":12261:12279   */\n      add\n        /* \"#utility.yul\":12248:12280   */\n      calldataload\n        /* \"#utility.yul\":12307:12325   */\n      0xffffffffffffffff\n        /* \"#utility.yul\":12299:12305   */\n      dup2\n        /* \"#utility.yul\":12296:12326   */\n      gt\n        /* \"#utility.yul\":12293:12410   */\n      iszero\n      tag_394\n      jumpi\n        /* \"#utility.yul\":12329:12408   */\n      tag_395\n      tag_185\n      jump\t// in\n    tag_395:\n        /* \"#utility.yul\":12293:12410   */\n    tag_394:\n        /* \"#utility.yul\":12442:12522   */\n      tag_396\n        /* \"#utility.yul\":12514:12521   */\n      dup11\n        /* \"#utility.yul\":12505:12511   */\n      dup3\n        /* \"#utility.yul\":12494:12503   */\n      dup12\n        /* \"#utility.yul\":12490:12512   */\n      add\n        /* \"#utility.yul\":12442:12522   */\n      tag_208\n      jump\t// in\n    tag_396:\n        /* \"#utility.yul\":12424:12522   */\n      swap5\n      pop\n      swap5\n      pop\n        /* \"#utility.yul\":12219:12532   */\n      pop\n        /* \"#utility.yul\":12599:12601   */\n      0x60\n        /* \"#utility.yul\":12588:12597   */\n      dup9\n        /* \"#utility.yul\":12584:12602   */\n      add\n        /* \"#utility.yul\":12571:12603   */\n      calldataload\n        /* \"#utility.yul\":12630:12648   */\n      0xffffffffffffffff\n        /* \"#utility.yul\":12622:12628   */\n      dup2\n        /* \"#utility.yul\":12619:12649   */\n      gt\n        /* \"#utility.yul\":12616:12733   */\n      iszero\n      tag_397\n      jumpi\n        /* \"#utility.yul\":12652:12731   */\n      tag_398\n      tag_185\n      jump\t// in\n    tag_398:\n        /* \"#utility.yul\":12616:12733   */\n    tag_397:\n        /* \"#utility.yul\":12765:12857   */\n      tag_399\n        /* \"#utility.yul\":12849:12856   */\n      dup11\n        /* \"#utility.yul\":12840:12846   */\n      dup3\n        /* \"#utility.yul\":12829:12838   */\n      dup12\n        /* \"#utility.yul\":12825:12847   */\n      add\n        /* \"#utility.yul\":12765:12857   */\n      tag_218\n      jump\t// in\n    tag_399:\n        /* \"#utility.yul\":12747:12857   */\n      swap3\n      pop\n      swap3\n      pop\n        /* \"#utility.yul\":12542:12867   */\n      pop\n        /* \"#utility.yul\":11395:12874   */\n      swap3\n      swap6\n      swap9\n      swap2\n      swap5\n      swap8\n      pop\n      swap3\n      swap6\n      pop\n      jump\t// out\n        /* \"#utility.yul\":12880:12997   */\n    tag_219:\n        /* \"#utility.yul\":12989:12990   */\n      0x00\n        /* \"#utility.yul\":12986:12987   */\n      0x00\n        /* \"#utility.yul\":12979:12991   */\n      revert\n        /* \"#utility.yul\":13003:13183   */\n    tag_98:\n        /* \"#utility.yul\":13051:13128   */\n      0x4e487b7100000000000000000000000000000000000000000000000000000000\n        /* \"#utility.yul\":13048:13049   */\n      0x00\n        /* \"#utility.yul\":13041:13129   */\n      mstore\n        /* \"#utility.yul\":13148:13152   */\n      0x41\n        /* \"#utility.yul\":13145:13146   */\n      0x04\n        /* \"#utility.yul\":13138:13153   */\n      mstore\n        /* \"#utility.yul\":13172:13176   */\n      0x24\n        /* \"#utility.yul\":13169:13170   */\n      0x00\n        /* \"#utility.yul\":13162:13177   */\n      revert\n        /* \"#utility.yul\":13189:13470   */\n    tag_220:\n        /* \"#utility.yul\":13272:13299   */\n      tag_403\n        /* \"#utility.yul\":13294:13298   */\n      dup3\n        /* \"#utility.yul\":13272:13299   */\n      tag_202\n      jump\t// in\n    tag_403:\n        /* \"#utility.yul\":13264:13270   */\n      dup2\n        /* \"#utility.yul\":13260:13300   */\n      add\n        /* \"#utility.yul\":13402:13408   */\n      dup2\n        /* \"#utility.yul\":13390:13400   */\n      dup2\n        /* \"#utility.yul\":13387:13409   */\n      lt\n        /* \"#utility.yul\":13366:13384   */\n      0xffffffffffffffff\n        /* \"#utility.yul\":13354:13364   */\n      dup3\n        /* \"#utility.yul\":13351:13385   */\n      gt\n        /* \"#utility.yul\":13348:13410   */\n      or\n        /* \"#utility.yul\":13345:13433   */\n      iszero\n      tag_404\n      jumpi\n        /* \"#utility.yul\":13413:13431   */\n      tag_405\n      tag_98\n      jump\t// in\n    tag_405:\n        /* \"#utility.yul\":13345:13433   */\n    tag_404:\n        /* \"#utility.yul\":13453:13463   */\n      dup1\n        /* \"#utility.yul\":13449:13451   */\n      0x40\n        /* \"#utility.yul\":13442:13464   */\n      mstore\n        /* \"#utility.yul\":13232:13470   */\n      pop\n        /* \"#utility.yul\":13189:13470   */\n      pop\n      pop\n      jump\t// out\n        /* \"#utility.yul\":13476:13605   */\n    tag_221:\n        /* \"#utility.yul\":13510:13516   */\n      0x00\n        /* \"#utility.yul\":13537:13557   */\n      tag_407\n      tag_183\n      jump\t// in\n    tag_407:\n        /* \"#utility.yul\":13527:13557   */\n      swap1\n      pop\n        /* \"#utility.yul\":13566:13599   */\n      tag_408\n        /* \"#utility.yul\":13594:13598   */\n      dup3\n        /* \"#utility.yul\":13586:13592   */\n      dup3\n        /* \"#utility.yul\":13566:13599   */\n      tag_220\n      jump\t// in\n    tag_408:\n        /* \"#utility.yul\":13476:13605   */\n      swap2\n      swap1\n      pop\n      jump\t// out\n        /* \"#utility.yul\":13611:13919   */\n    tag_222:\n        /* \"#utility.yul\":13673:13677   */\n      0x00\n        /* \"#utility.yul\":13763:13781   */\n      0xffffffffffffffff\n        /* \"#utility.yul\":13755:13761   */\n      dup3\n        /* \"#utility.yul\":13752:13782   */\n      gt\n        /* \"#utility.yul\":13749:13805   */\n      iszero\n      tag_410\n      jumpi\n        /* \"#utility.yul\":13785:13803   */\n      tag_411\n      tag_98\n      jump\t// in\n    tag_411:\n        /* \"#utility.yul\":13749:13805   */\n    tag_410:\n        /* \"#utility.yul\":13823:13852   */\n      tag_412\n        /* \"#utility.yul\":13845:13851   */\n      dup3\n        /* \"#utility.yul\":13823:13852   */\n      tag_202\n      jump\t// in\n    tag_412:\n        /* \"#utility.yul\":13815:13852   */\n      swap1\n      pop\n        /* \"#utility.yul\":13907:13911   */\n      0x20\n        /* \"#utility.yul\":13901:13905   */\n      dup2\n        /* \"#utility.yul\":13897:13912   */\n      add\n        /* \"#utility.yul\":13889:13912   */\n      swap1\n      pop\n        /* \"#utility.yul\":13611:13919   */\n      swap2\n      swap1\n      pop\n      jump\t// out\n        /* \"#utility.yul\":13925:14073   */\n    tag_223:\n        /* \"#utility.yul\":14023:14029   */\n      dup3\n        /* \"#utility.yul\":14018:14021   */\n      dup2\n        /* \"#utility.yul\":14013:14016   */\n      dup4\n        /* \"#utility.yul\":14000:14030   */\n      calldatacopy\n        /* \"#utility.yul\":14064:14065   */\n      0x00\n        /* \"#utility.yul\":14055:14061   */\n      dup4\n        /* \"#utility.yul\":14050:14053   */\n      dup4\n        /* \"#utility.yul\":14046:14062   */\n      add\n        /* \"#utility.yul\":14039:14066   */\n      mstore\n        /* \"#utility.yul\":13925:14073   */\n      pop\n      pop\n      pop\n      jump\t// out\n        /* \"#utility.yul\":14079:14504   */\n    tag_224:\n        /* \"#utility.yul\":14157:14162   */\n      0x00\n        /* \"#utility.yul\":14182:14248   */\n      tag_415\n        /* \"#utility.yul\":14198:14247   */\n      tag_416\n        /* \"#utility.yul\":14240:14246   */\n      dup5\n        /* \"#utility.yul\":14198:14247   */\n      tag_222\n      jump\t// in\n    tag_416:\n        /* \"#utility.yul\":14182:14248   */\n      tag_221\n      jump\t// in\n    tag_415:\n        /* \"#utility.yul\":14173:14248   */\n      swap1\n      pop\n        /* \"#utility.yul\":14271:14277   */\n      dup3\n        /* \"#utility.yul\":14264:14269   */\n      dup2\n        /* \"#utility.yul\":14257:14278   */\n      mstore\n        /* \"#utility.yul\":14309:14313   */\n      0x20\n        /* \"#utility.yul\":14302:14307   */\n      dup2\n        /* \"#utility.yul\":14298:14314   */\n      add\n        /* \"#utility.yul\":14347:14350   */\n      dup5\n        /* \"#utility.yul\":14338:14344   */\n      dup5\n        /* \"#utility.yul\":14333:14336   */\n      dup5\n        /* \"#utility.yul\":14329:14345   */\n      add\n        /* \"#utility.yul\":14326:14351   */\n      gt\n        /* \"#utility.yul\":14323:14435   */\n      iszero\n      tag_417\n      jumpi\n        /* \"#utility.yul\":14354:14433   */\n      tag_418\n      tag_219\n      jump\t// in\n    tag_418:\n        /* \"#utility.yul\":14323:14435   */\n    tag_417:\n        /* \"#utility.yul\":14444:14498   */\n      tag_419\n        /* \"#utility.yul\":14491:14497   */\n      dup5\n        /* \"#utility.yul\":14486:14489   */\n      dup3\n        /* \"#utility.yul\":14481:14484   */\n      dup6\n        /* \"#utility.yul\":14444:14498   */\n      tag_223\n      jump\t// in\n    tag_419:\n        /* \"#utility.yul\":14163:14504   */\n      pop\n        /* \"#utility.yul\":14079:14504   */\n      swap4\n      swap3\n      pop\n      pop\n      pop\n      jump\t// out\n        /* \"#utility.yul\":14524:14864   */\n    tag_225:\n        /* \"#utility.yul\":14580:14585   */\n      0x00\n        /* \"#utility.yul\":14629:14632   */\n      dup3\n        /* \"#utility.yul\":14622:14626   */\n      0x1f\n        /* \"#utility.yul\":14614:14620   */\n      dup4\n        /* \"#utility.yul\":14610:14627   */\n      add\n        /* \"#utility.yul\":14606:14633   */\n      slt\n        /* \"#utility.yul\":14596:14718   */\n      tag_421\n      jumpi\n        /* \"#utility.yul\":14637:14716   */\n      tag_422\n      tag_204\n      jump\t// in\n    tag_422:\n        /* \"#utility.yul\":14596:14718   */\n    tag_421:\n        /* \"#utility.yul\":14754:14760   */\n      dup2\n        /* \"#utility.yul\":14741:14761   */\n      calldataload\n        /* \"#utility.yul\":14779:14858   */\n      tag_423\n        /* \"#utility.yul\":14854:14857   */\n      dup5\n        /* \"#utility.yul\":14846:14852   */\n      dup3\n        /* \"#utility.yul\":14839:14843   */\n      0x20\n        /* \"#utility.yul\":14831:14837   */\n      dup7\n        /* \"#utility.yul\":14827:14844   */\n      add\n        /* \"#utility.yul\":14779:14858   */\n      tag_224\n      jump\t// in\n    tag_423:\n        /* \"#utility.yul\":14770:14858   */\n      swap2\n      pop\n        /* \"#utility.yul\":14586:14864   */\n      pop\n        /* \"#utility.yul\":14524:14864   */\n      swap3\n      swap2\n      pop\n      pop\n      jump\t// out\n        /* \"#utility.yul\":14870:15815   */\n    tag_52:\n        /* \"#utility.yul\":14966:14972   */\n      0x00\n        /* \"#utility.yul\":14974:14980   */\n      0x00\n        /* \"#utility.yul\":14982:14988   */\n      0x00\n        /* \"#utility.yul\":14990:14996   */\n      0x00\n        /* \"#utility.yul\":15039:15042   */\n      0x80\n        /* \"#utility.yul\":15027:15036   */\n      dup6\n        /* \"#utility.yul\":15018:15025   */\n      dup8\n        /* \"#utility.yul\":15014:15037   */\n      sub\n        /* \"#utility.yul\":15010:15043   */\n      slt\n        /* \"#utility.yul\":15007:15127   */\n      iszero\n      tag_425\n      jumpi\n        /* \"#utility.yul\":15046:15125   */\n      tag_426\n      tag_184\n      jump\t// in\n    tag_426:\n        /* \"#utility.yul\":15007:15127   */\n    tag_425:\n        /* \"#utility.yul\":15166:15167   */\n      0x00\n        /* \"#utility.yul\":15191:15244   */\n      tag_427\n        /* \"#utility.yul\":15236:15243   */\n      dup8\n        /* \"#utility.yul\":15227:15233   */\n      dup3\n        /* \"#utility.yul\":15216:15225   */\n      dup9\n        /* \"#utility.yul\":15212:15234   */\n      add\n        /* \"#utility.yul\":15191:15244   */\n      tag_189\n      jump\t// in\n    tag_427:\n        /* \"#utility.yul\":15181:15244   */\n      swap5\n      pop\n        /* \"#utility.yul\":15137:15254   */\n      pop\n        /* \"#utility.yul\":15293:15295   */\n      0x20\n        /* \"#utility.yul\":15319:15372   */\n      tag_428\n        /* \"#utility.yul\":15364:15371   */\n      dup8\n        /* \"#utility.yul\":15355:15361   */\n      dup3\n        /* \"#utility.yul\":15344:15353   */\n      dup9\n        /* \"#utility.yul\":15340:15362   */\n      add\n        /* \"#utility.yul\":15319:15372   */\n      tag_192\n      jump\t// in\n    tag_428:\n        /* \"#utility.yul\":15309:15372   */\n      swap4\n      pop\n        /* \"#utility.yul\":15264:15382   */\n      pop\n        /* \"#utility.yul\":15421:15423   */\n      0x40\n        /* \"#utility.yul\":15447:15500   */\n      tag_429\n        /* \"#utility.yul\":15492:15499   */\n      dup8\n        /* \"#utility.yul\":15483:15489   */\n      dup3\n        /* \"#utility.yul\":15472:15481   */\n      dup9\n        /* \"#utility.yul\":15468:15490   */\n      add\n        /* \"#utility.yul\":15447:15500   */\n      tag_192\n      jump\t// in\n    tag_429:\n        /* \"#utility.yul\":15437:15500   */\n      swap3\n      pop\n        /* \"#utility.yul\":15392:15510   */\n      pop\n        /* \"#utility.yul\":15577:15579   */\n      0x60\n        /* \"#utility.yul\":15566:15575   */\n      dup6\n        /* \"#utility.yul\":15562:15580   */\n      add\n        /* \"#utility.yul\":15549:15581   */\n      calldataload\n        /* \"#utility.yul\":15608:15626   */\n      0xffffffffffffffff\n        /* \"#utility.yul\":15600:15606   */\n      dup2\n        /* \"#utility.yul\":15597:15627   */\n      gt\n        /* \"#utility.yul\":15594:15711   */\n      iszero\n      tag_430\n      jumpi\n        /* \"#utility.yul\":15630:15709   */\n      tag_431\n      tag_185\n      jump\t// in\n    tag_431:\n        /* \"#utility.yul\":15594:15711   */\n    tag_430:\n        /* \"#utility.yul\":15735:15798   */\n      tag_432\n        /* \"#utility.yul\":15790:15797   */\n      dup8\n        /* \"#utility.yul\":15781:15787   */\n      dup3\n        /* \"#utility.yul\":15770:15779   */\n      dup9\n        /* \"#utility.yul\":15766:15788   */\n      add\n        /* \"#utility.yul\":15735:15798   */\n      tag_225\n      jump\t// in\n    tag_432:\n        /* \"#utility.yul\":15725:15798   */\n      swap2\n      pop\n        /* \"#utility.yul\":15520:15808   */\n      pop\n        /* \"#utility.yul\":14870:15815   */\n      swap3\n      swap6\n      swap2\n      swap5\n      pop\n      swap3\n      pop\n      jump\t// out\n        /* \"#utility.yul\":15821:16295   */\n    tag_56:\n        /* \"#utility.yul\":15889:15895   */\n      0x00\n        /* \"#utility.yul\":15897:15903   */\n      0x00\n        /* \"#utility.yul\":15946:15948   */\n      0x40\n        /* \"#utility.yul\":15934:15943   */\n      dup4\n        /* \"#utility.yul\":15925:15932   */\n      dup6\n        /* \"#utility.yul\":15921:15944   */\n      sub\n        /* \"#utility.yul\":15917:15949   */\n      slt\n        /* \"#utility.yul\":15914:16033   */\n      iszero\n      tag_434\n      jumpi\n        /* \"#utility.yul\":15952:16031   */\n      tag_435\n      tag_184\n      jump\t// in\n    tag_435:\n        /* \"#utility.yul\":15914:16033   */\n    tag_434:\n        /* \"#utility.yul\":16072:16073   */\n      0x00\n        /* \"#utility.yul\":16097:16150   */\n      tag_436\n        /* \"#utility.yul\":16142:16149   */\n      dup6\n        /* \"#utility.yul\":16133:16139   */\n      dup3\n        /* \"#utility.yul\":16122:16131   */\n      dup7\n        /* \"#utility.yul\":16118:16140   */\n      add\n        /* \"#utility.yul\":16097:16150   */\n      tag_189\n      jump\t// in\n    tag_436:\n        /* \"#utility.yul\":16087:16150   */\n      swap3\n      pop\n        /* \"#utility.yul\":16043:16160   */\n      pop\n        /* \"#utility.yul\":16199:16201   */\n      0x20\n        /* \"#utility.yul\":16225:16278   */\n      tag_437\n        /* \"#utility.yul\":16270:16277   */\n      dup6\n        /* \"#utility.yul\":16261:16267   */\n      dup3\n        /* \"#utility.yul\":16250:16259   */\n      dup7\n        /* \"#utility.yul\":16246:16268   */\n      add\n        /* \"#utility.yul\":16225:16278   */\n      tag_189\n      jump\t// in\n    tag_437:\n        /* \"#utility.yul\":16215:16278   */\n      swap2\n      pop\n        /* \"#utility.yul\":16170:16288   */\n      pop\n        /* \"#utility.yul\":15821:16295   */\n      swap3\n      pop\n      swap3\n      swap1\n      pop\n      jump\t// out\n        /* \"#utility.yul\":16301:17526   */\n    tag_61:\n        /* \"#utility.yul\":16441:16447   */\n      0x00\n        /* \"#utility.yul\":16449:16455   */\n      0x00\n        /* \"#utility.yul\":16457:16463   */\n      0x00\n        /* \"#utility.yul\":16465:16471   */\n      0x00\n        /* \"#utility.yul\":16473:16479   */\n      0x00\n        /* \"#utility.yul\":16481:16487   */\n      0x00\n        /* \"#utility.yul\":16530:16533   */\n      0x80\n        /* \"#utility.yul\":16518:16527   */\n      dup8\n        /* \"#utility.yul\":16509:16516   */\n      dup10\n        /* \"#utility.yul\":16505:16528   */\n      sub\n        /* \"#utility.yul\":16501:16534   */\n      slt\n        /* \"#utility.yul\":16498:16618   */\n      iszero\n      tag_439\n      jumpi\n        /* \"#utility.yul\":16537:16616   */\n      tag_440\n      tag_184\n      jump\t// in\n    tag_440:\n        /* \"#utility.yul\":16498:16618   */\n    tag_439:\n        /* \"#utility.yul\":16657:16658   */\n      0x00\n        /* \"#utility.yul\":16682:16735   */\n      tag_441\n        /* \"#utility.yul\":16727:16734   */\n      dup10\n        /* \"#utility.yul\":16718:16724   */\n      dup3\n        /* \"#utility.yul\":16707:16716   */\n      dup11\n        /* \"#utility.yul\":16703:16725   */\n      add\n        /* \"#utility.yul\":16682:16735   */\n      tag_189\n      jump\t// in\n    tag_441:\n        /* \"#utility.yul\":16672:16735   */\n      swap7\n      pop\n        /* \"#utility.yul\":16628:16745   */\n      pop\n        /* \"#utility.yul\":16784:16786   */\n      0x20\n        /* \"#utility.yul\":16810:16863   */\n      tag_442\n        /* \"#utility.yul\":16855:16862   */\n      dup10\n        /* \"#utility.yul\":16846:16852   */\n      dup3\n        /* \"#utility.yul\":16835:16844   */\n      dup11\n        /* \"#utility.yul\":16831:16853   */\n      add\n        /* \"#utility.yul\":16810:16863   */\n      tag_189\n      jump\t// in\n    tag_442:\n        /* \"#utility.yul\":16800:16863   */\n      swap6\n      pop\n        /* \"#utility.yul\":16755:16873   */\n      pop\n        /* \"#utility.yul\":16940:16942   */\n      0x40\n        /* \"#utility.yul\":16929:16938   */\n      dup8\n        /* \"#utility.yul\":16925:16943   */\n      add\n        /* \"#utility.yul\":16912:16944   */\n      calldataload\n        /* \"#utility.yul\":16971:16989   */\n      0xffffffffffffffff\n        /* \"#utility.yul\":16963:16969   */\n      dup2\n        /* \"#utility.yul\":16960:16990   */\n      gt\n        /* \"#utility.yul\":16957:17074   */\n      iszero\n      tag_443\n      jumpi\n        /* \"#utility.yul\":16993:17072   */\n      tag_444\n      tag_185\n      jump\t// in\n    tag_444:\n        /* \"#utility.yul\":16957:17074   */\n    tag_443:\n        /* \"#utility.yul\":17106:17186   */\n      tag_445\n        /* \"#utility.yul\":17178:17185   */\n      dup10\n        /* \"#utility.yul\":17169:17175   */\n      dup3\n        /* \"#utility.yul\":17158:17167   */\n      dup11\n        /* \"#utility.yul\":17154:17176   */\n      add\n        /* \"#utility.yul\":17106:17186   */\n      tag_208\n      jump\t// in\n    tag_445:\n        /* \"#utility.yul\":17088:17186   */\n      swap5\n      pop\n      swap5\n      pop\n        /* \"#utility.yul\":16883:17196   */\n      pop\n        /* \"#utility.yul\":17263:17265   */\n      0x60\n        /* \"#utility.yul\":17252:17261   */\n      dup8\n        /* \"#utility.yul\":17248:17266   */\n      add\n        /* \"#utility.yul\":17235:17267   */\n      calldataload\n        /* \"#utility.yul\":17294:17312   */\n      0xffffffffffffffff\n        /* \"#utility.yul\":17286:17292   */\n      dup2\n        /* \"#utility.yul\":17283:17313   */\n      gt\n        /* \"#utility.yul\":17280:17397   */\n      iszero\n      tag_446\n      jumpi\n        /* \"#utility.yul\":17316:17395   */\n      tag_447\n      tag_185\n      jump\t// in\n    tag_447:\n        /* \"#utility.yul\":17280:17397   */\n    tag_446:\n        /* \"#utility.yul\":17429:17509   */\n      tag_448\n        /* \"#utility.yul\":17501:17508   */\n      dup10\n        /* \"#utility.yul\":17492:17498   */\n      dup3\n        /* \"#utility.yul\":17481:17490   */\n      dup11\n        /* \"#utility.yul\":17477:17499   */\n      add\n        /* \"#utility.yul\":17429:17509   */\n      tag_208\n      jump\t// in\n    tag_448:\n        /* \"#utility.yul\":17411:17509   */\n      swap3\n      pop\n      swap3\n      pop\n        /* \"#utility.yul\":17206:17519   */\n      pop\n        /* \"#utility.yul\":16301:17526   */\n      swap3\n      swap6\n      pop\n      swap3\n      swap6\n      pop\n      swap3\n      swap6\n      jump\t// out\n        /* \"#utility.yul\":17532:17694   */\n    tag_226:\n        /* \"#utility.yul\":17672:17686   */\n      0x5a65726f20616464726573730000000000000000000000000000000000000000\n        /* \"#utility.yul\":17668:17669   */\n      0x00\n        /* \"#utility.yul\":17660:17666   */\n      dup3\n        /* \"#utility.yul\":17656:17670   */\n      add\n        /* \"#utility.yul\":17649:17687   */\n      mstore\n        /* \"#utility.yul\":17532:17694   */\n      pop\n      jump\t// out\n        /* \"#utility.yul\":17700:18066   */\n    tag_227:\n        /* \"#utility.yul\":17842:17845   */\n      0x00\n        /* \"#utility.yul\":17863:17930   */\n      tag_451\n        /* \"#utility.yul\":17927:17929   */\n      0x0c\n        /* \"#utility.yul\":17922:17925   */\n      dup4\n        /* \"#utility.yul\":17863:17930   */\n      tag_200\n      jump\t// in\n    tag_451:\n        /* \"#utility.yul\":17856:17930   */\n      swap2\n      pop\n        /* \"#utility.yul\":17939:18032   */\n      tag_452\n        /* \"#utility.yul\":18028:18031   */\n      dup3\n        /* \"#utility.yul\":17939:18032   */\n      tag_226\n      jump\t// in\n    tag_452:\n        /* \"#utility.yul\":18057:18059   */\n      0x20\n        /* \"#utility.yul\":18052:18055   */\n      dup3\n        /* \"#utility.yul\":18048:18060   */\n      add\n        /* \"#utility.yul\":18041:18060   */\n      swap1\n      pop\n        /* \"#utility.yul\":17700:18066   */\n      swap2\n      swap1\n      pop\n      jump\t// out\n        /* \"#utility.yul\":18072:18491   */\n    tag_66:\n        /* \"#utility.yul\":18238:18242   */\n      0x00\n        /* \"#utility.yul\":18276:18278   */\n      0x20\n        /* \"#utility.yul\":18265:18274   */\n      dup3\n        /* \"#utility.yul\":18261:18279   */\n      add\n        /* \"#utility.yul\":18253:18279   */\n      swap1\n      pop\n        /* \"#utility.yul\":18325:18334   */\n      dup2\n        /* \"#utility.yul\":18319:18323   */\n      dup2\n        /* \"#utility.yul\":18315:18335   */\n      sub\n        /* \"#utility.yul\":18311:18312   */\n      0x00\n        /* \"#utility.yul\":18300:18309   */\n      dup4\n        /* \"#utility.yul\":18296:18313   */\n      add\n        /* \"#utility.yul\":18289:18336   */\n      mstore\n        /* \"#utility.yul\":18353:18484   */\n      tag_454\n        /* \"#utility.yul\":18479:18483   */\n      dup2\n        /* \"#utility.yul\":18353:18484   */\n      tag_227\n      jump\t// in\n    tag_454:\n        /* \"#utility.yul\":18345:18484   */\n      swap1\n      pop\n        /* \"#utility.yul\":18072:18491   */\n      swap2\n      swap1\n      pop\n      jump\t// out\n        /* \"#utility.yul\":18497:18677   */\n    tag_228:\n        /* \"#utility.yul\":18545:18622   */\n      0x4e487b7100000000000000000000000000000000000000000000000000000000\n        /* \"#utility.yul\":18542:18543   */\n      0x00\n        /* \"#utility.yul\":18535:18623   */\n      mstore\n        /* \"#utility.yul\":18642:18646   */\n      0x22\n        /* \"#utility.yul\":18639:18640   */\n      0x04\n        /* \"#utility.yul\":18632:18647   */\n      mstore\n        /* \"#utility.yul\":18666:18670   */\n      0x24\n        /* \"#utility.yul\":18663:18664   */\n      0x00\n        /* \"#utility.yul\":18656:18671   */\n      revert\n        /* \"#utility.yul\":18683:19003   */\n    tag_70:\n        /* \"#utility.yul\":18727:18733   */\n      0x00\n        /* \"#utility.yul\":18764:18765   */\n      0x02\n        /* \"#utility.yul\":18758:18762   */\n      dup3\n        /* \"#utility.yul\":18754:18766   */\n      div\n        /* \"#utility.yul\":18744:18766   */\n      swap1\n      pop\n        /* \"#utility.yul\":18811:18812   */\n      0x01\n        /* \"#utility.yul\":18805:18809   */\n      dup3\n        /* \"#utility.yul\":18801:18813   */\n      and\n        /* \"#utility.yul\":18832:18850   */\n      dup1\n        /* \"#utility.yul\":18822:18903   */\n      tag_457\n      jumpi\n        /* \"#utility.yul\":18888:18892   */\n      0x7f\n        /* \"#utility.yul\":18880:18886   */\n      dup3\n        /* \"#utility.yul\":18876:18893   */\n      and\n        /* \"#utility.yul\":18866:18893   */\n      swap2\n      pop\n        /* \"#utility.yul\":18822:18903   */\n    tag_457:\n        /* \"#utility.yul\":18950:18952   */\n      0x20\n        /* \"#utility.yul\":18942:18948   */\n      dup3\n        /* \"#utility.yul\":18939:18953   */\n      lt\n        /* \"#utility.yul\":18919:18937   */\n      dup2\n        /* \"#utility.yul\":18916:18954   */\n      sub\n        /* \"#utility.yul\":18913:18997   */\n      tag_458\n      jumpi\n        /* \"#utility.yul\":18969:18987   */\n      tag_459\n      tag_228\n      jump\t// in\n    tag_459:\n        /* \"#utility.yul\":18913:18997   */\n    tag_458:\n        /* \"#utility.yul\":18734:19003   */\n      pop\n        /* \"#utility.yul\":18683:19003   */\n      swap2\n      swap1\n      pop\n      jump\t// out\n        /* \"#utility.yul\":19009:19173   */\n    tag_229:\n        /* \"#utility.yul\":19149:19165   */\n      0x4e6f7420617574686f72697a6564000000000000000000000000000000000000\n        /* \"#utility.yul\":19145:19146   */\n      0x00\n        /* \"#utility.yul\":19137:19143   */\n      dup3\n        /* \"#utility.yul\":19133:19147   */\n      add\n        /* \"#utility.yul\":19126:19166   */\n      mstore\n        /* \"#utility.yul\":19009:19173   */\n      pop\n      jump\t// out\n        /* \"#utility.yul\":19179:19545   */\n    tag_230:\n        /* \"#utility.yul\":19321:19324   */\n      0x00\n        /* \"#utility.yul\":19342:19409   */\n      tag_462\n        /* \"#utility.yul\":19406:19408   */\n      0x0e\n        /* \"#utility.yul\":19401:19404   */\n      dup4\n        /* \"#utility.yul\":19342:19409   */\n      tag_200\n      jump\t// in\n    tag_462:\n        /* \"#utility.yul\":19335:19409   */\n      swap2\n      pop\n        /* \"#utility.yul\":19418:19511   */\n      tag_463\n        /* \"#utility.yul\":19507:19510   */\n      dup3\n        /* \"#utility.yul\":19418:19511   */\n      tag_229\n      jump\t// in\n    tag_463:\n        /* \"#utility.yul\":19536:19538   */\n      0x20\n        /* \"#utility.yul\":19531:19534   */\n      dup3\n        /* \"#utility.yul\":19527:19539   */\n      add\n        /* \"#utility.yul\":19520:19539   */\n      swap1\n      pop\n        /* \"#utility.yul\":19179:19545   */\n      swap2\n      swap1\n      pop\n      jump\t// out\n        /* \"#utility.yul\":19551:19970   */\n    tag_79:\n        /* \"#utility.yul\":19717:19721   */\n      0x00\n        /* \"#utility.yul\":19755:19757   */\n      0x20\n        /* \"#utility.yul\":19744:19753   */\n      dup3\n        /* \"#utility.yul\":19740:19758   */\n      add\n        /* \"#utility.yul\":19732:19758   */\n      swap1\n      pop\n        /* \"#utility.yul\":19804:19813   */\n      dup2\n        /* \"#utility.yul\":19798:19802   */\n      dup2\n        /* \"#utility.yul\":19794:19814   */\n      sub\n        /* \"#utility.yul\":19790:19791   */\n      0x00\n        /* \"#utility.yul\":19779:19788   */\n      dup4\n        /* \"#utility.yul\":19775:19792   */\n      add\n        /* \"#utility.yul\":19768:19815   */\n      mstore\n        /* \"#utility.yul\":19832:19963   */\n      tag_465\n        /* \"#utility.yul\":19958:19962   */\n      dup2\n        /* \"#utility.yul\":19832:19963   */\n      tag_230\n      jump\t// in\n    tag_465:\n        /* \"#utility.yul\":19824:19963   */\n      swap1\n      pop\n        /* \"#utility.yul\":19551:19970   */\n      swap2\n      swap1\n      pop\n      jump\t// out\n        /* \"#utility.yul\":19976:20146   */\n    tag_231:\n        /* \"#utility.yul\":20116:20138   */\n      0x496e73756666696369656e742062616c616e6365000000000000000000000000\n        /* \"#utility.yul\":20112:20113   */\n      0x00\n        /* \"#utility.yul\":20104:20110   */\n      dup3\n        /* \"#utility.yul\":20100:20114   */\n      add\n        /* \"#utility.yul\":20093:20139   */\n      mstore\n        /* \"#utility.yul\":19976:20146   */\n      pop\n      jump\t// out\n        /* \"#utility.yul\":20152:20518   */\n    tag_232:\n        /* \"#utility.yul\":20294:20297   */\n      0x00\n        /* \"#utility.yul\":20315:20382   */\n      tag_468\n        /* \"#utility.yul\":20379:20381   */\n      0x14\n        /* \"#utility.yul\":20374:20377   */\n      dup4\n        /* \"#utility.yul\":20315:20382   */\n      tag_200\n      jump\t// in\n    tag_468:\n        /* \"#utility.yul\":20308:20382   */\n      swap2\n      pop\n        /* \"#utility.yul\":20391:20484   */\n      tag_469\n        /* \"#utility.yul\":20480:20483   */\n      dup3\n        /* \"#utility.yul\":20391:20484   */\n      tag_231\n      jump\t// in\n    tag_469:\n        /* \"#utility.yul\":20509:20511   */\n      0x20\n        /* \"#utility.yul\":20504:20507   */\n      dup3\n        /* \"#utility.yul\":20500:20512   */\n      add\n        /* \"#utility.yul\":20493:20512   */\n      swap1\n      pop\n        /* \"#utility.yul\":20152:20518   */\n      swap2\n      swap1\n      pop\n      jump\t// out\n        /* \"#utility.yul\":20524:20943   */\n    tag_85:\n        /* \"#utility.yul\":20690:20694   */\n      0x00\n        /* \"#utility.yul\":20728:20730   */\n      0x20\n        /* \"#utility.yul\":20717:20726   */\n      dup3\n        /* \"#utility.yul\":20713:20731   */\n      add\n        /* \"#utility.yul\":20705:20731   */\n      swap1\n      pop\n        /* \"#utility.yul\":20777:20786   */\n      dup2\n        /* \"#utility.yul\":20771:20775   */\n      dup2\n        /* \"#utility.yul\":20767:20787   */\n      sub\n        /* \"#utility.yul\":20763:20764   */\n      0x00\n        /* \"#utility.yul\":20752:20761   */\n      dup4\n        /* \"#utility.yul\":20748:20765   */\n      add\n        /* \"#utility.yul\":20741:20788   */\n      mstore\n        /* \"#utility.yul\":20805:20936   */\n      tag_471\n        /* \"#utility.yul\":20931:20935   */\n      dup2\n        /* \"#utility.yul\":20805:20936   */\n      tag_232\n      jump\t// in\n    tag_471:\n        /* \"#utility.yul\":20797:20936   */\n      swap1\n      pop\n        /* \"#utility.yul\":20524:20943   */\n      swap2\n      swap1\n      pop\n      jump\t// out\n        /* \"#utility.yul\":20949:21129   */\n    tag_233:\n        /* \"#utility.yul\":20997:21074   */\n      0x4e487b7100000000000000000000000000000000000000000000000000000000\n        /* \"#utility.yul\":20994:20995   */\n      0x00\n        /* \"#utility.yul\":20987:21075   */\n      mstore\n        /* \"#utility.yul\":21094:21098   */\n      0x11\n        /* \"#utility.yul\":21091:21092   */\n      0x04\n        /* \"#utility.yul\":21084:21099   */\n      mstore\n        /* \"#utility.yul\":21118:21122   */\n      0x24\n        /* \"#utility.yul\":21115:21116   */\n      0x00\n        /* \"#utility.yul\":21108:21123   */\n      revert\n        /* \"#utility.yul\":21135:21329   */\n    tag_87:\n        /* \"#utility.yul\":21175:21179   */\n      0x00\n        /* \"#utility.yul\":21195:21215   */\n      tag_474\n        /* \"#utility.yul\":21213:21214   */\n      dup3\n        /* \"#utility.yul\":21195:21215   */\n      tag_190\n      jump\t// in\n    tag_474:\n        /* \"#utility.yul\":21190:21215   */\n      swap2\n      pop\n        /* \"#utility.yul\":21229:21249   */\n      tag_475\n        /* \"#utility.yul\":21247:21248   */\n      dup4\n        /* \"#utility.yul\":21229:21249   */\n      tag_190\n      jump\t// in\n    tag_475:\n        /* \"#utility.yul\":21224:21249   */\n      swap3\n      pop\n        /* \"#utility.yul\":21273:21274   */\n      dup3\n        /* \"#utility.yul\":21270:21271   */\n      dup3\n        /* \"#utility.yul\":21266:21275   */\n      sub\n        /* \"#utility.yul\":21258:21275   */\n      swap1\n      pop\n        /* \"#utility.yul\":21297:21298   */\n      dup2\n        /* \"#utility.yul\":21291:21295   */\n      dup2\n        /* \"#utility.yul\":21288:21299   */\n      gt\n        /* \"#utility.yul\":21285:21322   */\n      iszero\n      tag_476\n      jumpi\n        /* \"#utility.yul\":21302:21320   */\n      tag_477\n      tag_233\n      jump\t// in\n    tag_477:\n        /* \"#utility.yul\":21285:21322   */\n    tag_476:\n        /* \"#utility.yul\":21135:21329   */\n      swap3\n      swap2\n      pop\n      pop\n      jump\t// out\n        /* \"#utility.yul\":21335:21526   */\n    tag_89:\n        /* \"#utility.yul\":21375:21378   */\n      0x00\n        /* \"#utility.yul\":21394:21414   */\n      tag_479\n        /* \"#utility.yul\":21412:21413   */\n      dup3\n        /* \"#utility.yul\":21394:21414   */\n      tag_190\n      jump\t// in\n    tag_479:\n        /* \"#utility.yul\":21389:21414   */\n      swap2\n      pop\n        /* \"#utility.yul\":21428:21448   */\n      tag_480\n        /* \"#utility.yul\":21446:21447   */\n      dup4\n        /* \"#utility.yul\":21428:21448   */\n      tag_190\n      jump\t// in\n    tag_480:\n        /* \"#utility.yul\":21423:21448   */\n      swap3\n      pop\n        /* \"#utility.yul\":21471:21472   */\n      dup3\n        /* \"#utility.yul\":21468:21469   */\n      dup3\n        /* \"#utility.yul\":21464:21473   */\n      add\n        /* \"#utility.yul\":21457:21473   */\n      swap1\n      pop\n        /* \"#utility.yul\":21492:21495   */\n      dup1\n        /* \"#utility.yul\":21489:21490   */\n      dup3\n        /* \"#utility.yul\":21486:21496   */\n      gt\n        /* \"#utility.yul\":21483:21519   */\n      iszero\n      tag_481\n      jumpi\n        /* \"#utility.yul\":21499:21517   */\n      tag_482\n      tag_233\n      jump\t// in\n    tag_482:\n        /* \"#utility.yul\":21483:21519   */\n    tag_481:\n        /* \"#utility.yul\":21335:21526   */\n      swap3\n      swap2\n      pop\n      pop\n      jump\t// out\n        /* \"#utility.yul\":21532:21864   */\n    tag_91:\n        /* \"#utility.yul\":21653:21657   */\n      0x00\n        /* \"#utility.yul\":21691:21693   */\n      0x40\n        /* \"#utility.yul\":21680:21689   */\n      dup3\n        /* \"#utility.yul\":21676:21694   */\n      add\n        /* \"#utility.yul\":21668:21694   */\n      swap1\n      pop\n        /* \"#utility.yul\":21704:21775   */\n      tag_484\n        /* \"#utility.yul\":21772:21773   */\n      0x00\n        /* \"#utility.yul\":21761:21770   */\n      dup4\n        /* \"#utility.yul\":21757:21774   */\n      add\n        /* \"#utility.yul\":21748:21754   */\n      dup6\n        /* \"#utility.yul\":21704:21775   */\n      tag_193\n      jump\t// in\n    tag_484:\n        /* \"#utility.yul\":21785:21857   */\n      tag_485\n        /* \"#utility.yul\":21853:21855   */\n      0x20\n        /* \"#utility.yul\":21842:21851   */\n      dup4\n        /* \"#utility.yul\":21838:21856   */\n      add\n        /* \"#utility.yul\":21829:21835   */\n      dup5\n        /* \"#utility.yul\":21785:21857   */\n      tag_193\n      jump\t// in\n    tag_485:\n        /* \"#utility.yul\":21532:21864   */\n      swap4\n      swap3\n      pop\n      pop\n      pop\n      jump\t// out\n        /* \"#utility.yul\":21870:22037   */\n    tag_234:\n        /* \"#utility.yul\":22010:22029   */\n      0x4d69736d61746368656420617272617973000000000000000000000000000000\n        /* \"#utility.yul\":22006:22007   */\n      0x00\n        /* \"#utility.yul\":21998:22004   */\n      dup3\n        /* \"#utility.yul\":21994:22008   */\n      add\n        /* \"#utility.yul\":21987:22030   */\n      mstore\n        /* \"#utility.yul\":21870:22037   */\n      pop\n      jump\t// out\n        /* \"#utility.yul\":22043:22409   */\n    tag_235:\n        /* \"#utility.yul\":22185:22188   */\n      0x00\n        /* \"#utility.yul\":22206:22273   */\n      tag_488\n        /* \"#utility.yul\":22270:22272   */\n      0x11\n        /* \"#utility.yul\":22265:22268   */\n      dup4\n        /* \"#utility.yul\":22206:22273   */\n      tag_200\n      jump\t// in\n    tag_488:\n        /* \"#utility.yul\":22199:22273   */\n      swap2\n      pop\n        /* \"#utility.yul\":22282:22375   */\n      tag_489\n        /* \"#utility.yul\":22371:22374   */\n      dup3\n        /* \"#utility.yul\":22282:22375   */\n      tag_234\n      jump\t// in\n    tag_489:\n        /* \"#utility.yul\":22400:22402   */\n      0x20\n        /* \"#utility.yul\":22395:22398   */\n      dup3\n        /* \"#utility.yul\":22391:22403   */\n      add\n        /* \"#utility.yul\":22384:22403   */\n      swap1\n      pop\n        /* \"#utility.yul\":22043:22409   */\n      swap2\n      swap1\n      pop\n      jump\t// out\n        /* \"#utility.yul\":22415:22834   */\n    tag_95:\n        /* \"#utility.yul\":22581:22585   */\n      0x00\n        /* \"#utility.yul\":22619:22621   */\n      0x20\n        /* \"#utility.yul\":22608:22617   */\n      dup3\n        /* \"#utility.yul\":22604:22622   */\n      add\n        /* \"#utility.yul\":22596:22622   */\n      swap1\n      pop\n        /* \"#utility.yul\":22668:22677   */\n      dup2\n        /* \"#utility.yul\":22662:22666   */\n      dup2\n        /* \"#utility.yul\":22658:22678   */\n      sub\n        /* \"#utility.yul\":22654:22655   */\n      0x00\n        /* \"#utility.yul\":22643:22652   */\n      dup4\n        /* \"#utility.yul\":22639:22656   */\n      add\n        /* \"#utility.yul\":22632:22679   */\n      mstore\n        /* \"#utility.yul\":22696:22827   */\n      tag_491\n        /* \"#utility.yul\":22822:22826   */\n      dup2\n        /* \"#utility.yul\":22696:22827   */\n      tag_235\n      jump\t// in\n    tag_491:\n        /* \"#utility.yul\":22688:22827   */\n      swap1\n      pop\n        /* \"#utility.yul\":22415:22834   */\n      swap2\n      swap1\n      pop\n      jump\t// out\n        /* \"#utility.yul\":22840:23020   */\n    tag_106:\n        /* \"#utility.yul\":22888:22965   */\n      0x4e487b7100000000000000000000000000000000000000000000000000000000\n        /* \"#utility.yul\":22885:22886   */\n      0x00\n        /* \"#utility.yul\":22878:22966   */\n      mstore\n        /* \"#utility.yul\":22985:22989   */\n      0x32\n        /* \"#utility.yul\":22982:22983   */\n      0x04\n        /* \"#utility.yul\":22975:22990   */\n      mstore\n        /* \"#utility.yul\":23009:23013   */\n      0x24\n        /* \"#utility.yul\":23006:23007   */\n      0x00\n        /* \"#utility.yul\":22999:23014   */\n      revert\n        /* \"#utility.yul\":23026:23355   */\n    tag_108:\n        /* \"#utility.yul\":23085:23091   */\n      0x00\n        /* \"#utility.yul\":23134:23136   */\n      0x20\n        /* \"#utility.yul\":23122:23131   */\n      dup3\n        /* \"#utility.yul\":23113:23120   */\n      dup5\n        /* \"#utility.yul\":23109:23132   */\n      sub\n        /* \"#utility.yul\":23105:23137   */\n      slt\n        /* \"#utility.yul\":23102:23221   */\n      iszero\n      tag_494\n      jumpi\n        /* \"#utility.yul\":23140:23219   */\n      tag_495\n      tag_184\n      jump\t// in\n    tag_495:\n        /* \"#utility.yul\":23102:23221   */\n    tag_494:\n        /* \"#utility.yul\":23260:23261   */\n      0x00\n        /* \"#utility.yul\":23285:23338   */\n      tag_496\n        /* \"#utility.yul\":23330:23337   */\n      dup5\n        /* \"#utility.yul\":23321:23327   */\n      dup3\n        /* \"#utility.yul\":23310:23319   */\n      dup6\n        /* \"#utility.yul\":23306:23328   */\n      add\n        /* \"#utility.yul\":23285:23338   */\n      tag_189\n      jump\t// in\n    tag_496:\n        /* \"#utility.yul\":23275:23338   */\n      swap2\n      pop\n        /* \"#utility.yul\":23231:23348   */\n      pop\n        /* \"#utility.yul\":23026:23355   */\n      swap3\n      swap2\n      pop\n      pop\n      jump\t// out\n        /* \"#utility.yul\":23361:23528   */\n    tag_236:\n        /* \"#utility.yul\":23501:23520   */\n      0x4d69736d61746368656420696e70757473000000000000000000000000000000\n        /* \"#utility.yul\":23497:23498   */\n      0x00\n        /* \"#utility.yul\":23489:23495   */\n      dup3\n        /* \"#utility.yul\":23485:23499   */\n      add\n        /* \"#utility.yul\":23478:23521   */\n      mstore\n        /* \"#utility.yul\":23361:23528   */\n      pop\n      jump\t// out\n        /* \"#utility.yul\":23534:23900   */\n    tag_237:\n        /* \"#utility.yul\":23676:23679   */\n      0x00\n        /* \"#utility.yul\":23697:23764   */\n      tag_499\n        /* \"#utility.yul\":23761:23763   */\n      0x11\n        /* \"#utility.yul\":23756:23759   */\n      dup4\n        /* \"#utility.yul\":23697:23764   */\n      tag_200\n      jump\t// in\n    tag_499:\n        /* \"#utility.yul\":23690:23764   */\n      swap2\n      pop\n        /* \"#utility.yul\":23773:23866   */\n      tag_500\n        /* \"#utility.yul\":23862:23865   */\n      dup3\n        /* \"#utility.yul\":23773:23866   */\n      tag_236\n      jump\t// in\n    tag_500:\n        /* \"#utility.yul\":23891:23893   */\n      0x20\n        /* \"#utility.yul\":23886:23889   */\n      dup3\n        /* \"#utility.yul\":23882:23894   */\n      add\n        /* \"#utility.yul\":23875:23894   */\n      swap1\n      pop\n        /* \"#utility.yul\":23534:23900   */\n      swap2\n      swap1\n      pop\n      jump\t// out\n        /* \"#utility.yul\":23906:24325   */\n    tag_121:\n        /* \"#utility.yul\":24072:24076   */\n      0x00\n        /* \"#utility.yul\":24110:24112   */\n      0x20\n        /* \"#utility.yul\":24099:24108   */\n      dup3\n        /* \"#utility.yul\":24095:24113   */\n      add\n        /* \"#utility.yul\":24087:24113   */\n      swap1\n      pop\n        /* \"#utility.yul\":24159:24168   */\n      dup2\n        /* \"#utility.yul\":24153:24157   */\n      dup2\n        /* \"#utility.yul\":24149:24169   */\n      sub\n        /* \"#utility.yul\":24145:24146   */\n      0x00\n        /* \"#utility.yul\":24134:24143   */\n      dup4\n        /* \"#utility.yul\":24130:24147   */\n      add\n        /* \"#utility.yul\":24123:24170   */\n      mstore\n        /* \"#utility.yul\":24187:24318   */\n      tag_502\n        /* \"#utility.yul\":24313:24317   */\n      dup2\n        /* \"#utility.yul\":24187:24318   */\n      tag_237\n      jump\t// in\n    tag_502:\n        /* \"#utility.yul\":24179:24318   */\n      swap1\n      pop\n        /* \"#utility.yul\":23906:24325   */\n      swap2\n      swap1\n      pop\n      jump\t// out\n        /* \"#utility.yul\":24331:24448   */\n    tag_238:\n        /* \"#utility.yul\":24440:24441   */\n      0x00\n        /* \"#utility.yul\":24437:24438   */\n      0x00\n        /* \"#utility.yul\":24430:24442   */\n      revert\n        /* \"#utility.yul\":24454:24571   */\n    tag_239:\n        /* \"#utility.yul\":24563:24564   */\n      0x00\n        /* \"#utility.yul\":24560:24561   */\n      0x00\n        /* \"#utility.yul\":24553:24565   */\n      revert\n        /* \"#utility.yul\":24577:24694   */\n    tag_240:\n        /* \"#utility.yul\":24686:24687   */\n      0x00\n        /* \"#utility.yul\":24683:24684   */\n      0x00\n        /* \"#utility.yul\":24676:24688   */\n      revert\n        /* \"#utility.yul\":24700:25425   */\n    tag_137:\n        /* \"#utility.yul\":24778:24782   */\n      0x00\n        /* \"#utility.yul\":24784:24790   */\n      0x00\n        /* \"#utility.yul\":24840:24851   */\n      dup4\n        /* \"#utility.yul\":24827:24852   */\n      calldataload\n        /* \"#utility.yul\":24940:24941   */\n      0x01\n        /* \"#utility.yul\":24934:24938   */\n      0x20\n        /* \"#utility.yul\":24930:24942   */\n      sub\n        /* \"#utility.yul\":24919:24927   */\n      dup5\n        /* \"#utility.yul\":24903:24917   */\n      calldatasize\n        /* \"#utility.yul\":24899:24928   */\n      sub\n        /* \"#utility.yul\":24895:24943   */\n      sub\n        /* \"#utility.yul\":24875:24893   */\n      dup2\n        /* \"#utility.yul\":24871:24944   */\n      slt\n        /* \"#utility.yul\":24861:25029   */\n      tag_507\n      jumpi\n        /* \"#utility.yul\":24948:25027   */\n      tag_508\n      tag_238\n      jump\t// in\n    tag_508:\n        /* \"#utility.yul\":24861:25029   */\n    tag_507:\n        /* \"#utility.yul\":25060:25078   */\n      dup1\n        /* \"#utility.yul\":25050:25058   */\n      dup5\n        /* \"#utility.yul\":25046:25079   */\n      add\n        /* \"#utility.yul\":25038:25079   */\n      swap3\n      pop\n        /* \"#utility.yul\":25112:25116   */\n      dup3\n        /* \"#utility.yul\":25099:25117   */\n      calldataload\n        /* \"#utility.yul\":25089:25117   */\n      swap2\n      pop\n        /* \"#utility.yul\":25140:25158   */\n      0xffffffffffffffff\n        /* \"#utility.yul\":25132:25138   */\n      dup3\n        /* \"#utility.yul\":25129:25159   */\n      gt\n        /* \"#utility.yul\":25126:25243   */\n      iszero\n      tag_509\n      jumpi\n        /* \"#utility.yul\":25162:25241   */\n      tag_510\n      tag_239\n      jump\t// in\n    tag_510:\n        /* \"#utility.yul\":25126:25243   */\n    tag_509:\n        /* \"#utility.yul\":25270:25272   */\n      0x20\n        /* \"#utility.yul\":25264:25268   */\n      dup4\n        /* \"#utility.yul\":25260:25273   */\n      add\n        /* \"#utility.yul\":25252:25273   */\n      swap3\n      pop\n        /* \"#utility.yul\":25327:25331   */\n      0x01\n        /* \"#utility.yul\":25319:25325   */\n      dup3\n        /* \"#utility.yul\":25315:25332   */\n      mul\n        /* \"#utility.yul\":25299:25313   */\n      calldatasize\n        /* \"#utility.yul\":25295:25333   */\n      sub\n        /* \"#utility.yul\":25289:25293   */\n      dup4\n        /* \"#utility.yul\":25285:25334   */\n      sgt\n        /* \"#utility.yul\":25282:25418   */\n      iszero\n      tag_511\n      jumpi\n        /* \"#utility.yul\":25337:25416   */\n      tag_512\n      tag_240\n      jump\t// in\n    tag_512:\n        /* \"#utility.yul\":25282:25418   */\n    tag_511:\n        /* \"#utility.yul\":24791:25425   */\n      pop\n        /* \"#utility.yul\":24700:25425   */\n      swap3\n      pop\n      swap3\n      swap1\n      pop\n      jump\t// out\n        /* \"#utility.yul\":25431:25528   */\n    tag_241:\n        /* \"#utility.yul\":25490:25496   */\n      0x00\n        /* \"#utility.yul\":25518:25521   */\n      dup3\n        /* \"#utility.yul\":25508:25521   */\n      swap1\n      pop\n        /* \"#utility.yul\":25431:25528   */\n      swap3\n      swap2\n      pop\n      pop\n      jump\t// out\n        /* \"#utility.yul\":25534:25675   */\n    tag_242:\n        /* \"#utility.yul\":25583:25587   */\n      0x00\n        /* \"#utility.yul\":25606:25609   */\n      dup2\n        /* \"#utility.yul\":25598:25609   */\n      swap1\n      pop\n        /* \"#utility.yul\":25629:25632   */\n      dup2\n        /* \"#utility.yul\":25626:25627   */\n      0x00\n        /* \"#utility.yul\":25619:25633   */\n      mstore\n        /* \"#utility.yul\":25663:25667   */\n      0x20\n        /* \"#utility.yul\":25660:25661   */\n      0x00\n        /* \"#utility.yul\":25650:25668   */\n      keccak256\n        /* \"#utility.yul\":25642:25668   */\n      swap1\n      pop\n        /* \"#utility.yul\":25534:25675   */\n      swap2\n      swap1\n      pop\n      jump\t// out\n        /* \"#utility.yul\":25681:25774   */\n    tag_243:\n        /* \"#utility.yul\":25718:25724   */\n      0x00\n        /* \"#utility.yul\":25765:25767   */\n      0x20\n        /* \"#utility.yul\":25760:25762   */\n      0x1f\n        /* \"#utility.yul\":25753:25758   */\n      dup4\n        /* \"#utility.yul\":25749:25763   */\n      add\n        /* \"#utility.yul\":25745:25768   */\n      div\n        /* \"#utility.yul\":25735:25768   */\n      swap1\n      pop\n        /* \"#utility.yul\":25681:25774   */\n      swap2\n      swap1\n      pop\n      jump\t// out\n        /* \"#utility.yul\":25780:25887   */\n    tag_244:\n        /* \"#utility.yul\":25824:25832   */\n      0x00\n        /* \"#utility.yul\":25874:25879   */\n      dup3\n        /* \"#utility.yul\":25868:25872   */\n      dup3\n        /* \"#utility.yul\":25864:25880   */\n      shl\n        /* \"#utility.yul\":25843:25880   */\n      swap1\n      pop\n        /* \"#utility.yul\":25780:25887   */\n      swap3\n      swap2\n      pop\n      pop\n      jump\t// out\n        /* \"#utility.yul\":25893:26286   */\n    tag_245:\n        /* \"#utility.yul\":25962:25968   */\n      0x00\n        /* \"#utility.yul\":26012:26013   */\n      0x08\n        /* \"#utility.yul\":26000:26010   */\n      dup4\n        /* \"#utility.yul\":25996:26014   */\n      mul\n        /* \"#utility.yul\":26035:26132   */\n      tag_518\n        /* \"#utility.yul\":26065:26131   */\n      0xffffffffffffffffffffffffffffffffffffffffffffffffffffffffffffffff\n        /* \"#utility.yul\":26054:26063   */\n      dup3\n        /* \"#utility.yul\":26035:26132   */\n      tag_244\n      jump\t// in\n    tag_518:\n        /* \"#utility.yul\":26153:26192   */\n      tag_519\n        /* \"#utility.yul\":26183:26191   */\n      dup7\n        /* \"#utility.yul\":26172:26181   */\n      dup4\n        /* \"#utility.yul\":26153:26192   */\n      tag_244\n      jump\t// in\n    tag_519:\n        /* \"#utility.yul\":26141:26192   */\n      swap6\n      pop\n        /* \"#utility.yul\":26225:26229   */\n      dup1\n        /* \"#utility.yul\":26221:26230   */\n      not\n        /* \"#utility.yul\":26214:26219   */\n      dup5\n        /* \"#utility.yul\":26210:26231   */\n      and\n        /* \"#utility.yul\":26201:26231   */\n      swap4\n      pop\n        /* \"#utility.yul\":26274:26278   */\n      dup1\n        /* \"#utility.yul\":26264:26272   */\n      dup7\n        /* \"#utility.yul\":26260:26279   */\n      and\n        /* \"#utility.yul\":26253:26258   */\n      dup5\n        /* \"#utility.yul\":26250:26280   */\n      or\n        /* \"#utility.yul\":26240:26280   */\n      swap3\n      pop\n        /* \"#utility.yul\":25969:26286   */\n      pop\n      pop\n        /* \"#utility.yul\":25893:26286   */\n      swap4\n      swap3\n      pop\n      pop\n      pop\n      jump\t// out\n        /* \"#utility.yul\":26292:26352   */\n    tag_246:\n        /* \"#utility.yul\":26320:26323   */\n      0x00\n        /* \"#utility.yul\":26341:26346   */\n      dup2\n        /* \"#utility.yul\":26334:26346   */\n      swap1\n      pop\n        /* \"#utility.yul\":26292:26352   */\n      swap2\n      swap1\n      pop\n      jump\t// out\n        /* \"#utility.yul\":26358:26500   */\n    tag_247:\n        /* \"#utility.yul\":26408:26417   */\n      0x00\n        /* \"#utility.yul\":26441:26494   */\n      tag_522\n        /* \"#utility.yul\":26459:26493   */\n      tag_523\n        /* \"#utility.yul\":26468:26492   */\n      tag_524\n        /* \"#utility.yul\":26486:26491   */\n      dup5\n        /* \"#utility.yul\":26468:26492   */\n      tag_190\n      jump\t// in\n    tag_524:\n        /* \"#utility.yul\":26459:26493   */\n      tag_246\n      jump\t// in\n    tag_523:\n        /* \"#utility.yul\":26441:26494   */\n      tag_190\n      jump\t// in\n    tag_522:\n        /* \"#utility.yul\":26428:26494   */\n      swap1\n      pop\n        /* \"#utility.yul\":26358:26500   */\n      swap2\n      swap1\n      pop\n      jump\t// out\n        /* \"#utility.yul\":26506:26581   */\n    tag_248:\n        /* \"#utility.yul\":26549:26552   */\n      0x00\n        /* \"#utility.yul\":26570:26575   */\n      dup2\n        /* \"#utility.yul\":26563:26575   */\n      swap1\n      pop\n        /* \"#utility.yul\":26506:26581   */\n      swap2\n      swap1\n      pop\n      jump\t// out\n        /* \"#utility.yul\":26587:26856   */\n    tag_249:\n        /* \"#utility.yul\":26697:26736   */\n      tag_527\n        /* \"#utility.yul\":26728:26735   */\n      dup4\n        /* \"#utility.yul\":26697:26736   */\n      tag_247\n      jump\t// in\n    tag_527:\n        /* \"#utility.yul\":26758:26849   */\n      tag_528\n        /* \"#utility.yul\":26807:26848   */\n      tag_529\n        /* \"#utility.yul\":26831:26847   */\n      dup3\n        /* \"#utility.yul\":26807:26848   */\n      tag_248\n      jump\t// in\n    tag_529:\n        /* \"#utility.yul\":26799:26805   */\n      dup5\n        /* \"#utility.yul\":26792:26796   */\n      dup5\n        /* \"#utility.yul\":26786:26797   */\n      sload\n        /* \"#utility.yul\":26758:26849   */\n      tag_245\n      jump\t// in\n    tag_528:\n        /* \"#utility.yul\":26752:26756   */\n      dup3\n        /* \"#utility.yul\":26745:26850   */\n      sstore\n        /* \"#utility.yul\":26663:26856   */\n      pop\n        /* \"#utility.yul\":26587:26856   */\n      pop\n      pop\n      pop\n      jump\t// out\n        /* \"#utility.yul\":26862:26935   */\n    tag_250:\n        /* \"#utility.yul\":26907:26910   */\n      0x00\n        /* \"#utility.yul\":26928:26929   */\n      0x00\n        /* \"#utility.yul\":26921:26929   */\n      swap1\n      pop\n        /* \"#utility.yul\":26862:26935   */\n      swap1\n      jump\t// out\n        /* \"#utility.yul\":26941:27130   */\n    tag_251:\n        /* \"#utility.yul\":27018:27050   */\n      tag_532\n      tag_250\n      jump\t// in\n    tag_532:\n        /* \"#utility.yul\":27059:27124   */\n      tag_533\n        /* \"#utility.yul\":27117:27123   */\n      dup2\n        /* \"#utility.yul\":27109:27115   */\n      dup5\n        /* \"#utility.yul\":27103:27107   */\n      dup5\n        /* \"#utility.yul\":27059:27124   */\n      tag_249\n      jump\t// in\n    tag_533:\n        /* \"#utility.yul\":26994:27130   */\n      pop\n        /* \"#utility.yul\":26941:27130   */\n      pop\n      pop\n      jump\t// out\n        /* \"#utility.yul\":27136:27322   */\n    tag_252:\n        /* \"#utility.yul\":27196:27316   */\n    tag_535:\n        /* \"#utility.yul\":27213:27216   */\n      dup2\n        /* \"#utility.yul\":27206:27211   */\n      dup2\n        /* \"#utility.yul\":27203:27217   */\n      lt\n        /* \"#utility.yul\":27196:27316   */\n      iszero\n      tag_537\n      jumpi\n        /* \"#utility.yul\":27267:27306   */\n      tag_538\n        /* \"#utility.yul\":27304:27305   */\n      0x00\n        /* \"#utility.yul\":27297:27302   */\n      dup3\n        /* \"#utility.yul\":27267:27306   */\n      tag_251\n      jump\t// in\n    tag_538:\n        /* \"#utility.yul\":27240:27241   */\n      0x01\n        /* \"#utility.yul\":27233:27238   */\n      dup2\n        /* \"#utility.yul\":27229:27242   */\n      add\n        /* \"#utility.yul\":27220:27242   */\n      swap1\n      pop\n        /* \"#utility.yul\":27196:27316   */\n      jump(tag_535)\n    tag_537:\n        /* \"#utility.yul\":27136:27322   */\n      pop\n      pop\n      jump\t// out\n        /* \"#utility.yul\":27328:27871   */\n    tag_253:\n        /* \"#utility.yul\":27429:27431   */\n      0x1f\n        /* \"#utility.yul\":27424:27427   */\n      dup3\n        /* \"#utility.yul\":27421:27432   */\n      gt\n        /* \"#utility.yul\":27418:27864   */\n      iszero\n      tag_540\n      jumpi\n        /* \"#utility.yul\":27463:27501   */\n      tag_541\n        /* \"#utility.yul\":27495:27500   */\n      dup2\n        /* \"#utility.yul\":27463:27501   */\n      tag_242\n      jump\t// in\n    tag_541:\n        /* \"#utility.yul\":27547:27576   */\n      tag_542\n        /* \"#utility.yul\":27565:27575   */\n      dup5\n        /* \"#utility.yul\":27547:27576   */\n      tag_243\n      jump\t// in\n    tag_542:\n        /* \"#utility.yul\":27537:27545   */\n      dup2\n        /* \"#utility.yul\":27533:27577   */\n      add\n        /* \"#utility.yul\":27730:27732   */\n      0x20\n        /* \"#utility.yul\":27718:27728   */\n      dup6\n        /* \"#utility.yul\":27715:27733   */\n      lt\n        /* \"#utility.yul\":27712:27761   */\n      iszero\n      tag_543\n      jumpi\n        /* \"#utility.yul\":27751:27759   */\n      dup2\n        /* \"#utility.yul\":27736:27759   */\n      swap1\n      pop\n        /* \"#utility.yul\":27712:27761   */\n    tag_543:\n        /* \"#utility.yul\":27774:27854   */\n      tag_544\n        /* \"#utility.yul\":27830:27852   */\n      tag_545\n        /* \"#utility.yul\":27848:27851   */\n      dup6\n        /* \"#utility.yul\":27830:27852   */\n      tag_243\n      jump\t// in\n    tag_545:\n        /* \"#utility.yul\":27820:27828   */\n      dup4\n        /* \"#utility.yul\":27816:27853   */\n      add\n        /* \"#utility.yul\":27803:27814   */\n      dup3\n        /* \"#utility.yul\":27774:27854   */\n      tag_252\n      jump\t// in\n    tag_544:\n        /* \"#utility.yul\":27433:27864   */\n      pop\n      pop\n        /* \"#utility.yul\":27418:27864   */\n    tag_540:\n        /* \"#utility.yul\":27328:27871   */\n      pop\n      pop\n      pop\n      jump\t// out\n        /* \"#utility.yul\":27877:27994   */\n    tag_254:\n        /* \"#utility.yul\":27931:27939   */\n      0x00\n        /* \"#utility.yul\":27981:27986   */\n      dup3\n        /* \"#utility.yul\":27975:27979   */\n      dup3\n        /* \"#utility.yul\":27971:27987   */\n      shr\n        /* \"#utility.yul\":27950:27987   */\n      swap1\n      pop\n        /* \"#utility.yul\":27877:27994   */\n      swap3\n      swap2\n      pop\n      pop\n      jump\t// out\n        /* \"#utility.yul\":28000:28169   */\n    tag_255:\n        /* \"#utility.yul\":28044:28050   */\n      0x00\n        /* \"#utility.yul\":28077:28128   */\n      tag_548\n        /* \"#utility.yul\":28125:28126   */\n      0x00\n        /* \"#utility.yul\":28121:28127   */\n      not\n        /* \"#utility.yul\":28113:28118   */\n      dup5\n        /* \"#utility.yul\":28110:28111   */\n      0x08\n        /* \"#utility.yul\":28106:28119   */\n      mul\n        /* \"#utility.yul\":28077:28128   */\n      tag_254\n      jump\t// in\n    tag_548:\n        /* \"#utility.yul\":28073:28129   */\n      not\n        /* \"#utility.yul\":28158:28162   */\n      dup1\n        /* \"#utility.yul\":28152:28156   */\n      dup4\n        /* \"#utility.yul\":28148:28163   */\n      and\n        /* \"#utility.yul\":28138:28163   */\n      swap2\n      pop\n        /* \"#utility.yul\":28051:28169   */\n      pop\n        /* \"#utility.yul\":28000:28169   */\n      swap3\n      swap2\n      pop\n      pop\n      jump\t// out\n        /* \"#utility.yul\":28174:28469   */\n    tag_256:\n        /* \"#utility.yul\":28250:28254   */\n      0x00\n        /* \"#utility.yul\":28396:28425   */\n      tag_550\n        /* \"#utility.yul\":28421:28424   */\n      dup4\n        /* \"#utility.yul\":28415:28419   */\n      dup4\n        /* \"#utility.yul\":28396:28425   */\n      tag_255\n      jump\t// in\n    tag_550:\n        /* \"#utility.yul\":28388:28425   */\n      swap2\n      pop\n        /* \"#utility.yul\":28458:28461   */\n      dup3\n        /* \"#utility.yul\":28455:28456   */\n      0x02\n        /* \"#utility.yul\":28451:28462   */\n      mul\n        /* \"#utility.yul\":28445:28449   */\n      dup3\n        /* \"#utility.yul\":28442:28463   */\n      or\n        /* \"#utility.yul\":28434:28463   */\n      swap1\n      pop\n        /* \"#utility.yul\":28174:28469   */\n      swap3\n      swap2\n      pop\n      pop\n      jump\t// out\n        /* \"#utility.yul\":28474:29877   */\n    tag_141:\n        /* \"#utility.yul\":28598:28642   */\n      tag_552\n        /* \"#utility.yul\":28638:28641   */\n      dup4\n        /* \"#utility.yul\":28633:28636   */\n      dup4\n        /* \"#utility.yul\":28598:28642   */\n      tag_241\n      jump\t// in\n    tag_552:\n        /* \"#utility.yul\":28707:28725   */\n      0xffffffffffffffff\n        /* \"#utility.yul\":28699:28705   */\n      dup2\n        /* \"#utility.yul\":28696:28726   */\n      gt\n        /* \"#utility.yul\":28693:28749   */\n      iszero\n      tag_553\n      jumpi\n        /* \"#utility.yul\":28729:28747   */\n      tag_554\n      tag_98\n      jump\t// in\n    tag_554:\n        /* \"#utility.yul\":28693:28749   */\n    tag_553:\n        /* \"#utility.yul\":28773:28811   */\n      tag_555\n        /* \"#utility.yul\":28805:28809   */\n      dup3\n        /* \"#utility.yul\":28799:28810   */\n      sload\n        /* \"#utility.yul\":28773:28811   */\n      tag_70\n      jump\t// in\n    tag_555:\n        /* \"#utility.yul\":28858:28925   */\n      tag_556\n        /* \"#utility.yul\":28918:28924   */\n      dup3\n        /* \"#utility.yul\":28910:28916   */\n      dup3\n        /* \"#utility.yul\":28904:28908   */\n      dup6\n        /* \"#utility.yul\":28858:28925   */\n      tag_253\n      jump\t// in\n    tag_556:\n        /* \"#utility.yul\":28952:28953   */\n      0x00\n        /* \"#utility.yul\":28981:28983   */\n      0x1f\n        /* \"#utility.yul\":28973:28979   */\n      dup4\n        /* \"#utility.yul\":28970:28984   */\n      gt\n        /* \"#utility.yul\":28998:28999   */\n      0x01\n        /* \"#utility.yul\":28993:29625   */\n      dup2\n      eq\n      tag_558\n      jumpi\n        /* \"#utility.yul\":29669:29670   */\n      0x00\n        /* \"#utility.yul\":29686:29692   */\n      dup5\n        /* \"#utility.yul\":29683:29767   */\n      iszero\n      tag_559\n      jumpi\n        /* \"#utility.yul\":29742:29751   */\n      dup3\n        /* \"#utility.yul\":29737:29740   */\n      dup8\n        /* \"#utility.yul\":29733:29752   */\n      add\n        /* \"#utility.yul\":29720:29753   */\n      calldataload\n        /* \"#utility.yul\":29711:29753   */\n      swap1\n      pop\n        /* \"#utility.yul\":29683:29767   */\n    tag_559:\n        /* \"#utility.yul\":29793:29860   */\n      tag_560\n        /* \"#utility.yul\":29853:29859   */\n      dup6\n        /* \"#utility.yul\":29846:29851   */\n      dup3\n        /* \"#utility.yul\":29793:29860   */\n      tag_256\n      jump\t// in\n    tag_560:\n        /* \"#utility.yul\":29787:29791   */\n      dup7\n        /* \"#utility.yul\":29780:29861   */\n      sstore\n        /* \"#utility.yul\":29642:29871   */\n      pop\n        /* \"#utility.yul\":28963:29871   */\n      jump(tag_557)\n        /* \"#utility.yul\":28993:29625   */\n    tag_558:\n        /* \"#utility.yul\":29045:29049   */\n      0x1f\n        /* \"#utility.yul\":29041:29050   */\n      not\n        /* \"#utility.yul\":29033:29039   */\n      dup5\n        /* \"#utility.yul\":29029:29051   */\n      and\n        /* \"#utility.yul\":29079:29116   */\n      tag_561\n        /* \"#utility.yul\":29111:29115   */\n      dup7\n        /* \"#utility.yul\":29079:29116   */\n      tag_242\n      jump\t// in\n    tag_561:\n        /* \"#utility.yul\":29138:29139   */\n      0x00\n        /* \"#utility.yul\":29152:29367   */\n    tag_562:\n        /* \"#utility.yul\":29166:29173   */\n      dup3\n        /* \"#utility.yul\":29163:29164   */\n      dup2\n        /* \"#utility.yul\":29160:29174   */\n      lt\n        /* \"#utility.yul\":29152:29367   */\n      iszero\n      tag_564\n      jumpi\n        /* \"#utility.yul\":29252:29261   */\n      dup5\n        /* \"#utility.yul\":29247:29250   */\n      dup10\n        /* \"#utility.yul\":29243:29262   */\n      add\n        /* \"#utility.yul\":29230:29263   */\n      calldataload\n        /* \"#utility.yul\":29222:29228   */\n      dup3\n        /* \"#utility.yul\":29215:29264   */\n      sstore\n        /* \"#utility.yul\":29303:29304   */\n      0x01\n        /* \"#utility.yul\":29295:29301   */\n      dup3\n        /* \"#utility.yul\":29291:29305   */\n      add\n        /* \"#utility.yul\":29281:29305   */\n      swap2\n      pop\n        /* \"#utility.yul\":29350:29352   */\n      0x20\n        /* \"#utility.yul\":29339:29348   */\n      dup6\n        /* \"#utility.yul\":29335:29353   */\n      add\n        /* \"#utility.yul\":29322:29353   */\n      swap5\n      pop\n        /* \"#utility.yul\":29189:29193   */\n      0x20\n        /* \"#utility.yul\":29186:29187   */\n      dup2\n        /* \"#utility.yul\":29182:29194   */\n      add\n        /* \"#utility.yul\":29177:29194   */\n      swap1\n      pop\n        /* \"#utility.yul\":29152:29367   */\n      jump(tag_562)\n    tag_564:\n        /* \"#utility.yul\":29395:29401   */\n      dup7\n        /* \"#utility.yul\":29386:29393   */\n      dup4\n        /* \"#utility.yul\":29383:29402   */\n      lt\n        /* \"#utility.yul\":29380:29566   */\n      iszero\n      tag_565\n      jumpi\n        /* \"#utility.yul\":29460:29469   */\n      dup5\n        /* \"#utility.yul\":29455:29458   */\n      dup10\n        /* \"#utility.yul\":29451:29470   */\n      add\n        /* \"#utility.yul\":29438:29471   */\n      calldataload\n        /* \"#utility.yul\":29503:29551   */\n      tag_566\n        /* \"#utility.yul\":29545:29549   */\n      0x1f\n        /* \"#utility.yul\":29537:29543   */\n      dup10\n        /* \"#utility.yul\":29533:29550   */\n      and\n        /* \"#utility.yul\":29522:29531   */\n      dup3\n        /* \"#utility.yul\":29503:29551   */\n      tag_255\n      jump\t// in\n    tag_566:\n        /* \"#utility.yul\":29495:29501   */\n      dup4\n        /* \"#utility.yul\":29488:29552   */\n      sstore\n        /* \"#utility.yul\":29403:29566   */\n      pop\n        /* \"#utility.yul\":29380:29566   */\n    tag_565:\n        /* \"#utility.yul\":29612:29613   */\n      0x01\n        /* \"#utility.yul\":29608:29609   */\n      0x02\n        /* \"#utility.yul\":29600:29606   */\n      dup9\n        /* \"#utility.yul\":29596:29610   */\n      mul\n        /* \"#utility.yul\":29592:29614   */\n      add\n        /* \"#utility.yul\":29586:29590   */\n      dup9\n        /* \"#utility.yul\":29579:29615   */\n      sstore\n        /* \"#utility.yul\":29000:29625   */\n      pop\n      pop\n      pop\n        /* \"#utility.yul\":28963:29871   */\n    tag_557:\n      pop\n        /* \"#utility.yul\":28573:29877   */\n      pop\n      pop\n      pop\n        /* \"#utility.yul\":28474:29877   */\n      pop\n      pop\n      pop\n      jump\t// out\n        /* \"#utility.yul\":29907:30224   */\n    tag_257:\n        /* \"#utility.yul\":30005:30008   */\n      0x00\n        /* \"#utility.yul\":30026:30097   */\n      tag_568\n        /* \"#utility.yul\":30090:30096   */\n      dup4\n        /* \"#utility.yul\":30085:30088   */\n      dup6\n        /* \"#utility.yul\":30026:30097   */\n      tag_200\n      jump\t// in\n    tag_568:\n        /* \"#utility.yul\":30019:30097   */\n      swap4\n      pop\n        /* \"#utility.yul\":30107:30163   */\n      tag_569\n        /* \"#utility.yul\":30156:30162   */\n      dup4\n        /* \"#utility.yul\":30151:30154   */\n      dup6\n        /* \"#utility.yul\":30144:30149   */\n      dup5\n        /* \"#utility.yul\":30107:30163   */\n      tag_223\n      jump\t// in\n    tag_569:\n        /* \"#utility.yul\":30188:30217   */\n      tag_570\n        /* \"#utility.yul\":30210:30216   */\n      dup4\n        /* \"#utility.yul\":30188:30217   */\n      tag_202\n      jump\t// in\n    tag_570:\n        /* \"#utility.yul\":30183:30186   */\n      dup5\n        /* \"#utility.yul\":30179:30218   */\n      add\n        /* \"#utility.yul\":30172:30218   */\n      swap1\n      pop\n        /* \"#utility.yul\":29907:30224   */\n      swap4\n      swap3\n      pop\n      pop\n      pop\n      jump\t// out\n        /* \"#utility.yul\":30230:30563   */\n    tag_148:\n        /* \"#utility.yul\":30353:30357   */\n      0x00\n        /* \"#utility.yul\":30391:30393   */\n      0x20\n        /* \"#utility.yul\":30380:30389   */\n      dup3\n        /* \"#utility.yul\":30376:30394   */\n      add\n        /* \"#utility.yul\":30368:30394   */\n      swap1\n      pop\n        /* \"#utility.yul\":30440:30449   */\n      dup2\n        /* \"#utility.yul\":30434:30438   */\n      dup2\n        /* \"#utility.yul\":30430:30450   */\n      sub\n        /* \"#utility.yul\":30426:30427   */\n      0x00\n        /* \"#utility.yul\":30415:30424   */\n      dup4\n        /* \"#utility.yul\":30411:30428   */\n      add\n        /* \"#utility.yul\":30404:30451   */\n      mstore\n        /* \"#utility.yul\":30468:30556   */\n      tag_572\n        /* \"#utility.yul\":30551:30555   */\n      dup2\n        /* \"#utility.yul\":30542:30548   */\n      dup5\n        /* \"#utility.yul\":30534:30540   */\n      dup7\n        /* \"#utility.yul\":30468:30556   */\n      tag_257\n      jump\t// in\n    tag_572:\n        /* \"#utility.yul\":30460:30556   */\n      swap1\n      pop\n        /* \"#utility.yul\":30230:30563   */\n      swap4\n      swap3\n      pop\n      pop\n      pop\n      jump\t// out\n        /* \"#utility.yul\":30569:30686   */\n    tag_258:\n        /* \"#utility.yul\":30678:30679   */\n      0x00\n        /* \"#utility.yul\":30675:30676   */\n      0x00\n        /* \"#utility.yul\":30668:30680   */\n      revert\n        /* \"#utility.yul\":30692:30791   */\n    tag_259:\n        /* \"#utility.yul\":30777:30783   */\n      dup3\n        /* \"#utility.yul\":30772:30775   */\n      dup2\n        /* \"#utility.yul\":30767:30770   */\n      dup4\n        /* \"#utility.yul\":30754:30784   */\n      calldatacopy\n        /* \"#utility.yul\":30692:30791   */\n      pop\n      pop\n      pop\n      jump\t// out\n        /* \"#utility.yul\":30827:31364   */\n    tag_260:\n        /* \"#utility.yul\":30955:30958   */\n      0x00\n        /* \"#utility.yul\":30976:31062   */\n      tag_576\n        /* \"#utility.yul\":31055:31061   */\n      dup4\n        /* \"#utility.yul\":31050:31053   */\n      dup6\n        /* \"#utility.yul\":30976:31062   */\n      tag_210\n      jump\t// in\n    tag_576:\n        /* \"#utility.yul\":30969:31062   */\n      swap4\n      pop\n        /* \"#utility.yul\":31086:31152   */\n      0x07ffffffffffffffffffffffffffffffffffffffffffffffffffffffffffffff\n        /* \"#utility.yul\":31078:31084   */\n      dup4\n        /* \"#utility.yul\":31075:31153   */\n      gt\n        /* \"#utility.yul\":31072:31237   */\n      iszero\n      tag_577\n      jumpi\n        /* \"#utility.yul\":31156:31235   */\n      tag_578\n      tag_258\n      jump\t// in\n    tag_578:\n        /* \"#utility.yul\":31072:31237   */\n    tag_577:\n        /* \"#utility.yul\":31268:31272   */\n      0x20\n        /* \"#utility.yul\":31260:31266   */\n      dup4\n        /* \"#utility.yul\":31256:31273   */\n      mul\n        /* \"#utility.yul\":31246:31273   */\n      swap3\n      pop\n        /* \"#utility.yul\":31283:31326   */\n      tag_579\n        /* \"#utility.yul\":31319:31325   */\n      dup4\n        /* \"#utility.yul\":31314:31317   */\n      dup6\n        /* \"#utility.yul\":31307:31312   */\n      dup5\n        /* \"#utility.yul\":31283:31326   */\n      tag_259\n      jump\t// in\n    tag_579:\n        /* \"#utility.yul\":31351:31357   */\n      dup3\n        /* \"#utility.yul\":31346:31349   */\n      dup5\n        /* \"#utility.yul\":31342:31358   */\n      add\n        /* \"#utility.yul\":31335:31358   */\n      swap1\n      pop\n        /* \"#utility.yul\":30827:31364   */\n      swap4\n      swap3\n      pop\n      pop\n      pop\n      jump\t// out\n        /* \"#utility.yul\":31370:32044   */\n    tag_150:\n        /* \"#utility.yul\":31611:31615   */\n      0x00\n        /* \"#utility.yul\":31649:31651   */\n      0x40\n        /* \"#utility.yul\":31638:31647   */\n      dup3\n        /* \"#utility.yul\":31634:31652   */\n      add\n        /* \"#utility.yul\":31626:31652   */\n      swap1\n      pop\n        /* \"#utility.yul\":31698:31707   */\n      dup2\n        /* \"#utility.yul\":31692:31696   */\n      dup2\n        /* \"#utility.yul\":31688:31708   */\n      sub\n        /* \"#utility.yul\":31684:31685   */\n      0x00\n        /* \"#utility.yul\":31673:31682   */\n      dup4\n        /* \"#utility.yul\":31669:31686   */\n      add\n        /* \"#utility.yul\":31662:31709   */\n      mstore\n        /* \"#utility.yul\":31726:31844   */\n      tag_581\n        /* \"#utility.yul\":31839:31843   */\n      dup2\n        /* \"#utility.yul\":31830:31836   */\n      dup7\n        /* \"#utility.yul\":31822:31828   */\n      dup9\n        /* \"#utility.yul\":31726:31844   */\n      tag_260\n      jump\t// in\n    tag_581:\n        /* \"#utility.yul\":31718:31844   */\n      swap1\n      pop\n        /* \"#utility.yul\":31891:31900   */\n      dup2\n        /* \"#utility.yul\":31885:31889   */\n      dup2\n        /* \"#utility.yul\":31881:31901   */\n      sub\n        /* \"#utility.yul\":31876:31878   */\n      0x20\n        /* \"#utility.yul\":31865:31874   */\n      dup4\n        /* \"#utility.yul\":31861:31879   */\n      add\n        /* \"#utility.yul\":31854:31902   */\n      mstore\n        /* \"#utility.yul\":31919:32037   */\n      tag_582\n        /* \"#utility.yul\":32032:32036   */\n      dup2\n        /* \"#utility.yul\":32023:32029   */\n      dup5\n        /* \"#utility.yul\":32015:32021   */\n      dup7\n        /* \"#utility.yul\":31919:32037   */\n      tag_260\n      jump\t// in\n    tag_582:\n        /* \"#utility.yul\":31911:32037   */\n      swap1\n      pop\n        /* \"#utility.yul\":31370:32044   */\n      swap6\n      swap5\n      pop\n      pop\n      pop\n      pop\n      pop\n      jump\t// out\n        /* \"#utility.yul\":32050:33445   */\n    tag_158:\n        /* \"#utility.yul\":32167:32204   */\n      tag_584\n        /* \"#utility.yul\":32200:32203   */\n      dup3\n        /* \"#utility.yul\":32167:32204   */\n      tag_199\n      jump\t// in\n    tag_584:\n        /* \"#utility.yul\":32269:32287   */\n      0xffffffffffffffff\n        /* \"#utility.yul\":32261:32267   */\n      dup2\n        /* \"#utility.yul\":32258:32288   */\n      gt\n        /* \"#utility.yul\":32255:32311   */\n      iszero\n      tag_585\n      jumpi\n        /* \"#utility.yul\":32291:32309   */\n      tag_586\n      tag_98\n      jump\t// in\n    tag_586:\n        /* \"#utility.yul\":32255:32311   */\n    tag_585:\n        /* \"#utility.yul\":32335:32373   */\n      tag_587\n        /* \"#utility.yul\":32367:32371   */\n      dup3\n        /* \"#utility.yul\":32361:32372   */\n      sload\n        /* \"#utility.yul\":32335:32373   */\n      tag_70\n      jump\t// in\n    tag_587:\n        /* \"#utility.yul\":32420:32487   */\n      tag_588\n        /* \"#utility.yul\":32480:32486   */\n      dup3\n        /* \"#utility.yul\":32472:32478   */\n      dup3\n        /* \"#utility.yul\":32466:32470   */\n      dup6\n        /* \"#utility.yul\":32420:32487   */\n      tag_253\n      jump\t// in\n    tag_588:\n        /* \"#utility.yul\":32514:32515   */\n      0x00\n        /* \"#utility.yul\":32538:32542   */\n      0x20\n        /* \"#utility.yul\":32525:32542   */\n      swap1\n      pop\n        /* \"#utility.yul\":32570:32572   */\n      0x1f\n        /* \"#utility.yul\":32562:32568   */\n      dup4\n        /* \"#utility.yul\":32559:32573   */\n      gt\n        /* \"#utility.yul\":32587:32588   */\n      0x01\n        /* \"#utility.yul\":32582:33200   */\n      dup2\n      eq\n      tag_590\n      jumpi\n        /* \"#utility.yul\":33244:33245   */\n      0x00\n        /* \"#utility.yul\":33261:33267   */\n      dup5\n        /* \"#utility.yul\":33258:33335   */\n      iszero\n      tag_591\n      jumpi\n        /* \"#utility.yul\":33310:33319   */\n      dup3\n        /* \"#utility.yul\":33305:33308   */\n      dup8\n        /* \"#utility.yul\":33301:33320   */\n      add\n        /* \"#utility.yul\":33295:33321   */\n      mload\n        /* \"#utility.yul\":33286:33321   */\n      swap1\n      pop\n        /* \"#utility.yul\":33258:33335   */\n    tag_591:\n        /* \"#utility.yul\":33361:33428   */\n      tag_592\n        /* \"#utility.yul\":33421:33427   */\n      dup6\n        /* \"#utility.yul\":33414:33419   */\n      dup3\n        /* \"#utility.yul\":33361:33428   */\n      tag_256\n      jump\t// in\n    tag_592:\n        /* \"#utility.yul\":33355:33359   */\n      dup7\n        /* \"#utility.yul\":33348:33429   */\n      sstore\n        /* \"#utility.yul\":33217:33439   */\n      pop\n        /* \"#utility.yul\":32552:33439   */\n      jump(tag_589)\n        /* \"#utility.yul\":32582:33200   */\n    tag_590:\n        /* \"#utility.yul\":32634:32638   */\n      0x1f\n        /* \"#utility.yul\":32630:32639   */\n      not\n        /* \"#utility.yul\":32622:32628   */\n      dup5\n        /* \"#utility.yul\":32618:32640   */\n      and\n        /* \"#utility.yul\":32668:32705   */\n      tag_593\n        /* \"#utility.yul\":32700:32704   */\n      dup7\n        /* \"#utility.yul\":32668:32705   */\n      tag_242\n      jump\t// in\n    tag_593:\n        /* \"#utility.yul\":32727:32728   */\n      0x00\n        /* \"#utility.yul\":32741:32949   */\n    tag_594:\n        /* \"#utility.yul\":32755:32762   */\n      dup3\n        /* \"#utility.yul\":32752:32753   */\n      dup2\n        /* \"#utility.yul\":32749:32763   */\n      lt\n        /* \"#utility.yul\":32741:32949   */\n      iszero\n      tag_596\n      jumpi\n        /* \"#utility.yul\":32834:32843   */\n      dup5\n        /* \"#utility.yul\":32829:32832   */\n      dup10\n        /* \"#utility.yul\":32825:32844   */\n      add\n        /* \"#utility.yul\":32819:32845   */\n      mload\n        /* \"#utility.yul\":32811:32817   */\n      dup3\n        /* \"#utility.yul\":32804:32846   */\n      sstore\n        /* \"#utility.yul\":32885:32886   */\n      0x01\n        /* \"#utility.yul\":32877:32883   */\n      dup3\n        /* \"#utility.yul\":32873:32887   */\n      add\n        /* \"#utility.yul\":32863:32887   */\n      swap2\n      pop\n        /* \"#utility.yul\":32932:32934   */\n      0x20\n        /* \"#utility.yul\":32921:32930   */\n      dup6\n        /* \"#utility.yul\":32917:32935   */\n      add\n        /* \"#utility.yul\":32904:32935   */\n      swap5\n      pop\n        /* \"#utility.yul\":32778:32782   */\n      0x20\n        /* \"#utility.yul\":32775:32776   */\n      dup2\n        /* \"#utility.yul\":32771:32783   */\n      add\n        /* \"#utility.yul\":32766:32783   */\n      swap1\n      pop\n        /* \"#utility.yul\":32741:32949   */\n      jump(tag_594)\n    tag_596:\n        /* \"#utility.yul\":32977:32983   */\n      dup7\n        /* \"#utility.yul\":32968:32975   */\n      dup4\n        /* \"#utility.yul\":32965:32984   */\n      lt\n        /* \"#utility.yul\":32962:33141   */\n      iszero\n      tag_597\n      jumpi\n        /* \"#utility.yul\":33035:33044   */\n      dup5\n        /* \"#utility.yul\":33030:33033   */\n      dup10\n        /* \"#utility.yul\":33026:33045   */\n      add\n        /* \"#utility.yul\":33020:33046   */\n      mload\n        /* \"#utility.yul\":33078:33126   */\n      tag_598\n        /* \"#utility.yul\":33120:33124   */\n      0x1f\n        /* \"#utility.yul\":33112:33118   */\n      dup10\n        /* \"#utility.yul\":33108:33125   */\n      and\n        /* \"#utility.yul\":33097:33106   */\n      dup3\n        /* \"#utility.yul\":33078:33126   */\n      tag_255\n      jump\t// in\n    tag_598:\n        /* \"#utility.yul\":33070:33076   */\n      dup4\n        /* \"#utility.yul\":33063:33127   */\n      sstore\n        /* \"#utility.yul\":32985:33141   */\n      pop\n        /* \"#utility.yul\":32962:33141   */\n    tag_597:\n        /* \"#utility.yul\":33187:33188   */\n      0x01\n        /* \"#utility.yul\":33183:33184   */\n      0x02\n        /* \"#utility.yul\":33175:33181   */\n      dup9\n        /* \"#utility.yul\":33171:33185   */\n      mul\n        /* \"#utility.yul\":33167:33189   */\n      add\n        /* \"#utility.yul\":33161:33165   */\n      dup9\n        /* \"#utility.yul\":33154:33190   */\n      sstore\n        /* \"#utility.yul\":32589:33200   */\n      pop\n      pop\n      pop\n        /* \"#utility.yul\":32552:33439   */\n    tag_589:\n      pop\n        /* \"#utility.yul\":32142:33445   */\n      pop\n      pop\n      pop\n        /* \"#utility.yul\":32050:33445   */\n      pop\n      pop\n      jump\t// out\n\n    auxdata: 0xa2646970667358221220dd880c7f33ddfcc11fae0069ef248bcf3c43166f23b92c4d1b5973ee8db6f7da64736f6c634300081e0033\n}\n",
				"bytecode": {
					"linkReferences": {},
					"object": "6080604052348015600e575f5ffd5b506123ae8061001c5f395ff3fe608060405234801561000f575f5ffd5b506004361061009b575f3560e01c8063a22cb46511610064578063a22cb4651461017b578063a55784ef14610197578063bb7fde71146101b3578063e985e9c5146101cf578063fba0ee64146101ff5761009b565b8062fdd58e1461009f57806301ffc9a7146100cf5780630e89341c146100ff5780630febdd491461012f5780634e1273f41461014b575b5f5ffd5b6100b960048036038101906100b49190611311565b61021b565b6040516100c6919061135e565b60405180910390f35b6100e960048036038101906100e491906113cc565b6102de565b6040516100f69190611411565b60405180910390f35b6101196004803603810190610114919061142a565b61030f565b60405161012691906114c5565b60405180910390f35b610149600480360381019061014491906114e5565b6103b0565b005b610165600480360381019061016091906115ff565b6106f3565b6040516101729190611734565b60405180910390f35b6101956004803603810190610190919061177e565b61081f565b005b6101b160048036038101906101ac9190611811565b610917565b005b6101cd60048036038101906101c891906119fd565b610c2b565b005b6101e960048036038101906101e49190611a7d565b610dfa565b6040516101f69190611411565b60405180910390f35b61021960048036038101906102149190611abb565b610e88565b005b5f5f73ffffffffffffffffffffffffffffffffffffffff168373ffffffffffffffffffffffffffffffffffffffff160361028a576040517f08c379a000000000000000000000000000000000000000000000000000000000815260040161028190611ba8565b60405180910390fd5b5f5f8381526020019081526020015f205f8473ffffffffffffffffffffffffffffffffffffffff1673ffffffffffffffffffffffffffffffffffffffff1681526020019081526020015f2054905092915050565b5f63d9b67a2660e01b827bffffffffffffffffffffffffffffffffffffffffffffffffffffffff1916149050919050565b606060025f8381526020019081526020015f20805461032d90611bf3565b80601f016020809104026020016040519081016040528092919081815260200182805461035990611bf3565b80156103a45780601f1061037b576101008083540402835291602001916103a4565b820191905f5260205f20905b81548152906001019060200180831161038757829003601f168201915b50505050509050919050565b833373ffffffffffffffffffffffffffffffffffffffff168173ffffffffffffffffffffffffffffffffffffffff16148061046c575060015f8273ffffffffffffffffffffffffffffffffffffffff1673ffffffffffffffffffffffffffffffffffffffff1681526020019081526020015f205f3373ffffffffffffffffffffffffffffffffffffffff1673ffffffffffffffffffffffffffffffffffffffff1681526020019081526020015f205f9054906101000a900460ff165b6104ab576040517f08c379a00000000000000000000000000000000000000000000000000000000081526004016104a290611c6d565b60405180910390fd5b5f73ffffffffffffffffffffffffffffffffffffffff168473ffffffffffffffffffffffffffffffffffffffff1603610519576040517f08c379a000000000000000000000000000000000000000000000000000000000815260040161051090611ba8565b60405180910390fd5b5f5f5f8581526020019081526020015f205f8773ffffffffffffffffffffffffffffffffffffffff1673ffffffffffffffffffffffffffffffffffffffff1681526020019081526020015f20549050828110156105ab576040517f08c379a00000000000000000000000000000000000000000000000000000000081526004016105a290611cd5565b60405180910390fd5b825f5f8681526020019081526020015f205f8873ffffffffffffffffffffffffffffffffffffffff1673ffffffffffffffffffffffffffffffffffffffff1681526020019081526020015f205f8282546106059190611d20565b92505081905550825f5f8681526020019081526020015f205f8773ffffffffffffffffffffffffffffffffffffffff1673ffffffffffffffffffffffffffffffffffffffff1681526020019081526020015f205f8282546106669190611d53565b925050819055508473ffffffffffffffffffffffffffffffffffffffff168673ffffffffffffffffffffffffffffffffffffffff163373ffffffffffffffffffffffffffffffffffffffff167fc3d58168c5ae7397731d063d5bbf3d657854427343f4c083240f7aacaa2d0f6287876040516106e3929190611d86565b60405180910390a4505050505050565b606082829050858590501461073d576040517f08c379a000000000000000000000000000000000000000000000000000000000815260040161073490611df7565b60405180910390fd5b5f8585905067ffffffffffffffff81111561075b5761075a6118d9565b5b6040519080825280602002602001820160405280156107895781602001602082028036833780820191505090505b5090505f5f90505b86869050811015610812576107e68787838181106107b2576107b1611e15565b5b90506020020160208101906107c79190611e42565b8686848181106107da576107d9611e15565b5b9050602002013561021b565b8282815181106107f9576107f8611e15565b5b6020026020010181815250508080600101915050610791565b5080915050949350505050565b8060015f3373ffffffffffffffffffffffffffffffffffffffff1673ffffffffffffffffffffffffffffffffffffffff1681526020019081526020015f205f8473ffffffffffffffffffffffffffffffffffffffff1673ffffffffffffffffffffffffffffffffffffffff1681526020019081526020015f205f6101000a81548160ff0219169083151502179055508173ffffffffffffffffffffffffffffffffffffffff163373ffffffffffffffffffffffffffffffffffffffff167f17307eab39ab6107e8899845ad3d59bd9653f200f220920489ca2b5937696c318360405161090b9190611411565b60405180910390a35050565b5f73ffffffffffffffffffffffffffffffffffffffff168773ffffffffffffffffffffffffffffffffffffffff1603610985576040517f08c379a000000000000000000000000000000000000000000000000000000000815260040161097c90611ba8565b60405180910390fd5b838390508686905014801561099f57508181905086869050145b6109de576040517f08c379a00000000000000000000000000000000000000000000000000000000081526004016109d590611eb7565b60405180910390fd5b5f5f90505b86869050811015610b9f57848482818110610a0157610a00611e15565b5b905060200201355f5f898985818110610a1d57610a1c611e15565b5b9050602002013581526020019081526020015f205f8a73ffffffffffffffffffffffffffffffffffffffff1673ffffffffffffffffffffffffffffffffffffffff1681526020019081526020015f205f828254610a7a9190611d53565b925050819055505f60025f898985818110610a9857610a97611e15565b5b9050602002013581526020019081526020015f208054610ab790611bf3565b905003610b9257828282818110610ad157610ad0611e15565b5b9050602002810190610ae39190611ee1565b60025f8a8a86818110610af957610af8611e15565b5b9050602002013581526020019081526020015f209182610b1a9291906120ed565b50868682818110610b2e57610b2d611e15565b5b905060200201357f6bb7ff708619ba0610cba295a58592e0451dee2622938c8755667688daf3529b848484818110610b6957610b68611e15565b5b9050602002810190610b7b9190611ee1565b604051610b899291906121e6565b60405180910390a25b80806001019150506109e3565b508673ffffffffffffffffffffffffffffffffffffffff165f73ffffffffffffffffffffffffffffffffffffffff163373ffffffffffffffffffffffffffffffffffffffff167f4a39dc06d4c0dbc64b70af90fd698a233a518aa5d07e595d983b8c0526c8f7fb89898989604051610c1a9493929190612270565b60405180910390a450505050505050565b5f73ffffffffffffffffffffffffffffffffffffffff168473ffffffffffffffffffffffffffffffffffffffff1603610c99576040517f08c379a0000000000000000000000000000000000000000000000000000000008152600401610c9090611ba8565b60405180910390fd5b815f5f8581526020019081526020015f205f8673ffffffffffffffffffffffffffffffffffffffff1673ffffffffffffffffffffffffffffffffffffffff1681526020019081526020015f205f828254610cf39190611d53565b925050819055505f60025f8581526020019081526020015f208054610d1790611bf3565b905003610d76578060025f8581526020019081526020015f209081610d3c91906122a9565b50827f6bb7ff708619ba0610cba295a58592e0451dee2622938c8755667688daf3529b82604051610d6d91906114c5565b60405180910390a25b8373ffffffffffffffffffffffffffffffffffffffff165f73ffffffffffffffffffffffffffffffffffffffff163373ffffffffffffffffffffffffffffffffffffffff167fc3d58168c5ae7397731d063d5bbf3d657854427343f4c083240f7aacaa2d0f628686604051610dec929190611d86565b60405180910390a450505050565b5f60015f8473ffffffffffffffffffffffffffffffffffffffff1673ffffffffffffffffffffffffffffffffffffffff1681526020019081526020015f205f8373ffffffffffffffffffffffffffffffffffffffff1673ffffffffffffffffffffffffffffffffffffffff1681526020019081526020015f205f9054906101000a900460ff16905092915050565b853373ffffffffffffffffffffffffffffffffffffffff168173ffffffffffffffffffffffffffffffffffffffff161480610f44575060015f8273ffffffffffffffffffffffffffffffffffffffff1673ffffffffffffffffffffffffffffffffffffffff1681526020019081526020015f205f3373ffffffffffffffffffffffffffffffffffffffff1673ffffffffffffffffffffffffffffffffffffffff1681526020019081526020015f205f9054906101000a900460ff165b610f83576040517f08c379a0000000000000000000000000000000000000000000000000000000008152600401610f7a90611c6d565b60405180910390fd5b828290508585905014610fcb576040517f08c379a0000000000000000000000000000000000000000000000000000000008152600401610fc290611df7565b60405180910390fd5b5f73ffffffffffffffffffffffffffffffffffffffff168673ffffffffffffffffffffffffffffffffffffffff1603611039576040517f08c379a000000000000000000000000000000000000000000000000000000000815260040161103090611ba8565b60405180910390fd5b5f5f90505b858590508110156111e7575f86868381811061105d5761105c611e15565b5b9050602002013590505f85858481811061107a57611079611e15565b5b9050602002013590505f5f5f8481526020019081526020015f205f8c73ffffffffffffffffffffffffffffffffffffffff1673ffffffffffffffffffffffffffffffffffffffff1681526020019081526020015f2054905081811015611115576040517f08c379a000000000000000000000000000000000000000000000000000000000815260040161110c90611cd5565b60405180910390fd5b815f5f8581526020019081526020015f205f8d73ffffffffffffffffffffffffffffffffffffffff1673ffffffffffffffffffffffffffffffffffffffff1681526020019081526020015f205f82825461116f9190611d20565b92505081905550815f5f8581526020019081526020015f205f8c73ffffffffffffffffffffffffffffffffffffffff1673ffffffffffffffffffffffffffffffffffffffff1681526020019081526020015f205f8282546111d09190611d53565b92505081905550505050808060010191505061103e565b508573ffffffffffffffffffffffffffffffffffffffff168773ffffffffffffffffffffffffffffffffffffffff163373ffffffffffffffffffffffffffffffffffffffff167f4a39dc06d4c0dbc64b70af90fd698a233a518aa5d07e595d983b8c0526c8f7fb888888886040516112629493929190612270565b60405180910390a450505050505050565b5f604051905090565b5f5ffd5b5f5ffd5b5f73ffffffffffffffffffffffffffffffffffffffff82169050919050565b5f6112ad82611284565b9050919050565b6112bd816112a3565b81146112c7575f5ffd5b50565b5f813590506112d8816112b4565b92915050565b5f819050919050565b6112f0816112de565b81146112fa575f5ffd5b50565b5f8135905061130b816112e7565b92915050565b5f5f604083850312156113275761132661127c565b5b5f611334858286016112ca565b9250506020611345858286016112fd565b9150509250929050565b611358816112de565b82525050565b5f6020820190506113715f83018461134f565b92915050565b5f7fffffffff0000000000000000000000000000000000000000000000000000000082169050919050565b6113ab81611377565b81146113b5575f5ffd5b50565b5f813590506113c6816113a2565b92915050565b5f602082840312156113e1576113e061127c565b5b5f6113ee848285016113b8565b91505092915050565b5f8115159050919050565b61140b816113f7565b82525050565b5f6020820190506114245f830184611402565b92915050565b5f6020828403121561143f5761143e61127c565b5b5f61144c848285016112fd565b91505092915050565b5f81519050919050565b5f82825260208201905092915050565b8281835e5f83830152505050565b5f601f19601f8301169050919050565b5f61149782611455565b6114a1818561145f565b93506114b181856020860161146f565b6114ba8161147d565b840191505092915050565b5f6020820190508181035f8301526114dd818461148d565b905092915050565b5f5f5f5f608085870312156114fd576114fc61127c565b5b5f61150a878288016112ca565b945050602061151b878288016112ca565b935050604061152c878288016112fd565b925050606061153d878288016112fd565b91505092959194509250565b5f5ffd5b5f5ffd5b5f5ffd5b5f5f83601f84011261156a57611569611549565b5b8235905067ffffffffffffffff8111156115875761158661154d565b5b6020830191508360208202830111156115a3576115a2611551565b5b9250929050565b5f5f83601f8401126115bf576115be611549565b5b8235905067ffffffffffffffff8111156115dc576115db61154d565b5b6020830191508360208202830111156115f8576115f7611551565b5b9250929050565b5f5f5f5f604085870312156116175761161661127c565b5b5f85013567ffffffffffffffff81111561163457611633611280565b5b61164087828801611555565b9450945050602085013567ffffffffffffffff81111561166357611662611280565b5b61166f878288016115aa565b925092505092959194509250565b5f81519050919050565b5f82825260208201905092915050565b5f819050602082019050919050565b6116af816112de565b82525050565b5f6116c083836116a6565b60208301905092915050565b5f602082019050919050565b5f6116e28261167d565b6116ec8185611687565b93506116f783611697565b805f5b8381101561172757815161170e88826116b5565b9750611719836116cc565b9250506001810190506116fa565b5085935050505092915050565b5f6020820190508181035f83015261174c81846116d8565b905092915050565b61175d816113f7565b8114611767575f5ffd5b50565b5f8135905061177881611754565b92915050565b5f5f604083850312156117945761179361127c565b5b5f6117a1858286016112ca565b92505060206117b28582860161176a565b9150509250929050565b5f5f83601f8401126117d1576117d0611549565b5b8235905067ffffffffffffffff8111156117ee576117ed61154d565b5b60208301915083602082028301111561180a57611809611551565b5b9250929050565b5f5f5f5f5f5f5f6080888a03121561182c5761182b61127c565b5b5f6118398a828b016112ca565b975050602088013567ffffffffffffffff81111561185a57611859611280565b5b6118668a828b016115aa565b9650965050604088013567ffffffffffffffff81111561188957611888611280565b5b6118958a828b016115aa565b9450945050606088013567ffffffffffffffff8111156118b8576118b7611280565b5b6118c48a828b016117bc565b925092505092959891949750929550565b5f5ffd5b7f4e487b71000000000000000000000000000000000000000000000000000000005f52604160045260245ffd5b61190f8261147d565b810181811067ffffffffffffffff8211171561192e5761192d6118d9565b5b80604052505050565b5f611940611273565b905061194c8282611906565b919050565b5f67ffffffffffffffff82111561196b5761196a6118d9565b5b6119748261147d565b9050602081019050919050565b828183375f83830152505050565b5f6119a161199c84611951565b611937565b9050828152602081018484840111156119bd576119bc6118d5565b5b6119c8848285611981565b509392505050565b5f82601f8301126119e4576119e3611549565b5b81356119f484826020860161198f565b91505092915050565b5f5f5f5f60808587031215611a1557611a1461127c565b5b5f611a22878288016112ca565b9450506020611a33878288016112fd565b9350506040611a44878288016112fd565b925050606085013567ffffffffffffffff811115611a6557611a64611280565b5b611a71878288016119d0565b91505092959194509250565b5f5f60408385031215611a9357611a9261127c565b5b5f611aa0858286016112ca565b9250506020611ab1858286016112ca565b9150509250929050565b5f5f5f5f5f5f60808789031215611ad557611ad461127c565b5b5f611ae289828a016112ca565b9650506020611af389828a016112ca565b955050604087013567ffffffffffffffff811115611b1457611b13611280565b5b611b2089828a016115aa565b9450945050606087013567ffffffffffffffff811115611b4357611b42611280565b5b611b4f89828a016115aa565b92509250509295509295509295565b7f5a65726f206164647265737300000000000000000000000000000000000000005f82015250565b5f611b92600c8361145f565b9150611b9d82611b5e565b602082019050919050565b5f6020820190508181035f830152611bbf81611b86565b9050919050565b7f4e487b71000000000000000000000000000000000000000000000000000000005f52602260045260245ffd5b5f6002820490506001821680611c0a57607f821691505b602082108103611c1d57611c1c611bc6565b5b50919050565b7f4e6f7420617574686f72697a65640000000000000000000000000000000000005f82015250565b5f611c57600e8361145f565b9150611c6282611c23565b602082019050919050565b5f6020820190508181035f830152611c8481611c4b565b9050919050565b7f496e73756666696369656e742062616c616e63650000000000000000000000005f82015250565b5f611cbf60148361145f565b9150611cca82611c8b565b602082019050919050565b5f6020820190508181035f830152611cec81611cb3565b9050919050565b7f4e487b71000000000000000000000000000000000000000000000000000000005f52601160045260245ffd5b5f611d2a826112de565b9150611d35836112de565b9250828203905081811115611d4d57611d4c611cf3565b5b92915050565b5f611d5d826112de565b9150611d68836112de565b9250828201905080821115611d8057611d7f611cf3565b5b92915050565b5f604082019050611d995f83018561134f565b611da6602083018461134f565b9392505050565b7f4d69736d617463686564206172726179730000000000000000000000000000005f82015250565b5f611de160118361145f565b9150611dec82611dad565b602082019050919050565b5f6020820190508181035f830152611e0e81611dd5565b9050919050565b7f4e487b71000000000000000000000000000000000000000000000000000000005f52603260045260245ffd5b5f60208284031215611e5757611e5661127c565b5b5f611e64848285016112ca565b91505092915050565b7f4d69736d61746368656420696e707574730000000000000000000000000000005f82015250565b5f611ea160118361145f565b9150611eac82611e6d565b602082019050919050565b5f6020820190508181035f830152611ece81611e95565b9050919050565b5f5ffd5b5f5ffd5b5f5ffd5b5f5f83356001602003843603038112611efd57611efc611ed5565b5b80840192508235915067ffffffffffffffff821115611f1f57611f1e611ed9565b5b602083019250600182023603831315611f3b57611f3a611edd565b5b509250929050565b5f82905092915050565b5f819050815f5260205f209050919050565b5f6020601f8301049050919050565b5f82821b905092915050565b5f60088302611fa97fffffffffffffffffffffffffffffffffffffffffffffffffffffffffffffffff82611f6e565b611fb38683611f6e565b95508019841693508086168417925050509392505050565b5f819050919050565b5f611fee611fe9611fe4846112de565b611fcb565b6112de565b9050919050565b5f819050919050565b61200783611fd4565b61201b61201382611ff5565b848454611f7a565b825550505050565b5f5f905090565b612032612023565b61203d818484611ffe565b505050565b5b81811015612060576120555f8261202a565b600181019050612043565b5050565b601f8211156120a55761207681611f4d565b61207f84611f5f565b8101602085101561208e578190505b6120a261209a85611f5f565b830182612042565b50505b505050565b5f82821c905092915050565b5f6120c55f19846008026120aa565b1980831691505092915050565b5f6120dd83836120b6565b9150826002028217905092915050565b6120f78383611f43565b67ffffffffffffffff8111156121105761210f6118d9565b5b61211a8254611bf3565b612125828285612064565b5f601f831160018114612152575f8415612140578287013590505b61214a85826120d2565b8655506121b1565b601f19841661216086611f4d565b5f5b8281101561218757848901358255600182019150602085019450602081019050612162565b868310156121a457848901356121a0601f8916826120b6565b8355505b6001600288020188555050505b50505050505050565b5f6121c5838561145f565b93506121d2838584611981565b6121db8361147d565b840190509392505050565b5f6020820190508181035f8301526121ff8184866121ba565b90509392505050565b5f5ffd5b82818337505050565b5f6122208385611687565b93507f07ffffffffffffffffffffffffffffffffffffffffffffffffffffffffffffff83111561225357612252612208565b5b60208302925061226483858461220c565b82840190509392505050565b5f6040820190508181035f830152612289818688612215565b9050818103602083015261229e818486612215565b905095945050505050565b6122b282611455565b67ffffffffffffffff8111156122cb576122ca6118d9565b5b6122d58254611bf3565b6122e0828285612064565b5f60209050601f831160018114612311575f84156122ff578287015190505b61230985826120d2565b865550612370565b601f19841661231f86611f4d565b5f5b8281101561234657848901518255600182019150602085019450602081019050612321565b86831015612363578489015161235f601f8916826120b6565b8355505b6001600288020188555050505b50505050505056fea2646970667358221220dd880c7f33ddfcc11fae0069ef248bcf3c43166f23b92c4d1b5973ee8db6f7da64736f6c634300081e0033",
					"opcodes": "PUSH1 0x80 PUSH1 0x40 MSTORE CALLVALUE DUP1 ISZERO PUSH1 0xE JUMPI PUSH0 PUSH0 REVERT JUMPDEST POP PUSH2 0x23AE DUP1 PUSH2 0x1C PUSH0 CODECOPY PUSH0 RETURN INVALID PUSH1 0x80 PUSH1 0x40 MSTORE CALLVALUE DUP1 ISZERO PUSH2 0xF JUMPI PUSH0 PUSH0 REVERT JUMPDEST POP PUSH1 0x4 CALLDATASIZE LT PUSH2 0x9B JUMPI PUSH0 CALLDATALOAD PUSH1 0xE0 SHR DUP1 PUSH4 0xA22CB465 GT PUSH2 0x64 JUMPI DUP1 PUSH4 0xA22CB465 EQ PUSH2 0x17B JUMPI DUP1 PUSH4 0xA55784EF EQ PUSH2 0x197 JUMPI DUP1 PUSH4 0xBB7FDE71 EQ PUSH2 0x1B3 JUMPI DUP1 PUSH4 0xE985E9C5 EQ PUSH2 0x1CF JUMPI DUP1 PUSH4 0xFBA0EE64 EQ PUSH2 0x1FF JUMPI PUSH2 0x9B JUMP JUMPDEST DUP1 PUSH3 0xFDD58E EQ PUSH2 0x9F JUMPI DUP1 PUSH4 0x1FFC9A7 EQ PUSH2 0xCF JUMPI DUP1 PUSH4 0xE89341C EQ PUSH2 0xFF JUMPI DUP1 PUSH4 0xFEBDD49 EQ PUSH2 0x12F JUMPI DUP1 PUSH4 0x4E1273F4 EQ PUSH2 0x14B JUMPI JUMPDEST PUSH0 PUSH0 REVERT JUMPDEST PUSH2 0xB9 PUSH1 0x4 DUP1 CALLDATASIZE SUB DUP2 ADD SWAP1 PUSH2 0xB4 SWAP2 SWAP1 PUSH2 0x1311 JUMP JUMPDEST PUSH2 0x21B JUMP JUMPDEST PUSH1 0x40 MLOAD PUSH2 0xC6 SWAP2 SWAP1 PUSH2 0x135E JUMP JUMPDEST PUSH1 0x40 MLOAD DUP1 SWAP2 SUB SWAP1 RETURN JUMPDEST PUSH2 0xE9 PUSH1 0x4 DUP1 CALLDATASIZE SUB DUP2 ADD SWAP1 PUSH2 0xE4 SWAP2 SWAP1 PUSH2 0x13CC JUMP JUMPDEST PUSH2 0x2DE JUMP JUMPDEST PUSH1 0x40 MLOAD PUSH2 0xF6 SWAP2 SWAP1 PUSH2 0x1411 JUMP JUMPDEST PUSH1 0x40 MLOAD DUP1 SWAP2 SUB SWAP1 RETURN JUMPDEST PUSH2 0x119 PUSH1 0x4 DUP1 CALLDATASIZE SUB DUP2 ADD SWAP1 PUSH2 0x114 SWAP2 SWAP1 PUSH2 0x142A JUMP JUMPDEST PUSH2 0x30F JUMP JUMPDEST PUSH1 0x40 MLOAD PUSH2 0x126 SWAP2 SWAP1 PUSH2 0x14C5 JUMP JUMPDEST PUSH1 0x40 MLOAD DUP1 SWAP2 SUB SWAP1 RETURN JUMPDEST PUSH2 0x149 PUSH1 0x4 DUP1 CALLDATASIZE SUB DUP2 ADD SWAP1 PUSH2 0x144 SWAP2 SWAP1 PUSH2 0x14E5 JUMP JUMPDEST PUSH2 0x3B0 JUMP JUMPDEST STOP JUMPDEST PUSH2 0x165 PUSH1 0x4 DUP1 CALLDATASIZE SUB DUP2 ADD SWAP1 PUSH2 0x160 SWAP2 SWAP1 PUSH2 0x15FF JUMP JUMPDEST PUSH2 0x6F3 JUMP JUMPDEST PUSH1 0x40 MLOAD PUSH2 0x172 SWAP2 SWAP1 PUSH2 0x1734 JUMP JUMPDEST PUSH1 0x40 MLOAD DUP1 SWAP2 SUB SWAP1 RETURN JUMPDEST PUSH2 0x195 PUSH1 0x4 DUP1 CALLDATASIZE SUB DUP2 ADD SWAP1 PUSH2 0x190 SWAP2 SWAP1 PUSH2 0x177E JUMP JUMPDEST PUSH2 0x81F JUMP JUMPDEST STOP JUMPDEST PUSH2 0x1B1 PUSH1 0x4 DUP1 CALLDATASIZE SUB DUP2 ADD SWAP1 PUSH2 0x1AC SWAP2 SWAP1 PUSH2 0x1811 JUMP JUMPDEST PUSH2 0x917 JUMP JUMPDEST STOP JUMPDEST PUSH2 0x1CD PUSH1 0x4 DUP1 CALLDATASIZE SUB DUP2 ADD SWAP1 PUSH2 0x1C8 SWAP2 SWAP1 PUSH2 0x19FD JUMP JUMPDEST PUSH2 0xC2B JUMP JUMPDEST STOP JUMPDEST PUSH2 0x1E9 PUSH1 0x4 DUP1 CALLDATASIZE SUB DUP2 ADD SWAP1 PUSH2 0x1E4 SWAP2 SWAP1 PUSH2 0x1A7D JUMP JUMPDEST PUSH2 0xDFA JUMP JUMPDEST PUSH1 0x40 MLOAD PUSH2 0x1F6 SWAP2 SWAP1 PUSH2 0x1411 JUMP JUMPDEST PUSH1 0x40 MLOAD DUP1 SWAP2 SUB SWAP1 RETURN JUMPDEST PUSH2 0x219 PUSH1 0x4 DUP1 CALLDATASIZE SUB DUP2 ADD SWAP1 PUSH2 0x214 SWAP2 SWAP1 PUSH2 0x1ABB JUMP JUMPDEST PUSH2 0xE88 JUMP JUMPDEST STOP JUMPDEST PUSH0 PUSH0 PUSH20 0xFFFFFFFFFFFFFFFFFFFFFFFFFFFFFFFFFFFFFFFF AND DUP4 PUSH20 0xFFFFFFFFFFFFFFFFFFFFFFFFFFFFFFFFFFFFFFFF AND SUB PUSH2 0x28A JUMPI PUSH1 0x40 MLOAD PUSH32 0x8C379A000000000000000000000000000000000000000000000000000000000 DUP2 MSTORE PUSH1 0x4 ADD PUSH2 0x281 SWAP1 PUSH2 0x1BA8 JUMP JUMPDEST PUSH1 0x40 MLOAD DUP1 SWAP2 SUB SWAP1 REVERT JUMPDEST PUSH0 PUSH0 DUP4 DUP2 MSTORE PUSH1 0x20 ADD SWAP1 DUP2 MSTORE PUSH1 0x20 ADD PUSH0 KECCAK256 PUSH0 DUP5 PUSH20 0xFFFFFFFFFFFFFFFFFFFFFFFFFFFFFFFFFFFFFFFF AND PUSH20 0xFFFFFFFFFFFFFFFFFFFFFFFFFFFFFFFFFFFFFFFF AND DUP2 MSTORE PUSH1 0x20 ADD SWAP1 DUP2 MSTORE PUSH1 0x20 ADD PUSH0 KECCAK256 SLOAD SWAP1 POP SWAP3 SWAP2 POP POP JUMP JUMPDEST PUSH0 PUSH4 0xD9B67A26 PUSH1 0xE0 SHL DUP3 PUSH28 0xFFFFFFFFFFFFFFFFFFFFFFFFFFFFFFFFFFFFFFFFFFFFFFFFFFFFFFFF NOT AND EQ SWAP1 POP SWAP2 SWAP1 POP JUMP JUMPDEST PUSH1 0x60 PUSH1 0x2 PUSH0 DUP4 DUP2 MSTORE PUSH1 0x20 ADD SWAP1 DUP2 MSTORE PUSH1 0x20 ADD PUSH0 KECCAK256 DUP1 SLOAD PUSH2 0x32D SWAP1 PUSH2 0x1BF3 JUMP JUMPDEST DUP1 PUSH1 0x1F ADD PUSH1 0x20 DUP1 SWAP2 DIV MUL PUSH1 0x20 ADD PUSH1 0x40 MLOAD SWAP1 DUP2 ADD PUSH1 0x40 MSTORE DUP1 SWAP3 SWAP2 SWAP1 DUP2 DUP2 MSTORE PUSH1 0x20 ADD DUP3 DUP1 SLOAD PUSH2 0x359 SWAP1 PUSH2 0x1BF3 JUMP JUMPDEST DUP1 ISZERO PUSH2 0x3A4 JUMPI DUP1 PUSH1 0x1F LT PUSH2 0x37B JUMPI PUSH2 0x100 DUP1 DUP4 SLOAD DIV MUL DUP4 MSTORE SWAP2 PUSH1 0x20 ADD SWAP2 PUSH2 0x3A4 JUMP JUMPDEST DUP3 ADD SWAP2 SWAP1 PUSH0 MSTORE PUSH1 0x20 PUSH0 KECCAK256 SWAP1 JUMPDEST DUP2 SLOAD DUP2 MSTORE SWAP1 PUSH1 0x1 ADD SWAP1 PUSH1 0x20 ADD DUP1 DUP4 GT PUSH2 0x387 JUMPI DUP3 SWAP1 SUB PUSH1 0x1F AND DUP3 ADD SWAP2 JUMPDEST POP POP POP POP POP SWAP1 POP SWAP2 SWAP1 POP JUMP JUMPDEST DUP4 CALLER PUSH20 0xFFFFFFFFFFFFFFFFFFFFFFFFFFFFFFFFFFFFFFFF AND DUP2 PUSH20 0xFFFFFFFFFFFFFFFFFFFFFFFFFFFFFFFFFFFFFFFF AND EQ DUP1 PUSH2 0x46C JUMPI POP PUSH1 0x1 PUSH0 DUP3 PUSH20 0xFFFFFFFFFFFFFFFFFFFFFFFFFFFFFFFFFFFFFFFF AND PUSH20 0xFFFFFFFFFFFFFFFFFFFFFFFFFFFFFFFFFFFFFFFF AND DUP2 MSTORE PUSH1 0x20 ADD SWAP1 DUP2 MSTORE PUSH1 0x20 ADD PUSH0 KECCAK256 PUSH0 CALLER PUSH20 0xFFFFFFFFFFFFFFFFFFFFFFFFFFFFFFFFFFFFFFFF AND PUSH20 0xFFFFFFFFFFFFFFFFFFFFFFFFFFFFFFFFFFFFFFFF AND DUP2 MSTORE PUSH1 0x20 ADD SWAP1 DUP2 MSTORE PUSH1 0x20 ADD PUSH0 KECCAK256 PUSH0 SWAP1 SLOAD SWAP1 PUSH2 0x100 EXP SWAP1 DIV PUSH1 0xFF AND JUMPDEST PUSH2 0x4AB JUMPI PUSH1 0x40 MLOAD PUSH32 0x8C379A000000000000000000000000000000000000000000000000000000000 DUP2 MSTORE PUSH1 0x4 ADD PUSH2 0x4A2 SWAP1 PUSH2 0x1C6D JUMP JUMPDEST PUSH1 0x40 MLOAD DUP1 SWAP2 SUB SWAP1 REVERT JUMPDEST PUSH0 PUSH20 0xFFFFFFFFFFFFFFFFFFFFFFFFFFFFFFFFFFFFFFFF AND DUP5 PUSH20 0xFFFFFFFFFFFFFFFFFFFFFFFFFFFFFFFFFFFFFFFF AND SUB PUSH2 0x519 JUMPI PUSH1 0x40 MLOAD PUSH32 0x8C379A000000000000000000000000000000000000000000000000000000000 DUP2 MSTORE PUSH1 0x4 ADD PUSH2 0x510 SWAP1 PUSH2 0x1BA8 JUMP JUMPDEST PUSH1 0x40 MLOAD DUP1 SWAP2 SUB SWAP1 REVERT JUMPDEST PUSH0 PUSH0 PUSH0 DUP6 DUP2 MSTORE PUSH1 0x20 ADD SWAP1 DUP2 MSTORE PUSH1 0x20 ADD PUSH0 KECCAK256 PUSH0 DUP8 PUSH20 0xFFFFFFFFFFFFFFFFFFFFFFFFFFFFFFFFFFFFFFFF AND PUSH20 0xFFFFFFFFFFFFFFFFFFFFFFFFFFFFFFFFFFFFFFFF AND DUP2 MSTORE PUSH1 0x20 ADD SWAP1 DUP2 MSTORE PUSH1 0x20 ADD PUSH0 KECCAK256 SLOAD SWAP1 POP DUP3 DUP2 LT ISZERO PUSH2 0x5AB JUMPI PUSH1 0x40 MLOAD PUSH32 0x8C379A000000000000000000000000000000000000000000000000000000000 DUP2 MSTORE PUSH1 0x4 ADD PUSH2 0x5A2 SWAP1 PUSH2 0x1CD5 JUMP JUMPDEST PUSH1 0x40 MLOAD DUP1 SWAP2 SUB SWAP1 REVERT JUMPDEST DUP3 PUSH0 PUSH0 DUP7 DUP2 MSTORE PUSH1 0x20 ADD SWAP1 DUP2 MSTORE PUSH1 0x20 ADD PUSH0 KECCAK256 PUSH0 DUP9 PUSH20 0xFFFFFFFFFFFFFFFFFFFFFFFFFFFFFFFFFFFFFFFF AND PUSH20 0xFFFFFFFFFFFFFFFFFFFFFFFFFFFFFFFFFFFFFFFF AND DUP2 MSTORE PUSH1 0x20 ADD SWAP1 DUP2 MSTORE PUSH1 0x20 ADD PUSH0 KECCAK256 PUSH0 DUP3 DUP3 SLOAD PUSH2 0x605 SWAP2 SWAP1 PUSH2 0x1D20 JUMP JUMPDEST SWAP3 POP POP DUP2 SWAP1 SSTORE POP DUP3 PUSH0 PUSH0 DUP7 DUP2 MSTORE PUSH1 0x20 ADD SWAP1 DUP2 MSTORE PUSH1 0x20 ADD PUSH0 KECCAK256 PUSH0 DUP8 PUSH20 0xFFFFFFFFFFFFFFFFFFFFFFFFFFFFFFFFFFFFFFFF AND PUSH20 0xFFFFFFFFFFFFFFFFFFFFFFFFFFFFFFFFFFFFFFFF AND DUP2 MSTORE PUSH1 0x20 ADD SWAP1 DUP2 MSTORE PUSH1 0x20 ADD PUSH0 KECCAK256 PUSH0 DUP3 DUP3 SLOAD PUSH2 0x666 SWAP2 SWAP1 PUSH2 0x1D53 JUMP JUMPDEST SWAP3 POP POP DUP2 SWAP1 SSTORE POP DUP5 PUSH20 0xFFFFFFFFFFFFFFFFFFFFFFFFFFFFFFFFFFFFFFFF AND DUP7 PUSH20 0xFFFFFFFFFFFFFFFFFFFFFFFFFFFFFFFFFFFFFFFF AND CALLER PUSH20 0xFFFFFFFFFFFFFFFFFFFFFFFFFFFFFFFFFFFFFFFF AND PUSH32 0xC3D58168C5AE7397731D063D5BBF3D657854427343F4C083240F7AACAA2D0F62 DUP8 DUP8 PUSH1 0x40 MLOAD PUSH2 0x6E3 SWAP3 SWAP2 SWAP1 PUSH2 0x1D86 JUMP JUMPDEST PUSH1 0x40 MLOAD DUP1 SWAP2 SUB SWAP1 LOG4 POP POP POP POP POP POP JUMP JUMPDEST PUSH1 0x60 DUP3 DUP3 SWAP1 POP DUP6 DUP6 SWAP1 POP EQ PUSH2 0x73D JUMPI PUSH1 0x40 MLOAD PUSH32 0x8C379A000000000000000000000000000000000000000000000000000000000 DUP2 MSTORE PUSH1 0x4 ADD PUSH2 0x734 SWAP1 PUSH2 0x1DF7 JUMP JUMPDEST PUSH1 0x40 MLOAD DUP1 SWAP2 SUB SWAP1 REVERT JUMPDEST PUSH0 DUP6 DUP6 SWAP1 POP PUSH8 0xFFFFFFFFFFFFFFFF DUP2 GT ISZERO PUSH2 0x75B JUMPI PUSH2 0x75A PUSH2 0x18D9 JUMP JUMPDEST JUMPDEST PUSH1 0x40 MLOAD SWAP1 DUP1 DUP3 MSTORE DUP1 PUSH1 0x20 MUL PUSH1 0x20 ADD DUP3 ADD PUSH1 0x40 MSTORE DUP1 ISZERO PUSH2 0x789 JUMPI DUP2 PUSH1 0x20 ADD PUSH1 0x20 DUP3 MUL DUP1 CALLDATASIZE DUP4 CALLDATACOPY DUP1 DUP3 ADD SWAP2 POP POP SWAP1 POP JUMPDEST POP SWAP1 POP PUSH0 PUSH0 SWAP1 POP JUMPDEST DUP7 DUP7 SWAP1 POP DUP2 LT ISZERO PUSH2 0x812 JUMPI PUSH2 0x7E6 DUP8 DUP8 DUP4 DUP2 DUP2 LT PUSH2 0x7B2 JUMPI PUSH2 0x7B1 PUSH2 0x1E15 JUMP JUMPDEST JUMPDEST SWAP1 POP PUSH1 0x20 MUL ADD PUSH1 0x20 DUP2 ADD SWAP1 PUSH2 0x7C7 SWAP2 SWAP1 PUSH2 0x1E42 JUMP JUMPDEST DUP7 DUP7 DUP5 DUP2 DUP2 LT PUSH2 0x7DA JUMPI PUSH2 0x7D9 PUSH2 0x1E15 JUMP JUMPDEST JUMPDEST SWAP1 POP PUSH1 0x20 MUL ADD CALLDATALOAD PUSH2 0x21B JUMP JUMPDEST DUP3 DUP3 DUP2 MLOAD DUP2 LT PUSH2 0x7F9 JUMPI PUSH2 0x7F8 PUSH2 0x1E15 JUMP JUMPDEST JUMPDEST PUSH1 0x20 MUL PUSH1 0x20 ADD ADD DUP2 DUP2 MSTORE POP POP DUP1 DUP1 PUSH1 0x1 ADD SWAP2 POP POP PUSH2 0x791 JUMP JUMPDEST POP DUP1 SWAP2 POP POP SWAP5 SWAP4 POP POP POP POP JUMP JUMPDEST DUP1 PUSH1 0x1 PUSH0 CALLER PUSH20 0xFFFFFFFFFFFFFFFFFFFFFFFFFFFFFFFFFFFFFFFF AND PUSH20 0xFFFFFFFFFFFFFFFFFFFFFFFFFFFFFFFFFFFFFFFF AND DUP2 MSTORE PUSH1 0x20 ADD SWAP1 DUP2 MSTORE PUSH1 0x20 ADD PUSH0 KECCAK256 PUSH0 DUP5 PUSH20 0xFFFFFFFFFFFFFFFFFFFFFFFFFFFFFFFFFFFFFFFF AND PUSH20 0xFFFFFFFFFFFFFFFFFFFFFFFFFFFFFFFFFFFFFFFF AND DUP2 MSTORE PUSH1 0x20 ADD SWAP1 DUP2 MSTORE PUSH1 0x20 ADD PUSH0 KECCAK256 PUSH0 PUSH2 0x100 EXP DUP2 SLOAD DUP2 PUSH1 0xFF MUL NOT AND SWAP1 DUP4 ISZERO ISZERO MUL OR SWAP1 SSTORE POP DUP2 PUSH20 0xFFFFFFFFFFFFFFFFFFFFFFFFFFFFFFFFFFFFFFFF AND CALLER PUSH20 0xFFFFFFFFFFFFFFFFFFFFFFFFFFFFFFFFFFFFFFFF AND PUSH32 0x17307EAB39AB6107E8899845AD3D59BD9653F200F220920489CA2B5937696C31 DUP4 PUSH1 0x40 MLOAD PUSH2 0x90B SWAP2 SWAP1 PUSH2 0x1411 JUMP JUMPDEST PUSH1 0x40 MLOAD DUP1 SWAP2 SUB SWAP1 LOG3 POP POP JUMP JUMPDEST PUSH0 PUSH20 0xFFFFFFFFFFFFFFFFFFFFFFFFFFFFFFFFFFFFFFFF AND DUP8 PUSH20 0xFFFFFFFFFFFFFFFFFFFFFFFFFFFFFFFFFFFFFFFF AND SUB PUSH2 0x985 JUMPI PUSH1 0x40 MLOAD PUSH32 0x8C379A000000000000000000000000000000000000000000000000000000000 DUP2 MSTORE PUSH1 0x4 ADD PUSH2 0x97C SWAP1 PUSH2 0x1BA8 JUMP JUMPDEST PUSH1 0x40 MLOAD DUP1 SWAP2 SUB SWAP1 REVERT JUMPDEST DUP4 DUP4 SWAP1 POP DUP7 DUP7 SWAP1 POP EQ DUP1 ISZERO PUSH2 0x99F JUMPI POP DUP2 DUP2 SWAP1 POP DUP7 DUP7 SWAP1 POP EQ JUMPDEST PUSH2 0x9DE JUMPI PUSH1 0x40 MLOAD PUSH32 0x8C379A000000000000000000000000000000000000000000000000000000000 DUP2 MSTORE PUSH1 0x4 ADD PUSH2 0x9D5 SWAP1 PUSH2 0x1EB7 JUMP JUMPDEST PUSH1 0x40 MLOAD DUP1 SWAP2 SUB SWAP1 REVERT JUMPDEST PUSH0 PUSH0 SWAP1 POP JUMPDEST DUP7 DUP7 SWAP1 POP DUP2 LT ISZERO PUSH2 0xB9F JUMPI DUP5 DUP5 DUP3 DUP2 DUP2 LT PUSH2 0xA01 JUMPI PUSH2 0xA00 PUSH2 0x1E15 JUMP JUMPDEST JUMPDEST SWAP1 POP PUSH1 0x20 MUL ADD CALLDATALOAD PUSH0 PUSH0 DUP10 DUP10 DUP6 DUP2 DUP2 LT PUSH2 0xA1D JUMPI PUSH2 0xA1C PUSH2 0x1E15 JUMP JUMPDEST JUMPDEST SWAP1 POP PUSH1 0x20 MUL ADD CALLDATALOAD DUP2 MSTORE PUSH1 0x20 ADD SWAP1 DUP2 MSTORE PUSH1 0x20 ADD PUSH0 KECCAK256 PUSH0 DUP11 PUSH20 0xFFFFFFFFFFFFFFFFFFFFFFFFFFFFFFFFFFFFFFFF AND PUSH20 0xFFFFFFFFFFFFFFFFFFFFFFFFFFFFFFFFFFFFFFFF AND DUP2 MSTORE PUSH1 0x20 ADD SWAP1 DUP2 MSTORE PUSH1 0x20 ADD PUSH0 KECCAK256 PUSH0 DUP3 DUP3 SLOAD PUSH2 0xA7A SWAP2 SWAP1 PUSH2 0x1D53 JUMP JUMPDEST SWAP3 POP POP DUP2 SWAP1 SSTORE POP PUSH0 PUSH1 0x2 PUSH0 DUP10 DUP10 DUP6 DUP2 DUP2 LT PUSH2 0xA98 JUMPI PUSH2 0xA97 PUSH2 0x1E15 JUMP JUMPDEST JUMPDEST SWAP1 POP PUSH1 0x20 MUL ADD CALLDATALOAD DUP2 MSTORE PUSH1 0x20 ADD SWAP1 DUP2 MSTORE PUSH1 0x20 ADD PUSH0 KECCAK256 DUP1 SLOAD PUSH2 0xAB7 SWAP1 PUSH2 0x1BF3 JUMP JUMPDEST SWAP1 POP SUB PUSH2 0xB92 JUMPI DUP3 DUP3 DUP3 DUP2 DUP2 LT PUSH2 0xAD1 JUMPI PUSH2 0xAD0 PUSH2 0x1E15 JUMP JUMPDEST JUMPDEST SWAP1 POP PUSH1 0x20 MUL DUP2 ADD SWAP1 PUSH2 0xAE3 SWAP2 SWAP1 PUSH2 0x1EE1 JUMP JUMPDEST PUSH1 0x2 PUSH0 DUP11 DUP11 DUP7 DUP2 DUP2 LT PUSH2 0xAF9 JUMPI PUSH2 0xAF8 PUSH2 0x1E15 JUMP JUMPDEST JUMPDEST SWAP1 POP PUSH1 0x20 MUL ADD CALLDATALOAD DUP2 MSTORE PUSH1 0x20 ADD SWAP1 DUP2 MSTORE PUSH1 0x20 ADD PUSH0 KECCAK256 SWAP2 DUP3 PUSH2 0xB1A SWAP3 SWAP2 SWAP1 PUSH2 0x20ED JUMP JUMPDEST POP DUP7 DUP7 DUP3 DUP2 DUP2 LT PUSH2 0xB2E JUMPI PUSH2 0xB2D PUSH2 0x1E15 JUMP JUMPDEST JUMPDEST SWAP1 POP PUSH1 0x20 MUL ADD CALLDATALOAD PUSH32 0x6BB7FF708619BA0610CBA295A58592E0451DEE2622938C8755667688DAF3529B DUP5 DUP5 DUP5 DUP2 DUP2 LT PUSH2 0xB69 JUMPI PUSH2 0xB68 PUSH2 0x1E15 JUMP JUMPDEST JUMPDEST SWAP1 POP PUSH1 0x20 MUL DUP2 ADD SWAP1 PUSH2 0xB7B SWAP2 SWAP1 PUSH2 0x1EE1 JUMP JUMPDEST PUSH1 0x40 MLOAD PUSH2 0xB89 SWAP3 SWAP2 SWAP1 PUSH2 0x21E6 JUMP JUMPDEST PUSH1 0x40 MLOAD DUP1 SWAP2 SUB SWAP1 LOG2 JUMPDEST DUP1 DUP1 PUSH1 0x1 ADD SWAP2 POP POP PUSH2 0x9E3 JUMP JUMPDEST POP DUP7 PUSH20 0xFFFFFFFFFFFFFFFFFFFFFFFFFFFFFFFFFFFFFFFF AND PUSH0 PUSH20 0xFFFFFFFFFFFFFFFFFFFFFFFFFFFFFFFFFFFFFFFF AND CALLER PUSH20 0xFFFFFFFFFFFFFFFFFFFFFFFFFFFFFFFFFFFFFFFF AND PUSH32 0x4A39DC06D4C0DBC64B70AF90FD698A233A518AA5D07E595D983B8C0526C8F7FB DUP10 DUP10 DUP10 DUP10 PUSH1 0x40 MLOAD PUSH2 0xC1A SWAP5 SWAP4 SWAP3 SWAP2 SWAP1 PUSH2 0x2270 JUMP JUMPDEST PUSH1 0x40 MLOAD DUP1 SWAP2 SUB SWAP1 LOG4 POP POP POP POP POP POP POP JUMP JUMPDEST PUSH0 PUSH20 0xFFFFFFFFFFFFFFFFFFFFFFFFFFFFFFFFFFFFFFFF AND DUP5 PUSH20 0xFFFFFFFFFFFFFFFFFFFFFFFFFFFFFFFFFFFFFFFF AND SUB PUSH2 0xC99 JUMPI PUSH1 0x40 MLOAD PUSH32 0x8C379A000000000000000000000000000000000000000000000000000000000 DUP2 MSTORE PUSH1 0x4 ADD PUSH2 0xC90 SWAP1 PUSH2 0x1BA8 JUMP JUMPDEST PUSH1 0x40 MLOAD DUP1 SWAP2 SUB SWAP1 REVERT JUMPDEST DUP2 PUSH0 PUSH0 DUP6 DUP2 MSTORE PUSH1 0x20 ADD SWAP1 DUP2 MSTORE PUSH1 0x20 ADD PUSH0 KECCAK256 PUSH0 DUP7 PUSH20 0xFFFFFFFFFFFFFFFFFFFFFFFFFFFFFFFFFFFFFFFF AND PUSH20 0xFFFFFFFFFFFFFFFFFFFFFFFFFFFFFFFFFFFFFFFF AND DUP2 MSTORE PUSH1 0x20 ADD SWAP1 DUP2 MSTORE PUSH1 0x20 ADD PUSH0 KECCAK256 PUSH0 DUP3 DUP3 SLOAD PUSH2 0xCF3 SWAP2 SWAP1 PUSH2 0x1D53 JUMP JUMPDEST SWAP3 POP POP DUP2 SWAP1 SSTORE POP PUSH0 PUSH1 0x2 PUSH0 DUP6 DUP2 MSTORE PUSH1 0x20 ADD SWAP1 DUP2 MSTORE PUSH1 0x20 ADD PUSH0 KECCAK256 DUP1 SLOAD PUSH2 0xD17 SWAP1 PUSH2 0x1BF3 JUMP JUMPDEST SWAP1 POP SUB PUSH2 0xD76 JUMPI DUP1 PUSH1 0x2 PUSH0 DUP6 DUP2 MSTORE PUSH1 0x20 ADD SWAP1 DUP2 MSTORE PUSH1 0x20 ADD PUSH0 KECCAK256 SWAP1 DUP2 PUSH2 0xD3C SWAP2 SWAP1 PUSH2 0x22A9 JUMP JUMPDEST POP DUP3 PUSH32 0x6BB7FF708619BA0610CBA295A58592E0451DEE2622938C8755667688DAF3529B DUP3 PUSH1 0x40 MLOAD PUSH2 0xD6D SWAP2 SWAP1 PUSH2 0x14C5 JUMP JUMPDEST PUSH1 0x40 MLOAD DUP1 SWAP2 SUB SWAP1 LOG2 JUMPDEST DUP4 PUSH20 0xFFFFFFFFFFFFFFFFFFFFFFFFFFFFFFFFFFFFFFFF AND PUSH0 PUSH20 0xFFFFFFFFFFFFFFFFFFFFFFFFFFFFFFFFFFFFFFFF AND CALLER PUSH20 0xFFFFFFFFFFFFFFFFFFFFFFFFFFFFFFFFFFFFFFFF AND PUSH32 0xC3D58168C5AE7397731D063D5BBF3D657854427343F4C083240F7AACAA2D0F62 DUP7 DUP7 PUSH1 0x40 MLOAD PUSH2 0xDEC SWAP3 SWAP2 SWAP1 PUSH2 0x1D86 JUMP JUMPDEST PUSH1 0x40 MLOAD DUP1 SWAP2 SUB SWAP1 LOG4 POP POP POP POP JUMP JUMPDEST PUSH0 PUSH1 0x1 PUSH0 DUP5 PUSH20 0xFFFFFFFFFFFFFFFFFFFFFFFFFFFFFFFFFFFFFFFF AND PUSH20 0xFFFFFFFFFFFFFFFFFFFFFFFFFFFFFFFFFFFFFFFF AND DUP2 MSTORE PUSH1 0x20 ADD SWAP1 DUP2 MSTORE PUSH1 0x20 ADD PUSH0 KECCAK256 PUSH0 DUP4 PUSH20 0xFFFFFFFFFFFFFFFFFFFFFFFFFFFFFFFFFFFFFFFF AND PUSH20 0xFFFFFFFFFFFFFFFFFFFFFFFFFFFFFFFFFFFFFFFF AND DUP2 MSTORE PUSH1 0x20 ADD SWAP1 DUP2 MSTORE PUSH1 0x20 ADD PUSH0 KECCAK256 PUSH0 SWAP1 SLOAD SWAP1 PUSH2 0x100 EXP SWAP1 DIV PUSH1 0xFF AND SWAP1 POP SWAP3 SWAP2 POP POP JUMP JUMPDEST DUP6 CALLER PUSH20 0xFFFFFFFFFFFFFFFFFFFFFFFFFFFFFFFFFFFFFFFF AND DUP2 PUSH20 0xFFFFFFFFFFFFFFFFFFFFFFFFFFFFFFFFFFFFFFFF AND EQ DUP1 PUSH2 0xF44 JUMPI POP PUSH1 0x1 PUSH0 DUP3 PUSH20 0xFFFFFFFFFFFFFFFFFFFFFFFFFFFFFFFFFFFFFFFF AND PUSH20 0xFFFFFFFFFFFFFFFFFFFFFFFFFFFFFFFFFFFFFFFF AND DUP2 MSTORE PUSH1 0x20 ADD SWAP1 DUP2 MSTORE PUSH1 0x20 ADD PUSH0 KECCAK256 PUSH0 CALLER PUSH20 0xFFFFFFFFFFFFFFFFFFFFFFFFFFFFFFFFFFFFFFFF AND PUSH20 0xFFFFFFFFFFFFFFFFFFFFFFFFFFFFFFFFFFFFFFFF AND DUP2 MSTORE PUSH1 0x20 ADD SWAP1 DUP2 MSTORE PUSH1 0x20 ADD PUSH0 KECCAK256 PUSH0 SWAP1 SLOAD SWAP1 PUSH2 0x100 EXP SWAP1 DIV PUSH1 0xFF AND JUMPDEST PUSH2 0xF83 JUMPI PUSH1 0x40 MLOAD PUSH32 0x8C379A000000000000000000000000000000000000000000000000000000000 DUP2 MSTORE PUSH1 0x4 ADD PUSH2 0xF7A SWAP1 PUSH2 0x1C6D JUMP JUMPDEST PUSH1 0x40 MLOAD DUP1 SWAP2 SUB SWAP1 REVERT JUMPDEST DUP3 DUP3 SWAP1 POP DUP6 DUP6 SWAP1 POP EQ PUSH2 0xFCB JUMPI PUSH1 0x40 MLOAD PUSH32 0x8C379A000000000000000000000000000000000000000000000000000000000 DUP2 MSTORE PUSH1 0x4 ADD PUSH2 0xFC2 SWAP1 PUSH2 0x1DF7 JUMP JUMPDEST PUSH1 0x40 MLOAD DUP1 SWAP2 SUB SWAP1 REVERT JUMPDEST PUSH0 PUSH20 0xFFFFFFFFFFFFFFFFFFFFFFFFFFFFFFFFFFFFFFFF AND DUP7 PUSH20 0xFFFFFFFFFFFFFFFFFFFFFFFFFFFFFFFFFFFFFFFF AND SUB PUSH2 0x1039 JUMPI PUSH1 0x40 MLOAD PUSH32 0x8C379A000000000000000000000000000000000000000000000000000000000 DUP2 MSTORE PUSH1 0x4 ADD PUSH2 0x1030 SWAP1 PUSH2 0x1BA8 JUMP JUMPDEST PUSH1 0x40 MLOAD DUP1 SWAP2 SUB SWAP1 REVERT JUMPDEST PUSH0 PUSH0 SWAP1 POP JUMPDEST DUP6 DUP6 SWAP1 POP DUP2 LT ISZERO PUSH2 0x11E7 JUMPI PUSH0 DUP7 DUP7 DUP4 DUP2 DUP2 LT PUSH2 0x105D JUMPI PUSH2 0x105C PUSH2 0x1E15 JUMP JUMPDEST JUMPDEST SWAP1 POP PUSH1 0x20 MUL ADD CALLDATALOAD SWAP1 POP PUSH0 DUP6 DUP6 DUP5 DUP2 DUP2 LT PUSH2 0x107A JUMPI PUSH2 0x1079 PUSH2 0x1E15 JUMP JUMPDEST JUMPDEST SWAP1 POP PUSH1 0x20 MUL ADD CALLDATALOAD SWAP1 POP PUSH0 PUSH0 PUSH0 DUP5 DUP2 MSTORE PUSH1 0x20 ADD SWAP1 DUP2 MSTORE PUSH1 0x20 ADD PUSH0 KECCAK256 PUSH0 DUP13 PUSH20 0xFFFFFFFFFFFFFFFFFFFFFFFFFFFFFFFFFFFFFFFF AND PUSH20 0xFFFFFFFFFFFFFFFFFFFFFFFFFFFFFFFFFFFFFFFF AND DUP2 MSTORE PUSH1 0x20 ADD SWAP1 DUP2 MSTORE PUSH1 0x20 ADD PUSH0 KECCAK256 SLOAD SWAP1 POP DUP2 DUP2 LT ISZERO PUSH2 0x1115 JUMPI PUSH1 0x40 MLOAD PUSH32 0x8C379A000000000000000000000000000000000000000000000000000000000 DUP2 MSTORE PUSH1 0x4 ADD PUSH2 0x110C SWAP1 PUSH2 0x1CD5 JUMP JUMPDEST PUSH1 0x40 MLOAD DUP1 SWAP2 SUB SWAP1 REVERT JUMPDEST DUP2 PUSH0 PUSH0 DUP6 DUP2 MSTORE PUSH1 0x20 ADD SWAP1 DUP2 MSTORE PUSH1 0x20 ADD PUSH0 KECCAK256 PUSH0 DUP14 PUSH20 0xFFFFFFFFFFFFFFFFFFFFFFFFFFFFFFFFFFFFFFFF AND PUSH20 0xFFFFFFFFFFFFFFFFFFFFFFFFFFFFFFFFFFFFFFFF AND DUP2 MSTORE PUSH1 0x20 ADD SWAP1 DUP2 MSTORE PUSH1 0x20 ADD PUSH0 KECCAK256 PUSH0 DUP3 DUP3 SLOAD PUSH2 0x116F SWAP2 SWAP1 PUSH2 0x1D20 JUMP JUMPDEST SWAP3 POP POP DUP2 SWAP1 SSTORE POP DUP2 PUSH0 PUSH0 DUP6 DUP2 MSTORE PUSH1 0x20 ADD SWAP1 DUP2 MSTORE PUSH1 0x20 ADD PUSH0 KECCAK256 PUSH0 DUP13 PUSH20 0xFFFFFFFFFFFFFFFFFFFFFFFFFFFFFFFFFFFFFFFF AND PUSH20 0xFFFFFFFFFFFFFFFFFFFFFFFFFFFFFFFFFFFFFFFF AND DUP2 MSTORE PUSH1 0x20 ADD SWAP1 DUP2 MSTORE PUSH1 0x20 ADD PUSH0 KECCAK256 PUSH0 DUP3 DUP3 SLOAD PUSH2 0x11D0 SWAP2 SWAP1 PUSH2 0x1D53 JUMP JUMPDEST SWAP3 POP POP DUP2 SWAP1 SSTORE POP POP POP POP DUP1 DUP1 PUSH1 0x1 ADD SWAP2 POP POP PUSH2 0x103E JUMP JUMPDEST POP DUP6 PUSH20 0xFFFFFFFFFFFFFFFFFFFFFFFFFFFFFFFFFFFFFFFF AND DUP8 PUSH20 0xFFFFFFFFFFFFFFFFFFFFFFFFFFFFFFFFFFFFFFFF AND CALLER PUSH20 0xFFFFFFFFFFFFFFFFFFFFFFFFFFFFFFFFFFFFFFFF AND PUSH32 0x4A39DC06D4C0DBC64B70AF90FD698A233A518AA5D07E595D983B8C0526C8F7FB DUP9 DUP9 DUP9 DUP9 PUSH1 0x40 MLOAD PUSH2 0x1262 SWAP5 SWAP4 SWAP3 SWAP2 SWAP1 PUSH2 0x2270 JUMP JUMPDEST PUSH1 0x40 MLOAD DUP1 SWAP2 SUB SWAP1 LOG4 POP POP POP POP POP POP POP JUMP JUMPDEST PUSH0 PUSH1 0x40 MLOAD SWAP1 POP SWAP1 JUMP JUMPDEST PUSH0 PUSH0 REVERT JUMPDEST PUSH0 PUSH0 REVERT JUMPDEST PUSH0 PUSH20 0xFFFFFFFFFFFFFFFFFFFFFFFFFFFFFFFFFFFFFFFF DUP3 AND SWAP1 POP SWAP2 SWAP1 POP JUMP JUMPDEST PUSH0 PUSH2 0x12AD DUP3 PUSH2 0x1284 JUMP JUMPDEST SWAP1 POP SWAP2 SWAP1 POP JUMP JUMPDEST PUSH2 0x12BD DUP2 PUSH2 0x12A3 JUMP JUMPDEST DUP2 EQ PUSH2 0x12C7 JUMPI PUSH0 PUSH0 REVERT JUMPDEST POP JUMP JUMPDEST PUSH0 DUP2 CALLDATALOAD SWAP1 POP PUSH2 0x12D8 DUP2 PUSH2 0x12B4 JUMP JUMPDEST SWAP3 SWAP2 POP POP JUMP JUMPDEST PUSH0 DUP2 SWAP1 POP SWAP2 SWAP1 POP JUMP JUMPDEST PUSH2 0x12F0 DUP2 PUSH2 0x12DE JUMP JUMPDEST DUP2 EQ PUSH2 0x12FA JUMPI PUSH0 PUSH0 REVERT JUMPDEST POP JUMP JUMPDEST PUSH0 DUP2 CALLDATALOAD SWAP1 POP PUSH2 0x130B DUP2 PUSH2 0x12E7 JUMP JUMPDEST SWAP3 SWAP2 POP POP JUMP JUMPDEST PUSH0 PUSH0 PUSH1 0x40 DUP4 DUP6 SUB SLT ISZERO PUSH2 0x1327 JUMPI PUSH2 0x1326 PUSH2 0x127C JUMP JUMPDEST JUMPDEST PUSH0 PUSH2 0x1334 DUP6 DUP3 DUP7 ADD PUSH2 0x12CA JUMP JUMPDEST SWAP3 POP POP PUSH1 0x20 PUSH2 0x1345 DUP6 DUP3 DUP7 ADD PUSH2 0x12FD JUMP JUMPDEST SWAP2 POP POP SWAP3 POP SWAP3 SWAP1 POP JUMP JUMPDEST PUSH2 0x1358 DUP2 PUSH2 0x12DE JUMP JUMPDEST DUP3 MSTORE POP POP JUMP JUMPDEST PUSH0 PUSH1 0x20 DUP3 ADD SWAP1 POP PUSH2 0x1371 PUSH0 DUP4 ADD DUP5 PUSH2 0x134F JUMP JUMPDEST SWAP3 SWAP2 POP POP JUMP JUMPDEST PUSH0 PUSH32 0xFFFFFFFF00000000000000000000000000000000000000000000000000000000 DUP3 AND SWAP1 POP SWAP2 SWAP1 POP JUMP JUMPDEST PUSH2 0x13AB DUP2 PUSH2 0x1377 JUMP JUMPDEST DUP2 EQ PUSH2 0x13B5 JUMPI PUSH0 PUSH0 REVERT JUMPDEST POP JUMP JUMPDEST PUSH0 DUP2 CALLDATALOAD SWAP1 POP PUSH2 0x13C6 DUP2 PUSH2 0x13A2 JUMP JUMPDEST SWAP3 SWAP2 POP POP JUMP JUMPDEST PUSH0 PUSH1 0x20 DUP3 DUP5 SUB SLT ISZERO PUSH2 0x13E1 JUMPI PUSH2 0x13E0 PUSH2 0x127C JUMP JUMPDEST JUMPDEST PUSH0 PUSH2 0x13EE DUP5 DUP3 DUP6 ADD PUSH2 0x13B8 JUMP JUMPDEST SWAP2 POP POP SWAP3 SWAP2 POP POP JUMP JUMPDEST PUSH0 DUP2 ISZERO ISZERO SWAP1 POP SWAP2 SWAP1 POP JUMP JUMPDEST PUSH2 0x140B DUP2 PUSH2 0x13F7 JUMP JUMPDEST DUP3 MSTORE POP POP JUMP JUMPDEST PUSH0 PUSH1 0x20 DUP3 ADD SWAP1 POP PUSH2 0x1424 PUSH0 DUP4 ADD DUP5 PUSH2 0x1402 JUMP JUMPDEST SWAP3 SWAP2 POP POP JUMP JUMPDEST PUSH0 PUSH1 0x20 DUP3 DUP5 SUB SLT ISZERO PUSH2 0x143F JUMPI PUSH2 0x143E PUSH2 0x127C JUMP JUMPDEST JUMPDEST PUSH0 PUSH2 0x144C DUP5 DUP3 DUP6 ADD PUSH2 0x12FD JUMP JUMPDEST SWAP2 POP POP SWAP3 SWAP2 POP POP JUMP JUMPDEST PUSH0 DUP2 MLOAD SWAP1 POP SWAP2 SWAP1 POP JUMP JUMPDEST PUSH0 DUP3 DUP3 MSTORE PUSH1 0x20 DUP3 ADD SWAP1 POP SWAP3 SWAP2 POP POP JUMP JUMPDEST DUP3 DUP2 DUP4 MCOPY PUSH0 DUP4 DUP4 ADD MSTORE POP POP POP JUMP JUMPDEST PUSH0 PUSH1 0x1F NOT PUSH1 0x1F DUP4 ADD AND SWAP1 POP SWAP2 SWAP1 POP JUMP JUMPDEST PUSH0 PUSH2 0x1497 DUP3 PUSH2 0x1455 JUMP JUMPDEST PUSH2 0x14A1 DUP2 DUP6 PUSH2 0x145F JUMP JUMPDEST SWAP4 POP PUSH2 0x14B1 DUP2 DUP6 PUSH1 0x20 DUP7 ADD PUSH2 0x146F JUMP JUMPDEST PUSH2 0x14BA DUP2 PUSH2 0x147D JUMP JUMPDEST DUP5 ADD SWAP2 POP POP SWAP3 SWAP2 POP POP JUMP JUMPDEST PUSH0 PUSH1 0x20 DUP3 ADD SWAP1 POP DUP2 DUP2 SUB PUSH0 DUP4 ADD MSTORE PUSH2 0x14DD DUP2 DUP5 PUSH2 0x148D JUMP JUMPDEST SWAP1 POP SWAP3 SWAP2 POP POP JUMP JUMPDEST PUSH0 PUSH0 PUSH0 PUSH0 PUSH1 0x80 DUP6 DUP8 SUB SLT ISZERO PUSH2 0x14FD JUMPI PUSH2 0x14FC PUSH2 0x127C JUMP JUMPDEST JUMPDEST PUSH0 PUSH2 0x150A DUP8 DUP3 DUP9 ADD PUSH2 0x12CA JUMP JUMPDEST SWAP5 POP POP PUSH1 0x20 PUSH2 0x151B DUP8 DUP3 DUP9 ADD PUSH2 0x12CA JUMP JUMPDEST SWAP4 POP POP PUSH1 0x40 PUSH2 0x152C DUP8 DUP3 DUP9 ADD PUSH2 0x12FD JUMP JUMPDEST SWAP3 POP POP PUSH1 0x60 PUSH2 0x153D DUP8 DUP3 DUP9 ADD PUSH2 0x12FD JUMP JUMPDEST SWAP2 POP POP SWAP3 SWAP6 SWAP2 SWAP5 POP SWAP3 POP JUMP JUMPDEST PUSH0 PUSH0 REVERT JUMPDEST PUSH0 PUSH0 REVERT JUMPDEST PUSH0 PUSH0 REVERT JUMPDEST PUSH0 PUSH0 DUP4 PUSH1 0x1F DUP5 ADD SLT PUSH2 0x156A JUMPI PUSH2 0x1569 PUSH2 0x1549 JUMP JUMPDEST JUMPDEST DUP3 CALLDATALOAD SWAP1 POP PUSH8 0xFFFFFFFFFFFFFFFF DUP2 GT ISZERO PUSH2 0x1587 JUMPI PUSH2 0x1586 PUSH2 0x154D JUMP JUMPDEST JUMPDEST PUSH1 0x20 DUP4 ADD SWAP2 POP DUP4 PUSH1 0x20 DUP3 MUL DUP4 ADD GT ISZERO PUSH2 0x15A3 JUMPI PUSH2 0x15A2 PUSH2 0x1551 JUMP JUMPDEST JUMPDEST SWAP3 POP SWAP3 SWAP1 POP JUMP JUMPDEST PUSH0 PUSH0 DUP4 PUSH1 0x1F DUP5 ADD SLT PUSH2 0x15BF JUMPI PUSH2 0x15BE PUSH2 0x1549 JUMP JUMPDEST JUMPDEST DUP3 CALLDATALOAD SWAP1 POP PUSH8 0xFFFFFFFFFFFFFFFF DUP2 GT ISZERO PUSH2 0x15DC JUMPI PUSH2 0x15DB PUSH2 0x154D JUMP JUMPDEST JUMPDEST PUSH1 0x20 DUP4 ADD SWAP2 POP DUP4 PUSH1 0x20 DUP3 MUL DUP4 ADD GT ISZERO PUSH2 0x15F8 JUMPI PUSH2 0x15F7 PUSH2 0x1551 JUMP JUMPDEST JUMPDEST SWAP3 POP SWAP3 SWAP1 POP JUMP JUMPDEST PUSH0 PUSH0 PUSH0 PUSH0 PUSH1 0x40 DUP6 DUP8 SUB SLT ISZERO PUSH2 0x1617 JUMPI PUSH2 0x1616 PUSH2 0x127C JUMP JUMPDEST JUMPDEST PUSH0 DUP6 ADD CALLDATALOAD PUSH8 0xFFFFFFFFFFFFFFFF DUP2 GT ISZERO PUSH2 0x1634 JUMPI PUSH2 0x1633 PUSH2 0x1280 JUMP JUMPDEST JUMPDEST PUSH2 0x1640 DUP8 DUP3 DUP9 ADD PUSH2 0x1555 JUMP JUMPDEST SWAP5 POP SWAP5 POP POP PUSH1 0x20 DUP6 ADD CALLDATALOAD PUSH8 0xFFFFFFFFFFFFFFFF DUP2 GT ISZERO PUSH2 0x1663 JUMPI PUSH2 0x1662 PUSH2 0x1280 JUMP JUMPDEST JUMPDEST PUSH2 0x166F DUP8 DUP3 DUP9 ADD PUSH2 0x15AA JUMP JUMPDEST SWAP3 POP SWAP3 POP POP SWAP3 SWAP6 SWAP2 SWAP5 POP SWAP3 POP JUMP JUMPDEST PUSH0 DUP2 MLOAD SWAP1 POP SWAP2 SWAP1 POP JUMP JUMPDEST PUSH0 DUP3 DUP3 MSTORE PUSH1 0x20 DUP3 ADD SWAP1 POP SWAP3 SWAP2 POP POP JUMP JUMPDEST PUSH0 DUP2 SWAP1 POP PUSH1 0x20 DUP3 ADD SWAP1 POP SWAP2 SWAP1 POP JUMP JUMPDEST PUSH2 0x16AF DUP2 PUSH2 0x12DE JUMP JUMPDEST DUP3 MSTORE POP POP JUMP JUMPDEST PUSH0 PUSH2 0x16C0 DUP4 DUP4 PUSH2 0x16A6 JUMP JUMPDEST PUSH1 0x20 DUP4 ADD SWAP1 POP SWAP3 SWAP2 POP POP JUMP JUMPDEST PUSH0 PUSH1 0x20 DUP3 ADD SWAP1 POP SWAP2 SWAP1 POP JUMP JUMPDEST PUSH0 PUSH2 0x16E2 DUP3 PUSH2 0x167D JUMP JUMPDEST PUSH2 0x16EC DUP2 DUP6 PUSH2 0x1687 JUMP JUMPDEST SWAP4 POP PUSH2 0x16F7 DUP4 PUSH2 0x1697 JUMP JUMPDEST DUP1 PUSH0 JUMPDEST DUP4 DUP2 LT ISZERO PUSH2 0x1727 JUMPI DUP2 MLOAD PUSH2 0x170E DUP9 DUP3 PUSH2 0x16B5 JUMP JUMPDEST SWAP8 POP PUSH2 0x1719 DUP4 PUSH2 0x16CC JUMP JUMPDEST SWAP3 POP POP PUSH1 0x1 DUP2 ADD SWAP1 POP PUSH2 0x16FA JUMP JUMPDEST POP DUP6 SWAP4 POP POP POP POP SWAP3 SWAP2 POP POP JUMP JUMPDEST PUSH0 PUSH1 0x20 DUP3 ADD SWAP1 POP DUP2 DUP2 SUB PUSH0 DUP4 ADD MSTORE PUSH2 0x174C DUP2 DUP5 PUSH2 0x16D8 JUMP JUMPDEST SWAP1 POP SWAP3 SWAP2 POP POP JUMP JUMPDEST PUSH2 0x175D DUP2 PUSH2 0x13F7 JUMP JUMPDEST DUP2 EQ PUSH2 0x1767 JUMPI PUSH0 PUSH0 REVERT JUMPDEST POP JUMP JUMPDEST PUSH0 DUP2 CALLDATALOAD SWAP1 POP PUSH2 0x1778 DUP2 PUSH2 0x1754 JUMP JUMPDEST SWAP3 SWAP2 POP POP JUMP JUMPDEST PUSH0 PUSH0 PUSH1 0x40 DUP4 DUP6 SUB SLT ISZERO PUSH2 0x1794 JUMPI PUSH2 0x1793 PUSH2 0x127C JUMP JUMPDEST JUMPDEST PUSH0 PUSH2 0x17A1 DUP6 DUP3 DUP7 ADD PUSH2 0x12CA JUMP JUMPDEST SWAP3 POP POP PUSH1 0x20 PUSH2 0x17B2 DUP6 DUP3 DUP7 ADD PUSH2 0x176A JUMP JUMPDEST SWAP2 POP POP SWAP3 POP SWAP3 SWAP1 POP JUMP JUMPDEST PUSH0 PUSH0 DUP4 PUSH1 0x1F DUP5 ADD SLT PUSH2 0x17D1 JUMPI PUSH2 0x17D0 PUSH2 0x1549 JUMP JUMPDEST JUMPDEST DUP3 CALLDATALOAD SWAP1 POP PUSH8 0xFFFFFFFFFFFFFFFF DUP2 GT ISZERO PUSH2 0x17EE JUMPI PUSH2 0x17ED PUSH2 0x154D JUMP JUMPDEST JUMPDEST PUSH1 0x20 DUP4 ADD SWAP2 POP DUP4 PUSH1 0x20 DUP3 MUL DUP4 ADD GT ISZERO PUSH2 0x180A JUMPI PUSH2 0x1809 PUSH2 0x1551 JUMP JUMPDEST JUMPDEST SWAP3 POP SWAP3 SWAP1 POP JUMP JUMPDEST PUSH0 PUSH0 PUSH0 PUSH0 PUSH0 PUSH0 PUSH0 PUSH1 0x80 DUP9 DUP11 SUB SLT ISZERO PUSH2 0x182C JUMPI PUSH2 0x182B PUSH2 0x127C JUMP JUMPDEST JUMPDEST PUSH0 PUSH2 0x1839 DUP11 DUP3 DUP12 ADD PUSH2 0x12CA JUMP JUMPDEST SWAP8 POP POP PUSH1 0x20 DUP9 ADD CALLDATALOAD PUSH8 0xFFFFFFFFFFFFFFFF DUP2 GT ISZERO PUSH2 0x185A JUMPI PUSH2 0x1859 PUSH2 0x1280 JUMP JUMPDEST JUMPDEST PUSH2 0x1866 DUP11 DUP3 DUP12 ADD PUSH2 0x15AA JUMP JUMPDEST SWAP7 POP SWAP7 POP POP PUSH1 0x40 DUP9 ADD CALLDATALOAD PUSH8 0xFFFFFFFFFFFFFFFF DUP2 GT ISZERO PUSH2 0x1889 JUMPI PUSH2 0x1888 PUSH2 0x1280 JUMP JUMPDEST JUMPDEST PUSH2 0x1895 DUP11 DUP3 DUP12 ADD PUSH2 0x15AA JUMP JUMPDEST SWAP5 POP SWAP5 POP POP PUSH1 0x60 DUP9 ADD CALLDATALOAD PUSH8 0xFFFFFFFFFFFFFFFF DUP2 GT ISZERO PUSH2 0x18B8 JUMPI PUSH2 0x18B7 PUSH2 0x1280 JUMP JUMPDEST JUMPDEST PUSH2 0x18C4 DUP11 DUP3 DUP12 ADD PUSH2 0x17BC JUMP JUMPDEST SWAP3 POP SWAP3 POP POP SWAP3 SWAP6 SWAP9 SWAP2 SWAP5 SWAP8 POP SWAP3 SWAP6 POP JUMP JUMPDEST PUSH0 PUSH0 REVERT JUMPDEST PUSH32 0x4E487B7100000000000000000000000000000000000000000000000000000000 PUSH0 MSTORE PUSH1 0x41 PUSH1 0x4 MSTORE PUSH1 0x24 PUSH0 REVERT JUMPDEST PUSH2 0x190F DUP3 PUSH2 0x147D JUMP JUMPDEST DUP2 ADD DUP2 DUP2 LT PUSH8 0xFFFFFFFFFFFFFFFF DUP3 GT OR ISZERO PUSH2 0x192E JUMPI PUSH2 0x192D PUSH2 0x18D9 JUMP JUMPDEST JUMPDEST DUP1 PUSH1 0x40 MSTORE POP POP POP JUMP JUMPDEST PUSH0 PUSH2 0x1940 PUSH2 0x1273 JUMP JUMPDEST SWAP1 POP PUSH2 0x194C DUP3 DUP3 PUSH2 0x1906 JUMP JUMPDEST SWAP2 SWAP1 POP JUMP JUMPDEST PUSH0 PUSH8 0xFFFFFFFFFFFFFFFF DUP3 GT ISZERO PUSH2 0x196B JUMPI PUSH2 0x196A PUSH2 0x18D9 JUMP JUMPDEST JUMPDEST PUSH2 0x1974 DUP3 PUSH2 0x147D JUMP JUMPDEST SWAP1 POP PUSH1 0x20 DUP2 ADD SWAP1 POP SWAP2 SWAP1 POP JUMP JUMPDEST DUP3 DUP2 DUP4 CALLDATACOPY PUSH0 DUP4 DUP4 ADD MSTORE POP POP POP JUMP JUMPDEST PUSH0 PUSH2 0x19A1 PUSH2 0x199C DUP5 PUSH2 0x1951 JUMP JUMPDEST PUSH2 0x1937 JUMP JUMPDEST SWAP1 POP DUP3 DUP2 MSTORE PUSH1 0x20 DUP2 ADD DUP5 DUP5 DUP5 ADD GT ISZERO PUSH2 0x19BD JUMPI PUSH2 0x19BC PUSH2 0x18D5 JUMP JUMPDEST JUMPDEST PUSH2 0x19C8 DUP5 DUP3 DUP6 PUSH2 0x1981 JUMP JUMPDEST POP SWAP4 SWAP3 POP POP POP JUMP JUMPDEST PUSH0 DUP3 PUSH1 0x1F DUP4 ADD SLT PUSH2 0x19E4 JUMPI PUSH2 0x19E3 PUSH2 0x1549 JUMP JUMPDEST JUMPDEST DUP2 CALLDATALOAD PUSH2 0x19F4 DUP5 DUP3 PUSH1 0x20 DUP7 ADD PUSH2 0x198F JUMP JUMPDEST SWAP2 POP POP SWAP3 SWAP2 POP POP JUMP JUMPDEST PUSH0 PUSH0 PUSH0 PUSH0 PUSH1 0x80 DUP6 DUP8 SUB SLT ISZERO PUSH2 0x1A15 JUMPI PUSH2 0x1A14 PUSH2 0x127C JUMP JUMPDEST JUMPDEST PUSH0 PUSH2 0x1A22 DUP8 DUP3 DUP9 ADD PUSH2 0x12CA JUMP JUMPDEST SWAP5 POP POP PUSH1 0x20 PUSH2 0x1A33 DUP8 DUP3 DUP9 ADD PUSH2 0x12FD JUMP JUMPDEST SWAP4 POP POP PUSH1 0x40 PUSH2 0x1A44 DUP8 DUP3 DUP9 ADD PUSH2 0x12FD JUMP JUMPDEST SWAP3 POP POP PUSH1 0x60 DUP6 ADD CALLDATALOAD PUSH8 0xFFFFFFFFFFFFFFFF DUP2 GT ISZERO PUSH2 0x1A65 JUMPI PUSH2 0x1A64 PUSH2 0x1280 JUMP JUMPDEST JUMPDEST PUSH2 0x1A71 DUP8 DUP3 DUP9 ADD PUSH2 0x19D0 JUMP JUMPDEST SWAP2 POP POP SWAP3 SWAP6 SWAP2 SWAP5 POP SWAP3 POP JUMP JUMPDEST PUSH0 PUSH0 PUSH1 0x40 DUP4 DUP6 SUB SLT ISZERO PUSH2 0x1A93 JUMPI PUSH2 0x1A92 PUSH2 0x127C JUMP JUMPDEST JUMPDEST PUSH0 PUSH2 0x1AA0 DUP6 DUP3 DUP7 ADD PUSH2 0x12CA JUMP JUMPDEST SWAP3 POP POP PUSH1 0x20 PUSH2 0x1AB1 DUP6 DUP3 DUP7 ADD PUSH2 0x12CA JUMP JUMPDEST SWAP2 POP POP SWAP3 POP SWAP3 SWAP1 POP JUMP JUMPDEST PUSH0 PUSH0 PUSH0 PUSH0 PUSH0 PUSH0 PUSH1 0x80 DUP8 DUP10 SUB SLT ISZERO PUSH2 0x1AD5 JUMPI PUSH2 0x1AD4 PUSH2 0x127C JUMP JUMPDEST JUMPDEST PUSH0 PUSH2 0x1AE2 DUP10 DUP3 DUP11 ADD PUSH2 0x12CA JUMP JUMPDEST SWAP7 POP POP PUSH1 0x20 PUSH2 0x1AF3 DUP10 DUP3 DUP11 ADD PUSH2 0x12CA JUMP JUMPDEST SWAP6 POP POP PUSH1 0x40 DUP8 ADD CALLDATALOAD PUSH8 0xFFFFFFFFFFFFFFFF DUP2 GT ISZERO PUSH2 0x1B14 JUMPI PUSH2 0x1B13 PUSH2 0x1280 JUMP JUMPDEST JUMPDEST PUSH2 0x1B20 DUP10 DUP3 DUP11 ADD PUSH2 0x15AA JUMP JUMPDEST SWAP5 POP SWAP5 POP POP PUSH1 0x60 DUP8 ADD CALLDATALOAD PUSH8 0xFFFFFFFFFFFFFFFF DUP2 GT ISZERO PUSH2 0x1B43 JUMPI PUSH2 0x1B42 PUSH2 0x1280 JUMP JUMPDEST JUMPDEST PUSH2 0x1B4F DUP10 DUP3 DUP11 ADD PUSH2 0x15AA JUMP JUMPDEST SWAP3 POP SWAP3 POP POP SWAP3 SWAP6 POP SWAP3 SWAP6 POP SWAP3 SWAP6 JUMP JUMPDEST PUSH32 0x5A65726F20616464726573730000000000000000000000000000000000000000 PUSH0 DUP3 ADD MSTORE POP JUMP JUMPDEST PUSH0 PUSH2 0x1B92 PUSH1 0xC DUP4 PUSH2 0x145F JUMP JUMPDEST SWAP2 POP PUSH2 0x1B9D DUP3 PUSH2 0x1B5E JUMP JUMPDEST PUSH1 0x20 DUP3 ADD SWAP1 POP SWAP2 SWAP1 POP JUMP JUMPDEST PUSH0 PUSH1 0x20 DUP3 ADD SWAP1 POP DUP2 DUP2 SUB PUSH0 DUP4 ADD MSTORE PUSH2 0x1BBF DUP2 PUSH2 0x1B86 JUMP JUMPDEST SWAP1 POP SWAP2 SWAP1 POP JUMP JUMPDEST PUSH32 0x4E487B7100000000000000000000000000000000000000000000000000000000 PUSH0 MSTORE PUSH1 0x22 PUSH1 0x4 MSTORE PUSH1 0x24 PUSH0 REVERT JUMPDEST PUSH0 PUSH1 0x2 DUP3 DIV SWAP1 POP PUSH1 0x1 DUP3 AND DUP1 PUSH2 0x1C0A JUMPI PUSH1 0x7F DUP3 AND SWAP2 POP JUMPDEST PUSH1 0x20 DUP3 LT DUP2 SUB PUSH2 0x1C1D JUMPI PUSH2 0x1C1C PUSH2 0x1BC6 JUMP JUMPDEST JUMPDEST POP SWAP2 SWAP1 POP JUMP JUMPDEST PUSH32 0x4E6F7420617574686F72697A6564000000000000000000000000000000000000 PUSH0 DUP3 ADD MSTORE POP JUMP JUMPDEST PUSH0 PUSH2 0x1C57 PUSH1 0xE DUP4 PUSH2 0x145F JUMP JUMPDEST SWAP2 POP PUSH2 0x1C62 DUP3 PUSH2 0x1C23 JUMP JUMPDEST PUSH1 0x20 DUP3 ADD SWAP1 POP SWAP2 SWAP1 POP JUMP JUMPDEST PUSH0 PUSH1 0x20 DUP3 ADD SWAP1 POP DUP2 DUP2 SUB PUSH0 DUP4 ADD MSTORE PUSH2 0x1C84 DUP2 PUSH2 0x1C4B JUMP JUMPDEST SWAP1 POP SWAP2 SWAP1 POP JUMP JUMPDEST PUSH32 0x496E73756666696369656E742062616C616E6365000000000000000000000000 PUSH0 DUP3 ADD MSTORE POP JUMP JUMPDEST PUSH0 PUSH2 0x1CBF PUSH1 0x14 DUP4 PUSH2 0x145F JUMP JUMPDEST SWAP2 POP PUSH2 0x1CCA DUP3 PUSH2 0x1C8B JUMP JUMPDEST PUSH1 0x20 DUP3 ADD SWAP1 POP SWAP2 SWAP1 POP JUMP JUMPDEST PUSH0 PUSH1 0x20 DUP3 ADD SWAP1 POP DUP2 DUP2 SUB PUSH0 DUP4 ADD MSTORE PUSH2 0x1CEC DUP2 PUSH2 0x1CB3 JUMP JUMPDEST SWAP1 POP SWAP2 SWAP1 POP JUMP JUMPDEST PUSH32 0x4E487B7100000000000000000000000000000000000000000000000000000000 PUSH0 MSTORE PUSH1 0x11 PUSH1 0x4 MSTORE PUSH1 0x24 PUSH0 REVERT JUMPDEST PUSH0 PUSH2 0x1D2A DUP3 PUSH2 0x12DE JUMP JUMPDEST SWAP2 POP PUSH2 0x1D35 DUP4 PUSH2 0x12DE JUMP JUMPDEST SWAP3 POP DUP3 DUP3 SUB SWAP1 POP DUP2 DUP2 GT ISZERO PUSH2 0x1D4D JUMPI PUSH2 0x1D4C PUSH2 0x1CF3 JUMP JUMPDEST JUMPDEST SWAP3 SWAP2 POP POP JUMP JUMPDEST PUSH0 PUSH2 0x1D5D DUP3 PUSH2 0x12DE JUMP JUMPDEST SWAP2 POP PUSH2 0x1D68 DUP4 PUSH2 0x12DE JUMP JUMPDEST SWAP3 POP DUP3 DUP3 ADD SWAP1 POP DUP1 DUP3 GT ISZERO PUSH2 0x1D80 JUMPI PUSH2 0x1D7F PUSH2 0x1CF3 JUMP JUMPDEST JUMPDEST SWAP3 SWAP2 POP POP JUMP JUMPDEST PUSH0 PUSH1 0x40 DUP3 ADD SWAP1 POP PUSH2 0x1D99 PUSH0 DUP4 ADD DUP6 PUSH2 0x134F JUMP JUMPDEST PUSH2 0x1DA6 PUSH1 0x20 DUP4 ADD DUP5 PUSH2 0x134F JUMP JUMPDEST SWAP4 SWAP3 POP POP POP JUMP JUMPDEST PUSH32 0x4D69736D61746368656420617272617973000000000000000000000000000000 PUSH0 DUP3 ADD MSTORE POP JUMP JUMPDEST PUSH0 PUSH2 0x1DE1 PUSH1 0x11 DUP4 PUSH2 0x145F JUMP JUMPDEST SWAP2 POP PUSH2 0x1DEC DUP3 PUSH2 0x1DAD JUMP JUMPDEST PUSH1 0x20 DUP3 ADD SWAP1 POP SWAP2 SWAP1 POP JUMP JUMPDEST PUSH0 PUSH1 0x20 DUP3 ADD SWAP1 POP DUP2 DUP2 SUB PUSH0 DUP4 ADD MSTORE PUSH2 0x1E0E DUP2 PUSH2 0x1DD5 JUMP JUMPDEST SWAP1 POP SWAP2 SWAP1 POP JUMP JUMPDEST PUSH32 0x4E487B7100000000000000000000000000000000000000000000000000000000 PUSH0 MSTORE PUSH1 0x32 PUSH1 0x4 MSTORE PUSH1 0x24 PUSH0 REVERT JUMPDEST PUSH0 PUSH1 0x20 DUP3 DUP5 SUB SLT ISZERO PUSH2 0x1E57 JUMPI PUSH2 0x1E56 PUSH2 0x127C JUMP JUMPDEST JUMPDEST PUSH0 PUSH2 0x1E64 DUP5 DUP3 DUP6 ADD PUSH2 0x12CA JUMP JUMPDEST SWAP2 POP POP SWAP3 SWAP2 POP POP JUMP JUMPDEST PUSH32 0x4D69736D61746368656420696E70757473000000000000000000000000000000 PUSH0 DUP3 ADD MSTORE POP JUMP JUMPDEST PUSH0 PUSH2 0x1EA1 PUSH1 0x11 DUP4 PUSH2 0x145F JUMP JUMPDEST SWAP2 POP PUSH2 0x1EAC DUP3 PUSH2 0x1E6D JUMP JUMPDEST PUSH1 0x20 DUP3 ADD SWAP1 POP SWAP2 SWAP1 POP JUMP JUMPDEST PUSH0 PUSH1 0x20 DUP3 ADD SWAP1 POP DUP2 DUP2 SUB PUSH0 DUP4 ADD MSTORE PUSH2 0x1ECE DUP2 PUSH2 0x1E95 JUMP JUMPDEST SWAP1 POP SWAP2 SWAP1 POP JUMP JUMPDEST PUSH0 PUSH0 REVERT JUMPDEST PUSH0 PUSH0 REVERT JUMPDEST PUSH0 PUSH0 REVERT JUMPDEST PUSH0 PUSH0 DUP4 CALLDATALOAD PUSH1 0x1 PUSH1 0x20 SUB DUP5 CALLDATASIZE SUB SUB DUP2 SLT PUSH2 0x1EFD JUMPI PUSH2 0x1EFC PUSH2 0x1ED5 JUMP JUMPDEST JUMPDEST DUP1 DUP5 ADD SWAP3 POP DUP3 CALLDATALOAD SWAP2 POP PUSH8 0xFFFFFFFFFFFFFFFF DUP3 GT ISZERO PUSH2 0x1F1F JUMPI PUSH2 0x1F1E PUSH2 0x1ED9 JUMP JUMPDEST JUMPDEST PUSH1 0x20 DUP4 ADD SWAP3 POP PUSH1 0x1 DUP3 MUL CALLDATASIZE SUB DUP4 SGT ISZERO PUSH2 0x1F3B JUMPI PUSH2 0x1F3A PUSH2 0x1EDD JUMP JUMPDEST JUMPDEST POP SWAP3 POP SWAP3 SWAP1 POP JUMP JUMPDEST PUSH0 DUP3 SWAP1 POP SWAP3 SWAP2 POP POP JUMP JUMPDEST PUSH0 DUP2 SWAP1 POP DUP2 PUSH0 MSTORE PUSH1 0x20 PUSH0 KECCAK256 SWAP1 POP SWAP2 SWAP1 POP JUMP JUMPDEST PUSH0 PUSH1 0x20 PUSH1 0x1F DUP4 ADD DIV SWAP1 POP SWAP2 SWAP1 POP JUMP JUMPDEST PUSH0 DUP3 DUP3 SHL SWAP1 POP SWAP3 SWAP2 POP POP JUMP JUMPDEST PUSH0 PUSH1 0x8 DUP4 MUL PUSH2 0x1FA9 PUSH32 0xFFFFFFFFFFFFFFFFFFFFFFFFFFFFFFFFFFFFFFFFFFFFFFFFFFFFFFFFFFFFFFFF DUP3 PUSH2 0x1F6E JUMP JUMPDEST PUSH2 0x1FB3 DUP7 DUP4 PUSH2 0x1F6E JUMP JUMPDEST SWAP6 POP DUP1 NOT DUP5 AND SWAP4 POP DUP1 DUP7 AND DUP5 OR SWAP3 POP POP POP SWAP4 SWAP3 POP POP POP JUMP JUMPDEST PUSH0 DUP2 SWAP1 POP SWAP2 SWAP1 POP JUMP JUMPDEST PUSH0 PUSH2 0x1FEE PUSH2 0x1FE9 PUSH2 0x1FE4 DUP5 PUSH2 0x12DE JUMP JUMPDEST PUSH2 0x1FCB JUMP JUMPDEST PUSH2 0x12DE JUMP JUMPDEST SWAP1 POP SWAP2 SWAP1 POP JUMP JUMPDEST PUSH0 DUP2 SWAP1 POP SWAP2 SWAP1 POP JUMP JUMPDEST PUSH2 0x2007 DUP4 PUSH2 0x1FD4 JUMP JUMPDEST PUSH2 0x201B PUSH2 0x2013 DUP3 PUSH2 0x1FF5 JUMP JUMPDEST DUP5 DUP5 SLOAD PUSH2 0x1F7A JUMP JUMPDEST DUP3 SSTORE POP POP POP POP JUMP JUMPDEST PUSH0 PUSH0 SWAP1 POP SWAP1 JUMP JUMPDEST PUSH2 0x2032 PUSH2 0x2023 JUMP JUMPDEST PUSH2 0x203D DUP2 DUP5 DUP5 PUSH2 0x1FFE JUMP JUMPDEST POP POP POP JUMP JUMPDEST JUMPDEST DUP2 DUP2 LT ISZERO PUSH2 0x2060 JUMPI PUSH2 0x2055 PUSH0 DUP3 PUSH2 0x202A JUMP JUMPDEST PUSH1 0x1 DUP2 ADD SWAP1 POP PUSH2 0x2043 JUMP JUMPDEST POP POP JUMP JUMPDEST PUSH1 0x1F DUP3 GT ISZERO PUSH2 0x20A5 JUMPI PUSH2 0x2076 DUP2 PUSH2 0x1F4D JUMP JUMPDEST PUSH2 0x207F DUP5 PUSH2 0x1F5F JUMP JUMPDEST DUP2 ADD PUSH1 0x20 DUP6 LT ISZERO PUSH2 0x208E JUMPI DUP2 SWAP1 POP JUMPDEST PUSH2 0x20A2 PUSH2 0x209A DUP6 PUSH2 0x1F5F JUMP JUMPDEST DUP4 ADD DUP3 PUSH2 0x2042 JUMP JUMPDEST POP POP JUMPDEST POP POP POP JUMP JUMPDEST PUSH0 DUP3 DUP3 SHR SWAP1 POP SWAP3 SWAP2 POP POP JUMP JUMPDEST PUSH0 PUSH2 0x20C5 PUSH0 NOT DUP5 PUSH1 0x8 MUL PUSH2 0x20AA JUMP JUMPDEST NOT DUP1 DUP4 AND SWAP2 POP POP SWAP3 SWAP2 POP POP JUMP JUMPDEST PUSH0 PUSH2 0x20DD DUP4 DUP4 PUSH2 0x20B6 JUMP JUMPDEST SWAP2 POP DUP3 PUSH1 0x2 MUL DUP3 OR SWAP1 POP SWAP3 SWAP2 POP POP JUMP JUMPDEST PUSH2 0x20F7 DUP4 DUP4 PUSH2 0x1F43 JUMP JUMPDEST PUSH8 0xFFFFFFFFFFFFFFFF DUP2 GT ISZERO PUSH2 0x2110 JUMPI PUSH2 0x210F PUSH2 0x18D9 JUMP JUMPDEST JUMPDEST PUSH2 0x211A DUP3 SLOAD PUSH2 0x1BF3 JUMP JUMPDEST PUSH2 0x2125 DUP3 DUP3 DUP6 PUSH2 0x2064 JUMP JUMPDEST PUSH0 PUSH1 0x1F DUP4 GT PUSH1 0x1 DUP2 EQ PUSH2 0x2152 JUMPI PUSH0 DUP5 ISZERO PUSH2 0x2140 JUMPI DUP3 DUP8 ADD CALLDATALOAD SWAP1 POP JUMPDEST PUSH2 0x214A DUP6 DUP3 PUSH2 0x20D2 JUMP JUMPDEST DUP7 SSTORE POP PUSH2 0x21B1 JUMP JUMPDEST PUSH1 0x1F NOT DUP5 AND PUSH2 0x2160 DUP7 PUSH2 0x1F4D JUMP JUMPDEST PUSH0 JUMPDEST DUP3 DUP2 LT ISZERO PUSH2 0x2187 JUMPI DUP5 DUP10 ADD CALLDATALOAD DUP3 SSTORE PUSH1 0x1 DUP3 ADD SWAP2 POP PUSH1 0x20 DUP6 ADD SWAP5 POP PUSH1 0x20 DUP2 ADD SWAP1 POP PUSH2 0x2162 JUMP JUMPDEST DUP7 DUP4 LT ISZERO PUSH2 0x21A4 JUMPI DUP5 DUP10 ADD CALLDATALOAD PUSH2 0x21A0 PUSH1 0x1F DUP10 AND DUP3 PUSH2 0x20B6 JUMP JUMPDEST DUP4 SSTORE POP JUMPDEST PUSH1 0x1 PUSH1 0x2 DUP9 MUL ADD DUP9 SSTORE POP POP POP JUMPDEST POP POP POP POP POP POP POP JUMP JUMPDEST PUSH0 PUSH2 0x21C5 DUP4 DUP6 PUSH2 0x145F JUMP JUMPDEST SWAP4 POP PUSH2 0x21D2 DUP4 DUP6 DUP5 PUSH2 0x1981 JUMP JUMPDEST PUSH2 0x21DB DUP4 PUSH2 0x147D JUMP JUMPDEST DUP5 ADD SWAP1 POP SWAP4 SWAP3 POP POP POP JUMP JUMPDEST PUSH0 PUSH1 0x20 DUP3 ADD SWAP1 POP DUP2 DUP2 SUB PUSH0 DUP4 ADD MSTORE PUSH2 0x21FF DUP2 DUP5 DUP7 PUSH2 0x21BA JUMP JUMPDEST SWAP1 POP SWAP4 SWAP3 POP POP POP JUMP JUMPDEST PUSH0 PUSH0 REVERT JUMPDEST DUP3 DUP2 DUP4 CALLDATACOPY POP POP POP JUMP JUMPDEST PUSH0 PUSH2 0x2220 DUP4 DUP6 PUSH2 0x1687 JUMP JUMPDEST SWAP4 POP PUSH32 0x7FFFFFFFFFFFFFFFFFFFFFFFFFFFFFFFFFFFFFFFFFFFFFFFFFFFFFFFFFFFFFF DUP4 GT ISZERO PUSH2 0x2253 JUMPI PUSH2 0x2252 PUSH2 0x2208 JUMP JUMPDEST JUMPDEST PUSH1 0x20 DUP4 MUL SWAP3 POP PUSH2 0x2264 DUP4 DUP6 DUP5 PUSH2 0x220C JUMP JUMPDEST DUP3 DUP5 ADD SWAP1 POP SWAP4 SWAP3 POP POP POP JUMP JUMPDEST PUSH0 PUSH1 0x40 DUP3 ADD SWAP1 POP DUP2 DUP2 SUB PUSH0 DUP4 ADD MSTORE PUSH2 0x2289 DUP2 DUP7 DUP9 PUSH2 0x2215 JUMP JUMPDEST SWAP1 POP DUP2 DUP2 SUB PUSH1 0x20 DUP4 ADD MSTORE PUSH2 0x229E DUP2 DUP5 DUP7 PUSH2 0x2215 JUMP JUMPDEST SWAP1 POP SWAP6 SWAP5 POP POP POP POP POP JUMP JUMPDEST PUSH2 0x22B2 DUP3 PUSH2 0x1455 JUMP JUMPDEST PUSH8 0xFFFFFFFFFFFFFFFF DUP2 GT ISZERO PUSH2 0x22CB JUMPI PUSH2 0x22CA PUSH2 0x18D9 JUMP JUMPDEST JUMPDEST PUSH2 0x22D5 DUP3 SLOAD PUSH2 0x1BF3 JUMP JUMPDEST PUSH2 0x22E0 DUP3 DUP3 DUP6 PUSH2 0x2064 JUMP JUMPDEST PUSH0 PUSH1 0x20 SWAP1 POP PUSH1 0x1F DUP4 GT PUSH1 0x1 DUP2 EQ PUSH2 0x2311 JUMPI PUSH0 DUP5 ISZERO PUSH2 0x22FF JUMPI DUP3 DUP8 ADD MLOAD SWAP1 POP JUMPDEST PUSH2 0x2309 DUP6 DUP3 PUSH2 0x20D2 JUMP JUMPDEST DUP7 SSTORE POP PUSH2 0x2370 JUMP JUMPDEST PUSH1 0x1F NOT DUP5 AND PUSH2 0x231F DUP7 PUSH2 0x1F4D JUMP JUMPDEST PUSH0 JUMPDEST DUP3 DUP2 LT ISZERO PUSH2 0x2346 JUMPI DUP5 DUP10 ADD MLOAD DUP3 SSTORE PUSH1 0x1 DUP3 ADD SWAP2 POP PUSH1 0x20 DUP6 ADD SWAP5 POP PUSH1 0x20 DUP2 ADD SWAP1 POP PUSH2 0x2321 JUMP JUMPDEST DUP7 DUP4 LT ISZERO PUSH2 0x2363 JUMPI DUP5 DUP10 ADD MLOAD PUSH2 0x235F PUSH1 0x1F DUP10 AND DUP3 PUSH2 0x20B6 JUMP JUMPDEST DUP4 SSTORE POP JUMPDEST PUSH1 0x1 PUSH1 0x2 DUP9 MUL ADD DUP9 SSTORE POP POP POP JUMPDEST POP POP POP POP POP POP JUMP INVALID LOG2 PUSH5 0x6970667358 0x22 SLT KECCAK256 0xDD DUP9 0xC PUSH32 0x33DDFCC11FAE0069EF248BCF3C43166F23B92C4D1B5973EE8DB6F7DA64736F6C PUSH4 0x4300081E STOP CALLER "
				},
				"gasEstimates": {
					"creation": {
						"codeDepositCost": "1826800",
						"executionCost": "1924",
						"totalCost": "1828724"
					},
					"external": {
						"balanceOf(address,uint256)": "infinite",
						"balanceOfBatch(address[],uint256[])": "infinite",
						"isApprovedForAll(address,address)": "infinite",
						"mint(address,uint256,uint256,string)": "infinite",
						"mintBatch(address,uint256[],uint256[],string[])": "infinite",
						"safeBatchTransferFrom(address,address,uint256[],uint256[])": "infinite",
						"safeTransferFrom(address,address,uint256,uint256)": "infinite",
						"setApprovalForAll(address,bool)": "infinite",
						"supportsInterface(bytes4)": "649",
						"uri(uint256)": "infinite"
					}
				},
				"methodIdentifiers": {
					"balanceOf(address,uint256)": "00fdd58e",
					"balanceOfBatch(address[],uint256[])": "4e1273f4",
					"isApprovedForAll(address,address)": "e985e9c5",
					"mint(address,uint256,uint256,string)": "bb7fde71",
					"mintBatch(address,uint256[],uint256[],string[])": "a55784ef",
					"safeBatchTransferFrom(address,address,uint256[],uint256[])": "fba0ee64",
					"safeTransferFrom(address,address,uint256,uint256)": "0febdd49",
					"setApprovalForAll(address,bool)": "a22cb465",
					"supportsInterface(bytes4)": "01ffc9a7",
					"uri(uint256)": "0e89341c"
				}
			},
			"storageLayout": {
				"storage": [
					{
						"astId": 8,
						"contract": "Contract_Conqueror_Series/ERC1155standards.sol:MyERC1155",
						"label": "_balances",
						"offset": 0,
						"slot": "0",
						"type": "t_mapping(t_uint256,t_mapping(t_address,t_uint256))"
					},
					{
						"astId": 14,
						"contract": "Contract_Conqueror_Series/ERC1155standards.sol:MyERC1155",
						"label": "_operatorApprovals",
						"offset": 0,
						"slot": "1",
						"type": "t_mapping(t_address,t_mapping(t_address,t_bool))"
					},
					{
						"astId": 18,
						"contract": "Contract_Conqueror_Series/ERC1155standards.sol:MyERC1155",
						"label": "_uris",
						"offset": 0,
						"slot": "2",
						"type": "t_mapping(t_uint256,t_string_storage)"
					}
				],
				"types": {
					"t_address": {
						"encoding": "inplace",
						"label": "address",
						"numberOfBytes": "20"
					},
					"t_bool": {
						"encoding": "inplace",
						"label": "bool",
						"numberOfBytes": "1"
					},
					"t_mapping(t_address,t_bool)": {
						"encoding": "mapping",
						"key": "t_address",
						"label": "mapping(address => bool)",
						"numberOfBytes": "32",
						"value": "t_bool"
					},
					"t_mapping(t_address,t_mapping(t_address,t_bool))": {
						"encoding": "mapping",
						"key": "t_address",
						"label": "mapping(address => mapping(address => bool))",
						"numberOfBytes": "32",
						"value": "t_mapping(t_address,t_bool)"
					},
					"t_mapping(t_address,t_uint256)": {
						"encoding": "mapping",
						"key": "t_address",
						"label": "mapping(address => uint256)",
						"numberOfBytes": "32",
						"value": "t_uint256"
					},
					"t_mapping(t_uint256,t_mapping(t_address,t_uint256))": {
						"encoding": "mapping",
						"key": "t_uint256",
						"label": "mapping(uint256 => mapping(address => uint256))",
						"numberOfBytes": "32",
						"value": "t_mapping(t_address,t_uint256)"
					},
					"t_mapping(t_uint256,t_string_storage)": {
						"encoding": "mapping",
						"key": "t_uint256",
						"label": "mapping(uint256 => string)",
						"numberOfBytes": "32",
						"value": "t_string_storage"
					},
					"t_string_storage": {
						"encoding": "bytes",
						"label": "string",
						"numberOfBytes": "32"
					},
					"t_uint256": {
						"encoding": "inplace",
						"label": "uint256",
						"numberOfBytes": "32"
					}
				}
			},
			"userdoc": {
				"kind": "user",
				"methods": {
					"supportsInterface(bytes4)": {
						"notice": "Optional: ERC165 interface support"
					}
				},
				"notice": "Custom ERC1155 Token Contract without OpenZeppelin",
				"version": 1
			}
		}
	}
}