{
	"Contract_Conqueror_Series/ERC20standards.sol": {
		"BasicToken": {
			"abi": [
				{
					"inputs": [
						{
							"internalType": "string",
							"name": "_name",
							"type": "string"
						},
						{
							"internalType": "string",
							"name": "_symbol",
							"type": "string"
						},
						{
							"internalType": "uint256",
							"name": "initialSupply",
							"type": "uint256"
						}
					],
					"stateMutability": "nonpayable",
					"type": "constructor"
				},
				{
					"anonymous": false,
					"inputs": [
						{
							"indexed": true,
							"internalType": "address",
							"name": "owner",
							"type": "address"
						},
						{
							"indexed": true,
							"internalType": "address",
							"name": "spender",
							"type": "address"
						},
						{
							"indexed": false,
							"internalType": "uint256",
							"name": "amount",
							"type": "uint256"
						}
					],
					"name": "Approval",
					"type": "event"
				},
				{
					"anonymous": false,
					"inputs": [
						{
							"indexed": true,
							"internalType": "address",
							"name": "from",
							"type": "address"
						},
						{
							"indexed": true,
							"internalType": "address",
							"name": "to",
							"type": "address"
						},
						{
							"indexed": false,
							"internalType": "uint256",
							"name": "amount",
							"type": "uint256"
						}
					],
					"name": "Transfer",
					"type": "event"
				},
				{
					"inputs": [
						{
							"internalType": "address",
							"name": "tokenOwner",
							"type": "address"
						},
						{
							"internalType": "address",
							"name": "spender",
							"type": "address"
						}
					],
					"name": "allowance",
					"outputs": [
						{
							"internalType": "uint256",
							"name": "",
							"type": "uint256"
						}
					],
					"stateMutability": "view",
					"type": "function"
				},
				{
					"inputs": [
						{
							"internalType": "address",
							"name": "spender",
							"type": "address"
						},
						{
							"internalType": "uint256",
							"name": "amount",
							"type": "uint256"
						}
					],
					"name": "approve",
					"outputs": [
						{
							"internalType": "bool",
							"name": "",
							"type": "bool"
						}
					],
					"stateMutability": "nonpayable",
					"type": "function"
				},
				{
					"inputs": [
						{
							"internalType": "address",
							"name": "account",
							"type": "address"
						}
					],
					"name": "balanceOf",
					"outputs": [
						{
							"internalType": "uint256",
							"name": "",
							"type": "uint256"
						}
					],
					"stateMutability": "view",
					"type": "function"
				},
				{
					"inputs": [],
					"name": "decimals",
					"outputs": [
						{
							"internalType": "uint8",
							"name": "",
							"type": "uint8"
						}
					],
					"stateMutability": "view",
					"type": "function"
				},
				{
					"inputs": [
						{
							"internalType": "address",
							"name": "to",
							"type": "address"
						},
						{
							"internalType": "uint256",
							"name": "amount",
							"type": "uint256"
						}
					],
					"name": "mint",
					"outputs": [],
					"stateMutability": "nonpayable",
					"type": "function"
				},
				{
					"inputs": [],
					"name": "name",
					"outputs": [
						{
							"internalType": "string",
							"name": "",
							"type": "string"
						}
					],
					"stateMutability": "view",
					"type": "function"
				},
				{
					"inputs": [],
					"name": "owner",
					"outputs": [
						{
							"internalType": "address",
							"name": "",
							"type": "address"
						}
					],
					"stateMutability": "view",
					"type": "function"
				},
				{
					"inputs": [],
					"name": "paused",
					"outputs": [
						{
							"internalType": "bool",
							"name": "",
							"type": "bool"
						}
					],
					"stateMutability": "view",
					"type": "function"
				},
				{
					"inputs": [],
					"name": "symbol",
					"outputs": [
						{
							"internalType": "string",
							"name": "",
							"type": "string"
						}
					],
					"stateMutability": "view",
					"type": "function"
				},
				{
					"inputs": [],
					"name": "totalsupply",
					"outputs": [
						{
							"internalType": "uint256",
							"name": "",
							"type": "uint256"
						}
					],
					"stateMutability": "view",
					"type": "function"
				},
				{
					"inputs": [
						{
							"internalType": "address",
							"name": "to",
							"type": "address"
						},
						{
							"internalType": "uint256",
							"name": "amount",
							"type": "uint256"
						}
					],
					"name": "transfer",
					"outputs": [
						{
							"internalType": "bool",
							"name": "",
							"type": "bool"
						}
					],
					"stateMutability": "nonpayable",
					"type": "function"
				},
				{
					"inputs": [
						{
							"internalType": "address",
							"name": "from",
							"type": "address"
						},
						{
							"internalType": "address",
							"name": "to",
							"type": "address"
						},
						{
							"internalType": "uint256",
							"name": "amount",
							"type": "uint256"
						}
					],
					"name": "transferFrom",
					"outputs": [
						{
							"internalType": "bool",
							"name": "",
							"type": "bool"
						}
					],
					"stateMutability": "nonpayable",
					"type": "function"
				}
			],
			"devdoc": {
				"kind": "dev",
				"methods": {
					"constructor": {
						"details": "Restrict function if address is time-locked"
					}
				},
				"stateVariables": {
					"_balances": {
						"details": "Balances and allowances"
					}
				},
				"title": "Contract Conqueror day1",
				"version": 1
			},
			"evm": {
				"assembly": "    /* \"Contract_Conqueror_Series/ERC20standards.sol\":98:5281  contract BasicToken {... */\n  mstore(0x40, 0xa0)\n    /* \"Contract_Conqueror_Series/ERC20standards.sol\":232:234  18 */\n  0x12\n    /* \"Contract_Conqueror_Series/ERC20standards.sol\":208:234  uint8 public decimals = 18 */\n  0x02\n  exp(0x0100, 0x00)\n  dup2\n  sload\n  dup2\n  0xff\n  mul\n  not\n  and\n  swap1\n  dup4\n  0xff\n  and\n  mul\n  or\n  swap1\n  sstore\n  pop\n    /* \"Contract_Conqueror_Series/ERC20standards.sol\":363:368  false */\n  0x00\n    /* \"Contract_Conqueror_Series/ERC20standards.sol\":342:368  bool public paused = false */\n  0x04\n  exp(0x0100, 0x14)\n  dup2\n  sload\n  dup2\n  0xff\n  mul\n  not\n  and\n  swap1\n  dup4\n  iszero\n  iszero\n  mul\n  or\n  swap1\n  sstore\n  pop\n    /* \"Contract_Conqueror_Series/ERC20standards.sol\":1441:1703  constructor(... */\n  callvalue\n  dup1\n  iszero\n  tag_1\n  jumpi\n  revert(0x00, 0x00)\ntag_1:\n  pop\n  mload(0x40)\n  sub(codesize, bytecodeSize)\n  dup1\n  bytecodeSize\n  dup4\n  codecopy\n  dup2\n  dup2\n  add\n  0x40\n  mstore\n  dup2\n  add\n  swap1\n  tag_2\n  swap2\n  swap1\n  tag_3\n  jump\t// in\ntag_2:\n    /* \"Contract_Conqueror_Series/ERC20standards.sol\":1565:1570  _name */\n  dup3\n    /* \"Contract_Conqueror_Series/ERC20standards.sol\":1558:1562  name */\n  0x00\n    /* \"Contract_Conqueror_Series/ERC20standards.sol\":1558:1570  name = _name */\n  swap1\n  dup2\n  tag_6\n  swap2\n  swap1\n  tag_7\n  jump\t// in\ntag_6:\n  pop\n    /* \"Contract_Conqueror_Series/ERC20standards.sol\":1590:1597  _symbol */\n  dup2\n    /* \"Contract_Conqueror_Series/ERC20standards.sol\":1581:1587  symbol */\n  0x01\n    /* \"Contract_Conqueror_Series/ERC20standards.sol\":1581:1597  symbol = _symbol */\n  swap1\n  dup2\n  tag_8\n  swap2\n  swap1\n  tag_7\n  jump\t// in\ntag_8:\n  pop\n    /* \"Contract_Conqueror_Series/ERC20standards.sol\":1620:1630  msg.sender */\n  caller\n    /* \"Contract_Conqueror_Series/ERC20standards.sol\":1612:1617  owner */\n  0x04\n  0x00\n    /* \"Contract_Conqueror_Series/ERC20standards.sol\":1612:1630  owner = msg.sender */\n  0x0100\n  exp\n  dup2\n  sload\n  dup2\n  0xffffffffffffffffffffffffffffffffffffffff\n  mul\n  not\n  and\n  swap1\n  dup4\n  0xffffffffffffffffffffffffffffffffffffffff\n  and\n  mul\n  or\n  swap1\n  sstore\n  pop\n    /* \"Contract_Conqueror_Series/ERC20standards.sol\":1641:1695  _mint(owner,initialSupply * (10 ** uint256(decimals))) */\n  tag_9\n    /* \"Contract_Conqueror_Series/ERC20standards.sol\":1647:1652  owner */\n  0x04\n  0x00\n  swap1\n  sload\n  swap1\n  0x0100\n  exp\n  swap1\n  div\n  0xffffffffffffffffffffffffffffffffffffffff\n  and\n    /* \"Contract_Conqueror_Series/ERC20standards.sol\":1684:1692  decimals */\n  0x02\n  0x00\n  swap1\n  sload\n  swap1\n  0x0100\n  exp\n  swap1\n  div\n  0xff\n  and\n    /* \"Contract_Conqueror_Series/ERC20standards.sol\":1676:1693  uint256(decimals) */\n  0xff\n  and\n    /* \"Contract_Conqueror_Series/ERC20standards.sol\":1670:1672  10 */\n  0x0a\n    /* \"Contract_Conqueror_Series/ERC20standards.sol\":1670:1693  10 ** uint256(decimals) */\n  tag_10\n  swap2\n  swap1\n  tag_11\n  jump\t// in\ntag_10:\n    /* \"Contract_Conqueror_Series/ERC20standards.sol\":1653:1666  initialSupply */\n  dup4\n    /* \"Contract_Conqueror_Series/ERC20standards.sol\":1653:1694  initialSupply * (10 ** uint256(decimals)) */\n  tag_12\n  swap2\n  swap1\n  tag_13\n  jump\t// in\ntag_12:\n    /* \"Contract_Conqueror_Series/ERC20standards.sol\":1641:1646  _mint */\n  shl(0x20, tag_14)\n    /* \"Contract_Conqueror_Series/ERC20standards.sol\":1641:1695  _mint(owner,initialSupply * (10 ** uint256(decimals))) */\n  0x20\n  shr\n  jump\t// in\ntag_9:\n    /* \"Contract_Conqueror_Series/ERC20standards.sol\":1441:1703  constructor(... */\n  pop\n  pop\n  pop\n    /* \"Contract_Conqueror_Series/ERC20standards.sol\":98:5281  contract BasicToken {... */\n  jump(tag_15)\n    /* \"Contract_Conqueror_Series/ERC20standards.sol\":4189:4418  function _mint(address to, uint256 amount) internal{... */\ntag_14:\n    /* \"Contract_Conqueror_Series/ERC20standards.sol\":4273:4274  0 */\n  0x00\n    /* \"Contract_Conqueror_Series/ERC20standards.sol\":4259:4275  to != address(0) */\n  0xffffffffffffffffffffffffffffffffffffffff\n  and\n    /* \"Contract_Conqueror_Series/ERC20standards.sol\":4259:4261  to */\n  dup3\n    /* \"Contract_Conqueror_Series/ERC20standards.sol\":4259:4275  to != address(0) */\n  0xffffffffffffffffffffffffffffffffffffffff\n  and\n  sub\n    /* \"Contract_Conqueror_Series/ERC20standards.sol\":4251:4295  require(to != address(0), \"Invalid address\") */\n  tag_17\n  jumpi\n  mload(0x40)\n  0x08c379a000000000000000000000000000000000000000000000000000000000\n  dup2\n  mstore\n  0x04\n  add\n  tag_18\n  swap1\n  tag_19\n  jump\t// in\ntag_18:\n  mload(0x40)\n  dup1\n  swap2\n  sub\n  swap1\n  revert\ntag_17:\n    /* \"Contract_Conqueror_Series/ERC20standards.sol\":4322:4328  amount */\n  dup1\n    /* \"Contract_Conqueror_Series/ERC20standards.sol\":4306:4318  _totalsupply */\n  0x03\n  0x00\n    /* \"Contract_Conqueror_Series/ERC20standards.sol\":4306:4328  _totalsupply += amount */\n  dup3\n  dup3\n  sload\n  tag_20\n  swap2\n  swap1\n  tag_21\n  jump\t// in\ntag_20:\n  swap3\n  pop\n  pop\n  dup2\n  swap1\n  sstore\n  pop\n    /* \"Contract_Conqueror_Series/ERC20standards.sol\":4356:4362  amount */\n  dup1\n    /* \"Contract_Conqueror_Series/ERC20standards.sol\":4339:4348  _balances */\n  0x05\n    /* \"Contract_Conqueror_Series/ERC20standards.sol\":4339:4352  _balances[to] */\n  0x00\n    /* \"Contract_Conqueror_Series/ERC20standards.sol\":4349:4351  to */\n  dup5\n    /* \"Contract_Conqueror_Series/ERC20standards.sol\":4339:4352  _balances[to] */\n  0xffffffffffffffffffffffffffffffffffffffff\n  and\n  0xffffffffffffffffffffffffffffffffffffffff\n  and\n  dup2\n  mstore\n  0x20\n  add\n  swap1\n  dup2\n  mstore\n  0x20\n  add\n  0x00\n  keccak256\n  0x00\n    /* \"Contract_Conqueror_Series/ERC20standards.sol\":4339:4362  _balances[to] += amount */\n  dup3\n  dup3\n  sload\n  tag_22\n  swap2\n  swap1\n  tag_21\n  jump\t// in\ntag_22:\n  swap3\n  pop\n  pop\n  dup2\n  swap1\n  sstore\n  pop\n    /* \"Contract_Conqueror_Series/ERC20standards.sol\":4399:4401  to */\n  dup2\n    /* \"Contract_Conqueror_Series/ERC20standards.sol\":4378:4410  Transfer(address(0), to, amount) */\n  0xffffffffffffffffffffffffffffffffffffffff\n  and\n    /* \"Contract_Conqueror_Series/ERC20standards.sol\":4395:4396  0 */\n  0x00\n    /* \"Contract_Conqueror_Series/ERC20standards.sol\":4378:4410  Transfer(address(0), to, amount) */\n  0xffffffffffffffffffffffffffffffffffffffff\n  and\n  0xddf252ad1be2c89b69c2b068fc378daa952ba7f163c4a11628f55a4df523b3ef\n    /* \"Contract_Conqueror_Series/ERC20standards.sol\":4403:4409  amount */\n  dup4\n    /* \"Contract_Conqueror_Series/ERC20standards.sol\":4378:4410  Transfer(address(0), to, amount) */\n  mload(0x40)\n  tag_23\n  swap2\n  swap1\n  tag_24\n  jump\t// in\ntag_23:\n  mload(0x40)\n  dup1\n  swap2\n  sub\n  swap1\n  log3\n    /* \"Contract_Conqueror_Series/ERC20standards.sol\":4189:4418  function _mint(address to, uint256 amount) internal{... */\n  pop\n  pop\n  jump\t// out\n    /* \"#utility.yul\":7:82   */\ntag_25:\n    /* \"#utility.yul\":40:46   */\n  0x00\n    /* \"#utility.yul\":73:75   */\n  0x40\n    /* \"#utility.yul\":67:76   */\n  mload\n    /* \"#utility.yul\":57:76   */\n  swap1\n  pop\n    /* \"#utility.yul\":7:82   */\n  swap1\n  jump\t// out\n    /* \"#utility.yul\":88:205   */\ntag_26:\n    /* \"#utility.yul\":197:198   */\n  0x00\n    /* \"#utility.yul\":194:195   */\n  0x00\n    /* \"#utility.yul\":187:199   */\n  revert\n    /* \"#utility.yul\":211:328   */\ntag_27:\n    /* \"#utility.yul\":320:321   */\n  0x00\n    /* \"#utility.yul\":317:318   */\n  0x00\n    /* \"#utility.yul\":310:322   */\n  revert\n    /* \"#utility.yul\":334:451   */\ntag_28:\n    /* \"#utility.yul\":443:444   */\n  0x00\n    /* \"#utility.yul\":440:441   */\n  0x00\n    /* \"#utility.yul\":433:445   */\n  revert\n    /* \"#utility.yul\":457:574   */\ntag_29:\n    /* \"#utility.yul\":566:567   */\n  0x00\n    /* \"#utility.yul\":563:564   */\n  0x00\n    /* \"#utility.yul\":556:568   */\n  revert\n    /* \"#utility.yul\":580:682   */\ntag_30:\n    /* \"#utility.yul\":621:627   */\n  0x00\n    /* \"#utility.yul\":672:674   */\n  0x1f\n    /* \"#utility.yul\":668:675   */\n  not\n    /* \"#utility.yul\":663:665   */\n  0x1f\n    /* \"#utility.yul\":656:661   */\n  dup4\n    /* \"#utility.yul\":652:666   */\n  add\n    /* \"#utility.yul\":648:676   */\n  and\n    /* \"#utility.yul\":638:676   */\n  swap1\n  pop\n    /* \"#utility.yul\":580:682   */\n  swap2\n  swap1\n  pop\n  jump\t// out\n    /* \"#utility.yul\":688:868   */\ntag_31:\n    /* \"#utility.yul\":736:813   */\n  0x4e487b7100000000000000000000000000000000000000000000000000000000\n    /* \"#utility.yul\":733:734   */\n  0x00\n    /* \"#utility.yul\":726:814   */\n  mstore\n    /* \"#utility.yul\":833:837   */\n  0x41\n    /* \"#utility.yul\":830:831   */\n  0x04\n    /* \"#utility.yul\":823:838   */\n  mstore\n    /* \"#utility.yul\":857:861   */\n  0x24\n    /* \"#utility.yul\":854:855   */\n  0x00\n    /* \"#utility.yul\":847:862   */\n  revert\n    /* \"#utility.yul\":874:1155   */\ntag_32:\n    /* \"#utility.yul\":957:984   */\n  tag_76\n    /* \"#utility.yul\":979:983   */\n  dup3\n    /* \"#utility.yul\":957:984   */\n  tag_30\n  jump\t// in\ntag_76:\n    /* \"#utility.yul\":949:955   */\n  dup2\n    /* \"#utility.yul\":945:985   */\n  add\n    /* \"#utility.yul\":1087:1093   */\n  dup2\n    /* \"#utility.yul\":1075:1085   */\n  dup2\n    /* \"#utility.yul\":1072:1094   */\n  lt\n    /* \"#utility.yul\":1051:1069   */\n  0xffffffffffffffff\n    /* \"#utility.yul\":1039:1049   */\n  dup3\n    /* \"#utility.yul\":1036:1070   */\n  gt\n    /* \"#utility.yul\":1033:1095   */\n  or\n    /* \"#utility.yul\":1030:1118   */\n  iszero\n  tag_77\n  jumpi\n    /* \"#utility.yul\":1098:1116   */\n  tag_78\n  tag_31\n  jump\t// in\ntag_78:\n    /* \"#utility.yul\":1030:1118   */\ntag_77:\n    /* \"#utility.yul\":1138:1148   */\n  dup1\n    /* \"#utility.yul\":1134:1136   */\n  0x40\n    /* \"#utility.yul\":1127:1149   */\n  mstore\n    /* \"#utility.yul\":917:1155   */\n  pop\n    /* \"#utility.yul\":874:1155   */\n  pop\n  pop\n  jump\t// out\n    /* \"#utility.yul\":1161:1290   */\ntag_33:\n    /* \"#utility.yul\":1195:1201   */\n  0x00\n    /* \"#utility.yul\":1222:1242   */\n  tag_80\n  tag_25\n  jump\t// in\ntag_80:\n    /* \"#utility.yul\":1212:1242   */\n  swap1\n  pop\n    /* \"#utility.yul\":1251:1284   */\n  tag_81\n    /* \"#utility.yul\":1279:1283   */\n  dup3\n    /* \"#utility.yul\":1271:1277   */\n  dup3\n    /* \"#utility.yul\":1251:1284   */\n  tag_32\n  jump\t// in\ntag_81:\n    /* \"#utility.yul\":1161:1290   */\n  swap2\n  swap1\n  pop\n  jump\t// out\n    /* \"#utility.yul\":1296:1604   */\ntag_34:\n    /* \"#utility.yul\":1358:1362   */\n  0x00\n    /* \"#utility.yul\":1448:1466   */\n  0xffffffffffffffff\n    /* \"#utility.yul\":1440:1446   */\n  dup3\n    /* \"#utility.yul\":1437:1467   */\n  gt\n    /* \"#utility.yul\":1434:1490   */\n  iszero\n  tag_83\n  jumpi\n    /* \"#utility.yul\":1470:1488   */\n  tag_84\n  tag_31\n  jump\t// in\ntag_84:\n    /* \"#utility.yul\":1434:1490   */\ntag_83:\n    /* \"#utility.yul\":1508:1537   */\n  tag_85\n    /* \"#utility.yul\":1530:1536   */\n  dup3\n    /* \"#utility.yul\":1508:1537   */\n  tag_30\n  jump\t// in\ntag_85:\n    /* \"#utility.yul\":1500:1537   */\n  swap1\n  pop\n    /* \"#utility.yul\":1592:1596   */\n  0x20\n    /* \"#utility.yul\":1586:1590   */\n  dup2\n    /* \"#utility.yul\":1582:1597   */\n  add\n    /* \"#utility.yul\":1574:1597   */\n  swap1\n  pop\n    /* \"#utility.yul\":1296:1604   */\n  swap2\n  swap1\n  pop\n  jump\t// out\n    /* \"#utility.yul\":1610:1749   */\ntag_35:\n    /* \"#utility.yul\":1699:1705   */\n  dup3\n    /* \"#utility.yul\":1694:1697   */\n  dup2\n    /* \"#utility.yul\":1689:1692   */\n  dup4\n    /* \"#utility.yul\":1683:1706   */\n  mcopy\n    /* \"#utility.yul\":1740:1741   */\n  0x00\n    /* \"#utility.yul\":1731:1737   */\n  dup4\n    /* \"#utility.yul\":1726:1729   */\n  dup4\n    /* \"#utility.yul\":1722:1738   */\n  add\n    /* \"#utility.yul\":1715:1742   */\n  mstore\n    /* \"#utility.yul\":1610:1749   */\n  pop\n  pop\n  pop\n  jump\t// out\n    /* \"#utility.yul\":1755:2189   */\ntag_36:\n    /* \"#utility.yul\":1844:1849   */\n  0x00\n    /* \"#utility.yul\":1869:1935   */\n  tag_88\n    /* \"#utility.yul\":1885:1934   */\n  tag_89\n    /* \"#utility.yul\":1927:1933   */\n  dup5\n    /* \"#utility.yul\":1885:1934   */\n  tag_34\n  jump\t// in\ntag_89:\n    /* \"#utility.yul\":1869:1935   */\n  tag_33\n  jump\t// in\ntag_88:\n    /* \"#utility.yul\":1860:1935   */\n  swap1\n  pop\n    /* \"#utility.yul\":1958:1964   */\n  dup3\n    /* \"#utility.yul\":1951:1956   */\n  dup2\n    /* \"#utility.yul\":1944:1965   */\n  mstore\n    /* \"#utility.yul\":1996:2000   */\n  0x20\n    /* \"#utility.yul\":1989:1994   */\n  dup2\n    /* \"#utility.yul\":1985:2001   */\n  add\n    /* \"#utility.yul\":2034:2037   */\n  dup5\n    /* \"#utility.yul\":2025:2031   */\n  dup5\n    /* \"#utility.yul\":2020:2023   */\n  dup5\n    /* \"#utility.yul\":2016:2032   */\n  add\n    /* \"#utility.yul\":2013:2038   */\n  gt\n    /* \"#utility.yul\":2010:2122   */\n  iszero\n  tag_90\n  jumpi\n    /* \"#utility.yul\":2041:2120   */\n  tag_91\n  tag_29\n  jump\t// in\ntag_91:\n    /* \"#utility.yul\":2010:2122   */\ntag_90:\n    /* \"#utility.yul\":2131:2183   */\n  tag_92\n    /* \"#utility.yul\":2176:2182   */\n  dup5\n    /* \"#utility.yul\":2171:2174   */\n  dup3\n    /* \"#utility.yul\":2166:2169   */\n  dup6\n    /* \"#utility.yul\":2131:2183   */\n  tag_35\n  jump\t// in\ntag_92:\n    /* \"#utility.yul\":1850:2189   */\n  pop\n    /* \"#utility.yul\":1755:2189   */\n  swap4\n  swap3\n  pop\n  pop\n  pop\n  jump\t// out\n    /* \"#utility.yul\":2209:2564   */\ntag_37:\n    /* \"#utility.yul\":2276:2281   */\n  0x00\n    /* \"#utility.yul\":2325:2328   */\n  dup3\n    /* \"#utility.yul\":2318:2322   */\n  0x1f\n    /* \"#utility.yul\":2310:2316   */\n  dup4\n    /* \"#utility.yul\":2306:2323   */\n  add\n    /* \"#utility.yul\":2302:2329   */\n  slt\n    /* \"#utility.yul\":2292:2414   */\n  tag_94\n  jumpi\n    /* \"#utility.yul\":2333:2412   */\n  tag_95\n  tag_28\n  jump\t// in\ntag_95:\n    /* \"#utility.yul\":2292:2414   */\ntag_94:\n    /* \"#utility.yul\":2443:2449   */\n  dup2\n    /* \"#utility.yul\":2437:2450   */\n  mload\n    /* \"#utility.yul\":2468:2558   */\n  tag_96\n    /* \"#utility.yul\":2554:2557   */\n  dup5\n    /* \"#utility.yul\":2546:2552   */\n  dup3\n    /* \"#utility.yul\":2539:2543   */\n  0x20\n    /* \"#utility.yul\":2531:2537   */\n  dup7\n    /* \"#utility.yul\":2527:2544   */\n  add\n    /* \"#utility.yul\":2468:2558   */\n  tag_36\n  jump\t// in\ntag_96:\n    /* \"#utility.yul\":2459:2558   */\n  swap2\n  pop\n    /* \"#utility.yul\":2282:2564   */\n  pop\n    /* \"#utility.yul\":2209:2564   */\n  swap3\n  swap2\n  pop\n  pop\n  jump\t// out\n    /* \"#utility.yul\":2570:2647   */\ntag_38:\n    /* \"#utility.yul\":2607:2614   */\n  0x00\n    /* \"#utility.yul\":2636:2641   */\n  dup2\n    /* \"#utility.yul\":2625:2641   */\n  swap1\n  pop\n    /* \"#utility.yul\":2570:2647   */\n  swap2\n  swap1\n  pop\n  jump\t// out\n    /* \"#utility.yul\":2653:2775   */\ntag_39:\n    /* \"#utility.yul\":2726:2750   */\n  tag_99\n    /* \"#utility.yul\":2744:2749   */\n  dup2\n    /* \"#utility.yul\":2726:2750   */\n  tag_38\n  jump\t// in\ntag_99:\n    /* \"#utility.yul\":2719:2724   */\n  dup2\n    /* \"#utility.yul\":2716:2751   */\n  eq\n    /* \"#utility.yul\":2706:2769   */\n  tag_100\n  jumpi\n    /* \"#utility.yul\":2765:2766   */\n  0x00\n    /* \"#utility.yul\":2762:2763   */\n  0x00\n    /* \"#utility.yul\":2755:2767   */\n  revert\n    /* \"#utility.yul\":2706:2769   */\ntag_100:\n    /* \"#utility.yul\":2653:2775   */\n  pop\n  jump\t// out\n    /* \"#utility.yul\":2781:2924   */\ntag_40:\n    /* \"#utility.yul\":2838:2843   */\n  0x00\n    /* \"#utility.yul\":2869:2875   */\n  dup2\n    /* \"#utility.yul\":2863:2876   */\n  mload\n    /* \"#utility.yul\":2854:2876   */\n  swap1\n  pop\n    /* \"#utility.yul\":2885:2918   */\n  tag_102\n    /* \"#utility.yul\":2912:2917   */\n  dup2\n    /* \"#utility.yul\":2885:2918   */\n  tag_39\n  jump\t// in\ntag_102:\n    /* \"#utility.yul\":2781:2924   */\n  swap3\n  swap2\n  pop\n  pop\n  jump\t// out\n    /* \"#utility.yul\":2930:3939   */\ntag_3:\n    /* \"#utility.yul\":3038:3044   */\n  0x00\n    /* \"#utility.yul\":3046:3052   */\n  0x00\n    /* \"#utility.yul\":3054:3060   */\n  0x00\n    /* \"#utility.yul\":3103:3105   */\n  0x60\n    /* \"#utility.yul\":3091:3100   */\n  dup5\n    /* \"#utility.yul\":3082:3089   */\n  dup7\n    /* \"#utility.yul\":3078:3101   */\n  sub\n    /* \"#utility.yul\":3074:3106   */\n  slt\n    /* \"#utility.yul\":3071:3190   */\n  iszero\n  tag_104\n  jumpi\n    /* \"#utility.yul\":3109:3188   */\n  tag_105\n  tag_26\n  jump\t// in\ntag_105:\n    /* \"#utility.yul\":3071:3190   */\ntag_104:\n    /* \"#utility.yul\":3250:3251   */\n  0x00\n    /* \"#utility.yul\":3239:3248   */\n  dup5\n    /* \"#utility.yul\":3235:3252   */\n  add\n    /* \"#utility.yul\":3229:3253   */\n  mload\n    /* \"#utility.yul\":3280:3298   */\n  0xffffffffffffffff\n    /* \"#utility.yul\":3272:3278   */\n  dup2\n    /* \"#utility.yul\":3269:3299   */\n  gt\n    /* \"#utility.yul\":3266:3383   */\n  iszero\n  tag_106\n  jumpi\n    /* \"#utility.yul\":3302:3381   */\n  tag_107\n  tag_27\n  jump\t// in\ntag_107:\n    /* \"#utility.yul\":3266:3383   */\ntag_106:\n    /* \"#utility.yul\":3407:3481   */\n  tag_108\n    /* \"#utility.yul\":3473:3480   */\n  dup7\n    /* \"#utility.yul\":3464:3470   */\n  dup3\n    /* \"#utility.yul\":3453:3462   */\n  dup8\n    /* \"#utility.yul\":3449:3471   */\n  add\n    /* \"#utility.yul\":3407:3481   */\n  tag_37\n  jump\t// in\ntag_108:\n    /* \"#utility.yul\":3397:3481   */\n  swap4\n  pop\n    /* \"#utility.yul\":3200:3491   */\n  pop\n    /* \"#utility.yul\":3551:3553   */\n  0x20\n    /* \"#utility.yul\":3540:3549   */\n  dup5\n    /* \"#utility.yul\":3536:3554   */\n  add\n    /* \"#utility.yul\":3530:3555   */\n  mload\n    /* \"#utility.yul\":3582:3600   */\n  0xffffffffffffffff\n    /* \"#utility.yul\":3574:3580   */\n  dup2\n    /* \"#utility.yul\":3571:3601   */\n  gt\n    /* \"#utility.yul\":3568:3685   */\n  iszero\n  tag_109\n  jumpi\n    /* \"#utility.yul\":3604:3683   */\n  tag_110\n  tag_27\n  jump\t// in\ntag_110:\n    /* \"#utility.yul\":3568:3685   */\ntag_109:\n    /* \"#utility.yul\":3709:3783   */\n  tag_111\n    /* \"#utility.yul\":3775:3782   */\n  dup7\n    /* \"#utility.yul\":3766:3772   */\n  dup3\n    /* \"#utility.yul\":3755:3764   */\n  dup8\n    /* \"#utility.yul\":3751:3773   */\n  add\n    /* \"#utility.yul\":3709:3783   */\n  tag_37\n  jump\t// in\ntag_111:\n    /* \"#utility.yul\":3699:3783   */\n  swap3\n  pop\n    /* \"#utility.yul\":3501:3793   */\n  pop\n    /* \"#utility.yul\":3832:3834   */\n  0x40\n    /* \"#utility.yul\":3858:3922   */\n  tag_112\n    /* \"#utility.yul\":3914:3921   */\n  dup7\n    /* \"#utility.yul\":3905:3911   */\n  dup3\n    /* \"#utility.yul\":3894:3903   */\n  dup8\n    /* \"#utility.yul\":3890:3912   */\n  add\n    /* \"#utility.yul\":3858:3922   */\n  tag_40\n  jump\t// in\ntag_112:\n    /* \"#utility.yul\":3848:3922   */\n  swap2\n  pop\n    /* \"#utility.yul\":3803:3932   */\n  pop\n    /* \"#utility.yul\":2930:3939   */\n  swap3\n  pop\n  swap3\n  pop\n  swap3\n  jump\t// out\n    /* \"#utility.yul\":3945:4044   */\ntag_41:\n    /* \"#utility.yul\":3997:4003   */\n  0x00\n    /* \"#utility.yul\":4031:4036   */\n  dup2\n    /* \"#utility.yul\":4025:4037   */\n  mload\n    /* \"#utility.yul\":4015:4037   */\n  swap1\n  pop\n    /* \"#utility.yul\":3945:4044   */\n  swap2\n  swap1\n  pop\n  jump\t// out\n    /* \"#utility.yul\":4050:4230   */\ntag_42:\n    /* \"#utility.yul\":4098:4175   */\n  0x4e487b7100000000000000000000000000000000000000000000000000000000\n    /* \"#utility.yul\":4095:4096   */\n  0x00\n    /* \"#utility.yul\":4088:4176   */\n  mstore\n    /* \"#utility.yul\":4195:4199   */\n  0x22\n    /* \"#utility.yul\":4192:4193   */\n  0x04\n    /* \"#utility.yul\":4185:4200   */\n  mstore\n    /* \"#utility.yul\":4219:4223   */\n  0x24\n    /* \"#utility.yul\":4216:4217   */\n  0x00\n    /* \"#utility.yul\":4209:4224   */\n  revert\n    /* \"#utility.yul\":4236:4556   */\ntag_43:\n    /* \"#utility.yul\":4280:4286   */\n  0x00\n    /* \"#utility.yul\":4317:4318   */\n  0x02\n    /* \"#utility.yul\":4311:4315   */\n  dup3\n    /* \"#utility.yul\":4307:4319   */\n  div\n    /* \"#utility.yul\":4297:4319   */\n  swap1\n  pop\n    /* \"#utility.yul\":4364:4365   */\n  0x01\n    /* \"#utility.yul\":4358:4362   */\n  dup3\n    /* \"#utility.yul\":4354:4366   */\n  and\n    /* \"#utility.yul\":4385:4403   */\n  dup1\n    /* \"#utility.yul\":4375:4456   */\n  tag_116\n  jumpi\n    /* \"#utility.yul\":4441:4445   */\n  0x7f\n    /* \"#utility.yul\":4433:4439   */\n  dup3\n    /* \"#utility.yul\":4429:4446   */\n  and\n    /* \"#utility.yul\":4419:4446   */\n  swap2\n  pop\n    /* \"#utility.yul\":4375:4456   */\ntag_116:\n    /* \"#utility.yul\":4503:4505   */\n  0x20\n    /* \"#utility.yul\":4495:4501   */\n  dup3\n    /* \"#utility.yul\":4492:4506   */\n  lt\n    /* \"#utility.yul\":4472:4490   */\n  dup2\n    /* \"#utility.yul\":4469:4507   */\n  sub\n    /* \"#utility.yul\":4466:4550   */\n  tag_117\n  jumpi\n    /* \"#utility.yul\":4522:4540   */\n  tag_118\n  tag_42\n  jump\t// in\ntag_118:\n    /* \"#utility.yul\":4466:4550   */\ntag_117:\n    /* \"#utility.yul\":4287:4556   */\n  pop\n    /* \"#utility.yul\":4236:4556   */\n  swap2\n  swap1\n  pop\n  jump\t// out\n    /* \"#utility.yul\":4562:4703   */\ntag_44:\n    /* \"#utility.yul\":4611:4615   */\n  0x00\n    /* \"#utility.yul\":4634:4637   */\n  dup2\n    /* \"#utility.yul\":4626:4637   */\n  swap1\n  pop\n    /* \"#utility.yul\":4657:4660   */\n  dup2\n    /* \"#utility.yul\":4654:4655   */\n  0x00\n    /* \"#utility.yul\":4647:4661   */\n  mstore\n    /* \"#utility.yul\":4691:4695   */\n  0x20\n    /* \"#utility.yul\":4688:4689   */\n  0x00\n    /* \"#utility.yul\":4678:4696   */\n  keccak256\n    /* \"#utility.yul\":4670:4696   */\n  swap1\n  pop\n    /* \"#utility.yul\":4562:4703   */\n  swap2\n  swap1\n  pop\n  jump\t// out\n    /* \"#utility.yul\":4709:4802   */\ntag_45:\n    /* \"#utility.yul\":4746:4752   */\n  0x00\n    /* \"#utility.yul\":4793:4795   */\n  0x20\n    /* \"#utility.yul\":4788:4790   */\n  0x1f\n    /* \"#utility.yul\":4781:4786   */\n  dup4\n    /* \"#utility.yul\":4777:4791   */\n  add\n    /* \"#utility.yul\":4773:4796   */\n  div\n    /* \"#utility.yul\":4763:4796   */\n  swap1\n  pop\n    /* \"#utility.yul\":4709:4802   */\n  swap2\n  swap1\n  pop\n  jump\t// out\n    /* \"#utility.yul\":4808:4915   */\ntag_46:\n    /* \"#utility.yul\":4852:4860   */\n  0x00\n    /* \"#utility.yul\":4902:4907   */\n  dup3\n    /* \"#utility.yul\":4896:4900   */\n  dup3\n    /* \"#utility.yul\":4892:4908   */\n  shl\n    /* \"#utility.yul\":4871:4908   */\n  swap1\n  pop\n    /* \"#utility.yul\":4808:4915   */\n  swap3\n  swap2\n  pop\n  pop\n  jump\t// out\n    /* \"#utility.yul\":4921:5314   */\ntag_47:\n    /* \"#utility.yul\":4990:4996   */\n  0x00\n    /* \"#utility.yul\":5040:5041   */\n  0x08\n    /* \"#utility.yul\":5028:5038   */\n  dup4\n    /* \"#utility.yul\":5024:5042   */\n  mul\n    /* \"#utility.yul\":5063:5160   */\n  tag_123\n    /* \"#utility.yul\":5093:5159   */\n  0xffffffffffffffffffffffffffffffffffffffffffffffffffffffffffffffff\n    /* \"#utility.yul\":5082:5091   */\n  dup3\n    /* \"#utility.yul\":5063:5160   */\n  tag_46\n  jump\t// in\ntag_123:\n    /* \"#utility.yul\":5181:5220   */\n  tag_124\n    /* \"#utility.yul\":5211:5219   */\n  dup7\n    /* \"#utility.yul\":5200:5209   */\n  dup4\n    /* \"#utility.yul\":5181:5220   */\n  tag_46\n  jump\t// in\ntag_124:\n    /* \"#utility.yul\":5169:5220   */\n  swap6\n  pop\n    /* \"#utility.yul\":5253:5257   */\n  dup1\n    /* \"#utility.yul\":5249:5258   */\n  not\n    /* \"#utility.yul\":5242:5247   */\n  dup5\n    /* \"#utility.yul\":5238:5259   */\n  and\n    /* \"#utility.yul\":5229:5259   */\n  swap4\n  pop\n    /* \"#utility.yul\":5302:5306   */\n  dup1\n    /* \"#utility.yul\":5292:5300   */\n  dup7\n    /* \"#utility.yul\":5288:5307   */\n  and\n    /* \"#utility.yul\":5281:5286   */\n  dup5\n    /* \"#utility.yul\":5278:5308   */\n  or\n    /* \"#utility.yul\":5268:5308   */\n  swap3\n  pop\n    /* \"#utility.yul\":4997:5314   */\n  pop\n  pop\n    /* \"#utility.yul\":4921:5314   */\n  swap4\n  swap3\n  pop\n  pop\n  pop\n  jump\t// out\n    /* \"#utility.yul\":5320:5380   */\ntag_48:\n    /* \"#utility.yul\":5348:5351   */\n  0x00\n    /* \"#utility.yul\":5369:5374   */\n  dup2\n    /* \"#utility.yul\":5362:5374   */\n  swap1\n  pop\n    /* \"#utility.yul\":5320:5380   */\n  swap2\n  swap1\n  pop\n  jump\t// out\n    /* \"#utility.yul\":5386:5528   */\ntag_49:\n    /* \"#utility.yul\":5436:5445   */\n  0x00\n    /* \"#utility.yul\":5469:5522   */\n  tag_127\n    /* \"#utility.yul\":5487:5521   */\n  tag_128\n    /* \"#utility.yul\":5496:5520   */\n  tag_129\n    /* \"#utility.yul\":5514:5519   */\n  dup5\n    /* \"#utility.yul\":5496:5520   */\n  tag_38\n  jump\t// in\ntag_129:\n    /* \"#utility.yul\":5487:5521   */\n  tag_48\n  jump\t// in\ntag_128:\n    /* \"#utility.yul\":5469:5522   */\n  tag_38\n  jump\t// in\ntag_127:\n    /* \"#utility.yul\":5456:5522   */\n  swap1\n  pop\n    /* \"#utility.yul\":5386:5528   */\n  swap2\n  swap1\n  pop\n  jump\t// out\n    /* \"#utility.yul\":5534:5609   */\ntag_50:\n    /* \"#utility.yul\":5577:5580   */\n  0x00\n    /* \"#utility.yul\":5598:5603   */\n  dup2\n    /* \"#utility.yul\":5591:5603   */\n  swap1\n  pop\n    /* \"#utility.yul\":5534:5609   */\n  swap2\n  swap1\n  pop\n  jump\t// out\n    /* \"#utility.yul\":5615:5884   */\ntag_51:\n    /* \"#utility.yul\":5725:5764   */\n  tag_132\n    /* \"#utility.yul\":5756:5763   */\n  dup4\n    /* \"#utility.yul\":5725:5764   */\n  tag_49\n  jump\t// in\ntag_132:\n    /* \"#utility.yul\":5786:5877   */\n  tag_133\n    /* \"#utility.yul\":5835:5876   */\n  tag_134\n    /* \"#utility.yul\":5859:5875   */\n  dup3\n    /* \"#utility.yul\":5835:5876   */\n  tag_50\n  jump\t// in\ntag_134:\n    /* \"#utility.yul\":5827:5833   */\n  dup5\n    /* \"#utility.yul\":5820:5824   */\n  dup5\n    /* \"#utility.yul\":5814:5825   */\n  sload\n    /* \"#utility.yul\":5786:5877   */\n  tag_47\n  jump\t// in\ntag_133:\n    /* \"#utility.yul\":5780:5784   */\n  dup3\n    /* \"#utility.yul\":5773:5878   */\n  sstore\n    /* \"#utility.yul\":5691:5884   */\n  pop\n    /* \"#utility.yul\":5615:5884   */\n  pop\n  pop\n  pop\n  jump\t// out\n    /* \"#utility.yul\":5890:5963   */\ntag_52:\n    /* \"#utility.yul\":5935:5938   */\n  0x00\n    /* \"#utility.yul\":5956:5957   */\n  0x00\n    /* \"#utility.yul\":5949:5957   */\n  swap1\n  pop\n    /* \"#utility.yul\":5890:5963   */\n  swap1\n  jump\t// out\n    /* \"#utility.yul\":5969:6158   */\ntag_53:\n    /* \"#utility.yul\":6046:6078   */\n  tag_137\n  tag_52\n  jump\t// in\ntag_137:\n    /* \"#utility.yul\":6087:6152   */\n  tag_138\n    /* \"#utility.yul\":6145:6151   */\n  dup2\n    /* \"#utility.yul\":6137:6143   */\n  dup5\n    /* \"#utility.yul\":6131:6135   */\n  dup5\n    /* \"#utility.yul\":6087:6152   */\n  tag_51\n  jump\t// in\ntag_138:\n    /* \"#utility.yul\":6022:6158   */\n  pop\n    /* \"#utility.yul\":5969:6158   */\n  pop\n  pop\n  jump\t// out\n    /* \"#utility.yul\":6164:6350   */\ntag_54:\n    /* \"#utility.yul\":6224:6344   */\ntag_140:\n    /* \"#utility.yul\":6241:6244   */\n  dup2\n    /* \"#utility.yul\":6234:6239   */\n  dup2\n    /* \"#utility.yul\":6231:6245   */\n  lt\n    /* \"#utility.yul\":6224:6344   */\n  iszero\n  tag_142\n  jumpi\n    /* \"#utility.yul\":6295:6334   */\n  tag_143\n    /* \"#utility.yul\":6332:6333   */\n  0x00\n    /* \"#utility.yul\":6325:6330   */\n  dup3\n    /* \"#utility.yul\":6295:6334   */\n  tag_53\n  jump\t// in\ntag_143:\n    /* \"#utility.yul\":6268:6269   */\n  0x01\n    /* \"#utility.yul\":6261:6266   */\n  dup2\n    /* \"#utility.yul\":6257:6270   */\n  add\n    /* \"#utility.yul\":6248:6270   */\n  swap1\n  pop\n    /* \"#utility.yul\":6224:6344   */\n  jump(tag_140)\ntag_142:\n    /* \"#utility.yul\":6164:6350   */\n  pop\n  pop\n  jump\t// out\n    /* \"#utility.yul\":6356:6899   */\ntag_55:\n    /* \"#utility.yul\":6457:6459   */\n  0x1f\n    /* \"#utility.yul\":6452:6455   */\n  dup3\n    /* \"#utility.yul\":6449:6460   */\n  gt\n    /* \"#utility.yul\":6446:6892   */\n  iszero\n  tag_145\n  jumpi\n    /* \"#utility.yul\":6491:6529   */\n  tag_146\n    /* \"#utility.yul\":6523:6528   */\n  dup2\n    /* \"#utility.yul\":6491:6529   */\n  tag_44\n  jump\t// in\ntag_146:\n    /* \"#utility.yul\":6575:6604   */\n  tag_147\n    /* \"#utility.yul\":6593:6603   */\n  dup5\n    /* \"#utility.yul\":6575:6604   */\n  tag_45\n  jump\t// in\ntag_147:\n    /* \"#utility.yul\":6565:6573   */\n  dup2\n    /* \"#utility.yul\":6561:6605   */\n  add\n    /* \"#utility.yul\":6758:6760   */\n  0x20\n    /* \"#utility.yul\":6746:6756   */\n  dup6\n    /* \"#utility.yul\":6743:6761   */\n  lt\n    /* \"#utility.yul\":6740:6789   */\n  iszero\n  tag_148\n  jumpi\n    /* \"#utility.yul\":6779:6787   */\n  dup2\n    /* \"#utility.yul\":6764:6787   */\n  swap1\n  pop\n    /* \"#utility.yul\":6740:6789   */\ntag_148:\n    /* \"#utility.yul\":6802:6882   */\n  tag_149\n    /* \"#utility.yul\":6858:6880   */\n  tag_150\n    /* \"#utility.yul\":6876:6879   */\n  dup6\n    /* \"#utility.yul\":6858:6880   */\n  tag_45\n  jump\t// in\ntag_150:\n    /* \"#utility.yul\":6848:6856   */\n  dup4\n    /* \"#utility.yul\":6844:6881   */\n  add\n    /* \"#utility.yul\":6831:6842   */\n  dup3\n    /* \"#utility.yul\":6802:6882   */\n  tag_54\n  jump\t// in\ntag_149:\n    /* \"#utility.yul\":6461:6892   */\n  pop\n  pop\n    /* \"#utility.yul\":6446:6892   */\ntag_145:\n    /* \"#utility.yul\":6356:6899   */\n  pop\n  pop\n  pop\n  jump\t// out\n    /* \"#utility.yul\":6905:7022   */\ntag_56:\n    /* \"#utility.yul\":6959:6967   */\n  0x00\n    /* \"#utility.yul\":7009:7014   */\n  dup3\n    /* \"#utility.yul\":7003:7007   */\n  dup3\n    /* \"#utility.yul\":6999:7015   */\n  shr\n    /* \"#utility.yul\":6978:7015   */\n  swap1\n  pop\n    /* \"#utility.yul\":6905:7022   */\n  swap3\n  swap2\n  pop\n  pop\n  jump\t// out\n    /* \"#utility.yul\":7028:7197   */\ntag_57:\n    /* \"#utility.yul\":7072:7078   */\n  0x00\n    /* \"#utility.yul\":7105:7156   */\n  tag_153\n    /* \"#utility.yul\":7153:7154   */\n  0x00\n    /* \"#utility.yul\":7149:7155   */\n  not\n    /* \"#utility.yul\":7141:7146   */\n  dup5\n    /* \"#utility.yul\":7138:7139   */\n  0x08\n    /* \"#utility.yul\":7134:7147   */\n  mul\n    /* \"#utility.yul\":7105:7156   */\n  tag_56\n  jump\t// in\ntag_153:\n    /* \"#utility.yul\":7101:7157   */\n  not\n    /* \"#utility.yul\":7186:7190   */\n  dup1\n    /* \"#utility.yul\":7180:7184   */\n  dup4\n    /* \"#utility.yul\":7176:7191   */\n  and\n    /* \"#utility.yul\":7166:7191   */\n  swap2\n  pop\n    /* \"#utility.yul\":7079:7197   */\n  pop\n    /* \"#utility.yul\":7028:7197   */\n  swap3\n  swap2\n  pop\n  pop\n  jump\t// out\n    /* \"#utility.yul\":7202:7497   */\ntag_58:\n    /* \"#utility.yul\":7278:7282   */\n  0x00\n    /* \"#utility.yul\":7424:7453   */\n  tag_155\n    /* \"#utility.yul\":7449:7452   */\n  dup4\n    /* \"#utility.yul\":7443:7447   */\n  dup4\n    /* \"#utility.yul\":7424:7453   */\n  tag_57\n  jump\t// in\ntag_155:\n    /* \"#utility.yul\":7416:7453   */\n  swap2\n  pop\n    /* \"#utility.yul\":7486:7489   */\n  dup3\n    /* \"#utility.yul\":7483:7484   */\n  0x02\n    /* \"#utility.yul\":7479:7490   */\n  mul\n    /* \"#utility.yul\":7473:7477   */\n  dup3\n    /* \"#utility.yul\":7470:7491   */\n  or\n    /* \"#utility.yul\":7462:7491   */\n  swap1\n  pop\n    /* \"#utility.yul\":7202:7497   */\n  swap3\n  swap2\n  pop\n  pop\n  jump\t// out\n    /* \"#utility.yul\":7502:8897   */\ntag_7:\n    /* \"#utility.yul\":7619:7656   */\n  tag_157\n    /* \"#utility.yul\":7652:7655   */\n  dup3\n    /* \"#utility.yul\":7619:7656   */\n  tag_41\n  jump\t// in\ntag_157:\n    /* \"#utility.yul\":7721:7739   */\n  0xffffffffffffffff\n    /* \"#utility.yul\":7713:7719   */\n  dup2\n    /* \"#utility.yul\":7710:7740   */\n  gt\n    /* \"#utility.yul\":7707:7763   */\n  iszero\n  tag_158\n  jumpi\n    /* \"#utility.yul\":7743:7761   */\n  tag_159\n  tag_31\n  jump\t// in\ntag_159:\n    /* \"#utility.yul\":7707:7763   */\ntag_158:\n    /* \"#utility.yul\":7787:7825   */\n  tag_160\n    /* \"#utility.yul\":7819:7823   */\n  dup3\n    /* \"#utility.yul\":7813:7824   */\n  sload\n    /* \"#utility.yul\":7787:7825   */\n  tag_43\n  jump\t// in\ntag_160:\n    /* \"#utility.yul\":7872:7939   */\n  tag_161\n    /* \"#utility.yul\":7932:7938   */\n  dup3\n    /* \"#utility.yul\":7924:7930   */\n  dup3\n    /* \"#utility.yul\":7918:7922   */\n  dup6\n    /* \"#utility.yul\":7872:7939   */\n  tag_55\n  jump\t// in\ntag_161:\n    /* \"#utility.yul\":7966:7967   */\n  0x00\n    /* \"#utility.yul\":7990:7994   */\n  0x20\n    /* \"#utility.yul\":7977:7994   */\n  swap1\n  pop\n    /* \"#utility.yul\":8022:8024   */\n  0x1f\n    /* \"#utility.yul\":8014:8020   */\n  dup4\n    /* \"#utility.yul\":8011:8025   */\n  gt\n    /* \"#utility.yul\":8039:8040   */\n  0x01\n    /* \"#utility.yul\":8034:8652   */\n  dup2\n  eq\n  tag_163\n  jumpi\n    /* \"#utility.yul\":8696:8697   */\n  0x00\n    /* \"#utility.yul\":8713:8719   */\n  dup5\n    /* \"#utility.yul\":8710:8787   */\n  iszero\n  tag_164\n  jumpi\n    /* \"#utility.yul\":8762:8771   */\n  dup3\n    /* \"#utility.yul\":8757:8760   */\n  dup8\n    /* \"#utility.yul\":8753:8772   */\n  add\n    /* \"#utility.yul\":8747:8773   */\n  mload\n    /* \"#utility.yul\":8738:8773   */\n  swap1\n  pop\n    /* \"#utility.yul\":8710:8787   */\ntag_164:\n    /* \"#utility.yul\":8813:8880   */\n  tag_165\n    /* \"#utility.yul\":8873:8879   */\n  dup6\n    /* \"#utility.yul\":8866:8871   */\n  dup3\n    /* \"#utility.yul\":8813:8880   */\n  tag_58\n  jump\t// in\ntag_165:\n    /* \"#utility.yul\":8807:8811   */\n  dup7\n    /* \"#utility.yul\":8800:8881   */\n  sstore\n    /* \"#utility.yul\":8669:8891   */\n  pop\n    /* \"#utility.yul\":8004:8891   */\n  jump(tag_162)\n    /* \"#utility.yul\":8034:8652   */\ntag_163:\n    /* \"#utility.yul\":8086:8090   */\n  0x1f\n    /* \"#utility.yul\":8082:8091   */\n  not\n    /* \"#utility.yul\":8074:8080   */\n  dup5\n    /* \"#utility.yul\":8070:8092   */\n  and\n    /* \"#utility.yul\":8120:8157   */\n  tag_166\n    /* \"#utility.yul\":8152:8156   */\n  dup7\n    /* \"#utility.yul\":8120:8157   */\n  tag_44\n  jump\t// in\ntag_166:\n    /* \"#utility.yul\":8179:8180   */\n  0x00\n    /* \"#utility.yul\":8193:8401   */\ntag_167:\n    /* \"#utility.yul\":8207:8214   */\n  dup3\n    /* \"#utility.yul\":8204:8205   */\n  dup2\n    /* \"#utility.yul\":8201:8215   */\n  lt\n    /* \"#utility.yul\":8193:8401   */\n  iszero\n  tag_169\n  jumpi\n    /* \"#utility.yul\":8286:8295   */\n  dup5\n    /* \"#utility.yul\":8281:8284   */\n  dup10\n    /* \"#utility.yul\":8277:8296   */\n  add\n    /* \"#utility.yul\":8271:8297   */\n  mload\n    /* \"#utility.yul\":8263:8269   */\n  dup3\n    /* \"#utility.yul\":8256:8298   */\n  sstore\n    /* \"#utility.yul\":8337:8338   */\n  0x01\n    /* \"#utility.yul\":8329:8335   */\n  dup3\n    /* \"#utility.yul\":8325:8339   */\n  add\n    /* \"#utility.yul\":8315:8339   */\n  swap2\n  pop\n    /* \"#utility.yul\":8384:8386   */\n  0x20\n    /* \"#utility.yul\":8373:8382   */\n  dup6\n    /* \"#utility.yul\":8369:8387   */\n  add\n    /* \"#utility.yul\":8356:8387   */\n  swap5\n  pop\n    /* \"#utility.yul\":8230:8234   */\n  0x20\n    /* \"#utility.yul\":8227:8228   */\n  dup2\n    /* \"#utility.yul\":8223:8235   */\n  add\n    /* \"#utility.yul\":8218:8235   */\n  swap1\n  pop\n    /* \"#utility.yul\":8193:8401   */\n  jump(tag_167)\ntag_169:\n    /* \"#utility.yul\":8429:8435   */\n  dup7\n    /* \"#utility.yul\":8420:8427   */\n  dup4\n    /* \"#utility.yul\":8417:8436   */\n  lt\n    /* \"#utility.yul\":8414:8593   */\n  iszero\n  tag_170\n  jumpi\n    /* \"#utility.yul\":8487:8496   */\n  dup5\n    /* \"#utility.yul\":8482:8485   */\n  dup10\n    /* \"#utility.yul\":8478:8497   */\n  add\n    /* \"#utility.yul\":8472:8498   */\n  mload\n    /* \"#utility.yul\":8530:8578   */\n  tag_171\n    /* \"#utility.yul\":8572:8576   */\n  0x1f\n    /* \"#utility.yul\":8564:8570   */\n  dup10\n    /* \"#utility.yul\":8560:8577   */\n  and\n    /* \"#utility.yul\":8549:8558   */\n  dup3\n    /* \"#utility.yul\":8530:8578   */\n  tag_57\n  jump\t// in\ntag_171:\n    /* \"#utility.yul\":8522:8528   */\n  dup4\n    /* \"#utility.yul\":8515:8579   */\n  sstore\n    /* \"#utility.yul\":8437:8593   */\n  pop\n    /* \"#utility.yul\":8414:8593   */\ntag_170:\n    /* \"#utility.yul\":8639:8640   */\n  0x01\n    /* \"#utility.yul\":8635:8636   */\n  0x02\n    /* \"#utility.yul\":8627:8633   */\n  dup9\n    /* \"#utility.yul\":8623:8637   */\n  mul\n    /* \"#utility.yul\":8619:8641   */\n  add\n    /* \"#utility.yul\":8613:8617   */\n  dup9\n    /* \"#utility.yul\":8606:8642   */\n  sstore\n    /* \"#utility.yul\":8041:8652   */\n  pop\n  pop\n  pop\n    /* \"#utility.yul\":8004:8891   */\ntag_162:\n  pop\n    /* \"#utility.yul\":7594:8897   */\n  pop\n  pop\n  pop\n    /* \"#utility.yul\":7502:8897   */\n  pop\n  pop\n  jump\t// out\n    /* \"#utility.yul\":8903:9083   */\ntag_59:\n    /* \"#utility.yul\":8951:9028   */\n  0x4e487b7100000000000000000000000000000000000000000000000000000000\n    /* \"#utility.yul\":8948:8949   */\n  0x00\n    /* \"#utility.yul\":8941:9029   */\n  mstore\n    /* \"#utility.yul\":9048:9052   */\n  0x11\n    /* \"#utility.yul\":9045:9046   */\n  0x04\n    /* \"#utility.yul\":9038:9053   */\n  mstore\n    /* \"#utility.yul\":9072:9076   */\n  0x24\n    /* \"#utility.yul\":9069:9070   */\n  0x00\n    /* \"#utility.yul\":9062:9077   */\n  revert\n    /* \"#utility.yul\":9089:9191   */\ntag_60:\n    /* \"#utility.yul\":9131:9139   */\n  0x00\n    /* \"#utility.yul\":9178:9183   */\n  dup2\n    /* \"#utility.yul\":9175:9176   */\n  0x01\n    /* \"#utility.yul\":9171:9184   */\n  shr\n    /* \"#utility.yul\":9150:9184   */\n  swap1\n  pop\n    /* \"#utility.yul\":9089:9191   */\n  swap2\n  swap1\n  pop\n  jump\t// out\n    /* \"#utility.yul\":9197:10045   */\ntag_61:\n    /* \"#utility.yul\":9258:9263   */\n  0x00\n    /* \"#utility.yul\":9265:9269   */\n  0x00\n    /* \"#utility.yul\":9289:9295   */\n  dup3\n    /* \"#utility.yul\":9280:9295   */\n  swap2\n  pop\n    /* \"#utility.yul\":9313:9318   */\n  dup4\n    /* \"#utility.yul\":9304:9318   */\n  swap1\n  pop\n    /* \"#utility.yul\":9327:10039   */\ntag_175:\n    /* \"#utility.yul\":9348:9349   */\n  0x01\n    /* \"#utility.yul\":9338:9346   */\n  dup6\n    /* \"#utility.yul\":9335:9350   */\n  gt\n    /* \"#utility.yul\":9327:10039   */\n  iszero\n  tag_177\n  jumpi\n    /* \"#utility.yul\":9443:9447   */\n  dup1\n    /* \"#utility.yul\":9438:9441   */\n  dup7\n    /* \"#utility.yul\":9434:9448   */\n  div\n    /* \"#utility.yul\":9428:9432   */\n  dup2\n    /* \"#utility.yul\":9425:9449   */\n  gt\n    /* \"#utility.yul\":9422:9472   */\n  iszero\n  tag_178\n  jumpi\n    /* \"#utility.yul\":9452:9470   */\n  tag_179\n  tag_59\n  jump\t// in\ntag_179:\n    /* \"#utility.yul\":9422:9472   */\ntag_178:\n    /* \"#utility.yul\":9502:9503   */\n  0x01\n    /* \"#utility.yul\":9492:9500   */\n  dup6\n    /* \"#utility.yul\":9488:9504   */\n  and\n    /* \"#utility.yul\":9485:9936   */\n  iszero\n  tag_180\n  jumpi\n    /* \"#utility.yul\":9917:9921   */\n  dup1\n    /* \"#utility.yul\":9910:9915   */\n  dup3\n    /* \"#utility.yul\":9906:9922   */\n  mul\n    /* \"#utility.yul\":9897:9922   */\n  swap2\n  pop\n    /* \"#utility.yul\":9485:9936   */\ntag_180:\n    /* \"#utility.yul\":9967:9971   */\n  dup1\n    /* \"#utility.yul\":9961:9965   */\n  dup2\n    /* \"#utility.yul\":9957:9972   */\n  mul\n    /* \"#utility.yul\":9949:9972   */\n  swap1\n  pop\n    /* \"#utility.yul\":9997:10029   */\n  tag_181\n    /* \"#utility.yul\":10020:10028   */\n  dup6\n    /* \"#utility.yul\":9997:10029   */\n  tag_60\n  jump\t// in\ntag_181:\n    /* \"#utility.yul\":9985:10029   */\n  swap5\n  pop\n    /* \"#utility.yul\":9327:10039   */\n  jump(tag_175)\ntag_177:\n    /* \"#utility.yul\":9197:10045   */\n  swap5\n  pop\n  swap5\n  swap3\n  pop\n  pop\n  pop\n  jump\t// out\n    /* \"#utility.yul\":10051:11124   */\ntag_62:\n    /* \"#utility.yul\":10105:10110   */\n  0x00\n    /* \"#utility.yul\":10296:10304   */\n  dup3\n    /* \"#utility.yul\":10286:10326   */\n  tag_183\n  jumpi\n    /* \"#utility.yul\":10317:10318   */\n  0x01\n    /* \"#utility.yul\":10308:10318   */\n  swap1\n  pop\n    /* \"#utility.yul\":10319:10324   */\n  jump(tag_182)\n    /* \"#utility.yul\":10286:10326   */\ntag_183:\n    /* \"#utility.yul\":10345:10349   */\n  dup2\n    /* \"#utility.yul\":10335:10371   */\n  tag_184\n  jumpi\n    /* \"#utility.yul\":10362:10363   */\n  0x00\n    /* \"#utility.yul\":10353:10363   */\n  swap1\n  pop\n    /* \"#utility.yul\":10364:10369   */\n  jump(tag_182)\n    /* \"#utility.yul\":10335:10371   */\ntag_184:\n    /* \"#utility.yul\":10431:10435   */\n  dup2\n    /* \"#utility.yul\":10479:10480   */\n  0x01\n    /* \"#utility.yul\":10474:10501   */\n  dup2\n  eq\n  tag_186\n  jumpi\n    /* \"#utility.yul\":10515:10516   */\n  0x02\n    /* \"#utility.yul\":10510:10701   */\n  dup2\n  eq\n  tag_187\n  jumpi\n    /* \"#utility.yul\":10424:10701   */\n  jump(tag_185)\n    /* \"#utility.yul\":10474:10501   */\ntag_186:\n    /* \"#utility.yul\":10492:10493   */\n  0x01\n    /* \"#utility.yul\":10483:10493   */\n  swap2\n  pop\n    /* \"#utility.yul\":10494:10499   */\n  pop\n  jump(tag_182)\n    /* \"#utility.yul\":10510:10701   */\ntag_187:\n    /* \"#utility.yul\":10555:10558   */\n  0xff\n    /* \"#utility.yul\":10545:10553   */\n  dup5\n    /* \"#utility.yul\":10542:10559   */\n  gt\n    /* \"#utility.yul\":10539:10582   */\n  iszero\n  tag_188\n  jumpi\n    /* \"#utility.yul\":10562:10580   */\n  tag_189\n  tag_59\n  jump\t// in\ntag_189:\n    /* \"#utility.yul\":10539:10582   */\ntag_188:\n    /* \"#utility.yul\":10611:10619   */\n  dup4\n    /* \"#utility.yul\":10608:10609   */\n  0x02\n    /* \"#utility.yul\":10604:10620   */\n  exp\n    /* \"#utility.yul\":10595:10620   */\n  swap2\n  pop\n    /* \"#utility.yul\":10646:10649   */\n  dup5\n    /* \"#utility.yul\":10639:10644   */\n  dup3\n    /* \"#utility.yul\":10636:10650   */\n  gt\n    /* \"#utility.yul\":10633:10673   */\n  iszero\n  tag_190\n  jumpi\n    /* \"#utility.yul\":10653:10671   */\n  tag_191\n  tag_59\n  jump\t// in\ntag_191:\n    /* \"#utility.yul\":10633:10673   */\ntag_190:\n    /* \"#utility.yul\":10686:10691   */\n  pop\n  jump(tag_182)\n    /* \"#utility.yul\":10424:10701   */\ntag_185:\n  pop\n    /* \"#utility.yul\":10810:10812   */\n  0x20\n    /* \"#utility.yul\":10800:10808   */\n  dup4\n    /* \"#utility.yul\":10797:10813   */\n  lt\n    /* \"#utility.yul\":10791:10794   */\n  0x0133\n    /* \"#utility.yul\":10785:10789   */\n  dup4\n    /* \"#utility.yul\":10782:10795   */\n  lt\n    /* \"#utility.yul\":10778:10814   */\n  and\n    /* \"#utility.yul\":10760:10762   */\n  0x4e\n    /* \"#utility.yul\":10750:10758   */\n  dup5\n    /* \"#utility.yul\":10747:10763   */\n  lt\n    /* \"#utility.yul\":10742:10744   */\n  0x0b\n    /* \"#utility.yul\":10736:10740   */\n  dup5\n    /* \"#utility.yul\":10733:10745   */\n  lt\n    /* \"#utility.yul\":10729:10764   */\n  and\n    /* \"#utility.yul\":10713:10824   */\n  or\n    /* \"#utility.yul\":10710:10956   */\n  iszero\n  tag_192\n  jumpi\n    /* \"#utility.yul\":10866:10874   */\n  dup3\n    /* \"#utility.yul\":10860:10864   */\n  dup3\n    /* \"#utility.yul\":10856:10875   */\n  exp\n    /* \"#utility.yul\":10847:10875   */\n  swap1\n  pop\n    /* \"#utility.yul\":10901:10904   */\n  dup4\n    /* \"#utility.yul\":10894:10899   */\n  dup2\n    /* \"#utility.yul\":10891:10905   */\n  gt\n    /* \"#utility.yul\":10888:10928   */\n  iszero\n  tag_193\n  jumpi\n    /* \"#utility.yul\":10908:10926   */\n  tag_194\n  tag_59\n  jump\t// in\ntag_194:\n    /* \"#utility.yul\":10888:10928   */\ntag_193:\n    /* \"#utility.yul\":10941:10946   */\n  jump(tag_182)\n    /* \"#utility.yul\":10710:10956   */\ntag_192:\n    /* \"#utility.yul\":10981:11023   */\n  tag_195\n    /* \"#utility.yul\":11019:11022   */\n  dup5\n    /* \"#utility.yul\":11009:11017   */\n  dup5\n    /* \"#utility.yul\":11003:11007   */\n  dup5\n    /* \"#utility.yul\":11000:11001   */\n  0x01\n    /* \"#utility.yul\":10981:11023   */\n  tag_61\n  jump\t// in\ntag_195:\n    /* \"#utility.yul\":10966:11023   */\n  swap3\n  pop\n  swap1\n  pop\n    /* \"#utility.yul\":11055:11059   */\n  dup2\n    /* \"#utility.yul\":11050:11053   */\n  dup5\n    /* \"#utility.yul\":11046:11060   */\n  div\n    /* \"#utility.yul\":11039:11044   */\n  dup2\n    /* \"#utility.yul\":11036:11061   */\n  gt\n    /* \"#utility.yul\":11033:11084   */\n  iszero\n  tag_196\n  jumpi\n    /* \"#utility.yul\":11064:11082   */\n  tag_197\n  tag_59\n  jump\t// in\ntag_197:\n    /* \"#utility.yul\":11033:11084   */\ntag_196:\n    /* \"#utility.yul\":11113:11117   */\n  dup2\n    /* \"#utility.yul\":11106:11111   */\n  dup2\n    /* \"#utility.yul\":11102:11118   */\n  mul\n    /* \"#utility.yul\":11093:11118   */\n  swap1\n  pop\n    /* \"#utility.yul\":10051:11124   */\ntag_182:\n  swap4\n  swap3\n  pop\n  pop\n  pop\n  jump\t// out\n    /* \"#utility.yul\":11130:11415   */\ntag_11:\n    /* \"#utility.yul\":11190:11195   */\n  0x00\n    /* \"#utility.yul\":11214:11237   */\n  tag_199\n    /* \"#utility.yul\":11232:11236   */\n  dup3\n    /* \"#utility.yul\":11214:11237   */\n  tag_38\n  jump\t// in\ntag_199:\n    /* \"#utility.yul\":11206:11237   */\n  swap2\n  pop\n    /* \"#utility.yul\":11258:11285   */\n  tag_200\n    /* \"#utility.yul\":11276:11284   */\n  dup4\n    /* \"#utility.yul\":11258:11285   */\n  tag_38\n  jump\t// in\ntag_200:\n    /* \"#utility.yul\":11246:11285   */\n  swap3\n  pop\n    /* \"#utility.yul\":11304:11408   */\n  tag_201\n    /* \"#utility.yul\":11341:11407   */\n  0xffffffffffffffffffffffffffffffffffffffffffffffffffffffffffffffff\n    /* \"#utility.yul\":11331:11339   */\n  dup5\n    /* \"#utility.yul\":11325:11329   */\n  dup5\n    /* \"#utility.yul\":11304:11408   */\n  tag_62\n  jump\t// in\ntag_201:\n    /* \"#utility.yul\":11295:11408   */\n  swap1\n  pop\n    /* \"#utility.yul\":11130:11415   */\n  swap3\n  swap2\n  pop\n  pop\n  jump\t// out\n    /* \"#utility.yul\":11421:11831   */\ntag_13:\n    /* \"#utility.yul\":11461:11468   */\n  0x00\n    /* \"#utility.yul\":11484:11504   */\n  tag_203\n    /* \"#utility.yul\":11502:11503   */\n  dup3\n    /* \"#utility.yul\":11484:11504   */\n  tag_38\n  jump\t// in\ntag_203:\n    /* \"#utility.yul\":11479:11504   */\n  swap2\n  pop\n    /* \"#utility.yul\":11518:11538   */\n  tag_204\n    /* \"#utility.yul\":11536:11537   */\n  dup4\n    /* \"#utility.yul\":11518:11538   */\n  tag_38\n  jump\t// in\ntag_204:\n    /* \"#utility.yul\":11513:11538   */\n  swap3\n  pop\n    /* \"#utility.yul\":11573:11574   */\n  dup3\n    /* \"#utility.yul\":11570:11571   */\n  dup3\n    /* \"#utility.yul\":11566:11575   */\n  mul\n    /* \"#utility.yul\":11595:11625   */\n  tag_205\n    /* \"#utility.yul\":11613:11624   */\n  dup2\n    /* \"#utility.yul\":11595:11625   */\n  tag_38\n  jump\t// in\ntag_205:\n    /* \"#utility.yul\":11584:11625   */\n  swap2\n  pop\n    /* \"#utility.yul\":11774:11775   */\n  dup3\n    /* \"#utility.yul\":11765:11772   */\n  dup3\n    /* \"#utility.yul\":11761:11776   */\n  div\n    /* \"#utility.yul\":11758:11759   */\n  dup5\n    /* \"#utility.yul\":11755:11777   */\n  eq\n    /* \"#utility.yul\":11735:11736   */\n  dup4\n    /* \"#utility.yul\":11728:11737   */\n  iszero\n    /* \"#utility.yul\":11708:11791   */\n  or\n    /* \"#utility.yul\":11685:11824   */\n  tag_206\n  jumpi\n    /* \"#utility.yul\":11804:11822   */\n  tag_207\n  tag_59\n  jump\t// in\ntag_207:\n    /* \"#utility.yul\":11685:11824   */\ntag_206:\n    /* \"#utility.yul\":11469:11831   */\n  pop\n    /* \"#utility.yul\":11421:11831   */\n  swap3\n  swap2\n  pop\n  pop\n  jump\t// out\n    /* \"#utility.yul\":11837:12006   */\ntag_63:\n    /* \"#utility.yul\":11921:11932   */\n  0x00\n    /* \"#utility.yul\":11955:11961   */\n  dup3\n    /* \"#utility.yul\":11950:11953   */\n  dup3\n    /* \"#utility.yul\":11943:11962   */\n  mstore\n    /* \"#utility.yul\":11995:11999   */\n  0x20\n    /* \"#utility.yul\":11990:11993   */\n  dup3\n    /* \"#utility.yul\":11986:12000   */\n  add\n    /* \"#utility.yul\":11971:12000   */\n  swap1\n  pop\n    /* \"#utility.yul\":11837:12006   */\n  swap3\n  swap2\n  pop\n  pop\n  jump\t// out\n    /* \"#utility.yul\":12012:12177   */\ntag_64:\n    /* \"#utility.yul\":12152:12169   */\n  0x496e76616c696420616464726573730000000000000000000000000000000000\n    /* \"#utility.yul\":12148:12149   */\n  0x00\n    /* \"#utility.yul\":12140:12146   */\n  dup3\n    /* \"#utility.yul\":12136:12150   */\n  add\n    /* \"#utility.yul\":12129:12170   */\n  mstore\n    /* \"#utility.yul\":12012:12177   */\n  pop\n  jump\t// out\n    /* \"#utility.yul\":12183:12549   */\ntag_65:\n    /* \"#utility.yul\":12325:12328   */\n  0x00\n    /* \"#utility.yul\":12346:12413   */\n  tag_211\n    /* \"#utility.yul\":12410:12412   */\n  0x0f\n    /* \"#utility.yul\":12405:12408   */\n  dup4\n    /* \"#utility.yul\":12346:12413   */\n  tag_63\n  jump\t// in\ntag_211:\n    /* \"#utility.yul\":12339:12413   */\n  swap2\n  pop\n    /* \"#utility.yul\":12422:12515   */\n  tag_212\n    /* \"#utility.yul\":12511:12514   */\n  dup3\n    /* \"#utility.yul\":12422:12515   */\n  tag_64\n  jump\t// in\ntag_212:\n    /* \"#utility.yul\":12540:12542   */\n  0x20\n    /* \"#utility.yul\":12535:12538   */\n  dup3\n    /* \"#utility.yul\":12531:12543   */\n  add\n    /* \"#utility.yul\":12524:12543   */\n  swap1\n  pop\n    /* \"#utility.yul\":12183:12549   */\n  swap2\n  swap1\n  pop\n  jump\t// out\n    /* \"#utility.yul\":12555:12974   */\ntag_19:\n    /* \"#utility.yul\":12721:12725   */\n  0x00\n    /* \"#utility.yul\":12759:12761   */\n  0x20\n    /* \"#utility.yul\":12748:12757   */\n  dup3\n    /* \"#utility.yul\":12744:12762   */\n  add\n    /* \"#utility.yul\":12736:12762   */\n  swap1\n  pop\n    /* \"#utility.yul\":12808:12817   */\n  dup2\n    /* \"#utility.yul\":12802:12806   */\n  dup2\n    /* \"#utility.yul\":12798:12818   */\n  sub\n    /* \"#utility.yul\":12794:12795   */\n  0x00\n    /* \"#utility.yul\":12783:12792   */\n  dup4\n    /* \"#utility.yul\":12779:12796   */\n  add\n    /* \"#utility.yul\":12772:12819   */\n  mstore\n    /* \"#utility.yul\":12836:12967   */\n  tag_214\n    /* \"#utility.yul\":12962:12966   */\n  dup2\n    /* \"#utility.yul\":12836:12967   */\n  tag_65\n  jump\t// in\ntag_214:\n    /* \"#utility.yul\":12828:12967   */\n  swap1\n  pop\n    /* \"#utility.yul\":12555:12974   */\n  swap2\n  swap1\n  pop\n  jump\t// out\n    /* \"#utility.yul\":12980:13171   */\ntag_21:\n    /* \"#utility.yul\":13020:13023   */\n  0x00\n    /* \"#utility.yul\":13039:13059   */\n  tag_216\n    /* \"#utility.yul\":13057:13058   */\n  dup3\n    /* \"#utility.yul\":13039:13059   */\n  tag_38\n  jump\t// in\ntag_216:\n    /* \"#utility.yul\":13034:13059   */\n  swap2\n  pop\n    /* \"#utility.yul\":13073:13093   */\n  tag_217\n    /* \"#utility.yul\":13091:13092   */\n  dup4\n    /* \"#utility.yul\":13073:13093   */\n  tag_38\n  jump\t// in\ntag_217:\n    /* \"#utility.yul\":13068:13093   */\n  swap3\n  pop\n    /* \"#utility.yul\":13116:13117   */\n  dup3\n    /* \"#utility.yul\":13113:13114   */\n  dup3\n    /* \"#utility.yul\":13109:13118   */\n  add\n    /* \"#utility.yul\":13102:13118   */\n  swap1\n  pop\n    /* \"#utility.yul\":13137:13140   */\n  dup1\n    /* \"#utility.yul\":13134:13135   */\n  dup3\n    /* \"#utility.yul\":13131:13141   */\n  gt\n    /* \"#utility.yul\":13128:13164   */\n  iszero\n  tag_218\n  jumpi\n    /* \"#utility.yul\":13144:13162   */\n  tag_219\n  tag_59\n  jump\t// in\ntag_219:\n    /* \"#utility.yul\":13128:13164   */\ntag_218:\n    /* \"#utility.yul\":12980:13171   */\n  swap3\n  swap2\n  pop\n  pop\n  jump\t// out\n    /* \"#utility.yul\":13177:13295   */\ntag_66:\n    /* \"#utility.yul\":13264:13288   */\n  tag_221\n    /* \"#utility.yul\":13282:13287   */\n  dup2\n    /* \"#utility.yul\":13264:13288   */\n  tag_38\n  jump\t// in\ntag_221:\n    /* \"#utility.yul\":13259:13262   */\n  dup3\n    /* \"#utility.yul\":13252:13289   */\n  mstore\n    /* \"#utility.yul\":13177:13295   */\n  pop\n  pop\n  jump\t// out\n    /* \"#utility.yul\":13301:13523   */\ntag_24:\n    /* \"#utility.yul\":13394:13398   */\n  0x00\n    /* \"#utility.yul\":13432:13434   */\n  0x20\n    /* \"#utility.yul\":13421:13430   */\n  dup3\n    /* \"#utility.yul\":13417:13435   */\n  add\n    /* \"#utility.yul\":13409:13435   */\n  swap1\n  pop\n    /* \"#utility.yul\":13445:13516   */\n  tag_223\n    /* \"#utility.yul\":13513:13514   */\n  0x00\n    /* \"#utility.yul\":13502:13511   */\n  dup4\n    /* \"#utility.yul\":13498:13515   */\n  add\n    /* \"#utility.yul\":13489:13495   */\n  dup5\n    /* \"#utility.yul\":13445:13516   */\n  tag_66\n  jump\t// in\ntag_223:\n    /* \"#utility.yul\":13301:13523   */\n  swap3\n  swap2\n  pop\n  pop\n  jump\t// out\n    /* \"Contract_Conqueror_Series/ERC20standards.sol\":98:5281  contract BasicToken {... */\ntag_15:\n  mload(0x80)\n  codecopy(0x00, dataOffset(sub_0), dataSize(sub_0))\n  0x00\n  assignImmutable(\"0x5c4c6aa067b6f8e6cb38e6ab843832a94d1712d661a04d73c517d6a1931a9e5d\")\n  return(0x00, dataSize(sub_0))\nstop\n\nsub_0: assembly {\n        /* \"Contract_Conqueror_Series/ERC20standards.sol\":98:5281  contract BasicToken {... */\n      mstore(0x40, 0x80)\n      callvalue\n      dup1\n      iszero\n      tag_1\n      jumpi\n      revert(0x00, 0x00)\n    tag_1:\n      pop\n      jumpi(tag_2, lt(calldatasize, 0x04))\n      shr(0xe0, calldataload(0x00))\n      dup1\n      0x70a08231\n      gt\n      tag_15\n      jumpi\n      dup1\n      0x70a08231\n      eq\n      tag_9\n      jumpi\n      dup1\n      0x72dd529b\n      eq\n      tag_10\n      jumpi\n      dup1\n      0x8da5cb5b\n      eq\n      tag_11\n      jumpi\n      dup1\n      0x95d89b41\n      eq\n      tag_12\n      jumpi\n      dup1\n      0xa9059cbb\n      eq\n      tag_13\n      jumpi\n      dup1\n      0xdd62ed3e\n      eq\n      tag_14\n      jumpi\n      jump(tag_2)\n    tag_15:\n      dup1\n      0x06fdde03\n      eq\n      tag_3\n      jumpi\n      dup1\n      0x095ea7b3\n      eq\n      tag_4\n      jumpi\n      dup1\n      0x23b872dd\n      eq\n      tag_5\n      jumpi\n      dup1\n      0x313ce567\n      eq\n      tag_6\n      jumpi\n      dup1\n      0x40c10f19\n      eq\n      tag_7\n      jumpi\n      dup1\n      0x5c975abb\n      eq\n      tag_8\n      jumpi\n    tag_2:\n      revert(0x00, 0x00)\n        /* \"Contract_Conqueror_Series/ERC20standards.sol\":156:174  string public name */\n    tag_3:\n      tag_16\n      tag_17\n      jump\t// in\n    tag_16:\n      mload(0x40)\n      tag_18\n      swap2\n      swap1\n      tag_19\n      jump\t// in\n    tag_18:\n      mload(0x40)\n      dup1\n      swap2\n      sub\n      swap1\n      return\n        /* \"Contract_Conqueror_Series/ERC20standards.sol\":3486:3638  function approve(address spender, uint256 amount) external returns (bool) {... */\n    tag_4:\n      tag_20\n      0x04\n      dup1\n      calldatasize\n      sub\n      dup2\n      add\n      swap1\n      tag_21\n      swap2\n      swap1\n      tag_22\n      jump\t// in\n    tag_21:\n      tag_23\n      jump\t// in\n    tag_20:\n      mload(0x40)\n      tag_24\n      swap2\n      swap1\n      tag_25\n      jump\t// in\n    tag_24:\n      mload(0x40)\n      dup1\n      swap2\n      sub\n      swap1\n      return\n        /* \"Contract_Conqueror_Series/ERC20standards.sol\":3107:3409  function transferFrom(address from, address to, uint256 amount) external returns (bool) {... */\n    tag_5:\n      tag_26\n      0x04\n      dup1\n      calldatasize\n      sub\n      dup2\n      add\n      swap1\n      tag_27\n      swap2\n      swap1\n      tag_28\n      jump\t// in\n    tag_27:\n      tag_29\n      jump\t// in\n    tag_26:\n      mload(0x40)\n      tag_30\n      swap2\n      swap1\n      tag_25\n      jump\t// in\n    tag_30:\n      mload(0x40)\n      dup1\n      swap2\n      sub\n      swap1\n      return\n        /* \"Contract_Conqueror_Series/ERC20standards.sol\":208:234  uint8 public decimals = 18 */\n    tag_6:\n      tag_31\n      tag_32\n      jump\t// in\n    tag_31:\n      mload(0x40)\n      tag_33\n      swap2\n      swap1\n      tag_34\n      jump\t// in\n    tag_33:\n      mload(0x40)\n      dup1\n      swap2\n      sub\n      swap1\n      return\n        /* \"Contract_Conqueror_Series/ERC20standards.sol\":2507:2629  function mint(address to, uint256 amount) external onlyowner{... */\n    tag_7:\n      tag_35\n      0x04\n      dup1\n      calldatasize\n      sub\n      dup2\n      add\n      swap1\n      tag_36\n      swap2\n      swap1\n      tag_22\n      jump\t// in\n    tag_36:\n      tag_37\n      jump\t// in\n    tag_35:\n      stop\n        /* \"Contract_Conqueror_Series/ERC20standards.sol\":342:368  bool public paused = false */\n    tag_8:\n      tag_38\n      tag_39\n      jump\t// in\n    tag_38:\n      mload(0x40)\n      tag_40\n      swap2\n      swap1\n      tag_25\n      jump\t// in\n    tag_40:\n      mload(0x40)\n      dup1\n      swap2\n      sub\n      swap1\n      return\n        /* \"Contract_Conqueror_Series/ERC20standards.sol\":1978:2090  function balanceOf(address account) external view returns (uint256) {... */\n    tag_9:\n      tag_41\n      0x04\n      dup1\n      calldatasize\n      sub\n      dup2\n      add\n      swap1\n      tag_42\n      swap2\n      swap1\n      tag_43\n      jump\t// in\n    tag_42:\n      tag_44\n      jump\t// in\n    tag_41:\n      mload(0x40)\n      tag_45\n      swap2\n      swap1\n      tag_46\n      jump\t// in\n    tag_45:\n      mload(0x40)\n      dup1\n      swap2\n      sub\n      swap1\n      return\n        /* \"Contract_Conqueror_Series/ERC20standards.sol\":3921:4014  function totalsupply() external view returns (uint256) {... */\n    tag_10:\n      tag_47\n      tag_48\n      jump\t// in\n    tag_47:\n      mload(0x40)\n      tag_49\n      swap2\n      swap1\n      tag_46\n      jump\t// in\n    tag_49:\n      mload(0x40)\n      dup1\n      swap2\n      sub\n      swap1\n      return\n        /* \"Contract_Conqueror_Series/ERC20standards.sol\":315:335  address public owner */\n    tag_11:\n      tag_50\n      tag_51\n      jump\t// in\n    tag_50:\n      mload(0x40)\n      tag_52\n      swap2\n      swap1\n      tag_53\n      jump\t// in\n    tag_52:\n      mload(0x40)\n      dup1\n      swap2\n      sub\n      swap1\n      return\n        /* \"Contract_Conqueror_Series/ERC20standards.sol\":181:201  string public symbol */\n    tag_12:\n      tag_54\n      tag_55\n      jump\t// in\n    tag_54:\n      mload(0x40)\n      tag_56\n      swap2\n      swap1\n      tag_19\n      jump\t// in\n    tag_56:\n      mload(0x40)\n      dup1\n      swap2\n      sub\n      swap1\n      return\n        /* \"Contract_Conqueror_Series/ERC20standards.sol\":1771:1915  function transfer(address to, uint256 amount) external returns (bool) {... */\n    tag_13:\n      tag_57\n      0x04\n      dup1\n      calldatasize\n      sub\n      dup2\n      add\n      swap1\n      tag_58\n      swap2\n      swap1\n      tag_22\n      jump\t// in\n    tag_58:\n      tag_59\n      jump\t// in\n    tag_57:\n      mload(0x40)\n      tag_60\n      swap2\n      swap1\n      tag_25\n      jump\t// in\n    tag_60:\n      mload(0x40)\n      dup1\n      swap2\n      sub\n      swap1\n      return\n        /* \"Contract_Conqueror_Series/ERC20standards.sol\":3694:3840  function allowance(address tokenOwner, address spender) external view returns (uint256) {... */\n    tag_14:\n      tag_61\n      0x04\n      dup1\n      calldatasize\n      sub\n      dup2\n      add\n      swap1\n      tag_62\n      swap2\n      swap1\n      tag_63\n      jump\t// in\n    tag_62:\n      tag_64\n      jump\t// in\n    tag_61:\n      mload(0x40)\n      tag_65\n      swap2\n      swap1\n      tag_46\n      jump\t// in\n    tag_65:\n      mload(0x40)\n      dup1\n      swap2\n      sub\n      swap1\n      return\n        /* \"Contract_Conqueror_Series/ERC20standards.sol\":156:174  string public name */\n    tag_17:\n      0x00\n      dup1\n      sload\n      tag_66\n      swap1\n      tag_67\n      jump\t// in\n    tag_66:\n      dup1\n      0x1f\n      add\n      0x20\n      dup1\n      swap2\n      div\n      mul\n      0x20\n      add\n      mload(0x40)\n      swap1\n      dup2\n      add\n      0x40\n      mstore\n      dup1\n      swap3\n      swap2\n      swap1\n      dup2\n      dup2\n      mstore\n      0x20\n      add\n      dup3\n      dup1\n      sload\n      tag_68\n      swap1\n      tag_67\n      jump\t// in\n    tag_68:\n      dup1\n      iszero\n      tag_69\n      jumpi\n      dup1\n      0x1f\n      lt\n      tag_70\n      jumpi\n      0x0100\n      dup1\n      dup4\n      sload\n      div\n      mul\n      dup4\n      mstore\n      swap2\n      0x20\n      add\n      swap2\n      jump(tag_69)\n    tag_70:\n      dup3\n      add\n      swap2\n      swap1\n      0x00\n      mstore\n      keccak256(0x00, 0x20)\n      swap1\n    tag_71:\n      dup2\n      sload\n      dup2\n      mstore\n      swap1\n      0x01\n      add\n      swap1\n      0x20\n      add\n      dup1\n      dup4\n      gt\n      tag_71\n      jumpi\n      dup3\n      swap1\n      sub\n      0x1f\n      and\n      dup3\n      add\n      swap2\n    tag_69:\n      pop\n      pop\n      pop\n      pop\n      pop\n      dup2\n      jump\t// out\n        /* \"Contract_Conqueror_Series/ERC20standards.sol\":3486:3638  function approve(address spender, uint256 amount) external returns (bool) {... */\n    tag_23:\n        /* \"Contract_Conqueror_Series/ERC20standards.sol\":3554:3558  bool */\n      0x00\n        /* \"Contract_Conqueror_Series/ERC20standards.sol\":3571:3608  _approve(msg.sender, spender, amount) */\n      tag_73\n        /* \"Contract_Conqueror_Series/ERC20standards.sol\":3580:3590  msg.sender */\n      caller\n        /* \"Contract_Conqueror_Series/ERC20standards.sol\":3592:3599  spender */\n      dup5\n        /* \"Contract_Conqueror_Series/ERC20standards.sol\":3601:3607  amount */\n      dup5\n        /* \"Contract_Conqueror_Series/ERC20standards.sol\":3571:3579  _approve */\n      tag_74\n        /* \"Contract_Conqueror_Series/ERC20standards.sol\":3571:3608  _approve(msg.sender, spender, amount) */\n      jump\t// in\n    tag_73:\n        /* \"Contract_Conqueror_Series/ERC20standards.sol\":3626:3630  true */\n      0x01\n        /* \"Contract_Conqueror_Series/ERC20standards.sol\":3619:3630  return true */\n      swap1\n      pop\n        /* \"Contract_Conqueror_Series/ERC20standards.sol\":3486:3638  function approve(address spender, uint256 amount) external returns (bool) {... */\n      swap3\n      swap2\n      pop\n      pop\n      jump\t// out\n        /* \"Contract_Conqueror_Series/ERC20standards.sol\":3107:3409  function transferFrom(address from, address to, uint256 amount) external returns (bool) {... */\n    tag_29:\n        /* \"Contract_Conqueror_Series/ERC20standards.sol\":3189:3193  bool */\n      0x00\n        /* \"Contract_Conqueror_Series/ERC20standards.sol\":3247:3253  amount */\n      dup2\n        /* \"Contract_Conqueror_Series/ERC20standards.sol\":3214:3225  _allowances */\n      0x06\n        /* \"Contract_Conqueror_Series/ERC20standards.sol\":3214:3231  _allowances[from] */\n      0x00\n        /* \"Contract_Conqueror_Series/ERC20standards.sol\":3226:3230  from */\n      dup7\n        /* \"Contract_Conqueror_Series/ERC20standards.sol\":3214:3231  _allowances[from] */\n      0xffffffffffffffffffffffffffffffffffffffff\n      and\n      0xffffffffffffffffffffffffffffffffffffffff\n      and\n      dup2\n      mstore\n      0x20\n      add\n      swap1\n      dup2\n      mstore\n      0x20\n      add\n      0x00\n      keccak256\n        /* \"Contract_Conqueror_Series/ERC20standards.sol\":3214:3243  _allowances[from][msg.sender] */\n      0x00\n        /* \"Contract_Conqueror_Series/ERC20standards.sol\":3232:3242  msg.sender */\n      caller\n        /* \"Contract_Conqueror_Series/ERC20standards.sol\":3214:3243  _allowances[from][msg.sender] */\n      0xffffffffffffffffffffffffffffffffffffffff\n      and\n      0xffffffffffffffffffffffffffffffffffffffff\n      and\n      dup2\n      mstore\n      0x20\n      add\n      swap1\n      dup2\n      mstore\n      0x20\n      add\n      0x00\n      keccak256\n      sload\n        /* \"Contract_Conqueror_Series/ERC20standards.sol\":3214:3253  _allowances[from][msg.sender] >= amount */\n      lt\n      iszero\n        /* \"Contract_Conqueror_Series/ERC20standards.sol\":3206:3287  require(_allowances[from][msg.sender] >= amount, \"ERC20: insufficient allowance\") */\n      tag_76\n      jumpi\n      mload(0x40)\n      0x08c379a000000000000000000000000000000000000000000000000000000000\n      dup2\n      mstore\n      0x04\n      add\n      tag_77\n      swap1\n      tag_78\n      jump\t// in\n    tag_77:\n      mload(0x40)\n      dup1\n      swap2\n      sub\n      swap1\n      revert\n    tag_76:\n        /* \"Contract_Conqueror_Series/ERC20standards.sol\":3333:3339  amount */\n      dup2\n        /* \"Contract_Conqueror_Series/ERC20standards.sol\":3300:3311  _allowances */\n      0x06\n        /* \"Contract_Conqueror_Series/ERC20standards.sol\":3300:3317  _allowances[from] */\n      0x00\n        /* \"Contract_Conqueror_Series/ERC20standards.sol\":3312:3316  from */\n      dup7\n        /* \"Contract_Conqueror_Series/ERC20standards.sol\":3300:3317  _allowances[from] */\n      0xffffffffffffffffffffffffffffffffffffffff\n      and\n      0xffffffffffffffffffffffffffffffffffffffff\n      and\n      dup2\n      mstore\n      0x20\n      add\n      swap1\n      dup2\n      mstore\n      0x20\n      add\n      0x00\n      keccak256\n        /* \"Contract_Conqueror_Series/ERC20standards.sol\":3300:3329  _allowances[from][msg.sender] */\n      0x00\n        /* \"Contract_Conqueror_Series/ERC20standards.sol\":3318:3328  msg.sender */\n      caller\n        /* \"Contract_Conqueror_Series/ERC20standards.sol\":3300:3329  _allowances[from][msg.sender] */\n      0xffffffffffffffffffffffffffffffffffffffff\n      and\n      0xffffffffffffffffffffffffffffffffffffffff\n      and\n      dup2\n      mstore\n      0x20\n      add\n      swap1\n      dup2\n      mstore\n      0x20\n      add\n      0x00\n      keccak256\n      0x00\n        /* \"Contract_Conqueror_Series/ERC20standards.sol\":3300:3339  _allowances[from][msg.sender] -= amount */\n      dup3\n      dup3\n      sload\n      tag_79\n      swap2\n      swap1\n      tag_80\n      jump\t// in\n    tag_79:\n      swap3\n      pop\n      pop\n      dup2\n      swap1\n      sstore\n      pop\n        /* \"Contract_Conqueror_Series/ERC20standards.sol\":3350:3377  _transfer(from, to, amount) */\n      tag_81\n        /* \"Contract_Conqueror_Series/ERC20standards.sol\":3360:3364  from */\n      dup5\n        /* \"Contract_Conqueror_Series/ERC20standards.sol\":3366:3368  to */\n      dup5\n        /* \"Contract_Conqueror_Series/ERC20standards.sol\":3370:3376  amount */\n      dup5\n        /* \"Contract_Conqueror_Series/ERC20standards.sol\":3350:3359  _transfer */\n      tag_82\n        /* \"Contract_Conqueror_Series/ERC20standards.sol\":3350:3377  _transfer(from, to, amount) */\n      jump\t// in\n    tag_81:\n        /* \"Contract_Conqueror_Series/ERC20standards.sol\":3397:3401  true */\n      0x01\n        /* \"Contract_Conqueror_Series/ERC20standards.sol\":3390:3401  return true */\n      swap1\n      pop\n        /* \"Contract_Conqueror_Series/ERC20standards.sol\":3107:3409  function transferFrom(address from, address to, uint256 amount) external returns (bool) {... */\n      swap4\n      swap3\n      pop\n      pop\n      pop\n      jump\t// out\n        /* \"Contract_Conqueror_Series/ERC20standards.sol\":208:234  uint8 public decimals = 18 */\n    tag_32:\n      0x02\n      0x00\n      swap1\n      sload\n      swap1\n      0x0100\n      exp\n      swap1\n      div\n      0xff\n      and\n      dup2\n      jump\t// out\n        /* \"Contract_Conqueror_Series/ERC20standards.sol\":2507:2629  function mint(address to, uint256 amount) external onlyowner{... */\n    tag_37:\n        /* \"Contract_Conqueror_Series/ERC20standards.sol\":764:769  owner */\n      0x04\n      0x00\n      swap1\n      sload\n      swap1\n      0x0100\n      exp\n      swap1\n      div\n      0xffffffffffffffffffffffffffffffffffffffff\n      and\n        /* \"Contract_Conqueror_Series/ERC20standards.sol\":750:769  msg.sender == owner */\n      0xffffffffffffffffffffffffffffffffffffffff\n      and\n        /* \"Contract_Conqueror_Series/ERC20standards.sol\":750:760  msg.sender */\n      caller\n        /* \"Contract_Conqueror_Series/ERC20standards.sol\":750:769  msg.sender == owner */\n      0xffffffffffffffffffffffffffffffffffffffff\n      and\n      eq\n        /* \"Contract_Conqueror_Series/ERC20standards.sol\":742:791  require(msg.sender == owner,\"Not contract Owner\") */\n      tag_84\n      jumpi\n      mload(0x40)\n      0x08c379a000000000000000000000000000000000000000000000000000000000\n      dup2\n      mstore\n      0x04\n      add\n      tag_85\n      swap1\n      tag_86\n      jump\t// in\n    tag_85:\n      mload(0x40)\n      dup1\n      swap2\n      sub\n      swap1\n      revert\n    tag_84:\n        /* \"Contract_Conqueror_Series/ERC20standards.sol\":2578:2621  _mint(to, amount*(10 ** uint256(decimals))) */\n      tag_88\n        /* \"Contract_Conqueror_Series/ERC20standards.sol\":2584:2586  to */\n      dup3\n        /* \"Contract_Conqueror_Series/ERC20standards.sol\":2610:2618  decimals */\n      0x02\n      0x00\n      swap1\n      sload\n      swap1\n      0x0100\n      exp\n      swap1\n      div\n      0xff\n      and\n        /* \"Contract_Conqueror_Series/ERC20standards.sol\":2602:2619  uint256(decimals) */\n      0xff\n      and\n        /* \"Contract_Conqueror_Series/ERC20standards.sol\":2596:2598  10 */\n      0x0a\n        /* \"Contract_Conqueror_Series/ERC20standards.sol\":2596:2619  10 ** uint256(decimals) */\n      tag_89\n      swap2\n      swap1\n      tag_90\n      jump\t// in\n    tag_89:\n        /* \"Contract_Conqueror_Series/ERC20standards.sol\":2588:2594  amount */\n      dup4\n        /* \"Contract_Conqueror_Series/ERC20standards.sol\":2588:2620  amount*(10 ** uint256(decimals)) */\n      tag_91\n      swap2\n      swap1\n      tag_92\n      jump\t// in\n    tag_91:\n        /* \"Contract_Conqueror_Series/ERC20standards.sol\":2578:2583  _mint */\n      tag_93\n        /* \"Contract_Conqueror_Series/ERC20standards.sol\":2578:2621  _mint(to, amount*(10 ** uint256(decimals))) */\n      jump\t// in\n    tag_88:\n        /* \"Contract_Conqueror_Series/ERC20standards.sol\":2507:2629  function mint(address to, uint256 amount) external onlyowner{... */\n      pop\n      pop\n      jump\t// out\n        /* \"Contract_Conqueror_Series/ERC20standards.sol\":342:368  bool public paused = false */\n    tag_39:\n      0x04\n      0x14\n      swap1\n      sload\n      swap1\n      0x0100\n      exp\n      swap1\n      div\n      0xff\n      and\n      dup2\n      jump\t// out\n        /* \"Contract_Conqueror_Series/ERC20standards.sol\":1978:2090  function balanceOf(address account) external view returns (uint256) {... */\n    tag_44:\n        /* \"Contract_Conqueror_Series/ERC20standards.sol\":2037:2044  uint256 */\n      0x00\n        /* \"Contract_Conqueror_Series/ERC20standards.sol\":2064:2073  _balances */\n      0x05\n        /* \"Contract_Conqueror_Series/ERC20standards.sol\":2064:2082  _balances[account] */\n      0x00\n        /* \"Contract_Conqueror_Series/ERC20standards.sol\":2074:2081  account */\n      dup4\n        /* \"Contract_Conqueror_Series/ERC20standards.sol\":2064:2082  _balances[account] */\n      0xffffffffffffffffffffffffffffffffffffffff\n      and\n      0xffffffffffffffffffffffffffffffffffffffff\n      and\n      dup2\n      mstore\n      0x20\n      add\n      swap1\n      dup2\n      mstore\n      0x20\n      add\n      0x00\n      keccak256\n      sload\n        /* \"Contract_Conqueror_Series/ERC20standards.sol\":2057:2082  return _balances[account] */\n      swap1\n      pop\n        /* \"Contract_Conqueror_Series/ERC20standards.sol\":1978:2090  function balanceOf(address account) external view returns (uint256) {... */\n      swap2\n      swap1\n      pop\n      jump\t// out\n        /* \"Contract_Conqueror_Series/ERC20standards.sol\":3921:4014  function totalsupply() external view returns (uint256) {... */\n    tag_48:\n        /* \"Contract_Conqueror_Series/ERC20standards.sol\":3967:3974  uint256 */\n      0x00\n        /* \"Contract_Conqueror_Series/ERC20standards.sol\":3994:4006  _totalsupply */\n      sload(0x03)\n        /* \"Contract_Conqueror_Series/ERC20standards.sol\":3987:4006  return _totalsupply */\n      swap1\n      pop\n        /* \"Contract_Conqueror_Series/ERC20standards.sol\":3921:4014  function totalsupply() external view returns (uint256) {... */\n      swap1\n      jump\t// out\n        /* \"Contract_Conqueror_Series/ERC20standards.sol\":315:335  address public owner */\n    tag_51:\n      0x04\n      0x00\n      swap1\n      sload\n      swap1\n      0x0100\n      exp\n      swap1\n      div\n      0xffffffffffffffffffffffffffffffffffffffff\n      and\n      dup2\n      jump\t// out\n        /* \"Contract_Conqueror_Series/ERC20standards.sol\":181:201  string public symbol */\n    tag_55:\n      0x01\n      dup1\n      sload\n      tag_96\n      swap1\n      tag_67\n      jump\t// in\n    tag_96:\n      dup1\n      0x1f\n      add\n      0x20\n      dup1\n      swap2\n      div\n      mul\n      0x20\n      add\n      mload(0x40)\n      swap1\n      dup2\n      add\n      0x40\n      mstore\n      dup1\n      swap3\n      swap2\n      swap1\n      dup2\n      dup2\n      mstore\n      0x20\n      add\n      dup3\n      dup1\n      sload\n      tag_97\n      swap1\n      tag_67\n      jump\t// in\n    tag_97:\n      dup1\n      iszero\n      tag_98\n      jumpi\n      dup1\n      0x1f\n      lt\n      tag_99\n      jumpi\n      0x0100\n      dup1\n      dup4\n      sload\n      div\n      mul\n      dup4\n      mstore\n      swap2\n      0x20\n      add\n      swap2\n      jump(tag_98)\n    tag_99:\n      dup3\n      add\n      swap2\n      swap1\n      0x00\n      mstore\n      keccak256(0x00, 0x20)\n      swap1\n    tag_100:\n      dup2\n      sload\n      dup2\n      mstore\n      swap1\n      0x01\n      add\n      swap1\n      0x20\n      add\n      dup1\n      dup4\n      gt\n      tag_100\n      jumpi\n      dup3\n      swap1\n      sub\n      0x1f\n      and\n      dup3\n      add\n      swap2\n    tag_98:\n      pop\n      pop\n      pop\n      pop\n      pop\n      dup2\n      jump\t// out\n        /* \"Contract_Conqueror_Series/ERC20standards.sol\":1771:1915  function transfer(address to, uint256 amount) external returns (bool) {... */\n    tag_59:\n        /* \"Contract_Conqueror_Series/ERC20standards.sol\":1835:1839  bool */\n      0x00\n        /* \"Contract_Conqueror_Series/ERC20standards.sol\":1852:1885  _transfer(msg.sender, to, amount) */\n      tag_102\n        /* \"Contract_Conqueror_Series/ERC20standards.sol\":1862:1872  msg.sender */\n      caller\n        /* \"Contract_Conqueror_Series/ERC20standards.sol\":1874:1876  to */\n      dup5\n        /* \"Contract_Conqueror_Series/ERC20standards.sol\":1878:1884  amount */\n      dup5\n        /* \"Contract_Conqueror_Series/ERC20standards.sol\":1852:1861  _transfer */\n      tag_82\n        /* \"Contract_Conqueror_Series/ERC20standards.sol\":1852:1885  _transfer(msg.sender, to, amount) */\n      jump\t// in\n    tag_102:\n        /* \"Contract_Conqueror_Series/ERC20standards.sol\":1903:1907  true */\n      0x01\n        /* \"Contract_Conqueror_Series/ERC20standards.sol\":1896:1907  return true */\n      swap1\n      pop\n        /* \"Contract_Conqueror_Series/ERC20standards.sol\":1771:1915  function transfer(address to, uint256 amount) external returns (bool) {... */\n      swap3\n      swap2\n      pop\n      pop\n      jump\t// out\n        /* \"Contract_Conqueror_Series/ERC20standards.sol\":3694:3840  function allowance(address tokenOwner, address spender) external view returns (uint256) {... */\n    tag_64:\n        /* \"Contract_Conqueror_Series/ERC20standards.sol\":3773:3780  uint256 */\n      0x00\n        /* \"Contract_Conqueror_Series/ERC20standards.sol\":3800:3811  _allowances */\n      0x06\n        /* \"Contract_Conqueror_Series/ERC20standards.sol\":3800:3823  _allowances[tokenOwner] */\n      0x00\n        /* \"Contract_Conqueror_Series/ERC20standards.sol\":3812:3822  tokenOwner */\n      dup5\n        /* \"Contract_Conqueror_Series/ERC20standards.sol\":3800:3823  _allowances[tokenOwner] */\n      0xffffffffffffffffffffffffffffffffffffffff\n      and\n      0xffffffffffffffffffffffffffffffffffffffff\n      and\n      dup2\n      mstore\n      0x20\n      add\n      swap1\n      dup2\n      mstore\n      0x20\n      add\n      0x00\n      keccak256\n        /* \"Contract_Conqueror_Series/ERC20standards.sol\":3800:3832  _allowances[tokenOwner][spender] */\n      0x00\n        /* \"Contract_Conqueror_Series/ERC20standards.sol\":3824:3831  spender */\n      dup4\n        /* \"Contract_Conqueror_Series/ERC20standards.sol\":3800:3832  _allowances[tokenOwner][spender] */\n      0xffffffffffffffffffffffffffffffffffffffff\n      and\n      0xffffffffffffffffffffffffffffffffffffffff\n      and\n      dup2\n      mstore\n      0x20\n      add\n      swap1\n      dup2\n      mstore\n      0x20\n      add\n      0x00\n      keccak256\n      sload\n        /* \"Contract_Conqueror_Series/ERC20standards.sol\":3793:3832  return _allowances[tokenOwner][spender] */\n      swap1\n      pop\n        /* \"Contract_Conqueror_Series/ERC20standards.sol\":3694:3840  function allowance(address tokenOwner, address spender) external view returns (uint256) {... */\n      swap3\n      swap2\n      pop\n      pop\n      jump\t// out\n        /* \"Contract_Conqueror_Series/ERC20standards.sol\":4947:5276  function _approve(address tokenOwner, address spender, uint256 amount) internal{... */\n    tag_74:\n        /* \"Contract_Conqueror_Series/ERC20standards.sol\":5067:5068  0 */\n      0x00\n        /* \"Contract_Conqueror_Series/ERC20standards.sol\":5045:5069  tokenOwner != address(0) */\n      0xffffffffffffffffffffffffffffffffffffffff\n      and\n        /* \"Contract_Conqueror_Series/ERC20standards.sol\":5045:5055  tokenOwner */\n      dup4\n        /* \"Contract_Conqueror_Series/ERC20standards.sol\":5045:5069  tokenOwner != address(0) */\n      0xffffffffffffffffffffffffffffffffffffffff\n      and\n      sub\n        /* \"Contract_Conqueror_Series/ERC20standards.sol\":5037:5097  require(tokenOwner != address(0), \"ERC20: approve from 0x0\") */\n      tag_105\n      jumpi\n      mload(0x40)\n      0x08c379a000000000000000000000000000000000000000000000000000000000\n      dup2\n      mstore\n      0x04\n      add\n      tag_106\n      swap1\n      tag_107\n      jump\t// in\n    tag_106:\n      mload(0x40)\n      dup1\n      swap2\n      sub\n      swap1\n      revert\n    tag_105:\n        /* \"Contract_Conqueror_Series/ERC20standards.sol\":5135:5136  0 */\n      0x00\n        /* \"Contract_Conqueror_Series/ERC20standards.sol\":5116:5137  spender != address(0) */\n      0xffffffffffffffffffffffffffffffffffffffff\n      and\n        /* \"Contract_Conqueror_Series/ERC20standards.sol\":5116:5123  spender */\n      dup3\n        /* \"Contract_Conqueror_Series/ERC20standards.sol\":5116:5137  spender != address(0) */\n      0xffffffffffffffffffffffffffffffffffffffff\n      and\n      sub\n        /* \"Contract_Conqueror_Series/ERC20standards.sol\":5108:5163  require(spender != address(0), \"ERC20: approve to 0x0\") */\n      tag_108\n      jumpi\n      mload(0x40)\n      0x08c379a000000000000000000000000000000000000000000000000000000000\n      dup2\n      mstore\n      0x04\n      add\n      tag_109\n      swap1\n      tag_110\n      jump\t// in\n    tag_109:\n      mload(0x40)\n      dup1\n      swap2\n      sub\n      swap1\n      revert\n    tag_108:\n        /* \"Contract_Conqueror_Series/ERC20standards.sol\":5209:5215  amount */\n      dup1\n        /* \"Contract_Conqueror_Series/ERC20standards.sol\":5174:5185  _allowances */\n      0x06\n        /* \"Contract_Conqueror_Series/ERC20standards.sol\":5174:5197  _allowances[tokenOwner] */\n      0x00\n        /* \"Contract_Conqueror_Series/ERC20standards.sol\":5186:5196  tokenOwner */\n      dup6\n        /* \"Contract_Conqueror_Series/ERC20standards.sol\":5174:5197  _allowances[tokenOwner] */\n      0xffffffffffffffffffffffffffffffffffffffff\n      and\n      0xffffffffffffffffffffffffffffffffffffffff\n      and\n      dup2\n      mstore\n      0x20\n      add\n      swap1\n      dup2\n      mstore\n      0x20\n      add\n      0x00\n      keccak256\n        /* \"Contract_Conqueror_Series/ERC20standards.sol\":5174:5206  _allowances[tokenOwner][spender] */\n      0x00\n        /* \"Contract_Conqueror_Series/ERC20standards.sol\":5198:5205  spender */\n      dup5\n        /* \"Contract_Conqueror_Series/ERC20standards.sol\":5174:5206  _allowances[tokenOwner][spender] */\n      0xffffffffffffffffffffffffffffffffffffffff\n      and\n      0xffffffffffffffffffffffffffffffffffffffff\n      and\n      dup2\n      mstore\n      0x20\n      add\n      swap1\n      dup2\n      mstore\n      0x20\n      add\n      0x00\n      keccak256\n        /* \"Contract_Conqueror_Series/ERC20standards.sol\":5174:5215  _allowances[tokenOwner][spender] = amount */\n      dup2\n      swap1\n      sstore\n      pop\n        /* \"Contract_Conqueror_Series/ERC20standards.sol\":5252:5259  spender */\n      dup2\n        /* \"Contract_Conqueror_Series/ERC20standards.sol\":5231:5268  Approval(tokenOwner, spender, amount) */\n      0xffffffffffffffffffffffffffffffffffffffff\n      and\n        /* \"Contract_Conqueror_Series/ERC20standards.sol\":5240:5250  tokenOwner */\n      dup4\n        /* \"Contract_Conqueror_Series/ERC20standards.sol\":5231:5268  Approval(tokenOwner, spender, amount) */\n      0xffffffffffffffffffffffffffffffffffffffff\n      and\n      0x8c5be1e5ebec7d5bd14f71427d1e84f3dd0314c0f7b2291e5b200ac8c7c3b925\n        /* \"Contract_Conqueror_Series/ERC20standards.sol\":5261:5267  amount */\n      dup4\n        /* \"Contract_Conqueror_Series/ERC20standards.sol\":5231:5268  Approval(tokenOwner, spender, amount) */\n      mload(0x40)\n      tag_111\n      swap2\n      swap1\n      tag_46\n      jump\t// in\n    tag_111:\n      mload(0x40)\n      dup1\n      swap2\n      sub\n      swap1\n      log3\n        /* \"Contract_Conqueror_Series/ERC20standards.sol\":4947:5276  function _approve(address tokenOwner, address spender, uint256 amount) internal{... */\n      pop\n      pop\n      pop\n      jump\t// out\n        /* \"Contract_Conqueror_Series/ERC20standards.sol\":4503:4901  function _transfer(address from, address to, uint256 amount) internal {... */\n    tag_82:\n        /* \"Contract_Conqueror_Series/ERC20standards.sol\":4608:4609  0 */\n      0x00\n        /* \"Contract_Conqueror_Series/ERC20standards.sol\":4592:4610  from != address(0) */\n      0xffffffffffffffffffffffffffffffffffffffff\n      and\n        /* \"Contract_Conqueror_Series/ERC20standards.sol\":4592:4596  from */\n      dup4\n        /* \"Contract_Conqueror_Series/ERC20standards.sol\":4592:4610  from != address(0) */\n      0xffffffffffffffffffffffffffffffffffffffff\n      and\n      sub\n        /* \"Contract_Conqueror_Series/ERC20standards.sol\":4584:4639  require(from != address(0), \"ERC20: transfer from 0x0\") */\n      tag_113\n      jumpi\n      mload(0x40)\n      0x08c379a000000000000000000000000000000000000000000000000000000000\n      dup2\n      mstore\n      0x04\n      add\n      tag_114\n      swap1\n      tag_115\n      jump\t// in\n    tag_114:\n      mload(0x40)\n      dup1\n      swap2\n      sub\n      swap1\n      revert\n    tag_113:\n        /* \"Contract_Conqueror_Series/ERC20standards.sol\":4672:4673  0 */\n      0x00\n        /* \"Contract_Conqueror_Series/ERC20standards.sol\":4658:4674  to != address(0) */\n      0xffffffffffffffffffffffffffffffffffffffff\n      and\n        /* \"Contract_Conqueror_Series/ERC20standards.sol\":4658:4660  to */\n      dup3\n        /* \"Contract_Conqueror_Series/ERC20standards.sol\":4658:4674  to != address(0) */\n      0xffffffffffffffffffffffffffffffffffffffff\n      and\n      sub\n        /* \"Contract_Conqueror_Series/ERC20standards.sol\":4650:4701  require(to != address(0), \"ERC20: transfer to 0x0\") */\n      tag_116\n      jumpi\n      mload(0x40)\n      0x08c379a000000000000000000000000000000000000000000000000000000000\n      dup2\n      mstore\n      0x04\n      add\n      tag_117\n      swap1\n      tag_118\n      jump\t// in\n    tag_117:\n      mload(0x40)\n      dup1\n      swap2\n      sub\n      swap1\n      revert\n    tag_116:\n        /* \"Contract_Conqueror_Series/ERC20standards.sol\":4739:4745  amount */\n      dup1\n        /* \"Contract_Conqueror_Series/ERC20standards.sol\":4720:4729  _balances */\n      0x05\n        /* \"Contract_Conqueror_Series/ERC20standards.sol\":4720:4735  _balances[from] */\n      0x00\n        /* \"Contract_Conqueror_Series/ERC20standards.sol\":4730:4734  from */\n      dup6\n        /* \"Contract_Conqueror_Series/ERC20standards.sol\":4720:4735  _balances[from] */\n      0xffffffffffffffffffffffffffffffffffffffff\n      and\n      0xffffffffffffffffffffffffffffffffffffffff\n      and\n      dup2\n      mstore\n      0x20\n      add\n      swap1\n      dup2\n      mstore\n      0x20\n      add\n      0x00\n      keccak256\n      sload\n        /* \"Contract_Conqueror_Series/ERC20standards.sol\":4720:4745  _balances[from] >= amount */\n      lt\n      iszero\n        /* \"Contract_Conqueror_Series/ERC20standards.sol\":4712:4777  require(_balances[from] >= amount, \"ERC20: insufficient balance\") */\n      tag_119\n      jumpi\n      mload(0x40)\n      0x08c379a000000000000000000000000000000000000000000000000000000000\n      dup2\n      mstore\n      0x04\n      add\n      tag_120\n      swap1\n      tag_121\n      jump\t// in\n    tag_120:\n      mload(0x40)\n      dup1\n      swap2\n      sub\n      swap1\n      revert\n    tag_119:\n        /* \"Contract_Conqueror_Series/ERC20standards.sol\":4809:4815  amount */\n      dup1\n        /* \"Contract_Conqueror_Series/ERC20standards.sol\":4790:4799  _balances */\n      0x05\n        /* \"Contract_Conqueror_Series/ERC20standards.sol\":4790:4805  _balances[from] */\n      0x00\n        /* \"Contract_Conqueror_Series/ERC20standards.sol\":4800:4804  from */\n      dup6\n        /* \"Contract_Conqueror_Series/ERC20standards.sol\":4790:4805  _balances[from] */\n      0xffffffffffffffffffffffffffffffffffffffff\n      and\n      0xffffffffffffffffffffffffffffffffffffffff\n      and\n      dup2\n      mstore\n      0x20\n      add\n      swap1\n      dup2\n      mstore\n      0x20\n      add\n      0x00\n      keccak256\n      0x00\n        /* \"Contract_Conqueror_Series/ERC20standards.sol\":4790:4815  _balances[from] -= amount */\n      dup3\n      dup3\n      sload\n      tag_122\n      swap2\n      swap1\n      tag_80\n      jump\t// in\n    tag_122:\n      swap3\n      pop\n      pop\n      dup2\n      swap1\n      sstore\n      pop\n        /* \"Contract_Conqueror_Series/ERC20standards.sol\":4843:4849  amount */\n      dup1\n        /* \"Contract_Conqueror_Series/ERC20standards.sol\":4826:4835  _balances */\n      0x05\n        /* \"Contract_Conqueror_Series/ERC20standards.sol\":4826:4839  _balances[to] */\n      0x00\n        /* \"Contract_Conqueror_Series/ERC20standards.sol\":4836:4838  to */\n      dup5\n        /* \"Contract_Conqueror_Series/ERC20standards.sol\":4826:4839  _balances[to] */\n      0xffffffffffffffffffffffffffffffffffffffff\n      and\n      0xffffffffffffffffffffffffffffffffffffffff\n      and\n      dup2\n      mstore\n      0x20\n      add\n      swap1\n      dup2\n      mstore\n      0x20\n      add\n      0x00\n      keccak256\n      0x00\n        /* \"Contract_Conqueror_Series/ERC20standards.sol\":4826:4849  _balances[to] += amount */\n      dup3\n      dup3\n      sload\n      tag_123\n      swap2\n      swap1\n      tag_124\n      jump\t// in\n    tag_123:\n      swap3\n      pop\n      pop\n      dup2\n      swap1\n      sstore\n      pop\n        /* \"Contract_Conqueror_Series/ERC20standards.sol\":4882:4884  to */\n      dup2\n        /* \"Contract_Conqueror_Series/ERC20standards.sol\":4867:4893  Transfer(from, to, amount) */\n      0xffffffffffffffffffffffffffffffffffffffff\n      and\n        /* \"Contract_Conqueror_Series/ERC20standards.sol\":4876:4880  from */\n      dup4\n        /* \"Contract_Conqueror_Series/ERC20standards.sol\":4867:4893  Transfer(from, to, amount) */\n      0xffffffffffffffffffffffffffffffffffffffff\n      and\n      0xddf252ad1be2c89b69c2b068fc378daa952ba7f163c4a11628f55a4df523b3ef\n        /* \"Contract_Conqueror_Series/ERC20standards.sol\":4886:4892  amount */\n      dup4\n        /* \"Contract_Conqueror_Series/ERC20standards.sol\":4867:4893  Transfer(from, to, amount) */\n      mload(0x40)\n      tag_125\n      swap2\n      swap1\n      tag_46\n      jump\t// in\n    tag_125:\n      mload(0x40)\n      dup1\n      swap2\n      sub\n      swap1\n      log3\n        /* \"Contract_Conqueror_Series/ERC20standards.sol\":4503:4901  function _transfer(address from, address to, uint256 amount) internal {... */\n      pop\n      pop\n      pop\n      jump\t// out\n        /* \"Contract_Conqueror_Series/ERC20standards.sol\":4189:4418  function _mint(address to, uint256 amount) internal{... */\n    tag_93:\n        /* \"Contract_Conqueror_Series/ERC20standards.sol\":4273:4274  0 */\n      0x00\n        /* \"Contract_Conqueror_Series/ERC20standards.sol\":4259:4275  to != address(0) */\n      0xffffffffffffffffffffffffffffffffffffffff\n      and\n        /* \"Contract_Conqueror_Series/ERC20standards.sol\":4259:4261  to */\n      dup3\n        /* \"Contract_Conqueror_Series/ERC20standards.sol\":4259:4275  to != address(0) */\n      0xffffffffffffffffffffffffffffffffffffffff\n      and\n      sub\n        /* \"Contract_Conqueror_Series/ERC20standards.sol\":4251:4295  require(to != address(0), \"Invalid address\") */\n      tag_127\n      jumpi\n      mload(0x40)\n      0x08c379a000000000000000000000000000000000000000000000000000000000\n      dup2\n      mstore\n      0x04\n      add\n      tag_128\n      swap1\n      tag_129\n      jump\t// in\n    tag_128:\n      mload(0x40)\n      dup1\n      swap2\n      sub\n      swap1\n      revert\n    tag_127:\n        /* \"Contract_Conqueror_Series/ERC20standards.sol\":4322:4328  amount */\n      dup1\n        /* \"Contract_Conqueror_Series/ERC20standards.sol\":4306:4318  _totalsupply */\n      0x03\n      0x00\n        /* \"Contract_Conqueror_Series/ERC20standards.sol\":4306:4328  _totalsupply += amount */\n      dup3\n      dup3\n      sload\n      tag_130\n      swap2\n      swap1\n      tag_124\n      jump\t// in\n    tag_130:\n      swap3\n      pop\n      pop\n      dup2\n      swap1\n      sstore\n      pop\n        /* \"Contract_Conqueror_Series/ERC20standards.sol\":4356:4362  amount */\n      dup1\n        /* \"Contract_Conqueror_Series/ERC20standards.sol\":4339:4348  _balances */\n      0x05\n        /* \"Contract_Conqueror_Series/ERC20standards.sol\":4339:4352  _balances[to] */\n      0x00\n        /* \"Contract_Conqueror_Series/ERC20standards.sol\":4349:4351  to */\n      dup5\n        /* \"Contract_Conqueror_Series/ERC20standards.sol\":4339:4352  _balances[to] */\n      0xffffffffffffffffffffffffffffffffffffffff\n      and\n      0xffffffffffffffffffffffffffffffffffffffff\n      and\n      dup2\n      mstore\n      0x20\n      add\n      swap1\n      dup2\n      mstore\n      0x20\n      add\n      0x00\n      keccak256\n      0x00\n        /* \"Contract_Conqueror_Series/ERC20standards.sol\":4339:4362  _balances[to] += amount */\n      dup3\n      dup3\n      sload\n      tag_131\n      swap2\n      swap1\n      tag_124\n      jump\t// in\n    tag_131:\n      swap3\n      pop\n      pop\n      dup2\n      swap1\n      sstore\n      pop\n        /* \"Contract_Conqueror_Series/ERC20standards.sol\":4399:4401  to */\n      dup2\n        /* \"Contract_Conqueror_Series/ERC20standards.sol\":4378:4410  Transfer(address(0), to, amount) */\n      0xffffffffffffffffffffffffffffffffffffffff\n      and\n        /* \"Contract_Conqueror_Series/ERC20standards.sol\":4395:4396  0 */\n      0x00\n        /* \"Contract_Conqueror_Series/ERC20standards.sol\":4378:4410  Transfer(address(0), to, amount) */\n      0xffffffffffffffffffffffffffffffffffffffff\n      and\n      0xddf252ad1be2c89b69c2b068fc378daa952ba7f163c4a11628f55a4df523b3ef\n        /* \"Contract_Conqueror_Series/ERC20standards.sol\":4403:4409  amount */\n      dup4\n        /* \"Contract_Conqueror_Series/ERC20standards.sol\":4378:4410  Transfer(address(0), to, amount) */\n      mload(0x40)\n      tag_132\n      swap2\n      swap1\n      tag_46\n      jump\t// in\n    tag_132:\n      mload(0x40)\n      dup1\n      swap2\n      sub\n      swap1\n      log3\n        /* \"Contract_Conqueror_Series/ERC20standards.sol\":4189:4418  function _mint(address to, uint256 amount) internal{... */\n      pop\n      pop\n      jump\t// out\n        /* \"#utility.yul\":7:106   */\n    tag_133:\n        /* \"#utility.yul\":59:65   */\n      0x00\n        /* \"#utility.yul\":93:98   */\n      dup2\n        /* \"#utility.yul\":87:99   */\n      mload\n        /* \"#utility.yul\":77:99   */\n      swap1\n      pop\n        /* \"#utility.yul\":7:106   */\n      swap2\n      swap1\n      pop\n      jump\t// out\n        /* \"#utility.yul\":112:281   */\n    tag_134:\n        /* \"#utility.yul\":196:207   */\n      0x00\n        /* \"#utility.yul\":230:236   */\n      dup3\n        /* \"#utility.yul\":225:228   */\n      dup3\n        /* \"#utility.yul\":218:237   */\n      mstore\n        /* \"#utility.yul\":270:274   */\n      0x20\n        /* \"#utility.yul\":265:268   */\n      dup3\n        /* \"#utility.yul\":261:275   */\n      add\n        /* \"#utility.yul\":246:275   */\n      swap1\n      pop\n        /* \"#utility.yul\":112:281   */\n      swap3\n      swap2\n      pop\n      pop\n      jump\t// out\n        /* \"#utility.yul\":287:426   */\n    tag_135:\n        /* \"#utility.yul\":376:382   */\n      dup3\n        /* \"#utility.yul\":371:374   */\n      dup2\n        /* \"#utility.yul\":366:369   */\n      dup4\n        /* \"#utility.yul\":360:383   */\n      mcopy\n        /* \"#utility.yul\":417:418   */\n      0x00\n        /* \"#utility.yul\":408:414   */\n      dup4\n        /* \"#utility.yul\":403:406   */\n      dup4\n        /* \"#utility.yul\":399:415   */\n      add\n        /* \"#utility.yul\":392:419   */\n      mstore\n        /* \"#utility.yul\":287:426   */\n      pop\n      pop\n      pop\n      jump\t// out\n        /* \"#utility.yul\":432:534   */\n    tag_136:\n        /* \"#utility.yul\":473:479   */\n      0x00\n        /* \"#utility.yul\":524:526   */\n      0x1f\n        /* \"#utility.yul\":520:527   */\n      not\n        /* \"#utility.yul\":515:517   */\n      0x1f\n        /* \"#utility.yul\":508:513   */\n      dup4\n        /* \"#utility.yul\":504:518   */\n      add\n        /* \"#utility.yul\":500:528   */\n      and\n        /* \"#utility.yul\":490:528   */\n      swap1\n      pop\n        /* \"#utility.yul\":432:534   */\n      swap2\n      swap1\n      pop\n      jump\t// out\n        /* \"#utility.yul\":540:917   */\n    tag_137:\n        /* \"#utility.yul\":628:631   */\n      0x00\n        /* \"#utility.yul\":656:695   */\n      tag_181\n        /* \"#utility.yul\":689:694   */\n      dup3\n        /* \"#utility.yul\":656:695   */\n      tag_133\n      jump\t// in\n    tag_181:\n        /* \"#utility.yul\":711:782   */\n      tag_182\n        /* \"#utility.yul\":775:781   */\n      dup2\n        /* \"#utility.yul\":770:773   */\n      dup6\n        /* \"#utility.yul\":711:782   */\n      tag_134\n      jump\t// in\n    tag_182:\n        /* \"#utility.yul\":704:782   */\n      swap4\n      pop\n        /* \"#utility.yul\":791:856   */\n      tag_183\n        /* \"#utility.yul\":849:855   */\n      dup2\n        /* \"#utility.yul\":844:847   */\n      dup6\n        /* \"#utility.yul\":837:841   */\n      0x20\n        /* \"#utility.yul\":830:835   */\n      dup7\n        /* \"#utility.yul\":826:842   */\n      add\n        /* \"#utility.yul\":791:856   */\n      tag_135\n      jump\t// in\n    tag_183:\n        /* \"#utility.yul\":881:910   */\n      tag_184\n        /* \"#utility.yul\":903:909   */\n      dup2\n        /* \"#utility.yul\":881:910   */\n      tag_136\n      jump\t// in\n    tag_184:\n        /* \"#utility.yul\":876:879   */\n      dup5\n        /* \"#utility.yul\":872:911   */\n      add\n        /* \"#utility.yul\":865:911   */\n      swap2\n      pop\n        /* \"#utility.yul\":632:917   */\n      pop\n        /* \"#utility.yul\":540:917   */\n      swap3\n      swap2\n      pop\n      pop\n      jump\t// out\n        /* \"#utility.yul\":923:1236   */\n    tag_19:\n        /* \"#utility.yul\":1036:1040   */\n      0x00\n        /* \"#utility.yul\":1074:1076   */\n      0x20\n        /* \"#utility.yul\":1063:1072   */\n      dup3\n        /* \"#utility.yul\":1059:1077   */\n      add\n        /* \"#utility.yul\":1051:1077   */\n      swap1\n      pop\n        /* \"#utility.yul\":1123:1132   */\n      dup2\n        /* \"#utility.yul\":1117:1121   */\n      dup2\n        /* \"#utility.yul\":1113:1133   */\n      sub\n        /* \"#utility.yul\":1109:1110   */\n      0x00\n        /* \"#utility.yul\":1098:1107   */\n      dup4\n        /* \"#utility.yul\":1094:1111   */\n      add\n        /* \"#utility.yul\":1087:1134   */\n      mstore\n        /* \"#utility.yul\":1151:1229   */\n      tag_186\n        /* \"#utility.yul\":1224:1228   */\n      dup2\n        /* \"#utility.yul\":1215:1221   */\n      dup5\n        /* \"#utility.yul\":1151:1229   */\n      tag_137\n      jump\t// in\n    tag_186:\n        /* \"#utility.yul\":1143:1229   */\n      swap1\n      pop\n        /* \"#utility.yul\":923:1236   */\n      swap3\n      swap2\n      pop\n      pop\n      jump\t// out\n        /* \"#utility.yul\":1323:1440   */\n    tag_139:\n        /* \"#utility.yul\":1432:1433   */\n      0x00\n        /* \"#utility.yul\":1429:1430   */\n      0x00\n        /* \"#utility.yul\":1422:1434   */\n      revert\n        /* \"#utility.yul\":1569:1695   */\n    tag_141:\n        /* \"#utility.yul\":1606:1613   */\n      0x00\n        /* \"#utility.yul\":1646:1688   */\n      0xffffffffffffffffffffffffffffffffffffffff\n        /* \"#utility.yul\":1639:1644   */\n      dup3\n        /* \"#utility.yul\":1635:1689   */\n      and\n        /* \"#utility.yul\":1624:1689   */\n      swap1\n      pop\n        /* \"#utility.yul\":1569:1695   */\n      swap2\n      swap1\n      pop\n      jump\t// out\n        /* \"#utility.yul\":1701:1797   */\n    tag_142:\n        /* \"#utility.yul\":1738:1745   */\n      0x00\n        /* \"#utility.yul\":1767:1791   */\n      tag_192\n        /* \"#utility.yul\":1785:1790   */\n      dup3\n        /* \"#utility.yul\":1767:1791   */\n      tag_141\n      jump\t// in\n    tag_192:\n        /* \"#utility.yul\":1756:1791   */\n      swap1\n      pop\n        /* \"#utility.yul\":1701:1797   */\n      swap2\n      swap1\n      pop\n      jump\t// out\n        /* \"#utility.yul\":1803:1925   */\n    tag_143:\n        /* \"#utility.yul\":1876:1900   */\n      tag_194\n        /* \"#utility.yul\":1894:1899   */\n      dup2\n        /* \"#utility.yul\":1876:1900   */\n      tag_142\n      jump\t// in\n    tag_194:\n        /* \"#utility.yul\":1869:1874   */\n      dup2\n        /* \"#utility.yul\":1866:1901   */\n      eq\n        /* \"#utility.yul\":1856:1919   */\n      tag_195\n      jumpi\n        /* \"#utility.yul\":1915:1916   */\n      0x00\n        /* \"#utility.yul\":1912:1913   */\n      0x00\n        /* \"#utility.yul\":1905:1917   */\n      revert\n        /* \"#utility.yul\":1856:1919   */\n    tag_195:\n        /* \"#utility.yul\":1803:1925   */\n      pop\n      jump\t// out\n        /* \"#utility.yul\":1931:2070   */\n    tag_144:\n        /* \"#utility.yul\":1977:1982   */\n      0x00\n        /* \"#utility.yul\":2015:2021   */\n      dup2\n        /* \"#utility.yul\":2002:2022   */\n      calldataload\n        /* \"#utility.yul\":1993:2022   */\n      swap1\n      pop\n        /* \"#utility.yul\":2031:2064   */\n      tag_197\n        /* \"#utility.yul\":2058:2063   */\n      dup2\n        /* \"#utility.yul\":2031:2064   */\n      tag_143\n      jump\t// in\n    tag_197:\n        /* \"#utility.yul\":1931:2070   */\n      swap3\n      swap2\n      pop\n      pop\n      jump\t// out\n        /* \"#utility.yul\":2076:2153   */\n    tag_145:\n        /* \"#utility.yul\":2113:2120   */\n      0x00\n        /* \"#utility.yul\":2142:2147   */\n      dup2\n        /* \"#utility.yul\":2131:2147   */\n      swap1\n      pop\n        /* \"#utility.yul\":2076:2153   */\n      swap2\n      swap1\n      pop\n      jump\t// out\n        /* \"#utility.yul\":2159:2281   */\n    tag_146:\n        /* \"#utility.yul\":2232:2256   */\n      tag_200\n        /* \"#utility.yul\":2250:2255   */\n      dup2\n        /* \"#utility.yul\":2232:2256   */\n      tag_145\n      jump\t// in\n    tag_200:\n        /* \"#utility.yul\":2225:2230   */\n      dup2\n        /* \"#utility.yul\":2222:2257   */\n      eq\n        /* \"#utility.yul\":2212:2275   */\n      tag_201\n      jumpi\n        /* \"#utility.yul\":2271:2272   */\n      0x00\n        /* \"#utility.yul\":2268:2269   */\n      0x00\n        /* \"#utility.yul\":2261:2273   */\n      revert\n        /* \"#utility.yul\":2212:2275   */\n    tag_201:\n        /* \"#utility.yul\":2159:2281   */\n      pop\n      jump\t// out\n        /* \"#utility.yul\":2287:2426   */\n    tag_147:\n        /* \"#utility.yul\":2333:2338   */\n      0x00\n        /* \"#utility.yul\":2371:2377   */\n      dup2\n        /* \"#utility.yul\":2358:2378   */\n      calldataload\n        /* \"#utility.yul\":2349:2378   */\n      swap1\n      pop\n        /* \"#utility.yul\":2387:2420   */\n      tag_203\n        /* \"#utility.yul\":2414:2419   */\n      dup2\n        /* \"#utility.yul\":2387:2420   */\n      tag_146\n      jump\t// in\n    tag_203:\n        /* \"#utility.yul\":2287:2426   */\n      swap3\n      swap2\n      pop\n      pop\n      jump\t// out\n        /* \"#utility.yul\":2432:2906   */\n    tag_22:\n        /* \"#utility.yul\":2500:2506   */\n      0x00\n        /* \"#utility.yul\":2508:2514   */\n      0x00\n        /* \"#utility.yul\":2557:2559   */\n      0x40\n        /* \"#utility.yul\":2545:2554   */\n      dup4\n        /* \"#utility.yul\":2536:2543   */\n      dup6\n        /* \"#utility.yul\":2532:2555   */\n      sub\n        /* \"#utility.yul\":2528:2560   */\n      slt\n        /* \"#utility.yul\":2525:2644   */\n      iszero\n      tag_205\n      jumpi\n        /* \"#utility.yul\":2563:2642   */\n      tag_206\n      tag_139\n      jump\t// in\n    tag_206:\n        /* \"#utility.yul\":2525:2644   */\n    tag_205:\n        /* \"#utility.yul\":2683:2684   */\n      0x00\n        /* \"#utility.yul\":2708:2761   */\n      tag_207\n        /* \"#utility.yul\":2753:2760   */\n      dup6\n        /* \"#utility.yul\":2744:2750   */\n      dup3\n        /* \"#utility.yul\":2733:2742   */\n      dup7\n        /* \"#utility.yul\":2729:2751   */\n      add\n        /* \"#utility.yul\":2708:2761   */\n      tag_144\n      jump\t// in\n    tag_207:\n        /* \"#utility.yul\":2698:2761   */\n      swap3\n      pop\n        /* \"#utility.yul\":2654:2771   */\n      pop\n        /* \"#utility.yul\":2810:2812   */\n      0x20\n        /* \"#utility.yul\":2836:2889   */\n      tag_208\n        /* \"#utility.yul\":2881:2888   */\n      dup6\n        /* \"#utility.yul\":2872:2878   */\n      dup3\n        /* \"#utility.yul\":2861:2870   */\n      dup7\n        /* \"#utility.yul\":2857:2879   */\n      add\n        /* \"#utility.yul\":2836:2889   */\n      tag_147\n      jump\t// in\n    tag_208:\n        /* \"#utility.yul\":2826:2889   */\n      swap2\n      pop\n        /* \"#utility.yul\":2781:2899   */\n      pop\n        /* \"#utility.yul\":2432:2906   */\n      swap3\n      pop\n      swap3\n      swap1\n      pop\n      jump\t// out\n        /* \"#utility.yul\":2912:3002   */\n    tag_148:\n        /* \"#utility.yul\":2946:2953   */\n      0x00\n        /* \"#utility.yul\":2989:2994   */\n      dup2\n        /* \"#utility.yul\":2982:2995   */\n      iszero\n        /* \"#utility.yul\":2975:2996   */\n      iszero\n        /* \"#utility.yul\":2964:2996   */\n      swap1\n      pop\n        /* \"#utility.yul\":2912:3002   */\n      swap2\n      swap1\n      pop\n      jump\t// out\n        /* \"#utility.yul\":3008:3117   */\n    tag_149:\n        /* \"#utility.yul\":3089:3110   */\n      tag_211\n        /* \"#utility.yul\":3104:3109   */\n      dup2\n        /* \"#utility.yul\":3089:3110   */\n      tag_148\n      jump\t// in\n    tag_211:\n        /* \"#utility.yul\":3084:3087   */\n      dup3\n        /* \"#utility.yul\":3077:3111   */\n      mstore\n        /* \"#utility.yul\":3008:3117   */\n      pop\n      pop\n      jump\t// out\n        /* \"#utility.yul\":3123:3333   */\n    tag_25:\n        /* \"#utility.yul\":3210:3214   */\n      0x00\n        /* \"#utility.yul\":3248:3250   */\n      0x20\n        /* \"#utility.yul\":3237:3246   */\n      dup3\n        /* \"#utility.yul\":3233:3251   */\n      add\n        /* \"#utility.yul\":3225:3251   */\n      swap1\n      pop\n        /* \"#utility.yul\":3261:3326   */\n      tag_213\n        /* \"#utility.yul\":3323:3324   */\n      0x00\n        /* \"#utility.yul\":3312:3321   */\n      dup4\n        /* \"#utility.yul\":3308:3325   */\n      add\n        /* \"#utility.yul\":3299:3305   */\n      dup5\n        /* \"#utility.yul\":3261:3326   */\n      tag_149\n      jump\t// in\n    tag_213:\n        /* \"#utility.yul\":3123:3333   */\n      swap3\n      swap2\n      pop\n      pop\n      jump\t// out\n        /* \"#utility.yul\":3339:3958   */\n    tag_28:\n        /* \"#utility.yul\":3416:3422   */\n      0x00\n        /* \"#utility.yul\":3424:3430   */\n      0x00\n        /* \"#utility.yul\":3432:3438   */\n      0x00\n        /* \"#utility.yul\":3481:3483   */\n      0x60\n        /* \"#utility.yul\":3469:3478   */\n      dup5\n        /* \"#utility.yul\":3460:3467   */\n      dup7\n        /* \"#utility.yul\":3456:3479   */\n      sub\n        /* \"#utility.yul\":3452:3484   */\n      slt\n        /* \"#utility.yul\":3449:3568   */\n      iszero\n      tag_215\n      jumpi\n        /* \"#utility.yul\":3487:3566   */\n      tag_216\n      tag_139\n      jump\t// in\n    tag_216:\n        /* \"#utility.yul\":3449:3568   */\n    tag_215:\n        /* \"#utility.yul\":3607:3608   */\n      0x00\n        /* \"#utility.yul\":3632:3685   */\n      tag_217\n        /* \"#utility.yul\":3677:3684   */\n      dup7\n        /* \"#utility.yul\":3668:3674   */\n      dup3\n        /* \"#utility.yul\":3657:3666   */\n      dup8\n        /* \"#utility.yul\":3653:3675   */\n      add\n        /* \"#utility.yul\":3632:3685   */\n      tag_144\n      jump\t// in\n    tag_217:\n        /* \"#utility.yul\":3622:3685   */\n      swap4\n      pop\n        /* \"#utility.yul\":3578:3695   */\n      pop\n        /* \"#utility.yul\":3734:3736   */\n      0x20\n        /* \"#utility.yul\":3760:3813   */\n      tag_218\n        /* \"#utility.yul\":3805:3812   */\n      dup7\n        /* \"#utility.yul\":3796:3802   */\n      dup3\n        /* \"#utility.yul\":3785:3794   */\n      dup8\n        /* \"#utility.yul\":3781:3803   */\n      add\n        /* \"#utility.yul\":3760:3813   */\n      tag_144\n      jump\t// in\n    tag_218:\n        /* \"#utility.yul\":3750:3813   */\n      swap3\n      pop\n        /* \"#utility.yul\":3705:3823   */\n      pop\n        /* \"#utility.yul\":3862:3864   */\n      0x40\n        /* \"#utility.yul\":3888:3941   */\n      tag_219\n        /* \"#utility.yul\":3933:3940   */\n      dup7\n        /* \"#utility.yul\":3924:3930   */\n      dup3\n        /* \"#utility.yul\":3913:3922   */\n      dup8\n        /* \"#utility.yul\":3909:3931   */\n      add\n        /* \"#utility.yul\":3888:3941   */\n      tag_147\n      jump\t// in\n    tag_219:\n        /* \"#utility.yul\":3878:3941   */\n      swap2\n      pop\n        /* \"#utility.yul\":3833:3951   */\n      pop\n        /* \"#utility.yul\":3339:3958   */\n      swap3\n      pop\n      swap3\n      pop\n      swap3\n      jump\t// out\n        /* \"#utility.yul\":3964:4050   */\n    tag_150:\n        /* \"#utility.yul\":3999:4006   */\n      0x00\n        /* \"#utility.yul\":4039:4043   */\n      0xff\n        /* \"#utility.yul\":4032:4037   */\n      dup3\n        /* \"#utility.yul\":4028:4044   */\n      and\n        /* \"#utility.yul\":4017:4044   */\n      swap1\n      pop\n        /* \"#utility.yul\":3964:4050   */\n      swap2\n      swap1\n      pop\n      jump\t// out\n        /* \"#utility.yul\":4056:4168   */\n    tag_151:\n        /* \"#utility.yul\":4139:4161   */\n      tag_222\n        /* \"#utility.yul\":4155:4160   */\n      dup2\n        /* \"#utility.yul\":4139:4161   */\n      tag_150\n      jump\t// in\n    tag_222:\n        /* \"#utility.yul\":4134:4137   */\n      dup3\n        /* \"#utility.yul\":4127:4162   */\n      mstore\n        /* \"#utility.yul\":4056:4168   */\n      pop\n      pop\n      jump\t// out\n        /* \"#utility.yul\":4174:4388   */\n    tag_34:\n        /* \"#utility.yul\":4263:4267   */\n      0x00\n        /* \"#utility.yul\":4301:4303   */\n      0x20\n        /* \"#utility.yul\":4290:4299   */\n      dup3\n        /* \"#utility.yul\":4286:4304   */\n      add\n        /* \"#utility.yul\":4278:4304   */\n      swap1\n      pop\n        /* \"#utility.yul\":4314:4381   */\n      tag_224\n        /* \"#utility.yul\":4378:4379   */\n      0x00\n        /* \"#utility.yul\":4367:4376   */\n      dup4\n        /* \"#utility.yul\":4363:4380   */\n      add\n        /* \"#utility.yul\":4354:4360   */\n      dup5\n        /* \"#utility.yul\":4314:4381   */\n      tag_151\n      jump\t// in\n    tag_224:\n        /* \"#utility.yul\":4174:4388   */\n      swap3\n      swap2\n      pop\n      pop\n      jump\t// out\n        /* \"#utility.yul\":4394:4723   */\n    tag_43:\n        /* \"#utility.yul\":4453:4459   */\n      0x00\n        /* \"#utility.yul\":4502:4504   */\n      0x20\n        /* \"#utility.yul\":4490:4499   */\n      dup3\n        /* \"#utility.yul\":4481:4488   */\n      dup5\n        /* \"#utility.yul\":4477:4500   */\n      sub\n        /* \"#utility.yul\":4473:4505   */\n      slt\n        /* \"#utility.yul\":4470:4589   */\n      iszero\n      tag_226\n      jumpi\n        /* \"#utility.yul\":4508:4587   */\n      tag_227\n      tag_139\n      jump\t// in\n    tag_227:\n        /* \"#utility.yul\":4470:4589   */\n    tag_226:\n        /* \"#utility.yul\":4628:4629   */\n      0x00\n        /* \"#utility.yul\":4653:4706   */\n      tag_228\n        /* \"#utility.yul\":4698:4705   */\n      dup5\n        /* \"#utility.yul\":4689:4695   */\n      dup3\n        /* \"#utility.yul\":4678:4687   */\n      dup6\n        /* \"#utility.yul\":4674:4696   */\n      add\n        /* \"#utility.yul\":4653:4706   */\n      tag_144\n      jump\t// in\n    tag_228:\n        /* \"#utility.yul\":4643:4706   */\n      swap2\n      pop\n        /* \"#utility.yul\":4599:4716   */\n      pop\n        /* \"#utility.yul\":4394:4723   */\n      swap3\n      swap2\n      pop\n      pop\n      jump\t// out\n        /* \"#utility.yul\":4729:4847   */\n    tag_152:\n        /* \"#utility.yul\":4816:4840   */\n      tag_230\n        /* \"#utility.yul\":4834:4839   */\n      dup2\n        /* \"#utility.yul\":4816:4840   */\n      tag_145\n      jump\t// in\n    tag_230:\n        /* \"#utility.yul\":4811:4814   */\n      dup3\n        /* \"#utility.yul\":4804:4841   */\n      mstore\n        /* \"#utility.yul\":4729:4847   */\n      pop\n      pop\n      jump\t// out\n        /* \"#utility.yul\":4853:5075   */\n    tag_46:\n        /* \"#utility.yul\":4946:4950   */\n      0x00\n        /* \"#utility.yul\":4984:4986   */\n      0x20\n        /* \"#utility.yul\":4973:4982   */\n      dup3\n        /* \"#utility.yul\":4969:4987   */\n      add\n        /* \"#utility.yul\":4961:4987   */\n      swap1\n      pop\n        /* \"#utility.yul\":4997:5068   */\n      tag_232\n        /* \"#utility.yul\":5065:5066   */\n      0x00\n        /* \"#utility.yul\":5054:5063   */\n      dup4\n        /* \"#utility.yul\":5050:5067   */\n      add\n        /* \"#utility.yul\":5041:5047   */\n      dup5\n        /* \"#utility.yul\":4997:5068   */\n      tag_152\n      jump\t// in\n    tag_232:\n        /* \"#utility.yul\":4853:5075   */\n      swap3\n      swap2\n      pop\n      pop\n      jump\t// out\n        /* \"#utility.yul\":5081:5199   */\n    tag_153:\n        /* \"#utility.yul\":5168:5192   */\n      tag_234\n        /* \"#utility.yul\":5186:5191   */\n      dup2\n        /* \"#utility.yul\":5168:5192   */\n      tag_142\n      jump\t// in\n    tag_234:\n        /* \"#utility.yul\":5163:5166   */\n      dup3\n        /* \"#utility.yul\":5156:5193   */\n      mstore\n        /* \"#utility.yul\":5081:5199   */\n      pop\n      pop\n      jump\t// out\n        /* \"#utility.yul\":5205:5427   */\n    tag_53:\n        /* \"#utility.yul\":5298:5302   */\n      0x00\n        /* \"#utility.yul\":5336:5338   */\n      0x20\n        /* \"#utility.yul\":5325:5334   */\n      dup3\n        /* \"#utility.yul\":5321:5339   */\n      add\n        /* \"#utility.yul\":5313:5339   */\n      swap1\n      pop\n        /* \"#utility.yul\":5349:5420   */\n      tag_236\n        /* \"#utility.yul\":5417:5418   */\n      0x00\n        /* \"#utility.yul\":5406:5415   */\n      dup4\n        /* \"#utility.yul\":5402:5419   */\n      add\n        /* \"#utility.yul\":5393:5399   */\n      dup5\n        /* \"#utility.yul\":5349:5420   */\n      tag_153\n      jump\t// in\n    tag_236:\n        /* \"#utility.yul\":5205:5427   */\n      swap3\n      swap2\n      pop\n      pop\n      jump\t// out\n        /* \"#utility.yul\":5433:5907   */\n    tag_63:\n        /* \"#utility.yul\":5501:5507   */\n      0x00\n        /* \"#utility.yul\":5509:5515   */\n      0x00\n        /* \"#utility.yul\":5558:5560   */\n      0x40\n        /* \"#utility.yul\":5546:5555   */\n      dup4\n        /* \"#utility.yul\":5537:5544   */\n      dup6\n        /* \"#utility.yul\":5533:5556   */\n      sub\n        /* \"#utility.yul\":5529:5561   */\n      slt\n        /* \"#utility.yul\":5526:5645   */\n      iszero\n      tag_238\n      jumpi\n        /* \"#utility.yul\":5564:5643   */\n      tag_239\n      tag_139\n      jump\t// in\n    tag_239:\n        /* \"#utility.yul\":5526:5645   */\n    tag_238:\n        /* \"#utility.yul\":5684:5685   */\n      0x00\n        /* \"#utility.yul\":5709:5762   */\n      tag_240\n        /* \"#utility.yul\":5754:5761   */\n      dup6\n        /* \"#utility.yul\":5745:5751   */\n      dup3\n        /* \"#utility.yul\":5734:5743   */\n      dup7\n        /* \"#utility.yul\":5730:5752   */\n      add\n        /* \"#utility.yul\":5709:5762   */\n      tag_144\n      jump\t// in\n    tag_240:\n        /* \"#utility.yul\":5699:5762   */\n      swap3\n      pop\n        /* \"#utility.yul\":5655:5772   */\n      pop\n        /* \"#utility.yul\":5811:5813   */\n      0x20\n        /* \"#utility.yul\":5837:5890   */\n      tag_241\n        /* \"#utility.yul\":5882:5889   */\n      dup6\n        /* \"#utility.yul\":5873:5879   */\n      dup3\n        /* \"#utility.yul\":5862:5871   */\n      dup7\n        /* \"#utility.yul\":5858:5880   */\n      add\n        /* \"#utility.yul\":5837:5890   */\n      tag_144\n      jump\t// in\n    tag_241:\n        /* \"#utility.yul\":5827:5890   */\n      swap2\n      pop\n        /* \"#utility.yul\":5782:5900   */\n      pop\n        /* \"#utility.yul\":5433:5907   */\n      swap3\n      pop\n      swap3\n      swap1\n      pop\n      jump\t// out\n        /* \"#utility.yul\":5913:6093   */\n    tag_154:\n        /* \"#utility.yul\":5961:6038   */\n      0x4e487b7100000000000000000000000000000000000000000000000000000000\n        /* \"#utility.yul\":5958:5959   */\n      0x00\n        /* \"#utility.yul\":5951:6039   */\n      mstore\n        /* \"#utility.yul\":6058:6062   */\n      0x22\n        /* \"#utility.yul\":6055:6056   */\n      0x04\n        /* \"#utility.yul\":6048:6063   */\n      mstore\n        /* \"#utility.yul\":6082:6086   */\n      0x24\n        /* \"#utility.yul\":6079:6080   */\n      0x00\n        /* \"#utility.yul\":6072:6087   */\n      revert\n        /* \"#utility.yul\":6099:6419   */\n    tag_67:\n        /* \"#utility.yul\":6143:6149   */\n      0x00\n        /* \"#utility.yul\":6180:6181   */\n      0x02\n        /* \"#utility.yul\":6174:6178   */\n      dup3\n        /* \"#utility.yul\":6170:6182   */\n      div\n        /* \"#utility.yul\":6160:6182   */\n      swap1\n      pop\n        /* \"#utility.yul\":6227:6228   */\n      0x01\n        /* \"#utility.yul\":6221:6225   */\n      dup3\n        /* \"#utility.yul\":6217:6229   */\n      and\n        /* \"#utility.yul\":6248:6266   */\n      dup1\n        /* \"#utility.yul\":6238:6319   */\n      tag_244\n      jumpi\n        /* \"#utility.yul\":6304:6308   */\n      0x7f\n        /* \"#utility.yul\":6296:6302   */\n      dup3\n        /* \"#utility.yul\":6292:6309   */\n      and\n        /* \"#utility.yul\":6282:6309   */\n      swap2\n      pop\n        /* \"#utility.yul\":6238:6319   */\n    tag_244:\n        /* \"#utility.yul\":6366:6368   */\n      0x20\n        /* \"#utility.yul\":6358:6364   */\n      dup3\n        /* \"#utility.yul\":6355:6369   */\n      lt\n        /* \"#utility.yul\":6335:6353   */\n      dup2\n        /* \"#utility.yul\":6332:6370   */\n      sub\n        /* \"#utility.yul\":6329:6413   */\n      tag_245\n      jumpi\n        /* \"#utility.yul\":6385:6403   */\n      tag_246\n      tag_154\n      jump\t// in\n    tag_246:\n        /* \"#utility.yul\":6329:6413   */\n    tag_245:\n        /* \"#utility.yul\":6150:6419   */\n      pop\n        /* \"#utility.yul\":6099:6419   */\n      swap2\n      swap1\n      pop\n      jump\t// out\n        /* \"#utility.yul\":6425:6604   */\n    tag_155:\n        /* \"#utility.yul\":6565:6596   */\n      0x45524332303a20696e73756666696369656e7420616c6c6f77616e6365000000\n        /* \"#utility.yul\":6561:6562   */\n      0x00\n        /* \"#utility.yul\":6553:6559   */\n      dup3\n        /* \"#utility.yul\":6549:6563   */\n      add\n        /* \"#utility.yul\":6542:6597   */\n      mstore\n        /* \"#utility.yul\":6425:6604   */\n      pop\n      jump\t// out\n        /* \"#utility.yul\":6610:6976   */\n    tag_156:\n        /* \"#utility.yul\":6752:6755   */\n      0x00\n        /* \"#utility.yul\":6773:6840   */\n      tag_249\n        /* \"#utility.yul\":6837:6839   */\n      0x1d\n        /* \"#utility.yul\":6832:6835   */\n      dup4\n        /* \"#utility.yul\":6773:6840   */\n      tag_134\n      jump\t// in\n    tag_249:\n        /* \"#utility.yul\":6766:6840   */\n      swap2\n      pop\n        /* \"#utility.yul\":6849:6942   */\n      tag_250\n        /* \"#utility.yul\":6938:6941   */\n      dup3\n        /* \"#utility.yul\":6849:6942   */\n      tag_155\n      jump\t// in\n    tag_250:\n        /* \"#utility.yul\":6967:6969   */\n      0x20\n        /* \"#utility.yul\":6962:6965   */\n      dup3\n        /* \"#utility.yul\":6958:6970   */\n      add\n        /* \"#utility.yul\":6951:6970   */\n      swap1\n      pop\n        /* \"#utility.yul\":6610:6976   */\n      swap2\n      swap1\n      pop\n      jump\t// out\n        /* \"#utility.yul\":6982:7401   */\n    tag_78:\n        /* \"#utility.yul\":7148:7152   */\n      0x00\n        /* \"#utility.yul\":7186:7188   */\n      0x20\n        /* \"#utility.yul\":7175:7184   */\n      dup3\n        /* \"#utility.yul\":7171:7189   */\n      add\n        /* \"#utility.yul\":7163:7189   */\n      swap1\n      pop\n        /* \"#utility.yul\":7235:7244   */\n      dup2\n        /* \"#utility.yul\":7229:7233   */\n      dup2\n        /* \"#utility.yul\":7225:7245   */\n      sub\n        /* \"#utility.yul\":7221:7222   */\n      0x00\n        /* \"#utility.yul\":7210:7219   */\n      dup4\n        /* \"#utility.yul\":7206:7223   */\n      add\n        /* \"#utility.yul\":7199:7246   */\n      mstore\n        /* \"#utility.yul\":7263:7394   */\n      tag_252\n        /* \"#utility.yul\":7389:7393   */\n      dup2\n        /* \"#utility.yul\":7263:7394   */\n      tag_156\n      jump\t// in\n    tag_252:\n        /* \"#utility.yul\":7255:7394   */\n      swap1\n      pop\n        /* \"#utility.yul\":6982:7401   */\n      swap2\n      swap1\n      pop\n      jump\t// out\n        /* \"#utility.yul\":7407:7587   */\n    tag_157:\n        /* \"#utility.yul\":7455:7532   */\n      0x4e487b7100000000000000000000000000000000000000000000000000000000\n        /* \"#utility.yul\":7452:7453   */\n      0x00\n        /* \"#utility.yul\":7445:7533   */\n      mstore\n        /* \"#utility.yul\":7552:7556   */\n      0x11\n        /* \"#utility.yul\":7549:7550   */\n      0x04\n        /* \"#utility.yul\":7542:7557   */\n      mstore\n        /* \"#utility.yul\":7576:7580   */\n      0x24\n        /* \"#utility.yul\":7573:7574   */\n      0x00\n        /* \"#utility.yul\":7566:7581   */\n      revert\n        /* \"#utility.yul\":7593:7787   */\n    tag_80:\n        /* \"#utility.yul\":7633:7637   */\n      0x00\n        /* \"#utility.yul\":7653:7673   */\n      tag_255\n        /* \"#utility.yul\":7671:7672   */\n      dup3\n        /* \"#utility.yul\":7653:7673   */\n      tag_145\n      jump\t// in\n    tag_255:\n        /* \"#utility.yul\":7648:7673   */\n      swap2\n      pop\n        /* \"#utility.yul\":7687:7707   */\n      tag_256\n        /* \"#utility.yul\":7705:7706   */\n      dup4\n        /* \"#utility.yul\":7687:7707   */\n      tag_145\n      jump\t// in\n    tag_256:\n        /* \"#utility.yul\":7682:7707   */\n      swap3\n      pop\n        /* \"#utility.yul\":7731:7732   */\n      dup3\n        /* \"#utility.yul\":7728:7729   */\n      dup3\n        /* \"#utility.yul\":7724:7733   */\n      sub\n        /* \"#utility.yul\":7716:7733   */\n      swap1\n      pop\n        /* \"#utility.yul\":7755:7756   */\n      dup2\n        /* \"#utility.yul\":7749:7753   */\n      dup2\n        /* \"#utility.yul\":7746:7757   */\n      gt\n        /* \"#utility.yul\":7743:7780   */\n      iszero\n      tag_257\n      jumpi\n        /* \"#utility.yul\":7760:7778   */\n      tag_258\n      tag_157\n      jump\t// in\n    tag_258:\n        /* \"#utility.yul\":7743:7780   */\n    tag_257:\n        /* \"#utility.yul\":7593:7787   */\n      swap3\n      swap2\n      pop\n      pop\n      jump\t// out\n        /* \"#utility.yul\":7793:7961   */\n    tag_158:\n        /* \"#utility.yul\":7933:7953   */\n      0x4e6f7420636f6e7472616374204f776e65720000000000000000000000000000\n        /* \"#utility.yul\":7929:7930   */\n      0x00\n        /* \"#utility.yul\":7921:7927   */\n      dup3\n        /* \"#utility.yul\":7917:7931   */\n      add\n        /* \"#utility.yul\":7910:7954   */\n      mstore\n        /* \"#utility.yul\":7793:7961   */\n      pop\n      jump\t// out\n        /* \"#utility.yul\":7967:8333   */\n    tag_159:\n        /* \"#utility.yul\":8109:8112   */\n      0x00\n        /* \"#utility.yul\":8130:8197   */\n      tag_261\n        /* \"#utility.yul\":8194:8196   */\n      0x12\n        /* \"#utility.yul\":8189:8192   */\n      dup4\n        /* \"#utility.yul\":8130:8197   */\n      tag_134\n      jump\t// in\n    tag_261:\n        /* \"#utility.yul\":8123:8197   */\n      swap2\n      pop\n        /* \"#utility.yul\":8206:8299   */\n      tag_262\n        /* \"#utility.yul\":8295:8298   */\n      dup3\n        /* \"#utility.yul\":8206:8299   */\n      tag_158\n      jump\t// in\n    tag_262:\n        /* \"#utility.yul\":8324:8326   */\n      0x20\n        /* \"#utility.yul\":8319:8322   */\n      dup3\n        /* \"#utility.yul\":8315:8327   */\n      add\n        /* \"#utility.yul\":8308:8327   */\n      swap1\n      pop\n        /* \"#utility.yul\":7967:8333   */\n      swap2\n      swap1\n      pop\n      jump\t// out\n        /* \"#utility.yul\":8339:8758   */\n    tag_86:\n        /* \"#utility.yul\":8505:8509   */\n      0x00\n        /* \"#utility.yul\":8543:8545   */\n      0x20\n        /* \"#utility.yul\":8532:8541   */\n      dup3\n        /* \"#utility.yul\":8528:8546   */\n      add\n        /* \"#utility.yul\":8520:8546   */\n      swap1\n      pop\n        /* \"#utility.yul\":8592:8601   */\n      dup2\n        /* \"#utility.yul\":8586:8590   */\n      dup2\n        /* \"#utility.yul\":8582:8602   */\n      sub\n        /* \"#utility.yul\":8578:8579   */\n      0x00\n        /* \"#utility.yul\":8567:8576   */\n      dup4\n        /* \"#utility.yul\":8563:8580   */\n      add\n        /* \"#utility.yul\":8556:8603   */\n      mstore\n        /* \"#utility.yul\":8620:8751   */\n      tag_264\n        /* \"#utility.yul\":8746:8750   */\n      dup2\n        /* \"#utility.yul\":8620:8751   */\n      tag_159\n      jump\t// in\n    tag_264:\n        /* \"#utility.yul\":8612:8751   */\n      swap1\n      pop\n        /* \"#utility.yul\":8339:8758   */\n      swap2\n      swap1\n      pop\n      jump\t// out\n        /* \"#utility.yul\":8764:8866   */\n    tag_160:\n        /* \"#utility.yul\":8806:8814   */\n      0x00\n        /* \"#utility.yul\":8853:8858   */\n      dup2\n        /* \"#utility.yul\":8850:8851   */\n      0x01\n        /* \"#utility.yul\":8846:8859   */\n      shr\n        /* \"#utility.yul\":8825:8859   */\n      swap1\n      pop\n        /* \"#utility.yul\":8764:8866   */\n      swap2\n      swap1\n      pop\n      jump\t// out\n        /* \"#utility.yul\":8872:9720   */\n    tag_161:\n        /* \"#utility.yul\":8933:8938   */\n      0x00\n        /* \"#utility.yul\":8940:8944   */\n      0x00\n        /* \"#utility.yul\":8964:8970   */\n      dup3\n        /* \"#utility.yul\":8955:8970   */\n      swap2\n      pop\n        /* \"#utility.yul\":8988:8993   */\n      dup4\n        /* \"#utility.yul\":8979:8993   */\n      swap1\n      pop\n        /* \"#utility.yul\":9002:9714   */\n    tag_267:\n        /* \"#utility.yul\":9023:9024   */\n      0x01\n        /* \"#utility.yul\":9013:9021   */\n      dup6\n        /* \"#utility.yul\":9010:9025   */\n      gt\n        /* \"#utility.yul\":9002:9714   */\n      iszero\n      tag_269\n      jumpi\n        /* \"#utility.yul\":9118:9122   */\n      dup1\n        /* \"#utility.yul\":9113:9116   */\n      dup7\n        /* \"#utility.yul\":9109:9123   */\n      div\n        /* \"#utility.yul\":9103:9107   */\n      dup2\n        /* \"#utility.yul\":9100:9124   */\n      gt\n        /* \"#utility.yul\":9097:9147   */\n      iszero\n      tag_270\n      jumpi\n        /* \"#utility.yul\":9127:9145   */\n      tag_271\n      tag_157\n      jump\t// in\n    tag_271:\n        /* \"#utility.yul\":9097:9147   */\n    tag_270:\n        /* \"#utility.yul\":9177:9178   */\n      0x01\n        /* \"#utility.yul\":9167:9175   */\n      dup6\n        /* \"#utility.yul\":9163:9179   */\n      and\n        /* \"#utility.yul\":9160:9611   */\n      iszero\n      tag_272\n      jumpi\n        /* \"#utility.yul\":9592:9596   */\n      dup1\n        /* \"#utility.yul\":9585:9590   */\n      dup3\n        /* \"#utility.yul\":9581:9597   */\n      mul\n        /* \"#utility.yul\":9572:9597   */\n      swap2\n      pop\n        /* \"#utility.yul\":9160:9611   */\n    tag_272:\n        /* \"#utility.yul\":9642:9646   */\n      dup1\n        /* \"#utility.yul\":9636:9640   */\n      dup2\n        /* \"#utility.yul\":9632:9647   */\n      mul\n        /* \"#utility.yul\":9624:9647   */\n      swap1\n      pop\n        /* \"#utility.yul\":9672:9704   */\n      tag_273\n        /* \"#utility.yul\":9695:9703   */\n      dup6\n        /* \"#utility.yul\":9672:9704   */\n      tag_160\n      jump\t// in\n    tag_273:\n        /* \"#utility.yul\":9660:9704   */\n      swap5\n      pop\n        /* \"#utility.yul\":9002:9714   */\n      jump(tag_267)\n    tag_269:\n        /* \"#utility.yul\":8872:9720   */\n      swap5\n      pop\n      swap5\n      swap3\n      pop\n      pop\n      pop\n      jump\t// out\n        /* \"#utility.yul\":9726:10799   */\n    tag_162:\n        /* \"#utility.yul\":9780:9785   */\n      0x00\n        /* \"#utility.yul\":9971:9979   */\n      dup3\n        /* \"#utility.yul\":9961:10001   */\n      tag_275\n      jumpi\n        /* \"#utility.yul\":9992:9993   */\n      0x01\n        /* \"#utility.yul\":9983:9993   */\n      swap1\n      pop\n        /* \"#utility.yul\":9994:9999   */\n      jump(tag_274)\n        /* \"#utility.yul\":9961:10001   */\n    tag_275:\n        /* \"#utility.yul\":10020:10024   */\n      dup2\n        /* \"#utility.yul\":10010:10046   */\n      tag_276\n      jumpi\n        /* \"#utility.yul\":10037:10038   */\n      0x00\n        /* \"#utility.yul\":10028:10038   */\n      swap1\n      pop\n        /* \"#utility.yul\":10039:10044   */\n      jump(tag_274)\n        /* \"#utility.yul\":10010:10046   */\n    tag_276:\n        /* \"#utility.yul\":10106:10110   */\n      dup2\n        /* \"#utility.yul\":10154:10155   */\n      0x01\n        /* \"#utility.yul\":10149:10176   */\n      dup2\n      eq\n      tag_278\n      jumpi\n        /* \"#utility.yul\":10190:10191   */\n      0x02\n        /* \"#utility.yul\":10185:10376   */\n      dup2\n      eq\n      tag_279\n      jumpi\n        /* \"#utility.yul\":10099:10376   */\n      jump(tag_277)\n        /* \"#utility.yul\":10149:10176   */\n    tag_278:\n        /* \"#utility.yul\":10167:10168   */\n      0x01\n        /* \"#utility.yul\":10158:10168   */\n      swap2\n      pop\n        /* \"#utility.yul\":10169:10174   */\n      pop\n      jump(tag_274)\n        /* \"#utility.yul\":10185:10376   */\n    tag_279:\n        /* \"#utility.yul\":10230:10233   */\n      0xff\n        /* \"#utility.yul\":10220:10228   */\n      dup5\n        /* \"#utility.yul\":10217:10234   */\n      gt\n        /* \"#utility.yul\":10214:10257   */\n      iszero\n      tag_280\n      jumpi\n        /* \"#utility.yul\":10237:10255   */\n      tag_281\n      tag_157\n      jump\t// in\n    tag_281:\n        /* \"#utility.yul\":10214:10257   */\n    tag_280:\n        /* \"#utility.yul\":10286:10294   */\n      dup4\n        /* \"#utility.yul\":10283:10284   */\n      0x02\n        /* \"#utility.yul\":10279:10295   */\n      exp\n        /* \"#utility.yul\":10270:10295   */\n      swap2\n      pop\n        /* \"#utility.yul\":10321:10324   */\n      dup5\n        /* \"#utility.yul\":10314:10319   */\n      dup3\n        /* \"#utility.yul\":10311:10325   */\n      gt\n        /* \"#utility.yul\":10308:10348   */\n      iszero\n      tag_282\n      jumpi\n        /* \"#utility.yul\":10328:10346   */\n      tag_283\n      tag_157\n      jump\t// in\n    tag_283:\n        /* \"#utility.yul\":10308:10348   */\n    tag_282:\n        /* \"#utility.yul\":10361:10366   */\n      pop\n      jump(tag_274)\n        /* \"#utility.yul\":10099:10376   */\n    tag_277:\n      pop\n        /* \"#utility.yul\":10485:10487   */\n      0x20\n        /* \"#utility.yul\":10475:10483   */\n      dup4\n        /* \"#utility.yul\":10472:10488   */\n      lt\n        /* \"#utility.yul\":10466:10469   */\n      0x0133\n        /* \"#utility.yul\":10460:10464   */\n      dup4\n        /* \"#utility.yul\":10457:10470   */\n      lt\n        /* \"#utility.yul\":10453:10489   */\n      and\n        /* \"#utility.yul\":10435:10437   */\n      0x4e\n        /* \"#utility.yul\":10425:10433   */\n      dup5\n        /* \"#utility.yul\":10422:10438   */\n      lt\n        /* \"#utility.yul\":10417:10419   */\n      0x0b\n        /* \"#utility.yul\":10411:10415   */\n      dup5\n        /* \"#utility.yul\":10408:10420   */\n      lt\n        /* \"#utility.yul\":10404:10439   */\n      and\n        /* \"#utility.yul\":10388:10499   */\n      or\n        /* \"#utility.yul\":10385:10631   */\n      iszero\n      tag_284\n      jumpi\n        /* \"#utility.yul\":10541:10549   */\n      dup3\n        /* \"#utility.yul\":10535:10539   */\n      dup3\n        /* \"#utility.yul\":10531:10550   */\n      exp\n        /* \"#utility.yul\":10522:10550   */\n      swap1\n      pop\n        /* \"#utility.yul\":10576:10579   */\n      dup4\n        /* \"#utility.yul\":10569:10574   */\n      dup2\n        /* \"#utility.yul\":10566:10580   */\n      gt\n        /* \"#utility.yul\":10563:10603   */\n      iszero\n      tag_285\n      jumpi\n        /* \"#utility.yul\":10583:10601   */\n      tag_286\n      tag_157\n      jump\t// in\n    tag_286:\n        /* \"#utility.yul\":10563:10603   */\n    tag_285:\n        /* \"#utility.yul\":10616:10621   */\n      jump(tag_274)\n        /* \"#utility.yul\":10385:10631   */\n    tag_284:\n        /* \"#utility.yul\":10656:10698   */\n      tag_287\n        /* \"#utility.yul\":10694:10697   */\n      dup5\n        /* \"#utility.yul\":10684:10692   */\n      dup5\n        /* \"#utility.yul\":10678:10682   */\n      dup5\n        /* \"#utility.yul\":10675:10676   */\n      0x01\n        /* \"#utility.yul\":10656:10698   */\n      tag_161\n      jump\t// in\n    tag_287:\n        /* \"#utility.yul\":10641:10698   */\n      swap3\n      pop\n      swap1\n      pop\n        /* \"#utility.yul\":10730:10734   */\n      dup2\n        /* \"#utility.yul\":10725:10728   */\n      dup5\n        /* \"#utility.yul\":10721:10735   */\n      div\n        /* \"#utility.yul\":10714:10719   */\n      dup2\n        /* \"#utility.yul\":10711:10736   */\n      gt\n        /* \"#utility.yul\":10708:10759   */\n      iszero\n      tag_288\n      jumpi\n        /* \"#utility.yul\":10739:10757   */\n      tag_289\n      tag_157\n      jump\t// in\n    tag_289:\n        /* \"#utility.yul\":10708:10759   */\n    tag_288:\n        /* \"#utility.yul\":10788:10792   */\n      dup2\n        /* \"#utility.yul\":10781:10786   */\n      dup2\n        /* \"#utility.yul\":10777:10793   */\n      mul\n        /* \"#utility.yul\":10768:10793   */\n      swap1\n      pop\n        /* \"#utility.yul\":9726:10799   */\n    tag_274:\n      swap4\n      swap3\n      pop\n      pop\n      pop\n      jump\t// out\n        /* \"#utility.yul\":10805:11090   */\n    tag_90:\n        /* \"#utility.yul\":10865:10870   */\n      0x00\n        /* \"#utility.yul\":10889:10912   */\n      tag_291\n        /* \"#utility.yul\":10907:10911   */\n      dup3\n        /* \"#utility.yul\":10889:10912   */\n      tag_145\n      jump\t// in\n    tag_291:\n        /* \"#utility.yul\":10881:10912   */\n      swap2\n      pop\n        /* \"#utility.yul\":10933:10960   */\n      tag_292\n        /* \"#utility.yul\":10951:10959   */\n      dup4\n        /* \"#utility.yul\":10933:10960   */\n      tag_145\n      jump\t// in\n    tag_292:\n        /* \"#utility.yul\":10921:10960   */\n      swap3\n      pop\n        /* \"#utility.yul\":10979:11083   */\n      tag_293\n        /* \"#utility.yul\":11016:11082   */\n      0xffffffffffffffffffffffffffffffffffffffffffffffffffffffffffffffff\n        /* \"#utility.yul\":11006:11014   */\n      dup5\n        /* \"#utility.yul\":11000:11004   */\n      dup5\n        /* \"#utility.yul\":10979:11083   */\n      tag_162\n      jump\t// in\n    tag_293:\n        /* \"#utility.yul\":10970:11083   */\n      swap1\n      pop\n        /* \"#utility.yul\":10805:11090   */\n      swap3\n      swap2\n      pop\n      pop\n      jump\t// out\n        /* \"#utility.yul\":11096:11506   */\n    tag_92:\n        /* \"#utility.yul\":11136:11143   */\n      0x00\n        /* \"#utility.yul\":11159:11179   */\n      tag_295\n        /* \"#utility.yul\":11177:11178   */\n      dup3\n        /* \"#utility.yul\":11159:11179   */\n      tag_145\n      jump\t// in\n    tag_295:\n        /* \"#utility.yul\":11154:11179   */\n      swap2\n      pop\n        /* \"#utility.yul\":11193:11213   */\n      tag_296\n        /* \"#utility.yul\":11211:11212   */\n      dup4\n        /* \"#utility.yul\":11193:11213   */\n      tag_145\n      jump\t// in\n    tag_296:\n        /* \"#utility.yul\":11188:11213   */\n      swap3\n      pop\n        /* \"#utility.yul\":11248:11249   */\n      dup3\n        /* \"#utility.yul\":11245:11246   */\n      dup3\n        /* \"#utility.yul\":11241:11250   */\n      mul\n        /* \"#utility.yul\":11270:11300   */\n      tag_297\n        /* \"#utility.yul\":11288:11299   */\n      dup2\n        /* \"#utility.yul\":11270:11300   */\n      tag_145\n      jump\t// in\n    tag_297:\n        /* \"#utility.yul\":11259:11300   */\n      swap2\n      pop\n        /* \"#utility.yul\":11449:11450   */\n      dup3\n        /* \"#utility.yul\":11440:11447   */\n      dup3\n        /* \"#utility.yul\":11436:11451   */\n      div\n        /* \"#utility.yul\":11433:11434   */\n      dup5\n        /* \"#utility.yul\":11430:11452   */\n      eq\n        /* \"#utility.yul\":11410:11411   */\n      dup4\n        /* \"#utility.yul\":11403:11412   */\n      iszero\n        /* \"#utility.yul\":11383:11466   */\n      or\n        /* \"#utility.yul\":11360:11499   */\n      tag_298\n      jumpi\n        /* \"#utility.yul\":11479:11497   */\n      tag_299\n      tag_157\n      jump\t// in\n    tag_299:\n        /* \"#utility.yul\":11360:11499   */\n    tag_298:\n        /* \"#utility.yul\":11144:11506   */\n      pop\n        /* \"#utility.yul\":11096:11506   */\n      swap3\n      swap2\n      pop\n      pop\n      jump\t// out\n        /* \"#utility.yul\":11512:11685   */\n    tag_163:\n        /* \"#utility.yul\":11652:11677   */\n      0x45524332303a20617070726f76652066726f6d20307830000000000000000000\n        /* \"#utility.yul\":11648:11649   */\n      0x00\n        /* \"#utility.yul\":11640:11646   */\n      dup3\n        /* \"#utility.yul\":11636:11650   */\n      add\n        /* \"#utility.yul\":11629:11678   */\n      mstore\n        /* \"#utility.yul\":11512:11685   */\n      pop\n      jump\t// out\n        /* \"#utility.yul\":11691:12057   */\n    tag_164:\n        /* \"#utility.yul\":11833:11836   */\n      0x00\n        /* \"#utility.yul\":11854:11921   */\n      tag_302\n        /* \"#utility.yul\":11918:11920   */\n      0x17\n        /* \"#utility.yul\":11913:11916   */\n      dup4\n        /* \"#utility.yul\":11854:11921   */\n      tag_134\n      jump\t// in\n    tag_302:\n        /* \"#utility.yul\":11847:11921   */\n      swap2\n      pop\n        /* \"#utility.yul\":11930:12023   */\n      tag_303\n        /* \"#utility.yul\":12019:12022   */\n      dup3\n        /* \"#utility.yul\":11930:12023   */\n      tag_163\n      jump\t// in\n    tag_303:\n        /* \"#utility.yul\":12048:12050   */\n      0x20\n        /* \"#utility.yul\":12043:12046   */\n      dup3\n        /* \"#utility.yul\":12039:12051   */\n      add\n        /* \"#utility.yul\":12032:12051   */\n      swap1\n      pop\n        /* \"#utility.yul\":11691:12057   */\n      swap2\n      swap1\n      pop\n      jump\t// out\n        /* \"#utility.yul\":12063:12482   */\n    tag_107:\n        /* \"#utility.yul\":12229:12233   */\n      0x00\n        /* \"#utility.yul\":12267:12269   */\n      0x20\n        /* \"#utility.yul\":12256:12265   */\n      dup3\n        /* \"#utility.yul\":12252:12270   */\n      add\n        /* \"#utility.yul\":12244:12270   */\n      swap1\n      pop\n        /* \"#utility.yul\":12316:12325   */\n      dup2\n        /* \"#utility.yul\":12310:12314   */\n      dup2\n        /* \"#utility.yul\":12306:12326   */\n      sub\n        /* \"#utility.yul\":12302:12303   */\n      0x00\n        /* \"#utility.yul\":12291:12300   */\n      dup4\n        /* \"#utility.yul\":12287:12304   */\n      add\n        /* \"#utility.yul\":12280:12327   */\n      mstore\n        /* \"#utility.yul\":12344:12475   */\n      tag_305\n        /* \"#utility.yul\":12470:12474   */\n      dup2\n        /* \"#utility.yul\":12344:12475   */\n      tag_164\n      jump\t// in\n    tag_305:\n        /* \"#utility.yul\":12336:12475   */\n      swap1\n      pop\n        /* \"#utility.yul\":12063:12482   */\n      swap2\n      swap1\n      pop\n      jump\t// out\n        /* \"#utility.yul\":12488:12659   */\n    tag_165:\n        /* \"#utility.yul\":12628:12651   */\n      0x45524332303a20617070726f766520746f203078300000000000000000000000\n        /* \"#utility.yul\":12624:12625   */\n      0x00\n        /* \"#utility.yul\":12616:12622   */\n      dup3\n        /* \"#utility.yul\":12612:12626   */\n      add\n        /* \"#utility.yul\":12605:12652   */\n      mstore\n        /* \"#utility.yul\":12488:12659   */\n      pop\n      jump\t// out\n        /* \"#utility.yul\":12665:13031   */\n    tag_166:\n        /* \"#utility.yul\":12807:12810   */\n      0x00\n        /* \"#utility.yul\":12828:12895   */\n      tag_308\n        /* \"#utility.yul\":12892:12894   */\n      0x15\n        /* \"#utility.yul\":12887:12890   */\n      dup4\n        /* \"#utility.yul\":12828:12895   */\n      tag_134\n      jump\t// in\n    tag_308:\n        /* \"#utility.yul\":12821:12895   */\n      swap2\n      pop\n        /* \"#utility.yul\":12904:12997   */\n      tag_309\n        /* \"#utility.yul\":12993:12996   */\n      dup3\n        /* \"#utility.yul\":12904:12997   */\n      tag_165\n      jump\t// in\n    tag_309:\n        /* \"#utility.yul\":13022:13024   */\n      0x20\n        /* \"#utility.yul\":13017:13020   */\n      dup3\n        /* \"#utility.yul\":13013:13025   */\n      add\n        /* \"#utility.yul\":13006:13025   */\n      swap1\n      pop\n        /* \"#utility.yul\":12665:13031   */\n      swap2\n      swap1\n      pop\n      jump\t// out\n        /* \"#utility.yul\":13037:13456   */\n    tag_110:\n        /* \"#utility.yul\":13203:13207   */\n      0x00\n        /* \"#utility.yul\":13241:13243   */\n      0x20\n        /* \"#utility.yul\":13230:13239   */\n      dup3\n        /* \"#utility.yul\":13226:13244   */\n      add\n        /* \"#utility.yul\":13218:13244   */\n      swap1\n      pop\n        /* \"#utility.yul\":13290:13299   */\n      dup2\n        /* \"#utility.yul\":13284:13288   */\n      dup2\n        /* \"#utility.yul\":13280:13300   */\n      sub\n        /* \"#utility.yul\":13276:13277   */\n      0x00\n        /* \"#utility.yul\":13265:13274   */\n      dup4\n        /* \"#utility.yul\":13261:13278   */\n      add\n        /* \"#utility.yul\":13254:13301   */\n      mstore\n        /* \"#utility.yul\":13318:13449   */\n      tag_311\n        /* \"#utility.yul\":13444:13448   */\n      dup2\n        /* \"#utility.yul\":13318:13449   */\n      tag_166\n      jump\t// in\n    tag_311:\n        /* \"#utility.yul\":13310:13449   */\n      swap1\n      pop\n        /* \"#utility.yul\":13037:13456   */\n      swap2\n      swap1\n      pop\n      jump\t// out\n        /* \"#utility.yul\":13462:13636   */\n    tag_167:\n        /* \"#utility.yul\":13602:13628   */\n      0x45524332303a207472616e736665722066726f6d203078300000000000000000\n        /* \"#utility.yul\":13598:13599   */\n      0x00\n        /* \"#utility.yul\":13590:13596   */\n      dup3\n        /* \"#utility.yul\":13586:13600   */\n      add\n        /* \"#utility.yul\":13579:13629   */\n      mstore\n        /* \"#utility.yul\":13462:13636   */\n      pop\n      jump\t// out\n        /* \"#utility.yul\":13642:14008   */\n    tag_168:\n        /* \"#utility.yul\":13784:13787   */\n      0x00\n        /* \"#utility.yul\":13805:13872   */\n      tag_314\n        /* \"#utility.yul\":13869:13871   */\n      0x18\n        /* \"#utility.yul\":13864:13867   */\n      dup4\n        /* \"#utility.yul\":13805:13872   */\n      tag_134\n      jump\t// in\n    tag_314:\n        /* \"#utility.yul\":13798:13872   */\n      swap2\n      pop\n        /* \"#utility.yul\":13881:13974   */\n      tag_315\n        /* \"#utility.yul\":13970:13973   */\n      dup3\n        /* \"#utility.yul\":13881:13974   */\n      tag_167\n      jump\t// in\n    tag_315:\n        /* \"#utility.yul\":13999:14001   */\n      0x20\n        /* \"#utility.yul\":13994:13997   */\n      dup3\n        /* \"#utility.yul\":13990:14002   */\n      add\n        /* \"#utility.yul\":13983:14002   */\n      swap1\n      pop\n        /* \"#utility.yul\":13642:14008   */\n      swap2\n      swap1\n      pop\n      jump\t// out\n        /* \"#utility.yul\":14014:14433   */\n    tag_115:\n        /* \"#utility.yul\":14180:14184   */\n      0x00\n        /* \"#utility.yul\":14218:14220   */\n      0x20\n        /* \"#utility.yul\":14207:14216   */\n      dup3\n        /* \"#utility.yul\":14203:14221   */\n      add\n        /* \"#utility.yul\":14195:14221   */\n      swap1\n      pop\n        /* \"#utility.yul\":14267:14276   */\n      dup2\n        /* \"#utility.yul\":14261:14265   */\n      dup2\n        /* \"#utility.yul\":14257:14277   */\n      sub\n        /* \"#utility.yul\":14253:14254   */\n      0x00\n        /* \"#utility.yul\":14242:14251   */\n      dup4\n        /* \"#utility.yul\":14238:14255   */\n      add\n        /* \"#utility.yul\":14231:14278   */\n      mstore\n        /* \"#utility.yul\":14295:14426   */\n      tag_317\n        /* \"#utility.yul\":14421:14425   */\n      dup2\n        /* \"#utility.yul\":14295:14426   */\n      tag_168\n      jump\t// in\n    tag_317:\n        /* \"#utility.yul\":14287:14426   */\n      swap1\n      pop\n        /* \"#utility.yul\":14014:14433   */\n      swap2\n      swap1\n      pop\n      jump\t// out\n        /* \"#utility.yul\":14439:14611   */\n    tag_169:\n        /* \"#utility.yul\":14579:14603   */\n      0x45524332303a207472616e7366657220746f2030783000000000000000000000\n        /* \"#utility.yul\":14575:14576   */\n      0x00\n        /* \"#utility.yul\":14567:14573   */\n      dup3\n        /* \"#utility.yul\":14563:14577   */\n      add\n        /* \"#utility.yul\":14556:14604   */\n      mstore\n        /* \"#utility.yul\":14439:14611   */\n      pop\n      jump\t// out\n        /* \"#utility.yul\":14617:14983   */\n    tag_170:\n        /* \"#utility.yul\":14759:14762   */\n      0x00\n        /* \"#utility.yul\":14780:14847   */\n      tag_320\n        /* \"#utility.yul\":14844:14846   */\n      0x16\n        /* \"#utility.yul\":14839:14842   */\n      dup4\n        /* \"#utility.yul\":14780:14847   */\n      tag_134\n      jump\t// in\n    tag_320:\n        /* \"#utility.yul\":14773:14847   */\n      swap2\n      pop\n        /* \"#utility.yul\":14856:14949   */\n      tag_321\n        /* \"#utility.yul\":14945:14948   */\n      dup3\n        /* \"#utility.yul\":14856:14949   */\n      tag_169\n      jump\t// in\n    tag_321:\n        /* \"#utility.yul\":14974:14976   */\n      0x20\n        /* \"#utility.yul\":14969:14972   */\n      dup3\n        /* \"#utility.yul\":14965:14977   */\n      add\n        /* \"#utility.yul\":14958:14977   */\n      swap1\n      pop\n        /* \"#utility.yul\":14617:14983   */\n      swap2\n      swap1\n      pop\n      jump\t// out\n        /* \"#utility.yul\":14989:15408   */\n    tag_118:\n        /* \"#utility.yul\":15155:15159   */\n      0x00\n        /* \"#utility.yul\":15193:15195   */\n      0x20\n        /* \"#utility.yul\":15182:15191   */\n      dup3\n        /* \"#utility.yul\":15178:15196   */\n      add\n        /* \"#utility.yul\":15170:15196   */\n      swap1\n      pop\n        /* \"#utility.yul\":15242:15251   */\n      dup2\n        /* \"#utility.yul\":15236:15240   */\n      dup2\n        /* \"#utility.yul\":15232:15252   */\n      sub\n        /* \"#utility.yul\":15228:15229   */\n      0x00\n        /* \"#utility.yul\":15217:15226   */\n      dup4\n        /* \"#utility.yul\":15213:15230   */\n      add\n        /* \"#utility.yul\":15206:15253   */\n      mstore\n        /* \"#utility.yul\":15270:15401   */\n      tag_323\n        /* \"#utility.yul\":15396:15400   */\n      dup2\n        /* \"#utility.yul\":15270:15401   */\n      tag_170\n      jump\t// in\n    tag_323:\n        /* \"#utility.yul\":15262:15401   */\n      swap1\n      pop\n        /* \"#utility.yul\":14989:15408   */\n      swap2\n      swap1\n      pop\n      jump\t// out\n        /* \"#utility.yul\":15414:15591   */\n    tag_171:\n        /* \"#utility.yul\":15554:15583   */\n      0x45524332303a20696e73756666696369656e742062616c616e63650000000000\n        /* \"#utility.yul\":15550:15551   */\n      0x00\n        /* \"#utility.yul\":15542:15548   */\n      dup3\n        /* \"#utility.yul\":15538:15552   */\n      add\n        /* \"#utility.yul\":15531:15584   */\n      mstore\n        /* \"#utility.yul\":15414:15591   */\n      pop\n      jump\t// out\n        /* \"#utility.yul\":15597:15963   */\n    tag_172:\n        /* \"#utility.yul\":15739:15742   */\n      0x00\n        /* \"#utility.yul\":15760:15827   */\n      tag_326\n        /* \"#utility.yul\":15824:15826   */\n      0x1b\n        /* \"#utility.yul\":15819:15822   */\n      dup4\n        /* \"#utility.yul\":15760:15827   */\n      tag_134\n      jump\t// in\n    tag_326:\n        /* \"#utility.yul\":15753:15827   */\n      swap2\n      pop\n        /* \"#utility.yul\":15836:15929   */\n      tag_327\n        /* \"#utility.yul\":15925:15928   */\n      dup3\n        /* \"#utility.yul\":15836:15929   */\n      tag_171\n      jump\t// in\n    tag_327:\n        /* \"#utility.yul\":15954:15956   */\n      0x20\n        /* \"#utility.yul\":15949:15952   */\n      dup3\n        /* \"#utility.yul\":15945:15957   */\n      add\n        /* \"#utility.yul\":15938:15957   */\n      swap1\n      pop\n        /* \"#utility.yul\":15597:15963   */\n      swap2\n      swap1\n      pop\n      jump\t// out\n        /* \"#utility.yul\":15969:16388   */\n    tag_121:\n        /* \"#utility.yul\":16135:16139   */\n      0x00\n        /* \"#utility.yul\":16173:16175   */\n      0x20\n        /* \"#utility.yul\":16162:16171   */\n      dup3\n        /* \"#utility.yul\":16158:16176   */\n      add\n        /* \"#utility.yul\":16150:16176   */\n      swap1\n      pop\n        /* \"#utility.yul\":16222:16231   */\n      dup2\n        /* \"#utility.yul\":16216:16220   */\n      dup2\n        /* \"#utility.yul\":16212:16232   */\n      sub\n        /* \"#utility.yul\":16208:16209   */\n      0x00\n        /* \"#utility.yul\":16197:16206   */\n      dup4\n        /* \"#utility.yul\":16193:16210   */\n      add\n        /* \"#utility.yul\":16186:16233   */\n      mstore\n        /* \"#utility.yul\":16250:16381   */\n      tag_329\n        /* \"#utility.yul\":16376:16380   */\n      dup2\n        /* \"#utility.yul\":16250:16381   */\n      tag_172\n      jump\t// in\n    tag_329:\n        /* \"#utility.yul\":16242:16381   */\n      swap1\n      pop\n        /* \"#utility.yul\":15969:16388   */\n      swap2\n      swap1\n      pop\n      jump\t// out\n        /* \"#utility.yul\":16394:16585   */\n    tag_124:\n        /* \"#utility.yul\":16434:16437   */\n      0x00\n        /* \"#utility.yul\":16453:16473   */\n      tag_331\n        /* \"#utility.yul\":16471:16472   */\n      dup3\n        /* \"#utility.yul\":16453:16473   */\n      tag_145\n      jump\t// in\n    tag_331:\n        /* \"#utility.yul\":16448:16473   */\n      swap2\n      pop\n        /* \"#utility.yul\":16487:16507   */\n      tag_332\n        /* \"#utility.yul\":16505:16506   */\n      dup4\n        /* \"#utility.yul\":16487:16507   */\n      tag_145\n      jump\t// in\n    tag_332:\n        /* \"#utility.yul\":16482:16507   */\n      swap3\n      pop\n        /* \"#utility.yul\":16530:16531   */\n      dup3\n        /* \"#utility.yul\":16527:16528   */\n      dup3\n        /* \"#utility.yul\":16523:16532   */\n      add\n        /* \"#utility.yul\":16516:16532   */\n      swap1\n      pop\n        /* \"#utility.yul\":16551:16554   */\n      dup1\n        /* \"#utility.yul\":16548:16549   */\n      dup3\n        /* \"#utility.yul\":16545:16555   */\n      gt\n        /* \"#utility.yul\":16542:16578   */\n      iszero\n      tag_333\n      jumpi\n        /* \"#utility.yul\":16558:16576   */\n      tag_334\n      tag_157\n      jump\t// in\n    tag_334:\n        /* \"#utility.yul\":16542:16578   */\n    tag_333:\n        /* \"#utility.yul\":16394:16585   */\n      swap3\n      swap2\n      pop\n      pop\n      jump\t// out\n        /* \"#utility.yul\":16591:16756   */\n    tag_173:\n        /* \"#utility.yul\":16731:16748   */\n      0x496e76616c696420616464726573730000000000000000000000000000000000\n        /* \"#utility.yul\":16727:16728   */\n      0x00\n        /* \"#utility.yul\":16719:16725   */\n      dup3\n        /* \"#utility.yul\":16715:16729   */\n      add\n        /* \"#utility.yul\":16708:16749   */\n      mstore\n        /* \"#utility.yul\":16591:16756   */\n      pop\n      jump\t// out\n        /* \"#utility.yul\":16762:17128   */\n    tag_174:\n        /* \"#utility.yul\":16904:16907   */\n      0x00\n        /* \"#utility.yul\":16925:16992   */\n      tag_337\n        /* \"#utility.yul\":16989:16991   */\n      0x0f\n        /* \"#utility.yul\":16984:16987   */\n      dup4\n        /* \"#utility.yul\":16925:16992   */\n      tag_134\n      jump\t// in\n    tag_337:\n        /* \"#utility.yul\":16918:16992   */\n      swap2\n      pop\n        /* \"#utility.yul\":17001:17094   */\n      tag_338\n        /* \"#utility.yul\":17090:17093   */\n      dup3\n        /* \"#utility.yul\":17001:17094   */\n      tag_173\n      jump\t// in\n    tag_338:\n        /* \"#utility.yul\":17119:17121   */\n      0x20\n        /* \"#utility.yul\":17114:17117   */\n      dup3\n        /* \"#utility.yul\":17110:17122   */\n      add\n        /* \"#utility.yul\":17103:17122   */\n      swap1\n      pop\n        /* \"#utility.yul\":16762:17128   */\n      swap2\n      swap1\n      pop\n      jump\t// out\n        /* \"#utility.yul\":17134:17553   */\n    tag_129:\n        /* \"#utility.yul\":17300:17304   */\n      0x00\n        /* \"#utility.yul\":17338:17340   */\n      0x20\n        /* \"#utility.yul\":17327:17336   */\n      dup3\n        /* \"#utility.yul\":17323:17341   */\n      add\n        /* \"#utility.yul\":17315:17341   */\n      swap1\n      pop\n        /* \"#utility.yul\":17387:17396   */\n      dup2\n        /* \"#utility.yul\":17381:17385   */\n      dup2\n        /* \"#utility.yul\":17377:17397   */\n      sub\n        /* \"#utility.yul\":17373:17374   */\n      0x00\n        /* \"#utility.yul\":17362:17371   */\n      dup4\n        /* \"#utility.yul\":17358:17375   */\n      add\n        /* \"#utility.yul\":17351:17398   */\n      mstore\n        /* \"#utility.yul\":17415:17546   */\n      tag_340\n        /* \"#utility.yul\":17541:17545   */\n      dup2\n        /* \"#utility.yul\":17415:17546   */\n      tag_174\n      jump\t// in\n    tag_340:\n        /* \"#utility.yul\":17407:17546   */\n      swap1\n      pop\n        /* \"#utility.yul\":17134:17553   */\n      swap2\n      swap1\n      pop\n      jump\t// out\n\n    auxdata: 0xa264697066735822122023e99b672c2423e77fb02c781892de0ccb9d22542d255fabc1bfed382cb472fe64736f6c634300081e0033\n}\n",
				"bytecode": {
					"linkReferences": {},
					"object": "60a0604052601260025f6101000a81548160ff021916908360ff1602179055505f600460146101000a81548160ff021916908315150217905550348015610044575f5ffd5b50604051611f6e380380611f6e833981810160405281019061006691906103e8565b825f90816100749190610677565b5081600190816100849190610677565b503360045f6101000a81548173ffffffffffffffffffffffffffffffffffffffff021916908373ffffffffffffffffffffffffffffffffffffffff16021790555061011e60045f9054906101000a900473ffffffffffffffffffffffffffffffffffffffff1660025f9054906101000a900460ff1660ff16600a61010891906108a2565b8361011391906108ec565b61012660201b60201c565b505050610a00565b5f73ffffffffffffffffffffffffffffffffffffffff168273ffffffffffffffffffffffffffffffffffffffff1603610194576040517f08c379a000000000000000000000000000000000000000000000000000000000815260040161018b90610987565b60405180910390fd5b8060035f8282546101a591906109a5565b925050819055508060055f8473ffffffffffffffffffffffffffffffffffffffff1673ffffffffffffffffffffffffffffffffffffffff1681526020019081526020015f205f8282546101f891906109a5565b925050819055508173ffffffffffffffffffffffffffffffffffffffff165f73ffffffffffffffffffffffffffffffffffffffff167fddf252ad1be2c89b69c2b068fc378daa952ba7f163c4a11628f55a4df523b3ef8360405161025c91906109e7565b60405180910390a35050565b5f604051905090565b5f5ffd5b5f5ffd5b5f5ffd5b5f5ffd5b5f601f19601f8301169050919050565b7f4e487b71000000000000000000000000000000000000000000000000000000005f52604160045260245ffd5b6102c782610281565b810181811067ffffffffffffffff821117156102e6576102e5610291565b5b80604052505050565b5f6102f8610268565b905061030482826102be565b919050565b5f67ffffffffffffffff82111561032357610322610291565b5b61032c82610281565b9050602081019050919050565b8281835e5f83830152505050565b5f61035961035484610309565b6102ef565b9050828152602081018484840111156103755761037461027d565b5b610380848285610339565b509392505050565b5f82601f83011261039c5761039b610279565b5b81516103ac848260208601610347565b91505092915050565b5f819050919050565b6103c7816103b5565b81146103d1575f5ffd5b50565b5f815190506103e2816103be565b92915050565b5f5f5f606084860312156103ff576103fe610271565b5b5f84015167ffffffffffffffff81111561041c5761041b610275565b5b61042886828701610388565b935050602084015167ffffffffffffffff81111561044957610448610275565b5b61045586828701610388565b9250506040610466868287016103d4565b9150509250925092565b5f81519050919050565b7f4e487b71000000000000000000000000000000000000000000000000000000005f52602260045260245ffd5b5f60028204905060018216806104be57607f821691505b6020821081036104d1576104d061047a565b5b50919050565b5f819050815f5260205f209050919050565b5f6020601f8301049050919050565b5f82821b905092915050565b5f600883026105337fffffffffffffffffffffffffffffffffffffffffffffffffffffffffffffffff826104f8565b61053d86836104f8565b95508019841693508086168417925050509392505050565b5f819050919050565b5f61057861057361056e846103b5565b610555565b6103b5565b9050919050565b5f819050919050565b6105918361055e565b6105a561059d8261057f565b848454610504565b825550505050565b5f5f905090565b6105bc6105ad565b6105c7818484610588565b505050565b5b818110156105ea576105df5f826105b4565b6001810190506105cd565b5050565b601f82111561062f57610600816104d7565b610609846104e9565b81016020851015610618578190505b61062c610624856104e9565b8301826105cc565b50505b505050565b5f82821c905092915050565b5f61064f5f1984600802610634565b1980831691505092915050565b5f6106678383610640565b9150826002028217905092915050565b61068082610470565b67ffffffffffffffff81111561069957610698610291565b5b6106a382546104a7565b6106ae8282856105ee565b5f60209050601f8311600181146106df575f84156106cd578287015190505b6106d7858261065c565b86555061073e565b601f1984166106ed866104d7565b5f5b82811015610714578489015182556001820191506020850194506020810190506106ef565b86831015610731578489015161072d601f891682610640565b8355505b6001600288020188555050505b505050505050565b7f4e487b71000000000000000000000000000000000000000000000000000000005f52601160045260245ffd5b5f8160011c9050919050565b5f5f8291508390505b60018511156107c8578086048111156107a4576107a3610746565b5b60018516156107b35780820291505b80810290506107c185610773565b9450610788565b94509492505050565b5f826107e0576001905061089b565b816107ed575f905061089b565b8160018114610803576002811461080d5761083c565b600191505061089b565b60ff84111561081f5761081e610746565b5b8360020a91508482111561083657610835610746565b5b5061089b565b5060208310610133831016604e8410600b84101617156108715782820a90508381111561086c5761086b610746565b5b61089b565b61087e848484600161077f565b9250905081840481111561089557610894610746565b5b81810290505b9392505050565b5f6108ac826103b5565b91506108b7836103b5565b92506108e47fffffffffffffffffffffffffffffffffffffffffffffffffffffffffffffffff84846107d1565b905092915050565b5f6108f6826103b5565b9150610901836103b5565b925082820261090f816103b5565b9150828204841483151761092657610925610746565b5b5092915050565b5f82825260208201905092915050565b7f496e76616c6964206164647265737300000000000000000000000000000000005f82015250565b5f610971600f8361092d565b915061097c8261093d565b602082019050919050565b5f6020820190508181035f83015261099e81610965565b9050919050565b5f6109af826103b5565b91506109ba836103b5565b92508282019050808211156109d2576109d1610746565b5b92915050565b6109e1816103b5565b82525050565b5f6020820190506109fa5f8301846109d8565b92915050565b608051611559610a155f395f50506115595ff3fe608060405234801561000f575f5ffd5b50600436106100b2575f3560e01c806370a082311161006f57806370a082311461018c57806372dd529b146101bc5780638da5cb5b146101da57806395d89b41146101f8578063a9059cbb14610216578063dd62ed3e14610246576100b2565b806306fdde03146100b6578063095ea7b3146100d457806323b872dd14610104578063313ce5671461013457806340c10f19146101525780635c975abb1461016e575b5f5ffd5b6100be610276565b6040516100cb9190610cda565b60405180910390f35b6100ee60048036038101906100e99190610d8b565b610301565b6040516100fb9190610de3565b60405180910390f35b61011e60048036038101906101199190610dfc565b610317565b60405161012b9190610de3565b60405180910390f35b61013c610477565b6040516101499190610e67565b60405180910390f35b61016c60048036038101906101679190610d8b565b610489565b005b61017661054e565b6040516101839190610de3565b60405180910390f35b6101a660048036038101906101a19190610e80565b610561565b6040516101b39190610eba565b60405180910390f35b6101c46105a7565b6040516101d19190610eba565b60405180910390f35b6101e26105b0565b6040516101ef9190610ee2565b60405180910390f35b6102006105d5565b60405161020d9190610cda565b60405180910390f35b610230600480360381019061022b9190610d8b565b610661565b60405161023d9190610de3565b60405180910390f35b610260600480360381019061025b9190610efb565b610677565b60405161026d9190610eba565b60405180910390f35b5f805461028290610f66565b80601f01602080910402602001604051908101604052809291908181526020018280546102ae90610f66565b80156102f95780601f106102d0576101008083540402835291602001916102f9565b820191905f5260205f20905b8154815290600101906020018083116102dc57829003601f168201915b505050505081565b5f61030d3384846106f9565b6001905092915050565b5f8160065f8673ffffffffffffffffffffffffffffffffffffffff1673ffffffffffffffffffffffffffffffffffffffff1681526020019081526020015f205f3373ffffffffffffffffffffffffffffffffffffffff1673ffffffffffffffffffffffffffffffffffffffff1681526020019081526020015f205410156103d3576040517f08c379a00000000000000000000000000000000000000000000000000000000081526004016103ca90610fe0565b60405180910390fd5b8160065f8673ffffffffffffffffffffffffffffffffffffffff1673ffffffffffffffffffffffffffffffffffffffff1681526020019081526020015f205f3373ffffffffffffffffffffffffffffffffffffffff1673ffffffffffffffffffffffffffffffffffffffff1681526020019081526020015f205f82825461045a919061102b565b9250508190555061046c8484846108bc565b600190509392505050565b60025f9054906101000a900460ff1681565b60045f9054906101000a900473ffffffffffffffffffffffffffffffffffffffff1673ffffffffffffffffffffffffffffffffffffffff163373ffffffffffffffffffffffffffffffffffffffff1614610518576040517f08c379a000000000000000000000000000000000000000000000000000000000815260040161050f906110a8565b60405180910390fd5b61054a8260025f9054906101000a900460ff1660ff16600a61053a91906111f5565b83610545919061123f565b610b28565b5050565b600460149054906101000a900460ff1681565b5f60055f8373ffffffffffffffffffffffffffffffffffffffff1673ffffffffffffffffffffffffffffffffffffffff1681526020019081526020015f20549050919050565b5f600354905090565b60045f9054906101000a900473ffffffffffffffffffffffffffffffffffffffff1681565b600180546105e290610f66565b80601f016020809104026020016040519081016040528092919081815260200182805461060e90610f66565b80156106595780601f1061063057610100808354040283529160200191610659565b820191905f5260205f20905b81548152906001019060200180831161063c57829003601f168201915b505050505081565b5f61066d3384846108bc565b6001905092915050565b5f60065f8473ffffffffffffffffffffffffffffffffffffffff1673ffffffffffffffffffffffffffffffffffffffff1681526020019081526020015f205f8373ffffffffffffffffffffffffffffffffffffffff1673ffffffffffffffffffffffffffffffffffffffff1681526020019081526020015f2054905092915050565b5f73ffffffffffffffffffffffffffffffffffffffff168373ffffffffffffffffffffffffffffffffffffffff1603610767576040517f08c379a000000000000000000000000000000000000000000000000000000000815260040161075e906112ca565b60405180910390fd5b5f73ffffffffffffffffffffffffffffffffffffffff168273ffffffffffffffffffffffffffffffffffffffff16036107d5576040517f08c379a00000000000000000000000000000000000000000000000000000000081526004016107cc90611332565b60405180910390fd5b8060065f8573ffffffffffffffffffffffffffffffffffffffff1673ffffffffffffffffffffffffffffffffffffffff1681526020019081526020015f205f8473ffffffffffffffffffffffffffffffffffffffff1673ffffffffffffffffffffffffffffffffffffffff1681526020019081526020015f20819055508173ffffffffffffffffffffffffffffffffffffffff168373ffffffffffffffffffffffffffffffffffffffff167f8c5be1e5ebec7d5bd14f71427d1e84f3dd0314c0f7b2291e5b200ac8c7c3b925836040516108af9190610eba565b60405180910390a3505050565b5f73ffffffffffffffffffffffffffffffffffffffff168373ffffffffffffffffffffffffffffffffffffffff160361092a576040517f08c379a00000000000000000000000000000000000000000000000000000000081526004016109219061139a565b60405180910390fd5b5f73ffffffffffffffffffffffffffffffffffffffff168273ffffffffffffffffffffffffffffffffffffffff1603610998576040517f08c379a000000000000000000000000000000000000000000000000000000000815260040161098f90611402565b60405180910390fd5b8060055f8573ffffffffffffffffffffffffffffffffffffffff1673ffffffffffffffffffffffffffffffffffffffff1681526020019081526020015f20541015610a18576040517f08c379a0000000000000000000000000000000000000000000000000000000008152600401610a0f9061146a565b60405180910390fd5b8060055f8573ffffffffffffffffffffffffffffffffffffffff1673ffffffffffffffffffffffffffffffffffffffff1681526020019081526020015f205f828254610a64919061102b565b925050819055508060055f8473ffffffffffffffffffffffffffffffffffffffff1673ffffffffffffffffffffffffffffffffffffffff1681526020019081526020015f205f828254610ab79190611488565b925050819055508173ffffffffffffffffffffffffffffffffffffffff168373ffffffffffffffffffffffffffffffffffffffff167fddf252ad1be2c89b69c2b068fc378daa952ba7f163c4a11628f55a4df523b3ef83604051610b1b9190610eba565b60405180910390a3505050565b5f73ffffffffffffffffffffffffffffffffffffffff168273ffffffffffffffffffffffffffffffffffffffff1603610b96576040517f08c379a0000000000000000000000000000000000000000000000000000000008152600401610b8d90611505565b60405180910390fd5b8060035f828254610ba79190611488565b925050819055508060055f8473ffffffffffffffffffffffffffffffffffffffff1673ffffffffffffffffffffffffffffffffffffffff1681526020019081526020015f205f828254610bfa9190611488565b925050819055508173ffffffffffffffffffffffffffffffffffffffff165f73ffffffffffffffffffffffffffffffffffffffff167fddf252ad1be2c89b69c2b068fc378daa952ba7f163c4a11628f55a4df523b3ef83604051610c5e9190610eba565b60405180910390a35050565b5f81519050919050565b5f82825260208201905092915050565b8281835e5f83830152505050565b5f601f19601f8301169050919050565b5f610cac82610c6a565b610cb68185610c74565b9350610cc6818560208601610c84565b610ccf81610c92565b840191505092915050565b5f6020820190508181035f830152610cf28184610ca2565b905092915050565b5f5ffd5b5f73ffffffffffffffffffffffffffffffffffffffff82169050919050565b5f610d2782610cfe565b9050919050565b610d3781610d1d565b8114610d41575f5ffd5b50565b5f81359050610d5281610d2e565b92915050565b5f819050919050565b610d6a81610d58565b8114610d74575f5ffd5b50565b5f81359050610d8581610d61565b92915050565b5f5f60408385031215610da157610da0610cfa565b5b5f610dae85828601610d44565b9250506020610dbf85828601610d77565b9150509250929050565b5f8115159050919050565b610ddd81610dc9565b82525050565b5f602082019050610df65f830184610dd4565b92915050565b5f5f5f60608486031215610e1357610e12610cfa565b5b5f610e2086828701610d44565b9350506020610e3186828701610d44565b9250506040610e4286828701610d77565b9150509250925092565b5f60ff82169050919050565b610e6181610e4c565b82525050565b5f602082019050610e7a5f830184610e58565b92915050565b5f60208284031215610e9557610e94610cfa565b5b5f610ea284828501610d44565b91505092915050565b610eb481610d58565b82525050565b5f602082019050610ecd5f830184610eab565b92915050565b610edc81610d1d565b82525050565b5f602082019050610ef55f830184610ed3565b92915050565b5f5f60408385031215610f1157610f10610cfa565b5b5f610f1e85828601610d44565b9250506020610f2f85828601610d44565b9150509250929050565b7f4e487b71000000000000000000000000000000000000000000000000000000005f52602260045260245ffd5b5f6002820490506001821680610f7d57607f821691505b602082108103610f9057610f8f610f39565b5b50919050565b7f45524332303a20696e73756666696369656e7420616c6c6f77616e63650000005f82015250565b5f610fca601d83610c74565b9150610fd582610f96565b602082019050919050565b5f6020820190508181035f830152610ff781610fbe565b9050919050565b7f4e487b71000000000000000000000000000000000000000000000000000000005f52601160045260245ffd5b5f61103582610d58565b915061104083610d58565b925082820390508181111561105857611057610ffe565b5b92915050565b7f4e6f7420636f6e7472616374204f776e657200000000000000000000000000005f82015250565b5f611092601283610c74565b915061109d8261105e565b602082019050919050565b5f6020820190508181035f8301526110bf81611086565b9050919050565b5f8160011c9050919050565b5f5f8291508390505b600185111561111b578086048111156110f7576110f6610ffe565b5b60018516156111065780820291505b8081029050611114856110c6565b94506110db565b94509492505050565b5f8261113357600190506111ee565b81611140575f90506111ee565b816001811461115657600281146111605761118f565b60019150506111ee565b60ff84111561117257611171610ffe565b5b8360020a91508482111561118957611188610ffe565b5b506111ee565b5060208310610133831016604e8410600b84101617156111c45782820a9050838111156111bf576111be610ffe565b5b6111ee565b6111d184848460016110d2565b925090508184048111156111e8576111e7610ffe565b5b81810290505b9392505050565b5f6111ff82610d58565b915061120a83610d58565b92506112377fffffffffffffffffffffffffffffffffffffffffffffffffffffffffffffffff8484611124565b905092915050565b5f61124982610d58565b915061125483610d58565b925082820261126281610d58565b9150828204841483151761127957611278610ffe565b5b5092915050565b7f45524332303a20617070726f76652066726f6d203078300000000000000000005f82015250565b5f6112b4601783610c74565b91506112bf82611280565b602082019050919050565b5f6020820190508181035f8301526112e1816112a8565b9050919050565b7f45524332303a20617070726f766520746f2030783000000000000000000000005f82015250565b5f61131c601583610c74565b9150611327826112e8565b602082019050919050565b5f6020820190508181035f83015261134981611310565b9050919050565b7f45524332303a207472616e736665722066726f6d2030783000000000000000005f82015250565b5f611384601883610c74565b915061138f82611350565b602082019050919050565b5f6020820190508181035f8301526113b181611378565b9050919050565b7f45524332303a207472616e7366657220746f20307830000000000000000000005f82015250565b5f6113ec601683610c74565b91506113f7826113b8565b602082019050919050565b5f6020820190508181035f830152611419816113e0565b9050919050565b7f45524332303a20696e73756666696369656e742062616c616e636500000000005f82015250565b5f611454601b83610c74565b915061145f82611420565b602082019050919050565b5f6020820190508181035f83015261148181611448565b9050919050565b5f61149282610d58565b915061149d83610d58565b92508282019050808211156114b5576114b4610ffe565b5b92915050565b7f496e76616c6964206164647265737300000000000000000000000000000000005f82015250565b5f6114ef600f83610c74565b91506114fa826114bb565b602082019050919050565b5f6020820190508181035f83015261151c816114e3565b905091905056fea264697066735822122023e99b672c2423e77fb02c781892de0ccb9d22542d255fabc1bfed382cb472fe64736f6c634300081e0033",
					"opcodes": "PUSH1 0xA0 PUSH1 0x40 MSTORE PUSH1 0x12 PUSH1 0x2 PUSH0 PUSH2 0x100 EXP DUP2 SLOAD DUP2 PUSH1 0xFF MUL NOT AND SWAP1 DUP4 PUSH1 0xFF AND MUL OR SWAP1 SSTORE POP PUSH0 PUSH1 0x4 PUSH1 0x14 PUSH2 0x100 EXP DUP2 SLOAD DUP2 PUSH1 0xFF MUL NOT AND SWAP1 DUP4 ISZERO ISZERO MUL OR SWAP1 SSTORE POP CALLVALUE DUP1 ISZERO PUSH2 0x44 JUMPI PUSH0 PUSH0 REVERT JUMPDEST POP PUSH1 0x40 MLOAD PUSH2 0x1F6E CODESIZE SUB DUP1 PUSH2 0x1F6E DUP4 CODECOPY DUP2 DUP2 ADD PUSH1 0x40 MSTORE DUP2 ADD SWAP1 PUSH2 0x66 SWAP2 SWAP1 PUSH2 0x3E8 JUMP JUMPDEST DUP3 PUSH0 SWAP1 DUP2 PUSH2 0x74 SWAP2 SWAP1 PUSH2 0x677 JUMP JUMPDEST POP DUP2 PUSH1 0x1 SWAP1 DUP2 PUSH2 0x84 SWAP2 SWAP1 PUSH2 0x677 JUMP JUMPDEST POP CALLER PUSH1 0x4 PUSH0 PUSH2 0x100 EXP DUP2 SLOAD DUP2 PUSH20 0xFFFFFFFFFFFFFFFFFFFFFFFFFFFFFFFFFFFFFFFF MUL NOT AND SWAP1 DUP4 PUSH20 0xFFFFFFFFFFFFFFFFFFFFFFFFFFFFFFFFFFFFFFFF AND MUL OR SWAP1 SSTORE POP PUSH2 0x11E PUSH1 0x4 PUSH0 SWAP1 SLOAD SWAP1 PUSH2 0x100 EXP SWAP1 DIV PUSH20 0xFFFFFFFFFFFFFFFFFFFFFFFFFFFFFFFFFFFFFFFF AND PUSH1 0x2 PUSH0 SWAP1 SLOAD SWAP1 PUSH2 0x100 EXP SWAP1 DIV PUSH1 0xFF AND PUSH1 0xFF AND PUSH1 0xA PUSH2 0x108 SWAP2 SWAP1 PUSH2 0x8A2 JUMP JUMPDEST DUP4 PUSH2 0x113 SWAP2 SWAP1 PUSH2 0x8EC JUMP JUMPDEST PUSH2 0x126 PUSH1 0x20 SHL PUSH1 0x20 SHR JUMP JUMPDEST POP POP POP PUSH2 0xA00 JUMP JUMPDEST PUSH0 PUSH20 0xFFFFFFFFFFFFFFFFFFFFFFFFFFFFFFFFFFFFFFFF AND DUP3 PUSH20 0xFFFFFFFFFFFFFFFFFFFFFFFFFFFFFFFFFFFFFFFF AND SUB PUSH2 0x194 JUMPI PUSH1 0x40 MLOAD PUSH32 0x8C379A000000000000000000000000000000000000000000000000000000000 DUP2 MSTORE PUSH1 0x4 ADD PUSH2 0x18B SWAP1 PUSH2 0x987 JUMP JUMPDEST PUSH1 0x40 MLOAD DUP1 SWAP2 SUB SWAP1 REVERT JUMPDEST DUP1 PUSH1 0x3 PUSH0 DUP3 DUP3 SLOAD PUSH2 0x1A5 SWAP2 SWAP1 PUSH2 0x9A5 JUMP JUMPDEST SWAP3 POP POP DUP2 SWAP1 SSTORE POP DUP1 PUSH1 0x5 PUSH0 DUP5 PUSH20 0xFFFFFFFFFFFFFFFFFFFFFFFFFFFFFFFFFFFFFFFF AND PUSH20 0xFFFFFFFFFFFFFFFFFFFFFFFFFFFFFFFFFFFFFFFF AND DUP2 MSTORE PUSH1 0x20 ADD SWAP1 DUP2 MSTORE PUSH1 0x20 ADD PUSH0 KECCAK256 PUSH0 DUP3 DUP3 SLOAD PUSH2 0x1F8 SWAP2 SWAP1 PUSH2 0x9A5 JUMP JUMPDEST SWAP3 POP POP DUP2 SWAP1 SSTORE POP DUP2 PUSH20 0xFFFFFFFFFFFFFFFFFFFFFFFFFFFFFFFFFFFFFFFF AND PUSH0 PUSH20 0xFFFFFFFFFFFFFFFFFFFFFFFFFFFFFFFFFFFFFFFF AND PUSH32 0xDDF252AD1BE2C89B69C2B068FC378DAA952BA7F163C4A11628F55A4DF523B3EF DUP4 PUSH1 0x40 MLOAD PUSH2 0x25C SWAP2 SWAP1 PUSH2 0x9E7 JUMP JUMPDEST PUSH1 0x40 MLOAD DUP1 SWAP2 SUB SWAP1 LOG3 POP POP JUMP JUMPDEST PUSH0 PUSH1 0x40 MLOAD SWAP1 POP SWAP1 JUMP JUMPDEST PUSH0 PUSH0 REVERT JUMPDEST PUSH0 PUSH0 REVERT JUMPDEST PUSH0 PUSH0 REVERT JUMPDEST PUSH0 PUSH0 REVERT JUMPDEST PUSH0 PUSH1 0x1F NOT PUSH1 0x1F DUP4 ADD AND SWAP1 POP SWAP2 SWAP1 POP JUMP JUMPDEST PUSH32 0x4E487B7100000000000000000000000000000000000000000000000000000000 PUSH0 MSTORE PUSH1 0x41 PUSH1 0x4 MSTORE PUSH1 0x24 PUSH0 REVERT JUMPDEST PUSH2 0x2C7 DUP3 PUSH2 0x281 JUMP JUMPDEST DUP2 ADD DUP2 DUP2 LT PUSH8 0xFFFFFFFFFFFFFFFF DUP3 GT OR ISZERO PUSH2 0x2E6 JUMPI PUSH2 0x2E5 PUSH2 0x291 JUMP JUMPDEST JUMPDEST DUP1 PUSH1 0x40 MSTORE POP POP POP JUMP JUMPDEST PUSH0 PUSH2 0x2F8 PUSH2 0x268 JUMP JUMPDEST SWAP1 POP PUSH2 0x304 DUP3 DUP3 PUSH2 0x2BE JUMP JUMPDEST SWAP2 SWAP1 POP JUMP JUMPDEST PUSH0 PUSH8 0xFFFFFFFFFFFFFFFF DUP3 GT ISZERO PUSH2 0x323 JUMPI PUSH2 0x322 PUSH2 0x291 JUMP JUMPDEST JUMPDEST PUSH2 0x32C DUP3 PUSH2 0x281 JUMP JUMPDEST SWAP1 POP PUSH1 0x20 DUP2 ADD SWAP1 POP SWAP2 SWAP1 POP JUMP JUMPDEST DUP3 DUP2 DUP4 MCOPY PUSH0 DUP4 DUP4 ADD MSTORE POP POP POP JUMP JUMPDEST PUSH0 PUSH2 0x359 PUSH2 0x354 DUP5 PUSH2 0x309 JUMP JUMPDEST PUSH2 0x2EF JUMP JUMPDEST SWAP1 POP DUP3 DUP2 MSTORE PUSH1 0x20 DUP2 ADD DUP5 DUP5 DUP5 ADD GT ISZERO PUSH2 0x375 JUMPI PUSH2 0x374 PUSH2 0x27D JUMP JUMPDEST JUMPDEST PUSH2 0x380 DUP5 DUP3 DUP6 PUSH2 0x339 JUMP JUMPDEST POP SWAP4 SWAP3 POP POP POP JUMP JUMPDEST PUSH0 DUP3 PUSH1 0x1F DUP4 ADD SLT PUSH2 0x39C JUMPI PUSH2 0x39B PUSH2 0x279 JUMP JUMPDEST JUMPDEST DUP2 MLOAD PUSH2 0x3AC DUP5 DUP3 PUSH1 0x20 DUP7 ADD PUSH2 0x347 JUMP JUMPDEST SWAP2 POP POP SWAP3 SWAP2 POP POP JUMP JUMPDEST PUSH0 DUP2 SWAP1 POP SWAP2 SWAP1 POP JUMP JUMPDEST PUSH2 0x3C7 DUP2 PUSH2 0x3B5 JUMP JUMPDEST DUP2 EQ PUSH2 0x3D1 JUMPI PUSH0 PUSH0 REVERT JUMPDEST POP JUMP JUMPDEST PUSH0 DUP2 MLOAD SWAP1 POP PUSH2 0x3E2 DUP2 PUSH2 0x3BE JUMP JUMPDEST SWAP3 SWAP2 POP POP JUMP JUMPDEST PUSH0 PUSH0 PUSH0 PUSH1 0x60 DUP5 DUP7 SUB SLT ISZERO PUSH2 0x3FF JUMPI PUSH2 0x3FE PUSH2 0x271 JUMP JUMPDEST JUMPDEST PUSH0 DUP5 ADD MLOAD PUSH8 0xFFFFFFFFFFFFFFFF DUP2 GT ISZERO PUSH2 0x41C JUMPI PUSH2 0x41B PUSH2 0x275 JUMP JUMPDEST JUMPDEST PUSH2 0x428 DUP7 DUP3 DUP8 ADD PUSH2 0x388 JUMP JUMPDEST SWAP4 POP POP PUSH1 0x20 DUP5 ADD MLOAD PUSH8 0xFFFFFFFFFFFFFFFF DUP2 GT ISZERO PUSH2 0x449 JUMPI PUSH2 0x448 PUSH2 0x275 JUMP JUMPDEST JUMPDEST PUSH2 0x455 DUP7 DUP3 DUP8 ADD PUSH2 0x388 JUMP JUMPDEST SWAP3 POP POP PUSH1 0x40 PUSH2 0x466 DUP7 DUP3 DUP8 ADD PUSH2 0x3D4 JUMP JUMPDEST SWAP2 POP POP SWAP3 POP SWAP3 POP SWAP3 JUMP JUMPDEST PUSH0 DUP2 MLOAD SWAP1 POP SWAP2 SWAP1 POP JUMP JUMPDEST PUSH32 0x4E487B7100000000000000000000000000000000000000000000000000000000 PUSH0 MSTORE PUSH1 0x22 PUSH1 0x4 MSTORE PUSH1 0x24 PUSH0 REVERT JUMPDEST PUSH0 PUSH1 0x2 DUP3 DIV SWAP1 POP PUSH1 0x1 DUP3 AND DUP1 PUSH2 0x4BE JUMPI PUSH1 0x7F DUP3 AND SWAP2 POP JUMPDEST PUSH1 0x20 DUP3 LT DUP2 SUB PUSH2 0x4D1 JUMPI PUSH2 0x4D0 PUSH2 0x47A JUMP JUMPDEST JUMPDEST POP SWAP2 SWAP1 POP JUMP JUMPDEST PUSH0 DUP2 SWAP1 POP DUP2 PUSH0 MSTORE PUSH1 0x20 PUSH0 KECCAK256 SWAP1 POP SWAP2 SWAP1 POP JUMP JUMPDEST PUSH0 PUSH1 0x20 PUSH1 0x1F DUP4 ADD DIV SWAP1 POP SWAP2 SWAP1 POP JUMP JUMPDEST PUSH0 DUP3 DUP3 SHL SWAP1 POP SWAP3 SWAP2 POP POP JUMP JUMPDEST PUSH0 PUSH1 0x8 DUP4 MUL PUSH2 0x533 PUSH32 0xFFFFFFFFFFFFFFFFFFFFFFFFFFFFFFFFFFFFFFFFFFFFFFFFFFFFFFFFFFFFFFFF DUP3 PUSH2 0x4F8 JUMP JUMPDEST PUSH2 0x53D DUP7 DUP4 PUSH2 0x4F8 JUMP JUMPDEST SWAP6 POP DUP1 NOT DUP5 AND SWAP4 POP DUP1 DUP7 AND DUP5 OR SWAP3 POP POP POP SWAP4 SWAP3 POP POP POP JUMP JUMPDEST PUSH0 DUP2 SWAP1 POP SWAP2 SWAP1 POP JUMP JUMPDEST PUSH0 PUSH2 0x578 PUSH2 0x573 PUSH2 0x56E DUP5 PUSH2 0x3B5 JUMP JUMPDEST PUSH2 0x555 JUMP JUMPDEST PUSH2 0x3B5 JUMP JUMPDEST SWAP1 POP SWAP2 SWAP1 POP JUMP JUMPDEST PUSH0 DUP2 SWAP1 POP SWAP2 SWAP1 POP JUMP JUMPDEST PUSH2 0x591 DUP4 PUSH2 0x55E JUMP JUMPDEST PUSH2 0x5A5 PUSH2 0x59D DUP3 PUSH2 0x57F JUMP JUMPDEST DUP5 DUP5 SLOAD PUSH2 0x504 JUMP JUMPDEST DUP3 SSTORE POP POP POP POP JUMP JUMPDEST PUSH0 PUSH0 SWAP1 POP SWAP1 JUMP JUMPDEST PUSH2 0x5BC PUSH2 0x5AD JUMP JUMPDEST PUSH2 0x5C7 DUP2 DUP5 DUP5 PUSH2 0x588 JUMP JUMPDEST POP POP POP JUMP JUMPDEST JUMPDEST DUP2 DUP2 LT ISZERO PUSH2 0x5EA JUMPI PUSH2 0x5DF PUSH0 DUP3 PUSH2 0x5B4 JUMP JUMPDEST PUSH1 0x1 DUP2 ADD SWAP1 POP PUSH2 0x5CD JUMP JUMPDEST POP POP JUMP JUMPDEST PUSH1 0x1F DUP3 GT ISZERO PUSH2 0x62F JUMPI PUSH2 0x600 DUP2 PUSH2 0x4D7 JUMP JUMPDEST PUSH2 0x609 DUP5 PUSH2 0x4E9 JUMP JUMPDEST DUP2 ADD PUSH1 0x20 DUP6 LT ISZERO PUSH2 0x618 JUMPI DUP2 SWAP1 POP JUMPDEST PUSH2 0x62C PUSH2 0x624 DUP6 PUSH2 0x4E9 JUMP JUMPDEST DUP4 ADD DUP3 PUSH2 0x5CC JUMP JUMPDEST POP POP JUMPDEST POP POP POP JUMP JUMPDEST PUSH0 DUP3 DUP3 SHR SWAP1 POP SWAP3 SWAP2 POP POP JUMP JUMPDEST PUSH0 PUSH2 0x64F PUSH0 NOT DUP5 PUSH1 0x8 MUL PUSH2 0x634 JUMP JUMPDEST NOT DUP1 DUP4 AND SWAP2 POP POP SWAP3 SWAP2 POP POP JUMP JUMPDEST PUSH0 PUSH2 0x667 DUP4 DUP4 PUSH2 0x640 JUMP JUMPDEST SWAP2 POP DUP3 PUSH1 0x2 MUL DUP3 OR SWAP1 POP SWAP3 SWAP2 POP POP JUMP JUMPDEST PUSH2 0x680 DUP3 PUSH2 0x470 JUMP JUMPDEST PUSH8 0xFFFFFFFFFFFFFFFF DUP2 GT ISZERO PUSH2 0x699 JUMPI PUSH2 0x698 PUSH2 0x291 JUMP JUMPDEST JUMPDEST PUSH2 0x6A3 DUP3 SLOAD PUSH2 0x4A7 JUMP JUMPDEST PUSH2 0x6AE DUP3 DUP3 DUP6 PUSH2 0x5EE JUMP JUMPDEST PUSH0 PUSH1 0x20 SWAP1 POP PUSH1 0x1F DUP4 GT PUSH1 0x1 DUP2 EQ PUSH2 0x6DF JUMPI PUSH0 DUP5 ISZERO PUSH2 0x6CD JUMPI DUP3 DUP8 ADD MLOAD SWAP1 POP JUMPDEST PUSH2 0x6D7 DUP6 DUP3 PUSH2 0x65C JUMP JUMPDEST DUP7 SSTORE POP PUSH2 0x73E JUMP JUMPDEST PUSH1 0x1F NOT DUP5 AND PUSH2 0x6ED DUP7 PUSH2 0x4D7 JUMP JUMPDEST PUSH0 JUMPDEST DUP3 DUP2 LT ISZERO PUSH2 0x714 JUMPI DUP5 DUP10 ADD MLOAD DUP3 SSTORE PUSH1 0x1 DUP3 ADD SWAP2 POP PUSH1 0x20 DUP6 ADD SWAP5 POP PUSH1 0x20 DUP2 ADD SWAP1 POP PUSH2 0x6EF JUMP JUMPDEST DUP7 DUP4 LT ISZERO PUSH2 0x731 JUMPI DUP5 DUP10 ADD MLOAD PUSH2 0x72D PUSH1 0x1F DUP10 AND DUP3 PUSH2 0x640 JUMP JUMPDEST DUP4 SSTORE POP JUMPDEST PUSH1 0x1 PUSH1 0x2 DUP9 MUL ADD DUP9 SSTORE POP POP POP JUMPDEST POP POP POP POP POP POP JUMP JUMPDEST PUSH32 0x4E487B7100000000000000000000000000000000000000000000000000000000 PUSH0 MSTORE PUSH1 0x11 PUSH1 0x4 MSTORE PUSH1 0x24 PUSH0 REVERT JUMPDEST PUSH0 DUP2 PUSH1 0x1 SHR SWAP1 POP SWAP2 SWAP1 POP JUMP JUMPDEST PUSH0 PUSH0 DUP3 SWAP2 POP DUP4 SWAP1 POP JUMPDEST PUSH1 0x1 DUP6 GT ISZERO PUSH2 0x7C8 JUMPI DUP1 DUP7 DIV DUP2 GT ISZERO PUSH2 0x7A4 JUMPI PUSH2 0x7A3 PUSH2 0x746 JUMP JUMPDEST JUMPDEST PUSH1 0x1 DUP6 AND ISZERO PUSH2 0x7B3 JUMPI DUP1 DUP3 MUL SWAP2 POP JUMPDEST DUP1 DUP2 MUL SWAP1 POP PUSH2 0x7C1 DUP6 PUSH2 0x773 JUMP JUMPDEST SWAP5 POP PUSH2 0x788 JUMP JUMPDEST SWAP5 POP SWAP5 SWAP3 POP POP POP JUMP JUMPDEST PUSH0 DUP3 PUSH2 0x7E0 JUMPI PUSH1 0x1 SWAP1 POP PUSH2 0x89B JUMP JUMPDEST DUP2 PUSH2 0x7ED JUMPI PUSH0 SWAP1 POP PUSH2 0x89B JUMP JUMPDEST DUP2 PUSH1 0x1 DUP2 EQ PUSH2 0x803 JUMPI PUSH1 0x2 DUP2 EQ PUSH2 0x80D JUMPI PUSH2 0x83C JUMP JUMPDEST PUSH1 0x1 SWAP2 POP POP PUSH2 0x89B JUMP JUMPDEST PUSH1 0xFF DUP5 GT ISZERO PUSH2 0x81F JUMPI PUSH2 0x81E PUSH2 0x746 JUMP JUMPDEST JUMPDEST DUP4 PUSH1 0x2 EXP SWAP2 POP DUP5 DUP3 GT ISZERO PUSH2 0x836 JUMPI PUSH2 0x835 PUSH2 0x746 JUMP JUMPDEST JUMPDEST POP PUSH2 0x89B JUMP JUMPDEST POP PUSH1 0x20 DUP4 LT PUSH2 0x133 DUP4 LT AND PUSH1 0x4E DUP5 LT PUSH1 0xB DUP5 LT AND OR ISZERO PUSH2 0x871 JUMPI DUP3 DUP3 EXP SWAP1 POP DUP4 DUP2 GT ISZERO PUSH2 0x86C JUMPI PUSH2 0x86B PUSH2 0x746 JUMP JUMPDEST JUMPDEST PUSH2 0x89B JUMP JUMPDEST PUSH2 0x87E DUP5 DUP5 DUP5 PUSH1 0x1 PUSH2 0x77F JUMP JUMPDEST SWAP3 POP SWAP1 POP DUP2 DUP5 DIV DUP2 GT ISZERO PUSH2 0x895 JUMPI PUSH2 0x894 PUSH2 0x746 JUMP JUMPDEST JUMPDEST DUP2 DUP2 MUL SWAP1 POP JUMPDEST SWAP4 SWAP3 POP POP POP JUMP JUMPDEST PUSH0 PUSH2 0x8AC DUP3 PUSH2 0x3B5 JUMP JUMPDEST SWAP2 POP PUSH2 0x8B7 DUP4 PUSH2 0x3B5 JUMP JUMPDEST SWAP3 POP PUSH2 0x8E4 PUSH32 0xFFFFFFFFFFFFFFFFFFFFFFFFFFFFFFFFFFFFFFFFFFFFFFFFFFFFFFFFFFFFFFFF DUP5 DUP5 PUSH2 0x7D1 JUMP JUMPDEST SWAP1 POP SWAP3 SWAP2 POP POP JUMP JUMPDEST PUSH0 PUSH2 0x8F6 DUP3 PUSH2 0x3B5 JUMP JUMPDEST SWAP2 POP PUSH2 0x901 DUP4 PUSH2 0x3B5 JUMP JUMPDEST SWAP3 POP DUP3 DUP3 MUL PUSH2 0x90F DUP2 PUSH2 0x3B5 JUMP JUMPDEST SWAP2 POP DUP3 DUP3 DIV DUP5 EQ DUP4 ISZERO OR PUSH2 0x926 JUMPI PUSH2 0x925 PUSH2 0x746 JUMP JUMPDEST JUMPDEST POP SWAP3 SWAP2 POP POP JUMP JUMPDEST PUSH0 DUP3 DUP3 MSTORE PUSH1 0x20 DUP3 ADD SWAP1 POP SWAP3 SWAP2 POP POP JUMP JUMPDEST PUSH32 0x496E76616C696420616464726573730000000000000000000000000000000000 PUSH0 DUP3 ADD MSTORE POP JUMP JUMPDEST PUSH0 PUSH2 0x971 PUSH1 0xF DUP4 PUSH2 0x92D JUMP JUMPDEST SWAP2 POP PUSH2 0x97C DUP3 PUSH2 0x93D JUMP JUMPDEST PUSH1 0x20 DUP3 ADD SWAP1 POP SWAP2 SWAP1 POP JUMP JUMPDEST PUSH0 PUSH1 0x20 DUP3 ADD SWAP1 POP DUP2 DUP2 SUB PUSH0 DUP4 ADD MSTORE PUSH2 0x99E DUP2 PUSH2 0x965 JUMP JUMPDEST SWAP1 POP SWAP2 SWAP1 POP JUMP JUMPDEST PUSH0 PUSH2 0x9AF DUP3 PUSH2 0x3B5 JUMP JUMPDEST SWAP2 POP PUSH2 0x9BA DUP4 PUSH2 0x3B5 JUMP JUMPDEST SWAP3 POP DUP3 DUP3 ADD SWAP1 POP DUP1 DUP3 GT ISZERO PUSH2 0x9D2 JUMPI PUSH2 0x9D1 PUSH2 0x746 JUMP JUMPDEST JUMPDEST SWAP3 SWAP2 POP POP JUMP JUMPDEST PUSH2 0x9E1 DUP2 PUSH2 0x3B5 JUMP JUMPDEST DUP3 MSTORE POP POP JUMP JUMPDEST PUSH0 PUSH1 0x20 DUP3 ADD SWAP1 POP PUSH2 0x9FA PUSH0 DUP4 ADD DUP5 PUSH2 0x9D8 JUMP JUMPDEST SWAP3 SWAP2 POP POP JUMP JUMPDEST PUSH1 0x80 MLOAD PUSH2 0x1559 PUSH2 0xA15 PUSH0 CODECOPY PUSH0 POP POP PUSH2 0x1559 PUSH0 RETURN INVALID PUSH1 0x80 PUSH1 0x40 MSTORE CALLVALUE DUP1 ISZERO PUSH2 0xF JUMPI PUSH0 PUSH0 REVERT JUMPDEST POP PUSH1 0x4 CALLDATASIZE LT PUSH2 0xB2 JUMPI PUSH0 CALLDATALOAD PUSH1 0xE0 SHR DUP1 PUSH4 0x70A08231 GT PUSH2 0x6F JUMPI DUP1 PUSH4 0x70A08231 EQ PUSH2 0x18C JUMPI DUP1 PUSH4 0x72DD529B EQ PUSH2 0x1BC JUMPI DUP1 PUSH4 0x8DA5CB5B EQ PUSH2 0x1DA JUMPI DUP1 PUSH4 0x95D89B41 EQ PUSH2 0x1F8 JUMPI DUP1 PUSH4 0xA9059CBB EQ PUSH2 0x216 JUMPI DUP1 PUSH4 0xDD62ED3E EQ PUSH2 0x246 JUMPI PUSH2 0xB2 JUMP JUMPDEST DUP1 PUSH4 0x6FDDE03 EQ PUSH2 0xB6 JUMPI DUP1 PUSH4 0x95EA7B3 EQ PUSH2 0xD4 JUMPI DUP1 PUSH4 0x23B872DD EQ PUSH2 0x104 JUMPI DUP1 PUSH4 0x313CE567 EQ PUSH2 0x134 JUMPI DUP1 PUSH4 0x40C10F19 EQ PUSH2 0x152 JUMPI DUP1 PUSH4 0x5C975ABB EQ PUSH2 0x16E JUMPI JUMPDEST PUSH0 PUSH0 REVERT JUMPDEST PUSH2 0xBE PUSH2 0x276 JUMP JUMPDEST PUSH1 0x40 MLOAD PUSH2 0xCB SWAP2 SWAP1 PUSH2 0xCDA JUMP JUMPDEST PUSH1 0x40 MLOAD DUP1 SWAP2 SUB SWAP1 RETURN JUMPDEST PUSH2 0xEE PUSH1 0x4 DUP1 CALLDATASIZE SUB DUP2 ADD SWAP1 PUSH2 0xE9 SWAP2 SWAP1 PUSH2 0xD8B JUMP JUMPDEST PUSH2 0x301 JUMP JUMPDEST PUSH1 0x40 MLOAD PUSH2 0xFB SWAP2 SWAP1 PUSH2 0xDE3 JUMP JUMPDEST PUSH1 0x40 MLOAD DUP1 SWAP2 SUB SWAP1 RETURN JUMPDEST PUSH2 0x11E PUSH1 0x4 DUP1 CALLDATASIZE SUB DUP2 ADD SWAP1 PUSH2 0x119 SWAP2 SWAP1 PUSH2 0xDFC JUMP JUMPDEST PUSH2 0x317 JUMP JUMPDEST PUSH1 0x40 MLOAD PUSH2 0x12B SWAP2 SWAP1 PUSH2 0xDE3 JUMP JUMPDEST PUSH1 0x40 MLOAD DUP1 SWAP2 SUB SWAP1 RETURN JUMPDEST PUSH2 0x13C PUSH2 0x477 JUMP JUMPDEST PUSH1 0x40 MLOAD PUSH2 0x149 SWAP2 SWAP1 PUSH2 0xE67 JUMP JUMPDEST PUSH1 0x40 MLOAD DUP1 SWAP2 SUB SWAP1 RETURN JUMPDEST PUSH2 0x16C PUSH1 0x4 DUP1 CALLDATASIZE SUB DUP2 ADD SWAP1 PUSH2 0x167 SWAP2 SWAP1 PUSH2 0xD8B JUMP JUMPDEST PUSH2 0x489 JUMP JUMPDEST STOP JUMPDEST PUSH2 0x176 PUSH2 0x54E JUMP JUMPDEST PUSH1 0x40 MLOAD PUSH2 0x183 SWAP2 SWAP1 PUSH2 0xDE3 JUMP JUMPDEST PUSH1 0x40 MLOAD DUP1 SWAP2 SUB SWAP1 RETURN JUMPDEST PUSH2 0x1A6 PUSH1 0x4 DUP1 CALLDATASIZE SUB DUP2 ADD SWAP1 PUSH2 0x1A1 SWAP2 SWAP1 PUSH2 0xE80 JUMP JUMPDEST PUSH2 0x561 JUMP JUMPDEST PUSH1 0x40 MLOAD PUSH2 0x1B3 SWAP2 SWAP1 PUSH2 0xEBA JUMP JUMPDEST PUSH1 0x40 MLOAD DUP1 SWAP2 SUB SWAP1 RETURN JUMPDEST PUSH2 0x1C4 PUSH2 0x5A7 JUMP JUMPDEST PUSH1 0x40 MLOAD PUSH2 0x1D1 SWAP2 SWAP1 PUSH2 0xEBA JUMP JUMPDEST PUSH1 0x40 MLOAD DUP1 SWAP2 SUB SWAP1 RETURN JUMPDEST PUSH2 0x1E2 PUSH2 0x5B0 JUMP JUMPDEST PUSH1 0x40 MLOAD PUSH2 0x1EF SWAP2 SWAP1 PUSH2 0xEE2 JUMP JUMPDEST PUSH1 0x40 MLOAD DUP1 SWAP2 SUB SWAP1 RETURN JUMPDEST PUSH2 0x200 PUSH2 0x5D5 JUMP JUMPDEST PUSH1 0x40 MLOAD PUSH2 0x20D SWAP2 SWAP1 PUSH2 0xCDA JUMP JUMPDEST PUSH1 0x40 MLOAD DUP1 SWAP2 SUB SWAP1 RETURN JUMPDEST PUSH2 0x230 PUSH1 0x4 DUP1 CALLDATASIZE SUB DUP2 ADD SWAP1 PUSH2 0x22B SWAP2 SWAP1 PUSH2 0xD8B JUMP JUMPDEST PUSH2 0x661 JUMP JUMPDEST PUSH1 0x40 MLOAD PUSH2 0x23D SWAP2 SWAP1 PUSH2 0xDE3 JUMP JUMPDEST PUSH1 0x40 MLOAD DUP1 SWAP2 SUB SWAP1 RETURN JUMPDEST PUSH2 0x260 PUSH1 0x4 DUP1 CALLDATASIZE SUB DUP2 ADD SWAP1 PUSH2 0x25B SWAP2 SWAP1 PUSH2 0xEFB JUMP JUMPDEST PUSH2 0x677 JUMP JUMPDEST PUSH1 0x40 MLOAD PUSH2 0x26D SWAP2 SWAP1 PUSH2 0xEBA JUMP JUMPDEST PUSH1 0x40 MLOAD DUP1 SWAP2 SUB SWAP1 RETURN JUMPDEST PUSH0 DUP1 SLOAD PUSH2 0x282 SWAP1 PUSH2 0xF66 JUMP JUMPDEST DUP1 PUSH1 0x1F ADD PUSH1 0x20 DUP1 SWAP2 DIV MUL PUSH1 0x20 ADD PUSH1 0x40 MLOAD SWAP1 DUP2 ADD PUSH1 0x40 MSTORE DUP1 SWAP3 SWAP2 SWAP1 DUP2 DUP2 MSTORE PUSH1 0x20 ADD DUP3 DUP1 SLOAD PUSH2 0x2AE SWAP1 PUSH2 0xF66 JUMP JUMPDEST DUP1 ISZERO PUSH2 0x2F9 JUMPI DUP1 PUSH1 0x1F LT PUSH2 0x2D0 JUMPI PUSH2 0x100 DUP1 DUP4 SLOAD DIV MUL DUP4 MSTORE SWAP2 PUSH1 0x20 ADD SWAP2 PUSH2 0x2F9 JUMP JUMPDEST DUP3 ADD SWAP2 SWAP1 PUSH0 MSTORE PUSH1 0x20 PUSH0 KECCAK256 SWAP1 JUMPDEST DUP2 SLOAD DUP2 MSTORE SWAP1 PUSH1 0x1 ADD SWAP1 PUSH1 0x20 ADD DUP1 DUP4 GT PUSH2 0x2DC JUMPI DUP3 SWAP1 SUB PUSH1 0x1F AND DUP3 ADD SWAP2 JUMPDEST POP POP POP POP POP DUP2 JUMP JUMPDEST PUSH0 PUSH2 0x30D CALLER DUP5 DUP5 PUSH2 0x6F9 JUMP JUMPDEST PUSH1 0x1 SWAP1 POP SWAP3 SWAP2 POP POP JUMP JUMPDEST PUSH0 DUP2 PUSH1 0x6 PUSH0 DUP7 PUSH20 0xFFFFFFFFFFFFFFFFFFFFFFFFFFFFFFFFFFFFFFFF AND PUSH20 0xFFFFFFFFFFFFFFFFFFFFFFFFFFFFFFFFFFFFFFFF AND DUP2 MSTORE PUSH1 0x20 ADD SWAP1 DUP2 MSTORE PUSH1 0x20 ADD PUSH0 KECCAK256 PUSH0 CALLER PUSH20 0xFFFFFFFFFFFFFFFFFFFFFFFFFFFFFFFFFFFFFFFF AND PUSH20 0xFFFFFFFFFFFFFFFFFFFFFFFFFFFFFFFFFFFFFFFF AND DUP2 MSTORE PUSH1 0x20 ADD SWAP1 DUP2 MSTORE PUSH1 0x20 ADD PUSH0 KECCAK256 SLOAD LT ISZERO PUSH2 0x3D3 JUMPI PUSH1 0x40 MLOAD PUSH32 0x8C379A000000000000000000000000000000000000000000000000000000000 DUP2 MSTORE PUSH1 0x4 ADD PUSH2 0x3CA SWAP1 PUSH2 0xFE0 JUMP JUMPDEST PUSH1 0x40 MLOAD DUP1 SWAP2 SUB SWAP1 REVERT JUMPDEST DUP2 PUSH1 0x6 PUSH0 DUP7 PUSH20 0xFFFFFFFFFFFFFFFFFFFFFFFFFFFFFFFFFFFFFFFF AND PUSH20 0xFFFFFFFFFFFFFFFFFFFFFFFFFFFFFFFFFFFFFFFF AND DUP2 MSTORE PUSH1 0x20 ADD SWAP1 DUP2 MSTORE PUSH1 0x20 ADD PUSH0 KECCAK256 PUSH0 CALLER PUSH20 0xFFFFFFFFFFFFFFFFFFFFFFFFFFFFFFFFFFFFFFFF AND PUSH20 0xFFFFFFFFFFFFFFFFFFFFFFFFFFFFFFFFFFFFFFFF AND DUP2 MSTORE PUSH1 0x20 ADD SWAP1 DUP2 MSTORE PUSH1 0x20 ADD PUSH0 KECCAK256 PUSH0 DUP3 DUP3 SLOAD PUSH2 0x45A SWAP2 SWAP1 PUSH2 0x102B JUMP JUMPDEST SWAP3 POP POP DUP2 SWAP1 SSTORE POP PUSH2 0x46C DUP5 DUP5 DUP5 PUSH2 0x8BC JUMP JUMPDEST PUSH1 0x1 SWAP1 POP SWAP4 SWAP3 POP POP POP JUMP JUMPDEST PUSH1 0x2 PUSH0 SWAP1 SLOAD SWAP1 PUSH2 0x100 EXP SWAP1 DIV PUSH1 0xFF AND DUP2 JUMP JUMPDEST PUSH1 0x4 PUSH0 SWAP1 SLOAD SWAP1 PUSH2 0x100 EXP SWAP1 DIV PUSH20 0xFFFFFFFFFFFFFFFFFFFFFFFFFFFFFFFFFFFFFFFF AND PUSH20 0xFFFFFFFFFFFFFFFFFFFFFFFFFFFFFFFFFFFFFFFF AND CALLER PUSH20 0xFFFFFFFFFFFFFFFFFFFFFFFFFFFFFFFFFFFFFFFF AND EQ PUSH2 0x518 JUMPI PUSH1 0x40 MLOAD PUSH32 0x8C379A000000000000000000000000000000000000000000000000000000000 DUP2 MSTORE PUSH1 0x4 ADD PUSH2 0x50F SWAP1 PUSH2 0x10A8 JUMP JUMPDEST PUSH1 0x40 MLOAD DUP1 SWAP2 SUB SWAP1 REVERT JUMPDEST PUSH2 0x54A DUP3 PUSH1 0x2 PUSH0 SWAP1 SLOAD SWAP1 PUSH2 0x100 EXP SWAP1 DIV PUSH1 0xFF AND PUSH1 0xFF AND PUSH1 0xA PUSH2 0x53A SWAP2 SWAP1 PUSH2 0x11F5 JUMP JUMPDEST DUP4 PUSH2 0x545 SWAP2 SWAP1 PUSH2 0x123F JUMP JUMPDEST PUSH2 0xB28 JUMP JUMPDEST POP POP JUMP JUMPDEST PUSH1 0x4 PUSH1 0x14 SWAP1 SLOAD SWAP1 PUSH2 0x100 EXP SWAP1 DIV PUSH1 0xFF AND DUP2 JUMP JUMPDEST PUSH0 PUSH1 0x5 PUSH0 DUP4 PUSH20 0xFFFFFFFFFFFFFFFFFFFFFFFFFFFFFFFFFFFFFFFF AND PUSH20 0xFFFFFFFFFFFFFFFFFFFFFFFFFFFFFFFFFFFFFFFF AND DUP2 MSTORE PUSH1 0x20 ADD SWAP1 DUP2 MSTORE PUSH1 0x20 ADD PUSH0 KECCAK256 SLOAD SWAP1 POP SWAP2 SWAP1 POP JUMP JUMPDEST PUSH0 PUSH1 0x3 SLOAD SWAP1 POP SWAP1 JUMP JUMPDEST PUSH1 0x4 PUSH0 SWAP1 SLOAD SWAP1 PUSH2 0x100 EXP SWAP1 DIV PUSH20 0xFFFFFFFFFFFFFFFFFFFFFFFFFFFFFFFFFFFFFFFF AND DUP2 JUMP JUMPDEST PUSH1 0x1 DUP1 SLOAD PUSH2 0x5E2 SWAP1 PUSH2 0xF66 JUMP JUMPDEST DUP1 PUSH1 0x1F ADD PUSH1 0x20 DUP1 SWAP2 DIV MUL PUSH1 0x20 ADD PUSH1 0x40 MLOAD SWAP1 DUP2 ADD PUSH1 0x40 MSTORE DUP1 SWAP3 SWAP2 SWAP1 DUP2 DUP2 MSTORE PUSH1 0x20 ADD DUP3 DUP1 SLOAD PUSH2 0x60E SWAP1 PUSH2 0xF66 JUMP JUMPDEST DUP1 ISZERO PUSH2 0x659 JUMPI DUP1 PUSH1 0x1F LT PUSH2 0x630 JUMPI PUSH2 0x100 DUP1 DUP4 SLOAD DIV MUL DUP4 MSTORE SWAP2 PUSH1 0x20 ADD SWAP2 PUSH2 0x659 JUMP JUMPDEST DUP3 ADD SWAP2 SWAP1 PUSH0 MSTORE PUSH1 0x20 PUSH0 KECCAK256 SWAP1 JUMPDEST DUP2 SLOAD DUP2 MSTORE SWAP1 PUSH1 0x1 ADD SWAP1 PUSH1 0x20 ADD DUP1 DUP4 GT PUSH2 0x63C JUMPI DUP3 SWAP1 SUB PUSH1 0x1F AND DUP3 ADD SWAP2 JUMPDEST POP POP POP POP POP DUP2 JUMP JUMPDEST PUSH0 PUSH2 0x66D CALLER DUP5 DUP5 PUSH2 0x8BC JUMP JUMPDEST PUSH1 0x1 SWAP1 POP SWAP3 SWAP2 POP POP JUMP JUMPDEST PUSH0 PUSH1 0x6 PUSH0 DUP5 PUSH20 0xFFFFFFFFFFFFFFFFFFFFFFFFFFFFFFFFFFFFFFFF AND PUSH20 0xFFFFFFFFFFFFFFFFFFFFFFFFFFFFFFFFFFFFFFFF AND DUP2 MSTORE PUSH1 0x20 ADD SWAP1 DUP2 MSTORE PUSH1 0x20 ADD PUSH0 KECCAK256 PUSH0 DUP4 PUSH20 0xFFFFFFFFFFFFFFFFFFFFFFFFFFFFFFFFFFFFFFFF AND PUSH20 0xFFFFFFFFFFFFFFFFFFFFFFFFFFFFFFFFFFFFFFFF AND DUP2 MSTORE PUSH1 0x20 ADD SWAP1 DUP2 MSTORE PUSH1 0x20 ADD PUSH0 KECCAK256 SLOAD SWAP1 POP SWAP3 SWAP2 POP POP JUMP JUMPDEST PUSH0 PUSH20 0xFFFFFFFFFFFFFFFFFFFFFFFFFFFFFFFFFFFFFFFF AND DUP4 PUSH20 0xFFFFFFFFFFFFFFFFFFFFFFFFFFFFFFFFFFFFFFFF AND SUB PUSH2 0x767 JUMPI PUSH1 0x40 MLOAD PUSH32 0x8C379A000000000000000000000000000000000000000000000000000000000 DUP2 MSTORE PUSH1 0x4 ADD PUSH2 0x75E SWAP1 PUSH2 0x12CA JUMP JUMPDEST PUSH1 0x40 MLOAD DUP1 SWAP2 SUB SWAP1 REVERT JUMPDEST PUSH0 PUSH20 0xFFFFFFFFFFFFFFFFFFFFFFFFFFFFFFFFFFFFFFFF AND DUP3 PUSH20 0xFFFFFFFFFFFFFFFFFFFFFFFFFFFFFFFFFFFFFFFF AND SUB PUSH2 0x7D5 JUMPI PUSH1 0x40 MLOAD PUSH32 0x8C379A000000000000000000000000000000000000000000000000000000000 DUP2 MSTORE PUSH1 0x4 ADD PUSH2 0x7CC SWAP1 PUSH2 0x1332 JUMP JUMPDEST PUSH1 0x40 MLOAD DUP1 SWAP2 SUB SWAP1 REVERT JUMPDEST DUP1 PUSH1 0x6 PUSH0 DUP6 PUSH20 0xFFFFFFFFFFFFFFFFFFFFFFFFFFFFFFFFFFFFFFFF AND PUSH20 0xFFFFFFFFFFFFFFFFFFFFFFFFFFFFFFFFFFFFFFFF AND DUP2 MSTORE PUSH1 0x20 ADD SWAP1 DUP2 MSTORE PUSH1 0x20 ADD PUSH0 KECCAK256 PUSH0 DUP5 PUSH20 0xFFFFFFFFFFFFFFFFFFFFFFFFFFFFFFFFFFFFFFFF AND PUSH20 0xFFFFFFFFFFFFFFFFFFFFFFFFFFFFFFFFFFFFFFFF AND DUP2 MSTORE PUSH1 0x20 ADD SWAP1 DUP2 MSTORE PUSH1 0x20 ADD PUSH0 KECCAK256 DUP2 SWAP1 SSTORE POP DUP2 PUSH20 0xFFFFFFFFFFFFFFFFFFFFFFFFFFFFFFFFFFFFFFFF AND DUP4 PUSH20 0xFFFFFFFFFFFFFFFFFFFFFFFFFFFFFFFFFFFFFFFF AND PUSH32 0x8C5BE1E5EBEC7D5BD14F71427D1E84F3DD0314C0F7B2291E5B200AC8C7C3B925 DUP4 PUSH1 0x40 MLOAD PUSH2 0x8AF SWAP2 SWAP1 PUSH2 0xEBA JUMP JUMPDEST PUSH1 0x40 MLOAD DUP1 SWAP2 SUB SWAP1 LOG3 POP POP POP JUMP JUMPDEST PUSH0 PUSH20 0xFFFFFFFFFFFFFFFFFFFFFFFFFFFFFFFFFFFFFFFF AND DUP4 PUSH20 0xFFFFFFFFFFFFFFFFFFFFFFFFFFFFFFFFFFFFFFFF AND SUB PUSH2 0x92A JUMPI PUSH1 0x40 MLOAD PUSH32 0x8C379A000000000000000000000000000000000000000000000000000000000 DUP2 MSTORE PUSH1 0x4 ADD PUSH2 0x921 SWAP1 PUSH2 0x139A JUMP JUMPDEST PUSH1 0x40 MLOAD DUP1 SWAP2 SUB SWAP1 REVERT JUMPDEST PUSH0 PUSH20 0xFFFFFFFFFFFFFFFFFFFFFFFFFFFFFFFFFFFFFFFF AND DUP3 PUSH20 0xFFFFFFFFFFFFFFFFFFFFFFFFFFFFFFFFFFFFFFFF AND SUB PUSH2 0x998 JUMPI PUSH1 0x40 MLOAD PUSH32 0x8C379A000000000000000000000000000000000000000000000000000000000 DUP2 MSTORE PUSH1 0x4 ADD PUSH2 0x98F SWAP1 PUSH2 0x1402 JUMP JUMPDEST PUSH1 0x40 MLOAD DUP1 SWAP2 SUB SWAP1 REVERT JUMPDEST DUP1 PUSH1 0x5 PUSH0 DUP6 PUSH20 0xFFFFFFFFFFFFFFFFFFFFFFFFFFFFFFFFFFFFFFFF AND PUSH20 0xFFFFFFFFFFFFFFFFFFFFFFFFFFFFFFFFFFFFFFFF AND DUP2 MSTORE PUSH1 0x20 ADD SWAP1 DUP2 MSTORE PUSH1 0x20 ADD PUSH0 KECCAK256 SLOAD LT ISZERO PUSH2 0xA18 JUMPI PUSH1 0x40 MLOAD PUSH32 0x8C379A000000000000000000000000000000000000000000000000000000000 DUP2 MSTORE PUSH1 0x4 ADD PUSH2 0xA0F SWAP1 PUSH2 0x146A JUMP JUMPDEST PUSH1 0x40 MLOAD DUP1 SWAP2 SUB SWAP1 REVERT JUMPDEST DUP1 PUSH1 0x5 PUSH0 DUP6 PUSH20 0xFFFFFFFFFFFFFFFFFFFFFFFFFFFFFFFFFFFFFFFF AND PUSH20 0xFFFFFFFFFFFFFFFFFFFFFFFFFFFFFFFFFFFFFFFF AND DUP2 MSTORE PUSH1 0x20 ADD SWAP1 DUP2 MSTORE PUSH1 0x20 ADD PUSH0 KECCAK256 PUSH0 DUP3 DUP3 SLOAD PUSH2 0xA64 SWAP2 SWAP1 PUSH2 0x102B JUMP JUMPDEST SWAP3 POP POP DUP2 SWAP1 SSTORE POP DUP1 PUSH1 0x5 PUSH0 DUP5 PUSH20 0xFFFFFFFFFFFFFFFFFFFFFFFFFFFFFFFFFFFFFFFF AND PUSH20 0xFFFFFFFFFFFFFFFFFFFFFFFFFFFFFFFFFFFFFFFF AND DUP2 MSTORE PUSH1 0x20 ADD SWAP1 DUP2 MSTORE PUSH1 0x20 ADD PUSH0 KECCAK256 PUSH0 DUP3 DUP3 SLOAD PUSH2 0xAB7 SWAP2 SWAP1 PUSH2 0x1488 JUMP JUMPDEST SWAP3 POP POP DUP2 SWAP1 SSTORE POP DUP2 PUSH20 0xFFFFFFFFFFFFFFFFFFFFFFFFFFFFFFFFFFFFFFFF AND DUP4 PUSH20 0xFFFFFFFFFFFFFFFFFFFFFFFFFFFFFFFFFFFFFFFF AND PUSH32 0xDDF252AD1BE2C89B69C2B068FC378DAA952BA7F163C4A11628F55A4DF523B3EF DUP4 PUSH1 0x40 MLOAD PUSH2 0xB1B SWAP2 SWAP1 PUSH2 0xEBA JUMP JUMPDEST PUSH1 0x40 MLOAD DUP1 SWAP2 SUB SWAP1 LOG3 POP POP POP JUMP JUMPDEST PUSH0 PUSH20 0xFFFFFFFFFFFFFFFFFFFFFFFFFFFFFFFFFFFFFFFF AND DUP3 PUSH20 0xFFFFFFFFFFFFFFFFFFFFFFFFFFFFFFFFFFFFFFFF AND SUB PUSH2 0xB96 JUMPI PUSH1 0x40 MLOAD PUSH32 0x8C379A000000000000000000000000000000000000000000000000000000000 DUP2 MSTORE PUSH1 0x4 ADD PUSH2 0xB8D SWAP1 PUSH2 0x1505 JUMP JUMPDEST PUSH1 0x40 MLOAD DUP1 SWAP2 SUB SWAP1 REVERT JUMPDEST DUP1 PUSH1 0x3 PUSH0 DUP3 DUP3 SLOAD PUSH2 0xBA7 SWAP2 SWAP1 PUSH2 0x1488 JUMP JUMPDEST SWAP3 POP POP DUP2 SWAP1 SSTORE POP DUP1 PUSH1 0x5 PUSH0 DUP5 PUSH20 0xFFFFFFFFFFFFFFFFFFFFFFFFFFFFFFFFFFFFFFFF AND PUSH20 0xFFFFFFFFFFFFFFFFFFFFFFFFFFFFFFFFFFFFFFFF AND DUP2 MSTORE PUSH1 0x20 ADD SWAP1 DUP2 MSTORE PUSH1 0x20 ADD PUSH0 KECCAK256 PUSH0 DUP3 DUP3 SLOAD PUSH2 0xBFA SWAP2 SWAP1 PUSH2 0x1488 JUMP JUMPDEST SWAP3 POP POP DUP2 SWAP1 SSTORE POP DUP2 PUSH20 0xFFFFFFFFFFFFFFFFFFFFFFFFFFFFFFFFFFFFFFFF AND PUSH0 PUSH20 0xFFFFFFFFFFFFFFFFFFFFFFFFFFFFFFFFFFFFFFFF AND PUSH32 0xDDF252AD1BE2C89B69C2B068FC378DAA952BA7F163C4A11628F55A4DF523B3EF DUP4 PUSH1 0x40 MLOAD PUSH2 0xC5E SWAP2 SWAP1 PUSH2 0xEBA JUMP JUMPDEST PUSH1 0x40 MLOAD DUP1 SWAP2 SUB SWAP1 LOG3 POP POP JUMP JUMPDEST PUSH0 DUP2 MLOAD SWAP1 POP SWAP2 SWAP1 POP JUMP JUMPDEST PUSH0 DUP3 DUP3 MSTORE PUSH1 0x20 DUP3 ADD SWAP1 POP SWAP3 SWAP2 POP POP JUMP JUMPDEST DUP3 DUP2 DUP4 MCOPY PUSH0 DUP4 DUP4 ADD MSTORE POP POP POP JUMP JUMPDEST PUSH0 PUSH1 0x1F NOT PUSH1 0x1F DUP4 ADD AND SWAP1 POP SWAP2 SWAP1 POP JUMP JUMPDEST PUSH0 PUSH2 0xCAC DUP3 PUSH2 0xC6A JUMP JUMPDEST PUSH2 0xCB6 DUP2 DUP6 PUSH2 0xC74 JUMP JUMPDEST SWAP4 POP PUSH2 0xCC6 DUP2 DUP6 PUSH1 0x20 DUP7 ADD PUSH2 0xC84 JUMP JUMPDEST PUSH2 0xCCF DUP2 PUSH2 0xC92 JUMP JUMPDEST DUP5 ADD SWAP2 POP POP SWAP3 SWAP2 POP POP JUMP JUMPDEST PUSH0 PUSH1 0x20 DUP3 ADD SWAP1 POP DUP2 DUP2 SUB PUSH0 DUP4 ADD MSTORE PUSH2 0xCF2 DUP2 DUP5 PUSH2 0xCA2 JUMP JUMPDEST SWAP1 POP SWAP3 SWAP2 POP POP JUMP JUMPDEST PUSH0 PUSH0 REVERT JUMPDEST PUSH0 PUSH20 0xFFFFFFFFFFFFFFFFFFFFFFFFFFFFFFFFFFFFFFFF DUP3 AND SWAP1 POP SWAP2 SWAP1 POP JUMP JUMPDEST PUSH0 PUSH2 0xD27 DUP3 PUSH2 0xCFE JUMP JUMPDEST SWAP1 POP SWAP2 SWAP1 POP JUMP JUMPDEST PUSH2 0xD37 DUP2 PUSH2 0xD1D JUMP JUMPDEST DUP2 EQ PUSH2 0xD41 JUMPI PUSH0 PUSH0 REVERT JUMPDEST POP JUMP JUMPDEST PUSH0 DUP2 CALLDATALOAD SWAP1 POP PUSH2 0xD52 DUP2 PUSH2 0xD2E JUMP JUMPDEST SWAP3 SWAP2 POP POP JUMP JUMPDEST PUSH0 DUP2 SWAP1 POP SWAP2 SWAP1 POP JUMP JUMPDEST PUSH2 0xD6A DUP2 PUSH2 0xD58 JUMP JUMPDEST DUP2 EQ PUSH2 0xD74 JUMPI PUSH0 PUSH0 REVERT JUMPDEST POP JUMP JUMPDEST PUSH0 DUP2 CALLDATALOAD SWAP1 POP PUSH2 0xD85 DUP2 PUSH2 0xD61 JUMP JUMPDEST SWAP3 SWAP2 POP POP JUMP JUMPDEST PUSH0 PUSH0 PUSH1 0x40 DUP4 DUP6 SUB SLT ISZERO PUSH2 0xDA1 JUMPI PUSH2 0xDA0 PUSH2 0xCFA JUMP JUMPDEST JUMPDEST PUSH0 PUSH2 0xDAE DUP6 DUP3 DUP7 ADD PUSH2 0xD44 JUMP JUMPDEST SWAP3 POP POP PUSH1 0x20 PUSH2 0xDBF DUP6 DUP3 DUP7 ADD PUSH2 0xD77 JUMP JUMPDEST SWAP2 POP POP SWAP3 POP SWAP3 SWAP1 POP JUMP JUMPDEST PUSH0 DUP2 ISZERO ISZERO SWAP1 POP SWAP2 SWAP1 POP JUMP JUMPDEST PUSH2 0xDDD DUP2 PUSH2 0xDC9 JUMP JUMPDEST DUP3 MSTORE POP POP JUMP JUMPDEST PUSH0 PUSH1 0x20 DUP3 ADD SWAP1 POP PUSH2 0xDF6 PUSH0 DUP4 ADD DUP5 PUSH2 0xDD4 JUMP JUMPDEST SWAP3 SWAP2 POP POP JUMP JUMPDEST PUSH0 PUSH0 PUSH0 PUSH1 0x60 DUP5 DUP7 SUB SLT ISZERO PUSH2 0xE13 JUMPI PUSH2 0xE12 PUSH2 0xCFA JUMP JUMPDEST JUMPDEST PUSH0 PUSH2 0xE20 DUP7 DUP3 DUP8 ADD PUSH2 0xD44 JUMP JUMPDEST SWAP4 POP POP PUSH1 0x20 PUSH2 0xE31 DUP7 DUP3 DUP8 ADD PUSH2 0xD44 JUMP JUMPDEST SWAP3 POP POP PUSH1 0x40 PUSH2 0xE42 DUP7 DUP3 DUP8 ADD PUSH2 0xD77 JUMP JUMPDEST SWAP2 POP POP SWAP3 POP SWAP3 POP SWAP3 JUMP JUMPDEST PUSH0 PUSH1 0xFF DUP3 AND SWAP1 POP SWAP2 SWAP1 POP JUMP JUMPDEST PUSH2 0xE61 DUP2 PUSH2 0xE4C JUMP JUMPDEST DUP3 MSTORE POP POP JUMP JUMPDEST PUSH0 PUSH1 0x20 DUP3 ADD SWAP1 POP PUSH2 0xE7A PUSH0 DUP4 ADD DUP5 PUSH2 0xE58 JUMP JUMPDEST SWAP3 SWAP2 POP POP JUMP JUMPDEST PUSH0 PUSH1 0x20 DUP3 DUP5 SUB SLT ISZERO PUSH2 0xE95 JUMPI PUSH2 0xE94 PUSH2 0xCFA JUMP JUMPDEST JUMPDEST PUSH0 PUSH2 0xEA2 DUP5 DUP3 DUP6 ADD PUSH2 0xD44 JUMP JUMPDEST SWAP2 POP POP SWAP3 SWAP2 POP POP JUMP JUMPDEST PUSH2 0xEB4 DUP2 PUSH2 0xD58 JUMP JUMPDEST DUP3 MSTORE POP POP JUMP JUMPDEST PUSH0 PUSH1 0x20 DUP3 ADD SWAP1 POP PUSH2 0xECD PUSH0 DUP4 ADD DUP5 PUSH2 0xEAB JUMP JUMPDEST SWAP3 SWAP2 POP POP JUMP JUMPDEST PUSH2 0xEDC DUP2 PUSH2 0xD1D JUMP JUMPDEST DUP3 MSTORE POP POP JUMP JUMPDEST PUSH0 PUSH1 0x20 DUP3 ADD SWAP1 POP PUSH2 0xEF5 PUSH0 DUP4 ADD DUP5 PUSH2 0xED3 JUMP JUMPDEST SWAP3 SWAP2 POP POP JUMP JUMPDEST PUSH0 PUSH0 PUSH1 0x40 DUP4 DUP6 SUB SLT ISZERO PUSH2 0xF11 JUMPI PUSH2 0xF10 PUSH2 0xCFA JUMP JUMPDEST JUMPDEST PUSH0 PUSH2 0xF1E DUP6 DUP3 DUP7 ADD PUSH2 0xD44 JUMP JUMPDEST SWAP3 POP POP PUSH1 0x20 PUSH2 0xF2F DUP6 DUP3 DUP7 ADD PUSH2 0xD44 JUMP JUMPDEST SWAP2 POP POP SWAP3 POP SWAP3 SWAP1 POP JUMP JUMPDEST PUSH32 0x4E487B7100000000000000000000000000000000000000000000000000000000 PUSH0 MSTORE PUSH1 0x22 PUSH1 0x4 MSTORE PUSH1 0x24 PUSH0 REVERT JUMPDEST PUSH0 PUSH1 0x2 DUP3 DIV SWAP1 POP PUSH1 0x1 DUP3 AND DUP1 PUSH2 0xF7D JUMPI PUSH1 0x7F DUP3 AND SWAP2 POP JUMPDEST PUSH1 0x20 DUP3 LT DUP2 SUB PUSH2 0xF90 JUMPI PUSH2 0xF8F PUSH2 0xF39 JUMP JUMPDEST JUMPDEST POP SWAP2 SWAP1 POP JUMP JUMPDEST PUSH32 0x45524332303A20696E73756666696369656E7420616C6C6F77616E6365000000 PUSH0 DUP3 ADD MSTORE POP JUMP JUMPDEST PUSH0 PUSH2 0xFCA PUSH1 0x1D DUP4 PUSH2 0xC74 JUMP JUMPDEST SWAP2 POP PUSH2 0xFD5 DUP3 PUSH2 0xF96 JUMP JUMPDEST PUSH1 0x20 DUP3 ADD SWAP1 POP SWAP2 SWAP1 POP JUMP JUMPDEST PUSH0 PUSH1 0x20 DUP3 ADD SWAP1 POP DUP2 DUP2 SUB PUSH0 DUP4 ADD MSTORE PUSH2 0xFF7 DUP2 PUSH2 0xFBE JUMP JUMPDEST SWAP1 POP SWAP2 SWAP1 POP JUMP JUMPDEST PUSH32 0x4E487B7100000000000000000000000000000000000000000000000000000000 PUSH0 MSTORE PUSH1 0x11 PUSH1 0x4 MSTORE PUSH1 0x24 PUSH0 REVERT JUMPDEST PUSH0 PUSH2 0x1035 DUP3 PUSH2 0xD58 JUMP JUMPDEST SWAP2 POP PUSH2 0x1040 DUP4 PUSH2 0xD58 JUMP JUMPDEST SWAP3 POP DUP3 DUP3 SUB SWAP1 POP DUP2 DUP2 GT ISZERO PUSH2 0x1058 JUMPI PUSH2 0x1057 PUSH2 0xFFE JUMP JUMPDEST JUMPDEST SWAP3 SWAP2 POP POP JUMP JUMPDEST PUSH32 0x4E6F7420636F6E7472616374204F776E65720000000000000000000000000000 PUSH0 DUP3 ADD MSTORE POP JUMP JUMPDEST PUSH0 PUSH2 0x1092 PUSH1 0x12 DUP4 PUSH2 0xC74 JUMP JUMPDEST SWAP2 POP PUSH2 0x109D DUP3 PUSH2 0x105E JUMP JUMPDEST PUSH1 0x20 DUP3 ADD SWAP1 POP SWAP2 SWAP1 POP JUMP JUMPDEST PUSH0 PUSH1 0x20 DUP3 ADD SWAP1 POP DUP2 DUP2 SUB PUSH0 DUP4 ADD MSTORE PUSH2 0x10BF DUP2 PUSH2 0x1086 JUMP JUMPDEST SWAP1 POP SWAP2 SWAP1 POP JUMP JUMPDEST PUSH0 DUP2 PUSH1 0x1 SHR SWAP1 POP SWAP2 SWAP1 POP JUMP JUMPDEST PUSH0 PUSH0 DUP3 SWAP2 POP DUP4 SWAP1 POP JUMPDEST PUSH1 0x1 DUP6 GT ISZERO PUSH2 0x111B JUMPI DUP1 DUP7 DIV DUP2 GT ISZERO PUSH2 0x10F7 JUMPI PUSH2 0x10F6 PUSH2 0xFFE JUMP JUMPDEST JUMPDEST PUSH1 0x1 DUP6 AND ISZERO PUSH2 0x1106 JUMPI DUP1 DUP3 MUL SWAP2 POP JUMPDEST DUP1 DUP2 MUL SWAP1 POP PUSH2 0x1114 DUP6 PUSH2 0x10C6 JUMP JUMPDEST SWAP5 POP PUSH2 0x10DB JUMP JUMPDEST SWAP5 POP SWAP5 SWAP3 POP POP POP JUMP JUMPDEST PUSH0 DUP3 PUSH2 0x1133 JUMPI PUSH1 0x1 SWAP1 POP PUSH2 0x11EE JUMP JUMPDEST DUP2 PUSH2 0x1140 JUMPI PUSH0 SWAP1 POP PUSH2 0x11EE JUMP JUMPDEST DUP2 PUSH1 0x1 DUP2 EQ PUSH2 0x1156 JUMPI PUSH1 0x2 DUP2 EQ PUSH2 0x1160 JUMPI PUSH2 0x118F JUMP JUMPDEST PUSH1 0x1 SWAP2 POP POP PUSH2 0x11EE JUMP JUMPDEST PUSH1 0xFF DUP5 GT ISZERO PUSH2 0x1172 JUMPI PUSH2 0x1171 PUSH2 0xFFE JUMP JUMPDEST JUMPDEST DUP4 PUSH1 0x2 EXP SWAP2 POP DUP5 DUP3 GT ISZERO PUSH2 0x1189 JUMPI PUSH2 0x1188 PUSH2 0xFFE JUMP JUMPDEST JUMPDEST POP PUSH2 0x11EE JUMP JUMPDEST POP PUSH1 0x20 DUP4 LT PUSH2 0x133 DUP4 LT AND PUSH1 0x4E DUP5 LT PUSH1 0xB DUP5 LT AND OR ISZERO PUSH2 0x11C4 JUMPI DUP3 DUP3 EXP SWAP1 POP DUP4 DUP2 GT ISZERO PUSH2 0x11BF JUMPI PUSH2 0x11BE PUSH2 0xFFE JUMP JUMPDEST JUMPDEST PUSH2 0x11EE JUMP JUMPDEST PUSH2 0x11D1 DUP5 DUP5 DUP5 PUSH1 0x1 PUSH2 0x10D2 JUMP JUMPDEST SWAP3 POP SWAP1 POP DUP2 DUP5 DIV DUP2 GT ISZERO PUSH2 0x11E8 JUMPI PUSH2 0x11E7 PUSH2 0xFFE JUMP JUMPDEST JUMPDEST DUP2 DUP2 MUL SWAP1 POP JUMPDEST SWAP4 SWAP3 POP POP POP JUMP JUMPDEST PUSH0 PUSH2 0x11FF DUP3 PUSH2 0xD58 JUMP JUMPDEST SWAP2 POP PUSH2 0x120A DUP4 PUSH2 0xD58 JUMP JUMPDEST SWAP3 POP PUSH2 0x1237 PUSH32 0xFFFFFFFFFFFFFFFFFFFFFFFFFFFFFFFFFFFFFFFFFFFFFFFFFFFFFFFFFFFFFFFF DUP5 DUP5 PUSH2 0x1124 JUMP JUMPDEST SWAP1 POP SWAP3 SWAP2 POP POP JUMP JUMPDEST PUSH0 PUSH2 0x1249 DUP3 PUSH2 0xD58 JUMP JUMPDEST SWAP2 POP PUSH2 0x1254 DUP4 PUSH2 0xD58 JUMP JUMPDEST SWAP3 POP DUP3 DUP3 MUL PUSH2 0x1262 DUP2 PUSH2 0xD58 JUMP JUMPDEST SWAP2 POP DUP3 DUP3 DIV DUP5 EQ DUP4 ISZERO OR PUSH2 0x1279 JUMPI PUSH2 0x1278 PUSH2 0xFFE JUMP JUMPDEST JUMPDEST POP SWAP3 SWAP2 POP POP JUMP JUMPDEST PUSH32 0x45524332303A20617070726F76652066726F6D20307830000000000000000000 PUSH0 DUP3 ADD MSTORE POP JUMP JUMPDEST PUSH0 PUSH2 0x12B4 PUSH1 0x17 DUP4 PUSH2 0xC74 JUMP JUMPDEST SWAP2 POP PUSH2 0x12BF DUP3 PUSH2 0x1280 JUMP JUMPDEST PUSH1 0x20 DUP3 ADD SWAP1 POP SWAP2 SWAP1 POP JUMP JUMPDEST PUSH0 PUSH1 0x20 DUP3 ADD SWAP1 POP DUP2 DUP2 SUB PUSH0 DUP4 ADD MSTORE PUSH2 0x12E1 DUP2 PUSH2 0x12A8 JUMP JUMPDEST SWAP1 POP SWAP2 SWAP1 POP JUMP JUMPDEST PUSH32 0x45524332303A20617070726F766520746F203078300000000000000000000000 PUSH0 DUP3 ADD MSTORE POP JUMP JUMPDEST PUSH0 PUSH2 0x131C PUSH1 0x15 DUP4 PUSH2 0xC74 JUMP JUMPDEST SWAP2 POP PUSH2 0x1327 DUP3 PUSH2 0x12E8 JUMP JUMPDEST PUSH1 0x20 DUP3 ADD SWAP1 POP SWAP2 SWAP1 POP JUMP JUMPDEST PUSH0 PUSH1 0x20 DUP3 ADD SWAP1 POP DUP2 DUP2 SUB PUSH0 DUP4 ADD MSTORE PUSH2 0x1349 DUP2 PUSH2 0x1310 JUMP JUMPDEST SWAP1 POP SWAP2 SWAP1 POP JUMP JUMPDEST PUSH32 0x45524332303A207472616E736665722066726F6D203078300000000000000000 PUSH0 DUP3 ADD MSTORE POP JUMP JUMPDEST PUSH0 PUSH2 0x1384 PUSH1 0x18 DUP4 PUSH2 0xC74 JUMP JUMPDEST SWAP2 POP PUSH2 0x138F DUP3 PUSH2 0x1350 JUMP JUMPDEST PUSH1 0x20 DUP3 ADD SWAP1 POP SWAP2 SWAP1 POP JUMP JUMPDEST PUSH0 PUSH1 0x20 DUP3 ADD SWAP1 POP DUP2 DUP2 SUB PUSH0 DUP4 ADD MSTORE PUSH2 0x13B1 DUP2 PUSH2 0x1378 JUMP JUMPDEST SWAP1 POP SWAP2 SWAP1 POP JUMP JUMPDEST PUSH32 0x45524332303A207472616E7366657220746F2030783000000000000000000000 PUSH0 DUP3 ADD MSTORE POP JUMP JUMPDEST PUSH0 PUSH2 0x13EC PUSH1 0x16 DUP4 PUSH2 0xC74 JUMP JUMPDEST SWAP2 POP PUSH2 0x13F7 DUP3 PUSH2 0x13B8 JUMP JUMPDEST PUSH1 0x20 DUP3 ADD SWAP1 POP SWAP2 SWAP1 POP JUMP JUMPDEST PUSH0 PUSH1 0x20 DUP3 ADD SWAP1 POP DUP2 DUP2 SUB PUSH0 DUP4 ADD MSTORE PUSH2 0x1419 DUP2 PUSH2 0x13E0 JUMP JUMPDEST SWAP1 POP SWAP2 SWAP1 POP JUMP JUMPDEST PUSH32 0x45524332303A20696E73756666696369656E742062616C616E63650000000000 PUSH0 DUP3 ADD MSTORE POP JUMP JUMPDEST PUSH0 PUSH2 0x1454 PUSH1 0x1B DUP4 PUSH2 0xC74 JUMP JUMPDEST SWAP2 POP PUSH2 0x145F DUP3 PUSH2 0x1420 JUMP JUMPDEST PUSH1 0x20 DUP3 ADD SWAP1 POP SWAP2 SWAP1 POP JUMP JUMPDEST PUSH0 PUSH1 0x20 DUP3 ADD SWAP1 POP DUP2 DUP2 SUB PUSH0 DUP4 ADD MSTORE PUSH2 0x1481 DUP2 PUSH2 0x1448 JUMP JUMPDEST SWAP1 POP SWAP2 SWAP1 POP JUMP JUMPDEST PUSH0 PUSH2 0x1492 DUP3 PUSH2 0xD58 JUMP JUMPDEST SWAP2 POP PUSH2 0x149D DUP4 PUSH2 0xD58 JUMP JUMPDEST SWAP3 POP DUP3 DUP3 ADD SWAP1 POP DUP1 DUP3 GT ISZERO PUSH2 0x14B5 JUMPI PUSH2 0x14B4 PUSH2 0xFFE JUMP JUMPDEST JUMPDEST SWAP3 SWAP2 POP POP JUMP JUMPDEST PUSH32 0x496E76616C696420616464726573730000000000000000000000000000000000 PUSH0 DUP3 ADD MSTORE POP JUMP JUMPDEST PUSH0 PUSH2 0x14EF PUSH1 0xF DUP4 PUSH2 0xC74 JUMP JUMPDEST SWAP2 POP PUSH2 0x14FA DUP3 PUSH2 0x14BB JUMP JUMPDEST PUSH1 0x20 DUP3 ADD SWAP1 POP SWAP2 SWAP1 POP JUMP JUMPDEST PUSH0 PUSH1 0x20 DUP3 ADD SWAP1 POP DUP2 DUP2 SUB PUSH0 DUP4 ADD MSTORE PUSH2 0x151C DUP2 PUSH2 0x14E3 JUMP JUMPDEST SWAP1 POP SWAP2 SWAP1 POP JUMP INVALID LOG2 PUSH5 0x6970667358 0x22 SLT KECCAK256 0x23 0xE9 SWAP12 PUSH8 0x2C2423E77FB02C78 XOR SWAP3 0xDE 0xC 0xCB SWAP14 0x22 SLOAD 0x2D 0x25 PUSH0 0xAB 0xC1 0xBF 0xED CODESIZE 0x2C 0xB4 PUSH19 0xFE64736F6C634300081E003300000000000000 "
				},
				"gasEstimates": {
					"creation": {
						"codeDepositCost": "1093000",
						"executionCost": "infinite",
						"totalCost": "infinite"
					},
					"external": {
						"allowance(address,address)": "infinite",
						"approve(address,uint256)": "infinite",
						"balanceOf(address)": "2829",
						"decimals()": "2533",
						"mint(address,uint256)": "infinite",
						"name()": "infinite",
						"owner()": "2552",
						"paused()": "2628",
						"symbol()": "infinite",
						"totalsupply()": "2454",
						"transfer(address,uint256)": "infinite",
						"transferFrom(address,address,uint256)": "infinite"
					},
					"internal": {
						"_approve(address,address,uint256)": "infinite",
						"_mint(address,uint256)": "infinite",
						"_transfer(address,address,uint256)": "infinite"
					}
				},
				"methodIdentifiers": {
					"allowance(address,address)": "dd62ed3e",
					"approve(address,uint256)": "095ea7b3",
					"balanceOf(address)": "70a08231",
					"decimals()": "313ce567",
					"mint(address,uint256)": "40c10f19",
					"name()": "06fdde03",
					"owner()": "8da5cb5b",
					"paused()": "5c975abb",
					"symbol()": "95d89b41",
					"totalsupply()": "72dd529b",
					"transfer(address,uint256)": "a9059cbb",
					"transferFrom(address,address,uint256)": "23b872dd"
				}
			},
			"storageLayout": {
				"storage": [
					{
						"astId": 5,
						"contract": "Contract_Conqueror_Series/ERC20standards.sol:BasicToken",
						"label": "name",
						"offset": 0,
						"slot": "0",
						"type": "t_string_storage"
					},
					{
						"astId": 7,
						"contract": "Contract_Conqueror_Series/ERC20standards.sol:BasicToken",
						"label": "symbol",
						"offset": 0,
						"slot": "1",
						"type": "t_string_storage"
					},
					{
						"astId": 10,
						"contract": "Contract_Conqueror_Series/ERC20standards.sol:BasicToken",
						"label": "decimals",
						"offset": 0,
						"slot": "2",
						"type": "t_uint8"
					},
					{
						"astId": 12,
						"contract": "Contract_Conqueror_Series/ERC20standards.sol:BasicToken",
						"label": "_totalsupply",
						"offset": 0,
						"slot": "3",
						"type": "t_uint256"
					},
					{
						"astId": 16,
						"contract": "Contract_Conqueror_Series/ERC20standards.sol:BasicToken",
						"label": "owner",
						"offset": 0,
						"slot": "4",
						"type": "t_address"
					},
					{
						"astId": 19,
						"contract": "Contract_Conqueror_Series/ERC20standards.sol:BasicToken",
						"label": "paused",
						"offset": 20,
						"slot": "4",
						"type": "t_bool"
					},
					{
						"astId": 24,
						"contract": "Contract_Conqueror_Series/ERC20standards.sol:BasicToken",
						"label": "_balances",
						"offset": 0,
						"slot": "5",
						"type": "t_mapping(t_address,t_uint256)"
					},
					{
						"astId": 30,
						"contract": "Contract_Conqueror_Series/ERC20standards.sol:BasicToken",
						"label": "_allowances",
						"offset": 0,
						"slot": "6",
						"type": "t_mapping(t_address,t_mapping(t_address,t_uint256))"
					}
				],
				"types": {
					"t_address": {
						"encoding": "inplace",
						"label": "address",
						"numberOfBytes": "20"
					},
					"t_bool": {
						"encoding": "inplace",
						"label": "bool",
						"numberOfBytes": "1"
					},
					"t_mapping(t_address,t_mapping(t_address,t_uint256))": {
						"encoding": "mapping",
						"key": "t_address",
						"label": "mapping(address => mapping(address => uint256))",
						"numberOfBytes": "32",
						"value": "t_mapping(t_address,t_uint256)"
					},
					"t_mapping(t_address,t_uint256)": {
						"encoding": "mapping",
						"key": "t_address",
						"label": "mapping(address => uint256)",
						"numberOfBytes": "32",
						"value": "t_uint256"
					},
					"t_string_storage": {
						"encoding": "bytes",
						"label": "string",
						"numberOfBytes": "32"
					},
					"t_uint256": {
						"encoding": "inplace",
						"label": "uint256",
						"numberOfBytes": "32"
					},
					"t_uint8": {
						"encoding": "inplace",
						"label": "uint8",
						"numberOfBytes": "1"
					}
				}
			},
			"userdoc": {
				"kind": "user",
				"methods": {
					"allowance(address,address)": {
						"notice": "Transfer tokens using allowance"
					},
					"approve(address,uint256)": {
						"notice": "Transfer tokensApprove a spender"
					},
					"balanceOf(address)": {
						"notice": "Check balance of a specific address"
					},
					"mint(address,uint256)": {
						"notice": "Mint new tokens (only owner, capped)"
					},
					"name()": {
						"notice": "Token details"
					},
					"totalsupply()": {
						"notice": "Get max token capGet total token supply"
					},
					"transfer(address,uint256)": {
						"notice": "Transfer tokens from sender to recipient"
					},
					"transferFrom(address,address,uint256)": {
						"notice": "Transfer tokens on behalf of another address"
					}
				},
				"version": 1
			}
		}
	}
}