{
	"Contract_Conqueror_Series/ERC20standards.sol": {
		"BasicToken": {
			"abi": [
				{
					"inputs": [
						{
							"internalType": "string",
							"name": "_name",
							"type": "string"
						},
						{
							"internalType": "string",
							"name": "_symbol",
							"type": "string"
						},
						{
							"internalType": "uint256",
							"name": "initialSupply",
							"type": "uint256"
						},
						{
							"internalType": "uint256",
							"name": "maxcap",
							"type": "uint256"
						}
					],
					"stateMutability": "nonpayable",
					"type": "constructor"
				},
				{
					"anonymous": false,
					"inputs": [
						{
							"indexed": true,
							"internalType": "address",
							"name": "owner",
							"type": "address"
						},
						{
							"indexed": true,
							"internalType": "address",
							"name": "spender",
							"type": "address"
						},
						{
							"indexed": false,
							"internalType": "uint256",
							"name": "amount",
							"type": "uint256"
						}
					],
					"name": "Approval",
					"type": "event"
				},
				{
					"anonymous": false,
					"inputs": [
						{
							"indexed": true,
							"internalType": "address",
							"name": "burner",
							"type": "address"
						},
						{
							"indexed": false,
							"internalType": "uint256",
							"name": "amount",
							"type": "uint256"
						}
					],
					"name": "Burn",
					"type": "event"
				},
				{
					"anonymous": false,
					"inputs": [
						{
							"indexed": true,
							"internalType": "address",
							"name": "user",
							"type": "address"
						},
						{
							"indexed": false,
							"internalType": "uint256",
							"name": "unlockTime",
							"type": "uint256"
						}
					],
					"name": "Locked",
					"type": "event"
				},
				{
					"anonymous": false,
					"inputs": [
						{
							"indexed": true,
							"internalType": "address",
							"name": "to",
							"type": "address"
						},
						{
							"indexed": false,
							"internalType": "uint256",
							"name": "amount",
							"type": "uint256"
						}
					],
					"name": "Mint",
					"type": "event"
				},
				{
					"anonymous": false,
					"inputs": [
						{
							"indexed": true,
							"internalType": "address",
							"name": "account",
							"type": "address"
						}
					],
					"name": "Paused",
					"type": "event"
				},
				{
					"anonymous": false,
					"inputs": [
						{
							"indexed": true,
							"internalType": "address",
							"name": "from",
							"type": "address"
						},
						{
							"indexed": true,
							"internalType": "address",
							"name": "to",
							"type": "address"
						},
						{
							"indexed": false,
							"internalType": "uint256",
							"name": "amount",
							"type": "uint256"
						}
					],
					"name": "Transfer",
					"type": "event"
				},
				{
					"anonymous": false,
					"inputs": [
						{
							"indexed": true,
							"internalType": "address",
							"name": "account",
							"type": "address"
						}
					],
					"name": "Unpaused",
					"type": "event"
				},
				{
					"inputs": [
						{
							"internalType": "address",
							"name": "tokenOwner",
							"type": "address"
						},
						{
							"internalType": "address",
							"name": "spender",
							"type": "address"
						}
					],
					"name": "allowance",
					"outputs": [
						{
							"internalType": "uint256",
							"name": "",
							"type": "uint256"
						}
					],
					"stateMutability": "view",
					"type": "function"
				},
				{
					"inputs": [
						{
							"internalType": "address",
							"name": "spender",
							"type": "address"
						},
						{
							"internalType": "uint256",
							"name": "amount",
							"type": "uint256"
						}
					],
					"name": "approve",
					"outputs": [
						{
							"internalType": "bool",
							"name": "",
							"type": "bool"
						}
					],
					"stateMutability": "nonpayable",
					"type": "function"
				},
				{
					"inputs": [
						{
							"internalType": "address",
							"name": "account",
							"type": "address"
						}
					],
					"name": "balanceOf",
					"outputs": [
						{
							"internalType": "uint256",
							"name": "",
							"type": "uint256"
						}
					],
					"stateMutability": "view",
					"type": "function"
				},
				{
					"inputs": [
						{
							"internalType": "uint256",
							"name": "amount",
							"type": "uint256"
						}
					],
					"name": "burn",
					"outputs": [],
					"stateMutability": "nonpayable",
					"type": "function"
				},
				{
					"inputs": [
						{
							"internalType": "address",
							"name": "account",
							"type": "address"
						},
						{
							"internalType": "uint256",
							"name": "amount",
							"type": "uint256"
						}
					],
					"name": "burnForm",
					"outputs": [],
					"stateMutability": "nonpayable",
					"type": "function"
				},
				{
					"inputs": [],
					"name": "cap",
					"outputs": [
						{
							"internalType": "uint256",
							"name": "",
							"type": "uint256"
						}
					],
					"stateMutability": "view",
					"type": "function"
				},
				{
					"inputs": [],
					"name": "decimals",
					"outputs": [
						{
							"internalType": "uint8",
							"name": "",
							"type": "uint8"
						}
					],
					"stateMutability": "view",
					"type": "function"
				},
				{
					"inputs": [],
					"name": "getCurrentTimestamp",
					"outputs": [
						{
							"internalType": "uint256",
							"name": "",
							"type": "uint256"
						}
					],
					"stateMutability": "view",
					"type": "function"
				},
				{
					"inputs": [
						{
							"internalType": "address",
							"name": "user",
							"type": "address"
						}
					],
					"name": "getUnlockTime",
					"outputs": [
						{
							"internalType": "uint256",
							"name": "",
							"type": "uint256"
						}
					],
					"stateMutability": "view",
					"type": "function"
				},
				{
					"inputs": [
						{
							"internalType": "address",
							"name": "user",
							"type": "address"
						},
						{
							"internalType": "uint256",
							"name": "unlockTime",
							"type": "uint256"
						}
					],
					"name": "lockTokens",
					"outputs": [],
					"stateMutability": "nonpayable",
					"type": "function"
				},
				{
					"inputs": [
						{
							"internalType": "address",
							"name": "to",
							"type": "address"
						},
						{
							"internalType": "uint256",
							"name": "amount",
							"type": "uint256"
						}
					],
					"name": "mint",
					"outputs": [],
					"stateMutability": "nonpayable",
					"type": "function"
				},
				{
					"inputs": [],
					"name": "name",
					"outputs": [
						{
							"internalType": "string",
							"name": "",
							"type": "string"
						}
					],
					"stateMutability": "view",
					"type": "function"
				},
				{
					"inputs": [],
					"name": "owner",
					"outputs": [
						{
							"internalType": "address",
							"name": "",
							"type": "address"
						}
					],
					"stateMutability": "view",
					"type": "function"
				},
				{
					"inputs": [],
					"name": "pause",
					"outputs": [],
					"stateMutability": "nonpayable",
					"type": "function"
				},
				{
					"inputs": [],
					"name": "paused",
					"outputs": [
						{
							"internalType": "bool",
							"name": "",
							"type": "bool"
						}
					],
					"stateMutability": "view",
					"type": "function"
				},
				{
					"inputs": [],
					"name": "symbol",
					"outputs": [
						{
							"internalType": "string",
							"name": "",
							"type": "string"
						}
					],
					"stateMutability": "view",
					"type": "function"
				},
				{
					"inputs": [],
					"name": "totalsupply",
					"outputs": [
						{
							"internalType": "uint256",
							"name": "",
							"type": "uint256"
						}
					],
					"stateMutability": "view",
					"type": "function"
				},
				{
					"inputs": [
						{
							"internalType": "address",
							"name": "to",
							"type": "address"
						},
						{
							"internalType": "uint256",
							"name": "amount",
							"type": "uint256"
						}
					],
					"name": "transfer",
					"outputs": [
						{
							"internalType": "bool",
							"name": "",
							"type": "bool"
						}
					],
					"stateMutability": "nonpayable",
					"type": "function"
				},
				{
					"inputs": [
						{
							"internalType": "address",
							"name": "from",
							"type": "address"
						},
						{
							"internalType": "address",
							"name": "to",
							"type": "address"
						},
						{
							"internalType": "uint256",
							"name": "amount",
							"type": "uint256"
						}
					],
					"name": "transferFrom",
					"outputs": [
						{
							"internalType": "bool",
							"name": "",
							"type": "bool"
						}
					],
					"stateMutability": "nonpayable",
					"type": "function"
				},
				{
					"inputs": [],
					"name": "unpause",
					"outputs": [],
					"stateMutability": "nonpayable",
					"type": "function"
				}
			],
			"devdoc": {
				"kind": "dev",
				"methods": {
					"burn(uint256)": {
						"params": {
							"amount": "Amount to burn (in smallest unit)"
						}
					},
					"burnForm(address,uint256)": {
						"params": {
							"account": "Address to burn from",
							"amount": "Amount to burn (in smallest unit)"
						}
					},
					"lockTokens(address,uint256)": {
						"params": {
							"unlockTime": "The UNIX timestamp until which the address is locked     🕒 Lock a user's tokens until a future timestamp",
							"user": "The address to lock"
						}
					}
				},
				"stateVariables": {
					"_balances": {
						"details": "Balances and allowances"
					}
				},
				"title": "Contract Conqueror day1",
				"version": 1
			},
			"evm": {
				"assembly": "    /* \"Contract_Conqueror_Series/ERC20standards.sol\":98:7622  contract BasicToken {... */\n  mstore(0x40, 0xa0)\n    /* \"Contract_Conqueror_Series/ERC20standards.sol\":232:234  18 */\n  0x12\n    /* \"Contract_Conqueror_Series/ERC20standards.sol\":208:234  uint8 public decimals = 18 */\n  0x02\n  exp(0x0100, 0x00)\n  dup2\n  sload\n  dup2\n  0xff\n  mul\n  not\n  and\n  swap1\n  dup4\n  0xff\n  and\n  mul\n  or\n  swap1\n  sstore\n  pop\n    /* \"Contract_Conqueror_Series/ERC20standards.sol\":363:368  false */\n  0x00\n    /* \"Contract_Conqueror_Series/ERC20standards.sol\":342:368  bool public paused = false */\n  0x04\n  exp(0x0100, 0x14)\n  dup2\n  sload\n  dup2\n  0xff\n  mul\n  not\n  and\n  swap1\n  dup4\n  iszero\n  iszero\n  mul\n  or\n  swap1\n  sstore\n  pop\n    /* \"Contract_Conqueror_Series/ERC20standards.sol\":1653:1989  constructor(... */\n  callvalue\n  dup1\n  iszero\n  tag_1\n  jumpi\n  revert(0x00, 0x00)\ntag_1:\n  pop\n  mload(0x40)\n  sub(codesize, bytecodeSize)\n  dup1\n  bytecodeSize\n  dup4\n  codecopy\n  dup2\n  dup2\n  add\n  0x40\n  mstore\n  dup2\n  add\n  swap1\n  tag_2\n  swap2\n  swap1\n  tag_3\n  jump\t// in\ntag_2:\n    /* \"Contract_Conqueror_Series/ERC20standards.sol\":1799:1804  _name */\n  dup4\n    /* \"Contract_Conqueror_Series/ERC20standards.sol\":1792:1796  name */\n  0x00\n    /* \"Contract_Conqueror_Series/ERC20standards.sol\":1792:1804  name = _name */\n  swap1\n  dup2\n  tag_6\n  swap2\n  swap1\n  tag_7\n  jump\t// in\ntag_6:\n  pop\n    /* \"Contract_Conqueror_Series/ERC20standards.sol\":1824:1831  _symbol */\n  dup3\n    /* \"Contract_Conqueror_Series/ERC20standards.sol\":1815:1821  symbol */\n  0x01\n    /* \"Contract_Conqueror_Series/ERC20standards.sol\":1815:1831  symbol = _symbol */\n  swap1\n  dup2\n  tag_8\n  swap2\n  swap1\n  tag_7\n  jump\t// in\ntag_8:\n  pop\n    /* \"Contract_Conqueror_Series/ERC20standards.sol\":1854:1864  msg.sender */\n  caller\n    /* \"Contract_Conqueror_Series/ERC20standards.sol\":1846:1851  owner */\n  0x04\n  0x00\n    /* \"Contract_Conqueror_Series/ERC20standards.sol\":1846:1864  owner = msg.sender */\n  0x0100\n  exp\n  dup2\n  sload\n  dup2\n  0xffffffffffffffffffffffffffffffffffffffff\n  mul\n  not\n  and\n  swap1\n  dup4\n  0xffffffffffffffffffffffffffffffffffffffff\n  and\n  mul\n  or\n  swap1\n  sstore\n  pop\n    /* \"Contract_Conqueror_Series/ERC20standards.sol\":1906:1914  decimals */\n  0x02\n  0x00\n  swap1\n  sload\n  swap1\n  0x0100\n  exp\n  swap1\n  div\n  0xff\n  and\n    /* \"Contract_Conqueror_Series/ERC20standards.sol\":1898:1915  uint256(decimals) */\n  0xff\n  and\n    /* \"Contract_Conqueror_Series/ERC20standards.sol\":1892:1894  10 */\n  0x0a\n    /* \"Contract_Conqueror_Series/ERC20standards.sol\":1892:1915  10 ** uint256(decimals) */\n  tag_9\n  swap2\n  swap1\n  tag_10\n  jump\t// in\ntag_9:\n    /* \"Contract_Conqueror_Series/ERC20standards.sol\":1882:1888  maxcap */\n  dup2\n    /* \"Contract_Conqueror_Series/ERC20standards.sol\":1882:1916  maxcap * (10 ** uint256(decimals)) */\n  tag_11\n  swap2\n  swap1\n  tag_12\n  jump\t// in\ntag_11:\n    /* \"Contract_Conqueror_Series/ERC20standards.sol\":1875:1916  _cap = maxcap * (10 ** uint256(decimals)) */\n  0x80\n  dup2\n  dup2\n  mstore\n  pop\n  pop\n    /* \"Contract_Conqueror_Series/ERC20standards.sol\":1927:1981  _mint(owner,initialSupply * (10 ** uint256(decimals))) */\n  tag_13\n    /* \"Contract_Conqueror_Series/ERC20standards.sol\":1933:1938  owner */\n  0x04\n  0x00\n  swap1\n  sload\n  swap1\n  0x0100\n  exp\n  swap1\n  div\n  0xffffffffffffffffffffffffffffffffffffffff\n  and\n    /* \"Contract_Conqueror_Series/ERC20standards.sol\":1970:1978  decimals */\n  0x02\n  0x00\n  swap1\n  sload\n  swap1\n  0x0100\n  exp\n  swap1\n  div\n  0xff\n  and\n    /* \"Contract_Conqueror_Series/ERC20standards.sol\":1962:1979  uint256(decimals) */\n  0xff\n  and\n    /* \"Contract_Conqueror_Series/ERC20standards.sol\":1956:1958  10 */\n  0x0a\n    /* \"Contract_Conqueror_Series/ERC20standards.sol\":1956:1979  10 ** uint256(decimals) */\n  tag_14\n  swap2\n  swap1\n  tag_10\n  jump\t// in\ntag_14:\n    /* \"Contract_Conqueror_Series/ERC20standards.sol\":1939:1952  initialSupply */\n  dup5\n    /* \"Contract_Conqueror_Series/ERC20standards.sol\":1939:1980  initialSupply * (10 ** uint256(decimals)) */\n  tag_15\n  swap2\n  swap1\n  tag_12\n  jump\t// in\ntag_15:\n    /* \"Contract_Conqueror_Series/ERC20standards.sol\":1927:1932  _mint */\n  shl(0x20, tag_16)\n    /* \"Contract_Conqueror_Series/ERC20standards.sol\":1927:1981  _mint(owner,initialSupply * (10 ** uint256(decimals))) */\n  0x20\n  shr\n  jump\t// in\ntag_13:\n    /* \"Contract_Conqueror_Series/ERC20standards.sol\":1653:1989  constructor(... */\n  pop\n  pop\n  pop\n  pop\n    /* \"Contract_Conqueror_Series/ERC20standards.sol\":98:7622  contract BasicToken {... */\n  jump(tag_17)\n    /* \"Contract_Conqueror_Series/ERC20standards.sol\":6146:6407  function _mint(address to, uint256 amount) internal{... */\ntag_16:\n    /* \"Contract_Conqueror_Series/ERC20standards.sol\":6230:6231  0 */\n  0x00\n    /* \"Contract_Conqueror_Series/ERC20standards.sol\":6216:6232  to != address(0) */\n  0xffffffffffffffffffffffffffffffffffffffff\n  and\n    /* \"Contract_Conqueror_Series/ERC20standards.sol\":6216:6218  to */\n  dup3\n    /* \"Contract_Conqueror_Series/ERC20standards.sol\":6216:6232  to != address(0) */\n  0xffffffffffffffffffffffffffffffffffffffff\n  and\n  sub\n    /* \"Contract_Conqueror_Series/ERC20standards.sol\":6208:6252  require(to != address(0), \"Invalid address\") */\n  tag_19\n  jumpi\n  mload(0x40)\n  0x08c379a000000000000000000000000000000000000000000000000000000000\n  dup2\n  mstore\n  0x04\n  add\n  tag_20\n  swap1\n  tag_21\n  jump\t// in\ntag_20:\n  mload(0x40)\n  dup1\n  swap2\n  sub\n  swap1\n  revert\ntag_19:\n    /* \"Contract_Conqueror_Series/ERC20standards.sol\":6279:6285  amount */\n  dup1\n    /* \"Contract_Conqueror_Series/ERC20standards.sol\":6263:6275  _totalsupply */\n  0x03\n  0x00\n    /* \"Contract_Conqueror_Series/ERC20standards.sol\":6263:6285  _totalsupply += amount */\n  dup3\n  dup3\n  sload\n  tag_22\n  swap2\n  swap1\n  tag_23\n  jump\t// in\ntag_22:\n  swap3\n  pop\n  pop\n  dup2\n  swap1\n  sstore\n  pop\n    /* \"Contract_Conqueror_Series/ERC20standards.sol\":6313:6319  amount */\n  dup1\n    /* \"Contract_Conqueror_Series/ERC20standards.sol\":6296:6305  _balances */\n  0x05\n    /* \"Contract_Conqueror_Series/ERC20standards.sol\":6296:6309  _balances[to] */\n  0x00\n    /* \"Contract_Conqueror_Series/ERC20standards.sol\":6306:6308  to */\n  dup5\n    /* \"Contract_Conqueror_Series/ERC20standards.sol\":6296:6309  _balances[to] */\n  0xffffffffffffffffffffffffffffffffffffffff\n  and\n  0xffffffffffffffffffffffffffffffffffffffff\n  and\n  dup2\n  mstore\n  0x20\n  add\n  swap1\n  dup2\n  mstore\n  0x20\n  add\n  0x00\n  keccak256\n  0x00\n    /* \"Contract_Conqueror_Series/ERC20standards.sol\":6296:6319  _balances[to] += amount */\n  dup3\n  dup3\n  sload\n  tag_24\n  swap2\n  swap1\n  tag_23\n  jump\t// in\ntag_24:\n  swap3\n  pop\n  pop\n  dup2\n  swap1\n  sstore\n  pop\n    /* \"Contract_Conqueror_Series/ERC20standards.sol\":6340:6342  to */\n  dup2\n    /* \"Contract_Conqueror_Series/ERC20standards.sol\":6335:6351  Mint(to, amount) */\n  0xffffffffffffffffffffffffffffffffffffffff\n  and\n  0x0f6798a560793a54c3bcfe86a93cde1e73087d944c0ea20544137d4121396885\n    /* \"Contract_Conqueror_Series/ERC20standards.sol\":6344:6350  amount */\n  dup3\n    /* \"Contract_Conqueror_Series/ERC20standards.sol\":6335:6351  Mint(to, amount) */\n  mload(0x40)\n  tag_25\n  swap2\n  swap1\n  tag_26\n  jump\t// in\ntag_25:\n  mload(0x40)\n  dup1\n  swap2\n  sub\n  swap1\n  log2\n    /* \"Contract_Conqueror_Series/ERC20standards.sol\":6388:6390  to */\n  dup2\n    /* \"Contract_Conqueror_Series/ERC20standards.sol\":6367:6399  Transfer(address(0), to, amount) */\n  0xffffffffffffffffffffffffffffffffffffffff\n  and\n    /* \"Contract_Conqueror_Series/ERC20standards.sol\":6384:6385  0 */\n  0x00\n    /* \"Contract_Conqueror_Series/ERC20standards.sol\":6367:6399  Transfer(address(0), to, amount) */\n  0xffffffffffffffffffffffffffffffffffffffff\n  and\n  0xddf252ad1be2c89b69c2b068fc378daa952ba7f163c4a11628f55a4df523b3ef\n    /* \"Contract_Conqueror_Series/ERC20standards.sol\":6392:6398  amount */\n  dup4\n    /* \"Contract_Conqueror_Series/ERC20standards.sol\":6367:6399  Transfer(address(0), to, amount) */\n  mload(0x40)\n  tag_27\n  swap2\n  swap1\n  tag_26\n  jump\t// in\ntag_27:\n  mload(0x40)\n  dup1\n  swap2\n  sub\n  swap1\n  log3\n    /* \"Contract_Conqueror_Series/ERC20standards.sol\":6146:6407  function _mint(address to, uint256 amount) internal{... */\n  pop\n  pop\n  jump\t// out\n    /* \"#utility.yul\":7:82   */\ntag_28:\n    /* \"#utility.yul\":40:46   */\n  0x00\n    /* \"#utility.yul\":73:75   */\n  0x40\n    /* \"#utility.yul\":67:76   */\n  mload\n    /* \"#utility.yul\":57:76   */\n  swap1\n  pop\n    /* \"#utility.yul\":7:82   */\n  swap1\n  jump\t// out\n    /* \"#utility.yul\":88:205   */\ntag_29:\n    /* \"#utility.yul\":197:198   */\n  0x00\n    /* \"#utility.yul\":194:195   */\n  0x00\n    /* \"#utility.yul\":187:199   */\n  revert\n    /* \"#utility.yul\":211:328   */\ntag_30:\n    /* \"#utility.yul\":320:321   */\n  0x00\n    /* \"#utility.yul\":317:318   */\n  0x00\n    /* \"#utility.yul\":310:322   */\n  revert\n    /* \"#utility.yul\":334:451   */\ntag_31:\n    /* \"#utility.yul\":443:444   */\n  0x00\n    /* \"#utility.yul\":440:441   */\n  0x00\n    /* \"#utility.yul\":433:445   */\n  revert\n    /* \"#utility.yul\":457:574   */\ntag_32:\n    /* \"#utility.yul\":566:567   */\n  0x00\n    /* \"#utility.yul\":563:564   */\n  0x00\n    /* \"#utility.yul\":556:568   */\n  revert\n    /* \"#utility.yul\":580:682   */\ntag_33:\n    /* \"#utility.yul\":621:627   */\n  0x00\n    /* \"#utility.yul\":672:674   */\n  0x1f\n    /* \"#utility.yul\":668:675   */\n  not\n    /* \"#utility.yul\":663:665   */\n  0x1f\n    /* \"#utility.yul\":656:661   */\n  dup4\n    /* \"#utility.yul\":652:666   */\n  add\n    /* \"#utility.yul\":648:676   */\n  and\n    /* \"#utility.yul\":638:676   */\n  swap1\n  pop\n    /* \"#utility.yul\":580:682   */\n  swap2\n  swap1\n  pop\n  jump\t// out\n    /* \"#utility.yul\":688:868   */\ntag_34:\n    /* \"#utility.yul\":736:813   */\n  0x4e487b7100000000000000000000000000000000000000000000000000000000\n    /* \"#utility.yul\":733:734   */\n  0x00\n    /* \"#utility.yul\":726:814   */\n  mstore\n    /* \"#utility.yul\":833:837   */\n  0x41\n    /* \"#utility.yul\":830:831   */\n  0x04\n    /* \"#utility.yul\":823:838   */\n  mstore\n    /* \"#utility.yul\":857:861   */\n  0x24\n    /* \"#utility.yul\":854:855   */\n  0x00\n    /* \"#utility.yul\":847:862   */\n  revert\n    /* \"#utility.yul\":874:1155   */\ntag_35:\n    /* \"#utility.yul\":957:984   */\n  tag_79\n    /* \"#utility.yul\":979:983   */\n  dup3\n    /* \"#utility.yul\":957:984   */\n  tag_33\n  jump\t// in\ntag_79:\n    /* \"#utility.yul\":949:955   */\n  dup2\n    /* \"#utility.yul\":945:985   */\n  add\n    /* \"#utility.yul\":1087:1093   */\n  dup2\n    /* \"#utility.yul\":1075:1085   */\n  dup2\n    /* \"#utility.yul\":1072:1094   */\n  lt\n    /* \"#utility.yul\":1051:1069   */\n  0xffffffffffffffff\n    /* \"#utility.yul\":1039:1049   */\n  dup3\n    /* \"#utility.yul\":1036:1070   */\n  gt\n    /* \"#utility.yul\":1033:1095   */\n  or\n    /* \"#utility.yul\":1030:1118   */\n  iszero\n  tag_80\n  jumpi\n    /* \"#utility.yul\":1098:1116   */\n  tag_81\n  tag_34\n  jump\t// in\ntag_81:\n    /* \"#utility.yul\":1030:1118   */\ntag_80:\n    /* \"#utility.yul\":1138:1148   */\n  dup1\n    /* \"#utility.yul\":1134:1136   */\n  0x40\n    /* \"#utility.yul\":1127:1149   */\n  mstore\n    /* \"#utility.yul\":917:1155   */\n  pop\n    /* \"#utility.yul\":874:1155   */\n  pop\n  pop\n  jump\t// out\n    /* \"#utility.yul\":1161:1290   */\ntag_36:\n    /* \"#utility.yul\":1195:1201   */\n  0x00\n    /* \"#utility.yul\":1222:1242   */\n  tag_83\n  tag_28\n  jump\t// in\ntag_83:\n    /* \"#utility.yul\":1212:1242   */\n  swap1\n  pop\n    /* \"#utility.yul\":1251:1284   */\n  tag_84\n    /* \"#utility.yul\":1279:1283   */\n  dup3\n    /* \"#utility.yul\":1271:1277   */\n  dup3\n    /* \"#utility.yul\":1251:1284   */\n  tag_35\n  jump\t// in\ntag_84:\n    /* \"#utility.yul\":1161:1290   */\n  swap2\n  swap1\n  pop\n  jump\t// out\n    /* \"#utility.yul\":1296:1604   */\ntag_37:\n    /* \"#utility.yul\":1358:1362   */\n  0x00\n    /* \"#utility.yul\":1448:1466   */\n  0xffffffffffffffff\n    /* \"#utility.yul\":1440:1446   */\n  dup3\n    /* \"#utility.yul\":1437:1467   */\n  gt\n    /* \"#utility.yul\":1434:1490   */\n  iszero\n  tag_86\n  jumpi\n    /* \"#utility.yul\":1470:1488   */\n  tag_87\n  tag_34\n  jump\t// in\ntag_87:\n    /* \"#utility.yul\":1434:1490   */\ntag_86:\n    /* \"#utility.yul\":1508:1537   */\n  tag_88\n    /* \"#utility.yul\":1530:1536   */\n  dup3\n    /* \"#utility.yul\":1508:1537   */\n  tag_33\n  jump\t// in\ntag_88:\n    /* \"#utility.yul\":1500:1537   */\n  swap1\n  pop\n    /* \"#utility.yul\":1592:1596   */\n  0x20\n    /* \"#utility.yul\":1586:1590   */\n  dup2\n    /* \"#utility.yul\":1582:1597   */\n  add\n    /* \"#utility.yul\":1574:1597   */\n  swap1\n  pop\n    /* \"#utility.yul\":1296:1604   */\n  swap2\n  swap1\n  pop\n  jump\t// out\n    /* \"#utility.yul\":1610:1749   */\ntag_38:\n    /* \"#utility.yul\":1699:1705   */\n  dup3\n    /* \"#utility.yul\":1694:1697   */\n  dup2\n    /* \"#utility.yul\":1689:1692   */\n  dup4\n    /* \"#utility.yul\":1683:1706   */\n  mcopy\n    /* \"#utility.yul\":1740:1741   */\n  0x00\n    /* \"#utility.yul\":1731:1737   */\n  dup4\n    /* \"#utility.yul\":1726:1729   */\n  dup4\n    /* \"#utility.yul\":1722:1738   */\n  add\n    /* \"#utility.yul\":1715:1742   */\n  mstore\n    /* \"#utility.yul\":1610:1749   */\n  pop\n  pop\n  pop\n  jump\t// out\n    /* \"#utility.yul\":1755:2189   */\ntag_39:\n    /* \"#utility.yul\":1844:1849   */\n  0x00\n    /* \"#utility.yul\":1869:1935   */\n  tag_91\n    /* \"#utility.yul\":1885:1934   */\n  tag_92\n    /* \"#utility.yul\":1927:1933   */\n  dup5\n    /* \"#utility.yul\":1885:1934   */\n  tag_37\n  jump\t// in\ntag_92:\n    /* \"#utility.yul\":1869:1935   */\n  tag_36\n  jump\t// in\ntag_91:\n    /* \"#utility.yul\":1860:1935   */\n  swap1\n  pop\n    /* \"#utility.yul\":1958:1964   */\n  dup3\n    /* \"#utility.yul\":1951:1956   */\n  dup2\n    /* \"#utility.yul\":1944:1965   */\n  mstore\n    /* \"#utility.yul\":1996:2000   */\n  0x20\n    /* \"#utility.yul\":1989:1994   */\n  dup2\n    /* \"#utility.yul\":1985:2001   */\n  add\n    /* \"#utility.yul\":2034:2037   */\n  dup5\n    /* \"#utility.yul\":2025:2031   */\n  dup5\n    /* \"#utility.yul\":2020:2023   */\n  dup5\n    /* \"#utility.yul\":2016:2032   */\n  add\n    /* \"#utility.yul\":2013:2038   */\n  gt\n    /* \"#utility.yul\":2010:2122   */\n  iszero\n  tag_93\n  jumpi\n    /* \"#utility.yul\":2041:2120   */\n  tag_94\n  tag_32\n  jump\t// in\ntag_94:\n    /* \"#utility.yul\":2010:2122   */\ntag_93:\n    /* \"#utility.yul\":2131:2183   */\n  tag_95\n    /* \"#utility.yul\":2176:2182   */\n  dup5\n    /* \"#utility.yul\":2171:2174   */\n  dup3\n    /* \"#utility.yul\":2166:2169   */\n  dup6\n    /* \"#utility.yul\":2131:2183   */\n  tag_38\n  jump\t// in\ntag_95:\n    /* \"#utility.yul\":1850:2189   */\n  pop\n    /* \"#utility.yul\":1755:2189   */\n  swap4\n  swap3\n  pop\n  pop\n  pop\n  jump\t// out\n    /* \"#utility.yul\":2209:2564   */\ntag_40:\n    /* \"#utility.yul\":2276:2281   */\n  0x00\n    /* \"#utility.yul\":2325:2328   */\n  dup3\n    /* \"#utility.yul\":2318:2322   */\n  0x1f\n    /* \"#utility.yul\":2310:2316   */\n  dup4\n    /* \"#utility.yul\":2306:2323   */\n  add\n    /* \"#utility.yul\":2302:2329   */\n  slt\n    /* \"#utility.yul\":2292:2414   */\n  tag_97\n  jumpi\n    /* \"#utility.yul\":2333:2412   */\n  tag_98\n  tag_31\n  jump\t// in\ntag_98:\n    /* \"#utility.yul\":2292:2414   */\ntag_97:\n    /* \"#utility.yul\":2443:2449   */\n  dup2\n    /* \"#utility.yul\":2437:2450   */\n  mload\n    /* \"#utility.yul\":2468:2558   */\n  tag_99\n    /* \"#utility.yul\":2554:2557   */\n  dup5\n    /* \"#utility.yul\":2546:2552   */\n  dup3\n    /* \"#utility.yul\":2539:2543   */\n  0x20\n    /* \"#utility.yul\":2531:2537   */\n  dup7\n    /* \"#utility.yul\":2527:2544   */\n  add\n    /* \"#utility.yul\":2468:2558   */\n  tag_39\n  jump\t// in\ntag_99:\n    /* \"#utility.yul\":2459:2558   */\n  swap2\n  pop\n    /* \"#utility.yul\":2282:2564   */\n  pop\n    /* \"#utility.yul\":2209:2564   */\n  swap3\n  swap2\n  pop\n  pop\n  jump\t// out\n    /* \"#utility.yul\":2570:2647   */\ntag_41:\n    /* \"#utility.yul\":2607:2614   */\n  0x00\n    /* \"#utility.yul\":2636:2641   */\n  dup2\n    /* \"#utility.yul\":2625:2641   */\n  swap1\n  pop\n    /* \"#utility.yul\":2570:2647   */\n  swap2\n  swap1\n  pop\n  jump\t// out\n    /* \"#utility.yul\":2653:2775   */\ntag_42:\n    /* \"#utility.yul\":2726:2750   */\n  tag_102\n    /* \"#utility.yul\":2744:2749   */\n  dup2\n    /* \"#utility.yul\":2726:2750   */\n  tag_41\n  jump\t// in\ntag_102:\n    /* \"#utility.yul\":2719:2724   */\n  dup2\n    /* \"#utility.yul\":2716:2751   */\n  eq\n    /* \"#utility.yul\":2706:2769   */\n  tag_103\n  jumpi\n    /* \"#utility.yul\":2765:2766   */\n  0x00\n    /* \"#utility.yul\":2762:2763   */\n  0x00\n    /* \"#utility.yul\":2755:2767   */\n  revert\n    /* \"#utility.yul\":2706:2769   */\ntag_103:\n    /* \"#utility.yul\":2653:2775   */\n  pop\n  jump\t// out\n    /* \"#utility.yul\":2781:2924   */\ntag_43:\n    /* \"#utility.yul\":2838:2843   */\n  0x00\n    /* \"#utility.yul\":2869:2875   */\n  dup2\n    /* \"#utility.yul\":2863:2876   */\n  mload\n    /* \"#utility.yul\":2854:2876   */\n  swap1\n  pop\n    /* \"#utility.yul\":2885:2918   */\n  tag_105\n    /* \"#utility.yul\":2912:2917   */\n  dup2\n    /* \"#utility.yul\":2885:2918   */\n  tag_42\n  jump\t// in\ntag_105:\n    /* \"#utility.yul\":2781:2924   */\n  swap3\n  swap2\n  pop\n  pop\n  jump\t// out\n    /* \"#utility.yul\":2930:4096   */\ntag_3:\n    /* \"#utility.yul\":3047:3053   */\n  0x00\n    /* \"#utility.yul\":3055:3061   */\n  0x00\n    /* \"#utility.yul\":3063:3069   */\n  0x00\n    /* \"#utility.yul\":3071:3077   */\n  0x00\n    /* \"#utility.yul\":3120:3123   */\n  0x80\n    /* \"#utility.yul\":3108:3117   */\n  dup6\n    /* \"#utility.yul\":3099:3106   */\n  dup8\n    /* \"#utility.yul\":3095:3118   */\n  sub\n    /* \"#utility.yul\":3091:3124   */\n  slt\n    /* \"#utility.yul\":3088:3208   */\n  iszero\n  tag_107\n  jumpi\n    /* \"#utility.yul\":3127:3206   */\n  tag_108\n  tag_29\n  jump\t// in\ntag_108:\n    /* \"#utility.yul\":3088:3208   */\ntag_107:\n    /* \"#utility.yul\":3268:3269   */\n  0x00\n    /* \"#utility.yul\":3257:3266   */\n  dup6\n    /* \"#utility.yul\":3253:3270   */\n  add\n    /* \"#utility.yul\":3247:3271   */\n  mload\n    /* \"#utility.yul\":3298:3316   */\n  0xffffffffffffffff\n    /* \"#utility.yul\":3290:3296   */\n  dup2\n    /* \"#utility.yul\":3287:3317   */\n  gt\n    /* \"#utility.yul\":3284:3401   */\n  iszero\n  tag_109\n  jumpi\n    /* \"#utility.yul\":3320:3399   */\n  tag_110\n  tag_30\n  jump\t// in\ntag_110:\n    /* \"#utility.yul\":3284:3401   */\ntag_109:\n    /* \"#utility.yul\":3425:3499   */\n  tag_111\n    /* \"#utility.yul\":3491:3498   */\n  dup8\n    /* \"#utility.yul\":3482:3488   */\n  dup3\n    /* \"#utility.yul\":3471:3480   */\n  dup9\n    /* \"#utility.yul\":3467:3489   */\n  add\n    /* \"#utility.yul\":3425:3499   */\n  tag_40\n  jump\t// in\ntag_111:\n    /* \"#utility.yul\":3415:3499   */\n  swap5\n  pop\n    /* \"#utility.yul\":3218:3509   */\n  pop\n    /* \"#utility.yul\":3569:3571   */\n  0x20\n    /* \"#utility.yul\":3558:3567   */\n  dup6\n    /* \"#utility.yul\":3554:3572   */\n  add\n    /* \"#utility.yul\":3548:3573   */\n  mload\n    /* \"#utility.yul\":3600:3618   */\n  0xffffffffffffffff\n    /* \"#utility.yul\":3592:3598   */\n  dup2\n    /* \"#utility.yul\":3589:3619   */\n  gt\n    /* \"#utility.yul\":3586:3703   */\n  iszero\n  tag_112\n  jumpi\n    /* \"#utility.yul\":3622:3701   */\n  tag_113\n  tag_30\n  jump\t// in\ntag_113:\n    /* \"#utility.yul\":3586:3703   */\ntag_112:\n    /* \"#utility.yul\":3727:3801   */\n  tag_114\n    /* \"#utility.yul\":3793:3800   */\n  dup8\n    /* \"#utility.yul\":3784:3790   */\n  dup3\n    /* \"#utility.yul\":3773:3782   */\n  dup9\n    /* \"#utility.yul\":3769:3791   */\n  add\n    /* \"#utility.yul\":3727:3801   */\n  tag_40\n  jump\t// in\ntag_114:\n    /* \"#utility.yul\":3717:3801   */\n  swap4\n  pop\n    /* \"#utility.yul\":3519:3811   */\n  pop\n    /* \"#utility.yul\":3850:3852   */\n  0x40\n    /* \"#utility.yul\":3876:3940   */\n  tag_115\n    /* \"#utility.yul\":3932:3939   */\n  dup8\n    /* \"#utility.yul\":3923:3929   */\n  dup3\n    /* \"#utility.yul\":3912:3921   */\n  dup9\n    /* \"#utility.yul\":3908:3930   */\n  add\n    /* \"#utility.yul\":3876:3940   */\n  tag_43\n  jump\t// in\ntag_115:\n    /* \"#utility.yul\":3866:3940   */\n  swap3\n  pop\n    /* \"#utility.yul\":3821:3950   */\n  pop\n    /* \"#utility.yul\":3989:3991   */\n  0x60\n    /* \"#utility.yul\":4015:4079   */\n  tag_116\n    /* \"#utility.yul\":4071:4078   */\n  dup8\n    /* \"#utility.yul\":4062:4068   */\n  dup3\n    /* \"#utility.yul\":4051:4060   */\n  dup9\n    /* \"#utility.yul\":4047:4069   */\n  add\n    /* \"#utility.yul\":4015:4079   */\n  tag_43\n  jump\t// in\ntag_116:\n    /* \"#utility.yul\":4005:4079   */\n  swap2\n  pop\n    /* \"#utility.yul\":3960:4089   */\n  pop\n    /* \"#utility.yul\":2930:4096   */\n  swap3\n  swap6\n  swap2\n  swap5\n  pop\n  swap3\n  pop\n  jump\t// out\n    /* \"#utility.yul\":4102:4201   */\ntag_44:\n    /* \"#utility.yul\":4154:4160   */\n  0x00\n    /* \"#utility.yul\":4188:4193   */\n  dup2\n    /* \"#utility.yul\":4182:4194   */\n  mload\n    /* \"#utility.yul\":4172:4194   */\n  swap1\n  pop\n    /* \"#utility.yul\":4102:4201   */\n  swap2\n  swap1\n  pop\n  jump\t// out\n    /* \"#utility.yul\":4207:4387   */\ntag_45:\n    /* \"#utility.yul\":4255:4332   */\n  0x4e487b7100000000000000000000000000000000000000000000000000000000\n    /* \"#utility.yul\":4252:4253   */\n  0x00\n    /* \"#utility.yul\":4245:4333   */\n  mstore\n    /* \"#utility.yul\":4352:4356   */\n  0x22\n    /* \"#utility.yul\":4349:4350   */\n  0x04\n    /* \"#utility.yul\":4342:4357   */\n  mstore\n    /* \"#utility.yul\":4376:4380   */\n  0x24\n    /* \"#utility.yul\":4373:4374   */\n  0x00\n    /* \"#utility.yul\":4366:4381   */\n  revert\n    /* \"#utility.yul\":4393:4713   */\ntag_46:\n    /* \"#utility.yul\":4437:4443   */\n  0x00\n    /* \"#utility.yul\":4474:4475   */\n  0x02\n    /* \"#utility.yul\":4468:4472   */\n  dup3\n    /* \"#utility.yul\":4464:4476   */\n  div\n    /* \"#utility.yul\":4454:4476   */\n  swap1\n  pop\n    /* \"#utility.yul\":4521:4522   */\n  0x01\n    /* \"#utility.yul\":4515:4519   */\n  dup3\n    /* \"#utility.yul\":4511:4523   */\n  and\n    /* \"#utility.yul\":4542:4560   */\n  dup1\n    /* \"#utility.yul\":4532:4613   */\n  tag_120\n  jumpi\n    /* \"#utility.yul\":4598:4602   */\n  0x7f\n    /* \"#utility.yul\":4590:4596   */\n  dup3\n    /* \"#utility.yul\":4586:4603   */\n  and\n    /* \"#utility.yul\":4576:4603   */\n  swap2\n  pop\n    /* \"#utility.yul\":4532:4613   */\ntag_120:\n    /* \"#utility.yul\":4660:4662   */\n  0x20\n    /* \"#utility.yul\":4652:4658   */\n  dup3\n    /* \"#utility.yul\":4649:4663   */\n  lt\n    /* \"#utility.yul\":4629:4647   */\n  dup2\n    /* \"#utility.yul\":4626:4664   */\n  sub\n    /* \"#utility.yul\":4623:4707   */\n  tag_121\n  jumpi\n    /* \"#utility.yul\":4679:4697   */\n  tag_122\n  tag_45\n  jump\t// in\ntag_122:\n    /* \"#utility.yul\":4623:4707   */\ntag_121:\n    /* \"#utility.yul\":4444:4713   */\n  pop\n    /* \"#utility.yul\":4393:4713   */\n  swap2\n  swap1\n  pop\n  jump\t// out\n    /* \"#utility.yul\":4719:4860   */\ntag_47:\n    /* \"#utility.yul\":4768:4772   */\n  0x00\n    /* \"#utility.yul\":4791:4794   */\n  dup2\n    /* \"#utility.yul\":4783:4794   */\n  swap1\n  pop\n    /* \"#utility.yul\":4814:4817   */\n  dup2\n    /* \"#utility.yul\":4811:4812   */\n  0x00\n    /* \"#utility.yul\":4804:4818   */\n  mstore\n    /* \"#utility.yul\":4848:4852   */\n  0x20\n    /* \"#utility.yul\":4845:4846   */\n  0x00\n    /* \"#utility.yul\":4835:4853   */\n  keccak256\n    /* \"#utility.yul\":4827:4853   */\n  swap1\n  pop\n    /* \"#utility.yul\":4719:4860   */\n  swap2\n  swap1\n  pop\n  jump\t// out\n    /* \"#utility.yul\":4866:4959   */\ntag_48:\n    /* \"#utility.yul\":4903:4909   */\n  0x00\n    /* \"#utility.yul\":4950:4952   */\n  0x20\n    /* \"#utility.yul\":4945:4947   */\n  0x1f\n    /* \"#utility.yul\":4938:4943   */\n  dup4\n    /* \"#utility.yul\":4934:4948   */\n  add\n    /* \"#utility.yul\":4930:4953   */\n  div\n    /* \"#utility.yul\":4920:4953   */\n  swap1\n  pop\n    /* \"#utility.yul\":4866:4959   */\n  swap2\n  swap1\n  pop\n  jump\t// out\n    /* \"#utility.yul\":4965:5072   */\ntag_49:\n    /* \"#utility.yul\":5009:5017   */\n  0x00\n    /* \"#utility.yul\":5059:5064   */\n  dup3\n    /* \"#utility.yul\":5053:5057   */\n  dup3\n    /* \"#utility.yul\":5049:5065   */\n  shl\n    /* \"#utility.yul\":5028:5065   */\n  swap1\n  pop\n    /* \"#utility.yul\":4965:5072   */\n  swap3\n  swap2\n  pop\n  pop\n  jump\t// out\n    /* \"#utility.yul\":5078:5471   */\ntag_50:\n    /* \"#utility.yul\":5147:5153   */\n  0x00\n    /* \"#utility.yul\":5197:5198   */\n  0x08\n    /* \"#utility.yul\":5185:5195   */\n  dup4\n    /* \"#utility.yul\":5181:5199   */\n  mul\n    /* \"#utility.yul\":5220:5317   */\n  tag_127\n    /* \"#utility.yul\":5250:5316   */\n  0xffffffffffffffffffffffffffffffffffffffffffffffffffffffffffffffff\n    /* \"#utility.yul\":5239:5248   */\n  dup3\n    /* \"#utility.yul\":5220:5317   */\n  tag_49\n  jump\t// in\ntag_127:\n    /* \"#utility.yul\":5338:5377   */\n  tag_128\n    /* \"#utility.yul\":5368:5376   */\n  dup7\n    /* \"#utility.yul\":5357:5366   */\n  dup4\n    /* \"#utility.yul\":5338:5377   */\n  tag_49\n  jump\t// in\ntag_128:\n    /* \"#utility.yul\":5326:5377   */\n  swap6\n  pop\n    /* \"#utility.yul\":5410:5414   */\n  dup1\n    /* \"#utility.yul\":5406:5415   */\n  not\n    /* \"#utility.yul\":5399:5404   */\n  dup5\n    /* \"#utility.yul\":5395:5416   */\n  and\n    /* \"#utility.yul\":5386:5416   */\n  swap4\n  pop\n    /* \"#utility.yul\":5459:5463   */\n  dup1\n    /* \"#utility.yul\":5449:5457   */\n  dup7\n    /* \"#utility.yul\":5445:5464   */\n  and\n    /* \"#utility.yul\":5438:5443   */\n  dup5\n    /* \"#utility.yul\":5435:5465   */\n  or\n    /* \"#utility.yul\":5425:5465   */\n  swap3\n  pop\n    /* \"#utility.yul\":5154:5471   */\n  pop\n  pop\n    /* \"#utility.yul\":5078:5471   */\n  swap4\n  swap3\n  pop\n  pop\n  pop\n  jump\t// out\n    /* \"#utility.yul\":5477:5537   */\ntag_51:\n    /* \"#utility.yul\":5505:5508   */\n  0x00\n    /* \"#utility.yul\":5526:5531   */\n  dup2\n    /* \"#utility.yul\":5519:5531   */\n  swap1\n  pop\n    /* \"#utility.yul\":5477:5537   */\n  swap2\n  swap1\n  pop\n  jump\t// out\n    /* \"#utility.yul\":5543:5685   */\ntag_52:\n    /* \"#utility.yul\":5593:5602   */\n  0x00\n    /* \"#utility.yul\":5626:5679   */\n  tag_131\n    /* \"#utility.yul\":5644:5678   */\n  tag_132\n    /* \"#utility.yul\":5653:5677   */\n  tag_133\n    /* \"#utility.yul\":5671:5676   */\n  dup5\n    /* \"#utility.yul\":5653:5677   */\n  tag_41\n  jump\t// in\ntag_133:\n    /* \"#utility.yul\":5644:5678   */\n  tag_51\n  jump\t// in\ntag_132:\n    /* \"#utility.yul\":5626:5679   */\n  tag_41\n  jump\t// in\ntag_131:\n    /* \"#utility.yul\":5613:5679   */\n  swap1\n  pop\n    /* \"#utility.yul\":5543:5685   */\n  swap2\n  swap1\n  pop\n  jump\t// out\n    /* \"#utility.yul\":5691:5766   */\ntag_53:\n    /* \"#utility.yul\":5734:5737   */\n  0x00\n    /* \"#utility.yul\":5755:5760   */\n  dup2\n    /* \"#utility.yul\":5748:5760   */\n  swap1\n  pop\n    /* \"#utility.yul\":5691:5766   */\n  swap2\n  swap1\n  pop\n  jump\t// out\n    /* \"#utility.yul\":5772:6041   */\ntag_54:\n    /* \"#utility.yul\":5882:5921   */\n  tag_136\n    /* \"#utility.yul\":5913:5920   */\n  dup4\n    /* \"#utility.yul\":5882:5921   */\n  tag_52\n  jump\t// in\ntag_136:\n    /* \"#utility.yul\":5943:6034   */\n  tag_137\n    /* \"#utility.yul\":5992:6033   */\n  tag_138\n    /* \"#utility.yul\":6016:6032   */\n  dup3\n    /* \"#utility.yul\":5992:6033   */\n  tag_53\n  jump\t// in\ntag_138:\n    /* \"#utility.yul\":5984:5990   */\n  dup5\n    /* \"#utility.yul\":5977:5981   */\n  dup5\n    /* \"#utility.yul\":5971:5982   */\n  sload\n    /* \"#utility.yul\":5943:6034   */\n  tag_50\n  jump\t// in\ntag_137:\n    /* \"#utility.yul\":5937:5941   */\n  dup3\n    /* \"#utility.yul\":5930:6035   */\n  sstore\n    /* \"#utility.yul\":5848:6041   */\n  pop\n    /* \"#utility.yul\":5772:6041   */\n  pop\n  pop\n  pop\n  jump\t// out\n    /* \"#utility.yul\":6047:6120   */\ntag_55:\n    /* \"#utility.yul\":6092:6095   */\n  0x00\n    /* \"#utility.yul\":6113:6114   */\n  0x00\n    /* \"#utility.yul\":6106:6114   */\n  swap1\n  pop\n    /* \"#utility.yul\":6047:6120   */\n  swap1\n  jump\t// out\n    /* \"#utility.yul\":6126:6315   */\ntag_56:\n    /* \"#utility.yul\":6203:6235   */\n  tag_141\n  tag_55\n  jump\t// in\ntag_141:\n    /* \"#utility.yul\":6244:6309   */\n  tag_142\n    /* \"#utility.yul\":6302:6308   */\n  dup2\n    /* \"#utility.yul\":6294:6300   */\n  dup5\n    /* \"#utility.yul\":6288:6292   */\n  dup5\n    /* \"#utility.yul\":6244:6309   */\n  tag_54\n  jump\t// in\ntag_142:\n    /* \"#utility.yul\":6179:6315   */\n  pop\n    /* \"#utility.yul\":6126:6315   */\n  pop\n  pop\n  jump\t// out\n    /* \"#utility.yul\":6321:6507   */\ntag_57:\n    /* \"#utility.yul\":6381:6501   */\ntag_144:\n    /* \"#utility.yul\":6398:6401   */\n  dup2\n    /* \"#utility.yul\":6391:6396   */\n  dup2\n    /* \"#utility.yul\":6388:6402   */\n  lt\n    /* \"#utility.yul\":6381:6501   */\n  iszero\n  tag_146\n  jumpi\n    /* \"#utility.yul\":6452:6491   */\n  tag_147\n    /* \"#utility.yul\":6489:6490   */\n  0x00\n    /* \"#utility.yul\":6482:6487   */\n  dup3\n    /* \"#utility.yul\":6452:6491   */\n  tag_56\n  jump\t// in\ntag_147:\n    /* \"#utility.yul\":6425:6426   */\n  0x01\n    /* \"#utility.yul\":6418:6423   */\n  dup2\n    /* \"#utility.yul\":6414:6427   */\n  add\n    /* \"#utility.yul\":6405:6427   */\n  swap1\n  pop\n    /* \"#utility.yul\":6381:6501   */\n  jump(tag_144)\ntag_146:\n    /* \"#utility.yul\":6321:6507   */\n  pop\n  pop\n  jump\t// out\n    /* \"#utility.yul\":6513:7056   */\ntag_58:\n    /* \"#utility.yul\":6614:6616   */\n  0x1f\n    /* \"#utility.yul\":6609:6612   */\n  dup3\n    /* \"#utility.yul\":6606:6617   */\n  gt\n    /* \"#utility.yul\":6603:7049   */\n  iszero\n  tag_149\n  jumpi\n    /* \"#utility.yul\":6648:6686   */\n  tag_150\n    /* \"#utility.yul\":6680:6685   */\n  dup2\n    /* \"#utility.yul\":6648:6686   */\n  tag_47\n  jump\t// in\ntag_150:\n    /* \"#utility.yul\":6732:6761   */\n  tag_151\n    /* \"#utility.yul\":6750:6760   */\n  dup5\n    /* \"#utility.yul\":6732:6761   */\n  tag_48\n  jump\t// in\ntag_151:\n    /* \"#utility.yul\":6722:6730   */\n  dup2\n    /* \"#utility.yul\":6718:6762   */\n  add\n    /* \"#utility.yul\":6915:6917   */\n  0x20\n    /* \"#utility.yul\":6903:6913   */\n  dup6\n    /* \"#utility.yul\":6900:6918   */\n  lt\n    /* \"#utility.yul\":6897:6946   */\n  iszero\n  tag_152\n  jumpi\n    /* \"#utility.yul\":6936:6944   */\n  dup2\n    /* \"#utility.yul\":6921:6944   */\n  swap1\n  pop\n    /* \"#utility.yul\":6897:6946   */\ntag_152:\n    /* \"#utility.yul\":6959:7039   */\n  tag_153\n    /* \"#utility.yul\":7015:7037   */\n  tag_154\n    /* \"#utility.yul\":7033:7036   */\n  dup6\n    /* \"#utility.yul\":7015:7037   */\n  tag_48\n  jump\t// in\ntag_154:\n    /* \"#utility.yul\":7005:7013   */\n  dup4\n    /* \"#utility.yul\":7001:7038   */\n  add\n    /* \"#utility.yul\":6988:6999   */\n  dup3\n    /* \"#utility.yul\":6959:7039   */\n  tag_57\n  jump\t// in\ntag_153:\n    /* \"#utility.yul\":6618:7049   */\n  pop\n  pop\n    /* \"#utility.yul\":6603:7049   */\ntag_149:\n    /* \"#utility.yul\":6513:7056   */\n  pop\n  pop\n  pop\n  jump\t// out\n    /* \"#utility.yul\":7062:7179   */\ntag_59:\n    /* \"#utility.yul\":7116:7124   */\n  0x00\n    /* \"#utility.yul\":7166:7171   */\n  dup3\n    /* \"#utility.yul\":7160:7164   */\n  dup3\n    /* \"#utility.yul\":7156:7172   */\n  shr\n    /* \"#utility.yul\":7135:7172   */\n  swap1\n  pop\n    /* \"#utility.yul\":7062:7179   */\n  swap3\n  swap2\n  pop\n  pop\n  jump\t// out\n    /* \"#utility.yul\":7185:7354   */\ntag_60:\n    /* \"#utility.yul\":7229:7235   */\n  0x00\n    /* \"#utility.yul\":7262:7313   */\n  tag_157\n    /* \"#utility.yul\":7310:7311   */\n  0x00\n    /* \"#utility.yul\":7306:7312   */\n  not\n    /* \"#utility.yul\":7298:7303   */\n  dup5\n    /* \"#utility.yul\":7295:7296   */\n  0x08\n    /* \"#utility.yul\":7291:7304   */\n  mul\n    /* \"#utility.yul\":7262:7313   */\n  tag_59\n  jump\t// in\ntag_157:\n    /* \"#utility.yul\":7258:7314   */\n  not\n    /* \"#utility.yul\":7343:7347   */\n  dup1\n    /* \"#utility.yul\":7337:7341   */\n  dup4\n    /* \"#utility.yul\":7333:7348   */\n  and\n    /* \"#utility.yul\":7323:7348   */\n  swap2\n  pop\n    /* \"#utility.yul\":7236:7354   */\n  pop\n    /* \"#utility.yul\":7185:7354   */\n  swap3\n  swap2\n  pop\n  pop\n  jump\t// out\n    /* \"#utility.yul\":7359:7654   */\ntag_61:\n    /* \"#utility.yul\":7435:7439   */\n  0x00\n    /* \"#utility.yul\":7581:7610   */\n  tag_159\n    /* \"#utility.yul\":7606:7609   */\n  dup4\n    /* \"#utility.yul\":7600:7604   */\n  dup4\n    /* \"#utility.yul\":7581:7610   */\n  tag_60\n  jump\t// in\ntag_159:\n    /* \"#utility.yul\":7573:7610   */\n  swap2\n  pop\n    /* \"#utility.yul\":7643:7646   */\n  dup3\n    /* \"#utility.yul\":7640:7641   */\n  0x02\n    /* \"#utility.yul\":7636:7647   */\n  mul\n    /* \"#utility.yul\":7630:7634   */\n  dup3\n    /* \"#utility.yul\":7627:7648   */\n  or\n    /* \"#utility.yul\":7619:7648   */\n  swap1\n  pop\n    /* \"#utility.yul\":7359:7654   */\n  swap3\n  swap2\n  pop\n  pop\n  jump\t// out\n    /* \"#utility.yul\":7659:9054   */\ntag_7:\n    /* \"#utility.yul\":7776:7813   */\n  tag_161\n    /* \"#utility.yul\":7809:7812   */\n  dup3\n    /* \"#utility.yul\":7776:7813   */\n  tag_44\n  jump\t// in\ntag_161:\n    /* \"#utility.yul\":7878:7896   */\n  0xffffffffffffffff\n    /* \"#utility.yul\":7870:7876   */\n  dup2\n    /* \"#utility.yul\":7867:7897   */\n  gt\n    /* \"#utility.yul\":7864:7920   */\n  iszero\n  tag_162\n  jumpi\n    /* \"#utility.yul\":7900:7918   */\n  tag_163\n  tag_34\n  jump\t// in\ntag_163:\n    /* \"#utility.yul\":7864:7920   */\ntag_162:\n    /* \"#utility.yul\":7944:7982   */\n  tag_164\n    /* \"#utility.yul\":7976:7980   */\n  dup3\n    /* \"#utility.yul\":7970:7981   */\n  sload\n    /* \"#utility.yul\":7944:7982   */\n  tag_46\n  jump\t// in\ntag_164:\n    /* \"#utility.yul\":8029:8096   */\n  tag_165\n    /* \"#utility.yul\":8089:8095   */\n  dup3\n    /* \"#utility.yul\":8081:8087   */\n  dup3\n    /* \"#utility.yul\":8075:8079   */\n  dup6\n    /* \"#utility.yul\":8029:8096   */\n  tag_58\n  jump\t// in\ntag_165:\n    /* \"#utility.yul\":8123:8124   */\n  0x00\n    /* \"#utility.yul\":8147:8151   */\n  0x20\n    /* \"#utility.yul\":8134:8151   */\n  swap1\n  pop\n    /* \"#utility.yul\":8179:8181   */\n  0x1f\n    /* \"#utility.yul\":8171:8177   */\n  dup4\n    /* \"#utility.yul\":8168:8182   */\n  gt\n    /* \"#utility.yul\":8196:8197   */\n  0x01\n    /* \"#utility.yul\":8191:8809   */\n  dup2\n  eq\n  tag_167\n  jumpi\n    /* \"#utility.yul\":8853:8854   */\n  0x00\n    /* \"#utility.yul\":8870:8876   */\n  dup5\n    /* \"#utility.yul\":8867:8944   */\n  iszero\n  tag_168\n  jumpi\n    /* \"#utility.yul\":8919:8928   */\n  dup3\n    /* \"#utility.yul\":8914:8917   */\n  dup8\n    /* \"#utility.yul\":8910:8929   */\n  add\n    /* \"#utility.yul\":8904:8930   */\n  mload\n    /* \"#utility.yul\":8895:8930   */\n  swap1\n  pop\n    /* \"#utility.yul\":8867:8944   */\ntag_168:\n    /* \"#utility.yul\":8970:9037   */\n  tag_169\n    /* \"#utility.yul\":9030:9036   */\n  dup6\n    /* \"#utility.yul\":9023:9028   */\n  dup3\n    /* \"#utility.yul\":8970:9037   */\n  tag_61\n  jump\t// in\ntag_169:\n    /* \"#utility.yul\":8964:8968   */\n  dup7\n    /* \"#utility.yul\":8957:9038   */\n  sstore\n    /* \"#utility.yul\":8826:9048   */\n  pop\n    /* \"#utility.yul\":8161:9048   */\n  jump(tag_166)\n    /* \"#utility.yul\":8191:8809   */\ntag_167:\n    /* \"#utility.yul\":8243:8247   */\n  0x1f\n    /* \"#utility.yul\":8239:8248   */\n  not\n    /* \"#utility.yul\":8231:8237   */\n  dup5\n    /* \"#utility.yul\":8227:8249   */\n  and\n    /* \"#utility.yul\":8277:8314   */\n  tag_170\n    /* \"#utility.yul\":8309:8313   */\n  dup7\n    /* \"#utility.yul\":8277:8314   */\n  tag_47\n  jump\t// in\ntag_170:\n    /* \"#utility.yul\":8336:8337   */\n  0x00\n    /* \"#utility.yul\":8350:8558   */\ntag_171:\n    /* \"#utility.yul\":8364:8371   */\n  dup3\n    /* \"#utility.yul\":8361:8362   */\n  dup2\n    /* \"#utility.yul\":8358:8372   */\n  lt\n    /* \"#utility.yul\":8350:8558   */\n  iszero\n  tag_173\n  jumpi\n    /* \"#utility.yul\":8443:8452   */\n  dup5\n    /* \"#utility.yul\":8438:8441   */\n  dup10\n    /* \"#utility.yul\":8434:8453   */\n  add\n    /* \"#utility.yul\":8428:8454   */\n  mload\n    /* \"#utility.yul\":8420:8426   */\n  dup3\n    /* \"#utility.yul\":8413:8455   */\n  sstore\n    /* \"#utility.yul\":8494:8495   */\n  0x01\n    /* \"#utility.yul\":8486:8492   */\n  dup3\n    /* \"#utility.yul\":8482:8496   */\n  add\n    /* \"#utility.yul\":8472:8496   */\n  swap2\n  pop\n    /* \"#utility.yul\":8541:8543   */\n  0x20\n    /* \"#utility.yul\":8530:8539   */\n  dup6\n    /* \"#utility.yul\":8526:8544   */\n  add\n    /* \"#utility.yul\":8513:8544   */\n  swap5\n  pop\n    /* \"#utility.yul\":8387:8391   */\n  0x20\n    /* \"#utility.yul\":8384:8385   */\n  dup2\n    /* \"#utility.yul\":8380:8392   */\n  add\n    /* \"#utility.yul\":8375:8392   */\n  swap1\n  pop\n    /* \"#utility.yul\":8350:8558   */\n  jump(tag_171)\ntag_173:\n    /* \"#utility.yul\":8586:8592   */\n  dup7\n    /* \"#utility.yul\":8577:8584   */\n  dup4\n    /* \"#utility.yul\":8574:8593   */\n  lt\n    /* \"#utility.yul\":8571:8750   */\n  iszero\n  tag_174\n  jumpi\n    /* \"#utility.yul\":8644:8653   */\n  dup5\n    /* \"#utility.yul\":8639:8642   */\n  dup10\n    /* \"#utility.yul\":8635:8654   */\n  add\n    /* \"#utility.yul\":8629:8655   */\n  mload\n    /* \"#utility.yul\":8687:8735   */\n  tag_175\n    /* \"#utility.yul\":8729:8733   */\n  0x1f\n    /* \"#utility.yul\":8721:8727   */\n  dup10\n    /* \"#utility.yul\":8717:8734   */\n  and\n    /* \"#utility.yul\":8706:8715   */\n  dup3\n    /* \"#utility.yul\":8687:8735   */\n  tag_60\n  jump\t// in\ntag_175:\n    /* \"#utility.yul\":8679:8685   */\n  dup4\n    /* \"#utility.yul\":8672:8736   */\n  sstore\n    /* \"#utility.yul\":8594:8750   */\n  pop\n    /* \"#utility.yul\":8571:8750   */\ntag_174:\n    /* \"#utility.yul\":8796:8797   */\n  0x01\n    /* \"#utility.yul\":8792:8793   */\n  0x02\n    /* \"#utility.yul\":8784:8790   */\n  dup9\n    /* \"#utility.yul\":8780:8794   */\n  mul\n    /* \"#utility.yul\":8776:8798   */\n  add\n    /* \"#utility.yul\":8770:8774   */\n  dup9\n    /* \"#utility.yul\":8763:8799   */\n  sstore\n    /* \"#utility.yul\":8198:8809   */\n  pop\n  pop\n  pop\n    /* \"#utility.yul\":8161:9048   */\ntag_166:\n  pop\n    /* \"#utility.yul\":7751:9054   */\n  pop\n  pop\n  pop\n    /* \"#utility.yul\":7659:9054   */\n  pop\n  pop\n  jump\t// out\n    /* \"#utility.yul\":9060:9240   */\ntag_62:\n    /* \"#utility.yul\":9108:9185   */\n  0x4e487b7100000000000000000000000000000000000000000000000000000000\n    /* \"#utility.yul\":9105:9106   */\n  0x00\n    /* \"#utility.yul\":9098:9186   */\n  mstore\n    /* \"#utility.yul\":9205:9209   */\n  0x11\n    /* \"#utility.yul\":9202:9203   */\n  0x04\n    /* \"#utility.yul\":9195:9210   */\n  mstore\n    /* \"#utility.yul\":9229:9233   */\n  0x24\n    /* \"#utility.yul\":9226:9227   */\n  0x00\n    /* \"#utility.yul\":9219:9234   */\n  revert\n    /* \"#utility.yul\":9246:9348   */\ntag_63:\n    /* \"#utility.yul\":9288:9296   */\n  0x00\n    /* \"#utility.yul\":9335:9340   */\n  dup2\n    /* \"#utility.yul\":9332:9333   */\n  0x01\n    /* \"#utility.yul\":9328:9341   */\n  shr\n    /* \"#utility.yul\":9307:9341   */\n  swap1\n  pop\n    /* \"#utility.yul\":9246:9348   */\n  swap2\n  swap1\n  pop\n  jump\t// out\n    /* \"#utility.yul\":9354:10202   */\ntag_64:\n    /* \"#utility.yul\":9415:9420   */\n  0x00\n    /* \"#utility.yul\":9422:9426   */\n  0x00\n    /* \"#utility.yul\":9446:9452   */\n  dup3\n    /* \"#utility.yul\":9437:9452   */\n  swap2\n  pop\n    /* \"#utility.yul\":9470:9475   */\n  dup4\n    /* \"#utility.yul\":9461:9475   */\n  swap1\n  pop\n    /* \"#utility.yul\":9484:10196   */\ntag_179:\n    /* \"#utility.yul\":9505:9506   */\n  0x01\n    /* \"#utility.yul\":9495:9503   */\n  dup6\n    /* \"#utility.yul\":9492:9507   */\n  gt\n    /* \"#utility.yul\":9484:10196   */\n  iszero\n  tag_181\n  jumpi\n    /* \"#utility.yul\":9600:9604   */\n  dup1\n    /* \"#utility.yul\":9595:9598   */\n  dup7\n    /* \"#utility.yul\":9591:9605   */\n  div\n    /* \"#utility.yul\":9585:9589   */\n  dup2\n    /* \"#utility.yul\":9582:9606   */\n  gt\n    /* \"#utility.yul\":9579:9629   */\n  iszero\n  tag_182\n  jumpi\n    /* \"#utility.yul\":9609:9627   */\n  tag_183\n  tag_62\n  jump\t// in\ntag_183:\n    /* \"#utility.yul\":9579:9629   */\ntag_182:\n    /* \"#utility.yul\":9659:9660   */\n  0x01\n    /* \"#utility.yul\":9649:9657   */\n  dup6\n    /* \"#utility.yul\":9645:9661   */\n  and\n    /* \"#utility.yul\":9642:10093   */\n  iszero\n  tag_184\n  jumpi\n    /* \"#utility.yul\":10074:10078   */\n  dup1\n    /* \"#utility.yul\":10067:10072   */\n  dup3\n    /* \"#utility.yul\":10063:10079   */\n  mul\n    /* \"#utility.yul\":10054:10079   */\n  swap2\n  pop\n    /* \"#utility.yul\":9642:10093   */\ntag_184:\n    /* \"#utility.yul\":10124:10128   */\n  dup1\n    /* \"#utility.yul\":10118:10122   */\n  dup2\n    /* \"#utility.yul\":10114:10129   */\n  mul\n    /* \"#utility.yul\":10106:10129   */\n  swap1\n  pop\n    /* \"#utility.yul\":10154:10186   */\n  tag_185\n    /* \"#utility.yul\":10177:10185   */\n  dup6\n    /* \"#utility.yul\":10154:10186   */\n  tag_63\n  jump\t// in\ntag_185:\n    /* \"#utility.yul\":10142:10186   */\n  swap5\n  pop\n    /* \"#utility.yul\":9484:10196   */\n  jump(tag_179)\ntag_181:\n    /* \"#utility.yul\":9354:10202   */\n  swap5\n  pop\n  swap5\n  swap3\n  pop\n  pop\n  pop\n  jump\t// out\n    /* \"#utility.yul\":10208:11281   */\ntag_65:\n    /* \"#utility.yul\":10262:10267   */\n  0x00\n    /* \"#utility.yul\":10453:10461   */\n  dup3\n    /* \"#utility.yul\":10443:10483   */\n  tag_187\n  jumpi\n    /* \"#utility.yul\":10474:10475   */\n  0x01\n    /* \"#utility.yul\":10465:10475   */\n  swap1\n  pop\n    /* \"#utility.yul\":10476:10481   */\n  jump(tag_186)\n    /* \"#utility.yul\":10443:10483   */\ntag_187:\n    /* \"#utility.yul\":10502:10506   */\n  dup2\n    /* \"#utility.yul\":10492:10528   */\n  tag_188\n  jumpi\n    /* \"#utility.yul\":10519:10520   */\n  0x00\n    /* \"#utility.yul\":10510:10520   */\n  swap1\n  pop\n    /* \"#utility.yul\":10521:10526   */\n  jump(tag_186)\n    /* \"#utility.yul\":10492:10528   */\ntag_188:\n    /* \"#utility.yul\":10588:10592   */\n  dup2\n    /* \"#utility.yul\":10636:10637   */\n  0x01\n    /* \"#utility.yul\":10631:10658   */\n  dup2\n  eq\n  tag_190\n  jumpi\n    /* \"#utility.yul\":10672:10673   */\n  0x02\n    /* \"#utility.yul\":10667:10858   */\n  dup2\n  eq\n  tag_191\n  jumpi\n    /* \"#utility.yul\":10581:10858   */\n  jump(tag_189)\n    /* \"#utility.yul\":10631:10658   */\ntag_190:\n    /* \"#utility.yul\":10649:10650   */\n  0x01\n    /* \"#utility.yul\":10640:10650   */\n  swap2\n  pop\n    /* \"#utility.yul\":10651:10656   */\n  pop\n  jump(tag_186)\n    /* \"#utility.yul\":10667:10858   */\ntag_191:\n    /* \"#utility.yul\":10712:10715   */\n  0xff\n    /* \"#utility.yul\":10702:10710   */\n  dup5\n    /* \"#utility.yul\":10699:10716   */\n  gt\n    /* \"#utility.yul\":10696:10739   */\n  iszero\n  tag_192\n  jumpi\n    /* \"#utility.yul\":10719:10737   */\n  tag_193\n  tag_62\n  jump\t// in\ntag_193:\n    /* \"#utility.yul\":10696:10739   */\ntag_192:\n    /* \"#utility.yul\":10768:10776   */\n  dup4\n    /* \"#utility.yul\":10765:10766   */\n  0x02\n    /* \"#utility.yul\":10761:10777   */\n  exp\n    /* \"#utility.yul\":10752:10777   */\n  swap2\n  pop\n    /* \"#utility.yul\":10803:10806   */\n  dup5\n    /* \"#utility.yul\":10796:10801   */\n  dup3\n    /* \"#utility.yul\":10793:10807   */\n  gt\n    /* \"#utility.yul\":10790:10830   */\n  iszero\n  tag_194\n  jumpi\n    /* \"#utility.yul\":10810:10828   */\n  tag_195\n  tag_62\n  jump\t// in\ntag_195:\n    /* \"#utility.yul\":10790:10830   */\ntag_194:\n    /* \"#utility.yul\":10843:10848   */\n  pop\n  jump(tag_186)\n    /* \"#utility.yul\":10581:10858   */\ntag_189:\n  pop\n    /* \"#utility.yul\":10967:10969   */\n  0x20\n    /* \"#utility.yul\":10957:10965   */\n  dup4\n    /* \"#utility.yul\":10954:10970   */\n  lt\n    /* \"#utility.yul\":10948:10951   */\n  0x0133\n    /* \"#utility.yul\":10942:10946   */\n  dup4\n    /* \"#utility.yul\":10939:10952   */\n  lt\n    /* \"#utility.yul\":10935:10971   */\n  and\n    /* \"#utility.yul\":10917:10919   */\n  0x4e\n    /* \"#utility.yul\":10907:10915   */\n  dup5\n    /* \"#utility.yul\":10904:10920   */\n  lt\n    /* \"#utility.yul\":10899:10901   */\n  0x0b\n    /* \"#utility.yul\":10893:10897   */\n  dup5\n    /* \"#utility.yul\":10890:10902   */\n  lt\n    /* \"#utility.yul\":10886:10921   */\n  and\n    /* \"#utility.yul\":10870:10981   */\n  or\n    /* \"#utility.yul\":10867:11113   */\n  iszero\n  tag_196\n  jumpi\n    /* \"#utility.yul\":11023:11031   */\n  dup3\n    /* \"#utility.yul\":11017:11021   */\n  dup3\n    /* \"#utility.yul\":11013:11032   */\n  exp\n    /* \"#utility.yul\":11004:11032   */\n  swap1\n  pop\n    /* \"#utility.yul\":11058:11061   */\n  dup4\n    /* \"#utility.yul\":11051:11056   */\n  dup2\n    /* \"#utility.yul\":11048:11062   */\n  gt\n    /* \"#utility.yul\":11045:11085   */\n  iszero\n  tag_197\n  jumpi\n    /* \"#utility.yul\":11065:11083   */\n  tag_198\n  tag_62\n  jump\t// in\ntag_198:\n    /* \"#utility.yul\":11045:11085   */\ntag_197:\n    /* \"#utility.yul\":11098:11103   */\n  jump(tag_186)\n    /* \"#utility.yul\":10867:11113   */\ntag_196:\n    /* \"#utility.yul\":11138:11180   */\n  tag_199\n    /* \"#utility.yul\":11176:11179   */\n  dup5\n    /* \"#utility.yul\":11166:11174   */\n  dup5\n    /* \"#utility.yul\":11160:11164   */\n  dup5\n    /* \"#utility.yul\":11157:11158   */\n  0x01\n    /* \"#utility.yul\":11138:11180   */\n  tag_64\n  jump\t// in\ntag_199:\n    /* \"#utility.yul\":11123:11180   */\n  swap3\n  pop\n  swap1\n  pop\n    /* \"#utility.yul\":11212:11216   */\n  dup2\n    /* \"#utility.yul\":11207:11210   */\n  dup5\n    /* \"#utility.yul\":11203:11217   */\n  div\n    /* \"#utility.yul\":11196:11201   */\n  dup2\n    /* \"#utility.yul\":11193:11218   */\n  gt\n    /* \"#utility.yul\":11190:11241   */\n  iszero\n  tag_200\n  jumpi\n    /* \"#utility.yul\":11221:11239   */\n  tag_201\n  tag_62\n  jump\t// in\ntag_201:\n    /* \"#utility.yul\":11190:11241   */\ntag_200:\n    /* \"#utility.yul\":11270:11274   */\n  dup2\n    /* \"#utility.yul\":11263:11268   */\n  dup2\n    /* \"#utility.yul\":11259:11275   */\n  mul\n    /* \"#utility.yul\":11250:11275   */\n  swap1\n  pop\n    /* \"#utility.yul\":10208:11281   */\ntag_186:\n  swap4\n  swap3\n  pop\n  pop\n  pop\n  jump\t// out\n    /* \"#utility.yul\":11287:11572   */\ntag_10:\n    /* \"#utility.yul\":11347:11352   */\n  0x00\n    /* \"#utility.yul\":11371:11394   */\n  tag_203\n    /* \"#utility.yul\":11389:11393   */\n  dup3\n    /* \"#utility.yul\":11371:11394   */\n  tag_41\n  jump\t// in\ntag_203:\n    /* \"#utility.yul\":11363:11394   */\n  swap2\n  pop\n    /* \"#utility.yul\":11415:11442   */\n  tag_204\n    /* \"#utility.yul\":11433:11441   */\n  dup4\n    /* \"#utility.yul\":11415:11442   */\n  tag_41\n  jump\t// in\ntag_204:\n    /* \"#utility.yul\":11403:11442   */\n  swap3\n  pop\n    /* \"#utility.yul\":11461:11565   */\n  tag_205\n    /* \"#utility.yul\":11498:11564   */\n  0xffffffffffffffffffffffffffffffffffffffffffffffffffffffffffffffff\n    /* \"#utility.yul\":11488:11496   */\n  dup5\n    /* \"#utility.yul\":11482:11486   */\n  dup5\n    /* \"#utility.yul\":11461:11565   */\n  tag_65\n  jump\t// in\ntag_205:\n    /* \"#utility.yul\":11452:11565   */\n  swap1\n  pop\n    /* \"#utility.yul\":11287:11572   */\n  swap3\n  swap2\n  pop\n  pop\n  jump\t// out\n    /* \"#utility.yul\":11578:11988   */\ntag_12:\n    /* \"#utility.yul\":11618:11625   */\n  0x00\n    /* \"#utility.yul\":11641:11661   */\n  tag_207\n    /* \"#utility.yul\":11659:11660   */\n  dup3\n    /* \"#utility.yul\":11641:11661   */\n  tag_41\n  jump\t// in\ntag_207:\n    /* \"#utility.yul\":11636:11661   */\n  swap2\n  pop\n    /* \"#utility.yul\":11675:11695   */\n  tag_208\n    /* \"#utility.yul\":11693:11694   */\n  dup4\n    /* \"#utility.yul\":11675:11695   */\n  tag_41\n  jump\t// in\ntag_208:\n    /* \"#utility.yul\":11670:11695   */\n  swap3\n  pop\n    /* \"#utility.yul\":11730:11731   */\n  dup3\n    /* \"#utility.yul\":11727:11728   */\n  dup3\n    /* \"#utility.yul\":11723:11732   */\n  mul\n    /* \"#utility.yul\":11752:11782   */\n  tag_209\n    /* \"#utility.yul\":11770:11781   */\n  dup2\n    /* \"#utility.yul\":11752:11782   */\n  tag_41\n  jump\t// in\ntag_209:\n    /* \"#utility.yul\":11741:11782   */\n  swap2\n  pop\n    /* \"#utility.yul\":11931:11932   */\n  dup3\n    /* \"#utility.yul\":11922:11929   */\n  dup3\n    /* \"#utility.yul\":11918:11933   */\n  div\n    /* \"#utility.yul\":11915:11916   */\n  dup5\n    /* \"#utility.yul\":11912:11934   */\n  eq\n    /* \"#utility.yul\":11892:11893   */\n  dup4\n    /* \"#utility.yul\":11885:11894   */\n  iszero\n    /* \"#utility.yul\":11865:11948   */\n  or\n    /* \"#utility.yul\":11842:11981   */\n  tag_210\n  jumpi\n    /* \"#utility.yul\":11961:11979   */\n  tag_211\n  tag_62\n  jump\t// in\ntag_211:\n    /* \"#utility.yul\":11842:11981   */\ntag_210:\n    /* \"#utility.yul\":11626:11988   */\n  pop\n    /* \"#utility.yul\":11578:11988   */\n  swap3\n  swap2\n  pop\n  pop\n  jump\t// out\n    /* \"#utility.yul\":11994:12163   */\ntag_66:\n    /* \"#utility.yul\":12078:12089   */\n  0x00\n    /* \"#utility.yul\":12112:12118   */\n  dup3\n    /* \"#utility.yul\":12107:12110   */\n  dup3\n    /* \"#utility.yul\":12100:12119   */\n  mstore\n    /* \"#utility.yul\":12152:12156   */\n  0x20\n    /* \"#utility.yul\":12147:12150   */\n  dup3\n    /* \"#utility.yul\":12143:12157   */\n  add\n    /* \"#utility.yul\":12128:12157   */\n  swap1\n  pop\n    /* \"#utility.yul\":11994:12163   */\n  swap3\n  swap2\n  pop\n  pop\n  jump\t// out\n    /* \"#utility.yul\":12169:12334   */\ntag_67:\n    /* \"#utility.yul\":12309:12326   */\n  0x496e76616c696420616464726573730000000000000000000000000000000000\n    /* \"#utility.yul\":12305:12306   */\n  0x00\n    /* \"#utility.yul\":12297:12303   */\n  dup3\n    /* \"#utility.yul\":12293:12307   */\n  add\n    /* \"#utility.yul\":12286:12327   */\n  mstore\n    /* \"#utility.yul\":12169:12334   */\n  pop\n  jump\t// out\n    /* \"#utility.yul\":12340:12706   */\ntag_68:\n    /* \"#utility.yul\":12482:12485   */\n  0x00\n    /* \"#utility.yul\":12503:12570   */\n  tag_215\n    /* \"#utility.yul\":12567:12569   */\n  0x0f\n    /* \"#utility.yul\":12562:12565   */\n  dup4\n    /* \"#utility.yul\":12503:12570   */\n  tag_66\n  jump\t// in\ntag_215:\n    /* \"#utility.yul\":12496:12570   */\n  swap2\n  pop\n    /* \"#utility.yul\":12579:12672   */\n  tag_216\n    /* \"#utility.yul\":12668:12671   */\n  dup3\n    /* \"#utility.yul\":12579:12672   */\n  tag_67\n  jump\t// in\ntag_216:\n    /* \"#utility.yul\":12697:12699   */\n  0x20\n    /* \"#utility.yul\":12692:12695   */\n  dup3\n    /* \"#utility.yul\":12688:12700   */\n  add\n    /* \"#utility.yul\":12681:12700   */\n  swap1\n  pop\n    /* \"#utility.yul\":12340:12706   */\n  swap2\n  swap1\n  pop\n  jump\t// out\n    /* \"#utility.yul\":12712:13131   */\ntag_21:\n    /* \"#utility.yul\":12878:12882   */\n  0x00\n    /* \"#utility.yul\":12916:12918   */\n  0x20\n    /* \"#utility.yul\":12905:12914   */\n  dup3\n    /* \"#utility.yul\":12901:12919   */\n  add\n    /* \"#utility.yul\":12893:12919   */\n  swap1\n  pop\n    /* \"#utility.yul\":12965:12974   */\n  dup2\n    /* \"#utility.yul\":12959:12963   */\n  dup2\n    /* \"#utility.yul\":12955:12975   */\n  sub\n    /* \"#utility.yul\":12951:12952   */\n  0x00\n    /* \"#utility.yul\":12940:12949   */\n  dup4\n    /* \"#utility.yul\":12936:12953   */\n  add\n    /* \"#utility.yul\":12929:12976   */\n  mstore\n    /* \"#utility.yul\":12993:13124   */\n  tag_218\n    /* \"#utility.yul\":13119:13123   */\n  dup2\n    /* \"#utility.yul\":12993:13124   */\n  tag_68\n  jump\t// in\ntag_218:\n    /* \"#utility.yul\":12985:13124   */\n  swap1\n  pop\n    /* \"#utility.yul\":12712:13131   */\n  swap2\n  swap1\n  pop\n  jump\t// out\n    /* \"#utility.yul\":13137:13328   */\ntag_23:\n    /* \"#utility.yul\":13177:13180   */\n  0x00\n    /* \"#utility.yul\":13196:13216   */\n  tag_220\n    /* \"#utility.yul\":13214:13215   */\n  dup3\n    /* \"#utility.yul\":13196:13216   */\n  tag_41\n  jump\t// in\ntag_220:\n    /* \"#utility.yul\":13191:13216   */\n  swap2\n  pop\n    /* \"#utility.yul\":13230:13250   */\n  tag_221\n    /* \"#utility.yul\":13248:13249   */\n  dup4\n    /* \"#utility.yul\":13230:13250   */\n  tag_41\n  jump\t// in\ntag_221:\n    /* \"#utility.yul\":13225:13250   */\n  swap3\n  pop\n    /* \"#utility.yul\":13273:13274   */\n  dup3\n    /* \"#utility.yul\":13270:13271   */\n  dup3\n    /* \"#utility.yul\":13266:13275   */\n  add\n    /* \"#utility.yul\":13259:13275   */\n  swap1\n  pop\n    /* \"#utility.yul\":13294:13297   */\n  dup1\n    /* \"#utility.yul\":13291:13292   */\n  dup3\n    /* \"#utility.yul\":13288:13298   */\n  gt\n    /* \"#utility.yul\":13285:13321   */\n  iszero\n  tag_222\n  jumpi\n    /* \"#utility.yul\":13301:13319   */\n  tag_223\n  tag_62\n  jump\t// in\ntag_223:\n    /* \"#utility.yul\":13285:13321   */\ntag_222:\n    /* \"#utility.yul\":13137:13328   */\n  swap3\n  swap2\n  pop\n  pop\n  jump\t// out\n    /* \"#utility.yul\":13334:13452   */\ntag_69:\n    /* \"#utility.yul\":13421:13445   */\n  tag_225\n    /* \"#utility.yul\":13439:13444   */\n  dup2\n    /* \"#utility.yul\":13421:13445   */\n  tag_41\n  jump\t// in\ntag_225:\n    /* \"#utility.yul\":13416:13419   */\n  dup3\n    /* \"#utility.yul\":13409:13446   */\n  mstore\n    /* \"#utility.yul\":13334:13452   */\n  pop\n  pop\n  jump\t// out\n    /* \"#utility.yul\":13458:13680   */\ntag_26:\n    /* \"#utility.yul\":13551:13555   */\n  0x00\n    /* \"#utility.yul\":13589:13591   */\n  0x20\n    /* \"#utility.yul\":13578:13587   */\n  dup3\n    /* \"#utility.yul\":13574:13592   */\n  add\n    /* \"#utility.yul\":13566:13592   */\n  swap1\n  pop\n    /* \"#utility.yul\":13602:13673   */\n  tag_227\n    /* \"#utility.yul\":13670:13671   */\n  0x00\n    /* \"#utility.yul\":13659:13668   */\n  dup4\n    /* \"#utility.yul\":13655:13672   */\n  add\n    /* \"#utility.yul\":13646:13652   */\n  dup5\n    /* \"#utility.yul\":13602:13673   */\n  tag_69\n  jump\t// in\ntag_227:\n    /* \"#utility.yul\":13458:13680   */\n  swap3\n  swap2\n  pop\n  pop\n  jump\t// out\n    /* \"Contract_Conqueror_Series/ERC20standards.sol\":98:7622  contract BasicToken {... */\ntag_17:\n  mload(0x80)\n  codecopy(0x00, dataOffset(sub_0), dataSize(sub_0))\n  0x00\n  assignImmutable(\"0x5c4c6aa067b6f8e6cb38e6ab843832a94d1712d661a04d73c517d6a1931a9e5d\")\n  return(0x00, dataSize(sub_0))\nstop\n\nsub_0: assembly {\n        /* \"Contract_Conqueror_Series/ERC20standards.sol\":98:7622  contract BasicToken {... */\n      mstore(0x40, 0x80)\n      callvalue\n      dup1\n      iszero\n      tag_1\n      jumpi\n      revert(0x00, 0x00)\n    tag_1:\n      pop\n      jumpi(tag_2, lt(calldatasize, 0x04))\n      shr(0xe0, calldataload(0x00))\n      dup1\n      0x70a08231\n      gt\n      tag_23\n      jumpi\n      dup1\n      0xa9059cbb\n      gt\n      tag_24\n      jumpi\n      dup1\n      0xa9059cbb\n      eq\n      tag_18\n      jumpi\n      dup1\n      0xb1c25586\n      eq\n      tag_19\n      jumpi\n      dup1\n      0xc62b3bea\n      eq\n      tag_20\n      jumpi\n      dup1\n      0xdbed1e88\n      eq\n      tag_21\n      jumpi\n      dup1\n      0xdd62ed3e\n      eq\n      tag_22\n      jumpi\n      jump(tag_2)\n    tag_24:\n      dup1\n      0x70a08231\n      eq\n      tag_13\n      jumpi\n      dup1\n      0x72dd529b\n      eq\n      tag_14\n      jumpi\n      dup1\n      0x8456cb59\n      eq\n      tag_15\n      jumpi\n      dup1\n      0x8da5cb5b\n      eq\n      tag_16\n      jumpi\n      dup1\n      0x95d89b41\n      eq\n      tag_17\n      jumpi\n      jump(tag_2)\n    tag_23:\n      dup1\n      0x3f4ba83a\n      gt\n      tag_25\n      jumpi\n      dup1\n      0x3f4ba83a\n      eq\n      tag_8\n      jumpi\n      dup1\n      0x40c10f19\n      eq\n      tag_9\n      jumpi\n      dup1\n      0x42966c68\n      eq\n      tag_10\n      jumpi\n      dup1\n      0x5c975abb\n      eq\n      tag_11\n      jumpi\n      dup1\n      0x6c9230db\n      eq\n      tag_12\n      jumpi\n      jump(tag_2)\n    tag_25:\n      dup1\n      0x06fdde03\n      eq\n      tag_3\n      jumpi\n      dup1\n      0x095ea7b3\n      eq\n      tag_4\n      jumpi\n      dup1\n      0x23b872dd\n      eq\n      tag_5\n      jumpi\n      dup1\n      0x313ce567\n      eq\n      tag_6\n      jumpi\n      dup1\n      0x355274ea\n      eq\n      tag_7\n      jumpi\n    tag_2:\n      revert(0x00, 0x00)\n        /* \"Contract_Conqueror_Series/ERC20standards.sol\":156:174  string public name */\n    tag_3:\n      tag_26\n      tag_27\n      jump\t// in\n    tag_26:\n      mload(0x40)\n      tag_28\n      swap2\n      swap1\n      tag_29\n      jump\t// in\n    tag_28:\n      mload(0x40)\n      dup1\n      swap2\n      sub\n      swap1\n      return\n        /* \"Contract_Conqueror_Series/ERC20standards.sol\":5415:5581  function approve(address spender, uint256 amount) external whenNotPaused returns (bool) {... */\n    tag_4:\n      tag_30\n      0x04\n      dup1\n      calldatasize\n      sub\n      dup2\n      add\n      swap1\n      tag_31\n      swap2\n      swap1\n      tag_32\n      jump\t// in\n    tag_31:\n      tag_33\n      jump\t// in\n    tag_30:\n      mload(0x40)\n      tag_34\n      swap2\n      swap1\n      tag_35\n      jump\t// in\n    tag_34:\n      mload(0x40)\n      dup1\n      swap2\n      sub\n      swap1\n      return\n        /* \"Contract_Conqueror_Series/ERC20standards.sol\":5022:5338  function transferFrom(address from, address to, uint256 amount) external whenNotPaused returns (bool) {... */\n    tag_5:\n      tag_36\n      0x04\n      dup1\n      calldatasize\n      sub\n      dup2\n      add\n      swap1\n      tag_37\n      swap2\n      swap1\n      tag_38\n      jump\t// in\n    tag_37:\n      tag_39\n      jump\t// in\n    tag_36:\n      mload(0x40)\n      tag_40\n      swap2\n      swap1\n      tag_35\n      jump\t// in\n    tag_40:\n      mload(0x40)\n      dup1\n      swap2\n      sub\n      swap1\n      return\n        /* \"Contract_Conqueror_Series/ERC20standards.sol\":208:234  uint8 public decimals = 18 */\n    tag_6:\n      tag_41\n      tag_42\n      jump\t// in\n    tag_41:\n      mload(0x40)\n      tag_43\n      swap2\n      swap1\n      tag_44\n      jump\t// in\n    tag_43:\n      mload(0x40)\n      dup1\n      swap2\n      sub\n      swap1\n      return\n        /* \"Contract_Conqueror_Series/ERC20standards.sol\":4023:4100  function cap() external view returns (uint256) {... */\n    tag_7:\n      tag_45\n      tag_46\n      jump\t// in\n    tag_45:\n      mload(0x40)\n      tag_47\n      swap2\n      swap1\n      tag_48\n      jump\t// in\n    tag_47:\n      mload(0x40)\n      dup1\n      swap2\n      sub\n      swap1\n      return\n        /* \"Contract_Conqueror_Series/ERC20standards.sol\":2638:2746  function unpause() external onlyowner{... */\n    tag_8:\n      tag_49\n      tag_50\n      jump\t// in\n    tag_49:\n      stop\n        /* \"Contract_Conqueror_Series/ERC20standards.sol\":3727:4013  function mint(address to, uint256 amount) external onlyowner whenNotPaused{... */\n    tag_9:\n      tag_51\n      0x04\n      dup1\n      calldatasize\n      sub\n      dup2\n      add\n      swap1\n      tag_52\n      swap2\n      swap1\n      tag_32\n      jump\t// in\n    tag_52:\n      tag_53\n      jump\t// in\n    tag_51:\n      stop\n        /* \"Contract_Conqueror_Series/ERC20standards.sol\":4342:4521  function burn(uint256 amount) external whenNotPaused{... */\n    tag_10:\n      tag_54\n      0x04\n      dup1\n      calldatasize\n      sub\n      dup2\n      add\n      swap1\n      tag_55\n      swap2\n      swap1\n      tag_56\n      jump\t// in\n    tag_55:\n      tag_57\n      jump\t// in\n    tag_54:\n      stop\n        /* \"Contract_Conqueror_Series/ERC20standards.sol\":342:368  bool public paused = false */\n    tag_11:\n      tag_58\n      tag_59\n      jump\t// in\n    tag_58:\n      mload(0x40)\n      tag_60\n      swap2\n      swap1\n      tag_35\n      jump\t// in\n    tag_60:\n      mload(0x40)\n      dup1\n      swap2\n      sub\n      swap1\n      return\n        /* \"Contract_Conqueror_Series/ERC20standards.sol\":3389:3485  function getCurrentTimestamp() external view returns (uint256) {... */\n    tag_12:\n      tag_61\n      tag_62\n      jump\t// in\n    tag_61:\n      mload(0x40)\n      tag_63\n      swap2\n      swap1\n      tag_48\n      jump\t// in\n    tag_63:\n      mload(0x40)\n      dup1\n      swap2\n      sub\n      swap1\n      return\n        /* \"Contract_Conqueror_Series/ERC20standards.sol\":2300:2412  function balanceOf(address account) external view returns (uint256) {... */\n    tag_13:\n      tag_64\n      0x04\n      dup1\n      calldatasize\n      sub\n      dup2\n      add\n      swap1\n      tag_65\n      swap2\n      swap1\n      tag_66\n      jump\t// in\n    tag_65:\n      tag_67\n      jump\t// in\n    tag_64:\n      mload(0x40)\n      tag_68\n      swap2\n      swap1\n      tag_48\n      jump\t// in\n    tag_68:\n      mload(0x40)\n      dup1\n      swap2\n      sub\n      swap1\n      return\n        /* \"Contract_Conqueror_Series/ERC20standards.sol\":5878:5971  function totalsupply() external view returns (uint256) {... */\n    tag_14:\n      tag_69\n      tag_70\n      jump\t// in\n    tag_69:\n      mload(0x40)\n      tag_71\n      swap2\n      swap1\n      tag_48\n      jump\t// in\n    tag_71:\n      mload(0x40)\n      dup1\n      swap2\n      sub\n      swap1\n      return\n        /* \"Contract_Conqueror_Series/ERC20standards.sol\":2475:2577  function pause() external onlyowner{... */\n    tag_15:\n      tag_72\n      tag_73\n      jump\t// in\n    tag_72:\n      stop\n        /* \"Contract_Conqueror_Series/ERC20standards.sol\":315:335  address public owner */\n    tag_16:\n      tag_74\n      tag_75\n      jump\t// in\n    tag_74:\n      mload(0x40)\n      tag_76\n      swap2\n      swap1\n      tag_77\n      jump\t// in\n    tag_76:\n      mload(0x40)\n      dup1\n      swap2\n      sub\n      swap1\n      return\n        /* \"Contract_Conqueror_Series/ERC20standards.sol\":181:201  string public symbol */\n    tag_17:\n      tag_78\n      tag_79\n      jump\t// in\n    tag_78:\n      mload(0x40)\n      tag_80\n      swap2\n      swap1\n      tag_29\n      jump\t// in\n    tag_80:\n      mload(0x40)\n      dup1\n      swap2\n      sub\n      swap1\n      return\n        /* \"Contract_Conqueror_Series/ERC20standards.sol\":2057:2237  function transfer(address to, uint256 amount) external whenNotPaused notLocked(msg.sender) returns (bool) {... */\n    tag_18:\n      tag_81\n      0x04\n      dup1\n      calldatasize\n      sub\n      dup2\n      add\n      swap1\n      tag_82\n      swap2\n      swap1\n      tag_32\n      jump\t// in\n    tag_82:\n      tag_83\n      jump\t// in\n    tag_81:\n      mload(0x40)\n      tag_84\n      swap2\n      swap1\n      tag_35\n      jump\t// in\n    tag_84:\n      mload(0x40)\n      dup1\n      swap2\n      sub\n      swap1\n      return\n        /* \"Contract_Conqueror_Series/ERC20standards.sol\":3000:3306  function lockTokens(address user, uint256 unlockTime) external onlyowner {... */\n    tag_19:\n      tag_85\n      0x04\n      dup1\n      calldatasize\n      sub\n      dup2\n      add\n      swap1\n      tag_86\n      swap2\n      swap1\n      tag_32\n      jump\t// in\n    tag_86:\n      tag_87\n      jump\t// in\n    tag_85:\n      stop\n        /* \"Contract_Conqueror_Series/ERC20standards.sol\":4695:4948  function burnForm(address account, uint256 amount) external whenNotPaused{... */\n    tag_20:\n      tag_88\n      0x04\n      dup1\n      calldatasize\n      sub\n      dup2\n      add\n      swap1\n      tag_89\n      swap2\n      swap1\n      tag_32\n      jump\t// in\n    tag_89:\n      tag_90\n      jump\t// in\n    tag_88:\n      stop\n        /* \"Contract_Conqueror_Series/ERC20standards.sol\":3554:3665  function getUnlockTime(address user) external view returns (uint256) {... */\n    tag_21:\n      tag_91\n      0x04\n      dup1\n      calldatasize\n      sub\n      dup2\n      add\n      swap1\n      tag_92\n      swap2\n      swap1\n      tag_66\n      jump\t// in\n    tag_92:\n      tag_93\n      jump\t// in\n    tag_91:\n      mload(0x40)\n      tag_94\n      swap2\n      swap1\n      tag_48\n      jump\t// in\n    tag_94:\n      mload(0x40)\n      dup1\n      swap2\n      sub\n      swap1\n      return\n        /* \"Contract_Conqueror_Series/ERC20standards.sol\":5637:5797  function allowance(address tokenOwner, address spender) external view whenNotPaused returns (uint256) {... */\n    tag_22:\n      tag_95\n      0x04\n      dup1\n      calldatasize\n      sub\n      dup2\n      add\n      swap1\n      tag_96\n      swap2\n      swap1\n      tag_97\n      jump\t// in\n    tag_96:\n      tag_98\n      jump\t// in\n    tag_95:\n      mload(0x40)\n      tag_99\n      swap2\n      swap1\n      tag_48\n      jump\t// in\n    tag_99:\n      mload(0x40)\n      dup1\n      swap2\n      sub\n      swap1\n      return\n        /* \"Contract_Conqueror_Series/ERC20standards.sol\":156:174  string public name */\n    tag_27:\n      0x00\n      dup1\n      sload\n      tag_100\n      swap1\n      tag_101\n      jump\t// in\n    tag_100:\n      dup1\n      0x1f\n      add\n      0x20\n      dup1\n      swap2\n      div\n      mul\n      0x20\n      add\n      mload(0x40)\n      swap1\n      dup2\n      add\n      0x40\n      mstore\n      dup1\n      swap3\n      swap2\n      swap1\n      dup2\n      dup2\n      mstore\n      0x20\n      add\n      dup3\n      dup1\n      sload\n      tag_102\n      swap1\n      tag_101\n      jump\t// in\n    tag_102:\n      dup1\n      iszero\n      tag_103\n      jumpi\n      dup1\n      0x1f\n      lt\n      tag_104\n      jumpi\n      0x0100\n      dup1\n      dup4\n      sload\n      div\n      mul\n      dup4\n      mstore\n      swap2\n      0x20\n      add\n      swap2\n      jump(tag_103)\n    tag_104:\n      dup3\n      add\n      swap2\n      swap1\n      0x00\n      mstore\n      keccak256(0x00, 0x20)\n      swap1\n    tag_105:\n      dup2\n      sload\n      dup2\n      mstore\n      swap1\n      0x01\n      add\n      swap1\n      0x20\n      add\n      dup1\n      dup4\n      gt\n      tag_105\n      jumpi\n      dup3\n      swap1\n      sub\n      0x1f\n      and\n      dup3\n      add\n      swap2\n    tag_103:\n      pop\n      pop\n      pop\n      pop\n      pop\n      dup2\n      jump\t// out\n        /* \"Contract_Conqueror_Series/ERC20standards.sol\":5415:5581  function approve(address spender, uint256 amount) external whenNotPaused returns (bool) {... */\n    tag_33:\n        /* \"Contract_Conqueror_Series/ERC20standards.sol\":5497:5501  bool */\n      0x00\n        /* \"Contract_Conqueror_Series/ERC20standards.sol\":1313:1319  paused */\n      0x04\n      0x14\n      swap1\n      sload\n      swap1\n      0x0100\n      exp\n      swap1\n      div\n      0xff\n      and\n        /* \"Contract_Conqueror_Series/ERC20standards.sol\":1312:1319  !paused */\n      iszero\n        /* \"Contract_Conqueror_Series/ERC20standards.sol\":1304:1341  require(!paused,\"Contract is paused\") */\n      tag_107\n      jumpi\n      mload(0x40)\n      0x08c379a000000000000000000000000000000000000000000000000000000000\n      dup2\n      mstore\n      0x04\n      add\n      tag_108\n      swap1\n      tag_109\n      jump\t// in\n    tag_108:\n      mload(0x40)\n      dup1\n      swap2\n      sub\n      swap1\n      revert\n    tag_107:\n        /* \"Contract_Conqueror_Series/ERC20standards.sol\":5514:5551  _approve(msg.sender, spender, amount) */\n      tag_111\n        /* \"Contract_Conqueror_Series/ERC20standards.sol\":5523:5533  msg.sender */\n      caller\n        /* \"Contract_Conqueror_Series/ERC20standards.sol\":5535:5542  spender */\n      dup5\n        /* \"Contract_Conqueror_Series/ERC20standards.sol\":5544:5550  amount */\n      dup5\n        /* \"Contract_Conqueror_Series/ERC20standards.sol\":5514:5522  _approve */\n      tag_112\n        /* \"Contract_Conqueror_Series/ERC20standards.sol\":5514:5551  _approve(msg.sender, spender, amount) */\n      jump\t// in\n    tag_111:\n        /* \"Contract_Conqueror_Series/ERC20standards.sol\":5569:5573  true */\n      0x01\n        /* \"Contract_Conqueror_Series/ERC20standards.sol\":5562:5573  return true */\n      swap1\n      pop\n        /* \"Contract_Conqueror_Series/ERC20standards.sol\":5415:5581  function approve(address spender, uint256 amount) external whenNotPaused returns (bool) {... */\n      swap3\n      swap2\n      pop\n      pop\n      jump\t// out\n        /* \"Contract_Conqueror_Series/ERC20standards.sol\":5022:5338  function transferFrom(address from, address to, uint256 amount) external whenNotPaused returns (bool) {... */\n    tag_39:\n        /* \"Contract_Conqueror_Series/ERC20standards.sol\":5118:5122  bool */\n      0x00\n        /* \"Contract_Conqueror_Series/ERC20standards.sol\":1313:1319  paused */\n      0x04\n      0x14\n      swap1\n      sload\n      swap1\n      0x0100\n      exp\n      swap1\n      div\n      0xff\n      and\n        /* \"Contract_Conqueror_Series/ERC20standards.sol\":1312:1319  !paused */\n      iszero\n        /* \"Contract_Conqueror_Series/ERC20standards.sol\":1304:1341  require(!paused,\"Contract is paused\") */\n      tag_114\n      jumpi\n      mload(0x40)\n      0x08c379a000000000000000000000000000000000000000000000000000000000\n      dup2\n      mstore\n      0x04\n      add\n      tag_115\n      swap1\n      tag_109\n      jump\t// in\n    tag_115:\n      mload(0x40)\n      dup1\n      swap2\n      sub\n      swap1\n      revert\n    tag_114:\n        /* \"Contract_Conqueror_Series/ERC20standards.sol\":5176:5182  amount */\n      dup2\n        /* \"Contract_Conqueror_Series/ERC20standards.sol\":5143:5154  _allowances */\n      0x06\n        /* \"Contract_Conqueror_Series/ERC20standards.sol\":5143:5160  _allowances[from] */\n      0x00\n        /* \"Contract_Conqueror_Series/ERC20standards.sol\":5155:5159  from */\n      dup7\n        /* \"Contract_Conqueror_Series/ERC20standards.sol\":5143:5160  _allowances[from] */\n      0xffffffffffffffffffffffffffffffffffffffff\n      and\n      0xffffffffffffffffffffffffffffffffffffffff\n      and\n      dup2\n      mstore\n      0x20\n      add\n      swap1\n      dup2\n      mstore\n      0x20\n      add\n      0x00\n      keccak256\n        /* \"Contract_Conqueror_Series/ERC20standards.sol\":5143:5172  _allowances[from][msg.sender] */\n      0x00\n        /* \"Contract_Conqueror_Series/ERC20standards.sol\":5161:5171  msg.sender */\n      caller\n        /* \"Contract_Conqueror_Series/ERC20standards.sol\":5143:5172  _allowances[from][msg.sender] */\n      0xffffffffffffffffffffffffffffffffffffffff\n      and\n      0xffffffffffffffffffffffffffffffffffffffff\n      and\n      dup2\n      mstore\n      0x20\n      add\n      swap1\n      dup2\n      mstore\n      0x20\n      add\n      0x00\n      keccak256\n      sload\n        /* \"Contract_Conqueror_Series/ERC20standards.sol\":5143:5182  _allowances[from][msg.sender] >= amount */\n      lt\n      iszero\n        /* \"Contract_Conqueror_Series/ERC20standards.sol\":5135:5216  require(_allowances[from][msg.sender] >= amount, \"ERC20: insufficient allowance\") */\n      tag_117\n      jumpi\n      mload(0x40)\n      0x08c379a000000000000000000000000000000000000000000000000000000000\n      dup2\n      mstore\n      0x04\n      add\n      tag_118\n      swap1\n      tag_119\n      jump\t// in\n    tag_118:\n      mload(0x40)\n      dup1\n      swap2\n      sub\n      swap1\n      revert\n    tag_117:\n        /* \"Contract_Conqueror_Series/ERC20standards.sol\":5262:5268  amount */\n      dup2\n        /* \"Contract_Conqueror_Series/ERC20standards.sol\":5229:5240  _allowances */\n      0x06\n        /* \"Contract_Conqueror_Series/ERC20standards.sol\":5229:5246  _allowances[from] */\n      0x00\n        /* \"Contract_Conqueror_Series/ERC20standards.sol\":5241:5245  from */\n      dup7\n        /* \"Contract_Conqueror_Series/ERC20standards.sol\":5229:5246  _allowances[from] */\n      0xffffffffffffffffffffffffffffffffffffffff\n      and\n      0xffffffffffffffffffffffffffffffffffffffff\n      and\n      dup2\n      mstore\n      0x20\n      add\n      swap1\n      dup2\n      mstore\n      0x20\n      add\n      0x00\n      keccak256\n        /* \"Contract_Conqueror_Series/ERC20standards.sol\":5229:5258  _allowances[from][msg.sender] */\n      0x00\n        /* \"Contract_Conqueror_Series/ERC20standards.sol\":5247:5257  msg.sender */\n      caller\n        /* \"Contract_Conqueror_Series/ERC20standards.sol\":5229:5258  _allowances[from][msg.sender] */\n      0xffffffffffffffffffffffffffffffffffffffff\n      and\n      0xffffffffffffffffffffffffffffffffffffffff\n      and\n      dup2\n      mstore\n      0x20\n      add\n      swap1\n      dup2\n      mstore\n      0x20\n      add\n      0x00\n      keccak256\n      0x00\n        /* \"Contract_Conqueror_Series/ERC20standards.sol\":5229:5268  _allowances[from][msg.sender] -= amount */\n      dup3\n      dup3\n      sload\n      tag_120\n      swap2\n      swap1\n      tag_121\n      jump\t// in\n    tag_120:\n      swap3\n      pop\n      pop\n      dup2\n      swap1\n      sstore\n      pop\n        /* \"Contract_Conqueror_Series/ERC20standards.sol\":5279:5306  _transfer(from, to, amount) */\n      tag_122\n        /* \"Contract_Conqueror_Series/ERC20standards.sol\":5289:5293  from */\n      dup5\n        /* \"Contract_Conqueror_Series/ERC20standards.sol\":5295:5297  to */\n      dup5\n        /* \"Contract_Conqueror_Series/ERC20standards.sol\":5299:5305  amount */\n      dup5\n        /* \"Contract_Conqueror_Series/ERC20standards.sol\":5279:5288  _transfer */\n      tag_123\n        /* \"Contract_Conqueror_Series/ERC20standards.sol\":5279:5306  _transfer(from, to, amount) */\n      jump\t// in\n    tag_122:\n        /* \"Contract_Conqueror_Series/ERC20standards.sol\":5326:5330  true */\n      0x01\n        /* \"Contract_Conqueror_Series/ERC20standards.sol\":5319:5330  return true */\n      swap1\n      pop\n        /* \"Contract_Conqueror_Series/ERC20standards.sol\":5022:5338  function transferFrom(address from, address to, uint256 amount) external whenNotPaused returns (bool) {... */\n      swap4\n      swap3\n      pop\n      pop\n      pop\n      jump\t// out\n        /* \"Contract_Conqueror_Series/ERC20standards.sol\":208:234  uint8 public decimals = 18 */\n    tag_42:\n      0x02\n      0x00\n      swap1\n      sload\n      swap1\n      0x0100\n      exp\n      swap1\n      div\n      0xff\n      and\n      dup2\n      jump\t// out\n        /* \"Contract_Conqueror_Series/ERC20standards.sol\":4023:4100  function cap() external view returns (uint256) {... */\n    tag_46:\n        /* \"Contract_Conqueror_Series/ERC20standards.sol\":4061:4068  uint256 */\n      0x00\n        /* \"Contract_Conqueror_Series/ERC20standards.sol\":4088:4092  _cap */\n      immutable(\"0x5c4c6aa067b6f8e6cb38e6ab843832a94d1712d661a04d73c517d6a1931a9e5d\")\n        /* \"Contract_Conqueror_Series/ERC20standards.sol\":4081:4092  return _cap */\n      swap1\n      pop\n        /* \"Contract_Conqueror_Series/ERC20standards.sol\":4023:4100  function cap() external view returns (uint256) {... */\n      swap1\n      jump\t// out\n        /* \"Contract_Conqueror_Series/ERC20standards.sol\":2638:2746  function unpause() external onlyowner{... */\n    tag_50:\n        /* \"Contract_Conqueror_Series/ERC20standards.sol\":1153:1158  owner */\n      0x04\n      0x00\n      swap1\n      sload\n      swap1\n      0x0100\n      exp\n      swap1\n      div\n      0xffffffffffffffffffffffffffffffffffffffff\n      and\n        /* \"Contract_Conqueror_Series/ERC20standards.sol\":1139:1158  msg.sender == owner */\n      0xffffffffffffffffffffffffffffffffffffffff\n      and\n        /* \"Contract_Conqueror_Series/ERC20standards.sol\":1139:1149  msg.sender */\n      caller\n        /* \"Contract_Conqueror_Series/ERC20standards.sol\":1139:1158  msg.sender == owner */\n      0xffffffffffffffffffffffffffffffffffffffff\n      and\n      eq\n        /* \"Contract_Conqueror_Series/ERC20standards.sol\":1131:1180  require(msg.sender == owner,\"Not contract Owner\") */\n      tag_126\n      jumpi\n      mload(0x40)\n      0x08c379a000000000000000000000000000000000000000000000000000000000\n      dup2\n      mstore\n      0x04\n      add\n      tag_127\n      swap1\n      tag_128\n      jump\t// in\n    tag_127:\n      mload(0x40)\n      dup1\n      swap2\n      sub\n      swap1\n      revert\n    tag_126:\n        /* \"Contract_Conqueror_Series/ERC20standards.sol\":2695:2700  false */\n      0x00\n        /* \"Contract_Conqueror_Series/ERC20standards.sol\":2686:2692  paused */\n      0x04\n      0x14\n        /* \"Contract_Conqueror_Series/ERC20standards.sol\":2686:2700  paused = false */\n      0x0100\n      exp\n      dup2\n      sload\n      dup2\n      0xff\n      mul\n      not\n      and\n      swap1\n      dup4\n      iszero\n      iszero\n      mul\n      or\n      swap1\n      sstore\n      pop\n        /* \"Contract_Conqueror_Series/ERC20standards.sol\":2725:2735  msg.sender */\n      caller\n        /* \"Contract_Conqueror_Series/ERC20standards.sol\":2716:2736  Unpaused(msg.sender) */\n      0xffffffffffffffffffffffffffffffffffffffff\n      and\n      0x5db9ee0a495bf2e6ff9c91a7834c1ba4fdd244a5e8aa4e537bd38aeae4b073aa\n      mload(0x40)\n      mload(0x40)\n      dup1\n      swap2\n      sub\n      swap1\n      log2\n        /* \"Contract_Conqueror_Series/ERC20standards.sol\":2638:2746  function unpause() external onlyowner{... */\n      jump\t// out\n        /* \"Contract_Conqueror_Series/ERC20standards.sol\":3727:4013  function mint(address to, uint256 amount) external onlyowner whenNotPaused{... */\n    tag_53:\n        /* \"Contract_Conqueror_Series/ERC20standards.sol\":1153:1158  owner */\n      0x04\n      0x00\n      swap1\n      sload\n      swap1\n      0x0100\n      exp\n      swap1\n      div\n      0xffffffffffffffffffffffffffffffffffffffff\n      and\n        /* \"Contract_Conqueror_Series/ERC20standards.sol\":1139:1158  msg.sender == owner */\n      0xffffffffffffffffffffffffffffffffffffffff\n      and\n        /* \"Contract_Conqueror_Series/ERC20standards.sol\":1139:1149  msg.sender */\n      caller\n        /* \"Contract_Conqueror_Series/ERC20standards.sol\":1139:1158  msg.sender == owner */\n      0xffffffffffffffffffffffffffffffffffffffff\n      and\n      eq\n        /* \"Contract_Conqueror_Series/ERC20standards.sol\":1131:1180  require(msg.sender == owner,\"Not contract Owner\") */\n      tag_131\n      jumpi\n      mload(0x40)\n      0x08c379a000000000000000000000000000000000000000000000000000000000\n      dup2\n      mstore\n      0x04\n      add\n      tag_132\n      swap1\n      tag_128\n      jump\t// in\n    tag_132:\n      mload(0x40)\n      dup1\n      swap2\n      sub\n      swap1\n      revert\n    tag_131:\n        /* \"Contract_Conqueror_Series/ERC20standards.sol\":1313:1319  paused */\n      0x04\n      0x14\n      swap1\n      sload\n      swap1\n      0x0100\n      exp\n      swap1\n      div\n      0xff\n      and\n        /* \"Contract_Conqueror_Series/ERC20standards.sol\":1312:1319  !paused */\n      iszero\n        /* \"Contract_Conqueror_Series/ERC20standards.sol\":1304:1341  require(!paused,\"Contract is paused\") */\n      tag_134\n      jumpi\n      mload(0x40)\n      0x08c379a000000000000000000000000000000000000000000000000000000000\n      dup2\n      mstore\n      0x04\n      add\n      tag_135\n      swap1\n      tag_109\n      jump\t// in\n    tag_135:\n      mload(0x40)\n      dup1\n      swap2\n      sub\n      swap1\n      revert\n    tag_134:\n        /* \"Contract_Conqueror_Series/ERC20standards.sol\":3812:3838  uint256 amountWithDecimals */\n      0x00\n        /* \"Contract_Conqueror_Series/ERC20standards.sol\":3865:3873  decimals */\n      0x02\n      0x00\n      swap1\n      sload\n      swap1\n      0x0100\n      exp\n      swap1\n      div\n      0xff\n      and\n        /* \"Contract_Conqueror_Series/ERC20standards.sol\":3857:3874  uint256(decimals) */\n      0xff\n      and\n        /* \"Contract_Conqueror_Series/ERC20standards.sol\":3851:3853  10 */\n      0x0a\n        /* \"Contract_Conqueror_Series/ERC20standards.sol\":3851:3874  10 ** uint256(decimals) */\n      tag_137\n      swap2\n      swap1\n      tag_138\n      jump\t// in\n    tag_137:\n        /* \"Contract_Conqueror_Series/ERC20standards.sol\":3841:3847  amount */\n      dup3\n        /* \"Contract_Conqueror_Series/ERC20standards.sol\":3841:3875  amount * (10 ** uint256(decimals)) */\n      tag_139\n      swap2\n      swap1\n      tag_140\n      jump\t// in\n    tag_139:\n        /* \"Contract_Conqueror_Series/ERC20standards.sol\":3812:3875  uint256 amountWithDecimals = amount * (10 ** uint256(decimals)) */\n      swap1\n      pop\n        /* \"Contract_Conqueror_Series/ERC20standards.sol\":3931:3935  _cap */\n      immutable(\"0x5c4c6aa067b6f8e6cb38e6ab843832a94d1712d661a04d73c517d6a1931a9e5d\")\n        /* \"Contract_Conqueror_Series/ERC20standards.sol\":3909:3927  amountWithDecimals */\n      dup2\n        /* \"Contract_Conqueror_Series/ERC20standards.sol\":3894:3906  _totalsupply */\n      sload(0x03)\n        /* \"Contract_Conqueror_Series/ERC20standards.sol\":3894:3927  _totalsupply + amountWithDecimals */\n      tag_141\n      swap2\n      swap1\n      tag_142\n      jump\t// in\n    tag_141:\n        /* \"Contract_Conqueror_Series/ERC20standards.sol\":3894:3935  _totalsupply + amountWithDecimals <= _cap */\n      gt\n      iszero\n        /* \"Contract_Conqueror_Series/ERC20standards.sol\":3886:3951  require(_totalsupply + amountWithDecimals <= _cap, \"Exceeds cap\") */\n      tag_143\n      jumpi\n      mload(0x40)\n      0x08c379a000000000000000000000000000000000000000000000000000000000\n      dup2\n      mstore\n      0x04\n      add\n      tag_144\n      swap1\n      tag_145\n      jump\t// in\n    tag_144:\n      mload(0x40)\n      dup1\n      swap2\n      sub\n      swap1\n      revert\n    tag_143:\n        /* \"Contract_Conqueror_Series/ERC20standards.sol\":3962:4005  _mint(to, amount*(10 ** uint256(decimals))) */\n      tag_146\n        /* \"Contract_Conqueror_Series/ERC20standards.sol\":3968:3970  to */\n      dup4\n        /* \"Contract_Conqueror_Series/ERC20standards.sol\":3994:4002  decimals */\n      0x02\n      0x00\n      swap1\n      sload\n      swap1\n      0x0100\n      exp\n      swap1\n      div\n      0xff\n      and\n        /* \"Contract_Conqueror_Series/ERC20standards.sol\":3986:4003  uint256(decimals) */\n      0xff\n      and\n        /* \"Contract_Conqueror_Series/ERC20standards.sol\":3980:3982  10 */\n      0x0a\n        /* \"Contract_Conqueror_Series/ERC20standards.sol\":3980:4003  10 ** uint256(decimals) */\n      tag_147\n      swap2\n      swap1\n      tag_138\n      jump\t// in\n    tag_147:\n        /* \"Contract_Conqueror_Series/ERC20standards.sol\":3972:3978  amount */\n      dup5\n        /* \"Contract_Conqueror_Series/ERC20standards.sol\":3972:4004  amount*(10 ** uint256(decimals)) */\n      tag_148\n      swap2\n      swap1\n      tag_140\n      jump\t// in\n    tag_148:\n        /* \"Contract_Conqueror_Series/ERC20standards.sol\":3962:3967  _mint */\n      tag_149\n        /* \"Contract_Conqueror_Series/ERC20standards.sol\":3962:4005  _mint(to, amount*(10 ** uint256(decimals))) */\n      jump\t// in\n    tag_146:\n        /* \"Contract_Conqueror_Series/ERC20standards.sol\":3801:4013  {... */\n      pop\n        /* \"Contract_Conqueror_Series/ERC20standards.sol\":3727:4013  function mint(address to, uint256 amount) external onlyowner whenNotPaused{... */\n      pop\n      pop\n      jump\t// out\n        /* \"Contract_Conqueror_Series/ERC20standards.sol\":4342:4521  function burn(uint256 amount) external whenNotPaused{... */\n    tag_57:\n        /* \"Contract_Conqueror_Series/ERC20standards.sol\":1313:1319  paused */\n      0x04\n      0x14\n      swap1\n      sload\n      swap1\n      0x0100\n      exp\n      swap1\n      div\n      0xff\n      and\n        /* \"Contract_Conqueror_Series/ERC20standards.sol\":1312:1319  !paused */\n      iszero\n        /* \"Contract_Conqueror_Series/ERC20standards.sol\":1304:1341  require(!paused,\"Contract is paused\") */\n      tag_151\n      jumpi\n      mload(0x40)\n      0x08c379a000000000000000000000000000000000000000000000000000000000\n      dup2\n      mstore\n      0x04\n      add\n      tag_152\n      swap1\n      tag_109\n      jump\t// in\n    tag_152:\n      mload(0x40)\n      dup1\n      swap2\n      sub\n      swap1\n      revert\n    tag_151:\n        /* \"Contract_Conqueror_Series/ERC20standards.sol\":4438:4444  amount */\n      dup1\n        /* \"Contract_Conqueror_Series/ERC20standards.sol\":4413:4422  _balances */\n      0x05\n        /* \"Contract_Conqueror_Series/ERC20standards.sol\":4413:4434  _balances[msg.sender] */\n      0x00\n        /* \"Contract_Conqueror_Series/ERC20standards.sol\":4423:4433  msg.sender */\n      caller\n        /* \"Contract_Conqueror_Series/ERC20standards.sol\":4413:4434  _balances[msg.sender] */\n      0xffffffffffffffffffffffffffffffffffffffff\n      and\n      0xffffffffffffffffffffffffffffffffffffffff\n      and\n      dup2\n      mstore\n      0x20\n      add\n      swap1\n      dup2\n      mstore\n      0x20\n      add\n      0x00\n      keccak256\n      sload\n        /* \"Contract_Conqueror_Series/ERC20standards.sol\":4413:4444  _balances[msg.sender] >= amount */\n      lt\n      iszero\n        /* \"Contract_Conqueror_Series/ERC20standards.sol\":4405:4477  require(_balances[msg.sender] >= amount, \"Insufficient balance to burn\") */\n      tag_154\n      jumpi\n      mload(0x40)\n      0x08c379a000000000000000000000000000000000000000000000000000000000\n      dup2\n      mstore\n      0x04\n      add\n      tag_155\n      swap1\n      tag_156\n      jump\t// in\n    tag_155:\n      mload(0x40)\n      dup1\n      swap2\n      sub\n      swap1\n      revert\n    tag_154:\n        /* \"Contract_Conqueror_Series/ERC20standards.sol\":4488:4513  _burn(msg.sender, amount) */\n      tag_157\n        /* \"Contract_Conqueror_Series/ERC20standards.sol\":4494:4504  msg.sender */\n      caller\n        /* \"Contract_Conqueror_Series/ERC20standards.sol\":4506:4512  amount */\n      dup3\n        /* \"Contract_Conqueror_Series/ERC20standards.sol\":4488:4493  _burn */\n      tag_158\n        /* \"Contract_Conqueror_Series/ERC20standards.sol\":4488:4513  _burn(msg.sender, amount) */\n      jump\t// in\n    tag_157:\n        /* \"Contract_Conqueror_Series/ERC20standards.sol\":4342:4521  function burn(uint256 amount) external whenNotPaused{... */\n      pop\n      jump\t// out\n        /* \"Contract_Conqueror_Series/ERC20standards.sol\":342:368  bool public paused = false */\n    tag_59:\n      0x04\n      0x14\n      swap1\n      sload\n      swap1\n      0x0100\n      exp\n      swap1\n      div\n      0xff\n      and\n      dup2\n      jump\t// out\n        /* \"Contract_Conqueror_Series/ERC20standards.sol\":3389:3485  function getCurrentTimestamp() external view returns (uint256) {... */\n    tag_62:\n        /* \"Contract_Conqueror_Series/ERC20standards.sol\":3443:3450  uint256 */\n      0x00\n        /* \"Contract_Conqueror_Series/ERC20standards.sol\":3466:3481  block.timestamp */\n      timestamp\n        /* \"Contract_Conqueror_Series/ERC20standards.sol\":3459:3481  return block.timestamp */\n      swap1\n      pop\n        /* \"Contract_Conqueror_Series/ERC20standards.sol\":3389:3485  function getCurrentTimestamp() external view returns (uint256) {... */\n      swap1\n      jump\t// out\n        /* \"Contract_Conqueror_Series/ERC20standards.sol\":2300:2412  function balanceOf(address account) external view returns (uint256) {... */\n    tag_67:\n        /* \"Contract_Conqueror_Series/ERC20standards.sol\":2359:2366  uint256 */\n      0x00\n        /* \"Contract_Conqueror_Series/ERC20standards.sol\":2386:2395  _balances */\n      0x05\n        /* \"Contract_Conqueror_Series/ERC20standards.sol\":2386:2404  _balances[account] */\n      0x00\n        /* \"Contract_Conqueror_Series/ERC20standards.sol\":2396:2403  account */\n      dup4\n        /* \"Contract_Conqueror_Series/ERC20standards.sol\":2386:2404  _balances[account] */\n      0xffffffffffffffffffffffffffffffffffffffff\n      and\n      0xffffffffffffffffffffffffffffffffffffffff\n      and\n      dup2\n      mstore\n      0x20\n      add\n      swap1\n      dup2\n      mstore\n      0x20\n      add\n      0x00\n      keccak256\n      sload\n        /* \"Contract_Conqueror_Series/ERC20standards.sol\":2379:2404  return _balances[account] */\n      swap1\n      pop\n        /* \"Contract_Conqueror_Series/ERC20standards.sol\":2300:2412  function balanceOf(address account) external view returns (uint256) {... */\n      swap2\n      swap1\n      pop\n      jump\t// out\n        /* \"Contract_Conqueror_Series/ERC20standards.sol\":5878:5971  function totalsupply() external view returns (uint256) {... */\n    tag_70:\n        /* \"Contract_Conqueror_Series/ERC20standards.sol\":5924:5931  uint256 */\n      0x00\n        /* \"Contract_Conqueror_Series/ERC20standards.sol\":5951:5963  _totalsupply */\n      sload(0x03)\n        /* \"Contract_Conqueror_Series/ERC20standards.sol\":5944:5963  return _totalsupply */\n      swap1\n      pop\n        /* \"Contract_Conqueror_Series/ERC20standards.sol\":5878:5971  function totalsupply() external view returns (uint256) {... */\n      swap1\n      jump\t// out\n        /* \"Contract_Conqueror_Series/ERC20standards.sol\":2475:2577  function pause() external onlyowner{... */\n    tag_73:\n        /* \"Contract_Conqueror_Series/ERC20standards.sol\":1153:1158  owner */\n      0x04\n      0x00\n      swap1\n      sload\n      swap1\n      0x0100\n      exp\n      swap1\n      div\n      0xffffffffffffffffffffffffffffffffffffffff\n      and\n        /* \"Contract_Conqueror_Series/ERC20standards.sol\":1139:1158  msg.sender == owner */\n      0xffffffffffffffffffffffffffffffffffffffff\n      and\n        /* \"Contract_Conqueror_Series/ERC20standards.sol\":1139:1149  msg.sender */\n      caller\n        /* \"Contract_Conqueror_Series/ERC20standards.sol\":1139:1158  msg.sender == owner */\n      0xffffffffffffffffffffffffffffffffffffffff\n      and\n      eq\n        /* \"Contract_Conqueror_Series/ERC20standards.sol\":1131:1180  require(msg.sender == owner,\"Not contract Owner\") */\n      tag_163\n      jumpi\n      mload(0x40)\n      0x08c379a000000000000000000000000000000000000000000000000000000000\n      dup2\n      mstore\n      0x04\n      add\n      tag_164\n      swap1\n      tag_128\n      jump\t// in\n    tag_164:\n      mload(0x40)\n      dup1\n      swap2\n      sub\n      swap1\n      revert\n    tag_163:\n        /* \"Contract_Conqueror_Series/ERC20standards.sol\":2530:2534  true */\n      0x01\n        /* \"Contract_Conqueror_Series/ERC20standards.sol\":2521:2527  paused */\n      0x04\n      0x14\n        /* \"Contract_Conqueror_Series/ERC20standards.sol\":2521:2534  paused = true */\n      0x0100\n      exp\n      dup2\n      sload\n      dup2\n      0xff\n      mul\n      not\n      and\n      swap1\n      dup4\n      iszero\n      iszero\n      mul\n      or\n      swap1\n      sstore\n      pop\n        /* \"Contract_Conqueror_Series/ERC20standards.sol\":2557:2567  msg.sender */\n      caller\n        /* \"Contract_Conqueror_Series/ERC20standards.sol\":2550:2568  Paused(msg.sender) */\n      0xffffffffffffffffffffffffffffffffffffffff\n      and\n      0x62e78cea01bee320cd4e420270b5ea74000d11b0c9f74754ebdbfc544b05a258\n      mload(0x40)\n      mload(0x40)\n      dup1\n      swap2\n      sub\n      swap1\n      log2\n        /* \"Contract_Conqueror_Series/ERC20standards.sol\":2475:2577  function pause() external onlyowner{... */\n      jump\t// out\n        /* \"Contract_Conqueror_Series/ERC20standards.sol\":315:335  address public owner */\n    tag_75:\n      0x04\n      0x00\n      swap1\n      sload\n      swap1\n      0x0100\n      exp\n      swap1\n      div\n      0xffffffffffffffffffffffffffffffffffffffff\n      and\n      dup2\n      jump\t// out\n        /* \"Contract_Conqueror_Series/ERC20standards.sol\":181:201  string public symbol */\n    tag_79:\n      0x01\n      dup1\n      sload\n      tag_166\n      swap1\n      tag_101\n      jump\t// in\n    tag_166:\n      dup1\n      0x1f\n      add\n      0x20\n      dup1\n      swap2\n      div\n      mul\n      0x20\n      add\n      mload(0x40)\n      swap1\n      dup2\n      add\n      0x40\n      mstore\n      dup1\n      swap3\n      swap2\n      swap1\n      dup2\n      dup2\n      mstore\n      0x20\n      add\n      dup3\n      dup1\n      sload\n      tag_167\n      swap1\n      tag_101\n      jump\t// in\n    tag_167:\n      dup1\n      iszero\n      tag_168\n      jumpi\n      dup1\n      0x1f\n      lt\n      tag_169\n      jumpi\n      0x0100\n      dup1\n      dup4\n      sload\n      div\n      mul\n      dup4\n      mstore\n      swap2\n      0x20\n      add\n      swap2\n      jump(tag_168)\n    tag_169:\n      dup3\n      add\n      swap2\n      swap1\n      0x00\n      mstore\n      keccak256(0x00, 0x20)\n      swap1\n    tag_170:\n      dup2\n      sload\n      dup2\n      mstore\n      swap1\n      0x01\n      add\n      swap1\n      0x20\n      add\n      dup1\n      dup4\n      gt\n      tag_170\n      jumpi\n      dup3\n      swap1\n      sub\n      0x1f\n      and\n      dup3\n      add\n      swap2\n    tag_168:\n      pop\n      pop\n      pop\n      pop\n      pop\n      dup2\n      jump\t// out\n        /* \"Contract_Conqueror_Series/ERC20standards.sol\":2057:2237  function transfer(address to, uint256 amount) external whenNotPaused notLocked(msg.sender) returns (bool) {... */\n    tag_83:\n        /* \"Contract_Conqueror_Series/ERC20standards.sol\":2157:2161  bool */\n      0x00\n        /* \"Contract_Conqueror_Series/ERC20standards.sol\":1313:1319  paused */\n      0x04\n      0x14\n      swap1\n      sload\n      swap1\n      0x0100\n      exp\n      swap1\n      div\n      0xff\n      and\n        /* \"Contract_Conqueror_Series/ERC20standards.sol\":1312:1319  !paused */\n      iszero\n        /* \"Contract_Conqueror_Series/ERC20standards.sol\":1304:1341  require(!paused,\"Contract is paused\") */\n      tag_172\n      jumpi\n      mload(0x40)\n      0x08c379a000000000000000000000000000000000000000000000000000000000\n      dup2\n      mstore\n      0x04\n      add\n      tag_173\n      swap1\n      tag_109\n      jump\t// in\n    tag_173:\n      mload(0x40)\n      dup1\n      swap2\n      sub\n      swap1\n      revert\n    tag_172:\n        /* \"Contract_Conqueror_Series/ERC20standards.sol\":2136:2146  msg.sender */\n      caller\n        /* \"Contract_Conqueror_Series/ERC20standards.sol\":1502:1512  _lockUntil */\n      0x07\n        /* \"Contract_Conqueror_Series/ERC20standards.sol\":1502:1518  _lockUntil[user] */\n      0x00\n        /* \"Contract_Conqueror_Series/ERC20standards.sol\":1513:1517  user */\n      dup3\n        /* \"Contract_Conqueror_Series/ERC20standards.sol\":1502:1518  _lockUntil[user] */\n      0xffffffffffffffffffffffffffffffffffffffff\n      and\n      0xffffffffffffffffffffffffffffffffffffffff\n      and\n      dup2\n      mstore\n      0x20\n      add\n      swap1\n      dup2\n      mstore\n      0x20\n      add\n      0x00\n      keccak256\n      sload\n        /* \"Contract_Conqueror_Series/ERC20standards.sol\":1483:1498  block.timestamp */\n      timestamp\n        /* \"Contract_Conqueror_Series/ERC20standards.sol\":1483:1518  block.timestamp >= _lockUntil[user] */\n      lt\n      iszero\n        /* \"Contract_Conqueror_Series/ERC20standards.sol\":1475:1545  require(block.timestamp >= _lockUntil[user], \"Tokens are time-locked\") */\n      tag_175\n      jumpi\n      mload(0x40)\n      0x08c379a000000000000000000000000000000000000000000000000000000000\n      dup2\n      mstore\n      0x04\n      add\n      tag_176\n      swap1\n      tag_177\n      jump\t// in\n    tag_176:\n      mload(0x40)\n      dup1\n      swap2\n      sub\n      swap1\n      revert\n    tag_175:\n        /* \"Contract_Conqueror_Series/ERC20standards.sol\":2174:2207  _transfer(msg.sender, to, amount) */\n      tag_179\n        /* \"Contract_Conqueror_Series/ERC20standards.sol\":2184:2194  msg.sender */\n      caller\n        /* \"Contract_Conqueror_Series/ERC20standards.sol\":2196:2198  to */\n      dup6\n        /* \"Contract_Conqueror_Series/ERC20standards.sol\":2200:2206  amount */\n      dup6\n        /* \"Contract_Conqueror_Series/ERC20standards.sol\":2174:2183  _transfer */\n      tag_123\n        /* \"Contract_Conqueror_Series/ERC20standards.sol\":2174:2207  _transfer(msg.sender, to, amount) */\n      jump\t// in\n    tag_179:\n        /* \"Contract_Conqueror_Series/ERC20standards.sol\":2225:2229  true */\n      0x01\n        /* \"Contract_Conqueror_Series/ERC20standards.sol\":2218:2229  return true */\n      swap2\n      pop\n        /* \"Contract_Conqueror_Series/ERC20standards.sol\":1352:1353  _ */\n      pop\n        /* \"Contract_Conqueror_Series/ERC20standards.sol\":2057:2237  function transfer(address to, uint256 amount) external whenNotPaused notLocked(msg.sender) returns (bool) {... */\n      swap3\n      swap2\n      pop\n      pop\n      jump\t// out\n        /* \"Contract_Conqueror_Series/ERC20standards.sol\":3000:3306  function lockTokens(address user, uint256 unlockTime) external onlyowner {... */\n    tag_87:\n        /* \"Contract_Conqueror_Series/ERC20standards.sol\":1153:1158  owner */\n      0x04\n      0x00\n      swap1\n      sload\n      swap1\n      0x0100\n      exp\n      swap1\n      div\n      0xffffffffffffffffffffffffffffffffffffffff\n      and\n        /* \"Contract_Conqueror_Series/ERC20standards.sol\":1139:1158  msg.sender == owner */\n      0xffffffffffffffffffffffffffffffffffffffff\n      and\n        /* \"Contract_Conqueror_Series/ERC20standards.sol\":1139:1149  msg.sender */\n      caller\n        /* \"Contract_Conqueror_Series/ERC20standards.sol\":1139:1158  msg.sender == owner */\n      0xffffffffffffffffffffffffffffffffffffffff\n      and\n      eq\n        /* \"Contract_Conqueror_Series/ERC20standards.sol\":1131:1180  require(msg.sender == owner,\"Not contract Owner\") */\n      tag_181\n      jumpi\n      mload(0x40)\n      0x08c379a000000000000000000000000000000000000000000000000000000000\n      dup2\n      mstore\n      0x04\n      add\n      tag_182\n      swap1\n      tag_128\n      jump\t// in\n    tag_182:\n      mload(0x40)\n      dup1\n      swap2\n      sub\n      swap1\n      revert\n    tag_181:\n        /* \"Contract_Conqueror_Series/ERC20standards.sol\":3084:3103  uint256 currentTime */\n      0x00\n        /* \"Contract_Conqueror_Series/ERC20standards.sol\":3124:3134  unlockTime */\n      dup2\n        /* \"Contract_Conqueror_Series/ERC20standards.sol\":3106:3121  block.timestamp */\n      timestamp\n        /* \"Contract_Conqueror_Series/ERC20standards.sol\":3106:3134  block.timestamp + unlockTime */\n      tag_184\n      swap2\n      swap1\n      tag_142\n      jump\t// in\n    tag_184:\n        /* \"Contract_Conqueror_Series/ERC20standards.sol\":3084:3134  uint256 currentTime = block.timestamp + unlockTime */\n      swap1\n      pop\n        /* \"Contract_Conqueror_Series/ERC20standards.sol\":3167:3182  block.timestamp */\n      timestamp\n        /* \"Contract_Conqueror_Series/ERC20standards.sol\":3153:3164  currentTime */\n      dup2\n        /* \"Contract_Conqueror_Series/ERC20standards.sol\":3153:3182  currentTime > block.timestamp */\n      gt\n        /* \"Contract_Conqueror_Series/ERC20standards.sol\":3145:3216  require(currentTime > block.timestamp, \"Unlock time must be in future\") */\n      tag_185\n      jumpi\n      mload(0x40)\n      0x08c379a000000000000000000000000000000000000000000000000000000000\n      dup2\n      mstore\n      0x04\n      add\n      tag_186\n      swap1\n      tag_187\n      jump\t// in\n    tag_186:\n      mload(0x40)\n      dup1\n      swap2\n      sub\n      swap1\n      revert\n    tag_185:\n        /* \"Contract_Conqueror_Series/ERC20standards.sol\":3246:3257  currentTime */\n      dup1\n        /* \"Contract_Conqueror_Series/ERC20standards.sol\":3227:3237  _lockUntil */\n      0x07\n        /* \"Contract_Conqueror_Series/ERC20standards.sol\":3227:3243  _lockUntil[user] */\n      0x00\n        /* \"Contract_Conqueror_Series/ERC20standards.sol\":3238:3242  user */\n      dup6\n        /* \"Contract_Conqueror_Series/ERC20standards.sol\":3227:3243  _lockUntil[user] */\n      0xffffffffffffffffffffffffffffffffffffffff\n      and\n      0xffffffffffffffffffffffffffffffffffffffff\n      and\n      dup2\n      mstore\n      0x20\n      add\n      swap1\n      dup2\n      mstore\n      0x20\n      add\n      0x00\n      keccak256\n        /* \"Contract_Conqueror_Series/ERC20standards.sol\":3227:3257  _lockUntil[user] = currentTime */\n      dup2\n      swap1\n      sstore\n      pop\n        /* \"Contract_Conqueror_Series/ERC20standards.sol\":3280:3284  user */\n      dup3\n        /* \"Contract_Conqueror_Series/ERC20standards.sol\":3273:3298  Locked(user, currentTime) */\n      0xffffffffffffffffffffffffffffffffffffffff\n      and\n      0x9f1ec8c880f76798e7b793325d625e9b60e4082a553c98f42b6cda368dd60008\n        /* \"Contract_Conqueror_Series/ERC20standards.sol\":3286:3297  currentTime */\n      dup3\n        /* \"Contract_Conqueror_Series/ERC20standards.sol\":3273:3298  Locked(user, currentTime) */\n      mload(0x40)\n      tag_188\n      swap2\n      swap1\n      tag_48\n      jump\t// in\n    tag_188:\n      mload(0x40)\n      dup1\n      swap2\n      sub\n      swap1\n      log2\n        /* \"Contract_Conqueror_Series/ERC20standards.sol\":3073:3306  {... */\n      pop\n        /* \"Contract_Conqueror_Series/ERC20standards.sol\":3000:3306  function lockTokens(address user, uint256 unlockTime) external onlyowner {... */\n      pop\n      pop\n      jump\t// out\n        /* \"Contract_Conqueror_Series/ERC20standards.sol\":4695:4948  function burnForm(address account, uint256 amount) external whenNotPaused{... */\n    tag_90:\n        /* \"Contract_Conqueror_Series/ERC20standards.sol\":1313:1319  paused */\n      0x04\n      0x14\n      swap1\n      sload\n      swap1\n      0x0100\n      exp\n      swap1\n      div\n      0xff\n      and\n        /* \"Contract_Conqueror_Series/ERC20standards.sol\":1312:1319  !paused */\n      iszero\n        /* \"Contract_Conqueror_Series/ERC20standards.sol\":1304:1341  require(!paused,\"Contract is paused\") */\n      tag_190\n      jumpi\n      mload(0x40)\n      0x08c379a000000000000000000000000000000000000000000000000000000000\n      dup2\n      mstore\n      0x04\n      add\n      tag_191\n      swap1\n      tag_109\n      jump\t// in\n    tag_191:\n      mload(0x40)\n      dup1\n      swap2\n      sub\n      swap1\n      revert\n    tag_190:\n        /* \"Contract_Conqueror_Series/ERC20standards.sol\":4823:4829  amount */\n      dup1\n        /* \"Contract_Conqueror_Series/ERC20standards.sol\":4787:4798  _allowances */\n      0x06\n        /* \"Contract_Conqueror_Series/ERC20standards.sol\":4787:4807  _allowances[account] */\n      0x00\n        /* \"Contract_Conqueror_Series/ERC20standards.sol\":4799:4806  account */\n      dup5\n        /* \"Contract_Conqueror_Series/ERC20standards.sol\":4787:4807  _allowances[account] */\n      0xffffffffffffffffffffffffffffffffffffffff\n      and\n      0xffffffffffffffffffffffffffffffffffffffff\n      and\n      dup2\n      mstore\n      0x20\n      add\n      swap1\n      dup2\n      mstore\n      0x20\n      add\n      0x00\n      keccak256\n        /* \"Contract_Conqueror_Series/ERC20standards.sol\":4787:4819  _allowances[account][msg.sender] */\n      0x00\n        /* \"Contract_Conqueror_Series/ERC20standards.sol\":4808:4818  msg.sender */\n      caller\n        /* \"Contract_Conqueror_Series/ERC20standards.sol\":4787:4819  _allowances[account][msg.sender] */\n      0xffffffffffffffffffffffffffffffffffffffff\n      and\n      0xffffffffffffffffffffffffffffffffffffffff\n      and\n      dup2\n      mstore\n      0x20\n      add\n      swap1\n      dup2\n      mstore\n      0x20\n      add\n      0x00\n      keccak256\n      sload\n        /* \"Contract_Conqueror_Series/ERC20standards.sol\":4787:4829  _allowances[account][msg.sender] >= amount */\n      lt\n      iszero\n        /* \"Contract_Conqueror_Series/ERC20standards.sol\":4779:4852  require(_allowances[account][msg.sender] >= amount, \"Allowance exceeded\") */\n      tag_193\n      jumpi\n      mload(0x40)\n      0x08c379a000000000000000000000000000000000000000000000000000000000\n      dup2\n      mstore\n      0x04\n      add\n      tag_194\n      swap1\n      tag_195\n      jump\t// in\n    tag_194:\n      mload(0x40)\n      dup1\n      swap2\n      sub\n      swap1\n      revert\n    tag_193:\n        /* \"Contract_Conqueror_Series/ERC20standards.sol\":4899:4905  amount */\n      dup1\n        /* \"Contract_Conqueror_Series/ERC20standards.sol\":4863:4874  _allowances */\n      0x06\n        /* \"Contract_Conqueror_Series/ERC20standards.sol\":4863:4883  _allowances[account] */\n      0x00\n        /* \"Contract_Conqueror_Series/ERC20standards.sol\":4875:4882  account */\n      dup5\n        /* \"Contract_Conqueror_Series/ERC20standards.sol\":4863:4883  _allowances[account] */\n      0xffffffffffffffffffffffffffffffffffffffff\n      and\n      0xffffffffffffffffffffffffffffffffffffffff\n      and\n      dup2\n      mstore\n      0x20\n      add\n      swap1\n      dup2\n      mstore\n      0x20\n      add\n      0x00\n      keccak256\n        /* \"Contract_Conqueror_Series/ERC20standards.sol\":4863:4895  _allowances[account][msg.sender] */\n      0x00\n        /* \"Contract_Conqueror_Series/ERC20standards.sol\":4884:4894  msg.sender */\n      caller\n        /* \"Contract_Conqueror_Series/ERC20standards.sol\":4863:4895  _allowances[account][msg.sender] */\n      0xffffffffffffffffffffffffffffffffffffffff\n      and\n      0xffffffffffffffffffffffffffffffffffffffff\n      and\n      dup2\n      mstore\n      0x20\n      add\n      swap1\n      dup2\n      mstore\n      0x20\n      add\n      0x00\n      keccak256\n      0x00\n        /* \"Contract_Conqueror_Series/ERC20standards.sol\":4863:4905  _allowances[account][msg.sender] -= amount */\n      dup3\n      dup3\n      sload\n      tag_196\n      swap2\n      swap1\n      tag_121\n      jump\t// in\n    tag_196:\n      swap3\n      pop\n      pop\n      dup2\n      swap1\n      sstore\n      pop\n        /* \"Contract_Conqueror_Series/ERC20standards.sol\":4916:4938  _burn(account, amount) */\n      tag_197\n        /* \"Contract_Conqueror_Series/ERC20standards.sol\":4922:4929  account */\n      dup3\n        /* \"Contract_Conqueror_Series/ERC20standards.sol\":4931:4937  amount */\n      dup3\n        /* \"Contract_Conqueror_Series/ERC20standards.sol\":4916:4921  _burn */\n      tag_158\n        /* \"Contract_Conqueror_Series/ERC20standards.sol\":4916:4938  _burn(account, amount) */\n      jump\t// in\n    tag_197:\n        /* \"Contract_Conqueror_Series/ERC20standards.sol\":4695:4948  function burnForm(address account, uint256 amount) external whenNotPaused{... */\n      pop\n      pop\n      jump\t// out\n        /* \"Contract_Conqueror_Series/ERC20standards.sol\":3554:3665  function getUnlockTime(address user) external view returns (uint256) {... */\n    tag_93:\n        /* \"Contract_Conqueror_Series/ERC20standards.sol\":3614:3621  uint256 */\n      0x00\n        /* \"Contract_Conqueror_Series/ERC20standards.sol\":3641:3651  _lockUntil */\n      0x07\n        /* \"Contract_Conqueror_Series/ERC20standards.sol\":3641:3657  _lockUntil[user] */\n      0x00\n        /* \"Contract_Conqueror_Series/ERC20standards.sol\":3652:3656  user */\n      dup4\n        /* \"Contract_Conqueror_Series/ERC20standards.sol\":3641:3657  _lockUntil[user] */\n      0xffffffffffffffffffffffffffffffffffffffff\n      and\n      0xffffffffffffffffffffffffffffffffffffffff\n      and\n      dup2\n      mstore\n      0x20\n      add\n      swap1\n      dup2\n      mstore\n      0x20\n      add\n      0x00\n      keccak256\n      sload\n        /* \"Contract_Conqueror_Series/ERC20standards.sol\":3634:3657  return _lockUntil[user] */\n      swap1\n      pop\n        /* \"Contract_Conqueror_Series/ERC20standards.sol\":3554:3665  function getUnlockTime(address user) external view returns (uint256) {... */\n      swap2\n      swap1\n      pop\n      jump\t// out\n        /* \"Contract_Conqueror_Series/ERC20standards.sol\":5637:5797  function allowance(address tokenOwner, address spender) external view whenNotPaused returns (uint256) {... */\n    tag_98:\n        /* \"Contract_Conqueror_Series/ERC20standards.sol\":5730:5737  uint256 */\n      0x00\n        /* \"Contract_Conqueror_Series/ERC20standards.sol\":1313:1319  paused */\n      0x04\n      0x14\n      swap1\n      sload\n      swap1\n      0x0100\n      exp\n      swap1\n      div\n      0xff\n      and\n        /* \"Contract_Conqueror_Series/ERC20standards.sol\":1312:1319  !paused */\n      iszero\n        /* \"Contract_Conqueror_Series/ERC20standards.sol\":1304:1341  require(!paused,\"Contract is paused\") */\n      tag_200\n      jumpi\n      mload(0x40)\n      0x08c379a000000000000000000000000000000000000000000000000000000000\n      dup2\n      mstore\n      0x04\n      add\n      tag_201\n      swap1\n      tag_109\n      jump\t// in\n    tag_201:\n      mload(0x40)\n      dup1\n      swap2\n      sub\n      swap1\n      revert\n    tag_200:\n        /* \"Contract_Conqueror_Series/ERC20standards.sol\":5757:5768  _allowances */\n      0x06\n        /* \"Contract_Conqueror_Series/ERC20standards.sol\":5757:5780  _allowances[tokenOwner] */\n      0x00\n        /* \"Contract_Conqueror_Series/ERC20standards.sol\":5769:5779  tokenOwner */\n      dup5\n        /* \"Contract_Conqueror_Series/ERC20standards.sol\":5757:5780  _allowances[tokenOwner] */\n      0xffffffffffffffffffffffffffffffffffffffff\n      and\n      0xffffffffffffffffffffffffffffffffffffffff\n      and\n      dup2\n      mstore\n      0x20\n      add\n      swap1\n      dup2\n      mstore\n      0x20\n      add\n      0x00\n      keccak256\n        /* \"Contract_Conqueror_Series/ERC20standards.sol\":5757:5789  _allowances[tokenOwner][spender] */\n      0x00\n        /* \"Contract_Conqueror_Series/ERC20standards.sol\":5781:5788  spender */\n      dup4\n        /* \"Contract_Conqueror_Series/ERC20standards.sol\":5757:5789  _allowances[tokenOwner][spender] */\n      0xffffffffffffffffffffffffffffffffffffffff\n      and\n      0xffffffffffffffffffffffffffffffffffffffff\n      and\n      dup2\n      mstore\n      0x20\n      add\n      swap1\n      dup2\n      mstore\n      0x20\n      add\n      0x00\n      keccak256\n      sload\n        /* \"Contract_Conqueror_Series/ERC20standards.sol\":5750:5789  return _allowances[tokenOwner][spender] */\n      swap1\n      pop\n        /* \"Contract_Conqueror_Series/ERC20standards.sol\":5637:5797  function allowance(address tokenOwner, address spender) external view whenNotPaused returns (uint256) {... */\n      swap3\n      swap2\n      pop\n      pop\n      jump\t// out\n        /* \"Contract_Conqueror_Series/ERC20standards.sol\":7288:7617  function _approve(address tokenOwner, address spender, uint256 amount) internal{... */\n    tag_112:\n        /* \"Contract_Conqueror_Series/ERC20standards.sol\":7408:7409  0 */\n      0x00\n        /* \"Contract_Conqueror_Series/ERC20standards.sol\":7386:7410  tokenOwner != address(0) */\n      0xffffffffffffffffffffffffffffffffffffffff\n      and\n        /* \"Contract_Conqueror_Series/ERC20standards.sol\":7386:7396  tokenOwner */\n      dup4\n        /* \"Contract_Conqueror_Series/ERC20standards.sol\":7386:7410  tokenOwner != address(0) */\n      0xffffffffffffffffffffffffffffffffffffffff\n      and\n      sub\n        /* \"Contract_Conqueror_Series/ERC20standards.sol\":7378:7438  require(tokenOwner != address(0), \"ERC20: approve from 0x0\") */\n      tag_204\n      jumpi\n      mload(0x40)\n      0x08c379a000000000000000000000000000000000000000000000000000000000\n      dup2\n      mstore\n      0x04\n      add\n      tag_205\n      swap1\n      tag_206\n      jump\t// in\n    tag_205:\n      mload(0x40)\n      dup1\n      swap2\n      sub\n      swap1\n      revert\n    tag_204:\n        /* \"Contract_Conqueror_Series/ERC20standards.sol\":7476:7477  0 */\n      0x00\n        /* \"Contract_Conqueror_Series/ERC20standards.sol\":7457:7478  spender != address(0) */\n      0xffffffffffffffffffffffffffffffffffffffff\n      and\n        /* \"Contract_Conqueror_Series/ERC20standards.sol\":7457:7464  spender */\n      dup3\n        /* \"Contract_Conqueror_Series/ERC20standards.sol\":7457:7478  spender != address(0) */\n      0xffffffffffffffffffffffffffffffffffffffff\n      and\n      sub\n        /* \"Contract_Conqueror_Series/ERC20standards.sol\":7449:7504  require(spender != address(0), \"ERC20: approve to 0x0\") */\n      tag_207\n      jumpi\n      mload(0x40)\n      0x08c379a000000000000000000000000000000000000000000000000000000000\n      dup2\n      mstore\n      0x04\n      add\n      tag_208\n      swap1\n      tag_209\n      jump\t// in\n    tag_208:\n      mload(0x40)\n      dup1\n      swap2\n      sub\n      swap1\n      revert\n    tag_207:\n        /* \"Contract_Conqueror_Series/ERC20standards.sol\":7550:7556  amount */\n      dup1\n        /* \"Contract_Conqueror_Series/ERC20standards.sol\":7515:7526  _allowances */\n      0x06\n        /* \"Contract_Conqueror_Series/ERC20standards.sol\":7515:7538  _allowances[tokenOwner] */\n      0x00\n        /* \"Contract_Conqueror_Series/ERC20standards.sol\":7527:7537  tokenOwner */\n      dup6\n        /* \"Contract_Conqueror_Series/ERC20standards.sol\":7515:7538  _allowances[tokenOwner] */\n      0xffffffffffffffffffffffffffffffffffffffff\n      and\n      0xffffffffffffffffffffffffffffffffffffffff\n      and\n      dup2\n      mstore\n      0x20\n      add\n      swap1\n      dup2\n      mstore\n      0x20\n      add\n      0x00\n      keccak256\n        /* \"Contract_Conqueror_Series/ERC20standards.sol\":7515:7547  _allowances[tokenOwner][spender] */\n      0x00\n        /* \"Contract_Conqueror_Series/ERC20standards.sol\":7539:7546  spender */\n      dup5\n        /* \"Contract_Conqueror_Series/ERC20standards.sol\":7515:7547  _allowances[tokenOwner][spender] */\n      0xffffffffffffffffffffffffffffffffffffffff\n      and\n      0xffffffffffffffffffffffffffffffffffffffff\n      and\n      dup2\n      mstore\n      0x20\n      add\n      swap1\n      dup2\n      mstore\n      0x20\n      add\n      0x00\n      keccak256\n        /* \"Contract_Conqueror_Series/ERC20standards.sol\":7515:7556  _allowances[tokenOwner][spender] = amount */\n      dup2\n      swap1\n      sstore\n      pop\n        /* \"Contract_Conqueror_Series/ERC20standards.sol\":7593:7600  spender */\n      dup2\n        /* \"Contract_Conqueror_Series/ERC20standards.sol\":7572:7609  Approval(tokenOwner, spender, amount) */\n      0xffffffffffffffffffffffffffffffffffffffff\n      and\n        /* \"Contract_Conqueror_Series/ERC20standards.sol\":7581:7591  tokenOwner */\n      dup4\n        /* \"Contract_Conqueror_Series/ERC20standards.sol\":7572:7609  Approval(tokenOwner, spender, amount) */\n      0xffffffffffffffffffffffffffffffffffffffff\n      and\n      0x8c5be1e5ebec7d5bd14f71427d1e84f3dd0314c0f7b2291e5b200ac8c7c3b925\n        /* \"Contract_Conqueror_Series/ERC20standards.sol\":7602:7608  amount */\n      dup4\n        /* \"Contract_Conqueror_Series/ERC20standards.sol\":7572:7609  Approval(tokenOwner, spender, amount) */\n      mload(0x40)\n      tag_210\n      swap2\n      swap1\n      tag_48\n      jump\t// in\n    tag_210:\n      mload(0x40)\n      dup1\n      swap2\n      sub\n      swap1\n      log3\n        /* \"Contract_Conqueror_Series/ERC20standards.sol\":7288:7617  function _approve(address tokenOwner, address spender, uint256 amount) internal{... */\n      pop\n      pop\n      pop\n      jump\t// out\n        /* \"Contract_Conqueror_Series/ERC20standards.sol\":6844:7242  function _transfer(address from, address to, uint256 amount) internal {... */\n    tag_123:\n        /* \"Contract_Conqueror_Series/ERC20standards.sol\":6949:6950  0 */\n      0x00\n        /* \"Contract_Conqueror_Series/ERC20standards.sol\":6933:6951  from != address(0) */\n      0xffffffffffffffffffffffffffffffffffffffff\n      and\n        /* \"Contract_Conqueror_Series/ERC20standards.sol\":6933:6937  from */\n      dup4\n        /* \"Contract_Conqueror_Series/ERC20standards.sol\":6933:6951  from != address(0) */\n      0xffffffffffffffffffffffffffffffffffffffff\n      and\n      sub\n        /* \"Contract_Conqueror_Series/ERC20standards.sol\":6925:6980  require(from != address(0), \"ERC20: transfer from 0x0\") */\n      tag_212\n      jumpi\n      mload(0x40)\n      0x08c379a000000000000000000000000000000000000000000000000000000000\n      dup2\n      mstore\n      0x04\n      add\n      tag_213\n      swap1\n      tag_214\n      jump\t// in\n    tag_213:\n      mload(0x40)\n      dup1\n      swap2\n      sub\n      swap1\n      revert\n    tag_212:\n        /* \"Contract_Conqueror_Series/ERC20standards.sol\":7013:7014  0 */\n      0x00\n        /* \"Contract_Conqueror_Series/ERC20standards.sol\":6999:7015  to != address(0) */\n      0xffffffffffffffffffffffffffffffffffffffff\n      and\n        /* \"Contract_Conqueror_Series/ERC20standards.sol\":6999:7001  to */\n      dup3\n        /* \"Contract_Conqueror_Series/ERC20standards.sol\":6999:7015  to != address(0) */\n      0xffffffffffffffffffffffffffffffffffffffff\n      and\n      sub\n        /* \"Contract_Conqueror_Series/ERC20standards.sol\":6991:7042  require(to != address(0), \"ERC20: transfer to 0x0\") */\n      tag_215\n      jumpi\n      mload(0x40)\n      0x08c379a000000000000000000000000000000000000000000000000000000000\n      dup2\n      mstore\n      0x04\n      add\n      tag_216\n      swap1\n      tag_217\n      jump\t// in\n    tag_216:\n      mload(0x40)\n      dup1\n      swap2\n      sub\n      swap1\n      revert\n    tag_215:\n        /* \"Contract_Conqueror_Series/ERC20standards.sol\":7080:7086  amount */\n      dup1\n        /* \"Contract_Conqueror_Series/ERC20standards.sol\":7061:7070  _balances */\n      0x05\n        /* \"Contract_Conqueror_Series/ERC20standards.sol\":7061:7076  _balances[from] */\n      0x00\n        /* \"Contract_Conqueror_Series/ERC20standards.sol\":7071:7075  from */\n      dup6\n        /* \"Contract_Conqueror_Series/ERC20standards.sol\":7061:7076  _balances[from] */\n      0xffffffffffffffffffffffffffffffffffffffff\n      and\n      0xffffffffffffffffffffffffffffffffffffffff\n      and\n      dup2\n      mstore\n      0x20\n      add\n      swap1\n      dup2\n      mstore\n      0x20\n      add\n      0x00\n      keccak256\n      sload\n        /* \"Contract_Conqueror_Series/ERC20standards.sol\":7061:7086  _balances[from] >= amount */\n      lt\n      iszero\n        /* \"Contract_Conqueror_Series/ERC20standards.sol\":7053:7118  require(_balances[from] >= amount, \"ERC20: insufficient balance\") */\n      tag_218\n      jumpi\n      mload(0x40)\n      0x08c379a000000000000000000000000000000000000000000000000000000000\n      dup2\n      mstore\n      0x04\n      add\n      tag_219\n      swap1\n      tag_220\n      jump\t// in\n    tag_219:\n      mload(0x40)\n      dup1\n      swap2\n      sub\n      swap1\n      revert\n    tag_218:\n        /* \"Contract_Conqueror_Series/ERC20standards.sol\":7150:7156  amount */\n      dup1\n        /* \"Contract_Conqueror_Series/ERC20standards.sol\":7131:7140  _balances */\n      0x05\n        /* \"Contract_Conqueror_Series/ERC20standards.sol\":7131:7146  _balances[from] */\n      0x00\n        /* \"Contract_Conqueror_Series/ERC20standards.sol\":7141:7145  from */\n      dup6\n        /* \"Contract_Conqueror_Series/ERC20standards.sol\":7131:7146  _balances[from] */\n      0xffffffffffffffffffffffffffffffffffffffff\n      and\n      0xffffffffffffffffffffffffffffffffffffffff\n      and\n      dup2\n      mstore\n      0x20\n      add\n      swap1\n      dup2\n      mstore\n      0x20\n      add\n      0x00\n      keccak256\n      0x00\n        /* \"Contract_Conqueror_Series/ERC20standards.sol\":7131:7156  _balances[from] -= amount */\n      dup3\n      dup3\n      sload\n      tag_221\n      swap2\n      swap1\n      tag_121\n      jump\t// in\n    tag_221:\n      swap3\n      pop\n      pop\n      dup2\n      swap1\n      sstore\n      pop\n        /* \"Contract_Conqueror_Series/ERC20standards.sol\":7184:7190  amount */\n      dup1\n        /* \"Contract_Conqueror_Series/ERC20standards.sol\":7167:7176  _balances */\n      0x05\n        /* \"Contract_Conqueror_Series/ERC20standards.sol\":7167:7180  _balances[to] */\n      0x00\n        /* \"Contract_Conqueror_Series/ERC20standards.sol\":7177:7179  to */\n      dup5\n        /* \"Contract_Conqueror_Series/ERC20standards.sol\":7167:7180  _balances[to] */\n      0xffffffffffffffffffffffffffffffffffffffff\n      and\n      0xffffffffffffffffffffffffffffffffffffffff\n      and\n      dup2\n      mstore\n      0x20\n      add\n      swap1\n      dup2\n      mstore\n      0x20\n      add\n      0x00\n      keccak256\n      0x00\n        /* \"Contract_Conqueror_Series/ERC20standards.sol\":7167:7190  _balances[to] += amount */\n      dup3\n      dup3\n      sload\n      tag_222\n      swap2\n      swap1\n      tag_142\n      jump\t// in\n    tag_222:\n      swap3\n      pop\n      pop\n      dup2\n      swap1\n      sstore\n      pop\n        /* \"Contract_Conqueror_Series/ERC20standards.sol\":7223:7225  to */\n      dup2\n        /* \"Contract_Conqueror_Series/ERC20standards.sol\":7208:7234  Transfer(from, to, amount) */\n      0xffffffffffffffffffffffffffffffffffffffff\n      and\n        /* \"Contract_Conqueror_Series/ERC20standards.sol\":7217:7221  from */\n      dup4\n        /* \"Contract_Conqueror_Series/ERC20standards.sol\":7208:7234  Transfer(from, to, amount) */\n      0xffffffffffffffffffffffffffffffffffffffff\n      and\n      0xddf252ad1be2c89b69c2b068fc378daa952ba7f163c4a11628f55a4df523b3ef\n        /* \"Contract_Conqueror_Series/ERC20standards.sol\":7227:7233  amount */\n      dup4\n        /* \"Contract_Conqueror_Series/ERC20standards.sol\":7208:7234  Transfer(from, to, amount) */\n      mload(0x40)\n      tag_223\n      swap2\n      swap1\n      tag_48\n      jump\t// in\n    tag_223:\n      mload(0x40)\n      dup1\n      swap2\n      sub\n      swap1\n      log3\n        /* \"Contract_Conqueror_Series/ERC20standards.sol\":6844:7242  function _transfer(address from, address to, uint256 amount) internal {... */\n      pop\n      pop\n      pop\n      jump\t// out\n        /* \"Contract_Conqueror_Series/ERC20standards.sol\":6146:6407  function _mint(address to, uint256 amount) internal{... */\n    tag_149:\n        /* \"Contract_Conqueror_Series/ERC20standards.sol\":6230:6231  0 */\n      0x00\n        /* \"Contract_Conqueror_Series/ERC20standards.sol\":6216:6232  to != address(0) */\n      0xffffffffffffffffffffffffffffffffffffffff\n      and\n        /* \"Contract_Conqueror_Series/ERC20standards.sol\":6216:6218  to */\n      dup3\n        /* \"Contract_Conqueror_Series/ERC20standards.sol\":6216:6232  to != address(0) */\n      0xffffffffffffffffffffffffffffffffffffffff\n      and\n      sub\n        /* \"Contract_Conqueror_Series/ERC20standards.sol\":6208:6252  require(to != address(0), \"Invalid address\") */\n      tag_225\n      jumpi\n      mload(0x40)\n      0x08c379a000000000000000000000000000000000000000000000000000000000\n      dup2\n      mstore\n      0x04\n      add\n      tag_226\n      swap1\n      tag_227\n      jump\t// in\n    tag_226:\n      mload(0x40)\n      dup1\n      swap2\n      sub\n      swap1\n      revert\n    tag_225:\n        /* \"Contract_Conqueror_Series/ERC20standards.sol\":6279:6285  amount */\n      dup1\n        /* \"Contract_Conqueror_Series/ERC20standards.sol\":6263:6275  _totalsupply */\n      0x03\n      0x00\n        /* \"Contract_Conqueror_Series/ERC20standards.sol\":6263:6285  _totalsupply += amount */\n      dup3\n      dup3\n      sload\n      tag_228\n      swap2\n      swap1\n      tag_142\n      jump\t// in\n    tag_228:\n      swap3\n      pop\n      pop\n      dup2\n      swap1\n      sstore\n      pop\n        /* \"Contract_Conqueror_Series/ERC20standards.sol\":6313:6319  amount */\n      dup1\n        /* \"Contract_Conqueror_Series/ERC20standards.sol\":6296:6305  _balances */\n      0x05\n        /* \"Contract_Conqueror_Series/ERC20standards.sol\":6296:6309  _balances[to] */\n      0x00\n        /* \"Contract_Conqueror_Series/ERC20standards.sol\":6306:6308  to */\n      dup5\n        /* \"Contract_Conqueror_Series/ERC20standards.sol\":6296:6309  _balances[to] */\n      0xffffffffffffffffffffffffffffffffffffffff\n      and\n      0xffffffffffffffffffffffffffffffffffffffff\n      and\n      dup2\n      mstore\n      0x20\n      add\n      swap1\n      dup2\n      mstore\n      0x20\n      add\n      0x00\n      keccak256\n      0x00\n        /* \"Contract_Conqueror_Series/ERC20standards.sol\":6296:6319  _balances[to] += amount */\n      dup3\n      dup3\n      sload\n      tag_229\n      swap2\n      swap1\n      tag_142\n      jump\t// in\n    tag_229:\n      swap3\n      pop\n      pop\n      dup2\n      swap1\n      sstore\n      pop\n        /* \"Contract_Conqueror_Series/ERC20standards.sol\":6340:6342  to */\n      dup2\n        /* \"Contract_Conqueror_Series/ERC20standards.sol\":6335:6351  Mint(to, amount) */\n      0xffffffffffffffffffffffffffffffffffffffff\n      and\n      0x0f6798a560793a54c3bcfe86a93cde1e73087d944c0ea20544137d4121396885\n        /* \"Contract_Conqueror_Series/ERC20standards.sol\":6344:6350  amount */\n      dup3\n        /* \"Contract_Conqueror_Series/ERC20standards.sol\":6335:6351  Mint(to, amount) */\n      mload(0x40)\n      tag_230\n      swap2\n      swap1\n      tag_48\n      jump\t// in\n    tag_230:\n      mload(0x40)\n      dup1\n      swap2\n      sub\n      swap1\n      log2\n        /* \"Contract_Conqueror_Series/ERC20standards.sol\":6388:6390  to */\n      dup2\n        /* \"Contract_Conqueror_Series/ERC20standards.sol\":6367:6399  Transfer(address(0), to, amount) */\n      0xffffffffffffffffffffffffffffffffffffffff\n      and\n        /* \"Contract_Conqueror_Series/ERC20standards.sol\":6384:6385  0 */\n      0x00\n        /* \"Contract_Conqueror_Series/ERC20standards.sol\":6367:6399  Transfer(address(0), to, amount) */\n      0xffffffffffffffffffffffffffffffffffffffff\n      and\n      0xddf252ad1be2c89b69c2b068fc378daa952ba7f163c4a11628f55a4df523b3ef\n        /* \"Contract_Conqueror_Series/ERC20standards.sol\":6392:6398  amount */\n      dup4\n        /* \"Contract_Conqueror_Series/ERC20standards.sol\":6367:6399  Transfer(address(0), to, amount) */\n      mload(0x40)\n      tag_231\n      swap2\n      swap1\n      tag_48\n      jump\t// in\n    tag_231:\n      mload(0x40)\n      dup1\n      swap2\n      sub\n      swap1\n      log3\n        /* \"Contract_Conqueror_Series/ERC20standards.sol\":6146:6407  function _mint(address to, uint256 amount) internal{... */\n      pop\n      pop\n      jump\t// out\n        /* \"Contract_Conqueror_Series/ERC20standards.sol\":6450:6796  function _burn(address from, uint256 amount) internal{... */\n    tag_158:\n        /* \"Contract_Conqueror_Series/ERC20standards.sol\":6538:6539  0 */\n      0x00\n        /* \"Contract_Conqueror_Series/ERC20standards.sol\":6522:6540  from != address(0) */\n      0xffffffffffffffffffffffffffffffffffffffff\n      and\n        /* \"Contract_Conqueror_Series/ERC20standards.sol\":6522:6526  from */\n      dup3\n        /* \"Contract_Conqueror_Series/ERC20standards.sol\":6522:6540  from != address(0) */\n      0xffffffffffffffffffffffffffffffffffffffff\n      and\n      sub\n        /* \"Contract_Conqueror_Series/ERC20standards.sol\":6514:6560  require(from != address(0), \"Invalid address\") */\n      tag_233\n      jumpi\n      mload(0x40)\n      0x08c379a000000000000000000000000000000000000000000000000000000000\n      dup2\n      mstore\n      0x04\n      add\n      tag_234\n      swap1\n      tag_227\n      jump\t// in\n    tag_234:\n      mload(0x40)\n      dup1\n      swap2\n      sub\n      swap1\n      revert\n    tag_233:\n        /* \"Contract_Conqueror_Series/ERC20standards.sol\":6598:6604  amount */\n      dup1\n        /* \"Contract_Conqueror_Series/ERC20standards.sol\":6579:6588  _balances */\n      0x05\n        /* \"Contract_Conqueror_Series/ERC20standards.sol\":6579:6594  _balances[from] */\n      0x00\n        /* \"Contract_Conqueror_Series/ERC20standards.sol\":6589:6593  from */\n      dup5\n        /* \"Contract_Conqueror_Series/ERC20standards.sol\":6579:6594  _balances[from] */\n      0xffffffffffffffffffffffffffffffffffffffff\n      and\n      0xffffffffffffffffffffffffffffffffffffffff\n      and\n      dup2\n      mstore\n      0x20\n      add\n      swap1\n      dup2\n      mstore\n      0x20\n      add\n      0x00\n      keccak256\n      sload\n        /* \"Contract_Conqueror_Series/ERC20standards.sol\":6579:6604  _balances[from] >= amount */\n      lt\n      iszero\n        /* \"Contract_Conqueror_Series/ERC20standards.sol\":6571:6636  require(_balances[from] >= amount, \"ERC20: insufficient balance\") */\n      tag_235\n      jumpi\n      mload(0x40)\n      0x08c379a000000000000000000000000000000000000000000000000000000000\n      dup2\n      mstore\n      0x04\n      add\n      tag_236\n      swap1\n      tag_220\n      jump\t// in\n    tag_236:\n      mload(0x40)\n      dup1\n      swap2\n      sub\n      swap1\n      revert\n    tag_235:\n        /* \"Contract_Conqueror_Series/ERC20standards.sol\":6666:6672  amount */\n      dup1\n        /* \"Contract_Conqueror_Series/ERC20standards.sol\":6647:6656  _balances */\n      0x05\n        /* \"Contract_Conqueror_Series/ERC20standards.sol\":6647:6662  _balances[from] */\n      0x00\n        /* \"Contract_Conqueror_Series/ERC20standards.sol\":6657:6661  from */\n      dup5\n        /* \"Contract_Conqueror_Series/ERC20standards.sol\":6647:6662  _balances[from] */\n      0xffffffffffffffffffffffffffffffffffffffff\n      and\n      0xffffffffffffffffffffffffffffffffffffffff\n      and\n      dup2\n      mstore\n      0x20\n      add\n      swap1\n      dup2\n      mstore\n      0x20\n      add\n      0x00\n      keccak256\n      0x00\n        /* \"Contract_Conqueror_Series/ERC20standards.sol\":6647:6672  _balances[from] -= amount */\n      dup3\n      dup3\n      sload\n      tag_237\n      swap2\n      swap1\n      tag_121\n      jump\t// in\n    tag_237:\n      swap3\n      pop\n      pop\n      dup2\n      swap1\n      sstore\n      pop\n        /* \"Contract_Conqueror_Series/ERC20standards.sol\":6699:6705  amount */\n      dup1\n        /* \"Contract_Conqueror_Series/ERC20standards.sol\":6683:6695  _totalsupply */\n      0x03\n      0x00\n        /* \"Contract_Conqueror_Series/ERC20standards.sol\":6683:6705  _totalsupply -= amount */\n      dup3\n      dup3\n      sload\n      tag_238\n      swap2\n      swap1\n      tag_121\n      jump\t// in\n    tag_238:\n      swap3\n      pop\n      pop\n      dup2\n      swap1\n      sstore\n      pop\n        /* \"Contract_Conqueror_Series/ERC20standards.sol\":6726:6730  from */\n      dup2\n        /* \"Contract_Conqueror_Series/ERC20standards.sol\":6721:6739  Burn(from, amount) */\n      0xffffffffffffffffffffffffffffffffffffffff\n      and\n      0xcc16f5dbb4873280815c1ee09dbd06736cffcc184412cf7a71a0fdb75d397ca5\n        /* \"Contract_Conqueror_Series/ERC20standards.sol\":6732:6738  amount */\n      dup3\n        /* \"Contract_Conqueror_Series/ERC20standards.sol\":6721:6739  Burn(from, amount) */\n      mload(0x40)\n      tag_239\n      swap2\n      swap1\n      tag_48\n      jump\t// in\n    tag_239:\n      mload(0x40)\n      dup1\n      swap2\n      sub\n      swap1\n      log2\n        /* \"Contract_Conqueror_Series/ERC20standards.sol\":6778:6779  0 */\n      0x00\n        /* \"Contract_Conqueror_Series/ERC20standards.sol\":6755:6788  Transfer(from, address(0),amount) */\n      0xffffffffffffffffffffffffffffffffffffffff\n      and\n        /* \"Contract_Conqueror_Series/ERC20standards.sol\":6764:6768  from */\n      dup3\n        /* \"Contract_Conqueror_Series/ERC20standards.sol\":6755:6788  Transfer(from, address(0),amount) */\n      0xffffffffffffffffffffffffffffffffffffffff\n      and\n      0xddf252ad1be2c89b69c2b068fc378daa952ba7f163c4a11628f55a4df523b3ef\n        /* \"Contract_Conqueror_Series/ERC20standards.sol\":6781:6787  amount */\n      dup4\n        /* \"Contract_Conqueror_Series/ERC20standards.sol\":6755:6788  Transfer(from, address(0),amount) */\n      mload(0x40)\n      tag_240\n      swap2\n      swap1\n      tag_48\n      jump\t// in\n    tag_240:\n      mload(0x40)\n      dup1\n      swap2\n      sub\n      swap1\n      log3\n        /* \"Contract_Conqueror_Series/ERC20standards.sol\":6450:6796  function _burn(address from, uint256 amount) internal{... */\n      pop\n      pop\n      jump\t// out\n        /* \"#utility.yul\":7:106   */\n    tag_241:\n        /* \"#utility.yul\":59:65   */\n      0x00\n        /* \"#utility.yul\":93:98   */\n      dup2\n        /* \"#utility.yul\":87:99   */\n      mload\n        /* \"#utility.yul\":77:99   */\n      swap1\n      pop\n        /* \"#utility.yul\":7:106   */\n      swap2\n      swap1\n      pop\n      jump\t// out\n        /* \"#utility.yul\":112:281   */\n    tag_242:\n        /* \"#utility.yul\":196:207   */\n      0x00\n        /* \"#utility.yul\":230:236   */\n      dup3\n        /* \"#utility.yul\":225:228   */\n      dup3\n        /* \"#utility.yul\":218:237   */\n      mstore\n        /* \"#utility.yul\":270:274   */\n      0x20\n        /* \"#utility.yul\":265:268   */\n      dup3\n        /* \"#utility.yul\":261:275   */\n      add\n        /* \"#utility.yul\":246:275   */\n      swap1\n      pop\n        /* \"#utility.yul\":112:281   */\n      swap3\n      swap2\n      pop\n      pop\n      jump\t// out\n        /* \"#utility.yul\":287:426   */\n    tag_243:\n        /* \"#utility.yul\":376:382   */\n      dup3\n        /* \"#utility.yul\":371:374   */\n      dup2\n        /* \"#utility.yul\":366:369   */\n      dup4\n        /* \"#utility.yul\":360:383   */\n      mcopy\n        /* \"#utility.yul\":417:418   */\n      0x00\n        /* \"#utility.yul\":408:414   */\n      dup4\n        /* \"#utility.yul\":403:406   */\n      dup4\n        /* \"#utility.yul\":399:415   */\n      add\n        /* \"#utility.yul\":392:419   */\n      mstore\n        /* \"#utility.yul\":287:426   */\n      pop\n      pop\n      pop\n      jump\t// out\n        /* \"#utility.yul\":432:534   */\n    tag_244:\n        /* \"#utility.yul\":473:479   */\n      0x00\n        /* \"#utility.yul\":524:526   */\n      0x1f\n        /* \"#utility.yul\":520:527   */\n      not\n        /* \"#utility.yul\":515:517   */\n      0x1f\n        /* \"#utility.yul\":508:513   */\n      dup4\n        /* \"#utility.yul\":504:518   */\n      add\n        /* \"#utility.yul\":500:528   */\n      and\n        /* \"#utility.yul\":490:528   */\n      swap1\n      pop\n        /* \"#utility.yul\":432:534   */\n      swap2\n      swap1\n      pop\n      jump\t// out\n        /* \"#utility.yul\":540:917   */\n    tag_245:\n        /* \"#utility.yul\":628:631   */\n      0x00\n        /* \"#utility.yul\":656:695   */\n      tag_301\n        /* \"#utility.yul\":689:694   */\n      dup3\n        /* \"#utility.yul\":656:695   */\n      tag_241\n      jump\t// in\n    tag_301:\n        /* \"#utility.yul\":711:782   */\n      tag_302\n        /* \"#utility.yul\":775:781   */\n      dup2\n        /* \"#utility.yul\":770:773   */\n      dup6\n        /* \"#utility.yul\":711:782   */\n      tag_242\n      jump\t// in\n    tag_302:\n        /* \"#utility.yul\":704:782   */\n      swap4\n      pop\n        /* \"#utility.yul\":791:856   */\n      tag_303\n        /* \"#utility.yul\":849:855   */\n      dup2\n        /* \"#utility.yul\":844:847   */\n      dup6\n        /* \"#utility.yul\":837:841   */\n      0x20\n        /* \"#utility.yul\":830:835   */\n      dup7\n        /* \"#utility.yul\":826:842   */\n      add\n        /* \"#utility.yul\":791:856   */\n      tag_243\n      jump\t// in\n    tag_303:\n        /* \"#utility.yul\":881:910   */\n      tag_304\n        /* \"#utility.yul\":903:909   */\n      dup2\n        /* \"#utility.yul\":881:910   */\n      tag_244\n      jump\t// in\n    tag_304:\n        /* \"#utility.yul\":876:879   */\n      dup5\n        /* \"#utility.yul\":872:911   */\n      add\n        /* \"#utility.yul\":865:911   */\n      swap2\n      pop\n        /* \"#utility.yul\":632:917   */\n      pop\n        /* \"#utility.yul\":540:917   */\n      swap3\n      swap2\n      pop\n      pop\n      jump\t// out\n        /* \"#utility.yul\":923:1236   */\n    tag_29:\n        /* \"#utility.yul\":1036:1040   */\n      0x00\n        /* \"#utility.yul\":1074:1076   */\n      0x20\n        /* \"#utility.yul\":1063:1072   */\n      dup3\n        /* \"#utility.yul\":1059:1077   */\n      add\n        /* \"#utility.yul\":1051:1077   */\n      swap1\n      pop\n        /* \"#utility.yul\":1123:1132   */\n      dup2\n        /* \"#utility.yul\":1117:1121   */\n      dup2\n        /* \"#utility.yul\":1113:1133   */\n      sub\n        /* \"#utility.yul\":1109:1110   */\n      0x00\n        /* \"#utility.yul\":1098:1107   */\n      dup4\n        /* \"#utility.yul\":1094:1111   */\n      add\n        /* \"#utility.yul\":1087:1134   */\n      mstore\n        /* \"#utility.yul\":1151:1229   */\n      tag_306\n        /* \"#utility.yul\":1224:1228   */\n      dup2\n        /* \"#utility.yul\":1215:1221   */\n      dup5\n        /* \"#utility.yul\":1151:1229   */\n      tag_245\n      jump\t// in\n    tag_306:\n        /* \"#utility.yul\":1143:1229   */\n      swap1\n      pop\n        /* \"#utility.yul\":923:1236   */\n      swap3\n      swap2\n      pop\n      pop\n      jump\t// out\n        /* \"#utility.yul\":1323:1440   */\n    tag_247:\n        /* \"#utility.yul\":1432:1433   */\n      0x00\n        /* \"#utility.yul\":1429:1430   */\n      0x00\n        /* \"#utility.yul\":1422:1434   */\n      revert\n        /* \"#utility.yul\":1569:1695   */\n    tag_249:\n        /* \"#utility.yul\":1606:1613   */\n      0x00\n        /* \"#utility.yul\":1646:1688   */\n      0xffffffffffffffffffffffffffffffffffffffff\n        /* \"#utility.yul\":1639:1644   */\n      dup3\n        /* \"#utility.yul\":1635:1689   */\n      and\n        /* \"#utility.yul\":1624:1689   */\n      swap1\n      pop\n        /* \"#utility.yul\":1569:1695   */\n      swap2\n      swap1\n      pop\n      jump\t// out\n        /* \"#utility.yul\":1701:1797   */\n    tag_250:\n        /* \"#utility.yul\":1738:1745   */\n      0x00\n        /* \"#utility.yul\":1767:1791   */\n      tag_312\n        /* \"#utility.yul\":1785:1790   */\n      dup3\n        /* \"#utility.yul\":1767:1791   */\n      tag_249\n      jump\t// in\n    tag_312:\n        /* \"#utility.yul\":1756:1791   */\n      swap1\n      pop\n        /* \"#utility.yul\":1701:1797   */\n      swap2\n      swap1\n      pop\n      jump\t// out\n        /* \"#utility.yul\":1803:1925   */\n    tag_251:\n        /* \"#utility.yul\":1876:1900   */\n      tag_314\n        /* \"#utility.yul\":1894:1899   */\n      dup2\n        /* \"#utility.yul\":1876:1900   */\n      tag_250\n      jump\t// in\n    tag_314:\n        /* \"#utility.yul\":1869:1874   */\n      dup2\n        /* \"#utility.yul\":1866:1901   */\n      eq\n        /* \"#utility.yul\":1856:1919   */\n      tag_315\n      jumpi\n        /* \"#utility.yul\":1915:1916   */\n      0x00\n        /* \"#utility.yul\":1912:1913   */\n      0x00\n        /* \"#utility.yul\":1905:1917   */\n      revert\n        /* \"#utility.yul\":1856:1919   */\n    tag_315:\n        /* \"#utility.yul\":1803:1925   */\n      pop\n      jump\t// out\n        /* \"#utility.yul\":1931:2070   */\n    tag_252:\n        /* \"#utility.yul\":1977:1982   */\n      0x00\n        /* \"#utility.yul\":2015:2021   */\n      dup2\n        /* \"#utility.yul\":2002:2022   */\n      calldataload\n        /* \"#utility.yul\":1993:2022   */\n      swap1\n      pop\n        /* \"#utility.yul\":2031:2064   */\n      tag_317\n        /* \"#utility.yul\":2058:2063   */\n      dup2\n        /* \"#utility.yul\":2031:2064   */\n      tag_251\n      jump\t// in\n    tag_317:\n        /* \"#utility.yul\":1931:2070   */\n      swap3\n      swap2\n      pop\n      pop\n      jump\t// out\n        /* \"#utility.yul\":2076:2153   */\n    tag_253:\n        /* \"#utility.yul\":2113:2120   */\n      0x00\n        /* \"#utility.yul\":2142:2147   */\n      dup2\n        /* \"#utility.yul\":2131:2147   */\n      swap1\n      pop\n        /* \"#utility.yul\":2076:2153   */\n      swap2\n      swap1\n      pop\n      jump\t// out\n        /* \"#utility.yul\":2159:2281   */\n    tag_254:\n        /* \"#utility.yul\":2232:2256   */\n      tag_320\n        /* \"#utility.yul\":2250:2255   */\n      dup2\n        /* \"#utility.yul\":2232:2256   */\n      tag_253\n      jump\t// in\n    tag_320:\n        /* \"#utility.yul\":2225:2230   */\n      dup2\n        /* \"#utility.yul\":2222:2257   */\n      eq\n        /* \"#utility.yul\":2212:2275   */\n      tag_321\n      jumpi\n        /* \"#utility.yul\":2271:2272   */\n      0x00\n        /* \"#utility.yul\":2268:2269   */\n      0x00\n        /* \"#utility.yul\":2261:2273   */\n      revert\n        /* \"#utility.yul\":2212:2275   */\n    tag_321:\n        /* \"#utility.yul\":2159:2281   */\n      pop\n      jump\t// out\n        /* \"#utility.yul\":2287:2426   */\n    tag_255:\n        /* \"#utility.yul\":2333:2338   */\n      0x00\n        /* \"#utility.yul\":2371:2377   */\n      dup2\n        /* \"#utility.yul\":2358:2378   */\n      calldataload\n        /* \"#utility.yul\":2349:2378   */\n      swap1\n      pop\n        /* \"#utility.yul\":2387:2420   */\n      tag_323\n        /* \"#utility.yul\":2414:2419   */\n      dup2\n        /* \"#utility.yul\":2387:2420   */\n      tag_254\n      jump\t// in\n    tag_323:\n        /* \"#utility.yul\":2287:2426   */\n      swap3\n      swap2\n      pop\n      pop\n      jump\t// out\n        /* \"#utility.yul\":2432:2906   */\n    tag_32:\n        /* \"#utility.yul\":2500:2506   */\n      0x00\n        /* \"#utility.yul\":2508:2514   */\n      0x00\n        /* \"#utility.yul\":2557:2559   */\n      0x40\n        /* \"#utility.yul\":2545:2554   */\n      dup4\n        /* \"#utility.yul\":2536:2543   */\n      dup6\n        /* \"#utility.yul\":2532:2555   */\n      sub\n        /* \"#utility.yul\":2528:2560   */\n      slt\n        /* \"#utility.yul\":2525:2644   */\n      iszero\n      tag_325\n      jumpi\n        /* \"#utility.yul\":2563:2642   */\n      tag_326\n      tag_247\n      jump\t// in\n    tag_326:\n        /* \"#utility.yul\":2525:2644   */\n    tag_325:\n        /* \"#utility.yul\":2683:2684   */\n      0x00\n        /* \"#utility.yul\":2708:2761   */\n      tag_327\n        /* \"#utility.yul\":2753:2760   */\n      dup6\n        /* \"#utility.yul\":2744:2750   */\n      dup3\n        /* \"#utility.yul\":2733:2742   */\n      dup7\n        /* \"#utility.yul\":2729:2751   */\n      add\n        /* \"#utility.yul\":2708:2761   */\n      tag_252\n      jump\t// in\n    tag_327:\n        /* \"#utility.yul\":2698:2761   */\n      swap3\n      pop\n        /* \"#utility.yul\":2654:2771   */\n      pop\n        /* \"#utility.yul\":2810:2812   */\n      0x20\n        /* \"#utility.yul\":2836:2889   */\n      tag_328\n        /* \"#utility.yul\":2881:2888   */\n      dup6\n        /* \"#utility.yul\":2872:2878   */\n      dup3\n        /* \"#utility.yul\":2861:2870   */\n      dup7\n        /* \"#utility.yul\":2857:2879   */\n      add\n        /* \"#utility.yul\":2836:2889   */\n      tag_255\n      jump\t// in\n    tag_328:\n        /* \"#utility.yul\":2826:2889   */\n      swap2\n      pop\n        /* \"#utility.yul\":2781:2899   */\n      pop\n        /* \"#utility.yul\":2432:2906   */\n      swap3\n      pop\n      swap3\n      swap1\n      pop\n      jump\t// out\n        /* \"#utility.yul\":2912:3002   */\n    tag_256:\n        /* \"#utility.yul\":2946:2953   */\n      0x00\n        /* \"#utility.yul\":2989:2994   */\n      dup2\n        /* \"#utility.yul\":2982:2995   */\n      iszero\n        /* \"#utility.yul\":2975:2996   */\n      iszero\n        /* \"#utility.yul\":2964:2996   */\n      swap1\n      pop\n        /* \"#utility.yul\":2912:3002   */\n      swap2\n      swap1\n      pop\n      jump\t// out\n        /* \"#utility.yul\":3008:3117   */\n    tag_257:\n        /* \"#utility.yul\":3089:3110   */\n      tag_331\n        /* \"#utility.yul\":3104:3109   */\n      dup2\n        /* \"#utility.yul\":3089:3110   */\n      tag_256\n      jump\t// in\n    tag_331:\n        /* \"#utility.yul\":3084:3087   */\n      dup3\n        /* \"#utility.yul\":3077:3111   */\n      mstore\n        /* \"#utility.yul\":3008:3117   */\n      pop\n      pop\n      jump\t// out\n        /* \"#utility.yul\":3123:3333   */\n    tag_35:\n        /* \"#utility.yul\":3210:3214   */\n      0x00\n        /* \"#utility.yul\":3248:3250   */\n      0x20\n        /* \"#utility.yul\":3237:3246   */\n      dup3\n        /* \"#utility.yul\":3233:3251   */\n      add\n        /* \"#utility.yul\":3225:3251   */\n      swap1\n      pop\n        /* \"#utility.yul\":3261:3326   */\n      tag_333\n        /* \"#utility.yul\":3323:3324   */\n      0x00\n        /* \"#utility.yul\":3312:3321   */\n      dup4\n        /* \"#utility.yul\":3308:3325   */\n      add\n        /* \"#utility.yul\":3299:3305   */\n      dup5\n        /* \"#utility.yul\":3261:3326   */\n      tag_257\n      jump\t// in\n    tag_333:\n        /* \"#utility.yul\":3123:3333   */\n      swap3\n      swap2\n      pop\n      pop\n      jump\t// out\n        /* \"#utility.yul\":3339:3958   */\n    tag_38:\n        /* \"#utility.yul\":3416:3422   */\n      0x00\n        /* \"#utility.yul\":3424:3430   */\n      0x00\n        /* \"#utility.yul\":3432:3438   */\n      0x00\n        /* \"#utility.yul\":3481:3483   */\n      0x60\n        /* \"#utility.yul\":3469:3478   */\n      dup5\n        /* \"#utility.yul\":3460:3467   */\n      dup7\n        /* \"#utility.yul\":3456:3479   */\n      sub\n        /* \"#utility.yul\":3452:3484   */\n      slt\n        /* \"#utility.yul\":3449:3568   */\n      iszero\n      tag_335\n      jumpi\n        /* \"#utility.yul\":3487:3566   */\n      tag_336\n      tag_247\n      jump\t// in\n    tag_336:\n        /* \"#utility.yul\":3449:3568   */\n    tag_335:\n        /* \"#utility.yul\":3607:3608   */\n      0x00\n        /* \"#utility.yul\":3632:3685   */\n      tag_337\n        /* \"#utility.yul\":3677:3684   */\n      dup7\n        /* \"#utility.yul\":3668:3674   */\n      dup3\n        /* \"#utility.yul\":3657:3666   */\n      dup8\n        /* \"#utility.yul\":3653:3675   */\n      add\n        /* \"#utility.yul\":3632:3685   */\n      tag_252\n      jump\t// in\n    tag_337:\n        /* \"#utility.yul\":3622:3685   */\n      swap4\n      pop\n        /* \"#utility.yul\":3578:3695   */\n      pop\n        /* \"#utility.yul\":3734:3736   */\n      0x20\n        /* \"#utility.yul\":3760:3813   */\n      tag_338\n        /* \"#utility.yul\":3805:3812   */\n      dup7\n        /* \"#utility.yul\":3796:3802   */\n      dup3\n        /* \"#utility.yul\":3785:3794   */\n      dup8\n        /* \"#utility.yul\":3781:3803   */\n      add\n        /* \"#utility.yul\":3760:3813   */\n      tag_252\n      jump\t// in\n    tag_338:\n        /* \"#utility.yul\":3750:3813   */\n      swap3\n      pop\n        /* \"#utility.yul\":3705:3823   */\n      pop\n        /* \"#utility.yul\":3862:3864   */\n      0x40\n        /* \"#utility.yul\":3888:3941   */\n      tag_339\n        /* \"#utility.yul\":3933:3940   */\n      dup7\n        /* \"#utility.yul\":3924:3930   */\n      dup3\n        /* \"#utility.yul\":3913:3922   */\n      dup8\n        /* \"#utility.yul\":3909:3931   */\n      add\n        /* \"#utility.yul\":3888:3941   */\n      tag_255\n      jump\t// in\n    tag_339:\n        /* \"#utility.yul\":3878:3941   */\n      swap2\n      pop\n        /* \"#utility.yul\":3833:3951   */\n      pop\n        /* \"#utility.yul\":3339:3958   */\n      swap3\n      pop\n      swap3\n      pop\n      swap3\n      jump\t// out\n        /* \"#utility.yul\":3964:4050   */\n    tag_258:\n        /* \"#utility.yul\":3999:4006   */\n      0x00\n        /* \"#utility.yul\":4039:4043   */\n      0xff\n        /* \"#utility.yul\":4032:4037   */\n      dup3\n        /* \"#utility.yul\":4028:4044   */\n      and\n        /* \"#utility.yul\":4017:4044   */\n      swap1\n      pop\n        /* \"#utility.yul\":3964:4050   */\n      swap2\n      swap1\n      pop\n      jump\t// out\n        /* \"#utility.yul\":4056:4168   */\n    tag_259:\n        /* \"#utility.yul\":4139:4161   */\n      tag_342\n        /* \"#utility.yul\":4155:4160   */\n      dup2\n        /* \"#utility.yul\":4139:4161   */\n      tag_258\n      jump\t// in\n    tag_342:\n        /* \"#utility.yul\":4134:4137   */\n      dup3\n        /* \"#utility.yul\":4127:4162   */\n      mstore\n        /* \"#utility.yul\":4056:4168   */\n      pop\n      pop\n      jump\t// out\n        /* \"#utility.yul\":4174:4388   */\n    tag_44:\n        /* \"#utility.yul\":4263:4267   */\n      0x00\n        /* \"#utility.yul\":4301:4303   */\n      0x20\n        /* \"#utility.yul\":4290:4299   */\n      dup3\n        /* \"#utility.yul\":4286:4304   */\n      add\n        /* \"#utility.yul\":4278:4304   */\n      swap1\n      pop\n        /* \"#utility.yul\":4314:4381   */\n      tag_344\n        /* \"#utility.yul\":4378:4379   */\n      0x00\n        /* \"#utility.yul\":4367:4376   */\n      dup4\n        /* \"#utility.yul\":4363:4380   */\n      add\n        /* \"#utility.yul\":4354:4360   */\n      dup5\n        /* \"#utility.yul\":4314:4381   */\n      tag_259\n      jump\t// in\n    tag_344:\n        /* \"#utility.yul\":4174:4388   */\n      swap3\n      swap2\n      pop\n      pop\n      jump\t// out\n        /* \"#utility.yul\":4394:4512   */\n    tag_260:\n        /* \"#utility.yul\":4481:4505   */\n      tag_346\n        /* \"#utility.yul\":4499:4504   */\n      dup2\n        /* \"#utility.yul\":4481:4505   */\n      tag_253\n      jump\t// in\n    tag_346:\n        /* \"#utility.yul\":4476:4479   */\n      dup3\n        /* \"#utility.yul\":4469:4506   */\n      mstore\n        /* \"#utility.yul\":4394:4512   */\n      pop\n      pop\n      jump\t// out\n        /* \"#utility.yul\":4518:4740   */\n    tag_48:\n        /* \"#utility.yul\":4611:4615   */\n      0x00\n        /* \"#utility.yul\":4649:4651   */\n      0x20\n        /* \"#utility.yul\":4638:4647   */\n      dup3\n        /* \"#utility.yul\":4634:4652   */\n      add\n        /* \"#utility.yul\":4626:4652   */\n      swap1\n      pop\n        /* \"#utility.yul\":4662:4733   */\n      tag_348\n        /* \"#utility.yul\":4730:4731   */\n      0x00\n        /* \"#utility.yul\":4719:4728   */\n      dup4\n        /* \"#utility.yul\":4715:4732   */\n      add\n        /* \"#utility.yul\":4706:4712   */\n      dup5\n        /* \"#utility.yul\":4662:4733   */\n      tag_260\n      jump\t// in\n    tag_348:\n        /* \"#utility.yul\":4518:4740   */\n      swap3\n      swap2\n      pop\n      pop\n      jump\t// out\n        /* \"#utility.yul\":4746:5075   */\n    tag_56:\n        /* \"#utility.yul\":4805:4811   */\n      0x00\n        /* \"#utility.yul\":4854:4856   */\n      0x20\n        /* \"#utility.yul\":4842:4851   */\n      dup3\n        /* \"#utility.yul\":4833:4840   */\n      dup5\n        /* \"#utility.yul\":4829:4852   */\n      sub\n        /* \"#utility.yul\":4825:4857   */\n      slt\n        /* \"#utility.yul\":4822:4941   */\n      iszero\n      tag_350\n      jumpi\n        /* \"#utility.yul\":4860:4939   */\n      tag_351\n      tag_247\n      jump\t// in\n    tag_351:\n        /* \"#utility.yul\":4822:4941   */\n    tag_350:\n        /* \"#utility.yul\":4980:4981   */\n      0x00\n        /* \"#utility.yul\":5005:5058   */\n      tag_352\n        /* \"#utility.yul\":5050:5057   */\n      dup5\n        /* \"#utility.yul\":5041:5047   */\n      dup3\n        /* \"#utility.yul\":5030:5039   */\n      dup6\n        /* \"#utility.yul\":5026:5048   */\n      add\n        /* \"#utility.yul\":5005:5058   */\n      tag_255\n      jump\t// in\n    tag_352:\n        /* \"#utility.yul\":4995:5058   */\n      swap2\n      pop\n        /* \"#utility.yul\":4951:5068   */\n      pop\n        /* \"#utility.yul\":4746:5075   */\n      swap3\n      swap2\n      pop\n      pop\n      jump\t// out\n        /* \"#utility.yul\":5081:5410   */\n    tag_66:\n        /* \"#utility.yul\":5140:5146   */\n      0x00\n        /* \"#utility.yul\":5189:5191   */\n      0x20\n        /* \"#utility.yul\":5177:5186   */\n      dup3\n        /* \"#utility.yul\":5168:5175   */\n      dup5\n        /* \"#utility.yul\":5164:5187   */\n      sub\n        /* \"#utility.yul\":5160:5192   */\n      slt\n        /* \"#utility.yul\":5157:5276   */\n      iszero\n      tag_354\n      jumpi\n        /* \"#utility.yul\":5195:5274   */\n      tag_355\n      tag_247\n      jump\t// in\n    tag_355:\n        /* \"#utility.yul\":5157:5276   */\n    tag_354:\n        /* \"#utility.yul\":5315:5316   */\n      0x00\n        /* \"#utility.yul\":5340:5393   */\n      tag_356\n        /* \"#utility.yul\":5385:5392   */\n      dup5\n        /* \"#utility.yul\":5376:5382   */\n      dup3\n        /* \"#utility.yul\":5365:5374   */\n      dup6\n        /* \"#utility.yul\":5361:5383   */\n      add\n        /* \"#utility.yul\":5340:5393   */\n      tag_252\n      jump\t// in\n    tag_356:\n        /* \"#utility.yul\":5330:5393   */\n      swap2\n      pop\n        /* \"#utility.yul\":5286:5403   */\n      pop\n        /* \"#utility.yul\":5081:5410   */\n      swap3\n      swap2\n      pop\n      pop\n      jump\t// out\n        /* \"#utility.yul\":5416:5534   */\n    tag_261:\n        /* \"#utility.yul\":5503:5527   */\n      tag_358\n        /* \"#utility.yul\":5521:5526   */\n      dup2\n        /* \"#utility.yul\":5503:5527   */\n      tag_250\n      jump\t// in\n    tag_358:\n        /* \"#utility.yul\":5498:5501   */\n      dup3\n        /* \"#utility.yul\":5491:5528   */\n      mstore\n        /* \"#utility.yul\":5416:5534   */\n      pop\n      pop\n      jump\t// out\n        /* \"#utility.yul\":5540:5762   */\n    tag_77:\n        /* \"#utility.yul\":5633:5637   */\n      0x00\n        /* \"#utility.yul\":5671:5673   */\n      0x20\n        /* \"#utility.yul\":5660:5669   */\n      dup3\n        /* \"#utility.yul\":5656:5674   */\n      add\n        /* \"#utility.yul\":5648:5674   */\n      swap1\n      pop\n        /* \"#utility.yul\":5684:5755   */\n      tag_360\n        /* \"#utility.yul\":5752:5753   */\n      0x00\n        /* \"#utility.yul\":5741:5750   */\n      dup4\n        /* \"#utility.yul\":5737:5754   */\n      add\n        /* \"#utility.yul\":5728:5734   */\n      dup5\n        /* \"#utility.yul\":5684:5755   */\n      tag_261\n      jump\t// in\n    tag_360:\n        /* \"#utility.yul\":5540:5762   */\n      swap3\n      swap2\n      pop\n      pop\n      jump\t// out\n        /* \"#utility.yul\":5768:6242   */\n    tag_97:\n        /* \"#utility.yul\":5836:5842   */\n      0x00\n        /* \"#utility.yul\":5844:5850   */\n      0x00\n        /* \"#utility.yul\":5893:5895   */\n      0x40\n        /* \"#utility.yul\":5881:5890   */\n      dup4\n        /* \"#utility.yul\":5872:5879   */\n      dup6\n        /* \"#utility.yul\":5868:5891   */\n      sub\n        /* \"#utility.yul\":5864:5896   */\n      slt\n        /* \"#utility.yul\":5861:5980   */\n      iszero\n      tag_362\n      jumpi\n        /* \"#utility.yul\":5899:5978   */\n      tag_363\n      tag_247\n      jump\t// in\n    tag_363:\n        /* \"#utility.yul\":5861:5980   */\n    tag_362:\n        /* \"#utility.yul\":6019:6020   */\n      0x00\n        /* \"#utility.yul\":6044:6097   */\n      tag_364\n        /* \"#utility.yul\":6089:6096   */\n      dup6\n        /* \"#utility.yul\":6080:6086   */\n      dup3\n        /* \"#utility.yul\":6069:6078   */\n      dup7\n        /* \"#utility.yul\":6065:6087   */\n      add\n        /* \"#utility.yul\":6044:6097   */\n      tag_252\n      jump\t// in\n    tag_364:\n        /* \"#utility.yul\":6034:6097   */\n      swap3\n      pop\n        /* \"#utility.yul\":5990:6107   */\n      pop\n        /* \"#utility.yul\":6146:6148   */\n      0x20\n        /* \"#utility.yul\":6172:6225   */\n      tag_365\n        /* \"#utility.yul\":6217:6224   */\n      dup6\n        /* \"#utility.yul\":6208:6214   */\n      dup3\n        /* \"#utility.yul\":6197:6206   */\n      dup7\n        /* \"#utility.yul\":6193:6215   */\n      add\n        /* \"#utility.yul\":6172:6225   */\n      tag_252\n      jump\t// in\n    tag_365:\n        /* \"#utility.yul\":6162:6225   */\n      swap2\n      pop\n        /* \"#utility.yul\":6117:6235   */\n      pop\n        /* \"#utility.yul\":5768:6242   */\n      swap3\n      pop\n      swap3\n      swap1\n      pop\n      jump\t// out\n        /* \"#utility.yul\":6248:6428   */\n    tag_262:\n        /* \"#utility.yul\":6296:6373   */\n      0x4e487b7100000000000000000000000000000000000000000000000000000000\n        /* \"#utility.yul\":6293:6294   */\n      0x00\n        /* \"#utility.yul\":6286:6374   */\n      mstore\n        /* \"#utility.yul\":6393:6397   */\n      0x22\n        /* \"#utility.yul\":6390:6391   */\n      0x04\n        /* \"#utility.yul\":6383:6398   */\n      mstore\n        /* \"#utility.yul\":6417:6421   */\n      0x24\n        /* \"#utility.yul\":6414:6415   */\n      0x00\n        /* \"#utility.yul\":6407:6422   */\n      revert\n        /* \"#utility.yul\":6434:6754   */\n    tag_101:\n        /* \"#utility.yul\":6478:6484   */\n      0x00\n        /* \"#utility.yul\":6515:6516   */\n      0x02\n        /* \"#utility.yul\":6509:6513   */\n      dup3\n        /* \"#utility.yul\":6505:6517   */\n      div\n        /* \"#utility.yul\":6495:6517   */\n      swap1\n      pop\n        /* \"#utility.yul\":6562:6563   */\n      0x01\n        /* \"#utility.yul\":6556:6560   */\n      dup3\n        /* \"#utility.yul\":6552:6564   */\n      and\n        /* \"#utility.yul\":6583:6601   */\n      dup1\n        /* \"#utility.yul\":6573:6654   */\n      tag_368\n      jumpi\n        /* \"#utility.yul\":6639:6643   */\n      0x7f\n        /* \"#utility.yul\":6631:6637   */\n      dup3\n        /* \"#utility.yul\":6627:6644   */\n      and\n        /* \"#utility.yul\":6617:6644   */\n      swap2\n      pop\n        /* \"#utility.yul\":6573:6654   */\n    tag_368:\n        /* \"#utility.yul\":6701:6703   */\n      0x20\n        /* \"#utility.yul\":6693:6699   */\n      dup3\n        /* \"#utility.yul\":6690:6704   */\n      lt\n        /* \"#utility.yul\":6670:6688   */\n      dup2\n        /* \"#utility.yul\":6667:6705   */\n      sub\n        /* \"#utility.yul\":6664:6748   */\n      tag_369\n      jumpi\n        /* \"#utility.yul\":6720:6738   */\n      tag_370\n      tag_262\n      jump\t// in\n    tag_370:\n        /* \"#utility.yul\":6664:6748   */\n    tag_369:\n        /* \"#utility.yul\":6485:6754   */\n      pop\n        /* \"#utility.yul\":6434:6754   */\n      swap2\n      swap1\n      pop\n      jump\t// out\n        /* \"#utility.yul\":6760:6928   */\n    tag_263:\n        /* \"#utility.yul\":6900:6920   */\n      0x436f6e7472616374206973207061757365640000000000000000000000000000\n        /* \"#utility.yul\":6896:6897   */\n      0x00\n        /* \"#utility.yul\":6888:6894   */\n      dup3\n        /* \"#utility.yul\":6884:6898   */\n      add\n        /* \"#utility.yul\":6877:6921   */\n      mstore\n        /* \"#utility.yul\":6760:6928   */\n      pop\n      jump\t// out\n        /* \"#utility.yul\":6934:7300   */\n    tag_264:\n        /* \"#utility.yul\":7076:7079   */\n      0x00\n        /* \"#utility.yul\":7097:7164   */\n      tag_373\n        /* \"#utility.yul\":7161:7163   */\n      0x12\n        /* \"#utility.yul\":7156:7159   */\n      dup4\n        /* \"#utility.yul\":7097:7164   */\n      tag_242\n      jump\t// in\n    tag_373:\n        /* \"#utility.yul\":7090:7164   */\n      swap2\n      pop\n        /* \"#utility.yul\":7173:7266   */\n      tag_374\n        /* \"#utility.yul\":7262:7265   */\n      dup3\n        /* \"#utility.yul\":7173:7266   */\n      tag_263\n      jump\t// in\n    tag_374:\n        /* \"#utility.yul\":7291:7293   */\n      0x20\n        /* \"#utility.yul\":7286:7289   */\n      dup3\n        /* \"#utility.yul\":7282:7294   */\n      add\n        /* \"#utility.yul\":7275:7294   */\n      swap1\n      pop\n        /* \"#utility.yul\":6934:7300   */\n      swap2\n      swap1\n      pop\n      jump\t// out\n        /* \"#utility.yul\":7306:7725   */\n    tag_109:\n        /* \"#utility.yul\":7472:7476   */\n      0x00\n        /* \"#utility.yul\":7510:7512   */\n      0x20\n        /* \"#utility.yul\":7499:7508   */\n      dup3\n        /* \"#utility.yul\":7495:7513   */\n      add\n        /* \"#utility.yul\":7487:7513   */\n      swap1\n      pop\n        /* \"#utility.yul\":7559:7568   */\n      dup2\n        /* \"#utility.yul\":7553:7557   */\n      dup2\n        /* \"#utility.yul\":7549:7569   */\n      sub\n        /* \"#utility.yul\":7545:7546   */\n      0x00\n        /* \"#utility.yul\":7534:7543   */\n      dup4\n        /* \"#utility.yul\":7530:7547   */\n      add\n        /* \"#utility.yul\":7523:7570   */\n      mstore\n        /* \"#utility.yul\":7587:7718   */\n      tag_376\n        /* \"#utility.yul\":7713:7717   */\n      dup2\n        /* \"#utility.yul\":7587:7718   */\n      tag_264\n      jump\t// in\n    tag_376:\n        /* \"#utility.yul\":7579:7718   */\n      swap1\n      pop\n        /* \"#utility.yul\":7306:7725   */\n      swap2\n      swap1\n      pop\n      jump\t// out\n        /* \"#utility.yul\":7731:7910   */\n    tag_265:\n        /* \"#utility.yul\":7871:7902   */\n      0x45524332303a20696e73756666696369656e7420616c6c6f77616e6365000000\n        /* \"#utility.yul\":7867:7868   */\n      0x00\n        /* \"#utility.yul\":7859:7865   */\n      dup3\n        /* \"#utility.yul\":7855:7869   */\n      add\n        /* \"#utility.yul\":7848:7903   */\n      mstore\n        /* \"#utility.yul\":7731:7910   */\n      pop\n      jump\t// out\n        /* \"#utility.yul\":7916:8282   */\n    tag_266:\n        /* \"#utility.yul\":8058:8061   */\n      0x00\n        /* \"#utility.yul\":8079:8146   */\n      tag_379\n        /* \"#utility.yul\":8143:8145   */\n      0x1d\n        /* \"#utility.yul\":8138:8141   */\n      dup4\n        /* \"#utility.yul\":8079:8146   */\n      tag_242\n      jump\t// in\n    tag_379:\n        /* \"#utility.yul\":8072:8146   */\n      swap2\n      pop\n        /* \"#utility.yul\":8155:8248   */\n      tag_380\n        /* \"#utility.yul\":8244:8247   */\n      dup3\n        /* \"#utility.yul\":8155:8248   */\n      tag_265\n      jump\t// in\n    tag_380:\n        /* \"#utility.yul\":8273:8275   */\n      0x20\n        /* \"#utility.yul\":8268:8271   */\n      dup3\n        /* \"#utility.yul\":8264:8276   */\n      add\n        /* \"#utility.yul\":8257:8276   */\n      swap1\n      pop\n        /* \"#utility.yul\":7916:8282   */\n      swap2\n      swap1\n      pop\n      jump\t// out\n        /* \"#utility.yul\":8288:8707   */\n    tag_119:\n        /* \"#utility.yul\":8454:8458   */\n      0x00\n        /* \"#utility.yul\":8492:8494   */\n      0x20\n        /* \"#utility.yul\":8481:8490   */\n      dup3\n        /* \"#utility.yul\":8477:8495   */\n      add\n        /* \"#utility.yul\":8469:8495   */\n      swap1\n      pop\n        /* \"#utility.yul\":8541:8550   */\n      dup2\n        /* \"#utility.yul\":8535:8539   */\n      dup2\n        /* \"#utility.yul\":8531:8551   */\n      sub\n        /* \"#utility.yul\":8527:8528   */\n      0x00\n        /* \"#utility.yul\":8516:8525   */\n      dup4\n        /* \"#utility.yul\":8512:8529   */\n      add\n        /* \"#utility.yul\":8505:8552   */\n      mstore\n        /* \"#utility.yul\":8569:8700   */\n      tag_382\n        /* \"#utility.yul\":8695:8699   */\n      dup2\n        /* \"#utility.yul\":8569:8700   */\n      tag_266\n      jump\t// in\n    tag_382:\n        /* \"#utility.yul\":8561:8700   */\n      swap1\n      pop\n        /* \"#utility.yul\":8288:8707   */\n      swap2\n      swap1\n      pop\n      jump\t// out\n        /* \"#utility.yul\":8713:8893   */\n    tag_267:\n        /* \"#utility.yul\":8761:8838   */\n      0x4e487b7100000000000000000000000000000000000000000000000000000000\n        /* \"#utility.yul\":8758:8759   */\n      0x00\n        /* \"#utility.yul\":8751:8839   */\n      mstore\n        /* \"#utility.yul\":8858:8862   */\n      0x11\n        /* \"#utility.yul\":8855:8856   */\n      0x04\n        /* \"#utility.yul\":8848:8863   */\n      mstore\n        /* \"#utility.yul\":8882:8886   */\n      0x24\n        /* \"#utility.yul\":8879:8880   */\n      0x00\n        /* \"#utility.yul\":8872:8887   */\n      revert\n        /* \"#utility.yul\":8899:9093   */\n    tag_121:\n        /* \"#utility.yul\":8939:8943   */\n      0x00\n        /* \"#utility.yul\":8959:8979   */\n      tag_385\n        /* \"#utility.yul\":8977:8978   */\n      dup3\n        /* \"#utility.yul\":8959:8979   */\n      tag_253\n      jump\t// in\n    tag_385:\n        /* \"#utility.yul\":8954:8979   */\n      swap2\n      pop\n        /* \"#utility.yul\":8993:9013   */\n      tag_386\n        /* \"#utility.yul\":9011:9012   */\n      dup4\n        /* \"#utility.yul\":8993:9013   */\n      tag_253\n      jump\t// in\n    tag_386:\n        /* \"#utility.yul\":8988:9013   */\n      swap3\n      pop\n        /* \"#utility.yul\":9037:9038   */\n      dup3\n        /* \"#utility.yul\":9034:9035   */\n      dup3\n        /* \"#utility.yul\":9030:9039   */\n      sub\n        /* \"#utility.yul\":9022:9039   */\n      swap1\n      pop\n        /* \"#utility.yul\":9061:9062   */\n      dup2\n        /* \"#utility.yul\":9055:9059   */\n      dup2\n        /* \"#utility.yul\":9052:9063   */\n      gt\n        /* \"#utility.yul\":9049:9086   */\n      iszero\n      tag_387\n      jumpi\n        /* \"#utility.yul\":9066:9084   */\n      tag_388\n      tag_267\n      jump\t// in\n    tag_388:\n        /* \"#utility.yul\":9049:9086   */\n    tag_387:\n        /* \"#utility.yul\":8899:9093   */\n      swap3\n      swap2\n      pop\n      pop\n      jump\t// out\n        /* \"#utility.yul\":9099:9267   */\n    tag_268:\n        /* \"#utility.yul\":9239:9259   */\n      0x4e6f7420636f6e7472616374204f776e65720000000000000000000000000000\n        /* \"#utility.yul\":9235:9236   */\n      0x00\n        /* \"#utility.yul\":9227:9233   */\n      dup3\n        /* \"#utility.yul\":9223:9237   */\n      add\n        /* \"#utility.yul\":9216:9260   */\n      mstore\n        /* \"#utility.yul\":9099:9267   */\n      pop\n      jump\t// out\n        /* \"#utility.yul\":9273:9639   */\n    tag_269:\n        /* \"#utility.yul\":9415:9418   */\n      0x00\n        /* \"#utility.yul\":9436:9503   */\n      tag_391\n        /* \"#utility.yul\":9500:9502   */\n      0x12\n        /* \"#utility.yul\":9495:9498   */\n      dup4\n        /* \"#utility.yul\":9436:9503   */\n      tag_242\n      jump\t// in\n    tag_391:\n        /* \"#utility.yul\":9429:9503   */\n      swap2\n      pop\n        /* \"#utility.yul\":9512:9605   */\n      tag_392\n        /* \"#utility.yul\":9601:9604   */\n      dup3\n        /* \"#utility.yul\":9512:9605   */\n      tag_268\n      jump\t// in\n    tag_392:\n        /* \"#utility.yul\":9630:9632   */\n      0x20\n        /* \"#utility.yul\":9625:9628   */\n      dup3\n        /* \"#utility.yul\":9621:9633   */\n      add\n        /* \"#utility.yul\":9614:9633   */\n      swap1\n      pop\n        /* \"#utility.yul\":9273:9639   */\n      swap2\n      swap1\n      pop\n      jump\t// out\n        /* \"#utility.yul\":9645:10064   */\n    tag_128:\n        /* \"#utility.yul\":9811:9815   */\n      0x00\n        /* \"#utility.yul\":9849:9851   */\n      0x20\n        /* \"#utility.yul\":9838:9847   */\n      dup3\n        /* \"#utility.yul\":9834:9852   */\n      add\n        /* \"#utility.yul\":9826:9852   */\n      swap1\n      pop\n        /* \"#utility.yul\":9898:9907   */\n      dup2\n        /* \"#utility.yul\":9892:9896   */\n      dup2\n        /* \"#utility.yul\":9888:9908   */\n      sub\n        /* \"#utility.yul\":9884:9885   */\n      0x00\n        /* \"#utility.yul\":9873:9882   */\n      dup4\n        /* \"#utility.yul\":9869:9886   */\n      add\n        /* \"#utility.yul\":9862:9909   */\n      mstore\n        /* \"#utility.yul\":9926:10057   */\n      tag_394\n        /* \"#utility.yul\":10052:10056   */\n      dup2\n        /* \"#utility.yul\":9926:10057   */\n      tag_269\n      jump\t// in\n    tag_394:\n        /* \"#utility.yul\":9918:10057   */\n      swap1\n      pop\n        /* \"#utility.yul\":9645:10064   */\n      swap2\n      swap1\n      pop\n      jump\t// out\n        /* \"#utility.yul\":10070:10172   */\n    tag_270:\n        /* \"#utility.yul\":10112:10120   */\n      0x00\n        /* \"#utility.yul\":10159:10164   */\n      dup2\n        /* \"#utility.yul\":10156:10157   */\n      0x01\n        /* \"#utility.yul\":10152:10165   */\n      shr\n        /* \"#utility.yul\":10131:10165   */\n      swap1\n      pop\n        /* \"#utility.yul\":10070:10172   */\n      swap2\n      swap1\n      pop\n      jump\t// out\n        /* \"#utility.yul\":10178:11026   */\n    tag_271:\n        /* \"#utility.yul\":10239:10244   */\n      0x00\n        /* \"#utility.yul\":10246:10250   */\n      0x00\n        /* \"#utility.yul\":10270:10276   */\n      dup3\n        /* \"#utility.yul\":10261:10276   */\n      swap2\n      pop\n        /* \"#utility.yul\":10294:10299   */\n      dup4\n        /* \"#utility.yul\":10285:10299   */\n      swap1\n      pop\n        /* \"#utility.yul\":10308:11020   */\n    tag_397:\n        /* \"#utility.yul\":10329:10330   */\n      0x01\n        /* \"#utility.yul\":10319:10327   */\n      dup6\n        /* \"#utility.yul\":10316:10331   */\n      gt\n        /* \"#utility.yul\":10308:11020   */\n      iszero\n      tag_399\n      jumpi\n        /* \"#utility.yul\":10424:10428   */\n      dup1\n        /* \"#utility.yul\":10419:10422   */\n      dup7\n        /* \"#utility.yul\":10415:10429   */\n      div\n        /* \"#utility.yul\":10409:10413   */\n      dup2\n        /* \"#utility.yul\":10406:10430   */\n      gt\n        /* \"#utility.yul\":10403:10453   */\n      iszero\n      tag_400\n      jumpi\n        /* \"#utility.yul\":10433:10451   */\n      tag_401\n      tag_267\n      jump\t// in\n    tag_401:\n        /* \"#utility.yul\":10403:10453   */\n    tag_400:\n        /* \"#utility.yul\":10483:10484   */\n      0x01\n        /* \"#utility.yul\":10473:10481   */\n      dup6\n        /* \"#utility.yul\":10469:10485   */\n      and\n        /* \"#utility.yul\":10466:10917   */\n      iszero\n      tag_402\n      jumpi\n        /* \"#utility.yul\":10898:10902   */\n      dup1\n        /* \"#utility.yul\":10891:10896   */\n      dup3\n        /* \"#utility.yul\":10887:10903   */\n      mul\n        /* \"#utility.yul\":10878:10903   */\n      swap2\n      pop\n        /* \"#utility.yul\":10466:10917   */\n    tag_402:\n        /* \"#utility.yul\":10948:10952   */\n      dup1\n        /* \"#utility.yul\":10942:10946   */\n      dup2\n        /* \"#utility.yul\":10938:10953   */\n      mul\n        /* \"#utility.yul\":10930:10953   */\n      swap1\n      pop\n        /* \"#utility.yul\":10978:11010   */\n      tag_403\n        /* \"#utility.yul\":11001:11009   */\n      dup6\n        /* \"#utility.yul\":10978:11010   */\n      tag_270\n      jump\t// in\n    tag_403:\n        /* \"#utility.yul\":10966:11010   */\n      swap5\n      pop\n        /* \"#utility.yul\":10308:11020   */\n      jump(tag_397)\n    tag_399:\n        /* \"#utility.yul\":10178:11026   */\n      swap5\n      pop\n      swap5\n      swap3\n      pop\n      pop\n      pop\n      jump\t// out\n        /* \"#utility.yul\":11032:12105   */\n    tag_272:\n        /* \"#utility.yul\":11086:11091   */\n      0x00\n        /* \"#utility.yul\":11277:11285   */\n      dup3\n        /* \"#utility.yul\":11267:11307   */\n      tag_405\n      jumpi\n        /* \"#utility.yul\":11298:11299   */\n      0x01\n        /* \"#utility.yul\":11289:11299   */\n      swap1\n      pop\n        /* \"#utility.yul\":11300:11305   */\n      jump(tag_404)\n        /* \"#utility.yul\":11267:11307   */\n    tag_405:\n        /* \"#utility.yul\":11326:11330   */\n      dup2\n        /* \"#utility.yul\":11316:11352   */\n      tag_406\n      jumpi\n        /* \"#utility.yul\":11343:11344   */\n      0x00\n        /* \"#utility.yul\":11334:11344   */\n      swap1\n      pop\n        /* \"#utility.yul\":11345:11350   */\n      jump(tag_404)\n        /* \"#utility.yul\":11316:11352   */\n    tag_406:\n        /* \"#utility.yul\":11412:11416   */\n      dup2\n        /* \"#utility.yul\":11460:11461   */\n      0x01\n        /* \"#utility.yul\":11455:11482   */\n      dup2\n      eq\n      tag_408\n      jumpi\n        /* \"#utility.yul\":11496:11497   */\n      0x02\n        /* \"#utility.yul\":11491:11682   */\n      dup2\n      eq\n      tag_409\n      jumpi\n        /* \"#utility.yul\":11405:11682   */\n      jump(tag_407)\n        /* \"#utility.yul\":11455:11482   */\n    tag_408:\n        /* \"#utility.yul\":11473:11474   */\n      0x01\n        /* \"#utility.yul\":11464:11474   */\n      swap2\n      pop\n        /* \"#utility.yul\":11475:11480   */\n      pop\n      jump(tag_404)\n        /* \"#utility.yul\":11491:11682   */\n    tag_409:\n        /* \"#utility.yul\":11536:11539   */\n      0xff\n        /* \"#utility.yul\":11526:11534   */\n      dup5\n        /* \"#utility.yul\":11523:11540   */\n      gt\n        /* \"#utility.yul\":11520:11563   */\n      iszero\n      tag_410\n      jumpi\n        /* \"#utility.yul\":11543:11561   */\n      tag_411\n      tag_267\n      jump\t// in\n    tag_411:\n        /* \"#utility.yul\":11520:11563   */\n    tag_410:\n        /* \"#utility.yul\":11592:11600   */\n      dup4\n        /* \"#utility.yul\":11589:11590   */\n      0x02\n        /* \"#utility.yul\":11585:11601   */\n      exp\n        /* \"#utility.yul\":11576:11601   */\n      swap2\n      pop\n        /* \"#utility.yul\":11627:11630   */\n      dup5\n        /* \"#utility.yul\":11620:11625   */\n      dup3\n        /* \"#utility.yul\":11617:11631   */\n      gt\n        /* \"#utility.yul\":11614:11654   */\n      iszero\n      tag_412\n      jumpi\n        /* \"#utility.yul\":11634:11652   */\n      tag_413\n      tag_267\n      jump\t// in\n    tag_413:\n        /* \"#utility.yul\":11614:11654   */\n    tag_412:\n        /* \"#utility.yul\":11667:11672   */\n      pop\n      jump(tag_404)\n        /* \"#utility.yul\":11405:11682   */\n    tag_407:\n      pop\n        /* \"#utility.yul\":11791:11793   */\n      0x20\n        /* \"#utility.yul\":11781:11789   */\n      dup4\n        /* \"#utility.yul\":11778:11794   */\n      lt\n        /* \"#utility.yul\":11772:11775   */\n      0x0133\n        /* \"#utility.yul\":11766:11770   */\n      dup4\n        /* \"#utility.yul\":11763:11776   */\n      lt\n        /* \"#utility.yul\":11759:11795   */\n      and\n        /* \"#utility.yul\":11741:11743   */\n      0x4e\n        /* \"#utility.yul\":11731:11739   */\n      dup5\n        /* \"#utility.yul\":11728:11744   */\n      lt\n        /* \"#utility.yul\":11723:11725   */\n      0x0b\n        /* \"#utility.yul\":11717:11721   */\n      dup5\n        /* \"#utility.yul\":11714:11726   */\n      lt\n        /* \"#utility.yul\":11710:11745   */\n      and\n        /* \"#utility.yul\":11694:11805   */\n      or\n        /* \"#utility.yul\":11691:11937   */\n      iszero\n      tag_414\n      jumpi\n        /* \"#utility.yul\":11847:11855   */\n      dup3\n        /* \"#utility.yul\":11841:11845   */\n      dup3\n        /* \"#utility.yul\":11837:11856   */\n      exp\n        /* \"#utility.yul\":11828:11856   */\n      swap1\n      pop\n        /* \"#utility.yul\":11882:11885   */\n      dup4\n        /* \"#utility.yul\":11875:11880   */\n      dup2\n        /* \"#utility.yul\":11872:11886   */\n      gt\n        /* \"#utility.yul\":11869:11909   */\n      iszero\n      tag_415\n      jumpi\n        /* \"#utility.yul\":11889:11907   */\n      tag_416\n      tag_267\n      jump\t// in\n    tag_416:\n        /* \"#utility.yul\":11869:11909   */\n    tag_415:\n        /* \"#utility.yul\":11922:11927   */\n      jump(tag_404)\n        /* \"#utility.yul\":11691:11937   */\n    tag_414:\n        /* \"#utility.yul\":11962:12004   */\n      tag_417\n        /* \"#utility.yul\":12000:12003   */\n      dup5\n        /* \"#utility.yul\":11990:11998   */\n      dup5\n        /* \"#utility.yul\":11984:11988   */\n      dup5\n        /* \"#utility.yul\":11981:11982   */\n      0x01\n        /* \"#utility.yul\":11962:12004   */\n      tag_271\n      jump\t// in\n    tag_417:\n        /* \"#utility.yul\":11947:12004   */\n      swap3\n      pop\n      swap1\n      pop\n        /* \"#utility.yul\":12036:12040   */\n      dup2\n        /* \"#utility.yul\":12031:12034   */\n      dup5\n        /* \"#utility.yul\":12027:12041   */\n      div\n        /* \"#utility.yul\":12020:12025   */\n      dup2\n        /* \"#utility.yul\":12017:12042   */\n      gt\n        /* \"#utility.yul\":12014:12065   */\n      iszero\n      tag_418\n      jumpi\n        /* \"#utility.yul\":12045:12063   */\n      tag_419\n      tag_267\n      jump\t// in\n    tag_419:\n        /* \"#utility.yul\":12014:12065   */\n    tag_418:\n        /* \"#utility.yul\":12094:12098   */\n      dup2\n        /* \"#utility.yul\":12087:12092   */\n      dup2\n        /* \"#utility.yul\":12083:12099   */\n      mul\n        /* \"#utility.yul\":12074:12099   */\n      swap1\n      pop\n        /* \"#utility.yul\":11032:12105   */\n    tag_404:\n      swap4\n      swap3\n      pop\n      pop\n      pop\n      jump\t// out\n        /* \"#utility.yul\":12111:12396   */\n    tag_138:\n        /* \"#utility.yul\":12171:12176   */\n      0x00\n        /* \"#utility.yul\":12195:12218   */\n      tag_421\n        /* \"#utility.yul\":12213:12217   */\n      dup3\n        /* \"#utility.yul\":12195:12218   */\n      tag_253\n      jump\t// in\n    tag_421:\n        /* \"#utility.yul\":12187:12218   */\n      swap2\n      pop\n        /* \"#utility.yul\":12239:12266   */\n      tag_422\n        /* \"#utility.yul\":12257:12265   */\n      dup4\n        /* \"#utility.yul\":12239:12266   */\n      tag_253\n      jump\t// in\n    tag_422:\n        /* \"#utility.yul\":12227:12266   */\n      swap3\n      pop\n        /* \"#utility.yul\":12285:12389   */\n      tag_423\n        /* \"#utility.yul\":12322:12388   */\n      0xffffffffffffffffffffffffffffffffffffffffffffffffffffffffffffffff\n        /* \"#utility.yul\":12312:12320   */\n      dup5\n        /* \"#utility.yul\":12306:12310   */\n      dup5\n        /* \"#utility.yul\":12285:12389   */\n      tag_272\n      jump\t// in\n    tag_423:\n        /* \"#utility.yul\":12276:12389   */\n      swap1\n      pop\n        /* \"#utility.yul\":12111:12396   */\n      swap3\n      swap2\n      pop\n      pop\n      jump\t// out\n        /* \"#utility.yul\":12402:12812   */\n    tag_140:\n        /* \"#utility.yul\":12442:12449   */\n      0x00\n        /* \"#utility.yul\":12465:12485   */\n      tag_425\n        /* \"#utility.yul\":12483:12484   */\n      dup3\n        /* \"#utility.yul\":12465:12485   */\n      tag_253\n      jump\t// in\n    tag_425:\n        /* \"#utility.yul\":12460:12485   */\n      swap2\n      pop\n        /* \"#utility.yul\":12499:12519   */\n      tag_426\n        /* \"#utility.yul\":12517:12518   */\n      dup4\n        /* \"#utility.yul\":12499:12519   */\n      tag_253\n      jump\t// in\n    tag_426:\n        /* \"#utility.yul\":12494:12519   */\n      swap3\n      pop\n        /* \"#utility.yul\":12554:12555   */\n      dup3\n        /* \"#utility.yul\":12551:12552   */\n      dup3\n        /* \"#utility.yul\":12547:12556   */\n      mul\n        /* \"#utility.yul\":12576:12606   */\n      tag_427\n        /* \"#utility.yul\":12594:12605   */\n      dup2\n        /* \"#utility.yul\":12576:12606   */\n      tag_253\n      jump\t// in\n    tag_427:\n        /* \"#utility.yul\":12565:12606   */\n      swap2\n      pop\n        /* \"#utility.yul\":12755:12756   */\n      dup3\n        /* \"#utility.yul\":12746:12753   */\n      dup3\n        /* \"#utility.yul\":12742:12757   */\n      div\n        /* \"#utility.yul\":12739:12740   */\n      dup5\n        /* \"#utility.yul\":12736:12758   */\n      eq\n        /* \"#utility.yul\":12716:12717   */\n      dup4\n        /* \"#utility.yul\":12709:12718   */\n      iszero\n        /* \"#utility.yul\":12689:12772   */\n      or\n        /* \"#utility.yul\":12666:12805   */\n      tag_428\n      jumpi\n        /* \"#utility.yul\":12785:12803   */\n      tag_429\n      tag_267\n      jump\t// in\n    tag_429:\n        /* \"#utility.yul\":12666:12805   */\n    tag_428:\n        /* \"#utility.yul\":12450:12812   */\n      pop\n        /* \"#utility.yul\":12402:12812   */\n      swap3\n      swap2\n      pop\n      pop\n      jump\t// out\n        /* \"#utility.yul\":12818:13009   */\n    tag_142:\n        /* \"#utility.yul\":12858:12861   */\n      0x00\n        /* \"#utility.yul\":12877:12897   */\n      tag_431\n        /* \"#utility.yul\":12895:12896   */\n      dup3\n        /* \"#utility.yul\":12877:12897   */\n      tag_253\n      jump\t// in\n    tag_431:\n        /* \"#utility.yul\":12872:12897   */\n      swap2\n      pop\n        /* \"#utility.yul\":12911:12931   */\n      tag_432\n        /* \"#utility.yul\":12929:12930   */\n      dup4\n        /* \"#utility.yul\":12911:12931   */\n      tag_253\n      jump\t// in\n    tag_432:\n        /* \"#utility.yul\":12906:12931   */\n      swap3\n      pop\n        /* \"#utility.yul\":12954:12955   */\n      dup3\n        /* \"#utility.yul\":12951:12952   */\n      dup3\n        /* \"#utility.yul\":12947:12956   */\n      add\n        /* \"#utility.yul\":12940:12956   */\n      swap1\n      pop\n        /* \"#utility.yul\":12975:12978   */\n      dup1\n        /* \"#utility.yul\":12972:12973   */\n      dup3\n        /* \"#utility.yul\":12969:12979   */\n      gt\n        /* \"#utility.yul\":12966:13002   */\n      iszero\n      tag_433\n      jumpi\n        /* \"#utility.yul\":12982:13000   */\n      tag_434\n      tag_267\n      jump\t// in\n    tag_434:\n        /* \"#utility.yul\":12966:13002   */\n    tag_433:\n        /* \"#utility.yul\":12818:13009   */\n      swap3\n      swap2\n      pop\n      pop\n      jump\t// out\n        /* \"#utility.yul\":13015:13176   */\n    tag_273:\n        /* \"#utility.yul\":13155:13168   */\n      0x4578636565647320636170000000000000000000000000000000000000000000\n        /* \"#utility.yul\":13151:13152   */\n      0x00\n        /* \"#utility.yul\":13143:13149   */\n      dup3\n        /* \"#utility.yul\":13139:13153   */\n      add\n        /* \"#utility.yul\":13132:13169   */\n      mstore\n        /* \"#utility.yul\":13015:13176   */\n      pop\n      jump\t// out\n        /* \"#utility.yul\":13182:13548   */\n    tag_274:\n        /* \"#utility.yul\":13324:13327   */\n      0x00\n        /* \"#utility.yul\":13345:13412   */\n      tag_437\n        /* \"#utility.yul\":13409:13411   */\n      0x0b\n        /* \"#utility.yul\":13404:13407   */\n      dup4\n        /* \"#utility.yul\":13345:13412   */\n      tag_242\n      jump\t// in\n    tag_437:\n        /* \"#utility.yul\":13338:13412   */\n      swap2\n      pop\n        /* \"#utility.yul\":13421:13514   */\n      tag_438\n        /* \"#utility.yul\":13510:13513   */\n      dup3\n        /* \"#utility.yul\":13421:13514   */\n      tag_273\n      jump\t// in\n    tag_438:\n        /* \"#utility.yul\":13539:13541   */\n      0x20\n        /* \"#utility.yul\":13534:13537   */\n      dup3\n        /* \"#utility.yul\":13530:13542   */\n      add\n        /* \"#utility.yul\":13523:13542   */\n      swap1\n      pop\n        /* \"#utility.yul\":13182:13548   */\n      swap2\n      swap1\n      pop\n      jump\t// out\n        /* \"#utility.yul\":13554:13973   */\n    tag_145:\n        /* \"#utility.yul\":13720:13724   */\n      0x00\n        /* \"#utility.yul\":13758:13760   */\n      0x20\n        /* \"#utility.yul\":13747:13756   */\n      dup3\n        /* \"#utility.yul\":13743:13761   */\n      add\n        /* \"#utility.yul\":13735:13761   */\n      swap1\n      pop\n        /* \"#utility.yul\":13807:13816   */\n      dup2\n        /* \"#utility.yul\":13801:13805   */\n      dup2\n        /* \"#utility.yul\":13797:13817   */\n      sub\n        /* \"#utility.yul\":13793:13794   */\n      0x00\n        /* \"#utility.yul\":13782:13791   */\n      dup4\n        /* \"#utility.yul\":13778:13795   */\n      add\n        /* \"#utility.yul\":13771:13818   */\n      mstore\n        /* \"#utility.yul\":13835:13966   */\n      tag_440\n        /* \"#utility.yul\":13961:13965   */\n      dup2\n        /* \"#utility.yul\":13835:13966   */\n      tag_274\n      jump\t// in\n    tag_440:\n        /* \"#utility.yul\":13827:13966   */\n      swap1\n      pop\n        /* \"#utility.yul\":13554:13973   */\n      swap2\n      swap1\n      pop\n      jump\t// out\n        /* \"#utility.yul\":13979:14157   */\n    tag_275:\n        /* \"#utility.yul\":14119:14149   */\n      0x496e73756666696369656e742062616c616e636520746f206275726e00000000\n        /* \"#utility.yul\":14115:14116   */\n      0x00\n        /* \"#utility.yul\":14107:14113   */\n      dup3\n        /* \"#utility.yul\":14103:14117   */\n      add\n        /* \"#utility.yul\":14096:14150   */\n      mstore\n        /* \"#utility.yul\":13979:14157   */\n      pop\n      jump\t// out\n        /* \"#utility.yul\":14163:14529   */\n    tag_276:\n        /* \"#utility.yul\":14305:14308   */\n      0x00\n        /* \"#utility.yul\":14326:14393   */\n      tag_443\n        /* \"#utility.yul\":14390:14392   */\n      0x1c\n        /* \"#utility.yul\":14385:14388   */\n      dup4\n        /* \"#utility.yul\":14326:14393   */\n      tag_242\n      jump\t// in\n    tag_443:\n        /* \"#utility.yul\":14319:14393   */\n      swap2\n      pop\n        /* \"#utility.yul\":14402:14495   */\n      tag_444\n        /* \"#utility.yul\":14491:14494   */\n      dup3\n        /* \"#utility.yul\":14402:14495   */\n      tag_275\n      jump\t// in\n    tag_444:\n        /* \"#utility.yul\":14520:14522   */\n      0x20\n        /* \"#utility.yul\":14515:14518   */\n      dup3\n        /* \"#utility.yul\":14511:14523   */\n      add\n        /* \"#utility.yul\":14504:14523   */\n      swap1\n      pop\n        /* \"#utility.yul\":14163:14529   */\n      swap2\n      swap1\n      pop\n      jump\t// out\n        /* \"#utility.yul\":14535:14954   */\n    tag_156:\n        /* \"#utility.yul\":14701:14705   */\n      0x00\n        /* \"#utility.yul\":14739:14741   */\n      0x20\n        /* \"#utility.yul\":14728:14737   */\n      dup3\n        /* \"#utility.yul\":14724:14742   */\n      add\n        /* \"#utility.yul\":14716:14742   */\n      swap1\n      pop\n        /* \"#utility.yul\":14788:14797   */\n      dup2\n        /* \"#utility.yul\":14782:14786   */\n      dup2\n        /* \"#utility.yul\":14778:14798   */\n      sub\n        /* \"#utility.yul\":14774:14775   */\n      0x00\n        /* \"#utility.yul\":14763:14772   */\n      dup4\n        /* \"#utility.yul\":14759:14776   */\n      add\n        /* \"#utility.yul\":14752:14799   */\n      mstore\n        /* \"#utility.yul\":14816:14947   */\n      tag_446\n        /* \"#utility.yul\":14942:14946   */\n      dup2\n        /* \"#utility.yul\":14816:14947   */\n      tag_276\n      jump\t// in\n    tag_446:\n        /* \"#utility.yul\":14808:14947   */\n      swap1\n      pop\n        /* \"#utility.yul\":14535:14954   */\n      swap2\n      swap1\n      pop\n      jump\t// out\n        /* \"#utility.yul\":14960:15132   */\n    tag_277:\n        /* \"#utility.yul\":15100:15124   */\n      0x546f6b656e73206172652074696d652d6c6f636b656400000000000000000000\n        /* \"#utility.yul\":15096:15097   */\n      0x00\n        /* \"#utility.yul\":15088:15094   */\n      dup3\n        /* \"#utility.yul\":15084:15098   */\n      add\n        /* \"#utility.yul\":15077:15125   */\n      mstore\n        /* \"#utility.yul\":14960:15132   */\n      pop\n      jump\t// out\n        /* \"#utility.yul\":15138:15504   */\n    tag_278:\n        /* \"#utility.yul\":15280:15283   */\n      0x00\n        /* \"#utility.yul\":15301:15368   */\n      tag_449\n        /* \"#utility.yul\":15365:15367   */\n      0x16\n        /* \"#utility.yul\":15360:15363   */\n      dup4\n        /* \"#utility.yul\":15301:15368   */\n      tag_242\n      jump\t// in\n    tag_449:\n        /* \"#utility.yul\":15294:15368   */\n      swap2\n      pop\n        /* \"#utility.yul\":15377:15470   */\n      tag_450\n        /* \"#utility.yul\":15466:15469   */\n      dup3\n        /* \"#utility.yul\":15377:15470   */\n      tag_277\n      jump\t// in\n    tag_450:\n        /* \"#utility.yul\":15495:15497   */\n      0x20\n        /* \"#utility.yul\":15490:15493   */\n      dup3\n        /* \"#utility.yul\":15486:15498   */\n      add\n        /* \"#utility.yul\":15479:15498   */\n      swap1\n      pop\n        /* \"#utility.yul\":15138:15504   */\n      swap2\n      swap1\n      pop\n      jump\t// out\n        /* \"#utility.yul\":15510:15929   */\n    tag_177:\n        /* \"#utility.yul\":15676:15680   */\n      0x00\n        /* \"#utility.yul\":15714:15716   */\n      0x20\n        /* \"#utility.yul\":15703:15712   */\n      dup3\n        /* \"#utility.yul\":15699:15717   */\n      add\n        /* \"#utility.yul\":15691:15717   */\n      swap1\n      pop\n        /* \"#utility.yul\":15763:15772   */\n      dup2\n        /* \"#utility.yul\":15757:15761   */\n      dup2\n        /* \"#utility.yul\":15753:15773   */\n      sub\n        /* \"#utility.yul\":15749:15750   */\n      0x00\n        /* \"#utility.yul\":15738:15747   */\n      dup4\n        /* \"#utility.yul\":15734:15751   */\n      add\n        /* \"#utility.yul\":15727:15774   */\n      mstore\n        /* \"#utility.yul\":15791:15922   */\n      tag_452\n        /* \"#utility.yul\":15917:15921   */\n      dup2\n        /* \"#utility.yul\":15791:15922   */\n      tag_278\n      jump\t// in\n    tag_452:\n        /* \"#utility.yul\":15783:15922   */\n      swap1\n      pop\n        /* \"#utility.yul\":15510:15929   */\n      swap2\n      swap1\n      pop\n      jump\t// out\n        /* \"#utility.yul\":15935:16114   */\n    tag_279:\n        /* \"#utility.yul\":16075:16106   */\n      0x556e6c6f636b2074696d65206d75737420626520696e20667574757265000000\n        /* \"#utility.yul\":16071:16072   */\n      0x00\n        /* \"#utility.yul\":16063:16069   */\n      dup3\n        /* \"#utility.yul\":16059:16073   */\n      add\n        /* \"#utility.yul\":16052:16107   */\n      mstore\n        /* \"#utility.yul\":15935:16114   */\n      pop\n      jump\t// out\n        /* \"#utility.yul\":16120:16486   */\n    tag_280:\n        /* \"#utility.yul\":16262:16265   */\n      0x00\n        /* \"#utility.yul\":16283:16350   */\n      tag_455\n        /* \"#utility.yul\":16347:16349   */\n      0x1d\n        /* \"#utility.yul\":16342:16345   */\n      dup4\n        /* \"#utility.yul\":16283:16350   */\n      tag_242\n      jump\t// in\n    tag_455:\n        /* \"#utility.yul\":16276:16350   */\n      swap2\n      pop\n        /* \"#utility.yul\":16359:16452   */\n      tag_456\n        /* \"#utility.yul\":16448:16451   */\n      dup3\n        /* \"#utility.yul\":16359:16452   */\n      tag_279\n      jump\t// in\n    tag_456:\n        /* \"#utility.yul\":16477:16479   */\n      0x20\n        /* \"#utility.yul\":16472:16475   */\n      dup3\n        /* \"#utility.yul\":16468:16480   */\n      add\n        /* \"#utility.yul\":16461:16480   */\n      swap1\n      pop\n        /* \"#utility.yul\":16120:16486   */\n      swap2\n      swap1\n      pop\n      jump\t// out\n        /* \"#utility.yul\":16492:16911   */\n    tag_187:\n        /* \"#utility.yul\":16658:16662   */\n      0x00\n        /* \"#utility.yul\":16696:16698   */\n      0x20\n        /* \"#utility.yul\":16685:16694   */\n      dup3\n        /* \"#utility.yul\":16681:16699   */\n      add\n        /* \"#utility.yul\":16673:16699   */\n      swap1\n      pop\n        /* \"#utility.yul\":16745:16754   */\n      dup2\n        /* \"#utility.yul\":16739:16743   */\n      dup2\n        /* \"#utility.yul\":16735:16755   */\n      sub\n        /* \"#utility.yul\":16731:16732   */\n      0x00\n        /* \"#utility.yul\":16720:16729   */\n      dup4\n        /* \"#utility.yul\":16716:16733   */\n      add\n        /* \"#utility.yul\":16709:16756   */\n      mstore\n        /* \"#utility.yul\":16773:16904   */\n      tag_458\n        /* \"#utility.yul\":16899:16903   */\n      dup2\n        /* \"#utility.yul\":16773:16904   */\n      tag_280\n      jump\t// in\n    tag_458:\n        /* \"#utility.yul\":16765:16904   */\n      swap1\n      pop\n        /* \"#utility.yul\":16492:16911   */\n      swap2\n      swap1\n      pop\n      jump\t// out\n        /* \"#utility.yul\":16917:17085   */\n    tag_281:\n        /* \"#utility.yul\":17057:17077   */\n      0x416c6c6f77616e63652065786365656465640000000000000000000000000000\n        /* \"#utility.yul\":17053:17054   */\n      0x00\n        /* \"#utility.yul\":17045:17051   */\n      dup3\n        /* \"#utility.yul\":17041:17055   */\n      add\n        /* \"#utility.yul\":17034:17078   */\n      mstore\n        /* \"#utility.yul\":16917:17085   */\n      pop\n      jump\t// out\n        /* \"#utility.yul\":17091:17457   */\n    tag_282:\n        /* \"#utility.yul\":17233:17236   */\n      0x00\n        /* \"#utility.yul\":17254:17321   */\n      tag_461\n        /* \"#utility.yul\":17318:17320   */\n      0x12\n        /* \"#utility.yul\":17313:17316   */\n      dup4\n        /* \"#utility.yul\":17254:17321   */\n      tag_242\n      jump\t// in\n    tag_461:\n        /* \"#utility.yul\":17247:17321   */\n      swap2\n      pop\n        /* \"#utility.yul\":17330:17423   */\n      tag_462\n        /* \"#utility.yul\":17419:17422   */\n      dup3\n        /* \"#utility.yul\":17330:17423   */\n      tag_281\n      jump\t// in\n    tag_462:\n        /* \"#utility.yul\":17448:17450   */\n      0x20\n        /* \"#utility.yul\":17443:17446   */\n      dup3\n        /* \"#utility.yul\":17439:17451   */\n      add\n        /* \"#utility.yul\":17432:17451   */\n      swap1\n      pop\n        /* \"#utility.yul\":17091:17457   */\n      swap2\n      swap1\n      pop\n      jump\t// out\n        /* \"#utility.yul\":17463:17882   */\n    tag_195:\n        /* \"#utility.yul\":17629:17633   */\n      0x00\n        /* \"#utility.yul\":17667:17669   */\n      0x20\n        /* \"#utility.yul\":17656:17665   */\n      dup3\n        /* \"#utility.yul\":17652:17670   */\n      add\n        /* \"#utility.yul\":17644:17670   */\n      swap1\n      pop\n        /* \"#utility.yul\":17716:17725   */\n      dup2\n        /* \"#utility.yul\":17710:17714   */\n      dup2\n        /* \"#utility.yul\":17706:17726   */\n      sub\n        /* \"#utility.yul\":17702:17703   */\n      0x00\n        /* \"#utility.yul\":17691:17700   */\n      dup4\n        /* \"#utility.yul\":17687:17704   */\n      add\n        /* \"#utility.yul\":17680:17727   */\n      mstore\n        /* \"#utility.yul\":17744:17875   */\n      tag_464\n        /* \"#utility.yul\":17870:17874   */\n      dup2\n        /* \"#utility.yul\":17744:17875   */\n      tag_282\n      jump\t// in\n    tag_464:\n        /* \"#utility.yul\":17736:17875   */\n      swap1\n      pop\n        /* \"#utility.yul\":17463:17882   */\n      swap2\n      swap1\n      pop\n      jump\t// out\n        /* \"#utility.yul\":17888:18061   */\n    tag_283:\n        /* \"#utility.yul\":18028:18053   */\n      0x45524332303a20617070726f76652066726f6d20307830000000000000000000\n        /* \"#utility.yul\":18024:18025   */\n      0x00\n        /* \"#utility.yul\":18016:18022   */\n      dup3\n        /* \"#utility.yul\":18012:18026   */\n      add\n        /* \"#utility.yul\":18005:18054   */\n      mstore\n        /* \"#utility.yul\":17888:18061   */\n      pop\n      jump\t// out\n        /* \"#utility.yul\":18067:18433   */\n    tag_284:\n        /* \"#utility.yul\":18209:18212   */\n      0x00\n        /* \"#utility.yul\":18230:18297   */\n      tag_467\n        /* \"#utility.yul\":18294:18296   */\n      0x17\n        /* \"#utility.yul\":18289:18292   */\n      dup4\n        /* \"#utility.yul\":18230:18297   */\n      tag_242\n      jump\t// in\n    tag_467:\n        /* \"#utility.yul\":18223:18297   */\n      swap2\n      pop\n        /* \"#utility.yul\":18306:18399   */\n      tag_468\n        /* \"#utility.yul\":18395:18398   */\n      dup3\n        /* \"#utility.yul\":18306:18399   */\n      tag_283\n      jump\t// in\n    tag_468:\n        /* \"#utility.yul\":18424:18426   */\n      0x20\n        /* \"#utility.yul\":18419:18422   */\n      dup3\n        /* \"#utility.yul\":18415:18427   */\n      add\n        /* \"#utility.yul\":18408:18427   */\n      swap1\n      pop\n        /* \"#utility.yul\":18067:18433   */\n      swap2\n      swap1\n      pop\n      jump\t// out\n        /* \"#utility.yul\":18439:18858   */\n    tag_206:\n        /* \"#utility.yul\":18605:18609   */\n      0x00\n        /* \"#utility.yul\":18643:18645   */\n      0x20\n        /* \"#utility.yul\":18632:18641   */\n      dup3\n        /* \"#utility.yul\":18628:18646   */\n      add\n        /* \"#utility.yul\":18620:18646   */\n      swap1\n      pop\n        /* \"#utility.yul\":18692:18701   */\n      dup2\n        /* \"#utility.yul\":18686:18690   */\n      dup2\n        /* \"#utility.yul\":18682:18702   */\n      sub\n        /* \"#utility.yul\":18678:18679   */\n      0x00\n        /* \"#utility.yul\":18667:18676   */\n      dup4\n        /* \"#utility.yul\":18663:18680   */\n      add\n        /* \"#utility.yul\":18656:18703   */\n      mstore\n        /* \"#utility.yul\":18720:18851   */\n      tag_470\n        /* \"#utility.yul\":18846:18850   */\n      dup2\n        /* \"#utility.yul\":18720:18851   */\n      tag_284\n      jump\t// in\n    tag_470:\n        /* \"#utility.yul\":18712:18851   */\n      swap1\n      pop\n        /* \"#utility.yul\":18439:18858   */\n      swap2\n      swap1\n      pop\n      jump\t// out\n        /* \"#utility.yul\":18864:19035   */\n    tag_285:\n        /* \"#utility.yul\":19004:19027   */\n      0x45524332303a20617070726f766520746f203078300000000000000000000000\n        /* \"#utility.yul\":19000:19001   */\n      0x00\n        /* \"#utility.yul\":18992:18998   */\n      dup3\n        /* \"#utility.yul\":18988:19002   */\n      add\n        /* \"#utility.yul\":18981:19028   */\n      mstore\n        /* \"#utility.yul\":18864:19035   */\n      pop\n      jump\t// out\n        /* \"#utility.yul\":19041:19407   */\n    tag_286:\n        /* \"#utility.yul\":19183:19186   */\n      0x00\n        /* \"#utility.yul\":19204:19271   */\n      tag_473\n        /* \"#utility.yul\":19268:19270   */\n      0x15\n        /* \"#utility.yul\":19263:19266   */\n      dup4\n        /* \"#utility.yul\":19204:19271   */\n      tag_242\n      jump\t// in\n    tag_473:\n        /* \"#utility.yul\":19197:19271   */\n      swap2\n      pop\n        /* \"#utility.yul\":19280:19373   */\n      tag_474\n        /* \"#utility.yul\":19369:19372   */\n      dup3\n        /* \"#utility.yul\":19280:19373   */\n      tag_285\n      jump\t// in\n    tag_474:\n        /* \"#utility.yul\":19398:19400   */\n      0x20\n        /* \"#utility.yul\":19393:19396   */\n      dup3\n        /* \"#utility.yul\":19389:19401   */\n      add\n        /* \"#utility.yul\":19382:19401   */\n      swap1\n      pop\n        /* \"#utility.yul\":19041:19407   */\n      swap2\n      swap1\n      pop\n      jump\t// out\n        /* \"#utility.yul\":19413:19832   */\n    tag_209:\n        /* \"#utility.yul\":19579:19583   */\n      0x00\n        /* \"#utility.yul\":19617:19619   */\n      0x20\n        /* \"#utility.yul\":19606:19615   */\n      dup3\n        /* \"#utility.yul\":19602:19620   */\n      add\n        /* \"#utility.yul\":19594:19620   */\n      swap1\n      pop\n        /* \"#utility.yul\":19666:19675   */\n      dup2\n        /* \"#utility.yul\":19660:19664   */\n      dup2\n        /* \"#utility.yul\":19656:19676   */\n      sub\n        /* \"#utility.yul\":19652:19653   */\n      0x00\n        /* \"#utility.yul\":19641:19650   */\n      dup4\n        /* \"#utility.yul\":19637:19654   */\n      add\n        /* \"#utility.yul\":19630:19677   */\n      mstore\n        /* \"#utility.yul\":19694:19825   */\n      tag_476\n        /* \"#utility.yul\":19820:19824   */\n      dup2\n        /* \"#utility.yul\":19694:19825   */\n      tag_286\n      jump\t// in\n    tag_476:\n        /* \"#utility.yul\":19686:19825   */\n      swap1\n      pop\n        /* \"#utility.yul\":19413:19832   */\n      swap2\n      swap1\n      pop\n      jump\t// out\n        /* \"#utility.yul\":19838:20012   */\n    tag_287:\n        /* \"#utility.yul\":19978:20004   */\n      0x45524332303a207472616e736665722066726f6d203078300000000000000000\n        /* \"#utility.yul\":19974:19975   */\n      0x00\n        /* \"#utility.yul\":19966:19972   */\n      dup3\n        /* \"#utility.yul\":19962:19976   */\n      add\n        /* \"#utility.yul\":19955:20005   */\n      mstore\n        /* \"#utility.yul\":19838:20012   */\n      pop\n      jump\t// out\n        /* \"#utility.yul\":20018:20384   */\n    tag_288:\n        /* \"#utility.yul\":20160:20163   */\n      0x00\n        /* \"#utility.yul\":20181:20248   */\n      tag_479\n        /* \"#utility.yul\":20245:20247   */\n      0x18\n        /* \"#utility.yul\":20240:20243   */\n      dup4\n        /* \"#utility.yul\":20181:20248   */\n      tag_242\n      jump\t// in\n    tag_479:\n        /* \"#utility.yul\":20174:20248   */\n      swap2\n      pop\n        /* \"#utility.yul\":20257:20350   */\n      tag_480\n        /* \"#utility.yul\":20346:20349   */\n      dup3\n        /* \"#utility.yul\":20257:20350   */\n      tag_287\n      jump\t// in\n    tag_480:\n        /* \"#utility.yul\":20375:20377   */\n      0x20\n        /* \"#utility.yul\":20370:20373   */\n      dup3\n        /* \"#utility.yul\":20366:20378   */\n      add\n        /* \"#utility.yul\":20359:20378   */\n      swap1\n      pop\n        /* \"#utility.yul\":20018:20384   */\n      swap2\n      swap1\n      pop\n      jump\t// out\n        /* \"#utility.yul\":20390:20809   */\n    tag_214:\n        /* \"#utility.yul\":20556:20560   */\n      0x00\n        /* \"#utility.yul\":20594:20596   */\n      0x20\n        /* \"#utility.yul\":20583:20592   */\n      dup3\n        /* \"#utility.yul\":20579:20597   */\n      add\n        /* \"#utility.yul\":20571:20597   */\n      swap1\n      pop\n        /* \"#utility.yul\":20643:20652   */\n      dup2\n        /* \"#utility.yul\":20637:20641   */\n      dup2\n        /* \"#utility.yul\":20633:20653   */\n      sub\n        /* \"#utility.yul\":20629:20630   */\n      0x00\n        /* \"#utility.yul\":20618:20627   */\n      dup4\n        /* \"#utility.yul\":20614:20631   */\n      add\n        /* \"#utility.yul\":20607:20654   */\n      mstore\n        /* \"#utility.yul\":20671:20802   */\n      tag_482\n        /* \"#utility.yul\":20797:20801   */\n      dup2\n        /* \"#utility.yul\":20671:20802   */\n      tag_288\n      jump\t// in\n    tag_482:\n        /* \"#utility.yul\":20663:20802   */\n      swap1\n      pop\n        /* \"#utility.yul\":20390:20809   */\n      swap2\n      swap1\n      pop\n      jump\t// out\n        /* \"#utility.yul\":20815:20987   */\n    tag_289:\n        /* \"#utility.yul\":20955:20979   */\n      0x45524332303a207472616e7366657220746f2030783000000000000000000000\n        /* \"#utility.yul\":20951:20952   */\n      0x00\n        /* \"#utility.yul\":20943:20949   */\n      dup3\n        /* \"#utility.yul\":20939:20953   */\n      add\n        /* \"#utility.yul\":20932:20980   */\n      mstore\n        /* \"#utility.yul\":20815:20987   */\n      pop\n      jump\t// out\n        /* \"#utility.yul\":20993:21359   */\n    tag_290:\n        /* \"#utility.yul\":21135:21138   */\n      0x00\n        /* \"#utility.yul\":21156:21223   */\n      tag_485\n        /* \"#utility.yul\":21220:21222   */\n      0x16\n        /* \"#utility.yul\":21215:21218   */\n      dup4\n        /* \"#utility.yul\":21156:21223   */\n      tag_242\n      jump\t// in\n    tag_485:\n        /* \"#utility.yul\":21149:21223   */\n      swap2\n      pop\n        /* \"#utility.yul\":21232:21325   */\n      tag_486\n        /* \"#utility.yul\":21321:21324   */\n      dup3\n        /* \"#utility.yul\":21232:21325   */\n      tag_289\n      jump\t// in\n    tag_486:\n        /* \"#utility.yul\":21350:21352   */\n      0x20\n        /* \"#utility.yul\":21345:21348   */\n      dup3\n        /* \"#utility.yul\":21341:21353   */\n      add\n        /* \"#utility.yul\":21334:21353   */\n      swap1\n      pop\n        /* \"#utility.yul\":20993:21359   */\n      swap2\n      swap1\n      pop\n      jump\t// out\n        /* \"#utility.yul\":21365:21784   */\n    tag_217:\n        /* \"#utility.yul\":21531:21535   */\n      0x00\n        /* \"#utility.yul\":21569:21571   */\n      0x20\n        /* \"#utility.yul\":21558:21567   */\n      dup3\n        /* \"#utility.yul\":21554:21572   */\n      add\n        /* \"#utility.yul\":21546:21572   */\n      swap1\n      pop\n        /* \"#utility.yul\":21618:21627   */\n      dup2\n        /* \"#utility.yul\":21612:21616   */\n      dup2\n        /* \"#utility.yul\":21608:21628   */\n      sub\n        /* \"#utility.yul\":21604:21605   */\n      0x00\n        /* \"#utility.yul\":21593:21602   */\n      dup4\n        /* \"#utility.yul\":21589:21606   */\n      add\n        /* \"#utility.yul\":21582:21629   */\n      mstore\n        /* \"#utility.yul\":21646:21777   */\n      tag_488\n        /* \"#utility.yul\":21772:21776   */\n      dup2\n        /* \"#utility.yul\":21646:21777   */\n      tag_290\n      jump\t// in\n    tag_488:\n        /* \"#utility.yul\":21638:21777   */\n      swap1\n      pop\n        /* \"#utility.yul\":21365:21784   */\n      swap2\n      swap1\n      pop\n      jump\t// out\n        /* \"#utility.yul\":21790:21967   */\n    tag_291:\n        /* \"#utility.yul\":21930:21959   */\n      0x45524332303a20696e73756666696369656e742062616c616e63650000000000\n        /* \"#utility.yul\":21926:21927   */\n      0x00\n        /* \"#utility.yul\":21918:21924   */\n      dup3\n        /* \"#utility.yul\":21914:21928   */\n      add\n        /* \"#utility.yul\":21907:21960   */\n      mstore\n        /* \"#utility.yul\":21790:21967   */\n      pop\n      jump\t// out\n        /* \"#utility.yul\":21973:22339   */\n    tag_292:\n        /* \"#utility.yul\":22115:22118   */\n      0x00\n        /* \"#utility.yul\":22136:22203   */\n      tag_491\n        /* \"#utility.yul\":22200:22202   */\n      0x1b\n        /* \"#utility.yul\":22195:22198   */\n      dup4\n        /* \"#utility.yul\":22136:22203   */\n      tag_242\n      jump\t// in\n    tag_491:\n        /* \"#utility.yul\":22129:22203   */\n      swap2\n      pop\n        /* \"#utility.yul\":22212:22305   */\n      tag_492\n        /* \"#utility.yul\":22301:22304   */\n      dup3\n        /* \"#utility.yul\":22212:22305   */\n      tag_291\n      jump\t// in\n    tag_492:\n        /* \"#utility.yul\":22330:22332   */\n      0x20\n        /* \"#utility.yul\":22325:22328   */\n      dup3\n        /* \"#utility.yul\":22321:22333   */\n      add\n        /* \"#utility.yul\":22314:22333   */\n      swap1\n      pop\n        /* \"#utility.yul\":21973:22339   */\n      swap2\n      swap1\n      pop\n      jump\t// out\n        /* \"#utility.yul\":22345:22764   */\n    tag_220:\n        /* \"#utility.yul\":22511:22515   */\n      0x00\n        /* \"#utility.yul\":22549:22551   */\n      0x20\n        /* \"#utility.yul\":22538:22547   */\n      dup3\n        /* \"#utility.yul\":22534:22552   */\n      add\n        /* \"#utility.yul\":22526:22552   */\n      swap1\n      pop\n        /* \"#utility.yul\":22598:22607   */\n      dup2\n        /* \"#utility.yul\":22592:22596   */\n      dup2\n        /* \"#utility.yul\":22588:22608   */\n      sub\n        /* \"#utility.yul\":22584:22585   */\n      0x00\n        /* \"#utility.yul\":22573:22582   */\n      dup4\n        /* \"#utility.yul\":22569:22586   */\n      add\n        /* \"#utility.yul\":22562:22609   */\n      mstore\n        /* \"#utility.yul\":22626:22757   */\n      tag_494\n        /* \"#utility.yul\":22752:22756   */\n      dup2\n        /* \"#utility.yul\":22626:22757   */\n      tag_292\n      jump\t// in\n    tag_494:\n        /* \"#utility.yul\":22618:22757   */\n      swap1\n      pop\n        /* \"#utility.yul\":22345:22764   */\n      swap2\n      swap1\n      pop\n      jump\t// out\n        /* \"#utility.yul\":22770:22935   */\n    tag_293:\n        /* \"#utility.yul\":22910:22927   */\n      0x496e76616c696420616464726573730000000000000000000000000000000000\n        /* \"#utility.yul\":22906:22907   */\n      0x00\n        /* \"#utility.yul\":22898:22904   */\n      dup3\n        /* \"#utility.yul\":22894:22908   */\n      add\n        /* \"#utility.yul\":22887:22928   */\n      mstore\n        /* \"#utility.yul\":22770:22935   */\n      pop\n      jump\t// out\n        /* \"#utility.yul\":22941:23307   */\n    tag_294:\n        /* \"#utility.yul\":23083:23086   */\n      0x00\n        /* \"#utility.yul\":23104:23171   */\n      tag_497\n        /* \"#utility.yul\":23168:23170   */\n      0x0f\n        /* \"#utility.yul\":23163:23166   */\n      dup4\n        /* \"#utility.yul\":23104:23171   */\n      tag_242\n      jump\t// in\n    tag_497:\n        /* \"#utility.yul\":23097:23171   */\n      swap2\n      pop\n        /* \"#utility.yul\":23180:23273   */\n      tag_498\n        /* \"#utility.yul\":23269:23272   */\n      dup3\n        /* \"#utility.yul\":23180:23273   */\n      tag_293\n      jump\t// in\n    tag_498:\n        /* \"#utility.yul\":23298:23300   */\n      0x20\n        /* \"#utility.yul\":23293:23296   */\n      dup3\n        /* \"#utility.yul\":23289:23301   */\n      add\n        /* \"#utility.yul\":23282:23301   */\n      swap1\n      pop\n        /* \"#utility.yul\":22941:23307   */\n      swap2\n      swap1\n      pop\n      jump\t// out\n        /* \"#utility.yul\":23313:23732   */\n    tag_227:\n        /* \"#utility.yul\":23479:23483   */\n      0x00\n        /* \"#utility.yul\":23517:23519   */\n      0x20\n        /* \"#utility.yul\":23506:23515   */\n      dup3\n        /* \"#utility.yul\":23502:23520   */\n      add\n        /* \"#utility.yul\":23494:23520   */\n      swap1\n      pop\n        /* \"#utility.yul\":23566:23575   */\n      dup2\n        /* \"#utility.yul\":23560:23564   */\n      dup2\n        /* \"#utility.yul\":23556:23576   */\n      sub\n        /* \"#utility.yul\":23552:23553   */\n      0x00\n        /* \"#utility.yul\":23541:23550   */\n      dup4\n        /* \"#utility.yul\":23537:23554   */\n      add\n        /* \"#utility.yul\":23530:23577   */\n      mstore\n        /* \"#utility.yul\":23594:23725   */\n      tag_500\n        /* \"#utility.yul\":23720:23724   */\n      dup2\n        /* \"#utility.yul\":23594:23725   */\n      tag_294\n      jump\t// in\n    tag_500:\n        /* \"#utility.yul\":23586:23725   */\n      swap1\n      pop\n        /* \"#utility.yul\":23313:23732   */\n      swap2\n      swap1\n      pop\n      jump\t// out\n\n    auxdata: 0xa264697066735822122049d9514fbaea37680114f49aa096af43a94e73de74af5a6c4d739d4bf1cfac2864736f6c634300081e0033\n}\n",
				"bytecode": {
					"linkReferences": {},
					"object": "60a0604052601260025f6101000a81548160ff021916908360ff1602179055505f600460146101000a81548160ff021916908315150217905550348015610044575f5ffd5b50604051612f49380380612f4983398181016040528101906100669190610467565b835f9081610074919061070a565b508260019081610084919061070a565b503360045f6101000a81548173ffffffffffffffffffffffffffffffffffffffff021916908373ffffffffffffffffffffffffffffffffffffffff16021790555060025f9054906101000a900460ff1660ff16600a6100e39190610935565b816100ee919061097f565b6080818152505061014e60045f9054906101000a900473ffffffffffffffffffffffffffffffffffffffff1660025f9054906101000a900460ff1660ff16600a6101389190610935565b84610143919061097f565b61015760201b60201c565b50505050610a93565b5f73ffffffffffffffffffffffffffffffffffffffff168273ffffffffffffffffffffffffffffffffffffffff16036101c5576040517f08c379a00000000000000000000000000000000000000000000000000000000081526004016101bc90610a1a565b60405180910390fd5b8060035f8282546101d69190610a38565b925050819055508060055f8473ffffffffffffffffffffffffffffffffffffffff1673ffffffffffffffffffffffffffffffffffffffff1681526020019081526020015f205f8282546102299190610a38565b925050819055508173ffffffffffffffffffffffffffffffffffffffff167f0f6798a560793a54c3bcfe86a93cde1e73087d944c0ea20544137d4121396885826040516102769190610a7a565b60405180910390a28173ffffffffffffffffffffffffffffffffffffffff165f73ffffffffffffffffffffffffffffffffffffffff167fddf252ad1be2c89b69c2b068fc378daa952ba7f163c4a11628f55a4df523b3ef836040516102db9190610a7a565b60405180910390a35050565b5f604051905090565b5f5ffd5b5f5ffd5b5f5ffd5b5f5ffd5b5f601f19601f8301169050919050565b7f4e487b71000000000000000000000000000000000000000000000000000000005f52604160045260245ffd5b61034682610300565b810181811067ffffffffffffffff8211171561036557610364610310565b5b80604052505050565b5f6103776102e7565b9050610383828261033d565b919050565b5f67ffffffffffffffff8211156103a2576103a1610310565b5b6103ab82610300565b9050602081019050919050565b8281835e5f83830152505050565b5f6103d86103d384610388565b61036e565b9050828152602081018484840111156103f4576103f36102fc565b5b6103ff8482856103b8565b509392505050565b5f82601f83011261041b5761041a6102f8565b5b815161042b8482602086016103c6565b91505092915050565b5f819050919050565b61044681610434565b8114610450575f5ffd5b50565b5f815190506104618161043d565b92915050565b5f5f5f5f6080858703121561047f5761047e6102f0565b5b5f85015167ffffffffffffffff81111561049c5761049b6102f4565b5b6104a887828801610407565b945050602085015167ffffffffffffffff8111156104c9576104c86102f4565b5b6104d587828801610407565b93505060406104e687828801610453565b92505060606104f787828801610453565b91505092959194509250565b5f81519050919050565b7f4e487b71000000000000000000000000000000000000000000000000000000005f52602260045260245ffd5b5f600282049050600182168061055157607f821691505b6020821081036105645761056361050d565b5b50919050565b5f819050815f5260205f209050919050565b5f6020601f8301049050919050565b5f82821b905092915050565b5f600883026105c67fffffffffffffffffffffffffffffffffffffffffffffffffffffffffffffffff8261058b565b6105d0868361058b565b95508019841693508086168417925050509392505050565b5f819050919050565b5f61060b61060661060184610434565b6105e8565b610434565b9050919050565b5f819050919050565b610624836105f1565b61063861063082610612565b848454610597565b825550505050565b5f5f905090565b61064f610640565b61065a81848461061b565b505050565b5b8181101561067d576106725f82610647565b600181019050610660565b5050565b601f8211156106c2576106938161056a565b61069c8461057c565b810160208510156106ab578190505b6106bf6106b78561057c565b83018261065f565b50505b505050565b5f82821c905092915050565b5f6106e25f19846008026106c7565b1980831691505092915050565b5f6106fa83836106d3565b9150826002028217905092915050565b61071382610503565b67ffffffffffffffff81111561072c5761072b610310565b5b610736825461053a565b610741828285610681565b5f60209050601f831160018114610772575f8415610760578287015190505b61076a85826106ef565b8655506107d1565b601f1984166107808661056a565b5f5b828110156107a757848901518255600182019150602085019450602081019050610782565b868310156107c457848901516107c0601f8916826106d3565b8355505b6001600288020188555050505b505050505050565b7f4e487b71000000000000000000000000000000000000000000000000000000005f52601160045260245ffd5b5f8160011c9050919050565b5f5f8291508390505b600185111561085b57808604811115610837576108366107d9565b5b60018516156108465780820291505b808102905061085485610806565b945061081b565b94509492505050565b5f82610873576001905061092e565b81610880575f905061092e565b816001811461089657600281146108a0576108cf565b600191505061092e565b60ff8411156108b2576108b16107d9565b5b8360020a9150848211156108c9576108c86107d9565b5b5061092e565b5060208310610133831016604e8410600b84101617156109045782820a9050838111156108ff576108fe6107d9565b5b61092e565b6109118484846001610812565b92509050818404811115610928576109276107d9565b5b81810290505b9392505050565b5f61093f82610434565b915061094a83610434565b92506109777fffffffffffffffffffffffffffffffffffffffffffffffffffffffffffffffff8484610864565b905092915050565b5f61098982610434565b915061099483610434565b92508282026109a281610434565b915082820484148315176109b9576109b86107d9565b5b5092915050565b5f82825260208201905092915050565b7f496e76616c6964206164647265737300000000000000000000000000000000005f82015250565b5f610a04600f836109c0565b9150610a0f826109d0565b602082019050919050565b5f6020820190508181035f830152610a31816109f8565b9050919050565b5f610a4282610434565b9150610a4d83610434565b9250828201905080821115610a6557610a646107d9565b5b92915050565b610a7481610434565b82525050565b5f602082019050610a8d5f830184610a6b565b92915050565b608051612497610ab25f395f8181610678015261089701526124975ff3fe608060405234801561000f575f5ffd5b506004361061012a575f3560e01c806370a08231116100ab578063a9059cbb1161006f578063a9059cbb146102fa578063b1c255861461032a578063c62b3bea14610346578063dbed1e8814610362578063dd62ed3e146103925761012a565b806370a082311461026657806372dd529b146102965780638456cb59146102b45780638da5cb5b146102be57806395d89b41146102dc5761012a565b80633f4ba83a116100f25780633f4ba83a146101e857806340c10f19146101f257806342966c681461020e5780635c975abb1461022a5780636c9230db146102485761012a565b806306fdde031461012e578063095ea7b31461014c57806323b872dd1461017c578063313ce567146101ac578063355274ea146101ca575b5f5ffd5b6101366103c2565b604051610143919061197d565b60405180910390f35b61016660048036038101906101619190611a2e565b61044d565b6040516101739190611a86565b60405180910390f35b61019660048036038101906101919190611a9f565b6104b3565b6040516101a39190611a86565b60405180910390f35b6101b4610663565b6040516101c19190611b0a565b60405180910390f35b6101d2610675565b6040516101df9190611b32565b60405180910390f35b6101f061069c565b005b61020c60048036038101906102079190611a2e565b61078a565b005b61022860048036038101906102239190611b4b565b61093c565b005b610232610a19565b60405161023f9190611a86565b60405180910390f35b610250610a2c565b60405161025d9190611b32565b60405180910390f35b610280600480360381019061027b9190611b76565b610a33565b60405161028d9190611b32565b60405180910390f35b61029e610a79565b6040516102ab9190611b32565b60405180910390f35b6102bc610a82565b005b6102c6610b71565b6040516102d39190611bb0565b60405180910390f35b6102e4610b96565b6040516102f1919061197d565b60405180910390f35b610314600480360381019061030f9190611a2e565b610c22565b6040516103219190611a86565b60405180910390f35b610344600480360381019061033f9190611a2e565b610d0a565b005b610360600480360381019061035b9190611a2e565b610e7f565b005b61037c60048036038101906103779190611b76565b611026565b6040516103899190611b32565b60405180910390f35b6103ac60048036038101906103a79190611bc9565b61106c565b6040516103b99190611b32565b60405180910390f35b5f80546103ce90611c34565b80601f01602080910402602001604051908101604052809291908181526020018280546103fa90611c34565b80156104455780601f1061041c57610100808354040283529160200191610445565b820191905f5260205f20905b81548152906001019060200180831161042857829003601f168201915b505050505081565b5f600460149054906101000a900460ff161561049e576040517f08c379a000000000000000000000000000000000000000000000000000000000815260040161049590611cae565b60405180910390fd5b6104a933848461113e565b6001905092915050565b5f600460149054906101000a900460ff1615610504576040517f08c379a00000000000000000000000000000000000000000000000000000000081526004016104fb90611cae565b60405180910390fd5b8160065f8673ffffffffffffffffffffffffffffffffffffffff1673ffffffffffffffffffffffffffffffffffffffff1681526020019081526020015f205f3373ffffffffffffffffffffffffffffffffffffffff1673ffffffffffffffffffffffffffffffffffffffff1681526020019081526020015f205410156105bf576040517f08c379a00000000000000000000000000000000000000000000000000000000081526004016105b690611d16565b60405180910390fd5b8160065f8673ffffffffffffffffffffffffffffffffffffffff1673ffffffffffffffffffffffffffffffffffffffff1681526020019081526020015f205f3373ffffffffffffffffffffffffffffffffffffffff1673ffffffffffffffffffffffffffffffffffffffff1681526020019081526020015f205f8282546106469190611d61565b92505081905550610658848484611301565b600190509392505050565b60025f9054906101000a900460ff1681565b5f7f0000000000000000000000000000000000000000000000000000000000000000905090565b60045f9054906101000a900473ffffffffffffffffffffffffffffffffffffffff1673ffffffffffffffffffffffffffffffffffffffff163373ffffffffffffffffffffffffffffffffffffffff161461072b576040517f08c379a000000000000000000000000000000000000000000000000000000000815260040161072290611dde565b60405180910390fd5b5f600460146101000a81548160ff0219169083151502179055503373ffffffffffffffffffffffffffffffffffffffff167f5db9ee0a495bf2e6ff9c91a7834c1ba4fdd244a5e8aa4e537bd38aeae4b073aa60405160405180910390a2565b60045f9054906101000a900473ffffffffffffffffffffffffffffffffffffffff1673ffffffffffffffffffffffffffffffffffffffff163373ffffffffffffffffffffffffffffffffffffffff1614610819576040517f08c379a000000000000000000000000000000000000000000000000000000000815260040161081090611dde565b60405180910390fd5b600460149054906101000a900460ff1615610869576040517f08c379a000000000000000000000000000000000000000000000000000000000815260040161086090611cae565b60405180910390fd5b5f60025f9054906101000a900460ff1660ff16600a6108889190611f2b565b826108939190611f75565b90507f0000000000000000000000000000000000000000000000000000000000000000816003546108c49190611fb6565b1115610905576040517f08c379a00000000000000000000000000000000000000000000000000000000081526004016108fc90612033565b60405180910390fd5b6109378360025f9054906101000a900460ff1660ff16600a6109279190611f2b565b846109329190611f75565b61156d565b505050565b600460149054906101000a900460ff161561098c576040517f08c379a000000000000000000000000000000000000000000000000000000000815260040161098390611cae565b60405180910390fd5b8060055f3373ffffffffffffffffffffffffffffffffffffffff1673ffffffffffffffffffffffffffffffffffffffff1681526020019081526020015f20541015610a0c576040517f08c379a0000000000000000000000000000000000000000000000000000000008152600401610a039061209b565b60405180910390fd5b610a1633826116fd565b50565b600460149054906101000a900460ff1681565b5f42905090565b5f60055f8373ffffffffffffffffffffffffffffffffffffffff1673ffffffffffffffffffffffffffffffffffffffff1681526020019081526020015f20549050919050565b5f600354905090565b60045f9054906101000a900473ffffffffffffffffffffffffffffffffffffffff1673ffffffffffffffffffffffffffffffffffffffff163373ffffffffffffffffffffffffffffffffffffffff1614610b11576040517f08c379a0000000000000000000000000000000000000000000000000000000008152600401610b0890611dde565b60405180910390fd5b6001600460146101000a81548160ff0219169083151502179055503373ffffffffffffffffffffffffffffffffffffffff167f62e78cea01bee320cd4e420270b5ea74000d11b0c9f74754ebdbfc544b05a25860405160405180910390a2565b60045f9054906101000a900473ffffffffffffffffffffffffffffffffffffffff1681565b60018054610ba390611c34565b80601f0160208091040260200160405190810160405280929190818152602001828054610bcf90611c34565b8015610c1a5780601f10610bf157610100808354040283529160200191610c1a565b820191905f5260205f20905b815481529060010190602001808311610bfd57829003601f168201915b505050505081565b5f600460149054906101000a900460ff1615610c73576040517f08c379a0000000000000000000000000000000000000000000000000000000008152600401610c6a90611cae565b60405180910390fd5b3360075f8273ffffffffffffffffffffffffffffffffffffffff1673ffffffffffffffffffffffffffffffffffffffff1681526020019081526020015f2054421015610cf4576040517f08c379a0000000000000000000000000000000000000000000000000000000008152600401610ceb90612103565b60405180910390fd5b610cff338585611301565b600191505092915050565b60045f9054906101000a900473ffffffffffffffffffffffffffffffffffffffff1673ffffffffffffffffffffffffffffffffffffffff163373ffffffffffffffffffffffffffffffffffffffff1614610d99576040517f08c379a0000000000000000000000000000000000000000000000000000000008152600401610d9090611dde565b60405180910390fd5b5f8142610da69190611fb6565b9050428111610dea576040517f08c379a0000000000000000000000000000000000000000000000000000000008152600401610de19061216b565b60405180910390fd5b8060075f8573ffffffffffffffffffffffffffffffffffffffff1673ffffffffffffffffffffffffffffffffffffffff1681526020019081526020015f20819055508273ffffffffffffffffffffffffffffffffffffffff167f9f1ec8c880f76798e7b793325d625e9b60e4082a553c98f42b6cda368dd6000882604051610e729190611b32565b60405180910390a2505050565b600460149054906101000a900460ff1615610ecf576040517f08c379a0000000000000000000000000000000000000000000000000000000008152600401610ec690611cae565b60405180910390fd5b8060065f8473ffffffffffffffffffffffffffffffffffffffff1673ffffffffffffffffffffffffffffffffffffffff1681526020019081526020015f205f3373ffffffffffffffffffffffffffffffffffffffff1673ffffffffffffffffffffffffffffffffffffffff1681526020019081526020015f20541015610f8a576040517f08c379a0000000000000000000000000000000000000000000000000000000008152600401610f81906121d3565b60405180910390fd5b8060065f8473ffffffffffffffffffffffffffffffffffffffff1673ffffffffffffffffffffffffffffffffffffffff1681526020019081526020015f205f3373ffffffffffffffffffffffffffffffffffffffff1673ffffffffffffffffffffffffffffffffffffffff1681526020019081526020015f205f8282546110119190611d61565b9250508190555061102282826116fd565b5050565b5f60075f8373ffffffffffffffffffffffffffffffffffffffff1673ffffffffffffffffffffffffffffffffffffffff1681526020019081526020015f20549050919050565b5f600460149054906101000a900460ff16156110bd576040517f08c379a00000000000000000000000000000000000000000000000000000000081526004016110b490611cae565b60405180910390fd5b60065f8473ffffffffffffffffffffffffffffffffffffffff1673ffffffffffffffffffffffffffffffffffffffff1681526020019081526020015f205f8373ffffffffffffffffffffffffffffffffffffffff1673ffffffffffffffffffffffffffffffffffffffff1681526020019081526020015f2054905092915050565b5f73ffffffffffffffffffffffffffffffffffffffff168373ffffffffffffffffffffffffffffffffffffffff16036111ac576040517f08c379a00000000000000000000000000000000000000000000000000000000081526004016111a39061223b565b60405180910390fd5b5f73ffffffffffffffffffffffffffffffffffffffff168273ffffffffffffffffffffffffffffffffffffffff160361121a576040517f08c379a0000000000000000000000000000000000000000000000000000000008152600401611211906122a3565b60405180910390fd5b8060065f8573ffffffffffffffffffffffffffffffffffffffff1673ffffffffffffffffffffffffffffffffffffffff1681526020019081526020015f205f8473ffffffffffffffffffffffffffffffffffffffff1673ffffffffffffffffffffffffffffffffffffffff1681526020019081526020015f20819055508173ffffffffffffffffffffffffffffffffffffffff168373ffffffffffffffffffffffffffffffffffffffff167f8c5be1e5ebec7d5bd14f71427d1e84f3dd0314c0f7b2291e5b200ac8c7c3b925836040516112f49190611b32565b60405180910390a3505050565b5f73ffffffffffffffffffffffffffffffffffffffff168373ffffffffffffffffffffffffffffffffffffffff160361136f576040517f08c379a00000000000000000000000000000000000000000000000000000000081526004016113669061230b565b60405180910390fd5b5f73ffffffffffffffffffffffffffffffffffffffff168273ffffffffffffffffffffffffffffffffffffffff16036113dd576040517f08c379a00000000000000000000000000000000000000000000000000000000081526004016113d490612373565b60405180910390fd5b8060055f8573ffffffffffffffffffffffffffffffffffffffff1673ffffffffffffffffffffffffffffffffffffffff1681526020019081526020015f2054101561145d576040517f08c379a0000000000000000000000000000000000000000000000000000000008152600401611454906123db565b60405180910390fd5b8060055f8573ffffffffffffffffffffffffffffffffffffffff1673ffffffffffffffffffffffffffffffffffffffff1681526020019081526020015f205f8282546114a99190611d61565b925050819055508060055f8473ffffffffffffffffffffffffffffffffffffffff1673ffffffffffffffffffffffffffffffffffffffff1681526020019081526020015f205f8282546114fc9190611fb6565b925050819055508173ffffffffffffffffffffffffffffffffffffffff168373ffffffffffffffffffffffffffffffffffffffff167fddf252ad1be2c89b69c2b068fc378daa952ba7f163c4a11628f55a4df523b3ef836040516115609190611b32565b60405180910390a3505050565b5f73ffffffffffffffffffffffffffffffffffffffff168273ffffffffffffffffffffffffffffffffffffffff16036115db576040517f08c379a00000000000000000000000000000000000000000000000000000000081526004016115d290612443565b60405180910390fd5b8060035f8282546115ec9190611fb6565b925050819055508060055f8473ffffffffffffffffffffffffffffffffffffffff1673ffffffffffffffffffffffffffffffffffffffff1681526020019081526020015f205f82825461163f9190611fb6565b925050819055508173ffffffffffffffffffffffffffffffffffffffff167f0f6798a560793a54c3bcfe86a93cde1e73087d944c0ea20544137d41213968858260405161168c9190611b32565b60405180910390a28173ffffffffffffffffffffffffffffffffffffffff165f73ffffffffffffffffffffffffffffffffffffffff167fddf252ad1be2c89b69c2b068fc378daa952ba7f163c4a11628f55a4df523b3ef836040516116f19190611b32565b60405180910390a35050565b5f73ffffffffffffffffffffffffffffffffffffffff168273ffffffffffffffffffffffffffffffffffffffff160361176b576040517f08c379a000000000000000000000000000000000000000000000000000000000815260040161176290612443565b60405180910390fd5b8060055f8473ffffffffffffffffffffffffffffffffffffffff1673ffffffffffffffffffffffffffffffffffffffff1681526020019081526020015f205410156117eb576040517f08c379a00000000000000000000000000000000000000000000000000000000081526004016117e2906123db565b60405180910390fd5b8060055f8473ffffffffffffffffffffffffffffffffffffffff1673ffffffffffffffffffffffffffffffffffffffff1681526020019081526020015f205f8282546118379190611d61565b925050819055508060035f82825461184f9190611d61565b925050819055508173ffffffffffffffffffffffffffffffffffffffff167fcc16f5dbb4873280815c1ee09dbd06736cffcc184412cf7a71a0fdb75d397ca58260405161189c9190611b32565b60405180910390a25f73ffffffffffffffffffffffffffffffffffffffff168273ffffffffffffffffffffffffffffffffffffffff167fddf252ad1be2c89b69c2b068fc378daa952ba7f163c4a11628f55a4df523b3ef836040516119019190611b32565b60405180910390a35050565b5f81519050919050565b5f82825260208201905092915050565b8281835e5f83830152505050565b5f601f19601f8301169050919050565b5f61194f8261190d565b6119598185611917565b9350611969818560208601611927565b61197281611935565b840191505092915050565b5f6020820190508181035f8301526119958184611945565b905092915050565b5f5ffd5b5f73ffffffffffffffffffffffffffffffffffffffff82169050919050565b5f6119ca826119a1565b9050919050565b6119da816119c0565b81146119e4575f5ffd5b50565b5f813590506119f5816119d1565b92915050565b5f819050919050565b611a0d816119fb565b8114611a17575f5ffd5b50565b5f81359050611a2881611a04565b92915050565b5f5f60408385031215611a4457611a4361199d565b5b5f611a51858286016119e7565b9250506020611a6285828601611a1a565b9150509250929050565b5f8115159050919050565b611a8081611a6c565b82525050565b5f602082019050611a995f830184611a77565b92915050565b5f5f5f60608486031215611ab657611ab561199d565b5b5f611ac3868287016119e7565b9350506020611ad4868287016119e7565b9250506040611ae586828701611a1a565b9150509250925092565b5f60ff82169050919050565b611b0481611aef565b82525050565b5f602082019050611b1d5f830184611afb565b92915050565b611b2c816119fb565b82525050565b5f602082019050611b455f830184611b23565b92915050565b5f60208284031215611b6057611b5f61199d565b5b5f611b6d84828501611a1a565b91505092915050565b5f60208284031215611b8b57611b8a61199d565b5b5f611b98848285016119e7565b91505092915050565b611baa816119c0565b82525050565b5f602082019050611bc35f830184611ba1565b92915050565b5f5f60408385031215611bdf57611bde61199d565b5b5f611bec858286016119e7565b9250506020611bfd858286016119e7565b9150509250929050565b7f4e487b71000000000000000000000000000000000000000000000000000000005f52602260045260245ffd5b5f6002820490506001821680611c4b57607f821691505b602082108103611c5e57611c5d611c07565b5b50919050565b7f436f6e74726163742069732070617573656400000000000000000000000000005f82015250565b5f611c98601283611917565b9150611ca382611c64565b602082019050919050565b5f6020820190508181035f830152611cc581611c8c565b9050919050565b7f45524332303a20696e73756666696369656e7420616c6c6f77616e63650000005f82015250565b5f611d00601d83611917565b9150611d0b82611ccc565b602082019050919050565b5f6020820190508181035f830152611d2d81611cf4565b9050919050565b7f4e487b71000000000000000000000000000000000000000000000000000000005f52601160045260245ffd5b5f611d6b826119fb565b9150611d76836119fb565b9250828203905081811115611d8e57611d8d611d34565b5b92915050565b7f4e6f7420636f6e7472616374204f776e657200000000000000000000000000005f82015250565b5f611dc8601283611917565b9150611dd382611d94565b602082019050919050565b5f6020820190508181035f830152611df581611dbc565b9050919050565b5f8160011c9050919050565b5f5f8291508390505b6001851115611e5157808604811115611e2d57611e2c611d34565b5b6001851615611e3c5780820291505b8081029050611e4a85611dfc565b9450611e11565b94509492505050565b5f82611e695760019050611f24565b81611e76575f9050611f24565b8160018114611e8c5760028114611e9657611ec5565b6001915050611f24565b60ff841115611ea857611ea7611d34565b5b8360020a915084821115611ebf57611ebe611d34565b5b50611f24565b5060208310610133831016604e8410600b8410161715611efa5782820a905083811115611ef557611ef4611d34565b5b611f24565b611f078484846001611e08565b92509050818404811115611f1e57611f1d611d34565b5b81810290505b9392505050565b5f611f35826119fb565b9150611f40836119fb565b9250611f6d7fffffffffffffffffffffffffffffffffffffffffffffffffffffffffffffffff8484611e5a565b905092915050565b5f611f7f826119fb565b9150611f8a836119fb565b9250828202611f98816119fb565b91508282048414831517611faf57611fae611d34565b5b5092915050565b5f611fc0826119fb565b9150611fcb836119fb565b9250828201905080821115611fe357611fe2611d34565b5b92915050565b7f45786365656473206361700000000000000000000000000000000000000000005f82015250565b5f61201d600b83611917565b915061202882611fe9565b602082019050919050565b5f6020820190508181035f83015261204a81612011565b9050919050565b7f496e73756666696369656e742062616c616e636520746f206275726e000000005f82015250565b5f612085601c83611917565b915061209082612051565b602082019050919050565b5f6020820190508181035f8301526120b281612079565b9050919050565b7f546f6b656e73206172652074696d652d6c6f636b6564000000000000000000005f82015250565b5f6120ed601683611917565b91506120f8826120b9565b602082019050919050565b5f6020820190508181035f83015261211a816120e1565b9050919050565b7f556e6c6f636b2074696d65206d75737420626520696e206675747572650000005f82015250565b5f612155601d83611917565b915061216082612121565b602082019050919050565b5f6020820190508181035f83015261218281612149565b9050919050565b7f416c6c6f77616e636520657863656564656400000000000000000000000000005f82015250565b5f6121bd601283611917565b91506121c882612189565b602082019050919050565b5f6020820190508181035f8301526121ea816121b1565b9050919050565b7f45524332303a20617070726f76652066726f6d203078300000000000000000005f82015250565b5f612225601783611917565b9150612230826121f1565b602082019050919050565b5f6020820190508181035f83015261225281612219565b9050919050565b7f45524332303a20617070726f766520746f2030783000000000000000000000005f82015250565b5f61228d601583611917565b915061229882612259565b602082019050919050565b5f6020820190508181035f8301526122ba81612281565b9050919050565b7f45524332303a207472616e736665722066726f6d2030783000000000000000005f82015250565b5f6122f5601883611917565b9150612300826122c1565b602082019050919050565b5f6020820190508181035f830152612322816122e9565b9050919050565b7f45524332303a207472616e7366657220746f20307830000000000000000000005f82015250565b5f61235d601683611917565b915061236882612329565b602082019050919050565b5f6020820190508181035f83015261238a81612351565b9050919050565b7f45524332303a20696e73756666696369656e742062616c616e636500000000005f82015250565b5f6123c5601b83611917565b91506123d082612391565b602082019050919050565b5f6020820190508181035f8301526123f2816123b9565b9050919050565b7f496e76616c6964206164647265737300000000000000000000000000000000005f82015250565b5f61242d600f83611917565b9150612438826123f9565b602082019050919050565b5f6020820190508181035f83015261245a81612421565b905091905056fea264697066735822122049d9514fbaea37680114f49aa096af43a94e73de74af5a6c4d739d4bf1cfac2864736f6c634300081e0033",
					"opcodes": "PUSH1 0xA0 PUSH1 0x40 MSTORE PUSH1 0x12 PUSH1 0x2 PUSH0 PUSH2 0x100 EXP DUP2 SLOAD DUP2 PUSH1 0xFF MUL NOT AND SWAP1 DUP4 PUSH1 0xFF AND MUL OR SWAP1 SSTORE POP PUSH0 PUSH1 0x4 PUSH1 0x14 PUSH2 0x100 EXP DUP2 SLOAD DUP2 PUSH1 0xFF MUL NOT AND SWAP1 DUP4 ISZERO ISZERO MUL OR SWAP1 SSTORE POP CALLVALUE DUP1 ISZERO PUSH2 0x44 JUMPI PUSH0 PUSH0 REVERT JUMPDEST POP PUSH1 0x40 MLOAD PUSH2 0x2F49 CODESIZE SUB DUP1 PUSH2 0x2F49 DUP4 CODECOPY DUP2 DUP2 ADD PUSH1 0x40 MSTORE DUP2 ADD SWAP1 PUSH2 0x66 SWAP2 SWAP1 PUSH2 0x467 JUMP JUMPDEST DUP4 PUSH0 SWAP1 DUP2 PUSH2 0x74 SWAP2 SWAP1 PUSH2 0x70A JUMP JUMPDEST POP DUP3 PUSH1 0x1 SWAP1 DUP2 PUSH2 0x84 SWAP2 SWAP1 PUSH2 0x70A JUMP JUMPDEST POP CALLER PUSH1 0x4 PUSH0 PUSH2 0x100 EXP DUP2 SLOAD DUP2 PUSH20 0xFFFFFFFFFFFFFFFFFFFFFFFFFFFFFFFFFFFFFFFF MUL NOT AND SWAP1 DUP4 PUSH20 0xFFFFFFFFFFFFFFFFFFFFFFFFFFFFFFFFFFFFFFFF AND MUL OR SWAP1 SSTORE POP PUSH1 0x2 PUSH0 SWAP1 SLOAD SWAP1 PUSH2 0x100 EXP SWAP1 DIV PUSH1 0xFF AND PUSH1 0xFF AND PUSH1 0xA PUSH2 0xE3 SWAP2 SWAP1 PUSH2 0x935 JUMP JUMPDEST DUP2 PUSH2 0xEE SWAP2 SWAP1 PUSH2 0x97F JUMP JUMPDEST PUSH1 0x80 DUP2 DUP2 MSTORE POP POP PUSH2 0x14E PUSH1 0x4 PUSH0 SWAP1 SLOAD SWAP1 PUSH2 0x100 EXP SWAP1 DIV PUSH20 0xFFFFFFFFFFFFFFFFFFFFFFFFFFFFFFFFFFFFFFFF AND PUSH1 0x2 PUSH0 SWAP1 SLOAD SWAP1 PUSH2 0x100 EXP SWAP1 DIV PUSH1 0xFF AND PUSH1 0xFF AND PUSH1 0xA PUSH2 0x138 SWAP2 SWAP1 PUSH2 0x935 JUMP JUMPDEST DUP5 PUSH2 0x143 SWAP2 SWAP1 PUSH2 0x97F JUMP JUMPDEST PUSH2 0x157 PUSH1 0x20 SHL PUSH1 0x20 SHR JUMP JUMPDEST POP POP POP POP PUSH2 0xA93 JUMP JUMPDEST PUSH0 PUSH20 0xFFFFFFFFFFFFFFFFFFFFFFFFFFFFFFFFFFFFFFFF AND DUP3 PUSH20 0xFFFFFFFFFFFFFFFFFFFFFFFFFFFFFFFFFFFFFFFF AND SUB PUSH2 0x1C5 JUMPI PUSH1 0x40 MLOAD PUSH32 0x8C379A000000000000000000000000000000000000000000000000000000000 DUP2 MSTORE PUSH1 0x4 ADD PUSH2 0x1BC SWAP1 PUSH2 0xA1A JUMP JUMPDEST PUSH1 0x40 MLOAD DUP1 SWAP2 SUB SWAP1 REVERT JUMPDEST DUP1 PUSH1 0x3 PUSH0 DUP3 DUP3 SLOAD PUSH2 0x1D6 SWAP2 SWAP1 PUSH2 0xA38 JUMP JUMPDEST SWAP3 POP POP DUP2 SWAP1 SSTORE POP DUP1 PUSH1 0x5 PUSH0 DUP5 PUSH20 0xFFFFFFFFFFFFFFFFFFFFFFFFFFFFFFFFFFFFFFFF AND PUSH20 0xFFFFFFFFFFFFFFFFFFFFFFFFFFFFFFFFFFFFFFFF AND DUP2 MSTORE PUSH1 0x20 ADD SWAP1 DUP2 MSTORE PUSH1 0x20 ADD PUSH0 KECCAK256 PUSH0 DUP3 DUP3 SLOAD PUSH2 0x229 SWAP2 SWAP1 PUSH2 0xA38 JUMP JUMPDEST SWAP3 POP POP DUP2 SWAP1 SSTORE POP DUP2 PUSH20 0xFFFFFFFFFFFFFFFFFFFFFFFFFFFFFFFFFFFFFFFF AND PUSH32 0xF6798A560793A54C3BCFE86A93CDE1E73087D944C0EA20544137D4121396885 DUP3 PUSH1 0x40 MLOAD PUSH2 0x276 SWAP2 SWAP1 PUSH2 0xA7A JUMP JUMPDEST PUSH1 0x40 MLOAD DUP1 SWAP2 SUB SWAP1 LOG2 DUP2 PUSH20 0xFFFFFFFFFFFFFFFFFFFFFFFFFFFFFFFFFFFFFFFF AND PUSH0 PUSH20 0xFFFFFFFFFFFFFFFFFFFFFFFFFFFFFFFFFFFFFFFF AND PUSH32 0xDDF252AD1BE2C89B69C2B068FC378DAA952BA7F163C4A11628F55A4DF523B3EF DUP4 PUSH1 0x40 MLOAD PUSH2 0x2DB SWAP2 SWAP1 PUSH2 0xA7A JUMP JUMPDEST PUSH1 0x40 MLOAD DUP1 SWAP2 SUB SWAP1 LOG3 POP POP JUMP JUMPDEST PUSH0 PUSH1 0x40 MLOAD SWAP1 POP SWAP1 JUMP JUMPDEST PUSH0 PUSH0 REVERT JUMPDEST PUSH0 PUSH0 REVERT JUMPDEST PUSH0 PUSH0 REVERT JUMPDEST PUSH0 PUSH0 REVERT JUMPDEST PUSH0 PUSH1 0x1F NOT PUSH1 0x1F DUP4 ADD AND SWAP1 POP SWAP2 SWAP1 POP JUMP JUMPDEST PUSH32 0x4E487B7100000000000000000000000000000000000000000000000000000000 PUSH0 MSTORE PUSH1 0x41 PUSH1 0x4 MSTORE PUSH1 0x24 PUSH0 REVERT JUMPDEST PUSH2 0x346 DUP3 PUSH2 0x300 JUMP JUMPDEST DUP2 ADD DUP2 DUP2 LT PUSH8 0xFFFFFFFFFFFFFFFF DUP3 GT OR ISZERO PUSH2 0x365 JUMPI PUSH2 0x364 PUSH2 0x310 JUMP JUMPDEST JUMPDEST DUP1 PUSH1 0x40 MSTORE POP POP POP JUMP JUMPDEST PUSH0 PUSH2 0x377 PUSH2 0x2E7 JUMP JUMPDEST SWAP1 POP PUSH2 0x383 DUP3 DUP3 PUSH2 0x33D JUMP JUMPDEST SWAP2 SWAP1 POP JUMP JUMPDEST PUSH0 PUSH8 0xFFFFFFFFFFFFFFFF DUP3 GT ISZERO PUSH2 0x3A2 JUMPI PUSH2 0x3A1 PUSH2 0x310 JUMP JUMPDEST JUMPDEST PUSH2 0x3AB DUP3 PUSH2 0x300 JUMP JUMPDEST SWAP1 POP PUSH1 0x20 DUP2 ADD SWAP1 POP SWAP2 SWAP1 POP JUMP JUMPDEST DUP3 DUP2 DUP4 MCOPY PUSH0 DUP4 DUP4 ADD MSTORE POP POP POP JUMP JUMPDEST PUSH0 PUSH2 0x3D8 PUSH2 0x3D3 DUP5 PUSH2 0x388 JUMP JUMPDEST PUSH2 0x36E JUMP JUMPDEST SWAP1 POP DUP3 DUP2 MSTORE PUSH1 0x20 DUP2 ADD DUP5 DUP5 DUP5 ADD GT ISZERO PUSH2 0x3F4 JUMPI PUSH2 0x3F3 PUSH2 0x2FC JUMP JUMPDEST JUMPDEST PUSH2 0x3FF DUP5 DUP3 DUP6 PUSH2 0x3B8 JUMP JUMPDEST POP SWAP4 SWAP3 POP POP POP JUMP JUMPDEST PUSH0 DUP3 PUSH1 0x1F DUP4 ADD SLT PUSH2 0x41B JUMPI PUSH2 0x41A PUSH2 0x2F8 JUMP JUMPDEST JUMPDEST DUP2 MLOAD PUSH2 0x42B DUP5 DUP3 PUSH1 0x20 DUP7 ADD PUSH2 0x3C6 JUMP JUMPDEST SWAP2 POP POP SWAP3 SWAP2 POP POP JUMP JUMPDEST PUSH0 DUP2 SWAP1 POP SWAP2 SWAP1 POP JUMP JUMPDEST PUSH2 0x446 DUP2 PUSH2 0x434 JUMP JUMPDEST DUP2 EQ PUSH2 0x450 JUMPI PUSH0 PUSH0 REVERT JUMPDEST POP JUMP JUMPDEST PUSH0 DUP2 MLOAD SWAP1 POP PUSH2 0x461 DUP2 PUSH2 0x43D JUMP JUMPDEST SWAP3 SWAP2 POP POP JUMP JUMPDEST PUSH0 PUSH0 PUSH0 PUSH0 PUSH1 0x80 DUP6 DUP8 SUB SLT ISZERO PUSH2 0x47F JUMPI PUSH2 0x47E PUSH2 0x2F0 JUMP JUMPDEST JUMPDEST PUSH0 DUP6 ADD MLOAD PUSH8 0xFFFFFFFFFFFFFFFF DUP2 GT ISZERO PUSH2 0x49C JUMPI PUSH2 0x49B PUSH2 0x2F4 JUMP JUMPDEST JUMPDEST PUSH2 0x4A8 DUP8 DUP3 DUP9 ADD PUSH2 0x407 JUMP JUMPDEST SWAP5 POP POP PUSH1 0x20 DUP6 ADD MLOAD PUSH8 0xFFFFFFFFFFFFFFFF DUP2 GT ISZERO PUSH2 0x4C9 JUMPI PUSH2 0x4C8 PUSH2 0x2F4 JUMP JUMPDEST JUMPDEST PUSH2 0x4D5 DUP8 DUP3 DUP9 ADD PUSH2 0x407 JUMP JUMPDEST SWAP4 POP POP PUSH1 0x40 PUSH2 0x4E6 DUP8 DUP3 DUP9 ADD PUSH2 0x453 JUMP JUMPDEST SWAP3 POP POP PUSH1 0x60 PUSH2 0x4F7 DUP8 DUP3 DUP9 ADD PUSH2 0x453 JUMP JUMPDEST SWAP2 POP POP SWAP3 SWAP6 SWAP2 SWAP5 POP SWAP3 POP JUMP JUMPDEST PUSH0 DUP2 MLOAD SWAP1 POP SWAP2 SWAP1 POP JUMP JUMPDEST PUSH32 0x4E487B7100000000000000000000000000000000000000000000000000000000 PUSH0 MSTORE PUSH1 0x22 PUSH1 0x4 MSTORE PUSH1 0x24 PUSH0 REVERT JUMPDEST PUSH0 PUSH1 0x2 DUP3 DIV SWAP1 POP PUSH1 0x1 DUP3 AND DUP1 PUSH2 0x551 JUMPI PUSH1 0x7F DUP3 AND SWAP2 POP JUMPDEST PUSH1 0x20 DUP3 LT DUP2 SUB PUSH2 0x564 JUMPI PUSH2 0x563 PUSH2 0x50D JUMP JUMPDEST JUMPDEST POP SWAP2 SWAP1 POP JUMP JUMPDEST PUSH0 DUP2 SWAP1 POP DUP2 PUSH0 MSTORE PUSH1 0x20 PUSH0 KECCAK256 SWAP1 POP SWAP2 SWAP1 POP JUMP JUMPDEST PUSH0 PUSH1 0x20 PUSH1 0x1F DUP4 ADD DIV SWAP1 POP SWAP2 SWAP1 POP JUMP JUMPDEST PUSH0 DUP3 DUP3 SHL SWAP1 POP SWAP3 SWAP2 POP POP JUMP JUMPDEST PUSH0 PUSH1 0x8 DUP4 MUL PUSH2 0x5C6 PUSH32 0xFFFFFFFFFFFFFFFFFFFFFFFFFFFFFFFFFFFFFFFFFFFFFFFFFFFFFFFFFFFFFFFF DUP3 PUSH2 0x58B JUMP JUMPDEST PUSH2 0x5D0 DUP7 DUP4 PUSH2 0x58B JUMP JUMPDEST SWAP6 POP DUP1 NOT DUP5 AND SWAP4 POP DUP1 DUP7 AND DUP5 OR SWAP3 POP POP POP SWAP4 SWAP3 POP POP POP JUMP JUMPDEST PUSH0 DUP2 SWAP1 POP SWAP2 SWAP1 POP JUMP JUMPDEST PUSH0 PUSH2 0x60B PUSH2 0x606 PUSH2 0x601 DUP5 PUSH2 0x434 JUMP JUMPDEST PUSH2 0x5E8 JUMP JUMPDEST PUSH2 0x434 JUMP JUMPDEST SWAP1 POP SWAP2 SWAP1 POP JUMP JUMPDEST PUSH0 DUP2 SWAP1 POP SWAP2 SWAP1 POP JUMP JUMPDEST PUSH2 0x624 DUP4 PUSH2 0x5F1 JUMP JUMPDEST PUSH2 0x638 PUSH2 0x630 DUP3 PUSH2 0x612 JUMP JUMPDEST DUP5 DUP5 SLOAD PUSH2 0x597 JUMP JUMPDEST DUP3 SSTORE POP POP POP POP JUMP JUMPDEST PUSH0 PUSH0 SWAP1 POP SWAP1 JUMP JUMPDEST PUSH2 0x64F PUSH2 0x640 JUMP JUMPDEST PUSH2 0x65A DUP2 DUP5 DUP5 PUSH2 0x61B JUMP JUMPDEST POP POP POP JUMP JUMPDEST JUMPDEST DUP2 DUP2 LT ISZERO PUSH2 0x67D JUMPI PUSH2 0x672 PUSH0 DUP3 PUSH2 0x647 JUMP JUMPDEST PUSH1 0x1 DUP2 ADD SWAP1 POP PUSH2 0x660 JUMP JUMPDEST POP POP JUMP JUMPDEST PUSH1 0x1F DUP3 GT ISZERO PUSH2 0x6C2 JUMPI PUSH2 0x693 DUP2 PUSH2 0x56A JUMP JUMPDEST PUSH2 0x69C DUP5 PUSH2 0x57C JUMP JUMPDEST DUP2 ADD PUSH1 0x20 DUP6 LT ISZERO PUSH2 0x6AB JUMPI DUP2 SWAP1 POP JUMPDEST PUSH2 0x6BF PUSH2 0x6B7 DUP6 PUSH2 0x57C JUMP JUMPDEST DUP4 ADD DUP3 PUSH2 0x65F JUMP JUMPDEST POP POP JUMPDEST POP POP POP JUMP JUMPDEST PUSH0 DUP3 DUP3 SHR SWAP1 POP SWAP3 SWAP2 POP POP JUMP JUMPDEST PUSH0 PUSH2 0x6E2 PUSH0 NOT DUP5 PUSH1 0x8 MUL PUSH2 0x6C7 JUMP JUMPDEST NOT DUP1 DUP4 AND SWAP2 POP POP SWAP3 SWAP2 POP POP JUMP JUMPDEST PUSH0 PUSH2 0x6FA DUP4 DUP4 PUSH2 0x6D3 JUMP JUMPDEST SWAP2 POP DUP3 PUSH1 0x2 MUL DUP3 OR SWAP1 POP SWAP3 SWAP2 POP POP JUMP JUMPDEST PUSH2 0x713 DUP3 PUSH2 0x503 JUMP JUMPDEST PUSH8 0xFFFFFFFFFFFFFFFF DUP2 GT ISZERO PUSH2 0x72C JUMPI PUSH2 0x72B PUSH2 0x310 JUMP JUMPDEST JUMPDEST PUSH2 0x736 DUP3 SLOAD PUSH2 0x53A JUMP JUMPDEST PUSH2 0x741 DUP3 DUP3 DUP6 PUSH2 0x681 JUMP JUMPDEST PUSH0 PUSH1 0x20 SWAP1 POP PUSH1 0x1F DUP4 GT PUSH1 0x1 DUP2 EQ PUSH2 0x772 JUMPI PUSH0 DUP5 ISZERO PUSH2 0x760 JUMPI DUP3 DUP8 ADD MLOAD SWAP1 POP JUMPDEST PUSH2 0x76A DUP6 DUP3 PUSH2 0x6EF JUMP JUMPDEST DUP7 SSTORE POP PUSH2 0x7D1 JUMP JUMPDEST PUSH1 0x1F NOT DUP5 AND PUSH2 0x780 DUP7 PUSH2 0x56A JUMP JUMPDEST PUSH0 JUMPDEST DUP3 DUP2 LT ISZERO PUSH2 0x7A7 JUMPI DUP5 DUP10 ADD MLOAD DUP3 SSTORE PUSH1 0x1 DUP3 ADD SWAP2 POP PUSH1 0x20 DUP6 ADD SWAP5 POP PUSH1 0x20 DUP2 ADD SWAP1 POP PUSH2 0x782 JUMP JUMPDEST DUP7 DUP4 LT ISZERO PUSH2 0x7C4 JUMPI DUP5 DUP10 ADD MLOAD PUSH2 0x7C0 PUSH1 0x1F DUP10 AND DUP3 PUSH2 0x6D3 JUMP JUMPDEST DUP4 SSTORE POP JUMPDEST PUSH1 0x1 PUSH1 0x2 DUP9 MUL ADD DUP9 SSTORE POP POP POP JUMPDEST POP POP POP POP POP POP JUMP JUMPDEST PUSH32 0x4E487B7100000000000000000000000000000000000000000000000000000000 PUSH0 MSTORE PUSH1 0x11 PUSH1 0x4 MSTORE PUSH1 0x24 PUSH0 REVERT JUMPDEST PUSH0 DUP2 PUSH1 0x1 SHR SWAP1 POP SWAP2 SWAP1 POP JUMP JUMPDEST PUSH0 PUSH0 DUP3 SWAP2 POP DUP4 SWAP1 POP JUMPDEST PUSH1 0x1 DUP6 GT ISZERO PUSH2 0x85B JUMPI DUP1 DUP7 DIV DUP2 GT ISZERO PUSH2 0x837 JUMPI PUSH2 0x836 PUSH2 0x7D9 JUMP JUMPDEST JUMPDEST PUSH1 0x1 DUP6 AND ISZERO PUSH2 0x846 JUMPI DUP1 DUP3 MUL SWAP2 POP JUMPDEST DUP1 DUP2 MUL SWAP1 POP PUSH2 0x854 DUP6 PUSH2 0x806 JUMP JUMPDEST SWAP5 POP PUSH2 0x81B JUMP JUMPDEST SWAP5 POP SWAP5 SWAP3 POP POP POP JUMP JUMPDEST PUSH0 DUP3 PUSH2 0x873 JUMPI PUSH1 0x1 SWAP1 POP PUSH2 0x92E JUMP JUMPDEST DUP2 PUSH2 0x880 JUMPI PUSH0 SWAP1 POP PUSH2 0x92E JUMP JUMPDEST DUP2 PUSH1 0x1 DUP2 EQ PUSH2 0x896 JUMPI PUSH1 0x2 DUP2 EQ PUSH2 0x8A0 JUMPI PUSH2 0x8CF JUMP JUMPDEST PUSH1 0x1 SWAP2 POP POP PUSH2 0x92E JUMP JUMPDEST PUSH1 0xFF DUP5 GT ISZERO PUSH2 0x8B2 JUMPI PUSH2 0x8B1 PUSH2 0x7D9 JUMP JUMPDEST JUMPDEST DUP4 PUSH1 0x2 EXP SWAP2 POP DUP5 DUP3 GT ISZERO PUSH2 0x8C9 JUMPI PUSH2 0x8C8 PUSH2 0x7D9 JUMP JUMPDEST JUMPDEST POP PUSH2 0x92E JUMP JUMPDEST POP PUSH1 0x20 DUP4 LT PUSH2 0x133 DUP4 LT AND PUSH1 0x4E DUP5 LT PUSH1 0xB DUP5 LT AND OR ISZERO PUSH2 0x904 JUMPI DUP3 DUP3 EXP SWAP1 POP DUP4 DUP2 GT ISZERO PUSH2 0x8FF JUMPI PUSH2 0x8FE PUSH2 0x7D9 JUMP JUMPDEST JUMPDEST PUSH2 0x92E JUMP JUMPDEST PUSH2 0x911 DUP5 DUP5 DUP5 PUSH1 0x1 PUSH2 0x812 JUMP JUMPDEST SWAP3 POP SWAP1 POP DUP2 DUP5 DIV DUP2 GT ISZERO PUSH2 0x928 JUMPI PUSH2 0x927 PUSH2 0x7D9 JUMP JUMPDEST JUMPDEST DUP2 DUP2 MUL SWAP1 POP JUMPDEST SWAP4 SWAP3 POP POP POP JUMP JUMPDEST PUSH0 PUSH2 0x93F DUP3 PUSH2 0x434 JUMP JUMPDEST SWAP2 POP PUSH2 0x94A DUP4 PUSH2 0x434 JUMP JUMPDEST SWAP3 POP PUSH2 0x977 PUSH32 0xFFFFFFFFFFFFFFFFFFFFFFFFFFFFFFFFFFFFFFFFFFFFFFFFFFFFFFFFFFFFFFFF DUP5 DUP5 PUSH2 0x864 JUMP JUMPDEST SWAP1 POP SWAP3 SWAP2 POP POP JUMP JUMPDEST PUSH0 PUSH2 0x989 DUP3 PUSH2 0x434 JUMP JUMPDEST SWAP2 POP PUSH2 0x994 DUP4 PUSH2 0x434 JUMP JUMPDEST SWAP3 POP DUP3 DUP3 MUL PUSH2 0x9A2 DUP2 PUSH2 0x434 JUMP JUMPDEST SWAP2 POP DUP3 DUP3 DIV DUP5 EQ DUP4 ISZERO OR PUSH2 0x9B9 JUMPI PUSH2 0x9B8 PUSH2 0x7D9 JUMP JUMPDEST JUMPDEST POP SWAP3 SWAP2 POP POP JUMP JUMPDEST PUSH0 DUP3 DUP3 MSTORE PUSH1 0x20 DUP3 ADD SWAP1 POP SWAP3 SWAP2 POP POP JUMP JUMPDEST PUSH32 0x496E76616C696420616464726573730000000000000000000000000000000000 PUSH0 DUP3 ADD MSTORE POP JUMP JUMPDEST PUSH0 PUSH2 0xA04 PUSH1 0xF DUP4 PUSH2 0x9C0 JUMP JUMPDEST SWAP2 POP PUSH2 0xA0F DUP3 PUSH2 0x9D0 JUMP JUMPDEST PUSH1 0x20 DUP3 ADD SWAP1 POP SWAP2 SWAP1 POP JUMP JUMPDEST PUSH0 PUSH1 0x20 DUP3 ADD SWAP1 POP DUP2 DUP2 SUB PUSH0 DUP4 ADD MSTORE PUSH2 0xA31 DUP2 PUSH2 0x9F8 JUMP JUMPDEST SWAP1 POP SWAP2 SWAP1 POP JUMP JUMPDEST PUSH0 PUSH2 0xA42 DUP3 PUSH2 0x434 JUMP JUMPDEST SWAP2 POP PUSH2 0xA4D DUP4 PUSH2 0x434 JUMP JUMPDEST SWAP3 POP DUP3 DUP3 ADD SWAP1 POP DUP1 DUP3 GT ISZERO PUSH2 0xA65 JUMPI PUSH2 0xA64 PUSH2 0x7D9 JUMP JUMPDEST JUMPDEST SWAP3 SWAP2 POP POP JUMP JUMPDEST PUSH2 0xA74 DUP2 PUSH2 0x434 JUMP JUMPDEST DUP3 MSTORE POP POP JUMP JUMPDEST PUSH0 PUSH1 0x20 DUP3 ADD SWAP1 POP PUSH2 0xA8D PUSH0 DUP4 ADD DUP5 PUSH2 0xA6B JUMP JUMPDEST SWAP3 SWAP2 POP POP JUMP JUMPDEST PUSH1 0x80 MLOAD PUSH2 0x2497 PUSH2 0xAB2 PUSH0 CODECOPY PUSH0 DUP2 DUP2 PUSH2 0x678 ADD MSTORE PUSH2 0x897 ADD MSTORE PUSH2 0x2497 PUSH0 RETURN INVALID PUSH1 0x80 PUSH1 0x40 MSTORE CALLVALUE DUP1 ISZERO PUSH2 0xF JUMPI PUSH0 PUSH0 REVERT JUMPDEST POP PUSH1 0x4 CALLDATASIZE LT PUSH2 0x12A JUMPI PUSH0 CALLDATALOAD PUSH1 0xE0 SHR DUP1 PUSH4 0x70A08231 GT PUSH2 0xAB JUMPI DUP1 PUSH4 0xA9059CBB GT PUSH2 0x6F JUMPI DUP1 PUSH4 0xA9059CBB EQ PUSH2 0x2FA JUMPI DUP1 PUSH4 0xB1C25586 EQ PUSH2 0x32A JUMPI DUP1 PUSH4 0xC62B3BEA EQ PUSH2 0x346 JUMPI DUP1 PUSH4 0xDBED1E88 EQ PUSH2 0x362 JUMPI DUP1 PUSH4 0xDD62ED3E EQ PUSH2 0x392 JUMPI PUSH2 0x12A JUMP JUMPDEST DUP1 PUSH4 0x70A08231 EQ PUSH2 0x266 JUMPI DUP1 PUSH4 0x72DD529B EQ PUSH2 0x296 JUMPI DUP1 PUSH4 0x8456CB59 EQ PUSH2 0x2B4 JUMPI DUP1 PUSH4 0x8DA5CB5B EQ PUSH2 0x2BE JUMPI DUP1 PUSH4 0x95D89B41 EQ PUSH2 0x2DC JUMPI PUSH2 0x12A JUMP JUMPDEST DUP1 PUSH4 0x3F4BA83A GT PUSH2 0xF2 JUMPI DUP1 PUSH4 0x3F4BA83A EQ PUSH2 0x1E8 JUMPI DUP1 PUSH4 0x40C10F19 EQ PUSH2 0x1F2 JUMPI DUP1 PUSH4 0x42966C68 EQ PUSH2 0x20E JUMPI DUP1 PUSH4 0x5C975ABB EQ PUSH2 0x22A JUMPI DUP1 PUSH4 0x6C9230DB EQ PUSH2 0x248 JUMPI PUSH2 0x12A JUMP JUMPDEST DUP1 PUSH4 0x6FDDE03 EQ PUSH2 0x12E JUMPI DUP1 PUSH4 0x95EA7B3 EQ PUSH2 0x14C JUMPI DUP1 PUSH4 0x23B872DD EQ PUSH2 0x17C JUMPI DUP1 PUSH4 0x313CE567 EQ PUSH2 0x1AC JUMPI DUP1 PUSH4 0x355274EA EQ PUSH2 0x1CA JUMPI JUMPDEST PUSH0 PUSH0 REVERT JUMPDEST PUSH2 0x136 PUSH2 0x3C2 JUMP JUMPDEST PUSH1 0x40 MLOAD PUSH2 0x143 SWAP2 SWAP1 PUSH2 0x197D JUMP JUMPDEST PUSH1 0x40 MLOAD DUP1 SWAP2 SUB SWAP1 RETURN JUMPDEST PUSH2 0x166 PUSH1 0x4 DUP1 CALLDATASIZE SUB DUP2 ADD SWAP1 PUSH2 0x161 SWAP2 SWAP1 PUSH2 0x1A2E JUMP JUMPDEST PUSH2 0x44D JUMP JUMPDEST PUSH1 0x40 MLOAD PUSH2 0x173 SWAP2 SWAP1 PUSH2 0x1A86 JUMP JUMPDEST PUSH1 0x40 MLOAD DUP1 SWAP2 SUB SWAP1 RETURN JUMPDEST PUSH2 0x196 PUSH1 0x4 DUP1 CALLDATASIZE SUB DUP2 ADD SWAP1 PUSH2 0x191 SWAP2 SWAP1 PUSH2 0x1A9F JUMP JUMPDEST PUSH2 0x4B3 JUMP JUMPDEST PUSH1 0x40 MLOAD PUSH2 0x1A3 SWAP2 SWAP1 PUSH2 0x1A86 JUMP JUMPDEST PUSH1 0x40 MLOAD DUP1 SWAP2 SUB SWAP1 RETURN JUMPDEST PUSH2 0x1B4 PUSH2 0x663 JUMP JUMPDEST PUSH1 0x40 MLOAD PUSH2 0x1C1 SWAP2 SWAP1 PUSH2 0x1B0A JUMP JUMPDEST PUSH1 0x40 MLOAD DUP1 SWAP2 SUB SWAP1 RETURN JUMPDEST PUSH2 0x1D2 PUSH2 0x675 JUMP JUMPDEST PUSH1 0x40 MLOAD PUSH2 0x1DF SWAP2 SWAP1 PUSH2 0x1B32 JUMP JUMPDEST PUSH1 0x40 MLOAD DUP1 SWAP2 SUB SWAP1 RETURN JUMPDEST PUSH2 0x1F0 PUSH2 0x69C JUMP JUMPDEST STOP JUMPDEST PUSH2 0x20C PUSH1 0x4 DUP1 CALLDATASIZE SUB DUP2 ADD SWAP1 PUSH2 0x207 SWAP2 SWAP1 PUSH2 0x1A2E JUMP JUMPDEST PUSH2 0x78A JUMP JUMPDEST STOP JUMPDEST PUSH2 0x228 PUSH1 0x4 DUP1 CALLDATASIZE SUB DUP2 ADD SWAP1 PUSH2 0x223 SWAP2 SWAP1 PUSH2 0x1B4B JUMP JUMPDEST PUSH2 0x93C JUMP JUMPDEST STOP JUMPDEST PUSH2 0x232 PUSH2 0xA19 JUMP JUMPDEST PUSH1 0x40 MLOAD PUSH2 0x23F SWAP2 SWAP1 PUSH2 0x1A86 JUMP JUMPDEST PUSH1 0x40 MLOAD DUP1 SWAP2 SUB SWAP1 RETURN JUMPDEST PUSH2 0x250 PUSH2 0xA2C JUMP JUMPDEST PUSH1 0x40 MLOAD PUSH2 0x25D SWAP2 SWAP1 PUSH2 0x1B32 JUMP JUMPDEST PUSH1 0x40 MLOAD DUP1 SWAP2 SUB SWAP1 RETURN JUMPDEST PUSH2 0x280 PUSH1 0x4 DUP1 CALLDATASIZE SUB DUP2 ADD SWAP1 PUSH2 0x27B SWAP2 SWAP1 PUSH2 0x1B76 JUMP JUMPDEST PUSH2 0xA33 JUMP JUMPDEST PUSH1 0x40 MLOAD PUSH2 0x28D SWAP2 SWAP1 PUSH2 0x1B32 JUMP JUMPDEST PUSH1 0x40 MLOAD DUP1 SWAP2 SUB SWAP1 RETURN JUMPDEST PUSH2 0x29E PUSH2 0xA79 JUMP JUMPDEST PUSH1 0x40 MLOAD PUSH2 0x2AB SWAP2 SWAP1 PUSH2 0x1B32 JUMP JUMPDEST PUSH1 0x40 MLOAD DUP1 SWAP2 SUB SWAP1 RETURN JUMPDEST PUSH2 0x2BC PUSH2 0xA82 JUMP JUMPDEST STOP JUMPDEST PUSH2 0x2C6 PUSH2 0xB71 JUMP JUMPDEST PUSH1 0x40 MLOAD PUSH2 0x2D3 SWAP2 SWAP1 PUSH2 0x1BB0 JUMP JUMPDEST PUSH1 0x40 MLOAD DUP1 SWAP2 SUB SWAP1 RETURN JUMPDEST PUSH2 0x2E4 PUSH2 0xB96 JUMP JUMPDEST PUSH1 0x40 MLOAD PUSH2 0x2F1 SWAP2 SWAP1 PUSH2 0x197D JUMP JUMPDEST PUSH1 0x40 MLOAD DUP1 SWAP2 SUB SWAP1 RETURN JUMPDEST PUSH2 0x314 PUSH1 0x4 DUP1 CALLDATASIZE SUB DUP2 ADD SWAP1 PUSH2 0x30F SWAP2 SWAP1 PUSH2 0x1A2E JUMP JUMPDEST PUSH2 0xC22 JUMP JUMPDEST PUSH1 0x40 MLOAD PUSH2 0x321 SWAP2 SWAP1 PUSH2 0x1A86 JUMP JUMPDEST PUSH1 0x40 MLOAD DUP1 SWAP2 SUB SWAP1 RETURN JUMPDEST PUSH2 0x344 PUSH1 0x4 DUP1 CALLDATASIZE SUB DUP2 ADD SWAP1 PUSH2 0x33F SWAP2 SWAP1 PUSH2 0x1A2E JUMP JUMPDEST PUSH2 0xD0A JUMP JUMPDEST STOP JUMPDEST PUSH2 0x360 PUSH1 0x4 DUP1 CALLDATASIZE SUB DUP2 ADD SWAP1 PUSH2 0x35B SWAP2 SWAP1 PUSH2 0x1A2E JUMP JUMPDEST PUSH2 0xE7F JUMP JUMPDEST STOP JUMPDEST PUSH2 0x37C PUSH1 0x4 DUP1 CALLDATASIZE SUB DUP2 ADD SWAP1 PUSH2 0x377 SWAP2 SWAP1 PUSH2 0x1B76 JUMP JUMPDEST PUSH2 0x1026 JUMP JUMPDEST PUSH1 0x40 MLOAD PUSH2 0x389 SWAP2 SWAP1 PUSH2 0x1B32 JUMP JUMPDEST PUSH1 0x40 MLOAD DUP1 SWAP2 SUB SWAP1 RETURN JUMPDEST PUSH2 0x3AC PUSH1 0x4 DUP1 CALLDATASIZE SUB DUP2 ADD SWAP1 PUSH2 0x3A7 SWAP2 SWAP1 PUSH2 0x1BC9 JUMP JUMPDEST PUSH2 0x106C JUMP JUMPDEST PUSH1 0x40 MLOAD PUSH2 0x3B9 SWAP2 SWAP1 PUSH2 0x1B32 JUMP JUMPDEST PUSH1 0x40 MLOAD DUP1 SWAP2 SUB SWAP1 RETURN JUMPDEST PUSH0 DUP1 SLOAD PUSH2 0x3CE SWAP1 PUSH2 0x1C34 JUMP JUMPDEST DUP1 PUSH1 0x1F ADD PUSH1 0x20 DUP1 SWAP2 DIV MUL PUSH1 0x20 ADD PUSH1 0x40 MLOAD SWAP1 DUP2 ADD PUSH1 0x40 MSTORE DUP1 SWAP3 SWAP2 SWAP1 DUP2 DUP2 MSTORE PUSH1 0x20 ADD DUP3 DUP1 SLOAD PUSH2 0x3FA SWAP1 PUSH2 0x1C34 JUMP JUMPDEST DUP1 ISZERO PUSH2 0x445 JUMPI DUP1 PUSH1 0x1F LT PUSH2 0x41C JUMPI PUSH2 0x100 DUP1 DUP4 SLOAD DIV MUL DUP4 MSTORE SWAP2 PUSH1 0x20 ADD SWAP2 PUSH2 0x445 JUMP JUMPDEST DUP3 ADD SWAP2 SWAP1 PUSH0 MSTORE PUSH1 0x20 PUSH0 KECCAK256 SWAP1 JUMPDEST DUP2 SLOAD DUP2 MSTORE SWAP1 PUSH1 0x1 ADD SWAP1 PUSH1 0x20 ADD DUP1 DUP4 GT PUSH2 0x428 JUMPI DUP3 SWAP1 SUB PUSH1 0x1F AND DUP3 ADD SWAP2 JUMPDEST POP POP POP POP POP DUP2 JUMP JUMPDEST PUSH0 PUSH1 0x4 PUSH1 0x14 SWAP1 SLOAD SWAP1 PUSH2 0x100 EXP SWAP1 DIV PUSH1 0xFF AND ISZERO PUSH2 0x49E JUMPI PUSH1 0x40 MLOAD PUSH32 0x8C379A000000000000000000000000000000000000000000000000000000000 DUP2 MSTORE PUSH1 0x4 ADD PUSH2 0x495 SWAP1 PUSH2 0x1CAE JUMP JUMPDEST PUSH1 0x40 MLOAD DUP1 SWAP2 SUB SWAP1 REVERT JUMPDEST PUSH2 0x4A9 CALLER DUP5 DUP5 PUSH2 0x113E JUMP JUMPDEST PUSH1 0x1 SWAP1 POP SWAP3 SWAP2 POP POP JUMP JUMPDEST PUSH0 PUSH1 0x4 PUSH1 0x14 SWAP1 SLOAD SWAP1 PUSH2 0x100 EXP SWAP1 DIV PUSH1 0xFF AND ISZERO PUSH2 0x504 JUMPI PUSH1 0x40 MLOAD PUSH32 0x8C379A000000000000000000000000000000000000000000000000000000000 DUP2 MSTORE PUSH1 0x4 ADD PUSH2 0x4FB SWAP1 PUSH2 0x1CAE JUMP JUMPDEST PUSH1 0x40 MLOAD DUP1 SWAP2 SUB SWAP1 REVERT JUMPDEST DUP2 PUSH1 0x6 PUSH0 DUP7 PUSH20 0xFFFFFFFFFFFFFFFFFFFFFFFFFFFFFFFFFFFFFFFF AND PUSH20 0xFFFFFFFFFFFFFFFFFFFFFFFFFFFFFFFFFFFFFFFF AND DUP2 MSTORE PUSH1 0x20 ADD SWAP1 DUP2 MSTORE PUSH1 0x20 ADD PUSH0 KECCAK256 PUSH0 CALLER PUSH20 0xFFFFFFFFFFFFFFFFFFFFFFFFFFFFFFFFFFFFFFFF AND PUSH20 0xFFFFFFFFFFFFFFFFFFFFFFFFFFFFFFFFFFFFFFFF AND DUP2 MSTORE PUSH1 0x20 ADD SWAP1 DUP2 MSTORE PUSH1 0x20 ADD PUSH0 KECCAK256 SLOAD LT ISZERO PUSH2 0x5BF JUMPI PUSH1 0x40 MLOAD PUSH32 0x8C379A000000000000000000000000000000000000000000000000000000000 DUP2 MSTORE PUSH1 0x4 ADD PUSH2 0x5B6 SWAP1 PUSH2 0x1D16 JUMP JUMPDEST PUSH1 0x40 MLOAD DUP1 SWAP2 SUB SWAP1 REVERT JUMPDEST DUP2 PUSH1 0x6 PUSH0 DUP7 PUSH20 0xFFFFFFFFFFFFFFFFFFFFFFFFFFFFFFFFFFFFFFFF AND PUSH20 0xFFFFFFFFFFFFFFFFFFFFFFFFFFFFFFFFFFFFFFFF AND DUP2 MSTORE PUSH1 0x20 ADD SWAP1 DUP2 MSTORE PUSH1 0x20 ADD PUSH0 KECCAK256 PUSH0 CALLER PUSH20 0xFFFFFFFFFFFFFFFFFFFFFFFFFFFFFFFFFFFFFFFF AND PUSH20 0xFFFFFFFFFFFFFFFFFFFFFFFFFFFFFFFFFFFFFFFF AND DUP2 MSTORE PUSH1 0x20 ADD SWAP1 DUP2 MSTORE PUSH1 0x20 ADD PUSH0 KECCAK256 PUSH0 DUP3 DUP3 SLOAD PUSH2 0x646 SWAP2 SWAP1 PUSH2 0x1D61 JUMP JUMPDEST SWAP3 POP POP DUP2 SWAP1 SSTORE POP PUSH2 0x658 DUP5 DUP5 DUP5 PUSH2 0x1301 JUMP JUMPDEST PUSH1 0x1 SWAP1 POP SWAP4 SWAP3 POP POP POP JUMP JUMPDEST PUSH1 0x2 PUSH0 SWAP1 SLOAD SWAP1 PUSH2 0x100 EXP SWAP1 DIV PUSH1 0xFF AND DUP2 JUMP JUMPDEST PUSH0 PUSH32 0x0 SWAP1 POP SWAP1 JUMP JUMPDEST PUSH1 0x4 PUSH0 SWAP1 SLOAD SWAP1 PUSH2 0x100 EXP SWAP1 DIV PUSH20 0xFFFFFFFFFFFFFFFFFFFFFFFFFFFFFFFFFFFFFFFF AND PUSH20 0xFFFFFFFFFFFFFFFFFFFFFFFFFFFFFFFFFFFFFFFF AND CALLER PUSH20 0xFFFFFFFFFFFFFFFFFFFFFFFFFFFFFFFFFFFFFFFF AND EQ PUSH2 0x72B JUMPI PUSH1 0x40 MLOAD PUSH32 0x8C379A000000000000000000000000000000000000000000000000000000000 DUP2 MSTORE PUSH1 0x4 ADD PUSH2 0x722 SWAP1 PUSH2 0x1DDE JUMP JUMPDEST PUSH1 0x40 MLOAD DUP1 SWAP2 SUB SWAP1 REVERT JUMPDEST PUSH0 PUSH1 0x4 PUSH1 0x14 PUSH2 0x100 EXP DUP2 SLOAD DUP2 PUSH1 0xFF MUL NOT AND SWAP1 DUP4 ISZERO ISZERO MUL OR SWAP1 SSTORE POP CALLER PUSH20 0xFFFFFFFFFFFFFFFFFFFFFFFFFFFFFFFFFFFFFFFF AND PUSH32 0x5DB9EE0A495BF2E6FF9C91A7834C1BA4FDD244A5E8AA4E537BD38AEAE4B073AA PUSH1 0x40 MLOAD PUSH1 0x40 MLOAD DUP1 SWAP2 SUB SWAP1 LOG2 JUMP JUMPDEST PUSH1 0x4 PUSH0 SWAP1 SLOAD SWAP1 PUSH2 0x100 EXP SWAP1 DIV PUSH20 0xFFFFFFFFFFFFFFFFFFFFFFFFFFFFFFFFFFFFFFFF AND PUSH20 0xFFFFFFFFFFFFFFFFFFFFFFFFFFFFFFFFFFFFFFFF AND CALLER PUSH20 0xFFFFFFFFFFFFFFFFFFFFFFFFFFFFFFFFFFFFFFFF AND EQ PUSH2 0x819 JUMPI PUSH1 0x40 MLOAD PUSH32 0x8C379A000000000000000000000000000000000000000000000000000000000 DUP2 MSTORE PUSH1 0x4 ADD PUSH2 0x810 SWAP1 PUSH2 0x1DDE JUMP JUMPDEST PUSH1 0x40 MLOAD DUP1 SWAP2 SUB SWAP1 REVERT JUMPDEST PUSH1 0x4 PUSH1 0x14 SWAP1 SLOAD SWAP1 PUSH2 0x100 EXP SWAP1 DIV PUSH1 0xFF AND ISZERO PUSH2 0x869 JUMPI PUSH1 0x40 MLOAD PUSH32 0x8C379A000000000000000000000000000000000000000000000000000000000 DUP2 MSTORE PUSH1 0x4 ADD PUSH2 0x860 SWAP1 PUSH2 0x1CAE JUMP JUMPDEST PUSH1 0x40 MLOAD DUP1 SWAP2 SUB SWAP1 REVERT JUMPDEST PUSH0 PUSH1 0x2 PUSH0 SWAP1 SLOAD SWAP1 PUSH2 0x100 EXP SWAP1 DIV PUSH1 0xFF AND PUSH1 0xFF AND PUSH1 0xA PUSH2 0x888 SWAP2 SWAP1 PUSH2 0x1F2B JUMP JUMPDEST DUP3 PUSH2 0x893 SWAP2 SWAP1 PUSH2 0x1F75 JUMP JUMPDEST SWAP1 POP PUSH32 0x0 DUP2 PUSH1 0x3 SLOAD PUSH2 0x8C4 SWAP2 SWAP1 PUSH2 0x1FB6 JUMP JUMPDEST GT ISZERO PUSH2 0x905 JUMPI PUSH1 0x40 MLOAD PUSH32 0x8C379A000000000000000000000000000000000000000000000000000000000 DUP2 MSTORE PUSH1 0x4 ADD PUSH2 0x8FC SWAP1 PUSH2 0x2033 JUMP JUMPDEST PUSH1 0x40 MLOAD DUP1 SWAP2 SUB SWAP1 REVERT JUMPDEST PUSH2 0x937 DUP4 PUSH1 0x2 PUSH0 SWAP1 SLOAD SWAP1 PUSH2 0x100 EXP SWAP1 DIV PUSH1 0xFF AND PUSH1 0xFF AND PUSH1 0xA PUSH2 0x927 SWAP2 SWAP1 PUSH2 0x1F2B JUMP JUMPDEST DUP5 PUSH2 0x932 SWAP2 SWAP1 PUSH2 0x1F75 JUMP JUMPDEST PUSH2 0x156D JUMP JUMPDEST POP POP POP JUMP JUMPDEST PUSH1 0x4 PUSH1 0x14 SWAP1 SLOAD SWAP1 PUSH2 0x100 EXP SWAP1 DIV PUSH1 0xFF AND ISZERO PUSH2 0x98C JUMPI PUSH1 0x40 MLOAD PUSH32 0x8C379A000000000000000000000000000000000000000000000000000000000 DUP2 MSTORE PUSH1 0x4 ADD PUSH2 0x983 SWAP1 PUSH2 0x1CAE JUMP JUMPDEST PUSH1 0x40 MLOAD DUP1 SWAP2 SUB SWAP1 REVERT JUMPDEST DUP1 PUSH1 0x5 PUSH0 CALLER PUSH20 0xFFFFFFFFFFFFFFFFFFFFFFFFFFFFFFFFFFFFFFFF AND PUSH20 0xFFFFFFFFFFFFFFFFFFFFFFFFFFFFFFFFFFFFFFFF AND DUP2 MSTORE PUSH1 0x20 ADD SWAP1 DUP2 MSTORE PUSH1 0x20 ADD PUSH0 KECCAK256 SLOAD LT ISZERO PUSH2 0xA0C JUMPI PUSH1 0x40 MLOAD PUSH32 0x8C379A000000000000000000000000000000000000000000000000000000000 DUP2 MSTORE PUSH1 0x4 ADD PUSH2 0xA03 SWAP1 PUSH2 0x209B JUMP JUMPDEST PUSH1 0x40 MLOAD DUP1 SWAP2 SUB SWAP1 REVERT JUMPDEST PUSH2 0xA16 CALLER DUP3 PUSH2 0x16FD JUMP JUMPDEST POP JUMP JUMPDEST PUSH1 0x4 PUSH1 0x14 SWAP1 SLOAD SWAP1 PUSH2 0x100 EXP SWAP1 DIV PUSH1 0xFF AND DUP2 JUMP JUMPDEST PUSH0 TIMESTAMP SWAP1 POP SWAP1 JUMP JUMPDEST PUSH0 PUSH1 0x5 PUSH0 DUP4 PUSH20 0xFFFFFFFFFFFFFFFFFFFFFFFFFFFFFFFFFFFFFFFF AND PUSH20 0xFFFFFFFFFFFFFFFFFFFFFFFFFFFFFFFFFFFFFFFF AND DUP2 MSTORE PUSH1 0x20 ADD SWAP1 DUP2 MSTORE PUSH1 0x20 ADD PUSH0 KECCAK256 SLOAD SWAP1 POP SWAP2 SWAP1 POP JUMP JUMPDEST PUSH0 PUSH1 0x3 SLOAD SWAP1 POP SWAP1 JUMP JUMPDEST PUSH1 0x4 PUSH0 SWAP1 SLOAD SWAP1 PUSH2 0x100 EXP SWAP1 DIV PUSH20 0xFFFFFFFFFFFFFFFFFFFFFFFFFFFFFFFFFFFFFFFF AND PUSH20 0xFFFFFFFFFFFFFFFFFFFFFFFFFFFFFFFFFFFFFFFF AND CALLER PUSH20 0xFFFFFFFFFFFFFFFFFFFFFFFFFFFFFFFFFFFFFFFF AND EQ PUSH2 0xB11 JUMPI PUSH1 0x40 MLOAD PUSH32 0x8C379A000000000000000000000000000000000000000000000000000000000 DUP2 MSTORE PUSH1 0x4 ADD PUSH2 0xB08 SWAP1 PUSH2 0x1DDE JUMP JUMPDEST PUSH1 0x40 MLOAD DUP1 SWAP2 SUB SWAP1 REVERT JUMPDEST PUSH1 0x1 PUSH1 0x4 PUSH1 0x14 PUSH2 0x100 EXP DUP2 SLOAD DUP2 PUSH1 0xFF MUL NOT AND SWAP1 DUP4 ISZERO ISZERO MUL OR SWAP1 SSTORE POP CALLER PUSH20 0xFFFFFFFFFFFFFFFFFFFFFFFFFFFFFFFFFFFFFFFF AND PUSH32 0x62E78CEA01BEE320CD4E420270B5EA74000D11B0C9F74754EBDBFC544B05A258 PUSH1 0x40 MLOAD PUSH1 0x40 MLOAD DUP1 SWAP2 SUB SWAP1 LOG2 JUMP JUMPDEST PUSH1 0x4 PUSH0 SWAP1 SLOAD SWAP1 PUSH2 0x100 EXP SWAP1 DIV PUSH20 0xFFFFFFFFFFFFFFFFFFFFFFFFFFFFFFFFFFFFFFFF AND DUP2 JUMP JUMPDEST PUSH1 0x1 DUP1 SLOAD PUSH2 0xBA3 SWAP1 PUSH2 0x1C34 JUMP JUMPDEST DUP1 PUSH1 0x1F ADD PUSH1 0x20 DUP1 SWAP2 DIV MUL PUSH1 0x20 ADD PUSH1 0x40 MLOAD SWAP1 DUP2 ADD PUSH1 0x40 MSTORE DUP1 SWAP3 SWAP2 SWAP1 DUP2 DUP2 MSTORE PUSH1 0x20 ADD DUP3 DUP1 SLOAD PUSH2 0xBCF SWAP1 PUSH2 0x1C34 JUMP JUMPDEST DUP1 ISZERO PUSH2 0xC1A JUMPI DUP1 PUSH1 0x1F LT PUSH2 0xBF1 JUMPI PUSH2 0x100 DUP1 DUP4 SLOAD DIV MUL DUP4 MSTORE SWAP2 PUSH1 0x20 ADD SWAP2 PUSH2 0xC1A JUMP JUMPDEST DUP3 ADD SWAP2 SWAP1 PUSH0 MSTORE PUSH1 0x20 PUSH0 KECCAK256 SWAP1 JUMPDEST DUP2 SLOAD DUP2 MSTORE SWAP1 PUSH1 0x1 ADD SWAP1 PUSH1 0x20 ADD DUP1 DUP4 GT PUSH2 0xBFD JUMPI DUP3 SWAP1 SUB PUSH1 0x1F AND DUP3 ADD SWAP2 JUMPDEST POP POP POP POP POP DUP2 JUMP JUMPDEST PUSH0 PUSH1 0x4 PUSH1 0x14 SWAP1 SLOAD SWAP1 PUSH2 0x100 EXP SWAP1 DIV PUSH1 0xFF AND ISZERO PUSH2 0xC73 JUMPI PUSH1 0x40 MLOAD PUSH32 0x8C379A000000000000000000000000000000000000000000000000000000000 DUP2 MSTORE PUSH1 0x4 ADD PUSH2 0xC6A SWAP1 PUSH2 0x1CAE JUMP JUMPDEST PUSH1 0x40 MLOAD DUP1 SWAP2 SUB SWAP1 REVERT JUMPDEST CALLER PUSH1 0x7 PUSH0 DUP3 PUSH20 0xFFFFFFFFFFFFFFFFFFFFFFFFFFFFFFFFFFFFFFFF AND PUSH20 0xFFFFFFFFFFFFFFFFFFFFFFFFFFFFFFFFFFFFFFFF AND DUP2 MSTORE PUSH1 0x20 ADD SWAP1 DUP2 MSTORE PUSH1 0x20 ADD PUSH0 KECCAK256 SLOAD TIMESTAMP LT ISZERO PUSH2 0xCF4 JUMPI PUSH1 0x40 MLOAD PUSH32 0x8C379A000000000000000000000000000000000000000000000000000000000 DUP2 MSTORE PUSH1 0x4 ADD PUSH2 0xCEB SWAP1 PUSH2 0x2103 JUMP JUMPDEST PUSH1 0x40 MLOAD DUP1 SWAP2 SUB SWAP1 REVERT JUMPDEST PUSH2 0xCFF CALLER DUP6 DUP6 PUSH2 0x1301 JUMP JUMPDEST PUSH1 0x1 SWAP2 POP POP SWAP3 SWAP2 POP POP JUMP JUMPDEST PUSH1 0x4 PUSH0 SWAP1 SLOAD SWAP1 PUSH2 0x100 EXP SWAP1 DIV PUSH20 0xFFFFFFFFFFFFFFFFFFFFFFFFFFFFFFFFFFFFFFFF AND PUSH20 0xFFFFFFFFFFFFFFFFFFFFFFFFFFFFFFFFFFFFFFFF AND CALLER PUSH20 0xFFFFFFFFFFFFFFFFFFFFFFFFFFFFFFFFFFFFFFFF AND EQ PUSH2 0xD99 JUMPI PUSH1 0x40 MLOAD PUSH32 0x8C379A000000000000000000000000000000000000000000000000000000000 DUP2 MSTORE PUSH1 0x4 ADD PUSH2 0xD90 SWAP1 PUSH2 0x1DDE JUMP JUMPDEST PUSH1 0x40 MLOAD DUP1 SWAP2 SUB SWAP1 REVERT JUMPDEST PUSH0 DUP2 TIMESTAMP PUSH2 0xDA6 SWAP2 SWAP1 PUSH2 0x1FB6 JUMP JUMPDEST SWAP1 POP TIMESTAMP DUP2 GT PUSH2 0xDEA JUMPI PUSH1 0x40 MLOAD PUSH32 0x8C379A000000000000000000000000000000000000000000000000000000000 DUP2 MSTORE PUSH1 0x4 ADD PUSH2 0xDE1 SWAP1 PUSH2 0x216B JUMP JUMPDEST PUSH1 0x40 MLOAD DUP1 SWAP2 SUB SWAP1 REVERT JUMPDEST DUP1 PUSH1 0x7 PUSH0 DUP6 PUSH20 0xFFFFFFFFFFFFFFFFFFFFFFFFFFFFFFFFFFFFFFFF AND PUSH20 0xFFFFFFFFFFFFFFFFFFFFFFFFFFFFFFFFFFFFFFFF AND DUP2 MSTORE PUSH1 0x20 ADD SWAP1 DUP2 MSTORE PUSH1 0x20 ADD PUSH0 KECCAK256 DUP2 SWAP1 SSTORE POP DUP3 PUSH20 0xFFFFFFFFFFFFFFFFFFFFFFFFFFFFFFFFFFFFFFFF AND PUSH32 0x9F1EC8C880F76798E7B793325D625E9B60E4082A553C98F42B6CDA368DD60008 DUP3 PUSH1 0x40 MLOAD PUSH2 0xE72 SWAP2 SWAP1 PUSH2 0x1B32 JUMP JUMPDEST PUSH1 0x40 MLOAD DUP1 SWAP2 SUB SWAP1 LOG2 POP POP POP JUMP JUMPDEST PUSH1 0x4 PUSH1 0x14 SWAP1 SLOAD SWAP1 PUSH2 0x100 EXP SWAP1 DIV PUSH1 0xFF AND ISZERO PUSH2 0xECF JUMPI PUSH1 0x40 MLOAD PUSH32 0x8C379A000000000000000000000000000000000000000000000000000000000 DUP2 MSTORE PUSH1 0x4 ADD PUSH2 0xEC6 SWAP1 PUSH2 0x1CAE JUMP JUMPDEST PUSH1 0x40 MLOAD DUP1 SWAP2 SUB SWAP1 REVERT JUMPDEST DUP1 PUSH1 0x6 PUSH0 DUP5 PUSH20 0xFFFFFFFFFFFFFFFFFFFFFFFFFFFFFFFFFFFFFFFF AND PUSH20 0xFFFFFFFFFFFFFFFFFFFFFFFFFFFFFFFFFFFFFFFF AND DUP2 MSTORE PUSH1 0x20 ADD SWAP1 DUP2 MSTORE PUSH1 0x20 ADD PUSH0 KECCAK256 PUSH0 CALLER PUSH20 0xFFFFFFFFFFFFFFFFFFFFFFFFFFFFFFFFFFFFFFFF AND PUSH20 0xFFFFFFFFFFFFFFFFFFFFFFFFFFFFFFFFFFFFFFFF AND DUP2 MSTORE PUSH1 0x20 ADD SWAP1 DUP2 MSTORE PUSH1 0x20 ADD PUSH0 KECCAK256 SLOAD LT ISZERO PUSH2 0xF8A JUMPI PUSH1 0x40 MLOAD PUSH32 0x8C379A000000000000000000000000000000000000000000000000000000000 DUP2 MSTORE PUSH1 0x4 ADD PUSH2 0xF81 SWAP1 PUSH2 0x21D3 JUMP JUMPDEST PUSH1 0x40 MLOAD DUP1 SWAP2 SUB SWAP1 REVERT JUMPDEST DUP1 PUSH1 0x6 PUSH0 DUP5 PUSH20 0xFFFFFFFFFFFFFFFFFFFFFFFFFFFFFFFFFFFFFFFF AND PUSH20 0xFFFFFFFFFFFFFFFFFFFFFFFFFFFFFFFFFFFFFFFF AND DUP2 MSTORE PUSH1 0x20 ADD SWAP1 DUP2 MSTORE PUSH1 0x20 ADD PUSH0 KECCAK256 PUSH0 CALLER PUSH20 0xFFFFFFFFFFFFFFFFFFFFFFFFFFFFFFFFFFFFFFFF AND PUSH20 0xFFFFFFFFFFFFFFFFFFFFFFFFFFFFFFFFFFFFFFFF AND DUP2 MSTORE PUSH1 0x20 ADD SWAP1 DUP2 MSTORE PUSH1 0x20 ADD PUSH0 KECCAK256 PUSH0 DUP3 DUP3 SLOAD PUSH2 0x1011 SWAP2 SWAP1 PUSH2 0x1D61 JUMP JUMPDEST SWAP3 POP POP DUP2 SWAP1 SSTORE POP PUSH2 0x1022 DUP3 DUP3 PUSH2 0x16FD JUMP JUMPDEST POP POP JUMP JUMPDEST PUSH0 PUSH1 0x7 PUSH0 DUP4 PUSH20 0xFFFFFFFFFFFFFFFFFFFFFFFFFFFFFFFFFFFFFFFF AND PUSH20 0xFFFFFFFFFFFFFFFFFFFFFFFFFFFFFFFFFFFFFFFF AND DUP2 MSTORE PUSH1 0x20 ADD SWAP1 DUP2 MSTORE PUSH1 0x20 ADD PUSH0 KECCAK256 SLOAD SWAP1 POP SWAP2 SWAP1 POP JUMP JUMPDEST PUSH0 PUSH1 0x4 PUSH1 0x14 SWAP1 SLOAD SWAP1 PUSH2 0x100 EXP SWAP1 DIV PUSH1 0xFF AND ISZERO PUSH2 0x10BD JUMPI PUSH1 0x40 MLOAD PUSH32 0x8C379A000000000000000000000000000000000000000000000000000000000 DUP2 MSTORE PUSH1 0x4 ADD PUSH2 0x10B4 SWAP1 PUSH2 0x1CAE JUMP JUMPDEST PUSH1 0x40 MLOAD DUP1 SWAP2 SUB SWAP1 REVERT JUMPDEST PUSH1 0x6 PUSH0 DUP5 PUSH20 0xFFFFFFFFFFFFFFFFFFFFFFFFFFFFFFFFFFFFFFFF AND PUSH20 0xFFFFFFFFFFFFFFFFFFFFFFFFFFFFFFFFFFFFFFFF AND DUP2 MSTORE PUSH1 0x20 ADD SWAP1 DUP2 MSTORE PUSH1 0x20 ADD PUSH0 KECCAK256 PUSH0 DUP4 PUSH20 0xFFFFFFFFFFFFFFFFFFFFFFFFFFFFFFFFFFFFFFFF AND PUSH20 0xFFFFFFFFFFFFFFFFFFFFFFFFFFFFFFFFFFFFFFFF AND DUP2 MSTORE PUSH1 0x20 ADD SWAP1 DUP2 MSTORE PUSH1 0x20 ADD PUSH0 KECCAK256 SLOAD SWAP1 POP SWAP3 SWAP2 POP POP JUMP JUMPDEST PUSH0 PUSH20 0xFFFFFFFFFFFFFFFFFFFFFFFFFFFFFFFFFFFFFFFF AND DUP4 PUSH20 0xFFFFFFFFFFFFFFFFFFFFFFFFFFFFFFFFFFFFFFFF AND SUB PUSH2 0x11AC JUMPI PUSH1 0x40 MLOAD PUSH32 0x8C379A000000000000000000000000000000000000000000000000000000000 DUP2 MSTORE PUSH1 0x4 ADD PUSH2 0x11A3 SWAP1 PUSH2 0x223B JUMP JUMPDEST PUSH1 0x40 MLOAD DUP1 SWAP2 SUB SWAP1 REVERT JUMPDEST PUSH0 PUSH20 0xFFFFFFFFFFFFFFFFFFFFFFFFFFFFFFFFFFFFFFFF AND DUP3 PUSH20 0xFFFFFFFFFFFFFFFFFFFFFFFFFFFFFFFFFFFFFFFF AND SUB PUSH2 0x121A JUMPI PUSH1 0x40 MLOAD PUSH32 0x8C379A000000000000000000000000000000000000000000000000000000000 DUP2 MSTORE PUSH1 0x4 ADD PUSH2 0x1211 SWAP1 PUSH2 0x22A3 JUMP JUMPDEST PUSH1 0x40 MLOAD DUP1 SWAP2 SUB SWAP1 REVERT JUMPDEST DUP1 PUSH1 0x6 PUSH0 DUP6 PUSH20 0xFFFFFFFFFFFFFFFFFFFFFFFFFFFFFFFFFFFFFFFF AND PUSH20 0xFFFFFFFFFFFFFFFFFFFFFFFFFFFFFFFFFFFFFFFF AND DUP2 MSTORE PUSH1 0x20 ADD SWAP1 DUP2 MSTORE PUSH1 0x20 ADD PUSH0 KECCAK256 PUSH0 DUP5 PUSH20 0xFFFFFFFFFFFFFFFFFFFFFFFFFFFFFFFFFFFFFFFF AND PUSH20 0xFFFFFFFFFFFFFFFFFFFFFFFFFFFFFFFFFFFFFFFF AND DUP2 MSTORE PUSH1 0x20 ADD SWAP1 DUP2 MSTORE PUSH1 0x20 ADD PUSH0 KECCAK256 DUP2 SWAP1 SSTORE POP DUP2 PUSH20 0xFFFFFFFFFFFFFFFFFFFFFFFFFFFFFFFFFFFFFFFF AND DUP4 PUSH20 0xFFFFFFFFFFFFFFFFFFFFFFFFFFFFFFFFFFFFFFFF AND PUSH32 0x8C5BE1E5EBEC7D5BD14F71427D1E84F3DD0314C0F7B2291E5B200AC8C7C3B925 DUP4 PUSH1 0x40 MLOAD PUSH2 0x12F4 SWAP2 SWAP1 PUSH2 0x1B32 JUMP JUMPDEST PUSH1 0x40 MLOAD DUP1 SWAP2 SUB SWAP1 LOG3 POP POP POP JUMP JUMPDEST PUSH0 PUSH20 0xFFFFFFFFFFFFFFFFFFFFFFFFFFFFFFFFFFFFFFFF AND DUP4 PUSH20 0xFFFFFFFFFFFFFFFFFFFFFFFFFFFFFFFFFFFFFFFF AND SUB PUSH2 0x136F JUMPI PUSH1 0x40 MLOAD PUSH32 0x8C379A000000000000000000000000000000000000000000000000000000000 DUP2 MSTORE PUSH1 0x4 ADD PUSH2 0x1366 SWAP1 PUSH2 0x230B JUMP JUMPDEST PUSH1 0x40 MLOAD DUP1 SWAP2 SUB SWAP1 REVERT JUMPDEST PUSH0 PUSH20 0xFFFFFFFFFFFFFFFFFFFFFFFFFFFFFFFFFFFFFFFF AND DUP3 PUSH20 0xFFFFFFFFFFFFFFFFFFFFFFFFFFFFFFFFFFFFFFFF AND SUB PUSH2 0x13DD JUMPI PUSH1 0x40 MLOAD PUSH32 0x8C379A000000000000000000000000000000000000000000000000000000000 DUP2 MSTORE PUSH1 0x4 ADD PUSH2 0x13D4 SWAP1 PUSH2 0x2373 JUMP JUMPDEST PUSH1 0x40 MLOAD DUP1 SWAP2 SUB SWAP1 REVERT JUMPDEST DUP1 PUSH1 0x5 PUSH0 DUP6 PUSH20 0xFFFFFFFFFFFFFFFFFFFFFFFFFFFFFFFFFFFFFFFF AND PUSH20 0xFFFFFFFFFFFFFFFFFFFFFFFFFFFFFFFFFFFFFFFF AND DUP2 MSTORE PUSH1 0x20 ADD SWAP1 DUP2 MSTORE PUSH1 0x20 ADD PUSH0 KECCAK256 SLOAD LT ISZERO PUSH2 0x145D JUMPI PUSH1 0x40 MLOAD PUSH32 0x8C379A000000000000000000000000000000000000000000000000000000000 DUP2 MSTORE PUSH1 0x4 ADD PUSH2 0x1454 SWAP1 PUSH2 0x23DB JUMP JUMPDEST PUSH1 0x40 MLOAD DUP1 SWAP2 SUB SWAP1 REVERT JUMPDEST DUP1 PUSH1 0x5 PUSH0 DUP6 PUSH20 0xFFFFFFFFFFFFFFFFFFFFFFFFFFFFFFFFFFFFFFFF AND PUSH20 0xFFFFFFFFFFFFFFFFFFFFFFFFFFFFFFFFFFFFFFFF AND DUP2 MSTORE PUSH1 0x20 ADD SWAP1 DUP2 MSTORE PUSH1 0x20 ADD PUSH0 KECCAK256 PUSH0 DUP3 DUP3 SLOAD PUSH2 0x14A9 SWAP2 SWAP1 PUSH2 0x1D61 JUMP JUMPDEST SWAP3 POP POP DUP2 SWAP1 SSTORE POP DUP1 PUSH1 0x5 PUSH0 DUP5 PUSH20 0xFFFFFFFFFFFFFFFFFFFFFFFFFFFFFFFFFFFFFFFF AND PUSH20 0xFFFFFFFFFFFFFFFFFFFFFFFFFFFFFFFFFFFFFFFF AND DUP2 MSTORE PUSH1 0x20 ADD SWAP1 DUP2 MSTORE PUSH1 0x20 ADD PUSH0 KECCAK256 PUSH0 DUP3 DUP3 SLOAD PUSH2 0x14FC SWAP2 SWAP1 PUSH2 0x1FB6 JUMP JUMPDEST SWAP3 POP POP DUP2 SWAP1 SSTORE POP DUP2 PUSH20 0xFFFFFFFFFFFFFFFFFFFFFFFFFFFFFFFFFFFFFFFF AND DUP4 PUSH20 0xFFFFFFFFFFFFFFFFFFFFFFFFFFFFFFFFFFFFFFFF AND PUSH32 0xDDF252AD1BE2C89B69C2B068FC378DAA952BA7F163C4A11628F55A4DF523B3EF DUP4 PUSH1 0x40 MLOAD PUSH2 0x1560 SWAP2 SWAP1 PUSH2 0x1B32 JUMP JUMPDEST PUSH1 0x40 MLOAD DUP1 SWAP2 SUB SWAP1 LOG3 POP POP POP JUMP JUMPDEST PUSH0 PUSH20 0xFFFFFFFFFFFFFFFFFFFFFFFFFFFFFFFFFFFFFFFF AND DUP3 PUSH20 0xFFFFFFFFFFFFFFFFFFFFFFFFFFFFFFFFFFFFFFFF AND SUB PUSH2 0x15DB JUMPI PUSH1 0x40 MLOAD PUSH32 0x8C379A000000000000000000000000000000000000000000000000000000000 DUP2 MSTORE PUSH1 0x4 ADD PUSH2 0x15D2 SWAP1 PUSH2 0x2443 JUMP JUMPDEST PUSH1 0x40 MLOAD DUP1 SWAP2 SUB SWAP1 REVERT JUMPDEST DUP1 PUSH1 0x3 PUSH0 DUP3 DUP3 SLOAD PUSH2 0x15EC SWAP2 SWAP1 PUSH2 0x1FB6 JUMP JUMPDEST SWAP3 POP POP DUP2 SWAP1 SSTORE POP DUP1 PUSH1 0x5 PUSH0 DUP5 PUSH20 0xFFFFFFFFFFFFFFFFFFFFFFFFFFFFFFFFFFFFFFFF AND PUSH20 0xFFFFFFFFFFFFFFFFFFFFFFFFFFFFFFFFFFFFFFFF AND DUP2 MSTORE PUSH1 0x20 ADD SWAP1 DUP2 MSTORE PUSH1 0x20 ADD PUSH0 KECCAK256 PUSH0 DUP3 DUP3 SLOAD PUSH2 0x163F SWAP2 SWAP1 PUSH2 0x1FB6 JUMP JUMPDEST SWAP3 POP POP DUP2 SWAP1 SSTORE POP DUP2 PUSH20 0xFFFFFFFFFFFFFFFFFFFFFFFFFFFFFFFFFFFFFFFF AND PUSH32 0xF6798A560793A54C3BCFE86A93CDE1E73087D944C0EA20544137D4121396885 DUP3 PUSH1 0x40 MLOAD PUSH2 0x168C SWAP2 SWAP1 PUSH2 0x1B32 JUMP JUMPDEST PUSH1 0x40 MLOAD DUP1 SWAP2 SUB SWAP1 LOG2 DUP2 PUSH20 0xFFFFFFFFFFFFFFFFFFFFFFFFFFFFFFFFFFFFFFFF AND PUSH0 PUSH20 0xFFFFFFFFFFFFFFFFFFFFFFFFFFFFFFFFFFFFFFFF AND PUSH32 0xDDF252AD1BE2C89B69C2B068FC378DAA952BA7F163C4A11628F55A4DF523B3EF DUP4 PUSH1 0x40 MLOAD PUSH2 0x16F1 SWAP2 SWAP1 PUSH2 0x1B32 JUMP JUMPDEST PUSH1 0x40 MLOAD DUP1 SWAP2 SUB SWAP1 LOG3 POP POP JUMP JUMPDEST PUSH0 PUSH20 0xFFFFFFFFFFFFFFFFFFFFFFFFFFFFFFFFFFFFFFFF AND DUP3 PUSH20 0xFFFFFFFFFFFFFFFFFFFFFFFFFFFFFFFFFFFFFFFF AND SUB PUSH2 0x176B JUMPI PUSH1 0x40 MLOAD PUSH32 0x8C379A000000000000000000000000000000000000000000000000000000000 DUP2 MSTORE PUSH1 0x4 ADD PUSH2 0x1762 SWAP1 PUSH2 0x2443 JUMP JUMPDEST PUSH1 0x40 MLOAD DUP1 SWAP2 SUB SWAP1 REVERT JUMPDEST DUP1 PUSH1 0x5 PUSH0 DUP5 PUSH20 0xFFFFFFFFFFFFFFFFFFFFFFFFFFFFFFFFFFFFFFFF AND PUSH20 0xFFFFFFFFFFFFFFFFFFFFFFFFFFFFFFFFFFFFFFFF AND DUP2 MSTORE PUSH1 0x20 ADD SWAP1 DUP2 MSTORE PUSH1 0x20 ADD PUSH0 KECCAK256 SLOAD LT ISZERO PUSH2 0x17EB JUMPI PUSH1 0x40 MLOAD PUSH32 0x8C379A000000000000000000000000000000000000000000000000000000000 DUP2 MSTORE PUSH1 0x4 ADD PUSH2 0x17E2 SWAP1 PUSH2 0x23DB JUMP JUMPDEST PUSH1 0x40 MLOAD DUP1 SWAP2 SUB SWAP1 REVERT JUMPDEST DUP1 PUSH1 0x5 PUSH0 DUP5 PUSH20 0xFFFFFFFFFFFFFFFFFFFFFFFFFFFFFFFFFFFFFFFF AND PUSH20 0xFFFFFFFFFFFFFFFFFFFFFFFFFFFFFFFFFFFFFFFF AND DUP2 MSTORE PUSH1 0x20 ADD SWAP1 DUP2 MSTORE PUSH1 0x20 ADD PUSH0 KECCAK256 PUSH0 DUP3 DUP3 SLOAD PUSH2 0x1837 SWAP2 SWAP1 PUSH2 0x1D61 JUMP JUMPDEST SWAP3 POP POP DUP2 SWAP1 SSTORE POP DUP1 PUSH1 0x3 PUSH0 DUP3 DUP3 SLOAD PUSH2 0x184F SWAP2 SWAP1 PUSH2 0x1D61 JUMP JUMPDEST SWAP3 POP POP DUP2 SWAP1 SSTORE POP DUP2 PUSH20 0xFFFFFFFFFFFFFFFFFFFFFFFFFFFFFFFFFFFFFFFF AND PUSH32 0xCC16F5DBB4873280815C1EE09DBD06736CFFCC184412CF7A71A0FDB75D397CA5 DUP3 PUSH1 0x40 MLOAD PUSH2 0x189C SWAP2 SWAP1 PUSH2 0x1B32 JUMP JUMPDEST PUSH1 0x40 MLOAD DUP1 SWAP2 SUB SWAP1 LOG2 PUSH0 PUSH20 0xFFFFFFFFFFFFFFFFFFFFFFFFFFFFFFFFFFFFFFFF AND DUP3 PUSH20 0xFFFFFFFFFFFFFFFFFFFFFFFFFFFFFFFFFFFFFFFF AND PUSH32 0xDDF252AD1BE2C89B69C2B068FC378DAA952BA7F163C4A11628F55A4DF523B3EF DUP4 PUSH1 0x40 MLOAD PUSH2 0x1901 SWAP2 SWAP1 PUSH2 0x1B32 JUMP JUMPDEST PUSH1 0x40 MLOAD DUP1 SWAP2 SUB SWAP1 LOG3 POP POP JUMP JUMPDEST PUSH0 DUP2 MLOAD SWAP1 POP SWAP2 SWAP1 POP JUMP JUMPDEST PUSH0 DUP3 DUP3 MSTORE PUSH1 0x20 DUP3 ADD SWAP1 POP SWAP3 SWAP2 POP POP JUMP JUMPDEST DUP3 DUP2 DUP4 MCOPY PUSH0 DUP4 DUP4 ADD MSTORE POP POP POP JUMP JUMPDEST PUSH0 PUSH1 0x1F NOT PUSH1 0x1F DUP4 ADD AND SWAP1 POP SWAP2 SWAP1 POP JUMP JUMPDEST PUSH0 PUSH2 0x194F DUP3 PUSH2 0x190D JUMP JUMPDEST PUSH2 0x1959 DUP2 DUP6 PUSH2 0x1917 JUMP JUMPDEST SWAP4 POP PUSH2 0x1969 DUP2 DUP6 PUSH1 0x20 DUP7 ADD PUSH2 0x1927 JUMP JUMPDEST PUSH2 0x1972 DUP2 PUSH2 0x1935 JUMP JUMPDEST DUP5 ADD SWAP2 POP POP SWAP3 SWAP2 POP POP JUMP JUMPDEST PUSH0 PUSH1 0x20 DUP3 ADD SWAP1 POP DUP2 DUP2 SUB PUSH0 DUP4 ADD MSTORE PUSH2 0x1995 DUP2 DUP5 PUSH2 0x1945 JUMP JUMPDEST SWAP1 POP SWAP3 SWAP2 POP POP JUMP JUMPDEST PUSH0 PUSH0 REVERT JUMPDEST PUSH0 PUSH20 0xFFFFFFFFFFFFFFFFFFFFFFFFFFFFFFFFFFFFFFFF DUP3 AND SWAP1 POP SWAP2 SWAP1 POP JUMP JUMPDEST PUSH0 PUSH2 0x19CA DUP3 PUSH2 0x19A1 JUMP JUMPDEST SWAP1 POP SWAP2 SWAP1 POP JUMP JUMPDEST PUSH2 0x19DA DUP2 PUSH2 0x19C0 JUMP JUMPDEST DUP2 EQ PUSH2 0x19E4 JUMPI PUSH0 PUSH0 REVERT JUMPDEST POP JUMP JUMPDEST PUSH0 DUP2 CALLDATALOAD SWAP1 POP PUSH2 0x19F5 DUP2 PUSH2 0x19D1 JUMP JUMPDEST SWAP3 SWAP2 POP POP JUMP JUMPDEST PUSH0 DUP2 SWAP1 POP SWAP2 SWAP1 POP JUMP JUMPDEST PUSH2 0x1A0D DUP2 PUSH2 0x19FB JUMP JUMPDEST DUP2 EQ PUSH2 0x1A17 JUMPI PUSH0 PUSH0 REVERT JUMPDEST POP JUMP JUMPDEST PUSH0 DUP2 CALLDATALOAD SWAP1 POP PUSH2 0x1A28 DUP2 PUSH2 0x1A04 JUMP JUMPDEST SWAP3 SWAP2 POP POP JUMP JUMPDEST PUSH0 PUSH0 PUSH1 0x40 DUP4 DUP6 SUB SLT ISZERO PUSH2 0x1A44 JUMPI PUSH2 0x1A43 PUSH2 0x199D JUMP JUMPDEST JUMPDEST PUSH0 PUSH2 0x1A51 DUP6 DUP3 DUP7 ADD PUSH2 0x19E7 JUMP JUMPDEST SWAP3 POP POP PUSH1 0x20 PUSH2 0x1A62 DUP6 DUP3 DUP7 ADD PUSH2 0x1A1A JUMP JUMPDEST SWAP2 POP POP SWAP3 POP SWAP3 SWAP1 POP JUMP JUMPDEST PUSH0 DUP2 ISZERO ISZERO SWAP1 POP SWAP2 SWAP1 POP JUMP JUMPDEST PUSH2 0x1A80 DUP2 PUSH2 0x1A6C JUMP JUMPDEST DUP3 MSTORE POP POP JUMP JUMPDEST PUSH0 PUSH1 0x20 DUP3 ADD SWAP1 POP PUSH2 0x1A99 PUSH0 DUP4 ADD DUP5 PUSH2 0x1A77 JUMP JUMPDEST SWAP3 SWAP2 POP POP JUMP JUMPDEST PUSH0 PUSH0 PUSH0 PUSH1 0x60 DUP5 DUP7 SUB SLT ISZERO PUSH2 0x1AB6 JUMPI PUSH2 0x1AB5 PUSH2 0x199D JUMP JUMPDEST JUMPDEST PUSH0 PUSH2 0x1AC3 DUP7 DUP3 DUP8 ADD PUSH2 0x19E7 JUMP JUMPDEST SWAP4 POP POP PUSH1 0x20 PUSH2 0x1AD4 DUP7 DUP3 DUP8 ADD PUSH2 0x19E7 JUMP JUMPDEST SWAP3 POP POP PUSH1 0x40 PUSH2 0x1AE5 DUP7 DUP3 DUP8 ADD PUSH2 0x1A1A JUMP JUMPDEST SWAP2 POP POP SWAP3 POP SWAP3 POP SWAP3 JUMP JUMPDEST PUSH0 PUSH1 0xFF DUP3 AND SWAP1 POP SWAP2 SWAP1 POP JUMP JUMPDEST PUSH2 0x1B04 DUP2 PUSH2 0x1AEF JUMP JUMPDEST DUP3 MSTORE POP POP JUMP JUMPDEST PUSH0 PUSH1 0x20 DUP3 ADD SWAP1 POP PUSH2 0x1B1D PUSH0 DUP4 ADD DUP5 PUSH2 0x1AFB JUMP JUMPDEST SWAP3 SWAP2 POP POP JUMP JUMPDEST PUSH2 0x1B2C DUP2 PUSH2 0x19FB JUMP JUMPDEST DUP3 MSTORE POP POP JUMP JUMPDEST PUSH0 PUSH1 0x20 DUP3 ADD SWAP1 POP PUSH2 0x1B45 PUSH0 DUP4 ADD DUP5 PUSH2 0x1B23 JUMP JUMPDEST SWAP3 SWAP2 POP POP JUMP JUMPDEST PUSH0 PUSH1 0x20 DUP3 DUP5 SUB SLT ISZERO PUSH2 0x1B60 JUMPI PUSH2 0x1B5F PUSH2 0x199D JUMP JUMPDEST JUMPDEST PUSH0 PUSH2 0x1B6D DUP5 DUP3 DUP6 ADD PUSH2 0x1A1A JUMP JUMPDEST SWAP2 POP POP SWAP3 SWAP2 POP POP JUMP JUMPDEST PUSH0 PUSH1 0x20 DUP3 DUP5 SUB SLT ISZERO PUSH2 0x1B8B JUMPI PUSH2 0x1B8A PUSH2 0x199D JUMP JUMPDEST JUMPDEST PUSH0 PUSH2 0x1B98 DUP5 DUP3 DUP6 ADD PUSH2 0x19E7 JUMP JUMPDEST SWAP2 POP POP SWAP3 SWAP2 POP POP JUMP JUMPDEST PUSH2 0x1BAA DUP2 PUSH2 0x19C0 JUMP JUMPDEST DUP3 MSTORE POP POP JUMP JUMPDEST PUSH0 PUSH1 0x20 DUP3 ADD SWAP1 POP PUSH2 0x1BC3 PUSH0 DUP4 ADD DUP5 PUSH2 0x1BA1 JUMP JUMPDEST SWAP3 SWAP2 POP POP JUMP JUMPDEST PUSH0 PUSH0 PUSH1 0x40 DUP4 DUP6 SUB SLT ISZERO PUSH2 0x1BDF JUMPI PUSH2 0x1BDE PUSH2 0x199D JUMP JUMPDEST JUMPDEST PUSH0 PUSH2 0x1BEC DUP6 DUP3 DUP7 ADD PUSH2 0x19E7 JUMP JUMPDEST SWAP3 POP POP PUSH1 0x20 PUSH2 0x1BFD DUP6 DUP3 DUP7 ADD PUSH2 0x19E7 JUMP JUMPDEST SWAP2 POP POP SWAP3 POP SWAP3 SWAP1 POP JUMP JUMPDEST PUSH32 0x4E487B7100000000000000000000000000000000000000000000000000000000 PUSH0 MSTORE PUSH1 0x22 PUSH1 0x4 MSTORE PUSH1 0x24 PUSH0 REVERT JUMPDEST PUSH0 PUSH1 0x2 DUP3 DIV SWAP1 POP PUSH1 0x1 DUP3 AND DUP1 PUSH2 0x1C4B JUMPI PUSH1 0x7F DUP3 AND SWAP2 POP JUMPDEST PUSH1 0x20 DUP3 LT DUP2 SUB PUSH2 0x1C5E JUMPI PUSH2 0x1C5D PUSH2 0x1C07 JUMP JUMPDEST JUMPDEST POP SWAP2 SWAP1 POP JUMP JUMPDEST PUSH32 0x436F6E7472616374206973207061757365640000000000000000000000000000 PUSH0 DUP3 ADD MSTORE POP JUMP JUMPDEST PUSH0 PUSH2 0x1C98 PUSH1 0x12 DUP4 PUSH2 0x1917 JUMP JUMPDEST SWAP2 POP PUSH2 0x1CA3 DUP3 PUSH2 0x1C64 JUMP JUMPDEST PUSH1 0x20 DUP3 ADD SWAP1 POP SWAP2 SWAP1 POP JUMP JUMPDEST PUSH0 PUSH1 0x20 DUP3 ADD SWAP1 POP DUP2 DUP2 SUB PUSH0 DUP4 ADD MSTORE PUSH2 0x1CC5 DUP2 PUSH2 0x1C8C JUMP JUMPDEST SWAP1 POP SWAP2 SWAP1 POP JUMP JUMPDEST PUSH32 0x45524332303A20696E73756666696369656E7420616C6C6F77616E6365000000 PUSH0 DUP3 ADD MSTORE POP JUMP JUMPDEST PUSH0 PUSH2 0x1D00 PUSH1 0x1D DUP4 PUSH2 0x1917 JUMP JUMPDEST SWAP2 POP PUSH2 0x1D0B DUP3 PUSH2 0x1CCC JUMP JUMPDEST PUSH1 0x20 DUP3 ADD SWAP1 POP SWAP2 SWAP1 POP JUMP JUMPDEST PUSH0 PUSH1 0x20 DUP3 ADD SWAP1 POP DUP2 DUP2 SUB PUSH0 DUP4 ADD MSTORE PUSH2 0x1D2D DUP2 PUSH2 0x1CF4 JUMP JUMPDEST SWAP1 POP SWAP2 SWAP1 POP JUMP JUMPDEST PUSH32 0x4E487B7100000000000000000000000000000000000000000000000000000000 PUSH0 MSTORE PUSH1 0x11 PUSH1 0x4 MSTORE PUSH1 0x24 PUSH0 REVERT JUMPDEST PUSH0 PUSH2 0x1D6B DUP3 PUSH2 0x19FB JUMP JUMPDEST SWAP2 POP PUSH2 0x1D76 DUP4 PUSH2 0x19FB JUMP JUMPDEST SWAP3 POP DUP3 DUP3 SUB SWAP1 POP DUP2 DUP2 GT ISZERO PUSH2 0x1D8E JUMPI PUSH2 0x1D8D PUSH2 0x1D34 JUMP JUMPDEST JUMPDEST SWAP3 SWAP2 POP POP JUMP JUMPDEST PUSH32 0x4E6F7420636F6E7472616374204F776E65720000000000000000000000000000 PUSH0 DUP3 ADD MSTORE POP JUMP JUMPDEST PUSH0 PUSH2 0x1DC8 PUSH1 0x12 DUP4 PUSH2 0x1917 JUMP JUMPDEST SWAP2 POP PUSH2 0x1DD3 DUP3 PUSH2 0x1D94 JUMP JUMPDEST PUSH1 0x20 DUP3 ADD SWAP1 POP SWAP2 SWAP1 POP JUMP JUMPDEST PUSH0 PUSH1 0x20 DUP3 ADD SWAP1 POP DUP2 DUP2 SUB PUSH0 DUP4 ADD MSTORE PUSH2 0x1DF5 DUP2 PUSH2 0x1DBC JUMP JUMPDEST SWAP1 POP SWAP2 SWAP1 POP JUMP JUMPDEST PUSH0 DUP2 PUSH1 0x1 SHR SWAP1 POP SWAP2 SWAP1 POP JUMP JUMPDEST PUSH0 PUSH0 DUP3 SWAP2 POP DUP4 SWAP1 POP JUMPDEST PUSH1 0x1 DUP6 GT ISZERO PUSH2 0x1E51 JUMPI DUP1 DUP7 DIV DUP2 GT ISZERO PUSH2 0x1E2D JUMPI PUSH2 0x1E2C PUSH2 0x1D34 JUMP JUMPDEST JUMPDEST PUSH1 0x1 DUP6 AND ISZERO PUSH2 0x1E3C JUMPI DUP1 DUP3 MUL SWAP2 POP JUMPDEST DUP1 DUP2 MUL SWAP1 POP PUSH2 0x1E4A DUP6 PUSH2 0x1DFC JUMP JUMPDEST SWAP5 POP PUSH2 0x1E11 JUMP JUMPDEST SWAP5 POP SWAP5 SWAP3 POP POP POP JUMP JUMPDEST PUSH0 DUP3 PUSH2 0x1E69 JUMPI PUSH1 0x1 SWAP1 POP PUSH2 0x1F24 JUMP JUMPDEST DUP2 PUSH2 0x1E76 JUMPI PUSH0 SWAP1 POP PUSH2 0x1F24 JUMP JUMPDEST DUP2 PUSH1 0x1 DUP2 EQ PUSH2 0x1E8C JUMPI PUSH1 0x2 DUP2 EQ PUSH2 0x1E96 JUMPI PUSH2 0x1EC5 JUMP JUMPDEST PUSH1 0x1 SWAP2 POP POP PUSH2 0x1F24 JUMP JUMPDEST PUSH1 0xFF DUP5 GT ISZERO PUSH2 0x1EA8 JUMPI PUSH2 0x1EA7 PUSH2 0x1D34 JUMP JUMPDEST JUMPDEST DUP4 PUSH1 0x2 EXP SWAP2 POP DUP5 DUP3 GT ISZERO PUSH2 0x1EBF JUMPI PUSH2 0x1EBE PUSH2 0x1D34 JUMP JUMPDEST JUMPDEST POP PUSH2 0x1F24 JUMP JUMPDEST POP PUSH1 0x20 DUP4 LT PUSH2 0x133 DUP4 LT AND PUSH1 0x4E DUP5 LT PUSH1 0xB DUP5 LT AND OR ISZERO PUSH2 0x1EFA JUMPI DUP3 DUP3 EXP SWAP1 POP DUP4 DUP2 GT ISZERO PUSH2 0x1EF5 JUMPI PUSH2 0x1EF4 PUSH2 0x1D34 JUMP JUMPDEST JUMPDEST PUSH2 0x1F24 JUMP JUMPDEST PUSH2 0x1F07 DUP5 DUP5 DUP5 PUSH1 0x1 PUSH2 0x1E08 JUMP JUMPDEST SWAP3 POP SWAP1 POP DUP2 DUP5 DIV DUP2 GT ISZERO PUSH2 0x1F1E JUMPI PUSH2 0x1F1D PUSH2 0x1D34 JUMP JUMPDEST JUMPDEST DUP2 DUP2 MUL SWAP1 POP JUMPDEST SWAP4 SWAP3 POP POP POP JUMP JUMPDEST PUSH0 PUSH2 0x1F35 DUP3 PUSH2 0x19FB JUMP JUMPDEST SWAP2 POP PUSH2 0x1F40 DUP4 PUSH2 0x19FB JUMP JUMPDEST SWAP3 POP PUSH2 0x1F6D PUSH32 0xFFFFFFFFFFFFFFFFFFFFFFFFFFFFFFFFFFFFFFFFFFFFFFFFFFFFFFFFFFFFFFFF DUP5 DUP5 PUSH2 0x1E5A JUMP JUMPDEST SWAP1 POP SWAP3 SWAP2 POP POP JUMP JUMPDEST PUSH0 PUSH2 0x1F7F DUP3 PUSH2 0x19FB JUMP JUMPDEST SWAP2 POP PUSH2 0x1F8A DUP4 PUSH2 0x19FB JUMP JUMPDEST SWAP3 POP DUP3 DUP3 MUL PUSH2 0x1F98 DUP2 PUSH2 0x19FB JUMP JUMPDEST SWAP2 POP DUP3 DUP3 DIV DUP5 EQ DUP4 ISZERO OR PUSH2 0x1FAF JUMPI PUSH2 0x1FAE PUSH2 0x1D34 JUMP JUMPDEST JUMPDEST POP SWAP3 SWAP2 POP POP JUMP JUMPDEST PUSH0 PUSH2 0x1FC0 DUP3 PUSH2 0x19FB JUMP JUMPDEST SWAP2 POP PUSH2 0x1FCB DUP4 PUSH2 0x19FB JUMP JUMPDEST SWAP3 POP DUP3 DUP3 ADD SWAP1 POP DUP1 DUP3 GT ISZERO PUSH2 0x1FE3 JUMPI PUSH2 0x1FE2 PUSH2 0x1D34 JUMP JUMPDEST JUMPDEST SWAP3 SWAP2 POP POP JUMP JUMPDEST PUSH32 0x4578636565647320636170000000000000000000000000000000000000000000 PUSH0 DUP3 ADD MSTORE POP JUMP JUMPDEST PUSH0 PUSH2 0x201D PUSH1 0xB DUP4 PUSH2 0x1917 JUMP JUMPDEST SWAP2 POP PUSH2 0x2028 DUP3 PUSH2 0x1FE9 JUMP JUMPDEST PUSH1 0x20 DUP3 ADD SWAP1 POP SWAP2 SWAP1 POP JUMP JUMPDEST PUSH0 PUSH1 0x20 DUP3 ADD SWAP1 POP DUP2 DUP2 SUB PUSH0 DUP4 ADD MSTORE PUSH2 0x204A DUP2 PUSH2 0x2011 JUMP JUMPDEST SWAP1 POP SWAP2 SWAP1 POP JUMP JUMPDEST PUSH32 0x496E73756666696369656E742062616C616E636520746F206275726E00000000 PUSH0 DUP3 ADD MSTORE POP JUMP JUMPDEST PUSH0 PUSH2 0x2085 PUSH1 0x1C DUP4 PUSH2 0x1917 JUMP JUMPDEST SWAP2 POP PUSH2 0x2090 DUP3 PUSH2 0x2051 JUMP JUMPDEST PUSH1 0x20 DUP3 ADD SWAP1 POP SWAP2 SWAP1 POP JUMP JUMPDEST PUSH0 PUSH1 0x20 DUP3 ADD SWAP1 POP DUP2 DUP2 SUB PUSH0 DUP4 ADD MSTORE PUSH2 0x20B2 DUP2 PUSH2 0x2079 JUMP JUMPDEST SWAP1 POP SWAP2 SWAP1 POP JUMP JUMPDEST PUSH32 0x546F6B656E73206172652074696D652D6C6F636B656400000000000000000000 PUSH0 DUP3 ADD MSTORE POP JUMP JUMPDEST PUSH0 PUSH2 0x20ED PUSH1 0x16 DUP4 PUSH2 0x1917 JUMP JUMPDEST SWAP2 POP PUSH2 0x20F8 DUP3 PUSH2 0x20B9 JUMP JUMPDEST PUSH1 0x20 DUP3 ADD SWAP1 POP SWAP2 SWAP1 POP JUMP JUMPDEST PUSH0 PUSH1 0x20 DUP3 ADD SWAP1 POP DUP2 DUP2 SUB PUSH0 DUP4 ADD MSTORE PUSH2 0x211A DUP2 PUSH2 0x20E1 JUMP JUMPDEST SWAP1 POP SWAP2 SWAP1 POP JUMP JUMPDEST PUSH32 0x556E6C6F636B2074696D65206D75737420626520696E20667574757265000000 PUSH0 DUP3 ADD MSTORE POP JUMP JUMPDEST PUSH0 PUSH2 0x2155 PUSH1 0x1D DUP4 PUSH2 0x1917 JUMP JUMPDEST SWAP2 POP PUSH2 0x2160 DUP3 PUSH2 0x2121 JUMP JUMPDEST PUSH1 0x20 DUP3 ADD SWAP1 POP SWAP2 SWAP1 POP JUMP JUMPDEST PUSH0 PUSH1 0x20 DUP3 ADD SWAP1 POP DUP2 DUP2 SUB PUSH0 DUP4 ADD MSTORE PUSH2 0x2182 DUP2 PUSH2 0x2149 JUMP JUMPDEST SWAP1 POP SWAP2 SWAP1 POP JUMP JUMPDEST PUSH32 0x416C6C6F77616E63652065786365656465640000000000000000000000000000 PUSH0 DUP3 ADD MSTORE POP JUMP JUMPDEST PUSH0 PUSH2 0x21BD PUSH1 0x12 DUP4 PUSH2 0x1917 JUMP JUMPDEST SWAP2 POP PUSH2 0x21C8 DUP3 PUSH2 0x2189 JUMP JUMPDEST PUSH1 0x20 DUP3 ADD SWAP1 POP SWAP2 SWAP1 POP JUMP JUMPDEST PUSH0 PUSH1 0x20 DUP3 ADD SWAP1 POP DUP2 DUP2 SUB PUSH0 DUP4 ADD MSTORE PUSH2 0x21EA DUP2 PUSH2 0x21B1 JUMP JUMPDEST SWAP1 POP SWAP2 SWAP1 POP JUMP JUMPDEST PUSH32 0x45524332303A20617070726F76652066726F6D20307830000000000000000000 PUSH0 DUP3 ADD MSTORE POP JUMP JUMPDEST PUSH0 PUSH2 0x2225 PUSH1 0x17 DUP4 PUSH2 0x1917 JUMP JUMPDEST SWAP2 POP PUSH2 0x2230 DUP3 PUSH2 0x21F1 JUMP JUMPDEST PUSH1 0x20 DUP3 ADD SWAP1 POP SWAP2 SWAP1 POP JUMP JUMPDEST PUSH0 PUSH1 0x20 DUP3 ADD SWAP1 POP DUP2 DUP2 SUB PUSH0 DUP4 ADD MSTORE PUSH2 0x2252 DUP2 PUSH2 0x2219 JUMP JUMPDEST SWAP1 POP SWAP2 SWAP1 POP JUMP JUMPDEST PUSH32 0x45524332303A20617070726F766520746F203078300000000000000000000000 PUSH0 DUP3 ADD MSTORE POP JUMP JUMPDEST PUSH0 PUSH2 0x228D PUSH1 0x15 DUP4 PUSH2 0x1917 JUMP JUMPDEST SWAP2 POP PUSH2 0x2298 DUP3 PUSH2 0x2259 JUMP JUMPDEST PUSH1 0x20 DUP3 ADD SWAP1 POP SWAP2 SWAP1 POP JUMP JUMPDEST PUSH0 PUSH1 0x20 DUP3 ADD SWAP1 POP DUP2 DUP2 SUB PUSH0 DUP4 ADD MSTORE PUSH2 0x22BA DUP2 PUSH2 0x2281 JUMP JUMPDEST SWAP1 POP SWAP2 SWAP1 POP JUMP JUMPDEST PUSH32 0x45524332303A207472616E736665722066726F6D203078300000000000000000 PUSH0 DUP3 ADD MSTORE POP JUMP JUMPDEST PUSH0 PUSH2 0x22F5 PUSH1 0x18 DUP4 PUSH2 0x1917 JUMP JUMPDEST SWAP2 POP PUSH2 0x2300 DUP3 PUSH2 0x22C1 JUMP JUMPDEST PUSH1 0x20 DUP3 ADD SWAP1 POP SWAP2 SWAP1 POP JUMP JUMPDEST PUSH0 PUSH1 0x20 DUP3 ADD SWAP1 POP DUP2 DUP2 SUB PUSH0 DUP4 ADD MSTORE PUSH2 0x2322 DUP2 PUSH2 0x22E9 JUMP JUMPDEST SWAP1 POP SWAP2 SWAP1 POP JUMP JUMPDEST PUSH32 0x45524332303A207472616E7366657220746F2030783000000000000000000000 PUSH0 DUP3 ADD MSTORE POP JUMP JUMPDEST PUSH0 PUSH2 0x235D PUSH1 0x16 DUP4 PUSH2 0x1917 JUMP JUMPDEST SWAP2 POP PUSH2 0x2368 DUP3 PUSH2 0x2329 JUMP JUMPDEST PUSH1 0x20 DUP3 ADD SWAP1 POP SWAP2 SWAP1 POP JUMP JUMPDEST PUSH0 PUSH1 0x20 DUP3 ADD SWAP1 POP DUP2 DUP2 SUB PUSH0 DUP4 ADD MSTORE PUSH2 0x238A DUP2 PUSH2 0x2351 JUMP JUMPDEST SWAP1 POP SWAP2 SWAP1 POP JUMP JUMPDEST PUSH32 0x45524332303A20696E73756666696369656E742062616C616E63650000000000 PUSH0 DUP3 ADD MSTORE POP JUMP JUMPDEST PUSH0 PUSH2 0x23C5 PUSH1 0x1B DUP4 PUSH2 0x1917 JUMP JUMPDEST SWAP2 POP PUSH2 0x23D0 DUP3 PUSH2 0x2391 JUMP JUMPDEST PUSH1 0x20 DUP3 ADD SWAP1 POP SWAP2 SWAP1 POP JUMP JUMPDEST PUSH0 PUSH1 0x20 DUP3 ADD SWAP1 POP DUP2 DUP2 SUB PUSH0 DUP4 ADD MSTORE PUSH2 0x23F2 DUP2 PUSH2 0x23B9 JUMP JUMPDEST SWAP1 POP SWAP2 SWAP1 POP JUMP JUMPDEST PUSH32 0x496E76616C696420616464726573730000000000000000000000000000000000 PUSH0 DUP3 ADD MSTORE POP JUMP JUMPDEST PUSH0 PUSH2 0x242D PUSH1 0xF DUP4 PUSH2 0x1917 JUMP JUMPDEST SWAP2 POP PUSH2 0x2438 DUP3 PUSH2 0x23F9 JUMP JUMPDEST PUSH1 0x20 DUP3 ADD SWAP1 POP SWAP2 SWAP1 POP JUMP JUMPDEST PUSH0 PUSH1 0x20 DUP3 ADD SWAP1 POP DUP2 DUP2 SUB PUSH0 DUP4 ADD MSTORE PUSH2 0x245A DUP2 PUSH2 0x2421 JUMP JUMPDEST SWAP1 POP SWAP2 SWAP1 POP JUMP INVALID LOG2 PUSH5 0x6970667358 0x22 SLT KECCAK256 BLOBHASH 0xD9 MLOAD 0x4F 0xBA 0xEA CALLDATACOPY PUSH9 0x114F49AA096AF43A9 0x4E PUSH20 0xDE74AF5A6C4D739D4BF1CFAC2864736F6C634300 ADDMOD 0x1E STOP CALLER "
				},
				"gasEstimates": {
					"creation": {
						"codeDepositCost": "1873400",
						"executionCost": "infinite",
						"totalCost": "infinite"
					},
					"external": {
						"allowance(address,address)": "infinite",
						"approve(address,uint256)": "infinite",
						"balanceOf(address)": "2852",
						"burn(uint256)": "infinite",
						"burnForm(address,uint256)": "infinite",
						"cap()": "infinite",
						"decimals()": "2556",
						"getCurrentTimestamp()": "442",
						"getUnlockTime(address)": "2917",
						"lockTokens(address,uint256)": "infinite",
						"mint(address,uint256)": "infinite",
						"name()": "infinite",
						"owner()": "2597",
						"pause()": "27856",
						"paused()": "2606",
						"symbol()": "infinite",
						"totalsupply()": "2477",
						"transfer(address,uint256)": "infinite",
						"transferFrom(address,address,uint256)": "infinite",
						"unpause()": "27811"
					},
					"internal": {
						"_approve(address,address,uint256)": "infinite",
						"_burn(address,uint256)": "infinite",
						"_mint(address,uint256)": "infinite",
						"_transfer(address,address,uint256)": "infinite"
					}
				},
				"methodIdentifiers": {
					"allowance(address,address)": "dd62ed3e",
					"approve(address,uint256)": "095ea7b3",
					"balanceOf(address)": "70a08231",
					"burn(uint256)": "42966c68",
					"burnForm(address,uint256)": "c62b3bea",
					"cap()": "355274ea",
					"decimals()": "313ce567",
					"getCurrentTimestamp()": "6c9230db",
					"getUnlockTime(address)": "dbed1e88",
					"lockTokens(address,uint256)": "b1c25586",
					"mint(address,uint256)": "40c10f19",
					"name()": "06fdde03",
					"owner()": "8da5cb5b",
					"pause()": "8456cb59",
					"paused()": "5c975abb",
					"symbol()": "95d89b41",
					"totalsupply()": "72dd529b",
					"transfer(address,uint256)": "a9059cbb",
					"transferFrom(address,address,uint256)": "23b872dd",
					"unpause()": "3f4ba83a"
				}
			},
			"storageLayout": {
				"storage": [
					{
						"astId": 5,
						"contract": "Contract_Conqueror_Series/ERC20standards.sol:BasicToken",
						"label": "name",
						"offset": 0,
						"slot": "0",
						"type": "t_string_storage"
					},
					{
						"astId": 7,
						"contract": "Contract_Conqueror_Series/ERC20standards.sol:BasicToken",
						"label": "symbol",
						"offset": 0,
						"slot": "1",
						"type": "t_string_storage"
					},
					{
						"astId": 10,
						"contract": "Contract_Conqueror_Series/ERC20standards.sol:BasicToken",
						"label": "decimals",
						"offset": 0,
						"slot": "2",
						"type": "t_uint8"
					},
					{
						"astId": 12,
						"contract": "Contract_Conqueror_Series/ERC20standards.sol:BasicToken",
						"label": "_totalsupply",
						"offset": 0,
						"slot": "3",
						"type": "t_uint256"
					},
					{
						"astId": 16,
						"contract": "Contract_Conqueror_Series/ERC20standards.sol:BasicToken",
						"label": "owner",
						"offset": 0,
						"slot": "4",
						"type": "t_address"
					},
					{
						"astId": 19,
						"contract": "Contract_Conqueror_Series/ERC20standards.sol:BasicToken",
						"label": "paused",
						"offset": 20,
						"slot": "4",
						"type": "t_bool"
					},
					{
						"astId": 24,
						"contract": "Contract_Conqueror_Series/ERC20standards.sol:BasicToken",
						"label": "_balances",
						"offset": 0,
						"slot": "5",
						"type": "t_mapping(t_address,t_uint256)"
					},
					{
						"astId": 30,
						"contract": "Contract_Conqueror_Series/ERC20standards.sol:BasicToken",
						"label": "_allowances",
						"offset": 0,
						"slot": "6",
						"type": "t_mapping(t_address,t_mapping(t_address,t_uint256))"
					},
					{
						"astId": 34,
						"contract": "Contract_Conqueror_Series/ERC20standards.sol:BasicToken",
						"label": "_lockUntil",
						"offset": 0,
						"slot": "7",
						"type": "t_mapping(t_address,t_uint256)"
					}
				],
				"types": {
					"t_address": {
						"encoding": "inplace",
						"label": "address",
						"numberOfBytes": "20"
					},
					"t_bool": {
						"encoding": "inplace",
						"label": "bool",
						"numberOfBytes": "1"
					},
					"t_mapping(t_address,t_mapping(t_address,t_uint256))": {
						"encoding": "mapping",
						"key": "t_address",
						"label": "mapping(address => mapping(address => uint256))",
						"numberOfBytes": "32",
						"value": "t_mapping(t_address,t_uint256)"
					},
					"t_mapping(t_address,t_uint256)": {
						"encoding": "mapping",
						"key": "t_address",
						"label": "mapping(address => uint256)",
						"numberOfBytes": "32",
						"value": "t_uint256"
					},
					"t_string_storage": {
						"encoding": "bytes",
						"label": "string",
						"numberOfBytes": "32"
					},
					"t_uint256": {
						"encoding": "inplace",
						"label": "uint256",
						"numberOfBytes": "32"
					},
					"t_uint8": {
						"encoding": "inplace",
						"label": "uint8",
						"numberOfBytes": "1"
					}
				}
			},
			"userdoc": {
				"kind": "user",
				"methods": {
					"allowance(address,address)": {
						"notice": "Transfer tokens using allowance"
					},
					"approve(address,uint256)": {
						"notice": "Transfer tokensApprove a spender"
					},
					"balanceOf(address)": {
						"notice": "Check balance of a specific address"
					},
					"burn(uint256)": {
						"notice": "Burn tokens from caller's balance"
					},
					"burnForm(address,uint256)": {
						"notice": "Burn tokens from another account with approval"
					},
					"getCurrentTimestamp()": {
						"notice": "Get the current block timestamp (in seconds since Unix epoch)"
					},
					"getUnlockTime(address)": {
						"notice": "Get the unlock timestamp for a user"
					},
					"mint(address,uint256)": {
						"notice": "Mint new tokens (only owner, capped)"
					},
					"name()": {
						"notice": "Token details"
					},
					"pause()": {
						"notice": "Pause token transfers and actions"
					},
					"totalsupply()": {
						"notice": "Get max token capGet total token supply"
					},
					"transfer(address,uint256)": {
						"notice": "Transfer tokens from sender to recipient"
					},
					"transferFrom(address,address,uint256)": {
						"notice": "Transfer tokens on behalf of another address"
					},
					"unpause()": {
						"notice": "Unpause token transfers and actions"
					}
				},
				"version": 1
			}
		}
	}
}