{
	"Contract_Conqueror_Series/ERC721standards.sol": {
		"UnifiedNFT": {
			"abi": [
				{
					"inputs": [
						{
							"internalType": "string",
							"name": "_name",
							"type": "string"
						},
						{
							"internalType": "string",
							"name": "_symbol",
							"type": "string"
						},
						{
							"internalType": "string",
							"name": "_baseURI",
							"type": "string"
						},
						{
							"internalType": "string",
							"name": "_notRevealedURI",
							"type": "string"
						}
					],
					"stateMutability": "nonpayable",
					"type": "constructor"
				},
				{
					"anonymous": false,
					"inputs": [
						{
							"indexed": true,
							"internalType": "address",
							"name": "owner",
							"type": "address"
						},
						{
							"indexed": true,
							"internalType": "address",
							"name": "approved",
							"type": "address"
						},
						{
							"indexed": true,
							"internalType": "uint256",
							"name": "tokenId",
							"type": "uint256"
						}
					],
					"name": "Approval",
					"type": "event"
				},
				{
					"anonymous": false,
					"inputs": [
						{
							"indexed": true,
							"internalType": "address",
							"name": "account",
							"type": "address"
						}
					],
					"name": "RemovedFromWhitelist",
					"type": "event"
				},
				{
					"anonymous": false,
					"inputs": [],
					"name": "Revealed",
					"type": "event"
				},
				{
					"anonymous": false,
					"inputs": [
						{
							"indexed": true,
							"internalType": "address",
							"name": "from",
							"type": "address"
						},
						{
							"indexed": true,
							"internalType": "address",
							"name": "to",
							"type": "address"
						},
						{
							"indexed": true,
							"internalType": "uint256",
							"name": "tokenId",
							"type": "uint256"
						}
					],
					"name": "Transfer",
					"type": "event"
				},
				{
					"anonymous": false,
					"inputs": [
						{
							"indexed": true,
							"internalType": "address",
							"name": "account",
							"type": "address"
						}
					],
					"name": "Whitelisted",
					"type": "event"
				},
				{
					"inputs": [
						{
							"internalType": "address",
							"name": "user",
							"type": "address"
						}
					],
					"name": "addToWhitelist",
					"outputs": [],
					"stateMutability": "nonpayable",
					"type": "function"
				},
				{
					"inputs": [
						{
							"internalType": "address",
							"name": "to",
							"type": "address"
						},
						{
							"internalType": "uint256",
							"name": "tokenId",
							"type": "uint256"
						}
					],
					"name": "approve",
					"outputs": [],
					"stateMutability": "nonpayable",
					"type": "function"
				},
				{
					"inputs": [
						{
							"internalType": "address",
							"name": "_owner",
							"type": "address"
						}
					],
					"name": "balanceOf",
					"outputs": [
						{
							"internalType": "uint256",
							"name": "",
							"type": "uint256"
						}
					],
					"stateMutability": "view",
					"type": "function"
				},
				{
					"inputs": [
						{
							"internalType": "uint256",
							"name": "tokenId",
							"type": "uint256"
						}
					],
					"name": "getApproved",
					"outputs": [
						{
							"internalType": "address",
							"name": "",
							"type": "address"
						}
					],
					"stateMutability": "view",
					"type": "function"
				},
				{
					"inputs": [
						{
							"internalType": "address",
							"name": "user",
							"type": "address"
						}
					],
					"name": "isWhitelisted",
					"outputs": [
						{
							"internalType": "bool",
							"name": "",
							"type": "bool"
						}
					],
					"stateMutability": "view",
					"type": "function"
				},
				{
					"inputs": [],
					"name": "name",
					"outputs": [
						{
							"internalType": "string",
							"name": "",
							"type": "string"
						}
					],
					"stateMutability": "view",
					"type": "function"
				},
				{
					"inputs": [],
					"name": "owner",
					"outputs": [
						{
							"internalType": "address",
							"name": "",
							"type": "address"
						}
					],
					"stateMutability": "view",
					"type": "function"
				},
				{
					"inputs": [
						{
							"internalType": "uint256",
							"name": "tokenId",
							"type": "uint256"
						}
					],
					"name": "ownerOf",
					"outputs": [
						{
							"internalType": "address",
							"name": "",
							"type": "address"
						}
					],
					"stateMutability": "view",
					"type": "function"
				},
				{
					"inputs": [
						{
							"internalType": "address",
							"name": "user",
							"type": "address"
						}
					],
					"name": "removeFromWhitelist",
					"outputs": [],
					"stateMutability": "nonpayable",
					"type": "function"
				},
				{
					"inputs": [],
					"name": "reveal",
					"outputs": [],
					"stateMutability": "nonpayable",
					"type": "function"
				},
				{
					"inputs": [],
					"name": "revealed",
					"outputs": [
						{
							"internalType": "bool",
							"name": "",
							"type": "bool"
						}
					],
					"stateMutability": "view",
					"type": "function"
				},
				{
					"inputs": [],
					"name": "safeMint",
					"outputs": [],
					"stateMutability": "nonpayable",
					"type": "function"
				},
				{
					"inputs": [
						{
							"internalType": "address",
							"name": "to",
							"type": "address"
						}
					],
					"name": "safeMintTo",
					"outputs": [],
					"stateMutability": "nonpayable",
					"type": "function"
				},
				{
					"inputs": [
						{
							"internalType": "string",
							"name": "_base",
							"type": "string"
						}
					],
					"name": "setBaseURI",
					"outputs": [],
					"stateMutability": "nonpayable",
					"type": "function"
				},
				{
					"inputs": [
						{
							"internalType": "string",
							"name": "_uri",
							"type": "string"
						}
					],
					"name": "setNotRevealedURI",
					"outputs": [],
					"stateMutability": "nonpayable",
					"type": "function"
				},
				{
					"inputs": [],
					"name": "symbol",
					"outputs": [
						{
							"internalType": "string",
							"name": "",
							"type": "string"
						}
					],
					"stateMutability": "view",
					"type": "function"
				},
				{
					"inputs": [
						{
							"internalType": "uint256",
							"name": "tokenId",
							"type": "uint256"
						}
					],
					"name": "tokenURI",
					"outputs": [
						{
							"internalType": "string",
							"name": "",
							"type": "string"
						}
					],
					"stateMutability": "view",
					"type": "function"
				},
				{
					"inputs": [],
					"name": "totalSupply",
					"outputs": [
						{
							"internalType": "uint256",
							"name": "",
							"type": "uint256"
						}
					],
					"stateMutability": "view",
					"type": "function"
				},
				{
					"inputs": [
						{
							"internalType": "address",
							"name": "from",
							"type": "address"
						},
						{
							"internalType": "address",
							"name": "to",
							"type": "address"
						},
						{
							"internalType": "uint256",
							"name": "tokenId",
							"type": "uint256"
						}
					],
					"name": "transferFrom",
					"outputs": [],
					"stateMutability": "nonpayable",
					"type": "function"
				}
			],
			"devdoc": {
				"kind": "dev",
				"methods": {},
				"title": "UnifiedNFT (Day 15–18)",
				"version": 1
			},
			"evm": {
				"assembly": "    /* \"Contract_Conqueror_Series/ERC721standards.sol\":174:5736  contract UnifiedNFT {... */\n  mstore(0x40, 0x80)\n    /* \"Contract_Conqueror_Series/ERC721standards.sol\":1195:1535  constructor(... */\n  callvalue\n  dup1\n  iszero\n  tag_1\n  jumpi\n  revert(0x00, 0x00)\ntag_1:\n  pop\n  mload(0x40)\n  sub(codesize, bytecodeSize)\n  dup1\n  bytecodeSize\n  dup4\n  codecopy\n  dup2\n  dup2\n  add\n  0x40\n  mstore\n  dup2\n  add\n  swap1\n  tag_2\n  swap2\n  swap1\n  tag_3\n  jump\t// in\ntag_2:\n    /* \"Contract_Conqueror_Series/ERC721standards.sol\":1367:1372  _name */\n  dup4\n    /* \"Contract_Conqueror_Series/ERC721standards.sol\":1360:1364  name */\n  0x00\n    /* \"Contract_Conqueror_Series/ERC721standards.sol\":1360:1372  name = _name */\n  swap1\n  dup2\n  tag_6\n  swap2\n  swap1\n  tag_7\n  jump\t// in\ntag_6:\n  pop\n    /* \"Contract_Conqueror_Series/ERC721standards.sol\":1392:1399  _symbol */\n  dup3\n    /* \"Contract_Conqueror_Series/ERC721standards.sol\":1383:1389  symbol */\n  0x01\n    /* \"Contract_Conqueror_Series/ERC721standards.sol\":1383:1399  symbol = _symbol */\n  swap1\n  dup2\n  tag_8\n  swap2\n  swap1\n  tag_7\n  jump\t// in\ntag_8:\n  pop\n    /* \"Contract_Conqueror_Series/ERC721standards.sol\":1420:1428  _baseURI */\n  dup2\n    /* \"Contract_Conqueror_Series/ERC721standards.sol\":1410:1417  baseURI */\n  0x04\n    /* \"Contract_Conqueror_Series/ERC721standards.sol\":1410:1428  baseURI = _baseURI */\n  swap1\n  dup2\n  tag_9\n  swap2\n  swap1\n  tag_7\n  jump\t// in\ntag_9:\n  pop\n    /* \"Contract_Conqueror_Series/ERC721standards.sol\":1456:1471  _notRevealedURI */\n  dup1\n    /* \"Contract_Conqueror_Series/ERC721standards.sol\":1439:1453  notRevealedURI */\n  0x05\n    /* \"Contract_Conqueror_Series/ERC721standards.sol\":1439:1471  notRevealedURI = _notRevealedURI */\n  swap1\n  dup2\n  tag_10\n  swap2\n  swap1\n  tag_7\n  jump\t// in\ntag_10:\n  pop\n    /* \"Contract_Conqueror_Series/ERC721standards.sol\":1490:1500  msg.sender */\n  caller\n    /* \"Contract_Conqueror_Series/ERC721standards.sol\":1482:1487  owner */\n  0x02\n  0x00\n    /* \"Contract_Conqueror_Series/ERC721standards.sol\":1482:1500  owner = msg.sender */\n  0x0100\n  exp\n  dup2\n  sload\n  dup2\n  0xffffffffffffffffffffffffffffffffffffffff\n  mul\n  not\n  and\n  swap1\n  dup4\n  0xffffffffffffffffffffffffffffffffffffffff\n  and\n  mul\n  or\n  swap1\n  sstore\n  pop\n    /* \"Contract_Conqueror_Series/ERC721standards.sol\":1522:1527  false */\n  0x00\n    /* \"Contract_Conqueror_Series/ERC721standards.sol\":1511:1519  revealed */\n  0x06\n  0x00\n    /* \"Contract_Conqueror_Series/ERC721standards.sol\":1511:1527  revealed = false */\n  0x0100\n  exp\n  dup2\n  sload\n  dup2\n  0xff\n  mul\n  not\n  and\n  swap1\n  dup4\n  iszero\n  iszero\n  mul\n  or\n  swap1\n  sstore\n  pop\n    /* \"Contract_Conqueror_Series/ERC721standards.sol\":1195:1535  constructor(... */\n  pop\n  pop\n  pop\n  pop\n    /* \"Contract_Conqueror_Series/ERC721standards.sol\":174:5736  contract UnifiedNFT {... */\n  jump(tag_11)\n    /* \"#utility.yul\":7:82   */\ntag_12:\n    /* \"#utility.yul\":40:46   */\n  0x00\n    /* \"#utility.yul\":73:75   */\n  0x40\n    /* \"#utility.yul\":67:76   */\n  mload\n    /* \"#utility.yul\":57:76   */\n  swap1\n  pop\n    /* \"#utility.yul\":7:82   */\n  swap1\n  jump\t// out\n    /* \"#utility.yul\":88:205   */\ntag_13:\n    /* \"#utility.yul\":197:198   */\n  0x00\n    /* \"#utility.yul\":194:195   */\n  0x00\n    /* \"#utility.yul\":187:199   */\n  revert\n    /* \"#utility.yul\":211:328   */\ntag_14:\n    /* \"#utility.yul\":320:321   */\n  0x00\n    /* \"#utility.yul\":317:318   */\n  0x00\n    /* \"#utility.yul\":310:322   */\n  revert\n    /* \"#utility.yul\":334:451   */\ntag_15:\n    /* \"#utility.yul\":443:444   */\n  0x00\n    /* \"#utility.yul\":440:441   */\n  0x00\n    /* \"#utility.yul\":433:445   */\n  revert\n    /* \"#utility.yul\":457:574   */\ntag_16:\n    /* \"#utility.yul\":566:567   */\n  0x00\n    /* \"#utility.yul\":563:564   */\n  0x00\n    /* \"#utility.yul\":556:568   */\n  revert\n    /* \"#utility.yul\":580:682   */\ntag_17:\n    /* \"#utility.yul\":621:627   */\n  0x00\n    /* \"#utility.yul\":672:674   */\n  0x1f\n    /* \"#utility.yul\":668:675   */\n  not\n    /* \"#utility.yul\":663:665   */\n  0x1f\n    /* \"#utility.yul\":656:661   */\n  dup4\n    /* \"#utility.yul\":652:666   */\n  add\n    /* \"#utility.yul\":648:676   */\n  and\n    /* \"#utility.yul\":638:676   */\n  swap1\n  pop\n    /* \"#utility.yul\":580:682   */\n  swap2\n  swap1\n  pop\n  jump\t// out\n    /* \"#utility.yul\":688:868   */\ntag_18:\n    /* \"#utility.yul\":736:813   */\n  0x4e487b7100000000000000000000000000000000000000000000000000000000\n    /* \"#utility.yul\":733:734   */\n  0x00\n    /* \"#utility.yul\":726:814   */\n  mstore\n    /* \"#utility.yul\":833:837   */\n  0x41\n    /* \"#utility.yul\":830:831   */\n  0x04\n    /* \"#utility.yul\":823:838   */\n  mstore\n    /* \"#utility.yul\":857:861   */\n  0x24\n    /* \"#utility.yul\":854:855   */\n  0x00\n    /* \"#utility.yul\":847:862   */\n  revert\n    /* \"#utility.yul\":874:1155   */\ntag_19:\n    /* \"#utility.yul\":957:984   */\n  tag_53\n    /* \"#utility.yul\":979:983   */\n  dup3\n    /* \"#utility.yul\":957:984   */\n  tag_17\n  jump\t// in\ntag_53:\n    /* \"#utility.yul\":949:955   */\n  dup2\n    /* \"#utility.yul\":945:985   */\n  add\n    /* \"#utility.yul\":1087:1093   */\n  dup2\n    /* \"#utility.yul\":1075:1085   */\n  dup2\n    /* \"#utility.yul\":1072:1094   */\n  lt\n    /* \"#utility.yul\":1051:1069   */\n  0xffffffffffffffff\n    /* \"#utility.yul\":1039:1049   */\n  dup3\n    /* \"#utility.yul\":1036:1070   */\n  gt\n    /* \"#utility.yul\":1033:1095   */\n  or\n    /* \"#utility.yul\":1030:1118   */\n  iszero\n  tag_54\n  jumpi\n    /* \"#utility.yul\":1098:1116   */\n  tag_55\n  tag_18\n  jump\t// in\ntag_55:\n    /* \"#utility.yul\":1030:1118   */\ntag_54:\n    /* \"#utility.yul\":1138:1148   */\n  dup1\n    /* \"#utility.yul\":1134:1136   */\n  0x40\n    /* \"#utility.yul\":1127:1149   */\n  mstore\n    /* \"#utility.yul\":917:1155   */\n  pop\n    /* \"#utility.yul\":874:1155   */\n  pop\n  pop\n  jump\t// out\n    /* \"#utility.yul\":1161:1290   */\ntag_20:\n    /* \"#utility.yul\":1195:1201   */\n  0x00\n    /* \"#utility.yul\":1222:1242   */\n  tag_57\n  tag_12\n  jump\t// in\ntag_57:\n    /* \"#utility.yul\":1212:1242   */\n  swap1\n  pop\n    /* \"#utility.yul\":1251:1284   */\n  tag_58\n    /* \"#utility.yul\":1279:1283   */\n  dup3\n    /* \"#utility.yul\":1271:1277   */\n  dup3\n    /* \"#utility.yul\":1251:1284   */\n  tag_19\n  jump\t// in\ntag_58:\n    /* \"#utility.yul\":1161:1290   */\n  swap2\n  swap1\n  pop\n  jump\t// out\n    /* \"#utility.yul\":1296:1604   */\ntag_21:\n    /* \"#utility.yul\":1358:1362   */\n  0x00\n    /* \"#utility.yul\":1448:1466   */\n  0xffffffffffffffff\n    /* \"#utility.yul\":1440:1446   */\n  dup3\n    /* \"#utility.yul\":1437:1467   */\n  gt\n    /* \"#utility.yul\":1434:1490   */\n  iszero\n  tag_60\n  jumpi\n    /* \"#utility.yul\":1470:1488   */\n  tag_61\n  tag_18\n  jump\t// in\ntag_61:\n    /* \"#utility.yul\":1434:1490   */\ntag_60:\n    /* \"#utility.yul\":1508:1537   */\n  tag_62\n    /* \"#utility.yul\":1530:1536   */\n  dup3\n    /* \"#utility.yul\":1508:1537   */\n  tag_17\n  jump\t// in\ntag_62:\n    /* \"#utility.yul\":1500:1537   */\n  swap1\n  pop\n    /* \"#utility.yul\":1592:1596   */\n  0x20\n    /* \"#utility.yul\":1586:1590   */\n  dup2\n    /* \"#utility.yul\":1582:1597   */\n  add\n    /* \"#utility.yul\":1574:1597   */\n  swap1\n  pop\n    /* \"#utility.yul\":1296:1604   */\n  swap2\n  swap1\n  pop\n  jump\t// out\n    /* \"#utility.yul\":1610:1749   */\ntag_22:\n    /* \"#utility.yul\":1699:1705   */\n  dup3\n    /* \"#utility.yul\":1694:1697   */\n  dup2\n    /* \"#utility.yul\":1689:1692   */\n  dup4\n    /* \"#utility.yul\":1683:1706   */\n  mcopy\n    /* \"#utility.yul\":1740:1741   */\n  0x00\n    /* \"#utility.yul\":1731:1737   */\n  dup4\n    /* \"#utility.yul\":1726:1729   */\n  dup4\n    /* \"#utility.yul\":1722:1738   */\n  add\n    /* \"#utility.yul\":1715:1742   */\n  mstore\n    /* \"#utility.yul\":1610:1749   */\n  pop\n  pop\n  pop\n  jump\t// out\n    /* \"#utility.yul\":1755:2189   */\ntag_23:\n    /* \"#utility.yul\":1844:1849   */\n  0x00\n    /* \"#utility.yul\":1869:1935   */\n  tag_65\n    /* \"#utility.yul\":1885:1934   */\n  tag_66\n    /* \"#utility.yul\":1927:1933   */\n  dup5\n    /* \"#utility.yul\":1885:1934   */\n  tag_21\n  jump\t// in\ntag_66:\n    /* \"#utility.yul\":1869:1935   */\n  tag_20\n  jump\t// in\ntag_65:\n    /* \"#utility.yul\":1860:1935   */\n  swap1\n  pop\n    /* \"#utility.yul\":1958:1964   */\n  dup3\n    /* \"#utility.yul\":1951:1956   */\n  dup2\n    /* \"#utility.yul\":1944:1965   */\n  mstore\n    /* \"#utility.yul\":1996:2000   */\n  0x20\n    /* \"#utility.yul\":1989:1994   */\n  dup2\n    /* \"#utility.yul\":1985:2001   */\n  add\n    /* \"#utility.yul\":2034:2037   */\n  dup5\n    /* \"#utility.yul\":2025:2031   */\n  dup5\n    /* \"#utility.yul\":2020:2023   */\n  dup5\n    /* \"#utility.yul\":2016:2032   */\n  add\n    /* \"#utility.yul\":2013:2038   */\n  gt\n    /* \"#utility.yul\":2010:2122   */\n  iszero\n  tag_67\n  jumpi\n    /* \"#utility.yul\":2041:2120   */\n  tag_68\n  tag_16\n  jump\t// in\ntag_68:\n    /* \"#utility.yul\":2010:2122   */\ntag_67:\n    /* \"#utility.yul\":2131:2183   */\n  tag_69\n    /* \"#utility.yul\":2176:2182   */\n  dup5\n    /* \"#utility.yul\":2171:2174   */\n  dup3\n    /* \"#utility.yul\":2166:2169   */\n  dup6\n    /* \"#utility.yul\":2131:2183   */\n  tag_22\n  jump\t// in\ntag_69:\n    /* \"#utility.yul\":1850:2189   */\n  pop\n    /* \"#utility.yul\":1755:2189   */\n  swap4\n  swap3\n  pop\n  pop\n  pop\n  jump\t// out\n    /* \"#utility.yul\":2209:2564   */\ntag_24:\n    /* \"#utility.yul\":2276:2281   */\n  0x00\n    /* \"#utility.yul\":2325:2328   */\n  dup3\n    /* \"#utility.yul\":2318:2322   */\n  0x1f\n    /* \"#utility.yul\":2310:2316   */\n  dup4\n    /* \"#utility.yul\":2306:2323   */\n  add\n    /* \"#utility.yul\":2302:2329   */\n  slt\n    /* \"#utility.yul\":2292:2414   */\n  tag_71\n  jumpi\n    /* \"#utility.yul\":2333:2412   */\n  tag_72\n  tag_15\n  jump\t// in\ntag_72:\n    /* \"#utility.yul\":2292:2414   */\ntag_71:\n    /* \"#utility.yul\":2443:2449   */\n  dup2\n    /* \"#utility.yul\":2437:2450   */\n  mload\n    /* \"#utility.yul\":2468:2558   */\n  tag_73\n    /* \"#utility.yul\":2554:2557   */\n  dup5\n    /* \"#utility.yul\":2546:2552   */\n  dup3\n    /* \"#utility.yul\":2539:2543   */\n  0x20\n    /* \"#utility.yul\":2531:2537   */\n  dup7\n    /* \"#utility.yul\":2527:2544   */\n  add\n    /* \"#utility.yul\":2468:2558   */\n  tag_23\n  jump\t// in\ntag_73:\n    /* \"#utility.yul\":2459:2558   */\n  swap2\n  pop\n    /* \"#utility.yul\":2282:2564   */\n  pop\n    /* \"#utility.yul\":2209:2564   */\n  swap3\n  swap2\n  pop\n  pop\n  jump\t// out\n    /* \"#utility.yul\":2570:4082   */\ntag_3:\n    /* \"#utility.yul\":2707:2713   */\n  0x00\n    /* \"#utility.yul\":2715:2721   */\n  0x00\n    /* \"#utility.yul\":2723:2729   */\n  0x00\n    /* \"#utility.yul\":2731:2737   */\n  0x00\n    /* \"#utility.yul\":2780:2783   */\n  0x80\n    /* \"#utility.yul\":2768:2777   */\n  dup6\n    /* \"#utility.yul\":2759:2766   */\n  dup8\n    /* \"#utility.yul\":2755:2778   */\n  sub\n    /* \"#utility.yul\":2751:2784   */\n  slt\n    /* \"#utility.yul\":2748:2868   */\n  iszero\n  tag_75\n  jumpi\n    /* \"#utility.yul\":2787:2866   */\n  tag_76\n  tag_13\n  jump\t// in\ntag_76:\n    /* \"#utility.yul\":2748:2868   */\ntag_75:\n    /* \"#utility.yul\":2928:2929   */\n  0x00\n    /* \"#utility.yul\":2917:2926   */\n  dup6\n    /* \"#utility.yul\":2913:2930   */\n  add\n    /* \"#utility.yul\":2907:2931   */\n  mload\n    /* \"#utility.yul\":2958:2976   */\n  0xffffffffffffffff\n    /* \"#utility.yul\":2950:2956   */\n  dup2\n    /* \"#utility.yul\":2947:2977   */\n  gt\n    /* \"#utility.yul\":2944:3061   */\n  iszero\n  tag_77\n  jumpi\n    /* \"#utility.yul\":2980:3059   */\n  tag_78\n  tag_14\n  jump\t// in\ntag_78:\n    /* \"#utility.yul\":2944:3061   */\ntag_77:\n    /* \"#utility.yul\":3085:3159   */\n  tag_79\n    /* \"#utility.yul\":3151:3158   */\n  dup8\n    /* \"#utility.yul\":3142:3148   */\n  dup3\n    /* \"#utility.yul\":3131:3140   */\n  dup9\n    /* \"#utility.yul\":3127:3149   */\n  add\n    /* \"#utility.yul\":3085:3159   */\n  tag_24\n  jump\t// in\ntag_79:\n    /* \"#utility.yul\":3075:3159   */\n  swap5\n  pop\n    /* \"#utility.yul\":2878:3169   */\n  pop\n    /* \"#utility.yul\":3229:3231   */\n  0x20\n    /* \"#utility.yul\":3218:3227   */\n  dup6\n    /* \"#utility.yul\":3214:3232   */\n  add\n    /* \"#utility.yul\":3208:3233   */\n  mload\n    /* \"#utility.yul\":3260:3278   */\n  0xffffffffffffffff\n    /* \"#utility.yul\":3252:3258   */\n  dup2\n    /* \"#utility.yul\":3249:3279   */\n  gt\n    /* \"#utility.yul\":3246:3363   */\n  iszero\n  tag_80\n  jumpi\n    /* \"#utility.yul\":3282:3361   */\n  tag_81\n  tag_14\n  jump\t// in\ntag_81:\n    /* \"#utility.yul\":3246:3363   */\ntag_80:\n    /* \"#utility.yul\":3387:3461   */\n  tag_82\n    /* \"#utility.yul\":3453:3460   */\n  dup8\n    /* \"#utility.yul\":3444:3450   */\n  dup3\n    /* \"#utility.yul\":3433:3442   */\n  dup9\n    /* \"#utility.yul\":3429:3451   */\n  add\n    /* \"#utility.yul\":3387:3461   */\n  tag_24\n  jump\t// in\ntag_82:\n    /* \"#utility.yul\":3377:3461   */\n  swap4\n  pop\n    /* \"#utility.yul\":3179:3471   */\n  pop\n    /* \"#utility.yul\":3531:3533   */\n  0x40\n    /* \"#utility.yul\":3520:3529   */\n  dup6\n    /* \"#utility.yul\":3516:3534   */\n  add\n    /* \"#utility.yul\":3510:3535   */\n  mload\n    /* \"#utility.yul\":3562:3580   */\n  0xffffffffffffffff\n    /* \"#utility.yul\":3554:3560   */\n  dup2\n    /* \"#utility.yul\":3551:3581   */\n  gt\n    /* \"#utility.yul\":3548:3665   */\n  iszero\n  tag_83\n  jumpi\n    /* \"#utility.yul\":3584:3663   */\n  tag_84\n  tag_14\n  jump\t// in\ntag_84:\n    /* \"#utility.yul\":3548:3665   */\ntag_83:\n    /* \"#utility.yul\":3689:3763   */\n  tag_85\n    /* \"#utility.yul\":3755:3762   */\n  dup8\n    /* \"#utility.yul\":3746:3752   */\n  dup3\n    /* \"#utility.yul\":3735:3744   */\n  dup9\n    /* \"#utility.yul\":3731:3753   */\n  add\n    /* \"#utility.yul\":3689:3763   */\n  tag_24\n  jump\t// in\ntag_85:\n    /* \"#utility.yul\":3679:3763   */\n  swap3\n  pop\n    /* \"#utility.yul\":3481:3773   */\n  pop\n    /* \"#utility.yul\":3833:3835   */\n  0x60\n    /* \"#utility.yul\":3822:3831   */\n  dup6\n    /* \"#utility.yul\":3818:3836   */\n  add\n    /* \"#utility.yul\":3812:3837   */\n  mload\n    /* \"#utility.yul\":3864:3882   */\n  0xffffffffffffffff\n    /* \"#utility.yul\":3856:3862   */\n  dup2\n    /* \"#utility.yul\":3853:3883   */\n  gt\n    /* \"#utility.yul\":3850:3967   */\n  iszero\n  tag_86\n  jumpi\n    /* \"#utility.yul\":3886:3965   */\n  tag_87\n  tag_14\n  jump\t// in\ntag_87:\n    /* \"#utility.yul\":3850:3967   */\ntag_86:\n    /* \"#utility.yul\":3991:4065   */\n  tag_88\n    /* \"#utility.yul\":4057:4064   */\n  dup8\n    /* \"#utility.yul\":4048:4054   */\n  dup3\n    /* \"#utility.yul\":4037:4046   */\n  dup9\n    /* \"#utility.yul\":4033:4055   */\n  add\n    /* \"#utility.yul\":3991:4065   */\n  tag_24\n  jump\t// in\ntag_88:\n    /* \"#utility.yul\":3981:4065   */\n  swap2\n  pop\n    /* \"#utility.yul\":3783:4075   */\n  pop\n    /* \"#utility.yul\":2570:4082   */\n  swap3\n  swap6\n  swap2\n  swap5\n  pop\n  swap3\n  pop\n  jump\t// out\n    /* \"#utility.yul\":4088:4187   */\ntag_25:\n    /* \"#utility.yul\":4140:4146   */\n  0x00\n    /* \"#utility.yul\":4174:4179   */\n  dup2\n    /* \"#utility.yul\":4168:4180   */\n  mload\n    /* \"#utility.yul\":4158:4180   */\n  swap1\n  pop\n    /* \"#utility.yul\":4088:4187   */\n  swap2\n  swap1\n  pop\n  jump\t// out\n    /* \"#utility.yul\":4193:4373   */\ntag_26:\n    /* \"#utility.yul\":4241:4318   */\n  0x4e487b7100000000000000000000000000000000000000000000000000000000\n    /* \"#utility.yul\":4238:4239   */\n  0x00\n    /* \"#utility.yul\":4231:4319   */\n  mstore\n    /* \"#utility.yul\":4338:4342   */\n  0x22\n    /* \"#utility.yul\":4335:4336   */\n  0x04\n    /* \"#utility.yul\":4328:4343   */\n  mstore\n    /* \"#utility.yul\":4362:4366   */\n  0x24\n    /* \"#utility.yul\":4359:4360   */\n  0x00\n    /* \"#utility.yul\":4352:4367   */\n  revert\n    /* \"#utility.yul\":4379:4699   */\ntag_27:\n    /* \"#utility.yul\":4423:4429   */\n  0x00\n    /* \"#utility.yul\":4460:4461   */\n  0x02\n    /* \"#utility.yul\":4454:4458   */\n  dup3\n    /* \"#utility.yul\":4450:4462   */\n  div\n    /* \"#utility.yul\":4440:4462   */\n  swap1\n  pop\n    /* \"#utility.yul\":4507:4508   */\n  0x01\n    /* \"#utility.yul\":4501:4505   */\n  dup3\n    /* \"#utility.yul\":4497:4509   */\n  and\n    /* \"#utility.yul\":4528:4546   */\n  dup1\n    /* \"#utility.yul\":4518:4599   */\n  tag_92\n  jumpi\n    /* \"#utility.yul\":4584:4588   */\n  0x7f\n    /* \"#utility.yul\":4576:4582   */\n  dup3\n    /* \"#utility.yul\":4572:4589   */\n  and\n    /* \"#utility.yul\":4562:4589   */\n  swap2\n  pop\n    /* \"#utility.yul\":4518:4599   */\ntag_92:\n    /* \"#utility.yul\":4646:4648   */\n  0x20\n    /* \"#utility.yul\":4638:4644   */\n  dup3\n    /* \"#utility.yul\":4635:4649   */\n  lt\n    /* \"#utility.yul\":4615:4633   */\n  dup2\n    /* \"#utility.yul\":4612:4650   */\n  sub\n    /* \"#utility.yul\":4609:4693   */\n  tag_93\n  jumpi\n    /* \"#utility.yul\":4665:4683   */\n  tag_94\n  tag_26\n  jump\t// in\ntag_94:\n    /* \"#utility.yul\":4609:4693   */\ntag_93:\n    /* \"#utility.yul\":4430:4699   */\n  pop\n    /* \"#utility.yul\":4379:4699   */\n  swap2\n  swap1\n  pop\n  jump\t// out\n    /* \"#utility.yul\":4705:4846   */\ntag_28:\n    /* \"#utility.yul\":4754:4758   */\n  0x00\n    /* \"#utility.yul\":4777:4780   */\n  dup2\n    /* \"#utility.yul\":4769:4780   */\n  swap1\n  pop\n    /* \"#utility.yul\":4800:4803   */\n  dup2\n    /* \"#utility.yul\":4797:4798   */\n  0x00\n    /* \"#utility.yul\":4790:4804   */\n  mstore\n    /* \"#utility.yul\":4834:4838   */\n  0x20\n    /* \"#utility.yul\":4831:4832   */\n  0x00\n    /* \"#utility.yul\":4821:4839   */\n  keccak256\n    /* \"#utility.yul\":4813:4839   */\n  swap1\n  pop\n    /* \"#utility.yul\":4705:4846   */\n  swap2\n  swap1\n  pop\n  jump\t// out\n    /* \"#utility.yul\":4852:4945   */\ntag_29:\n    /* \"#utility.yul\":4889:4895   */\n  0x00\n    /* \"#utility.yul\":4936:4938   */\n  0x20\n    /* \"#utility.yul\":4931:4933   */\n  0x1f\n    /* \"#utility.yul\":4924:4929   */\n  dup4\n    /* \"#utility.yul\":4920:4934   */\n  add\n    /* \"#utility.yul\":4916:4939   */\n  div\n    /* \"#utility.yul\":4906:4939   */\n  swap1\n  pop\n    /* \"#utility.yul\":4852:4945   */\n  swap2\n  swap1\n  pop\n  jump\t// out\n    /* \"#utility.yul\":4951:5058   */\ntag_30:\n    /* \"#utility.yul\":4995:5003   */\n  0x00\n    /* \"#utility.yul\":5045:5050   */\n  dup3\n    /* \"#utility.yul\":5039:5043   */\n  dup3\n    /* \"#utility.yul\":5035:5051   */\n  shl\n    /* \"#utility.yul\":5014:5051   */\n  swap1\n  pop\n    /* \"#utility.yul\":4951:5058   */\n  swap3\n  swap2\n  pop\n  pop\n  jump\t// out\n    /* \"#utility.yul\":5064:5457   */\ntag_31:\n    /* \"#utility.yul\":5133:5139   */\n  0x00\n    /* \"#utility.yul\":5183:5184   */\n  0x08\n    /* \"#utility.yul\":5171:5181   */\n  dup4\n    /* \"#utility.yul\":5167:5185   */\n  mul\n    /* \"#utility.yul\":5206:5303   */\n  tag_99\n    /* \"#utility.yul\":5236:5302   */\n  0xffffffffffffffffffffffffffffffffffffffffffffffffffffffffffffffff\n    /* \"#utility.yul\":5225:5234   */\n  dup3\n    /* \"#utility.yul\":5206:5303   */\n  tag_30\n  jump\t// in\ntag_99:\n    /* \"#utility.yul\":5324:5363   */\n  tag_100\n    /* \"#utility.yul\":5354:5362   */\n  dup7\n    /* \"#utility.yul\":5343:5352   */\n  dup4\n    /* \"#utility.yul\":5324:5363   */\n  tag_30\n  jump\t// in\ntag_100:\n    /* \"#utility.yul\":5312:5363   */\n  swap6\n  pop\n    /* \"#utility.yul\":5396:5400   */\n  dup1\n    /* \"#utility.yul\":5392:5401   */\n  not\n    /* \"#utility.yul\":5385:5390   */\n  dup5\n    /* \"#utility.yul\":5381:5402   */\n  and\n    /* \"#utility.yul\":5372:5402   */\n  swap4\n  pop\n    /* \"#utility.yul\":5445:5449   */\n  dup1\n    /* \"#utility.yul\":5435:5443   */\n  dup7\n    /* \"#utility.yul\":5431:5450   */\n  and\n    /* \"#utility.yul\":5424:5429   */\n  dup5\n    /* \"#utility.yul\":5421:5451   */\n  or\n    /* \"#utility.yul\":5411:5451   */\n  swap3\n  pop\n    /* \"#utility.yul\":5140:5457   */\n  pop\n  pop\n    /* \"#utility.yul\":5064:5457   */\n  swap4\n  swap3\n  pop\n  pop\n  pop\n  jump\t// out\n    /* \"#utility.yul\":5463:5540   */\ntag_32:\n    /* \"#utility.yul\":5500:5507   */\n  0x00\n    /* \"#utility.yul\":5529:5534   */\n  dup2\n    /* \"#utility.yul\":5518:5534   */\n  swap1\n  pop\n    /* \"#utility.yul\":5463:5540   */\n  swap2\n  swap1\n  pop\n  jump\t// out\n    /* \"#utility.yul\":5546:5606   */\ntag_33:\n    /* \"#utility.yul\":5574:5577   */\n  0x00\n    /* \"#utility.yul\":5595:5600   */\n  dup2\n    /* \"#utility.yul\":5588:5600   */\n  swap1\n  pop\n    /* \"#utility.yul\":5546:5606   */\n  swap2\n  swap1\n  pop\n  jump\t// out\n    /* \"#utility.yul\":5612:5754   */\ntag_34:\n    /* \"#utility.yul\":5662:5671   */\n  0x00\n    /* \"#utility.yul\":5695:5748   */\n  tag_104\n    /* \"#utility.yul\":5713:5747   */\n  tag_105\n    /* \"#utility.yul\":5722:5746   */\n  tag_106\n    /* \"#utility.yul\":5740:5745   */\n  dup5\n    /* \"#utility.yul\":5722:5746   */\n  tag_32\n  jump\t// in\ntag_106:\n    /* \"#utility.yul\":5713:5747   */\n  tag_33\n  jump\t// in\ntag_105:\n    /* \"#utility.yul\":5695:5748   */\n  tag_32\n  jump\t// in\ntag_104:\n    /* \"#utility.yul\":5682:5748   */\n  swap1\n  pop\n    /* \"#utility.yul\":5612:5754   */\n  swap2\n  swap1\n  pop\n  jump\t// out\n    /* \"#utility.yul\":5760:5835   */\ntag_35:\n    /* \"#utility.yul\":5803:5806   */\n  0x00\n    /* \"#utility.yul\":5824:5829   */\n  dup2\n    /* \"#utility.yul\":5817:5829   */\n  swap1\n  pop\n    /* \"#utility.yul\":5760:5835   */\n  swap2\n  swap1\n  pop\n  jump\t// out\n    /* \"#utility.yul\":5841:6110   */\ntag_36:\n    /* \"#utility.yul\":5951:5990   */\n  tag_109\n    /* \"#utility.yul\":5982:5989   */\n  dup4\n    /* \"#utility.yul\":5951:5990   */\n  tag_34\n  jump\t// in\ntag_109:\n    /* \"#utility.yul\":6012:6103   */\n  tag_110\n    /* \"#utility.yul\":6061:6102   */\n  tag_111\n    /* \"#utility.yul\":6085:6101   */\n  dup3\n    /* \"#utility.yul\":6061:6102   */\n  tag_35\n  jump\t// in\ntag_111:\n    /* \"#utility.yul\":6053:6059   */\n  dup5\n    /* \"#utility.yul\":6046:6050   */\n  dup5\n    /* \"#utility.yul\":6040:6051   */\n  sload\n    /* \"#utility.yul\":6012:6103   */\n  tag_31\n  jump\t// in\ntag_110:\n    /* \"#utility.yul\":6006:6010   */\n  dup3\n    /* \"#utility.yul\":5999:6104   */\n  sstore\n    /* \"#utility.yul\":5917:6110   */\n  pop\n    /* \"#utility.yul\":5841:6110   */\n  pop\n  pop\n  pop\n  jump\t// out\n    /* \"#utility.yul\":6116:6189   */\ntag_37:\n    /* \"#utility.yul\":6161:6164   */\n  0x00\n    /* \"#utility.yul\":6182:6183   */\n  0x00\n    /* \"#utility.yul\":6175:6183   */\n  swap1\n  pop\n    /* \"#utility.yul\":6116:6189   */\n  swap1\n  jump\t// out\n    /* \"#utility.yul\":6195:6384   */\ntag_38:\n    /* \"#utility.yul\":6272:6304   */\n  tag_114\n  tag_37\n  jump\t// in\ntag_114:\n    /* \"#utility.yul\":6313:6378   */\n  tag_115\n    /* \"#utility.yul\":6371:6377   */\n  dup2\n    /* \"#utility.yul\":6363:6369   */\n  dup5\n    /* \"#utility.yul\":6357:6361   */\n  dup5\n    /* \"#utility.yul\":6313:6378   */\n  tag_36\n  jump\t// in\ntag_115:\n    /* \"#utility.yul\":6248:6384   */\n  pop\n    /* \"#utility.yul\":6195:6384   */\n  pop\n  pop\n  jump\t// out\n    /* \"#utility.yul\":6390:6576   */\ntag_39:\n    /* \"#utility.yul\":6450:6570   */\ntag_117:\n    /* \"#utility.yul\":6467:6470   */\n  dup2\n    /* \"#utility.yul\":6460:6465   */\n  dup2\n    /* \"#utility.yul\":6457:6471   */\n  lt\n    /* \"#utility.yul\":6450:6570   */\n  iszero\n  tag_119\n  jumpi\n    /* \"#utility.yul\":6521:6560   */\n  tag_120\n    /* \"#utility.yul\":6558:6559   */\n  0x00\n    /* \"#utility.yul\":6551:6556   */\n  dup3\n    /* \"#utility.yul\":6521:6560   */\n  tag_38\n  jump\t// in\ntag_120:\n    /* \"#utility.yul\":6494:6495   */\n  0x01\n    /* \"#utility.yul\":6487:6492   */\n  dup2\n    /* \"#utility.yul\":6483:6496   */\n  add\n    /* \"#utility.yul\":6474:6496   */\n  swap1\n  pop\n    /* \"#utility.yul\":6450:6570   */\n  jump(tag_117)\ntag_119:\n    /* \"#utility.yul\":6390:6576   */\n  pop\n  pop\n  jump\t// out\n    /* \"#utility.yul\":6582:7125   */\ntag_40:\n    /* \"#utility.yul\":6683:6685   */\n  0x1f\n    /* \"#utility.yul\":6678:6681   */\n  dup3\n    /* \"#utility.yul\":6675:6686   */\n  gt\n    /* \"#utility.yul\":6672:7118   */\n  iszero\n  tag_122\n  jumpi\n    /* \"#utility.yul\":6717:6755   */\n  tag_123\n    /* \"#utility.yul\":6749:6754   */\n  dup2\n    /* \"#utility.yul\":6717:6755   */\n  tag_28\n  jump\t// in\ntag_123:\n    /* \"#utility.yul\":6801:6830   */\n  tag_124\n    /* \"#utility.yul\":6819:6829   */\n  dup5\n    /* \"#utility.yul\":6801:6830   */\n  tag_29\n  jump\t// in\ntag_124:\n    /* \"#utility.yul\":6791:6799   */\n  dup2\n    /* \"#utility.yul\":6787:6831   */\n  add\n    /* \"#utility.yul\":6984:6986   */\n  0x20\n    /* \"#utility.yul\":6972:6982   */\n  dup6\n    /* \"#utility.yul\":6969:6987   */\n  lt\n    /* \"#utility.yul\":6966:7015   */\n  iszero\n  tag_125\n  jumpi\n    /* \"#utility.yul\":7005:7013   */\n  dup2\n    /* \"#utility.yul\":6990:7013   */\n  swap1\n  pop\n    /* \"#utility.yul\":6966:7015   */\ntag_125:\n    /* \"#utility.yul\":7028:7108   */\n  tag_126\n    /* \"#utility.yul\":7084:7106   */\n  tag_127\n    /* \"#utility.yul\":7102:7105   */\n  dup6\n    /* \"#utility.yul\":7084:7106   */\n  tag_29\n  jump\t// in\ntag_127:\n    /* \"#utility.yul\":7074:7082   */\n  dup4\n    /* \"#utility.yul\":7070:7107   */\n  add\n    /* \"#utility.yul\":7057:7068   */\n  dup3\n    /* \"#utility.yul\":7028:7108   */\n  tag_39\n  jump\t// in\ntag_126:\n    /* \"#utility.yul\":6687:7118   */\n  pop\n  pop\n    /* \"#utility.yul\":6672:7118   */\ntag_122:\n    /* \"#utility.yul\":6582:7125   */\n  pop\n  pop\n  pop\n  jump\t// out\n    /* \"#utility.yul\":7131:7248   */\ntag_41:\n    /* \"#utility.yul\":7185:7193   */\n  0x00\n    /* \"#utility.yul\":7235:7240   */\n  dup3\n    /* \"#utility.yul\":7229:7233   */\n  dup3\n    /* \"#utility.yul\":7225:7241   */\n  shr\n    /* \"#utility.yul\":7204:7241   */\n  swap1\n  pop\n    /* \"#utility.yul\":7131:7248   */\n  swap3\n  swap2\n  pop\n  pop\n  jump\t// out\n    /* \"#utility.yul\":7254:7423   */\ntag_42:\n    /* \"#utility.yul\":7298:7304   */\n  0x00\n    /* \"#utility.yul\":7331:7382   */\n  tag_130\n    /* \"#utility.yul\":7379:7380   */\n  0x00\n    /* \"#utility.yul\":7375:7381   */\n  not\n    /* \"#utility.yul\":7367:7372   */\n  dup5\n    /* \"#utility.yul\":7364:7365   */\n  0x08\n    /* \"#utility.yul\":7360:7373   */\n  mul\n    /* \"#utility.yul\":7331:7382   */\n  tag_41\n  jump\t// in\ntag_130:\n    /* \"#utility.yul\":7327:7383   */\n  not\n    /* \"#utility.yul\":7412:7416   */\n  dup1\n    /* \"#utility.yul\":7406:7410   */\n  dup4\n    /* \"#utility.yul\":7402:7417   */\n  and\n    /* \"#utility.yul\":7392:7417   */\n  swap2\n  pop\n    /* \"#utility.yul\":7305:7423   */\n  pop\n    /* \"#utility.yul\":7254:7423   */\n  swap3\n  swap2\n  pop\n  pop\n  jump\t// out\n    /* \"#utility.yul\":7428:7723   */\ntag_43:\n    /* \"#utility.yul\":7504:7508   */\n  0x00\n    /* \"#utility.yul\":7650:7679   */\n  tag_132\n    /* \"#utility.yul\":7675:7678   */\n  dup4\n    /* \"#utility.yul\":7669:7673   */\n  dup4\n    /* \"#utility.yul\":7650:7679   */\n  tag_42\n  jump\t// in\ntag_132:\n    /* \"#utility.yul\":7642:7679   */\n  swap2\n  pop\n    /* \"#utility.yul\":7712:7715   */\n  dup3\n    /* \"#utility.yul\":7709:7710   */\n  0x02\n    /* \"#utility.yul\":7705:7716   */\n  mul\n    /* \"#utility.yul\":7699:7703   */\n  dup3\n    /* \"#utility.yul\":7696:7717   */\n  or\n    /* \"#utility.yul\":7688:7717   */\n  swap1\n  pop\n    /* \"#utility.yul\":7428:7723   */\n  swap3\n  swap2\n  pop\n  pop\n  jump\t// out\n    /* \"#utility.yul\":7728:9123   */\ntag_7:\n    /* \"#utility.yul\":7845:7882   */\n  tag_134\n    /* \"#utility.yul\":7878:7881   */\n  dup3\n    /* \"#utility.yul\":7845:7882   */\n  tag_25\n  jump\t// in\ntag_134:\n    /* \"#utility.yul\":7947:7965   */\n  0xffffffffffffffff\n    /* \"#utility.yul\":7939:7945   */\n  dup2\n    /* \"#utility.yul\":7936:7966   */\n  gt\n    /* \"#utility.yul\":7933:7989   */\n  iszero\n  tag_135\n  jumpi\n    /* \"#utility.yul\":7969:7987   */\n  tag_136\n  tag_18\n  jump\t// in\ntag_136:\n    /* \"#utility.yul\":7933:7989   */\ntag_135:\n    /* \"#utility.yul\":8013:8051   */\n  tag_137\n    /* \"#utility.yul\":8045:8049   */\n  dup3\n    /* \"#utility.yul\":8039:8050   */\n  sload\n    /* \"#utility.yul\":8013:8051   */\n  tag_27\n  jump\t// in\ntag_137:\n    /* \"#utility.yul\":8098:8165   */\n  tag_138\n    /* \"#utility.yul\":8158:8164   */\n  dup3\n    /* \"#utility.yul\":8150:8156   */\n  dup3\n    /* \"#utility.yul\":8144:8148   */\n  dup6\n    /* \"#utility.yul\":8098:8165   */\n  tag_40\n  jump\t// in\ntag_138:\n    /* \"#utility.yul\":8192:8193   */\n  0x00\n    /* \"#utility.yul\":8216:8220   */\n  0x20\n    /* \"#utility.yul\":8203:8220   */\n  swap1\n  pop\n    /* \"#utility.yul\":8248:8250   */\n  0x1f\n    /* \"#utility.yul\":8240:8246   */\n  dup4\n    /* \"#utility.yul\":8237:8251   */\n  gt\n    /* \"#utility.yul\":8265:8266   */\n  0x01\n    /* \"#utility.yul\":8260:8878   */\n  dup2\n  eq\n  tag_140\n  jumpi\n    /* \"#utility.yul\":8922:8923   */\n  0x00\n    /* \"#utility.yul\":8939:8945   */\n  dup5\n    /* \"#utility.yul\":8936:9013   */\n  iszero\n  tag_141\n  jumpi\n    /* \"#utility.yul\":8988:8997   */\n  dup3\n    /* \"#utility.yul\":8983:8986   */\n  dup8\n    /* \"#utility.yul\":8979:8998   */\n  add\n    /* \"#utility.yul\":8973:8999   */\n  mload\n    /* \"#utility.yul\":8964:8999   */\n  swap1\n  pop\n    /* \"#utility.yul\":8936:9013   */\ntag_141:\n    /* \"#utility.yul\":9039:9106   */\n  tag_142\n    /* \"#utility.yul\":9099:9105   */\n  dup6\n    /* \"#utility.yul\":9092:9097   */\n  dup3\n    /* \"#utility.yul\":9039:9106   */\n  tag_43\n  jump\t// in\ntag_142:\n    /* \"#utility.yul\":9033:9037   */\n  dup7\n    /* \"#utility.yul\":9026:9107   */\n  sstore\n    /* \"#utility.yul\":8895:9117   */\n  pop\n    /* \"#utility.yul\":8230:9117   */\n  jump(tag_139)\n    /* \"#utility.yul\":8260:8878   */\ntag_140:\n    /* \"#utility.yul\":8312:8316   */\n  0x1f\n    /* \"#utility.yul\":8308:8317   */\n  not\n    /* \"#utility.yul\":8300:8306   */\n  dup5\n    /* \"#utility.yul\":8296:8318   */\n  and\n    /* \"#utility.yul\":8346:8383   */\n  tag_143\n    /* \"#utility.yul\":8378:8382   */\n  dup7\n    /* \"#utility.yul\":8346:8383   */\n  tag_28\n  jump\t// in\ntag_143:\n    /* \"#utility.yul\":8405:8406   */\n  0x00\n    /* \"#utility.yul\":8419:8627   */\ntag_144:\n    /* \"#utility.yul\":8433:8440   */\n  dup3\n    /* \"#utility.yul\":8430:8431   */\n  dup2\n    /* \"#utility.yul\":8427:8441   */\n  lt\n    /* \"#utility.yul\":8419:8627   */\n  iszero\n  tag_146\n  jumpi\n    /* \"#utility.yul\":8512:8521   */\n  dup5\n    /* \"#utility.yul\":8507:8510   */\n  dup10\n    /* \"#utility.yul\":8503:8522   */\n  add\n    /* \"#utility.yul\":8497:8523   */\n  mload\n    /* \"#utility.yul\":8489:8495   */\n  dup3\n    /* \"#utility.yul\":8482:8524   */\n  sstore\n    /* \"#utility.yul\":8563:8564   */\n  0x01\n    /* \"#utility.yul\":8555:8561   */\n  dup3\n    /* \"#utility.yul\":8551:8565   */\n  add\n    /* \"#utility.yul\":8541:8565   */\n  swap2\n  pop\n    /* \"#utility.yul\":8610:8612   */\n  0x20\n    /* \"#utility.yul\":8599:8608   */\n  dup6\n    /* \"#utility.yul\":8595:8613   */\n  add\n    /* \"#utility.yul\":8582:8613   */\n  swap5\n  pop\n    /* \"#utility.yul\":8456:8460   */\n  0x20\n    /* \"#utility.yul\":8453:8454   */\n  dup2\n    /* \"#utility.yul\":8449:8461   */\n  add\n    /* \"#utility.yul\":8444:8461   */\n  swap1\n  pop\n    /* \"#utility.yul\":8419:8627   */\n  jump(tag_144)\ntag_146:\n    /* \"#utility.yul\":8655:8661   */\n  dup7\n    /* \"#utility.yul\":8646:8653   */\n  dup4\n    /* \"#utility.yul\":8643:8662   */\n  lt\n    /* \"#utility.yul\":8640:8819   */\n  iszero\n  tag_147\n  jumpi\n    /* \"#utility.yul\":8713:8722   */\n  dup5\n    /* \"#utility.yul\":8708:8711   */\n  dup10\n    /* \"#utility.yul\":8704:8723   */\n  add\n    /* \"#utility.yul\":8698:8724   */\n  mload\n    /* \"#utility.yul\":8756:8804   */\n  tag_148\n    /* \"#utility.yul\":8798:8802   */\n  0x1f\n    /* \"#utility.yul\":8790:8796   */\n  dup10\n    /* \"#utility.yul\":8786:8803   */\n  and\n    /* \"#utility.yul\":8775:8784   */\n  dup3\n    /* \"#utility.yul\":8756:8804   */\n  tag_42\n  jump\t// in\ntag_148:\n    /* \"#utility.yul\":8748:8754   */\n  dup4\n    /* \"#utility.yul\":8741:8805   */\n  sstore\n    /* \"#utility.yul\":8663:8819   */\n  pop\n    /* \"#utility.yul\":8640:8819   */\ntag_147:\n    /* \"#utility.yul\":8865:8866   */\n  0x01\n    /* \"#utility.yul\":8861:8862   */\n  0x02\n    /* \"#utility.yul\":8853:8859   */\n  dup9\n    /* \"#utility.yul\":8849:8863   */\n  mul\n    /* \"#utility.yul\":8845:8867   */\n  add\n    /* \"#utility.yul\":8839:8843   */\n  dup9\n    /* \"#utility.yul\":8832:8868   */\n  sstore\n    /* \"#utility.yul\":8267:8878   */\n  pop\n  pop\n  pop\n    /* \"#utility.yul\":8230:9117   */\ntag_139:\n  pop\n    /* \"#utility.yul\":7820:9123   */\n  pop\n  pop\n  pop\n    /* \"#utility.yul\":7728:9123   */\n  pop\n  pop\n  jump\t// out\n    /* \"Contract_Conqueror_Series/ERC721standards.sol\":174:5736  contract UnifiedNFT {... */\ntag_11:\n  dataSize(sub_0)\n  dup1\n  dataOffset(sub_0)\n  0x00\n  codecopy\n  0x00\n  return\nstop\n\nsub_0: assembly {\n        /* \"Contract_Conqueror_Series/ERC721standards.sol\":174:5736  contract UnifiedNFT {... */\n      mstore(0x40, 0x80)\n      callvalue\n      dup1\n      iszero\n      tag_1\n      jumpi\n      revert(0x00, 0x00)\n    tag_1:\n      pop\n      jumpi(tag_2, lt(calldatasize, 0x04))\n      shr(0xe0, calldataload(0x00))\n      dup1\n      0x6352211e\n      gt\n      tag_22\n      jumpi\n      dup1\n      0x95d89b41\n      gt\n      tag_23\n      jumpi\n      dup1\n      0x95d89b41\n      eq\n      tag_17\n      jumpi\n      dup1\n      0xa475b5dd\n      eq\n      tag_18\n      jumpi\n      dup1\n      0xc87b56dd\n      eq\n      tag_19\n      jumpi\n      dup1\n      0xe43252d7\n      eq\n      tag_20\n      jumpi\n      dup1\n      0xf2c4ce1e\n      eq\n      tag_21\n      jumpi\n      jump(tag_2)\n    tag_23:\n      dup1\n      0x6352211e\n      eq\n      tag_12\n      jumpi\n      dup1\n      0x6871ee40\n      eq\n      tag_13\n      jumpi\n      dup1\n      0x70a08231\n      eq\n      tag_14\n      jumpi\n      dup1\n      0x8ab1d681\n      eq\n      tag_15\n      jumpi\n      dup1\n      0x8da5cb5b\n      eq\n      tag_16\n      jumpi\n      jump(tag_2)\n    tag_22:\n      dup1\n      0x21bae9e4\n      gt\n      tag_24\n      jumpi\n      dup1\n      0x21bae9e4\n      eq\n      tag_7\n      jumpi\n      dup1\n      0x23b872dd\n      eq\n      tag_8\n      jumpi\n      dup1\n      0x3af32abf\n      eq\n      tag_9\n      jumpi\n      dup1\n      0x51830227\n      eq\n      tag_10\n      jumpi\n      dup1\n      0x55f804b3\n      eq\n      tag_11\n      jumpi\n      jump(tag_2)\n    tag_24:\n      dup1\n      0x06fdde03\n      eq\n      tag_3\n      jumpi\n      dup1\n      0x081812fc\n      eq\n      tag_4\n      jumpi\n      dup1\n      0x095ea7b3\n      eq\n      tag_5\n      jumpi\n      dup1\n      0x18160ddd\n      eq\n      tag_6\n      jumpi\n    tag_2:\n      revert(0x00, 0x00)\n        /* \"Contract_Conqueror_Series/ERC721standards.sol\":201:219  string public name */\n    tag_3:\n      tag_25\n      tag_26\n      jump\t// in\n    tag_25:\n      mload(0x40)\n      tag_27\n      swap2\n      swap1\n      tag_28\n      jump\t// in\n    tag_27:\n      mload(0x40)\n      dup1\n      swap2\n      sub\n      swap1\n      return\n        /* \"Contract_Conqueror_Series/ERC721standards.sol\":2374:2492  function getApproved(uint256 tokenId) public view returns (address) {... */\n    tag_4:\n      tag_29\n      0x04\n      dup1\n      calldatasize\n      sub\n      dup2\n      add\n      swap1\n      tag_30\n      swap2\n      swap1\n      tag_31\n      jump\t// in\n    tag_30:\n      tag_32\n      jump\t// in\n    tag_29:\n      mload(0x40)\n      tag_33\n      swap2\n      swap1\n      tag_34\n      jump\t// in\n    tag_33:\n      mload(0x40)\n      dup1\n      swap2\n      sub\n      swap1\n      return\n        /* \"Contract_Conqueror_Series/ERC721standards.sol\":2031:2366  function approve(address to, uint256 tokenId) public {... */\n    tag_5:\n      tag_35\n      0x04\n      dup1\n      calldatasize\n      sub\n      dup2\n      add\n      swap1\n      tag_36\n      swap2\n      swap1\n      tag_37\n      jump\t// in\n    tag_36:\n      tag_38\n      jump\t// in\n    tag_35:\n      stop\n        /* \"Contract_Conqueror_Series/ERC721standards.sol\":280:306  uint256 public totalSupply */\n    tag_6:\n      tag_39\n      tag_40\n      jump\t// in\n    tag_39:\n      mload(0x40)\n      tag_41\n      swap2\n      swap1\n      tag_42\n      jump\t// in\n    tag_41:\n      mload(0x40)\n      dup1\n      swap2\n      sub\n      swap1\n      return\n        /* \"Contract_Conqueror_Series/ERC721standards.sol\":3537:3836  function safeMintTo(address to) public onlyOwner {... */\n    tag_7:\n      tag_43\n      0x04\n      dup1\n      calldatasize\n      sub\n      dup2\n      add\n      swap1\n      tag_44\n      swap2\n      swap1\n      tag_45\n      jump\t// in\n    tag_44:\n      tag_46\n      jump\t// in\n    tag_43:\n      stop\n        /* \"Contract_Conqueror_Series/ERC721standards.sol\":2500:2991  function transferFrom(address from, address to, uint256 tokenId) public {... */\n    tag_8:\n      tag_47\n      0x04\n      dup1\n      calldatasize\n      sub\n      dup2\n      add\n      swap1\n      tag_48\n      swap2\n      swap1\n      tag_49\n      jump\t// in\n    tag_48:\n      tag_50\n      jump\t// in\n    tag_47:\n      stop\n        /* \"Contract_Conqueror_Series/ERC721standards.sol\":5017:5122  function isWhitelisted(address user) public view returns (bool) {... */\n    tag_9:\n      tag_51\n      0x04\n      dup1\n      calldatasize\n      sub\n      dup2\n      add\n      swap1\n      tag_52\n      swap2\n      swap1\n      tag_45\n      jump\t// in\n    tag_52:\n      tag_53\n      jump\t// in\n    tag_51:\n      mload(0x40)\n      tag_54\n      swap2\n      swap1\n      tag_55\n      jump\t// in\n    tag_54:\n      mload(0x40)\n      dup1\n      swap2\n      sub\n      swap1\n      return\n        /* \"Contract_Conqueror_Series/ERC721standards.sol\":380:400  bool public revealed */\n    tag_10:\n      tag_56\n      tag_57\n      jump\t// in\n    tag_56:\n      mload(0x40)\n      tag_58\n      swap2\n      swap1\n      tag_55\n      jump\t// in\n    tag_58:\n      mload(0x40)\n      dup1\n      swap2\n      sub\n      swap1\n      return\n        /* \"Contract_Conqueror_Series/ERC721standards.sol\":4317:4409  function setBaseURI(string memory _base) public onlyOwner {... */\n    tag_11:\n      tag_59\n      0x04\n      dup1\n      calldatasize\n      sub\n      dup2\n      add\n      swap1\n      tag_60\n      swap2\n      swap1\n      tag_61\n      jump\t// in\n    tag_60:\n      tag_62\n      jump\t// in\n    tag_59:\n      stop\n        /* \"Contract_Conqueror_Series/ERC721standards.sol\":1820:2023  function ownerOf(uint256 tokenId) public view returns (address) {... */\n    tag_12:\n      tag_63\n      0x04\n      dup1\n      calldatasize\n      sub\n      dup2\n      add\n      swap1\n      tag_64\n      swap2\n      swap1\n      tag_31\n      jump\t// in\n    tag_64:\n      tag_65\n      jump\t// in\n    tag_63:\n      mload(0x40)\n      tag_66\n      swap2\n      swap1\n      tag_34\n      jump\t// in\n    tag_66:\n      mload(0x40)\n      dup1\n      swap2\n      sub\n      swap1\n      return\n        /* \"Contract_Conqueror_Series/ERC721standards.sol\":3140:3465  function safeMint() public onlyWhitelisted {... */\n    tag_13:\n      tag_67\n      tag_68\n      jump\t// in\n    tag_67:\n      stop\n        /* \"Contract_Conqueror_Series/ERC721standards.sol\":1636:1812  function balanceOf(address _owner) public view returns (uint256) {... */\n    tag_14:\n      tag_69\n      0x04\n      dup1\n      calldatasize\n      sub\n      dup2\n      add\n      swap1\n      tag_70\n      swap2\n      swap1\n      tag_45\n      jump\t// in\n    tag_70:\n      tag_71\n      jump\t// in\n    tag_69:\n      mload(0x40)\n      tag_72\n      swap2\n      swap1\n      tag_42\n      jump\t// in\n    tag_72:\n      mload(0x40)\n      dup1\n      swap2\n      sub\n      swap1\n      return\n        /* \"Contract_Conqueror_Series/ERC721standards.sol\":4865:5009  function removeFromWhitelist(address user) public onlyOwner {... */\n    tag_15:\n      tag_73\n      0x04\n      dup1\n      calldatasize\n      sub\n      dup2\n      add\n      swap1\n      tag_74\n      swap2\n      swap1\n      tag_45\n      jump\t// in\n    tag_74:\n      tag_75\n      jump\t// in\n    tag_73:\n      stop\n        /* \"Contract_Conqueror_Series/ERC721standards.sol\":253:273  address public owner */\n    tag_16:\n      tag_76\n      tag_77\n      jump\t// in\n    tag_76:\n      mload(0x40)\n      tag_78\n      swap2\n      swap1\n      tag_34\n      jump\t// in\n    tag_78:\n      mload(0x40)\n      dup1\n      swap2\n      sub\n      swap1\n      return\n        /* \"Contract_Conqueror_Series/ERC721standards.sol\":226:246  string public symbol */\n    tag_17:\n      tag_79\n      tag_80\n      jump\t// in\n    tag_79:\n      mload(0x40)\n      tag_81\n      swap2\n      swap1\n      tag_28\n      jump\t// in\n    tag_81:\n      mload(0x40)\n      dup1\n      swap2\n      sub\n      swap1\n      return\n        /* \"Contract_Conqueror_Series/ERC721standards.sol\":4529:4624  function reveal() public onlyOwner {... */\n    tag_18:\n      tag_82\n      tag_83\n      jump\t// in\n    tag_82:\n      stop\n        /* \"Contract_Conqueror_Series/ERC721standards.sol\":4001:4309  function tokenURI(uint256 tokenId) public view returns (string memory) {... */\n    tag_19:\n      tag_84\n      0x04\n      dup1\n      calldatasize\n      sub\n      dup2\n      add\n      swap1\n      tag_85\n      swap2\n      swap1\n      tag_31\n      jump\t// in\n    tag_85:\n      tag_86\n      jump\t// in\n    tag_84:\n      mload(0x40)\n      tag_87\n      swap2\n      swap1\n      tag_28\n      jump\t// in\n    tag_87:\n      mload(0x40)\n      dup1\n      swap2\n      sub\n      swap1\n      return\n        /* \"Contract_Conqueror_Series/ERC721standards.sol\":4728:4857  function addToWhitelist(address user) public onlyOwner {... */\n    tag_20:\n      tag_88\n      0x04\n      dup1\n      calldatasize\n      sub\n      dup2\n      add\n      swap1\n      tag_89\n      swap2\n      swap1\n      tag_45\n      jump\t// in\n    tag_89:\n      tag_90\n      jump\t// in\n    tag_88:\n      stop\n        /* \"Contract_Conqueror_Series/ERC721standards.sol\":4417:4521  function setNotRevealedURI(string memory _uri) public onlyOwner {... */\n    tag_21:\n      tag_91\n      0x04\n      dup1\n      calldatasize\n      sub\n      dup2\n      add\n      swap1\n      tag_92\n      swap2\n      swap1\n      tag_61\n      jump\t// in\n    tag_92:\n      tag_93\n      jump\t// in\n    tag_91:\n      stop\n        /* \"Contract_Conqueror_Series/ERC721standards.sol\":201:219  string public name */\n    tag_26:\n      0x00\n      dup1\n      sload\n      tag_94\n      swap1\n      tag_95\n      jump\t// in\n    tag_94:\n      dup1\n      0x1f\n      add\n      0x20\n      dup1\n      swap2\n      div\n      mul\n      0x20\n      add\n      mload(0x40)\n      swap1\n      dup2\n      add\n      0x40\n      mstore\n      dup1\n      swap3\n      swap2\n      swap1\n      dup2\n      dup2\n      mstore\n      0x20\n      add\n      dup3\n      dup1\n      sload\n      tag_96\n      swap1\n      tag_95\n      jump\t// in\n    tag_96:\n      dup1\n      iszero\n      tag_97\n      jumpi\n      dup1\n      0x1f\n      lt\n      tag_98\n      jumpi\n      0x0100\n      dup1\n      dup4\n      sload\n      div\n      mul\n      dup4\n      mstore\n      swap2\n      0x20\n      add\n      swap2\n      jump(tag_97)\n    tag_98:\n      dup3\n      add\n      swap2\n      swap1\n      0x00\n      mstore\n      keccak256(0x00, 0x20)\n      swap1\n    tag_99:\n      dup2\n      sload\n      dup2\n      mstore\n      swap1\n      0x01\n      add\n      swap1\n      0x20\n      add\n      dup1\n      dup4\n      gt\n      tag_99\n      jumpi\n      dup3\n      swap1\n      sub\n      0x1f\n      and\n      dup3\n      add\n      swap2\n    tag_97:\n      pop\n      pop\n      pop\n      pop\n      pop\n      dup2\n      jump\t// out\n        /* \"Contract_Conqueror_Series/ERC721standards.sol\":2374:2492  function getApproved(uint256 tokenId) public view returns (address) {... */\n    tag_32:\n        /* \"Contract_Conqueror_Series/ERC721standards.sol\":2433:2440  address */\n      0x00\n        /* \"Contract_Conqueror_Series/ERC721standards.sol\":2460:2475  _tokenApprovals */\n      0x09\n        /* \"Contract_Conqueror_Series/ERC721standards.sol\":2460:2484  _tokenApprovals[tokenId] */\n      0x00\n        /* \"Contract_Conqueror_Series/ERC721standards.sol\":2476:2483  tokenId */\n      dup4\n        /* \"Contract_Conqueror_Series/ERC721standards.sol\":2460:2484  _tokenApprovals[tokenId] */\n      dup2\n      mstore\n      0x20\n      add\n      swap1\n      dup2\n      mstore\n      0x20\n      add\n      0x00\n      keccak256\n      0x00\n      swap1\n      sload\n      swap1\n      0x0100\n      exp\n      swap1\n      div\n      0xffffffffffffffffffffffffffffffffffffffff\n      and\n        /* \"Contract_Conqueror_Series/ERC721standards.sol\":2453:2484  return _tokenApprovals[tokenId] */\n      swap1\n      pop\n        /* \"Contract_Conqueror_Series/ERC721standards.sol\":2374:2492  function getApproved(uint256 tokenId) public view returns (address) {... */\n      swap2\n      swap1\n      pop\n      jump\t// out\n        /* \"Contract_Conqueror_Series/ERC721standards.sol\":2031:2366  function approve(address to, uint256 tokenId) public {... */\n    tag_38:\n        /* \"Contract_Conqueror_Series/ERC721standards.sol\":2095:2114  address _tokenOwner */\n      0x00\n        /* \"Contract_Conqueror_Series/ERC721standards.sol\":2117:2133  ownerOf(tokenId) */\n      tag_102\n        /* \"Contract_Conqueror_Series/ERC721standards.sol\":2125:2132  tokenId */\n      dup3\n        /* \"Contract_Conqueror_Series/ERC721standards.sol\":2117:2124  ownerOf */\n      tag_65\n        /* \"Contract_Conqueror_Series/ERC721standards.sol\":2117:2133  ownerOf(tokenId) */\n      jump\t// in\n    tag_102:\n        /* \"Contract_Conqueror_Series/ERC721standards.sol\":2095:2133  address _tokenOwner = ownerOf(tokenId) */\n      swap1\n      pop\n        /* \"Contract_Conqueror_Series/ERC721standards.sol\":2166:2177  _tokenOwner */\n      dup1\n        /* \"Contract_Conqueror_Series/ERC721standards.sol\":2152:2177  msg.sender == _tokenOwner */\n      0xffffffffffffffffffffffffffffffffffffffff\n      and\n        /* \"Contract_Conqueror_Series/ERC721standards.sol\":2152:2162  msg.sender */\n      caller\n        /* \"Contract_Conqueror_Series/ERC721standards.sol\":2152:2177  msg.sender == _tokenOwner */\n      0xffffffffffffffffffffffffffffffffffffffff\n      and\n      eq\n        /* \"Contract_Conqueror_Series/ERC721standards.sol\":2144:2197  require(msg.sender == _tokenOwner, \"Not token owner\") */\n      tag_103\n      jumpi\n      mload(0x40)\n      0x08c379a000000000000000000000000000000000000000000000000000000000\n      dup2\n      mstore\n      0x04\n      add\n      tag_104\n      swap1\n      tag_105\n      jump\t// in\n    tag_104:\n      mload(0x40)\n      dup1\n      swap2\n      sub\n      swap1\n      revert\n    tag_103:\n        /* \"Contract_Conqueror_Series/ERC721standards.sol\":2222:2233  _tokenOwner */\n      dup1\n        /* \"Contract_Conqueror_Series/ERC721standards.sol\":2216:2233  to != _tokenOwner */\n      0xffffffffffffffffffffffffffffffffffffffff\n      and\n        /* \"Contract_Conqueror_Series/ERC721standards.sol\":2216:2218  to */\n      dup4\n        /* \"Contract_Conqueror_Series/ERC721standards.sol\":2216:2233  to != _tokenOwner */\n      0xffffffffffffffffffffffffffffffffffffffff\n      and\n      sub\n        /* \"Contract_Conqueror_Series/ERC721standards.sol\":2208:2266  require(to != _tokenOwner, \"Cannot approve current owner\") */\n      tag_106\n      jumpi\n      mload(0x40)\n      0x08c379a000000000000000000000000000000000000000000000000000000000\n      dup2\n      mstore\n      0x04\n      add\n      tag_107\n      swap1\n      tag_108\n      jump\t// in\n    tag_107:\n      mload(0x40)\n      dup1\n      swap2\n      sub\n      swap1\n      revert\n    tag_106:\n        /* \"Contract_Conqueror_Series/ERC721standards.sol\":2306:2308  to */\n      dup3\n        /* \"Contract_Conqueror_Series/ERC721standards.sol\":2279:2294  _tokenApprovals */\n      0x09\n        /* \"Contract_Conqueror_Series/ERC721standards.sol\":2279:2303  _tokenApprovals[tokenId] */\n      0x00\n        /* \"Contract_Conqueror_Series/ERC721standards.sol\":2295:2302  tokenId */\n      dup5\n        /* \"Contract_Conqueror_Series/ERC721standards.sol\":2279:2303  _tokenApprovals[tokenId] */\n      dup2\n      mstore\n      0x20\n      add\n      swap1\n      dup2\n      mstore\n      0x20\n      add\n      0x00\n      keccak256\n      0x00\n        /* \"Contract_Conqueror_Series/ERC721standards.sol\":2279:2308  _tokenApprovals[tokenId] = to */\n      0x0100\n      exp\n      dup2\n      sload\n      dup2\n      0xffffffffffffffffffffffffffffffffffffffff\n      mul\n      not\n      and\n      swap1\n      dup4\n      0xffffffffffffffffffffffffffffffffffffffff\n      and\n      mul\n      or\n      swap1\n      sstore\n      pop\n        /* \"Contract_Conqueror_Series/ERC721standards.sol\":2350:2357  tokenId */\n      dup2\n        /* \"Contract_Conqueror_Series/ERC721standards.sol\":2346:2348  to */\n      dup4\n        /* \"Contract_Conqueror_Series/ERC721standards.sol\":2324:2358  Approval(_tokenOwner, to, tokenId) */\n      0xffffffffffffffffffffffffffffffffffffffff\n      and\n        /* \"Contract_Conqueror_Series/ERC721standards.sol\":2333:2344  _tokenOwner */\n      dup3\n        /* \"Contract_Conqueror_Series/ERC721standards.sol\":2324:2358  Approval(_tokenOwner, to, tokenId) */\n      0xffffffffffffffffffffffffffffffffffffffff\n      and\n      0x8c5be1e5ebec7d5bd14f71427d1e84f3dd0314c0f7b2291e5b200ac8c7c3b925\n      mload(0x40)\n      mload(0x40)\n      dup1\n      swap2\n      sub\n      swap1\n      log4\n        /* \"Contract_Conqueror_Series/ERC721standards.sol\":2084:2366  {... */\n      pop\n        /* \"Contract_Conqueror_Series/ERC721standards.sol\":2031:2366  function approve(address to, uint256 tokenId) public {... */\n      pop\n      pop\n      jump\t// out\n        /* \"Contract_Conqueror_Series/ERC721standards.sol\":280:306  uint256 public totalSupply */\n    tag_40:\n      sload(0x03)\n      dup2\n      jump\t// out\n        /* \"Contract_Conqueror_Series/ERC721standards.sol\":3537:3836  function safeMintTo(address to) public onlyOwner {... */\n    tag_46:\n        /* \"Contract_Conqueror_Series/ERC721standards.sol\":1024:1029  owner */\n      0x02\n      0x00\n      swap1\n      sload\n      swap1\n      0x0100\n      exp\n      swap1\n      div\n      0xffffffffffffffffffffffffffffffffffffffff\n      and\n        /* \"Contract_Conqueror_Series/ERC721standards.sol\":1010:1029  msg.sender == owner */\n      0xffffffffffffffffffffffffffffffffffffffff\n      and\n        /* \"Contract_Conqueror_Series/ERC721standards.sol\":1010:1020  msg.sender */\n      caller\n        /* \"Contract_Conqueror_Series/ERC721standards.sol\":1010:1029  msg.sender == owner */\n      0xffffffffffffffffffffffffffffffffffffffff\n      and\n      eq\n        /* \"Contract_Conqueror_Series/ERC721standards.sol\":1002:1052  require(msg.sender == owner, \"Not contract owner\") */\n      tag_110\n      jumpi\n      mload(0x40)\n      0x08c379a000000000000000000000000000000000000000000000000000000000\n      dup2\n      mstore\n      0x04\n      add\n      tag_111\n      swap1\n      tag_112\n      jump\t// in\n    tag_111:\n      mload(0x40)\n      dup1\n      swap2\n      sub\n      swap1\n      revert\n    tag_110:\n        /* \"Contract_Conqueror_Series/ERC721standards.sol\":3619:3620  0 */\n      0x00\n        /* \"Contract_Conqueror_Series/ERC721standards.sol\":3605:3621  to != address(0) */\n      0xffffffffffffffffffffffffffffffffffffffff\n      and\n        /* \"Contract_Conqueror_Series/ERC721standards.sol\":3605:3607  to */\n      dup2\n        /* \"Contract_Conqueror_Series/ERC721standards.sol\":3605:3621  to != address(0) */\n      0xffffffffffffffffffffffffffffffffffffffff\n      and\n      sub\n        /* \"Contract_Conqueror_Series/ERC721standards.sol\":3597:3638  require(to != address(0), \"Zero address\") */\n      tag_114\n      jumpi\n      mload(0x40)\n      0x08c379a000000000000000000000000000000000000000000000000000000000\n      dup2\n      mstore\n      0x04\n      add\n      tag_115\n      swap1\n      tag_116\n      jump\t// in\n    tag_115:\n      mload(0x40)\n      dup1\n      swap2\n      sub\n      swap1\n      revert\n    tag_114:\n        /* \"Contract_Conqueror_Series/ERC721standards.sol\":3651:3666  uint256 tokenId */\n      0x00\n        /* \"Contract_Conqueror_Series/ERC721standards.sol\":3683:3684  1 */\n      0x01\n        /* \"Contract_Conqueror_Series/ERC721standards.sol\":3669:3680  totalSupply */\n      sload(0x03)\n        /* \"Contract_Conqueror_Series/ERC721standards.sol\":3669:3684  totalSupply + 1 */\n      tag_117\n      swap2\n      swap1\n      tag_118\n      jump\t// in\n    tag_117:\n        /* \"Contract_Conqueror_Series/ERC721standards.sol\":3651:3684  uint256 tokenId = totalSupply + 1 */\n      swap1\n      pop\n        /* \"Contract_Conqueror_Series/ERC721standards.sol\":3714:3716  to */\n      dup2\n        /* \"Contract_Conqueror_Series/ERC721standards.sol\":3695:3702  _owners */\n      0x07\n        /* \"Contract_Conqueror_Series/ERC721standards.sol\":3695:3711  _owners[tokenId] */\n      0x00\n        /* \"Contract_Conqueror_Series/ERC721standards.sol\":3703:3710  tokenId */\n      dup4\n        /* \"Contract_Conqueror_Series/ERC721standards.sol\":3695:3711  _owners[tokenId] */\n      dup2\n      mstore\n      0x20\n      add\n      swap1\n      dup2\n      mstore\n      0x20\n      add\n      0x00\n      keccak256\n      0x00\n        /* \"Contract_Conqueror_Series/ERC721standards.sol\":3695:3716  _owners[tokenId] = to */\n      0x0100\n      exp\n      dup2\n      sload\n      dup2\n      0xffffffffffffffffffffffffffffffffffffffff\n      mul\n      not\n      and\n      swap1\n      dup4\n      0xffffffffffffffffffffffffffffffffffffffff\n      and\n      mul\n      or\n      swap1\n      sstore\n      pop\n        /* \"Contract_Conqueror_Series/ERC721standards.sol\":3744:3745  1 */\n      0x01\n        /* \"Contract_Conqueror_Series/ERC721standards.sol\":3727:3736  _balances */\n      0x08\n        /* \"Contract_Conqueror_Series/ERC721standards.sol\":3727:3740  _balances[to] */\n      0x00\n        /* \"Contract_Conqueror_Series/ERC721standards.sol\":3737:3739  to */\n      dup5\n        /* \"Contract_Conqueror_Series/ERC721standards.sol\":3727:3740  _balances[to] */\n      0xffffffffffffffffffffffffffffffffffffffff\n      and\n      0xffffffffffffffffffffffffffffffffffffffff\n      and\n      dup2\n      mstore\n      0x20\n      add\n      swap1\n      dup2\n      mstore\n      0x20\n      add\n      0x00\n      keccak256\n      0x00\n        /* \"Contract_Conqueror_Series/ERC721standards.sol\":3727:3745  _balances[to] += 1 */\n      dup3\n      dup3\n      sload\n      tag_119\n      swap2\n      swap1\n      tag_118\n      jump\t// in\n    tag_119:\n      swap3\n      pop\n      pop\n      dup2\n      swap1\n      sstore\n      pop\n        /* \"Contract_Conqueror_Series/ERC721standards.sol\":3770:3777  tokenId */\n      dup1\n        /* \"Contract_Conqueror_Series/ERC721standards.sol\":3756:3767  totalSupply */\n      0x03\n        /* \"Contract_Conqueror_Series/ERC721standards.sol\":3756:3777  totalSupply = tokenId */\n      dup2\n      swap1\n      sstore\n      pop\n        /* \"Contract_Conqueror_Series/ERC721standards.sol\":3820:3827  tokenId */\n      dup1\n        /* \"Contract_Conqueror_Series/ERC721standards.sol\":3816:3818  to */\n      dup3\n        /* \"Contract_Conqueror_Series/ERC721standards.sol\":3795:3828  Transfer(address(0), to, tokenId) */\n      0xffffffffffffffffffffffffffffffffffffffff\n      and\n        /* \"Contract_Conqueror_Series/ERC721standards.sol\":3812:3813  0 */\n      0x00\n        /* \"Contract_Conqueror_Series/ERC721standards.sol\":3795:3828  Transfer(address(0), to, tokenId) */\n      0xffffffffffffffffffffffffffffffffffffffff\n      and\n      0xddf252ad1be2c89b69c2b068fc378daa952ba7f163c4a11628f55a4df523b3ef\n      mload(0x40)\n      mload(0x40)\n      dup1\n      swap2\n      sub\n      swap1\n      log4\n        /* \"Contract_Conqueror_Series/ERC721standards.sol\":3586:3836  {... */\n      pop\n        /* \"Contract_Conqueror_Series/ERC721standards.sol\":3537:3836  function safeMintTo(address to) public onlyOwner {... */\n      pop\n      jump\t// out\n        /* \"Contract_Conqueror_Series/ERC721standards.sol\":2500:2991  function transferFrom(address from, address to, uint256 tokenId) public {... */\n    tag_50:\n        /* \"Contract_Conqueror_Series/ERC721standards.sol\":2611:2615  from */\n      dup3\n        /* \"Contract_Conqueror_Series/ERC721standards.sol\":2591:2615  ownerOf(tokenId) == from */\n      0xffffffffffffffffffffffffffffffffffffffff\n      and\n        /* \"Contract_Conqueror_Series/ERC721standards.sol\":2591:2607  ownerOf(tokenId) */\n      tag_121\n        /* \"Contract_Conqueror_Series/ERC721standards.sol\":2599:2606  tokenId */\n      dup3\n        /* \"Contract_Conqueror_Series/ERC721standards.sol\":2591:2598  ownerOf */\n      tag_65\n        /* \"Contract_Conqueror_Series/ERC721standards.sol\":2591:2607  ownerOf(tokenId) */\n      jump\t// in\n    tag_121:\n        /* \"Contract_Conqueror_Series/ERC721standards.sol\":2591:2615  ownerOf(tokenId) == from */\n      0xffffffffffffffffffffffffffffffffffffffff\n      and\n      eq\n        /* \"Contract_Conqueror_Series/ERC721standards.sol\":2583:2635  require(ownerOf(tokenId) == from, \"Not token owner\") */\n      tag_122\n      jumpi\n      mload(0x40)\n      0x08c379a000000000000000000000000000000000000000000000000000000000\n      dup2\n      mstore\n      0x04\n      add\n      tag_123\n      swap1\n      tag_105\n      jump\t// in\n    tag_123:\n      mload(0x40)\n      dup1\n      swap2\n      sub\n      swap1\n      revert\n    tag_122:\n        /* \"Contract_Conqueror_Series/ERC721standards.sol\":2668:2669  0 */\n      0x00\n        /* \"Contract_Conqueror_Series/ERC721standards.sol\":2654:2670  to != address(0) */\n      0xffffffffffffffffffffffffffffffffffffffff\n      and\n        /* \"Contract_Conqueror_Series/ERC721standards.sol\":2654:2656  to */\n      dup3\n        /* \"Contract_Conqueror_Series/ERC721standards.sol\":2654:2670  to != address(0) */\n      0xffffffffffffffffffffffffffffffffffffffff\n      and\n      sub\n        /* \"Contract_Conqueror_Series/ERC721standards.sol\":2646:2706  require(to != address(0), \"Cannot transfer to zero address\") */\n      tag_124\n      jumpi\n      mload(0x40)\n      0x08c379a000000000000000000000000000000000000000000000000000000000\n      dup2\n      mstore\n      0x04\n      add\n      tag_125\n      swap1\n      tag_126\n      jump\t// in\n    tag_125:\n      mload(0x40)\n      dup1\n      swap2\n      sub\n      swap1\n      revert\n    tag_124:\n        /* \"Contract_Conqueror_Series/ERC721standards.sol\":2739:2743  from */\n      dup3\n        /* \"Contract_Conqueror_Series/ERC721standards.sol\":2725:2743  msg.sender == from */\n      0xffffffffffffffffffffffffffffffffffffffff\n      and\n        /* \"Contract_Conqueror_Series/ERC721standards.sol\":2725:2735  msg.sender */\n      caller\n        /* \"Contract_Conqueror_Series/ERC721standards.sol\":2725:2743  msg.sender == from */\n      0xffffffffffffffffffffffffffffffffffffffff\n      and\n      eq\n        /* \"Contract_Conqueror_Series/ERC721standards.sol\":2725:2785  msg.sender == from || msg.sender == _tokenApprovals[tokenId] */\n      dup1\n      tag_127\n      jumpi\n      pop\n        /* \"Contract_Conqueror_Series/ERC721standards.sol\":2761:2776  _tokenApprovals */\n      0x09\n        /* \"Contract_Conqueror_Series/ERC721standards.sol\":2761:2785  _tokenApprovals[tokenId] */\n      0x00\n        /* \"Contract_Conqueror_Series/ERC721standards.sol\":2777:2784  tokenId */\n      dup3\n        /* \"Contract_Conqueror_Series/ERC721standards.sol\":2761:2785  _tokenApprovals[tokenId] */\n      dup2\n      mstore\n      0x20\n      add\n      swap1\n      dup2\n      mstore\n      0x20\n      add\n      0x00\n      keccak256\n      0x00\n      swap1\n      sload\n      swap1\n      0x0100\n      exp\n      swap1\n      div\n      0xffffffffffffffffffffffffffffffffffffffff\n      and\n        /* \"Contract_Conqueror_Series/ERC721standards.sol\":2747:2785  msg.sender == _tokenApprovals[tokenId] */\n      0xffffffffffffffffffffffffffffffffffffffff\n      and\n        /* \"Contract_Conqueror_Series/ERC721standards.sol\":2747:2757  msg.sender */\n      caller\n        /* \"Contract_Conqueror_Series/ERC721standards.sol\":2747:2785  msg.sender == _tokenApprovals[tokenId] */\n      0xffffffffffffffffffffffffffffffffffffffff\n      and\n      eq\n        /* \"Contract_Conqueror_Series/ERC721standards.sol\":2725:2785  msg.sender == from || msg.sender == _tokenApprovals[tokenId] */\n    tag_127:\n        /* \"Contract_Conqueror_Series/ERC721standards.sol\":2717:2802  require(msg.sender == from || msg.sender == _tokenApprovals[tokenId], \"Not approved\") */\n      tag_128\n      jumpi\n      mload(0x40)\n      0x08c379a000000000000000000000000000000000000000000000000000000000\n      dup2\n      mstore\n      0x04\n      add\n      tag_129\n      swap1\n      tag_130\n      jump\t// in\n    tag_129:\n      mload(0x40)\n      dup1\n      swap2\n      sub\n      swap1\n      revert\n    tag_128:\n        /* \"Contract_Conqueror_Series/ERC721standards.sol\":2834:2835  1 */\n      0x01\n        /* \"Contract_Conqueror_Series/ERC721standards.sol\":2815:2824  _balances */\n      0x08\n        /* \"Contract_Conqueror_Series/ERC721standards.sol\":2815:2830  _balances[from] */\n      0x00\n        /* \"Contract_Conqueror_Series/ERC721standards.sol\":2825:2829  from */\n      dup6\n        /* \"Contract_Conqueror_Series/ERC721standards.sol\":2815:2830  _balances[from] */\n      0xffffffffffffffffffffffffffffffffffffffff\n      and\n      0xffffffffffffffffffffffffffffffffffffffff\n      and\n      dup2\n      mstore\n      0x20\n      add\n      swap1\n      dup2\n      mstore\n      0x20\n      add\n      0x00\n      keccak256\n      0x00\n        /* \"Contract_Conqueror_Series/ERC721standards.sol\":2815:2835  _balances[from] -= 1 */\n      dup3\n      dup3\n      sload\n      tag_131\n      swap2\n      swap1\n      tag_132\n      jump\t// in\n    tag_131:\n      swap3\n      pop\n      pop\n      dup2\n      swap1\n      sstore\n      pop\n        /* \"Contract_Conqueror_Series/ERC721standards.sol\":2863:2864  1 */\n      0x01\n        /* \"Contract_Conqueror_Series/ERC721standards.sol\":2846:2855  _balances */\n      0x08\n        /* \"Contract_Conqueror_Series/ERC721standards.sol\":2846:2859  _balances[to] */\n      0x00\n        /* \"Contract_Conqueror_Series/ERC721standards.sol\":2856:2858  to */\n      dup5\n        /* \"Contract_Conqueror_Series/ERC721standards.sol\":2846:2859  _balances[to] */\n      0xffffffffffffffffffffffffffffffffffffffff\n      and\n      0xffffffffffffffffffffffffffffffffffffffff\n      and\n      dup2\n      mstore\n      0x20\n      add\n      swap1\n      dup2\n      mstore\n      0x20\n      add\n      0x00\n      keccak256\n      0x00\n        /* \"Contract_Conqueror_Series/ERC721standards.sol\":2846:2864  _balances[to] += 1 */\n      dup3\n      dup3\n      sload\n      tag_133\n      swap2\n      swap1\n      tag_118\n      jump\t// in\n    tag_133:\n      swap3\n      pop\n      pop\n      dup2\n      swap1\n      sstore\n      pop\n        /* \"Contract_Conqueror_Series/ERC721standards.sol\":2894:2896  to */\n      dup2\n        /* \"Contract_Conqueror_Series/ERC721standards.sol\":2875:2882  _owners */\n      0x07\n        /* \"Contract_Conqueror_Series/ERC721standards.sol\":2875:2891  _owners[tokenId] */\n      0x00\n        /* \"Contract_Conqueror_Series/ERC721standards.sol\":2883:2890  tokenId */\n      dup4\n        /* \"Contract_Conqueror_Series/ERC721standards.sol\":2875:2891  _owners[tokenId] */\n      dup2\n      mstore\n      0x20\n      add\n      swap1\n      dup2\n      mstore\n      0x20\n      add\n      0x00\n      keccak256\n      0x00\n        /* \"Contract_Conqueror_Series/ERC721standards.sol\":2875:2896  _owners[tokenId] = to */\n      0x0100\n      exp\n      dup2\n      sload\n      dup2\n      0xffffffffffffffffffffffffffffffffffffffff\n      mul\n      not\n      and\n      swap1\n      dup4\n      0xffffffffffffffffffffffffffffffffffffffff\n      and\n      mul\n      or\n      swap1\n      sstore\n      pop\n        /* \"Contract_Conqueror_Series/ERC721standards.sol\":2916:2931  _tokenApprovals */\n      0x09\n        /* \"Contract_Conqueror_Series/ERC721standards.sol\":2916:2940  _tokenApprovals[tokenId] */\n      0x00\n        /* \"Contract_Conqueror_Series/ERC721standards.sol\":2932:2939  tokenId */\n      dup3\n        /* \"Contract_Conqueror_Series/ERC721standards.sol\":2916:2940  _tokenApprovals[tokenId] */\n      dup2\n      mstore\n      0x20\n      add\n      swap1\n      dup2\n      mstore\n      0x20\n      add\n      0x00\n      keccak256\n      0x00\n        /* \"Contract_Conqueror_Series/ERC721standards.sol\":2909:2940  delete _tokenApprovals[tokenId] */\n      0x0100\n      exp\n      dup2\n      sload\n      swap1\n      0xffffffffffffffffffffffffffffffffffffffff\n      mul\n      not\n      and\n      swap1\n      sstore\n        /* \"Contract_Conqueror_Series/ERC721standards.sol\":2975:2982  tokenId */\n      dup1\n        /* \"Contract_Conqueror_Series/ERC721standards.sol\":2971:2973  to */\n      dup3\n        /* \"Contract_Conqueror_Series/ERC721standards.sol\":2956:2983  Transfer(from, to, tokenId) */\n      0xffffffffffffffffffffffffffffffffffffffff\n      and\n        /* \"Contract_Conqueror_Series/ERC721standards.sol\":2965:2969  from */\n      dup5\n        /* \"Contract_Conqueror_Series/ERC721standards.sol\":2956:2983  Transfer(from, to, tokenId) */\n      0xffffffffffffffffffffffffffffffffffffffff\n      and\n      0xddf252ad1be2c89b69c2b068fc378daa952ba7f163c4a11628f55a4df523b3ef\n      mload(0x40)\n      mload(0x40)\n      dup1\n      swap2\n      sub\n      swap1\n      log4\n        /* \"Contract_Conqueror_Series/ERC721standards.sol\":2500:2991  function transferFrom(address from, address to, uint256 tokenId) public {... */\n      pop\n      pop\n      pop\n      jump\t// out\n        /* \"Contract_Conqueror_Series/ERC721standards.sol\":5017:5122  function isWhitelisted(address user) public view returns (bool) {... */\n    tag_53:\n        /* \"Contract_Conqueror_Series/ERC721standards.sol\":5075:5079  bool */\n      0x00\n        /* \"Contract_Conqueror_Series/ERC721standards.sol\":5099:5108  whitelist */\n      0x0a\n        /* \"Contract_Conqueror_Series/ERC721standards.sol\":5099:5114  whitelist[user] */\n      0x00\n        /* \"Contract_Conqueror_Series/ERC721standards.sol\":5109:5113  user */\n      dup4\n        /* \"Contract_Conqueror_Series/ERC721standards.sol\":5099:5114  whitelist[user] */\n      0xffffffffffffffffffffffffffffffffffffffff\n      and\n      0xffffffffffffffffffffffffffffffffffffffff\n      and\n      dup2\n      mstore\n      0x20\n      add\n      swap1\n      dup2\n      mstore\n      0x20\n      add\n      0x00\n      keccak256\n      0x00\n      swap1\n      sload\n      swap1\n      0x0100\n      exp\n      swap1\n      div\n      0xff\n      and\n        /* \"Contract_Conqueror_Series/ERC721standards.sol\":5092:5114  return whitelist[user] */\n      swap1\n      pop\n        /* \"Contract_Conqueror_Series/ERC721standards.sol\":5017:5122  function isWhitelisted(address user) public view returns (bool) {... */\n      swap2\n      swap1\n      pop\n      jump\t// out\n        /* \"Contract_Conqueror_Series/ERC721standards.sol\":380:400  bool public revealed */\n    tag_57:\n      0x06\n      0x00\n      swap1\n      sload\n      swap1\n      0x0100\n      exp\n      swap1\n      div\n      0xff\n      and\n      dup2\n      jump\t// out\n        /* \"Contract_Conqueror_Series/ERC721standards.sol\":4317:4409  function setBaseURI(string memory _base) public onlyOwner {... */\n    tag_62:\n        /* \"Contract_Conqueror_Series/ERC721standards.sol\":1024:1029  owner */\n      0x02\n      0x00\n      swap1\n      sload\n      swap1\n      0x0100\n      exp\n      swap1\n      div\n      0xffffffffffffffffffffffffffffffffffffffff\n      and\n        /* \"Contract_Conqueror_Series/ERC721standards.sol\":1010:1029  msg.sender == owner */\n      0xffffffffffffffffffffffffffffffffffffffff\n      and\n        /* \"Contract_Conqueror_Series/ERC721standards.sol\":1010:1020  msg.sender */\n      caller\n        /* \"Contract_Conqueror_Series/ERC721standards.sol\":1010:1029  msg.sender == owner */\n      0xffffffffffffffffffffffffffffffffffffffff\n      and\n      eq\n        /* \"Contract_Conqueror_Series/ERC721standards.sol\":1002:1052  require(msg.sender == owner, \"Not contract owner\") */\n      tag_136\n      jumpi\n      mload(0x40)\n      0x08c379a000000000000000000000000000000000000000000000000000000000\n      dup2\n      mstore\n      0x04\n      add\n      tag_137\n      swap1\n      tag_112\n      jump\t// in\n    tag_137:\n      mload(0x40)\n      dup1\n      swap2\n      sub\n      swap1\n      revert\n    tag_136:\n        /* \"Contract_Conqueror_Series/ERC721standards.sol\":4396:4401  _base */\n      dup1\n        /* \"Contract_Conqueror_Series/ERC721standards.sol\":4386:4393  baseURI */\n      0x04\n        /* \"Contract_Conqueror_Series/ERC721standards.sol\":4386:4401  baseURI = _base */\n      swap1\n      dup2\n      tag_139\n      swap2\n      swap1\n      tag_140\n      jump\t// in\n    tag_139:\n      pop\n        /* \"Contract_Conqueror_Series/ERC721standards.sol\":4317:4409  function setBaseURI(string memory _base) public onlyOwner {... */\n      pop\n      jump\t// out\n        /* \"Contract_Conqueror_Series/ERC721standards.sol\":1820:2023  function ownerOf(uint256 tokenId) public view returns (address) {... */\n    tag_65:\n        /* \"Contract_Conqueror_Series/ERC721standards.sol\":1875:1882  address */\n      0x00\n        /* \"Contract_Conqueror_Series/ERC721standards.sol\":1895:1909  address _owner */\n      0x00\n        /* \"Contract_Conqueror_Series/ERC721standards.sol\":1912:1919  _owners */\n      0x07\n        /* \"Contract_Conqueror_Series/ERC721standards.sol\":1912:1928  _owners[tokenId] */\n      0x00\n        /* \"Contract_Conqueror_Series/ERC721standards.sol\":1920:1927  tokenId */\n      dup5\n        /* \"Contract_Conqueror_Series/ERC721standards.sol\":1912:1928  _owners[tokenId] */\n      dup2\n      mstore\n      0x20\n      add\n      swap1\n      dup2\n      mstore\n      0x20\n      add\n      0x00\n      keccak256\n      0x00\n      swap1\n      sload\n      swap1\n      0x0100\n      exp\n      swap1\n      div\n      0xffffffffffffffffffffffffffffffffffffffff\n      and\n        /* \"Contract_Conqueror_Series/ERC721standards.sol\":1895:1928  address _owner = _owners[tokenId] */\n      swap1\n      pop\n        /* \"Contract_Conqueror_Series/ERC721standards.sol\":1965:1966  0 */\n      0x00\n        /* \"Contract_Conqueror_Series/ERC721standards.sol\":1947:1967  _owner != address(0) */\n      0xffffffffffffffffffffffffffffffffffffffff\n      and\n        /* \"Contract_Conqueror_Series/ERC721standards.sol\":1947:1953  _owner */\n      dup2\n        /* \"Contract_Conqueror_Series/ERC721standards.sol\":1947:1967  _owner != address(0) */\n      0xffffffffffffffffffffffffffffffffffffffff\n      and\n      sub\n        /* \"Contract_Conqueror_Series/ERC721standards.sol\":1939:1991  require(_owner != address(0), \"Token doesn't exist\") */\n      tag_142\n      jumpi\n      mload(0x40)\n      0x08c379a000000000000000000000000000000000000000000000000000000000\n      dup2\n      mstore\n      0x04\n      add\n      tag_143\n      swap1\n      tag_144\n      jump\t// in\n    tag_143:\n      mload(0x40)\n      dup1\n      swap2\n      sub\n      swap1\n      revert\n    tag_142:\n        /* \"Contract_Conqueror_Series/ERC721standards.sol\":2009:2015  _owner */\n      dup1\n        /* \"Contract_Conqueror_Series/ERC721standards.sol\":2002:2015  return _owner */\n      swap2\n      pop\n      pop\n        /* \"Contract_Conqueror_Series/ERC721standards.sol\":1820:2023  function ownerOf(uint256 tokenId) public view returns (address) {... */\n      swap2\n      swap1\n      pop\n      jump\t// out\n        /* \"Contract_Conqueror_Series/ERC721standards.sol\":3140:3465  function safeMint() public onlyWhitelisted {... */\n    tag_68:\n        /* \"Contract_Conqueror_Series/ERC721standards.sol\":1126:1135  whitelist */\n      0x0a\n        /* \"Contract_Conqueror_Series/ERC721standards.sol\":1126:1147  whitelist[msg.sender] */\n      0x00\n        /* \"Contract_Conqueror_Series/ERC721standards.sol\":1136:1146  msg.sender */\n      caller\n        /* \"Contract_Conqueror_Series/ERC721standards.sol\":1126:1147  whitelist[msg.sender] */\n      0xffffffffffffffffffffffffffffffffffffffff\n      and\n      0xffffffffffffffffffffffffffffffffffffffff\n      and\n      dup2\n      mstore\n      0x20\n      add\n      swap1\n      dup2\n      mstore\n      0x20\n      add\n      0x00\n      keccak256\n      0x00\n      swap1\n      sload\n      swap1\n      0x0100\n      exp\n      swap1\n      div\n      0xff\n      and\n        /* \"Contract_Conqueror_Series/ERC721standards.sol\":1118:1167  require(whitelist[msg.sender], \"Not whitelisted\") */\n      tag_146\n      jumpi\n      mload(0x40)\n      0x08c379a000000000000000000000000000000000000000000000000000000000\n      dup2\n      mstore\n      0x04\n      add\n      tag_147\n      swap1\n      tag_148\n      jump\t// in\n    tag_147:\n      mload(0x40)\n      dup1\n      swap2\n      sub\n      swap1\n      revert\n    tag_146:\n        /* \"Contract_Conqueror_Series/ERC721standards.sol\":3224:3225  0 */\n      0x00\n        /* \"Contract_Conqueror_Series/ERC721standards.sol\":3202:3226  msg.sender != address(0) */\n      0xffffffffffffffffffffffffffffffffffffffff\n      and\n        /* \"Contract_Conqueror_Series/ERC721standards.sol\":3202:3212  msg.sender */\n      caller\n        /* \"Contract_Conqueror_Series/ERC721standards.sol\":3202:3226  msg.sender != address(0) */\n      0xffffffffffffffffffffffffffffffffffffffff\n      and\n      sub\n        /* \"Contract_Conqueror_Series/ERC721standards.sol\":3194:3243  require(msg.sender != address(0), \"Zero address\") */\n      tag_150\n      jumpi\n      mload(0x40)\n      0x08c379a000000000000000000000000000000000000000000000000000000000\n      dup2\n      mstore\n      0x04\n      add\n      tag_151\n      swap1\n      tag_116\n      jump\t// in\n    tag_151:\n      mload(0x40)\n      dup1\n      swap2\n      sub\n      swap1\n      revert\n    tag_150:\n        /* \"Contract_Conqueror_Series/ERC721standards.sol\":3256:3271  uint256 tokenId */\n      0x00\n        /* \"Contract_Conqueror_Series/ERC721standards.sol\":3288:3289  1 */\n      0x01\n        /* \"Contract_Conqueror_Series/ERC721standards.sol\":3274:3285  totalSupply */\n      sload(0x03)\n        /* \"Contract_Conqueror_Series/ERC721standards.sol\":3274:3289  totalSupply + 1 */\n      tag_152\n      swap2\n      swap1\n      tag_118\n      jump\t// in\n    tag_152:\n        /* \"Contract_Conqueror_Series/ERC721standards.sol\":3256:3289  uint256 tokenId = totalSupply + 1 */\n      swap1\n      pop\n        /* \"Contract_Conqueror_Series/ERC721standards.sol\":3319:3329  msg.sender */\n      caller\n        /* \"Contract_Conqueror_Series/ERC721standards.sol\":3300:3307  _owners */\n      0x07\n        /* \"Contract_Conqueror_Series/ERC721standards.sol\":3300:3316  _owners[tokenId] */\n      0x00\n        /* \"Contract_Conqueror_Series/ERC721standards.sol\":3308:3315  tokenId */\n      dup4\n        /* \"Contract_Conqueror_Series/ERC721standards.sol\":3300:3316  _owners[tokenId] */\n      dup2\n      mstore\n      0x20\n      add\n      swap1\n      dup2\n      mstore\n      0x20\n      add\n      0x00\n      keccak256\n      0x00\n        /* \"Contract_Conqueror_Series/ERC721standards.sol\":3300:3329  _owners[tokenId] = msg.sender */\n      0x0100\n      exp\n      dup2\n      sload\n      dup2\n      0xffffffffffffffffffffffffffffffffffffffff\n      mul\n      not\n      and\n      swap1\n      dup4\n      0xffffffffffffffffffffffffffffffffffffffff\n      and\n      mul\n      or\n      swap1\n      sstore\n      pop\n        /* \"Contract_Conqueror_Series/ERC721standards.sol\":3365:3366  1 */\n      0x01\n        /* \"Contract_Conqueror_Series/ERC721standards.sol\":3340:3349  _balances */\n      0x08\n        /* \"Contract_Conqueror_Series/ERC721standards.sol\":3340:3361  _balances[msg.sender] */\n      0x00\n        /* \"Contract_Conqueror_Series/ERC721standards.sol\":3350:3360  msg.sender */\n      caller\n        /* \"Contract_Conqueror_Series/ERC721standards.sol\":3340:3361  _balances[msg.sender] */\n      0xffffffffffffffffffffffffffffffffffffffff\n      and\n      0xffffffffffffffffffffffffffffffffffffffff\n      and\n      dup2\n      mstore\n      0x20\n      add\n      swap1\n      dup2\n      mstore\n      0x20\n      add\n      0x00\n      keccak256\n      0x00\n        /* \"Contract_Conqueror_Series/ERC721standards.sol\":3340:3366  _balances[msg.sender] += 1 */\n      dup3\n      dup3\n      sload\n      tag_153\n      swap2\n      swap1\n      tag_118\n      jump\t// in\n    tag_153:\n      swap3\n      pop\n      pop\n      dup2\n      swap1\n      sstore\n      pop\n        /* \"Contract_Conqueror_Series/ERC721standards.sol\":3391:3398  tokenId */\n      dup1\n        /* \"Contract_Conqueror_Series/ERC721standards.sol\":3377:3388  totalSupply */\n      0x03\n        /* \"Contract_Conqueror_Series/ERC721standards.sol\":3377:3398  totalSupply = tokenId */\n      dup2\n      swap1\n      sstore\n      pop\n        /* \"Contract_Conqueror_Series/ERC721standards.sol\":3449:3456  tokenId */\n      dup1\n        /* \"Contract_Conqueror_Series/ERC721standards.sol\":3437:3447  msg.sender */\n      caller\n        /* \"Contract_Conqueror_Series/ERC721standards.sol\":3416:3457  Transfer(address(0), msg.sender, tokenId) */\n      0xffffffffffffffffffffffffffffffffffffffff\n      and\n        /* \"Contract_Conqueror_Series/ERC721standards.sol\":3433:3434  0 */\n      0x00\n        /* \"Contract_Conqueror_Series/ERC721standards.sol\":3416:3457  Transfer(address(0), msg.sender, tokenId) */\n      0xffffffffffffffffffffffffffffffffffffffff\n      and\n      0xddf252ad1be2c89b69c2b068fc378daa952ba7f163c4a11628f55a4df523b3ef\n      mload(0x40)\n      mload(0x40)\n      dup1\n      swap2\n      sub\n      swap1\n      log4\n        /* \"Contract_Conqueror_Series/ERC721standards.sol\":3183:3465  {... */\n      pop\n        /* \"Contract_Conqueror_Series/ERC721standards.sol\":3140:3465  function safeMint() public onlyWhitelisted {... */\n      jump\t// out\n        /* \"Contract_Conqueror_Series/ERC721standards.sol\":1636:1812  function balanceOf(address _owner) public view returns (uint256) {... */\n    tag_71:\n        /* \"Contract_Conqueror_Series/ERC721standards.sol\":1692:1699  uint256 */\n      0x00\n        /* \"Contract_Conqueror_Series/ERC721standards.sol\":1738:1739  0 */\n      0x00\n        /* \"Contract_Conqueror_Series/ERC721standards.sol\":1720:1740  _owner != address(0) */\n      0xffffffffffffffffffffffffffffffffffffffff\n      and\n        /* \"Contract_Conqueror_Series/ERC721standards.sol\":1720:1726  _owner */\n      dup3\n        /* \"Contract_Conqueror_Series/ERC721standards.sol\":1720:1740  _owner != address(0) */\n      0xffffffffffffffffffffffffffffffffffffffff\n      and\n      sub\n        /* \"Contract_Conqueror_Series/ERC721standards.sol\":1712:1769  require(_owner != address(0), \"Zero address not allowed\") */\n      tag_155\n      jumpi\n      mload(0x40)\n      0x08c379a000000000000000000000000000000000000000000000000000000000\n      dup2\n      mstore\n      0x04\n      add\n      tag_156\n      swap1\n      tag_157\n      jump\t// in\n    tag_156:\n      mload(0x40)\n      dup1\n      swap2\n      sub\n      swap1\n      revert\n    tag_155:\n        /* \"Contract_Conqueror_Series/ERC721standards.sol\":1787:1796  _balances */\n      0x08\n        /* \"Contract_Conqueror_Series/ERC721standards.sol\":1787:1804  _balances[_owner] */\n      0x00\n        /* \"Contract_Conqueror_Series/ERC721standards.sol\":1797:1803  _owner */\n      dup4\n        /* \"Contract_Conqueror_Series/ERC721standards.sol\":1787:1804  _balances[_owner] */\n      0xffffffffffffffffffffffffffffffffffffffff\n      and\n      0xffffffffffffffffffffffffffffffffffffffff\n      and\n      dup2\n      mstore\n      0x20\n      add\n      swap1\n      dup2\n      mstore\n      0x20\n      add\n      0x00\n      keccak256\n      sload\n        /* \"Contract_Conqueror_Series/ERC721standards.sol\":1780:1804  return _balances[_owner] */\n      swap1\n      pop\n        /* \"Contract_Conqueror_Series/ERC721standards.sol\":1636:1812  function balanceOf(address _owner) public view returns (uint256) {... */\n      swap2\n      swap1\n      pop\n      jump\t// out\n        /* \"Contract_Conqueror_Series/ERC721standards.sol\":4865:5009  function removeFromWhitelist(address user) public onlyOwner {... */\n    tag_75:\n        /* \"Contract_Conqueror_Series/ERC721standards.sol\":1024:1029  owner */\n      0x02\n      0x00\n      swap1\n      sload\n      swap1\n      0x0100\n      exp\n      swap1\n      div\n      0xffffffffffffffffffffffffffffffffffffffff\n      and\n        /* \"Contract_Conqueror_Series/ERC721standards.sol\":1010:1029  msg.sender == owner */\n      0xffffffffffffffffffffffffffffffffffffffff\n      and\n        /* \"Contract_Conqueror_Series/ERC721standards.sol\":1010:1020  msg.sender */\n      caller\n        /* \"Contract_Conqueror_Series/ERC721standards.sol\":1010:1029  msg.sender == owner */\n      0xffffffffffffffffffffffffffffffffffffffff\n      and\n      eq\n        /* \"Contract_Conqueror_Series/ERC721standards.sol\":1002:1052  require(msg.sender == owner, \"Not contract owner\") */\n      tag_159\n      jumpi\n      mload(0x40)\n      0x08c379a000000000000000000000000000000000000000000000000000000000\n      dup2\n      mstore\n      0x04\n      add\n      tag_160\n      swap1\n      tag_112\n      jump\t// in\n    tag_160:\n      mload(0x40)\n      dup1\n      swap2\n      sub\n      swap1\n      revert\n    tag_159:\n        /* \"Contract_Conqueror_Series/ERC721standards.sol\":4954:4959  false */\n      0x00\n        /* \"Contract_Conqueror_Series/ERC721standards.sol\":4936:4945  whitelist */\n      0x0a\n        /* \"Contract_Conqueror_Series/ERC721standards.sol\":4936:4951  whitelist[user] */\n      0x00\n        /* \"Contract_Conqueror_Series/ERC721standards.sol\":4946:4950  user */\n      dup4\n        /* \"Contract_Conqueror_Series/ERC721standards.sol\":4936:4951  whitelist[user] */\n      0xffffffffffffffffffffffffffffffffffffffff\n      and\n      0xffffffffffffffffffffffffffffffffffffffff\n      and\n      dup2\n      mstore\n      0x20\n      add\n      swap1\n      dup2\n      mstore\n      0x20\n      add\n      0x00\n      keccak256\n      0x00\n        /* \"Contract_Conqueror_Series/ERC721standards.sol\":4936:4959  whitelist[user] = false */\n      0x0100\n      exp\n      dup2\n      sload\n      dup2\n      0xff\n      mul\n      not\n      and\n      swap1\n      dup4\n      iszero\n      iszero\n      mul\n      or\n      swap1\n      sstore\n      pop\n        /* \"Contract_Conqueror_Series/ERC721standards.sol\":4996:5000  user */\n      dup1\n        /* \"Contract_Conqueror_Series/ERC721standards.sol\":4975:5001  RemovedFromWhitelist(user) */\n      0xffffffffffffffffffffffffffffffffffffffff\n      and\n      0xcdd2e9b91a56913d370075169cefa1602ba36be5301664f752192bb1709df757\n      mload(0x40)\n      mload(0x40)\n      dup1\n      swap2\n      sub\n      swap1\n      log2\n        /* \"Contract_Conqueror_Series/ERC721standards.sol\":4865:5009  function removeFromWhitelist(address user) public onlyOwner {... */\n      pop\n      jump\t// out\n        /* \"Contract_Conqueror_Series/ERC721standards.sol\":253:273  address public owner */\n    tag_77:\n      0x02\n      0x00\n      swap1\n      sload\n      swap1\n      0x0100\n      exp\n      swap1\n      div\n      0xffffffffffffffffffffffffffffffffffffffff\n      and\n      dup2\n      jump\t// out\n        /* \"Contract_Conqueror_Series/ERC721standards.sol\":226:246  string public symbol */\n    tag_80:\n      0x01\n      dup1\n      sload\n      tag_162\n      swap1\n      tag_95\n      jump\t// in\n    tag_162:\n      dup1\n      0x1f\n      add\n      0x20\n      dup1\n      swap2\n      div\n      mul\n      0x20\n      add\n      mload(0x40)\n      swap1\n      dup2\n      add\n      0x40\n      mstore\n      dup1\n      swap3\n      swap2\n      swap1\n      dup2\n      dup2\n      mstore\n      0x20\n      add\n      dup3\n      dup1\n      sload\n      tag_163\n      swap1\n      tag_95\n      jump\t// in\n    tag_163:\n      dup1\n      iszero\n      tag_164\n      jumpi\n      dup1\n      0x1f\n      lt\n      tag_165\n      jumpi\n      0x0100\n      dup1\n      dup4\n      sload\n      div\n      mul\n      dup4\n      mstore\n      swap2\n      0x20\n      add\n      swap2\n      jump(tag_164)\n    tag_165:\n      dup3\n      add\n      swap2\n      swap1\n      0x00\n      mstore\n      keccak256(0x00, 0x20)\n      swap1\n    tag_166:\n      dup2\n      sload\n      dup2\n      mstore\n      swap1\n      0x01\n      add\n      swap1\n      0x20\n      add\n      dup1\n      dup4\n      gt\n      tag_166\n      jumpi\n      dup3\n      swap1\n      sub\n      0x1f\n      and\n      dup3\n      add\n      swap2\n    tag_164:\n      pop\n      pop\n      pop\n      pop\n      pop\n      dup2\n      jump\t// out\n        /* \"Contract_Conqueror_Series/ERC721standards.sol\":4529:4624  function reveal() public onlyOwner {... */\n    tag_83:\n        /* \"Contract_Conqueror_Series/ERC721standards.sol\":1024:1029  owner */\n      0x02\n      0x00\n      swap1\n      sload\n      swap1\n      0x0100\n      exp\n      swap1\n      div\n      0xffffffffffffffffffffffffffffffffffffffff\n      and\n        /* \"Contract_Conqueror_Series/ERC721standards.sol\":1010:1029  msg.sender == owner */\n      0xffffffffffffffffffffffffffffffffffffffff\n      and\n        /* \"Contract_Conqueror_Series/ERC721standards.sol\":1010:1020  msg.sender */\n      caller\n        /* \"Contract_Conqueror_Series/ERC721standards.sol\":1010:1029  msg.sender == owner */\n      0xffffffffffffffffffffffffffffffffffffffff\n      and\n      eq\n        /* \"Contract_Conqueror_Series/ERC721standards.sol\":1002:1052  require(msg.sender == owner, \"Not contract owner\") */\n      tag_168\n      jumpi\n      mload(0x40)\n      0x08c379a000000000000000000000000000000000000000000000000000000000\n      dup2\n      mstore\n      0x04\n      add\n      tag_169\n      swap1\n      tag_112\n      jump\t// in\n    tag_169:\n      mload(0x40)\n      dup1\n      swap2\n      sub\n      swap1\n      revert\n    tag_168:\n        /* \"Contract_Conqueror_Series/ERC721standards.sol\":4586:4590  true */\n      0x01\n        /* \"Contract_Conqueror_Series/ERC721standards.sol\":4575:4583  revealed */\n      0x06\n      0x00\n        /* \"Contract_Conqueror_Series/ERC721standards.sol\":4575:4590  revealed = true */\n      0x0100\n      exp\n      dup2\n      sload\n      dup2\n      0xff\n      mul\n      not\n      and\n      swap1\n      dup4\n      iszero\n      iszero\n      mul\n      or\n      swap1\n      sstore\n      pop\n        /* \"Contract_Conqueror_Series/ERC721standards.sol\":4606:4616  Revealed() */\n      0xe2a7169cedebe39671840370ae19ca4fc41be6191d4c77f174f189a4d8cd08c8\n      mload(0x40)\n      mload(0x40)\n      dup1\n      swap2\n      sub\n      swap1\n      log1\n        /* \"Contract_Conqueror_Series/ERC721standards.sol\":4529:4624  function reveal() public onlyOwner {... */\n      jump\t// out\n        /* \"Contract_Conqueror_Series/ERC721standards.sol\":4001:4309  function tokenURI(uint256 tokenId) public view returns (string memory) {... */\n    tag_86:\n        /* \"Contract_Conqueror_Series/ERC721standards.sol\":4057:4070  string memory */\n      0x60\n        /* \"Contract_Conqueror_Series/ERC721standards.sol\":4119:4120  0 */\n      0x00\n        /* \"Contract_Conqueror_Series/ERC721standards.sol\":4091:4121  _owners[tokenId] != address(0) */\n      0xffffffffffffffffffffffffffffffffffffffff\n      and\n        /* \"Contract_Conqueror_Series/ERC721standards.sol\":4091:4098  _owners */\n      0x07\n        /* \"Contract_Conqueror_Series/ERC721standards.sol\":4091:4107  _owners[tokenId] */\n      0x00\n        /* \"Contract_Conqueror_Series/ERC721standards.sol\":4099:4106  tokenId */\n      dup5\n        /* \"Contract_Conqueror_Series/ERC721standards.sol\":4091:4107  _owners[tokenId] */\n      dup2\n      mstore\n      0x20\n      add\n      swap1\n      dup2\n      mstore\n      0x20\n      add\n      0x00\n      keccak256\n      0x00\n      swap1\n      sload\n      swap1\n      0x0100\n      exp\n      swap1\n      div\n      0xffffffffffffffffffffffffffffffffffffffff\n      and\n        /* \"Contract_Conqueror_Series/ERC721standards.sol\":4091:4121  _owners[tokenId] != address(0) */\n      0xffffffffffffffffffffffffffffffffffffffff\n      and\n      sub\n        /* \"Contract_Conqueror_Series/ERC721standards.sol\":4083:4145  require(_owners[tokenId] != address(0), \"Token doesn't exist\") */\n      tag_172\n      jumpi\n      mload(0x40)\n      0x08c379a000000000000000000000000000000000000000000000000000000000\n      dup2\n      mstore\n      0x04\n      add\n      tag_173\n      swap1\n      tag_144\n      jump\t// in\n    tag_173:\n      mload(0x40)\n      dup1\n      swap2\n      sub\n      swap1\n      revert\n    tag_172:\n        /* \"Contract_Conqueror_Series/ERC721standards.sol\":4163:4171  revealed */\n      0x06\n      0x00\n      swap1\n      sload\n      swap1\n      0x0100\n      exp\n      swap1\n      div\n      0xff\n      and\n        /* \"Contract_Conqueror_Series/ERC721standards.sol\":4158:4221  if (!revealed) {... */\n      tag_174\n      jumpi\n        /* \"Contract_Conqueror_Series/ERC721standards.sol\":4195:4209  notRevealedURI */\n      0x05\n        /* \"Contract_Conqueror_Series/ERC721standards.sol\":4188:4209  return notRevealedURI */\n      dup1\n      sload\n      tag_175\n      swap1\n      tag_95\n      jump\t// in\n    tag_175:\n      dup1\n      0x1f\n      add\n      0x20\n      dup1\n      swap2\n      div\n      mul\n      0x20\n      add\n      mload(0x40)\n      swap1\n      dup2\n      add\n      0x40\n      mstore\n      dup1\n      swap3\n      swap2\n      swap1\n      dup2\n      dup2\n      mstore\n      0x20\n      add\n      dup3\n      dup1\n      sload\n      tag_176\n      swap1\n      tag_95\n      jump\t// in\n    tag_176:\n      dup1\n      iszero\n      tag_177\n      jumpi\n      dup1\n      0x1f\n      lt\n      tag_178\n      jumpi\n      0x0100\n      dup1\n      dup4\n      sload\n      div\n      mul\n      dup4\n      mstore\n      swap2\n      0x20\n      add\n      swap2\n      jump(tag_177)\n    tag_178:\n      dup3\n      add\n      swap2\n      swap1\n      0x00\n      mstore\n      keccak256(0x00, 0x20)\n      swap1\n    tag_179:\n      dup2\n      sload\n      dup2\n      mstore\n      swap1\n      0x01\n      add\n      swap1\n      0x20\n      add\n      dup1\n      dup4\n      gt\n      tag_179\n      jumpi\n      dup3\n      swap1\n      sub\n      0x1f\n      and\n      dup3\n      add\n      swap2\n    tag_177:\n      pop\n      pop\n      pop\n      pop\n      pop\n      swap1\n      pop\n      jump(tag_171)\n        /* \"Contract_Conqueror_Series/ERC721standards.sol\":4158:4221  if (!revealed) {... */\n    tag_174:\n        /* \"Contract_Conqueror_Series/ERC721standards.sol\":4264:4271  baseURI */\n      0x04\n        /* \"Contract_Conqueror_Series/ERC721standards.sol\":4273:4290  uint2str(tokenId) */\n      tag_180\n        /* \"Contract_Conqueror_Series/ERC721standards.sol\":4282:4289  tokenId */\n      dup4\n        /* \"Contract_Conqueror_Series/ERC721standards.sol\":4273:4281  uint2str */\n      tag_181\n        /* \"Contract_Conqueror_Series/ERC721standards.sol\":4273:4290  uint2str(tokenId) */\n      jump\t// in\n    tag_180:\n        /* \"Contract_Conqueror_Series/ERC721standards.sol\":4247:4300  abi.encodePacked(baseURI, uint2str(tokenId), \".json\") */\n      add(0x20, mload(0x40))\n      tag_182\n      swap3\n      swap2\n      swap1\n      tag_183\n      jump\t// in\n    tag_182:\n      mload(0x40)\n      0x20\n      dup2\n      dup4\n      sub\n      sub\n      dup2\n      mstore\n      swap1\n      0x40\n      mstore\n        /* \"Contract_Conqueror_Series/ERC721standards.sol\":4233:4301  return string(abi.encodePacked(baseURI, uint2str(tokenId), \".json\")) */\n      swap1\n      pop\n        /* \"Contract_Conqueror_Series/ERC721standards.sol\":4001:4309  function tokenURI(uint256 tokenId) public view returns (string memory) {... */\n    tag_171:\n      swap2\n      swap1\n      pop\n      jump\t// out\n        /* \"Contract_Conqueror_Series/ERC721standards.sol\":4728:4857  function addToWhitelist(address user) public onlyOwner {... */\n    tag_90:\n        /* \"Contract_Conqueror_Series/ERC721standards.sol\":1024:1029  owner */\n      0x02\n      0x00\n      swap1\n      sload\n      swap1\n      0x0100\n      exp\n      swap1\n      div\n      0xffffffffffffffffffffffffffffffffffffffff\n      and\n        /* \"Contract_Conqueror_Series/ERC721standards.sol\":1010:1029  msg.sender == owner */\n      0xffffffffffffffffffffffffffffffffffffffff\n      and\n        /* \"Contract_Conqueror_Series/ERC721standards.sol\":1010:1020  msg.sender */\n      caller\n        /* \"Contract_Conqueror_Series/ERC721standards.sol\":1010:1029  msg.sender == owner */\n      0xffffffffffffffffffffffffffffffffffffffff\n      and\n      eq\n        /* \"Contract_Conqueror_Series/ERC721standards.sol\":1002:1052  require(msg.sender == owner, \"Not contract owner\") */\n      tag_185\n      jumpi\n      mload(0x40)\n      0x08c379a000000000000000000000000000000000000000000000000000000000\n      dup2\n      mstore\n      0x04\n      add\n      tag_186\n      swap1\n      tag_112\n      jump\t// in\n    tag_186:\n      mload(0x40)\n      dup1\n      swap2\n      sub\n      swap1\n      revert\n    tag_185:\n        /* \"Contract_Conqueror_Series/ERC721standards.sol\":4812:4816  true */\n      0x01\n        /* \"Contract_Conqueror_Series/ERC721standards.sol\":4794:4803  whitelist */\n      0x0a\n        /* \"Contract_Conqueror_Series/ERC721standards.sol\":4794:4809  whitelist[user] */\n      0x00\n        /* \"Contract_Conqueror_Series/ERC721standards.sol\":4804:4808  user */\n      dup4\n        /* \"Contract_Conqueror_Series/ERC721standards.sol\":4794:4809  whitelist[user] */\n      0xffffffffffffffffffffffffffffffffffffffff\n      and\n      0xffffffffffffffffffffffffffffffffffffffff\n      and\n      dup2\n      mstore\n      0x20\n      add\n      swap1\n      dup2\n      mstore\n      0x20\n      add\n      0x00\n      keccak256\n      0x00\n        /* \"Contract_Conqueror_Series/ERC721standards.sol\":4794:4816  whitelist[user] = true */\n      0x0100\n      exp\n      dup2\n      sload\n      dup2\n      0xff\n      mul\n      not\n      and\n      swap1\n      dup4\n      iszero\n      iszero\n      mul\n      or\n      swap1\n      sstore\n      pop\n        /* \"Contract_Conqueror_Series/ERC721standards.sol\":4844:4848  user */\n      dup1\n        /* \"Contract_Conqueror_Series/ERC721standards.sol\":4832:4849  Whitelisted(user) */\n      0xffffffffffffffffffffffffffffffffffffffff\n      and\n      0xaab7954e9d246b167ef88aeddad35209ca2489d95a8aeb59e288d9b19fae5a54\n      mload(0x40)\n      mload(0x40)\n      dup1\n      swap2\n      sub\n      swap1\n      log2\n        /* \"Contract_Conqueror_Series/ERC721standards.sol\":4728:4857  function addToWhitelist(address user) public onlyOwner {... */\n      pop\n      jump\t// out\n        /* \"Contract_Conqueror_Series/ERC721standards.sol\":4417:4521  function setNotRevealedURI(string memory _uri) public onlyOwner {... */\n    tag_93:\n        /* \"Contract_Conqueror_Series/ERC721standards.sol\":1024:1029  owner */\n      0x02\n      0x00\n      swap1\n      sload\n      swap1\n      0x0100\n      exp\n      swap1\n      div\n      0xffffffffffffffffffffffffffffffffffffffff\n      and\n        /* \"Contract_Conqueror_Series/ERC721standards.sol\":1010:1029  msg.sender == owner */\n      0xffffffffffffffffffffffffffffffffffffffff\n      and\n        /* \"Contract_Conqueror_Series/ERC721standards.sol\":1010:1020  msg.sender */\n      caller\n        /* \"Contract_Conqueror_Series/ERC721standards.sol\":1010:1029  msg.sender == owner */\n      0xffffffffffffffffffffffffffffffffffffffff\n      and\n      eq\n        /* \"Contract_Conqueror_Series/ERC721standards.sol\":1002:1052  require(msg.sender == owner, \"Not contract owner\") */\n      tag_189\n      jumpi\n      mload(0x40)\n      0x08c379a000000000000000000000000000000000000000000000000000000000\n      dup2\n      mstore\n      0x04\n      add\n      tag_190\n      swap1\n      tag_112\n      jump\t// in\n    tag_190:\n      mload(0x40)\n      dup1\n      swap2\n      sub\n      swap1\n      revert\n    tag_189:\n        /* \"Contract_Conqueror_Series/ERC721standards.sol\":4509:4513  _uri */\n      dup1\n        /* \"Contract_Conqueror_Series/ERC721standards.sol\":4492:4506  notRevealedURI */\n      0x05\n        /* \"Contract_Conqueror_Series/ERC721standards.sol\":4492:4513  notRevealedURI = _uri */\n      swap1\n      dup2\n      tag_192\n      swap2\n      swap1\n      tag_140\n      jump\t// in\n    tag_192:\n      pop\n        /* \"Contract_Conqueror_Series/ERC721standards.sol\":4417:4521  function setNotRevealedURI(string memory _uri) public onlyOwner {... */\n      pop\n      jump\t// out\n        /* \"Contract_Conqueror_Series/ERC721standards.sol\":5257:5733  function uint2str(uint256 _i) internal pure returns (string memory str) {... */\n    tag_181:\n        /* \"Contract_Conqueror_Series/ERC721standards.sol\":5310:5327  string memory str */\n      0x60\n        /* \"Contract_Conqueror_Series/ERC721standards.sol\":5350:5351  0 */\n      0x00\n        /* \"Contract_Conqueror_Series/ERC721standards.sol\":5344:5346  _i */\n      dup3\n        /* \"Contract_Conqueror_Series/ERC721standards.sol\":5344:5351  _i == 0 */\n      sub\n        /* \"Contract_Conqueror_Series/ERC721standards.sol\":5340:5363  if (_i == 0) return \"0\" */\n      tag_194\n      jumpi\n        /* \"Contract_Conqueror_Series/ERC721standards.sol\":5353:5363  return \"0\" */\n      mload(0x40)\n      dup1\n      0x40\n      add\n      0x40\n      mstore\n      dup1\n      0x01\n      dup2\n      mstore\n      0x20\n      add\n      0x3000000000000000000000000000000000000000000000000000000000000000\n      dup2\n      mstore\n      pop\n      swap1\n      pop\n      jump(tag_193)\n        /* \"Contract_Conqueror_Series/ERC721standards.sol\":5340:5363  if (_i == 0) return \"0\" */\n    tag_194:\n        /* \"Contract_Conqueror_Series/ERC721standards.sol\":5374:5386  uint256 temp */\n      0x00\n        /* \"Contract_Conqueror_Series/ERC721standards.sol\":5389:5391  _i */\n      dup3\n        /* \"Contract_Conqueror_Series/ERC721standards.sol\":5374:5391  uint256 temp = _i */\n      swap1\n      pop\n        /* \"Contract_Conqueror_Series/ERC721standards.sol\":5402:5416  uint256 digits */\n      0x00\n        /* \"Contract_Conqueror_Series/ERC721standards.sol\":5427:5505  while (temp != 0) {... */\n    tag_195:\n        /* \"Contract_Conqueror_Series/ERC721standards.sol\":5442:5443  0 */\n      0x00\n        /* \"Contract_Conqueror_Series/ERC721standards.sol\":5434:5438  temp */\n      dup3\n        /* \"Contract_Conqueror_Series/ERC721standards.sol\":5434:5443  temp != 0 */\n      eq\n        /* \"Contract_Conqueror_Series/ERC721standards.sol\":5427:5505  while (temp != 0) {... */\n      tag_196\n      jumpi\n        /* \"Contract_Conqueror_Series/ERC721standards.sol\":5460:5468  digits++ */\n      dup1\n      dup1\n      tag_197\n      swap1\n      tag_198\n      jump\t// in\n    tag_197:\n      swap2\n      pop\n      pop\n        /* \"Contract_Conqueror_Series/ERC721standards.sol\":5491:5493  10 */\n      0x0a\n        /* \"Contract_Conqueror_Series/ERC721standards.sol\":5483:5493  temp /= 10 */\n      dup3\n      tag_199\n      swap2\n      swap1\n      tag_200\n      jump\t// in\n    tag_199:\n      swap2\n      pop\n        /* \"Contract_Conqueror_Series/ERC721standards.sol\":5427:5505  while (temp != 0) {... */\n      jump(tag_195)\n    tag_196:\n        /* \"Contract_Conqueror_Series/ERC721standards.sol\":5515:5532  bytes memory bStr */\n      0x00\n        /* \"Contract_Conqueror_Series/ERC721standards.sol\":5545:5551  digits */\n      dup2\n        /* \"Contract_Conqueror_Series/ERC721standards.sol\":5535:5552  new bytes(digits) */\n      0xffffffffffffffff\n      dup2\n      gt\n      iszero\n      tag_201\n      jumpi\n      tag_202\n      tag_203\n      jump\t// in\n    tag_202:\n    tag_201:\n      mload(0x40)\n      swap1\n      dup1\n      dup3\n      mstore\n      dup1\n      0x1f\n      add\n      not(0x1f)\n      and\n      0x20\n      add\n      dup3\n      add\n      0x40\n      mstore\n      dup1\n      iszero\n      tag_204\n      jumpi\n      dup2\n      0x20\n      add\n      0x01\n      dup3\n      mul\n      dup1\n      calldatasize\n      dup4\n      calldatacopy\n      dup1\n      dup3\n      add\n      swap2\n      pop\n      pop\n      swap1\n      pop\n    tag_204:\n      pop\n        /* \"Contract_Conqueror_Series/ERC721standards.sol\":5515:5552  bytes memory bStr = new bytes(digits) */\n      swap1\n      pop\n        /* \"Contract_Conqueror_Series/ERC721standards.sol\":5563:5697  while (_i != 0) {... */\n    tag_205:\n        /* \"Contract_Conqueror_Series/ERC721standards.sol\":5576:5577  0 */\n      0x00\n        /* \"Contract_Conqueror_Series/ERC721standards.sol\":5570:5572  _i */\n      dup6\n        /* \"Contract_Conqueror_Series/ERC721standards.sol\":5570:5577  _i != 0 */\n      eq\n        /* \"Contract_Conqueror_Series/ERC721standards.sol\":5563:5697  while (_i != 0) {... */\n      tag_206\n      jumpi\n        /* \"Contract_Conqueror_Series/ERC721standards.sol\":5604:5605  1 */\n      0x01\n        /* \"Contract_Conqueror_Series/ERC721standards.sol\":5594:5605  digits -= 1 */\n      dup3\n      tag_207\n      swap2\n      swap1\n      tag_132\n      jump\t// in\n    tag_207:\n      swap2\n      pop\n        /* \"Contract_Conqueror_Series/ERC721standards.sol\":5658:5660  10 */\n      0x0a\n        /* \"Contract_Conqueror_Series/ERC721standards.sol\":5653:5655  _i */\n      dup6\n        /* \"Contract_Conqueror_Series/ERC721standards.sol\":5653:5660  _i % 10 */\n      tag_208\n      swap2\n      swap1\n      tag_209\n      jump\t// in\n    tag_208:\n        /* \"Contract_Conqueror_Series/ERC721standards.sol\":5648:5650  48 */\n      0x30\n        /* \"Contract_Conqueror_Series/ERC721standards.sol\":5648:5660  48 + _i % 10 */\n      tag_210\n      swap2\n      swap1\n      tag_118\n      jump\t// in\n    tag_210:\n        /* \"Contract_Conqueror_Series/ERC721standards.sol\":5635:5662  bytes1(uint8(48 + _i % 10)) */\n      0xf8\n      shl\n        /* \"Contract_Conqueror_Series/ERC721standards.sol\":5620:5624  bStr */\n      dup2\n        /* \"Contract_Conqueror_Series/ERC721standards.sol\":5625:5631  digits */\n      dup4\n        /* \"Contract_Conqueror_Series/ERC721standards.sol\":5620:5632  bStr[digits] */\n      dup2\n      mload\n      dup2\n      lt\n      tag_211\n      jumpi\n      tag_212\n      tag_213\n      jump\t// in\n    tag_212:\n    tag_211:\n      0x20\n      add\n      add\n        /* \"Contract_Conqueror_Series/ERC721standards.sol\":5620:5662  bStr[digits] = bytes1(uint8(48 + _i % 10)) */\n      swap1\n      not(0xffffffffffffffffffffffffffffffffffffffffffffffffffffffffffffff)\n      and\n      swap1\n      dup2\n      0x00\n      byte\n      swap1\n      mstore8\n      pop\n        /* \"Contract_Conqueror_Series/ERC721standards.sol\":5683:5685  10 */\n      0x0a\n        /* \"Contract_Conqueror_Series/ERC721standards.sol\":5677:5685  _i /= 10 */\n      dup6\n      tag_214\n      swap2\n      swap1\n      tag_200\n      jump\t// in\n    tag_214:\n      swap5\n      pop\n        /* \"Contract_Conqueror_Series/ERC721standards.sol\":5563:5697  while (_i != 0) {... */\n      jump(tag_205)\n    tag_206:\n        /* \"Contract_Conqueror_Series/ERC721standards.sol\":5720:5724  bStr */\n      dup1\n        /* \"Contract_Conqueror_Series/ERC721standards.sol\":5707:5725  str = string(bStr) */\n      swap4\n      pop\n        /* \"Contract_Conqueror_Series/ERC721standards.sol\":5329:5733  {... */\n      pop\n      pop\n      pop\n        /* \"Contract_Conqueror_Series/ERC721standards.sol\":5257:5733  function uint2str(uint256 _i) internal pure returns (string memory str) {... */\n    tag_193:\n      swap2\n      swap1\n      pop\n      jump\t// out\n        /* \"#utility.yul\":7:106   */\n    tag_215:\n        /* \"#utility.yul\":59:65   */\n      0x00\n        /* \"#utility.yul\":93:98   */\n      dup2\n        /* \"#utility.yul\":87:99   */\n      mload\n        /* \"#utility.yul\":77:99   */\n      swap1\n      pop\n        /* \"#utility.yul\":7:106   */\n      swap2\n      swap1\n      pop\n      jump\t// out\n        /* \"#utility.yul\":112:281   */\n    tag_216:\n        /* \"#utility.yul\":196:207   */\n      0x00\n        /* \"#utility.yul\":230:236   */\n      dup3\n        /* \"#utility.yul\":225:228   */\n      dup3\n        /* \"#utility.yul\":218:237   */\n      mstore\n        /* \"#utility.yul\":270:274   */\n      0x20\n        /* \"#utility.yul\":265:268   */\n      dup3\n        /* \"#utility.yul\":261:275   */\n      add\n        /* \"#utility.yul\":246:275   */\n      swap1\n      pop\n        /* \"#utility.yul\":112:281   */\n      swap3\n      swap2\n      pop\n      pop\n      jump\t// out\n        /* \"#utility.yul\":287:426   */\n    tag_217:\n        /* \"#utility.yul\":376:382   */\n      dup3\n        /* \"#utility.yul\":371:374   */\n      dup2\n        /* \"#utility.yul\":366:369   */\n      dup4\n        /* \"#utility.yul\":360:383   */\n      mcopy\n        /* \"#utility.yul\":417:418   */\n      0x00\n        /* \"#utility.yul\":408:414   */\n      dup4\n        /* \"#utility.yul\":403:406   */\n      dup4\n        /* \"#utility.yul\":399:415   */\n      add\n        /* \"#utility.yul\":392:419   */\n      mstore\n        /* \"#utility.yul\":287:426   */\n      pop\n      pop\n      pop\n      jump\t// out\n        /* \"#utility.yul\":432:534   */\n    tag_218:\n        /* \"#utility.yul\":473:479   */\n      0x00\n        /* \"#utility.yul\":524:526   */\n      0x1f\n        /* \"#utility.yul\":520:527   */\n      not\n        /* \"#utility.yul\":515:517   */\n      0x1f\n        /* \"#utility.yul\":508:513   */\n      dup4\n        /* \"#utility.yul\":504:518   */\n      add\n        /* \"#utility.yul\":500:528   */\n      and\n        /* \"#utility.yul\":490:528   */\n      swap1\n      pop\n        /* \"#utility.yul\":432:534   */\n      swap2\n      swap1\n      pop\n      jump\t// out\n        /* \"#utility.yul\":540:917   */\n    tag_219:\n        /* \"#utility.yul\":628:631   */\n      0x00\n        /* \"#utility.yul\":656:695   */\n      tag_289\n        /* \"#utility.yul\":689:694   */\n      dup3\n        /* \"#utility.yul\":656:695   */\n      tag_215\n      jump\t// in\n    tag_289:\n        /* \"#utility.yul\":711:782   */\n      tag_290\n        /* \"#utility.yul\":775:781   */\n      dup2\n        /* \"#utility.yul\":770:773   */\n      dup6\n        /* \"#utility.yul\":711:782   */\n      tag_216\n      jump\t// in\n    tag_290:\n        /* \"#utility.yul\":704:782   */\n      swap4\n      pop\n        /* \"#utility.yul\":791:856   */\n      tag_291\n        /* \"#utility.yul\":849:855   */\n      dup2\n        /* \"#utility.yul\":844:847   */\n      dup6\n        /* \"#utility.yul\":837:841   */\n      0x20\n        /* \"#utility.yul\":830:835   */\n      dup7\n        /* \"#utility.yul\":826:842   */\n      add\n        /* \"#utility.yul\":791:856   */\n      tag_217\n      jump\t// in\n    tag_291:\n        /* \"#utility.yul\":881:910   */\n      tag_292\n        /* \"#utility.yul\":903:909   */\n      dup2\n        /* \"#utility.yul\":881:910   */\n      tag_218\n      jump\t// in\n    tag_292:\n        /* \"#utility.yul\":876:879   */\n      dup5\n        /* \"#utility.yul\":872:911   */\n      add\n        /* \"#utility.yul\":865:911   */\n      swap2\n      pop\n        /* \"#utility.yul\":632:917   */\n      pop\n        /* \"#utility.yul\":540:917   */\n      swap3\n      swap2\n      pop\n      pop\n      jump\t// out\n        /* \"#utility.yul\":923:1236   */\n    tag_28:\n        /* \"#utility.yul\":1036:1040   */\n      0x00\n        /* \"#utility.yul\":1074:1076   */\n      0x20\n        /* \"#utility.yul\":1063:1072   */\n      dup3\n        /* \"#utility.yul\":1059:1077   */\n      add\n        /* \"#utility.yul\":1051:1077   */\n      swap1\n      pop\n        /* \"#utility.yul\":1123:1132   */\n      dup2\n        /* \"#utility.yul\":1117:1121   */\n      dup2\n        /* \"#utility.yul\":1113:1133   */\n      sub\n        /* \"#utility.yul\":1109:1110   */\n      0x00\n        /* \"#utility.yul\":1098:1107   */\n      dup4\n        /* \"#utility.yul\":1094:1111   */\n      add\n        /* \"#utility.yul\":1087:1134   */\n      mstore\n        /* \"#utility.yul\":1151:1229   */\n      tag_294\n        /* \"#utility.yul\":1224:1228   */\n      dup2\n        /* \"#utility.yul\":1215:1221   */\n      dup5\n        /* \"#utility.yul\":1151:1229   */\n      tag_219\n      jump\t// in\n    tag_294:\n        /* \"#utility.yul\":1143:1229   */\n      swap1\n      pop\n        /* \"#utility.yul\":923:1236   */\n      swap3\n      swap2\n      pop\n      pop\n      jump\t// out\n        /* \"#utility.yul\":1242:1317   */\n    tag_220:\n        /* \"#utility.yul\":1275:1281   */\n      0x00\n        /* \"#utility.yul\":1308:1310   */\n      0x40\n        /* \"#utility.yul\":1302:1311   */\n      mload\n        /* \"#utility.yul\":1292:1311   */\n      swap1\n      pop\n        /* \"#utility.yul\":1242:1317   */\n      swap1\n      jump\t// out\n        /* \"#utility.yul\":1323:1440   */\n    tag_221:\n        /* \"#utility.yul\":1432:1433   */\n      0x00\n        /* \"#utility.yul\":1429:1430   */\n      0x00\n        /* \"#utility.yul\":1422:1434   */\n      revert\n        /* \"#utility.yul\":1446:1563   */\n    tag_222:\n        /* \"#utility.yul\":1555:1556   */\n      0x00\n        /* \"#utility.yul\":1552:1553   */\n      0x00\n        /* \"#utility.yul\":1545:1557   */\n      revert\n        /* \"#utility.yul\":1569:1646   */\n    tag_223:\n        /* \"#utility.yul\":1606:1613   */\n      0x00\n        /* \"#utility.yul\":1635:1640   */\n      dup2\n        /* \"#utility.yul\":1624:1640   */\n      swap1\n      pop\n        /* \"#utility.yul\":1569:1646   */\n      swap2\n      swap1\n      pop\n      jump\t// out\n        /* \"#utility.yul\":1652:1774   */\n    tag_224:\n        /* \"#utility.yul\":1725:1749   */\n      tag_300\n        /* \"#utility.yul\":1743:1748   */\n      dup2\n        /* \"#utility.yul\":1725:1749   */\n      tag_223\n      jump\t// in\n    tag_300:\n        /* \"#utility.yul\":1718:1723   */\n      dup2\n        /* \"#utility.yul\":1715:1750   */\n      eq\n        /* \"#utility.yul\":1705:1768   */\n      tag_301\n      jumpi\n        /* \"#utility.yul\":1764:1765   */\n      0x00\n        /* \"#utility.yul\":1761:1762   */\n      0x00\n        /* \"#utility.yul\":1754:1766   */\n      revert\n        /* \"#utility.yul\":1705:1768   */\n    tag_301:\n        /* \"#utility.yul\":1652:1774   */\n      pop\n      jump\t// out\n        /* \"#utility.yul\":1780:1919   */\n    tag_225:\n        /* \"#utility.yul\":1826:1831   */\n      0x00\n        /* \"#utility.yul\":1864:1870   */\n      dup2\n        /* \"#utility.yul\":1851:1871   */\n      calldataload\n        /* \"#utility.yul\":1842:1871   */\n      swap1\n      pop\n        /* \"#utility.yul\":1880:1913   */\n      tag_303\n        /* \"#utility.yul\":1907:1912   */\n      dup2\n        /* \"#utility.yul\":1880:1913   */\n      tag_224\n      jump\t// in\n    tag_303:\n        /* \"#utility.yul\":1780:1919   */\n      swap3\n      swap2\n      pop\n      pop\n      jump\t// out\n        /* \"#utility.yul\":1925:2254   */\n    tag_31:\n        /* \"#utility.yul\":1984:1990   */\n      0x00\n        /* \"#utility.yul\":2033:2035   */\n      0x20\n        /* \"#utility.yul\":2021:2030   */\n      dup3\n        /* \"#utility.yul\":2012:2019   */\n      dup5\n        /* \"#utility.yul\":2008:2031   */\n      sub\n        /* \"#utility.yul\":2004:2036   */\n      slt\n        /* \"#utility.yul\":2001:2120   */\n      iszero\n      tag_305\n      jumpi\n        /* \"#utility.yul\":2039:2118   */\n      tag_306\n      tag_221\n      jump\t// in\n    tag_306:\n        /* \"#utility.yul\":2001:2120   */\n    tag_305:\n        /* \"#utility.yul\":2159:2160   */\n      0x00\n        /* \"#utility.yul\":2184:2237   */\n      tag_307\n        /* \"#utility.yul\":2229:2236   */\n      dup5\n        /* \"#utility.yul\":2220:2226   */\n      dup3\n        /* \"#utility.yul\":2209:2218   */\n      dup6\n        /* \"#utility.yul\":2205:2227   */\n      add\n        /* \"#utility.yul\":2184:2237   */\n      tag_225\n      jump\t// in\n    tag_307:\n        /* \"#utility.yul\":2174:2237   */\n      swap2\n      pop\n        /* \"#utility.yul\":2130:2247   */\n      pop\n        /* \"#utility.yul\":1925:2254   */\n      swap3\n      swap2\n      pop\n      pop\n      jump\t// out\n        /* \"#utility.yul\":2260:2386   */\n    tag_226:\n        /* \"#utility.yul\":2297:2304   */\n      0x00\n        /* \"#utility.yul\":2337:2379   */\n      0xffffffffffffffffffffffffffffffffffffffff\n        /* \"#utility.yul\":2330:2335   */\n      dup3\n        /* \"#utility.yul\":2326:2380   */\n      and\n        /* \"#utility.yul\":2315:2380   */\n      swap1\n      pop\n        /* \"#utility.yul\":2260:2386   */\n      swap2\n      swap1\n      pop\n      jump\t// out\n        /* \"#utility.yul\":2392:2488   */\n    tag_227:\n        /* \"#utility.yul\":2429:2436   */\n      0x00\n        /* \"#utility.yul\":2458:2482   */\n      tag_310\n        /* \"#utility.yul\":2476:2481   */\n      dup3\n        /* \"#utility.yul\":2458:2482   */\n      tag_226\n      jump\t// in\n    tag_310:\n        /* \"#utility.yul\":2447:2482   */\n      swap1\n      pop\n        /* \"#utility.yul\":2392:2488   */\n      swap2\n      swap1\n      pop\n      jump\t// out\n        /* \"#utility.yul\":2494:2612   */\n    tag_228:\n        /* \"#utility.yul\":2581:2605   */\n      tag_312\n        /* \"#utility.yul\":2599:2604   */\n      dup2\n        /* \"#utility.yul\":2581:2605   */\n      tag_227\n      jump\t// in\n    tag_312:\n        /* \"#utility.yul\":2576:2579   */\n      dup3\n        /* \"#utility.yul\":2569:2606   */\n      mstore\n        /* \"#utility.yul\":2494:2612   */\n      pop\n      pop\n      jump\t// out\n        /* \"#utility.yul\":2618:2840   */\n    tag_34:\n        /* \"#utility.yul\":2711:2715   */\n      0x00\n        /* \"#utility.yul\":2749:2751   */\n      0x20\n        /* \"#utility.yul\":2738:2747   */\n      dup3\n        /* \"#utility.yul\":2734:2752   */\n      add\n        /* \"#utility.yul\":2726:2752   */\n      swap1\n      pop\n        /* \"#utility.yul\":2762:2833   */\n      tag_314\n        /* \"#utility.yul\":2830:2831   */\n      0x00\n        /* \"#utility.yul\":2819:2828   */\n      dup4\n        /* \"#utility.yul\":2815:2832   */\n      add\n        /* \"#utility.yul\":2806:2812   */\n      dup5\n        /* \"#utility.yul\":2762:2833   */\n      tag_228\n      jump\t// in\n    tag_314:\n        /* \"#utility.yul\":2618:2840   */\n      swap3\n      swap2\n      pop\n      pop\n      jump\t// out\n        /* \"#utility.yul\":2846:2968   */\n    tag_229:\n        /* \"#utility.yul\":2919:2943   */\n      tag_316\n        /* \"#utility.yul\":2937:2942   */\n      dup2\n        /* \"#utility.yul\":2919:2943   */\n      tag_227\n      jump\t// in\n    tag_316:\n        /* \"#utility.yul\":2912:2917   */\n      dup2\n        /* \"#utility.yul\":2909:2944   */\n      eq\n        /* \"#utility.yul\":2899:2962   */\n      tag_317\n      jumpi\n        /* \"#utility.yul\":2958:2959   */\n      0x00\n        /* \"#utility.yul\":2955:2956   */\n      0x00\n        /* \"#utility.yul\":2948:2960   */\n      revert\n        /* \"#utility.yul\":2899:2962   */\n    tag_317:\n        /* \"#utility.yul\":2846:2968   */\n      pop\n      jump\t// out\n        /* \"#utility.yul\":2974:3113   */\n    tag_230:\n        /* \"#utility.yul\":3020:3025   */\n      0x00\n        /* \"#utility.yul\":3058:3064   */\n      dup2\n        /* \"#utility.yul\":3045:3065   */\n      calldataload\n        /* \"#utility.yul\":3036:3065   */\n      swap1\n      pop\n        /* \"#utility.yul\":3074:3107   */\n      tag_319\n        /* \"#utility.yul\":3101:3106   */\n      dup2\n        /* \"#utility.yul\":3074:3107   */\n      tag_229\n      jump\t// in\n    tag_319:\n        /* \"#utility.yul\":2974:3113   */\n      swap3\n      swap2\n      pop\n      pop\n      jump\t// out\n        /* \"#utility.yul\":3119:3593   */\n    tag_37:\n        /* \"#utility.yul\":3187:3193   */\n      0x00\n        /* \"#utility.yul\":3195:3201   */\n      0x00\n        /* \"#utility.yul\":3244:3246   */\n      0x40\n        /* \"#utility.yul\":3232:3241   */\n      dup4\n        /* \"#utility.yul\":3223:3230   */\n      dup6\n        /* \"#utility.yul\":3219:3242   */\n      sub\n        /* \"#utility.yul\":3215:3247   */\n      slt\n        /* \"#utility.yul\":3212:3331   */\n      iszero\n      tag_321\n      jumpi\n        /* \"#utility.yul\":3250:3329   */\n      tag_322\n      tag_221\n      jump\t// in\n    tag_322:\n        /* \"#utility.yul\":3212:3331   */\n    tag_321:\n        /* \"#utility.yul\":3370:3371   */\n      0x00\n        /* \"#utility.yul\":3395:3448   */\n      tag_323\n        /* \"#utility.yul\":3440:3447   */\n      dup6\n        /* \"#utility.yul\":3431:3437   */\n      dup3\n        /* \"#utility.yul\":3420:3429   */\n      dup7\n        /* \"#utility.yul\":3416:3438   */\n      add\n        /* \"#utility.yul\":3395:3448   */\n      tag_230\n      jump\t// in\n    tag_323:\n        /* \"#utility.yul\":3385:3448   */\n      swap3\n      pop\n        /* \"#utility.yul\":3341:3458   */\n      pop\n        /* \"#utility.yul\":3497:3499   */\n      0x20\n        /* \"#utility.yul\":3523:3576   */\n      tag_324\n        /* \"#utility.yul\":3568:3575   */\n      dup6\n        /* \"#utility.yul\":3559:3565   */\n      dup3\n        /* \"#utility.yul\":3548:3557   */\n      dup7\n        /* \"#utility.yul\":3544:3566   */\n      add\n        /* \"#utility.yul\":3523:3576   */\n      tag_225\n      jump\t// in\n    tag_324:\n        /* \"#utility.yul\":3513:3576   */\n      swap2\n      pop\n        /* \"#utility.yul\":3468:3586   */\n      pop\n        /* \"#utility.yul\":3119:3593   */\n      swap3\n      pop\n      swap3\n      swap1\n      pop\n      jump\t// out\n        /* \"#utility.yul\":3599:3717   */\n    tag_231:\n        /* \"#utility.yul\":3686:3710   */\n      tag_326\n        /* \"#utility.yul\":3704:3709   */\n      dup2\n        /* \"#utility.yul\":3686:3710   */\n      tag_223\n      jump\t// in\n    tag_326:\n        /* \"#utility.yul\":3681:3684   */\n      dup3\n        /* \"#utility.yul\":3674:3711   */\n      mstore\n        /* \"#utility.yul\":3599:3717   */\n      pop\n      pop\n      jump\t// out\n        /* \"#utility.yul\":3723:3945   */\n    tag_42:\n        /* \"#utility.yul\":3816:3820   */\n      0x00\n        /* \"#utility.yul\":3854:3856   */\n      0x20\n        /* \"#utility.yul\":3843:3852   */\n      dup3\n        /* \"#utility.yul\":3839:3857   */\n      add\n        /* \"#utility.yul\":3831:3857   */\n      swap1\n      pop\n        /* \"#utility.yul\":3867:3938   */\n      tag_328\n        /* \"#utility.yul\":3935:3936   */\n      0x00\n        /* \"#utility.yul\":3924:3933   */\n      dup4\n        /* \"#utility.yul\":3920:3937   */\n      add\n        /* \"#utility.yul\":3911:3917   */\n      dup5\n        /* \"#utility.yul\":3867:3938   */\n      tag_231\n      jump\t// in\n    tag_328:\n        /* \"#utility.yul\":3723:3945   */\n      swap3\n      swap2\n      pop\n      pop\n      jump\t// out\n        /* \"#utility.yul\":3951:4280   */\n    tag_45:\n        /* \"#utility.yul\":4010:4016   */\n      0x00\n        /* \"#utility.yul\":4059:4061   */\n      0x20\n        /* \"#utility.yul\":4047:4056   */\n      dup3\n        /* \"#utility.yul\":4038:4045   */\n      dup5\n        /* \"#utility.yul\":4034:4057   */\n      sub\n        /* \"#utility.yul\":4030:4062   */\n      slt\n        /* \"#utility.yul\":4027:4146   */\n      iszero\n      tag_330\n      jumpi\n        /* \"#utility.yul\":4065:4144   */\n      tag_331\n      tag_221\n      jump\t// in\n    tag_331:\n        /* \"#utility.yul\":4027:4146   */\n    tag_330:\n        /* \"#utility.yul\":4185:4186   */\n      0x00\n        /* \"#utility.yul\":4210:4263   */\n      tag_332\n        /* \"#utility.yul\":4255:4262   */\n      dup5\n        /* \"#utility.yul\":4246:4252   */\n      dup3\n        /* \"#utility.yul\":4235:4244   */\n      dup6\n        /* \"#utility.yul\":4231:4253   */\n      add\n        /* \"#utility.yul\":4210:4263   */\n      tag_230\n      jump\t// in\n    tag_332:\n        /* \"#utility.yul\":4200:4263   */\n      swap2\n      pop\n        /* \"#utility.yul\":4156:4273   */\n      pop\n        /* \"#utility.yul\":3951:4280   */\n      swap3\n      swap2\n      pop\n      pop\n      jump\t// out\n        /* \"#utility.yul\":4286:4905   */\n    tag_49:\n        /* \"#utility.yul\":4363:4369   */\n      0x00\n        /* \"#utility.yul\":4371:4377   */\n      0x00\n        /* \"#utility.yul\":4379:4385   */\n      0x00\n        /* \"#utility.yul\":4428:4430   */\n      0x60\n        /* \"#utility.yul\":4416:4425   */\n      dup5\n        /* \"#utility.yul\":4407:4414   */\n      dup7\n        /* \"#utility.yul\":4403:4426   */\n      sub\n        /* \"#utility.yul\":4399:4431   */\n      slt\n        /* \"#utility.yul\":4396:4515   */\n      iszero\n      tag_334\n      jumpi\n        /* \"#utility.yul\":4434:4513   */\n      tag_335\n      tag_221\n      jump\t// in\n    tag_335:\n        /* \"#utility.yul\":4396:4515   */\n    tag_334:\n        /* \"#utility.yul\":4554:4555   */\n      0x00\n        /* \"#utility.yul\":4579:4632   */\n      tag_336\n        /* \"#utility.yul\":4624:4631   */\n      dup7\n        /* \"#utility.yul\":4615:4621   */\n      dup3\n        /* \"#utility.yul\":4604:4613   */\n      dup8\n        /* \"#utility.yul\":4600:4622   */\n      add\n        /* \"#utility.yul\":4579:4632   */\n      tag_230\n      jump\t// in\n    tag_336:\n        /* \"#utility.yul\":4569:4632   */\n      swap4\n      pop\n        /* \"#utility.yul\":4525:4642   */\n      pop\n        /* \"#utility.yul\":4681:4683   */\n      0x20\n        /* \"#utility.yul\":4707:4760   */\n      tag_337\n        /* \"#utility.yul\":4752:4759   */\n      dup7\n        /* \"#utility.yul\":4743:4749   */\n      dup3\n        /* \"#utility.yul\":4732:4741   */\n      dup8\n        /* \"#utility.yul\":4728:4750   */\n      add\n        /* \"#utility.yul\":4707:4760   */\n      tag_230\n      jump\t// in\n    tag_337:\n        /* \"#utility.yul\":4697:4760   */\n      swap3\n      pop\n        /* \"#utility.yul\":4652:4770   */\n      pop\n        /* \"#utility.yul\":4809:4811   */\n      0x40\n        /* \"#utility.yul\":4835:4888   */\n      tag_338\n        /* \"#utility.yul\":4880:4887   */\n      dup7\n        /* \"#utility.yul\":4871:4877   */\n      dup3\n        /* \"#utility.yul\":4860:4869   */\n      dup8\n        /* \"#utility.yul\":4856:4878   */\n      add\n        /* \"#utility.yul\":4835:4888   */\n      tag_225\n      jump\t// in\n    tag_338:\n        /* \"#utility.yul\":4825:4888   */\n      swap2\n      pop\n        /* \"#utility.yul\":4780:4898   */\n      pop\n        /* \"#utility.yul\":4286:4905   */\n      swap3\n      pop\n      swap3\n      pop\n      swap3\n      jump\t// out\n        /* \"#utility.yul\":4911:5001   */\n    tag_232:\n        /* \"#utility.yul\":4945:4952   */\n      0x00\n        /* \"#utility.yul\":4988:4993   */\n      dup2\n        /* \"#utility.yul\":4981:4994   */\n      iszero\n        /* \"#utility.yul\":4974:4995   */\n      iszero\n        /* \"#utility.yul\":4963:4995   */\n      swap1\n      pop\n        /* \"#utility.yul\":4911:5001   */\n      swap2\n      swap1\n      pop\n      jump\t// out\n        /* \"#utility.yul\":5007:5116   */\n    tag_233:\n        /* \"#utility.yul\":5088:5109   */\n      tag_341\n        /* \"#utility.yul\":5103:5108   */\n      dup2\n        /* \"#utility.yul\":5088:5109   */\n      tag_232\n      jump\t// in\n    tag_341:\n        /* \"#utility.yul\":5083:5086   */\n      dup3\n        /* \"#utility.yul\":5076:5110   */\n      mstore\n        /* \"#utility.yul\":5007:5116   */\n      pop\n      pop\n      jump\t// out\n        /* \"#utility.yul\":5122:5332   */\n    tag_55:\n        /* \"#utility.yul\":5209:5213   */\n      0x00\n        /* \"#utility.yul\":5247:5249   */\n      0x20\n        /* \"#utility.yul\":5236:5245   */\n      dup3\n        /* \"#utility.yul\":5232:5250   */\n      add\n        /* \"#utility.yul\":5224:5250   */\n      swap1\n      pop\n        /* \"#utility.yul\":5260:5325   */\n      tag_343\n        /* \"#utility.yul\":5322:5323   */\n      0x00\n        /* \"#utility.yul\":5311:5320   */\n      dup4\n        /* \"#utility.yul\":5307:5324   */\n      add\n        /* \"#utility.yul\":5298:5304   */\n      dup5\n        /* \"#utility.yul\":5260:5325   */\n      tag_233\n      jump\t// in\n    tag_343:\n        /* \"#utility.yul\":5122:5332   */\n      swap3\n      swap2\n      pop\n      pop\n      jump\t// out\n        /* \"#utility.yul\":5338:5455   */\n    tag_234:\n        /* \"#utility.yul\":5447:5448   */\n      0x00\n        /* \"#utility.yul\":5444:5445   */\n      0x00\n        /* \"#utility.yul\":5437:5449   */\n      revert\n        /* \"#utility.yul\":5461:5578   */\n    tag_235:\n        /* \"#utility.yul\":5570:5571   */\n      0x00\n        /* \"#utility.yul\":5567:5568   */\n      0x00\n        /* \"#utility.yul\":5560:5572   */\n      revert\n        /* \"#utility.yul\":5584:5764   */\n    tag_203:\n        /* \"#utility.yul\":5632:5709   */\n      0x4e487b7100000000000000000000000000000000000000000000000000000000\n        /* \"#utility.yul\":5629:5630   */\n      0x00\n        /* \"#utility.yul\":5622:5710   */\n      mstore\n        /* \"#utility.yul\":5729:5733   */\n      0x41\n        /* \"#utility.yul\":5726:5727   */\n      0x04\n        /* \"#utility.yul\":5719:5734   */\n      mstore\n        /* \"#utility.yul\":5753:5757   */\n      0x24\n        /* \"#utility.yul\":5750:5751   */\n      0x00\n        /* \"#utility.yul\":5743:5758   */\n      revert\n        /* \"#utility.yul\":5770:6051   */\n    tag_236:\n        /* \"#utility.yul\":5853:5880   */\n      tag_348\n        /* \"#utility.yul\":5875:5879   */\n      dup3\n        /* \"#utility.yul\":5853:5880   */\n      tag_218\n      jump\t// in\n    tag_348:\n        /* \"#utility.yul\":5845:5851   */\n      dup2\n        /* \"#utility.yul\":5841:5881   */\n      add\n        /* \"#utility.yul\":5983:5989   */\n      dup2\n        /* \"#utility.yul\":5971:5981   */\n      dup2\n        /* \"#utility.yul\":5968:5990   */\n      lt\n        /* \"#utility.yul\":5947:5965   */\n      0xffffffffffffffff\n        /* \"#utility.yul\":5935:5945   */\n      dup3\n        /* \"#utility.yul\":5932:5966   */\n      gt\n        /* \"#utility.yul\":5929:5991   */\n      or\n        /* \"#utility.yul\":5926:6014   */\n      iszero\n      tag_349\n      jumpi\n        /* \"#utility.yul\":5994:6012   */\n      tag_350\n      tag_203\n      jump\t// in\n    tag_350:\n        /* \"#utility.yul\":5926:6014   */\n    tag_349:\n        /* \"#utility.yul\":6034:6044   */\n      dup1\n        /* \"#utility.yul\":6030:6032   */\n      0x40\n        /* \"#utility.yul\":6023:6045   */\n      mstore\n        /* \"#utility.yul\":5813:6051   */\n      pop\n        /* \"#utility.yul\":5770:6051   */\n      pop\n      pop\n      jump\t// out\n        /* \"#utility.yul\":6057:6186   */\n    tag_237:\n        /* \"#utility.yul\":6091:6097   */\n      0x00\n        /* \"#utility.yul\":6118:6138   */\n      tag_352\n      tag_220\n      jump\t// in\n    tag_352:\n        /* \"#utility.yul\":6108:6138   */\n      swap1\n      pop\n        /* \"#utility.yul\":6147:6180   */\n      tag_353\n        /* \"#utility.yul\":6175:6179   */\n      dup3\n        /* \"#utility.yul\":6167:6173   */\n      dup3\n        /* \"#utility.yul\":6147:6180   */\n      tag_236\n      jump\t// in\n    tag_353:\n        /* \"#utility.yul\":6057:6186   */\n      swap2\n      swap1\n      pop\n      jump\t// out\n        /* \"#utility.yul\":6192:6500   */\n    tag_238:\n        /* \"#utility.yul\":6254:6258   */\n      0x00\n        /* \"#utility.yul\":6344:6362   */\n      0xffffffffffffffff\n        /* \"#utility.yul\":6336:6342   */\n      dup3\n        /* \"#utility.yul\":6333:6363   */\n      gt\n        /* \"#utility.yul\":6330:6386   */\n      iszero\n      tag_355\n      jumpi\n        /* \"#utility.yul\":6366:6384   */\n      tag_356\n      tag_203\n      jump\t// in\n    tag_356:\n        /* \"#utility.yul\":6330:6386   */\n    tag_355:\n        /* \"#utility.yul\":6404:6433   */\n      tag_357\n        /* \"#utility.yul\":6426:6432   */\n      dup3\n        /* \"#utility.yul\":6404:6433   */\n      tag_218\n      jump\t// in\n    tag_357:\n        /* \"#utility.yul\":6396:6433   */\n      swap1\n      pop\n        /* \"#utility.yul\":6488:6492   */\n      0x20\n        /* \"#utility.yul\":6482:6486   */\n      dup2\n        /* \"#utility.yul\":6478:6493   */\n      add\n        /* \"#utility.yul\":6470:6493   */\n      swap1\n      pop\n        /* \"#utility.yul\":6192:6500   */\n      swap2\n      swap1\n      pop\n      jump\t// out\n        /* \"#utility.yul\":6506:6654   */\n    tag_239:\n        /* \"#utility.yul\":6604:6610   */\n      dup3\n        /* \"#utility.yul\":6599:6602   */\n      dup2\n        /* \"#utility.yul\":6594:6597   */\n      dup4\n        /* \"#utility.yul\":6581:6611   */\n      calldatacopy\n        /* \"#utility.yul\":6645:6646   */\n      0x00\n        /* \"#utility.yul\":6636:6642   */\n      dup4\n        /* \"#utility.yul\":6631:6634   */\n      dup4\n        /* \"#utility.yul\":6627:6643   */\n      add\n        /* \"#utility.yul\":6620:6647   */\n      mstore\n        /* \"#utility.yul\":6506:6654   */\n      pop\n      pop\n      pop\n      jump\t// out\n        /* \"#utility.yul\":6660:7085   */\n    tag_240:\n        /* \"#utility.yul\":6738:6743   */\n      0x00\n        /* \"#utility.yul\":6763:6829   */\n      tag_360\n        /* \"#utility.yul\":6779:6828   */\n      tag_361\n        /* \"#utility.yul\":6821:6827   */\n      dup5\n        /* \"#utility.yul\":6779:6828   */\n      tag_238\n      jump\t// in\n    tag_361:\n        /* \"#utility.yul\":6763:6829   */\n      tag_237\n      jump\t// in\n    tag_360:\n        /* \"#utility.yul\":6754:6829   */\n      swap1\n      pop\n        /* \"#utility.yul\":6852:6858   */\n      dup3\n        /* \"#utility.yul\":6845:6850   */\n      dup2\n        /* \"#utility.yul\":6838:6859   */\n      mstore\n        /* \"#utility.yul\":6890:6894   */\n      0x20\n        /* \"#utility.yul\":6883:6888   */\n      dup2\n        /* \"#utility.yul\":6879:6895   */\n      add\n        /* \"#utility.yul\":6928:6931   */\n      dup5\n        /* \"#utility.yul\":6919:6925   */\n      dup5\n        /* \"#utility.yul\":6914:6917   */\n      dup5\n        /* \"#utility.yul\":6910:6926   */\n      add\n        /* \"#utility.yul\":6907:6932   */\n      gt\n        /* \"#utility.yul\":6904:7016   */\n      iszero\n      tag_362\n      jumpi\n        /* \"#utility.yul\":6935:7014   */\n      tag_363\n      tag_235\n      jump\t// in\n    tag_363:\n        /* \"#utility.yul\":6904:7016   */\n    tag_362:\n        /* \"#utility.yul\":7025:7079   */\n      tag_364\n        /* \"#utility.yul\":7072:7078   */\n      dup5\n        /* \"#utility.yul\":7067:7070   */\n      dup3\n        /* \"#utility.yul\":7062:7065   */\n      dup6\n        /* \"#utility.yul\":7025:7079   */\n      tag_239\n      jump\t// in\n    tag_364:\n        /* \"#utility.yul\":6744:7085   */\n      pop\n        /* \"#utility.yul\":6660:7085   */\n      swap4\n      swap3\n      pop\n      pop\n      pop\n      jump\t// out\n        /* \"#utility.yul\":7105:7445   */\n    tag_241:\n        /* \"#utility.yul\":7161:7166   */\n      0x00\n        /* \"#utility.yul\":7210:7213   */\n      dup3\n        /* \"#utility.yul\":7203:7207   */\n      0x1f\n        /* \"#utility.yul\":7195:7201   */\n      dup4\n        /* \"#utility.yul\":7191:7208   */\n      add\n        /* \"#utility.yul\":7187:7214   */\n      slt\n        /* \"#utility.yul\":7177:7299   */\n      tag_366\n      jumpi\n        /* \"#utility.yul\":7218:7297   */\n      tag_367\n      tag_234\n      jump\t// in\n    tag_367:\n        /* \"#utility.yul\":7177:7299   */\n    tag_366:\n        /* \"#utility.yul\":7335:7341   */\n      dup2\n        /* \"#utility.yul\":7322:7342   */\n      calldataload\n        /* \"#utility.yul\":7360:7439   */\n      tag_368\n        /* \"#utility.yul\":7435:7438   */\n      dup5\n        /* \"#utility.yul\":7427:7433   */\n      dup3\n        /* \"#utility.yul\":7420:7424   */\n      0x20\n        /* \"#utility.yul\":7412:7418   */\n      dup7\n        /* \"#utility.yul\":7408:7425   */\n      add\n        /* \"#utility.yul\":7360:7439   */\n      tag_240\n      jump\t// in\n    tag_368:\n        /* \"#utility.yul\":7351:7439   */\n      swap2\n      pop\n        /* \"#utility.yul\":7167:7445   */\n      pop\n        /* \"#utility.yul\":7105:7445   */\n      swap3\n      swap2\n      pop\n      pop\n      jump\t// out\n        /* \"#utility.yul\":7451:7960   */\n    tag_61:\n        /* \"#utility.yul\":7520:7526   */\n      0x00\n        /* \"#utility.yul\":7569:7571   */\n      0x20\n        /* \"#utility.yul\":7557:7566   */\n      dup3\n        /* \"#utility.yul\":7548:7555   */\n      dup5\n        /* \"#utility.yul\":7544:7567   */\n      sub\n        /* \"#utility.yul\":7540:7572   */\n      slt\n        /* \"#utility.yul\":7537:7656   */\n      iszero\n      tag_370\n      jumpi\n        /* \"#utility.yul\":7575:7654   */\n      tag_371\n      tag_221\n      jump\t// in\n    tag_371:\n        /* \"#utility.yul\":7537:7656   */\n    tag_370:\n        /* \"#utility.yul\":7723:7724   */\n      0x00\n        /* \"#utility.yul\":7712:7721   */\n      dup3\n        /* \"#utility.yul\":7708:7725   */\n      add\n        /* \"#utility.yul\":7695:7726   */\n      calldataload\n        /* \"#utility.yul\":7753:7771   */\n      0xffffffffffffffff\n        /* \"#utility.yul\":7745:7751   */\n      dup2\n        /* \"#utility.yul\":7742:7772   */\n      gt\n        /* \"#utility.yul\":7739:7856   */\n      iszero\n      tag_372\n      jumpi\n        /* \"#utility.yul\":7775:7854   */\n      tag_373\n      tag_222\n      jump\t// in\n    tag_373:\n        /* \"#utility.yul\":7739:7856   */\n    tag_372:\n        /* \"#utility.yul\":7880:7943   */\n      tag_374\n        /* \"#utility.yul\":7935:7942   */\n      dup5\n        /* \"#utility.yul\":7926:7932   */\n      dup3\n        /* \"#utility.yul\":7915:7924   */\n      dup6\n        /* \"#utility.yul\":7911:7933   */\n      add\n        /* \"#utility.yul\":7880:7943   */\n      tag_241\n      jump\t// in\n    tag_374:\n        /* \"#utility.yul\":7870:7943   */\n      swap2\n      pop\n        /* \"#utility.yul\":7666:7953   */\n      pop\n        /* \"#utility.yul\":7451:7960   */\n      swap3\n      swap2\n      pop\n      pop\n      jump\t// out\n        /* \"#utility.yul\":7966:8146   */\n    tag_242:\n        /* \"#utility.yul\":8014:8091   */\n      0x4e487b7100000000000000000000000000000000000000000000000000000000\n        /* \"#utility.yul\":8011:8012   */\n      0x00\n        /* \"#utility.yul\":8004:8092   */\n      mstore\n        /* \"#utility.yul\":8111:8115   */\n      0x22\n        /* \"#utility.yul\":8108:8109   */\n      0x04\n        /* \"#utility.yul\":8101:8116   */\n      mstore\n        /* \"#utility.yul\":8135:8139   */\n      0x24\n        /* \"#utility.yul\":8132:8133   */\n      0x00\n        /* \"#utility.yul\":8125:8140   */\n      revert\n        /* \"#utility.yul\":8152:8472   */\n    tag_95:\n        /* \"#utility.yul\":8196:8202   */\n      0x00\n        /* \"#utility.yul\":8233:8234   */\n      0x02\n        /* \"#utility.yul\":8227:8231   */\n      dup3\n        /* \"#utility.yul\":8223:8235   */\n      div\n        /* \"#utility.yul\":8213:8235   */\n      swap1\n      pop\n        /* \"#utility.yul\":8280:8281   */\n      0x01\n        /* \"#utility.yul\":8274:8278   */\n      dup3\n        /* \"#utility.yul\":8270:8282   */\n      and\n        /* \"#utility.yul\":8301:8319   */\n      dup1\n        /* \"#utility.yul\":8291:8372   */\n      tag_377\n      jumpi\n        /* \"#utility.yul\":8357:8361   */\n      0x7f\n        /* \"#utility.yul\":8349:8355   */\n      dup3\n        /* \"#utility.yul\":8345:8362   */\n      and\n        /* \"#utility.yul\":8335:8362   */\n      swap2\n      pop\n        /* \"#utility.yul\":8291:8372   */\n    tag_377:\n        /* \"#utility.yul\":8419:8421   */\n      0x20\n        /* \"#utility.yul\":8411:8417   */\n      dup3\n        /* \"#utility.yul\":8408:8422   */\n      lt\n        /* \"#utility.yul\":8388:8406   */\n      dup2\n        /* \"#utility.yul\":8385:8423   */\n      sub\n        /* \"#utility.yul\":8382:8466   */\n      tag_378\n      jumpi\n        /* \"#utility.yul\":8438:8456   */\n      tag_379\n      tag_242\n      jump\t// in\n    tag_379:\n        /* \"#utility.yul\":8382:8466   */\n    tag_378:\n        /* \"#utility.yul\":8203:8472   */\n      pop\n        /* \"#utility.yul\":8152:8472   */\n      swap2\n      swap1\n      pop\n      jump\t// out\n        /* \"#utility.yul\":8478:8643   */\n    tag_243:\n        /* \"#utility.yul\":8618:8635   */\n      0x4e6f7420746f6b656e206f776e65720000000000000000000000000000000000\n        /* \"#utility.yul\":8614:8615   */\n      0x00\n        /* \"#utility.yul\":8606:8612   */\n      dup3\n        /* \"#utility.yul\":8602:8616   */\n      add\n        /* \"#utility.yul\":8595:8636   */\n      mstore\n        /* \"#utility.yul\":8478:8643   */\n      pop\n      jump\t// out\n        /* \"#utility.yul\":8649:9015   */\n    tag_244:\n        /* \"#utility.yul\":8791:8794   */\n      0x00\n        /* \"#utility.yul\":8812:8879   */\n      tag_382\n        /* \"#utility.yul\":8876:8878   */\n      0x0f\n        /* \"#utility.yul\":8871:8874   */\n      dup4\n        /* \"#utility.yul\":8812:8879   */\n      tag_216\n      jump\t// in\n    tag_382:\n        /* \"#utility.yul\":8805:8879   */\n      swap2\n      pop\n        /* \"#utility.yul\":8888:8981   */\n      tag_383\n        /* \"#utility.yul\":8977:8980   */\n      dup3\n        /* \"#utility.yul\":8888:8981   */\n      tag_243\n      jump\t// in\n    tag_383:\n        /* \"#utility.yul\":9006:9008   */\n      0x20\n        /* \"#utility.yul\":9001:9004   */\n      dup3\n        /* \"#utility.yul\":8997:9009   */\n      add\n        /* \"#utility.yul\":8990:9009   */\n      swap1\n      pop\n        /* \"#utility.yul\":8649:9015   */\n      swap2\n      swap1\n      pop\n      jump\t// out\n        /* \"#utility.yul\":9021:9440   */\n    tag_105:\n        /* \"#utility.yul\":9187:9191   */\n      0x00\n        /* \"#utility.yul\":9225:9227   */\n      0x20\n        /* \"#utility.yul\":9214:9223   */\n      dup3\n        /* \"#utility.yul\":9210:9228   */\n      add\n        /* \"#utility.yul\":9202:9228   */\n      swap1\n      pop\n        /* \"#utility.yul\":9274:9283   */\n      dup2\n        /* \"#utility.yul\":9268:9272   */\n      dup2\n        /* \"#utility.yul\":9264:9284   */\n      sub\n        /* \"#utility.yul\":9260:9261   */\n      0x00\n        /* \"#utility.yul\":9249:9258   */\n      dup4\n        /* \"#utility.yul\":9245:9262   */\n      add\n        /* \"#utility.yul\":9238:9285   */\n      mstore\n        /* \"#utility.yul\":9302:9433   */\n      tag_385\n        /* \"#utility.yul\":9428:9432   */\n      dup2\n        /* \"#utility.yul\":9302:9433   */\n      tag_244\n      jump\t// in\n    tag_385:\n        /* \"#utility.yul\":9294:9433   */\n      swap1\n      pop\n        /* \"#utility.yul\":9021:9440   */\n      swap2\n      swap1\n      pop\n      jump\t// out\n        /* \"#utility.yul\":9446:9624   */\n    tag_245:\n        /* \"#utility.yul\":9586:9616   */\n      0x43616e6e6f7420617070726f76652063757272656e74206f776e657200000000\n        /* \"#utility.yul\":9582:9583   */\n      0x00\n        /* \"#utility.yul\":9574:9580   */\n      dup3\n        /* \"#utility.yul\":9570:9584   */\n      add\n        /* \"#utility.yul\":9563:9617   */\n      mstore\n        /* \"#utility.yul\":9446:9624   */\n      pop\n      jump\t// out\n        /* \"#utility.yul\":9630:9996   */\n    tag_246:\n        /* \"#utility.yul\":9772:9775   */\n      0x00\n        /* \"#utility.yul\":9793:9860   */\n      tag_388\n        /* \"#utility.yul\":9857:9859   */\n      0x1c\n        /* \"#utility.yul\":9852:9855   */\n      dup4\n        /* \"#utility.yul\":9793:9860   */\n      tag_216\n      jump\t// in\n    tag_388:\n        /* \"#utility.yul\":9786:9860   */\n      swap2\n      pop\n        /* \"#utility.yul\":9869:9962   */\n      tag_389\n        /* \"#utility.yul\":9958:9961   */\n      dup3\n        /* \"#utility.yul\":9869:9962   */\n      tag_245\n      jump\t// in\n    tag_389:\n        /* \"#utility.yul\":9987:9989   */\n      0x20\n        /* \"#utility.yul\":9982:9985   */\n      dup3\n        /* \"#utility.yul\":9978:9990   */\n      add\n        /* \"#utility.yul\":9971:9990   */\n      swap1\n      pop\n        /* \"#utility.yul\":9630:9996   */\n      swap2\n      swap1\n      pop\n      jump\t// out\n        /* \"#utility.yul\":10002:10421   */\n    tag_108:\n        /* \"#utility.yul\":10168:10172   */\n      0x00\n        /* \"#utility.yul\":10206:10208   */\n      0x20\n        /* \"#utility.yul\":10195:10204   */\n      dup3\n        /* \"#utility.yul\":10191:10209   */\n      add\n        /* \"#utility.yul\":10183:10209   */\n      swap1\n      pop\n        /* \"#utility.yul\":10255:10264   */\n      dup2\n        /* \"#utility.yul\":10249:10253   */\n      dup2\n        /* \"#utility.yul\":10245:10265   */\n      sub\n        /* \"#utility.yul\":10241:10242   */\n      0x00\n        /* \"#utility.yul\":10230:10239   */\n      dup4\n        /* \"#utility.yul\":10226:10243   */\n      add\n        /* \"#utility.yul\":10219:10266   */\n      mstore\n        /* \"#utility.yul\":10283:10414   */\n      tag_391\n        /* \"#utility.yul\":10409:10413   */\n      dup2\n        /* \"#utility.yul\":10283:10414   */\n      tag_246\n      jump\t// in\n    tag_391:\n        /* \"#utility.yul\":10275:10414   */\n      swap1\n      pop\n        /* \"#utility.yul\":10002:10421   */\n      swap2\n      swap1\n      pop\n      jump\t// out\n        /* \"#utility.yul\":10427:10595   */\n    tag_247:\n        /* \"#utility.yul\":10567:10587   */\n      0x4e6f7420636f6e7472616374206f776e65720000000000000000000000000000\n        /* \"#utility.yul\":10563:10564   */\n      0x00\n        /* \"#utility.yul\":10555:10561   */\n      dup3\n        /* \"#utility.yul\":10551:10565   */\n      add\n        /* \"#utility.yul\":10544:10588   */\n      mstore\n        /* \"#utility.yul\":10427:10595   */\n      pop\n      jump\t// out\n        /* \"#utility.yul\":10601:10967   */\n    tag_248:\n        /* \"#utility.yul\":10743:10746   */\n      0x00\n        /* \"#utility.yul\":10764:10831   */\n      tag_394\n        /* \"#utility.yul\":10828:10830   */\n      0x12\n        /* \"#utility.yul\":10823:10826   */\n      dup4\n        /* \"#utility.yul\":10764:10831   */\n      tag_216\n      jump\t// in\n    tag_394:\n        /* \"#utility.yul\":10757:10831   */\n      swap2\n      pop\n        /* \"#utility.yul\":10840:10933   */\n      tag_395\n        /* \"#utility.yul\":10929:10932   */\n      dup3\n        /* \"#utility.yul\":10840:10933   */\n      tag_247\n      jump\t// in\n    tag_395:\n        /* \"#utility.yul\":10958:10960   */\n      0x20\n        /* \"#utility.yul\":10953:10956   */\n      dup3\n        /* \"#utility.yul\":10949:10961   */\n      add\n        /* \"#utility.yul\":10942:10961   */\n      swap1\n      pop\n        /* \"#utility.yul\":10601:10967   */\n      swap2\n      swap1\n      pop\n      jump\t// out\n        /* \"#utility.yul\":10973:11392   */\n    tag_112:\n        /* \"#utility.yul\":11139:11143   */\n      0x00\n        /* \"#utility.yul\":11177:11179   */\n      0x20\n        /* \"#utility.yul\":11166:11175   */\n      dup3\n        /* \"#utility.yul\":11162:11180   */\n      add\n        /* \"#utility.yul\":11154:11180   */\n      swap1\n      pop\n        /* \"#utility.yul\":11226:11235   */\n      dup2\n        /* \"#utility.yul\":11220:11224   */\n      dup2\n        /* \"#utility.yul\":11216:11236   */\n      sub\n        /* \"#utility.yul\":11212:11213   */\n      0x00\n        /* \"#utility.yul\":11201:11210   */\n      dup4\n        /* \"#utility.yul\":11197:11214   */\n      add\n        /* \"#utility.yul\":11190:11237   */\n      mstore\n        /* \"#utility.yul\":11254:11385   */\n      tag_397\n        /* \"#utility.yul\":11380:11384   */\n      dup2\n        /* \"#utility.yul\":11254:11385   */\n      tag_248\n      jump\t// in\n    tag_397:\n        /* \"#utility.yul\":11246:11385   */\n      swap1\n      pop\n        /* \"#utility.yul\":10973:11392   */\n      swap2\n      swap1\n      pop\n      jump\t// out\n        /* \"#utility.yul\":11398:11560   */\n    tag_249:\n        /* \"#utility.yul\":11538:11552   */\n      0x5a65726f20616464726573730000000000000000000000000000000000000000\n        /* \"#utility.yul\":11534:11535   */\n      0x00\n        /* \"#utility.yul\":11526:11532   */\n      dup3\n        /* \"#utility.yul\":11522:11536   */\n      add\n        /* \"#utility.yul\":11515:11553   */\n      mstore\n        /* \"#utility.yul\":11398:11560   */\n      pop\n      jump\t// out\n        /* \"#utility.yul\":11566:11932   */\n    tag_250:\n        /* \"#utility.yul\":11708:11711   */\n      0x00\n        /* \"#utility.yul\":11729:11796   */\n      tag_400\n        /* \"#utility.yul\":11793:11795   */\n      0x0c\n        /* \"#utility.yul\":11788:11791   */\n      dup4\n        /* \"#utility.yul\":11729:11796   */\n      tag_216\n      jump\t// in\n    tag_400:\n        /* \"#utility.yul\":11722:11796   */\n      swap2\n      pop\n        /* \"#utility.yul\":11805:11898   */\n      tag_401\n        /* \"#utility.yul\":11894:11897   */\n      dup3\n        /* \"#utility.yul\":11805:11898   */\n      tag_249\n      jump\t// in\n    tag_401:\n        /* \"#utility.yul\":11923:11925   */\n      0x20\n        /* \"#utility.yul\":11918:11921   */\n      dup3\n        /* \"#utility.yul\":11914:11926   */\n      add\n        /* \"#utility.yul\":11907:11926   */\n      swap1\n      pop\n        /* \"#utility.yul\":11566:11932   */\n      swap2\n      swap1\n      pop\n      jump\t// out\n        /* \"#utility.yul\":11938:12357   */\n    tag_116:\n        /* \"#utility.yul\":12104:12108   */\n      0x00\n        /* \"#utility.yul\":12142:12144   */\n      0x20\n        /* \"#utility.yul\":12131:12140   */\n      dup3\n        /* \"#utility.yul\":12127:12145   */\n      add\n        /* \"#utility.yul\":12119:12145   */\n      swap1\n      pop\n        /* \"#utility.yul\":12191:12200   */\n      dup2\n        /* \"#utility.yul\":12185:12189   */\n      dup2\n        /* \"#utility.yul\":12181:12201   */\n      sub\n        /* \"#utility.yul\":12177:12178   */\n      0x00\n        /* \"#utility.yul\":12166:12175   */\n      dup4\n        /* \"#utility.yul\":12162:12179   */\n      add\n        /* \"#utility.yul\":12155:12202   */\n      mstore\n        /* \"#utility.yul\":12219:12350   */\n      tag_403\n        /* \"#utility.yul\":12345:12349   */\n      dup2\n        /* \"#utility.yul\":12219:12350   */\n      tag_250\n      jump\t// in\n    tag_403:\n        /* \"#utility.yul\":12211:12350   */\n      swap1\n      pop\n        /* \"#utility.yul\":11938:12357   */\n      swap2\n      swap1\n      pop\n      jump\t// out\n        /* \"#utility.yul\":12363:12543   */\n    tag_251:\n        /* \"#utility.yul\":12411:12488   */\n      0x4e487b7100000000000000000000000000000000000000000000000000000000\n        /* \"#utility.yul\":12408:12409   */\n      0x00\n        /* \"#utility.yul\":12401:12489   */\n      mstore\n        /* \"#utility.yul\":12508:12512   */\n      0x11\n        /* \"#utility.yul\":12505:12506   */\n      0x04\n        /* \"#utility.yul\":12498:12513   */\n      mstore\n        /* \"#utility.yul\":12532:12536   */\n      0x24\n        /* \"#utility.yul\":12529:12530   */\n      0x00\n        /* \"#utility.yul\":12522:12537   */\n      revert\n        /* \"#utility.yul\":12549:12740   */\n    tag_118:\n        /* \"#utility.yul\":12589:12592   */\n      0x00\n        /* \"#utility.yul\":12608:12628   */\n      tag_406\n        /* \"#utility.yul\":12626:12627   */\n      dup3\n        /* \"#utility.yul\":12608:12628   */\n      tag_223\n      jump\t// in\n    tag_406:\n        /* \"#utility.yul\":12603:12628   */\n      swap2\n      pop\n        /* \"#utility.yul\":12642:12662   */\n      tag_407\n        /* \"#utility.yul\":12660:12661   */\n      dup4\n        /* \"#utility.yul\":12642:12662   */\n      tag_223\n      jump\t// in\n    tag_407:\n        /* \"#utility.yul\":12637:12662   */\n      swap3\n      pop\n        /* \"#utility.yul\":12685:12686   */\n      dup3\n        /* \"#utility.yul\":12682:12683   */\n      dup3\n        /* \"#utility.yul\":12678:12687   */\n      add\n        /* \"#utility.yul\":12671:12687   */\n      swap1\n      pop\n        /* \"#utility.yul\":12706:12709   */\n      dup1\n        /* \"#utility.yul\":12703:12704   */\n      dup3\n        /* \"#utility.yul\":12700:12710   */\n      gt\n        /* \"#utility.yul\":12697:12733   */\n      iszero\n      tag_408\n      jumpi\n        /* \"#utility.yul\":12713:12731   */\n      tag_409\n      tag_251\n      jump\t// in\n    tag_409:\n        /* \"#utility.yul\":12697:12733   */\n    tag_408:\n        /* \"#utility.yul\":12549:12740   */\n      swap3\n      swap2\n      pop\n      pop\n      jump\t// out\n        /* \"#utility.yul\":12746:12927   */\n    tag_252:\n        /* \"#utility.yul\":12886:12919   */\n      0x43616e6e6f74207472616e7366657220746f207a65726f206164647265737300\n        /* \"#utility.yul\":12882:12883   */\n      0x00\n        /* \"#utility.yul\":12874:12880   */\n      dup3\n        /* \"#utility.yul\":12870:12884   */\n      add\n        /* \"#utility.yul\":12863:12920   */\n      mstore\n        /* \"#utility.yul\":12746:12927   */\n      pop\n      jump\t// out\n        /* \"#utility.yul\":12933:13299   */\n    tag_253:\n        /* \"#utility.yul\":13075:13078   */\n      0x00\n        /* \"#utility.yul\":13096:13163   */\n      tag_412\n        /* \"#utility.yul\":13160:13162   */\n      0x1f\n        /* \"#utility.yul\":13155:13158   */\n      dup4\n        /* \"#utility.yul\":13096:13163   */\n      tag_216\n      jump\t// in\n    tag_412:\n        /* \"#utility.yul\":13089:13163   */\n      swap2\n      pop\n        /* \"#utility.yul\":13172:13265   */\n      tag_413\n        /* \"#utility.yul\":13261:13264   */\n      dup3\n        /* \"#utility.yul\":13172:13265   */\n      tag_252\n      jump\t// in\n    tag_413:\n        /* \"#utility.yul\":13290:13292   */\n      0x20\n        /* \"#utility.yul\":13285:13288   */\n      dup3\n        /* \"#utility.yul\":13281:13293   */\n      add\n        /* \"#utility.yul\":13274:13293   */\n      swap1\n      pop\n        /* \"#utility.yul\":12933:13299   */\n      swap2\n      swap1\n      pop\n      jump\t// out\n        /* \"#utility.yul\":13305:13724   */\n    tag_126:\n        /* \"#utility.yul\":13471:13475   */\n      0x00\n        /* \"#utility.yul\":13509:13511   */\n      0x20\n        /* \"#utility.yul\":13498:13507   */\n      dup3\n        /* \"#utility.yul\":13494:13512   */\n      add\n        /* \"#utility.yul\":13486:13512   */\n      swap1\n      pop\n        /* \"#utility.yul\":13558:13567   */\n      dup2\n        /* \"#utility.yul\":13552:13556   */\n      dup2\n        /* \"#utility.yul\":13548:13568   */\n      sub\n        /* \"#utility.yul\":13544:13545   */\n      0x00\n        /* \"#utility.yul\":13533:13542   */\n      dup4\n        /* \"#utility.yul\":13529:13546   */\n      add\n        /* \"#utility.yul\":13522:13569   */\n      mstore\n        /* \"#utility.yul\":13586:13717   */\n      tag_415\n        /* \"#utility.yul\":13712:13716   */\n      dup2\n        /* \"#utility.yul\":13586:13717   */\n      tag_253\n      jump\t// in\n    tag_415:\n        /* \"#utility.yul\":13578:13717   */\n      swap1\n      pop\n        /* \"#utility.yul\":13305:13724   */\n      swap2\n      swap1\n      pop\n      jump\t// out\n        /* \"#utility.yul\":13730:13892   */\n    tag_254:\n        /* \"#utility.yul\":13870:13884   */\n      0x4e6f7420617070726f7665640000000000000000000000000000000000000000\n        /* \"#utility.yul\":13866:13867   */\n      0x00\n        /* \"#utility.yul\":13858:13864   */\n      dup3\n        /* \"#utility.yul\":13854:13868   */\n      add\n        /* \"#utility.yul\":13847:13885   */\n      mstore\n        /* \"#utility.yul\":13730:13892   */\n      pop\n      jump\t// out\n        /* \"#utility.yul\":13898:14264   */\n    tag_255:\n        /* \"#utility.yul\":14040:14043   */\n      0x00\n        /* \"#utility.yul\":14061:14128   */\n      tag_418\n        /* \"#utility.yul\":14125:14127   */\n      0x0c\n        /* \"#utility.yul\":14120:14123   */\n      dup4\n        /* \"#utility.yul\":14061:14128   */\n      tag_216\n      jump\t// in\n    tag_418:\n        /* \"#utility.yul\":14054:14128   */\n      swap2\n      pop\n        /* \"#utility.yul\":14137:14230   */\n      tag_419\n        /* \"#utility.yul\":14226:14229   */\n      dup3\n        /* \"#utility.yul\":14137:14230   */\n      tag_254\n      jump\t// in\n    tag_419:\n        /* \"#utility.yul\":14255:14257   */\n      0x20\n        /* \"#utility.yul\":14250:14253   */\n      dup3\n        /* \"#utility.yul\":14246:14258   */\n      add\n        /* \"#utility.yul\":14239:14258   */\n      swap1\n      pop\n        /* \"#utility.yul\":13898:14264   */\n      swap2\n      swap1\n      pop\n      jump\t// out\n        /* \"#utility.yul\":14270:14689   */\n    tag_130:\n        /* \"#utility.yul\":14436:14440   */\n      0x00\n        /* \"#utility.yul\":14474:14476   */\n      0x20\n        /* \"#utility.yul\":14463:14472   */\n      dup3\n        /* \"#utility.yul\":14459:14477   */\n      add\n        /* \"#utility.yul\":14451:14477   */\n      swap1\n      pop\n        /* \"#utility.yul\":14523:14532   */\n      dup2\n        /* \"#utility.yul\":14517:14521   */\n      dup2\n        /* \"#utility.yul\":14513:14533   */\n      sub\n        /* \"#utility.yul\":14509:14510   */\n      0x00\n        /* \"#utility.yul\":14498:14507   */\n      dup4\n        /* \"#utility.yul\":14494:14511   */\n      add\n        /* \"#utility.yul\":14487:14534   */\n      mstore\n        /* \"#utility.yul\":14551:14682   */\n      tag_421\n        /* \"#utility.yul\":14677:14681   */\n      dup2\n        /* \"#utility.yul\":14551:14682   */\n      tag_255\n      jump\t// in\n    tag_421:\n        /* \"#utility.yul\":14543:14682   */\n      swap1\n      pop\n        /* \"#utility.yul\":14270:14689   */\n      swap2\n      swap1\n      pop\n      jump\t// out\n        /* \"#utility.yul\":14695:14889   */\n    tag_132:\n        /* \"#utility.yul\":14735:14739   */\n      0x00\n        /* \"#utility.yul\":14755:14775   */\n      tag_423\n        /* \"#utility.yul\":14773:14774   */\n      dup3\n        /* \"#utility.yul\":14755:14775   */\n      tag_223\n      jump\t// in\n    tag_423:\n        /* \"#utility.yul\":14750:14775   */\n      swap2\n      pop\n        /* \"#utility.yul\":14789:14809   */\n      tag_424\n        /* \"#utility.yul\":14807:14808   */\n      dup4\n        /* \"#utility.yul\":14789:14809   */\n      tag_223\n      jump\t// in\n    tag_424:\n        /* \"#utility.yul\":14784:14809   */\n      swap3\n      pop\n        /* \"#utility.yul\":14833:14834   */\n      dup3\n        /* \"#utility.yul\":14830:14831   */\n      dup3\n        /* \"#utility.yul\":14826:14835   */\n      sub\n        /* \"#utility.yul\":14818:14835   */\n      swap1\n      pop\n        /* \"#utility.yul\":14857:14858   */\n      dup2\n        /* \"#utility.yul\":14851:14855   */\n      dup2\n        /* \"#utility.yul\":14848:14859   */\n      gt\n        /* \"#utility.yul\":14845:14882   */\n      iszero\n      tag_425\n      jumpi\n        /* \"#utility.yul\":14862:14880   */\n      tag_426\n      tag_251\n      jump\t// in\n    tag_426:\n        /* \"#utility.yul\":14845:14882   */\n    tag_425:\n        /* \"#utility.yul\":14695:14889   */\n      swap3\n      swap2\n      pop\n      pop\n      jump\t// out\n        /* \"#utility.yul\":14895:15036   */\n    tag_256:\n        /* \"#utility.yul\":14944:14948   */\n      0x00\n        /* \"#utility.yul\":14967:14970   */\n      dup2\n        /* \"#utility.yul\":14959:14970   */\n      swap1\n      pop\n        /* \"#utility.yul\":14990:14993   */\n      dup2\n        /* \"#utility.yul\":14987:14988   */\n      0x00\n        /* \"#utility.yul\":14980:14994   */\n      mstore\n        /* \"#utility.yul\":15024:15028   */\n      0x20\n        /* \"#utility.yul\":15021:15022   */\n      0x00\n        /* \"#utility.yul\":15011:15029   */\n      keccak256\n        /* \"#utility.yul\":15003:15029   */\n      swap1\n      pop\n        /* \"#utility.yul\":14895:15036   */\n      swap2\n      swap1\n      pop\n      jump\t// out\n        /* \"#utility.yul\":15042:15135   */\n    tag_257:\n        /* \"#utility.yul\":15079:15085   */\n      0x00\n        /* \"#utility.yul\":15126:15128   */\n      0x20\n        /* \"#utility.yul\":15121:15123   */\n      0x1f\n        /* \"#utility.yul\":15114:15119   */\n      dup4\n        /* \"#utility.yul\":15110:15124   */\n      add\n        /* \"#utility.yul\":15106:15129   */\n      div\n        /* \"#utility.yul\":15096:15129   */\n      swap1\n      pop\n        /* \"#utility.yul\":15042:15135   */\n      swap2\n      swap1\n      pop\n      jump\t// out\n        /* \"#utility.yul\":15141:15248   */\n    tag_258:\n        /* \"#utility.yul\":15185:15193   */\n      0x00\n        /* \"#utility.yul\":15235:15240   */\n      dup3\n        /* \"#utility.yul\":15229:15233   */\n      dup3\n        /* \"#utility.yul\":15225:15241   */\n      shl\n        /* \"#utility.yul\":15204:15241   */\n      swap1\n      pop\n        /* \"#utility.yul\":15141:15248   */\n      swap3\n      swap2\n      pop\n      pop\n      jump\t// out\n        /* \"#utility.yul\":15254:15647   */\n    tag_259:\n        /* \"#utility.yul\":15323:15329   */\n      0x00\n        /* \"#utility.yul\":15373:15374   */\n      0x08\n        /* \"#utility.yul\":15361:15371   */\n      dup4\n        /* \"#utility.yul\":15357:15375   */\n      mul\n        /* \"#utility.yul\":15396:15493   */\n      tag_431\n        /* \"#utility.yul\":15426:15492   */\n      0xffffffffffffffffffffffffffffffffffffffffffffffffffffffffffffffff\n        /* \"#utility.yul\":15415:15424   */\n      dup3\n        /* \"#utility.yul\":15396:15493   */\n      tag_258\n      jump\t// in\n    tag_431:\n        /* \"#utility.yul\":15514:15553   */\n      tag_432\n        /* \"#utility.yul\":15544:15552   */\n      dup7\n        /* \"#utility.yul\":15533:15542   */\n      dup4\n        /* \"#utility.yul\":15514:15553   */\n      tag_258\n      jump\t// in\n    tag_432:\n        /* \"#utility.yul\":15502:15553   */\n      swap6\n      pop\n        /* \"#utility.yul\":15586:15590   */\n      dup1\n        /* \"#utility.yul\":15582:15591   */\n      not\n        /* \"#utility.yul\":15575:15580   */\n      dup5\n        /* \"#utility.yul\":15571:15592   */\n      and\n        /* \"#utility.yul\":15562:15592   */\n      swap4\n      pop\n        /* \"#utility.yul\":15635:15639   */\n      dup1\n        /* \"#utility.yul\":15625:15633   */\n      dup7\n        /* \"#utility.yul\":15621:15640   */\n      and\n        /* \"#utility.yul\":15614:15619   */\n      dup5\n        /* \"#utility.yul\":15611:15641   */\n      or\n        /* \"#utility.yul\":15601:15641   */\n      swap3\n      pop\n        /* \"#utility.yul\":15330:15647   */\n      pop\n      pop\n        /* \"#utility.yul\":15254:15647   */\n      swap4\n      swap3\n      pop\n      pop\n      pop\n      jump\t// out\n        /* \"#utility.yul\":15653:15713   */\n    tag_260:\n        /* \"#utility.yul\":15681:15684   */\n      0x00\n        /* \"#utility.yul\":15702:15707   */\n      dup2\n        /* \"#utility.yul\":15695:15707   */\n      swap1\n      pop\n        /* \"#utility.yul\":15653:15713   */\n      swap2\n      swap1\n      pop\n      jump\t// out\n        /* \"#utility.yul\":15719:15861   */\n    tag_261:\n        /* \"#utility.yul\":15769:15778   */\n      0x00\n        /* \"#utility.yul\":15802:15855   */\n      tag_435\n        /* \"#utility.yul\":15820:15854   */\n      tag_436\n        /* \"#utility.yul\":15829:15853   */\n      tag_437\n        /* \"#utility.yul\":15847:15852   */\n      dup5\n        /* \"#utility.yul\":15829:15853   */\n      tag_223\n      jump\t// in\n    tag_437:\n        /* \"#utility.yul\":15820:15854   */\n      tag_260\n      jump\t// in\n    tag_436:\n        /* \"#utility.yul\":15802:15855   */\n      tag_223\n      jump\t// in\n    tag_435:\n        /* \"#utility.yul\":15789:15855   */\n      swap1\n      pop\n        /* \"#utility.yul\":15719:15861   */\n      swap2\n      swap1\n      pop\n      jump\t// out\n        /* \"#utility.yul\":15867:15942   */\n    tag_262:\n        /* \"#utility.yul\":15910:15913   */\n      0x00\n        /* \"#utility.yul\":15931:15936   */\n      dup2\n        /* \"#utility.yul\":15924:15936   */\n      swap1\n      pop\n        /* \"#utility.yul\":15867:15942   */\n      swap2\n      swap1\n      pop\n      jump\t// out\n        /* \"#utility.yul\":15948:16217   */\n    tag_263:\n        /* \"#utility.yul\":16058:16097   */\n      tag_440\n        /* \"#utility.yul\":16089:16096   */\n      dup4\n        /* \"#utility.yul\":16058:16097   */\n      tag_261\n      jump\t// in\n    tag_440:\n        /* \"#utility.yul\":16119:16210   */\n      tag_441\n        /* \"#utility.yul\":16168:16209   */\n      tag_442\n        /* \"#utility.yul\":16192:16208   */\n      dup3\n        /* \"#utility.yul\":16168:16209   */\n      tag_262\n      jump\t// in\n    tag_442:\n        /* \"#utility.yul\":16160:16166   */\n      dup5\n        /* \"#utility.yul\":16153:16157   */\n      dup5\n        /* \"#utility.yul\":16147:16158   */\n      sload\n        /* \"#utility.yul\":16119:16210   */\n      tag_259\n      jump\t// in\n    tag_441:\n        /* \"#utility.yul\":16113:16117   */\n      dup3\n        /* \"#utility.yul\":16106:16211   */\n      sstore\n        /* \"#utility.yul\":16024:16217   */\n      pop\n        /* \"#utility.yul\":15948:16217   */\n      pop\n      pop\n      pop\n      jump\t// out\n        /* \"#utility.yul\":16223:16296   */\n    tag_264:\n        /* \"#utility.yul\":16268:16271   */\n      0x00\n        /* \"#utility.yul\":16289:16290   */\n      0x00\n        /* \"#utility.yul\":16282:16290   */\n      swap1\n      pop\n        /* \"#utility.yul\":16223:16296   */\n      swap1\n      jump\t// out\n        /* \"#utility.yul\":16302:16491   */\n    tag_265:\n        /* \"#utility.yul\":16379:16411   */\n      tag_445\n      tag_264\n      jump\t// in\n    tag_445:\n        /* \"#utility.yul\":16420:16485   */\n      tag_446\n        /* \"#utility.yul\":16478:16484   */\n      dup2\n        /* \"#utility.yul\":16470:16476   */\n      dup5\n        /* \"#utility.yul\":16464:16468   */\n      dup5\n        /* \"#utility.yul\":16420:16485   */\n      tag_263\n      jump\t// in\n    tag_446:\n        /* \"#utility.yul\":16355:16491   */\n      pop\n        /* \"#utility.yul\":16302:16491   */\n      pop\n      pop\n      jump\t// out\n        /* \"#utility.yul\":16497:16683   */\n    tag_266:\n        /* \"#utility.yul\":16557:16677   */\n    tag_448:\n        /* \"#utility.yul\":16574:16577   */\n      dup2\n        /* \"#utility.yul\":16567:16572   */\n      dup2\n        /* \"#utility.yul\":16564:16578   */\n      lt\n        /* \"#utility.yul\":16557:16677   */\n      iszero\n      tag_450\n      jumpi\n        /* \"#utility.yul\":16628:16667   */\n      tag_451\n        /* \"#utility.yul\":16665:16666   */\n      0x00\n        /* \"#utility.yul\":16658:16663   */\n      dup3\n        /* \"#utility.yul\":16628:16667   */\n      tag_265\n      jump\t// in\n    tag_451:\n        /* \"#utility.yul\":16601:16602   */\n      0x01\n        /* \"#utility.yul\":16594:16599   */\n      dup2\n        /* \"#utility.yul\":16590:16603   */\n      add\n        /* \"#utility.yul\":16581:16603   */\n      swap1\n      pop\n        /* \"#utility.yul\":16557:16677   */\n      jump(tag_448)\n    tag_450:\n        /* \"#utility.yul\":16497:16683   */\n      pop\n      pop\n      jump\t// out\n        /* \"#utility.yul\":16689:17232   */\n    tag_267:\n        /* \"#utility.yul\":16790:16792   */\n      0x1f\n        /* \"#utility.yul\":16785:16788   */\n      dup3\n        /* \"#utility.yul\":16782:16793   */\n      gt\n        /* \"#utility.yul\":16779:17225   */\n      iszero\n      tag_453\n      jumpi\n        /* \"#utility.yul\":16824:16862   */\n      tag_454\n        /* \"#utility.yul\":16856:16861   */\n      dup2\n        /* \"#utility.yul\":16824:16862   */\n      tag_256\n      jump\t// in\n    tag_454:\n        /* \"#utility.yul\":16908:16937   */\n      tag_455\n        /* \"#utility.yul\":16926:16936   */\n      dup5\n        /* \"#utility.yul\":16908:16937   */\n      tag_257\n      jump\t// in\n    tag_455:\n        /* \"#utility.yul\":16898:16906   */\n      dup2\n        /* \"#utility.yul\":16894:16938   */\n      add\n        /* \"#utility.yul\":17091:17093   */\n      0x20\n        /* \"#utility.yul\":17079:17089   */\n      dup6\n        /* \"#utility.yul\":17076:17094   */\n      lt\n        /* \"#utility.yul\":17073:17122   */\n      iszero\n      tag_456\n      jumpi\n        /* \"#utility.yul\":17112:17120   */\n      dup2\n        /* \"#utility.yul\":17097:17120   */\n      swap1\n      pop\n        /* \"#utility.yul\":17073:17122   */\n    tag_456:\n        /* \"#utility.yul\":17135:17215   */\n      tag_457\n        /* \"#utility.yul\":17191:17213   */\n      tag_458\n        /* \"#utility.yul\":17209:17212   */\n      dup6\n        /* \"#utility.yul\":17191:17213   */\n      tag_257\n      jump\t// in\n    tag_458:\n        /* \"#utility.yul\":17181:17189   */\n      dup4\n        /* \"#utility.yul\":17177:17214   */\n      add\n        /* \"#utility.yul\":17164:17175   */\n      dup3\n        /* \"#utility.yul\":17135:17215   */\n      tag_266\n      jump\t// in\n    tag_457:\n        /* \"#utility.yul\":16794:17225   */\n      pop\n      pop\n        /* \"#utility.yul\":16779:17225   */\n    tag_453:\n        /* \"#utility.yul\":16689:17232   */\n      pop\n      pop\n      pop\n      jump\t// out\n        /* \"#utility.yul\":17238:17355   */\n    tag_268:\n        /* \"#utility.yul\":17292:17300   */\n      0x00\n        /* \"#utility.yul\":17342:17347   */\n      dup3\n        /* \"#utility.yul\":17336:17340   */\n      dup3\n        /* \"#utility.yul\":17332:17348   */\n      shr\n        /* \"#utility.yul\":17311:17348   */\n      swap1\n      pop\n        /* \"#utility.yul\":17238:17355   */\n      swap3\n      swap2\n      pop\n      pop\n      jump\t// out\n        /* \"#utility.yul\":17361:17530   */\n    tag_269:\n        /* \"#utility.yul\":17405:17411   */\n      0x00\n        /* \"#utility.yul\":17438:17489   */\n      tag_461\n        /* \"#utility.yul\":17486:17487   */\n      0x00\n        /* \"#utility.yul\":17482:17488   */\n      not\n        /* \"#utility.yul\":17474:17479   */\n      dup5\n        /* \"#utility.yul\":17471:17472   */\n      0x08\n        /* \"#utility.yul\":17467:17480   */\n      mul\n        /* \"#utility.yul\":17438:17489   */\n      tag_268\n      jump\t// in\n    tag_461:\n        /* \"#utility.yul\":17434:17490   */\n      not\n        /* \"#utility.yul\":17519:17523   */\n      dup1\n        /* \"#utility.yul\":17513:17517   */\n      dup4\n        /* \"#utility.yul\":17509:17524   */\n      and\n        /* \"#utility.yul\":17499:17524   */\n      swap2\n      pop\n        /* \"#utility.yul\":17412:17530   */\n      pop\n        /* \"#utility.yul\":17361:17530   */\n      swap3\n      swap2\n      pop\n      pop\n      jump\t// out\n        /* \"#utility.yul\":17535:17830   */\n    tag_270:\n        /* \"#utility.yul\":17611:17615   */\n      0x00\n        /* \"#utility.yul\":17757:17786   */\n      tag_463\n        /* \"#utility.yul\":17782:17785   */\n      dup4\n        /* \"#utility.yul\":17776:17780   */\n      dup4\n        /* \"#utility.yul\":17757:17786   */\n      tag_269\n      jump\t// in\n    tag_463:\n        /* \"#utility.yul\":17749:17786   */\n      swap2\n      pop\n        /* \"#utility.yul\":17819:17822   */\n      dup3\n        /* \"#utility.yul\":17816:17817   */\n      0x02\n        /* \"#utility.yul\":17812:17823   */\n      mul\n        /* \"#utility.yul\":17806:17810   */\n      dup3\n        /* \"#utility.yul\":17803:17824   */\n      or\n        /* \"#utility.yul\":17795:17824   */\n      swap1\n      pop\n        /* \"#utility.yul\":17535:17830   */\n      swap3\n      swap2\n      pop\n      pop\n      jump\t// out\n        /* \"#utility.yul\":17835:19230   */\n    tag_140:\n        /* \"#utility.yul\":17952:17989   */\n      tag_465\n        /* \"#utility.yul\":17985:17988   */\n      dup3\n        /* \"#utility.yul\":17952:17989   */\n      tag_215\n      jump\t// in\n    tag_465:\n        /* \"#utility.yul\":18054:18072   */\n      0xffffffffffffffff\n        /* \"#utility.yul\":18046:18052   */\n      dup2\n        /* \"#utility.yul\":18043:18073   */\n      gt\n        /* \"#utility.yul\":18040:18096   */\n      iszero\n      tag_466\n      jumpi\n        /* \"#utility.yul\":18076:18094   */\n      tag_467\n      tag_203\n      jump\t// in\n    tag_467:\n        /* \"#utility.yul\":18040:18096   */\n    tag_466:\n        /* \"#utility.yul\":18120:18158   */\n      tag_468\n        /* \"#utility.yul\":18152:18156   */\n      dup3\n        /* \"#utility.yul\":18146:18157   */\n      sload\n        /* \"#utility.yul\":18120:18158   */\n      tag_95\n      jump\t// in\n    tag_468:\n        /* \"#utility.yul\":18205:18272   */\n      tag_469\n        /* \"#utility.yul\":18265:18271   */\n      dup3\n        /* \"#utility.yul\":18257:18263   */\n      dup3\n        /* \"#utility.yul\":18251:18255   */\n      dup6\n        /* \"#utility.yul\":18205:18272   */\n      tag_267\n      jump\t// in\n    tag_469:\n        /* \"#utility.yul\":18299:18300   */\n      0x00\n        /* \"#utility.yul\":18323:18327   */\n      0x20\n        /* \"#utility.yul\":18310:18327   */\n      swap1\n      pop\n        /* \"#utility.yul\":18355:18357   */\n      0x1f\n        /* \"#utility.yul\":18347:18353   */\n      dup4\n        /* \"#utility.yul\":18344:18358   */\n      gt\n        /* \"#utility.yul\":18372:18373   */\n      0x01\n        /* \"#utility.yul\":18367:18985   */\n      dup2\n      eq\n      tag_471\n      jumpi\n        /* \"#utility.yul\":19029:19030   */\n      0x00\n        /* \"#utility.yul\":19046:19052   */\n      dup5\n        /* \"#utility.yul\":19043:19120   */\n      iszero\n      tag_472\n      jumpi\n        /* \"#utility.yul\":19095:19104   */\n      dup3\n        /* \"#utility.yul\":19090:19093   */\n      dup8\n        /* \"#utility.yul\":19086:19105   */\n      add\n        /* \"#utility.yul\":19080:19106   */\n      mload\n        /* \"#utility.yul\":19071:19106   */\n      swap1\n      pop\n        /* \"#utility.yul\":19043:19120   */\n    tag_472:\n        /* \"#utility.yul\":19146:19213   */\n      tag_473\n        /* \"#utility.yul\":19206:19212   */\n      dup6\n        /* \"#utility.yul\":19199:19204   */\n      dup3\n        /* \"#utility.yul\":19146:19213   */\n      tag_270\n      jump\t// in\n    tag_473:\n        /* \"#utility.yul\":19140:19144   */\n      dup7\n        /* \"#utility.yul\":19133:19214   */\n      sstore\n        /* \"#utility.yul\":19002:19224   */\n      pop\n        /* \"#utility.yul\":18337:19224   */\n      jump(tag_470)\n        /* \"#utility.yul\":18367:18985   */\n    tag_471:\n        /* \"#utility.yul\":18419:18423   */\n      0x1f\n        /* \"#utility.yul\":18415:18424   */\n      not\n        /* \"#utility.yul\":18407:18413   */\n      dup5\n        /* \"#utility.yul\":18403:18425   */\n      and\n        /* \"#utility.yul\":18453:18490   */\n      tag_474\n        /* \"#utility.yul\":18485:18489   */\n      dup7\n        /* \"#utility.yul\":18453:18490   */\n      tag_256\n      jump\t// in\n    tag_474:\n        /* \"#utility.yul\":18512:18513   */\n      0x00\n        /* \"#utility.yul\":18526:18734   */\n    tag_475:\n        /* \"#utility.yul\":18540:18547   */\n      dup3\n        /* \"#utility.yul\":18537:18538   */\n      dup2\n        /* \"#utility.yul\":18534:18548   */\n      lt\n        /* \"#utility.yul\":18526:18734   */\n      iszero\n      tag_477\n      jumpi\n        /* \"#utility.yul\":18619:18628   */\n      dup5\n        /* \"#utility.yul\":18614:18617   */\n      dup10\n        /* \"#utility.yul\":18610:18629   */\n      add\n        /* \"#utility.yul\":18604:18630   */\n      mload\n        /* \"#utility.yul\":18596:18602   */\n      dup3\n        /* \"#utility.yul\":18589:18631   */\n      sstore\n        /* \"#utility.yul\":18670:18671   */\n      0x01\n        /* \"#utility.yul\":18662:18668   */\n      dup3\n        /* \"#utility.yul\":18658:18672   */\n      add\n        /* \"#utility.yul\":18648:18672   */\n      swap2\n      pop\n        /* \"#utility.yul\":18717:18719   */\n      0x20\n        /* \"#utility.yul\":18706:18715   */\n      dup6\n        /* \"#utility.yul\":18702:18720   */\n      add\n        /* \"#utility.yul\":18689:18720   */\n      swap5\n      pop\n        /* \"#utility.yul\":18563:18567   */\n      0x20\n        /* \"#utility.yul\":18560:18561   */\n      dup2\n        /* \"#utility.yul\":18556:18568   */\n      add\n        /* \"#utility.yul\":18551:18568   */\n      swap1\n      pop\n        /* \"#utility.yul\":18526:18734   */\n      jump(tag_475)\n    tag_477:\n        /* \"#utility.yul\":18762:18768   */\n      dup7\n        /* \"#utility.yul\":18753:18760   */\n      dup4\n        /* \"#utility.yul\":18750:18769   */\n      lt\n        /* \"#utility.yul\":18747:18926   */\n      iszero\n      tag_478\n      jumpi\n        /* \"#utility.yul\":18820:18829   */\n      dup5\n        /* \"#utility.yul\":18815:18818   */\n      dup10\n        /* \"#utility.yul\":18811:18830   */\n      add\n        /* \"#utility.yul\":18805:18831   */\n      mload\n        /* \"#utility.yul\":18863:18911   */\n      tag_479\n        /* \"#utility.yul\":18905:18909   */\n      0x1f\n        /* \"#utility.yul\":18897:18903   */\n      dup10\n        /* \"#utility.yul\":18893:18910   */\n      and\n        /* \"#utility.yul\":18882:18891   */\n      dup3\n        /* \"#utility.yul\":18863:18911   */\n      tag_269\n      jump\t// in\n    tag_479:\n        /* \"#utility.yul\":18855:18861   */\n      dup4\n        /* \"#utility.yul\":18848:18912   */\n      sstore\n        /* \"#utility.yul\":18770:18926   */\n      pop\n        /* \"#utility.yul\":18747:18926   */\n    tag_478:\n        /* \"#utility.yul\":18972:18973   */\n      0x01\n        /* \"#utility.yul\":18968:18969   */\n      0x02\n        /* \"#utility.yul\":18960:18966   */\n      dup9\n        /* \"#utility.yul\":18956:18970   */\n      mul\n        /* \"#utility.yul\":18952:18974   */\n      add\n        /* \"#utility.yul\":18946:18950   */\n      dup9\n        /* \"#utility.yul\":18939:18975   */\n      sstore\n        /* \"#utility.yul\":18374:18985   */\n      pop\n      pop\n      pop\n        /* \"#utility.yul\":18337:19224   */\n    tag_470:\n      pop\n        /* \"#utility.yul\":17927:19230   */\n      pop\n      pop\n      pop\n        /* \"#utility.yul\":17835:19230   */\n      pop\n      pop\n      jump\t// out\n        /* \"#utility.yul\":19236:19405   */\n    tag_271:\n        /* \"#utility.yul\":19376:19397   */\n      0x546f6b656e20646f65736e277420657869737400000000000000000000000000\n        /* \"#utility.yul\":19372:19373   */\n      0x00\n        /* \"#utility.yul\":19364:19370   */\n      dup3\n        /* \"#utility.yul\":19360:19374   */\n      add\n        /* \"#utility.yul\":19353:19398   */\n      mstore\n        /* \"#utility.yul\":19236:19405   */\n      pop\n      jump\t// out\n        /* \"#utility.yul\":19411:19777   */\n    tag_272:\n        /* \"#utility.yul\":19553:19556   */\n      0x00\n        /* \"#utility.yul\":19574:19641   */\n      tag_482\n        /* \"#utility.yul\":19638:19640   */\n      0x13\n        /* \"#utility.yul\":19633:19636   */\n      dup4\n        /* \"#utility.yul\":19574:19641   */\n      tag_216\n      jump\t// in\n    tag_482:\n        /* \"#utility.yul\":19567:19641   */\n      swap2\n      pop\n        /* \"#utility.yul\":19650:19743   */\n      tag_483\n        /* \"#utility.yul\":19739:19742   */\n      dup3\n        /* \"#utility.yul\":19650:19743   */\n      tag_271\n      jump\t// in\n    tag_483:\n        /* \"#utility.yul\":19768:19770   */\n      0x20\n        /* \"#utility.yul\":19763:19766   */\n      dup3\n        /* \"#utility.yul\":19759:19771   */\n      add\n        /* \"#utility.yul\":19752:19771   */\n      swap1\n      pop\n        /* \"#utility.yul\":19411:19777   */\n      swap2\n      swap1\n      pop\n      jump\t// out\n        /* \"#utility.yul\":19783:20202   */\n    tag_144:\n        /* \"#utility.yul\":19949:19953   */\n      0x00\n        /* \"#utility.yul\":19987:19989   */\n      0x20\n        /* \"#utility.yul\":19976:19985   */\n      dup3\n        /* \"#utility.yul\":19972:19990   */\n      add\n        /* \"#utility.yul\":19964:19990   */\n      swap1\n      pop\n        /* \"#utility.yul\":20036:20045   */\n      dup2\n        /* \"#utility.yul\":20030:20034   */\n      dup2\n        /* \"#utility.yul\":20026:20046   */\n      sub\n        /* \"#utility.yul\":20022:20023   */\n      0x00\n        /* \"#utility.yul\":20011:20020   */\n      dup4\n        /* \"#utility.yul\":20007:20024   */\n      add\n        /* \"#utility.yul\":20000:20047   */\n      mstore\n        /* \"#utility.yul\":20064:20195   */\n      tag_485\n        /* \"#utility.yul\":20190:20194   */\n      dup2\n        /* \"#utility.yul\":20064:20195   */\n      tag_272\n      jump\t// in\n    tag_485:\n        /* \"#utility.yul\":20056:20195   */\n      swap1\n      pop\n        /* \"#utility.yul\":19783:20202   */\n      swap2\n      swap1\n      pop\n      jump\t// out\n        /* \"#utility.yul\":20208:20373   */\n    tag_273:\n        /* \"#utility.yul\":20348:20365   */\n      0x4e6f742077686974656c69737465640000000000000000000000000000000000\n        /* \"#utility.yul\":20344:20345   */\n      0x00\n        /* \"#utility.yul\":20336:20342   */\n      dup3\n        /* \"#utility.yul\":20332:20346   */\n      add\n        /* \"#utility.yul\":20325:20366   */\n      mstore\n        /* \"#utility.yul\":20208:20373   */\n      pop\n      jump\t// out\n        /* \"#utility.yul\":20379:20745   */\n    tag_274:\n        /* \"#utility.yul\":20521:20524   */\n      0x00\n        /* \"#utility.yul\":20542:20609   */\n      tag_488\n        /* \"#utility.yul\":20606:20608   */\n      0x0f\n        /* \"#utility.yul\":20601:20604   */\n      dup4\n        /* \"#utility.yul\":20542:20609   */\n      tag_216\n      jump\t// in\n    tag_488:\n        /* \"#utility.yul\":20535:20609   */\n      swap2\n      pop\n        /* \"#utility.yul\":20618:20711   */\n      tag_489\n        /* \"#utility.yul\":20707:20710   */\n      dup3\n        /* \"#utility.yul\":20618:20711   */\n      tag_273\n      jump\t// in\n    tag_489:\n        /* \"#utility.yul\":20736:20738   */\n      0x20\n        /* \"#utility.yul\":20731:20734   */\n      dup3\n        /* \"#utility.yul\":20727:20739   */\n      add\n        /* \"#utility.yul\":20720:20739   */\n      swap1\n      pop\n        /* \"#utility.yul\":20379:20745   */\n      swap2\n      swap1\n      pop\n      jump\t// out\n        /* \"#utility.yul\":20751:21170   */\n    tag_148:\n        /* \"#utility.yul\":20917:20921   */\n      0x00\n        /* \"#utility.yul\":20955:20957   */\n      0x20\n        /* \"#utility.yul\":20944:20953   */\n      dup3\n        /* \"#utility.yul\":20940:20958   */\n      add\n        /* \"#utility.yul\":20932:20958   */\n      swap1\n      pop\n        /* \"#utility.yul\":21004:21013   */\n      dup2\n        /* \"#utility.yul\":20998:21002   */\n      dup2\n        /* \"#utility.yul\":20994:21014   */\n      sub\n        /* \"#utility.yul\":20990:20991   */\n      0x00\n        /* \"#utility.yul\":20979:20988   */\n      dup4\n        /* \"#utility.yul\":20975:20992   */\n      add\n        /* \"#utility.yul\":20968:21015   */\n      mstore\n        /* \"#utility.yul\":21032:21163   */\n      tag_491\n        /* \"#utility.yul\":21158:21162   */\n      dup2\n        /* \"#utility.yul\":21032:21163   */\n      tag_274\n      jump\t// in\n    tag_491:\n        /* \"#utility.yul\":21024:21163   */\n      swap1\n      pop\n        /* \"#utility.yul\":20751:21170   */\n      swap2\n      swap1\n      pop\n      jump\t// out\n        /* \"#utility.yul\":21176:21350   */\n    tag_275:\n        /* \"#utility.yul\":21316:21342   */\n      0x5a65726f2061646472657373206e6f7420616c6c6f7765640000000000000000\n        /* \"#utility.yul\":21312:21313   */\n      0x00\n        /* \"#utility.yul\":21304:21310   */\n      dup3\n        /* \"#utility.yul\":21300:21314   */\n      add\n        /* \"#utility.yul\":21293:21343   */\n      mstore\n        /* \"#utility.yul\":21176:21350   */\n      pop\n      jump\t// out\n        /* \"#utility.yul\":21356:21722   */\n    tag_276:\n        /* \"#utility.yul\":21498:21501   */\n      0x00\n        /* \"#utility.yul\":21519:21586   */\n      tag_494\n        /* \"#utility.yul\":21583:21585   */\n      0x18\n        /* \"#utility.yul\":21578:21581   */\n      dup4\n        /* \"#utility.yul\":21519:21586   */\n      tag_216\n      jump\t// in\n    tag_494:\n        /* \"#utility.yul\":21512:21586   */\n      swap2\n      pop\n        /* \"#utility.yul\":21595:21688   */\n      tag_495\n        /* \"#utility.yul\":21684:21687   */\n      dup3\n        /* \"#utility.yul\":21595:21688   */\n      tag_275\n      jump\t// in\n    tag_495:\n        /* \"#utility.yul\":21713:21715   */\n      0x20\n        /* \"#utility.yul\":21708:21711   */\n      dup3\n        /* \"#utility.yul\":21704:21716   */\n      add\n        /* \"#utility.yul\":21697:21716   */\n      swap1\n      pop\n        /* \"#utility.yul\":21356:21722   */\n      swap2\n      swap1\n      pop\n      jump\t// out\n        /* \"#utility.yul\":21728:22147   */\n    tag_157:\n        /* \"#utility.yul\":21894:21898   */\n      0x00\n        /* \"#utility.yul\":21932:21934   */\n      0x20\n        /* \"#utility.yul\":21921:21930   */\n      dup3\n        /* \"#utility.yul\":21917:21935   */\n      add\n        /* \"#utility.yul\":21909:21935   */\n      swap1\n      pop\n        /* \"#utility.yul\":21981:21990   */\n      dup2\n        /* \"#utility.yul\":21975:21979   */\n      dup2\n        /* \"#utility.yul\":21971:21991   */\n      sub\n        /* \"#utility.yul\":21967:21968   */\n      0x00\n        /* \"#utility.yul\":21956:21965   */\n      dup4\n        /* \"#utility.yul\":21952:21969   */\n      add\n        /* \"#utility.yul\":21945:21992   */\n      mstore\n        /* \"#utility.yul\":22009:22140   */\n      tag_497\n        /* \"#utility.yul\":22135:22139   */\n      dup2\n        /* \"#utility.yul\":22009:22140   */\n      tag_276\n      jump\t// in\n    tag_497:\n        /* \"#utility.yul\":22001:22140   */\n      swap1\n      pop\n        /* \"#utility.yul\":21728:22147   */\n      swap2\n      swap1\n      pop\n      jump\t// out\n        /* \"#utility.yul\":22153:22301   */\n    tag_277:\n        /* \"#utility.yul\":22255:22266   */\n      0x00\n        /* \"#utility.yul\":22292:22295   */\n      dup2\n        /* \"#utility.yul\":22277:22295   */\n      swap1\n      pop\n        /* \"#utility.yul\":22153:22301   */\n      swap3\n      swap2\n      pop\n      pop\n      jump\t// out\n        /* \"#utility.yul\":22331:23205   */\n    tag_278:\n        /* \"#utility.yul\":22434:22437   */\n      0x00\n        /* \"#utility.yul\":22471:22476   */\n      dup2\n        /* \"#utility.yul\":22465:22477   */\n      sload\n        /* \"#utility.yul\":22500:22536   */\n      tag_500\n        /* \"#utility.yul\":22526:22535   */\n      dup2\n        /* \"#utility.yul\":22500:22536   */\n      tag_95\n      jump\t// in\n    tag_500:\n        /* \"#utility.yul\":22552:22641   */\n      tag_501\n        /* \"#utility.yul\":22634:22640   */\n      dup2\n        /* \"#utility.yul\":22629:22632   */\n      dup7\n        /* \"#utility.yul\":22552:22641   */\n      tag_277\n      jump\t// in\n    tag_501:\n        /* \"#utility.yul\":22545:22641   */\n      swap5\n      pop\n        /* \"#utility.yul\":22672:22673   */\n      0x01\n        /* \"#utility.yul\":22661:22670   */\n      dup3\n        /* \"#utility.yul\":22657:22674   */\n      and\n        /* \"#utility.yul\":22688:22689   */\n      0x00\n        /* \"#utility.yul\":22683:22849   */\n      dup2\n      eq\n      tag_503\n      jumpi\n        /* \"#utility.yul\":22863:22864   */\n      0x01\n        /* \"#utility.yul\":22858:23199   */\n      dup2\n      eq\n      tag_504\n      jumpi\n        /* \"#utility.yul\":22650:23199   */\n      jump(tag_502)\n        /* \"#utility.yul\":22683:22849   */\n    tag_503:\n        /* \"#utility.yul\":22767:22771   */\n      0xff\n        /* \"#utility.yul\":22763:22772   */\n      not\n        /* \"#utility.yul\":22752:22761   */\n      dup4\n        /* \"#utility.yul\":22748:22773   */\n      and\n        /* \"#utility.yul\":22743:22746   */\n      dup7\n        /* \"#utility.yul\":22736:22774   */\n      mstore\n        /* \"#utility.yul\":22829:22835   */\n      dup2\n        /* \"#utility.yul\":22822:22836   */\n      iszero\n        /* \"#utility.yul\":22815:22837   */\n      iszero\n        /* \"#utility.yul\":22807:22813   */\n      dup3\n        /* \"#utility.yul\":22803:22838   */\n      mul\n        /* \"#utility.yul\":22798:22801   */\n      dup7\n        /* \"#utility.yul\":22794:22839   */\n      add\n        /* \"#utility.yul\":22787:22839   */\n      swap4\n      pop\n        /* \"#utility.yul\":22683:22849   */\n      jump(tag_502)\n        /* \"#utility.yul\":22858:23199   */\n    tag_504:\n        /* \"#utility.yul\":22925:22963   */\n      tag_505\n        /* \"#utility.yul\":22957:22962   */\n      dup6\n        /* \"#utility.yul\":22925:22963   */\n      tag_256\n      jump\t// in\n    tag_505:\n        /* \"#utility.yul\":22985:22986   */\n      0x00\n        /* \"#utility.yul\":22999:23153   */\n    tag_506:\n        /* \"#utility.yul\":23013:23019   */\n      dup4\n        /* \"#utility.yul\":23010:23011   */\n      dup2\n        /* \"#utility.yul\":23007:23020   */\n      lt\n        /* \"#utility.yul\":22999:23153   */\n      iszero\n      tag_508\n      jumpi\n        /* \"#utility.yul\":23087:23094   */\n      dup2\n        /* \"#utility.yul\":23081:23095   */\n      sload\n        /* \"#utility.yul\":23077:23078   */\n      dup2\n        /* \"#utility.yul\":23072:23075   */\n      dup10\n        /* \"#utility.yul\":23068:23079   */\n      add\n        /* \"#utility.yul\":23061:23096   */\n      mstore\n        /* \"#utility.yul\":23137:23138   */\n      0x01\n        /* \"#utility.yul\":23128:23135   */\n      dup3\n        /* \"#utility.yul\":23124:23139   */\n      add\n        /* \"#utility.yul\":23113:23139   */\n      swap2\n      pop\n        /* \"#utility.yul\":23035:23039   */\n      0x20\n        /* \"#utility.yul\":23032:23033   */\n      dup2\n        /* \"#utility.yul\":23028:23040   */\n      add\n        /* \"#utility.yul\":23023:23040   */\n      swap1\n      pop\n        /* \"#utility.yul\":22999:23153   */\n      jump(tag_506)\n    tag_508:\n        /* \"#utility.yul\":23182:23188   */\n      dup4\n        /* \"#utility.yul\":23177:23180   */\n      dup9\n        /* \"#utility.yul\":23173:23189   */\n      add\n        /* \"#utility.yul\":23166:23189   */\n      swap6\n      pop\n        /* \"#utility.yul\":22865:23199   */\n      pop\n      pop\n        /* \"#utility.yul\":22650:23199   */\n    tag_502:\n      pop\n        /* \"#utility.yul\":22438:23205   */\n      pop\n      pop\n        /* \"#utility.yul\":22331:23205   */\n      swap3\n      swap2\n      pop\n      pop\n      jump\t// out\n        /* \"#utility.yul\":23211:23601   */\n    tag_279:\n        /* \"#utility.yul\":23317:23320   */\n      0x00\n        /* \"#utility.yul\":23345:23384   */\n      tag_510\n        /* \"#utility.yul\":23378:23383   */\n      dup3\n        /* \"#utility.yul\":23345:23384   */\n      tag_215\n      jump\t// in\n    tag_510:\n        /* \"#utility.yul\":23400:23489   */\n      tag_511\n        /* \"#utility.yul\":23482:23488   */\n      dup2\n        /* \"#utility.yul\":23477:23480   */\n      dup6\n        /* \"#utility.yul\":23400:23489   */\n      tag_277\n      jump\t// in\n    tag_511:\n        /* \"#utility.yul\":23393:23489   */\n      swap4\n      pop\n        /* \"#utility.yul\":23498:23563   */\n      tag_512\n        /* \"#utility.yul\":23556:23562   */\n      dup2\n        /* \"#utility.yul\":23551:23554   */\n      dup6\n        /* \"#utility.yul\":23544:23548   */\n      0x20\n        /* \"#utility.yul\":23537:23542   */\n      dup7\n        /* \"#utility.yul\":23533:23549   */\n      add\n        /* \"#utility.yul\":23498:23563   */\n      tag_217\n      jump\t// in\n    tag_512:\n        /* \"#utility.yul\":23588:23594   */\n      dup1\n        /* \"#utility.yul\":23583:23586   */\n      dup5\n        /* \"#utility.yul\":23579:23595   */\n      add\n        /* \"#utility.yul\":23572:23595   */\n      swap2\n      pop\n        /* \"#utility.yul\":23321:23601   */\n      pop\n        /* \"#utility.yul\":23211:23601   */\n      swap3\n      swap2\n      pop\n      pop\n      jump\t// out\n        /* \"#utility.yul\":23607:23762   */\n    tag_280:\n        /* \"#utility.yul\":23747:23754   */\n      0x2e6a736f6e000000000000000000000000000000000000000000000000000000\n        /* \"#utility.yul\":23743:23744   */\n      0x00\n        /* \"#utility.yul\":23735:23741   */\n      dup3\n        /* \"#utility.yul\":23731:23745   */\n      add\n        /* \"#utility.yul\":23724:23755   */\n      mstore\n        /* \"#utility.yul\":23607:23762   */\n      pop\n      jump\t// out\n        /* \"#utility.yul\":23768:24168   */\n    tag_281:\n        /* \"#utility.yul\":23928:23931   */\n      0x00\n        /* \"#utility.yul\":23949:24033   */\n      tag_515\n        /* \"#utility.yul\":24031:24032   */\n      0x05\n        /* \"#utility.yul\":24026:24029   */\n      dup4\n        /* \"#utility.yul\":23949:24033   */\n      tag_277\n      jump\t// in\n    tag_515:\n        /* \"#utility.yul\":23942:24033   */\n      swap2\n      pop\n        /* \"#utility.yul\":24042:24135   */\n      tag_516\n        /* \"#utility.yul\":24131:24134   */\n      dup3\n        /* \"#utility.yul\":24042:24135   */\n      tag_280\n      jump\t// in\n    tag_516:\n        /* \"#utility.yul\":24160:24161   */\n      0x05\n        /* \"#utility.yul\":24155:24158   */\n      dup3\n        /* \"#utility.yul\":24151:24162   */\n      add\n        /* \"#utility.yul\":24144:24162   */\n      swap1\n      pop\n        /* \"#utility.yul\":23768:24168   */\n      swap2\n      swap1\n      pop\n      jump\t// out\n        /* \"#utility.yul\":24174:24869   */\n    tag_183:\n        /* \"#utility.yul\":24452:24455   */\n      0x00\n        /* \"#utility.yul\":24474:24566   */\n      tag_518\n        /* \"#utility.yul\":24562:24565   */\n      dup3\n        /* \"#utility.yul\":24553:24559   */\n      dup6\n        /* \"#utility.yul\":24474:24566   */\n      tag_278\n      jump\t// in\n    tag_518:\n        /* \"#utility.yul\":24467:24566   */\n      swap2\n      pop\n        /* \"#utility.yul\":24583:24678   */\n      tag_519\n        /* \"#utility.yul\":24674:24677   */\n      dup3\n        /* \"#utility.yul\":24665:24671   */\n      dup5\n        /* \"#utility.yul\":24583:24678   */\n      tag_279\n      jump\t// in\n    tag_519:\n        /* \"#utility.yul\":24576:24678   */\n      swap2\n      pop\n        /* \"#utility.yul\":24695:24843   */\n      tag_520\n        /* \"#utility.yul\":24839:24842   */\n      dup3\n        /* \"#utility.yul\":24695:24843   */\n      tag_281\n      jump\t// in\n    tag_520:\n        /* \"#utility.yul\":24688:24843   */\n      swap2\n      pop\n        /* \"#utility.yul\":24860:24863   */\n      dup2\n        /* \"#utility.yul\":24853:24863   */\n      swap1\n      pop\n        /* \"#utility.yul\":24174:24869   */\n      swap4\n      swap3\n      pop\n      pop\n      pop\n      jump\t// out\n        /* \"#utility.yul\":24875:25108   */\n    tag_198:\n        /* \"#utility.yul\":24914:24917   */\n      0x00\n        /* \"#utility.yul\":24937:24961   */\n      tag_522\n        /* \"#utility.yul\":24955:24960   */\n      dup3\n        /* \"#utility.yul\":24937:24961   */\n      tag_223\n      jump\t// in\n    tag_522:\n        /* \"#utility.yul\":24928:24961   */\n      swap2\n      pop\n        /* \"#utility.yul\":24983:25049   */\n      0xffffffffffffffffffffffffffffffffffffffffffffffffffffffffffffffff\n        /* \"#utility.yul\":24976:24981   */\n      dup3\n        /* \"#utility.yul\":24973:25050   */\n      sub\n        /* \"#utility.yul\":24970:25073   */\n      tag_523\n      jumpi\n        /* \"#utility.yul\":25053:25071   */\n      tag_524\n      tag_251\n      jump\t// in\n    tag_524:\n        /* \"#utility.yul\":24970:25073   */\n    tag_523:\n        /* \"#utility.yul\":25100:25101   */\n      0x01\n        /* \"#utility.yul\":25093:25098   */\n      dup3\n        /* \"#utility.yul\":25089:25102   */\n      add\n        /* \"#utility.yul\":25082:25102   */\n      swap1\n      pop\n        /* \"#utility.yul\":24875:25108   */\n      swap2\n      swap1\n      pop\n      jump\t// out\n        /* \"#utility.yul\":25114:25294   */\n    tag_282:\n        /* \"#utility.yul\":25162:25239   */\n      0x4e487b7100000000000000000000000000000000000000000000000000000000\n        /* \"#utility.yul\":25159:25160   */\n      0x00\n        /* \"#utility.yul\":25152:25240   */\n      mstore\n        /* \"#utility.yul\":25259:25263   */\n      0x12\n        /* \"#utility.yul\":25256:25257   */\n      0x04\n        /* \"#utility.yul\":25249:25264   */\n      mstore\n        /* \"#utility.yul\":25283:25287   */\n      0x24\n        /* \"#utility.yul\":25280:25281   */\n      0x00\n        /* \"#utility.yul\":25273:25288   */\n      revert\n        /* \"#utility.yul\":25300:25485   */\n    tag_200:\n        /* \"#utility.yul\":25340:25341   */\n      0x00\n        /* \"#utility.yul\":25357:25377   */\n      tag_527\n        /* \"#utility.yul\":25375:25376   */\n      dup3\n        /* \"#utility.yul\":25357:25377   */\n      tag_223\n      jump\t// in\n    tag_527:\n        /* \"#utility.yul\":25352:25377   */\n      swap2\n      pop\n        /* \"#utility.yul\":25391:25411   */\n      tag_528\n        /* \"#utility.yul\":25409:25410   */\n      dup4\n        /* \"#utility.yul\":25391:25411   */\n      tag_223\n      jump\t// in\n    tag_528:\n        /* \"#utility.yul\":25386:25411   */\n      swap3\n      pop\n        /* \"#utility.yul\":25430:25431   */\n      dup3\n        /* \"#utility.yul\":25420:25455   */\n      tag_529\n      jumpi\n        /* \"#utility.yul\":25435:25453   */\n      tag_530\n      tag_282\n      jump\t// in\n    tag_530:\n        /* \"#utility.yul\":25420:25455   */\n    tag_529:\n        /* \"#utility.yul\":25477:25478   */\n      dup3\n        /* \"#utility.yul\":25474:25475   */\n      dup3\n        /* \"#utility.yul\":25470:25479   */\n      div\n        /* \"#utility.yul\":25465:25479   */\n      swap1\n      pop\n        /* \"#utility.yul\":25300:25485   */\n      swap3\n      swap2\n      pop\n      pop\n      jump\t// out\n        /* \"#utility.yul\":25491:25667   */\n    tag_209:\n        /* \"#utility.yul\":25523:25524   */\n      0x00\n        /* \"#utility.yul\":25540:25560   */\n      tag_532\n        /* \"#utility.yul\":25558:25559   */\n      dup3\n        /* \"#utility.yul\":25540:25560   */\n      tag_223\n      jump\t// in\n    tag_532:\n        /* \"#utility.yul\":25535:25560   */\n      swap2\n      pop\n        /* \"#utility.yul\":25574:25594   */\n      tag_533\n        /* \"#utility.yul\":25592:25593   */\n      dup4\n        /* \"#utility.yul\":25574:25594   */\n      tag_223\n      jump\t// in\n    tag_533:\n        /* \"#utility.yul\":25569:25594   */\n      swap3\n      pop\n        /* \"#utility.yul\":25613:25614   */\n      dup3\n        /* \"#utility.yul\":25603:25638   */\n      tag_534\n      jumpi\n        /* \"#utility.yul\":25618:25636   */\n      tag_535\n      tag_282\n      jump\t// in\n    tag_535:\n        /* \"#utility.yul\":25603:25638   */\n    tag_534:\n        /* \"#utility.yul\":25659:25660   */\n      dup3\n        /* \"#utility.yul\":25656:25657   */\n      dup3\n        /* \"#utility.yul\":25652:25661   */\n      mod\n        /* \"#utility.yul\":25647:25661   */\n      swap1\n      pop\n        /* \"#utility.yul\":25491:25667   */\n      swap3\n      swap2\n      pop\n      pop\n      jump\t// out\n        /* \"#utility.yul\":25673:25853   */\n    tag_213:\n        /* \"#utility.yul\":25721:25798   */\n      0x4e487b7100000000000000000000000000000000000000000000000000000000\n        /* \"#utility.yul\":25718:25719   */\n      0x00\n        /* \"#utility.yul\":25711:25799   */\n      mstore\n        /* \"#utility.yul\":25818:25822   */\n      0x32\n        /* \"#utility.yul\":25815:25816   */\n      0x04\n        /* \"#utility.yul\":25808:25823   */\n      mstore\n        /* \"#utility.yul\":25842:25846   */\n      0x24\n        /* \"#utility.yul\":25839:25840   */\n      0x00\n        /* \"#utility.yul\":25832:25847   */\n      revert\n\n    auxdata: 0xa2646970667358221220f6f30f848f33c80f973c38e1886eaad9cab9a2f82e0a9cec395285a5226efbf864736f6c634300081e0033\n}\n",
				"bytecode": {
					"linkReferences": {},
					"object": "608060405234801561000f575f5ffd5b50604051612a56380380612a568339818101604052810190610031919061021f565b835f908161003f9190610503565b50826001908161004f9190610503565b50816004908161005f9190610503565b50806005908161006f9190610503565b503360025f6101000a81548173ffffffffffffffffffffffffffffffffffffffff021916908373ffffffffffffffffffffffffffffffffffffffff1602179055505f60065f6101000a81548160ff021916908315150217905550505050506105d2565b5f604051905090565b5f5ffd5b5f5ffd5b5f5ffd5b5f5ffd5b5f601f19601f8301169050919050565b7f4e487b71000000000000000000000000000000000000000000000000000000005f52604160045260245ffd5b610131826100eb565b810181811067ffffffffffffffff821117156101505761014f6100fb565b5b80604052505050565b5f6101626100d2565b905061016e8282610128565b919050565b5f67ffffffffffffffff82111561018d5761018c6100fb565b5b610196826100eb565b9050602081019050919050565b8281835e5f83830152505050565b5f6101c36101be84610173565b610159565b9050828152602081018484840111156101df576101de6100e7565b5b6101ea8482856101a3565b509392505050565b5f82601f830112610206576102056100e3565b5b81516102168482602086016101b1565b91505092915050565b5f5f5f5f60808587031215610237576102366100db565b5b5f85015167ffffffffffffffff811115610254576102536100df565b5b610260878288016101f2565b945050602085015167ffffffffffffffff811115610281576102806100df565b5b61028d878288016101f2565b935050604085015167ffffffffffffffff8111156102ae576102ad6100df565b5b6102ba878288016101f2565b925050606085015167ffffffffffffffff8111156102db576102da6100df565b5b6102e7878288016101f2565b91505092959194509250565b5f81519050919050565b7f4e487b71000000000000000000000000000000000000000000000000000000005f52602260045260245ffd5b5f600282049050600182168061034157607f821691505b602082108103610354576103536102fd565b5b50919050565b5f819050815f5260205f209050919050565b5f6020601f8301049050919050565b5f82821b905092915050565b5f600883026103b67fffffffffffffffffffffffffffffffffffffffffffffffffffffffffffffffff8261037b565b6103c0868361037b565b95508019841693508086168417925050509392505050565b5f819050919050565b5f819050919050565b5f6104046103ff6103fa846103d8565b6103e1565b6103d8565b9050919050565b5f819050919050565b61041d836103ea565b6104316104298261040b565b848454610387565b825550505050565b5f5f905090565b610448610439565b610453818484610414565b505050565b5b818110156104765761046b5f82610440565b600181019050610459565b5050565b601f8211156104bb5761048c8161035a565b6104958461036c565b810160208510156104a4578190505b6104b86104b08561036c565b830182610458565b50505b505050565b5f82821c905092915050565b5f6104db5f19846008026104c0565b1980831691505092915050565b5f6104f383836104cc565b9150826002028217905092915050565b61050c826102f3565b67ffffffffffffffff811115610525576105246100fb565b5b61052f825461032a565b61053a82828561047a565b5f60209050601f83116001811461056b575f8415610559578287015190505b61056385826104e8565b8655506105ca565b601f1984166105798661035a565b5f5b828110156105a05784890151825560018201915060208501945060208101905061057b565b868310156105bd57848901516105b9601f8916826104cc565b8355505b6001600288020188555050505b505050505050565b612477806105df5f395ff3fe608060405234801561000f575f5ffd5b506004361061011f575f3560e01c80636352211e116100ab57806395d89b411161006f57806395d89b41146102f1578063a475b5dd1461030f578063c87b56dd14610319578063e43252d714610349578063f2c4ce1e146103655761011f565b80636352211e1461024d5780636871ee401461027d57806370a08231146102875780638ab1d681146102b75780638da5cb5b146102d35761011f565b806321bae9e4116100f257806321bae9e4146101ab57806323b872dd146101c75780633af32abf146101e3578063518302271461021357806355f804b3146102315761011f565b806306fdde0314610123578063081812fc14610141578063095ea7b31461017157806318160ddd1461018d575b5f5ffd5b61012b610381565b604051610138919061176f565b60405180910390f35b61015b600480360381019061015691906117d3565b61040c565b604051610168919061183d565b60405180910390f35b61018b60048036038101906101869190611880565b610445565b005b6101956105dc565b6040516101a291906118cd565b60405180910390f35b6101c560048036038101906101c091906118e6565b6105e2565b005b6101e160048036038101906101dc9190611911565b6107fa565b005b6101fd60048036038101906101f891906118e6565b610b3c565b60405161020a919061197b565b60405180910390f35b61021b610b8e565b604051610228919061197b565b60405180910390f35b61024b60048036038101906102469190611ac0565b610ba0565b005b610267600480360381019061026291906117d3565b610c42565b604051610274919061183d565b60405180910390f35b610285610cee565b005b6102a1600480360381019061029c91906118e6565b610eff565b6040516102ae91906118cd565b60405180910390f35b6102d160048036038101906102cc91906118e6565b610fb3565b005b6102db6110dc565b6040516102e8919061183d565b60405180910390f35b6102f9611101565b604051610306919061176f565b60405180910390f35b61031761118d565b005b610333600480360381019061032e91906117d3565b611264565b604051610340919061176f565b60405180910390f35b610363600480360381019061035e91906118e6565b6113da565b005b61037f600480360381019061037a9190611ac0565b611504565b005b5f805461038d90611b34565b80601f01602080910402602001604051908101604052809291908181526020018280546103b990611b34565b80156104045780601f106103db57610100808354040283529160200191610404565b820191905f5260205f20905b8154815290600101906020018083116103e757829003601f168201915b505050505081565b5f60095f8381526020019081526020015f205f9054906101000a900473ffffffffffffffffffffffffffffffffffffffff169050919050565b5f61044f82610c42565b90508073ffffffffffffffffffffffffffffffffffffffff163373ffffffffffffffffffffffffffffffffffffffff16146104bf576040517f08c379a00000000000000000000000000000000000000000000000000000000081526004016104b690611bae565b60405180910390fd5b8073ffffffffffffffffffffffffffffffffffffffff168373ffffffffffffffffffffffffffffffffffffffff160361052d576040517f08c379a000000000000000000000000000000000000000000000000000000000815260040161052490611c16565b60405180910390fd5b8260095f8481526020019081526020015f205f6101000a81548173ffffffffffffffffffffffffffffffffffffffff021916908373ffffffffffffffffffffffffffffffffffffffff160217905550818373ffffffffffffffffffffffffffffffffffffffff168273ffffffffffffffffffffffffffffffffffffffff167f8c5be1e5ebec7d5bd14f71427d1e84f3dd0314c0f7b2291e5b200ac8c7c3b92560405160405180910390a4505050565b60035481565b60025f9054906101000a900473ffffffffffffffffffffffffffffffffffffffff1673ffffffffffffffffffffffffffffffffffffffff163373ffffffffffffffffffffffffffffffffffffffff1614610671576040517f08c379a000000000000000000000000000000000000000000000000000000000815260040161066890611c7e565b60405180910390fd5b5f73ffffffffffffffffffffffffffffffffffffffff168173ffffffffffffffffffffffffffffffffffffffff16036106df576040517f08c379a00000000000000000000000000000000000000000000000000000000081526004016106d690611ce6565b60405180910390fd5b5f60016003546106ef9190611d31565b90508160075f8381526020019081526020015f205f6101000a81548173ffffffffffffffffffffffffffffffffffffffff021916908373ffffffffffffffffffffffffffffffffffffffff160217905550600160085f8473ffffffffffffffffffffffffffffffffffffffff1673ffffffffffffffffffffffffffffffffffffffff1681526020019081526020015f205f82825461078d9190611d31565b9250508190555080600381905550808273ffffffffffffffffffffffffffffffffffffffff165f73ffffffffffffffffffffffffffffffffffffffff167fddf252ad1be2c89b69c2b068fc378daa952ba7f163c4a11628f55a4df523b3ef60405160405180910390a45050565b8273ffffffffffffffffffffffffffffffffffffffff1661081a82610c42565b73ffffffffffffffffffffffffffffffffffffffff1614610870576040517f08c379a000000000000000000000000000000000000000000000000000000000815260040161086790611bae565b60405180910390fd5b5f73ffffffffffffffffffffffffffffffffffffffff168273ffffffffffffffffffffffffffffffffffffffff16036108de576040517f08c379a00000000000000000000000000000000000000000000000000000000081526004016108d590611dae565b60405180910390fd5b8273ffffffffffffffffffffffffffffffffffffffff163373ffffffffffffffffffffffffffffffffffffffff161480610973575060095f8281526020019081526020015f205f9054906101000a900473ffffffffffffffffffffffffffffffffffffffff1673ffffffffffffffffffffffffffffffffffffffff163373ffffffffffffffffffffffffffffffffffffffff16145b6109b2576040517f08c379a00000000000000000000000000000000000000000000000000000000081526004016109a990611e16565b60405180910390fd5b600160085f8573ffffffffffffffffffffffffffffffffffffffff1673ffffffffffffffffffffffffffffffffffffffff1681526020019081526020015f205f8282546109ff9190611e34565b92505081905550600160085f8473ffffffffffffffffffffffffffffffffffffffff1673ffffffffffffffffffffffffffffffffffffffff1681526020019081526020015f205f828254610a539190611d31565b925050819055508160075f8381526020019081526020015f205f6101000a81548173ffffffffffffffffffffffffffffffffffffffff021916908373ffffffffffffffffffffffffffffffffffffffff16021790555060095f8281526020019081526020015f205f6101000a81549073ffffffffffffffffffffffffffffffffffffffff0219169055808273ffffffffffffffffffffffffffffffffffffffff168473ffffffffffffffffffffffffffffffffffffffff167fddf252ad1be2c89b69c2b068fc378daa952ba7f163c4a11628f55a4df523b3ef60405160405180910390a4505050565b5f600a5f8373ffffffffffffffffffffffffffffffffffffffff1673ffffffffffffffffffffffffffffffffffffffff1681526020019081526020015f205f9054906101000a900460ff169050919050565b60065f9054906101000a900460ff1681565b60025f9054906101000a900473ffffffffffffffffffffffffffffffffffffffff1673ffffffffffffffffffffffffffffffffffffffff163373ffffffffffffffffffffffffffffffffffffffff1614610c2f576040517f08c379a0000000000000000000000000000000000000000000000000000000008152600401610c2690611c7e565b60405180910390fd5b8060049081610c3e9190612007565b5050565b5f5f60075f8481526020019081526020015f205f9054906101000a900473ffffffffffffffffffffffffffffffffffffffff1690505f73ffffffffffffffffffffffffffffffffffffffff168173ffffffffffffffffffffffffffffffffffffffff1603610ce5576040517f08c379a0000000000000000000000000000000000000000000000000000000008152600401610cdc90612120565b60405180910390fd5b80915050919050565b600a5f3373ffffffffffffffffffffffffffffffffffffffff1673ffffffffffffffffffffffffffffffffffffffff1681526020019081526020015f205f9054906101000a900460ff16610d77576040517f08c379a0000000000000000000000000000000000000000000000000000000008152600401610d6e90612188565b60405180910390fd5b5f73ffffffffffffffffffffffffffffffffffffffff163373ffffffffffffffffffffffffffffffffffffffff1603610de5576040517f08c379a0000000000000000000000000000000000000000000000000000000008152600401610ddc90611ce6565b60405180910390fd5b5f6001600354610df59190611d31565b90503360075f8381526020019081526020015f205f6101000a81548173ffffffffffffffffffffffffffffffffffffffff021916908373ffffffffffffffffffffffffffffffffffffffff160217905550600160085f3373ffffffffffffffffffffffffffffffffffffffff1673ffffffffffffffffffffffffffffffffffffffff1681526020019081526020015f205f828254610e939190611d31565b9250508190555080600381905550803373ffffffffffffffffffffffffffffffffffffffff165f73ffffffffffffffffffffffffffffffffffffffff167fddf252ad1be2c89b69c2b068fc378daa952ba7f163c4a11628f55a4df523b3ef60405160405180910390a450565b5f5f73ffffffffffffffffffffffffffffffffffffffff168273ffffffffffffffffffffffffffffffffffffffff1603610f6e576040517f08c379a0000000000000000000000000000000000000000000000000000000008152600401610f65906121f0565b60405180910390fd5b60085f8373ffffffffffffffffffffffffffffffffffffffff1673ffffffffffffffffffffffffffffffffffffffff1681526020019081526020015f20549050919050565b60025f9054906101000a900473ffffffffffffffffffffffffffffffffffffffff1673ffffffffffffffffffffffffffffffffffffffff163373ffffffffffffffffffffffffffffffffffffffff1614611042576040517f08c379a000000000000000000000000000000000000000000000000000000000815260040161103990611c7e565b60405180910390fd5b5f600a5f8373ffffffffffffffffffffffffffffffffffffffff1673ffffffffffffffffffffffffffffffffffffffff1681526020019081526020015f205f6101000a81548160ff0219169083151502179055508073ffffffffffffffffffffffffffffffffffffffff167fcdd2e9b91a56913d370075169cefa1602ba36be5301664f752192bb1709df75760405160405180910390a250565b60025f9054906101000a900473ffffffffffffffffffffffffffffffffffffffff1681565b6001805461110e90611b34565b80601f016020809104026020016040519081016040528092919081815260200182805461113a90611b34565b80156111855780601f1061115c57610100808354040283529160200191611185565b820191905f5260205f20905b81548152906001019060200180831161116857829003601f168201915b505050505081565b60025f9054906101000a900473ffffffffffffffffffffffffffffffffffffffff1673ffffffffffffffffffffffffffffffffffffffff163373ffffffffffffffffffffffffffffffffffffffff161461121c576040517f08c379a000000000000000000000000000000000000000000000000000000000815260040161121390611c7e565b60405180910390fd5b600160065f6101000a81548160ff0219169083151502179055507fe2a7169cedebe39671840370ae19ca4fc41be6191d4c77f174f189a4d8cd08c860405160405180910390a1565b60605f73ffffffffffffffffffffffffffffffffffffffff1660075f8481526020019081526020015f205f9054906101000a900473ffffffffffffffffffffffffffffffffffffffff1673ffffffffffffffffffffffffffffffffffffffff1603611304576040517f08c379a00000000000000000000000000000000000000000000000000000000081526004016112fb90612120565b60405180910390fd5b60065f9054906101000a900460ff166113a7576005805461132490611b34565b80601f016020809104026020016040519081016040528092919081815260200182805461135090611b34565b801561139b5780601f106113725761010080835404028352916020019161139b565b820191905f5260205f20905b81548152906001019060200180831161137e57829003601f168201915b505050505090506113d5565b60046113b2836115a6565b6040516020016113c3929190612312565b60405160208183030381529060405290505b919050565b60025f9054906101000a900473ffffffffffffffffffffffffffffffffffffffff1673ffffffffffffffffffffffffffffffffffffffff163373ffffffffffffffffffffffffffffffffffffffff1614611469576040517f08c379a000000000000000000000000000000000000000000000000000000000815260040161146090611c7e565b60405180910390fd5b6001600a5f8373ffffffffffffffffffffffffffffffffffffffff1673ffffffffffffffffffffffffffffffffffffffff1681526020019081526020015f205f6101000a81548160ff0219169083151502179055508073ffffffffffffffffffffffffffffffffffffffff167faab7954e9d246b167ef88aeddad35209ca2489d95a8aeb59e288d9b19fae5a5460405160405180910390a250565b60025f9054906101000a900473ffffffffffffffffffffffffffffffffffffffff1673ffffffffffffffffffffffffffffffffffffffff163373ffffffffffffffffffffffffffffffffffffffff1614611593576040517f08c379a000000000000000000000000000000000000000000000000000000000815260040161158a90611c7e565b60405180910390fd5b80600590816115a29190612007565b5050565b60605f82036115ec576040518060400160405280600181526020017f300000000000000000000000000000000000000000000000000000000000000081525090506116fa565b5f8290505f5b5f821461161b57808061160490612340565b915050600a8261161491906123b4565b91506115f2565b5f8167ffffffffffffffff8111156116365761163561199c565b5b6040519080825280601f01601f1916602001820160405280156116685781602001600182028036833780820191505090505b5090505b5f85146116f3576001826116809190611e34565b9150600a8561168f91906123e4565b603061169b9190611d31565b60f81b8183815181106116b1576116b0612414565b5b60200101907effffffffffffffffffffffffffffffffffffffffffffffffffffffffffffff191690815f1a905350600a856116ec91906123b4565b945061166c565b8093505050505b919050565b5f81519050919050565b5f82825260208201905092915050565b8281835e5f83830152505050565b5f601f19601f8301169050919050565b5f611741826116ff565b61174b8185611709565b935061175b818560208601611719565b61176481611727565b840191505092915050565b5f6020820190508181035f8301526117878184611737565b905092915050565b5f604051905090565b5f5ffd5b5f5ffd5b5f819050919050565b6117b2816117a0565b81146117bc575f5ffd5b50565b5f813590506117cd816117a9565b92915050565b5f602082840312156117e8576117e7611798565b5b5f6117f5848285016117bf565b91505092915050565b5f73ffffffffffffffffffffffffffffffffffffffff82169050919050565b5f611827826117fe565b9050919050565b6118378161181d565b82525050565b5f6020820190506118505f83018461182e565b92915050565b61185f8161181d565b8114611869575f5ffd5b50565b5f8135905061187a81611856565b92915050565b5f5f6040838503121561189657611895611798565b5b5f6118a38582860161186c565b92505060206118b4858286016117bf565b9150509250929050565b6118c7816117a0565b82525050565b5f6020820190506118e05f8301846118be565b92915050565b5f602082840312156118fb576118fa611798565b5b5f6119088482850161186c565b91505092915050565b5f5f5f6060848603121561192857611927611798565b5b5f6119358682870161186c565b93505060206119468682870161186c565b9250506040611957868287016117bf565b9150509250925092565b5f8115159050919050565b61197581611961565b82525050565b5f60208201905061198e5f83018461196c565b92915050565b5f5ffd5b5f5ffd5b7f4e487b71000000000000000000000000000000000000000000000000000000005f52604160045260245ffd5b6119d282611727565b810181811067ffffffffffffffff821117156119f1576119f061199c565b5b80604052505050565b5f611a0361178f565b9050611a0f82826119c9565b919050565b5f67ffffffffffffffff821115611a2e57611a2d61199c565b5b611a3782611727565b9050602081019050919050565b828183375f83830152505050565b5f611a64611a5f84611a14565b6119fa565b905082815260208101848484011115611a8057611a7f611998565b5b611a8b848285611a44565b509392505050565b5f82601f830112611aa757611aa6611994565b5b8135611ab7848260208601611a52565b91505092915050565b5f60208284031215611ad557611ad4611798565b5b5f82013567ffffffffffffffff811115611af257611af161179c565b5b611afe84828501611a93565b91505092915050565b7f4e487b71000000000000000000000000000000000000000000000000000000005f52602260045260245ffd5b5f6002820490506001821680611b4b57607f821691505b602082108103611b5e57611b5d611b07565b5b50919050565b7f4e6f7420746f6b656e206f776e657200000000000000000000000000000000005f82015250565b5f611b98600f83611709565b9150611ba382611b64565b602082019050919050565b5f6020820190508181035f830152611bc581611b8c565b9050919050565b7f43616e6e6f7420617070726f76652063757272656e74206f776e6572000000005f82015250565b5f611c00601c83611709565b9150611c0b82611bcc565b602082019050919050565b5f6020820190508181035f830152611c2d81611bf4565b9050919050565b7f4e6f7420636f6e7472616374206f776e657200000000000000000000000000005f82015250565b5f611c68601283611709565b9150611c7382611c34565b602082019050919050565b5f6020820190508181035f830152611c9581611c5c565b9050919050565b7f5a65726f206164647265737300000000000000000000000000000000000000005f82015250565b5f611cd0600c83611709565b9150611cdb82611c9c565b602082019050919050565b5f6020820190508181035f830152611cfd81611cc4565b9050919050565b7f4e487b71000000000000000000000000000000000000000000000000000000005f52601160045260245ffd5b5f611d3b826117a0565b9150611d46836117a0565b9250828201905080821115611d5e57611d5d611d04565b5b92915050565b7f43616e6e6f74207472616e7366657220746f207a65726f2061646472657373005f82015250565b5f611d98601f83611709565b9150611da382611d64565b602082019050919050565b5f6020820190508181035f830152611dc581611d8c565b9050919050565b7f4e6f7420617070726f76656400000000000000000000000000000000000000005f82015250565b5f611e00600c83611709565b9150611e0b82611dcc565b602082019050919050565b5f6020820190508181035f830152611e2d81611df4565b9050919050565b5f611e3e826117a0565b9150611e49836117a0565b9250828203905081811115611e6157611e60611d04565b5b92915050565b5f819050815f5260205f209050919050565b5f6020601f8301049050919050565b5f82821b905092915050565b5f60088302611ec37fffffffffffffffffffffffffffffffffffffffffffffffffffffffffffffffff82611e88565b611ecd8683611e88565b95508019841693508086168417925050509392505050565b5f819050919050565b5f611f08611f03611efe846117a0565b611ee5565b6117a0565b9050919050565b5f819050919050565b611f2183611eee565b611f35611f2d82611f0f565b848454611e94565b825550505050565b5f5f905090565b611f4c611f3d565b611f57818484611f18565b505050565b5b81811015611f7a57611f6f5f82611f44565b600181019050611f5d565b5050565b601f821115611fbf57611f9081611e67565b611f9984611e79565b81016020851015611fa8578190505b611fbc611fb485611e79565b830182611f5c565b50505b505050565b5f82821c905092915050565b5f611fdf5f1984600802611fc4565b1980831691505092915050565b5f611ff78383611fd0565b9150826002028217905092915050565b612010826116ff565b67ffffffffffffffff8111156120295761202861199c565b5b6120338254611b34565b61203e828285611f7e565b5f60209050601f83116001811461206f575f841561205d578287015190505b6120678582611fec565b8655506120ce565b601f19841661207d86611e67565b5f5b828110156120a45784890151825560018201915060208501945060208101905061207f565b868310156120c157848901516120bd601f891682611fd0565b8355505b6001600288020188555050505b505050505050565b7f546f6b656e20646f65736e2774206578697374000000000000000000000000005f82015250565b5f61210a601383611709565b9150612115826120d6565b602082019050919050565b5f6020820190508181035f830152612137816120fe565b9050919050565b7f4e6f742077686974656c697374656400000000000000000000000000000000005f82015250565b5f612172600f83611709565b915061217d8261213e565b602082019050919050565b5f6020820190508181035f83015261219f81612166565b9050919050565b7f5a65726f2061646472657373206e6f7420616c6c6f77656400000000000000005f82015250565b5f6121da601883611709565b91506121e5826121a6565b602082019050919050565b5f6020820190508181035f830152612207816121ce565b9050919050565b5f81905092915050565b5f815461222481611b34565b61222e818661220e565b9450600182165f8114612248576001811461225d5761228f565b60ff198316865281151582028601935061228f565b61226685611e67565b5f5b8381101561228757815481890152600182019150602081019050612268565b838801955050505b50505092915050565b5f6122a2826116ff565b6122ac818561220e565b93506122bc818560208601611719565b80840191505092915050565b7f2e6a736f6e0000000000000000000000000000000000000000000000000000005f82015250565b5f6122fc60058361220e565b9150612307826122c8565b600582019050919050565b5f61231d8285612218565b91506123298284612298565b9150612334826122f0565b91508190509392505050565b5f61234a826117a0565b91507fffffffffffffffffffffffffffffffffffffffffffffffffffffffffffffffff820361237c5761237b611d04565b5b600182019050919050565b7f4e487b71000000000000000000000000000000000000000000000000000000005f52601260045260245ffd5b5f6123be826117a0565b91506123c9836117a0565b9250826123d9576123d8612387565b5b828204905092915050565b5f6123ee826117a0565b91506123f9836117a0565b92508261240957612408612387565b5b828206905092915050565b7f4e487b71000000000000000000000000000000000000000000000000000000005f52603260045260245ffdfea2646970667358221220f6f30f848f33c80f973c38e1886eaad9cab9a2f82e0a9cec395285a5226efbf864736f6c634300081e0033",
					"opcodes": "PUSH1 0x80 PUSH1 0x40 MSTORE CALLVALUE DUP1 ISZERO PUSH2 0xF JUMPI PUSH0 PUSH0 REVERT JUMPDEST POP PUSH1 0x40 MLOAD PUSH2 0x2A56 CODESIZE SUB DUP1 PUSH2 0x2A56 DUP4 CODECOPY DUP2 DUP2 ADD PUSH1 0x40 MSTORE DUP2 ADD SWAP1 PUSH2 0x31 SWAP2 SWAP1 PUSH2 0x21F JUMP JUMPDEST DUP4 PUSH0 SWAP1 DUP2 PUSH2 0x3F SWAP2 SWAP1 PUSH2 0x503 JUMP JUMPDEST POP DUP3 PUSH1 0x1 SWAP1 DUP2 PUSH2 0x4F SWAP2 SWAP1 PUSH2 0x503 JUMP JUMPDEST POP DUP2 PUSH1 0x4 SWAP1 DUP2 PUSH2 0x5F SWAP2 SWAP1 PUSH2 0x503 JUMP JUMPDEST POP DUP1 PUSH1 0x5 SWAP1 DUP2 PUSH2 0x6F SWAP2 SWAP1 PUSH2 0x503 JUMP JUMPDEST POP CALLER PUSH1 0x2 PUSH0 PUSH2 0x100 EXP DUP2 SLOAD DUP2 PUSH20 0xFFFFFFFFFFFFFFFFFFFFFFFFFFFFFFFFFFFFFFFF MUL NOT AND SWAP1 DUP4 PUSH20 0xFFFFFFFFFFFFFFFFFFFFFFFFFFFFFFFFFFFFFFFF AND MUL OR SWAP1 SSTORE POP PUSH0 PUSH1 0x6 PUSH0 PUSH2 0x100 EXP DUP2 SLOAD DUP2 PUSH1 0xFF MUL NOT AND SWAP1 DUP4 ISZERO ISZERO MUL OR SWAP1 SSTORE POP POP POP POP POP PUSH2 0x5D2 JUMP JUMPDEST PUSH0 PUSH1 0x40 MLOAD SWAP1 POP SWAP1 JUMP JUMPDEST PUSH0 PUSH0 REVERT JUMPDEST PUSH0 PUSH0 REVERT JUMPDEST PUSH0 PUSH0 REVERT JUMPDEST PUSH0 PUSH0 REVERT JUMPDEST PUSH0 PUSH1 0x1F NOT PUSH1 0x1F DUP4 ADD AND SWAP1 POP SWAP2 SWAP1 POP JUMP JUMPDEST PUSH32 0x4E487B7100000000000000000000000000000000000000000000000000000000 PUSH0 MSTORE PUSH1 0x41 PUSH1 0x4 MSTORE PUSH1 0x24 PUSH0 REVERT JUMPDEST PUSH2 0x131 DUP3 PUSH2 0xEB JUMP JUMPDEST DUP2 ADD DUP2 DUP2 LT PUSH8 0xFFFFFFFFFFFFFFFF DUP3 GT OR ISZERO PUSH2 0x150 JUMPI PUSH2 0x14F PUSH2 0xFB JUMP JUMPDEST JUMPDEST DUP1 PUSH1 0x40 MSTORE POP POP POP JUMP JUMPDEST PUSH0 PUSH2 0x162 PUSH2 0xD2 JUMP JUMPDEST SWAP1 POP PUSH2 0x16E DUP3 DUP3 PUSH2 0x128 JUMP JUMPDEST SWAP2 SWAP1 POP JUMP JUMPDEST PUSH0 PUSH8 0xFFFFFFFFFFFFFFFF DUP3 GT ISZERO PUSH2 0x18D JUMPI PUSH2 0x18C PUSH2 0xFB JUMP JUMPDEST JUMPDEST PUSH2 0x196 DUP3 PUSH2 0xEB JUMP JUMPDEST SWAP1 POP PUSH1 0x20 DUP2 ADD SWAP1 POP SWAP2 SWAP1 POP JUMP JUMPDEST DUP3 DUP2 DUP4 MCOPY PUSH0 DUP4 DUP4 ADD MSTORE POP POP POP JUMP JUMPDEST PUSH0 PUSH2 0x1C3 PUSH2 0x1BE DUP5 PUSH2 0x173 JUMP JUMPDEST PUSH2 0x159 JUMP JUMPDEST SWAP1 POP DUP3 DUP2 MSTORE PUSH1 0x20 DUP2 ADD DUP5 DUP5 DUP5 ADD GT ISZERO PUSH2 0x1DF JUMPI PUSH2 0x1DE PUSH2 0xE7 JUMP JUMPDEST JUMPDEST PUSH2 0x1EA DUP5 DUP3 DUP6 PUSH2 0x1A3 JUMP JUMPDEST POP SWAP4 SWAP3 POP POP POP JUMP JUMPDEST PUSH0 DUP3 PUSH1 0x1F DUP4 ADD SLT PUSH2 0x206 JUMPI PUSH2 0x205 PUSH2 0xE3 JUMP JUMPDEST JUMPDEST DUP2 MLOAD PUSH2 0x216 DUP5 DUP3 PUSH1 0x20 DUP7 ADD PUSH2 0x1B1 JUMP JUMPDEST SWAP2 POP POP SWAP3 SWAP2 POP POP JUMP JUMPDEST PUSH0 PUSH0 PUSH0 PUSH0 PUSH1 0x80 DUP6 DUP8 SUB SLT ISZERO PUSH2 0x237 JUMPI PUSH2 0x236 PUSH2 0xDB JUMP JUMPDEST JUMPDEST PUSH0 DUP6 ADD MLOAD PUSH8 0xFFFFFFFFFFFFFFFF DUP2 GT ISZERO PUSH2 0x254 JUMPI PUSH2 0x253 PUSH2 0xDF JUMP JUMPDEST JUMPDEST PUSH2 0x260 DUP8 DUP3 DUP9 ADD PUSH2 0x1F2 JUMP JUMPDEST SWAP5 POP POP PUSH1 0x20 DUP6 ADD MLOAD PUSH8 0xFFFFFFFFFFFFFFFF DUP2 GT ISZERO PUSH2 0x281 JUMPI PUSH2 0x280 PUSH2 0xDF JUMP JUMPDEST JUMPDEST PUSH2 0x28D DUP8 DUP3 DUP9 ADD PUSH2 0x1F2 JUMP JUMPDEST SWAP4 POP POP PUSH1 0x40 DUP6 ADD MLOAD PUSH8 0xFFFFFFFFFFFFFFFF DUP2 GT ISZERO PUSH2 0x2AE JUMPI PUSH2 0x2AD PUSH2 0xDF JUMP JUMPDEST JUMPDEST PUSH2 0x2BA DUP8 DUP3 DUP9 ADD PUSH2 0x1F2 JUMP JUMPDEST SWAP3 POP POP PUSH1 0x60 DUP6 ADD MLOAD PUSH8 0xFFFFFFFFFFFFFFFF DUP2 GT ISZERO PUSH2 0x2DB JUMPI PUSH2 0x2DA PUSH2 0xDF JUMP JUMPDEST JUMPDEST PUSH2 0x2E7 DUP8 DUP3 DUP9 ADD PUSH2 0x1F2 JUMP JUMPDEST SWAP2 POP POP SWAP3 SWAP6 SWAP2 SWAP5 POP SWAP3 POP JUMP JUMPDEST PUSH0 DUP2 MLOAD SWAP1 POP SWAP2 SWAP1 POP JUMP JUMPDEST PUSH32 0x4E487B7100000000000000000000000000000000000000000000000000000000 PUSH0 MSTORE PUSH1 0x22 PUSH1 0x4 MSTORE PUSH1 0x24 PUSH0 REVERT JUMPDEST PUSH0 PUSH1 0x2 DUP3 DIV SWAP1 POP PUSH1 0x1 DUP3 AND DUP1 PUSH2 0x341 JUMPI PUSH1 0x7F DUP3 AND SWAP2 POP JUMPDEST PUSH1 0x20 DUP3 LT DUP2 SUB PUSH2 0x354 JUMPI PUSH2 0x353 PUSH2 0x2FD JUMP JUMPDEST JUMPDEST POP SWAP2 SWAP1 POP JUMP JUMPDEST PUSH0 DUP2 SWAP1 POP DUP2 PUSH0 MSTORE PUSH1 0x20 PUSH0 KECCAK256 SWAP1 POP SWAP2 SWAP1 POP JUMP JUMPDEST PUSH0 PUSH1 0x20 PUSH1 0x1F DUP4 ADD DIV SWAP1 POP SWAP2 SWAP1 POP JUMP JUMPDEST PUSH0 DUP3 DUP3 SHL SWAP1 POP SWAP3 SWAP2 POP POP JUMP JUMPDEST PUSH0 PUSH1 0x8 DUP4 MUL PUSH2 0x3B6 PUSH32 0xFFFFFFFFFFFFFFFFFFFFFFFFFFFFFFFFFFFFFFFFFFFFFFFFFFFFFFFFFFFFFFFF DUP3 PUSH2 0x37B JUMP JUMPDEST PUSH2 0x3C0 DUP7 DUP4 PUSH2 0x37B JUMP JUMPDEST SWAP6 POP DUP1 NOT DUP5 AND SWAP4 POP DUP1 DUP7 AND DUP5 OR SWAP3 POP POP POP SWAP4 SWAP3 POP POP POP JUMP JUMPDEST PUSH0 DUP2 SWAP1 POP SWAP2 SWAP1 POP JUMP JUMPDEST PUSH0 DUP2 SWAP1 POP SWAP2 SWAP1 POP JUMP JUMPDEST PUSH0 PUSH2 0x404 PUSH2 0x3FF PUSH2 0x3FA DUP5 PUSH2 0x3D8 JUMP JUMPDEST PUSH2 0x3E1 JUMP JUMPDEST PUSH2 0x3D8 JUMP JUMPDEST SWAP1 POP SWAP2 SWAP1 POP JUMP JUMPDEST PUSH0 DUP2 SWAP1 POP SWAP2 SWAP1 POP JUMP JUMPDEST PUSH2 0x41D DUP4 PUSH2 0x3EA JUMP JUMPDEST PUSH2 0x431 PUSH2 0x429 DUP3 PUSH2 0x40B JUMP JUMPDEST DUP5 DUP5 SLOAD PUSH2 0x387 JUMP JUMPDEST DUP3 SSTORE POP POP POP POP JUMP JUMPDEST PUSH0 PUSH0 SWAP1 POP SWAP1 JUMP JUMPDEST PUSH2 0x448 PUSH2 0x439 JUMP JUMPDEST PUSH2 0x453 DUP2 DUP5 DUP5 PUSH2 0x414 JUMP JUMPDEST POP POP POP JUMP JUMPDEST JUMPDEST DUP2 DUP2 LT ISZERO PUSH2 0x476 JUMPI PUSH2 0x46B PUSH0 DUP3 PUSH2 0x440 JUMP JUMPDEST PUSH1 0x1 DUP2 ADD SWAP1 POP PUSH2 0x459 JUMP JUMPDEST POP POP JUMP JUMPDEST PUSH1 0x1F DUP3 GT ISZERO PUSH2 0x4BB JUMPI PUSH2 0x48C DUP2 PUSH2 0x35A JUMP JUMPDEST PUSH2 0x495 DUP5 PUSH2 0x36C JUMP JUMPDEST DUP2 ADD PUSH1 0x20 DUP6 LT ISZERO PUSH2 0x4A4 JUMPI DUP2 SWAP1 POP JUMPDEST PUSH2 0x4B8 PUSH2 0x4B0 DUP6 PUSH2 0x36C JUMP JUMPDEST DUP4 ADD DUP3 PUSH2 0x458 JUMP JUMPDEST POP POP JUMPDEST POP POP POP JUMP JUMPDEST PUSH0 DUP3 DUP3 SHR SWAP1 POP SWAP3 SWAP2 POP POP JUMP JUMPDEST PUSH0 PUSH2 0x4DB PUSH0 NOT DUP5 PUSH1 0x8 MUL PUSH2 0x4C0 JUMP JUMPDEST NOT DUP1 DUP4 AND SWAP2 POP POP SWAP3 SWAP2 POP POP JUMP JUMPDEST PUSH0 PUSH2 0x4F3 DUP4 DUP4 PUSH2 0x4CC JUMP JUMPDEST SWAP2 POP DUP3 PUSH1 0x2 MUL DUP3 OR SWAP1 POP SWAP3 SWAP2 POP POP JUMP JUMPDEST PUSH2 0x50C DUP3 PUSH2 0x2F3 JUMP JUMPDEST PUSH8 0xFFFFFFFFFFFFFFFF DUP2 GT ISZERO PUSH2 0x525 JUMPI PUSH2 0x524 PUSH2 0xFB JUMP JUMPDEST JUMPDEST PUSH2 0x52F DUP3 SLOAD PUSH2 0x32A JUMP JUMPDEST PUSH2 0x53A DUP3 DUP3 DUP6 PUSH2 0x47A JUMP JUMPDEST PUSH0 PUSH1 0x20 SWAP1 POP PUSH1 0x1F DUP4 GT PUSH1 0x1 DUP2 EQ PUSH2 0x56B JUMPI PUSH0 DUP5 ISZERO PUSH2 0x559 JUMPI DUP3 DUP8 ADD MLOAD SWAP1 POP JUMPDEST PUSH2 0x563 DUP6 DUP3 PUSH2 0x4E8 JUMP JUMPDEST DUP7 SSTORE POP PUSH2 0x5CA JUMP JUMPDEST PUSH1 0x1F NOT DUP5 AND PUSH2 0x579 DUP7 PUSH2 0x35A JUMP JUMPDEST PUSH0 JUMPDEST DUP3 DUP2 LT ISZERO PUSH2 0x5A0 JUMPI DUP5 DUP10 ADD MLOAD DUP3 SSTORE PUSH1 0x1 DUP3 ADD SWAP2 POP PUSH1 0x20 DUP6 ADD SWAP5 POP PUSH1 0x20 DUP2 ADD SWAP1 POP PUSH2 0x57B JUMP JUMPDEST DUP7 DUP4 LT ISZERO PUSH2 0x5BD JUMPI DUP5 DUP10 ADD MLOAD PUSH2 0x5B9 PUSH1 0x1F DUP10 AND DUP3 PUSH2 0x4CC JUMP JUMPDEST DUP4 SSTORE POP JUMPDEST PUSH1 0x1 PUSH1 0x2 DUP9 MUL ADD DUP9 SSTORE POP POP POP JUMPDEST POP POP POP POP POP POP JUMP JUMPDEST PUSH2 0x2477 DUP1 PUSH2 0x5DF PUSH0 CODECOPY PUSH0 RETURN INVALID PUSH1 0x80 PUSH1 0x40 MSTORE CALLVALUE DUP1 ISZERO PUSH2 0xF JUMPI PUSH0 PUSH0 REVERT JUMPDEST POP PUSH1 0x4 CALLDATASIZE LT PUSH2 0x11F JUMPI PUSH0 CALLDATALOAD PUSH1 0xE0 SHR DUP1 PUSH4 0x6352211E GT PUSH2 0xAB JUMPI DUP1 PUSH4 0x95D89B41 GT PUSH2 0x6F JUMPI DUP1 PUSH4 0x95D89B41 EQ PUSH2 0x2F1 JUMPI DUP1 PUSH4 0xA475B5DD EQ PUSH2 0x30F JUMPI DUP1 PUSH4 0xC87B56DD EQ PUSH2 0x319 JUMPI DUP1 PUSH4 0xE43252D7 EQ PUSH2 0x349 JUMPI DUP1 PUSH4 0xF2C4CE1E EQ PUSH2 0x365 JUMPI PUSH2 0x11F JUMP JUMPDEST DUP1 PUSH4 0x6352211E EQ PUSH2 0x24D JUMPI DUP1 PUSH4 0x6871EE40 EQ PUSH2 0x27D JUMPI DUP1 PUSH4 0x70A08231 EQ PUSH2 0x287 JUMPI DUP1 PUSH4 0x8AB1D681 EQ PUSH2 0x2B7 JUMPI DUP1 PUSH4 0x8DA5CB5B EQ PUSH2 0x2D3 JUMPI PUSH2 0x11F JUMP JUMPDEST DUP1 PUSH4 0x21BAE9E4 GT PUSH2 0xF2 JUMPI DUP1 PUSH4 0x21BAE9E4 EQ PUSH2 0x1AB JUMPI DUP1 PUSH4 0x23B872DD EQ PUSH2 0x1C7 JUMPI DUP1 PUSH4 0x3AF32ABF EQ PUSH2 0x1E3 JUMPI DUP1 PUSH4 0x51830227 EQ PUSH2 0x213 JUMPI DUP1 PUSH4 0x55F804B3 EQ PUSH2 0x231 JUMPI PUSH2 0x11F JUMP JUMPDEST DUP1 PUSH4 0x6FDDE03 EQ PUSH2 0x123 JUMPI DUP1 PUSH4 0x81812FC EQ PUSH2 0x141 JUMPI DUP1 PUSH4 0x95EA7B3 EQ PUSH2 0x171 JUMPI DUP1 PUSH4 0x18160DDD EQ PUSH2 0x18D JUMPI JUMPDEST PUSH0 PUSH0 REVERT JUMPDEST PUSH2 0x12B PUSH2 0x381 JUMP JUMPDEST PUSH1 0x40 MLOAD PUSH2 0x138 SWAP2 SWAP1 PUSH2 0x176F JUMP JUMPDEST PUSH1 0x40 MLOAD DUP1 SWAP2 SUB SWAP1 RETURN JUMPDEST PUSH2 0x15B PUSH1 0x4 DUP1 CALLDATASIZE SUB DUP2 ADD SWAP1 PUSH2 0x156 SWAP2 SWAP1 PUSH2 0x17D3 JUMP JUMPDEST PUSH2 0x40C JUMP JUMPDEST PUSH1 0x40 MLOAD PUSH2 0x168 SWAP2 SWAP1 PUSH2 0x183D JUMP JUMPDEST PUSH1 0x40 MLOAD DUP1 SWAP2 SUB SWAP1 RETURN JUMPDEST PUSH2 0x18B PUSH1 0x4 DUP1 CALLDATASIZE SUB DUP2 ADD SWAP1 PUSH2 0x186 SWAP2 SWAP1 PUSH2 0x1880 JUMP JUMPDEST PUSH2 0x445 JUMP JUMPDEST STOP JUMPDEST PUSH2 0x195 PUSH2 0x5DC JUMP JUMPDEST PUSH1 0x40 MLOAD PUSH2 0x1A2 SWAP2 SWAP1 PUSH2 0x18CD JUMP JUMPDEST PUSH1 0x40 MLOAD DUP1 SWAP2 SUB SWAP1 RETURN JUMPDEST PUSH2 0x1C5 PUSH1 0x4 DUP1 CALLDATASIZE SUB DUP2 ADD SWAP1 PUSH2 0x1C0 SWAP2 SWAP1 PUSH2 0x18E6 JUMP JUMPDEST PUSH2 0x5E2 JUMP JUMPDEST STOP JUMPDEST PUSH2 0x1E1 PUSH1 0x4 DUP1 CALLDATASIZE SUB DUP2 ADD SWAP1 PUSH2 0x1DC SWAP2 SWAP1 PUSH2 0x1911 JUMP JUMPDEST PUSH2 0x7FA JUMP JUMPDEST STOP JUMPDEST PUSH2 0x1FD PUSH1 0x4 DUP1 CALLDATASIZE SUB DUP2 ADD SWAP1 PUSH2 0x1F8 SWAP2 SWAP1 PUSH2 0x18E6 JUMP JUMPDEST PUSH2 0xB3C JUMP JUMPDEST PUSH1 0x40 MLOAD PUSH2 0x20A SWAP2 SWAP1 PUSH2 0x197B JUMP JUMPDEST PUSH1 0x40 MLOAD DUP1 SWAP2 SUB SWAP1 RETURN JUMPDEST PUSH2 0x21B PUSH2 0xB8E JUMP JUMPDEST PUSH1 0x40 MLOAD PUSH2 0x228 SWAP2 SWAP1 PUSH2 0x197B JUMP JUMPDEST PUSH1 0x40 MLOAD DUP1 SWAP2 SUB SWAP1 RETURN JUMPDEST PUSH2 0x24B PUSH1 0x4 DUP1 CALLDATASIZE SUB DUP2 ADD SWAP1 PUSH2 0x246 SWAP2 SWAP1 PUSH2 0x1AC0 JUMP JUMPDEST PUSH2 0xBA0 JUMP JUMPDEST STOP JUMPDEST PUSH2 0x267 PUSH1 0x4 DUP1 CALLDATASIZE SUB DUP2 ADD SWAP1 PUSH2 0x262 SWAP2 SWAP1 PUSH2 0x17D3 JUMP JUMPDEST PUSH2 0xC42 JUMP JUMPDEST PUSH1 0x40 MLOAD PUSH2 0x274 SWAP2 SWAP1 PUSH2 0x183D JUMP JUMPDEST PUSH1 0x40 MLOAD DUP1 SWAP2 SUB SWAP1 RETURN JUMPDEST PUSH2 0x285 PUSH2 0xCEE JUMP JUMPDEST STOP JUMPDEST PUSH2 0x2A1 PUSH1 0x4 DUP1 CALLDATASIZE SUB DUP2 ADD SWAP1 PUSH2 0x29C SWAP2 SWAP1 PUSH2 0x18E6 JUMP JUMPDEST PUSH2 0xEFF JUMP JUMPDEST PUSH1 0x40 MLOAD PUSH2 0x2AE SWAP2 SWAP1 PUSH2 0x18CD JUMP JUMPDEST PUSH1 0x40 MLOAD DUP1 SWAP2 SUB SWAP1 RETURN JUMPDEST PUSH2 0x2D1 PUSH1 0x4 DUP1 CALLDATASIZE SUB DUP2 ADD SWAP1 PUSH2 0x2CC SWAP2 SWAP1 PUSH2 0x18E6 JUMP JUMPDEST PUSH2 0xFB3 JUMP JUMPDEST STOP JUMPDEST PUSH2 0x2DB PUSH2 0x10DC JUMP JUMPDEST PUSH1 0x40 MLOAD PUSH2 0x2E8 SWAP2 SWAP1 PUSH2 0x183D JUMP JUMPDEST PUSH1 0x40 MLOAD DUP1 SWAP2 SUB SWAP1 RETURN JUMPDEST PUSH2 0x2F9 PUSH2 0x1101 JUMP JUMPDEST PUSH1 0x40 MLOAD PUSH2 0x306 SWAP2 SWAP1 PUSH2 0x176F JUMP JUMPDEST PUSH1 0x40 MLOAD DUP1 SWAP2 SUB SWAP1 RETURN JUMPDEST PUSH2 0x317 PUSH2 0x118D JUMP JUMPDEST STOP JUMPDEST PUSH2 0x333 PUSH1 0x4 DUP1 CALLDATASIZE SUB DUP2 ADD SWAP1 PUSH2 0x32E SWAP2 SWAP1 PUSH2 0x17D3 JUMP JUMPDEST PUSH2 0x1264 JUMP JUMPDEST PUSH1 0x40 MLOAD PUSH2 0x340 SWAP2 SWAP1 PUSH2 0x176F JUMP JUMPDEST PUSH1 0x40 MLOAD DUP1 SWAP2 SUB SWAP1 RETURN JUMPDEST PUSH2 0x363 PUSH1 0x4 DUP1 CALLDATASIZE SUB DUP2 ADD SWAP1 PUSH2 0x35E SWAP2 SWAP1 PUSH2 0x18E6 JUMP JUMPDEST PUSH2 0x13DA JUMP JUMPDEST STOP JUMPDEST PUSH2 0x37F PUSH1 0x4 DUP1 CALLDATASIZE SUB DUP2 ADD SWAP1 PUSH2 0x37A SWAP2 SWAP1 PUSH2 0x1AC0 JUMP JUMPDEST PUSH2 0x1504 JUMP JUMPDEST STOP JUMPDEST PUSH0 DUP1 SLOAD PUSH2 0x38D SWAP1 PUSH2 0x1B34 JUMP JUMPDEST DUP1 PUSH1 0x1F ADD PUSH1 0x20 DUP1 SWAP2 DIV MUL PUSH1 0x20 ADD PUSH1 0x40 MLOAD SWAP1 DUP2 ADD PUSH1 0x40 MSTORE DUP1 SWAP3 SWAP2 SWAP1 DUP2 DUP2 MSTORE PUSH1 0x20 ADD DUP3 DUP1 SLOAD PUSH2 0x3B9 SWAP1 PUSH2 0x1B34 JUMP JUMPDEST DUP1 ISZERO PUSH2 0x404 JUMPI DUP1 PUSH1 0x1F LT PUSH2 0x3DB JUMPI PUSH2 0x100 DUP1 DUP4 SLOAD DIV MUL DUP4 MSTORE SWAP2 PUSH1 0x20 ADD SWAP2 PUSH2 0x404 JUMP JUMPDEST DUP3 ADD SWAP2 SWAP1 PUSH0 MSTORE PUSH1 0x20 PUSH0 KECCAK256 SWAP1 JUMPDEST DUP2 SLOAD DUP2 MSTORE SWAP1 PUSH1 0x1 ADD SWAP1 PUSH1 0x20 ADD DUP1 DUP4 GT PUSH2 0x3E7 JUMPI DUP3 SWAP1 SUB PUSH1 0x1F AND DUP3 ADD SWAP2 JUMPDEST POP POP POP POP POP DUP2 JUMP JUMPDEST PUSH0 PUSH1 0x9 PUSH0 DUP4 DUP2 MSTORE PUSH1 0x20 ADD SWAP1 DUP2 MSTORE PUSH1 0x20 ADD PUSH0 KECCAK256 PUSH0 SWAP1 SLOAD SWAP1 PUSH2 0x100 EXP SWAP1 DIV PUSH20 0xFFFFFFFFFFFFFFFFFFFFFFFFFFFFFFFFFFFFFFFF AND SWAP1 POP SWAP2 SWAP1 POP JUMP JUMPDEST PUSH0 PUSH2 0x44F DUP3 PUSH2 0xC42 JUMP JUMPDEST SWAP1 POP DUP1 PUSH20 0xFFFFFFFFFFFFFFFFFFFFFFFFFFFFFFFFFFFFFFFF AND CALLER PUSH20 0xFFFFFFFFFFFFFFFFFFFFFFFFFFFFFFFFFFFFFFFF AND EQ PUSH2 0x4BF JUMPI PUSH1 0x40 MLOAD PUSH32 0x8C379A000000000000000000000000000000000000000000000000000000000 DUP2 MSTORE PUSH1 0x4 ADD PUSH2 0x4B6 SWAP1 PUSH2 0x1BAE JUMP JUMPDEST PUSH1 0x40 MLOAD DUP1 SWAP2 SUB SWAP1 REVERT JUMPDEST DUP1 PUSH20 0xFFFFFFFFFFFFFFFFFFFFFFFFFFFFFFFFFFFFFFFF AND DUP4 PUSH20 0xFFFFFFFFFFFFFFFFFFFFFFFFFFFFFFFFFFFFFFFF AND SUB PUSH2 0x52D JUMPI PUSH1 0x40 MLOAD PUSH32 0x8C379A000000000000000000000000000000000000000000000000000000000 DUP2 MSTORE PUSH1 0x4 ADD PUSH2 0x524 SWAP1 PUSH2 0x1C16 JUMP JUMPDEST PUSH1 0x40 MLOAD DUP1 SWAP2 SUB SWAP1 REVERT JUMPDEST DUP3 PUSH1 0x9 PUSH0 DUP5 DUP2 MSTORE PUSH1 0x20 ADD SWAP1 DUP2 MSTORE PUSH1 0x20 ADD PUSH0 KECCAK256 PUSH0 PUSH2 0x100 EXP DUP2 SLOAD DUP2 PUSH20 0xFFFFFFFFFFFFFFFFFFFFFFFFFFFFFFFFFFFFFFFF MUL NOT AND SWAP1 DUP4 PUSH20 0xFFFFFFFFFFFFFFFFFFFFFFFFFFFFFFFFFFFFFFFF AND MUL OR SWAP1 SSTORE POP DUP2 DUP4 PUSH20 0xFFFFFFFFFFFFFFFFFFFFFFFFFFFFFFFFFFFFFFFF AND DUP3 PUSH20 0xFFFFFFFFFFFFFFFFFFFFFFFFFFFFFFFFFFFFFFFF AND PUSH32 0x8C5BE1E5EBEC7D5BD14F71427D1E84F3DD0314C0F7B2291E5B200AC8C7C3B925 PUSH1 0x40 MLOAD PUSH1 0x40 MLOAD DUP1 SWAP2 SUB SWAP1 LOG4 POP POP POP JUMP JUMPDEST PUSH1 0x3 SLOAD DUP2 JUMP JUMPDEST PUSH1 0x2 PUSH0 SWAP1 SLOAD SWAP1 PUSH2 0x100 EXP SWAP1 DIV PUSH20 0xFFFFFFFFFFFFFFFFFFFFFFFFFFFFFFFFFFFFFFFF AND PUSH20 0xFFFFFFFFFFFFFFFFFFFFFFFFFFFFFFFFFFFFFFFF AND CALLER PUSH20 0xFFFFFFFFFFFFFFFFFFFFFFFFFFFFFFFFFFFFFFFF AND EQ PUSH2 0x671 JUMPI PUSH1 0x40 MLOAD PUSH32 0x8C379A000000000000000000000000000000000000000000000000000000000 DUP2 MSTORE PUSH1 0x4 ADD PUSH2 0x668 SWAP1 PUSH2 0x1C7E JUMP JUMPDEST PUSH1 0x40 MLOAD DUP1 SWAP2 SUB SWAP1 REVERT JUMPDEST PUSH0 PUSH20 0xFFFFFFFFFFFFFFFFFFFFFFFFFFFFFFFFFFFFFFFF AND DUP2 PUSH20 0xFFFFFFFFFFFFFFFFFFFFFFFFFFFFFFFFFFFFFFFF AND SUB PUSH2 0x6DF JUMPI PUSH1 0x40 MLOAD PUSH32 0x8C379A000000000000000000000000000000000000000000000000000000000 DUP2 MSTORE PUSH1 0x4 ADD PUSH2 0x6D6 SWAP1 PUSH2 0x1CE6 JUMP JUMPDEST PUSH1 0x40 MLOAD DUP1 SWAP2 SUB SWAP1 REVERT JUMPDEST PUSH0 PUSH1 0x1 PUSH1 0x3 SLOAD PUSH2 0x6EF SWAP2 SWAP1 PUSH2 0x1D31 JUMP JUMPDEST SWAP1 POP DUP2 PUSH1 0x7 PUSH0 DUP4 DUP2 MSTORE PUSH1 0x20 ADD SWAP1 DUP2 MSTORE PUSH1 0x20 ADD PUSH0 KECCAK256 PUSH0 PUSH2 0x100 EXP DUP2 SLOAD DUP2 PUSH20 0xFFFFFFFFFFFFFFFFFFFFFFFFFFFFFFFFFFFFFFFF MUL NOT AND SWAP1 DUP4 PUSH20 0xFFFFFFFFFFFFFFFFFFFFFFFFFFFFFFFFFFFFFFFF AND MUL OR SWAP1 SSTORE POP PUSH1 0x1 PUSH1 0x8 PUSH0 DUP5 PUSH20 0xFFFFFFFFFFFFFFFFFFFFFFFFFFFFFFFFFFFFFFFF AND PUSH20 0xFFFFFFFFFFFFFFFFFFFFFFFFFFFFFFFFFFFFFFFF AND DUP2 MSTORE PUSH1 0x20 ADD SWAP1 DUP2 MSTORE PUSH1 0x20 ADD PUSH0 KECCAK256 PUSH0 DUP3 DUP3 SLOAD PUSH2 0x78D SWAP2 SWAP1 PUSH2 0x1D31 JUMP JUMPDEST SWAP3 POP POP DUP2 SWAP1 SSTORE POP DUP1 PUSH1 0x3 DUP2 SWAP1 SSTORE POP DUP1 DUP3 PUSH20 0xFFFFFFFFFFFFFFFFFFFFFFFFFFFFFFFFFFFFFFFF AND PUSH0 PUSH20 0xFFFFFFFFFFFFFFFFFFFFFFFFFFFFFFFFFFFFFFFF AND PUSH32 0xDDF252AD1BE2C89B69C2B068FC378DAA952BA7F163C4A11628F55A4DF523B3EF PUSH1 0x40 MLOAD PUSH1 0x40 MLOAD DUP1 SWAP2 SUB SWAP1 LOG4 POP POP JUMP JUMPDEST DUP3 PUSH20 0xFFFFFFFFFFFFFFFFFFFFFFFFFFFFFFFFFFFFFFFF AND PUSH2 0x81A DUP3 PUSH2 0xC42 JUMP JUMPDEST PUSH20 0xFFFFFFFFFFFFFFFFFFFFFFFFFFFFFFFFFFFFFFFF AND EQ PUSH2 0x870 JUMPI PUSH1 0x40 MLOAD PUSH32 0x8C379A000000000000000000000000000000000000000000000000000000000 DUP2 MSTORE PUSH1 0x4 ADD PUSH2 0x867 SWAP1 PUSH2 0x1BAE JUMP JUMPDEST PUSH1 0x40 MLOAD DUP1 SWAP2 SUB SWAP1 REVERT JUMPDEST PUSH0 PUSH20 0xFFFFFFFFFFFFFFFFFFFFFFFFFFFFFFFFFFFFFFFF AND DUP3 PUSH20 0xFFFFFFFFFFFFFFFFFFFFFFFFFFFFFFFFFFFFFFFF AND SUB PUSH2 0x8DE JUMPI PUSH1 0x40 MLOAD PUSH32 0x8C379A000000000000000000000000000000000000000000000000000000000 DUP2 MSTORE PUSH1 0x4 ADD PUSH2 0x8D5 SWAP1 PUSH2 0x1DAE JUMP JUMPDEST PUSH1 0x40 MLOAD DUP1 SWAP2 SUB SWAP1 REVERT JUMPDEST DUP3 PUSH20 0xFFFFFFFFFFFFFFFFFFFFFFFFFFFFFFFFFFFFFFFF AND CALLER PUSH20 0xFFFFFFFFFFFFFFFFFFFFFFFFFFFFFFFFFFFFFFFF AND EQ DUP1 PUSH2 0x973 JUMPI POP PUSH1 0x9 PUSH0 DUP3 DUP2 MSTORE PUSH1 0x20 ADD SWAP1 DUP2 MSTORE PUSH1 0x20 ADD PUSH0 KECCAK256 PUSH0 SWAP1 SLOAD SWAP1 PUSH2 0x100 EXP SWAP1 DIV PUSH20 0xFFFFFFFFFFFFFFFFFFFFFFFFFFFFFFFFFFFFFFFF AND PUSH20 0xFFFFFFFFFFFFFFFFFFFFFFFFFFFFFFFFFFFFFFFF AND CALLER PUSH20 0xFFFFFFFFFFFFFFFFFFFFFFFFFFFFFFFFFFFFFFFF AND EQ JUMPDEST PUSH2 0x9B2 JUMPI PUSH1 0x40 MLOAD PUSH32 0x8C379A000000000000000000000000000000000000000000000000000000000 DUP2 MSTORE PUSH1 0x4 ADD PUSH2 0x9A9 SWAP1 PUSH2 0x1E16 JUMP JUMPDEST PUSH1 0x40 MLOAD DUP1 SWAP2 SUB SWAP1 REVERT JUMPDEST PUSH1 0x1 PUSH1 0x8 PUSH0 DUP6 PUSH20 0xFFFFFFFFFFFFFFFFFFFFFFFFFFFFFFFFFFFFFFFF AND PUSH20 0xFFFFFFFFFFFFFFFFFFFFFFFFFFFFFFFFFFFFFFFF AND DUP2 MSTORE PUSH1 0x20 ADD SWAP1 DUP2 MSTORE PUSH1 0x20 ADD PUSH0 KECCAK256 PUSH0 DUP3 DUP3 SLOAD PUSH2 0x9FF SWAP2 SWAP1 PUSH2 0x1E34 JUMP JUMPDEST SWAP3 POP POP DUP2 SWAP1 SSTORE POP PUSH1 0x1 PUSH1 0x8 PUSH0 DUP5 PUSH20 0xFFFFFFFFFFFFFFFFFFFFFFFFFFFFFFFFFFFFFFFF AND PUSH20 0xFFFFFFFFFFFFFFFFFFFFFFFFFFFFFFFFFFFFFFFF AND DUP2 MSTORE PUSH1 0x20 ADD SWAP1 DUP2 MSTORE PUSH1 0x20 ADD PUSH0 KECCAK256 PUSH0 DUP3 DUP3 SLOAD PUSH2 0xA53 SWAP2 SWAP1 PUSH2 0x1D31 JUMP JUMPDEST SWAP3 POP POP DUP2 SWAP1 SSTORE POP DUP2 PUSH1 0x7 PUSH0 DUP4 DUP2 MSTORE PUSH1 0x20 ADD SWAP1 DUP2 MSTORE PUSH1 0x20 ADD PUSH0 KECCAK256 PUSH0 PUSH2 0x100 EXP DUP2 SLOAD DUP2 PUSH20 0xFFFFFFFFFFFFFFFFFFFFFFFFFFFFFFFFFFFFFFFF MUL NOT AND SWAP1 DUP4 PUSH20 0xFFFFFFFFFFFFFFFFFFFFFFFFFFFFFFFFFFFFFFFF AND MUL OR SWAP1 SSTORE POP PUSH1 0x9 PUSH0 DUP3 DUP2 MSTORE PUSH1 0x20 ADD SWAP1 DUP2 MSTORE PUSH1 0x20 ADD PUSH0 KECCAK256 PUSH0 PUSH2 0x100 EXP DUP2 SLOAD SWAP1 PUSH20 0xFFFFFFFFFFFFFFFFFFFFFFFFFFFFFFFFFFFFFFFF MUL NOT AND SWAP1 SSTORE DUP1 DUP3 PUSH20 0xFFFFFFFFFFFFFFFFFFFFFFFFFFFFFFFFFFFFFFFF AND DUP5 PUSH20 0xFFFFFFFFFFFFFFFFFFFFFFFFFFFFFFFFFFFFFFFF AND PUSH32 0xDDF252AD1BE2C89B69C2B068FC378DAA952BA7F163C4A11628F55A4DF523B3EF PUSH1 0x40 MLOAD PUSH1 0x40 MLOAD DUP1 SWAP2 SUB SWAP1 LOG4 POP POP POP JUMP JUMPDEST PUSH0 PUSH1 0xA PUSH0 DUP4 PUSH20 0xFFFFFFFFFFFFFFFFFFFFFFFFFFFFFFFFFFFFFFFF AND PUSH20 0xFFFFFFFFFFFFFFFFFFFFFFFFFFFFFFFFFFFFFFFF AND DUP2 MSTORE PUSH1 0x20 ADD SWAP1 DUP2 MSTORE PUSH1 0x20 ADD PUSH0 KECCAK256 PUSH0 SWAP1 SLOAD SWAP1 PUSH2 0x100 EXP SWAP1 DIV PUSH1 0xFF AND SWAP1 POP SWAP2 SWAP1 POP JUMP JUMPDEST PUSH1 0x6 PUSH0 SWAP1 SLOAD SWAP1 PUSH2 0x100 EXP SWAP1 DIV PUSH1 0xFF AND DUP2 JUMP JUMPDEST PUSH1 0x2 PUSH0 SWAP1 SLOAD SWAP1 PUSH2 0x100 EXP SWAP1 DIV PUSH20 0xFFFFFFFFFFFFFFFFFFFFFFFFFFFFFFFFFFFFFFFF AND PUSH20 0xFFFFFFFFFFFFFFFFFFFFFFFFFFFFFFFFFFFFFFFF AND CALLER PUSH20 0xFFFFFFFFFFFFFFFFFFFFFFFFFFFFFFFFFFFFFFFF AND EQ PUSH2 0xC2F JUMPI PUSH1 0x40 MLOAD PUSH32 0x8C379A000000000000000000000000000000000000000000000000000000000 DUP2 MSTORE PUSH1 0x4 ADD PUSH2 0xC26 SWAP1 PUSH2 0x1C7E JUMP JUMPDEST PUSH1 0x40 MLOAD DUP1 SWAP2 SUB SWAP1 REVERT JUMPDEST DUP1 PUSH1 0x4 SWAP1 DUP2 PUSH2 0xC3E SWAP2 SWAP1 PUSH2 0x2007 JUMP JUMPDEST POP POP JUMP JUMPDEST PUSH0 PUSH0 PUSH1 0x7 PUSH0 DUP5 DUP2 MSTORE PUSH1 0x20 ADD SWAP1 DUP2 MSTORE PUSH1 0x20 ADD PUSH0 KECCAK256 PUSH0 SWAP1 SLOAD SWAP1 PUSH2 0x100 EXP SWAP1 DIV PUSH20 0xFFFFFFFFFFFFFFFFFFFFFFFFFFFFFFFFFFFFFFFF AND SWAP1 POP PUSH0 PUSH20 0xFFFFFFFFFFFFFFFFFFFFFFFFFFFFFFFFFFFFFFFF AND DUP2 PUSH20 0xFFFFFFFFFFFFFFFFFFFFFFFFFFFFFFFFFFFFFFFF AND SUB PUSH2 0xCE5 JUMPI PUSH1 0x40 MLOAD PUSH32 0x8C379A000000000000000000000000000000000000000000000000000000000 DUP2 MSTORE PUSH1 0x4 ADD PUSH2 0xCDC SWAP1 PUSH2 0x2120 JUMP JUMPDEST PUSH1 0x40 MLOAD DUP1 SWAP2 SUB SWAP1 REVERT JUMPDEST DUP1 SWAP2 POP POP SWAP2 SWAP1 POP JUMP JUMPDEST PUSH1 0xA PUSH0 CALLER PUSH20 0xFFFFFFFFFFFFFFFFFFFFFFFFFFFFFFFFFFFFFFFF AND PUSH20 0xFFFFFFFFFFFFFFFFFFFFFFFFFFFFFFFFFFFFFFFF AND DUP2 MSTORE PUSH1 0x20 ADD SWAP1 DUP2 MSTORE PUSH1 0x20 ADD PUSH0 KECCAK256 PUSH0 SWAP1 SLOAD SWAP1 PUSH2 0x100 EXP SWAP1 DIV PUSH1 0xFF AND PUSH2 0xD77 JUMPI PUSH1 0x40 MLOAD PUSH32 0x8C379A000000000000000000000000000000000000000000000000000000000 DUP2 MSTORE PUSH1 0x4 ADD PUSH2 0xD6E SWAP1 PUSH2 0x2188 JUMP JUMPDEST PUSH1 0x40 MLOAD DUP1 SWAP2 SUB SWAP1 REVERT JUMPDEST PUSH0 PUSH20 0xFFFFFFFFFFFFFFFFFFFFFFFFFFFFFFFFFFFFFFFF AND CALLER PUSH20 0xFFFFFFFFFFFFFFFFFFFFFFFFFFFFFFFFFFFFFFFF AND SUB PUSH2 0xDE5 JUMPI PUSH1 0x40 MLOAD PUSH32 0x8C379A000000000000000000000000000000000000000000000000000000000 DUP2 MSTORE PUSH1 0x4 ADD PUSH2 0xDDC SWAP1 PUSH2 0x1CE6 JUMP JUMPDEST PUSH1 0x40 MLOAD DUP1 SWAP2 SUB SWAP1 REVERT JUMPDEST PUSH0 PUSH1 0x1 PUSH1 0x3 SLOAD PUSH2 0xDF5 SWAP2 SWAP1 PUSH2 0x1D31 JUMP JUMPDEST SWAP1 POP CALLER PUSH1 0x7 PUSH0 DUP4 DUP2 MSTORE PUSH1 0x20 ADD SWAP1 DUP2 MSTORE PUSH1 0x20 ADD PUSH0 KECCAK256 PUSH0 PUSH2 0x100 EXP DUP2 SLOAD DUP2 PUSH20 0xFFFFFFFFFFFFFFFFFFFFFFFFFFFFFFFFFFFFFFFF MUL NOT AND SWAP1 DUP4 PUSH20 0xFFFFFFFFFFFFFFFFFFFFFFFFFFFFFFFFFFFFFFFF AND MUL OR SWAP1 SSTORE POP PUSH1 0x1 PUSH1 0x8 PUSH0 CALLER PUSH20 0xFFFFFFFFFFFFFFFFFFFFFFFFFFFFFFFFFFFFFFFF AND PUSH20 0xFFFFFFFFFFFFFFFFFFFFFFFFFFFFFFFFFFFFFFFF AND DUP2 MSTORE PUSH1 0x20 ADD SWAP1 DUP2 MSTORE PUSH1 0x20 ADD PUSH0 KECCAK256 PUSH0 DUP3 DUP3 SLOAD PUSH2 0xE93 SWAP2 SWAP1 PUSH2 0x1D31 JUMP JUMPDEST SWAP3 POP POP DUP2 SWAP1 SSTORE POP DUP1 PUSH1 0x3 DUP2 SWAP1 SSTORE POP DUP1 CALLER PUSH20 0xFFFFFFFFFFFFFFFFFFFFFFFFFFFFFFFFFFFFFFFF AND PUSH0 PUSH20 0xFFFFFFFFFFFFFFFFFFFFFFFFFFFFFFFFFFFFFFFF AND PUSH32 0xDDF252AD1BE2C89B69C2B068FC378DAA952BA7F163C4A11628F55A4DF523B3EF PUSH1 0x40 MLOAD PUSH1 0x40 MLOAD DUP1 SWAP2 SUB SWAP1 LOG4 POP JUMP JUMPDEST PUSH0 PUSH0 PUSH20 0xFFFFFFFFFFFFFFFFFFFFFFFFFFFFFFFFFFFFFFFF AND DUP3 PUSH20 0xFFFFFFFFFFFFFFFFFFFFFFFFFFFFFFFFFFFFFFFF AND SUB PUSH2 0xF6E JUMPI PUSH1 0x40 MLOAD PUSH32 0x8C379A000000000000000000000000000000000000000000000000000000000 DUP2 MSTORE PUSH1 0x4 ADD PUSH2 0xF65 SWAP1 PUSH2 0x21F0 JUMP JUMPDEST PUSH1 0x40 MLOAD DUP1 SWAP2 SUB SWAP1 REVERT JUMPDEST PUSH1 0x8 PUSH0 DUP4 PUSH20 0xFFFFFFFFFFFFFFFFFFFFFFFFFFFFFFFFFFFFFFFF AND PUSH20 0xFFFFFFFFFFFFFFFFFFFFFFFFFFFFFFFFFFFFFFFF AND DUP2 MSTORE PUSH1 0x20 ADD SWAP1 DUP2 MSTORE PUSH1 0x20 ADD PUSH0 KECCAK256 SLOAD SWAP1 POP SWAP2 SWAP1 POP JUMP JUMPDEST PUSH1 0x2 PUSH0 SWAP1 SLOAD SWAP1 PUSH2 0x100 EXP SWAP1 DIV PUSH20 0xFFFFFFFFFFFFFFFFFFFFFFFFFFFFFFFFFFFFFFFF AND PUSH20 0xFFFFFFFFFFFFFFFFFFFFFFFFFFFFFFFFFFFFFFFF AND CALLER PUSH20 0xFFFFFFFFFFFFFFFFFFFFFFFFFFFFFFFFFFFFFFFF AND EQ PUSH2 0x1042 JUMPI PUSH1 0x40 MLOAD PUSH32 0x8C379A000000000000000000000000000000000000000000000000000000000 DUP2 MSTORE PUSH1 0x4 ADD PUSH2 0x1039 SWAP1 PUSH2 0x1C7E JUMP JUMPDEST PUSH1 0x40 MLOAD DUP1 SWAP2 SUB SWAP1 REVERT JUMPDEST PUSH0 PUSH1 0xA PUSH0 DUP4 PUSH20 0xFFFFFFFFFFFFFFFFFFFFFFFFFFFFFFFFFFFFFFFF AND PUSH20 0xFFFFFFFFFFFFFFFFFFFFFFFFFFFFFFFFFFFFFFFF AND DUP2 MSTORE PUSH1 0x20 ADD SWAP1 DUP2 MSTORE PUSH1 0x20 ADD PUSH0 KECCAK256 PUSH0 PUSH2 0x100 EXP DUP2 SLOAD DUP2 PUSH1 0xFF MUL NOT AND SWAP1 DUP4 ISZERO ISZERO MUL OR SWAP1 SSTORE POP DUP1 PUSH20 0xFFFFFFFFFFFFFFFFFFFFFFFFFFFFFFFFFFFFFFFF AND PUSH32 0xCDD2E9B91A56913D370075169CEFA1602BA36BE5301664F752192BB1709DF757 PUSH1 0x40 MLOAD PUSH1 0x40 MLOAD DUP1 SWAP2 SUB SWAP1 LOG2 POP JUMP JUMPDEST PUSH1 0x2 PUSH0 SWAP1 SLOAD SWAP1 PUSH2 0x100 EXP SWAP1 DIV PUSH20 0xFFFFFFFFFFFFFFFFFFFFFFFFFFFFFFFFFFFFFFFF AND DUP2 JUMP JUMPDEST PUSH1 0x1 DUP1 SLOAD PUSH2 0x110E SWAP1 PUSH2 0x1B34 JUMP JUMPDEST DUP1 PUSH1 0x1F ADD PUSH1 0x20 DUP1 SWAP2 DIV MUL PUSH1 0x20 ADD PUSH1 0x40 MLOAD SWAP1 DUP2 ADD PUSH1 0x40 MSTORE DUP1 SWAP3 SWAP2 SWAP1 DUP2 DUP2 MSTORE PUSH1 0x20 ADD DUP3 DUP1 SLOAD PUSH2 0x113A SWAP1 PUSH2 0x1B34 JUMP JUMPDEST DUP1 ISZERO PUSH2 0x1185 JUMPI DUP1 PUSH1 0x1F LT PUSH2 0x115C JUMPI PUSH2 0x100 DUP1 DUP4 SLOAD DIV MUL DUP4 MSTORE SWAP2 PUSH1 0x20 ADD SWAP2 PUSH2 0x1185 JUMP JUMPDEST DUP3 ADD SWAP2 SWAP1 PUSH0 MSTORE PUSH1 0x20 PUSH0 KECCAK256 SWAP1 JUMPDEST DUP2 SLOAD DUP2 MSTORE SWAP1 PUSH1 0x1 ADD SWAP1 PUSH1 0x20 ADD DUP1 DUP4 GT PUSH2 0x1168 JUMPI DUP3 SWAP1 SUB PUSH1 0x1F AND DUP3 ADD SWAP2 JUMPDEST POP POP POP POP POP DUP2 JUMP JUMPDEST PUSH1 0x2 PUSH0 SWAP1 SLOAD SWAP1 PUSH2 0x100 EXP SWAP1 DIV PUSH20 0xFFFFFFFFFFFFFFFFFFFFFFFFFFFFFFFFFFFFFFFF AND PUSH20 0xFFFFFFFFFFFFFFFFFFFFFFFFFFFFFFFFFFFFFFFF AND CALLER PUSH20 0xFFFFFFFFFFFFFFFFFFFFFFFFFFFFFFFFFFFFFFFF AND EQ PUSH2 0x121C JUMPI PUSH1 0x40 MLOAD PUSH32 0x8C379A000000000000000000000000000000000000000000000000000000000 DUP2 MSTORE PUSH1 0x4 ADD PUSH2 0x1213 SWAP1 PUSH2 0x1C7E JUMP JUMPDEST PUSH1 0x40 MLOAD DUP1 SWAP2 SUB SWAP1 REVERT JUMPDEST PUSH1 0x1 PUSH1 0x6 PUSH0 PUSH2 0x100 EXP DUP2 SLOAD DUP2 PUSH1 0xFF MUL NOT AND SWAP1 DUP4 ISZERO ISZERO MUL OR SWAP1 SSTORE POP PUSH32 0xE2A7169CEDEBE39671840370AE19CA4FC41BE6191D4C77F174F189A4D8CD08C8 PUSH1 0x40 MLOAD PUSH1 0x40 MLOAD DUP1 SWAP2 SUB SWAP1 LOG1 JUMP JUMPDEST PUSH1 0x60 PUSH0 PUSH20 0xFFFFFFFFFFFFFFFFFFFFFFFFFFFFFFFFFFFFFFFF AND PUSH1 0x7 PUSH0 DUP5 DUP2 MSTORE PUSH1 0x20 ADD SWAP1 DUP2 MSTORE PUSH1 0x20 ADD PUSH0 KECCAK256 PUSH0 SWAP1 SLOAD SWAP1 PUSH2 0x100 EXP SWAP1 DIV PUSH20 0xFFFFFFFFFFFFFFFFFFFFFFFFFFFFFFFFFFFFFFFF AND PUSH20 0xFFFFFFFFFFFFFFFFFFFFFFFFFFFFFFFFFFFFFFFF AND SUB PUSH2 0x1304 JUMPI PUSH1 0x40 MLOAD PUSH32 0x8C379A000000000000000000000000000000000000000000000000000000000 DUP2 MSTORE PUSH1 0x4 ADD PUSH2 0x12FB SWAP1 PUSH2 0x2120 JUMP JUMPDEST PUSH1 0x40 MLOAD DUP1 SWAP2 SUB SWAP1 REVERT JUMPDEST PUSH1 0x6 PUSH0 SWAP1 SLOAD SWAP1 PUSH2 0x100 EXP SWAP1 DIV PUSH1 0xFF AND PUSH2 0x13A7 JUMPI PUSH1 0x5 DUP1 SLOAD PUSH2 0x1324 SWAP1 PUSH2 0x1B34 JUMP JUMPDEST DUP1 PUSH1 0x1F ADD PUSH1 0x20 DUP1 SWAP2 DIV MUL PUSH1 0x20 ADD PUSH1 0x40 MLOAD SWAP1 DUP2 ADD PUSH1 0x40 MSTORE DUP1 SWAP3 SWAP2 SWAP1 DUP2 DUP2 MSTORE PUSH1 0x20 ADD DUP3 DUP1 SLOAD PUSH2 0x1350 SWAP1 PUSH2 0x1B34 JUMP JUMPDEST DUP1 ISZERO PUSH2 0x139B JUMPI DUP1 PUSH1 0x1F LT PUSH2 0x1372 JUMPI PUSH2 0x100 DUP1 DUP4 SLOAD DIV MUL DUP4 MSTORE SWAP2 PUSH1 0x20 ADD SWAP2 PUSH2 0x139B JUMP JUMPDEST DUP3 ADD SWAP2 SWAP1 PUSH0 MSTORE PUSH1 0x20 PUSH0 KECCAK256 SWAP1 JUMPDEST DUP2 SLOAD DUP2 MSTORE SWAP1 PUSH1 0x1 ADD SWAP1 PUSH1 0x20 ADD DUP1 DUP4 GT PUSH2 0x137E JUMPI DUP3 SWAP1 SUB PUSH1 0x1F AND DUP3 ADD SWAP2 JUMPDEST POP POP POP POP POP SWAP1 POP PUSH2 0x13D5 JUMP JUMPDEST PUSH1 0x4 PUSH2 0x13B2 DUP4 PUSH2 0x15A6 JUMP JUMPDEST PUSH1 0x40 MLOAD PUSH1 0x20 ADD PUSH2 0x13C3 SWAP3 SWAP2 SWAP1 PUSH2 0x2312 JUMP JUMPDEST PUSH1 0x40 MLOAD PUSH1 0x20 DUP2 DUP4 SUB SUB DUP2 MSTORE SWAP1 PUSH1 0x40 MSTORE SWAP1 POP JUMPDEST SWAP2 SWAP1 POP JUMP JUMPDEST PUSH1 0x2 PUSH0 SWAP1 SLOAD SWAP1 PUSH2 0x100 EXP SWAP1 DIV PUSH20 0xFFFFFFFFFFFFFFFFFFFFFFFFFFFFFFFFFFFFFFFF AND PUSH20 0xFFFFFFFFFFFFFFFFFFFFFFFFFFFFFFFFFFFFFFFF AND CALLER PUSH20 0xFFFFFFFFFFFFFFFFFFFFFFFFFFFFFFFFFFFFFFFF AND EQ PUSH2 0x1469 JUMPI PUSH1 0x40 MLOAD PUSH32 0x8C379A000000000000000000000000000000000000000000000000000000000 DUP2 MSTORE PUSH1 0x4 ADD PUSH2 0x1460 SWAP1 PUSH2 0x1C7E JUMP JUMPDEST PUSH1 0x40 MLOAD DUP1 SWAP2 SUB SWAP1 REVERT JUMPDEST PUSH1 0x1 PUSH1 0xA PUSH0 DUP4 PUSH20 0xFFFFFFFFFFFFFFFFFFFFFFFFFFFFFFFFFFFFFFFF AND PUSH20 0xFFFFFFFFFFFFFFFFFFFFFFFFFFFFFFFFFFFFFFFF AND DUP2 MSTORE PUSH1 0x20 ADD SWAP1 DUP2 MSTORE PUSH1 0x20 ADD PUSH0 KECCAK256 PUSH0 PUSH2 0x100 EXP DUP2 SLOAD DUP2 PUSH1 0xFF MUL NOT AND SWAP1 DUP4 ISZERO ISZERO MUL OR SWAP1 SSTORE POP DUP1 PUSH20 0xFFFFFFFFFFFFFFFFFFFFFFFFFFFFFFFFFFFFFFFF AND PUSH32 0xAAB7954E9D246B167EF88AEDDAD35209CA2489D95A8AEB59E288D9B19FAE5A54 PUSH1 0x40 MLOAD PUSH1 0x40 MLOAD DUP1 SWAP2 SUB SWAP1 LOG2 POP JUMP JUMPDEST PUSH1 0x2 PUSH0 SWAP1 SLOAD SWAP1 PUSH2 0x100 EXP SWAP1 DIV PUSH20 0xFFFFFFFFFFFFFFFFFFFFFFFFFFFFFFFFFFFFFFFF AND PUSH20 0xFFFFFFFFFFFFFFFFFFFFFFFFFFFFFFFFFFFFFFFF AND CALLER PUSH20 0xFFFFFFFFFFFFFFFFFFFFFFFFFFFFFFFFFFFFFFFF AND EQ PUSH2 0x1593 JUMPI PUSH1 0x40 MLOAD PUSH32 0x8C379A000000000000000000000000000000000000000000000000000000000 DUP2 MSTORE PUSH1 0x4 ADD PUSH2 0x158A SWAP1 PUSH2 0x1C7E JUMP JUMPDEST PUSH1 0x40 MLOAD DUP1 SWAP2 SUB SWAP1 REVERT JUMPDEST DUP1 PUSH1 0x5 SWAP1 DUP2 PUSH2 0x15A2 SWAP2 SWAP1 PUSH2 0x2007 JUMP JUMPDEST POP POP JUMP JUMPDEST PUSH1 0x60 PUSH0 DUP3 SUB PUSH2 0x15EC JUMPI PUSH1 0x40 MLOAD DUP1 PUSH1 0x40 ADD PUSH1 0x40 MSTORE DUP1 PUSH1 0x1 DUP2 MSTORE PUSH1 0x20 ADD PUSH32 0x3000000000000000000000000000000000000000000000000000000000000000 DUP2 MSTORE POP SWAP1 POP PUSH2 0x16FA JUMP JUMPDEST PUSH0 DUP3 SWAP1 POP PUSH0 JUMPDEST PUSH0 DUP3 EQ PUSH2 0x161B JUMPI DUP1 DUP1 PUSH2 0x1604 SWAP1 PUSH2 0x2340 JUMP JUMPDEST SWAP2 POP POP PUSH1 0xA DUP3 PUSH2 0x1614 SWAP2 SWAP1 PUSH2 0x23B4 JUMP JUMPDEST SWAP2 POP PUSH2 0x15F2 JUMP JUMPDEST PUSH0 DUP2 PUSH8 0xFFFFFFFFFFFFFFFF DUP2 GT ISZERO PUSH2 0x1636 JUMPI PUSH2 0x1635 PUSH2 0x199C JUMP JUMPDEST JUMPDEST PUSH1 0x40 MLOAD SWAP1 DUP1 DUP3 MSTORE DUP1 PUSH1 0x1F ADD PUSH1 0x1F NOT AND PUSH1 0x20 ADD DUP3 ADD PUSH1 0x40 MSTORE DUP1 ISZERO PUSH2 0x1668 JUMPI DUP2 PUSH1 0x20 ADD PUSH1 0x1 DUP3 MUL DUP1 CALLDATASIZE DUP4 CALLDATACOPY DUP1 DUP3 ADD SWAP2 POP POP SWAP1 POP JUMPDEST POP SWAP1 POP JUMPDEST PUSH0 DUP6 EQ PUSH2 0x16F3 JUMPI PUSH1 0x1 DUP3 PUSH2 0x1680 SWAP2 SWAP1 PUSH2 0x1E34 JUMP JUMPDEST SWAP2 POP PUSH1 0xA DUP6 PUSH2 0x168F SWAP2 SWAP1 PUSH2 0x23E4 JUMP JUMPDEST PUSH1 0x30 PUSH2 0x169B SWAP2 SWAP1 PUSH2 0x1D31 JUMP JUMPDEST PUSH1 0xF8 SHL DUP2 DUP4 DUP2 MLOAD DUP2 LT PUSH2 0x16B1 JUMPI PUSH2 0x16B0 PUSH2 0x2414 JUMP JUMPDEST JUMPDEST PUSH1 0x20 ADD ADD SWAP1 PUSH31 0xFFFFFFFFFFFFFFFFFFFFFFFFFFFFFFFFFFFFFFFFFFFFFFFFFFFFFFFFFFFFFF NOT AND SWAP1 DUP2 PUSH0 BYTE SWAP1 MSTORE8 POP PUSH1 0xA DUP6 PUSH2 0x16EC SWAP2 SWAP1 PUSH2 0x23B4 JUMP JUMPDEST SWAP5 POP PUSH2 0x166C JUMP JUMPDEST DUP1 SWAP4 POP POP POP POP JUMPDEST SWAP2 SWAP1 POP JUMP JUMPDEST PUSH0 DUP2 MLOAD SWAP1 POP SWAP2 SWAP1 POP JUMP JUMPDEST PUSH0 DUP3 DUP3 MSTORE PUSH1 0x20 DUP3 ADD SWAP1 POP SWAP3 SWAP2 POP POP JUMP JUMPDEST DUP3 DUP2 DUP4 MCOPY PUSH0 DUP4 DUP4 ADD MSTORE POP POP POP JUMP JUMPDEST PUSH0 PUSH1 0x1F NOT PUSH1 0x1F DUP4 ADD AND SWAP1 POP SWAP2 SWAP1 POP JUMP JUMPDEST PUSH0 PUSH2 0x1741 DUP3 PUSH2 0x16FF JUMP JUMPDEST PUSH2 0x174B DUP2 DUP6 PUSH2 0x1709 JUMP JUMPDEST SWAP4 POP PUSH2 0x175B DUP2 DUP6 PUSH1 0x20 DUP7 ADD PUSH2 0x1719 JUMP JUMPDEST PUSH2 0x1764 DUP2 PUSH2 0x1727 JUMP JUMPDEST DUP5 ADD SWAP2 POP POP SWAP3 SWAP2 POP POP JUMP JUMPDEST PUSH0 PUSH1 0x20 DUP3 ADD SWAP1 POP DUP2 DUP2 SUB PUSH0 DUP4 ADD MSTORE PUSH2 0x1787 DUP2 DUP5 PUSH2 0x1737 JUMP JUMPDEST SWAP1 POP SWAP3 SWAP2 POP POP JUMP JUMPDEST PUSH0 PUSH1 0x40 MLOAD SWAP1 POP SWAP1 JUMP JUMPDEST PUSH0 PUSH0 REVERT JUMPDEST PUSH0 PUSH0 REVERT JUMPDEST PUSH0 DUP2 SWAP1 POP SWAP2 SWAP1 POP JUMP JUMPDEST PUSH2 0x17B2 DUP2 PUSH2 0x17A0 JUMP JUMPDEST DUP2 EQ PUSH2 0x17BC JUMPI PUSH0 PUSH0 REVERT JUMPDEST POP JUMP JUMPDEST PUSH0 DUP2 CALLDATALOAD SWAP1 POP PUSH2 0x17CD DUP2 PUSH2 0x17A9 JUMP JUMPDEST SWAP3 SWAP2 POP POP JUMP JUMPDEST PUSH0 PUSH1 0x20 DUP3 DUP5 SUB SLT ISZERO PUSH2 0x17E8 JUMPI PUSH2 0x17E7 PUSH2 0x1798 JUMP JUMPDEST JUMPDEST PUSH0 PUSH2 0x17F5 DUP5 DUP3 DUP6 ADD PUSH2 0x17BF JUMP JUMPDEST SWAP2 POP POP SWAP3 SWAP2 POP POP JUMP JUMPDEST PUSH0 PUSH20 0xFFFFFFFFFFFFFFFFFFFFFFFFFFFFFFFFFFFFFFFF DUP3 AND SWAP1 POP SWAP2 SWAP1 POP JUMP JUMPDEST PUSH0 PUSH2 0x1827 DUP3 PUSH2 0x17FE JUMP JUMPDEST SWAP1 POP SWAP2 SWAP1 POP JUMP JUMPDEST PUSH2 0x1837 DUP2 PUSH2 0x181D JUMP JUMPDEST DUP3 MSTORE POP POP JUMP JUMPDEST PUSH0 PUSH1 0x20 DUP3 ADD SWAP1 POP PUSH2 0x1850 PUSH0 DUP4 ADD DUP5 PUSH2 0x182E JUMP JUMPDEST SWAP3 SWAP2 POP POP JUMP JUMPDEST PUSH2 0x185F DUP2 PUSH2 0x181D JUMP JUMPDEST DUP2 EQ PUSH2 0x1869 JUMPI PUSH0 PUSH0 REVERT JUMPDEST POP JUMP JUMPDEST PUSH0 DUP2 CALLDATALOAD SWAP1 POP PUSH2 0x187A DUP2 PUSH2 0x1856 JUMP JUMPDEST SWAP3 SWAP2 POP POP JUMP JUMPDEST PUSH0 PUSH0 PUSH1 0x40 DUP4 DUP6 SUB SLT ISZERO PUSH2 0x1896 JUMPI PUSH2 0x1895 PUSH2 0x1798 JUMP JUMPDEST JUMPDEST PUSH0 PUSH2 0x18A3 DUP6 DUP3 DUP7 ADD PUSH2 0x186C JUMP JUMPDEST SWAP3 POP POP PUSH1 0x20 PUSH2 0x18B4 DUP6 DUP3 DUP7 ADD PUSH2 0x17BF JUMP JUMPDEST SWAP2 POP POP SWAP3 POP SWAP3 SWAP1 POP JUMP JUMPDEST PUSH2 0x18C7 DUP2 PUSH2 0x17A0 JUMP JUMPDEST DUP3 MSTORE POP POP JUMP JUMPDEST PUSH0 PUSH1 0x20 DUP3 ADD SWAP1 POP PUSH2 0x18E0 PUSH0 DUP4 ADD DUP5 PUSH2 0x18BE JUMP JUMPDEST SWAP3 SWAP2 POP POP JUMP JUMPDEST PUSH0 PUSH1 0x20 DUP3 DUP5 SUB SLT ISZERO PUSH2 0x18FB JUMPI PUSH2 0x18FA PUSH2 0x1798 JUMP JUMPDEST JUMPDEST PUSH0 PUSH2 0x1908 DUP5 DUP3 DUP6 ADD PUSH2 0x186C JUMP JUMPDEST SWAP2 POP POP SWAP3 SWAP2 POP POP JUMP JUMPDEST PUSH0 PUSH0 PUSH0 PUSH1 0x60 DUP5 DUP7 SUB SLT ISZERO PUSH2 0x1928 JUMPI PUSH2 0x1927 PUSH2 0x1798 JUMP JUMPDEST JUMPDEST PUSH0 PUSH2 0x1935 DUP7 DUP3 DUP8 ADD PUSH2 0x186C JUMP JUMPDEST SWAP4 POP POP PUSH1 0x20 PUSH2 0x1946 DUP7 DUP3 DUP8 ADD PUSH2 0x186C JUMP JUMPDEST SWAP3 POP POP PUSH1 0x40 PUSH2 0x1957 DUP7 DUP3 DUP8 ADD PUSH2 0x17BF JUMP JUMPDEST SWAP2 POP POP SWAP3 POP SWAP3 POP SWAP3 JUMP JUMPDEST PUSH0 DUP2 ISZERO ISZERO SWAP1 POP SWAP2 SWAP1 POP JUMP JUMPDEST PUSH2 0x1975 DUP2 PUSH2 0x1961 JUMP JUMPDEST DUP3 MSTORE POP POP JUMP JUMPDEST PUSH0 PUSH1 0x20 DUP3 ADD SWAP1 POP PUSH2 0x198E PUSH0 DUP4 ADD DUP5 PUSH2 0x196C JUMP JUMPDEST SWAP3 SWAP2 POP POP JUMP JUMPDEST PUSH0 PUSH0 REVERT JUMPDEST PUSH0 PUSH0 REVERT JUMPDEST PUSH32 0x4E487B7100000000000000000000000000000000000000000000000000000000 PUSH0 MSTORE PUSH1 0x41 PUSH1 0x4 MSTORE PUSH1 0x24 PUSH0 REVERT JUMPDEST PUSH2 0x19D2 DUP3 PUSH2 0x1727 JUMP JUMPDEST DUP2 ADD DUP2 DUP2 LT PUSH8 0xFFFFFFFFFFFFFFFF DUP3 GT OR ISZERO PUSH2 0x19F1 JUMPI PUSH2 0x19F0 PUSH2 0x199C JUMP JUMPDEST JUMPDEST DUP1 PUSH1 0x40 MSTORE POP POP POP JUMP JUMPDEST PUSH0 PUSH2 0x1A03 PUSH2 0x178F JUMP JUMPDEST SWAP1 POP PUSH2 0x1A0F DUP3 DUP3 PUSH2 0x19C9 JUMP JUMPDEST SWAP2 SWAP1 POP JUMP JUMPDEST PUSH0 PUSH8 0xFFFFFFFFFFFFFFFF DUP3 GT ISZERO PUSH2 0x1A2E JUMPI PUSH2 0x1A2D PUSH2 0x199C JUMP JUMPDEST JUMPDEST PUSH2 0x1A37 DUP3 PUSH2 0x1727 JUMP JUMPDEST SWAP1 POP PUSH1 0x20 DUP2 ADD SWAP1 POP SWAP2 SWAP1 POP JUMP JUMPDEST DUP3 DUP2 DUP4 CALLDATACOPY PUSH0 DUP4 DUP4 ADD MSTORE POP POP POP JUMP JUMPDEST PUSH0 PUSH2 0x1A64 PUSH2 0x1A5F DUP5 PUSH2 0x1A14 JUMP JUMPDEST PUSH2 0x19FA JUMP JUMPDEST SWAP1 POP DUP3 DUP2 MSTORE PUSH1 0x20 DUP2 ADD DUP5 DUP5 DUP5 ADD GT ISZERO PUSH2 0x1A80 JUMPI PUSH2 0x1A7F PUSH2 0x1998 JUMP JUMPDEST JUMPDEST PUSH2 0x1A8B DUP5 DUP3 DUP6 PUSH2 0x1A44 JUMP JUMPDEST POP SWAP4 SWAP3 POP POP POP JUMP JUMPDEST PUSH0 DUP3 PUSH1 0x1F DUP4 ADD SLT PUSH2 0x1AA7 JUMPI PUSH2 0x1AA6 PUSH2 0x1994 JUMP JUMPDEST JUMPDEST DUP2 CALLDATALOAD PUSH2 0x1AB7 DUP5 DUP3 PUSH1 0x20 DUP7 ADD PUSH2 0x1A52 JUMP JUMPDEST SWAP2 POP POP SWAP3 SWAP2 POP POP JUMP JUMPDEST PUSH0 PUSH1 0x20 DUP3 DUP5 SUB SLT ISZERO PUSH2 0x1AD5 JUMPI PUSH2 0x1AD4 PUSH2 0x1798 JUMP JUMPDEST JUMPDEST PUSH0 DUP3 ADD CALLDATALOAD PUSH8 0xFFFFFFFFFFFFFFFF DUP2 GT ISZERO PUSH2 0x1AF2 JUMPI PUSH2 0x1AF1 PUSH2 0x179C JUMP JUMPDEST JUMPDEST PUSH2 0x1AFE DUP5 DUP3 DUP6 ADD PUSH2 0x1A93 JUMP JUMPDEST SWAP2 POP POP SWAP3 SWAP2 POP POP JUMP JUMPDEST PUSH32 0x4E487B7100000000000000000000000000000000000000000000000000000000 PUSH0 MSTORE PUSH1 0x22 PUSH1 0x4 MSTORE PUSH1 0x24 PUSH0 REVERT JUMPDEST PUSH0 PUSH1 0x2 DUP3 DIV SWAP1 POP PUSH1 0x1 DUP3 AND DUP1 PUSH2 0x1B4B JUMPI PUSH1 0x7F DUP3 AND SWAP2 POP JUMPDEST PUSH1 0x20 DUP3 LT DUP2 SUB PUSH2 0x1B5E JUMPI PUSH2 0x1B5D PUSH2 0x1B07 JUMP JUMPDEST JUMPDEST POP SWAP2 SWAP1 POP JUMP JUMPDEST PUSH32 0x4E6F7420746F6B656E206F776E65720000000000000000000000000000000000 PUSH0 DUP3 ADD MSTORE POP JUMP JUMPDEST PUSH0 PUSH2 0x1B98 PUSH1 0xF DUP4 PUSH2 0x1709 JUMP JUMPDEST SWAP2 POP PUSH2 0x1BA3 DUP3 PUSH2 0x1B64 JUMP JUMPDEST PUSH1 0x20 DUP3 ADD SWAP1 POP SWAP2 SWAP1 POP JUMP JUMPDEST PUSH0 PUSH1 0x20 DUP3 ADD SWAP1 POP DUP2 DUP2 SUB PUSH0 DUP4 ADD MSTORE PUSH2 0x1BC5 DUP2 PUSH2 0x1B8C JUMP JUMPDEST SWAP1 POP SWAP2 SWAP1 POP JUMP JUMPDEST PUSH32 0x43616E6E6F7420617070726F76652063757272656E74206F776E657200000000 PUSH0 DUP3 ADD MSTORE POP JUMP JUMPDEST PUSH0 PUSH2 0x1C00 PUSH1 0x1C DUP4 PUSH2 0x1709 JUMP JUMPDEST SWAP2 POP PUSH2 0x1C0B DUP3 PUSH2 0x1BCC JUMP JUMPDEST PUSH1 0x20 DUP3 ADD SWAP1 POP SWAP2 SWAP1 POP JUMP JUMPDEST PUSH0 PUSH1 0x20 DUP3 ADD SWAP1 POP DUP2 DUP2 SUB PUSH0 DUP4 ADD MSTORE PUSH2 0x1C2D DUP2 PUSH2 0x1BF4 JUMP JUMPDEST SWAP1 POP SWAP2 SWAP1 POP JUMP JUMPDEST PUSH32 0x4E6F7420636F6E7472616374206F776E65720000000000000000000000000000 PUSH0 DUP3 ADD MSTORE POP JUMP JUMPDEST PUSH0 PUSH2 0x1C68 PUSH1 0x12 DUP4 PUSH2 0x1709 JUMP JUMPDEST SWAP2 POP PUSH2 0x1C73 DUP3 PUSH2 0x1C34 JUMP JUMPDEST PUSH1 0x20 DUP3 ADD SWAP1 POP SWAP2 SWAP1 POP JUMP JUMPDEST PUSH0 PUSH1 0x20 DUP3 ADD SWAP1 POP DUP2 DUP2 SUB PUSH0 DUP4 ADD MSTORE PUSH2 0x1C95 DUP2 PUSH2 0x1C5C JUMP JUMPDEST SWAP1 POP SWAP2 SWAP1 POP JUMP JUMPDEST PUSH32 0x5A65726F20616464726573730000000000000000000000000000000000000000 PUSH0 DUP3 ADD MSTORE POP JUMP JUMPDEST PUSH0 PUSH2 0x1CD0 PUSH1 0xC DUP4 PUSH2 0x1709 JUMP JUMPDEST SWAP2 POP PUSH2 0x1CDB DUP3 PUSH2 0x1C9C JUMP JUMPDEST PUSH1 0x20 DUP3 ADD SWAP1 POP SWAP2 SWAP1 POP JUMP JUMPDEST PUSH0 PUSH1 0x20 DUP3 ADD SWAP1 POP DUP2 DUP2 SUB PUSH0 DUP4 ADD MSTORE PUSH2 0x1CFD DUP2 PUSH2 0x1CC4 JUMP JUMPDEST SWAP1 POP SWAP2 SWAP1 POP JUMP JUMPDEST PUSH32 0x4E487B7100000000000000000000000000000000000000000000000000000000 PUSH0 MSTORE PUSH1 0x11 PUSH1 0x4 MSTORE PUSH1 0x24 PUSH0 REVERT JUMPDEST PUSH0 PUSH2 0x1D3B DUP3 PUSH2 0x17A0 JUMP JUMPDEST SWAP2 POP PUSH2 0x1D46 DUP4 PUSH2 0x17A0 JUMP JUMPDEST SWAP3 POP DUP3 DUP3 ADD SWAP1 POP DUP1 DUP3 GT ISZERO PUSH2 0x1D5E JUMPI PUSH2 0x1D5D PUSH2 0x1D04 JUMP JUMPDEST JUMPDEST SWAP3 SWAP2 POP POP JUMP JUMPDEST PUSH32 0x43616E6E6F74207472616E7366657220746F207A65726F206164647265737300 PUSH0 DUP3 ADD MSTORE POP JUMP JUMPDEST PUSH0 PUSH2 0x1D98 PUSH1 0x1F DUP4 PUSH2 0x1709 JUMP JUMPDEST SWAP2 POP PUSH2 0x1DA3 DUP3 PUSH2 0x1D64 JUMP JUMPDEST PUSH1 0x20 DUP3 ADD SWAP1 POP SWAP2 SWAP1 POP JUMP JUMPDEST PUSH0 PUSH1 0x20 DUP3 ADD SWAP1 POP DUP2 DUP2 SUB PUSH0 DUP4 ADD MSTORE PUSH2 0x1DC5 DUP2 PUSH2 0x1D8C JUMP JUMPDEST SWAP1 POP SWAP2 SWAP1 POP JUMP JUMPDEST PUSH32 0x4E6F7420617070726F7665640000000000000000000000000000000000000000 PUSH0 DUP3 ADD MSTORE POP JUMP JUMPDEST PUSH0 PUSH2 0x1E00 PUSH1 0xC DUP4 PUSH2 0x1709 JUMP JUMPDEST SWAP2 POP PUSH2 0x1E0B DUP3 PUSH2 0x1DCC JUMP JUMPDEST PUSH1 0x20 DUP3 ADD SWAP1 POP SWAP2 SWAP1 POP JUMP JUMPDEST PUSH0 PUSH1 0x20 DUP3 ADD SWAP1 POP DUP2 DUP2 SUB PUSH0 DUP4 ADD MSTORE PUSH2 0x1E2D DUP2 PUSH2 0x1DF4 JUMP JUMPDEST SWAP1 POP SWAP2 SWAP1 POP JUMP JUMPDEST PUSH0 PUSH2 0x1E3E DUP3 PUSH2 0x17A0 JUMP JUMPDEST SWAP2 POP PUSH2 0x1E49 DUP4 PUSH2 0x17A0 JUMP JUMPDEST SWAP3 POP DUP3 DUP3 SUB SWAP1 POP DUP2 DUP2 GT ISZERO PUSH2 0x1E61 JUMPI PUSH2 0x1E60 PUSH2 0x1D04 JUMP JUMPDEST JUMPDEST SWAP3 SWAP2 POP POP JUMP JUMPDEST PUSH0 DUP2 SWAP1 POP DUP2 PUSH0 MSTORE PUSH1 0x20 PUSH0 KECCAK256 SWAP1 POP SWAP2 SWAP1 POP JUMP JUMPDEST PUSH0 PUSH1 0x20 PUSH1 0x1F DUP4 ADD DIV SWAP1 POP SWAP2 SWAP1 POP JUMP JUMPDEST PUSH0 DUP3 DUP3 SHL SWAP1 POP SWAP3 SWAP2 POP POP JUMP JUMPDEST PUSH0 PUSH1 0x8 DUP4 MUL PUSH2 0x1EC3 PUSH32 0xFFFFFFFFFFFFFFFFFFFFFFFFFFFFFFFFFFFFFFFFFFFFFFFFFFFFFFFFFFFFFFFF DUP3 PUSH2 0x1E88 JUMP JUMPDEST PUSH2 0x1ECD DUP7 DUP4 PUSH2 0x1E88 JUMP JUMPDEST SWAP6 POP DUP1 NOT DUP5 AND SWAP4 POP DUP1 DUP7 AND DUP5 OR SWAP3 POP POP POP SWAP4 SWAP3 POP POP POP JUMP JUMPDEST PUSH0 DUP2 SWAP1 POP SWAP2 SWAP1 POP JUMP JUMPDEST PUSH0 PUSH2 0x1F08 PUSH2 0x1F03 PUSH2 0x1EFE DUP5 PUSH2 0x17A0 JUMP JUMPDEST PUSH2 0x1EE5 JUMP JUMPDEST PUSH2 0x17A0 JUMP JUMPDEST SWAP1 POP SWAP2 SWAP1 POP JUMP JUMPDEST PUSH0 DUP2 SWAP1 POP SWAP2 SWAP1 POP JUMP JUMPDEST PUSH2 0x1F21 DUP4 PUSH2 0x1EEE JUMP JUMPDEST PUSH2 0x1F35 PUSH2 0x1F2D DUP3 PUSH2 0x1F0F JUMP JUMPDEST DUP5 DUP5 SLOAD PUSH2 0x1E94 JUMP JUMPDEST DUP3 SSTORE POP POP POP POP JUMP JUMPDEST PUSH0 PUSH0 SWAP1 POP SWAP1 JUMP JUMPDEST PUSH2 0x1F4C PUSH2 0x1F3D JUMP JUMPDEST PUSH2 0x1F57 DUP2 DUP5 DUP5 PUSH2 0x1F18 JUMP JUMPDEST POP POP POP JUMP JUMPDEST JUMPDEST DUP2 DUP2 LT ISZERO PUSH2 0x1F7A JUMPI PUSH2 0x1F6F PUSH0 DUP3 PUSH2 0x1F44 JUMP JUMPDEST PUSH1 0x1 DUP2 ADD SWAP1 POP PUSH2 0x1F5D JUMP JUMPDEST POP POP JUMP JUMPDEST PUSH1 0x1F DUP3 GT ISZERO PUSH2 0x1FBF JUMPI PUSH2 0x1F90 DUP2 PUSH2 0x1E67 JUMP JUMPDEST PUSH2 0x1F99 DUP5 PUSH2 0x1E79 JUMP JUMPDEST DUP2 ADD PUSH1 0x20 DUP6 LT ISZERO PUSH2 0x1FA8 JUMPI DUP2 SWAP1 POP JUMPDEST PUSH2 0x1FBC PUSH2 0x1FB4 DUP6 PUSH2 0x1E79 JUMP JUMPDEST DUP4 ADD DUP3 PUSH2 0x1F5C JUMP JUMPDEST POP POP JUMPDEST POP POP POP JUMP JUMPDEST PUSH0 DUP3 DUP3 SHR SWAP1 POP SWAP3 SWAP2 POP POP JUMP JUMPDEST PUSH0 PUSH2 0x1FDF PUSH0 NOT DUP5 PUSH1 0x8 MUL PUSH2 0x1FC4 JUMP JUMPDEST NOT DUP1 DUP4 AND SWAP2 POP POP SWAP3 SWAP2 POP POP JUMP JUMPDEST PUSH0 PUSH2 0x1FF7 DUP4 DUP4 PUSH2 0x1FD0 JUMP JUMPDEST SWAP2 POP DUP3 PUSH1 0x2 MUL DUP3 OR SWAP1 POP SWAP3 SWAP2 POP POP JUMP JUMPDEST PUSH2 0x2010 DUP3 PUSH2 0x16FF JUMP JUMPDEST PUSH8 0xFFFFFFFFFFFFFFFF DUP2 GT ISZERO PUSH2 0x2029 JUMPI PUSH2 0x2028 PUSH2 0x199C JUMP JUMPDEST JUMPDEST PUSH2 0x2033 DUP3 SLOAD PUSH2 0x1B34 JUMP JUMPDEST PUSH2 0x203E DUP3 DUP3 DUP6 PUSH2 0x1F7E JUMP JUMPDEST PUSH0 PUSH1 0x20 SWAP1 POP PUSH1 0x1F DUP4 GT PUSH1 0x1 DUP2 EQ PUSH2 0x206F JUMPI PUSH0 DUP5 ISZERO PUSH2 0x205D JUMPI DUP3 DUP8 ADD MLOAD SWAP1 POP JUMPDEST PUSH2 0x2067 DUP6 DUP3 PUSH2 0x1FEC JUMP JUMPDEST DUP7 SSTORE POP PUSH2 0x20CE JUMP JUMPDEST PUSH1 0x1F NOT DUP5 AND PUSH2 0x207D DUP7 PUSH2 0x1E67 JUMP JUMPDEST PUSH0 JUMPDEST DUP3 DUP2 LT ISZERO PUSH2 0x20A4 JUMPI DUP5 DUP10 ADD MLOAD DUP3 SSTORE PUSH1 0x1 DUP3 ADD SWAP2 POP PUSH1 0x20 DUP6 ADD SWAP5 POP PUSH1 0x20 DUP2 ADD SWAP1 POP PUSH2 0x207F JUMP JUMPDEST DUP7 DUP4 LT ISZERO PUSH2 0x20C1 JUMPI DUP5 DUP10 ADD MLOAD PUSH2 0x20BD PUSH1 0x1F DUP10 AND DUP3 PUSH2 0x1FD0 JUMP JUMPDEST DUP4 SSTORE POP JUMPDEST PUSH1 0x1 PUSH1 0x2 DUP9 MUL ADD DUP9 SSTORE POP POP POP JUMPDEST POP POP POP POP POP POP JUMP JUMPDEST PUSH32 0x546F6B656E20646F65736E277420657869737400000000000000000000000000 PUSH0 DUP3 ADD MSTORE POP JUMP JUMPDEST PUSH0 PUSH2 0x210A PUSH1 0x13 DUP4 PUSH2 0x1709 JUMP JUMPDEST SWAP2 POP PUSH2 0x2115 DUP3 PUSH2 0x20D6 JUMP JUMPDEST PUSH1 0x20 DUP3 ADD SWAP1 POP SWAP2 SWAP1 POP JUMP JUMPDEST PUSH0 PUSH1 0x20 DUP3 ADD SWAP1 POP DUP2 DUP2 SUB PUSH0 DUP4 ADD MSTORE PUSH2 0x2137 DUP2 PUSH2 0x20FE JUMP JUMPDEST SWAP1 POP SWAP2 SWAP1 POP JUMP JUMPDEST PUSH32 0x4E6F742077686974656C69737465640000000000000000000000000000000000 PUSH0 DUP3 ADD MSTORE POP JUMP JUMPDEST PUSH0 PUSH2 0x2172 PUSH1 0xF DUP4 PUSH2 0x1709 JUMP JUMPDEST SWAP2 POP PUSH2 0x217D DUP3 PUSH2 0x213E JUMP JUMPDEST PUSH1 0x20 DUP3 ADD SWAP1 POP SWAP2 SWAP1 POP JUMP JUMPDEST PUSH0 PUSH1 0x20 DUP3 ADD SWAP1 POP DUP2 DUP2 SUB PUSH0 DUP4 ADD MSTORE PUSH2 0x219F DUP2 PUSH2 0x2166 JUMP JUMPDEST SWAP1 POP SWAP2 SWAP1 POP JUMP JUMPDEST PUSH32 0x5A65726F2061646472657373206E6F7420616C6C6F7765640000000000000000 PUSH0 DUP3 ADD MSTORE POP JUMP JUMPDEST PUSH0 PUSH2 0x21DA PUSH1 0x18 DUP4 PUSH2 0x1709 JUMP JUMPDEST SWAP2 POP PUSH2 0x21E5 DUP3 PUSH2 0x21A6 JUMP JUMPDEST PUSH1 0x20 DUP3 ADD SWAP1 POP SWAP2 SWAP1 POP JUMP JUMPDEST PUSH0 PUSH1 0x20 DUP3 ADD SWAP1 POP DUP2 DUP2 SUB PUSH0 DUP4 ADD MSTORE PUSH2 0x2207 DUP2 PUSH2 0x21CE JUMP JUMPDEST SWAP1 POP SWAP2 SWAP1 POP JUMP JUMPDEST PUSH0 DUP2 SWAP1 POP SWAP3 SWAP2 POP POP JUMP JUMPDEST PUSH0 DUP2 SLOAD PUSH2 0x2224 DUP2 PUSH2 0x1B34 JUMP JUMPDEST PUSH2 0x222E DUP2 DUP7 PUSH2 0x220E JUMP JUMPDEST SWAP5 POP PUSH1 0x1 DUP3 AND PUSH0 DUP2 EQ PUSH2 0x2248 JUMPI PUSH1 0x1 DUP2 EQ PUSH2 0x225D JUMPI PUSH2 0x228F JUMP JUMPDEST PUSH1 0xFF NOT DUP4 AND DUP7 MSTORE DUP2 ISZERO ISZERO DUP3 MUL DUP7 ADD SWAP4 POP PUSH2 0x228F JUMP JUMPDEST PUSH2 0x2266 DUP6 PUSH2 0x1E67 JUMP JUMPDEST PUSH0 JUMPDEST DUP4 DUP2 LT ISZERO PUSH2 0x2287 JUMPI DUP2 SLOAD DUP2 DUP10 ADD MSTORE PUSH1 0x1 DUP3 ADD SWAP2 POP PUSH1 0x20 DUP2 ADD SWAP1 POP PUSH2 0x2268 JUMP JUMPDEST DUP4 DUP9 ADD SWAP6 POP POP POP JUMPDEST POP POP POP SWAP3 SWAP2 POP POP JUMP JUMPDEST PUSH0 PUSH2 0x22A2 DUP3 PUSH2 0x16FF JUMP JUMPDEST PUSH2 0x22AC DUP2 DUP6 PUSH2 0x220E JUMP JUMPDEST SWAP4 POP PUSH2 0x22BC DUP2 DUP6 PUSH1 0x20 DUP7 ADD PUSH2 0x1719 JUMP JUMPDEST DUP1 DUP5 ADD SWAP2 POP POP SWAP3 SWAP2 POP POP JUMP JUMPDEST PUSH32 0x2E6A736F6E000000000000000000000000000000000000000000000000000000 PUSH0 DUP3 ADD MSTORE POP JUMP JUMPDEST PUSH0 PUSH2 0x22FC PUSH1 0x5 DUP4 PUSH2 0x220E JUMP JUMPDEST SWAP2 POP PUSH2 0x2307 DUP3 PUSH2 0x22C8 JUMP JUMPDEST PUSH1 0x5 DUP3 ADD SWAP1 POP SWAP2 SWAP1 POP JUMP JUMPDEST PUSH0 PUSH2 0x231D DUP3 DUP6 PUSH2 0x2218 JUMP JUMPDEST SWAP2 POP PUSH2 0x2329 DUP3 DUP5 PUSH2 0x2298 JUMP JUMPDEST SWAP2 POP PUSH2 0x2334 DUP3 PUSH2 0x22F0 JUMP JUMPDEST SWAP2 POP DUP2 SWAP1 POP SWAP4 SWAP3 POP POP POP JUMP JUMPDEST PUSH0 PUSH2 0x234A DUP3 PUSH2 0x17A0 JUMP JUMPDEST SWAP2 POP PUSH32 0xFFFFFFFFFFFFFFFFFFFFFFFFFFFFFFFFFFFFFFFFFFFFFFFFFFFFFFFFFFFFFFFF DUP3 SUB PUSH2 0x237C JUMPI PUSH2 0x237B PUSH2 0x1D04 JUMP JUMPDEST JUMPDEST PUSH1 0x1 DUP3 ADD SWAP1 POP SWAP2 SWAP1 POP JUMP JUMPDEST PUSH32 0x4E487B7100000000000000000000000000000000000000000000000000000000 PUSH0 MSTORE PUSH1 0x12 PUSH1 0x4 MSTORE PUSH1 0x24 PUSH0 REVERT JUMPDEST PUSH0 PUSH2 0x23BE DUP3 PUSH2 0x17A0 JUMP JUMPDEST SWAP2 POP PUSH2 0x23C9 DUP4 PUSH2 0x17A0 JUMP JUMPDEST SWAP3 POP DUP3 PUSH2 0x23D9 JUMPI PUSH2 0x23D8 PUSH2 0x2387 JUMP JUMPDEST JUMPDEST DUP3 DUP3 DIV SWAP1 POP SWAP3 SWAP2 POP POP JUMP JUMPDEST PUSH0 PUSH2 0x23EE DUP3 PUSH2 0x17A0 JUMP JUMPDEST SWAP2 POP PUSH2 0x23F9 DUP4 PUSH2 0x17A0 JUMP JUMPDEST SWAP3 POP DUP3 PUSH2 0x2409 JUMPI PUSH2 0x2408 PUSH2 0x2387 JUMP JUMPDEST JUMPDEST DUP3 DUP3 MOD SWAP1 POP SWAP3 SWAP2 POP POP JUMP JUMPDEST PUSH32 0x4E487B7100000000000000000000000000000000000000000000000000000000 PUSH0 MSTORE PUSH1 0x32 PUSH1 0x4 MSTORE PUSH1 0x24 PUSH0 REVERT INVALID LOG2 PUSH5 0x6970667358 0x22 SLT KECCAK256 0xF6 RETURN 0xF DUP5 DUP16 CALLER 0xC8 0xF SWAP8 EXTCODECOPY CODESIZE RJUMPI 0x886E 0xAA 0xD9 0xCA 0xB9 LOG2 EXTCALL 0x2E EXP SWAP13 EOFCREATE 0x39 MSTORE DUP6 0xA5 0x22 PUSH15 0xFBF864736F6C634300081E00330000 "
				},
				"gasEstimates": {
					"creation": {
						"codeDepositCost": "1867000",
						"executionCost": "infinite",
						"totalCost": "infinite"
					},
					"external": {
						"addToWhitelist(address)": "28221",
						"approve(address,uint256)": "29332",
						"balanceOf(address)": "2930",
						"getApproved(uint256)": "2898",
						"isWhitelisted(address)": "2937",
						"name()": "infinite",
						"owner()": "2619",
						"ownerOf(uint256)": "2963",
						"removeFromWhitelist(address)": "28221",
						"reveal()": "27399",
						"revealed()": "2555",
						"safeMint()": "infinite",
						"safeMintTo(address)": "infinite",
						"setBaseURI(string)": "infinite",
						"setNotRevealedURI(string)": "infinite",
						"symbol()": "infinite",
						"tokenURI(uint256)": "infinite",
						"totalSupply()": "2515",
						"transferFrom(address,address,uint256)": "infinite"
					},
					"internal": {
						"uint2str(uint256)": "infinite"
					}
				},
				"methodIdentifiers": {
					"addToWhitelist(address)": "e43252d7",
					"approve(address,uint256)": "095ea7b3",
					"balanceOf(address)": "70a08231",
					"getApproved(uint256)": "081812fc",
					"isWhitelisted(address)": "3af32abf",
					"name()": "06fdde03",
					"owner()": "8da5cb5b",
					"ownerOf(uint256)": "6352211e",
					"removeFromWhitelist(address)": "8ab1d681",
					"reveal()": "a475b5dd",
					"revealed()": "51830227",
					"safeMint()": "6871ee40",
					"safeMintTo(address)": "21bae9e4",
					"setBaseURI(string)": "55f804b3",
					"setNotRevealedURI(string)": "f2c4ce1e",
					"symbol()": "95d89b41",
					"tokenURI(uint256)": "c87b56dd",
					"totalSupply()": "18160ddd",
					"transferFrom(address,address,uint256)": "23b872dd"
				}
			},
			"storageLayout": {
				"storage": [
					{
						"astId": 4,
						"contract": "Contract_Conqueror_Series/ERC721standards.sol:UnifiedNFT",
						"label": "name",
						"offset": 0,
						"slot": "0",
						"type": "t_string_storage"
					},
					{
						"astId": 6,
						"contract": "Contract_Conqueror_Series/ERC721standards.sol:UnifiedNFT",
						"label": "symbol",
						"offset": 0,
						"slot": "1",
						"type": "t_string_storage"
					},
					{
						"astId": 8,
						"contract": "Contract_Conqueror_Series/ERC721standards.sol:UnifiedNFT",
						"label": "owner",
						"offset": 0,
						"slot": "2",
						"type": "t_address"
					},
					{
						"astId": 10,
						"contract": "Contract_Conqueror_Series/ERC721standards.sol:UnifiedNFT",
						"label": "totalSupply",
						"offset": 0,
						"slot": "3",
						"type": "t_uint256"
					},
					{
						"astId": 12,
						"contract": "Contract_Conqueror_Series/ERC721standards.sol:UnifiedNFT",
						"label": "baseURI",
						"offset": 0,
						"slot": "4",
						"type": "t_string_storage"
					},
					{
						"astId": 14,
						"contract": "Contract_Conqueror_Series/ERC721standards.sol:UnifiedNFT",
						"label": "notRevealedURI",
						"offset": 0,
						"slot": "5",
						"type": "t_string_storage"
					},
					{
						"astId": 16,
						"contract": "Contract_Conqueror_Series/ERC721standards.sol:UnifiedNFT",
						"label": "revealed",
						"offset": 0,
						"slot": "6",
						"type": "t_bool"
					},
					{
						"astId": 20,
						"contract": "Contract_Conqueror_Series/ERC721standards.sol:UnifiedNFT",
						"label": "_owners",
						"offset": 0,
						"slot": "7",
						"type": "t_mapping(t_uint256,t_address)"
					},
					{
						"astId": 24,
						"contract": "Contract_Conqueror_Series/ERC721standards.sol:UnifiedNFT",
						"label": "_balances",
						"offset": 0,
						"slot": "8",
						"type": "t_mapping(t_address,t_uint256)"
					},
					{
						"astId": 28,
						"contract": "Contract_Conqueror_Series/ERC721standards.sol:UnifiedNFT",
						"label": "_tokenApprovals",
						"offset": 0,
						"slot": "9",
						"type": "t_mapping(t_uint256,t_address)"
					},
					{
						"astId": 32,
						"contract": "Contract_Conqueror_Series/ERC721standards.sol:UnifiedNFT",
						"label": "whitelist",
						"offset": 0,
						"slot": "10",
						"type": "t_mapping(t_address,t_bool)"
					}
				],
				"types": {
					"t_address": {
						"encoding": "inplace",
						"label": "address",
						"numberOfBytes": "20"
					},
					"t_bool": {
						"encoding": "inplace",
						"label": "bool",
						"numberOfBytes": "1"
					},
					"t_mapping(t_address,t_bool)": {
						"encoding": "mapping",
						"key": "t_address",
						"label": "mapping(address => bool)",
						"numberOfBytes": "32",
						"value": "t_bool"
					},
					"t_mapping(t_address,t_uint256)": {
						"encoding": "mapping",
						"key": "t_address",
						"label": "mapping(address => uint256)",
						"numberOfBytes": "32",
						"value": "t_uint256"
					},
					"t_mapping(t_uint256,t_address)": {
						"encoding": "mapping",
						"key": "t_uint256",
						"label": "mapping(uint256 => address)",
						"numberOfBytes": "32",
						"value": "t_address"
					},
					"t_string_storage": {
						"encoding": "bytes",
						"label": "string",
						"numberOfBytes": "32"
					},
					"t_uint256": {
						"encoding": "inplace",
						"label": "uint256",
						"numberOfBytes": "32"
					}
				}
			},
			"userdoc": {
				"events": {
					"Transfer(address,address,uint256)": {
						"notice": "Events"
					}
				},
				"kind": "user",
				"methods": {
					"safeMint()": {
						"notice": "Mint a new NFT (only for whitelisted)"
					},
					"safeMintTo(address)": {
						"notice": "Owner-only mint (used for testing or airdrops)"
					},
					"tokenURI(uint256)": {
						"notice": "Returns metadata URI (changes after reveal)"
					}
				},
				"notice": "Full-featured NFT: ERC721, Metadata, Whitelist, Delayed Reveal",
				"version": 1
			}
		}
	}
}