{
	"Contract_Conqueror_Series/simpleSwap.sol": {
		"SimpleSwap": {
			"abi": [
				{
					"inputs": [
						{
							"internalType": "address",
							"name": "_tokenA",
							"type": "address"
						},
						{
							"internalType": "address",
							"name": "_tokenB",
							"type": "address"
						},
						{
							"internalType": "uint256",
							"name": "_rate",
							"type": "uint256"
						}
					],
					"stateMutability": "nonpayable",
					"type": "constructor"
				},
				{
					"anonymous": false,
					"inputs": [
						{
							"indexed": false,
							"internalType": "uint256",
							"name": "oldRate",
							"type": "uint256"
						},
						{
							"indexed": false,
							"internalType": "uint256",
							"name": "newRate",
							"type": "uint256"
						}
					],
					"name": "RateUpdated",
					"type": "event"
				},
				{
					"anonymous": false,
					"inputs": [
						{
							"indexed": true,
							"internalType": "address",
							"name": "user",
							"type": "address"
						},
						{
							"indexed": false,
							"internalType": "uint256",
							"name": "amountA",
							"type": "uint256"
						},
						{
							"indexed": false,
							"internalType": "uint256",
							"name": "amountB",
							"type": "uint256"
						}
					],
					"name": "Swap",
					"type": "event"
				},
				{
					"anonymous": false,
					"inputs": [
						{
							"indexed": true,
							"internalType": "address",
							"name": "token",
							"type": "address"
						},
						{
							"indexed": true,
							"internalType": "address",
							"name": "to",
							"type": "address"
						},
						{
							"indexed": false,
							"internalType": "uint256",
							"name": "amount",
							"type": "uint256"
						}
					],
					"name": "WithdrawTokens",
					"type": "event"
				},
				{
					"inputs": [],
					"name": "owner",
					"outputs": [
						{
							"internalType": "address",
							"name": "",
							"type": "address"
						}
					],
					"stateMutability": "view",
					"type": "function"
				},
				{
					"inputs": [],
					"name": "rate",
					"outputs": [
						{
							"internalType": "uint256",
							"name": "",
							"type": "uint256"
						}
					],
					"stateMutability": "view",
					"type": "function"
				},
				{
					"inputs": [
						{
							"internalType": "uint256",
							"name": "amountA",
							"type": "uint256"
						}
					],
					"name": "swapAToB",
					"outputs": [],
					"stateMutability": "nonpayable",
					"type": "function"
				},
				{
					"inputs": [],
					"name": "tokenA",
					"outputs": [
						{
							"internalType": "contract IERC20",
							"name": "",
							"type": "address"
						}
					],
					"stateMutability": "view",
					"type": "function"
				},
				{
					"inputs": [],
					"name": "tokenB",
					"outputs": [
						{
							"internalType": "contract IERC20",
							"name": "",
							"type": "address"
						}
					],
					"stateMutability": "view",
					"type": "function"
				},
				{
					"inputs": [
						{
							"internalType": "uint256",
							"name": "_newRate",
							"type": "uint256"
						}
					],
					"name": "updateRate",
					"outputs": [],
					"stateMutability": "nonpayable",
					"type": "function"
				},
				{
					"inputs": [
						{
							"internalType": "address",
							"name": "token",
							"type": "address"
						},
						{
							"internalType": "address",
							"name": "to",
							"type": "address"
						},
						{
							"internalType": "uint256",
							"name": "amount",
							"type": "uint256"
						}
					],
					"name": "withdrawTokens",
					"outputs": [],
					"stateMutability": "nonpayable",
					"type": "function"
				}
			],
			"devdoc": {
				"kind": "dev",
				"methods": {},
				"version": 1
			},
			"evm": {
				"assembly": "    /* \"Contract_Conqueror_Series/simpleSwap.sol\":410:2261  contract SimpleSwap {... */\n  mstore(0x40, 0x80)\n    /* \"Contract_Conqueror_Series/simpleSwap.sol\":927:1157  constructor(address _tokenA, address _tokenB, uint256 _rate) {... */\n  callvalue\n  dup1\n  iszero\n  tag_1\n  jumpi\n  revert(0x00, 0x00)\ntag_1:\n  pop\n  mload(0x40)\n  sub(codesize, bytecodeSize)\n  dup1\n  bytecodeSize\n  dup4\n  codecopy\n  dup2\n  dup2\n  add\n  0x40\n  mstore\n  dup2\n  add\n  swap1\n  tag_2\n  swap2\n  swap1\n  tag_3\n  jump\t// in\ntag_2:\n    /* \"Contract_Conqueror_Series/simpleSwap.sol\":1007:1017  msg.sender */\n  caller\n    /* \"Contract_Conqueror_Series/simpleSwap.sol\":999:1004  owner */\n  0x00\n  0x00\n    /* \"Contract_Conqueror_Series/simpleSwap.sol\":999:1017  owner = msg.sender */\n  0x0100\n  exp\n  dup2\n  sload\n  dup2\n  0xffffffffffffffffffffffffffffffffffffffff\n  mul\n  not\n  and\n  swap1\n  dup4\n  0xffffffffffffffffffffffffffffffffffffffff\n  and\n  mul\n  or\n  swap1\n  sstore\n  pop\n    /* \"Contract_Conqueror_Series/simpleSwap.sol\":1044:1051  _tokenA */\n  dup3\n    /* \"Contract_Conqueror_Series/simpleSwap.sol\":1028:1034  tokenA */\n  0x01\n  0x00\n    /* \"Contract_Conqueror_Series/simpleSwap.sol\":1028:1052  tokenA = IERC20(_tokenA) */\n  0x0100\n  exp\n  dup2\n  sload\n  dup2\n  0xffffffffffffffffffffffffffffffffffffffff\n  mul\n  not\n  and\n  swap1\n  dup4\n  0xffffffffffffffffffffffffffffffffffffffff\n  and\n  mul\n  or\n  swap1\n  sstore\n  pop\n    /* \"Contract_Conqueror_Series/simpleSwap.sol\":1079:1086  _tokenB */\n  dup2\n    /* \"Contract_Conqueror_Series/simpleSwap.sol\":1063:1069  tokenB */\n  0x02\n  0x00\n    /* \"Contract_Conqueror_Series/simpleSwap.sol\":1063:1087  tokenB = IERC20(_tokenB) */\n  0x0100\n  exp\n  dup2\n  sload\n  dup2\n  0xffffffffffffffffffffffffffffffffffffffff\n  mul\n  not\n  and\n  swap1\n  dup4\n  0xffffffffffffffffffffffffffffffffffffffff\n  and\n  mul\n  or\n  swap1\n  sstore\n  pop\n    /* \"Contract_Conqueror_Series/simpleSwap.sol\":1105:1110  _rate */\n  dup1\n    /* \"Contract_Conqueror_Series/simpleSwap.sol\":1098:1102  rate */\n  0x03\n    /* \"Contract_Conqueror_Series/simpleSwap.sol\":1098:1110  rate = _rate */\n  dup2\n  swap1\n  sstore\n  pop\n    /* \"Contract_Conqueror_Series/simpleSwap.sol\":927:1157  constructor(address _tokenA, address _tokenB, uint256 _rate) {... */\n  pop\n  pop\n  pop\n    /* \"Contract_Conqueror_Series/simpleSwap.sol\":410:2261  contract SimpleSwap {... */\n  jump(tag_6)\n    /* \"#utility.yul\":88:205   */\ntag_8:\n    /* \"#utility.yul\":197:198   */\n  0x00\n    /* \"#utility.yul\":194:195   */\n  0x00\n    /* \"#utility.yul\":187:199   */\n  revert\n    /* \"#utility.yul\":334:460   */\ntag_10:\n    /* \"#utility.yul\":371:378   */\n  0x00\n    /* \"#utility.yul\":411:453   */\n  0xffffffffffffffffffffffffffffffffffffffff\n    /* \"#utility.yul\":404:409   */\n  dup3\n    /* \"#utility.yul\":400:454   */\n  and\n    /* \"#utility.yul\":389:454   */\n  swap1\n  pop\n    /* \"#utility.yul\":334:460   */\n  swap2\n  swap1\n  pop\n  jump\t// out\n    /* \"#utility.yul\":466:562   */\ntag_11:\n    /* \"#utility.yul\":503:510   */\n  0x00\n    /* \"#utility.yul\":532:556   */\n  tag_23\n    /* \"#utility.yul\":550:555   */\n  dup3\n    /* \"#utility.yul\":532:556   */\n  tag_10\n  jump\t// in\ntag_23:\n    /* \"#utility.yul\":521:556   */\n  swap1\n  pop\n    /* \"#utility.yul\":466:562   */\n  swap2\n  swap1\n  pop\n  jump\t// out\n    /* \"#utility.yul\":568:690   */\ntag_12:\n    /* \"#utility.yul\":641:665   */\n  tag_25\n    /* \"#utility.yul\":659:664   */\n  dup2\n    /* \"#utility.yul\":641:665   */\n  tag_11\n  jump\t// in\ntag_25:\n    /* \"#utility.yul\":634:639   */\n  dup2\n    /* \"#utility.yul\":631:666   */\n  eq\n    /* \"#utility.yul\":621:684   */\n  tag_26\n  jumpi\n    /* \"#utility.yul\":680:681   */\n  0x00\n    /* \"#utility.yul\":677:678   */\n  0x00\n    /* \"#utility.yul\":670:682   */\n  revert\n    /* \"#utility.yul\":621:684   */\ntag_26:\n    /* \"#utility.yul\":568:690   */\n  pop\n  jump\t// out\n    /* \"#utility.yul\":696:839   */\ntag_13:\n    /* \"#utility.yul\":753:758   */\n  0x00\n    /* \"#utility.yul\":784:790   */\n  dup2\n    /* \"#utility.yul\":778:791   */\n  mload\n    /* \"#utility.yul\":769:791   */\n  swap1\n  pop\n    /* \"#utility.yul\":800:833   */\n  tag_28\n    /* \"#utility.yul\":827:832   */\n  dup2\n    /* \"#utility.yul\":800:833   */\n  tag_12\n  jump\t// in\ntag_28:\n    /* \"#utility.yul\":696:839   */\n  swap3\n  swap2\n  pop\n  pop\n  jump\t// out\n    /* \"#utility.yul\":845:922   */\ntag_14:\n    /* \"#utility.yul\":882:889   */\n  0x00\n    /* \"#utility.yul\":911:916   */\n  dup2\n    /* \"#utility.yul\":900:916   */\n  swap1\n  pop\n    /* \"#utility.yul\":845:922   */\n  swap2\n  swap1\n  pop\n  jump\t// out\n    /* \"#utility.yul\":928:1050   */\ntag_15:\n    /* \"#utility.yul\":1001:1025   */\n  tag_31\n    /* \"#utility.yul\":1019:1024   */\n  dup2\n    /* \"#utility.yul\":1001:1025   */\n  tag_14\n  jump\t// in\ntag_31:\n    /* \"#utility.yul\":994:999   */\n  dup2\n    /* \"#utility.yul\":991:1026   */\n  eq\n    /* \"#utility.yul\":981:1044   */\n  tag_32\n  jumpi\n    /* \"#utility.yul\":1040:1041   */\n  0x00\n    /* \"#utility.yul\":1037:1038   */\n  0x00\n    /* \"#utility.yul\":1030:1042   */\n  revert\n    /* \"#utility.yul\":981:1044   */\ntag_32:\n    /* \"#utility.yul\":928:1050   */\n  pop\n  jump\t// out\n    /* \"#utility.yul\":1056:1199   */\ntag_16:\n    /* \"#utility.yul\":1113:1118   */\n  0x00\n    /* \"#utility.yul\":1144:1150   */\n  dup2\n    /* \"#utility.yul\":1138:1151   */\n  mload\n    /* \"#utility.yul\":1129:1151   */\n  swap1\n  pop\n    /* \"#utility.yul\":1160:1193   */\n  tag_34\n    /* \"#utility.yul\":1187:1192   */\n  dup2\n    /* \"#utility.yul\":1160:1193   */\n  tag_15\n  jump\t// in\ntag_34:\n    /* \"#utility.yul\":1056:1199   */\n  swap3\n  swap2\n  pop\n  pop\n  jump\t// out\n    /* \"#utility.yul\":1205:1868   */\ntag_3:\n    /* \"#utility.yul\":1293:1299   */\n  0x00\n    /* \"#utility.yul\":1301:1307   */\n  0x00\n    /* \"#utility.yul\":1309:1315   */\n  0x00\n    /* \"#utility.yul\":1358:1360   */\n  0x60\n    /* \"#utility.yul\":1346:1355   */\n  dup5\n    /* \"#utility.yul\":1337:1344   */\n  dup7\n    /* \"#utility.yul\":1333:1356   */\n  sub\n    /* \"#utility.yul\":1329:1361   */\n  slt\n    /* \"#utility.yul\":1326:1445   */\n  iszero\n  tag_36\n  jumpi\n    /* \"#utility.yul\":1364:1443   */\n  tag_37\n  tag_8\n  jump\t// in\ntag_37:\n    /* \"#utility.yul\":1326:1445   */\ntag_36:\n    /* \"#utility.yul\":1484:1485   */\n  0x00\n    /* \"#utility.yul\":1509:1573   */\n  tag_38\n    /* \"#utility.yul\":1565:1572   */\n  dup7\n    /* \"#utility.yul\":1556:1562   */\n  dup3\n    /* \"#utility.yul\":1545:1554   */\n  dup8\n    /* \"#utility.yul\":1541:1563   */\n  add\n    /* \"#utility.yul\":1509:1573   */\n  tag_13\n  jump\t// in\ntag_38:\n    /* \"#utility.yul\":1499:1573   */\n  swap4\n  pop\n    /* \"#utility.yul\":1455:1583   */\n  pop\n    /* \"#utility.yul\":1622:1624   */\n  0x20\n    /* \"#utility.yul\":1648:1712   */\n  tag_39\n    /* \"#utility.yul\":1704:1711   */\n  dup7\n    /* \"#utility.yul\":1695:1701   */\n  dup3\n    /* \"#utility.yul\":1684:1693   */\n  dup8\n    /* \"#utility.yul\":1680:1702   */\n  add\n    /* \"#utility.yul\":1648:1712   */\n  tag_13\n  jump\t// in\ntag_39:\n    /* \"#utility.yul\":1638:1712   */\n  swap3\n  pop\n    /* \"#utility.yul\":1593:1722   */\n  pop\n    /* \"#utility.yul\":1761:1763   */\n  0x40\n    /* \"#utility.yul\":1787:1851   */\n  tag_40\n    /* \"#utility.yul\":1843:1850   */\n  dup7\n    /* \"#utility.yul\":1834:1840   */\n  dup3\n    /* \"#utility.yul\":1823:1832   */\n  dup8\n    /* \"#utility.yul\":1819:1841   */\n  add\n    /* \"#utility.yul\":1787:1851   */\n  tag_16\n  jump\t// in\ntag_40:\n    /* \"#utility.yul\":1777:1851   */\n  swap2\n  pop\n    /* \"#utility.yul\":1732:1861   */\n  pop\n    /* \"#utility.yul\":1205:1868   */\n  swap3\n  pop\n  swap3\n  pop\n  swap3\n  jump\t// out\n    /* \"Contract_Conqueror_Series/simpleSwap.sol\":410:2261  contract SimpleSwap {... */\ntag_6:\n  dataSize(sub_0)\n  dup1\n  dataOffset(sub_0)\n  0x00\n  codecopy\n  0x00\n  return\nstop\n\nsub_0: assembly {\n        /* \"Contract_Conqueror_Series/simpleSwap.sol\":410:2261  contract SimpleSwap {... */\n      mstore(0x40, 0x80)\n      callvalue\n      dup1\n      iszero\n      tag_1\n      jumpi\n      revert(0x00, 0x00)\n    tag_1:\n      pop\n      jumpi(tag_2, lt(calldatasize, 0x04))\n      shr(0xe0, calldataload(0x00))\n      dup1\n      0x5e35359e\n      gt\n      tag_10\n      jumpi\n      dup1\n      0x5e35359e\n      eq\n      tag_6\n      jumpi\n      dup1\n      0x5f64b55b\n      eq\n      tag_7\n      jumpi\n      dup1\n      0x69ea1771\n      eq\n      tag_8\n      jumpi\n      dup1\n      0x8da5cb5b\n      eq\n      tag_9\n      jumpi\n      jump(tag_2)\n    tag_10:\n      dup1\n      0x0fc63d10\n      eq\n      tag_3\n      jumpi\n      dup1\n      0x2c4e722e\n      eq\n      tag_4\n      jumpi\n      dup1\n      0x38720f72\n      eq\n      tag_5\n      jumpi\n    tag_2:\n      revert(0x00, 0x00)\n        /* \"Contract_Conqueror_Series/simpleSwap.sol\":464:484  IERC20 public tokenA */\n    tag_3:\n      tag_11\n      tag_12\n      jump\t// in\n    tag_11:\n      mload(0x40)\n      tag_13\n      swap2\n      swap1\n      tag_14\n      jump\t// in\n    tag_13:\n      mload(0x40)\n      dup1\n      swap2\n      sub\n      swap1\n      return\n        /* \"Contract_Conqueror_Series/simpleSwap.sol\":518:537  uint256 public rate */\n    tag_4:\n      tag_15\n      tag_16\n      jump\t// in\n    tag_15:\n      mload(0x40)\n      tag_17\n      swap2\n      swap1\n      tag_18\n      jump\t// in\n    tag_17:\n      mload(0x40)\n      dup1\n      swap2\n      sub\n      swap1\n      return\n        /* \"Contract_Conqueror_Series/simpleSwap.sol\":1441:1991  function swapAToB(uint256 amountA) external {... */\n    tag_5:\n      tag_19\n      0x04\n      dup1\n      calldatasize\n      sub\n      dup2\n      add\n      swap1\n      tag_20\n      swap2\n      swap1\n      tag_21\n      jump\t// in\n    tag_20:\n      tag_22\n      jump\t// in\n    tag_19:\n      stop\n        /* \"Contract_Conqueror_Series/simpleSwap.sol\":2070:2258  function withdrawTokens(address token, address to, uint256 amount) external onlyOwner {... */\n    tag_6:\n      tag_23\n      0x04\n      dup1\n      calldatasize\n      sub\n      dup2\n      add\n      swap1\n      tag_24\n      swap2\n      swap1\n      tag_25\n      jump\t// in\n    tag_24:\n      tag_26\n      jump\t// in\n    tag_23:\n      stop\n        /* \"Contract_Conqueror_Series/simpleSwap.sol\":491:511  IERC20 public tokenB */\n    tag_7:\n      tag_27\n      tag_28\n      jump\t// in\n    tag_27:\n      mload(0x40)\n      tag_29\n      swap2\n      swap1\n      tag_14\n      jump\t// in\n    tag_29:\n      mload(0x40)\n      dup1\n      swap2\n      sub\n      swap1\n      return\n        /* \"Contract_Conqueror_Series/simpleSwap.sol\":1165:1356  function updateRate(uint256 _newRate) external onlyOwner {... */\n    tag_8:\n      tag_30\n      0x04\n      dup1\n      calldatasize\n      sub\n      dup2\n      add\n      swap1\n      tag_31\n      swap2\n      swap1\n      tag_21\n      jump\t// in\n    tag_31:\n      tag_32\n      jump\t// in\n    tag_30:\n      stop\n        /* \"Contract_Conqueror_Series/simpleSwap.sol\":437:457  address public owner */\n    tag_9:\n      tag_33\n      tag_34\n      jump\t// in\n    tag_33:\n      mload(0x40)\n      tag_35\n      swap2\n      swap1\n      tag_36\n      jump\t// in\n    tag_35:\n      mload(0x40)\n      dup1\n      swap2\n      sub\n      swap1\n      return\n        /* \"Contract_Conqueror_Series/simpleSwap.sol\":464:484  IERC20 public tokenA */\n    tag_12:\n      0x01\n      0x00\n      swap1\n      sload\n      swap1\n      0x0100\n      exp\n      swap1\n      div\n      0xffffffffffffffffffffffffffffffffffffffff\n      and\n      dup2\n      jump\t// out\n        /* \"Contract_Conqueror_Series/simpleSwap.sol\":518:537  uint256 public rate */\n    tag_16:\n      sload(0x03)\n      dup2\n      jump\t// out\n        /* \"Contract_Conqueror_Series/simpleSwap.sol\":1441:1991  function swapAToB(uint256 amountA) external {... */\n    tag_22:\n        /* \"Contract_Conqueror_Series/simpleSwap.sol\":1514:1515  0 */\n      0x00\n        /* \"Contract_Conqueror_Series/simpleSwap.sol\":1504:1511  amountA */\n      dup2\n        /* \"Contract_Conqueror_Series/simpleSwap.sol\":1504:1515  amountA > 0 */\n      gt\n        /* \"Contract_Conqueror_Series/simpleSwap.sol\":1496:1543  require(amountA > 0, \"Amount must be positive\") */\n      tag_38\n      jumpi\n      mload(0x40)\n      0x08c379a000000000000000000000000000000000000000000000000000000000\n      dup2\n      mstore\n      0x04\n      add\n      tag_39\n      swap1\n      tag_40\n      jump\t// in\n    tag_39:\n      mload(0x40)\n      dup1\n      swap2\n      sub\n      swap1\n      revert\n    tag_38:\n        /* \"Contract_Conqueror_Series/simpleSwap.sol\":1554:1569  uint256 amountB */\n      0x00\n        /* \"Contract_Conqueror_Series/simpleSwap.sol\":1582:1586  rate */\n      sload(0x03)\n        /* \"Contract_Conqueror_Series/simpleSwap.sol\":1572:1579  amountA */\n      dup3\n        /* \"Contract_Conqueror_Series/simpleSwap.sol\":1572:1586  amountA * rate */\n      tag_41\n      swap2\n      swap1\n      tag_42\n      jump\t// in\n    tag_41:\n        /* \"Contract_Conqueror_Series/simpleSwap.sol\":1554:1586  uint256 amountB = amountA * rate */\n      swap1\n      pop\n        /* \"Contract_Conqueror_Series/simpleSwap.sol\":1640:1647  amountB */\n      dup1\n        /* \"Contract_Conqueror_Series/simpleSwap.sol\":1605:1611  tokenB */\n      0x02\n      0x00\n      swap1\n      sload\n      swap1\n      0x0100\n      exp\n      swap1\n      div\n      0xffffffffffffffffffffffffffffffffffffffff\n      and\n        /* \"Contract_Conqueror_Series/simpleSwap.sol\":1605:1621  tokenB.balanceOf */\n      0xffffffffffffffffffffffffffffffffffffffff\n      and\n      0x70a08231\n        /* \"Contract_Conqueror_Series/simpleSwap.sol\":1630:1634  this */\n      address\n        /* \"Contract_Conqueror_Series/simpleSwap.sol\":1605:1636  tokenB.balanceOf(address(this)) */\n      mload(0x40)\n      dup3\n      0xffffffff\n      and\n      0xe0\n      shl\n      dup2\n      mstore\n      0x04\n      add\n      tag_43\n      swap2\n      swap1\n      tag_36\n      jump\t// in\n    tag_43:\n      0x20\n      mload(0x40)\n      dup1\n      dup4\n      sub\n      dup2\n      dup7\n      gas\n      staticcall\n      iszero\n      dup1\n      iszero\n      tag_45\n      jumpi\n      returndatacopy(0x00, 0x00, returndatasize)\n      revert(0x00, returndatasize)\n    tag_45:\n      pop\n      pop\n      pop\n      pop\n      mload(0x40)\n      returndatasize\n      not(0x1f)\n      0x1f\n      dup3\n      add\n      and\n      dup3\n      add\n      dup1\n      0x40\n      mstore\n      pop\n      dup2\n      add\n      swap1\n      tag_46\n      swap2\n      swap1\n      tag_47\n      jump\t// in\n    tag_46:\n        /* \"Contract_Conqueror_Series/simpleSwap.sol\":1605:1647  tokenB.balanceOf(address(this)) >= amountB */\n      lt\n      iszero\n        /* \"Contract_Conqueror_Series/simpleSwap.sol\":1597:1683  require(tokenB.balanceOf(address(this)) >= amountB, \"Insufficient TokenB in contract\") */\n      tag_48\n      jumpi\n      mload(0x40)\n      0x08c379a000000000000000000000000000000000000000000000000000000000\n      dup2\n      mstore\n      0x04\n      add\n      tag_49\n      swap1\n      tag_50\n      jump\t// in\n    tag_49:\n      mload(0x40)\n      dup1\n      swap2\n      sub\n      swap1\n      revert\n    tag_48:\n        /* \"Contract_Conqueror_Series/simpleSwap.sol\":1735:1741  tokenA */\n      0x01\n      0x00\n      swap1\n      sload\n      swap1\n      0x0100\n      exp\n      swap1\n      div\n      0xffffffffffffffffffffffffffffffffffffffff\n      and\n        /* \"Contract_Conqueror_Series/simpleSwap.sol\":1735:1754  tokenA.transferFrom */\n      0xffffffffffffffffffffffffffffffffffffffff\n      and\n      0x23b872dd\n        /* \"Contract_Conqueror_Series/simpleSwap.sol\":1755:1765  msg.sender */\n      caller\n        /* \"Contract_Conqueror_Series/simpleSwap.sol\":1775:1779  this */\n      address\n        /* \"Contract_Conqueror_Series/simpleSwap.sol\":1782:1789  amountA */\n      dup6\n        /* \"Contract_Conqueror_Series/simpleSwap.sol\":1735:1790  tokenA.transferFrom(msg.sender, address(this), amountA) */\n      mload(0x40)\n      dup5\n      0xffffffff\n      and\n      0xe0\n      shl\n      dup2\n      mstore\n      0x04\n      add\n      tag_51\n      swap4\n      swap3\n      swap2\n      swap1\n      tag_52\n      jump\t// in\n    tag_51:\n      0x20\n      mload(0x40)\n      dup1\n      dup4\n      sub\n      dup2\n      0x00\n      dup8\n      gas\n      call\n      iszero\n      dup1\n      iszero\n      tag_54\n      jumpi\n      returndatacopy(0x00, 0x00, returndatasize)\n      revert(0x00, returndatasize)\n    tag_54:\n      pop\n      pop\n      pop\n      pop\n      mload(0x40)\n      returndatasize\n      not(0x1f)\n      0x1f\n      dup3\n      add\n      and\n      dup3\n      add\n      dup1\n      0x40\n      mstore\n      pop\n      dup2\n      add\n      swap1\n      tag_55\n      swap2\n      swap1\n      tag_56\n      jump\t// in\n    tag_55:\n        /* \"Contract_Conqueror_Series/simpleSwap.sol\":1727:1817  require(tokenA.transferFrom(msg.sender, address(this), amountA), \"TokenA transfer failed\") */\n      tag_57\n      jumpi\n      mload(0x40)\n      0x08c379a000000000000000000000000000000000000000000000000000000000\n      dup2\n      mstore\n      0x04\n      add\n      tag_58\n      swap1\n      tag_59\n      jump\t// in\n    tag_58:\n      mload(0x40)\n      dup1\n      swap2\n      sub\n      swap1\n      revert\n    tag_57:\n        /* \"Contract_Conqueror_Series/simpleSwap.sol\":1868:1874  tokenB */\n      0x02\n      0x00\n      swap1\n      sload\n      swap1\n      0x0100\n      exp\n      swap1\n      div\n      0xffffffffffffffffffffffffffffffffffffffff\n      and\n        /* \"Contract_Conqueror_Series/simpleSwap.sol\":1868:1883  tokenB.transfer */\n      0xffffffffffffffffffffffffffffffffffffffff\n      and\n      0xa9059cbb\n        /* \"Contract_Conqueror_Series/simpleSwap.sol\":1884:1894  msg.sender */\n      caller\n        /* \"Contract_Conqueror_Series/simpleSwap.sol\":1896:1903  amountB */\n      dup4\n        /* \"Contract_Conqueror_Series/simpleSwap.sol\":1868:1904  tokenB.transfer(msg.sender, amountB) */\n      mload(0x40)\n      dup4\n      0xffffffff\n      and\n      0xe0\n      shl\n      dup2\n      mstore\n      0x04\n      add\n      tag_60\n      swap3\n      swap2\n      swap1\n      tag_61\n      jump\t// in\n    tag_60:\n      0x20\n      mload(0x40)\n      dup1\n      dup4\n      sub\n      dup2\n      0x00\n      dup8\n      gas\n      call\n      iszero\n      dup1\n      iszero\n      tag_63\n      jumpi\n      returndatacopy(0x00, 0x00, returndatasize)\n      revert(0x00, returndatasize)\n    tag_63:\n      pop\n      pop\n      pop\n      pop\n      mload(0x40)\n      returndatasize\n      not(0x1f)\n      0x1f\n      dup3\n      add\n      and\n      dup3\n      add\n      dup1\n      0x40\n      mstore\n      pop\n      dup2\n      add\n      swap1\n      tag_64\n      swap2\n      swap1\n      tag_56\n      jump\t// in\n    tag_64:\n        /* \"Contract_Conqueror_Series/simpleSwap.sol\":1860:1931  require(tokenB.transfer(msg.sender, amountB), \"TokenB transfer failed\") */\n      tag_65\n      jumpi\n      mload(0x40)\n      0x08c379a000000000000000000000000000000000000000000000000000000000\n      dup2\n      mstore\n      0x04\n      add\n      tag_66\n      swap1\n      tag_67\n      jump\t// in\n    tag_66:\n      mload(0x40)\n      dup1\n      swap2\n      sub\n      swap1\n      revert\n    tag_65:\n        /* \"Contract_Conqueror_Series/simpleSwap.sol\":1954:1964  msg.sender */\n      caller\n        /* \"Contract_Conqueror_Series/simpleSwap.sol\":1949:1983  Swap(msg.sender, amountA, amountB) */\n      0xffffffffffffffffffffffffffffffffffffffff\n      and\n      0x77f92a1b6a1a11de8ca49515ad4c1fad45632dd3442167d74b90b304a3c7a758\n        /* \"Contract_Conqueror_Series/simpleSwap.sol\":1966:1973  amountA */\n      dup4\n        /* \"Contract_Conqueror_Series/simpleSwap.sol\":1975:1982  amountB */\n      dup4\n        /* \"Contract_Conqueror_Series/simpleSwap.sol\":1949:1983  Swap(msg.sender, amountA, amountB) */\n      mload(0x40)\n      tag_68\n      swap3\n      swap2\n      swap1\n      tag_69\n      jump\t// in\n    tag_68:\n      mload(0x40)\n      dup1\n      swap2\n      sub\n      swap1\n      log2\n        /* \"Contract_Conqueror_Series/simpleSwap.sol\":1485:1991  {... */\n      pop\n        /* \"Contract_Conqueror_Series/simpleSwap.sol\":1441:1991  function swapAToB(uint256 amountA) external {... */\n      pop\n      jump\t// out\n        /* \"Contract_Conqueror_Series/simpleSwap.sol\":2070:2258  function withdrawTokens(address token, address to, uint256 amount) external onlyOwner {... */\n    tag_26:\n        /* \"Contract_Conqueror_Series/simpleSwap.sol\":880:885  owner */\n      0x00\n      0x00\n      swap1\n      sload\n      swap1\n      0x0100\n      exp\n      swap1\n      div\n      0xffffffffffffffffffffffffffffffffffffffff\n      and\n        /* \"Contract_Conqueror_Series/simpleSwap.sol\":866:885  msg.sender == owner */\n      0xffffffffffffffffffffffffffffffffffffffff\n      and\n        /* \"Contract_Conqueror_Series/simpleSwap.sol\":866:876  msg.sender */\n      caller\n        /* \"Contract_Conqueror_Series/simpleSwap.sol\":866:885  msg.sender == owner */\n      0xffffffffffffffffffffffffffffffffffffffff\n      and\n      eq\n        /* \"Contract_Conqueror_Series/simpleSwap.sol\":858:899  require(msg.sender == owner, \"Not owner\") */\n      tag_71\n      jumpi\n      mload(0x40)\n      0x08c379a000000000000000000000000000000000000000000000000000000000\n      dup2\n      mstore\n      0x04\n      add\n      tag_72\n      swap1\n      tag_73\n      jump\t// in\n    tag_72:\n      mload(0x40)\n      dup1\n      swap2\n      sub\n      swap1\n      revert\n    tag_71:\n        /* \"Contract_Conqueror_Series/simpleSwap.sol\":2174:2179  token */\n      dup3\n        /* \"Contract_Conqueror_Series/simpleSwap.sol\":2167:2189  IERC20(token).transfer */\n      0xffffffffffffffffffffffffffffffffffffffff\n      and\n      0xa9059cbb\n        /* \"Contract_Conqueror_Series/simpleSwap.sol\":2190:2192  to */\n      dup4\n        /* \"Contract_Conqueror_Series/simpleSwap.sol\":2194:2200  amount */\n      dup4\n        /* \"Contract_Conqueror_Series/simpleSwap.sol\":2167:2201  IERC20(token).transfer(to, amount) */\n      mload(0x40)\n      dup4\n      0xffffffff\n      and\n      0xe0\n      shl\n      dup2\n      mstore\n      0x04\n      add\n      tag_75\n      swap3\n      swap2\n      swap1\n      tag_61\n      jump\t// in\n    tag_75:\n      0x20\n      mload(0x40)\n      dup1\n      dup4\n      sub\n      dup2\n      0x00\n      dup8\n      gas\n      call\n      iszero\n      dup1\n      iszero\n      tag_77\n      jumpi\n      returndatacopy(0x00, 0x00, returndatasize)\n      revert(0x00, returndatasize)\n    tag_77:\n      pop\n      pop\n      pop\n      pop\n      mload(0x40)\n      returndatasize\n      not(0x1f)\n      0x1f\n      dup3\n      add\n      and\n      dup3\n      add\n      dup1\n      0x40\n      mstore\n      pop\n      dup2\n      add\n      swap1\n      tag_78\n      swap2\n      swap1\n      tag_56\n      jump\t// in\n    tag_78:\n      pop\n        /* \"Contract_Conqueror_Series/simpleSwap.sol\":2239:2241  to */\n      dup2\n        /* \"Contract_Conqueror_Series/simpleSwap.sol\":2217:2250  WithdrawTokens(token, to, amount) */\n      0xffffffffffffffffffffffffffffffffffffffff\n      and\n        /* \"Contract_Conqueror_Series/simpleSwap.sol\":2232:2237  token */\n      dup4\n        /* \"Contract_Conqueror_Series/simpleSwap.sol\":2217:2250  WithdrawTokens(token, to, amount) */\n      0xffffffffffffffffffffffffffffffffffffffff\n      and\n      0x70082d08c003c5341f2401bec1c2ae1dbcdc29ae17e9cc5633fa617caa8acd4c\n        /* \"Contract_Conqueror_Series/simpleSwap.sol\":2243:2249  amount */\n      dup4\n        /* \"Contract_Conqueror_Series/simpleSwap.sol\":2217:2250  WithdrawTokens(token, to, amount) */\n      mload(0x40)\n      tag_79\n      swap2\n      swap1\n      tag_18\n      jump\t// in\n    tag_79:\n      mload(0x40)\n      dup1\n      swap2\n      sub\n      swap1\n      log3\n        /* \"Contract_Conqueror_Series/simpleSwap.sol\":2070:2258  function withdrawTokens(address token, address to, uint256 amount) external onlyOwner {... */\n      pop\n      pop\n      pop\n      jump\t// out\n        /* \"Contract_Conqueror_Series/simpleSwap.sol\":491:511  IERC20 public tokenB */\n    tag_28:\n      0x02\n      0x00\n      swap1\n      sload\n      swap1\n      0x0100\n      exp\n      swap1\n      div\n      0xffffffffffffffffffffffffffffffffffffffff\n      and\n      dup2\n      jump\t// out\n        /* \"Contract_Conqueror_Series/simpleSwap.sol\":1165:1356  function updateRate(uint256 _newRate) external onlyOwner {... */\n    tag_32:\n        /* \"Contract_Conqueror_Series/simpleSwap.sol\":880:885  owner */\n      0x00\n      0x00\n      swap1\n      sload\n      swap1\n      0x0100\n      exp\n      swap1\n      div\n      0xffffffffffffffffffffffffffffffffffffffff\n      and\n        /* \"Contract_Conqueror_Series/simpleSwap.sol\":866:885  msg.sender == owner */\n      0xffffffffffffffffffffffffffffffffffffffff\n      and\n        /* \"Contract_Conqueror_Series/simpleSwap.sol\":866:876  msg.sender */\n      caller\n        /* \"Contract_Conqueror_Series/simpleSwap.sol\":866:885  msg.sender == owner */\n      0xffffffffffffffffffffffffffffffffffffffff\n      and\n      eq\n        /* \"Contract_Conqueror_Series/simpleSwap.sol\":858:899  require(msg.sender == owner, \"Not owner\") */\n      tag_81\n      jumpi\n      mload(0x40)\n      0x08c379a000000000000000000000000000000000000000000000000000000000\n      dup2\n      mstore\n      0x04\n      add\n      tag_82\n      swap1\n      tag_73\n      jump\t// in\n    tag_82:\n      mload(0x40)\n      dup1\n      swap2\n      sub\n      swap1\n      revert\n    tag_81:\n        /* \"Contract_Conqueror_Series/simpleSwap.sol\":1252:1253  0 */\n      0x00\n        /* \"Contract_Conqueror_Series/simpleSwap.sol\":1241:1249  _newRate */\n      dup2\n        /* \"Contract_Conqueror_Series/simpleSwap.sol\":1241:1253  _newRate > 0 */\n      gt\n        /* \"Contract_Conqueror_Series/simpleSwap.sol\":1233:1279  require(_newRate > 0, \"Rate must be positive\") */\n      tag_84\n      jumpi\n      mload(0x40)\n      0x08c379a000000000000000000000000000000000000000000000000000000000\n      dup2\n      mstore\n      0x04\n      add\n      tag_85\n      swap1\n      tag_86\n      jump\t// in\n    tag_85:\n      mload(0x40)\n      dup1\n      swap2\n      sub\n      swap1\n      revert\n    tag_84:\n        /* \"Contract_Conqueror_Series/simpleSwap.sol\":1295:1322  RateUpdated(rate, _newRate) */\n      0xb38780ddde1f073d91c150de2696f3f7085883648ba21cc5ef01029cb21d1916\n        /* \"Contract_Conqueror_Series/simpleSwap.sol\":1307:1311  rate */\n      sload(0x03)\n        /* \"Contract_Conqueror_Series/simpleSwap.sol\":1313:1321  _newRate */\n      dup3\n        /* \"Contract_Conqueror_Series/simpleSwap.sol\":1295:1322  RateUpdated(rate, _newRate) */\n      mload(0x40)\n      tag_87\n      swap3\n      swap2\n      swap1\n      tag_69\n      jump\t// in\n    tag_87:\n      mload(0x40)\n      dup1\n      swap2\n      sub\n      swap1\n      log1\n        /* \"Contract_Conqueror_Series/simpleSwap.sol\":1340:1348  _newRate */\n      dup1\n        /* \"Contract_Conqueror_Series/simpleSwap.sol\":1333:1337  rate */\n      0x03\n        /* \"Contract_Conqueror_Series/simpleSwap.sol\":1333:1348  rate = _newRate */\n      dup2\n      swap1\n      sstore\n      pop\n        /* \"Contract_Conqueror_Series/simpleSwap.sol\":1165:1356  function updateRate(uint256 _newRate) external onlyOwner {... */\n      pop\n      jump\t// out\n        /* \"Contract_Conqueror_Series/simpleSwap.sol\":437:457  address public owner */\n    tag_34:\n      0x00\n      0x00\n      swap1\n      sload\n      swap1\n      0x0100\n      exp\n      swap1\n      div\n      0xffffffffffffffffffffffffffffffffffffffff\n      and\n      dup2\n      jump\t// out\n        /* \"#utility.yul\":7:133   */\n    tag_88:\n        /* \"#utility.yul\":44:51   */\n      0x00\n        /* \"#utility.yul\":84:126   */\n      0xffffffffffffffffffffffffffffffffffffffff\n        /* \"#utility.yul\":77:82   */\n      dup3\n        /* \"#utility.yul\":73:127   */\n      and\n        /* \"#utility.yul\":62:127   */\n      swap1\n      pop\n        /* \"#utility.yul\":7:133   */\n      swap2\n      swap1\n      pop\n      jump\t// out\n        /* \"#utility.yul\":139:199   */\n    tag_89:\n        /* \"#utility.yul\":167:170   */\n      0x00\n        /* \"#utility.yul\":188:193   */\n      dup2\n        /* \"#utility.yul\":181:193   */\n      swap1\n      pop\n        /* \"#utility.yul\":139:199   */\n      swap2\n      swap1\n      pop\n      jump\t// out\n        /* \"#utility.yul\":205:347   */\n    tag_90:\n        /* \"#utility.yul\":255:264   */\n      0x00\n        /* \"#utility.yul\":288:341   */\n      tag_127\n        /* \"#utility.yul\":306:340   */\n      tag_128\n        /* \"#utility.yul\":315:339   */\n      tag_129\n        /* \"#utility.yul\":333:338   */\n      dup5\n        /* \"#utility.yul\":315:339   */\n      tag_88\n      jump\t// in\n    tag_129:\n        /* \"#utility.yul\":306:340   */\n      tag_89\n      jump\t// in\n    tag_128:\n        /* \"#utility.yul\":288:341   */\n      tag_88\n      jump\t// in\n    tag_127:\n        /* \"#utility.yul\":275:341   */\n      swap1\n      pop\n        /* \"#utility.yul\":205:347   */\n      swap2\n      swap1\n      pop\n      jump\t// out\n        /* \"#utility.yul\":353:479   */\n    tag_91:\n        /* \"#utility.yul\":403:412   */\n      0x00\n        /* \"#utility.yul\":436:473   */\n      tag_131\n        /* \"#utility.yul\":467:472   */\n      dup3\n        /* \"#utility.yul\":436:473   */\n      tag_90\n      jump\t// in\n    tag_131:\n        /* \"#utility.yul\":423:473   */\n      swap1\n      pop\n        /* \"#utility.yul\":353:479   */\n      swap2\n      swap1\n      pop\n      jump\t// out\n        /* \"#utility.yul\":485:624   */\n    tag_92:\n        /* \"#utility.yul\":548:557   */\n      0x00\n        /* \"#utility.yul\":581:618   */\n      tag_133\n        /* \"#utility.yul\":612:617   */\n      dup3\n        /* \"#utility.yul\":581:618   */\n      tag_91\n      jump\t// in\n    tag_133:\n        /* \"#utility.yul\":568:618   */\n      swap1\n      pop\n        /* \"#utility.yul\":485:624   */\n      swap2\n      swap1\n      pop\n      jump\t// out\n        /* \"#utility.yul\":630:787   */\n    tag_93:\n        /* \"#utility.yul\":730:780   */\n      tag_135\n        /* \"#utility.yul\":774:779   */\n      dup2\n        /* \"#utility.yul\":730:780   */\n      tag_92\n      jump\t// in\n    tag_135:\n        /* \"#utility.yul\":725:728   */\n      dup3\n        /* \"#utility.yul\":718:781   */\n      mstore\n        /* \"#utility.yul\":630:787   */\n      pop\n      pop\n      jump\t// out\n        /* \"#utility.yul\":793:1041   */\n    tag_14:\n        /* \"#utility.yul\":899:903   */\n      0x00\n        /* \"#utility.yul\":937:939   */\n      0x20\n        /* \"#utility.yul\":926:935   */\n      dup3\n        /* \"#utility.yul\":922:940   */\n      add\n        /* \"#utility.yul\":914:940   */\n      swap1\n      pop\n        /* \"#utility.yul\":950:1034   */\n      tag_137\n        /* \"#utility.yul\":1031:1032   */\n      0x00\n        /* \"#utility.yul\":1020:1029   */\n      dup4\n        /* \"#utility.yul\":1016:1033   */\n      add\n        /* \"#utility.yul\":1007:1013   */\n      dup5\n        /* \"#utility.yul\":950:1034   */\n      tag_93\n      jump\t// in\n    tag_137:\n        /* \"#utility.yul\":793:1041   */\n      swap3\n      swap2\n      pop\n      pop\n      jump\t// out\n        /* \"#utility.yul\":1047:1124   */\n    tag_94:\n        /* \"#utility.yul\":1084:1091   */\n      0x00\n        /* \"#utility.yul\":1113:1118   */\n      dup2\n        /* \"#utility.yul\":1102:1118   */\n      swap1\n      pop\n        /* \"#utility.yul\":1047:1124   */\n      swap2\n      swap1\n      pop\n      jump\t// out\n        /* \"#utility.yul\":1130:1248   */\n    tag_95:\n        /* \"#utility.yul\":1217:1241   */\n      tag_140\n        /* \"#utility.yul\":1235:1240   */\n      dup2\n        /* \"#utility.yul\":1217:1241   */\n      tag_94\n      jump\t// in\n    tag_140:\n        /* \"#utility.yul\":1212:1215   */\n      dup3\n        /* \"#utility.yul\":1205:1242   */\n      mstore\n        /* \"#utility.yul\":1130:1248   */\n      pop\n      pop\n      jump\t// out\n        /* \"#utility.yul\":1254:1476   */\n    tag_18:\n        /* \"#utility.yul\":1347:1351   */\n      0x00\n        /* \"#utility.yul\":1385:1387   */\n      0x20\n        /* \"#utility.yul\":1374:1383   */\n      dup3\n        /* \"#utility.yul\":1370:1388   */\n      add\n        /* \"#utility.yul\":1362:1388   */\n      swap1\n      pop\n        /* \"#utility.yul\":1398:1469   */\n      tag_142\n        /* \"#utility.yul\":1466:1467   */\n      0x00\n        /* \"#utility.yul\":1455:1464   */\n      dup4\n        /* \"#utility.yul\":1451:1468   */\n      add\n        /* \"#utility.yul\":1442:1448   */\n      dup5\n        /* \"#utility.yul\":1398:1469   */\n      tag_95\n      jump\t// in\n    tag_142:\n        /* \"#utility.yul\":1254:1476   */\n      swap3\n      swap2\n      pop\n      pop\n      jump\t// out\n        /* \"#utility.yul\":1563:1680   */\n    tag_97:\n        /* \"#utility.yul\":1672:1673   */\n      0x00\n        /* \"#utility.yul\":1669:1670   */\n      0x00\n        /* \"#utility.yul\":1662:1674   */\n      revert\n        /* \"#utility.yul\":1809:1931   */\n    tag_99:\n        /* \"#utility.yul\":1882:1906   */\n      tag_147\n        /* \"#utility.yul\":1900:1905   */\n      dup2\n        /* \"#utility.yul\":1882:1906   */\n      tag_94\n      jump\t// in\n    tag_147:\n        /* \"#utility.yul\":1875:1880   */\n      dup2\n        /* \"#utility.yul\":1872:1907   */\n      eq\n        /* \"#utility.yul\":1862:1925   */\n      tag_148\n      jumpi\n        /* \"#utility.yul\":1921:1922   */\n      0x00\n        /* \"#utility.yul\":1918:1919   */\n      0x00\n        /* \"#utility.yul\":1911:1923   */\n      revert\n        /* \"#utility.yul\":1862:1925   */\n    tag_148:\n        /* \"#utility.yul\":1809:1931   */\n      pop\n      jump\t// out\n        /* \"#utility.yul\":1937:2076   */\n    tag_100:\n        /* \"#utility.yul\":1983:1988   */\n      0x00\n        /* \"#utility.yul\":2021:2027   */\n      dup2\n        /* \"#utility.yul\":2008:2028   */\n      calldataload\n        /* \"#utility.yul\":1999:2028   */\n      swap1\n      pop\n        /* \"#utility.yul\":2037:2070   */\n      tag_150\n        /* \"#utility.yul\":2064:2069   */\n      dup2\n        /* \"#utility.yul\":2037:2070   */\n      tag_99\n      jump\t// in\n    tag_150:\n        /* \"#utility.yul\":1937:2076   */\n      swap3\n      swap2\n      pop\n      pop\n      jump\t// out\n        /* \"#utility.yul\":2082:2411   */\n    tag_21:\n        /* \"#utility.yul\":2141:2147   */\n      0x00\n        /* \"#utility.yul\":2190:2192   */\n      0x20\n        /* \"#utility.yul\":2178:2187   */\n      dup3\n        /* \"#utility.yul\":2169:2176   */\n      dup5\n        /* \"#utility.yul\":2165:2188   */\n      sub\n        /* \"#utility.yul\":2161:2193   */\n      slt\n        /* \"#utility.yul\":2158:2277   */\n      iszero\n      tag_152\n      jumpi\n        /* \"#utility.yul\":2196:2275   */\n      tag_153\n      tag_97\n      jump\t// in\n    tag_153:\n        /* \"#utility.yul\":2158:2277   */\n    tag_152:\n        /* \"#utility.yul\":2316:2317   */\n      0x00\n        /* \"#utility.yul\":2341:2394   */\n      tag_154\n        /* \"#utility.yul\":2386:2393   */\n      dup5\n        /* \"#utility.yul\":2377:2383   */\n      dup3\n        /* \"#utility.yul\":2366:2375   */\n      dup6\n        /* \"#utility.yul\":2362:2384   */\n      add\n        /* \"#utility.yul\":2341:2394   */\n      tag_100\n      jump\t// in\n    tag_154:\n        /* \"#utility.yul\":2331:2394   */\n      swap2\n      pop\n        /* \"#utility.yul\":2287:2404   */\n      pop\n        /* \"#utility.yul\":2082:2411   */\n      swap3\n      swap2\n      pop\n      pop\n      jump\t// out\n        /* \"#utility.yul\":2417:2513   */\n    tag_101:\n        /* \"#utility.yul\":2454:2461   */\n      0x00\n        /* \"#utility.yul\":2483:2507   */\n      tag_156\n        /* \"#utility.yul\":2501:2506   */\n      dup3\n        /* \"#utility.yul\":2483:2507   */\n      tag_88\n      jump\t// in\n    tag_156:\n        /* \"#utility.yul\":2472:2507   */\n      swap1\n      pop\n        /* \"#utility.yul\":2417:2513   */\n      swap2\n      swap1\n      pop\n      jump\t// out\n        /* \"#utility.yul\":2519:2641   */\n    tag_102:\n        /* \"#utility.yul\":2592:2616   */\n      tag_158\n        /* \"#utility.yul\":2610:2615   */\n      dup2\n        /* \"#utility.yul\":2592:2616   */\n      tag_101\n      jump\t// in\n    tag_158:\n        /* \"#utility.yul\":2585:2590   */\n      dup2\n        /* \"#utility.yul\":2582:2617   */\n      eq\n        /* \"#utility.yul\":2572:2635   */\n      tag_159\n      jumpi\n        /* \"#utility.yul\":2631:2632   */\n      0x00\n        /* \"#utility.yul\":2628:2629   */\n      0x00\n        /* \"#utility.yul\":2621:2633   */\n      revert\n        /* \"#utility.yul\":2572:2635   */\n    tag_159:\n        /* \"#utility.yul\":2519:2641   */\n      pop\n      jump\t// out\n        /* \"#utility.yul\":2647:2786   */\n    tag_103:\n        /* \"#utility.yul\":2693:2698   */\n      0x00\n        /* \"#utility.yul\":2731:2737   */\n      dup2\n        /* \"#utility.yul\":2718:2738   */\n      calldataload\n        /* \"#utility.yul\":2709:2738   */\n      swap1\n      pop\n        /* \"#utility.yul\":2747:2780   */\n      tag_161\n        /* \"#utility.yul\":2774:2779   */\n      dup2\n        /* \"#utility.yul\":2747:2780   */\n      tag_102\n      jump\t// in\n    tag_161:\n        /* \"#utility.yul\":2647:2786   */\n      swap3\n      swap2\n      pop\n      pop\n      jump\t// out\n        /* \"#utility.yul\":2792:3411   */\n    tag_25:\n        /* \"#utility.yul\":2869:2875   */\n      0x00\n        /* \"#utility.yul\":2877:2883   */\n      0x00\n        /* \"#utility.yul\":2885:2891   */\n      0x00\n        /* \"#utility.yul\":2934:2936   */\n      0x60\n        /* \"#utility.yul\":2922:2931   */\n      dup5\n        /* \"#utility.yul\":2913:2920   */\n      dup7\n        /* \"#utility.yul\":2909:2932   */\n      sub\n        /* \"#utility.yul\":2905:2937   */\n      slt\n        /* \"#utility.yul\":2902:3021   */\n      iszero\n      tag_163\n      jumpi\n        /* \"#utility.yul\":2940:3019   */\n      tag_164\n      tag_97\n      jump\t// in\n    tag_164:\n        /* \"#utility.yul\":2902:3021   */\n    tag_163:\n        /* \"#utility.yul\":3060:3061   */\n      0x00\n        /* \"#utility.yul\":3085:3138   */\n      tag_165\n        /* \"#utility.yul\":3130:3137   */\n      dup7\n        /* \"#utility.yul\":3121:3127   */\n      dup3\n        /* \"#utility.yul\":3110:3119   */\n      dup8\n        /* \"#utility.yul\":3106:3128   */\n      add\n        /* \"#utility.yul\":3085:3138   */\n      tag_103\n      jump\t// in\n    tag_165:\n        /* \"#utility.yul\":3075:3138   */\n      swap4\n      pop\n        /* \"#utility.yul\":3031:3148   */\n      pop\n        /* \"#utility.yul\":3187:3189   */\n      0x20\n        /* \"#utility.yul\":3213:3266   */\n      tag_166\n        /* \"#utility.yul\":3258:3265   */\n      dup7\n        /* \"#utility.yul\":3249:3255   */\n      dup3\n        /* \"#utility.yul\":3238:3247   */\n      dup8\n        /* \"#utility.yul\":3234:3256   */\n      add\n        /* \"#utility.yul\":3213:3266   */\n      tag_103\n      jump\t// in\n    tag_166:\n        /* \"#utility.yul\":3203:3266   */\n      swap3\n      pop\n        /* \"#utility.yul\":3158:3276   */\n      pop\n        /* \"#utility.yul\":3315:3317   */\n      0x40\n        /* \"#utility.yul\":3341:3394   */\n      tag_167\n        /* \"#utility.yul\":3386:3393   */\n      dup7\n        /* \"#utility.yul\":3377:3383   */\n      dup3\n        /* \"#utility.yul\":3366:3375   */\n      dup8\n        /* \"#utility.yul\":3362:3384   */\n      add\n        /* \"#utility.yul\":3341:3394   */\n      tag_100\n      jump\t// in\n    tag_167:\n        /* \"#utility.yul\":3331:3394   */\n      swap2\n      pop\n        /* \"#utility.yul\":3286:3404   */\n      pop\n        /* \"#utility.yul\":2792:3411   */\n      swap3\n      pop\n      swap3\n      pop\n      swap3\n      jump\t// out\n        /* \"#utility.yul\":3417:3535   */\n    tag_104:\n        /* \"#utility.yul\":3504:3528   */\n      tag_169\n        /* \"#utility.yul\":3522:3527   */\n      dup2\n        /* \"#utility.yul\":3504:3528   */\n      tag_101\n      jump\t// in\n    tag_169:\n        /* \"#utility.yul\":3499:3502   */\n      dup3\n        /* \"#utility.yul\":3492:3529   */\n      mstore\n        /* \"#utility.yul\":3417:3535   */\n      pop\n      pop\n      jump\t// out\n        /* \"#utility.yul\":3541:3763   */\n    tag_36:\n        /* \"#utility.yul\":3634:3638   */\n      0x00\n        /* \"#utility.yul\":3672:3674   */\n      0x20\n        /* \"#utility.yul\":3661:3670   */\n      dup3\n        /* \"#utility.yul\":3657:3675   */\n      add\n        /* \"#utility.yul\":3649:3675   */\n      swap1\n      pop\n        /* \"#utility.yul\":3685:3756   */\n      tag_171\n        /* \"#utility.yul\":3753:3754   */\n      0x00\n        /* \"#utility.yul\":3742:3751   */\n      dup4\n        /* \"#utility.yul\":3738:3755   */\n      add\n        /* \"#utility.yul\":3729:3735   */\n      dup5\n        /* \"#utility.yul\":3685:3756   */\n      tag_104\n      jump\t// in\n    tag_171:\n        /* \"#utility.yul\":3541:3763   */\n      swap3\n      swap2\n      pop\n      pop\n      jump\t// out\n        /* \"#utility.yul\":3769:3938   */\n    tag_105:\n        /* \"#utility.yul\":3853:3864   */\n      0x00\n        /* \"#utility.yul\":3887:3893   */\n      dup3\n        /* \"#utility.yul\":3882:3885   */\n      dup3\n        /* \"#utility.yul\":3875:3894   */\n      mstore\n        /* \"#utility.yul\":3927:3931   */\n      0x20\n        /* \"#utility.yul\":3922:3925   */\n      dup3\n        /* \"#utility.yul\":3918:3932   */\n      add\n        /* \"#utility.yul\":3903:3932   */\n      swap1\n      pop\n        /* \"#utility.yul\":3769:3938   */\n      swap3\n      swap2\n      pop\n      pop\n      jump\t// out\n        /* \"#utility.yul\":3944:4117   */\n    tag_106:\n        /* \"#utility.yul\":4084:4109   */\n      0x416d6f756e74206d75737420626520706f736974697665000000000000000000\n        /* \"#utility.yul\":4080:4081   */\n      0x00\n        /* \"#utility.yul\":4072:4078   */\n      dup3\n        /* \"#utility.yul\":4068:4082   */\n      add\n        /* \"#utility.yul\":4061:4110   */\n      mstore\n        /* \"#utility.yul\":3944:4117   */\n      pop\n      jump\t// out\n        /* \"#utility.yul\":4123:4489   */\n    tag_107:\n        /* \"#utility.yul\":4265:4268   */\n      0x00\n        /* \"#utility.yul\":4286:4353   */\n      tag_175\n        /* \"#utility.yul\":4350:4352   */\n      0x17\n        /* \"#utility.yul\":4345:4348   */\n      dup4\n        /* \"#utility.yul\":4286:4353   */\n      tag_105\n      jump\t// in\n    tag_175:\n        /* \"#utility.yul\":4279:4353   */\n      swap2\n      pop\n        /* \"#utility.yul\":4362:4455   */\n      tag_176\n        /* \"#utility.yul\":4451:4454   */\n      dup3\n        /* \"#utility.yul\":4362:4455   */\n      tag_106\n      jump\t// in\n    tag_176:\n        /* \"#utility.yul\":4480:4482   */\n      0x20\n        /* \"#utility.yul\":4475:4478   */\n      dup3\n        /* \"#utility.yul\":4471:4483   */\n      add\n        /* \"#utility.yul\":4464:4483   */\n      swap1\n      pop\n        /* \"#utility.yul\":4123:4489   */\n      swap2\n      swap1\n      pop\n      jump\t// out\n        /* \"#utility.yul\":4495:4914   */\n    tag_40:\n        /* \"#utility.yul\":4661:4665   */\n      0x00\n        /* \"#utility.yul\":4699:4701   */\n      0x20\n        /* \"#utility.yul\":4688:4697   */\n      dup3\n        /* \"#utility.yul\":4684:4702   */\n      add\n        /* \"#utility.yul\":4676:4702   */\n      swap1\n      pop\n        /* \"#utility.yul\":4748:4757   */\n      dup2\n        /* \"#utility.yul\":4742:4746   */\n      dup2\n        /* \"#utility.yul\":4738:4758   */\n      sub\n        /* \"#utility.yul\":4734:4735   */\n      0x00\n        /* \"#utility.yul\":4723:4732   */\n      dup4\n        /* \"#utility.yul\":4719:4736   */\n      add\n        /* \"#utility.yul\":4712:4759   */\n      mstore\n        /* \"#utility.yul\":4776:4907   */\n      tag_178\n        /* \"#utility.yul\":4902:4906   */\n      dup2\n        /* \"#utility.yul\":4776:4907   */\n      tag_107\n      jump\t// in\n    tag_178:\n        /* \"#utility.yul\":4768:4907   */\n      swap1\n      pop\n        /* \"#utility.yul\":4495:4914   */\n      swap2\n      swap1\n      pop\n      jump\t// out\n        /* \"#utility.yul\":4920:5100   */\n    tag_108:\n        /* \"#utility.yul\":4968:5045   */\n      0x4e487b7100000000000000000000000000000000000000000000000000000000\n        /* \"#utility.yul\":4965:4966   */\n      0x00\n        /* \"#utility.yul\":4958:5046   */\n      mstore\n        /* \"#utility.yul\":5065:5069   */\n      0x11\n        /* \"#utility.yul\":5062:5063   */\n      0x04\n        /* \"#utility.yul\":5055:5070   */\n      mstore\n        /* \"#utility.yul\":5089:5093   */\n      0x24\n        /* \"#utility.yul\":5086:5087   */\n      0x00\n        /* \"#utility.yul\":5079:5094   */\n      revert\n        /* \"#utility.yul\":5106:5516   */\n    tag_42:\n        /* \"#utility.yul\":5146:5153   */\n      0x00\n        /* \"#utility.yul\":5169:5189   */\n      tag_181\n        /* \"#utility.yul\":5187:5188   */\n      dup3\n        /* \"#utility.yul\":5169:5189   */\n      tag_94\n      jump\t// in\n    tag_181:\n        /* \"#utility.yul\":5164:5189   */\n      swap2\n      pop\n        /* \"#utility.yul\":5203:5223   */\n      tag_182\n        /* \"#utility.yul\":5221:5222   */\n      dup4\n        /* \"#utility.yul\":5203:5223   */\n      tag_94\n      jump\t// in\n    tag_182:\n        /* \"#utility.yul\":5198:5223   */\n      swap3\n      pop\n        /* \"#utility.yul\":5258:5259   */\n      dup3\n        /* \"#utility.yul\":5255:5256   */\n      dup3\n        /* \"#utility.yul\":5251:5260   */\n      mul\n        /* \"#utility.yul\":5280:5310   */\n      tag_183\n        /* \"#utility.yul\":5298:5309   */\n      dup2\n        /* \"#utility.yul\":5280:5310   */\n      tag_94\n      jump\t// in\n    tag_183:\n        /* \"#utility.yul\":5269:5310   */\n      swap2\n      pop\n        /* \"#utility.yul\":5459:5460   */\n      dup3\n        /* \"#utility.yul\":5450:5457   */\n      dup3\n        /* \"#utility.yul\":5446:5461   */\n      div\n        /* \"#utility.yul\":5443:5444   */\n      dup5\n        /* \"#utility.yul\":5440:5462   */\n      eq\n        /* \"#utility.yul\":5420:5421   */\n      dup4\n        /* \"#utility.yul\":5413:5422   */\n      iszero\n        /* \"#utility.yul\":5393:5476   */\n      or\n        /* \"#utility.yul\":5370:5509   */\n      tag_184\n      jumpi\n        /* \"#utility.yul\":5489:5507   */\n      tag_185\n      tag_108\n      jump\t// in\n    tag_185:\n        /* \"#utility.yul\":5370:5509   */\n    tag_184:\n        /* \"#utility.yul\":5154:5516   */\n      pop\n        /* \"#utility.yul\":5106:5516   */\n      swap3\n      swap2\n      pop\n      pop\n      jump\t// out\n        /* \"#utility.yul\":5522:5665   */\n    tag_109:\n        /* \"#utility.yul\":5579:5584   */\n      0x00\n        /* \"#utility.yul\":5610:5616   */\n      dup2\n        /* \"#utility.yul\":5604:5617   */\n      mload\n        /* \"#utility.yul\":5595:5617   */\n      swap1\n      pop\n        /* \"#utility.yul\":5626:5659   */\n      tag_187\n        /* \"#utility.yul\":5653:5658   */\n      dup2\n        /* \"#utility.yul\":5626:5659   */\n      tag_99\n      jump\t// in\n    tag_187:\n        /* \"#utility.yul\":5522:5665   */\n      swap3\n      swap2\n      pop\n      pop\n      jump\t// out\n        /* \"#utility.yul\":5671:6022   */\n    tag_47:\n        /* \"#utility.yul\":5741:5747   */\n      0x00\n        /* \"#utility.yul\":5790:5792   */\n      0x20\n        /* \"#utility.yul\":5778:5787   */\n      dup3\n        /* \"#utility.yul\":5769:5776   */\n      dup5\n        /* \"#utility.yul\":5765:5788   */\n      sub\n        /* \"#utility.yul\":5761:5793   */\n      slt\n        /* \"#utility.yul\":5758:5877   */\n      iszero\n      tag_189\n      jumpi\n        /* \"#utility.yul\":5796:5875   */\n      tag_190\n      tag_97\n      jump\t// in\n    tag_190:\n        /* \"#utility.yul\":5758:5877   */\n    tag_189:\n        /* \"#utility.yul\":5916:5917   */\n      0x00\n        /* \"#utility.yul\":5941:6005   */\n      tag_191\n        /* \"#utility.yul\":5997:6004   */\n      dup5\n        /* \"#utility.yul\":5988:5994   */\n      dup3\n        /* \"#utility.yul\":5977:5986   */\n      dup6\n        /* \"#utility.yul\":5973:5995   */\n      add\n        /* \"#utility.yul\":5941:6005   */\n      tag_109\n      jump\t// in\n    tag_191:\n        /* \"#utility.yul\":5931:6005   */\n      swap2\n      pop\n        /* \"#utility.yul\":5887:6015   */\n      pop\n        /* \"#utility.yul\":5671:6022   */\n      swap3\n      swap2\n      pop\n      pop\n      jump\t// out\n        /* \"#utility.yul\":6028:6209   */\n    tag_110:\n        /* \"#utility.yul\":6168:6201   */\n      0x496e73756666696369656e7420546f6b656e4220696e20636f6e747261637400\n        /* \"#utility.yul\":6164:6165   */\n      0x00\n        /* \"#utility.yul\":6156:6162   */\n      dup3\n        /* \"#utility.yul\":6152:6166   */\n      add\n        /* \"#utility.yul\":6145:6202   */\n      mstore\n        /* \"#utility.yul\":6028:6209   */\n      pop\n      jump\t// out\n        /* \"#utility.yul\":6215:6581   */\n    tag_111:\n        /* \"#utility.yul\":6357:6360   */\n      0x00\n        /* \"#utility.yul\":6378:6445   */\n      tag_194\n        /* \"#utility.yul\":6442:6444   */\n      0x1f\n        /* \"#utility.yul\":6437:6440   */\n      dup4\n        /* \"#utility.yul\":6378:6445   */\n      tag_105\n      jump\t// in\n    tag_194:\n        /* \"#utility.yul\":6371:6445   */\n      swap2\n      pop\n        /* \"#utility.yul\":6454:6547   */\n      tag_195\n        /* \"#utility.yul\":6543:6546   */\n      dup3\n        /* \"#utility.yul\":6454:6547   */\n      tag_110\n      jump\t// in\n    tag_195:\n        /* \"#utility.yul\":6572:6574   */\n      0x20\n        /* \"#utility.yul\":6567:6570   */\n      dup3\n        /* \"#utility.yul\":6563:6575   */\n      add\n        /* \"#utility.yul\":6556:6575   */\n      swap1\n      pop\n        /* \"#utility.yul\":6215:6581   */\n      swap2\n      swap1\n      pop\n      jump\t// out\n        /* \"#utility.yul\":6587:7006   */\n    tag_50:\n        /* \"#utility.yul\":6753:6757   */\n      0x00\n        /* \"#utility.yul\":6791:6793   */\n      0x20\n        /* \"#utility.yul\":6780:6789   */\n      dup3\n        /* \"#utility.yul\":6776:6794   */\n      add\n        /* \"#utility.yul\":6768:6794   */\n      swap1\n      pop\n        /* \"#utility.yul\":6840:6849   */\n      dup2\n        /* \"#utility.yul\":6834:6838   */\n      dup2\n        /* \"#utility.yul\":6830:6850   */\n      sub\n        /* \"#utility.yul\":6826:6827   */\n      0x00\n        /* \"#utility.yul\":6815:6824   */\n      dup4\n        /* \"#utility.yul\":6811:6828   */\n      add\n        /* \"#utility.yul\":6804:6851   */\n      mstore\n        /* \"#utility.yul\":6868:6999   */\n      tag_197\n        /* \"#utility.yul\":6994:6998   */\n      dup2\n        /* \"#utility.yul\":6868:6999   */\n      tag_111\n      jump\t// in\n    tag_197:\n        /* \"#utility.yul\":6860:6999   */\n      swap1\n      pop\n        /* \"#utility.yul\":6587:7006   */\n      swap2\n      swap1\n      pop\n      jump\t// out\n        /* \"#utility.yul\":7012:7454   */\n    tag_52:\n        /* \"#utility.yul\":7161:7165   */\n      0x00\n        /* \"#utility.yul\":7199:7201   */\n      0x60\n        /* \"#utility.yul\":7188:7197   */\n      dup3\n        /* \"#utility.yul\":7184:7202   */\n      add\n        /* \"#utility.yul\":7176:7202   */\n      swap1\n      pop\n        /* \"#utility.yul\":7212:7283   */\n      tag_199\n        /* \"#utility.yul\":7280:7281   */\n      0x00\n        /* \"#utility.yul\":7269:7278   */\n      dup4\n        /* \"#utility.yul\":7265:7282   */\n      add\n        /* \"#utility.yul\":7256:7262   */\n      dup7\n        /* \"#utility.yul\":7212:7283   */\n      tag_104\n      jump\t// in\n    tag_199:\n        /* \"#utility.yul\":7293:7365   */\n      tag_200\n        /* \"#utility.yul\":7361:7363   */\n      0x20\n        /* \"#utility.yul\":7350:7359   */\n      dup4\n        /* \"#utility.yul\":7346:7364   */\n      add\n        /* \"#utility.yul\":7337:7343   */\n      dup6\n        /* \"#utility.yul\":7293:7365   */\n      tag_104\n      jump\t// in\n    tag_200:\n        /* \"#utility.yul\":7375:7447   */\n      tag_201\n        /* \"#utility.yul\":7443:7445   */\n      0x40\n        /* \"#utility.yul\":7432:7441   */\n      dup4\n        /* \"#utility.yul\":7428:7446   */\n      add\n        /* \"#utility.yul\":7419:7425   */\n      dup5\n        /* \"#utility.yul\":7375:7447   */\n      tag_95\n      jump\t// in\n    tag_201:\n        /* \"#utility.yul\":7012:7454   */\n      swap5\n      swap4\n      pop\n      pop\n      pop\n      pop\n      jump\t// out\n        /* \"#utility.yul\":7460:7550   */\n    tag_112:\n        /* \"#utility.yul\":7494:7501   */\n      0x00\n        /* \"#utility.yul\":7537:7542   */\n      dup2\n        /* \"#utility.yul\":7530:7543   */\n      iszero\n        /* \"#utility.yul\":7523:7544   */\n      iszero\n        /* \"#utility.yul\":7512:7544   */\n      swap1\n      pop\n        /* \"#utility.yul\":7460:7550   */\n      swap2\n      swap1\n      pop\n      jump\t// out\n        /* \"#utility.yul\":7556:7672   */\n    tag_113:\n        /* \"#utility.yul\":7626:7647   */\n      tag_204\n        /* \"#utility.yul\":7641:7646   */\n      dup2\n        /* \"#utility.yul\":7626:7647   */\n      tag_112\n      jump\t// in\n    tag_204:\n        /* \"#utility.yul\":7619:7624   */\n      dup2\n        /* \"#utility.yul\":7616:7648   */\n      eq\n        /* \"#utility.yul\":7606:7666   */\n      tag_205\n      jumpi\n        /* \"#utility.yul\":7662:7663   */\n      0x00\n        /* \"#utility.yul\":7659:7660   */\n      0x00\n        /* \"#utility.yul\":7652:7664   */\n      revert\n        /* \"#utility.yul\":7606:7666   */\n    tag_205:\n        /* \"#utility.yul\":7556:7672   */\n      pop\n      jump\t// out\n        /* \"#utility.yul\":7678:7815   */\n    tag_114:\n        /* \"#utility.yul\":7732:7737   */\n      0x00\n        /* \"#utility.yul\":7763:7769   */\n      dup2\n        /* \"#utility.yul\":7757:7770   */\n      mload\n        /* \"#utility.yul\":7748:7770   */\n      swap1\n      pop\n        /* \"#utility.yul\":7779:7809   */\n      tag_207\n        /* \"#utility.yul\":7803:7808   */\n      dup2\n        /* \"#utility.yul\":7779:7809   */\n      tag_113\n      jump\t// in\n    tag_207:\n        /* \"#utility.yul\":7678:7815   */\n      swap3\n      swap2\n      pop\n      pop\n      jump\t// out\n        /* \"#utility.yul\":7821:8166   */\n    tag_56:\n        /* \"#utility.yul\":7888:7894   */\n      0x00\n        /* \"#utility.yul\":7937:7939   */\n      0x20\n        /* \"#utility.yul\":7925:7934   */\n      dup3\n        /* \"#utility.yul\":7916:7923   */\n      dup5\n        /* \"#utility.yul\":7912:7935   */\n      sub\n        /* \"#utility.yul\":7908:7940   */\n      slt\n        /* \"#utility.yul\":7905:8024   */\n      iszero\n      tag_209\n      jumpi\n        /* \"#utility.yul\":7943:8022   */\n      tag_210\n      tag_97\n      jump\t// in\n    tag_210:\n        /* \"#utility.yul\":7905:8024   */\n    tag_209:\n        /* \"#utility.yul\":8063:8064   */\n      0x00\n        /* \"#utility.yul\":8088:8149   */\n      tag_211\n        /* \"#utility.yul\":8141:8148   */\n      dup5\n        /* \"#utility.yul\":8132:8138   */\n      dup3\n        /* \"#utility.yul\":8121:8130   */\n      dup6\n        /* \"#utility.yul\":8117:8139   */\n      add\n        /* \"#utility.yul\":8088:8149   */\n      tag_114\n      jump\t// in\n    tag_211:\n        /* \"#utility.yul\":8078:8149   */\n      swap2\n      pop\n        /* \"#utility.yul\":8034:8159   */\n      pop\n        /* \"#utility.yul\":7821:8166   */\n      swap3\n      swap2\n      pop\n      pop\n      jump\t// out\n        /* \"#utility.yul\":8172:8344   */\n    tag_115:\n        /* \"#utility.yul\":8312:8336   */\n      0x546f6b656e41207472616e73666572206661696c656400000000000000000000\n        /* \"#utility.yul\":8308:8309   */\n      0x00\n        /* \"#utility.yul\":8300:8306   */\n      dup3\n        /* \"#utility.yul\":8296:8310   */\n      add\n        /* \"#utility.yul\":8289:8337   */\n      mstore\n        /* \"#utility.yul\":8172:8344   */\n      pop\n      jump\t// out\n        /* \"#utility.yul\":8350:8716   */\n    tag_116:\n        /* \"#utility.yul\":8492:8495   */\n      0x00\n        /* \"#utility.yul\":8513:8580   */\n      tag_214\n        /* \"#utility.yul\":8577:8579   */\n      0x16\n        /* \"#utility.yul\":8572:8575   */\n      dup4\n        /* \"#utility.yul\":8513:8580   */\n      tag_105\n      jump\t// in\n    tag_214:\n        /* \"#utility.yul\":8506:8580   */\n      swap2\n      pop\n        /* \"#utility.yul\":8589:8682   */\n      tag_215\n        /* \"#utility.yul\":8678:8681   */\n      dup3\n        /* \"#utility.yul\":8589:8682   */\n      tag_115\n      jump\t// in\n    tag_215:\n        /* \"#utility.yul\":8707:8709   */\n      0x20\n        /* \"#utility.yul\":8702:8705   */\n      dup3\n        /* \"#utility.yul\":8698:8710   */\n      add\n        /* \"#utility.yul\":8691:8710   */\n      swap1\n      pop\n        /* \"#utility.yul\":8350:8716   */\n      swap2\n      swap1\n      pop\n      jump\t// out\n        /* \"#utility.yul\":8722:9141   */\n    tag_59:\n        /* \"#utility.yul\":8888:8892   */\n      0x00\n        /* \"#utility.yul\":8926:8928   */\n      0x20\n        /* \"#utility.yul\":8915:8924   */\n      dup3\n        /* \"#utility.yul\":8911:8929   */\n      add\n        /* \"#utility.yul\":8903:8929   */\n      swap1\n      pop\n        /* \"#utility.yul\":8975:8984   */\n      dup2\n        /* \"#utility.yul\":8969:8973   */\n      dup2\n        /* \"#utility.yul\":8965:8985   */\n      sub\n        /* \"#utility.yul\":8961:8962   */\n      0x00\n        /* \"#utility.yul\":8950:8959   */\n      dup4\n        /* \"#utility.yul\":8946:8963   */\n      add\n        /* \"#utility.yul\":8939:8986   */\n      mstore\n        /* \"#utility.yul\":9003:9134   */\n      tag_217\n        /* \"#utility.yul\":9129:9133   */\n      dup2\n        /* \"#utility.yul\":9003:9134   */\n      tag_116\n      jump\t// in\n    tag_217:\n        /* \"#utility.yul\":8995:9134   */\n      swap1\n      pop\n        /* \"#utility.yul\":8722:9141   */\n      swap2\n      swap1\n      pop\n      jump\t// out\n        /* \"#utility.yul\":9147:9479   */\n    tag_61:\n        /* \"#utility.yul\":9268:9272   */\n      0x00\n        /* \"#utility.yul\":9306:9308   */\n      0x40\n        /* \"#utility.yul\":9295:9304   */\n      dup3\n        /* \"#utility.yul\":9291:9309   */\n      add\n        /* \"#utility.yul\":9283:9309   */\n      swap1\n      pop\n        /* \"#utility.yul\":9319:9390   */\n      tag_219\n        /* \"#utility.yul\":9387:9388   */\n      0x00\n        /* \"#utility.yul\":9376:9385   */\n      dup4\n        /* \"#utility.yul\":9372:9389   */\n      add\n        /* \"#utility.yul\":9363:9369   */\n      dup6\n        /* \"#utility.yul\":9319:9390   */\n      tag_104\n      jump\t// in\n    tag_219:\n        /* \"#utility.yul\":9400:9472   */\n      tag_220\n        /* \"#utility.yul\":9468:9470   */\n      0x20\n        /* \"#utility.yul\":9457:9466   */\n      dup4\n        /* \"#utility.yul\":9453:9471   */\n      add\n        /* \"#utility.yul\":9444:9450   */\n      dup5\n        /* \"#utility.yul\":9400:9472   */\n      tag_95\n      jump\t// in\n    tag_220:\n        /* \"#utility.yul\":9147:9479   */\n      swap4\n      swap3\n      pop\n      pop\n      pop\n      jump\t// out\n        /* \"#utility.yul\":9485:9657   */\n    tag_117:\n        /* \"#utility.yul\":9625:9649   */\n      0x546f6b656e42207472616e73666572206661696c656400000000000000000000\n        /* \"#utility.yul\":9621:9622   */\n      0x00\n        /* \"#utility.yul\":9613:9619   */\n      dup3\n        /* \"#utility.yul\":9609:9623   */\n      add\n        /* \"#utility.yul\":9602:9650   */\n      mstore\n        /* \"#utility.yul\":9485:9657   */\n      pop\n      jump\t// out\n        /* \"#utility.yul\":9663:10029   */\n    tag_118:\n        /* \"#utility.yul\":9805:9808   */\n      0x00\n        /* \"#utility.yul\":9826:9893   */\n      tag_223\n        /* \"#utility.yul\":9890:9892   */\n      0x16\n        /* \"#utility.yul\":9885:9888   */\n      dup4\n        /* \"#utility.yul\":9826:9893   */\n      tag_105\n      jump\t// in\n    tag_223:\n        /* \"#utility.yul\":9819:9893   */\n      swap2\n      pop\n        /* \"#utility.yul\":9902:9995   */\n      tag_224\n        /* \"#utility.yul\":9991:9994   */\n      dup3\n        /* \"#utility.yul\":9902:9995   */\n      tag_117\n      jump\t// in\n    tag_224:\n        /* \"#utility.yul\":10020:10022   */\n      0x20\n        /* \"#utility.yul\":10015:10018   */\n      dup3\n        /* \"#utility.yul\":10011:10023   */\n      add\n        /* \"#utility.yul\":10004:10023   */\n      swap1\n      pop\n        /* \"#utility.yul\":9663:10029   */\n      swap2\n      swap1\n      pop\n      jump\t// out\n        /* \"#utility.yul\":10035:10454   */\n    tag_67:\n        /* \"#utility.yul\":10201:10205   */\n      0x00\n        /* \"#utility.yul\":10239:10241   */\n      0x20\n        /* \"#utility.yul\":10228:10237   */\n      dup3\n        /* \"#utility.yul\":10224:10242   */\n      add\n        /* \"#utility.yul\":10216:10242   */\n      swap1\n      pop\n        /* \"#utility.yul\":10288:10297   */\n      dup2\n        /* \"#utility.yul\":10282:10286   */\n      dup2\n        /* \"#utility.yul\":10278:10298   */\n      sub\n        /* \"#utility.yul\":10274:10275   */\n      0x00\n        /* \"#utility.yul\":10263:10272   */\n      dup4\n        /* \"#utility.yul\":10259:10276   */\n      add\n        /* \"#utility.yul\":10252:10299   */\n      mstore\n        /* \"#utility.yul\":10316:10447   */\n      tag_226\n        /* \"#utility.yul\":10442:10446   */\n      dup2\n        /* \"#utility.yul\":10316:10447   */\n      tag_118\n      jump\t// in\n    tag_226:\n        /* \"#utility.yul\":10308:10447   */\n      swap1\n      pop\n        /* \"#utility.yul\":10035:10454   */\n      swap2\n      swap1\n      pop\n      jump\t// out\n        /* \"#utility.yul\":10460:10792   */\n    tag_69:\n        /* \"#utility.yul\":10581:10585   */\n      0x00\n        /* \"#utility.yul\":10619:10621   */\n      0x40\n        /* \"#utility.yul\":10608:10617   */\n      dup3\n        /* \"#utility.yul\":10604:10622   */\n      add\n        /* \"#utility.yul\":10596:10622   */\n      swap1\n      pop\n        /* \"#utility.yul\":10632:10703   */\n      tag_228\n        /* \"#utility.yul\":10700:10701   */\n      0x00\n        /* \"#utility.yul\":10689:10698   */\n      dup4\n        /* \"#utility.yul\":10685:10702   */\n      add\n        /* \"#utility.yul\":10676:10682   */\n      dup6\n        /* \"#utility.yul\":10632:10703   */\n      tag_95\n      jump\t// in\n    tag_228:\n        /* \"#utility.yul\":10713:10785   */\n      tag_229\n        /* \"#utility.yul\":10781:10783   */\n      0x20\n        /* \"#utility.yul\":10770:10779   */\n      dup4\n        /* \"#utility.yul\":10766:10784   */\n      add\n        /* \"#utility.yul\":10757:10763   */\n      dup5\n        /* \"#utility.yul\":10713:10785   */\n      tag_95\n      jump\t// in\n    tag_229:\n        /* \"#utility.yul\":10460:10792   */\n      swap4\n      swap3\n      pop\n      pop\n      pop\n      jump\t// out\n        /* \"#utility.yul\":10798:10957   */\n    tag_119:\n        /* \"#utility.yul\":10938:10949   */\n      0x4e6f74206f776e65720000000000000000000000000000000000000000000000\n        /* \"#utility.yul\":10934:10935   */\n      0x00\n        /* \"#utility.yul\":10926:10932   */\n      dup3\n        /* \"#utility.yul\":10922:10936   */\n      add\n        /* \"#utility.yul\":10915:10950   */\n      mstore\n        /* \"#utility.yul\":10798:10957   */\n      pop\n      jump\t// out\n        /* \"#utility.yul\":10963:11328   */\n    tag_120:\n        /* \"#utility.yul\":11105:11108   */\n      0x00\n        /* \"#utility.yul\":11126:11192   */\n      tag_232\n        /* \"#utility.yul\":11190:11191   */\n      0x09\n        /* \"#utility.yul\":11185:11188   */\n      dup4\n        /* \"#utility.yul\":11126:11192   */\n      tag_105\n      jump\t// in\n    tag_232:\n        /* \"#utility.yul\":11119:11192   */\n      swap2\n      pop\n        /* \"#utility.yul\":11201:11294   */\n      tag_233\n        /* \"#utility.yul\":11290:11293   */\n      dup3\n        /* \"#utility.yul\":11201:11294   */\n      tag_119\n      jump\t// in\n    tag_233:\n        /* \"#utility.yul\":11319:11321   */\n      0x20\n        /* \"#utility.yul\":11314:11317   */\n      dup3\n        /* \"#utility.yul\":11310:11322   */\n      add\n        /* \"#utility.yul\":11303:11322   */\n      swap1\n      pop\n        /* \"#utility.yul\":10963:11328   */\n      swap2\n      swap1\n      pop\n      jump\t// out\n        /* \"#utility.yul\":11334:11753   */\n    tag_73:\n        /* \"#utility.yul\":11500:11504   */\n      0x00\n        /* \"#utility.yul\":11538:11540   */\n      0x20\n        /* \"#utility.yul\":11527:11536   */\n      dup3\n        /* \"#utility.yul\":11523:11541   */\n      add\n        /* \"#utility.yul\":11515:11541   */\n      swap1\n      pop\n        /* \"#utility.yul\":11587:11596   */\n      dup2\n        /* \"#utility.yul\":11581:11585   */\n      dup2\n        /* \"#utility.yul\":11577:11597   */\n      sub\n        /* \"#utility.yul\":11573:11574   */\n      0x00\n        /* \"#utility.yul\":11562:11571   */\n      dup4\n        /* \"#utility.yul\":11558:11575   */\n      add\n        /* \"#utility.yul\":11551:11598   */\n      mstore\n        /* \"#utility.yul\":11615:11746   */\n      tag_235\n        /* \"#utility.yul\":11741:11745   */\n      dup2\n        /* \"#utility.yul\":11615:11746   */\n      tag_120\n      jump\t// in\n    tag_235:\n        /* \"#utility.yul\":11607:11746   */\n      swap1\n      pop\n        /* \"#utility.yul\":11334:11753   */\n      swap2\n      swap1\n      pop\n      jump\t// out\n        /* \"#utility.yul\":11759:11930   */\n    tag_121:\n        /* \"#utility.yul\":11899:11922   */\n      0x52617465206d75737420626520706f7369746976650000000000000000000000\n        /* \"#utility.yul\":11895:11896   */\n      0x00\n        /* \"#utility.yul\":11887:11893   */\n      dup3\n        /* \"#utility.yul\":11883:11897   */\n      add\n        /* \"#utility.yul\":11876:11923   */\n      mstore\n        /* \"#utility.yul\":11759:11930   */\n      pop\n      jump\t// out\n        /* \"#utility.yul\":11936:12302   */\n    tag_122:\n        /* \"#utility.yul\":12078:12081   */\n      0x00\n        /* \"#utility.yul\":12099:12166   */\n      tag_238\n        /* \"#utility.yul\":12163:12165   */\n      0x15\n        /* \"#utility.yul\":12158:12161   */\n      dup4\n        /* \"#utility.yul\":12099:12166   */\n      tag_105\n      jump\t// in\n    tag_238:\n        /* \"#utility.yul\":12092:12166   */\n      swap2\n      pop\n        /* \"#utility.yul\":12175:12268   */\n      tag_239\n        /* \"#utility.yul\":12264:12267   */\n      dup3\n        /* \"#utility.yul\":12175:12268   */\n      tag_121\n      jump\t// in\n    tag_239:\n        /* \"#utility.yul\":12293:12295   */\n      0x20\n        /* \"#utility.yul\":12288:12291   */\n      dup3\n        /* \"#utility.yul\":12284:12296   */\n      add\n        /* \"#utility.yul\":12277:12296   */\n      swap1\n      pop\n        /* \"#utility.yul\":11936:12302   */\n      swap2\n      swap1\n      pop\n      jump\t// out\n        /* \"#utility.yul\":12308:12727   */\n    tag_86:\n        /* \"#utility.yul\":12474:12478   */\n      0x00\n        /* \"#utility.yul\":12512:12514   */\n      0x20\n        /* \"#utility.yul\":12501:12510   */\n      dup3\n        /* \"#utility.yul\":12497:12515   */\n      add\n        /* \"#utility.yul\":12489:12515   */\n      swap1\n      pop\n        /* \"#utility.yul\":12561:12570   */\n      dup2\n        /* \"#utility.yul\":12555:12559   */\n      dup2\n        /* \"#utility.yul\":12551:12571   */\n      sub\n        /* \"#utility.yul\":12547:12548   */\n      0x00\n        /* \"#utility.yul\":12536:12545   */\n      dup4\n        /* \"#utility.yul\":12532:12549   */\n      add\n        /* \"#utility.yul\":12525:12572   */\n      mstore\n        /* \"#utility.yul\":12589:12720   */\n      tag_241\n        /* \"#utility.yul\":12715:12719   */\n      dup2\n        /* \"#utility.yul\":12589:12720   */\n      tag_122\n      jump\t// in\n    tag_241:\n        /* \"#utility.yul\":12581:12720   */\n      swap1\n      pop\n        /* \"#utility.yul\":12308:12727   */\n      swap2\n      swap1\n      pop\n      jump\t// out\n\n    auxdata: 0xa2646970667358221220a4977ff32f85792b3b549dca56c8e6d56aecd29cf60b1b2ec4ce5a8045e51bb564736f6c634300081e0033\n}\n",
				"bytecode": {
					"linkReferences": {},
					"object": "608060405234801561000f575f5ffd5b50604051610f85380380610f8583398181016040528101906100319190610190565b335f5f6101000a81548173ffffffffffffffffffffffffffffffffffffffff021916908373ffffffffffffffffffffffffffffffffffffffff1602179055508260015f6101000a81548173ffffffffffffffffffffffffffffffffffffffff021916908373ffffffffffffffffffffffffffffffffffffffff1602179055508160025f6101000a81548173ffffffffffffffffffffffffffffffffffffffff021916908373ffffffffffffffffffffffffffffffffffffffff160217905550806003819055505050506101e0565b5f5ffd5b5f73ffffffffffffffffffffffffffffffffffffffff82169050919050565b5f61012c82610103565b9050919050565b61013c81610122565b8114610146575f5ffd5b50565b5f8151905061015781610133565b92915050565b5f819050919050565b61016f8161015d565b8114610179575f5ffd5b50565b5f8151905061018a81610166565b92915050565b5f5f5f606084860312156101a7576101a66100ff565b5b5f6101b486828701610149565b93505060206101c586828701610149565b92505060406101d68682870161017c565b9150509250925092565b610d98806101ed5f395ff3fe608060405234801561000f575f5ffd5b506004361061007b575f3560e01c80635e35359e116100595780635e35359e146100d75780635f64b55b146100f357806369ea1771146101115780638da5cb5b1461012d5761007b565b80630fc63d101461007f5780632c4e722e1461009d57806338720f72146100bb575b5f5ffd5b61008761014b565b60405161009491906107fc565b60405180910390f35b6100a5610170565b6040516100b2919061082d565b60405180910390f35b6100d560048036038101906100d09190610874565b610176565b005b6100f160048036038101906100ec91906108da565b6104b0565b005b6100fb610624565b60405161010891906107fc565b60405180910390f35b61012b60048036038101906101269190610874565b610649565b005b61013561075e565b6040516101429190610939565b60405180910390f35b60015f9054906101000a900473ffffffffffffffffffffffffffffffffffffffff1681565b60035481565b5f81116101b8576040517f08c379a00000000000000000000000000000000000000000000000000000000081526004016101af906109ac565b60405180910390fd5b5f600354826101c791906109f7565b90508060025f9054906101000a900473ffffffffffffffffffffffffffffffffffffffff1673ffffffffffffffffffffffffffffffffffffffff166370a08231306040518263ffffffff1660e01b81526004016102249190610939565b602060405180830381865afa15801561023f573d5f5f3e3d5ffd5b505050506040513d601f19601f820116820180604052508101906102639190610a4c565b10156102a4576040517f08c379a000000000000000000000000000000000000000000000000000000000815260040161029b90610ac1565b60405180910390fd5b60015f9054906101000a900473ffffffffffffffffffffffffffffffffffffffff1673ffffffffffffffffffffffffffffffffffffffff166323b872dd3330856040518463ffffffff1660e01b815260040161030293929190610adf565b6020604051808303815f875af115801561031e573d5f5f3e3d5ffd5b505050506040513d601f19601f820116820180604052508101906103429190610b49565b610381576040517f08c379a000000000000000000000000000000000000000000000000000000000815260040161037890610bbe565b60405180910390fd5b60025f9054906101000a900473ffffffffffffffffffffffffffffffffffffffff1673ffffffffffffffffffffffffffffffffffffffff1663a9059cbb33836040518363ffffffff1660e01b81526004016103dd929190610bdc565b6020604051808303815f875af11580156103f9573d5f5f3e3d5ffd5b505050506040513d601f19601f8201168201806040525081019061041d9190610b49565b61045c576040517f08c379a000000000000000000000000000000000000000000000000000000000815260040161045390610c4d565b60405180910390fd5b3373ffffffffffffffffffffffffffffffffffffffff167f77f92a1b6a1a11de8ca49515ad4c1fad45632dd3442167d74b90b304a3c7a75883836040516104a4929190610c6b565b60405180910390a25050565b5f5f9054906101000a900473ffffffffffffffffffffffffffffffffffffffff1673ffffffffffffffffffffffffffffffffffffffff163373ffffffffffffffffffffffffffffffffffffffff161461053e576040517f08c379a000000000000000000000000000000000000000000000000000000000815260040161053590610cdc565b60405180910390fd5b8273ffffffffffffffffffffffffffffffffffffffff1663a9059cbb83836040518363ffffffff1660e01b8152600401610579929190610bdc565b6020604051808303815f875af1158015610595573d5f5f3e3d5ffd5b505050506040513d601f19601f820116820180604052508101906105b99190610b49565b508173ffffffffffffffffffffffffffffffffffffffff168373ffffffffffffffffffffffffffffffffffffffff167f70082d08c003c5341f2401bec1c2ae1dbcdc29ae17e9cc5633fa617caa8acd4c83604051610617919061082d565b60405180910390a3505050565b60025f9054906101000a900473ffffffffffffffffffffffffffffffffffffffff1681565b5f5f9054906101000a900473ffffffffffffffffffffffffffffffffffffffff1673ffffffffffffffffffffffffffffffffffffffff163373ffffffffffffffffffffffffffffffffffffffff16146106d7576040517f08c379a00000000000000000000000000000000000000000000000000000000081526004016106ce90610cdc565b60405180910390fd5b5f8111610719576040517f08c379a000000000000000000000000000000000000000000000000000000000815260040161071090610d44565b60405180910390fd5b7fb38780ddde1f073d91c150de2696f3f7085883648ba21cc5ef01029cb21d19166003548260405161074c929190610c6b565b60405180910390a18060038190555050565b5f5f9054906101000a900473ffffffffffffffffffffffffffffffffffffffff1681565b5f73ffffffffffffffffffffffffffffffffffffffff82169050919050565b5f819050919050565b5f6107c46107bf6107ba84610782565b6107a1565b610782565b9050919050565b5f6107d5826107aa565b9050919050565b5f6107e6826107cb565b9050919050565b6107f6816107dc565b82525050565b5f60208201905061080f5f8301846107ed565b92915050565b5f819050919050565b61082781610815565b82525050565b5f6020820190506108405f83018461081e565b92915050565b5f5ffd5b61085381610815565b811461085d575f5ffd5b50565b5f8135905061086e8161084a565b92915050565b5f6020828403121561088957610888610846565b5b5f61089684828501610860565b91505092915050565b5f6108a982610782565b9050919050565b6108b98161089f565b81146108c3575f5ffd5b50565b5f813590506108d4816108b0565b92915050565b5f5f5f606084860312156108f1576108f0610846565b5b5f6108fe868287016108c6565b935050602061090f868287016108c6565b925050604061092086828701610860565b9150509250925092565b6109338161089f565b82525050565b5f60208201905061094c5f83018461092a565b92915050565b5f82825260208201905092915050565b7f416d6f756e74206d75737420626520706f7369746976650000000000000000005f82015250565b5f610996601783610952565b91506109a182610962565b602082019050919050565b5f6020820190508181035f8301526109c38161098a565b9050919050565b7f4e487b71000000000000000000000000000000000000000000000000000000005f52601160045260245ffd5b5f610a0182610815565b9150610a0c83610815565b9250828202610a1a81610815565b91508282048414831517610a3157610a306109ca565b5b5092915050565b5f81519050610a468161084a565b92915050565b5f60208284031215610a6157610a60610846565b5b5f610a6e84828501610a38565b91505092915050565b7f496e73756666696369656e7420546f6b656e4220696e20636f6e7472616374005f82015250565b5f610aab601f83610952565b9150610ab682610a77565b602082019050919050565b5f6020820190508181035f830152610ad881610a9f565b9050919050565b5f606082019050610af25f83018661092a565b610aff602083018561092a565b610b0c604083018461081e565b949350505050565b5f8115159050919050565b610b2881610b14565b8114610b32575f5ffd5b50565b5f81519050610b4381610b1f565b92915050565b5f60208284031215610b5e57610b5d610846565b5b5f610b6b84828501610b35565b91505092915050565b7f546f6b656e41207472616e73666572206661696c6564000000000000000000005f82015250565b5f610ba8601683610952565b9150610bb382610b74565b602082019050919050565b5f6020820190508181035f830152610bd581610b9c565b9050919050565b5f604082019050610bef5f83018561092a565b610bfc602083018461081e565b9392505050565b7f546f6b656e42207472616e73666572206661696c6564000000000000000000005f82015250565b5f610c37601683610952565b9150610c4282610c03565b602082019050919050565b5f6020820190508181035f830152610c6481610c2b565b9050919050565b5f604082019050610c7e5f83018561081e565b610c8b602083018461081e565b9392505050565b7f4e6f74206f776e657200000000000000000000000000000000000000000000005f82015250565b5f610cc6600983610952565b9150610cd182610c92565b602082019050919050565b5f6020820190508181035f830152610cf381610cba565b9050919050565b7f52617465206d75737420626520706f73697469766500000000000000000000005f82015250565b5f610d2e601583610952565b9150610d3982610cfa565b602082019050919050565b5f6020820190508181035f830152610d5b81610d22565b905091905056fea2646970667358221220a4977ff32f85792b3b549dca56c8e6d56aecd29cf60b1b2ec4ce5a8045e51bb564736f6c634300081e0033",
					"opcodes": "PUSH1 0x80 PUSH1 0x40 MSTORE CALLVALUE DUP1 ISZERO PUSH2 0xF JUMPI PUSH0 PUSH0 REVERT JUMPDEST POP PUSH1 0x40 MLOAD PUSH2 0xF85 CODESIZE SUB DUP1 PUSH2 0xF85 DUP4 CODECOPY DUP2 DUP2 ADD PUSH1 0x40 MSTORE DUP2 ADD SWAP1 PUSH2 0x31 SWAP2 SWAP1 PUSH2 0x190 JUMP JUMPDEST CALLER PUSH0 PUSH0 PUSH2 0x100 EXP DUP2 SLOAD DUP2 PUSH20 0xFFFFFFFFFFFFFFFFFFFFFFFFFFFFFFFFFFFFFFFF MUL NOT AND SWAP1 DUP4 PUSH20 0xFFFFFFFFFFFFFFFFFFFFFFFFFFFFFFFFFFFFFFFF AND MUL OR SWAP1 SSTORE POP DUP3 PUSH1 0x1 PUSH0 PUSH2 0x100 EXP DUP2 SLOAD DUP2 PUSH20 0xFFFFFFFFFFFFFFFFFFFFFFFFFFFFFFFFFFFFFFFF MUL NOT AND SWAP1 DUP4 PUSH20 0xFFFFFFFFFFFFFFFFFFFFFFFFFFFFFFFFFFFFFFFF AND MUL OR SWAP1 SSTORE POP DUP2 PUSH1 0x2 PUSH0 PUSH2 0x100 EXP DUP2 SLOAD DUP2 PUSH20 0xFFFFFFFFFFFFFFFFFFFFFFFFFFFFFFFFFFFFFFFF MUL NOT AND SWAP1 DUP4 PUSH20 0xFFFFFFFFFFFFFFFFFFFFFFFFFFFFFFFFFFFFFFFF AND MUL OR SWAP1 SSTORE POP DUP1 PUSH1 0x3 DUP2 SWAP1 SSTORE POP POP POP POP PUSH2 0x1E0 JUMP JUMPDEST PUSH0 PUSH0 REVERT JUMPDEST PUSH0 PUSH20 0xFFFFFFFFFFFFFFFFFFFFFFFFFFFFFFFFFFFFFFFF DUP3 AND SWAP1 POP SWAP2 SWAP1 POP JUMP JUMPDEST PUSH0 PUSH2 0x12C DUP3 PUSH2 0x103 JUMP JUMPDEST SWAP1 POP SWAP2 SWAP1 POP JUMP JUMPDEST PUSH2 0x13C DUP2 PUSH2 0x122 JUMP JUMPDEST DUP2 EQ PUSH2 0x146 JUMPI PUSH0 PUSH0 REVERT JUMPDEST POP JUMP JUMPDEST PUSH0 DUP2 MLOAD SWAP1 POP PUSH2 0x157 DUP2 PUSH2 0x133 JUMP JUMPDEST SWAP3 SWAP2 POP POP JUMP JUMPDEST PUSH0 DUP2 SWAP1 POP SWAP2 SWAP1 POP JUMP JUMPDEST PUSH2 0x16F DUP2 PUSH2 0x15D JUMP JUMPDEST DUP2 EQ PUSH2 0x179 JUMPI PUSH0 PUSH0 REVERT JUMPDEST POP JUMP JUMPDEST PUSH0 DUP2 MLOAD SWAP1 POP PUSH2 0x18A DUP2 PUSH2 0x166 JUMP JUMPDEST SWAP3 SWAP2 POP POP JUMP JUMPDEST PUSH0 PUSH0 PUSH0 PUSH1 0x60 DUP5 DUP7 SUB SLT ISZERO PUSH2 0x1A7 JUMPI PUSH2 0x1A6 PUSH2 0xFF JUMP JUMPDEST JUMPDEST PUSH0 PUSH2 0x1B4 DUP7 DUP3 DUP8 ADD PUSH2 0x149 JUMP JUMPDEST SWAP4 POP POP PUSH1 0x20 PUSH2 0x1C5 DUP7 DUP3 DUP8 ADD PUSH2 0x149 JUMP JUMPDEST SWAP3 POP POP PUSH1 0x40 PUSH2 0x1D6 DUP7 DUP3 DUP8 ADD PUSH2 0x17C JUMP JUMPDEST SWAP2 POP POP SWAP3 POP SWAP3 POP SWAP3 JUMP JUMPDEST PUSH2 0xD98 DUP1 PUSH2 0x1ED PUSH0 CODECOPY PUSH0 RETURN INVALID PUSH1 0x80 PUSH1 0x40 MSTORE CALLVALUE DUP1 ISZERO PUSH2 0xF JUMPI PUSH0 PUSH0 REVERT JUMPDEST POP PUSH1 0x4 CALLDATASIZE LT PUSH2 0x7B JUMPI PUSH0 CALLDATALOAD PUSH1 0xE0 SHR DUP1 PUSH4 0x5E35359E GT PUSH2 0x59 JUMPI DUP1 PUSH4 0x5E35359E EQ PUSH2 0xD7 JUMPI DUP1 PUSH4 0x5F64B55B EQ PUSH2 0xF3 JUMPI DUP1 PUSH4 0x69EA1771 EQ PUSH2 0x111 JUMPI DUP1 PUSH4 0x8DA5CB5B EQ PUSH2 0x12D JUMPI PUSH2 0x7B JUMP JUMPDEST DUP1 PUSH4 0xFC63D10 EQ PUSH2 0x7F JUMPI DUP1 PUSH4 0x2C4E722E EQ PUSH2 0x9D JUMPI DUP1 PUSH4 0x38720F72 EQ PUSH2 0xBB JUMPI JUMPDEST PUSH0 PUSH0 REVERT JUMPDEST PUSH2 0x87 PUSH2 0x14B JUMP JUMPDEST PUSH1 0x40 MLOAD PUSH2 0x94 SWAP2 SWAP1 PUSH2 0x7FC JUMP JUMPDEST PUSH1 0x40 MLOAD DUP1 SWAP2 SUB SWAP1 RETURN JUMPDEST PUSH2 0xA5 PUSH2 0x170 JUMP JUMPDEST PUSH1 0x40 MLOAD PUSH2 0xB2 SWAP2 SWAP1 PUSH2 0x82D JUMP JUMPDEST PUSH1 0x40 MLOAD DUP1 SWAP2 SUB SWAP1 RETURN JUMPDEST PUSH2 0xD5 PUSH1 0x4 DUP1 CALLDATASIZE SUB DUP2 ADD SWAP1 PUSH2 0xD0 SWAP2 SWAP1 PUSH2 0x874 JUMP JUMPDEST PUSH2 0x176 JUMP JUMPDEST STOP JUMPDEST PUSH2 0xF1 PUSH1 0x4 DUP1 CALLDATASIZE SUB DUP2 ADD SWAP1 PUSH2 0xEC SWAP2 SWAP1 PUSH2 0x8DA JUMP JUMPDEST PUSH2 0x4B0 JUMP JUMPDEST STOP JUMPDEST PUSH2 0xFB PUSH2 0x624 JUMP JUMPDEST PUSH1 0x40 MLOAD PUSH2 0x108 SWAP2 SWAP1 PUSH2 0x7FC JUMP JUMPDEST PUSH1 0x40 MLOAD DUP1 SWAP2 SUB SWAP1 RETURN JUMPDEST PUSH2 0x12B PUSH1 0x4 DUP1 CALLDATASIZE SUB DUP2 ADD SWAP1 PUSH2 0x126 SWAP2 SWAP1 PUSH2 0x874 JUMP JUMPDEST PUSH2 0x649 JUMP JUMPDEST STOP JUMPDEST PUSH2 0x135 PUSH2 0x75E JUMP JUMPDEST PUSH1 0x40 MLOAD PUSH2 0x142 SWAP2 SWAP1 PUSH2 0x939 JUMP JUMPDEST PUSH1 0x40 MLOAD DUP1 SWAP2 SUB SWAP1 RETURN JUMPDEST PUSH1 0x1 PUSH0 SWAP1 SLOAD SWAP1 PUSH2 0x100 EXP SWAP1 DIV PUSH20 0xFFFFFFFFFFFFFFFFFFFFFFFFFFFFFFFFFFFFFFFF AND DUP2 JUMP JUMPDEST PUSH1 0x3 SLOAD DUP2 JUMP JUMPDEST PUSH0 DUP2 GT PUSH2 0x1B8 JUMPI PUSH1 0x40 MLOAD PUSH32 0x8C379A000000000000000000000000000000000000000000000000000000000 DUP2 MSTORE PUSH1 0x4 ADD PUSH2 0x1AF SWAP1 PUSH2 0x9AC JUMP JUMPDEST PUSH1 0x40 MLOAD DUP1 SWAP2 SUB SWAP1 REVERT JUMPDEST PUSH0 PUSH1 0x3 SLOAD DUP3 PUSH2 0x1C7 SWAP2 SWAP1 PUSH2 0x9F7 JUMP JUMPDEST SWAP1 POP DUP1 PUSH1 0x2 PUSH0 SWAP1 SLOAD SWAP1 PUSH2 0x100 EXP SWAP1 DIV PUSH20 0xFFFFFFFFFFFFFFFFFFFFFFFFFFFFFFFFFFFFFFFF AND PUSH20 0xFFFFFFFFFFFFFFFFFFFFFFFFFFFFFFFFFFFFFFFF AND PUSH4 0x70A08231 ADDRESS PUSH1 0x40 MLOAD DUP3 PUSH4 0xFFFFFFFF AND PUSH1 0xE0 SHL DUP2 MSTORE PUSH1 0x4 ADD PUSH2 0x224 SWAP2 SWAP1 PUSH2 0x939 JUMP JUMPDEST PUSH1 0x20 PUSH1 0x40 MLOAD DUP1 DUP4 SUB DUP2 DUP7 GAS STATICCALL ISZERO DUP1 ISZERO PUSH2 0x23F JUMPI RETURNDATASIZE PUSH0 PUSH0 RETURNDATACOPY RETURNDATASIZE PUSH0 REVERT JUMPDEST POP POP POP POP PUSH1 0x40 MLOAD RETURNDATASIZE PUSH1 0x1F NOT PUSH1 0x1F DUP3 ADD AND DUP3 ADD DUP1 PUSH1 0x40 MSTORE POP DUP2 ADD SWAP1 PUSH2 0x263 SWAP2 SWAP1 PUSH2 0xA4C JUMP JUMPDEST LT ISZERO PUSH2 0x2A4 JUMPI PUSH1 0x40 MLOAD PUSH32 0x8C379A000000000000000000000000000000000000000000000000000000000 DUP2 MSTORE PUSH1 0x4 ADD PUSH2 0x29B SWAP1 PUSH2 0xAC1 JUMP JUMPDEST PUSH1 0x40 MLOAD DUP1 SWAP2 SUB SWAP1 REVERT JUMPDEST PUSH1 0x1 PUSH0 SWAP1 SLOAD SWAP1 PUSH2 0x100 EXP SWAP1 DIV PUSH20 0xFFFFFFFFFFFFFFFFFFFFFFFFFFFFFFFFFFFFFFFF AND PUSH20 0xFFFFFFFFFFFFFFFFFFFFFFFFFFFFFFFFFFFFFFFF AND PUSH4 0x23B872DD CALLER ADDRESS DUP6 PUSH1 0x40 MLOAD DUP5 PUSH4 0xFFFFFFFF AND PUSH1 0xE0 SHL DUP2 MSTORE PUSH1 0x4 ADD PUSH2 0x302 SWAP4 SWAP3 SWAP2 SWAP1 PUSH2 0xADF JUMP JUMPDEST PUSH1 0x20 PUSH1 0x40 MLOAD DUP1 DUP4 SUB DUP2 PUSH0 DUP8 GAS CALL ISZERO DUP1 ISZERO PUSH2 0x31E JUMPI RETURNDATASIZE PUSH0 PUSH0 RETURNDATACOPY RETURNDATASIZE PUSH0 REVERT JUMPDEST POP POP POP POP PUSH1 0x40 MLOAD RETURNDATASIZE PUSH1 0x1F NOT PUSH1 0x1F DUP3 ADD AND DUP3 ADD DUP1 PUSH1 0x40 MSTORE POP DUP2 ADD SWAP1 PUSH2 0x342 SWAP2 SWAP1 PUSH2 0xB49 JUMP JUMPDEST PUSH2 0x381 JUMPI PUSH1 0x40 MLOAD PUSH32 0x8C379A000000000000000000000000000000000000000000000000000000000 DUP2 MSTORE PUSH1 0x4 ADD PUSH2 0x378 SWAP1 PUSH2 0xBBE JUMP JUMPDEST PUSH1 0x40 MLOAD DUP1 SWAP2 SUB SWAP1 REVERT JUMPDEST PUSH1 0x2 PUSH0 SWAP1 SLOAD SWAP1 PUSH2 0x100 EXP SWAP1 DIV PUSH20 0xFFFFFFFFFFFFFFFFFFFFFFFFFFFFFFFFFFFFFFFF AND PUSH20 0xFFFFFFFFFFFFFFFFFFFFFFFFFFFFFFFFFFFFFFFF AND PUSH4 0xA9059CBB CALLER DUP4 PUSH1 0x40 MLOAD DUP4 PUSH4 0xFFFFFFFF AND PUSH1 0xE0 SHL DUP2 MSTORE PUSH1 0x4 ADD PUSH2 0x3DD SWAP3 SWAP2 SWAP1 PUSH2 0xBDC JUMP JUMPDEST PUSH1 0x20 PUSH1 0x40 MLOAD DUP1 DUP4 SUB DUP2 PUSH0 DUP8 GAS CALL ISZERO DUP1 ISZERO PUSH2 0x3F9 JUMPI RETURNDATASIZE PUSH0 PUSH0 RETURNDATACOPY RETURNDATASIZE PUSH0 REVERT JUMPDEST POP POP POP POP PUSH1 0x40 MLOAD RETURNDATASIZE PUSH1 0x1F NOT PUSH1 0x1F DUP3 ADD AND DUP3 ADD DUP1 PUSH1 0x40 MSTORE POP DUP2 ADD SWAP1 PUSH2 0x41D SWAP2 SWAP1 PUSH2 0xB49 JUMP JUMPDEST PUSH2 0x45C JUMPI PUSH1 0x40 MLOAD PUSH32 0x8C379A000000000000000000000000000000000000000000000000000000000 DUP2 MSTORE PUSH1 0x4 ADD PUSH2 0x453 SWAP1 PUSH2 0xC4D JUMP JUMPDEST PUSH1 0x40 MLOAD DUP1 SWAP2 SUB SWAP1 REVERT JUMPDEST CALLER PUSH20 0xFFFFFFFFFFFFFFFFFFFFFFFFFFFFFFFFFFFFFFFF AND PUSH32 0x77F92A1B6A1A11DE8CA49515AD4C1FAD45632DD3442167D74B90B304A3C7A758 DUP4 DUP4 PUSH1 0x40 MLOAD PUSH2 0x4A4 SWAP3 SWAP2 SWAP1 PUSH2 0xC6B JUMP JUMPDEST PUSH1 0x40 MLOAD DUP1 SWAP2 SUB SWAP1 LOG2 POP POP JUMP JUMPDEST PUSH0 PUSH0 SWAP1 SLOAD SWAP1 PUSH2 0x100 EXP SWAP1 DIV PUSH20 0xFFFFFFFFFFFFFFFFFFFFFFFFFFFFFFFFFFFFFFFF AND PUSH20 0xFFFFFFFFFFFFFFFFFFFFFFFFFFFFFFFFFFFFFFFF AND CALLER PUSH20 0xFFFFFFFFFFFFFFFFFFFFFFFFFFFFFFFFFFFFFFFF AND EQ PUSH2 0x53E JUMPI PUSH1 0x40 MLOAD PUSH32 0x8C379A000000000000000000000000000000000000000000000000000000000 DUP2 MSTORE PUSH1 0x4 ADD PUSH2 0x535 SWAP1 PUSH2 0xCDC JUMP JUMPDEST PUSH1 0x40 MLOAD DUP1 SWAP2 SUB SWAP1 REVERT JUMPDEST DUP3 PUSH20 0xFFFFFFFFFFFFFFFFFFFFFFFFFFFFFFFFFFFFFFFF AND PUSH4 0xA9059CBB DUP4 DUP4 PUSH1 0x40 MLOAD DUP4 PUSH4 0xFFFFFFFF AND PUSH1 0xE0 SHL DUP2 MSTORE PUSH1 0x4 ADD PUSH2 0x579 SWAP3 SWAP2 SWAP1 PUSH2 0xBDC JUMP JUMPDEST PUSH1 0x20 PUSH1 0x40 MLOAD DUP1 DUP4 SUB DUP2 PUSH0 DUP8 GAS CALL ISZERO DUP1 ISZERO PUSH2 0x595 JUMPI RETURNDATASIZE PUSH0 PUSH0 RETURNDATACOPY RETURNDATASIZE PUSH0 REVERT JUMPDEST POP POP POP POP PUSH1 0x40 MLOAD RETURNDATASIZE PUSH1 0x1F NOT PUSH1 0x1F DUP3 ADD AND DUP3 ADD DUP1 PUSH1 0x40 MSTORE POP DUP2 ADD SWAP1 PUSH2 0x5B9 SWAP2 SWAP1 PUSH2 0xB49 JUMP JUMPDEST POP DUP2 PUSH20 0xFFFFFFFFFFFFFFFFFFFFFFFFFFFFFFFFFFFFFFFF AND DUP4 PUSH20 0xFFFFFFFFFFFFFFFFFFFFFFFFFFFFFFFFFFFFFFFF AND PUSH32 0x70082D08C003C5341F2401BEC1C2AE1DBCDC29AE17E9CC5633FA617CAA8ACD4C DUP4 PUSH1 0x40 MLOAD PUSH2 0x617 SWAP2 SWAP1 PUSH2 0x82D JUMP JUMPDEST PUSH1 0x40 MLOAD DUP1 SWAP2 SUB SWAP1 LOG3 POP POP POP JUMP JUMPDEST PUSH1 0x2 PUSH0 SWAP1 SLOAD SWAP1 PUSH2 0x100 EXP SWAP1 DIV PUSH20 0xFFFFFFFFFFFFFFFFFFFFFFFFFFFFFFFFFFFFFFFF AND DUP2 JUMP JUMPDEST PUSH0 PUSH0 SWAP1 SLOAD SWAP1 PUSH2 0x100 EXP SWAP1 DIV PUSH20 0xFFFFFFFFFFFFFFFFFFFFFFFFFFFFFFFFFFFFFFFF AND PUSH20 0xFFFFFFFFFFFFFFFFFFFFFFFFFFFFFFFFFFFFFFFF AND CALLER PUSH20 0xFFFFFFFFFFFFFFFFFFFFFFFFFFFFFFFFFFFFFFFF AND EQ PUSH2 0x6D7 JUMPI PUSH1 0x40 MLOAD PUSH32 0x8C379A000000000000000000000000000000000000000000000000000000000 DUP2 MSTORE PUSH1 0x4 ADD PUSH2 0x6CE SWAP1 PUSH2 0xCDC JUMP JUMPDEST PUSH1 0x40 MLOAD DUP1 SWAP2 SUB SWAP1 REVERT JUMPDEST PUSH0 DUP2 GT PUSH2 0x719 JUMPI PUSH1 0x40 MLOAD PUSH32 0x8C379A000000000000000000000000000000000000000000000000000000000 DUP2 MSTORE PUSH1 0x4 ADD PUSH2 0x710 SWAP1 PUSH2 0xD44 JUMP JUMPDEST PUSH1 0x40 MLOAD DUP1 SWAP2 SUB SWAP1 REVERT JUMPDEST PUSH32 0xB38780DDDE1F073D91C150DE2696F3F7085883648BA21CC5EF01029CB21D1916 PUSH1 0x3 SLOAD DUP3 PUSH1 0x40 MLOAD PUSH2 0x74C SWAP3 SWAP2 SWAP1 PUSH2 0xC6B JUMP JUMPDEST PUSH1 0x40 MLOAD DUP1 SWAP2 SUB SWAP1 LOG1 DUP1 PUSH1 0x3 DUP2 SWAP1 SSTORE POP POP JUMP JUMPDEST PUSH0 PUSH0 SWAP1 SLOAD SWAP1 PUSH2 0x100 EXP SWAP1 DIV PUSH20 0xFFFFFFFFFFFFFFFFFFFFFFFFFFFFFFFFFFFFFFFF AND DUP2 JUMP JUMPDEST PUSH0 PUSH20 0xFFFFFFFFFFFFFFFFFFFFFFFFFFFFFFFFFFFFFFFF DUP3 AND SWAP1 POP SWAP2 SWAP1 POP JUMP JUMPDEST PUSH0 DUP2 SWAP1 POP SWAP2 SWAP1 POP JUMP JUMPDEST PUSH0 PUSH2 0x7C4 PUSH2 0x7BF PUSH2 0x7BA DUP5 PUSH2 0x782 JUMP JUMPDEST PUSH2 0x7A1 JUMP JUMPDEST PUSH2 0x782 JUMP JUMPDEST SWAP1 POP SWAP2 SWAP1 POP JUMP JUMPDEST PUSH0 PUSH2 0x7D5 DUP3 PUSH2 0x7AA JUMP JUMPDEST SWAP1 POP SWAP2 SWAP1 POP JUMP JUMPDEST PUSH0 PUSH2 0x7E6 DUP3 PUSH2 0x7CB JUMP JUMPDEST SWAP1 POP SWAP2 SWAP1 POP JUMP JUMPDEST PUSH2 0x7F6 DUP2 PUSH2 0x7DC JUMP JUMPDEST DUP3 MSTORE POP POP JUMP JUMPDEST PUSH0 PUSH1 0x20 DUP3 ADD SWAP1 POP PUSH2 0x80F PUSH0 DUP4 ADD DUP5 PUSH2 0x7ED JUMP JUMPDEST SWAP3 SWAP2 POP POP JUMP JUMPDEST PUSH0 DUP2 SWAP1 POP SWAP2 SWAP1 POP JUMP JUMPDEST PUSH2 0x827 DUP2 PUSH2 0x815 JUMP JUMPDEST DUP3 MSTORE POP POP JUMP JUMPDEST PUSH0 PUSH1 0x20 DUP3 ADD SWAP1 POP PUSH2 0x840 PUSH0 DUP4 ADD DUP5 PUSH2 0x81E JUMP JUMPDEST SWAP3 SWAP2 POP POP JUMP JUMPDEST PUSH0 PUSH0 REVERT JUMPDEST PUSH2 0x853 DUP2 PUSH2 0x815 JUMP JUMPDEST DUP2 EQ PUSH2 0x85D JUMPI PUSH0 PUSH0 REVERT JUMPDEST POP JUMP JUMPDEST PUSH0 DUP2 CALLDATALOAD SWAP1 POP PUSH2 0x86E DUP2 PUSH2 0x84A JUMP JUMPDEST SWAP3 SWAP2 POP POP JUMP JUMPDEST PUSH0 PUSH1 0x20 DUP3 DUP5 SUB SLT ISZERO PUSH2 0x889 JUMPI PUSH2 0x888 PUSH2 0x846 JUMP JUMPDEST JUMPDEST PUSH0 PUSH2 0x896 DUP5 DUP3 DUP6 ADD PUSH2 0x860 JUMP JUMPDEST SWAP2 POP POP SWAP3 SWAP2 POP POP JUMP JUMPDEST PUSH0 PUSH2 0x8A9 DUP3 PUSH2 0x782 JUMP JUMPDEST SWAP1 POP SWAP2 SWAP1 POP JUMP JUMPDEST PUSH2 0x8B9 DUP2 PUSH2 0x89F JUMP JUMPDEST DUP2 EQ PUSH2 0x8C3 JUMPI PUSH0 PUSH0 REVERT JUMPDEST POP JUMP JUMPDEST PUSH0 DUP2 CALLDATALOAD SWAP1 POP PUSH2 0x8D4 DUP2 PUSH2 0x8B0 JUMP JUMPDEST SWAP3 SWAP2 POP POP JUMP JUMPDEST PUSH0 PUSH0 PUSH0 PUSH1 0x60 DUP5 DUP7 SUB SLT ISZERO PUSH2 0x8F1 JUMPI PUSH2 0x8F0 PUSH2 0x846 JUMP JUMPDEST JUMPDEST PUSH0 PUSH2 0x8FE DUP7 DUP3 DUP8 ADD PUSH2 0x8C6 JUMP JUMPDEST SWAP4 POP POP PUSH1 0x20 PUSH2 0x90F DUP7 DUP3 DUP8 ADD PUSH2 0x8C6 JUMP JUMPDEST SWAP3 POP POP PUSH1 0x40 PUSH2 0x920 DUP7 DUP3 DUP8 ADD PUSH2 0x860 JUMP JUMPDEST SWAP2 POP POP SWAP3 POP SWAP3 POP SWAP3 JUMP JUMPDEST PUSH2 0x933 DUP2 PUSH2 0x89F JUMP JUMPDEST DUP3 MSTORE POP POP JUMP JUMPDEST PUSH0 PUSH1 0x20 DUP3 ADD SWAP1 POP PUSH2 0x94C PUSH0 DUP4 ADD DUP5 PUSH2 0x92A JUMP JUMPDEST SWAP3 SWAP2 POP POP JUMP JUMPDEST PUSH0 DUP3 DUP3 MSTORE PUSH1 0x20 DUP3 ADD SWAP1 POP SWAP3 SWAP2 POP POP JUMP JUMPDEST PUSH32 0x416D6F756E74206D75737420626520706F736974697665000000000000000000 PUSH0 DUP3 ADD MSTORE POP JUMP JUMPDEST PUSH0 PUSH2 0x996 PUSH1 0x17 DUP4 PUSH2 0x952 JUMP JUMPDEST SWAP2 POP PUSH2 0x9A1 DUP3 PUSH2 0x962 JUMP JUMPDEST PUSH1 0x20 DUP3 ADD SWAP1 POP SWAP2 SWAP1 POP JUMP JUMPDEST PUSH0 PUSH1 0x20 DUP3 ADD SWAP1 POP DUP2 DUP2 SUB PUSH0 DUP4 ADD MSTORE PUSH2 0x9C3 DUP2 PUSH2 0x98A JUMP JUMPDEST SWAP1 POP SWAP2 SWAP1 POP JUMP JUMPDEST PUSH32 0x4E487B7100000000000000000000000000000000000000000000000000000000 PUSH0 MSTORE PUSH1 0x11 PUSH1 0x4 MSTORE PUSH1 0x24 PUSH0 REVERT JUMPDEST PUSH0 PUSH2 0xA01 DUP3 PUSH2 0x815 JUMP JUMPDEST SWAP2 POP PUSH2 0xA0C DUP4 PUSH2 0x815 JUMP JUMPDEST SWAP3 POP DUP3 DUP3 MUL PUSH2 0xA1A DUP2 PUSH2 0x815 JUMP JUMPDEST SWAP2 POP DUP3 DUP3 DIV DUP5 EQ DUP4 ISZERO OR PUSH2 0xA31 JUMPI PUSH2 0xA30 PUSH2 0x9CA JUMP JUMPDEST JUMPDEST POP SWAP3 SWAP2 POP POP JUMP JUMPDEST PUSH0 DUP2 MLOAD SWAP1 POP PUSH2 0xA46 DUP2 PUSH2 0x84A JUMP JUMPDEST SWAP3 SWAP2 POP POP JUMP JUMPDEST PUSH0 PUSH1 0x20 DUP3 DUP5 SUB SLT ISZERO PUSH2 0xA61 JUMPI PUSH2 0xA60 PUSH2 0x846 JUMP JUMPDEST JUMPDEST PUSH0 PUSH2 0xA6E DUP5 DUP3 DUP6 ADD PUSH2 0xA38 JUMP JUMPDEST SWAP2 POP POP SWAP3 SWAP2 POP POP JUMP JUMPDEST PUSH32 0x496E73756666696369656E7420546F6B656E4220696E20636F6E747261637400 PUSH0 DUP3 ADD MSTORE POP JUMP JUMPDEST PUSH0 PUSH2 0xAAB PUSH1 0x1F DUP4 PUSH2 0x952 JUMP JUMPDEST SWAP2 POP PUSH2 0xAB6 DUP3 PUSH2 0xA77 JUMP JUMPDEST PUSH1 0x20 DUP3 ADD SWAP1 POP SWAP2 SWAP1 POP JUMP JUMPDEST PUSH0 PUSH1 0x20 DUP3 ADD SWAP1 POP DUP2 DUP2 SUB PUSH0 DUP4 ADD MSTORE PUSH2 0xAD8 DUP2 PUSH2 0xA9F JUMP JUMPDEST SWAP1 POP SWAP2 SWAP1 POP JUMP JUMPDEST PUSH0 PUSH1 0x60 DUP3 ADD SWAP1 POP PUSH2 0xAF2 PUSH0 DUP4 ADD DUP7 PUSH2 0x92A JUMP JUMPDEST PUSH2 0xAFF PUSH1 0x20 DUP4 ADD DUP6 PUSH2 0x92A JUMP JUMPDEST PUSH2 0xB0C PUSH1 0x40 DUP4 ADD DUP5 PUSH2 0x81E JUMP JUMPDEST SWAP5 SWAP4 POP POP POP POP JUMP JUMPDEST PUSH0 DUP2 ISZERO ISZERO SWAP1 POP SWAP2 SWAP1 POP JUMP JUMPDEST PUSH2 0xB28 DUP2 PUSH2 0xB14 JUMP JUMPDEST DUP2 EQ PUSH2 0xB32 JUMPI PUSH0 PUSH0 REVERT JUMPDEST POP JUMP JUMPDEST PUSH0 DUP2 MLOAD SWAP1 POP PUSH2 0xB43 DUP2 PUSH2 0xB1F JUMP JUMPDEST SWAP3 SWAP2 POP POP JUMP JUMPDEST PUSH0 PUSH1 0x20 DUP3 DUP5 SUB SLT ISZERO PUSH2 0xB5E JUMPI PUSH2 0xB5D PUSH2 0x846 JUMP JUMPDEST JUMPDEST PUSH0 PUSH2 0xB6B DUP5 DUP3 DUP6 ADD PUSH2 0xB35 JUMP JUMPDEST SWAP2 POP POP SWAP3 SWAP2 POP POP JUMP JUMPDEST PUSH32 0x546F6B656E41207472616E73666572206661696C656400000000000000000000 PUSH0 DUP3 ADD MSTORE POP JUMP JUMPDEST PUSH0 PUSH2 0xBA8 PUSH1 0x16 DUP4 PUSH2 0x952 JUMP JUMPDEST SWAP2 POP PUSH2 0xBB3 DUP3 PUSH2 0xB74 JUMP JUMPDEST PUSH1 0x20 DUP3 ADD SWAP1 POP SWAP2 SWAP1 POP JUMP JUMPDEST PUSH0 PUSH1 0x20 DUP3 ADD SWAP1 POP DUP2 DUP2 SUB PUSH0 DUP4 ADD MSTORE PUSH2 0xBD5 DUP2 PUSH2 0xB9C JUMP JUMPDEST SWAP1 POP SWAP2 SWAP1 POP JUMP JUMPDEST PUSH0 PUSH1 0x40 DUP3 ADD SWAP1 POP PUSH2 0xBEF PUSH0 DUP4 ADD DUP6 PUSH2 0x92A JUMP JUMPDEST PUSH2 0xBFC PUSH1 0x20 DUP4 ADD DUP5 PUSH2 0x81E JUMP JUMPDEST SWAP4 SWAP3 POP POP POP JUMP JUMPDEST PUSH32 0x546F6B656E42207472616E73666572206661696C656400000000000000000000 PUSH0 DUP3 ADD MSTORE POP JUMP JUMPDEST PUSH0 PUSH2 0xC37 PUSH1 0x16 DUP4 PUSH2 0x952 JUMP JUMPDEST SWAP2 POP PUSH2 0xC42 DUP3 PUSH2 0xC03 JUMP JUMPDEST PUSH1 0x20 DUP3 ADD SWAP1 POP SWAP2 SWAP1 POP JUMP JUMPDEST PUSH0 PUSH1 0x20 DUP3 ADD SWAP1 POP DUP2 DUP2 SUB PUSH0 DUP4 ADD MSTORE PUSH2 0xC64 DUP2 PUSH2 0xC2B JUMP JUMPDEST SWAP1 POP SWAP2 SWAP1 POP JUMP JUMPDEST PUSH0 PUSH1 0x40 DUP3 ADD SWAP1 POP PUSH2 0xC7E PUSH0 DUP4 ADD DUP6 PUSH2 0x81E JUMP JUMPDEST PUSH2 0xC8B PUSH1 0x20 DUP4 ADD DUP5 PUSH2 0x81E JUMP JUMPDEST SWAP4 SWAP3 POP POP POP JUMP JUMPDEST PUSH32 0x4E6F74206F776E65720000000000000000000000000000000000000000000000 PUSH0 DUP3 ADD MSTORE POP JUMP JUMPDEST PUSH0 PUSH2 0xCC6 PUSH1 0x9 DUP4 PUSH2 0x952 JUMP JUMPDEST SWAP2 POP PUSH2 0xCD1 DUP3 PUSH2 0xC92 JUMP JUMPDEST PUSH1 0x20 DUP3 ADD SWAP1 POP SWAP2 SWAP1 POP JUMP JUMPDEST PUSH0 PUSH1 0x20 DUP3 ADD SWAP1 POP DUP2 DUP2 SUB PUSH0 DUP4 ADD MSTORE PUSH2 0xCF3 DUP2 PUSH2 0xCBA JUMP JUMPDEST SWAP1 POP SWAP2 SWAP1 POP JUMP JUMPDEST PUSH32 0x52617465206D75737420626520706F7369746976650000000000000000000000 PUSH0 DUP3 ADD MSTORE POP JUMP JUMPDEST PUSH0 PUSH2 0xD2E PUSH1 0x15 DUP4 PUSH2 0x952 JUMP JUMPDEST SWAP2 POP PUSH2 0xD39 DUP3 PUSH2 0xCFA JUMP JUMPDEST PUSH1 0x20 DUP3 ADD SWAP1 POP SWAP2 SWAP1 POP JUMP JUMPDEST PUSH0 PUSH1 0x20 DUP3 ADD SWAP1 POP DUP2 DUP2 SUB PUSH0 DUP4 ADD MSTORE PUSH2 0xD5B DUP2 PUSH2 0xD22 JUMP JUMPDEST SWAP1 POP SWAP2 SWAP1 POP JUMP INVALID LOG2 PUSH5 0x6970667358 0x22 SLT KECCAK256 LOG4 SWAP8 PUSH32 0xF32F85792B3B549DCA56C8E6D56AECD29CF60B1B2EC4CE5A8045E51BB564736F PUSH13 0x634300081E0033000000000000 "
				},
				"gasEstimates": {
					"creation": {
						"codeDepositCost": "696000",
						"executionCost": "infinite",
						"totalCost": "infinite"
					},
					"external": {
						"owner()": "2573",
						"rate()": "2448",
						"swapAToB(uint256)": "infinite",
						"tokenA()": "infinite",
						"tokenB()": "infinite",
						"updateRate(uint256)": "infinite",
						"withdrawTokens(address,address,uint256)": "infinite"
					}
				},
				"methodIdentifiers": {
					"owner()": "8da5cb5b",
					"rate()": "2c4e722e",
					"swapAToB(uint256)": "38720f72",
					"tokenA()": "0fc63d10",
					"tokenB()": "5f64b55b",
					"updateRate(uint256)": "69ea1771",
					"withdrawTokens(address,address,uint256)": "5e35359e"
				}
			},
			"storageLayout": {
				"storage": [
					{
						"astId": 40,
						"contract": "Contract_Conqueror_Series/simpleSwap.sol:SimpleSwap",
						"label": "owner",
						"offset": 0,
						"slot": "0",
						"type": "t_address"
					},
					{
						"astId": 43,
						"contract": "Contract_Conqueror_Series/simpleSwap.sol:SimpleSwap",
						"label": "tokenA",
						"offset": 0,
						"slot": "1",
						"type": "t_contract(IERC20)38"
					},
					{
						"astId": 46,
						"contract": "Contract_Conqueror_Series/simpleSwap.sol:SimpleSwap",
						"label": "tokenB",
						"offset": 0,
						"slot": "2",
						"type": "t_contract(IERC20)38"
					},
					{
						"astId": 48,
						"contract": "Contract_Conqueror_Series/simpleSwap.sol:SimpleSwap",
						"label": "rate",
						"offset": 0,
						"slot": "3",
						"type": "t_uint256"
					}
				],
				"types": {
					"t_address": {
						"encoding": "inplace",
						"label": "address",
						"numberOfBytes": "20"
					},
					"t_contract(IERC20)38": {
						"encoding": "inplace",
						"label": "contract IERC20",
						"numberOfBytes": "20"
					},
					"t_uint256": {
						"encoding": "inplace",
						"label": "uint256",
						"numberOfBytes": "32"
					}
				}
			},
			"userdoc": {
				"kind": "user",
				"methods": {
					"swapAToB(uint256)": {
						"notice": "Swap specified amount of TokenA to TokenB according to rate"
					},
					"withdrawTokens(address,address,uint256)": {
						"notice": "Owner can withdraw any ERC20 tokens from the contract"
					}
				},
				"version": 1
			}
		}
	}
}