{
	"Contract_Conqueror_Series/simpleSwap.sol": {
		"UnifiedTokenSwap": {
			"abi": [
				{
					"inputs": [
						{
							"internalType": "uint256",
							"name": "_initialRate",
							"type": "uint256"
						}
					],
					"stateMutability": "nonpayable",
					"type": "constructor"
				},
				{
					"anonymous": false,
					"inputs": [
						{
							"indexed": true,
							"internalType": "address",
							"name": "token",
							"type": "address"
						},
						{
							"indexed": true,
							"internalType": "address",
							"name": "owner",
							"type": "address"
						},
						{
							"indexed": true,
							"internalType": "address",
							"name": "spender",
							"type": "address"
						},
						{
							"indexed": false,
							"internalType": "uint256",
							"name": "value",
							"type": "uint256"
						}
					],
					"name": "Approval",
					"type": "event"
				},
				{
					"anonymous": false,
					"inputs": [
						{
							"indexed": false,
							"internalType": "uint256",
							"name": "newRate",
							"type": "uint256"
						}
					],
					"name": "ExchangeRateUpdated",
					"type": "event"
				},
				{
					"anonymous": false,
					"inputs": [
						{
							"indexed": true,
							"internalType": "address",
							"name": "previousOwner",
							"type": "address"
						},
						{
							"indexed": true,
							"internalType": "address",
							"name": "newOwner",
							"type": "address"
						}
					],
					"name": "OwnershipTransferred",
					"type": "event"
				},
				{
					"anonymous": false,
					"inputs": [
						{
							"indexed": true,
							"internalType": "address",
							"name": "user",
							"type": "address"
						},
						{
							"indexed": false,
							"internalType": "uint256",
							"name": "amountIn",
							"type": "uint256"
						},
						{
							"indexed": false,
							"internalType": "uint256",
							"name": "amountOut",
							"type": "uint256"
						}
					],
					"name": "SwapExecuted",
					"type": "event"
				},
				{
					"anonymous": false,
					"inputs": [
						{
							"indexed": true,
							"internalType": "address",
							"name": "token",
							"type": "address"
						},
						{
							"indexed": true,
							"internalType": "address",
							"name": "from",
							"type": "address"
						},
						{
							"indexed": true,
							"internalType": "address",
							"name": "to",
							"type": "address"
						},
						{
							"indexed": false,
							"internalType": "uint256",
							"name": "value",
							"type": "uint256"
						}
					],
					"name": "Transfer",
					"type": "event"
				},
				{
					"inputs": [
						{
							"internalType": "bool",
							"name": "isTokenA",
							"type": "bool"
						},
						{
							"internalType": "address",
							"name": "owner_",
							"type": "address"
						},
						{
							"internalType": "address",
							"name": "spender",
							"type": "address"
						}
					],
					"name": "allowance",
					"outputs": [
						{
							"internalType": "uint256",
							"name": "",
							"type": "uint256"
						}
					],
					"stateMutability": "view",
					"type": "function"
				},
				{
					"inputs": [
						{
							"internalType": "bool",
							"name": "isTokenA",
							"type": "bool"
						},
						{
							"internalType": "address",
							"name": "spender",
							"type": "address"
						},
						{
							"internalType": "uint256",
							"name": "amount",
							"type": "uint256"
						}
					],
					"name": "approve",
					"outputs": [
						{
							"internalType": "bool",
							"name": "",
							"type": "bool"
						}
					],
					"stateMutability": "nonpayable",
					"type": "function"
				},
				{
					"inputs": [
						{
							"internalType": "bool",
							"name": "isTokenA",
							"type": "bool"
						},
						{
							"internalType": "address",
							"name": "user",
							"type": "address"
						}
					],
					"name": "balanceOf",
					"outputs": [
						{
							"internalType": "uint256",
							"name": "",
							"type": "uint256"
						}
					],
					"stateMutability": "view",
					"type": "function"
				},
				{
					"inputs": [
						{
							"internalType": "bool",
							"name": "isTokenA",
							"type": "bool"
						}
					],
					"name": "decimals",
					"outputs": [
						{
							"internalType": "uint8",
							"name": "",
							"type": "uint8"
						}
					],
					"stateMutability": "view",
					"type": "function"
				},
				{
					"inputs": [],
					"name": "exchangeRate",
					"outputs": [
						{
							"internalType": "uint256",
							"name": "",
							"type": "uint256"
						}
					],
					"stateMutability": "view",
					"type": "function"
				},
				{
					"inputs": [
						{
							"internalType": "bool",
							"name": "isTokenA",
							"type": "bool"
						},
						{
							"internalType": "address",
							"name": "to",
							"type": "address"
						},
						{
							"internalType": "uint256",
							"name": "amount",
							"type": "uint256"
						}
					],
					"name": "mint",
					"outputs": [],
					"stateMutability": "nonpayable",
					"type": "function"
				},
				{
					"inputs": [
						{
							"internalType": "bool",
							"name": "isTokenA",
							"type": "bool"
						}
					],
					"name": "name",
					"outputs": [
						{
							"internalType": "string",
							"name": "",
							"type": "string"
						}
					],
					"stateMutability": "view",
					"type": "function"
				},
				{
					"inputs": [],
					"name": "owner",
					"outputs": [
						{
							"internalType": "address",
							"name": "",
							"type": "address"
						}
					],
					"stateMutability": "view",
					"type": "function"
				},
				{
					"inputs": [
						{
							"internalType": "uint256",
							"name": "newRate",
							"type": "uint256"
						}
					],
					"name": "setExchangeRate",
					"outputs": [],
					"stateMutability": "nonpayable",
					"type": "function"
				},
				{
					"inputs": [
						{
							"internalType": "uint256",
							"name": "amountIn",
							"type": "uint256"
						}
					],
					"name": "swap",
					"outputs": [],
					"stateMutability": "nonpayable",
					"type": "function"
				},
				{
					"inputs": [
						{
							"internalType": "bool",
							"name": "isTokenA",
							"type": "bool"
						}
					],
					"name": "symbol",
					"outputs": [
						{
							"internalType": "string",
							"name": "",
							"type": "string"
						}
					],
					"stateMutability": "view",
					"type": "function"
				},
				{
					"inputs": [
						{
							"internalType": "bool",
							"name": "isTokenA",
							"type": "bool"
						}
					],
					"name": "totalSupply",
					"outputs": [
						{
							"internalType": "uint256",
							"name": "",
							"type": "uint256"
						}
					],
					"stateMutability": "view",
					"type": "function"
				},
				{
					"inputs": [
						{
							"internalType": "bool",
							"name": "isTokenA",
							"type": "bool"
						},
						{
							"internalType": "address",
							"name": "to",
							"type": "address"
						},
						{
							"internalType": "uint256",
							"name": "amount",
							"type": "uint256"
						}
					],
					"name": "transfer",
					"outputs": [
						{
							"internalType": "bool",
							"name": "",
							"type": "bool"
						}
					],
					"stateMutability": "nonpayable",
					"type": "function"
				},
				{
					"inputs": [
						{
							"internalType": "bool",
							"name": "isTokenA",
							"type": "bool"
						},
						{
							"internalType": "address",
							"name": "from",
							"type": "address"
						},
						{
							"internalType": "address",
							"name": "to",
							"type": "address"
						},
						{
							"internalType": "uint256",
							"name": "amount",
							"type": "uint256"
						}
					],
					"name": "transferFrom",
					"outputs": [
						{
							"internalType": "bool",
							"name": "",
							"type": "bool"
						}
					],
					"stateMutability": "nonpayable",
					"type": "function"
				},
				{
					"inputs": [
						{
							"internalType": "address",
							"name": "newOwner",
							"type": "address"
						}
					],
					"name": "transferOwnership",
					"outputs": [],
					"stateMutability": "nonpayable",
					"type": "function"
				},
				{
					"inputs": [
						{
							"internalType": "bool",
							"name": "isTokenA",
							"type": "bool"
						},
						{
							"internalType": "uint256",
							"name": "amount",
							"type": "uint256"
						}
					],
					"name": "withdraw",
					"outputs": [],
					"stateMutability": "nonpayable",
					"type": "function"
				}
			],
			"devdoc": {
				"kind": "dev",
				"methods": {},
				"title": "UnifiedTokenSwap",
				"version": 1
			},
			"evm": {
				"assembly": "    /* \"Contract_Conqueror_Series/simpleSwap.sol\":169:6208  contract UnifiedTokenSwap {... */\n  mstore(0x40, 0x80)\n    /* \"Contract_Conqueror_Series/simpleSwap.sol\":1359:1859  constructor(uint256 _initialRate) {... */\n  callvalue\n  dup1\n  iszero\n  tag_1\n  jumpi\n  revert(0x00, 0x00)\ntag_1:\n  pop\n  mload(0x40)\n  sub(codesize, bytecodeSize)\n  dup1\n  bytecodeSize\n  dup4\n  codecopy\n  dup2\n  dup2\n  add\n  0x40\n  mstore\n  dup2\n  add\n  swap1\n  tag_2\n  swap2\n  swap1\n  tag_3\n  jump\t// in\ntag_2:\n    /* \"Contract_Conqueror_Series/simpleSwap.sol\":1427:1428  0 */\n  0x00\n    /* \"Contract_Conqueror_Series/simpleSwap.sol\":1412:1424  _initialRate */\n  dup2\n    /* \"Contract_Conqueror_Series/simpleSwap.sol\":1412:1428  _initialRate > 0 */\n  gt\n    /* \"Contract_Conqueror_Series/simpleSwap.sol\":1404:1445  require(_initialRate > 0, \"Invalid rate\") */\n  tag_6\n  jumpi\n  mload(0x40)\n  0x08c379a000000000000000000000000000000000000000000000000000000000\n  dup2\n  mstore\n  0x04\n  add\n  tag_7\n  swap1\n  tag_8\n  jump\t// in\ntag_7:\n  mload(0x40)\n  dup1\n  swap2\n  sub\n  swap1\n  revert\ntag_6:\n    /* \"Contract_Conqueror_Series/simpleSwap.sol\":1466:1476  msg.sender */\n  caller\n    /* \"Contract_Conqueror_Series/simpleSwap.sol\":1458:1463  owner */\n  0x0c\n  0x00\n    /* \"Contract_Conqueror_Series/simpleSwap.sol\":1458:1476  owner = msg.sender */\n  0x0100\n  exp\n  dup2\n  sload\n  dup2\n  0xffffffffffffffffffffffffffffffffffffffff\n  mul\n  not\n  and\n  swap1\n  dup4\n  0xffffffffffffffffffffffffffffffffffffffff\n  and\n  mul\n  or\n  swap1\n  sstore\n  pop\n    /* \"Contract_Conqueror_Series/simpleSwap.sol\":1525:1535  msg.sender */\n  caller\n    /* \"Contract_Conqueror_Series/simpleSwap.sol\":1492:1536  OwnershipTransferred(address(0), msg.sender) */\n  0xffffffffffffffffffffffffffffffffffffffff\n  and\n    /* \"Contract_Conqueror_Series/simpleSwap.sol\":1521:1522  0 */\n  0x00\n    /* \"Contract_Conqueror_Series/simpleSwap.sol\":1492:1536  OwnershipTransferred(address(0), msg.sender) */\n  0xffffffffffffffffffffffffffffffffffffffff\n  and\n  0x8be0079c531659141344cd1fd0a4f28419497f9722a3daafe3b4186f6b6457e0\n  mload(0x40)\n  mload(0x40)\n  dup1\n  swap2\n  sub\n  swap1\n  log3\n    /* \"Contract_Conqueror_Series/simpleSwap.sol\":1579:1601  tokenA.name = \"TokenA\" */\n  mload(0x40)\n  dup1\n  0x40\n  add\n  0x40\n  mstore\n  dup1\n  0x06\n  dup2\n  mstore\n  0x20\n  add\n  0x546f6b656e410000000000000000000000000000000000000000000000000000\n  dup2\n  mstore\n  pop\n    /* \"Contract_Conqueror_Series/simpleSwap.sol\":1579:1585  tokenA */\n  0x00\n    /* \"Contract_Conqueror_Series/simpleSwap.sol\":1579:1590  tokenA.name */\n  0x00\n  add\n    /* \"Contract_Conqueror_Series/simpleSwap.sol\":1579:1601  tokenA.name = \"TokenA\" */\n  swap1\n  dup2\n  tag_9\n  swap2\n  swap1\n  tag_10\n  jump\t// in\ntag_9:\n  pop\n    /* \"Contract_Conqueror_Series/simpleSwap.sol\":1612:1633  tokenA.symbol = \"TKA\" */\n  mload(0x40)\n  dup1\n  0x40\n  add\n  0x40\n  mstore\n  dup1\n  0x03\n  dup2\n  mstore\n  0x20\n  add\n  0x544b410000000000000000000000000000000000000000000000000000000000\n  dup2\n  mstore\n  pop\n    /* \"Contract_Conqueror_Series/simpleSwap.sol\":1612:1618  tokenA */\n  0x00\n    /* \"Contract_Conqueror_Series/simpleSwap.sol\":1612:1625  tokenA.symbol */\n  0x01\n  add\n    /* \"Contract_Conqueror_Series/simpleSwap.sol\":1612:1633  tokenA.symbol = \"TKA\" */\n  swap1\n  dup2\n  tag_11\n  swap2\n  swap1\n  tag_10\n  jump\t// in\ntag_11:\n  pop\n    /* \"Contract_Conqueror_Series/simpleSwap.sol\":1662:1664  18 */\n  0x12\n    /* \"Contract_Conqueror_Series/simpleSwap.sol\":1644:1650  tokenA */\n  0x00\n    /* \"Contract_Conqueror_Series/simpleSwap.sol\":1644:1659  tokenA.decimals */\n  0x02\n  add\n  0x00\n    /* \"Contract_Conqueror_Series/simpleSwap.sol\":1644:1664  tokenA.decimals = 18 */\n  0x0100\n  exp\n  dup2\n  sload\n  dup2\n  0xff\n  mul\n  not\n  and\n  swap1\n  dup4\n  0xff\n  and\n  mul\n  or\n  swap1\n  sstore\n  pop\n    /* \"Contract_Conqueror_Series/simpleSwap.sol\":1677:1699  tokenB.name = \"TokenB\" */\n  mload(0x40)\n  dup1\n  0x40\n  add\n  0x40\n  mstore\n  dup1\n  0x06\n  dup2\n  mstore\n  0x20\n  add\n  0x546f6b656e420000000000000000000000000000000000000000000000000000\n  dup2\n  mstore\n  pop\n    /* \"Contract_Conqueror_Series/simpleSwap.sol\":1677:1683  tokenB */\n  0x06\n    /* \"Contract_Conqueror_Series/simpleSwap.sol\":1677:1688  tokenB.name */\n  0x00\n  add\n    /* \"Contract_Conqueror_Series/simpleSwap.sol\":1677:1699  tokenB.name = \"TokenB\" */\n  swap1\n  dup2\n  tag_12\n  swap2\n  swap1\n  tag_10\n  jump\t// in\ntag_12:\n  pop\n    /* \"Contract_Conqueror_Series/simpleSwap.sol\":1710:1731  tokenB.symbol = \"TKB\" */\n  mload(0x40)\n  dup1\n  0x40\n  add\n  0x40\n  mstore\n  dup1\n  0x03\n  dup2\n  mstore\n  0x20\n  add\n  0x544b420000000000000000000000000000000000000000000000000000000000\n  dup2\n  mstore\n  pop\n    /* \"Contract_Conqueror_Series/simpleSwap.sol\":1710:1716  tokenB */\n  0x06\n    /* \"Contract_Conqueror_Series/simpleSwap.sol\":1710:1723  tokenB.symbol */\n  0x01\n  add\n    /* \"Contract_Conqueror_Series/simpleSwap.sol\":1710:1731  tokenB.symbol = \"TKB\" */\n  swap1\n  dup2\n  tag_13\n  swap2\n  swap1\n  tag_10\n  jump\t// in\ntag_13:\n  pop\n    /* \"Contract_Conqueror_Series/simpleSwap.sol\":1760:1762  18 */\n  0x12\n    /* \"Contract_Conqueror_Series/simpleSwap.sol\":1742:1748  tokenB */\n  0x06\n    /* \"Contract_Conqueror_Series/simpleSwap.sol\":1742:1757  tokenB.decimals */\n  0x02\n  add\n  0x00\n    /* \"Contract_Conqueror_Series/simpleSwap.sol\":1742:1762  tokenB.decimals = 18 */\n  0x0100\n  exp\n  dup2\n  sload\n  dup2\n  0xff\n  mul\n  not\n  and\n  swap1\n  dup4\n  0xff\n  and\n  mul\n  or\n  swap1\n  sstore\n  pop\n    /* \"Contract_Conqueror_Series/simpleSwap.sol\":1790:1802  _initialRate */\n  dup1\n    /* \"Contract_Conqueror_Series/simpleSwap.sol\":1775:1787  exchangeRate */\n  0x0d\n    /* \"Contract_Conqueror_Series/simpleSwap.sol\":1775:1802  exchangeRate = _initialRate */\n  dup2\n  swap1\n  sstore\n  pop\n    /* \"Contract_Conqueror_Series/simpleSwap.sol\":1818:1851  ExchangeRateUpdated(_initialRate) */\n  0x388f446e9526fe5c9af20a5919b342370c8a7c0cb05245afe1e545658fa3cdba\n    /* \"Contract_Conqueror_Series/simpleSwap.sol\":1838:1850  _initialRate */\n  dup2\n    /* \"Contract_Conqueror_Series/simpleSwap.sol\":1818:1851  ExchangeRateUpdated(_initialRate) */\n  mload(0x40)\n  tag_14\n  swap2\n  swap1\n  tag_15\n  jump\t// in\ntag_14:\n  mload(0x40)\n  dup1\n  swap2\n  sub\n  swap1\n  log1\n    /* \"Contract_Conqueror_Series/simpleSwap.sol\":1359:1859  constructor(uint256 _initialRate) {... */\n  pop\n    /* \"Contract_Conqueror_Series/simpleSwap.sol\":169:6208  contract UnifiedTokenSwap {... */\n  jump(tag_16)\n    /* \"#utility.yul\":88:205   */\ntag_18:\n    /* \"#utility.yul\":197:198   */\n  0x00\n    /* \"#utility.yul\":194:195   */\n  0x00\n    /* \"#utility.yul\":187:199   */\n  revert\n    /* \"#utility.yul\":334:411   */\ntag_20:\n    /* \"#utility.yul\":371:378   */\n  0x00\n    /* \"#utility.yul\":400:405   */\n  dup2\n    /* \"#utility.yul\":389:405   */\n  swap1\n  pop\n    /* \"#utility.yul\":334:411   */\n  swap2\n  swap1\n  pop\n  jump\t// out\n    /* \"#utility.yul\":417:539   */\ntag_21:\n    /* \"#utility.yul\":490:514   */\n  tag_52\n    /* \"#utility.yul\":508:513   */\n  dup2\n    /* \"#utility.yul\":490:514   */\n  tag_20\n  jump\t// in\ntag_52:\n    /* \"#utility.yul\":483:488   */\n  dup2\n    /* \"#utility.yul\":480:515   */\n  eq\n    /* \"#utility.yul\":470:533   */\n  tag_53\n  jumpi\n    /* \"#utility.yul\":529:530   */\n  0x00\n    /* \"#utility.yul\":526:527   */\n  0x00\n    /* \"#utility.yul\":519:531   */\n  revert\n    /* \"#utility.yul\":470:533   */\ntag_53:\n    /* \"#utility.yul\":417:539   */\n  pop\n  jump\t// out\n    /* \"#utility.yul\":545:688   */\ntag_22:\n    /* \"#utility.yul\":602:607   */\n  0x00\n    /* \"#utility.yul\":633:639   */\n  dup2\n    /* \"#utility.yul\":627:640   */\n  mload\n    /* \"#utility.yul\":618:640   */\n  swap1\n  pop\n    /* \"#utility.yul\":649:682   */\n  tag_55\n    /* \"#utility.yul\":676:681   */\n  dup2\n    /* \"#utility.yul\":649:682   */\n  tag_21\n  jump\t// in\ntag_55:\n    /* \"#utility.yul\":545:688   */\n  swap3\n  swap2\n  pop\n  pop\n  jump\t// out\n    /* \"#utility.yul\":694:1045   */\ntag_3:\n    /* \"#utility.yul\":764:770   */\n  0x00\n    /* \"#utility.yul\":813:815   */\n  0x20\n    /* \"#utility.yul\":801:810   */\n  dup3\n    /* \"#utility.yul\":792:799   */\n  dup5\n    /* \"#utility.yul\":788:811   */\n  sub\n    /* \"#utility.yul\":784:816   */\n  slt\n    /* \"#utility.yul\":781:900   */\n  iszero\n  tag_57\n  jumpi\n    /* \"#utility.yul\":819:898   */\n  tag_58\n  tag_18\n  jump\t// in\ntag_58:\n    /* \"#utility.yul\":781:900   */\ntag_57:\n    /* \"#utility.yul\":939:940   */\n  0x00\n    /* \"#utility.yul\":964:1028   */\n  tag_59\n    /* \"#utility.yul\":1020:1027   */\n  dup5\n    /* \"#utility.yul\":1011:1017   */\n  dup3\n    /* \"#utility.yul\":1000:1009   */\n  dup6\n    /* \"#utility.yul\":996:1018   */\n  add\n    /* \"#utility.yul\":964:1028   */\n  tag_22\n  jump\t// in\ntag_59:\n    /* \"#utility.yul\":954:1028   */\n  swap2\n  pop\n    /* \"#utility.yul\":910:1038   */\n  pop\n    /* \"#utility.yul\":694:1045   */\n  swap3\n  swap2\n  pop\n  pop\n  jump\t// out\n    /* \"#utility.yul\":1051:1220   */\ntag_23:\n    /* \"#utility.yul\":1135:1146   */\n  0x00\n    /* \"#utility.yul\":1169:1175   */\n  dup3\n    /* \"#utility.yul\":1164:1167   */\n  dup3\n    /* \"#utility.yul\":1157:1176   */\n  mstore\n    /* \"#utility.yul\":1209:1213   */\n  0x20\n    /* \"#utility.yul\":1204:1207   */\n  dup3\n    /* \"#utility.yul\":1200:1214   */\n  add\n    /* \"#utility.yul\":1185:1214   */\n  swap1\n  pop\n    /* \"#utility.yul\":1051:1220   */\n  swap3\n  swap2\n  pop\n  pop\n  jump\t// out\n    /* \"#utility.yul\":1226:1388   */\ntag_24:\n    /* \"#utility.yul\":1366:1380   */\n  0x496e76616c696420726174650000000000000000000000000000000000000000\n    /* \"#utility.yul\":1362:1363   */\n  0x00\n    /* \"#utility.yul\":1354:1360   */\n  dup3\n    /* \"#utility.yul\":1350:1364   */\n  add\n    /* \"#utility.yul\":1343:1381   */\n  mstore\n    /* \"#utility.yul\":1226:1388   */\n  pop\n  jump\t// out\n    /* \"#utility.yul\":1394:1760   */\ntag_25:\n    /* \"#utility.yul\":1536:1539   */\n  0x00\n    /* \"#utility.yul\":1557:1624   */\n  tag_63\n    /* \"#utility.yul\":1621:1623   */\n  0x0c\n    /* \"#utility.yul\":1616:1619   */\n  dup4\n    /* \"#utility.yul\":1557:1624   */\n  tag_23\n  jump\t// in\ntag_63:\n    /* \"#utility.yul\":1550:1624   */\n  swap2\n  pop\n    /* \"#utility.yul\":1633:1726   */\n  tag_64\n    /* \"#utility.yul\":1722:1725   */\n  dup3\n    /* \"#utility.yul\":1633:1726   */\n  tag_24\n  jump\t// in\ntag_64:\n    /* \"#utility.yul\":1751:1753   */\n  0x20\n    /* \"#utility.yul\":1746:1749   */\n  dup3\n    /* \"#utility.yul\":1742:1754   */\n  add\n    /* \"#utility.yul\":1735:1754   */\n  swap1\n  pop\n    /* \"#utility.yul\":1394:1760   */\n  swap2\n  swap1\n  pop\n  jump\t// out\n    /* \"#utility.yul\":1766:2185   */\ntag_8:\n    /* \"#utility.yul\":1932:1936   */\n  0x00\n    /* \"#utility.yul\":1970:1972   */\n  0x20\n    /* \"#utility.yul\":1959:1968   */\n  dup3\n    /* \"#utility.yul\":1955:1973   */\n  add\n    /* \"#utility.yul\":1947:1973   */\n  swap1\n  pop\n    /* \"#utility.yul\":2019:2028   */\n  dup2\n    /* \"#utility.yul\":2013:2017   */\n  dup2\n    /* \"#utility.yul\":2009:2029   */\n  sub\n    /* \"#utility.yul\":2005:2006   */\n  0x00\n    /* \"#utility.yul\":1994:2003   */\n  dup4\n    /* \"#utility.yul\":1990:2007   */\n  add\n    /* \"#utility.yul\":1983:2030   */\n  mstore\n    /* \"#utility.yul\":2047:2178   */\n  tag_66\n    /* \"#utility.yul\":2173:2177   */\n  dup2\n    /* \"#utility.yul\":2047:2178   */\n  tag_25\n  jump\t// in\ntag_66:\n    /* \"#utility.yul\":2039:2178   */\n  swap1\n  pop\n    /* \"#utility.yul\":1766:2185   */\n  swap2\n  swap1\n  pop\n  jump\t// out\n    /* \"#utility.yul\":2191:2290   */\ntag_26:\n    /* \"#utility.yul\":2243:2249   */\n  0x00\n    /* \"#utility.yul\":2277:2282   */\n  dup2\n    /* \"#utility.yul\":2271:2283   */\n  mload\n    /* \"#utility.yul\":2261:2283   */\n  swap1\n  pop\n    /* \"#utility.yul\":2191:2290   */\n  swap2\n  swap1\n  pop\n  jump\t// out\n    /* \"#utility.yul\":2296:2476   */\ntag_27:\n    /* \"#utility.yul\":2344:2421   */\n  0x4e487b7100000000000000000000000000000000000000000000000000000000\n    /* \"#utility.yul\":2341:2342   */\n  0x00\n    /* \"#utility.yul\":2334:2422   */\n  mstore\n    /* \"#utility.yul\":2441:2445   */\n  0x41\n    /* \"#utility.yul\":2438:2439   */\n  0x04\n    /* \"#utility.yul\":2431:2446   */\n  mstore\n    /* \"#utility.yul\":2465:2469   */\n  0x24\n    /* \"#utility.yul\":2462:2463   */\n  0x00\n    /* \"#utility.yul\":2455:2470   */\n  revert\n    /* \"#utility.yul\":2482:2662   */\ntag_28:\n    /* \"#utility.yul\":2530:2607   */\n  0x4e487b7100000000000000000000000000000000000000000000000000000000\n    /* \"#utility.yul\":2527:2528   */\n  0x00\n    /* \"#utility.yul\":2520:2608   */\n  mstore\n    /* \"#utility.yul\":2627:2631   */\n  0x22\n    /* \"#utility.yul\":2624:2625   */\n  0x04\n    /* \"#utility.yul\":2617:2632   */\n  mstore\n    /* \"#utility.yul\":2651:2655   */\n  0x24\n    /* \"#utility.yul\":2648:2649   */\n  0x00\n    /* \"#utility.yul\":2641:2656   */\n  revert\n    /* \"#utility.yul\":2668:2988   */\ntag_29:\n    /* \"#utility.yul\":2712:2718   */\n  0x00\n    /* \"#utility.yul\":2749:2750   */\n  0x02\n    /* \"#utility.yul\":2743:2747   */\n  dup3\n    /* \"#utility.yul\":2739:2751   */\n  div\n    /* \"#utility.yul\":2729:2751   */\n  swap1\n  pop\n    /* \"#utility.yul\":2796:2797   */\n  0x01\n    /* \"#utility.yul\":2790:2794   */\n  dup3\n    /* \"#utility.yul\":2786:2798   */\n  and\n    /* \"#utility.yul\":2817:2835   */\n  dup1\n    /* \"#utility.yul\":2807:2888   */\n  tag_71\n  jumpi\n    /* \"#utility.yul\":2873:2877   */\n  0x7f\n    /* \"#utility.yul\":2865:2871   */\n  dup3\n    /* \"#utility.yul\":2861:2878   */\n  and\n    /* \"#utility.yul\":2851:2878   */\n  swap2\n  pop\n    /* \"#utility.yul\":2807:2888   */\ntag_71:\n    /* \"#utility.yul\":2935:2937   */\n  0x20\n    /* \"#utility.yul\":2927:2933   */\n  dup3\n    /* \"#utility.yul\":2924:2938   */\n  lt\n    /* \"#utility.yul\":2904:2922   */\n  dup2\n    /* \"#utility.yul\":2901:2939   */\n  sub\n    /* \"#utility.yul\":2898:2982   */\n  tag_72\n  jumpi\n    /* \"#utility.yul\":2954:2972   */\n  tag_73\n  tag_28\n  jump\t// in\ntag_73:\n    /* \"#utility.yul\":2898:2982   */\ntag_72:\n    /* \"#utility.yul\":2719:2988   */\n  pop\n    /* \"#utility.yul\":2668:2988   */\n  swap2\n  swap1\n  pop\n  jump\t// out\n    /* \"#utility.yul\":2994:3135   */\ntag_30:\n    /* \"#utility.yul\":3043:3047   */\n  0x00\n    /* \"#utility.yul\":3066:3069   */\n  dup2\n    /* \"#utility.yul\":3058:3069   */\n  swap1\n  pop\n    /* \"#utility.yul\":3089:3092   */\n  dup2\n    /* \"#utility.yul\":3086:3087   */\n  0x00\n    /* \"#utility.yul\":3079:3093   */\n  mstore\n    /* \"#utility.yul\":3123:3127   */\n  0x20\n    /* \"#utility.yul\":3120:3121   */\n  0x00\n    /* \"#utility.yul\":3110:3128   */\n  keccak256\n    /* \"#utility.yul\":3102:3128   */\n  swap1\n  pop\n    /* \"#utility.yul\":2994:3135   */\n  swap2\n  swap1\n  pop\n  jump\t// out\n    /* \"#utility.yul\":3141:3234   */\ntag_31:\n    /* \"#utility.yul\":3178:3184   */\n  0x00\n    /* \"#utility.yul\":3225:3227   */\n  0x20\n    /* \"#utility.yul\":3220:3222   */\n  0x1f\n    /* \"#utility.yul\":3213:3218   */\n  dup4\n    /* \"#utility.yul\":3209:3223   */\n  add\n    /* \"#utility.yul\":3205:3228   */\n  div\n    /* \"#utility.yul\":3195:3228   */\n  swap1\n  pop\n    /* \"#utility.yul\":3141:3234   */\n  swap2\n  swap1\n  pop\n  jump\t// out\n    /* \"#utility.yul\":3240:3347   */\ntag_32:\n    /* \"#utility.yul\":3284:3292   */\n  0x00\n    /* \"#utility.yul\":3334:3339   */\n  dup3\n    /* \"#utility.yul\":3328:3332   */\n  dup3\n    /* \"#utility.yul\":3324:3340   */\n  shl\n    /* \"#utility.yul\":3303:3340   */\n  swap1\n  pop\n    /* \"#utility.yul\":3240:3347   */\n  swap3\n  swap2\n  pop\n  pop\n  jump\t// out\n    /* \"#utility.yul\":3353:3746   */\ntag_33:\n    /* \"#utility.yul\":3422:3428   */\n  0x00\n    /* \"#utility.yul\":3472:3473   */\n  0x08\n    /* \"#utility.yul\":3460:3470   */\n  dup4\n    /* \"#utility.yul\":3456:3474   */\n  mul\n    /* \"#utility.yul\":3495:3592   */\n  tag_78\n    /* \"#utility.yul\":3525:3591   */\n  0xffffffffffffffffffffffffffffffffffffffffffffffffffffffffffffffff\n    /* \"#utility.yul\":3514:3523   */\n  dup3\n    /* \"#utility.yul\":3495:3592   */\n  tag_32\n  jump\t// in\ntag_78:\n    /* \"#utility.yul\":3613:3652   */\n  tag_79\n    /* \"#utility.yul\":3643:3651   */\n  dup7\n    /* \"#utility.yul\":3632:3641   */\n  dup4\n    /* \"#utility.yul\":3613:3652   */\n  tag_32\n  jump\t// in\ntag_79:\n    /* \"#utility.yul\":3601:3652   */\n  swap6\n  pop\n    /* \"#utility.yul\":3685:3689   */\n  dup1\n    /* \"#utility.yul\":3681:3690   */\n  not\n    /* \"#utility.yul\":3674:3679   */\n  dup5\n    /* \"#utility.yul\":3670:3691   */\n  and\n    /* \"#utility.yul\":3661:3691   */\n  swap4\n  pop\n    /* \"#utility.yul\":3734:3738   */\n  dup1\n    /* \"#utility.yul\":3724:3732   */\n  dup7\n    /* \"#utility.yul\":3720:3739   */\n  and\n    /* \"#utility.yul\":3713:3718   */\n  dup5\n    /* \"#utility.yul\":3710:3740   */\n  or\n    /* \"#utility.yul\":3700:3740   */\n  swap3\n  pop\n    /* \"#utility.yul\":3429:3746   */\n  pop\n  pop\n    /* \"#utility.yul\":3353:3746   */\n  swap4\n  swap3\n  pop\n  pop\n  pop\n  jump\t// out\n    /* \"#utility.yul\":3752:3812   */\ntag_34:\n    /* \"#utility.yul\":3780:3783   */\n  0x00\n    /* \"#utility.yul\":3801:3806   */\n  dup2\n    /* \"#utility.yul\":3794:3806   */\n  swap1\n  pop\n    /* \"#utility.yul\":3752:3812   */\n  swap2\n  swap1\n  pop\n  jump\t// out\n    /* \"#utility.yul\":3818:3960   */\ntag_35:\n    /* \"#utility.yul\":3868:3877   */\n  0x00\n    /* \"#utility.yul\":3901:3954   */\n  tag_82\n    /* \"#utility.yul\":3919:3953   */\n  tag_83\n    /* \"#utility.yul\":3928:3952   */\n  tag_84\n    /* \"#utility.yul\":3946:3951   */\n  dup5\n    /* \"#utility.yul\":3928:3952   */\n  tag_20\n  jump\t// in\ntag_84:\n    /* \"#utility.yul\":3919:3953   */\n  tag_34\n  jump\t// in\ntag_83:\n    /* \"#utility.yul\":3901:3954   */\n  tag_20\n  jump\t// in\ntag_82:\n    /* \"#utility.yul\":3888:3954   */\n  swap1\n  pop\n    /* \"#utility.yul\":3818:3960   */\n  swap2\n  swap1\n  pop\n  jump\t// out\n    /* \"#utility.yul\":3966:4041   */\ntag_36:\n    /* \"#utility.yul\":4009:4012   */\n  0x00\n    /* \"#utility.yul\":4030:4035   */\n  dup2\n    /* \"#utility.yul\":4023:4035   */\n  swap1\n  pop\n    /* \"#utility.yul\":3966:4041   */\n  swap2\n  swap1\n  pop\n  jump\t// out\n    /* \"#utility.yul\":4047:4316   */\ntag_37:\n    /* \"#utility.yul\":4157:4196   */\n  tag_87\n    /* \"#utility.yul\":4188:4195   */\n  dup4\n    /* \"#utility.yul\":4157:4196   */\n  tag_35\n  jump\t// in\ntag_87:\n    /* \"#utility.yul\":4218:4309   */\n  tag_88\n    /* \"#utility.yul\":4267:4308   */\n  tag_89\n    /* \"#utility.yul\":4291:4307   */\n  dup3\n    /* \"#utility.yul\":4267:4308   */\n  tag_36\n  jump\t// in\ntag_89:\n    /* \"#utility.yul\":4259:4265   */\n  dup5\n    /* \"#utility.yul\":4252:4256   */\n  dup5\n    /* \"#utility.yul\":4246:4257   */\n  sload\n    /* \"#utility.yul\":4218:4309   */\n  tag_33\n  jump\t// in\ntag_88:\n    /* \"#utility.yul\":4212:4216   */\n  dup3\n    /* \"#utility.yul\":4205:4310   */\n  sstore\n    /* \"#utility.yul\":4123:4316   */\n  pop\n    /* \"#utility.yul\":4047:4316   */\n  pop\n  pop\n  pop\n  jump\t// out\n    /* \"#utility.yul\":4322:4395   */\ntag_38:\n    /* \"#utility.yul\":4367:4370   */\n  0x00\n    /* \"#utility.yul\":4388:4389   */\n  0x00\n    /* \"#utility.yul\":4381:4389   */\n  swap1\n  pop\n    /* \"#utility.yul\":4322:4395   */\n  swap1\n  jump\t// out\n    /* \"#utility.yul\":4401:4590   */\ntag_39:\n    /* \"#utility.yul\":4478:4510   */\n  tag_92\n  tag_38\n  jump\t// in\ntag_92:\n    /* \"#utility.yul\":4519:4584   */\n  tag_93\n    /* \"#utility.yul\":4577:4583   */\n  dup2\n    /* \"#utility.yul\":4569:4575   */\n  dup5\n    /* \"#utility.yul\":4563:4567   */\n  dup5\n    /* \"#utility.yul\":4519:4584   */\n  tag_37\n  jump\t// in\ntag_93:\n    /* \"#utility.yul\":4454:4590   */\n  pop\n    /* \"#utility.yul\":4401:4590   */\n  pop\n  pop\n  jump\t// out\n    /* \"#utility.yul\":4596:4782   */\ntag_40:\n    /* \"#utility.yul\":4656:4776   */\ntag_95:\n    /* \"#utility.yul\":4673:4676   */\n  dup2\n    /* \"#utility.yul\":4666:4671   */\n  dup2\n    /* \"#utility.yul\":4663:4677   */\n  lt\n    /* \"#utility.yul\":4656:4776   */\n  iszero\n  tag_97\n  jumpi\n    /* \"#utility.yul\":4727:4766   */\n  tag_98\n    /* \"#utility.yul\":4764:4765   */\n  0x00\n    /* \"#utility.yul\":4757:4762   */\n  dup3\n    /* \"#utility.yul\":4727:4766   */\n  tag_39\n  jump\t// in\ntag_98:\n    /* \"#utility.yul\":4700:4701   */\n  0x01\n    /* \"#utility.yul\":4693:4698   */\n  dup2\n    /* \"#utility.yul\":4689:4702   */\n  add\n    /* \"#utility.yul\":4680:4702   */\n  swap1\n  pop\n    /* \"#utility.yul\":4656:4776   */\n  jump(tag_95)\ntag_97:\n    /* \"#utility.yul\":4596:4782   */\n  pop\n  pop\n  jump\t// out\n    /* \"#utility.yul\":4788:5331   */\ntag_41:\n    /* \"#utility.yul\":4889:4891   */\n  0x1f\n    /* \"#utility.yul\":4884:4887   */\n  dup3\n    /* \"#utility.yul\":4881:4892   */\n  gt\n    /* \"#utility.yul\":4878:5324   */\n  iszero\n  tag_100\n  jumpi\n    /* \"#utility.yul\":4923:4961   */\n  tag_101\n    /* \"#utility.yul\":4955:4960   */\n  dup2\n    /* \"#utility.yul\":4923:4961   */\n  tag_30\n  jump\t// in\ntag_101:\n    /* \"#utility.yul\":5007:5036   */\n  tag_102\n    /* \"#utility.yul\":5025:5035   */\n  dup5\n    /* \"#utility.yul\":5007:5036   */\n  tag_31\n  jump\t// in\ntag_102:\n    /* \"#utility.yul\":4997:5005   */\n  dup2\n    /* \"#utility.yul\":4993:5037   */\n  add\n    /* \"#utility.yul\":5190:5192   */\n  0x20\n    /* \"#utility.yul\":5178:5188   */\n  dup6\n    /* \"#utility.yul\":5175:5193   */\n  lt\n    /* \"#utility.yul\":5172:5221   */\n  iszero\n  tag_103\n  jumpi\n    /* \"#utility.yul\":5211:5219   */\n  dup2\n    /* \"#utility.yul\":5196:5219   */\n  swap1\n  pop\n    /* \"#utility.yul\":5172:5221   */\ntag_103:\n    /* \"#utility.yul\":5234:5314   */\n  tag_104\n    /* \"#utility.yul\":5290:5312   */\n  tag_105\n    /* \"#utility.yul\":5308:5311   */\n  dup6\n    /* \"#utility.yul\":5290:5312   */\n  tag_31\n  jump\t// in\ntag_105:\n    /* \"#utility.yul\":5280:5288   */\n  dup4\n    /* \"#utility.yul\":5276:5313   */\n  add\n    /* \"#utility.yul\":5263:5274   */\n  dup3\n    /* \"#utility.yul\":5234:5314   */\n  tag_40\n  jump\t// in\ntag_104:\n    /* \"#utility.yul\":4893:5324   */\n  pop\n  pop\n    /* \"#utility.yul\":4878:5324   */\ntag_100:\n    /* \"#utility.yul\":4788:5331   */\n  pop\n  pop\n  pop\n  jump\t// out\n    /* \"#utility.yul\":5337:5454   */\ntag_42:\n    /* \"#utility.yul\":5391:5399   */\n  0x00\n    /* \"#utility.yul\":5441:5446   */\n  dup3\n    /* \"#utility.yul\":5435:5439   */\n  dup3\n    /* \"#utility.yul\":5431:5447   */\n  shr\n    /* \"#utility.yul\":5410:5447   */\n  swap1\n  pop\n    /* \"#utility.yul\":5337:5454   */\n  swap3\n  swap2\n  pop\n  pop\n  jump\t// out\n    /* \"#utility.yul\":5460:5629   */\ntag_43:\n    /* \"#utility.yul\":5504:5510   */\n  0x00\n    /* \"#utility.yul\":5537:5588   */\n  tag_108\n    /* \"#utility.yul\":5585:5586   */\n  0x00\n    /* \"#utility.yul\":5581:5587   */\n  not\n    /* \"#utility.yul\":5573:5578   */\n  dup5\n    /* \"#utility.yul\":5570:5571   */\n  0x08\n    /* \"#utility.yul\":5566:5579   */\n  mul\n    /* \"#utility.yul\":5537:5588   */\n  tag_42\n  jump\t// in\ntag_108:\n    /* \"#utility.yul\":5533:5589   */\n  not\n    /* \"#utility.yul\":5618:5622   */\n  dup1\n    /* \"#utility.yul\":5612:5616   */\n  dup4\n    /* \"#utility.yul\":5608:5623   */\n  and\n    /* \"#utility.yul\":5598:5623   */\n  swap2\n  pop\n    /* \"#utility.yul\":5511:5629   */\n  pop\n    /* \"#utility.yul\":5460:5629   */\n  swap3\n  swap2\n  pop\n  pop\n  jump\t// out\n    /* \"#utility.yul\":5634:5929   */\ntag_44:\n    /* \"#utility.yul\":5710:5714   */\n  0x00\n    /* \"#utility.yul\":5856:5885   */\n  tag_110\n    /* \"#utility.yul\":5881:5884   */\n  dup4\n    /* \"#utility.yul\":5875:5879   */\n  dup4\n    /* \"#utility.yul\":5856:5885   */\n  tag_43\n  jump\t// in\ntag_110:\n    /* \"#utility.yul\":5848:5885   */\n  swap2\n  pop\n    /* \"#utility.yul\":5918:5921   */\n  dup3\n    /* \"#utility.yul\":5915:5916   */\n  0x02\n    /* \"#utility.yul\":5911:5922   */\n  mul\n    /* \"#utility.yul\":5905:5909   */\n  dup3\n    /* \"#utility.yul\":5902:5923   */\n  or\n    /* \"#utility.yul\":5894:5923   */\n  swap1\n  pop\n    /* \"#utility.yul\":5634:5929   */\n  swap3\n  swap2\n  pop\n  pop\n  jump\t// out\n    /* \"#utility.yul\":5934:7329   */\ntag_10:\n    /* \"#utility.yul\":6051:6088   */\n  tag_112\n    /* \"#utility.yul\":6084:6087   */\n  dup3\n    /* \"#utility.yul\":6051:6088   */\n  tag_26\n  jump\t// in\ntag_112:\n    /* \"#utility.yul\":6153:6171   */\n  0xffffffffffffffff\n    /* \"#utility.yul\":6145:6151   */\n  dup2\n    /* \"#utility.yul\":6142:6172   */\n  gt\n    /* \"#utility.yul\":6139:6195   */\n  iszero\n  tag_113\n  jumpi\n    /* \"#utility.yul\":6175:6193   */\n  tag_114\n  tag_27\n  jump\t// in\ntag_114:\n    /* \"#utility.yul\":6139:6195   */\ntag_113:\n    /* \"#utility.yul\":6219:6257   */\n  tag_115\n    /* \"#utility.yul\":6251:6255   */\n  dup3\n    /* \"#utility.yul\":6245:6256   */\n  sload\n    /* \"#utility.yul\":6219:6257   */\n  tag_29\n  jump\t// in\ntag_115:\n    /* \"#utility.yul\":6304:6371   */\n  tag_116\n    /* \"#utility.yul\":6364:6370   */\n  dup3\n    /* \"#utility.yul\":6356:6362   */\n  dup3\n    /* \"#utility.yul\":6350:6354   */\n  dup6\n    /* \"#utility.yul\":6304:6371   */\n  tag_41\n  jump\t// in\ntag_116:\n    /* \"#utility.yul\":6398:6399   */\n  0x00\n    /* \"#utility.yul\":6422:6426   */\n  0x20\n    /* \"#utility.yul\":6409:6426   */\n  swap1\n  pop\n    /* \"#utility.yul\":6454:6456   */\n  0x1f\n    /* \"#utility.yul\":6446:6452   */\n  dup4\n    /* \"#utility.yul\":6443:6457   */\n  gt\n    /* \"#utility.yul\":6471:6472   */\n  0x01\n    /* \"#utility.yul\":6466:7084   */\n  dup2\n  eq\n  tag_118\n  jumpi\n    /* \"#utility.yul\":7128:7129   */\n  0x00\n    /* \"#utility.yul\":7145:7151   */\n  dup5\n    /* \"#utility.yul\":7142:7219   */\n  iszero\n  tag_119\n  jumpi\n    /* \"#utility.yul\":7194:7203   */\n  dup3\n    /* \"#utility.yul\":7189:7192   */\n  dup8\n    /* \"#utility.yul\":7185:7204   */\n  add\n    /* \"#utility.yul\":7179:7205   */\n  mload\n    /* \"#utility.yul\":7170:7205   */\n  swap1\n  pop\n    /* \"#utility.yul\":7142:7219   */\ntag_119:\n    /* \"#utility.yul\":7245:7312   */\n  tag_120\n    /* \"#utility.yul\":7305:7311   */\n  dup6\n    /* \"#utility.yul\":7298:7303   */\n  dup3\n    /* \"#utility.yul\":7245:7312   */\n  tag_44\n  jump\t// in\ntag_120:\n    /* \"#utility.yul\":7239:7243   */\n  dup7\n    /* \"#utility.yul\":7232:7313   */\n  sstore\n    /* \"#utility.yul\":7101:7323   */\n  pop\n    /* \"#utility.yul\":6436:7323   */\n  jump(tag_117)\n    /* \"#utility.yul\":6466:7084   */\ntag_118:\n    /* \"#utility.yul\":6518:6522   */\n  0x1f\n    /* \"#utility.yul\":6514:6523   */\n  not\n    /* \"#utility.yul\":6506:6512   */\n  dup5\n    /* \"#utility.yul\":6502:6524   */\n  and\n    /* \"#utility.yul\":6552:6589   */\n  tag_121\n    /* \"#utility.yul\":6584:6588   */\n  dup7\n    /* \"#utility.yul\":6552:6589   */\n  tag_30\n  jump\t// in\ntag_121:\n    /* \"#utility.yul\":6611:6612   */\n  0x00\n    /* \"#utility.yul\":6625:6833   */\ntag_122:\n    /* \"#utility.yul\":6639:6646   */\n  dup3\n    /* \"#utility.yul\":6636:6637   */\n  dup2\n    /* \"#utility.yul\":6633:6647   */\n  lt\n    /* \"#utility.yul\":6625:6833   */\n  iszero\n  tag_124\n  jumpi\n    /* \"#utility.yul\":6718:6727   */\n  dup5\n    /* \"#utility.yul\":6713:6716   */\n  dup10\n    /* \"#utility.yul\":6709:6728   */\n  add\n    /* \"#utility.yul\":6703:6729   */\n  mload\n    /* \"#utility.yul\":6695:6701   */\n  dup3\n    /* \"#utility.yul\":6688:6730   */\n  sstore\n    /* \"#utility.yul\":6769:6770   */\n  0x01\n    /* \"#utility.yul\":6761:6767   */\n  dup3\n    /* \"#utility.yul\":6757:6771   */\n  add\n    /* \"#utility.yul\":6747:6771   */\n  swap2\n  pop\n    /* \"#utility.yul\":6816:6818   */\n  0x20\n    /* \"#utility.yul\":6805:6814   */\n  dup6\n    /* \"#utility.yul\":6801:6819   */\n  add\n    /* \"#utility.yul\":6788:6819   */\n  swap5\n  pop\n    /* \"#utility.yul\":6662:6666   */\n  0x20\n    /* \"#utility.yul\":6659:6660   */\n  dup2\n    /* \"#utility.yul\":6655:6667   */\n  add\n    /* \"#utility.yul\":6650:6667   */\n  swap1\n  pop\n    /* \"#utility.yul\":6625:6833   */\n  jump(tag_122)\ntag_124:\n    /* \"#utility.yul\":6861:6867   */\n  dup7\n    /* \"#utility.yul\":6852:6859   */\n  dup4\n    /* \"#utility.yul\":6849:6868   */\n  lt\n    /* \"#utility.yul\":6846:7025   */\n  iszero\n  tag_125\n  jumpi\n    /* \"#utility.yul\":6919:6928   */\n  dup5\n    /* \"#utility.yul\":6914:6917   */\n  dup10\n    /* \"#utility.yul\":6910:6929   */\n  add\n    /* \"#utility.yul\":6904:6930   */\n  mload\n    /* \"#utility.yul\":6962:7010   */\n  tag_126\n    /* \"#utility.yul\":7004:7008   */\n  0x1f\n    /* \"#utility.yul\":6996:7002   */\n  dup10\n    /* \"#utility.yul\":6992:7009   */\n  and\n    /* \"#utility.yul\":6981:6990   */\n  dup3\n    /* \"#utility.yul\":6962:7010   */\n  tag_43\n  jump\t// in\ntag_126:\n    /* \"#utility.yul\":6954:6960   */\n  dup4\n    /* \"#utility.yul\":6947:7011   */\n  sstore\n    /* \"#utility.yul\":6869:7025   */\n  pop\n    /* \"#utility.yul\":6846:7025   */\ntag_125:\n    /* \"#utility.yul\":7071:7072   */\n  0x01\n    /* \"#utility.yul\":7067:7068   */\n  0x02\n    /* \"#utility.yul\":7059:7065   */\n  dup9\n    /* \"#utility.yul\":7055:7069   */\n  mul\n    /* \"#utility.yul\":7051:7073   */\n  add\n    /* \"#utility.yul\":7045:7049   */\n  dup9\n    /* \"#utility.yul\":7038:7074   */\n  sstore\n    /* \"#utility.yul\":6473:7084   */\n  pop\n  pop\n  pop\n    /* \"#utility.yul\":6436:7323   */\ntag_117:\n  pop\n    /* \"#utility.yul\":6026:7329   */\n  pop\n  pop\n  pop\n    /* \"#utility.yul\":5934:7329   */\n  pop\n  pop\n  jump\t// out\n    /* \"#utility.yul\":7335:7453   */\ntag_45:\n    /* \"#utility.yul\":7422:7446   */\n  tag_128\n    /* \"#utility.yul\":7440:7445   */\n  dup2\n    /* \"#utility.yul\":7422:7446   */\n  tag_20\n  jump\t// in\ntag_128:\n    /* \"#utility.yul\":7417:7420   */\n  dup3\n    /* \"#utility.yul\":7410:7447   */\n  mstore\n    /* \"#utility.yul\":7335:7453   */\n  pop\n  pop\n  jump\t// out\n    /* \"#utility.yul\":7459:7681   */\ntag_15:\n    /* \"#utility.yul\":7552:7556   */\n  0x00\n    /* \"#utility.yul\":7590:7592   */\n  0x20\n    /* \"#utility.yul\":7579:7588   */\n  dup3\n    /* \"#utility.yul\":7575:7593   */\n  add\n    /* \"#utility.yul\":7567:7593   */\n  swap1\n  pop\n    /* \"#utility.yul\":7603:7674   */\n  tag_130\n    /* \"#utility.yul\":7671:7672   */\n  0x00\n    /* \"#utility.yul\":7660:7669   */\n  dup4\n    /* \"#utility.yul\":7656:7673   */\n  add\n    /* \"#utility.yul\":7647:7653   */\n  dup5\n    /* \"#utility.yul\":7603:7674   */\n  tag_45\n  jump\t// in\ntag_130:\n    /* \"#utility.yul\":7459:7681   */\n  swap3\n  swap2\n  pop\n  pop\n  jump\t// out\n    /* \"Contract_Conqueror_Series/simpleSwap.sol\":169:6208  contract UnifiedTokenSwap {... */\ntag_16:\n  dataSize(sub_0)\n  dup1\n  dataOffset(sub_0)\n  0x00\n  codecopy\n  0x00\n  return\nstop\n\nsub_0: assembly {\n        /* \"Contract_Conqueror_Series/simpleSwap.sol\":169:6208  contract UnifiedTokenSwap {... */\n      mstore(0x40, 0x80)\n      callvalue\n      dup1\n      iszero\n      tag_1\n      jumpi\n      revert(0x00, 0x00)\n    tag_1:\n      pop\n      jumpi(tag_2, lt(calldatasize, 0x04))\n      shr(0xe0, calldataload(0x00))\n      dup1\n      0x8da5cb5b\n      gt\n      tag_19\n      jumpi\n      dup1\n      0xdb068e0e\n      gt\n      tag_20\n      jumpi\n      dup1\n      0xdb068e0e\n      eq\n      tag_15\n      jumpi\n      dup1\n      0xef60e3b1\n      eq\n      tag_16\n      jumpi\n      dup1\n      0xf2fc8603\n      eq\n      tag_17\n      jumpi\n      dup1\n      0xf2fde38b\n      eq\n      tag_18\n      jumpi\n      jump(tag_2)\n    tag_20:\n      dup1\n      0x8da5cb5b\n      eq\n      tag_11\n      jumpi\n      dup1\n      0x94b918de\n      eq\n      tag_12\n      jumpi\n      dup1\n      0x984c0450\n      eq\n      tag_13\n      jumpi\n      dup1\n      0xb9acd876\n      eq\n      tag_14\n      jumpi\n      jump(tag_2)\n    tag_19:\n      dup1\n      0x61c03aa2\n      gt\n      tag_21\n      jumpi\n      dup1\n      0x61c03aa2\n      eq\n      tag_7\n      jumpi\n      dup1\n      0x75f3f304\n      eq\n      tag_8\n      jumpi\n      dup1\n      0x89942649\n      eq\n      tag_9\n      jumpi\n      dup1\n      0x89a903b1\n      eq\n      tag_10\n      jumpi\n      jump(tag_2)\n    tag_21:\n      dup1\n      0x08e6d07e\n      eq\n      tag_3\n      jumpi\n      dup1\n      0x1903b431\n      eq\n      tag_4\n      jumpi\n      dup1\n      0x3ba0b9a9\n      eq\n      tag_5\n      jumpi\n      dup1\n      0x52ab855a\n      eq\n      tag_6\n      jumpi\n    tag_2:\n      revert(0x00, 0x00)\n        /* \"Contract_Conqueror_Series/simpleSwap.sol\":2189:2322  function decimals(bool isTokenA) external view returns (uint8) {... */\n    tag_3:\n      tag_22\n      0x04\n      dup1\n      calldatasize\n      sub\n      dup2\n      add\n      swap1\n      tag_23\n      swap2\n      swap1\n      tag_24\n      jump\t// in\n    tag_23:\n      tag_25\n      jump\t// in\n    tag_22:\n      mload(0x40)\n      tag_26\n      swap2\n      swap1\n      tag_27\n      jump\t// in\n    tag_26:\n      mload(0x40)\n      dup1\n      swap2\n      sub\n      swap1\n      return\n        /* \"Contract_Conqueror_Series/simpleSwap.sol\":2482:2646  function balanceOf(bool isTokenA, address user) external view returns (uint256) {... */\n    tag_4:\n      tag_28\n      0x04\n      dup1\n      calldatasize\n      sub\n      dup2\n      add\n      swap1\n      tag_29\n      swap2\n      swap1\n      tag_30\n      jump\t// in\n    tag_29:\n      tag_31\n      jump\t// in\n    tag_28:\n      mload(0x40)\n      tag_32\n      swap2\n      swap1\n      tag_33\n      jump\t// in\n    tag_32:\n      mload(0x40)\n      dup1\n      swap2\n      sub\n      swap1\n      return\n        /* \"Contract_Conqueror_Series/simpleSwap.sol\":633:660  uint256 public exchangeRate */\n    tag_5:\n      tag_34\n      tag_35\n      jump\t// in\n    tag_34:\n      mload(0x40)\n      tag_36\n      swap2\n      swap1\n      tag_33\n      jump\t// in\n    tag_36:\n      mload(0x40)\n      dup1\n      swap2\n      sub\n      swap1\n      return\n        /* \"Contract_Conqueror_Series/simpleSwap.sol\":3212:3642  function transfer(bool isTokenA, address to, uint256 amount) external returns (bool) {... */\n    tag_6:\n      tag_37\n      0x04\n      dup1\n      calldatasize\n      sub\n      dup2\n      add\n      swap1\n      tag_38\n      swap2\n      swap1\n      tag_39\n      jump\t// in\n    tag_38:\n      tag_40\n      jump\t// in\n    tag_37:\n      mload(0x40)\n      tag_41\n      swap2\n      swap1\n      tag_42\n      jump\t// in\n    tag_41:\n      mload(0x40)\n      dup1\n      swap2\n      sub\n      swap1\n      return\n        /* \"Contract_Conqueror_Series/simpleSwap.sol\":1909:2038  function name(bool isTokenA) external view returns (string memory) {... */\n    tag_7:\n      tag_43\n      0x04\n      dup1\n      calldatasize\n      sub\n      dup2\n      add\n      swap1\n      tag_44\n      swap2\n      swap1\n      tag_24\n      jump\t// in\n    tag_44:\n      tag_45\n      jump\t// in\n    tag_43:\n      mload(0x40)\n      tag_46\n      swap2\n      swap1\n      tag_47\n      jump\t// in\n    tag_46:\n      mload(0x40)\n      dup1\n      swap2\n      sub\n      swap1\n      return\n        /* \"Contract_Conqueror_Series/simpleSwap.sol\":2654:2980  function approve(bool isTokenA, address spender, uint256 amount) external returns (bool) {... */\n    tag_8:\n      tag_48\n      0x04\n      dup1\n      calldatasize\n      sub\n      dup2\n      add\n      swap1\n      tag_49\n      swap2\n      swap1\n      tag_39\n      jump\t// in\n    tag_49:\n      tag_50\n      jump\t// in\n    tag_48:\n      mload(0x40)\n      tag_51\n      swap2\n      swap1\n      tag_42\n      jump\t// in\n    tag_51:\n      mload(0x40)\n      dup1\n      swap2\n      sub\n      swap1\n      return\n        /* \"Contract_Conqueror_Series/simpleSwap.sol\":2330:2474  function totalSupply(bool isTokenA) external view returns (uint256) {... */\n    tag_9:\n      tag_52\n      0x04\n      dup1\n      calldatasize\n      sub\n      dup2\n      add\n      swap1\n      tag_53\n      swap2\n      swap1\n      tag_24\n      jump\t// in\n    tag_53:\n      tag_54\n      jump\t// in\n    tag_52:\n      mload(0x40)\n      tag_55\n      swap2\n      swap1\n      tag_33\n      jump\t// in\n    tag_55:\n      mload(0x40)\n      dup1\n      swap2\n      sub\n      swap1\n      return\n        /* \"Contract_Conqueror_Series/simpleSwap.sol\":3650:4212  function transferFrom(bool isTokenA, address from, address to, uint256 amount) external returns (bool) {... */\n    tag_10:\n      tag_56\n      0x04\n      dup1\n      calldatasize\n      sub\n      dup2\n      add\n      swap1\n      tag_57\n      swap2\n      swap1\n      tag_58\n      jump\t// in\n    tag_57:\n      tag_59\n      jump\t// in\n    tag_56:\n      mload(0x40)\n      tag_60\n      swap2\n      swap1\n      tag_42\n      jump\t// in\n    tag_60:\n      mload(0x40)\n      dup1\n      swap2\n      sub\n      swap1\n      return\n        /* \"Contract_Conqueror_Series/simpleSwap.sol\":606:626  address public owner */\n    tag_11:\n      tag_61\n      tag_62\n      jump\t// in\n    tag_61:\n      mload(0x40)\n      tag_63\n      swap2\n      swap1\n      tag_64\n      jump\t// in\n    tag_63:\n      mload(0x40)\n      dup1\n      swap2\n      sub\n      swap1\n      return\n        /* \"Contract_Conqueror_Series/simpleSwap.sol\":4775:5627  function swap(uint256 amountIn) external {... */\n    tag_12:\n      tag_65\n      0x04\n      dup1\n      calldatasize\n      sub\n      dup2\n      add\n      swap1\n      tag_66\n      swap2\n      swap1\n      tag_67\n      jump\t// in\n    tag_66:\n      tag_68\n      jump\t// in\n    tag_65:\n      stop\n        /* \"Contract_Conqueror_Series/simpleSwap.sol\":5889:6205  function withdraw(bool isTokenA, uint256 amount) external onlyOwner {... */\n    tag_13:\n      tag_69\n      0x04\n      dup1\n      calldatasize\n      sub\n      dup2\n      add\n      swap1\n      tag_70\n      swap2\n      swap1\n      tag_71\n      jump\t// in\n    tag_70:\n      tag_72\n      jump\t// in\n    tag_69:\n      stop\n        /* \"Contract_Conqueror_Series/simpleSwap.sol\":2046:2181  function symbol(bool isTokenA) external view returns (string memory) {... */\n    tag_14:\n      tag_73\n      0x04\n      dup1\n      calldatasize\n      sub\n      dup2\n      add\n      swap1\n      tag_74\n      swap2\n      swap1\n      tag_24\n      jump\t// in\n    tag_74:\n      tag_75\n      jump\t// in\n    tag_73:\n      mload(0x40)\n      tag_76\n      swap2\n      swap1\n      tag_47\n      jump\t// in\n    tag_76:\n      mload(0x40)\n      dup1\n      swap2\n      sub\n      swap1\n      return\n        /* \"Contract_Conqueror_Series/simpleSwap.sol\":4577:4767  function setExchangeRate(uint256 newRate) external onlyOwner {... */\n    tag_15:\n      tag_77\n      0x04\n      dup1\n      calldatasize\n      sub\n      dup2\n      add\n      swap1\n      tag_78\n      swap2\n      swap1\n      tag_67\n      jump\t// in\n    tag_78:\n      tag_79\n      jump\t// in\n    tag_77:\n      stop\n        /* \"Contract_Conqueror_Series/simpleSwap.sol\":4220:4528  function mint(bool isTokenA, address to, uint256 amount) external onlyOwner {... */\n    tag_16:\n      tag_80\n      0x04\n      dup1\n      calldatasize\n      sub\n      dup2\n      add\n      swap1\n      tag_81\n      swap2\n      swap1\n      tag_39\n      jump\t// in\n    tag_81:\n      tag_82\n      jump\t// in\n    tag_80:\n      stop\n        /* \"Contract_Conqueror_Series/simpleSwap.sol\":2988:3204  function allowance(bool isTokenA, address owner_, address spender) external view returns (uint256) {... */\n    tag_17:\n      tag_83\n      0x04\n      dup1\n      calldatasize\n      sub\n      dup2\n      add\n      swap1\n      tag_84\n      swap2\n      swap1\n      tag_85\n      jump\t// in\n    tag_84:\n      tag_86\n      jump\t// in\n    tag_83:\n      mload(0x40)\n      tag_87\n      swap2\n      swap1\n      tag_33\n      jump\t// in\n    tag_87:\n      mload(0x40)\n      dup1\n      swap2\n      sub\n      swap1\n      return\n        /* \"Contract_Conqueror_Series/simpleSwap.sol\":5671:5881  function transferOwnership(address newOwner) external onlyOwner {... */\n    tag_18:\n      tag_88\n      0x04\n      dup1\n      calldatasize\n      sub\n      dup2\n      add\n      swap1\n      tag_89\n      swap2\n      swap1\n      tag_90\n      jump\t// in\n    tag_89:\n      tag_91\n      jump\t// in\n    tag_88:\n      stop\n        /* \"Contract_Conqueror_Series/simpleSwap.sol\":2189:2322  function decimals(bool isTokenA) external view returns (uint8) {... */\n    tag_25:\n        /* \"Contract_Conqueror_Series/simpleSwap.sol\":2245:2250  uint8 */\n      0x00\n        /* \"Contract_Conqueror_Series/simpleSwap.sol\":2270:2278  isTokenA */\n      dup2\n        /* \"Contract_Conqueror_Series/simpleSwap.sol\":2270:2314  isTokenA ? tokenA.decimals : tokenB.decimals */\n      tag_93\n      jumpi\n        /* \"Contract_Conqueror_Series/simpleSwap.sol\":2299:2305  tokenB */\n      0x06\n        /* \"Contract_Conqueror_Series/simpleSwap.sol\":2299:2314  tokenB.decimals */\n      0x02\n      add\n      0x00\n      swap1\n      sload\n      swap1\n      0x0100\n      exp\n      swap1\n      div\n      0xff\n      and\n        /* \"Contract_Conqueror_Series/simpleSwap.sol\":2270:2314  isTokenA ? tokenA.decimals : tokenB.decimals */\n      jump(tag_94)\n    tag_93:\n        /* \"Contract_Conqueror_Series/simpleSwap.sol\":2281:2287  tokenA */\n      0x00\n        /* \"Contract_Conqueror_Series/simpleSwap.sol\":2281:2296  tokenA.decimals */\n      0x02\n      add\n      0x00\n      swap1\n      sload\n      swap1\n      0x0100\n      exp\n      swap1\n      div\n      0xff\n      and\n        /* \"Contract_Conqueror_Series/simpleSwap.sol\":2270:2314  isTokenA ? tokenA.decimals : tokenB.decimals */\n    tag_94:\n        /* \"Contract_Conqueror_Series/simpleSwap.sol\":2263:2314  return isTokenA ? tokenA.decimals : tokenB.decimals */\n      swap1\n      pop\n        /* \"Contract_Conqueror_Series/simpleSwap.sol\":2189:2322  function decimals(bool isTokenA) external view returns (uint8) {... */\n      swap2\n      swap1\n      pop\n      jump\t// out\n        /* \"Contract_Conqueror_Series/simpleSwap.sol\":2482:2646  function balanceOf(bool isTokenA, address user) external view returns (uint256) {... */\n    tag_31:\n        /* \"Contract_Conqueror_Series/simpleSwap.sol\":2553:2560  uint256 */\n      0x00\n        /* \"Contract_Conqueror_Series/simpleSwap.sol\":2580:2588  isTokenA */\n      dup3\n        /* \"Contract_Conqueror_Series/simpleSwap.sol\":2580:2638  isTokenA ? tokenA.balanceOf[user] : tokenB.balanceOf[user] */\n      tag_96\n      jumpi\n        /* \"Contract_Conqueror_Series/simpleSwap.sol\":2616:2622  tokenB */\n      0x06\n        /* \"Contract_Conqueror_Series/simpleSwap.sol\":2616:2632  tokenB.balanceOf */\n      0x04\n      add\n        /* \"Contract_Conqueror_Series/simpleSwap.sol\":2616:2638  tokenB.balanceOf[user] */\n      0x00\n        /* \"Contract_Conqueror_Series/simpleSwap.sol\":2633:2637  user */\n      dup4\n        /* \"Contract_Conqueror_Series/simpleSwap.sol\":2616:2638  tokenB.balanceOf[user] */\n      0xffffffffffffffffffffffffffffffffffffffff\n      and\n      0xffffffffffffffffffffffffffffffffffffffff\n      and\n      dup2\n      mstore\n      0x20\n      add\n      swap1\n      dup2\n      mstore\n      0x20\n      add\n      0x00\n      keccak256\n      sload\n        /* \"Contract_Conqueror_Series/simpleSwap.sol\":2580:2638  isTokenA ? tokenA.balanceOf[user] : tokenB.balanceOf[user] */\n      jump(tag_97)\n    tag_96:\n        /* \"Contract_Conqueror_Series/simpleSwap.sol\":2591:2597  tokenA */\n      0x00\n        /* \"Contract_Conqueror_Series/simpleSwap.sol\":2591:2607  tokenA.balanceOf */\n      0x04\n      add\n        /* \"Contract_Conqueror_Series/simpleSwap.sol\":2591:2613  tokenA.balanceOf[user] */\n      0x00\n        /* \"Contract_Conqueror_Series/simpleSwap.sol\":2608:2612  user */\n      dup4\n        /* \"Contract_Conqueror_Series/simpleSwap.sol\":2591:2613  tokenA.balanceOf[user] */\n      0xffffffffffffffffffffffffffffffffffffffff\n      and\n      0xffffffffffffffffffffffffffffffffffffffff\n      and\n      dup2\n      mstore\n      0x20\n      add\n      swap1\n      dup2\n      mstore\n      0x20\n      add\n      0x00\n      keccak256\n      sload\n        /* \"Contract_Conqueror_Series/simpleSwap.sol\":2580:2638  isTokenA ? tokenA.balanceOf[user] : tokenB.balanceOf[user] */\n    tag_97:\n        /* \"Contract_Conqueror_Series/simpleSwap.sol\":2573:2638  return isTokenA ? tokenA.balanceOf[user] : tokenB.balanceOf[user] */\n      swap1\n      pop\n        /* \"Contract_Conqueror_Series/simpleSwap.sol\":2482:2646  function balanceOf(bool isTokenA, address user) external view returns (uint256) {... */\n      swap3\n      swap2\n      pop\n      pop\n      jump\t// out\n        /* \"Contract_Conqueror_Series/simpleSwap.sol\":633:660  uint256 public exchangeRate */\n    tag_35:\n      sload(0x0d)\n      dup2\n      jump\t// out\n        /* \"Contract_Conqueror_Series/simpleSwap.sol\":3212:3642  function transfer(bool isTokenA, address to, uint256 amount) external returns (bool) {... */\n    tag_40:\n        /* \"Contract_Conqueror_Series/simpleSwap.sol\":3291:3295  bool */\n      0x00\n        /* \"Contract_Conqueror_Series/simpleSwap.sol\":3308:3327  Token storage token */\n      0x00\n        /* \"Contract_Conqueror_Series/simpleSwap.sol\":3330:3338  isTokenA */\n      dup5\n        /* \"Contract_Conqueror_Series/simpleSwap.sol\":3330:3356  isTokenA ? tokenA : tokenB */\n      tag_99\n      jumpi\n        /* \"Contract_Conqueror_Series/simpleSwap.sol\":3350:3356  tokenB */\n      0x06\n        /* \"Contract_Conqueror_Series/simpleSwap.sol\":3330:3356  isTokenA ? tokenA : tokenB */\n      jump(tag_100)\n    tag_99:\n        /* \"Contract_Conqueror_Series/simpleSwap.sol\":3341:3347  tokenA */\n      0x00\n        /* \"Contract_Conqueror_Series/simpleSwap.sol\":3330:3356  isTokenA ? tokenA : tokenB */\n    tag_100:\n        /* \"Contract_Conqueror_Series/simpleSwap.sol\":3308:3356  Token storage token = isTokenA ? tokenA : tokenB */\n      swap1\n      pop\n        /* \"Contract_Conqueror_Series/simpleSwap.sol\":3406:3412  amount */\n      dup3\n        /* \"Contract_Conqueror_Series/simpleSwap.sol\":3375:3380  token */\n      dup2\n        /* \"Contract_Conqueror_Series/simpleSwap.sol\":3375:3390  token.balanceOf */\n      0x04\n      add\n        /* \"Contract_Conqueror_Series/simpleSwap.sol\":3375:3402  token.balanceOf[msg.sender] */\n      0x00\n        /* \"Contract_Conqueror_Series/simpleSwap.sol\":3391:3401  msg.sender */\n      caller\n        /* \"Contract_Conqueror_Series/simpleSwap.sol\":3375:3402  token.balanceOf[msg.sender] */\n      0xffffffffffffffffffffffffffffffffffffffff\n      and\n      0xffffffffffffffffffffffffffffffffffffffff\n      and\n      dup2\n      mstore\n      0x20\n      add\n      swap1\n      dup2\n      mstore\n      0x20\n      add\n      0x00\n      keccak256\n      sload\n        /* \"Contract_Conqueror_Series/simpleSwap.sol\":3375:3412  token.balanceOf[msg.sender] >= amount */\n      lt\n      iszero\n        /* \"Contract_Conqueror_Series/simpleSwap.sol\":3367:3437  require(token.balanceOf[msg.sender] >= amount, \"Insufficient balance\") */\n      tag_101\n      jumpi\n      mload(0x40)\n      0x08c379a000000000000000000000000000000000000000000000000000000000\n      dup2\n      mstore\n      0x04\n      add\n      tag_102\n      swap1\n      tag_103\n      jump\t// in\n    tag_102:\n      mload(0x40)\n      dup1\n      swap2\n      sub\n      swap1\n      revert\n    tag_101:\n        /* \"Contract_Conqueror_Series/simpleSwap.sol\":3479:3485  amount */\n      dup3\n        /* \"Contract_Conqueror_Series/simpleSwap.sol\":3448:3453  token */\n      dup2\n        /* \"Contract_Conqueror_Series/simpleSwap.sol\":3448:3463  token.balanceOf */\n      0x04\n      add\n        /* \"Contract_Conqueror_Series/simpleSwap.sol\":3448:3475  token.balanceOf[msg.sender] */\n      0x00\n        /* \"Contract_Conqueror_Series/simpleSwap.sol\":3464:3474  msg.sender */\n      caller\n        /* \"Contract_Conqueror_Series/simpleSwap.sol\":3448:3475  token.balanceOf[msg.sender] */\n      0xffffffffffffffffffffffffffffffffffffffff\n      and\n      0xffffffffffffffffffffffffffffffffffffffff\n      and\n      dup2\n      mstore\n      0x20\n      add\n      swap1\n      dup2\n      mstore\n      0x20\n      add\n      0x00\n      keccak256\n      0x00\n        /* \"Contract_Conqueror_Series/simpleSwap.sol\":3448:3485  token.balanceOf[msg.sender] -= amount */\n      dup3\n      dup3\n      sload\n      tag_104\n      swap2\n      swap1\n      tag_105\n      jump\t// in\n    tag_104:\n      swap3\n      pop\n      pop\n      dup2\n      swap1\n      sstore\n      pop\n        /* \"Contract_Conqueror_Series/simpleSwap.sol\":3519:3525  amount */\n      dup3\n        /* \"Contract_Conqueror_Series/simpleSwap.sol\":3496:3501  token */\n      dup2\n        /* \"Contract_Conqueror_Series/simpleSwap.sol\":3496:3511  token.balanceOf */\n      0x04\n      add\n        /* \"Contract_Conqueror_Series/simpleSwap.sol\":3496:3515  token.balanceOf[to] */\n      0x00\n        /* \"Contract_Conqueror_Series/simpleSwap.sol\":3512:3514  to */\n      dup7\n        /* \"Contract_Conqueror_Series/simpleSwap.sol\":3496:3515  token.balanceOf[to] */\n      0xffffffffffffffffffffffffffffffffffffffff\n      and\n      0xffffffffffffffffffffffffffffffffffffffff\n      and\n      dup2\n      mstore\n      0x20\n      add\n      swap1\n      dup2\n      mstore\n      0x20\n      add\n      0x00\n      keccak256\n      0x00\n        /* \"Contract_Conqueror_Series/simpleSwap.sol\":3496:3525  token.balanceOf[to] += amount */\n      dup3\n      dup3\n      sload\n      tag_106\n      swap2\n      swap1\n      tag_107\n      jump\t// in\n    tag_106:\n      swap3\n      pop\n      pop\n      dup2\n      swap1\n      sstore\n      pop\n        /* \"Contract_Conqueror_Series/simpleSwap.sol\":3601:3603  to */\n      dup4\n        /* \"Contract_Conqueror_Series/simpleSwap.sol\":3541:3612  Transfer(isTokenA ? address(this) : address(0), msg.sender, to, amount) */\n      0xffffffffffffffffffffffffffffffffffffffff\n      and\n        /* \"Contract_Conqueror_Series/simpleSwap.sol\":3589:3599  msg.sender */\n      caller\n        /* \"Contract_Conqueror_Series/simpleSwap.sol\":3541:3612  Transfer(isTokenA ? address(this) : address(0), msg.sender, to, amount) */\n      0xffffffffffffffffffffffffffffffffffffffff\n      and\n        /* \"Contract_Conqueror_Series/simpleSwap.sol\":3550:3558  isTokenA */\n      dup7\n        /* \"Contract_Conqueror_Series/simpleSwap.sol\":3550:3587  isTokenA ? address(this) : address(0) */\n      tag_108\n      jumpi\n        /* \"Contract_Conqueror_Series/simpleSwap.sol\":3585:3586  0 */\n      0x00\n        /* \"Contract_Conqueror_Series/simpleSwap.sol\":3550:3587  isTokenA ? address(this) : address(0) */\n      jump(tag_109)\n    tag_108:\n        /* \"Contract_Conqueror_Series/simpleSwap.sol\":3569:3573  this */\n      address\n        /* \"Contract_Conqueror_Series/simpleSwap.sol\":3550:3587  isTokenA ? address(this) : address(0) */\n    tag_109:\n        /* \"Contract_Conqueror_Series/simpleSwap.sol\":3541:3612  Transfer(isTokenA ? address(this) : address(0), msg.sender, to, amount) */\n      0xffffffffffffffffffffffffffffffffffffffff\n      and\n      0xd1398bee19313d6bf672ccb116e51f4a1a947e91c757907f51fbb5b5e56c698f\n        /* \"Contract_Conqueror_Series/simpleSwap.sol\":3605:3611  amount */\n      dup7\n        /* \"Contract_Conqueror_Series/simpleSwap.sol\":3541:3612  Transfer(isTokenA ? address(this) : address(0), msg.sender, to, amount) */\n      mload(0x40)\n      tag_110\n      swap2\n      swap1\n      tag_33\n      jump\t// in\n    tag_110:\n      mload(0x40)\n      dup1\n      swap2\n      sub\n      swap1\n      log4\n        /* \"Contract_Conqueror_Series/simpleSwap.sol\":3630:3634  true */\n      0x01\n        /* \"Contract_Conqueror_Series/simpleSwap.sol\":3623:3634  return true */\n      swap2\n      pop\n      pop\n        /* \"Contract_Conqueror_Series/simpleSwap.sol\":3212:3642  function transfer(bool isTokenA, address to, uint256 amount) external returns (bool) {... */\n      swap4\n      swap3\n      pop\n      pop\n      pop\n      jump\t// out\n        /* \"Contract_Conqueror_Series/simpleSwap.sol\":1909:2038  function name(bool isTokenA) external view returns (string memory) {... */\n    tag_45:\n        /* \"Contract_Conqueror_Series/simpleSwap.sol\":1961:1974  string memory */\n      0x60\n        /* \"Contract_Conqueror_Series/simpleSwap.sol\":1994:2002  isTokenA */\n      dup2\n        /* \"Contract_Conqueror_Series/simpleSwap.sol\":1994:2030  isTokenA ? tokenA.name : tokenB.name */\n      tag_112\n      jumpi\n        /* \"Contract_Conqueror_Series/simpleSwap.sol\":2019:2025  tokenB */\n      0x06\n        /* \"Contract_Conqueror_Series/simpleSwap.sol\":2019:2030  tokenB.name */\n      0x00\n      add\n        /* \"Contract_Conqueror_Series/simpleSwap.sol\":1994:2030  isTokenA ? tokenA.name : tokenB.name */\n      jump(tag_113)\n    tag_112:\n        /* \"Contract_Conqueror_Series/simpleSwap.sol\":2005:2011  tokenA */\n      0x00\n        /* \"Contract_Conqueror_Series/simpleSwap.sol\":2005:2016  tokenA.name */\n      0x00\n      add\n        /* \"Contract_Conqueror_Series/simpleSwap.sol\":1994:2030  isTokenA ? tokenA.name : tokenB.name */\n    tag_113:\n        /* \"Contract_Conqueror_Series/simpleSwap.sol\":1987:2030  return isTokenA ? tokenA.name : tokenB.name */\n      dup1\n      sload\n      tag_114\n      swap1\n      tag_115\n      jump\t// in\n    tag_114:\n      dup1\n      0x1f\n      add\n      0x20\n      dup1\n      swap2\n      div\n      mul\n      0x20\n      add\n      mload(0x40)\n      swap1\n      dup2\n      add\n      0x40\n      mstore\n      dup1\n      swap3\n      swap2\n      swap1\n      dup2\n      dup2\n      mstore\n      0x20\n      add\n      dup3\n      dup1\n      sload\n      tag_116\n      swap1\n      tag_115\n      jump\t// in\n    tag_116:\n      dup1\n      iszero\n      tag_117\n      jumpi\n      dup1\n      0x1f\n      lt\n      tag_118\n      jumpi\n      0x0100\n      dup1\n      dup4\n      sload\n      div\n      mul\n      dup4\n      mstore\n      swap2\n      0x20\n      add\n      swap2\n      jump(tag_117)\n    tag_118:\n      dup3\n      add\n      swap2\n      swap1\n      0x00\n      mstore\n      keccak256(0x00, 0x20)\n      swap1\n    tag_119:\n      dup2\n      sload\n      dup2\n      mstore\n      swap1\n      0x01\n      add\n      swap1\n      0x20\n      add\n      dup1\n      dup4\n      gt\n      tag_119\n      jumpi\n      dup3\n      swap1\n      sub\n      0x1f\n      and\n      dup3\n      add\n      swap2\n    tag_117:\n      pop\n      pop\n      pop\n      pop\n      pop\n      swap1\n      pop\n        /* \"Contract_Conqueror_Series/simpleSwap.sol\":1909:2038  function name(bool isTokenA) external view returns (string memory) {... */\n      swap2\n      swap1\n      pop\n      jump\t// out\n        /* \"Contract_Conqueror_Series/simpleSwap.sol\":2654:2980  function approve(bool isTokenA, address spender, uint256 amount) external returns (bool) {... */\n    tag_50:\n        /* \"Contract_Conqueror_Series/simpleSwap.sol\":2737:2741  bool */\n      0x00\n        /* \"Contract_Conqueror_Series/simpleSwap.sol\":2754:2773  Token storage token */\n      0x00\n        /* \"Contract_Conqueror_Series/simpleSwap.sol\":2776:2784  isTokenA */\n      dup5\n        /* \"Contract_Conqueror_Series/simpleSwap.sol\":2776:2802  isTokenA ? tokenA : tokenB */\n      tag_121\n      jumpi\n        /* \"Contract_Conqueror_Series/simpleSwap.sol\":2796:2802  tokenB */\n      0x06\n        /* \"Contract_Conqueror_Series/simpleSwap.sol\":2776:2802  isTokenA ? tokenA : tokenB */\n      jump(tag_122)\n    tag_121:\n        /* \"Contract_Conqueror_Series/simpleSwap.sol\":2787:2793  tokenA */\n      0x00\n        /* \"Contract_Conqueror_Series/simpleSwap.sol\":2776:2802  isTokenA ? tokenA : tokenB */\n    tag_122:\n        /* \"Contract_Conqueror_Series/simpleSwap.sol\":2754:2802  Token storage token = isTokenA ? tokenA : tokenB */\n      swap1\n      pop\n        /* \"Contract_Conqueror_Series/simpleSwap.sol\":2852:2858  amount */\n      dup3\n        /* \"Contract_Conqueror_Series/simpleSwap.sol\":2813:2818  token */\n      dup2\n        /* \"Contract_Conqueror_Series/simpleSwap.sol\":2813:2828  token.allowance */\n      0x05\n      add\n        /* \"Contract_Conqueror_Series/simpleSwap.sol\":2813:2840  token.allowance[msg.sender] */\n      0x00\n        /* \"Contract_Conqueror_Series/simpleSwap.sol\":2829:2839  msg.sender */\n      caller\n        /* \"Contract_Conqueror_Series/simpleSwap.sol\":2813:2840  token.allowance[msg.sender] */\n      0xffffffffffffffffffffffffffffffffffffffff\n      and\n      0xffffffffffffffffffffffffffffffffffffffff\n      and\n      dup2\n      mstore\n      0x20\n      add\n      swap1\n      dup2\n      mstore\n      0x20\n      add\n      0x00\n      keccak256\n        /* \"Contract_Conqueror_Series/simpleSwap.sol\":2813:2849  token.allowance[msg.sender][spender] */\n      0x00\n        /* \"Contract_Conqueror_Series/simpleSwap.sol\":2841:2848  spender */\n      dup7\n        /* \"Contract_Conqueror_Series/simpleSwap.sol\":2813:2849  token.allowance[msg.sender][spender] */\n      0xffffffffffffffffffffffffffffffffffffffff\n      and\n      0xffffffffffffffffffffffffffffffffffffffff\n      and\n      dup2\n      mstore\n      0x20\n      add\n      swap1\n      dup2\n      mstore\n      0x20\n      add\n      0x00\n      keccak256\n        /* \"Contract_Conqueror_Series/simpleSwap.sol\":2813:2858  token.allowance[msg.sender][spender] = amount */\n      dup2\n      swap1\n      sstore\n      pop\n        /* \"Contract_Conqueror_Series/simpleSwap.sol\":2934:2941  spender */\n      dup4\n        /* \"Contract_Conqueror_Series/simpleSwap.sol\":2874:2950  Approval(isTokenA ? address(this) : address(0), msg.sender, spender, amount) */\n      0xffffffffffffffffffffffffffffffffffffffff\n      and\n        /* \"Contract_Conqueror_Series/simpleSwap.sol\":2922:2932  msg.sender */\n      caller\n        /* \"Contract_Conqueror_Series/simpleSwap.sol\":2874:2950  Approval(isTokenA ? address(this) : address(0), msg.sender, spender, amount) */\n      0xffffffffffffffffffffffffffffffffffffffff\n      and\n        /* \"Contract_Conqueror_Series/simpleSwap.sol\":2883:2891  isTokenA */\n      dup7\n        /* \"Contract_Conqueror_Series/simpleSwap.sol\":2883:2920  isTokenA ? address(this) : address(0) */\n      tag_123\n      jumpi\n        /* \"Contract_Conqueror_Series/simpleSwap.sol\":2918:2919  0 */\n      0x00\n        /* \"Contract_Conqueror_Series/simpleSwap.sol\":2883:2920  isTokenA ? address(this) : address(0) */\n      jump(tag_124)\n    tag_123:\n        /* \"Contract_Conqueror_Series/simpleSwap.sol\":2902:2906  this */\n      address\n        /* \"Contract_Conqueror_Series/simpleSwap.sol\":2883:2920  isTokenA ? address(this) : address(0) */\n    tag_124:\n        /* \"Contract_Conqueror_Series/simpleSwap.sol\":2874:2950  Approval(isTokenA ? address(this) : address(0), msg.sender, spender, amount) */\n      0xffffffffffffffffffffffffffffffffffffffff\n      and\n      0xa0175360a15bca328baf7ea85c7b784d58b222a50d0ce760b10dba336d226a61\n        /* \"Contract_Conqueror_Series/simpleSwap.sol\":2943:2949  amount */\n      dup7\n        /* \"Contract_Conqueror_Series/simpleSwap.sol\":2874:2950  Approval(isTokenA ? address(this) : address(0), msg.sender, spender, amount) */\n      mload(0x40)\n      tag_125\n      swap2\n      swap1\n      tag_33\n      jump\t// in\n    tag_125:\n      mload(0x40)\n      dup1\n      swap2\n      sub\n      swap1\n      log4\n        /* \"Contract_Conqueror_Series/simpleSwap.sol\":2968:2972  true */\n      0x01\n        /* \"Contract_Conqueror_Series/simpleSwap.sol\":2961:2972  return true */\n      swap2\n      pop\n      pop\n        /* \"Contract_Conqueror_Series/simpleSwap.sol\":2654:2980  function approve(bool isTokenA, address spender, uint256 amount) external returns (bool) {... */\n      swap4\n      swap3\n      pop\n      pop\n      pop\n      jump\t// out\n        /* \"Contract_Conqueror_Series/simpleSwap.sol\":2330:2474  function totalSupply(bool isTokenA) external view returns (uint256) {... */\n    tag_54:\n        /* \"Contract_Conqueror_Series/simpleSwap.sol\":2389:2396  uint256 */\n      0x00\n        /* \"Contract_Conqueror_Series/simpleSwap.sol\":2416:2424  isTokenA */\n      dup2\n        /* \"Contract_Conqueror_Series/simpleSwap.sol\":2416:2466  isTokenA ? tokenA.totalSupply : tokenB.totalSupply */\n      tag_127\n      jumpi\n        /* \"Contract_Conqueror_Series/simpleSwap.sol\":2448:2454  tokenB */\n      0x06\n        /* \"Contract_Conqueror_Series/simpleSwap.sol\":2448:2466  tokenB.totalSupply */\n      0x03\n      add\n      sload\n        /* \"Contract_Conqueror_Series/simpleSwap.sol\":2416:2466  isTokenA ? tokenA.totalSupply : tokenB.totalSupply */\n      jump(tag_128)\n    tag_127:\n        /* \"Contract_Conqueror_Series/simpleSwap.sol\":2427:2433  tokenA */\n      0x00\n        /* \"Contract_Conqueror_Series/simpleSwap.sol\":2427:2445  tokenA.totalSupply */\n      0x03\n      add\n      sload\n        /* \"Contract_Conqueror_Series/simpleSwap.sol\":2416:2466  isTokenA ? tokenA.totalSupply : tokenB.totalSupply */\n    tag_128:\n        /* \"Contract_Conqueror_Series/simpleSwap.sol\":2409:2466  return isTokenA ? tokenA.totalSupply : tokenB.totalSupply */\n      swap1\n      pop\n        /* \"Contract_Conqueror_Series/simpleSwap.sol\":2330:2474  function totalSupply(bool isTokenA) external view returns (uint256) {... */\n      swap2\n      swap1\n      pop\n      jump\t// out\n        /* \"Contract_Conqueror_Series/simpleSwap.sol\":3650:4212  function transferFrom(bool isTokenA, address from, address to, uint256 amount) external returns (bool) {... */\n    tag_59:\n        /* \"Contract_Conqueror_Series/simpleSwap.sol\":3747:3751  bool */\n      0x00\n        /* \"Contract_Conqueror_Series/simpleSwap.sol\":3764:3783  Token storage token */\n      0x00\n        /* \"Contract_Conqueror_Series/simpleSwap.sol\":3786:3794  isTokenA */\n      dup6\n        /* \"Contract_Conqueror_Series/simpleSwap.sol\":3786:3812  isTokenA ? tokenA : tokenB */\n      tag_130\n      jumpi\n        /* \"Contract_Conqueror_Series/simpleSwap.sol\":3806:3812  tokenB */\n      0x06\n        /* \"Contract_Conqueror_Series/simpleSwap.sol\":3786:3812  isTokenA ? tokenA : tokenB */\n      jump(tag_131)\n    tag_130:\n        /* \"Contract_Conqueror_Series/simpleSwap.sol\":3797:3803  tokenA */\n      0x00\n        /* \"Contract_Conqueror_Series/simpleSwap.sol\":3786:3812  isTokenA ? tokenA : tokenB */\n    tag_131:\n        /* \"Contract_Conqueror_Series/simpleSwap.sol\":3764:3812  Token storage token = isTokenA ? tokenA : tokenB */\n      swap1\n      pop\n        /* \"Contract_Conqueror_Series/simpleSwap.sol\":3856:3862  amount */\n      dup3\n        /* \"Contract_Conqueror_Series/simpleSwap.sol\":3831:3836  token */\n      dup2\n        /* \"Contract_Conqueror_Series/simpleSwap.sol\":3831:3846  token.balanceOf */\n      0x04\n      add\n        /* \"Contract_Conqueror_Series/simpleSwap.sol\":3831:3852  token.balanceOf[from] */\n      0x00\n        /* \"Contract_Conqueror_Series/simpleSwap.sol\":3847:3851  from */\n      dup8\n        /* \"Contract_Conqueror_Series/simpleSwap.sol\":3831:3852  token.balanceOf[from] */\n      0xffffffffffffffffffffffffffffffffffffffff\n      and\n      0xffffffffffffffffffffffffffffffffffffffff\n      and\n      dup2\n      mstore\n      0x20\n      add\n      swap1\n      dup2\n      mstore\n      0x20\n      add\n      0x00\n      keccak256\n      sload\n        /* \"Contract_Conqueror_Series/simpleSwap.sol\":3831:3862  token.balanceOf[from] >= amount */\n      lt\n      iszero\n        /* \"Contract_Conqueror_Series/simpleSwap.sol\":3823:3887  require(token.balanceOf[from] >= amount, \"Insufficient balance\") */\n      tag_132\n      jumpi\n      mload(0x40)\n      0x08c379a000000000000000000000000000000000000000000000000000000000\n      dup2\n      mstore\n      0x04\n      add\n      tag_133\n      swap1\n      tag_103\n      jump\t// in\n    tag_133:\n      mload(0x40)\n      dup1\n      swap2\n      sub\n      swap1\n      revert\n    tag_132:\n        /* \"Contract_Conqueror_Series/simpleSwap.sol\":3943:3949  amount */\n      dup3\n        /* \"Contract_Conqueror_Series/simpleSwap.sol\":3906:3911  token */\n      dup2\n        /* \"Contract_Conqueror_Series/simpleSwap.sol\":3906:3921  token.allowance */\n      0x05\n      add\n        /* \"Contract_Conqueror_Series/simpleSwap.sol\":3906:3927  token.allowance[from] */\n      0x00\n        /* \"Contract_Conqueror_Series/simpleSwap.sol\":3922:3926  from */\n      dup8\n        /* \"Contract_Conqueror_Series/simpleSwap.sol\":3906:3927  token.allowance[from] */\n      0xffffffffffffffffffffffffffffffffffffffff\n      and\n      0xffffffffffffffffffffffffffffffffffffffff\n      and\n      dup2\n      mstore\n      0x20\n      add\n      swap1\n      dup2\n      mstore\n      0x20\n      add\n      0x00\n      keccak256\n        /* \"Contract_Conqueror_Series/simpleSwap.sol\":3906:3939  token.allowance[from][msg.sender] */\n      0x00\n        /* \"Contract_Conqueror_Series/simpleSwap.sol\":3928:3938  msg.sender */\n      caller\n        /* \"Contract_Conqueror_Series/simpleSwap.sol\":3906:3939  token.allowance[from][msg.sender] */\n      0xffffffffffffffffffffffffffffffffffffffff\n      and\n      0xffffffffffffffffffffffffffffffffffffffff\n      and\n      dup2\n      mstore\n      0x20\n      add\n      swap1\n      dup2\n      mstore\n      0x20\n      add\n      0x00\n      keccak256\n      sload\n        /* \"Contract_Conqueror_Series/simpleSwap.sol\":3906:3949  token.allowance[from][msg.sender] >= amount */\n      lt\n      iszero\n        /* \"Contract_Conqueror_Series/simpleSwap.sol\":3898:3965  require(token.allowance[from][msg.sender] >= amount, \"Not allowed\") */\n      tag_134\n      jumpi\n      mload(0x40)\n      0x08c379a000000000000000000000000000000000000000000000000000000000\n      dup2\n      mstore\n      0x04\n      add\n      tag_135\n      swap1\n      tag_136\n      jump\t// in\n    tag_135:\n      mload(0x40)\n      dup1\n      swap2\n      sub\n      swap1\n      revert\n    tag_134:\n        /* \"Contract_Conqueror_Series/simpleSwap.sol\":4013:4019  amount */\n      dup3\n        /* \"Contract_Conqueror_Series/simpleSwap.sol\":3976:3981  token */\n      dup2\n        /* \"Contract_Conqueror_Series/simpleSwap.sol\":3976:3991  token.allowance */\n      0x05\n      add\n        /* \"Contract_Conqueror_Series/simpleSwap.sol\":3976:3997  token.allowance[from] */\n      0x00\n        /* \"Contract_Conqueror_Series/simpleSwap.sol\":3992:3996  from */\n      dup8\n        /* \"Contract_Conqueror_Series/simpleSwap.sol\":3976:3997  token.allowance[from] */\n      0xffffffffffffffffffffffffffffffffffffffff\n      and\n      0xffffffffffffffffffffffffffffffffffffffff\n      and\n      dup2\n      mstore\n      0x20\n      add\n      swap1\n      dup2\n      mstore\n      0x20\n      add\n      0x00\n      keccak256\n        /* \"Contract_Conqueror_Series/simpleSwap.sol\":3976:4009  token.allowance[from][msg.sender] */\n      0x00\n        /* \"Contract_Conqueror_Series/simpleSwap.sol\":3998:4008  msg.sender */\n      caller\n        /* \"Contract_Conqueror_Series/simpleSwap.sol\":3976:4009  token.allowance[from][msg.sender] */\n      0xffffffffffffffffffffffffffffffffffffffff\n      and\n      0xffffffffffffffffffffffffffffffffffffffff\n      and\n      dup2\n      mstore\n      0x20\n      add\n      swap1\n      dup2\n      mstore\n      0x20\n      add\n      0x00\n      keccak256\n      0x00\n        /* \"Contract_Conqueror_Series/simpleSwap.sol\":3976:4019  token.allowance[from][msg.sender] -= amount */\n      dup3\n      dup3\n      sload\n      tag_137\n      swap2\n      swap1\n      tag_105\n      jump\t// in\n    tag_137:\n      swap3\n      pop\n      pop\n      dup2\n      swap1\n      sstore\n      pop\n        /* \"Contract_Conqueror_Series/simpleSwap.sol\":4055:4061  amount */\n      dup3\n        /* \"Contract_Conqueror_Series/simpleSwap.sol\":4030:4035  token */\n      dup2\n        /* \"Contract_Conqueror_Series/simpleSwap.sol\":4030:4045  token.balanceOf */\n      0x04\n      add\n        /* \"Contract_Conqueror_Series/simpleSwap.sol\":4030:4051  token.balanceOf[from] */\n      0x00\n        /* \"Contract_Conqueror_Series/simpleSwap.sol\":4046:4050  from */\n      dup8\n        /* \"Contract_Conqueror_Series/simpleSwap.sol\":4030:4051  token.balanceOf[from] */\n      0xffffffffffffffffffffffffffffffffffffffff\n      and\n      0xffffffffffffffffffffffffffffffffffffffff\n      and\n      dup2\n      mstore\n      0x20\n      add\n      swap1\n      dup2\n      mstore\n      0x20\n      add\n      0x00\n      keccak256\n      0x00\n        /* \"Contract_Conqueror_Series/simpleSwap.sol\":4030:4061  token.balanceOf[from] -= amount */\n      dup3\n      dup3\n      sload\n      tag_138\n      swap2\n      swap1\n      tag_105\n      jump\t// in\n    tag_138:\n      swap3\n      pop\n      pop\n      dup2\n      swap1\n      sstore\n      pop\n        /* \"Contract_Conqueror_Series/simpleSwap.sol\":4095:4101  amount */\n      dup3\n        /* \"Contract_Conqueror_Series/simpleSwap.sol\":4072:4077  token */\n      dup2\n        /* \"Contract_Conqueror_Series/simpleSwap.sol\":4072:4087  token.balanceOf */\n      0x04\n      add\n        /* \"Contract_Conqueror_Series/simpleSwap.sol\":4072:4091  token.balanceOf[to] */\n      0x00\n        /* \"Contract_Conqueror_Series/simpleSwap.sol\":4088:4090  to */\n      dup7\n        /* \"Contract_Conqueror_Series/simpleSwap.sol\":4072:4091  token.balanceOf[to] */\n      0xffffffffffffffffffffffffffffffffffffffff\n      and\n      0xffffffffffffffffffffffffffffffffffffffff\n      and\n      dup2\n      mstore\n      0x20\n      add\n      swap1\n      dup2\n      mstore\n      0x20\n      add\n      0x00\n      keccak256\n      0x00\n        /* \"Contract_Conqueror_Series/simpleSwap.sol\":4072:4101  token.balanceOf[to] += amount */\n      dup3\n      dup3\n      sload\n      tag_139\n      swap2\n      swap1\n      tag_107\n      jump\t// in\n    tag_139:\n      swap3\n      pop\n      pop\n      dup2\n      swap1\n      sstore\n      pop\n        /* \"Contract_Conqueror_Series/simpleSwap.sol\":4171:4173  to */\n      dup4\n        /* \"Contract_Conqueror_Series/simpleSwap.sol\":4117:4182  Transfer(isTokenA ? address(this) : address(0), from, to, amount) */\n      0xffffffffffffffffffffffffffffffffffffffff\n      and\n        /* \"Contract_Conqueror_Series/simpleSwap.sol\":4165:4169  from */\n      dup6\n        /* \"Contract_Conqueror_Series/simpleSwap.sol\":4117:4182  Transfer(isTokenA ? address(this) : address(0), from, to, amount) */\n      0xffffffffffffffffffffffffffffffffffffffff\n      and\n        /* \"Contract_Conqueror_Series/simpleSwap.sol\":4126:4134  isTokenA */\n      dup8\n        /* \"Contract_Conqueror_Series/simpleSwap.sol\":4126:4163  isTokenA ? address(this) : address(0) */\n      tag_140\n      jumpi\n        /* \"Contract_Conqueror_Series/simpleSwap.sol\":4161:4162  0 */\n      0x00\n        /* \"Contract_Conqueror_Series/simpleSwap.sol\":4126:4163  isTokenA ? address(this) : address(0) */\n      jump(tag_141)\n    tag_140:\n        /* \"Contract_Conqueror_Series/simpleSwap.sol\":4145:4149  this */\n      address\n        /* \"Contract_Conqueror_Series/simpleSwap.sol\":4126:4163  isTokenA ? address(this) : address(0) */\n    tag_141:\n        /* \"Contract_Conqueror_Series/simpleSwap.sol\":4117:4182  Transfer(isTokenA ? address(this) : address(0), from, to, amount) */\n      0xffffffffffffffffffffffffffffffffffffffff\n      and\n      0xd1398bee19313d6bf672ccb116e51f4a1a947e91c757907f51fbb5b5e56c698f\n        /* \"Contract_Conqueror_Series/simpleSwap.sol\":4175:4181  amount */\n      dup7\n        /* \"Contract_Conqueror_Series/simpleSwap.sol\":4117:4182  Transfer(isTokenA ? address(this) : address(0), from, to, amount) */\n      mload(0x40)\n      tag_142\n      swap2\n      swap1\n      tag_33\n      jump\t// in\n    tag_142:\n      mload(0x40)\n      dup1\n      swap2\n      sub\n      swap1\n      log4\n        /* \"Contract_Conqueror_Series/simpleSwap.sol\":4200:4204  true */\n      0x01\n        /* \"Contract_Conqueror_Series/simpleSwap.sol\":4193:4204  return true */\n      swap2\n      pop\n      pop\n        /* \"Contract_Conqueror_Series/simpleSwap.sol\":3650:4212  function transferFrom(bool isTokenA, address from, address to, uint256 amount) external returns (bool) {... */\n      swap5\n      swap4\n      pop\n      pop\n      pop\n      pop\n      jump\t// out\n        /* \"Contract_Conqueror_Series/simpleSwap.sol\":606:626  address public owner */\n    tag_62:\n      0x0c\n      0x00\n      swap1\n      sload\n      swap1\n      0x0100\n      exp\n      swap1\n      div\n      0xffffffffffffffffffffffffffffffffffffffff\n      and\n      dup2\n      jump\t// out\n        /* \"Contract_Conqueror_Series/simpleSwap.sol\":4775:5627  function swap(uint256 amountIn) external {... */\n    tag_68:\n        /* \"Contract_Conqueror_Series/simpleSwap.sol\":4846:4847  0 */\n      0x00\n        /* \"Contract_Conqueror_Series/simpleSwap.sol\":4835:4843  amountIn */\n      dup2\n        /* \"Contract_Conqueror_Series/simpleSwap.sol\":4835:4847  amountIn > 0 */\n      gt\n        /* \"Contract_Conqueror_Series/simpleSwap.sol\":4827:4862  require(amountIn > 0, \"Zero input\") */\n      tag_144\n      jumpi\n      mload(0x40)\n      0x08c379a000000000000000000000000000000000000000000000000000000000\n      dup2\n      mstore\n      0x04\n      add\n      tag_145\n      swap1\n      tag_146\n      jump\t// in\n    tag_145:\n      mload(0x40)\n      dup1\n      swap2\n      sub\n      swap1\n      revert\n    tag_144:\n        /* \"Contract_Conqueror_Series/simpleSwap.sol\":4955:4963  amountIn */\n      dup1\n        /* \"Contract_Conqueror_Series/simpleSwap.sol\":4923:4929  tokenA */\n      0x00\n        /* \"Contract_Conqueror_Series/simpleSwap.sol\":4923:4939  tokenA.balanceOf */\n      0x04\n      add\n        /* \"Contract_Conqueror_Series/simpleSwap.sol\":4923:4951  tokenA.balanceOf[msg.sender] */\n      0x00\n        /* \"Contract_Conqueror_Series/simpleSwap.sol\":4940:4950  msg.sender */\n      caller\n        /* \"Contract_Conqueror_Series/simpleSwap.sol\":4923:4951  tokenA.balanceOf[msg.sender] */\n      0xffffffffffffffffffffffffffffffffffffffff\n      and\n      0xffffffffffffffffffffffffffffffffffffffff\n      and\n      dup2\n      mstore\n      0x20\n      add\n      swap1\n      dup2\n      mstore\n      0x20\n      add\n      0x00\n      keccak256\n      sload\n        /* \"Contract_Conqueror_Series/simpleSwap.sol\":4923:4963  tokenA.balanceOf[msg.sender] >= amountIn */\n      lt\n      iszero\n        /* \"Contract_Conqueror_Series/simpleSwap.sol\":4915:4987  require(tokenA.balanceOf[msg.sender] >= amountIn, \"Insufficient TokenA\") */\n      tag_147\n      jumpi\n      mload(0x40)\n      0x08c379a000000000000000000000000000000000000000000000000000000000\n      dup2\n      mstore\n      0x04\n      add\n      tag_148\n      swap1\n      tag_149\n      jump\t// in\n    tag_148:\n      mload(0x40)\n      dup1\n      swap2\n      sub\n      swap1\n      revert\n    tag_147:\n        /* \"Contract_Conqueror_Series/simpleSwap.sol\":5053:5061  amountIn */\n      dup1\n        /* \"Contract_Conqueror_Series/simpleSwap.sol\":5006:5012  tokenA */\n      0x00\n        /* \"Contract_Conqueror_Series/simpleSwap.sol\":5006:5022  tokenA.allowance */\n      0x05\n      add\n        /* \"Contract_Conqueror_Series/simpleSwap.sol\":5006:5034  tokenA.allowance[msg.sender] */\n      0x00\n        /* \"Contract_Conqueror_Series/simpleSwap.sol\":5023:5033  msg.sender */\n      caller\n        /* \"Contract_Conqueror_Series/simpleSwap.sol\":5006:5034  tokenA.allowance[msg.sender] */\n      0xffffffffffffffffffffffffffffffffffffffff\n      and\n      0xffffffffffffffffffffffffffffffffffffffff\n      and\n      dup2\n      mstore\n      0x20\n      add\n      swap1\n      dup2\n      mstore\n      0x20\n      add\n      0x00\n      keccak256\n        /* \"Contract_Conqueror_Series/simpleSwap.sol\":5006:5049  tokenA.allowance[msg.sender][address(this)] */\n      0x00\n        /* \"Contract_Conqueror_Series/simpleSwap.sol\":5043:5047  this */\n      address\n        /* \"Contract_Conqueror_Series/simpleSwap.sol\":5006:5049  tokenA.allowance[msg.sender][address(this)] */\n      0xffffffffffffffffffffffffffffffffffffffff\n      and\n      0xffffffffffffffffffffffffffffffffffffffff\n      and\n      dup2\n      mstore\n      0x20\n      add\n      swap1\n      dup2\n      mstore\n      0x20\n      add\n      0x00\n      keccak256\n      sload\n        /* \"Contract_Conqueror_Series/simpleSwap.sol\":5006:5061  tokenA.allowance[msg.sender][address(this)] >= amountIn */\n      lt\n      iszero\n        /* \"Contract_Conqueror_Series/simpleSwap.sol\":4998:5085  require(tokenA.allowance[msg.sender][address(this)] >= amountIn, \"TokenA not approved\") */\n      tag_150\n      jumpi\n      mload(0x40)\n      0x08c379a000000000000000000000000000000000000000000000000000000000\n      dup2\n      mstore\n      0x04\n      add\n      tag_151\n      swap1\n      tag_152\n      jump\t// in\n    tag_151:\n      mload(0x40)\n      dup1\n      swap2\n      sub\n      swap1\n      revert\n    tag_150:\n        /* \"Contract_Conqueror_Series/simpleSwap.sol\":5098:5115  uint256 amountOut */\n      0x00\n        /* \"Contract_Conqueror_Series/simpleSwap.sol\":5146:5150  1e18 */\n      0x0de0b6b3a7640000\n        /* \"Contract_Conqueror_Series/simpleSwap.sol\":5130:5142  exchangeRate */\n      sload(0x0d)\n        /* \"Contract_Conqueror_Series/simpleSwap.sol\":5119:5127  amountIn */\n      dup4\n        /* \"Contract_Conqueror_Series/simpleSwap.sol\":5119:5142  amountIn * exchangeRate */\n      tag_153\n      swap2\n      swap1\n      tag_154\n      jump\t// in\n    tag_153:\n        /* \"Contract_Conqueror_Series/simpleSwap.sol\":5118:5150  (amountIn * exchangeRate) / 1e18 */\n      tag_155\n      swap2\n      swap1\n      tag_156\n      jump\t// in\n    tag_155:\n        /* \"Contract_Conqueror_Series/simpleSwap.sol\":5098:5150  uint256 amountOut = (amountIn * exchangeRate) / 1e18 */\n      swap1\n      pop\n        /* \"Contract_Conqueror_Series/simpleSwap.sol\":5204:5213  amountOut */\n      dup1\n        /* \"Contract_Conqueror_Series/simpleSwap.sol\":5169:5175  tokenB */\n      0x06\n        /* \"Contract_Conqueror_Series/simpleSwap.sol\":5169:5185  tokenB.balanceOf */\n      0x04\n      add\n        /* \"Contract_Conqueror_Series/simpleSwap.sol\":5169:5200  tokenB.balanceOf[address(this)] */\n      0x00\n        /* \"Contract_Conqueror_Series/simpleSwap.sol\":5194:5198  this */\n      address\n        /* \"Contract_Conqueror_Series/simpleSwap.sol\":5169:5200  tokenB.balanceOf[address(this)] */\n      0xffffffffffffffffffffffffffffffffffffffff\n      and\n      0xffffffffffffffffffffffffffffffffffffffff\n      and\n      dup2\n      mstore\n      0x20\n      add\n      swap1\n      dup2\n      mstore\n      0x20\n      add\n      0x00\n      keccak256\n      sload\n        /* \"Contract_Conqueror_Series/simpleSwap.sol\":5169:5213  tokenB.balanceOf[address(this)] >= amountOut */\n      lt\n      iszero\n        /* \"Contract_Conqueror_Series/simpleSwap.sol\":5161:5249  require(tokenB.balanceOf[address(this)] >= amountOut, \"Insufficient TokenB in contract\") */\n      tag_157\n      jumpi\n      mload(0x40)\n      0x08c379a000000000000000000000000000000000000000000000000000000000\n      dup2\n      mstore\n      0x04\n      add\n      tag_158\n      swap1\n      tag_159\n      jump\t// in\n    tag_158:\n      mload(0x40)\n      dup1\n      swap2\n      sub\n      swap1\n      revert\n    tag_157:\n        /* \"Contract_Conqueror_Series/simpleSwap.sol\":5319:5327  amountIn */\n      dup2\n        /* \"Contract_Conqueror_Series/simpleSwap.sol\":5287:5293  tokenA */\n      0x00\n        /* \"Contract_Conqueror_Series/simpleSwap.sol\":5287:5303  tokenA.balanceOf */\n      0x04\n      add\n        /* \"Contract_Conqueror_Series/simpleSwap.sol\":5287:5315  tokenA.balanceOf[msg.sender] */\n      0x00\n        /* \"Contract_Conqueror_Series/simpleSwap.sol\":5304:5314  msg.sender */\n      caller\n        /* \"Contract_Conqueror_Series/simpleSwap.sol\":5287:5315  tokenA.balanceOf[msg.sender] */\n      0xffffffffffffffffffffffffffffffffffffffff\n      and\n      0xffffffffffffffffffffffffffffffffffffffff\n      and\n      dup2\n      mstore\n      0x20\n      add\n      swap1\n      dup2\n      mstore\n      0x20\n      add\n      0x00\n      keccak256\n      0x00\n        /* \"Contract_Conqueror_Series/simpleSwap.sol\":5287:5327  tokenA.balanceOf[msg.sender] -= amountIn */\n      dup3\n      dup3\n      sload\n      tag_160\n      swap2\n      swap1\n      tag_105\n      jump\t// in\n    tag_160:\n      swap3\n      pop\n      pop\n      dup2\n      swap1\n      sstore\n      pop\n        /* \"Contract_Conqueror_Series/simpleSwap.sol\":5385:5393  amountIn */\n      dup2\n        /* \"Contract_Conqueror_Series/simpleSwap.sol\":5338:5344  tokenA */\n      0x00\n        /* \"Contract_Conqueror_Series/simpleSwap.sol\":5338:5354  tokenA.allowance */\n      0x05\n      add\n        /* \"Contract_Conqueror_Series/simpleSwap.sol\":5338:5366  tokenA.allowance[msg.sender] */\n      0x00\n        /* \"Contract_Conqueror_Series/simpleSwap.sol\":5355:5365  msg.sender */\n      caller\n        /* \"Contract_Conqueror_Series/simpleSwap.sol\":5338:5366  tokenA.allowance[msg.sender] */\n      0xffffffffffffffffffffffffffffffffffffffff\n      and\n      0xffffffffffffffffffffffffffffffffffffffff\n      and\n      dup2\n      mstore\n      0x20\n      add\n      swap1\n      dup2\n      mstore\n      0x20\n      add\n      0x00\n      keccak256\n        /* \"Contract_Conqueror_Series/simpleSwap.sol\":5338:5381  tokenA.allowance[msg.sender][address(this)] */\n      0x00\n        /* \"Contract_Conqueror_Series/simpleSwap.sol\":5375:5379  this */\n      address\n        /* \"Contract_Conqueror_Series/simpleSwap.sol\":5338:5381  tokenA.allowance[msg.sender][address(this)] */\n      0xffffffffffffffffffffffffffffffffffffffff\n      and\n      0xffffffffffffffffffffffffffffffffffffffff\n      and\n      dup2\n      mstore\n      0x20\n      add\n      swap1\n      dup2\n      mstore\n      0x20\n      add\n      0x00\n      keccak256\n      0x00\n        /* \"Contract_Conqueror_Series/simpleSwap.sol\":5338:5393  tokenA.allowance[msg.sender][address(this)] -= amountIn */\n      dup3\n      dup3\n      sload\n      tag_161\n      swap2\n      swap1\n      tag_105\n      jump\t// in\n    tag_161:\n      swap3\n      pop\n      pop\n      dup2\n      swap1\n      sstore\n      pop\n        /* \"Contract_Conqueror_Series/simpleSwap.sol\":5439:5447  amountIn */\n      dup2\n        /* \"Contract_Conqueror_Series/simpleSwap.sol\":5404:5410  tokenA */\n      0x00\n        /* \"Contract_Conqueror_Series/simpleSwap.sol\":5404:5420  tokenA.balanceOf */\n      0x04\n      add\n        /* \"Contract_Conqueror_Series/simpleSwap.sol\":5404:5435  tokenA.balanceOf[address(this)] */\n      0x00\n        /* \"Contract_Conqueror_Series/simpleSwap.sol\":5429:5433  this */\n      address\n        /* \"Contract_Conqueror_Series/simpleSwap.sol\":5404:5435  tokenA.balanceOf[address(this)] */\n      0xffffffffffffffffffffffffffffffffffffffff\n      and\n      0xffffffffffffffffffffffffffffffffffffffff\n      and\n      dup2\n      mstore\n      0x20\n      add\n      swap1\n      dup2\n      mstore\n      0x20\n      add\n      0x00\n      keccak256\n      0x00\n        /* \"Contract_Conqueror_Series/simpleSwap.sol\":5404:5447  tokenA.balanceOf[address(this)] += amountIn */\n      dup3\n      dup3\n      sload\n      tag_162\n      swap2\n      swap1\n      tag_107\n      jump\t// in\n    tag_162:\n      swap3\n      pop\n      pop\n      dup2\n      swap1\n      sstore\n      pop\n        /* \"Contract_Conqueror_Series/simpleSwap.sol\":5495:5504  amountOut */\n      dup1\n        /* \"Contract_Conqueror_Series/simpleSwap.sol\":5460:5466  tokenB */\n      0x06\n        /* \"Contract_Conqueror_Series/simpleSwap.sol\":5460:5476  tokenB.balanceOf */\n      0x04\n      add\n        /* \"Contract_Conqueror_Series/simpleSwap.sol\":5460:5491  tokenB.balanceOf[address(this)] */\n      0x00\n        /* \"Contract_Conqueror_Series/simpleSwap.sol\":5485:5489  this */\n      address\n        /* \"Contract_Conqueror_Series/simpleSwap.sol\":5460:5491  tokenB.balanceOf[address(this)] */\n      0xffffffffffffffffffffffffffffffffffffffff\n      and\n      0xffffffffffffffffffffffffffffffffffffffff\n      and\n      dup2\n      mstore\n      0x20\n      add\n      swap1\n      dup2\n      mstore\n      0x20\n      add\n      0x00\n      keccak256\n      0x00\n        /* \"Contract_Conqueror_Series/simpleSwap.sol\":5460:5504  tokenB.balanceOf[address(this)] -= amountOut */\n      dup3\n      dup3\n      sload\n      tag_163\n      swap2\n      swap1\n      tag_105\n      jump\t// in\n    tag_163:\n      swap3\n      pop\n      pop\n      dup2\n      swap1\n      sstore\n      pop\n        /* \"Contract_Conqueror_Series/simpleSwap.sol\":5547:5556  amountOut */\n      dup1\n        /* \"Contract_Conqueror_Series/simpleSwap.sol\":5515:5521  tokenB */\n      0x06\n        /* \"Contract_Conqueror_Series/simpleSwap.sol\":5515:5531  tokenB.balanceOf */\n      0x04\n      add\n        /* \"Contract_Conqueror_Series/simpleSwap.sol\":5515:5543  tokenB.balanceOf[msg.sender] */\n      0x00\n        /* \"Contract_Conqueror_Series/simpleSwap.sol\":5532:5542  msg.sender */\n      caller\n        /* \"Contract_Conqueror_Series/simpleSwap.sol\":5515:5543  tokenB.balanceOf[msg.sender] */\n      0xffffffffffffffffffffffffffffffffffffffff\n      and\n      0xffffffffffffffffffffffffffffffffffffffff\n      and\n      dup2\n      mstore\n      0x20\n      add\n      swap1\n      dup2\n      mstore\n      0x20\n      add\n      0x00\n      keccak256\n      0x00\n        /* \"Contract_Conqueror_Series/simpleSwap.sol\":5515:5556  tokenB.balanceOf[msg.sender] += amountOut */\n      dup3\n      dup3\n      sload\n      tag_164\n      swap2\n      swap1\n      tag_107\n      jump\t// in\n    tag_164:\n      swap3\n      pop\n      pop\n      dup2\n      swap1\n      sstore\n      pop\n        /* \"Contract_Conqueror_Series/simpleSwap.sol\":5587:5597  msg.sender */\n      caller\n        /* \"Contract_Conqueror_Series/simpleSwap.sol\":5574:5619  SwapExecuted(msg.sender, amountIn, amountOut) */\n      0xffffffffffffffffffffffffffffffffffffffff\n      and\n      0x2d043ce009ff53fd444b0f4f5ff4c3f4ee293265203f77f156eeb33b595dfc4f\n        /* \"Contract_Conqueror_Series/simpleSwap.sol\":5599:5607  amountIn */\n      dup4\n        /* \"Contract_Conqueror_Series/simpleSwap.sol\":5609:5618  amountOut */\n      dup4\n        /* \"Contract_Conqueror_Series/simpleSwap.sol\":5574:5619  SwapExecuted(msg.sender, amountIn, amountOut) */\n      mload(0x40)\n      tag_165\n      swap3\n      swap2\n      swap1\n      tag_166\n      jump\t// in\n    tag_165:\n      mload(0x40)\n      dup1\n      swap2\n      sub\n      swap1\n      log2\n        /* \"Contract_Conqueror_Series/simpleSwap.sol\":4816:5627  {... */\n      pop\n        /* \"Contract_Conqueror_Series/simpleSwap.sol\":4775:5627  function swap(uint256 amountIn) external {... */\n      pop\n      jump\t// out\n        /* \"Contract_Conqueror_Series/simpleSwap.sol\":5889:6205  function withdraw(bool isTokenA, uint256 amount) external onlyOwner {... */\n    tag_72:\n        /* \"Contract_Conqueror_Series/simpleSwap.sol\":1270:1275  owner */\n      0x0c\n      0x00\n      swap1\n      sload\n      swap1\n      0x0100\n      exp\n      swap1\n      div\n      0xffffffffffffffffffffffffffffffffffffffff\n      and\n        /* \"Contract_Conqueror_Series/simpleSwap.sol\":1256:1275  msg.sender == owner */\n      0xffffffffffffffffffffffffffffffffffffffff\n      and\n        /* \"Contract_Conqueror_Series/simpleSwap.sol\":1256:1266  msg.sender */\n      caller\n        /* \"Contract_Conqueror_Series/simpleSwap.sol\":1256:1275  msg.sender == owner */\n      0xffffffffffffffffffffffffffffffffffffffff\n      and\n      eq\n        /* \"Contract_Conqueror_Series/simpleSwap.sol\":1248:1289  require(msg.sender == owner, \"Not owner\") */\n      tag_168\n      jumpi\n      mload(0x40)\n      0x08c379a000000000000000000000000000000000000000000000000000000000\n      dup2\n      mstore\n      0x04\n      add\n      tag_169\n      swap1\n      tag_170\n      jump\t// in\n    tag_169:\n      mload(0x40)\n      dup1\n      swap2\n      sub\n      swap1\n      revert\n    tag_168:\n        /* \"Contract_Conqueror_Series/simpleSwap.sol\":5968:5987  Token storage token */\n      0x00\n        /* \"Contract_Conqueror_Series/simpleSwap.sol\":5990:5998  isTokenA */\n      dup3\n        /* \"Contract_Conqueror_Series/simpleSwap.sol\":5990:6016  isTokenA ? tokenA : tokenB */\n      tag_172\n      jumpi\n        /* \"Contract_Conqueror_Series/simpleSwap.sol\":6010:6016  tokenB */\n      0x06\n        /* \"Contract_Conqueror_Series/simpleSwap.sol\":5990:6016  isTokenA ? tokenA : tokenB */\n      jump(tag_173)\n    tag_172:\n        /* \"Contract_Conqueror_Series/simpleSwap.sol\":6001:6007  tokenA */\n      0x00\n        /* \"Contract_Conqueror_Series/simpleSwap.sol\":5990:6016  isTokenA ? tokenA : tokenB */\n    tag_173:\n        /* \"Contract_Conqueror_Series/simpleSwap.sol\":5968:6016  Token storage token = isTokenA ? tokenA : tokenB */\n      swap1\n      pop\n        /* \"Contract_Conqueror_Series/simpleSwap.sol\":6069:6075  amount */\n      dup2\n        /* \"Contract_Conqueror_Series/simpleSwap.sol\":6035:6040  token */\n      dup2\n        /* \"Contract_Conqueror_Series/simpleSwap.sol\":6035:6050  token.balanceOf */\n      0x04\n      add\n        /* \"Contract_Conqueror_Series/simpleSwap.sol\":6035:6065  token.balanceOf[address(this)] */\n      0x00\n        /* \"Contract_Conqueror_Series/simpleSwap.sol\":6059:6063  this */\n      address\n        /* \"Contract_Conqueror_Series/simpleSwap.sol\":6035:6065  token.balanceOf[address(this)] */\n      0xffffffffffffffffffffffffffffffffffffffff\n      and\n      0xffffffffffffffffffffffffffffffffffffffff\n      and\n      dup2\n      mstore\n      0x20\n      add\n      swap1\n      dup2\n      mstore\n      0x20\n      add\n      0x00\n      keccak256\n      sload\n        /* \"Contract_Conqueror_Series/simpleSwap.sol\":6035:6075  token.balanceOf[address(this)] >= amount */\n      lt\n      iszero\n        /* \"Contract_Conqueror_Series/simpleSwap.sol\":6027:6098  require(token.balanceOf[address(this)] >= amount, \"Insufficient funds\") */\n      tag_174\n      jumpi\n      mload(0x40)\n      0x08c379a000000000000000000000000000000000000000000000000000000000\n      dup2\n      mstore\n      0x04\n      add\n      tag_175\n      swap1\n      tag_176\n      jump\t// in\n    tag_175:\n      mload(0x40)\n      dup1\n      swap2\n      sub\n      swap1\n      revert\n    tag_174:\n        /* \"Contract_Conqueror_Series/simpleSwap.sol\":6143:6149  amount */\n      dup2\n        /* \"Contract_Conqueror_Series/simpleSwap.sol\":6109:6114  token */\n      dup2\n        /* \"Contract_Conqueror_Series/simpleSwap.sol\":6109:6124  token.balanceOf */\n      0x04\n      add\n        /* \"Contract_Conqueror_Series/simpleSwap.sol\":6109:6139  token.balanceOf[address(this)] */\n      0x00\n        /* \"Contract_Conqueror_Series/simpleSwap.sol\":6133:6137  this */\n      address\n        /* \"Contract_Conqueror_Series/simpleSwap.sol\":6109:6139  token.balanceOf[address(this)] */\n      0xffffffffffffffffffffffffffffffffffffffff\n      and\n      0xffffffffffffffffffffffffffffffffffffffff\n      and\n      dup2\n      mstore\n      0x20\n      add\n      swap1\n      dup2\n      mstore\n      0x20\n      add\n      0x00\n      keccak256\n      0x00\n        /* \"Contract_Conqueror_Series/simpleSwap.sol\":6109:6149  token.balanceOf[address(this)] -= amount */\n      dup3\n      dup3\n      sload\n      tag_177\n      swap2\n      swap1\n      tag_105\n      jump\t// in\n    tag_177:\n      swap3\n      pop\n      pop\n      dup2\n      swap1\n      sstore\n      pop\n        /* \"Contract_Conqueror_Series/simpleSwap.sol\":6191:6197  amount */\n      dup2\n        /* \"Contract_Conqueror_Series/simpleSwap.sol\":6160:6165  token */\n      dup2\n        /* \"Contract_Conqueror_Series/simpleSwap.sol\":6160:6175  token.balanceOf */\n      0x04\n      add\n        /* \"Contract_Conqueror_Series/simpleSwap.sol\":6160:6187  token.balanceOf[msg.sender] */\n      0x00\n        /* \"Contract_Conqueror_Series/simpleSwap.sol\":6176:6186  msg.sender */\n      caller\n        /* \"Contract_Conqueror_Series/simpleSwap.sol\":6160:6187  token.balanceOf[msg.sender] */\n      0xffffffffffffffffffffffffffffffffffffffff\n      and\n      0xffffffffffffffffffffffffffffffffffffffff\n      and\n      dup2\n      mstore\n      0x20\n      add\n      swap1\n      dup2\n      mstore\n      0x20\n      add\n      0x00\n      keccak256\n      0x00\n        /* \"Contract_Conqueror_Series/simpleSwap.sol\":6160:6197  token.balanceOf[msg.sender] += amount */\n      dup3\n      dup3\n      sload\n      tag_178\n      swap2\n      swap1\n      tag_107\n      jump\t// in\n    tag_178:\n      swap3\n      pop\n      pop\n      dup2\n      swap1\n      sstore\n      pop\n        /* \"Contract_Conqueror_Series/simpleSwap.sol\":5957:6205  {... */\n      pop\n        /* \"Contract_Conqueror_Series/simpleSwap.sol\":5889:6205  function withdraw(bool isTokenA, uint256 amount) external onlyOwner {... */\n      pop\n      pop\n      jump\t// out\n        /* \"Contract_Conqueror_Series/simpleSwap.sol\":2046:2181  function symbol(bool isTokenA) external view returns (string memory) {... */\n    tag_75:\n        /* \"Contract_Conqueror_Series/simpleSwap.sol\":2100:2113  string memory */\n      0x60\n        /* \"Contract_Conqueror_Series/simpleSwap.sol\":2133:2141  isTokenA */\n      dup2\n        /* \"Contract_Conqueror_Series/simpleSwap.sol\":2133:2173  isTokenA ? tokenA.symbol : tokenB.symbol */\n      tag_180\n      jumpi\n        /* \"Contract_Conqueror_Series/simpleSwap.sol\":2160:2166  tokenB */\n      0x06\n        /* \"Contract_Conqueror_Series/simpleSwap.sol\":2160:2173  tokenB.symbol */\n      0x01\n      add\n        /* \"Contract_Conqueror_Series/simpleSwap.sol\":2133:2173  isTokenA ? tokenA.symbol : tokenB.symbol */\n      jump(tag_181)\n    tag_180:\n        /* \"Contract_Conqueror_Series/simpleSwap.sol\":2144:2150  tokenA */\n      0x00\n        /* \"Contract_Conqueror_Series/simpleSwap.sol\":2144:2157  tokenA.symbol */\n      0x01\n      add\n        /* \"Contract_Conqueror_Series/simpleSwap.sol\":2133:2173  isTokenA ? tokenA.symbol : tokenB.symbol */\n    tag_181:\n        /* \"Contract_Conqueror_Series/simpleSwap.sol\":2126:2173  return isTokenA ? tokenA.symbol : tokenB.symbol */\n      dup1\n      sload\n      tag_182\n      swap1\n      tag_115\n      jump\t// in\n    tag_182:\n      dup1\n      0x1f\n      add\n      0x20\n      dup1\n      swap2\n      div\n      mul\n      0x20\n      add\n      mload(0x40)\n      swap1\n      dup2\n      add\n      0x40\n      mstore\n      dup1\n      swap3\n      swap2\n      swap1\n      dup2\n      dup2\n      mstore\n      0x20\n      add\n      dup3\n      dup1\n      sload\n      tag_183\n      swap1\n      tag_115\n      jump\t// in\n    tag_183:\n      dup1\n      iszero\n      tag_184\n      jumpi\n      dup1\n      0x1f\n      lt\n      tag_185\n      jumpi\n      0x0100\n      dup1\n      dup4\n      sload\n      div\n      mul\n      dup4\n      mstore\n      swap2\n      0x20\n      add\n      swap2\n      jump(tag_184)\n    tag_185:\n      dup3\n      add\n      swap2\n      swap1\n      0x00\n      mstore\n      keccak256(0x00, 0x20)\n      swap1\n    tag_186:\n      dup2\n      sload\n      dup2\n      mstore\n      swap1\n      0x01\n      add\n      swap1\n      0x20\n      add\n      dup1\n      dup4\n      gt\n      tag_186\n      jumpi\n      dup3\n      swap1\n      sub\n      0x1f\n      and\n      dup3\n      add\n      swap2\n    tag_184:\n      pop\n      pop\n      pop\n      pop\n      pop\n      swap1\n      pop\n        /* \"Contract_Conqueror_Series/simpleSwap.sol\":2046:2181  function symbol(bool isTokenA) external view returns (string memory) {... */\n      swap2\n      swap1\n      pop\n      jump\t// out\n        /* \"Contract_Conqueror_Series/simpleSwap.sol\":4577:4767  function setExchangeRate(uint256 newRate) external onlyOwner {... */\n    tag_79:\n        /* \"Contract_Conqueror_Series/simpleSwap.sol\":1270:1275  owner */\n      0x0c\n      0x00\n      swap1\n      sload\n      swap1\n      0x0100\n      exp\n      swap1\n      div\n      0xffffffffffffffffffffffffffffffffffffffff\n      and\n        /* \"Contract_Conqueror_Series/simpleSwap.sol\":1256:1275  msg.sender == owner */\n      0xffffffffffffffffffffffffffffffffffffffff\n      and\n        /* \"Contract_Conqueror_Series/simpleSwap.sol\":1256:1266  msg.sender */\n      caller\n        /* \"Contract_Conqueror_Series/simpleSwap.sol\":1256:1275  msg.sender == owner */\n      0xffffffffffffffffffffffffffffffffffffffff\n      and\n      eq\n        /* \"Contract_Conqueror_Series/simpleSwap.sol\":1248:1289  require(msg.sender == owner, \"Not owner\") */\n      tag_188\n      jumpi\n      mload(0x40)\n      0x08c379a000000000000000000000000000000000000000000000000000000000\n      dup2\n      mstore\n      0x04\n      add\n      tag_189\n      swap1\n      tag_170\n      jump\t// in\n    tag_189:\n      mload(0x40)\n      dup1\n      swap2\n      sub\n      swap1\n      revert\n    tag_188:\n        /* \"Contract_Conqueror_Series/simpleSwap.sol\":4667:4668  0 */\n      0x00\n        /* \"Contract_Conqueror_Series/simpleSwap.sol\":4657:4664  newRate */\n      dup2\n        /* \"Contract_Conqueror_Series/simpleSwap.sol\":4657:4668  newRate > 0 */\n      gt\n        /* \"Contract_Conqueror_Series/simpleSwap.sol\":4649:4682  require(newRate > 0, \"Zero rate\") */\n      tag_191\n      jumpi\n      mload(0x40)\n      0x08c379a000000000000000000000000000000000000000000000000000000000\n      dup2\n      mstore\n      0x04\n      add\n      tag_192\n      swap1\n      tag_193\n      jump\t// in\n    tag_192:\n      mload(0x40)\n      dup1\n      swap2\n      sub\n      swap1\n      revert\n    tag_191:\n        /* \"Contract_Conqueror_Series/simpleSwap.sol\":4708:4715  newRate */\n      dup1\n        /* \"Contract_Conqueror_Series/simpleSwap.sol\":4693:4705  exchangeRate */\n      0x0d\n        /* \"Contract_Conqueror_Series/simpleSwap.sol\":4693:4715  exchangeRate = newRate */\n      dup2\n      swap1\n      sstore\n      pop\n        /* \"Contract_Conqueror_Series/simpleSwap.sol\":4731:4759  ExchangeRateUpdated(newRate) */\n      0x388f446e9526fe5c9af20a5919b342370c8a7c0cb05245afe1e545658fa3cdba\n        /* \"Contract_Conqueror_Series/simpleSwap.sol\":4751:4758  newRate */\n      dup2\n        /* \"Contract_Conqueror_Series/simpleSwap.sol\":4731:4759  ExchangeRateUpdated(newRate) */\n      mload(0x40)\n      tag_194\n      swap2\n      swap1\n      tag_33\n      jump\t// in\n    tag_194:\n      mload(0x40)\n      dup1\n      swap2\n      sub\n      swap1\n      log1\n        /* \"Contract_Conqueror_Series/simpleSwap.sol\":4577:4767  function setExchangeRate(uint256 newRate) external onlyOwner {... */\n      pop\n      jump\t// out\n        /* \"Contract_Conqueror_Series/simpleSwap.sol\":4220:4528  function mint(bool isTokenA, address to, uint256 amount) external onlyOwner {... */\n    tag_82:\n        /* \"Contract_Conqueror_Series/simpleSwap.sol\":1270:1275  owner */\n      0x0c\n      0x00\n      swap1\n      sload\n      swap1\n      0x0100\n      exp\n      swap1\n      div\n      0xffffffffffffffffffffffffffffffffffffffff\n      and\n        /* \"Contract_Conqueror_Series/simpleSwap.sol\":1256:1275  msg.sender == owner */\n      0xffffffffffffffffffffffffffffffffffffffff\n      and\n        /* \"Contract_Conqueror_Series/simpleSwap.sol\":1256:1266  msg.sender */\n      caller\n        /* \"Contract_Conqueror_Series/simpleSwap.sol\":1256:1275  msg.sender == owner */\n      0xffffffffffffffffffffffffffffffffffffffff\n      and\n      eq\n        /* \"Contract_Conqueror_Series/simpleSwap.sol\":1248:1289  require(msg.sender == owner, \"Not owner\") */\n      tag_196\n      jumpi\n      mload(0x40)\n      0x08c379a000000000000000000000000000000000000000000000000000000000\n      dup2\n      mstore\n      0x04\n      add\n      tag_197\n      swap1\n      tag_170\n      jump\t// in\n    tag_197:\n      mload(0x40)\n      dup1\n      swap2\n      sub\n      swap1\n      revert\n    tag_196:\n        /* \"Contract_Conqueror_Series/simpleSwap.sol\":4307:4326  Token storage token */\n      0x00\n        /* \"Contract_Conqueror_Series/simpleSwap.sol\":4329:4337  isTokenA */\n      dup4\n        /* \"Contract_Conqueror_Series/simpleSwap.sol\":4329:4355  isTokenA ? tokenA : tokenB */\n      tag_199\n      jumpi\n        /* \"Contract_Conqueror_Series/simpleSwap.sol\":4349:4355  tokenB */\n      0x06\n        /* \"Contract_Conqueror_Series/simpleSwap.sol\":4329:4355  isTokenA ? tokenA : tokenB */\n      jump(tag_200)\n    tag_199:\n        /* \"Contract_Conqueror_Series/simpleSwap.sol\":4340:4346  tokenA */\n      0x00\n        /* \"Contract_Conqueror_Series/simpleSwap.sol\":4329:4355  isTokenA ? tokenA : tokenB */\n    tag_200:\n        /* \"Contract_Conqueror_Series/simpleSwap.sol\":4307:4355  Token storage token = isTokenA ? tokenA : tokenB */\n      swap1\n      pop\n        /* \"Contract_Conqueror_Series/simpleSwap.sol\":4389:4395  amount */\n      dup2\n        /* \"Contract_Conqueror_Series/simpleSwap.sol\":4366:4371  token */\n      dup2\n        /* \"Contract_Conqueror_Series/simpleSwap.sol\":4366:4381  token.balanceOf */\n      0x04\n      add\n        /* \"Contract_Conqueror_Series/simpleSwap.sol\":4366:4385  token.balanceOf[to] */\n      0x00\n        /* \"Contract_Conqueror_Series/simpleSwap.sol\":4382:4384  to */\n      dup6\n        /* \"Contract_Conqueror_Series/simpleSwap.sol\":4366:4385  token.balanceOf[to] */\n      0xffffffffffffffffffffffffffffffffffffffff\n      and\n      0xffffffffffffffffffffffffffffffffffffffff\n      and\n      dup2\n      mstore\n      0x20\n      add\n      swap1\n      dup2\n      mstore\n      0x20\n      add\n      0x00\n      keccak256\n      0x00\n        /* \"Contract_Conqueror_Series/simpleSwap.sol\":4366:4395  token.balanceOf[to] += amount */\n      dup3\n      dup3\n      sload\n      tag_201\n      swap2\n      swap1\n      tag_107\n      jump\t// in\n    tag_201:\n      swap3\n      pop\n      pop\n      dup2\n      swap1\n      sstore\n      pop\n        /* \"Contract_Conqueror_Series/simpleSwap.sol\":4427:4433  amount */\n      dup2\n        /* \"Contract_Conqueror_Series/simpleSwap.sol\":4406:4411  token */\n      dup2\n        /* \"Contract_Conqueror_Series/simpleSwap.sol\":4406:4423  token.totalSupply */\n      0x03\n      add\n      0x00\n        /* \"Contract_Conqueror_Series/simpleSwap.sol\":4406:4433  token.totalSupply += amount */\n      dup3\n      dup3\n      sload\n      tag_202\n      swap2\n      swap1\n      tag_107\n      jump\t// in\n    tag_202:\n      swap3\n      pop\n      pop\n      dup2\n      swap1\n      sstore\n      pop\n        /* \"Contract_Conqueror_Series/simpleSwap.sol\":4509:4511  to */\n      dup3\n        /* \"Contract_Conqueror_Series/simpleSwap.sol\":4449:4520  Transfer(isTokenA ? address(this) : address(0), address(0), to, amount) */\n      0xffffffffffffffffffffffffffffffffffffffff\n      and\n        /* \"Contract_Conqueror_Series/simpleSwap.sol\":4505:4506  0 */\n      0x00\n        /* \"Contract_Conqueror_Series/simpleSwap.sol\":4449:4520  Transfer(isTokenA ? address(this) : address(0), address(0), to, amount) */\n      0xffffffffffffffffffffffffffffffffffffffff\n      and\n        /* \"Contract_Conqueror_Series/simpleSwap.sol\":4458:4466  isTokenA */\n      dup6\n        /* \"Contract_Conqueror_Series/simpleSwap.sol\":4458:4495  isTokenA ? address(this) : address(0) */\n      tag_203\n      jumpi\n        /* \"Contract_Conqueror_Series/simpleSwap.sol\":4493:4494  0 */\n      0x00\n        /* \"Contract_Conqueror_Series/simpleSwap.sol\":4458:4495  isTokenA ? address(this) : address(0) */\n      jump(tag_204)\n    tag_203:\n        /* \"Contract_Conqueror_Series/simpleSwap.sol\":4477:4481  this */\n      address\n        /* \"Contract_Conqueror_Series/simpleSwap.sol\":4458:4495  isTokenA ? address(this) : address(0) */\n    tag_204:\n        /* \"Contract_Conqueror_Series/simpleSwap.sol\":4449:4520  Transfer(isTokenA ? address(this) : address(0), address(0), to, amount) */\n      0xffffffffffffffffffffffffffffffffffffffff\n      and\n      0xd1398bee19313d6bf672ccb116e51f4a1a947e91c757907f51fbb5b5e56c698f\n        /* \"Contract_Conqueror_Series/simpleSwap.sol\":4513:4519  amount */\n      dup6\n        /* \"Contract_Conqueror_Series/simpleSwap.sol\":4449:4520  Transfer(isTokenA ? address(this) : address(0), address(0), to, amount) */\n      mload(0x40)\n      tag_205\n      swap2\n      swap1\n      tag_33\n      jump\t// in\n    tag_205:\n      mload(0x40)\n      dup1\n      swap2\n      sub\n      swap1\n      log4\n        /* \"Contract_Conqueror_Series/simpleSwap.sol\":4296:4528  {... */\n      pop\n        /* \"Contract_Conqueror_Series/simpleSwap.sol\":4220:4528  function mint(bool isTokenA, address to, uint256 amount) external onlyOwner {... */\n      pop\n      pop\n      pop\n      jump\t// out\n        /* \"Contract_Conqueror_Series/simpleSwap.sol\":2988:3204  function allowance(bool isTokenA, address owner_, address spender) external view returns (uint256) {... */\n    tag_86:\n        /* \"Contract_Conqueror_Series/simpleSwap.sol\":3078:3085  uint256 */\n      0x00\n        /* \"Contract_Conqueror_Series/simpleSwap.sol\":3098:3117  Token storage token */\n      0x00\n        /* \"Contract_Conqueror_Series/simpleSwap.sol\":3120:3128  isTokenA */\n      dup5\n        /* \"Contract_Conqueror_Series/simpleSwap.sol\":3120:3146  isTokenA ? tokenA : tokenB */\n      tag_207\n      jumpi\n        /* \"Contract_Conqueror_Series/simpleSwap.sol\":3140:3146  tokenB */\n      0x06\n        /* \"Contract_Conqueror_Series/simpleSwap.sol\":3120:3146  isTokenA ? tokenA : tokenB */\n      jump(tag_208)\n    tag_207:\n        /* \"Contract_Conqueror_Series/simpleSwap.sol\":3131:3137  tokenA */\n      0x00\n        /* \"Contract_Conqueror_Series/simpleSwap.sol\":3120:3146  isTokenA ? tokenA : tokenB */\n    tag_208:\n        /* \"Contract_Conqueror_Series/simpleSwap.sol\":3098:3146  Token storage token = isTokenA ? tokenA : tokenB */\n      swap1\n      pop\n        /* \"Contract_Conqueror_Series/simpleSwap.sol\":3164:3169  token */\n      dup1\n        /* \"Contract_Conqueror_Series/simpleSwap.sol\":3164:3179  token.allowance */\n      0x05\n      add\n        /* \"Contract_Conqueror_Series/simpleSwap.sol\":3164:3187  token.allowance[owner_] */\n      0x00\n        /* \"Contract_Conqueror_Series/simpleSwap.sol\":3180:3186  owner_ */\n      dup6\n        /* \"Contract_Conqueror_Series/simpleSwap.sol\":3164:3187  token.allowance[owner_] */\n      0xffffffffffffffffffffffffffffffffffffffff\n      and\n      0xffffffffffffffffffffffffffffffffffffffff\n      and\n      dup2\n      mstore\n      0x20\n      add\n      swap1\n      dup2\n      mstore\n      0x20\n      add\n      0x00\n      keccak256\n        /* \"Contract_Conqueror_Series/simpleSwap.sol\":3164:3196  token.allowance[owner_][spender] */\n      0x00\n        /* \"Contract_Conqueror_Series/simpleSwap.sol\":3188:3195  spender */\n      dup5\n        /* \"Contract_Conqueror_Series/simpleSwap.sol\":3164:3196  token.allowance[owner_][spender] */\n      0xffffffffffffffffffffffffffffffffffffffff\n      and\n      0xffffffffffffffffffffffffffffffffffffffff\n      and\n      dup2\n      mstore\n      0x20\n      add\n      swap1\n      dup2\n      mstore\n      0x20\n      add\n      0x00\n      keccak256\n      sload\n        /* \"Contract_Conqueror_Series/simpleSwap.sol\":3157:3196  return token.allowance[owner_][spender] */\n      swap2\n      pop\n      pop\n        /* \"Contract_Conqueror_Series/simpleSwap.sol\":2988:3204  function allowance(bool isTokenA, address owner_, address spender) external view returns (uint256) {... */\n      swap4\n      swap3\n      pop\n      pop\n      pop\n      jump\t// out\n        /* \"Contract_Conqueror_Series/simpleSwap.sol\":5671:5881  function transferOwnership(address newOwner) external onlyOwner {... */\n    tag_91:\n        /* \"Contract_Conqueror_Series/simpleSwap.sol\":1270:1275  owner */\n      0x0c\n      0x00\n      swap1\n      sload\n      swap1\n      0x0100\n      exp\n      swap1\n      div\n      0xffffffffffffffffffffffffffffffffffffffff\n      and\n        /* \"Contract_Conqueror_Series/simpleSwap.sol\":1256:1275  msg.sender == owner */\n      0xffffffffffffffffffffffffffffffffffffffff\n      and\n        /* \"Contract_Conqueror_Series/simpleSwap.sol\":1256:1266  msg.sender */\n      caller\n        /* \"Contract_Conqueror_Series/simpleSwap.sol\":1256:1275  msg.sender == owner */\n      0xffffffffffffffffffffffffffffffffffffffff\n      and\n      eq\n        /* \"Contract_Conqueror_Series/simpleSwap.sol\":1248:1289  require(msg.sender == owner, \"Not owner\") */\n      tag_210\n      jumpi\n      mload(0x40)\n      0x08c379a000000000000000000000000000000000000000000000000000000000\n      dup2\n      mstore\n      0x04\n      add\n      tag_211\n      swap1\n      tag_170\n      jump\t// in\n    tag_211:\n      mload(0x40)\n      dup1\n      swap2\n      sub\n      swap1\n      revert\n    tag_210:\n        /* \"Contract_Conqueror_Series/simpleSwap.sol\":5774:5775  0 */\n      0x00\n        /* \"Contract_Conqueror_Series/simpleSwap.sol\":5754:5776  newOwner != address(0) */\n      0xffffffffffffffffffffffffffffffffffffffff\n      and\n        /* \"Contract_Conqueror_Series/simpleSwap.sol\":5754:5762  newOwner */\n      dup2\n        /* \"Contract_Conqueror_Series/simpleSwap.sol\":5754:5776  newOwner != address(0) */\n      0xffffffffffffffffffffffffffffffffffffffff\n      and\n      sub\n        /* \"Contract_Conqueror_Series/simpleSwap.sol\":5746:5793  require(newOwner != address(0), \"Zero address\") */\n      tag_213\n      jumpi\n      mload(0x40)\n      0x08c379a000000000000000000000000000000000000000000000000000000000\n      dup2\n      mstore\n      0x04\n      add\n      tag_214\n      swap1\n      tag_215\n      jump\t// in\n    tag_214:\n      mload(0x40)\n      dup1\n      swap2\n      sub\n      swap1\n      revert\n    tag_213:\n        /* \"Contract_Conqueror_Series/simpleSwap.sol\":5837:5845  newOwner */\n      dup1\n        /* \"Contract_Conqueror_Series/simpleSwap.sol\":5809:5846  OwnershipTransferred(owner, newOwner) */\n      0xffffffffffffffffffffffffffffffffffffffff\n      and\n        /* \"Contract_Conqueror_Series/simpleSwap.sol\":5830:5835  owner */\n      0x0c\n      0x00\n      swap1\n      sload\n      swap1\n      0x0100\n      exp\n      swap1\n      div\n      0xffffffffffffffffffffffffffffffffffffffff\n      and\n        /* \"Contract_Conqueror_Series/simpleSwap.sol\":5809:5846  OwnershipTransferred(owner, newOwner) */\n      0xffffffffffffffffffffffffffffffffffffffff\n      and\n      0x8be0079c531659141344cd1fd0a4f28419497f9722a3daafe3b4186f6b6457e0\n      mload(0x40)\n      mload(0x40)\n      dup1\n      swap2\n      sub\n      swap1\n      log3\n        /* \"Contract_Conqueror_Series/simpleSwap.sol\":5865:5873  newOwner */\n      dup1\n        /* \"Contract_Conqueror_Series/simpleSwap.sol\":5857:5862  owner */\n      0x0c\n      0x00\n        /* \"Contract_Conqueror_Series/simpleSwap.sol\":5857:5873  owner = newOwner */\n      0x0100\n      exp\n      dup2\n      sload\n      dup2\n      0xffffffffffffffffffffffffffffffffffffffff\n      mul\n      not\n      and\n      swap1\n      dup4\n      0xffffffffffffffffffffffffffffffffffffffff\n      and\n      mul\n      or\n      swap1\n      sstore\n      pop\n        /* \"Contract_Conqueror_Series/simpleSwap.sol\":5671:5881  function transferOwnership(address newOwner) external onlyOwner {... */\n      pop\n      jump\t// out\n        /* \"#utility.yul\":88:205   */\n    tag_217:\n        /* \"#utility.yul\":197:198   */\n      0x00\n        /* \"#utility.yul\":194:195   */\n      0x00\n        /* \"#utility.yul\":187:199   */\n      revert\n        /* \"#utility.yul\":334:424   */\n    tag_219:\n        /* \"#utility.yul\":368:375   */\n      0x00\n        /* \"#utility.yul\":411:416   */\n      dup2\n        /* \"#utility.yul\":404:417   */\n      iszero\n        /* \"#utility.yul\":397:418   */\n      iszero\n        /* \"#utility.yul\":386:418   */\n      swap1\n      pop\n        /* \"#utility.yul\":334:424   */\n      swap2\n      swap1\n      pop\n      jump\t// out\n        /* \"#utility.yul\":430:546   */\n    tag_220:\n        /* \"#utility.yul\":500:521   */\n      tag_268\n        /* \"#utility.yul\":515:520   */\n      dup2\n        /* \"#utility.yul\":500:521   */\n      tag_219\n      jump\t// in\n    tag_268:\n        /* \"#utility.yul\":493:498   */\n      dup2\n        /* \"#utility.yul\":490:522   */\n      eq\n        /* \"#utility.yul\":480:540   */\n      tag_269\n      jumpi\n        /* \"#utility.yul\":536:537   */\n      0x00\n        /* \"#utility.yul\":533:534   */\n      0x00\n        /* \"#utility.yul\":526:538   */\n      revert\n        /* \"#utility.yul\":480:540   */\n    tag_269:\n        /* \"#utility.yul\":430:546   */\n      pop\n      jump\t// out\n        /* \"#utility.yul\":552:685   */\n    tag_221:\n        /* \"#utility.yul\":595:600   */\n      0x00\n        /* \"#utility.yul\":633:639   */\n      dup2\n        /* \"#utility.yul\":620:640   */\n      calldataload\n        /* \"#utility.yul\":611:640   */\n      swap1\n      pop\n        /* \"#utility.yul\":649:679   */\n      tag_271\n        /* \"#utility.yul\":673:678   */\n      dup2\n        /* \"#utility.yul\":649:679   */\n      tag_220\n      jump\t// in\n    tag_271:\n        /* \"#utility.yul\":552:685   */\n      swap3\n      swap2\n      pop\n      pop\n      jump\t// out\n        /* \"#utility.yul\":691:1014   */\n    tag_24:\n        /* \"#utility.yul\":747:753   */\n      0x00\n        /* \"#utility.yul\":796:798   */\n      0x20\n        /* \"#utility.yul\":784:793   */\n      dup3\n        /* \"#utility.yul\":775:782   */\n      dup5\n        /* \"#utility.yul\":771:794   */\n      sub\n        /* \"#utility.yul\":767:799   */\n      slt\n        /* \"#utility.yul\":764:883   */\n      iszero\n      tag_273\n      jumpi\n        /* \"#utility.yul\":802:881   */\n      tag_274\n      tag_217\n      jump\t// in\n    tag_274:\n        /* \"#utility.yul\":764:883   */\n    tag_273:\n        /* \"#utility.yul\":922:923   */\n      0x00\n        /* \"#utility.yul\":947:997   */\n      tag_275\n        /* \"#utility.yul\":989:996   */\n      dup5\n        /* \"#utility.yul\":980:986   */\n      dup3\n        /* \"#utility.yul\":969:978   */\n      dup6\n        /* \"#utility.yul\":965:987   */\n      add\n        /* \"#utility.yul\":947:997   */\n      tag_221\n      jump\t// in\n    tag_275:\n        /* \"#utility.yul\":937:997   */\n      swap2\n      pop\n        /* \"#utility.yul\":893:1007   */\n      pop\n        /* \"#utility.yul\":691:1014   */\n      swap3\n      swap2\n      pop\n      pop\n      jump\t// out\n        /* \"#utility.yul\":1020:1106   */\n    tag_222:\n        /* \"#utility.yul\":1055:1062   */\n      0x00\n        /* \"#utility.yul\":1095:1099   */\n      0xff\n        /* \"#utility.yul\":1088:1093   */\n      dup3\n        /* \"#utility.yul\":1084:1100   */\n      and\n        /* \"#utility.yul\":1073:1100   */\n      swap1\n      pop\n        /* \"#utility.yul\":1020:1106   */\n      swap2\n      swap1\n      pop\n      jump\t// out\n        /* \"#utility.yul\":1112:1224   */\n    tag_223:\n        /* \"#utility.yul\":1195:1217   */\n      tag_278\n        /* \"#utility.yul\":1211:1216   */\n      dup2\n        /* \"#utility.yul\":1195:1217   */\n      tag_222\n      jump\t// in\n    tag_278:\n        /* \"#utility.yul\":1190:1193   */\n      dup3\n        /* \"#utility.yul\":1183:1218   */\n      mstore\n        /* \"#utility.yul\":1112:1224   */\n      pop\n      pop\n      jump\t// out\n        /* \"#utility.yul\":1230:1444   */\n    tag_27:\n        /* \"#utility.yul\":1319:1323   */\n      0x00\n        /* \"#utility.yul\":1357:1359   */\n      0x20\n        /* \"#utility.yul\":1346:1355   */\n      dup3\n        /* \"#utility.yul\":1342:1360   */\n      add\n        /* \"#utility.yul\":1334:1360   */\n      swap1\n      pop\n        /* \"#utility.yul\":1370:1437   */\n      tag_280\n        /* \"#utility.yul\":1434:1435   */\n      0x00\n        /* \"#utility.yul\":1423:1432   */\n      dup4\n        /* \"#utility.yul\":1419:1436   */\n      add\n        /* \"#utility.yul\":1410:1416   */\n      dup5\n        /* \"#utility.yul\":1370:1437   */\n      tag_223\n      jump\t// in\n    tag_280:\n        /* \"#utility.yul\":1230:1444   */\n      swap3\n      swap2\n      pop\n      pop\n      jump\t// out\n        /* \"#utility.yul\":1450:1576   */\n    tag_224:\n        /* \"#utility.yul\":1487:1494   */\n      0x00\n        /* \"#utility.yul\":1527:1569   */\n      0xffffffffffffffffffffffffffffffffffffffff\n        /* \"#utility.yul\":1520:1525   */\n      dup3\n        /* \"#utility.yul\":1516:1570   */\n      and\n        /* \"#utility.yul\":1505:1570   */\n      swap1\n      pop\n        /* \"#utility.yul\":1450:1576   */\n      swap2\n      swap1\n      pop\n      jump\t// out\n        /* \"#utility.yul\":1582:1678   */\n    tag_225:\n        /* \"#utility.yul\":1619:1626   */\n      0x00\n        /* \"#utility.yul\":1648:1672   */\n      tag_283\n        /* \"#utility.yul\":1666:1671   */\n      dup3\n        /* \"#utility.yul\":1648:1672   */\n      tag_224\n      jump\t// in\n    tag_283:\n        /* \"#utility.yul\":1637:1672   */\n      swap1\n      pop\n        /* \"#utility.yul\":1582:1678   */\n      swap2\n      swap1\n      pop\n      jump\t// out\n        /* \"#utility.yul\":1684:1806   */\n    tag_226:\n        /* \"#utility.yul\":1757:1781   */\n      tag_285\n        /* \"#utility.yul\":1775:1780   */\n      dup2\n        /* \"#utility.yul\":1757:1781   */\n      tag_225\n      jump\t// in\n    tag_285:\n        /* \"#utility.yul\":1750:1755   */\n      dup2\n        /* \"#utility.yul\":1747:1782   */\n      eq\n        /* \"#utility.yul\":1737:1800   */\n      tag_286\n      jumpi\n        /* \"#utility.yul\":1796:1797   */\n      0x00\n        /* \"#utility.yul\":1793:1794   */\n      0x00\n        /* \"#utility.yul\":1786:1798   */\n      revert\n        /* \"#utility.yul\":1737:1800   */\n    tag_286:\n        /* \"#utility.yul\":1684:1806   */\n      pop\n      jump\t// out\n        /* \"#utility.yul\":1812:1951   */\n    tag_227:\n        /* \"#utility.yul\":1858:1863   */\n      0x00\n        /* \"#utility.yul\":1896:1902   */\n      dup2\n        /* \"#utility.yul\":1883:1903   */\n      calldataload\n        /* \"#utility.yul\":1874:1903   */\n      swap1\n      pop\n        /* \"#utility.yul\":1912:1945   */\n      tag_288\n        /* \"#utility.yul\":1939:1944   */\n      dup2\n        /* \"#utility.yul\":1912:1945   */\n      tag_226\n      jump\t// in\n    tag_288:\n        /* \"#utility.yul\":1812:1951   */\n      swap3\n      swap2\n      pop\n      pop\n      jump\t// out\n        /* \"#utility.yul\":1957:2425   */\n    tag_30:\n        /* \"#utility.yul\":2022:2028   */\n      0x00\n        /* \"#utility.yul\":2030:2036   */\n      0x00\n        /* \"#utility.yul\":2079:2081   */\n      0x40\n        /* \"#utility.yul\":2067:2076   */\n      dup4\n        /* \"#utility.yul\":2058:2065   */\n      dup6\n        /* \"#utility.yul\":2054:2077   */\n      sub\n        /* \"#utility.yul\":2050:2082   */\n      slt\n        /* \"#utility.yul\":2047:2166   */\n      iszero\n      tag_290\n      jumpi\n        /* \"#utility.yul\":2085:2164   */\n      tag_291\n      tag_217\n      jump\t// in\n    tag_291:\n        /* \"#utility.yul\":2047:2166   */\n    tag_290:\n        /* \"#utility.yul\":2205:2206   */\n      0x00\n        /* \"#utility.yul\":2230:2280   */\n      tag_292\n        /* \"#utility.yul\":2272:2279   */\n      dup6\n        /* \"#utility.yul\":2263:2269   */\n      dup3\n        /* \"#utility.yul\":2252:2261   */\n      dup7\n        /* \"#utility.yul\":2248:2270   */\n      add\n        /* \"#utility.yul\":2230:2280   */\n      tag_221\n      jump\t// in\n    tag_292:\n        /* \"#utility.yul\":2220:2280   */\n      swap3\n      pop\n        /* \"#utility.yul\":2176:2290   */\n      pop\n        /* \"#utility.yul\":2329:2331   */\n      0x20\n        /* \"#utility.yul\":2355:2408   */\n      tag_293\n        /* \"#utility.yul\":2400:2407   */\n      dup6\n        /* \"#utility.yul\":2391:2397   */\n      dup3\n        /* \"#utility.yul\":2380:2389   */\n      dup7\n        /* \"#utility.yul\":2376:2398   */\n      add\n        /* \"#utility.yul\":2355:2408   */\n      tag_227\n      jump\t// in\n    tag_293:\n        /* \"#utility.yul\":2345:2408   */\n      swap2\n      pop\n        /* \"#utility.yul\":2300:2418   */\n      pop\n        /* \"#utility.yul\":1957:2425   */\n      swap3\n      pop\n      swap3\n      swap1\n      pop\n      jump\t// out\n        /* \"#utility.yul\":2431:2508   */\n    tag_228:\n        /* \"#utility.yul\":2468:2475   */\n      0x00\n        /* \"#utility.yul\":2497:2502   */\n      dup2\n        /* \"#utility.yul\":2486:2502   */\n      swap1\n      pop\n        /* \"#utility.yul\":2431:2508   */\n      swap2\n      swap1\n      pop\n      jump\t// out\n        /* \"#utility.yul\":2514:2632   */\n    tag_229:\n        /* \"#utility.yul\":2601:2625   */\n      tag_296\n        /* \"#utility.yul\":2619:2624   */\n      dup2\n        /* \"#utility.yul\":2601:2625   */\n      tag_228\n      jump\t// in\n    tag_296:\n        /* \"#utility.yul\":2596:2599   */\n      dup3\n        /* \"#utility.yul\":2589:2626   */\n      mstore\n        /* \"#utility.yul\":2514:2632   */\n      pop\n      pop\n      jump\t// out\n        /* \"#utility.yul\":2638:2860   */\n    tag_33:\n        /* \"#utility.yul\":2731:2735   */\n      0x00\n        /* \"#utility.yul\":2769:2771   */\n      0x20\n        /* \"#utility.yul\":2758:2767   */\n      dup3\n        /* \"#utility.yul\":2754:2772   */\n      add\n        /* \"#utility.yul\":2746:2772   */\n      swap1\n      pop\n        /* \"#utility.yul\":2782:2853   */\n      tag_298\n        /* \"#utility.yul\":2850:2851   */\n      0x00\n        /* \"#utility.yul\":2839:2848   */\n      dup4\n        /* \"#utility.yul\":2835:2852   */\n      add\n        /* \"#utility.yul\":2826:2832   */\n      dup5\n        /* \"#utility.yul\":2782:2853   */\n      tag_229\n      jump\t// in\n    tag_298:\n        /* \"#utility.yul\":2638:2860   */\n      swap3\n      swap2\n      pop\n      pop\n      jump\t// out\n        /* \"#utility.yul\":2866:2988   */\n    tag_230:\n        /* \"#utility.yul\":2939:2963   */\n      tag_300\n        /* \"#utility.yul\":2957:2962   */\n      dup2\n        /* \"#utility.yul\":2939:2963   */\n      tag_228\n      jump\t// in\n    tag_300:\n        /* \"#utility.yul\":2932:2937   */\n      dup2\n        /* \"#utility.yul\":2929:2964   */\n      eq\n        /* \"#utility.yul\":2919:2982   */\n      tag_301\n      jumpi\n        /* \"#utility.yul\":2978:2979   */\n      0x00\n        /* \"#utility.yul\":2975:2976   */\n      0x00\n        /* \"#utility.yul\":2968:2980   */\n      revert\n        /* \"#utility.yul\":2919:2982   */\n    tag_301:\n        /* \"#utility.yul\":2866:2988   */\n      pop\n      jump\t// out\n        /* \"#utility.yul\":2994:3133   */\n    tag_231:\n        /* \"#utility.yul\":3040:3045   */\n      0x00\n        /* \"#utility.yul\":3078:3084   */\n      dup2\n        /* \"#utility.yul\":3065:3085   */\n      calldataload\n        /* \"#utility.yul\":3056:3085   */\n      swap1\n      pop\n        /* \"#utility.yul\":3094:3127   */\n      tag_303\n        /* \"#utility.yul\":3121:3126   */\n      dup2\n        /* \"#utility.yul\":3094:3127   */\n      tag_230\n      jump\t// in\n    tag_303:\n        /* \"#utility.yul\":2994:3133   */\n      swap3\n      swap2\n      pop\n      pop\n      jump\t// out\n        /* \"#utility.yul\":3139:3752   */\n    tag_39:\n        /* \"#utility.yul\":3213:3219   */\n      0x00\n        /* \"#utility.yul\":3221:3227   */\n      0x00\n        /* \"#utility.yul\":3229:3235   */\n      0x00\n        /* \"#utility.yul\":3278:3280   */\n      0x60\n        /* \"#utility.yul\":3266:3275   */\n      dup5\n        /* \"#utility.yul\":3257:3264   */\n      dup7\n        /* \"#utility.yul\":3253:3276   */\n      sub\n        /* \"#utility.yul\":3249:3281   */\n      slt\n        /* \"#utility.yul\":3246:3365   */\n      iszero\n      tag_305\n      jumpi\n        /* \"#utility.yul\":3284:3363   */\n      tag_306\n      tag_217\n      jump\t// in\n    tag_306:\n        /* \"#utility.yul\":3246:3365   */\n    tag_305:\n        /* \"#utility.yul\":3404:3405   */\n      0x00\n        /* \"#utility.yul\":3429:3479   */\n      tag_307\n        /* \"#utility.yul\":3471:3478   */\n      dup7\n        /* \"#utility.yul\":3462:3468   */\n      dup3\n        /* \"#utility.yul\":3451:3460   */\n      dup8\n        /* \"#utility.yul\":3447:3469   */\n      add\n        /* \"#utility.yul\":3429:3479   */\n      tag_221\n      jump\t// in\n    tag_307:\n        /* \"#utility.yul\":3419:3479   */\n      swap4\n      pop\n        /* \"#utility.yul\":3375:3489   */\n      pop\n        /* \"#utility.yul\":3528:3530   */\n      0x20\n        /* \"#utility.yul\":3554:3607   */\n      tag_308\n        /* \"#utility.yul\":3599:3606   */\n      dup7\n        /* \"#utility.yul\":3590:3596   */\n      dup3\n        /* \"#utility.yul\":3579:3588   */\n      dup8\n        /* \"#utility.yul\":3575:3597   */\n      add\n        /* \"#utility.yul\":3554:3607   */\n      tag_227\n      jump\t// in\n    tag_308:\n        /* \"#utility.yul\":3544:3607   */\n      swap3\n      pop\n        /* \"#utility.yul\":3499:3617   */\n      pop\n        /* \"#utility.yul\":3656:3658   */\n      0x40\n        /* \"#utility.yul\":3682:3735   */\n      tag_309\n        /* \"#utility.yul\":3727:3734   */\n      dup7\n        /* \"#utility.yul\":3718:3724   */\n      dup3\n        /* \"#utility.yul\":3707:3716   */\n      dup8\n        /* \"#utility.yul\":3703:3725   */\n      add\n        /* \"#utility.yul\":3682:3735   */\n      tag_231\n      jump\t// in\n    tag_309:\n        /* \"#utility.yul\":3672:3735   */\n      swap2\n      pop\n        /* \"#utility.yul\":3627:3745   */\n      pop\n        /* \"#utility.yul\":3139:3752   */\n      swap3\n      pop\n      swap3\n      pop\n      swap3\n      jump\t// out\n        /* \"#utility.yul\":3758:3867   */\n    tag_232:\n        /* \"#utility.yul\":3839:3860   */\n      tag_311\n        /* \"#utility.yul\":3854:3859   */\n      dup2\n        /* \"#utility.yul\":3839:3860   */\n      tag_219\n      jump\t// in\n    tag_311:\n        /* \"#utility.yul\":3834:3837   */\n      dup3\n        /* \"#utility.yul\":3827:3861   */\n      mstore\n        /* \"#utility.yul\":3758:3867   */\n      pop\n      pop\n      jump\t// out\n        /* \"#utility.yul\":3873:4083   */\n    tag_42:\n        /* \"#utility.yul\":3960:3964   */\n      0x00\n        /* \"#utility.yul\":3998:4000   */\n      0x20\n        /* \"#utility.yul\":3987:3996   */\n      dup3\n        /* \"#utility.yul\":3983:4001   */\n      add\n        /* \"#utility.yul\":3975:4001   */\n      swap1\n      pop\n        /* \"#utility.yul\":4011:4076   */\n      tag_313\n        /* \"#utility.yul\":4073:4074   */\n      0x00\n        /* \"#utility.yul\":4062:4071   */\n      dup4\n        /* \"#utility.yul\":4058:4075   */\n      add\n        /* \"#utility.yul\":4049:4055   */\n      dup5\n        /* \"#utility.yul\":4011:4076   */\n      tag_232\n      jump\t// in\n    tag_313:\n        /* \"#utility.yul\":3873:4083   */\n      swap3\n      swap2\n      pop\n      pop\n      jump\t// out\n        /* \"#utility.yul\":4089:4188   */\n    tag_233:\n        /* \"#utility.yul\":4141:4147   */\n      0x00\n        /* \"#utility.yul\":4175:4180   */\n      dup2\n        /* \"#utility.yul\":4169:4181   */\n      mload\n        /* \"#utility.yul\":4159:4181   */\n      swap1\n      pop\n        /* \"#utility.yul\":4089:4188   */\n      swap2\n      swap1\n      pop\n      jump\t// out\n        /* \"#utility.yul\":4194:4363   */\n    tag_234:\n        /* \"#utility.yul\":4278:4289   */\n      0x00\n        /* \"#utility.yul\":4312:4318   */\n      dup3\n        /* \"#utility.yul\":4307:4310   */\n      dup3\n        /* \"#utility.yul\":4300:4319   */\n      mstore\n        /* \"#utility.yul\":4352:4356   */\n      0x20\n        /* \"#utility.yul\":4347:4350   */\n      dup3\n        /* \"#utility.yul\":4343:4357   */\n      add\n        /* \"#utility.yul\":4328:4357   */\n      swap1\n      pop\n        /* \"#utility.yul\":4194:4363   */\n      swap3\n      swap2\n      pop\n      pop\n      jump\t// out\n        /* \"#utility.yul\":4369:4508   */\n    tag_235:\n        /* \"#utility.yul\":4458:4464   */\n      dup3\n        /* \"#utility.yul\":4453:4456   */\n      dup2\n        /* \"#utility.yul\":4448:4451   */\n      dup4\n        /* \"#utility.yul\":4442:4465   */\n      mcopy\n        /* \"#utility.yul\":4499:4500   */\n      0x00\n        /* \"#utility.yul\":4490:4496   */\n      dup4\n        /* \"#utility.yul\":4485:4488   */\n      dup4\n        /* \"#utility.yul\":4481:4497   */\n      add\n        /* \"#utility.yul\":4474:4501   */\n      mstore\n        /* \"#utility.yul\":4369:4508   */\n      pop\n      pop\n      pop\n      jump\t// out\n        /* \"#utility.yul\":4514:4616   */\n    tag_236:\n        /* \"#utility.yul\":4555:4561   */\n      0x00\n        /* \"#utility.yul\":4606:4608   */\n      0x1f\n        /* \"#utility.yul\":4602:4609   */\n      not\n        /* \"#utility.yul\":4597:4599   */\n      0x1f\n        /* \"#utility.yul\":4590:4595   */\n      dup4\n        /* \"#utility.yul\":4586:4600   */\n      add\n        /* \"#utility.yul\":4582:4610   */\n      and\n        /* \"#utility.yul\":4572:4610   */\n      swap1\n      pop\n        /* \"#utility.yul\":4514:4616   */\n      swap2\n      swap1\n      pop\n      jump\t// out\n        /* \"#utility.yul\":4622:4999   */\n    tag_237:\n        /* \"#utility.yul\":4710:4713   */\n      0x00\n        /* \"#utility.yul\":4738:4777   */\n      tag_319\n        /* \"#utility.yul\":4771:4776   */\n      dup3\n        /* \"#utility.yul\":4738:4777   */\n      tag_233\n      jump\t// in\n    tag_319:\n        /* \"#utility.yul\":4793:4864   */\n      tag_320\n        /* \"#utility.yul\":4857:4863   */\n      dup2\n        /* \"#utility.yul\":4852:4855   */\n      dup6\n        /* \"#utility.yul\":4793:4864   */\n      tag_234\n      jump\t// in\n    tag_320:\n        /* \"#utility.yul\":4786:4864   */\n      swap4\n      pop\n        /* \"#utility.yul\":4873:4938   */\n      tag_321\n        /* \"#utility.yul\":4931:4937   */\n      dup2\n        /* \"#utility.yul\":4926:4929   */\n      dup6\n        /* \"#utility.yul\":4919:4923   */\n      0x20\n        /* \"#utility.yul\":4912:4917   */\n      dup7\n        /* \"#utility.yul\":4908:4924   */\n      add\n        /* \"#utility.yul\":4873:4938   */\n      tag_235\n      jump\t// in\n    tag_321:\n        /* \"#utility.yul\":4963:4992   */\n      tag_322\n        /* \"#utility.yul\":4985:4991   */\n      dup2\n        /* \"#utility.yul\":4963:4992   */\n      tag_236\n      jump\t// in\n    tag_322:\n        /* \"#utility.yul\":4958:4961   */\n      dup5\n        /* \"#utility.yul\":4954:4993   */\n      add\n        /* \"#utility.yul\":4947:4993   */\n      swap2\n      pop\n        /* \"#utility.yul\":4714:4999   */\n      pop\n        /* \"#utility.yul\":4622:4999   */\n      swap3\n      swap2\n      pop\n      pop\n      jump\t// out\n        /* \"#utility.yul\":5005:5318   */\n    tag_47:\n        /* \"#utility.yul\":5118:5122   */\n      0x00\n        /* \"#utility.yul\":5156:5158   */\n      0x20\n        /* \"#utility.yul\":5145:5154   */\n      dup3\n        /* \"#utility.yul\":5141:5159   */\n      add\n        /* \"#utility.yul\":5133:5159   */\n      swap1\n      pop\n        /* \"#utility.yul\":5205:5214   */\n      dup2\n        /* \"#utility.yul\":5199:5203   */\n      dup2\n        /* \"#utility.yul\":5195:5215   */\n      sub\n        /* \"#utility.yul\":5191:5192   */\n      0x00\n        /* \"#utility.yul\":5180:5189   */\n      dup4\n        /* \"#utility.yul\":5176:5193   */\n      add\n        /* \"#utility.yul\":5169:5216   */\n      mstore\n        /* \"#utility.yul\":5233:5311   */\n      tag_324\n        /* \"#utility.yul\":5306:5310   */\n      dup2\n        /* \"#utility.yul\":5297:5303   */\n      dup5\n        /* \"#utility.yul\":5233:5311   */\n      tag_237\n      jump\t// in\n    tag_324:\n        /* \"#utility.yul\":5225:5311   */\n      swap1\n      pop\n        /* \"#utility.yul\":5005:5318   */\n      swap3\n      swap2\n      pop\n      pop\n      jump\t// out\n        /* \"#utility.yul\":5324:6083   */\n    tag_58:\n        /* \"#utility.yul\":5407:5413   */\n      0x00\n        /* \"#utility.yul\":5415:5421   */\n      0x00\n        /* \"#utility.yul\":5423:5429   */\n      0x00\n        /* \"#utility.yul\":5431:5437   */\n      0x00\n        /* \"#utility.yul\":5480:5483   */\n      0x80\n        /* \"#utility.yul\":5468:5477   */\n      dup6\n        /* \"#utility.yul\":5459:5466   */\n      dup8\n        /* \"#utility.yul\":5455:5478   */\n      sub\n        /* \"#utility.yul\":5451:5484   */\n      slt\n        /* \"#utility.yul\":5448:5568   */\n      iszero\n      tag_326\n      jumpi\n        /* \"#utility.yul\":5487:5566   */\n      tag_327\n      tag_217\n      jump\t// in\n    tag_327:\n        /* \"#utility.yul\":5448:5568   */\n    tag_326:\n        /* \"#utility.yul\":5607:5608   */\n      0x00\n        /* \"#utility.yul\":5632:5682   */\n      tag_328\n        /* \"#utility.yul\":5674:5681   */\n      dup8\n        /* \"#utility.yul\":5665:5671   */\n      dup3\n        /* \"#utility.yul\":5654:5663   */\n      dup9\n        /* \"#utility.yul\":5650:5672   */\n      add\n        /* \"#utility.yul\":5632:5682   */\n      tag_221\n      jump\t// in\n    tag_328:\n        /* \"#utility.yul\":5622:5682   */\n      swap5\n      pop\n        /* \"#utility.yul\":5578:5692   */\n      pop\n        /* \"#utility.yul\":5731:5733   */\n      0x20\n        /* \"#utility.yul\":5757:5810   */\n      tag_329\n        /* \"#utility.yul\":5802:5809   */\n      dup8\n        /* \"#utility.yul\":5793:5799   */\n      dup3\n        /* \"#utility.yul\":5782:5791   */\n      dup9\n        /* \"#utility.yul\":5778:5800   */\n      add\n        /* \"#utility.yul\":5757:5810   */\n      tag_227\n      jump\t// in\n    tag_329:\n        /* \"#utility.yul\":5747:5810   */\n      swap4\n      pop\n        /* \"#utility.yul\":5702:5820   */\n      pop\n        /* \"#utility.yul\":5859:5861   */\n      0x40\n        /* \"#utility.yul\":5885:5938   */\n      tag_330\n        /* \"#utility.yul\":5930:5937   */\n      dup8\n        /* \"#utility.yul\":5921:5927   */\n      dup3\n        /* \"#utility.yul\":5910:5919   */\n      dup9\n        /* \"#utility.yul\":5906:5928   */\n      add\n        /* \"#utility.yul\":5885:5938   */\n      tag_227\n      jump\t// in\n    tag_330:\n        /* \"#utility.yul\":5875:5938   */\n      swap3\n      pop\n        /* \"#utility.yul\":5830:5948   */\n      pop\n        /* \"#utility.yul\":5987:5989   */\n      0x60\n        /* \"#utility.yul\":6013:6066   */\n      tag_331\n        /* \"#utility.yul\":6058:6065   */\n      dup8\n        /* \"#utility.yul\":6049:6055   */\n      dup3\n        /* \"#utility.yul\":6038:6047   */\n      dup9\n        /* \"#utility.yul\":6034:6056   */\n      add\n        /* \"#utility.yul\":6013:6066   */\n      tag_231\n      jump\t// in\n    tag_331:\n        /* \"#utility.yul\":6003:6066   */\n      swap2\n      pop\n        /* \"#utility.yul\":5958:6076   */\n      pop\n        /* \"#utility.yul\":5324:6083   */\n      swap3\n      swap6\n      swap2\n      swap5\n      pop\n      swap3\n      pop\n      jump\t// out\n        /* \"#utility.yul\":6089:6207   */\n    tag_238:\n        /* \"#utility.yul\":6176:6200   */\n      tag_333\n        /* \"#utility.yul\":6194:6199   */\n      dup2\n        /* \"#utility.yul\":6176:6200   */\n      tag_225\n      jump\t// in\n    tag_333:\n        /* \"#utility.yul\":6171:6174   */\n      dup3\n        /* \"#utility.yul\":6164:6201   */\n      mstore\n        /* \"#utility.yul\":6089:6207   */\n      pop\n      pop\n      jump\t// out\n        /* \"#utility.yul\":6213:6435   */\n    tag_64:\n        /* \"#utility.yul\":6306:6310   */\n      0x00\n        /* \"#utility.yul\":6344:6346   */\n      0x20\n        /* \"#utility.yul\":6333:6342   */\n      dup3\n        /* \"#utility.yul\":6329:6347   */\n      add\n        /* \"#utility.yul\":6321:6347   */\n      swap1\n      pop\n        /* \"#utility.yul\":6357:6428   */\n      tag_335\n        /* \"#utility.yul\":6425:6426   */\n      0x00\n        /* \"#utility.yul\":6414:6423   */\n      dup4\n        /* \"#utility.yul\":6410:6427   */\n      add\n        /* \"#utility.yul\":6401:6407   */\n      dup5\n        /* \"#utility.yul\":6357:6428   */\n      tag_238\n      jump\t// in\n    tag_335:\n        /* \"#utility.yul\":6213:6435   */\n      swap3\n      swap2\n      pop\n      pop\n      jump\t// out\n        /* \"#utility.yul\":6441:6770   */\n    tag_67:\n        /* \"#utility.yul\":6500:6506   */\n      0x00\n        /* \"#utility.yul\":6549:6551   */\n      0x20\n        /* \"#utility.yul\":6537:6546   */\n      dup3\n        /* \"#utility.yul\":6528:6535   */\n      dup5\n        /* \"#utility.yul\":6524:6547   */\n      sub\n        /* \"#utility.yul\":6520:6552   */\n      slt\n        /* \"#utility.yul\":6517:6636   */\n      iszero\n      tag_337\n      jumpi\n        /* \"#utility.yul\":6555:6634   */\n      tag_338\n      tag_217\n      jump\t// in\n    tag_338:\n        /* \"#utility.yul\":6517:6636   */\n    tag_337:\n        /* \"#utility.yul\":6675:6676   */\n      0x00\n        /* \"#utility.yul\":6700:6753   */\n      tag_339\n        /* \"#utility.yul\":6745:6752   */\n      dup5\n        /* \"#utility.yul\":6736:6742   */\n      dup3\n        /* \"#utility.yul\":6725:6734   */\n      dup6\n        /* \"#utility.yul\":6721:6743   */\n      add\n        /* \"#utility.yul\":6700:6753   */\n      tag_231\n      jump\t// in\n    tag_339:\n        /* \"#utility.yul\":6690:6753   */\n      swap2\n      pop\n        /* \"#utility.yul\":6646:6763   */\n      pop\n        /* \"#utility.yul\":6441:6770   */\n      swap3\n      swap2\n      pop\n      pop\n      jump\t// out\n        /* \"#utility.yul\":6776:7244   */\n    tag_71:\n        /* \"#utility.yul\":6841:6847   */\n      0x00\n        /* \"#utility.yul\":6849:6855   */\n      0x00\n        /* \"#utility.yul\":6898:6900   */\n      0x40\n        /* \"#utility.yul\":6886:6895   */\n      dup4\n        /* \"#utility.yul\":6877:6884   */\n      dup6\n        /* \"#utility.yul\":6873:6896   */\n      sub\n        /* \"#utility.yul\":6869:6901   */\n      slt\n        /* \"#utility.yul\":6866:6985   */\n      iszero\n      tag_341\n      jumpi\n        /* \"#utility.yul\":6904:6983   */\n      tag_342\n      tag_217\n      jump\t// in\n    tag_342:\n        /* \"#utility.yul\":6866:6985   */\n    tag_341:\n        /* \"#utility.yul\":7024:7025   */\n      0x00\n        /* \"#utility.yul\":7049:7099   */\n      tag_343\n        /* \"#utility.yul\":7091:7098   */\n      dup6\n        /* \"#utility.yul\":7082:7088   */\n      dup3\n        /* \"#utility.yul\":7071:7080   */\n      dup7\n        /* \"#utility.yul\":7067:7089   */\n      add\n        /* \"#utility.yul\":7049:7099   */\n      tag_221\n      jump\t// in\n    tag_343:\n        /* \"#utility.yul\":7039:7099   */\n      swap3\n      pop\n        /* \"#utility.yul\":6995:7109   */\n      pop\n        /* \"#utility.yul\":7148:7150   */\n      0x20\n        /* \"#utility.yul\":7174:7227   */\n      tag_344\n        /* \"#utility.yul\":7219:7226   */\n      dup6\n        /* \"#utility.yul\":7210:7216   */\n      dup3\n        /* \"#utility.yul\":7199:7208   */\n      dup7\n        /* \"#utility.yul\":7195:7217   */\n      add\n        /* \"#utility.yul\":7174:7227   */\n      tag_231\n      jump\t// in\n    tag_344:\n        /* \"#utility.yul\":7164:7227   */\n      swap2\n      pop\n        /* \"#utility.yul\":7119:7237   */\n      pop\n        /* \"#utility.yul\":6776:7244   */\n      swap3\n      pop\n      swap3\n      swap1\n      pop\n      jump\t// out\n        /* \"#utility.yul\":7250:7863   */\n    tag_85:\n        /* \"#utility.yul\":7324:7330   */\n      0x00\n        /* \"#utility.yul\":7332:7338   */\n      0x00\n        /* \"#utility.yul\":7340:7346   */\n      0x00\n        /* \"#utility.yul\":7389:7391   */\n      0x60\n        /* \"#utility.yul\":7377:7386   */\n      dup5\n        /* \"#utility.yul\":7368:7375   */\n      dup7\n        /* \"#utility.yul\":7364:7387   */\n      sub\n        /* \"#utility.yul\":7360:7392   */\n      slt\n        /* \"#utility.yul\":7357:7476   */\n      iszero\n      tag_346\n      jumpi\n        /* \"#utility.yul\":7395:7474   */\n      tag_347\n      tag_217\n      jump\t// in\n    tag_347:\n        /* \"#utility.yul\":7357:7476   */\n    tag_346:\n        /* \"#utility.yul\":7515:7516   */\n      0x00\n        /* \"#utility.yul\":7540:7590   */\n      tag_348\n        /* \"#utility.yul\":7582:7589   */\n      dup7\n        /* \"#utility.yul\":7573:7579   */\n      dup3\n        /* \"#utility.yul\":7562:7571   */\n      dup8\n        /* \"#utility.yul\":7558:7580   */\n      add\n        /* \"#utility.yul\":7540:7590   */\n      tag_221\n      jump\t// in\n    tag_348:\n        /* \"#utility.yul\":7530:7590   */\n      swap4\n      pop\n        /* \"#utility.yul\":7486:7600   */\n      pop\n        /* \"#utility.yul\":7639:7641   */\n      0x20\n        /* \"#utility.yul\":7665:7718   */\n      tag_349\n        /* \"#utility.yul\":7710:7717   */\n      dup7\n        /* \"#utility.yul\":7701:7707   */\n      dup3\n        /* \"#utility.yul\":7690:7699   */\n      dup8\n        /* \"#utility.yul\":7686:7708   */\n      add\n        /* \"#utility.yul\":7665:7718   */\n      tag_227\n      jump\t// in\n    tag_349:\n        /* \"#utility.yul\":7655:7718   */\n      swap3\n      pop\n        /* \"#utility.yul\":7610:7728   */\n      pop\n        /* \"#utility.yul\":7767:7769   */\n      0x40\n        /* \"#utility.yul\":7793:7846   */\n      tag_350\n        /* \"#utility.yul\":7838:7845   */\n      dup7\n        /* \"#utility.yul\":7829:7835   */\n      dup3\n        /* \"#utility.yul\":7818:7827   */\n      dup8\n        /* \"#utility.yul\":7814:7836   */\n      add\n        /* \"#utility.yul\":7793:7846   */\n      tag_227\n      jump\t// in\n    tag_350:\n        /* \"#utility.yul\":7783:7846   */\n      swap2\n      pop\n        /* \"#utility.yul\":7738:7856   */\n      pop\n        /* \"#utility.yul\":7250:7863   */\n      swap3\n      pop\n      swap3\n      pop\n      swap3\n      jump\t// out\n        /* \"#utility.yul\":7869:8198   */\n    tag_90:\n        /* \"#utility.yul\":7928:7934   */\n      0x00\n        /* \"#utility.yul\":7977:7979   */\n      0x20\n        /* \"#utility.yul\":7965:7974   */\n      dup3\n        /* \"#utility.yul\":7956:7963   */\n      dup5\n        /* \"#utility.yul\":7952:7975   */\n      sub\n        /* \"#utility.yul\":7948:7980   */\n      slt\n        /* \"#utility.yul\":7945:8064   */\n      iszero\n      tag_352\n      jumpi\n        /* \"#utility.yul\":7983:8062   */\n      tag_353\n      tag_217\n      jump\t// in\n    tag_353:\n        /* \"#utility.yul\":7945:8064   */\n    tag_352:\n        /* \"#utility.yul\":8103:8104   */\n      0x00\n        /* \"#utility.yul\":8128:8181   */\n      tag_354\n        /* \"#utility.yul\":8173:8180   */\n      dup5\n        /* \"#utility.yul\":8164:8170   */\n      dup3\n        /* \"#utility.yul\":8153:8162   */\n      dup6\n        /* \"#utility.yul\":8149:8171   */\n      add\n        /* \"#utility.yul\":8128:8181   */\n      tag_227\n      jump\t// in\n    tag_354:\n        /* \"#utility.yul\":8118:8181   */\n      swap2\n      pop\n        /* \"#utility.yul\":8074:8191   */\n      pop\n        /* \"#utility.yul\":7869:8198   */\n      swap3\n      swap2\n      pop\n      pop\n      jump\t// out\n        /* \"#utility.yul\":8204:8374   */\n    tag_239:\n        /* \"#utility.yul\":8344:8366   */\n      0x496e73756666696369656e742062616c616e6365000000000000000000000000\n        /* \"#utility.yul\":8340:8341   */\n      0x00\n        /* \"#utility.yul\":8332:8338   */\n      dup3\n        /* \"#utility.yul\":8328:8342   */\n      add\n        /* \"#utility.yul\":8321:8367   */\n      mstore\n        /* \"#utility.yul\":8204:8374   */\n      pop\n      jump\t// out\n        /* \"#utility.yul\":8380:8746   */\n    tag_240:\n        /* \"#utility.yul\":8522:8525   */\n      0x00\n        /* \"#utility.yul\":8543:8610   */\n      tag_357\n        /* \"#utility.yul\":8607:8609   */\n      0x14\n        /* \"#utility.yul\":8602:8605   */\n      dup4\n        /* \"#utility.yul\":8543:8610   */\n      tag_234\n      jump\t// in\n    tag_357:\n        /* \"#utility.yul\":8536:8610   */\n      swap2\n      pop\n        /* \"#utility.yul\":8619:8712   */\n      tag_358\n        /* \"#utility.yul\":8708:8711   */\n      dup3\n        /* \"#utility.yul\":8619:8712   */\n      tag_239\n      jump\t// in\n    tag_358:\n        /* \"#utility.yul\":8737:8739   */\n      0x20\n        /* \"#utility.yul\":8732:8735   */\n      dup3\n        /* \"#utility.yul\":8728:8740   */\n      add\n        /* \"#utility.yul\":8721:8740   */\n      swap1\n      pop\n        /* \"#utility.yul\":8380:8746   */\n      swap2\n      swap1\n      pop\n      jump\t// out\n        /* \"#utility.yul\":8752:9171   */\n    tag_103:\n        /* \"#utility.yul\":8918:8922   */\n      0x00\n        /* \"#utility.yul\":8956:8958   */\n      0x20\n        /* \"#utility.yul\":8945:8954   */\n      dup3\n        /* \"#utility.yul\":8941:8959   */\n      add\n        /* \"#utility.yul\":8933:8959   */\n      swap1\n      pop\n        /* \"#utility.yul\":9005:9014   */\n      dup2\n        /* \"#utility.yul\":8999:9003   */\n      dup2\n        /* \"#utility.yul\":8995:9015   */\n      sub\n        /* \"#utility.yul\":8991:8992   */\n      0x00\n        /* \"#utility.yul\":8980:8989   */\n      dup4\n        /* \"#utility.yul\":8976:8993   */\n      add\n        /* \"#utility.yul\":8969:9016   */\n      mstore\n        /* \"#utility.yul\":9033:9164   */\n      tag_360\n        /* \"#utility.yul\":9159:9163   */\n      dup2\n        /* \"#utility.yul\":9033:9164   */\n      tag_240\n      jump\t// in\n    tag_360:\n        /* \"#utility.yul\":9025:9164   */\n      swap1\n      pop\n        /* \"#utility.yul\":8752:9171   */\n      swap2\n      swap1\n      pop\n      jump\t// out\n        /* \"#utility.yul\":9177:9357   */\n    tag_241:\n        /* \"#utility.yul\":9225:9302   */\n      0x4e487b7100000000000000000000000000000000000000000000000000000000\n        /* \"#utility.yul\":9222:9223   */\n      0x00\n        /* \"#utility.yul\":9215:9303   */\n      mstore\n        /* \"#utility.yul\":9322:9326   */\n      0x11\n        /* \"#utility.yul\":9319:9320   */\n      0x04\n        /* \"#utility.yul\":9312:9327   */\n      mstore\n        /* \"#utility.yul\":9346:9350   */\n      0x24\n        /* \"#utility.yul\":9343:9344   */\n      0x00\n        /* \"#utility.yul\":9336:9351   */\n      revert\n        /* \"#utility.yul\":9363:9557   */\n    tag_105:\n        /* \"#utility.yul\":9403:9407   */\n      0x00\n        /* \"#utility.yul\":9423:9443   */\n      tag_363\n        /* \"#utility.yul\":9441:9442   */\n      dup3\n        /* \"#utility.yul\":9423:9443   */\n      tag_228\n      jump\t// in\n    tag_363:\n        /* \"#utility.yul\":9418:9443   */\n      swap2\n      pop\n        /* \"#utility.yul\":9457:9477   */\n      tag_364\n        /* \"#utility.yul\":9475:9476   */\n      dup4\n        /* \"#utility.yul\":9457:9477   */\n      tag_228\n      jump\t// in\n    tag_364:\n        /* \"#utility.yul\":9452:9477   */\n      swap3\n      pop\n        /* \"#utility.yul\":9501:9502   */\n      dup3\n        /* \"#utility.yul\":9498:9499   */\n      dup3\n        /* \"#utility.yul\":9494:9503   */\n      sub\n        /* \"#utility.yul\":9486:9503   */\n      swap1\n      pop\n        /* \"#utility.yul\":9525:9526   */\n      dup2\n        /* \"#utility.yul\":9519:9523   */\n      dup2\n        /* \"#utility.yul\":9516:9527   */\n      gt\n        /* \"#utility.yul\":9513:9550   */\n      iszero\n      tag_365\n      jumpi\n        /* \"#utility.yul\":9530:9548   */\n      tag_366\n      tag_241\n      jump\t// in\n    tag_366:\n        /* \"#utility.yul\":9513:9550   */\n    tag_365:\n        /* \"#utility.yul\":9363:9557   */\n      swap3\n      swap2\n      pop\n      pop\n      jump\t// out\n        /* \"#utility.yul\":9563:9754   */\n    tag_107:\n        /* \"#utility.yul\":9603:9606   */\n      0x00\n        /* \"#utility.yul\":9622:9642   */\n      tag_368\n        /* \"#utility.yul\":9640:9641   */\n      dup3\n        /* \"#utility.yul\":9622:9642   */\n      tag_228\n      jump\t// in\n    tag_368:\n        /* \"#utility.yul\":9617:9642   */\n      swap2\n      pop\n        /* \"#utility.yul\":9656:9676   */\n      tag_369\n        /* \"#utility.yul\":9674:9675   */\n      dup4\n        /* \"#utility.yul\":9656:9676   */\n      tag_228\n      jump\t// in\n    tag_369:\n        /* \"#utility.yul\":9651:9676   */\n      swap3\n      pop\n        /* \"#utility.yul\":9699:9700   */\n      dup3\n        /* \"#utility.yul\":9696:9697   */\n      dup3\n        /* \"#utility.yul\":9692:9701   */\n      add\n        /* \"#utility.yul\":9685:9701   */\n      swap1\n      pop\n        /* \"#utility.yul\":9720:9723   */\n      dup1\n        /* \"#utility.yul\":9717:9718   */\n      dup3\n        /* \"#utility.yul\":9714:9724   */\n      gt\n        /* \"#utility.yul\":9711:9747   */\n      iszero\n      tag_370\n      jumpi\n        /* \"#utility.yul\":9727:9745   */\n      tag_371\n      tag_241\n      jump\t// in\n    tag_371:\n        /* \"#utility.yul\":9711:9747   */\n    tag_370:\n        /* \"#utility.yul\":9563:9754   */\n      swap3\n      swap2\n      pop\n      pop\n      jump\t// out\n        /* \"#utility.yul\":9760:9940   */\n    tag_242:\n        /* \"#utility.yul\":9808:9885   */\n      0x4e487b7100000000000000000000000000000000000000000000000000000000\n        /* \"#utility.yul\":9805:9806   */\n      0x00\n        /* \"#utility.yul\":9798:9886   */\n      mstore\n        /* \"#utility.yul\":9905:9909   */\n      0x22\n        /* \"#utility.yul\":9902:9903   */\n      0x04\n        /* \"#utility.yul\":9895:9910   */\n      mstore\n        /* \"#utility.yul\":9929:9933   */\n      0x24\n        /* \"#utility.yul\":9926:9927   */\n      0x00\n        /* \"#utility.yul\":9919:9934   */\n      revert\n        /* \"#utility.yul\":9946:10266   */\n    tag_115:\n        /* \"#utility.yul\":9990:9996   */\n      0x00\n        /* \"#utility.yul\":10027:10028   */\n      0x02\n        /* \"#utility.yul\":10021:10025   */\n      dup3\n        /* \"#utility.yul\":10017:10029   */\n      div\n        /* \"#utility.yul\":10007:10029   */\n      swap1\n      pop\n        /* \"#utility.yul\":10074:10075   */\n      0x01\n        /* \"#utility.yul\":10068:10072   */\n      dup3\n        /* \"#utility.yul\":10064:10076   */\n      and\n        /* \"#utility.yul\":10095:10113   */\n      dup1\n        /* \"#utility.yul\":10085:10166   */\n      tag_374\n      jumpi\n        /* \"#utility.yul\":10151:10155   */\n      0x7f\n        /* \"#utility.yul\":10143:10149   */\n      dup3\n        /* \"#utility.yul\":10139:10156   */\n      and\n        /* \"#utility.yul\":10129:10156   */\n      swap2\n      pop\n        /* \"#utility.yul\":10085:10166   */\n    tag_374:\n        /* \"#utility.yul\":10213:10215   */\n      0x20\n        /* \"#utility.yul\":10205:10211   */\n      dup3\n        /* \"#utility.yul\":10202:10216   */\n      lt\n        /* \"#utility.yul\":10182:10200   */\n      dup2\n        /* \"#utility.yul\":10179:10217   */\n      sub\n        /* \"#utility.yul\":10176:10260   */\n      tag_375\n      jumpi\n        /* \"#utility.yul\":10232:10250   */\n      tag_376\n      tag_242\n      jump\t// in\n    tag_376:\n        /* \"#utility.yul\":10176:10260   */\n    tag_375:\n        /* \"#utility.yul\":9997:10266   */\n      pop\n        /* \"#utility.yul\":9946:10266   */\n      swap2\n      swap1\n      pop\n      jump\t// out\n        /* \"#utility.yul\":10272:10433   */\n    tag_243:\n        /* \"#utility.yul\":10412:10425   */\n      0x4e6f7420616c6c6f776564000000000000000000000000000000000000000000\n        /* \"#utility.yul\":10408:10409   */\n      0x00\n        /* \"#utility.yul\":10400:10406   */\n      dup3\n        /* \"#utility.yul\":10396:10410   */\n      add\n        /* \"#utility.yul\":10389:10426   */\n      mstore\n        /* \"#utility.yul\":10272:10433   */\n      pop\n      jump\t// out\n        /* \"#utility.yul\":10439:10805   */\n    tag_244:\n        /* \"#utility.yul\":10581:10584   */\n      0x00\n        /* \"#utility.yul\":10602:10669   */\n      tag_379\n        /* \"#utility.yul\":10666:10668   */\n      0x0b\n        /* \"#utility.yul\":10661:10664   */\n      dup4\n        /* \"#utility.yul\":10602:10669   */\n      tag_234\n      jump\t// in\n    tag_379:\n        /* \"#utility.yul\":10595:10669   */\n      swap2\n      pop\n        /* \"#utility.yul\":10678:10771   */\n      tag_380\n        /* \"#utility.yul\":10767:10770   */\n      dup3\n        /* \"#utility.yul\":10678:10771   */\n      tag_243\n      jump\t// in\n    tag_380:\n        /* \"#utility.yul\":10796:10798   */\n      0x20\n        /* \"#utility.yul\":10791:10794   */\n      dup3\n        /* \"#utility.yul\":10787:10799   */\n      add\n        /* \"#utility.yul\":10780:10799   */\n      swap1\n      pop\n        /* \"#utility.yul\":10439:10805   */\n      swap2\n      swap1\n      pop\n      jump\t// out\n        /* \"#utility.yul\":10811:11230   */\n    tag_136:\n        /* \"#utility.yul\":10977:10981   */\n      0x00\n        /* \"#utility.yul\":11015:11017   */\n      0x20\n        /* \"#utility.yul\":11004:11013   */\n      dup3\n        /* \"#utility.yul\":11000:11018   */\n      add\n        /* \"#utility.yul\":10992:11018   */\n      swap1\n      pop\n        /* \"#utility.yul\":11064:11073   */\n      dup2\n        /* \"#utility.yul\":11058:11062   */\n      dup2\n        /* \"#utility.yul\":11054:11074   */\n      sub\n        /* \"#utility.yul\":11050:11051   */\n      0x00\n        /* \"#utility.yul\":11039:11048   */\n      dup4\n        /* \"#utility.yul\":11035:11052   */\n      add\n        /* \"#utility.yul\":11028:11075   */\n      mstore\n        /* \"#utility.yul\":11092:11223   */\n      tag_382\n        /* \"#utility.yul\":11218:11222   */\n      dup2\n        /* \"#utility.yul\":11092:11223   */\n      tag_244\n      jump\t// in\n    tag_382:\n        /* \"#utility.yul\":11084:11223   */\n      swap1\n      pop\n        /* \"#utility.yul\":10811:11230   */\n      swap2\n      swap1\n      pop\n      jump\t// out\n        /* \"#utility.yul\":11236:11396   */\n    tag_245:\n        /* \"#utility.yul\":11376:11388   */\n      0x5a65726f20696e70757400000000000000000000000000000000000000000000\n        /* \"#utility.yul\":11372:11373   */\n      0x00\n        /* \"#utility.yul\":11364:11370   */\n      dup3\n        /* \"#utility.yul\":11360:11374   */\n      add\n        /* \"#utility.yul\":11353:11389   */\n      mstore\n        /* \"#utility.yul\":11236:11396   */\n      pop\n      jump\t// out\n        /* \"#utility.yul\":11402:11768   */\n    tag_246:\n        /* \"#utility.yul\":11544:11547   */\n      0x00\n        /* \"#utility.yul\":11565:11632   */\n      tag_385\n        /* \"#utility.yul\":11629:11631   */\n      0x0a\n        /* \"#utility.yul\":11624:11627   */\n      dup4\n        /* \"#utility.yul\":11565:11632   */\n      tag_234\n      jump\t// in\n    tag_385:\n        /* \"#utility.yul\":11558:11632   */\n      swap2\n      pop\n        /* \"#utility.yul\":11641:11734   */\n      tag_386\n        /* \"#utility.yul\":11730:11733   */\n      dup3\n        /* \"#utility.yul\":11641:11734   */\n      tag_245\n      jump\t// in\n    tag_386:\n        /* \"#utility.yul\":11759:11761   */\n      0x20\n        /* \"#utility.yul\":11754:11757   */\n      dup3\n        /* \"#utility.yul\":11750:11762   */\n      add\n        /* \"#utility.yul\":11743:11762   */\n      swap1\n      pop\n        /* \"#utility.yul\":11402:11768   */\n      swap2\n      swap1\n      pop\n      jump\t// out\n        /* \"#utility.yul\":11774:12193   */\n    tag_146:\n        /* \"#utility.yul\":11940:11944   */\n      0x00\n        /* \"#utility.yul\":11978:11980   */\n      0x20\n        /* \"#utility.yul\":11967:11976   */\n      dup3\n        /* \"#utility.yul\":11963:11981   */\n      add\n        /* \"#utility.yul\":11955:11981   */\n      swap1\n      pop\n        /* \"#utility.yul\":12027:12036   */\n      dup2\n        /* \"#utility.yul\":12021:12025   */\n      dup2\n        /* \"#utility.yul\":12017:12037   */\n      sub\n        /* \"#utility.yul\":12013:12014   */\n      0x00\n        /* \"#utility.yul\":12002:12011   */\n      dup4\n        /* \"#utility.yul\":11998:12015   */\n      add\n        /* \"#utility.yul\":11991:12038   */\n      mstore\n        /* \"#utility.yul\":12055:12186   */\n      tag_388\n        /* \"#utility.yul\":12181:12185   */\n      dup2\n        /* \"#utility.yul\":12055:12186   */\n      tag_246\n      jump\t// in\n    tag_388:\n        /* \"#utility.yul\":12047:12186   */\n      swap1\n      pop\n        /* \"#utility.yul\":11774:12193   */\n      swap2\n      swap1\n      pop\n      jump\t// out\n        /* \"#utility.yul\":12199:12368   */\n    tag_247:\n        /* \"#utility.yul\":12339:12360   */\n      0x496e73756666696369656e7420546f6b656e4100000000000000000000000000\n        /* \"#utility.yul\":12335:12336   */\n      0x00\n        /* \"#utility.yul\":12327:12333   */\n      dup3\n        /* \"#utility.yul\":12323:12337   */\n      add\n        /* \"#utility.yul\":12316:12361   */\n      mstore\n        /* \"#utility.yul\":12199:12368   */\n      pop\n      jump\t// out\n        /* \"#utility.yul\":12374:12740   */\n    tag_248:\n        /* \"#utility.yul\":12516:12519   */\n      0x00\n        /* \"#utility.yul\":12537:12604   */\n      tag_391\n        /* \"#utility.yul\":12601:12603   */\n      0x13\n        /* \"#utility.yul\":12596:12599   */\n      dup4\n        /* \"#utility.yul\":12537:12604   */\n      tag_234\n      jump\t// in\n    tag_391:\n        /* \"#utility.yul\":12530:12604   */\n      swap2\n      pop\n        /* \"#utility.yul\":12613:12706   */\n      tag_392\n        /* \"#utility.yul\":12702:12705   */\n      dup3\n        /* \"#utility.yul\":12613:12706   */\n      tag_247\n      jump\t// in\n    tag_392:\n        /* \"#utility.yul\":12731:12733   */\n      0x20\n        /* \"#utility.yul\":12726:12729   */\n      dup3\n        /* \"#utility.yul\":12722:12734   */\n      add\n        /* \"#utility.yul\":12715:12734   */\n      swap1\n      pop\n        /* \"#utility.yul\":12374:12740   */\n      swap2\n      swap1\n      pop\n      jump\t// out\n        /* \"#utility.yul\":12746:13165   */\n    tag_149:\n        /* \"#utility.yul\":12912:12916   */\n      0x00\n        /* \"#utility.yul\":12950:12952   */\n      0x20\n        /* \"#utility.yul\":12939:12948   */\n      dup3\n        /* \"#utility.yul\":12935:12953   */\n      add\n        /* \"#utility.yul\":12927:12953   */\n      swap1\n      pop\n        /* \"#utility.yul\":12999:13008   */\n      dup2\n        /* \"#utility.yul\":12993:12997   */\n      dup2\n        /* \"#utility.yul\":12989:13009   */\n      sub\n        /* \"#utility.yul\":12985:12986   */\n      0x00\n        /* \"#utility.yul\":12974:12983   */\n      dup4\n        /* \"#utility.yul\":12970:12987   */\n      add\n        /* \"#utility.yul\":12963:13010   */\n      mstore\n        /* \"#utility.yul\":13027:13158   */\n      tag_394\n        /* \"#utility.yul\":13153:13157   */\n      dup2\n        /* \"#utility.yul\":13027:13158   */\n      tag_248\n      jump\t// in\n    tag_394:\n        /* \"#utility.yul\":13019:13158   */\n      swap1\n      pop\n        /* \"#utility.yul\":12746:13165   */\n      swap2\n      swap1\n      pop\n      jump\t// out\n        /* \"#utility.yul\":13171:13340   */\n    tag_249:\n        /* \"#utility.yul\":13311:13332   */\n      0x546f6b656e41206e6f7420617070726f76656400000000000000000000000000\n        /* \"#utility.yul\":13307:13308   */\n      0x00\n        /* \"#utility.yul\":13299:13305   */\n      dup3\n        /* \"#utility.yul\":13295:13309   */\n      add\n        /* \"#utility.yul\":13288:13333   */\n      mstore\n        /* \"#utility.yul\":13171:13340   */\n      pop\n      jump\t// out\n        /* \"#utility.yul\":13346:13712   */\n    tag_250:\n        /* \"#utility.yul\":13488:13491   */\n      0x00\n        /* \"#utility.yul\":13509:13576   */\n      tag_397\n        /* \"#utility.yul\":13573:13575   */\n      0x13\n        /* \"#utility.yul\":13568:13571   */\n      dup4\n        /* \"#utility.yul\":13509:13576   */\n      tag_234\n      jump\t// in\n    tag_397:\n        /* \"#utility.yul\":13502:13576   */\n      swap2\n      pop\n        /* \"#utility.yul\":13585:13678   */\n      tag_398\n        /* \"#utility.yul\":13674:13677   */\n      dup3\n        /* \"#utility.yul\":13585:13678   */\n      tag_249\n      jump\t// in\n    tag_398:\n        /* \"#utility.yul\":13703:13705   */\n      0x20\n        /* \"#utility.yul\":13698:13701   */\n      dup3\n        /* \"#utility.yul\":13694:13706   */\n      add\n        /* \"#utility.yul\":13687:13706   */\n      swap1\n      pop\n        /* \"#utility.yul\":13346:13712   */\n      swap2\n      swap1\n      pop\n      jump\t// out\n        /* \"#utility.yul\":13718:14137   */\n    tag_152:\n        /* \"#utility.yul\":13884:13888   */\n      0x00\n        /* \"#utility.yul\":13922:13924   */\n      0x20\n        /* \"#utility.yul\":13911:13920   */\n      dup3\n        /* \"#utility.yul\":13907:13925   */\n      add\n        /* \"#utility.yul\":13899:13925   */\n      swap1\n      pop\n        /* \"#utility.yul\":13971:13980   */\n      dup2\n        /* \"#utility.yul\":13965:13969   */\n      dup2\n        /* \"#utility.yul\":13961:13981   */\n      sub\n        /* \"#utility.yul\":13957:13958   */\n      0x00\n        /* \"#utility.yul\":13946:13955   */\n      dup4\n        /* \"#utility.yul\":13942:13959   */\n      add\n        /* \"#utility.yul\":13935:13982   */\n      mstore\n        /* \"#utility.yul\":13999:14130   */\n      tag_400\n        /* \"#utility.yul\":14125:14129   */\n      dup2\n        /* \"#utility.yul\":13999:14130   */\n      tag_250\n      jump\t// in\n    tag_400:\n        /* \"#utility.yul\":13991:14130   */\n      swap1\n      pop\n        /* \"#utility.yul\":13718:14137   */\n      swap2\n      swap1\n      pop\n      jump\t// out\n        /* \"#utility.yul\":14143:14553   */\n    tag_154:\n        /* \"#utility.yul\":14183:14190   */\n      0x00\n        /* \"#utility.yul\":14206:14226   */\n      tag_402\n        /* \"#utility.yul\":14224:14225   */\n      dup3\n        /* \"#utility.yul\":14206:14226   */\n      tag_228\n      jump\t// in\n    tag_402:\n        /* \"#utility.yul\":14201:14226   */\n      swap2\n      pop\n        /* \"#utility.yul\":14240:14260   */\n      tag_403\n        /* \"#utility.yul\":14258:14259   */\n      dup4\n        /* \"#utility.yul\":14240:14260   */\n      tag_228\n      jump\t// in\n    tag_403:\n        /* \"#utility.yul\":14235:14260   */\n      swap3\n      pop\n        /* \"#utility.yul\":14295:14296   */\n      dup3\n        /* \"#utility.yul\":14292:14293   */\n      dup3\n        /* \"#utility.yul\":14288:14297   */\n      mul\n        /* \"#utility.yul\":14317:14347   */\n      tag_404\n        /* \"#utility.yul\":14335:14346   */\n      dup2\n        /* \"#utility.yul\":14317:14347   */\n      tag_228\n      jump\t// in\n    tag_404:\n        /* \"#utility.yul\":14306:14347   */\n      swap2\n      pop\n        /* \"#utility.yul\":14496:14497   */\n      dup3\n        /* \"#utility.yul\":14487:14494   */\n      dup3\n        /* \"#utility.yul\":14483:14498   */\n      div\n        /* \"#utility.yul\":14480:14481   */\n      dup5\n        /* \"#utility.yul\":14477:14499   */\n      eq\n        /* \"#utility.yul\":14457:14458   */\n      dup4\n        /* \"#utility.yul\":14450:14459   */\n      iszero\n        /* \"#utility.yul\":14430:14513   */\n      or\n        /* \"#utility.yul\":14407:14546   */\n      tag_405\n      jumpi\n        /* \"#utility.yul\":14526:14544   */\n      tag_406\n      tag_241\n      jump\t// in\n    tag_406:\n        /* \"#utility.yul\":14407:14546   */\n    tag_405:\n        /* \"#utility.yul\":14191:14553   */\n      pop\n        /* \"#utility.yul\":14143:14553   */\n      swap3\n      swap2\n      pop\n      pop\n      jump\t// out\n        /* \"#utility.yul\":14559:14739   */\n    tag_251:\n        /* \"#utility.yul\":14607:14684   */\n      0x4e487b7100000000000000000000000000000000000000000000000000000000\n        /* \"#utility.yul\":14604:14605   */\n      0x00\n        /* \"#utility.yul\":14597:14685   */\n      mstore\n        /* \"#utility.yul\":14704:14708   */\n      0x12\n        /* \"#utility.yul\":14701:14702   */\n      0x04\n        /* \"#utility.yul\":14694:14709   */\n      mstore\n        /* \"#utility.yul\":14728:14732   */\n      0x24\n        /* \"#utility.yul\":14725:14726   */\n      0x00\n        /* \"#utility.yul\":14718:14733   */\n      revert\n        /* \"#utility.yul\":14745:14930   */\n    tag_156:\n        /* \"#utility.yul\":14785:14786   */\n      0x00\n        /* \"#utility.yul\":14802:14822   */\n      tag_409\n        /* \"#utility.yul\":14820:14821   */\n      dup3\n        /* \"#utility.yul\":14802:14822   */\n      tag_228\n      jump\t// in\n    tag_409:\n        /* \"#utility.yul\":14797:14822   */\n      swap2\n      pop\n        /* \"#utility.yul\":14836:14856   */\n      tag_410\n        /* \"#utility.yul\":14854:14855   */\n      dup4\n        /* \"#utility.yul\":14836:14856   */\n      tag_228\n      jump\t// in\n    tag_410:\n        /* \"#utility.yul\":14831:14856   */\n      swap3\n      pop\n        /* \"#utility.yul\":14875:14876   */\n      dup3\n        /* \"#utility.yul\":14865:14900   */\n      tag_411\n      jumpi\n        /* \"#utility.yul\":14880:14898   */\n      tag_412\n      tag_251\n      jump\t// in\n    tag_412:\n        /* \"#utility.yul\":14865:14900   */\n    tag_411:\n        /* \"#utility.yul\":14922:14923   */\n      dup3\n        /* \"#utility.yul\":14919:14920   */\n      dup3\n        /* \"#utility.yul\":14915:14924   */\n      div\n        /* \"#utility.yul\":14910:14924   */\n      swap1\n      pop\n        /* \"#utility.yul\":14745:14930   */\n      swap3\n      swap2\n      pop\n      pop\n      jump\t// out\n        /* \"#utility.yul\":14936:15117   */\n    tag_252:\n        /* \"#utility.yul\":15076:15109   */\n      0x496e73756666696369656e7420546f6b656e4220696e20636f6e747261637400\n        /* \"#utility.yul\":15072:15073   */\n      0x00\n        /* \"#utility.yul\":15064:15070   */\n      dup3\n        /* \"#utility.yul\":15060:15074   */\n      add\n        /* \"#utility.yul\":15053:15110   */\n      mstore\n        /* \"#utility.yul\":14936:15117   */\n      pop\n      jump\t// out\n        /* \"#utility.yul\":15123:15489   */\n    tag_253:\n        /* \"#utility.yul\":15265:15268   */\n      0x00\n        /* \"#utility.yul\":15286:15353   */\n      tag_415\n        /* \"#utility.yul\":15350:15352   */\n      0x1f\n        /* \"#utility.yul\":15345:15348   */\n      dup4\n        /* \"#utility.yul\":15286:15353   */\n      tag_234\n      jump\t// in\n    tag_415:\n        /* \"#utility.yul\":15279:15353   */\n      swap2\n      pop\n        /* \"#utility.yul\":15362:15455   */\n      tag_416\n        /* \"#utility.yul\":15451:15454   */\n      dup3\n        /* \"#utility.yul\":15362:15455   */\n      tag_252\n      jump\t// in\n    tag_416:\n        /* \"#utility.yul\":15480:15482   */\n      0x20\n        /* \"#utility.yul\":15475:15478   */\n      dup3\n        /* \"#utility.yul\":15471:15483   */\n      add\n        /* \"#utility.yul\":15464:15483   */\n      swap1\n      pop\n        /* \"#utility.yul\":15123:15489   */\n      swap2\n      swap1\n      pop\n      jump\t// out\n        /* \"#utility.yul\":15495:15914   */\n    tag_159:\n        /* \"#utility.yul\":15661:15665   */\n      0x00\n        /* \"#utility.yul\":15699:15701   */\n      0x20\n        /* \"#utility.yul\":15688:15697   */\n      dup3\n        /* \"#utility.yul\":15684:15702   */\n      add\n        /* \"#utility.yul\":15676:15702   */\n      swap1\n      pop\n        /* \"#utility.yul\":15748:15757   */\n      dup2\n        /* \"#utility.yul\":15742:15746   */\n      dup2\n        /* \"#utility.yul\":15738:15758   */\n      sub\n        /* \"#utility.yul\":15734:15735   */\n      0x00\n        /* \"#utility.yul\":15723:15732   */\n      dup4\n        /* \"#utility.yul\":15719:15736   */\n      add\n        /* \"#utility.yul\":15712:15759   */\n      mstore\n        /* \"#utility.yul\":15776:15907   */\n      tag_418\n        /* \"#utility.yul\":15902:15906   */\n      dup2\n        /* \"#utility.yul\":15776:15907   */\n      tag_253\n      jump\t// in\n    tag_418:\n        /* \"#utility.yul\":15768:15907   */\n      swap1\n      pop\n        /* \"#utility.yul\":15495:15914   */\n      swap2\n      swap1\n      pop\n      jump\t// out\n        /* \"#utility.yul\":15920:16252   */\n    tag_166:\n        /* \"#utility.yul\":16041:16045   */\n      0x00\n        /* \"#utility.yul\":16079:16081   */\n      0x40\n        /* \"#utility.yul\":16068:16077   */\n      dup3\n        /* \"#utility.yul\":16064:16082   */\n      add\n        /* \"#utility.yul\":16056:16082   */\n      swap1\n      pop\n        /* \"#utility.yul\":16092:16163   */\n      tag_420\n        /* \"#utility.yul\":16160:16161   */\n      0x00\n        /* \"#utility.yul\":16149:16158   */\n      dup4\n        /* \"#utility.yul\":16145:16162   */\n      add\n        /* \"#utility.yul\":16136:16142   */\n      dup6\n        /* \"#utility.yul\":16092:16163   */\n      tag_229\n      jump\t// in\n    tag_420:\n        /* \"#utility.yul\":16173:16245   */\n      tag_421\n        /* \"#utility.yul\":16241:16243   */\n      0x20\n        /* \"#utility.yul\":16230:16239   */\n      dup4\n        /* \"#utility.yul\":16226:16244   */\n      add\n        /* \"#utility.yul\":16217:16223   */\n      dup5\n        /* \"#utility.yul\":16173:16245   */\n      tag_229\n      jump\t// in\n    tag_421:\n        /* \"#utility.yul\":15920:16252   */\n      swap4\n      swap3\n      pop\n      pop\n      pop\n      jump\t// out\n        /* \"#utility.yul\":16258:16417   */\n    tag_254:\n        /* \"#utility.yul\":16398:16409   */\n      0x4e6f74206f776e65720000000000000000000000000000000000000000000000\n        /* \"#utility.yul\":16394:16395   */\n      0x00\n        /* \"#utility.yul\":16386:16392   */\n      dup3\n        /* \"#utility.yul\":16382:16396   */\n      add\n        /* \"#utility.yul\":16375:16410   */\n      mstore\n        /* \"#utility.yul\":16258:16417   */\n      pop\n      jump\t// out\n        /* \"#utility.yul\":16423:16788   */\n    tag_255:\n        /* \"#utility.yul\":16565:16568   */\n      0x00\n        /* \"#utility.yul\":16586:16652   */\n      tag_424\n        /* \"#utility.yul\":16650:16651   */\n      0x09\n        /* \"#utility.yul\":16645:16648   */\n      dup4\n        /* \"#utility.yul\":16586:16652   */\n      tag_234\n      jump\t// in\n    tag_424:\n        /* \"#utility.yul\":16579:16652   */\n      swap2\n      pop\n        /* \"#utility.yul\":16661:16754   */\n      tag_425\n        /* \"#utility.yul\":16750:16753   */\n      dup3\n        /* \"#utility.yul\":16661:16754   */\n      tag_254\n      jump\t// in\n    tag_425:\n        /* \"#utility.yul\":16779:16781   */\n      0x20\n        /* \"#utility.yul\":16774:16777   */\n      dup3\n        /* \"#utility.yul\":16770:16782   */\n      add\n        /* \"#utility.yul\":16763:16782   */\n      swap1\n      pop\n        /* \"#utility.yul\":16423:16788   */\n      swap2\n      swap1\n      pop\n      jump\t// out\n        /* \"#utility.yul\":16794:17213   */\n    tag_170:\n        /* \"#utility.yul\":16960:16964   */\n      0x00\n        /* \"#utility.yul\":16998:17000   */\n      0x20\n        /* \"#utility.yul\":16987:16996   */\n      dup3\n        /* \"#utility.yul\":16983:17001   */\n      add\n        /* \"#utility.yul\":16975:17001   */\n      swap1\n      pop\n        /* \"#utility.yul\":17047:17056   */\n      dup2\n        /* \"#utility.yul\":17041:17045   */\n      dup2\n        /* \"#utility.yul\":17037:17057   */\n      sub\n        /* \"#utility.yul\":17033:17034   */\n      0x00\n        /* \"#utility.yul\":17022:17031   */\n      dup4\n        /* \"#utility.yul\":17018:17035   */\n      add\n        /* \"#utility.yul\":17011:17058   */\n      mstore\n        /* \"#utility.yul\":17075:17206   */\n      tag_427\n        /* \"#utility.yul\":17201:17205   */\n      dup2\n        /* \"#utility.yul\":17075:17206   */\n      tag_255\n      jump\t// in\n    tag_427:\n        /* \"#utility.yul\":17067:17206   */\n      swap1\n      pop\n        /* \"#utility.yul\":16794:17213   */\n      swap2\n      swap1\n      pop\n      jump\t// out\n        /* \"#utility.yul\":17219:17387   */\n    tag_256:\n        /* \"#utility.yul\":17359:17379   */\n      0x496e73756666696369656e742066756e64730000000000000000000000000000\n        /* \"#utility.yul\":17355:17356   */\n      0x00\n        /* \"#utility.yul\":17347:17353   */\n      dup3\n        /* \"#utility.yul\":17343:17357   */\n      add\n        /* \"#utility.yul\":17336:17380   */\n      mstore\n        /* \"#utility.yul\":17219:17387   */\n      pop\n      jump\t// out\n        /* \"#utility.yul\":17393:17759   */\n    tag_257:\n        /* \"#utility.yul\":17535:17538   */\n      0x00\n        /* \"#utility.yul\":17556:17623   */\n      tag_430\n        /* \"#utility.yul\":17620:17622   */\n      0x12\n        /* \"#utility.yul\":17615:17618   */\n      dup4\n        /* \"#utility.yul\":17556:17623   */\n      tag_234\n      jump\t// in\n    tag_430:\n        /* \"#utility.yul\":17549:17623   */\n      swap2\n      pop\n        /* \"#utility.yul\":17632:17725   */\n      tag_431\n        /* \"#utility.yul\":17721:17724   */\n      dup3\n        /* \"#utility.yul\":17632:17725   */\n      tag_256\n      jump\t// in\n    tag_431:\n        /* \"#utility.yul\":17750:17752   */\n      0x20\n        /* \"#utility.yul\":17745:17748   */\n      dup3\n        /* \"#utility.yul\":17741:17753   */\n      add\n        /* \"#utility.yul\":17734:17753   */\n      swap1\n      pop\n        /* \"#utility.yul\":17393:17759   */\n      swap2\n      swap1\n      pop\n      jump\t// out\n        /* \"#utility.yul\":17765:18184   */\n    tag_176:\n        /* \"#utility.yul\":17931:17935   */\n      0x00\n        /* \"#utility.yul\":17969:17971   */\n      0x20\n        /* \"#utility.yul\":17958:17967   */\n      dup3\n        /* \"#utility.yul\":17954:17972   */\n      add\n        /* \"#utility.yul\":17946:17972   */\n      swap1\n      pop\n        /* \"#utility.yul\":18018:18027   */\n      dup2\n        /* \"#utility.yul\":18012:18016   */\n      dup2\n        /* \"#utility.yul\":18008:18028   */\n      sub\n        /* \"#utility.yul\":18004:18005   */\n      0x00\n        /* \"#utility.yul\":17993:18002   */\n      dup4\n        /* \"#utility.yul\":17989:18006   */\n      add\n        /* \"#utility.yul\":17982:18029   */\n      mstore\n        /* \"#utility.yul\":18046:18177   */\n      tag_433\n        /* \"#utility.yul\":18172:18176   */\n      dup2\n        /* \"#utility.yul\":18046:18177   */\n      tag_257\n      jump\t// in\n    tag_433:\n        /* \"#utility.yul\":18038:18177   */\n      swap1\n      pop\n        /* \"#utility.yul\":17765:18184   */\n      swap2\n      swap1\n      pop\n      jump\t// out\n        /* \"#utility.yul\":18190:18349   */\n    tag_258:\n        /* \"#utility.yul\":18330:18341   */\n      0x5a65726f20726174650000000000000000000000000000000000000000000000\n        /* \"#utility.yul\":18326:18327   */\n      0x00\n        /* \"#utility.yul\":18318:18324   */\n      dup3\n        /* \"#utility.yul\":18314:18328   */\n      add\n        /* \"#utility.yul\":18307:18342   */\n      mstore\n        /* \"#utility.yul\":18190:18349   */\n      pop\n      jump\t// out\n        /* \"#utility.yul\":18355:18720   */\n    tag_259:\n        /* \"#utility.yul\":18497:18500   */\n      0x00\n        /* \"#utility.yul\":18518:18584   */\n      tag_436\n        /* \"#utility.yul\":18582:18583   */\n      0x09\n        /* \"#utility.yul\":18577:18580   */\n      dup4\n        /* \"#utility.yul\":18518:18584   */\n      tag_234\n      jump\t// in\n    tag_436:\n        /* \"#utility.yul\":18511:18584   */\n      swap2\n      pop\n        /* \"#utility.yul\":18593:18686   */\n      tag_437\n        /* \"#utility.yul\":18682:18685   */\n      dup3\n        /* \"#utility.yul\":18593:18686   */\n      tag_258\n      jump\t// in\n    tag_437:\n        /* \"#utility.yul\":18711:18713   */\n      0x20\n        /* \"#utility.yul\":18706:18709   */\n      dup3\n        /* \"#utility.yul\":18702:18714   */\n      add\n        /* \"#utility.yul\":18695:18714   */\n      swap1\n      pop\n        /* \"#utility.yul\":18355:18720   */\n      swap2\n      swap1\n      pop\n      jump\t// out\n        /* \"#utility.yul\":18726:19145   */\n    tag_193:\n        /* \"#utility.yul\":18892:18896   */\n      0x00\n        /* \"#utility.yul\":18930:18932   */\n      0x20\n        /* \"#utility.yul\":18919:18928   */\n      dup3\n        /* \"#utility.yul\":18915:18933   */\n      add\n        /* \"#utility.yul\":18907:18933   */\n      swap1\n      pop\n        /* \"#utility.yul\":18979:18988   */\n      dup2\n        /* \"#utility.yul\":18973:18977   */\n      dup2\n        /* \"#utility.yul\":18969:18989   */\n      sub\n        /* \"#utility.yul\":18965:18966   */\n      0x00\n        /* \"#utility.yul\":18954:18963   */\n      dup4\n        /* \"#utility.yul\":18950:18967   */\n      add\n        /* \"#utility.yul\":18943:18990   */\n      mstore\n        /* \"#utility.yul\":19007:19138   */\n      tag_439\n        /* \"#utility.yul\":19133:19137   */\n      dup2\n        /* \"#utility.yul\":19007:19138   */\n      tag_259\n      jump\t// in\n    tag_439:\n        /* \"#utility.yul\":18999:19138   */\n      swap1\n      pop\n        /* \"#utility.yul\":18726:19145   */\n      swap2\n      swap1\n      pop\n      jump\t// out\n        /* \"#utility.yul\":19151:19313   */\n    tag_260:\n        /* \"#utility.yul\":19291:19305   */\n      0x5a65726f20616464726573730000000000000000000000000000000000000000\n        /* \"#utility.yul\":19287:19288   */\n      0x00\n        /* \"#utility.yul\":19279:19285   */\n      dup3\n        /* \"#utility.yul\":19275:19289   */\n      add\n        /* \"#utility.yul\":19268:19306   */\n      mstore\n        /* \"#utility.yul\":19151:19313   */\n      pop\n      jump\t// out\n        /* \"#utility.yul\":19319:19685   */\n    tag_261:\n        /* \"#utility.yul\":19461:19464   */\n      0x00\n        /* \"#utility.yul\":19482:19549   */\n      tag_442\n        /* \"#utility.yul\":19546:19548   */\n      0x0c\n        /* \"#utility.yul\":19541:19544   */\n      dup4\n        /* \"#utility.yul\":19482:19549   */\n      tag_234\n      jump\t// in\n    tag_442:\n        /* \"#utility.yul\":19475:19549   */\n      swap2\n      pop\n        /* \"#utility.yul\":19558:19651   */\n      tag_443\n        /* \"#utility.yul\":19647:19650   */\n      dup3\n        /* \"#utility.yul\":19558:19651   */\n      tag_260\n      jump\t// in\n    tag_443:\n        /* \"#utility.yul\":19676:19678   */\n      0x20\n        /* \"#utility.yul\":19671:19674   */\n      dup3\n        /* \"#utility.yul\":19667:19679   */\n      add\n        /* \"#utility.yul\":19660:19679   */\n      swap1\n      pop\n        /* \"#utility.yul\":19319:19685   */\n      swap2\n      swap1\n      pop\n      jump\t// out\n        /* \"#utility.yul\":19691:20110   */\n    tag_215:\n        /* \"#utility.yul\":19857:19861   */\n      0x00\n        /* \"#utility.yul\":19895:19897   */\n      0x20\n        /* \"#utility.yul\":19884:19893   */\n      dup3\n        /* \"#utility.yul\":19880:19898   */\n      add\n        /* \"#utility.yul\":19872:19898   */\n      swap1\n      pop\n        /* \"#utility.yul\":19944:19953   */\n      dup2\n        /* \"#utility.yul\":19938:19942   */\n      dup2\n        /* \"#utility.yul\":19934:19954   */\n      sub\n        /* \"#utility.yul\":19930:19931   */\n      0x00\n        /* \"#utility.yul\":19919:19928   */\n      dup4\n        /* \"#utility.yul\":19915:19932   */\n      add\n        /* \"#utility.yul\":19908:19955   */\n      mstore\n        /* \"#utility.yul\":19972:20103   */\n      tag_445\n        /* \"#utility.yul\":20098:20102   */\n      dup2\n        /* \"#utility.yul\":19972:20103   */\n      tag_261\n      jump\t// in\n    tag_445:\n        /* \"#utility.yul\":19964:20103   */\n      swap1\n      pop\n        /* \"#utility.yul\":19691:20110   */\n      swap2\n      swap1\n      pop\n      jump\t// out\n\n    auxdata: 0xa26469706673582212202467ac00fb93951b63b703d95602833922a0fc00056df047ce277218a13210eb64736f6c634300081e0033\n}\n",
				"bytecode": {
					"linkReferences": {},
					"object": "608060405234801561000f575f5ffd5b506040516127d73803806127d7833981810160405281019061003191906102df565b5f8111610073576040517f08c379a000000000000000000000000000000000000000000000000000000000815260040161006a90610364565b60405180910390fd5b33600c5f6101000a81548173ffffffffffffffffffffffffffffffffffffffff021916908373ffffffffffffffffffffffffffffffffffffffff1602179055503373ffffffffffffffffffffffffffffffffffffffff165f73ffffffffffffffffffffffffffffffffffffffff167f8be0079c531659141344cd1fd0a4f28419497f9722a3daafe3b4186f6b6457e060405160405180910390a36040518060400160405280600681526020017f546f6b656e4100000000000000000000000000000000000000000000000000008152505f5f01908161015291906105b6565b506040518060400160405280600381526020017f544b4100000000000000000000000000000000000000000000000000000000008152505f600101908161019991906105b6565b5060125f6002015f6101000a81548160ff021916908360ff1602179055506040518060400160405280600681526020017f546f6b656e42000000000000000000000000000000000000000000000000000081525060065f0190816101fd91906105b6565b506040518060400160405280600381526020017f544b4200000000000000000000000000000000000000000000000000000000008152506006600101908161024591906105b6565b50601260066002015f6101000a81548160ff021916908360ff16021790555080600d819055507f388f446e9526fe5c9af20a5919b342370c8a7c0cb05245afe1e545658fa3cdba8160405161029a9190610694565b60405180910390a1506106ad565b5f5ffd5b5f819050919050565b6102be816102ac565b81146102c8575f5ffd5b50565b5f815190506102d9816102b5565b92915050565b5f602082840312156102f4576102f36102a8565b5b5f610301848285016102cb565b91505092915050565b5f82825260208201905092915050565b7f496e76616c6964207261746500000000000000000000000000000000000000005f82015250565b5f61034e600c8361030a565b91506103598261031a565b602082019050919050565b5f6020820190508181035f83015261037b81610342565b9050919050565b5f81519050919050565b7f4e487b71000000000000000000000000000000000000000000000000000000005f52604160045260245ffd5b7f4e487b71000000000000000000000000000000000000000000000000000000005f52602260045260245ffd5b5f60028204905060018216806103fd57607f821691505b6020821081036104105761040f6103b9565b5b50919050565b5f819050815f5260205f209050919050565b5f6020601f8301049050919050565b5f82821b905092915050565b5f600883026104727fffffffffffffffffffffffffffffffffffffffffffffffffffffffffffffffff82610437565b61047c8683610437565b95508019841693508086168417925050509392505050565b5f819050919050565b5f6104b76104b26104ad846102ac565b610494565b6102ac565b9050919050565b5f819050919050565b6104d08361049d565b6104e46104dc826104be565b848454610443565b825550505050565b5f5f905090565b6104fb6104ec565b6105068184846104c7565b505050565b5b818110156105295761051e5f826104f3565b60018101905061050c565b5050565b601f82111561056e5761053f81610416565b61054884610428565b81016020851015610557578190505b61056b61056385610428565b83018261050b565b50505b505050565b5f82821c905092915050565b5f61058e5f1984600802610573565b1980831691505092915050565b5f6105a6838361057f565b9150826002028217905092915050565b6105bf82610382565b67ffffffffffffffff8111156105d8576105d761038c565b5b6105e282546103e6565b6105ed82828561052d565b5f60209050601f83116001811461061e575f841561060c578287015190505b610616858261059b565b86555061067d565b601f19841661062c86610416565b5f5b828110156106535784890151825560018201915060208501945060208101905061062e565b86831015610670578489015161066c601f89168261057f565b8355505b6001600288020188555050505b505050505050565b61068e816102ac565b82525050565b5f6020820190506106a75f830184610685565b92915050565b61211d806106ba5f395ff3fe608060405234801561000f575f5ffd5b50600436106100fe575f3560e01c80638da5cb5b11610095578063db068e0e11610064578063db068e0e146102f6578063ef60e3b114610312578063f2fc86031461032e578063f2fde38b1461035e576100fe565b80638da5cb5b1461027057806394b918de1461028e578063984c0450146102aa578063b9acd876146102c6576100fe565b806361c03aa2116100d157806361c03aa2146101b057806375f3f304146101e0578063899426491461021057806389a903b114610240576100fe565b806308e6d07e146101025780631903b431146101325780633ba0b9a91461016257806352ab855a14610180575b5f5ffd5b61011c60048036038101906101179190611758565b61037a565b604051610129919061179e565b60405180910390f35b61014c60048036038101906101479190611811565b6103b0565b6040516101599190611867565b60405180910390f35b61016a610445565b6040516101779190611867565b60405180910390f35b61019a600480360381019061019591906118aa565b61044b565b6040516101a79190611909565b60405180910390f35b6101ca60048036038101906101c59190611758565b61061d565b6040516101d79190611992565b60405180910390f35b6101fa60048036038101906101f591906118aa565b6106bf565b6040516102079190611909565b60405180910390f35b61022a60048036038101906102259190611758565b6107e4565b6040516102379190611867565b60405180910390f35b61025a600480360381019061025591906119b2565b610802565b6040516102679190611909565b60405180910390f35b610278610b22565b6040516102859190611a25565b60405180910390f35b6102a860048036038101906102a39190611a3e565b610b47565b005b6102c460048036038101906102bf9190611a69565b610fa9565b005b6102e060048036038101906102db9190611758565b61117a565b6040516102ed9190611992565b60405180910390f35b610310600480360381019061030b9190611a3e565b61121e565b005b61032c600480360381019061032791906118aa565b611330565b005b61034860048036038101906103439190611aa7565b6114cd565b6040516103559190611867565b60405180910390f35b61037860048036038101906103739190611af7565b611564565b005b5f816103975760066002015f9054906101000a900460ff166103a9565b5f6002015f9054906101000a900460ff165b9050919050565b5f826103fc5760066004015f8373ffffffffffffffffffffffffffffffffffffffff1673ffffffffffffffffffffffffffffffffffffffff1681526020019081526020015f205461043d565b5f6004015f8373ffffffffffffffffffffffffffffffffffffffff1673ffffffffffffffffffffffffffffffffffffffff1681526020019081526020015f20545b905092915050565b600d5481565b5f5f8461045957600661045b565b5f5b905082816004015f3373ffffffffffffffffffffffffffffffffffffffff1673ffffffffffffffffffffffffffffffffffffffff1681526020019081526020015f205410156104df576040517f08c379a00000000000000000000000000000000000000000000000000000000081526004016104d690611b6c565b60405180910390fd5b82816004015f3373ffffffffffffffffffffffffffffffffffffffff1673ffffffffffffffffffffffffffffffffffffffff1681526020019081526020015f205f82825461052d9190611bb7565b9250508190555082816004015f8673ffffffffffffffffffffffffffffffffffffffff1673ffffffffffffffffffffffffffffffffffffffff1681526020019081526020015f205f8282546105829190611bea565b925050819055508373ffffffffffffffffffffffffffffffffffffffff163373ffffffffffffffffffffffffffffffffffffffff16866105c2575f6105c4565b305b73ffffffffffffffffffffffffffffffffffffffff167fd1398bee19313d6bf672ccb116e51f4a1a947e91c757907f51fbb5b5e56c698f866040516106099190611867565b60405180910390a460019150509392505050565b60608161062d5760065f01610631565b5f5f015b805461063c90611c4a565b80601f016020809104026020016040519081016040528092919081815260200182805461066890611c4a565b80156106b35780601f1061068a576101008083540402835291602001916106b3565b820191905f5260205f20905b81548152906001019060200180831161069657829003601f168201915b50505050509050919050565b5f5f846106cd5760066106cf565b5f5b905082816005015f3373ffffffffffffffffffffffffffffffffffffffff1673ffffffffffffffffffffffffffffffffffffffff1681526020019081526020015f205f8673ffffffffffffffffffffffffffffffffffffffff1673ffffffffffffffffffffffffffffffffffffffff1681526020019081526020015f20819055508373ffffffffffffffffffffffffffffffffffffffff163373ffffffffffffffffffffffffffffffffffffffff1686610789575f61078b565b305b73ffffffffffffffffffffffffffffffffffffffff167fa0175360a15bca328baf7ea85c7b784d58b222a50d0ce760b10dba336d226a61866040516107d09190611867565b60405180910390a460019150509392505050565b5f816107f5576006600301546107fb565b5f600301545b9050919050565b5f5f85610810576006610812565b5f5b905082816004015f8773ffffffffffffffffffffffffffffffffffffffff1673ffffffffffffffffffffffffffffffffffffffff1681526020019081526020015f20541015610896576040517f08c379a000000000000000000000000000000000000000000000000000000000815260040161088d90611b6c565b60405180910390fd5b82816005015f8773ffffffffffffffffffffffffffffffffffffffff1673ffffffffffffffffffffffffffffffffffffffff1681526020019081526020015f205f3373ffffffffffffffffffffffffffffffffffffffff1673ffffffffffffffffffffffffffffffffffffffff1681526020019081526020015f20541015610953576040517f08c379a000000000000000000000000000000000000000000000000000000000815260040161094a90611cc4565b60405180910390fd5b82816005015f8773ffffffffffffffffffffffffffffffffffffffff1673ffffffffffffffffffffffffffffffffffffffff1681526020019081526020015f205f3373ffffffffffffffffffffffffffffffffffffffff1673ffffffffffffffffffffffffffffffffffffffff1681526020019081526020015f205f8282546109dc9190611bb7565b9250508190555082816004015f8773ffffffffffffffffffffffffffffffffffffffff1673ffffffffffffffffffffffffffffffffffffffff1681526020019081526020015f205f828254610a319190611bb7565b9250508190555082816004015f8673ffffffffffffffffffffffffffffffffffffffff1673ffffffffffffffffffffffffffffffffffffffff1681526020019081526020015f205f828254610a869190611bea565b925050819055508373ffffffffffffffffffffffffffffffffffffffff168573ffffffffffffffffffffffffffffffffffffffff1687610ac6575f610ac8565b305b73ffffffffffffffffffffffffffffffffffffffff167fd1398bee19313d6bf672ccb116e51f4a1a947e91c757907f51fbb5b5e56c698f86604051610b0d9190611867565b60405180910390a46001915050949350505050565b600c5f9054906101000a900473ffffffffffffffffffffffffffffffffffffffff1681565b5f8111610b89576040517f08c379a0000000000000000000000000000000000000000000000000000000008152600401610b8090611d2c565b60405180910390fd5b805f6004015f3373ffffffffffffffffffffffffffffffffffffffff1673ffffffffffffffffffffffffffffffffffffffff1681526020019081526020015f20541015610c0b576040517f08c379a0000000000000000000000000000000000000000000000000000000008152600401610c0290611d94565b60405180910390fd5b805f6005015f3373ffffffffffffffffffffffffffffffffffffffff1673ffffffffffffffffffffffffffffffffffffffff1681526020019081526020015f205f3073ffffffffffffffffffffffffffffffffffffffff1673ffffffffffffffffffffffffffffffffffffffff1681526020019081526020015f20541015610cc8576040517f08c379a0000000000000000000000000000000000000000000000000000000008152600401610cbf90611dfc565b60405180910390fd5b5f670de0b6b3a7640000600d5483610ce09190611e1a565b610cea9190611e88565b90508060066004015f3073ffffffffffffffffffffffffffffffffffffffff1673ffffffffffffffffffffffffffffffffffffffff1681526020019081526020015f20541015610d6f576040517f08c379a0000000000000000000000000000000000000000000000000000000008152600401610d6690611f02565b60405180910390fd5b815f6004015f3373ffffffffffffffffffffffffffffffffffffffff1673ffffffffffffffffffffffffffffffffffffffff1681526020019081526020015f205f828254610dbd9190611bb7565b92505081905550815f6005015f3373ffffffffffffffffffffffffffffffffffffffff1673ffffffffffffffffffffffffffffffffffffffff1681526020019081526020015f205f3073ffffffffffffffffffffffffffffffffffffffff1673ffffffffffffffffffffffffffffffffffffffff1681526020019081526020015f205f828254610e4d9190611bb7565b92505081905550815f6004015f3073ffffffffffffffffffffffffffffffffffffffff1673ffffffffffffffffffffffffffffffffffffffff1681526020019081526020015f205f828254610ea29190611bea565b925050819055508060066004015f3073ffffffffffffffffffffffffffffffffffffffff1673ffffffffffffffffffffffffffffffffffffffff1681526020019081526020015f205f828254610ef89190611bb7565b925050819055508060066004015f3373ffffffffffffffffffffffffffffffffffffffff1673ffffffffffffffffffffffffffffffffffffffff1681526020019081526020015f205f828254610f4e9190611bea565b925050819055503373ffffffffffffffffffffffffffffffffffffffff167f2d043ce009ff53fd444b0f4f5ff4c3f4ee293265203f77f156eeb33b595dfc4f8383604051610f9d929190611f20565b60405180910390a25050565b600c5f9054906101000a900473ffffffffffffffffffffffffffffffffffffffff1673ffffffffffffffffffffffffffffffffffffffff163373ffffffffffffffffffffffffffffffffffffffff1614611038576040517f08c379a000000000000000000000000000000000000000000000000000000000815260040161102f90611f91565b60405180910390fd5b5f82611045576006611047565b5f5b905081816004015f3073ffffffffffffffffffffffffffffffffffffffff1673ffffffffffffffffffffffffffffffffffffffff1681526020019081526020015f205410156110cb576040517f08c379a00000000000000000000000000000000000000000000000000000000081526004016110c290611ff9565b60405180910390fd5b81816004015f3073ffffffffffffffffffffffffffffffffffffffff1673ffffffffffffffffffffffffffffffffffffffff1681526020019081526020015f205f8282546111199190611bb7565b9250508190555081816004015f3373ffffffffffffffffffffffffffffffffffffffff1673ffffffffffffffffffffffffffffffffffffffff1681526020019081526020015f205f82825461116e9190611bea565b92505081905550505050565b60608161118b576006600101611190565b5f6001015b805461119b90611c4a565b80601f01602080910402602001604051908101604052809291908181526020018280546111c790611c4a565b80156112125780601f106111e957610100808354040283529160200191611212565b820191905f5260205f20905b8154815290600101906020018083116111f557829003601f168201915b50505050509050919050565b600c5f9054906101000a900473ffffffffffffffffffffffffffffffffffffffff1673ffffffffffffffffffffffffffffffffffffffff163373ffffffffffffffffffffffffffffffffffffffff16146112ad576040517f08c379a00000000000000000000000000000000000000000000000000000000081526004016112a490611f91565b60405180910390fd5b5f81116112ef576040517f08c379a00000000000000000000000000000000000000000000000000000000081526004016112e690612061565b60405180910390fd5b80600d819055507f388f446e9526fe5c9af20a5919b342370c8a7c0cb05245afe1e545658fa3cdba816040516113259190611867565b60405180910390a150565b600c5f9054906101000a900473ffffffffffffffffffffffffffffffffffffffff1673ffffffffffffffffffffffffffffffffffffffff163373ffffffffffffffffffffffffffffffffffffffff16146113bf576040517f08c379a00000000000000000000000000000000000000000000000000000000081526004016113b690611f91565b60405180910390fd5b5f836113cc5760066113ce565b5f5b905081816004015f8573ffffffffffffffffffffffffffffffffffffffff1673ffffffffffffffffffffffffffffffffffffffff1681526020019081526020015f205f82825461141e9190611bea565b9250508190555081816003015f8282546114389190611bea565b925050819055508273ffffffffffffffffffffffffffffffffffffffff165f73ffffffffffffffffffffffffffffffffffffffff1685611478575f61147a565b305b73ffffffffffffffffffffffffffffffffffffffff167fd1398bee19313d6bf672ccb116e51f4a1a947e91c757907f51fbb5b5e56c698f856040516114bf9190611867565b60405180910390a450505050565b5f5f846114db5760066114dd565b5f5b9050806005015f8573ffffffffffffffffffffffffffffffffffffffff1673ffffffffffffffffffffffffffffffffffffffff1681526020019081526020015f205f8473ffffffffffffffffffffffffffffffffffffffff1673ffffffffffffffffffffffffffffffffffffffff1681526020019081526020015f20549150509392505050565b600c5f9054906101000a900473ffffffffffffffffffffffffffffffffffffffff1673ffffffffffffffffffffffffffffffffffffffff163373ffffffffffffffffffffffffffffffffffffffff16146115f3576040517f08c379a00000000000000000000000000000000000000000000000000000000081526004016115ea90611f91565b60405180910390fd5b5f73ffffffffffffffffffffffffffffffffffffffff168173ffffffffffffffffffffffffffffffffffffffff1603611661576040517f08c379a0000000000000000000000000000000000000000000000000000000008152600401611658906120c9565b60405180910390fd5b8073ffffffffffffffffffffffffffffffffffffffff16600c5f9054906101000a900473ffffffffffffffffffffffffffffffffffffffff1673ffffffffffffffffffffffffffffffffffffffff167f8be0079c531659141344cd1fd0a4f28419497f9722a3daafe3b4186f6b6457e060405160405180910390a380600c5f6101000a81548173ffffffffffffffffffffffffffffffffffffffff021916908373ffffffffffffffffffffffffffffffffffffffff16021790555050565b5f5ffd5b5f8115159050919050565b61173781611723565b8114611741575f5ffd5b50565b5f813590506117528161172e565b92915050565b5f6020828403121561176d5761176c61171f565b5b5f61177a84828501611744565b91505092915050565b5f60ff82169050919050565b61179881611783565b82525050565b5f6020820190506117b15f83018461178f565b92915050565b5f73ffffffffffffffffffffffffffffffffffffffff82169050919050565b5f6117e0826117b7565b9050919050565b6117f0816117d6565b81146117fa575f5ffd5b50565b5f8135905061180b816117e7565b92915050565b5f5f604083850312156118275761182661171f565b5b5f61183485828601611744565b9250506020611845858286016117fd565b9150509250929050565b5f819050919050565b6118618161184f565b82525050565b5f60208201905061187a5f830184611858565b92915050565b6118898161184f565b8114611893575f5ffd5b50565b5f813590506118a481611880565b92915050565b5f5f5f606084860312156118c1576118c061171f565b5b5f6118ce86828701611744565b93505060206118df868287016117fd565b92505060406118f086828701611896565b9150509250925092565b61190381611723565b82525050565b5f60208201905061191c5f8301846118fa565b92915050565b5f81519050919050565b5f82825260208201905092915050565b8281835e5f83830152505050565b5f601f19601f8301169050919050565b5f61196482611922565b61196e818561192c565b935061197e81856020860161193c565b6119878161194a565b840191505092915050565b5f6020820190508181035f8301526119aa818461195a565b905092915050565b5f5f5f5f608085870312156119ca576119c961171f565b5b5f6119d787828801611744565b94505060206119e8878288016117fd565b93505060406119f9878288016117fd565b9250506060611a0a87828801611896565b91505092959194509250565b611a1f816117d6565b82525050565b5f602082019050611a385f830184611a16565b92915050565b5f60208284031215611a5357611a5261171f565b5b5f611a6084828501611896565b91505092915050565b5f5f60408385031215611a7f57611a7e61171f565b5b5f611a8c85828601611744565b9250506020611a9d85828601611896565b9150509250929050565b5f5f5f60608486031215611abe57611abd61171f565b5b5f611acb86828701611744565b9350506020611adc868287016117fd565b9250506040611aed868287016117fd565b9150509250925092565b5f60208284031215611b0c57611b0b61171f565b5b5f611b19848285016117fd565b91505092915050565b7f496e73756666696369656e742062616c616e63650000000000000000000000005f82015250565b5f611b5660148361192c565b9150611b6182611b22565b602082019050919050565b5f6020820190508181035f830152611b8381611b4a565b9050919050565b7f4e487b71000000000000000000000000000000000000000000000000000000005f52601160045260245ffd5b5f611bc18261184f565b9150611bcc8361184f565b9250828203905081811115611be457611be3611b8a565b5b92915050565b5f611bf48261184f565b9150611bff8361184f565b9250828201905080821115611c1757611c16611b8a565b5b92915050565b7f4e487b71000000000000000000000000000000000000000000000000000000005f52602260045260245ffd5b5f6002820490506001821680611c6157607f821691505b602082108103611c7457611c73611c1d565b5b50919050565b7f4e6f7420616c6c6f7765640000000000000000000000000000000000000000005f82015250565b5f611cae600b8361192c565b9150611cb982611c7a565b602082019050919050565b5f6020820190508181035f830152611cdb81611ca2565b9050919050565b7f5a65726f20696e707574000000000000000000000000000000000000000000005f82015250565b5f611d16600a8361192c565b9150611d2182611ce2565b602082019050919050565b5f6020820190508181035f830152611d4381611d0a565b9050919050565b7f496e73756666696369656e7420546f6b656e41000000000000000000000000005f82015250565b5f611d7e60138361192c565b9150611d8982611d4a565b602082019050919050565b5f6020820190508181035f830152611dab81611d72565b9050919050565b7f546f6b656e41206e6f7420617070726f766564000000000000000000000000005f82015250565b5f611de660138361192c565b9150611df182611db2565b602082019050919050565b5f6020820190508181035f830152611e1381611dda565b9050919050565b5f611e248261184f565b9150611e2f8361184f565b9250828202611e3d8161184f565b91508282048414831517611e5457611e53611b8a565b5b5092915050565b7f4e487b71000000000000000000000000000000000000000000000000000000005f52601260045260245ffd5b5f611e928261184f565b9150611e9d8361184f565b925082611ead57611eac611e5b565b5b828204905092915050565b7f496e73756666696369656e7420546f6b656e4220696e20636f6e7472616374005f82015250565b5f611eec601f8361192c565b9150611ef782611eb8565b602082019050919050565b5f6020820190508181035f830152611f1981611ee0565b9050919050565b5f604082019050611f335f830185611858565b611f406020830184611858565b9392505050565b7f4e6f74206f776e657200000000000000000000000000000000000000000000005f82015250565b5f611f7b60098361192c565b9150611f8682611f47565b602082019050919050565b5f6020820190508181035f830152611fa881611f6f565b9050919050565b7f496e73756666696369656e742066756e647300000000000000000000000000005f82015250565b5f611fe360128361192c565b9150611fee82611faf565b602082019050919050565b5f6020820190508181035f83015261201081611fd7565b9050919050565b7f5a65726f207261746500000000000000000000000000000000000000000000005f82015250565b5f61204b60098361192c565b915061205682612017565b602082019050919050565b5f6020820190508181035f8301526120788161203f565b9050919050565b7f5a65726f206164647265737300000000000000000000000000000000000000005f82015250565b5f6120b3600c8361192c565b91506120be8261207f565b602082019050919050565b5f6020820190508181035f8301526120e0816120a7565b905091905056fea26469706673582212202467ac00fb93951b63b703d95602833922a0fc00056df047ce277218a13210eb64736f6c634300081e0033",
					"opcodes": "PUSH1 0x80 PUSH1 0x40 MSTORE CALLVALUE DUP1 ISZERO PUSH2 0xF JUMPI PUSH0 PUSH0 REVERT JUMPDEST POP PUSH1 0x40 MLOAD PUSH2 0x27D7 CODESIZE SUB DUP1 PUSH2 0x27D7 DUP4 CODECOPY DUP2 DUP2 ADD PUSH1 0x40 MSTORE DUP2 ADD SWAP1 PUSH2 0x31 SWAP2 SWAP1 PUSH2 0x2DF JUMP JUMPDEST PUSH0 DUP2 GT PUSH2 0x73 JUMPI PUSH1 0x40 MLOAD PUSH32 0x8C379A000000000000000000000000000000000000000000000000000000000 DUP2 MSTORE PUSH1 0x4 ADD PUSH2 0x6A SWAP1 PUSH2 0x364 JUMP JUMPDEST PUSH1 0x40 MLOAD DUP1 SWAP2 SUB SWAP1 REVERT JUMPDEST CALLER PUSH1 0xC PUSH0 PUSH2 0x100 EXP DUP2 SLOAD DUP2 PUSH20 0xFFFFFFFFFFFFFFFFFFFFFFFFFFFFFFFFFFFFFFFF MUL NOT AND SWAP1 DUP4 PUSH20 0xFFFFFFFFFFFFFFFFFFFFFFFFFFFFFFFFFFFFFFFF AND MUL OR SWAP1 SSTORE POP CALLER PUSH20 0xFFFFFFFFFFFFFFFFFFFFFFFFFFFFFFFFFFFFFFFF AND PUSH0 PUSH20 0xFFFFFFFFFFFFFFFFFFFFFFFFFFFFFFFFFFFFFFFF AND PUSH32 0x8BE0079C531659141344CD1FD0A4F28419497F9722A3DAAFE3B4186F6B6457E0 PUSH1 0x40 MLOAD PUSH1 0x40 MLOAD DUP1 SWAP2 SUB SWAP1 LOG3 PUSH1 0x40 MLOAD DUP1 PUSH1 0x40 ADD PUSH1 0x40 MSTORE DUP1 PUSH1 0x6 DUP2 MSTORE PUSH1 0x20 ADD PUSH32 0x546F6B656E410000000000000000000000000000000000000000000000000000 DUP2 MSTORE POP PUSH0 PUSH0 ADD SWAP1 DUP2 PUSH2 0x152 SWAP2 SWAP1 PUSH2 0x5B6 JUMP JUMPDEST POP PUSH1 0x40 MLOAD DUP1 PUSH1 0x40 ADD PUSH1 0x40 MSTORE DUP1 PUSH1 0x3 DUP2 MSTORE PUSH1 0x20 ADD PUSH32 0x544B410000000000000000000000000000000000000000000000000000000000 DUP2 MSTORE POP PUSH0 PUSH1 0x1 ADD SWAP1 DUP2 PUSH2 0x199 SWAP2 SWAP1 PUSH2 0x5B6 JUMP JUMPDEST POP PUSH1 0x12 PUSH0 PUSH1 0x2 ADD PUSH0 PUSH2 0x100 EXP DUP2 SLOAD DUP2 PUSH1 0xFF MUL NOT AND SWAP1 DUP4 PUSH1 0xFF AND MUL OR SWAP1 SSTORE POP PUSH1 0x40 MLOAD DUP1 PUSH1 0x40 ADD PUSH1 0x40 MSTORE DUP1 PUSH1 0x6 DUP2 MSTORE PUSH1 0x20 ADD PUSH32 0x546F6B656E420000000000000000000000000000000000000000000000000000 DUP2 MSTORE POP PUSH1 0x6 PUSH0 ADD SWAP1 DUP2 PUSH2 0x1FD SWAP2 SWAP1 PUSH2 0x5B6 JUMP JUMPDEST POP PUSH1 0x40 MLOAD DUP1 PUSH1 0x40 ADD PUSH1 0x40 MSTORE DUP1 PUSH1 0x3 DUP2 MSTORE PUSH1 0x20 ADD PUSH32 0x544B420000000000000000000000000000000000000000000000000000000000 DUP2 MSTORE POP PUSH1 0x6 PUSH1 0x1 ADD SWAP1 DUP2 PUSH2 0x245 SWAP2 SWAP1 PUSH2 0x5B6 JUMP JUMPDEST POP PUSH1 0x12 PUSH1 0x6 PUSH1 0x2 ADD PUSH0 PUSH2 0x100 EXP DUP2 SLOAD DUP2 PUSH1 0xFF MUL NOT AND SWAP1 DUP4 PUSH1 0xFF AND MUL OR SWAP1 SSTORE POP DUP1 PUSH1 0xD DUP2 SWAP1 SSTORE POP PUSH32 0x388F446E9526FE5C9AF20A5919B342370C8A7C0CB05245AFE1E545658FA3CDBA DUP2 PUSH1 0x40 MLOAD PUSH2 0x29A SWAP2 SWAP1 PUSH2 0x694 JUMP JUMPDEST PUSH1 0x40 MLOAD DUP1 SWAP2 SUB SWAP1 LOG1 POP PUSH2 0x6AD JUMP JUMPDEST PUSH0 PUSH0 REVERT JUMPDEST PUSH0 DUP2 SWAP1 POP SWAP2 SWAP1 POP JUMP JUMPDEST PUSH2 0x2BE DUP2 PUSH2 0x2AC JUMP JUMPDEST DUP2 EQ PUSH2 0x2C8 JUMPI PUSH0 PUSH0 REVERT JUMPDEST POP JUMP JUMPDEST PUSH0 DUP2 MLOAD SWAP1 POP PUSH2 0x2D9 DUP2 PUSH2 0x2B5 JUMP JUMPDEST SWAP3 SWAP2 POP POP JUMP JUMPDEST PUSH0 PUSH1 0x20 DUP3 DUP5 SUB SLT ISZERO PUSH2 0x2F4 JUMPI PUSH2 0x2F3 PUSH2 0x2A8 JUMP JUMPDEST JUMPDEST PUSH0 PUSH2 0x301 DUP5 DUP3 DUP6 ADD PUSH2 0x2CB JUMP JUMPDEST SWAP2 POP POP SWAP3 SWAP2 POP POP JUMP JUMPDEST PUSH0 DUP3 DUP3 MSTORE PUSH1 0x20 DUP3 ADD SWAP1 POP SWAP3 SWAP2 POP POP JUMP JUMPDEST PUSH32 0x496E76616C696420726174650000000000000000000000000000000000000000 PUSH0 DUP3 ADD MSTORE POP JUMP JUMPDEST PUSH0 PUSH2 0x34E PUSH1 0xC DUP4 PUSH2 0x30A JUMP JUMPDEST SWAP2 POP PUSH2 0x359 DUP3 PUSH2 0x31A JUMP JUMPDEST PUSH1 0x20 DUP3 ADD SWAP1 POP SWAP2 SWAP1 POP JUMP JUMPDEST PUSH0 PUSH1 0x20 DUP3 ADD SWAP1 POP DUP2 DUP2 SUB PUSH0 DUP4 ADD MSTORE PUSH2 0x37B DUP2 PUSH2 0x342 JUMP JUMPDEST SWAP1 POP SWAP2 SWAP1 POP JUMP JUMPDEST PUSH0 DUP2 MLOAD SWAP1 POP SWAP2 SWAP1 POP JUMP JUMPDEST PUSH32 0x4E487B7100000000000000000000000000000000000000000000000000000000 PUSH0 MSTORE PUSH1 0x41 PUSH1 0x4 MSTORE PUSH1 0x24 PUSH0 REVERT JUMPDEST PUSH32 0x4E487B7100000000000000000000000000000000000000000000000000000000 PUSH0 MSTORE PUSH1 0x22 PUSH1 0x4 MSTORE PUSH1 0x24 PUSH0 REVERT JUMPDEST PUSH0 PUSH1 0x2 DUP3 DIV SWAP1 POP PUSH1 0x1 DUP3 AND DUP1 PUSH2 0x3FD JUMPI PUSH1 0x7F DUP3 AND SWAP2 POP JUMPDEST PUSH1 0x20 DUP3 LT DUP2 SUB PUSH2 0x410 JUMPI PUSH2 0x40F PUSH2 0x3B9 JUMP JUMPDEST JUMPDEST POP SWAP2 SWAP1 POP JUMP JUMPDEST PUSH0 DUP2 SWAP1 POP DUP2 PUSH0 MSTORE PUSH1 0x20 PUSH0 KECCAK256 SWAP1 POP SWAP2 SWAP1 POP JUMP JUMPDEST PUSH0 PUSH1 0x20 PUSH1 0x1F DUP4 ADD DIV SWAP1 POP SWAP2 SWAP1 POP JUMP JUMPDEST PUSH0 DUP3 DUP3 SHL SWAP1 POP SWAP3 SWAP2 POP POP JUMP JUMPDEST PUSH0 PUSH1 0x8 DUP4 MUL PUSH2 0x472 PUSH32 0xFFFFFFFFFFFFFFFFFFFFFFFFFFFFFFFFFFFFFFFFFFFFFFFFFFFFFFFFFFFFFFFF DUP3 PUSH2 0x437 JUMP JUMPDEST PUSH2 0x47C DUP7 DUP4 PUSH2 0x437 JUMP JUMPDEST SWAP6 POP DUP1 NOT DUP5 AND SWAP4 POP DUP1 DUP7 AND DUP5 OR SWAP3 POP POP POP SWAP4 SWAP3 POP POP POP JUMP JUMPDEST PUSH0 DUP2 SWAP1 POP SWAP2 SWAP1 POP JUMP JUMPDEST PUSH0 PUSH2 0x4B7 PUSH2 0x4B2 PUSH2 0x4AD DUP5 PUSH2 0x2AC JUMP JUMPDEST PUSH2 0x494 JUMP JUMPDEST PUSH2 0x2AC JUMP JUMPDEST SWAP1 POP SWAP2 SWAP1 POP JUMP JUMPDEST PUSH0 DUP2 SWAP1 POP SWAP2 SWAP1 POP JUMP JUMPDEST PUSH2 0x4D0 DUP4 PUSH2 0x49D JUMP JUMPDEST PUSH2 0x4E4 PUSH2 0x4DC DUP3 PUSH2 0x4BE JUMP JUMPDEST DUP5 DUP5 SLOAD PUSH2 0x443 JUMP JUMPDEST DUP3 SSTORE POP POP POP POP JUMP JUMPDEST PUSH0 PUSH0 SWAP1 POP SWAP1 JUMP JUMPDEST PUSH2 0x4FB PUSH2 0x4EC JUMP JUMPDEST PUSH2 0x506 DUP2 DUP5 DUP5 PUSH2 0x4C7 JUMP JUMPDEST POP POP POP JUMP JUMPDEST JUMPDEST DUP2 DUP2 LT ISZERO PUSH2 0x529 JUMPI PUSH2 0x51E PUSH0 DUP3 PUSH2 0x4F3 JUMP JUMPDEST PUSH1 0x1 DUP2 ADD SWAP1 POP PUSH2 0x50C JUMP JUMPDEST POP POP JUMP JUMPDEST PUSH1 0x1F DUP3 GT ISZERO PUSH2 0x56E JUMPI PUSH2 0x53F DUP2 PUSH2 0x416 JUMP JUMPDEST PUSH2 0x548 DUP5 PUSH2 0x428 JUMP JUMPDEST DUP2 ADD PUSH1 0x20 DUP6 LT ISZERO PUSH2 0x557 JUMPI DUP2 SWAP1 POP JUMPDEST PUSH2 0x56B PUSH2 0x563 DUP6 PUSH2 0x428 JUMP JUMPDEST DUP4 ADD DUP3 PUSH2 0x50B JUMP JUMPDEST POP POP JUMPDEST POP POP POP JUMP JUMPDEST PUSH0 DUP3 DUP3 SHR SWAP1 POP SWAP3 SWAP2 POP POP JUMP JUMPDEST PUSH0 PUSH2 0x58E PUSH0 NOT DUP5 PUSH1 0x8 MUL PUSH2 0x573 JUMP JUMPDEST NOT DUP1 DUP4 AND SWAP2 POP POP SWAP3 SWAP2 POP POP JUMP JUMPDEST PUSH0 PUSH2 0x5A6 DUP4 DUP4 PUSH2 0x57F JUMP JUMPDEST SWAP2 POP DUP3 PUSH1 0x2 MUL DUP3 OR SWAP1 POP SWAP3 SWAP2 POP POP JUMP JUMPDEST PUSH2 0x5BF DUP3 PUSH2 0x382 JUMP JUMPDEST PUSH8 0xFFFFFFFFFFFFFFFF DUP2 GT ISZERO PUSH2 0x5D8 JUMPI PUSH2 0x5D7 PUSH2 0x38C JUMP JUMPDEST JUMPDEST PUSH2 0x5E2 DUP3 SLOAD PUSH2 0x3E6 JUMP JUMPDEST PUSH2 0x5ED DUP3 DUP3 DUP6 PUSH2 0x52D JUMP JUMPDEST PUSH0 PUSH1 0x20 SWAP1 POP PUSH1 0x1F DUP4 GT PUSH1 0x1 DUP2 EQ PUSH2 0x61E JUMPI PUSH0 DUP5 ISZERO PUSH2 0x60C JUMPI DUP3 DUP8 ADD MLOAD SWAP1 POP JUMPDEST PUSH2 0x616 DUP6 DUP3 PUSH2 0x59B JUMP JUMPDEST DUP7 SSTORE POP PUSH2 0x67D JUMP JUMPDEST PUSH1 0x1F NOT DUP5 AND PUSH2 0x62C DUP7 PUSH2 0x416 JUMP JUMPDEST PUSH0 JUMPDEST DUP3 DUP2 LT ISZERO PUSH2 0x653 JUMPI DUP5 DUP10 ADD MLOAD DUP3 SSTORE PUSH1 0x1 DUP3 ADD SWAP2 POP PUSH1 0x20 DUP6 ADD SWAP5 POP PUSH1 0x20 DUP2 ADD SWAP1 POP PUSH2 0x62E JUMP JUMPDEST DUP7 DUP4 LT ISZERO PUSH2 0x670 JUMPI DUP5 DUP10 ADD MLOAD PUSH2 0x66C PUSH1 0x1F DUP10 AND DUP3 PUSH2 0x57F JUMP JUMPDEST DUP4 SSTORE POP JUMPDEST PUSH1 0x1 PUSH1 0x2 DUP9 MUL ADD DUP9 SSTORE POP POP POP JUMPDEST POP POP POP POP POP POP JUMP JUMPDEST PUSH2 0x68E DUP2 PUSH2 0x2AC JUMP JUMPDEST DUP3 MSTORE POP POP JUMP JUMPDEST PUSH0 PUSH1 0x20 DUP3 ADD SWAP1 POP PUSH2 0x6A7 PUSH0 DUP4 ADD DUP5 PUSH2 0x685 JUMP JUMPDEST SWAP3 SWAP2 POP POP JUMP JUMPDEST PUSH2 0x211D DUP1 PUSH2 0x6BA PUSH0 CODECOPY PUSH0 RETURN INVALID PUSH1 0x80 PUSH1 0x40 MSTORE CALLVALUE DUP1 ISZERO PUSH2 0xF JUMPI PUSH0 PUSH0 REVERT JUMPDEST POP PUSH1 0x4 CALLDATASIZE LT PUSH2 0xFE JUMPI PUSH0 CALLDATALOAD PUSH1 0xE0 SHR DUP1 PUSH4 0x8DA5CB5B GT PUSH2 0x95 JUMPI DUP1 PUSH4 0xDB068E0E GT PUSH2 0x64 JUMPI DUP1 PUSH4 0xDB068E0E EQ PUSH2 0x2F6 JUMPI DUP1 PUSH4 0xEF60E3B1 EQ PUSH2 0x312 JUMPI DUP1 PUSH4 0xF2FC8603 EQ PUSH2 0x32E JUMPI DUP1 PUSH4 0xF2FDE38B EQ PUSH2 0x35E JUMPI PUSH2 0xFE JUMP JUMPDEST DUP1 PUSH4 0x8DA5CB5B EQ PUSH2 0x270 JUMPI DUP1 PUSH4 0x94B918DE EQ PUSH2 0x28E JUMPI DUP1 PUSH4 0x984C0450 EQ PUSH2 0x2AA JUMPI DUP1 PUSH4 0xB9ACD876 EQ PUSH2 0x2C6 JUMPI PUSH2 0xFE JUMP JUMPDEST DUP1 PUSH4 0x61C03AA2 GT PUSH2 0xD1 JUMPI DUP1 PUSH4 0x61C03AA2 EQ PUSH2 0x1B0 JUMPI DUP1 PUSH4 0x75F3F304 EQ PUSH2 0x1E0 JUMPI DUP1 PUSH4 0x89942649 EQ PUSH2 0x210 JUMPI DUP1 PUSH4 0x89A903B1 EQ PUSH2 0x240 JUMPI PUSH2 0xFE JUMP JUMPDEST DUP1 PUSH4 0x8E6D07E EQ PUSH2 0x102 JUMPI DUP1 PUSH4 0x1903B431 EQ PUSH2 0x132 JUMPI DUP1 PUSH4 0x3BA0B9A9 EQ PUSH2 0x162 JUMPI DUP1 PUSH4 0x52AB855A EQ PUSH2 0x180 JUMPI JUMPDEST PUSH0 PUSH0 REVERT JUMPDEST PUSH2 0x11C PUSH1 0x4 DUP1 CALLDATASIZE SUB DUP2 ADD SWAP1 PUSH2 0x117 SWAP2 SWAP1 PUSH2 0x1758 JUMP JUMPDEST PUSH2 0x37A JUMP JUMPDEST PUSH1 0x40 MLOAD PUSH2 0x129 SWAP2 SWAP1 PUSH2 0x179E JUMP JUMPDEST PUSH1 0x40 MLOAD DUP1 SWAP2 SUB SWAP1 RETURN JUMPDEST PUSH2 0x14C PUSH1 0x4 DUP1 CALLDATASIZE SUB DUP2 ADD SWAP1 PUSH2 0x147 SWAP2 SWAP1 PUSH2 0x1811 JUMP JUMPDEST PUSH2 0x3B0 JUMP JUMPDEST PUSH1 0x40 MLOAD PUSH2 0x159 SWAP2 SWAP1 PUSH2 0x1867 JUMP JUMPDEST PUSH1 0x40 MLOAD DUP1 SWAP2 SUB SWAP1 RETURN JUMPDEST PUSH2 0x16A PUSH2 0x445 JUMP JUMPDEST PUSH1 0x40 MLOAD PUSH2 0x177 SWAP2 SWAP1 PUSH2 0x1867 JUMP JUMPDEST PUSH1 0x40 MLOAD DUP1 SWAP2 SUB SWAP1 RETURN JUMPDEST PUSH2 0x19A PUSH1 0x4 DUP1 CALLDATASIZE SUB DUP2 ADD SWAP1 PUSH2 0x195 SWAP2 SWAP1 PUSH2 0x18AA JUMP JUMPDEST PUSH2 0x44B JUMP JUMPDEST PUSH1 0x40 MLOAD PUSH2 0x1A7 SWAP2 SWAP1 PUSH2 0x1909 JUMP JUMPDEST PUSH1 0x40 MLOAD DUP1 SWAP2 SUB SWAP1 RETURN JUMPDEST PUSH2 0x1CA PUSH1 0x4 DUP1 CALLDATASIZE SUB DUP2 ADD SWAP1 PUSH2 0x1C5 SWAP2 SWAP1 PUSH2 0x1758 JUMP JUMPDEST PUSH2 0x61D JUMP JUMPDEST PUSH1 0x40 MLOAD PUSH2 0x1D7 SWAP2 SWAP1 PUSH2 0x1992 JUMP JUMPDEST PUSH1 0x40 MLOAD DUP1 SWAP2 SUB SWAP1 RETURN JUMPDEST PUSH2 0x1FA PUSH1 0x4 DUP1 CALLDATASIZE SUB DUP2 ADD SWAP1 PUSH2 0x1F5 SWAP2 SWAP1 PUSH2 0x18AA JUMP JUMPDEST PUSH2 0x6BF JUMP JUMPDEST PUSH1 0x40 MLOAD PUSH2 0x207 SWAP2 SWAP1 PUSH2 0x1909 JUMP JUMPDEST PUSH1 0x40 MLOAD DUP1 SWAP2 SUB SWAP1 RETURN JUMPDEST PUSH2 0x22A PUSH1 0x4 DUP1 CALLDATASIZE SUB DUP2 ADD SWAP1 PUSH2 0x225 SWAP2 SWAP1 PUSH2 0x1758 JUMP JUMPDEST PUSH2 0x7E4 JUMP JUMPDEST PUSH1 0x40 MLOAD PUSH2 0x237 SWAP2 SWAP1 PUSH2 0x1867 JUMP JUMPDEST PUSH1 0x40 MLOAD DUP1 SWAP2 SUB SWAP1 RETURN JUMPDEST PUSH2 0x25A PUSH1 0x4 DUP1 CALLDATASIZE SUB DUP2 ADD SWAP1 PUSH2 0x255 SWAP2 SWAP1 PUSH2 0x19B2 JUMP JUMPDEST PUSH2 0x802 JUMP JUMPDEST PUSH1 0x40 MLOAD PUSH2 0x267 SWAP2 SWAP1 PUSH2 0x1909 JUMP JUMPDEST PUSH1 0x40 MLOAD DUP1 SWAP2 SUB SWAP1 RETURN JUMPDEST PUSH2 0x278 PUSH2 0xB22 JUMP JUMPDEST PUSH1 0x40 MLOAD PUSH2 0x285 SWAP2 SWAP1 PUSH2 0x1A25 JUMP JUMPDEST PUSH1 0x40 MLOAD DUP1 SWAP2 SUB SWAP1 RETURN JUMPDEST PUSH2 0x2A8 PUSH1 0x4 DUP1 CALLDATASIZE SUB DUP2 ADD SWAP1 PUSH2 0x2A3 SWAP2 SWAP1 PUSH2 0x1A3E JUMP JUMPDEST PUSH2 0xB47 JUMP JUMPDEST STOP JUMPDEST PUSH2 0x2C4 PUSH1 0x4 DUP1 CALLDATASIZE SUB DUP2 ADD SWAP1 PUSH2 0x2BF SWAP2 SWAP1 PUSH2 0x1A69 JUMP JUMPDEST PUSH2 0xFA9 JUMP JUMPDEST STOP JUMPDEST PUSH2 0x2E0 PUSH1 0x4 DUP1 CALLDATASIZE SUB DUP2 ADD SWAP1 PUSH2 0x2DB SWAP2 SWAP1 PUSH2 0x1758 JUMP JUMPDEST PUSH2 0x117A JUMP JUMPDEST PUSH1 0x40 MLOAD PUSH2 0x2ED SWAP2 SWAP1 PUSH2 0x1992 JUMP JUMPDEST PUSH1 0x40 MLOAD DUP1 SWAP2 SUB SWAP1 RETURN JUMPDEST PUSH2 0x310 PUSH1 0x4 DUP1 CALLDATASIZE SUB DUP2 ADD SWAP1 PUSH2 0x30B SWAP2 SWAP1 PUSH2 0x1A3E JUMP JUMPDEST PUSH2 0x121E JUMP JUMPDEST STOP JUMPDEST PUSH2 0x32C PUSH1 0x4 DUP1 CALLDATASIZE SUB DUP2 ADD SWAP1 PUSH2 0x327 SWAP2 SWAP1 PUSH2 0x18AA JUMP JUMPDEST PUSH2 0x1330 JUMP JUMPDEST STOP JUMPDEST PUSH2 0x348 PUSH1 0x4 DUP1 CALLDATASIZE SUB DUP2 ADD SWAP1 PUSH2 0x343 SWAP2 SWAP1 PUSH2 0x1AA7 JUMP JUMPDEST PUSH2 0x14CD JUMP JUMPDEST PUSH1 0x40 MLOAD PUSH2 0x355 SWAP2 SWAP1 PUSH2 0x1867 JUMP JUMPDEST PUSH1 0x40 MLOAD DUP1 SWAP2 SUB SWAP1 RETURN JUMPDEST PUSH2 0x378 PUSH1 0x4 DUP1 CALLDATASIZE SUB DUP2 ADD SWAP1 PUSH2 0x373 SWAP2 SWAP1 PUSH2 0x1AF7 JUMP JUMPDEST PUSH2 0x1564 JUMP JUMPDEST STOP JUMPDEST PUSH0 DUP2 PUSH2 0x397 JUMPI PUSH1 0x6 PUSH1 0x2 ADD PUSH0 SWAP1 SLOAD SWAP1 PUSH2 0x100 EXP SWAP1 DIV PUSH1 0xFF AND PUSH2 0x3A9 JUMP JUMPDEST PUSH0 PUSH1 0x2 ADD PUSH0 SWAP1 SLOAD SWAP1 PUSH2 0x100 EXP SWAP1 DIV PUSH1 0xFF AND JUMPDEST SWAP1 POP SWAP2 SWAP1 POP JUMP JUMPDEST PUSH0 DUP3 PUSH2 0x3FC JUMPI PUSH1 0x6 PUSH1 0x4 ADD PUSH0 DUP4 PUSH20 0xFFFFFFFFFFFFFFFFFFFFFFFFFFFFFFFFFFFFFFFF AND PUSH20 0xFFFFFFFFFFFFFFFFFFFFFFFFFFFFFFFFFFFFFFFF AND DUP2 MSTORE PUSH1 0x20 ADD SWAP1 DUP2 MSTORE PUSH1 0x20 ADD PUSH0 KECCAK256 SLOAD PUSH2 0x43D JUMP JUMPDEST PUSH0 PUSH1 0x4 ADD PUSH0 DUP4 PUSH20 0xFFFFFFFFFFFFFFFFFFFFFFFFFFFFFFFFFFFFFFFF AND PUSH20 0xFFFFFFFFFFFFFFFFFFFFFFFFFFFFFFFFFFFFFFFF AND DUP2 MSTORE PUSH1 0x20 ADD SWAP1 DUP2 MSTORE PUSH1 0x20 ADD PUSH0 KECCAK256 SLOAD JUMPDEST SWAP1 POP SWAP3 SWAP2 POP POP JUMP JUMPDEST PUSH1 0xD SLOAD DUP2 JUMP JUMPDEST PUSH0 PUSH0 DUP5 PUSH2 0x459 JUMPI PUSH1 0x6 PUSH2 0x45B JUMP JUMPDEST PUSH0 JUMPDEST SWAP1 POP DUP3 DUP2 PUSH1 0x4 ADD PUSH0 CALLER PUSH20 0xFFFFFFFFFFFFFFFFFFFFFFFFFFFFFFFFFFFFFFFF AND PUSH20 0xFFFFFFFFFFFFFFFFFFFFFFFFFFFFFFFFFFFFFFFF AND DUP2 MSTORE PUSH1 0x20 ADD SWAP1 DUP2 MSTORE PUSH1 0x20 ADD PUSH0 KECCAK256 SLOAD LT ISZERO PUSH2 0x4DF JUMPI PUSH1 0x40 MLOAD PUSH32 0x8C379A000000000000000000000000000000000000000000000000000000000 DUP2 MSTORE PUSH1 0x4 ADD PUSH2 0x4D6 SWAP1 PUSH2 0x1B6C JUMP JUMPDEST PUSH1 0x40 MLOAD DUP1 SWAP2 SUB SWAP1 REVERT JUMPDEST DUP3 DUP2 PUSH1 0x4 ADD PUSH0 CALLER PUSH20 0xFFFFFFFFFFFFFFFFFFFFFFFFFFFFFFFFFFFFFFFF AND PUSH20 0xFFFFFFFFFFFFFFFFFFFFFFFFFFFFFFFFFFFFFFFF AND DUP2 MSTORE PUSH1 0x20 ADD SWAP1 DUP2 MSTORE PUSH1 0x20 ADD PUSH0 KECCAK256 PUSH0 DUP3 DUP3 SLOAD PUSH2 0x52D SWAP2 SWAP1 PUSH2 0x1BB7 JUMP JUMPDEST SWAP3 POP POP DUP2 SWAP1 SSTORE POP DUP3 DUP2 PUSH1 0x4 ADD PUSH0 DUP7 PUSH20 0xFFFFFFFFFFFFFFFFFFFFFFFFFFFFFFFFFFFFFFFF AND PUSH20 0xFFFFFFFFFFFFFFFFFFFFFFFFFFFFFFFFFFFFFFFF AND DUP2 MSTORE PUSH1 0x20 ADD SWAP1 DUP2 MSTORE PUSH1 0x20 ADD PUSH0 KECCAK256 PUSH0 DUP3 DUP3 SLOAD PUSH2 0x582 SWAP2 SWAP1 PUSH2 0x1BEA JUMP JUMPDEST SWAP3 POP POP DUP2 SWAP1 SSTORE POP DUP4 PUSH20 0xFFFFFFFFFFFFFFFFFFFFFFFFFFFFFFFFFFFFFFFF AND CALLER PUSH20 0xFFFFFFFFFFFFFFFFFFFFFFFFFFFFFFFFFFFFFFFF AND DUP7 PUSH2 0x5C2 JUMPI PUSH0 PUSH2 0x5C4 JUMP JUMPDEST ADDRESS JUMPDEST PUSH20 0xFFFFFFFFFFFFFFFFFFFFFFFFFFFFFFFFFFFFFFFF AND PUSH32 0xD1398BEE19313D6BF672CCB116E51F4A1A947E91C757907F51FBB5B5E56C698F DUP7 PUSH1 0x40 MLOAD PUSH2 0x609 SWAP2 SWAP1 PUSH2 0x1867 JUMP JUMPDEST PUSH1 0x40 MLOAD DUP1 SWAP2 SUB SWAP1 LOG4 PUSH1 0x1 SWAP2 POP POP SWAP4 SWAP3 POP POP POP JUMP JUMPDEST PUSH1 0x60 DUP2 PUSH2 0x62D JUMPI PUSH1 0x6 PUSH0 ADD PUSH2 0x631 JUMP JUMPDEST PUSH0 PUSH0 ADD JUMPDEST DUP1 SLOAD PUSH2 0x63C SWAP1 PUSH2 0x1C4A JUMP JUMPDEST DUP1 PUSH1 0x1F ADD PUSH1 0x20 DUP1 SWAP2 DIV MUL PUSH1 0x20 ADD PUSH1 0x40 MLOAD SWAP1 DUP2 ADD PUSH1 0x40 MSTORE DUP1 SWAP3 SWAP2 SWAP1 DUP2 DUP2 MSTORE PUSH1 0x20 ADD DUP3 DUP1 SLOAD PUSH2 0x668 SWAP1 PUSH2 0x1C4A JUMP JUMPDEST DUP1 ISZERO PUSH2 0x6B3 JUMPI DUP1 PUSH1 0x1F LT PUSH2 0x68A JUMPI PUSH2 0x100 DUP1 DUP4 SLOAD DIV MUL DUP4 MSTORE SWAP2 PUSH1 0x20 ADD SWAP2 PUSH2 0x6B3 JUMP JUMPDEST DUP3 ADD SWAP2 SWAP1 PUSH0 MSTORE PUSH1 0x20 PUSH0 KECCAK256 SWAP1 JUMPDEST DUP2 SLOAD DUP2 MSTORE SWAP1 PUSH1 0x1 ADD SWAP1 PUSH1 0x20 ADD DUP1 DUP4 GT PUSH2 0x696 JUMPI DUP3 SWAP1 SUB PUSH1 0x1F AND DUP3 ADD SWAP2 JUMPDEST POP POP POP POP POP SWAP1 POP SWAP2 SWAP1 POP JUMP JUMPDEST PUSH0 PUSH0 DUP5 PUSH2 0x6CD JUMPI PUSH1 0x6 PUSH2 0x6CF JUMP JUMPDEST PUSH0 JUMPDEST SWAP1 POP DUP3 DUP2 PUSH1 0x5 ADD PUSH0 CALLER PUSH20 0xFFFFFFFFFFFFFFFFFFFFFFFFFFFFFFFFFFFFFFFF AND PUSH20 0xFFFFFFFFFFFFFFFFFFFFFFFFFFFFFFFFFFFFFFFF AND DUP2 MSTORE PUSH1 0x20 ADD SWAP1 DUP2 MSTORE PUSH1 0x20 ADD PUSH0 KECCAK256 PUSH0 DUP7 PUSH20 0xFFFFFFFFFFFFFFFFFFFFFFFFFFFFFFFFFFFFFFFF AND PUSH20 0xFFFFFFFFFFFFFFFFFFFFFFFFFFFFFFFFFFFFFFFF AND DUP2 MSTORE PUSH1 0x20 ADD SWAP1 DUP2 MSTORE PUSH1 0x20 ADD PUSH0 KECCAK256 DUP2 SWAP1 SSTORE POP DUP4 PUSH20 0xFFFFFFFFFFFFFFFFFFFFFFFFFFFFFFFFFFFFFFFF AND CALLER PUSH20 0xFFFFFFFFFFFFFFFFFFFFFFFFFFFFFFFFFFFFFFFF AND DUP7 PUSH2 0x789 JUMPI PUSH0 PUSH2 0x78B JUMP JUMPDEST ADDRESS JUMPDEST PUSH20 0xFFFFFFFFFFFFFFFFFFFFFFFFFFFFFFFFFFFFFFFF AND PUSH32 0xA0175360A15BCA328BAF7EA85C7B784D58B222A50D0CE760B10DBA336D226A61 DUP7 PUSH1 0x40 MLOAD PUSH2 0x7D0 SWAP2 SWAP1 PUSH2 0x1867 JUMP JUMPDEST PUSH1 0x40 MLOAD DUP1 SWAP2 SUB SWAP1 LOG4 PUSH1 0x1 SWAP2 POP POP SWAP4 SWAP3 POP POP POP JUMP JUMPDEST PUSH0 DUP2 PUSH2 0x7F5 JUMPI PUSH1 0x6 PUSH1 0x3 ADD SLOAD PUSH2 0x7FB JUMP JUMPDEST PUSH0 PUSH1 0x3 ADD SLOAD JUMPDEST SWAP1 POP SWAP2 SWAP1 POP JUMP JUMPDEST PUSH0 PUSH0 DUP6 PUSH2 0x810 JUMPI PUSH1 0x6 PUSH2 0x812 JUMP JUMPDEST PUSH0 JUMPDEST SWAP1 POP DUP3 DUP2 PUSH1 0x4 ADD PUSH0 DUP8 PUSH20 0xFFFFFFFFFFFFFFFFFFFFFFFFFFFFFFFFFFFFFFFF AND PUSH20 0xFFFFFFFFFFFFFFFFFFFFFFFFFFFFFFFFFFFFFFFF AND DUP2 MSTORE PUSH1 0x20 ADD SWAP1 DUP2 MSTORE PUSH1 0x20 ADD PUSH0 KECCAK256 SLOAD LT ISZERO PUSH2 0x896 JUMPI PUSH1 0x40 MLOAD PUSH32 0x8C379A000000000000000000000000000000000000000000000000000000000 DUP2 MSTORE PUSH1 0x4 ADD PUSH2 0x88D SWAP1 PUSH2 0x1B6C JUMP JUMPDEST PUSH1 0x40 MLOAD DUP1 SWAP2 SUB SWAP1 REVERT JUMPDEST DUP3 DUP2 PUSH1 0x5 ADD PUSH0 DUP8 PUSH20 0xFFFFFFFFFFFFFFFFFFFFFFFFFFFFFFFFFFFFFFFF AND PUSH20 0xFFFFFFFFFFFFFFFFFFFFFFFFFFFFFFFFFFFFFFFF AND DUP2 MSTORE PUSH1 0x20 ADD SWAP1 DUP2 MSTORE PUSH1 0x20 ADD PUSH0 KECCAK256 PUSH0 CALLER PUSH20 0xFFFFFFFFFFFFFFFFFFFFFFFFFFFFFFFFFFFFFFFF AND PUSH20 0xFFFFFFFFFFFFFFFFFFFFFFFFFFFFFFFFFFFFFFFF AND DUP2 MSTORE PUSH1 0x20 ADD SWAP1 DUP2 MSTORE PUSH1 0x20 ADD PUSH0 KECCAK256 SLOAD LT ISZERO PUSH2 0x953 JUMPI PUSH1 0x40 MLOAD PUSH32 0x8C379A000000000000000000000000000000000000000000000000000000000 DUP2 MSTORE PUSH1 0x4 ADD PUSH2 0x94A SWAP1 PUSH2 0x1CC4 JUMP JUMPDEST PUSH1 0x40 MLOAD DUP1 SWAP2 SUB SWAP1 REVERT JUMPDEST DUP3 DUP2 PUSH1 0x5 ADD PUSH0 DUP8 PUSH20 0xFFFFFFFFFFFFFFFFFFFFFFFFFFFFFFFFFFFFFFFF AND PUSH20 0xFFFFFFFFFFFFFFFFFFFFFFFFFFFFFFFFFFFFFFFF AND DUP2 MSTORE PUSH1 0x20 ADD SWAP1 DUP2 MSTORE PUSH1 0x20 ADD PUSH0 KECCAK256 PUSH0 CALLER PUSH20 0xFFFFFFFFFFFFFFFFFFFFFFFFFFFFFFFFFFFFFFFF AND PUSH20 0xFFFFFFFFFFFFFFFFFFFFFFFFFFFFFFFFFFFFFFFF AND DUP2 MSTORE PUSH1 0x20 ADD SWAP1 DUP2 MSTORE PUSH1 0x20 ADD PUSH0 KECCAK256 PUSH0 DUP3 DUP3 SLOAD PUSH2 0x9DC SWAP2 SWAP1 PUSH2 0x1BB7 JUMP JUMPDEST SWAP3 POP POP DUP2 SWAP1 SSTORE POP DUP3 DUP2 PUSH1 0x4 ADD PUSH0 DUP8 PUSH20 0xFFFFFFFFFFFFFFFFFFFFFFFFFFFFFFFFFFFFFFFF AND PUSH20 0xFFFFFFFFFFFFFFFFFFFFFFFFFFFFFFFFFFFFFFFF AND DUP2 MSTORE PUSH1 0x20 ADD SWAP1 DUP2 MSTORE PUSH1 0x20 ADD PUSH0 KECCAK256 PUSH0 DUP3 DUP3 SLOAD PUSH2 0xA31 SWAP2 SWAP1 PUSH2 0x1BB7 JUMP JUMPDEST SWAP3 POP POP DUP2 SWAP1 SSTORE POP DUP3 DUP2 PUSH1 0x4 ADD PUSH0 DUP7 PUSH20 0xFFFFFFFFFFFFFFFFFFFFFFFFFFFFFFFFFFFFFFFF AND PUSH20 0xFFFFFFFFFFFFFFFFFFFFFFFFFFFFFFFFFFFFFFFF AND DUP2 MSTORE PUSH1 0x20 ADD SWAP1 DUP2 MSTORE PUSH1 0x20 ADD PUSH0 KECCAK256 PUSH0 DUP3 DUP3 SLOAD PUSH2 0xA86 SWAP2 SWAP1 PUSH2 0x1BEA JUMP JUMPDEST SWAP3 POP POP DUP2 SWAP1 SSTORE POP DUP4 PUSH20 0xFFFFFFFFFFFFFFFFFFFFFFFFFFFFFFFFFFFFFFFF AND DUP6 PUSH20 0xFFFFFFFFFFFFFFFFFFFFFFFFFFFFFFFFFFFFFFFF AND DUP8 PUSH2 0xAC6 JUMPI PUSH0 PUSH2 0xAC8 JUMP JUMPDEST ADDRESS JUMPDEST PUSH20 0xFFFFFFFFFFFFFFFFFFFFFFFFFFFFFFFFFFFFFFFF AND PUSH32 0xD1398BEE19313D6BF672CCB116E51F4A1A947E91C757907F51FBB5B5E56C698F DUP7 PUSH1 0x40 MLOAD PUSH2 0xB0D SWAP2 SWAP1 PUSH2 0x1867 JUMP JUMPDEST PUSH1 0x40 MLOAD DUP1 SWAP2 SUB SWAP1 LOG4 PUSH1 0x1 SWAP2 POP POP SWAP5 SWAP4 POP POP POP POP JUMP JUMPDEST PUSH1 0xC PUSH0 SWAP1 SLOAD SWAP1 PUSH2 0x100 EXP SWAP1 DIV PUSH20 0xFFFFFFFFFFFFFFFFFFFFFFFFFFFFFFFFFFFFFFFF AND DUP2 JUMP JUMPDEST PUSH0 DUP2 GT PUSH2 0xB89 JUMPI PUSH1 0x40 MLOAD PUSH32 0x8C379A000000000000000000000000000000000000000000000000000000000 DUP2 MSTORE PUSH1 0x4 ADD PUSH2 0xB80 SWAP1 PUSH2 0x1D2C JUMP JUMPDEST PUSH1 0x40 MLOAD DUP1 SWAP2 SUB SWAP1 REVERT JUMPDEST DUP1 PUSH0 PUSH1 0x4 ADD PUSH0 CALLER PUSH20 0xFFFFFFFFFFFFFFFFFFFFFFFFFFFFFFFFFFFFFFFF AND PUSH20 0xFFFFFFFFFFFFFFFFFFFFFFFFFFFFFFFFFFFFFFFF AND DUP2 MSTORE PUSH1 0x20 ADD SWAP1 DUP2 MSTORE PUSH1 0x20 ADD PUSH0 KECCAK256 SLOAD LT ISZERO PUSH2 0xC0B JUMPI PUSH1 0x40 MLOAD PUSH32 0x8C379A000000000000000000000000000000000000000000000000000000000 DUP2 MSTORE PUSH1 0x4 ADD PUSH2 0xC02 SWAP1 PUSH2 0x1D94 JUMP JUMPDEST PUSH1 0x40 MLOAD DUP1 SWAP2 SUB SWAP1 REVERT JUMPDEST DUP1 PUSH0 PUSH1 0x5 ADD PUSH0 CALLER PUSH20 0xFFFFFFFFFFFFFFFFFFFFFFFFFFFFFFFFFFFFFFFF AND PUSH20 0xFFFFFFFFFFFFFFFFFFFFFFFFFFFFFFFFFFFFFFFF AND DUP2 MSTORE PUSH1 0x20 ADD SWAP1 DUP2 MSTORE PUSH1 0x20 ADD PUSH0 KECCAK256 PUSH0 ADDRESS PUSH20 0xFFFFFFFFFFFFFFFFFFFFFFFFFFFFFFFFFFFFFFFF AND PUSH20 0xFFFFFFFFFFFFFFFFFFFFFFFFFFFFFFFFFFFFFFFF AND DUP2 MSTORE PUSH1 0x20 ADD SWAP1 DUP2 MSTORE PUSH1 0x20 ADD PUSH0 KECCAK256 SLOAD LT ISZERO PUSH2 0xCC8 JUMPI PUSH1 0x40 MLOAD PUSH32 0x8C379A000000000000000000000000000000000000000000000000000000000 DUP2 MSTORE PUSH1 0x4 ADD PUSH2 0xCBF SWAP1 PUSH2 0x1DFC JUMP JUMPDEST PUSH1 0x40 MLOAD DUP1 SWAP2 SUB SWAP1 REVERT JUMPDEST PUSH0 PUSH8 0xDE0B6B3A7640000 PUSH1 0xD SLOAD DUP4 PUSH2 0xCE0 SWAP2 SWAP1 PUSH2 0x1E1A JUMP JUMPDEST PUSH2 0xCEA SWAP2 SWAP1 PUSH2 0x1E88 JUMP JUMPDEST SWAP1 POP DUP1 PUSH1 0x6 PUSH1 0x4 ADD PUSH0 ADDRESS PUSH20 0xFFFFFFFFFFFFFFFFFFFFFFFFFFFFFFFFFFFFFFFF AND PUSH20 0xFFFFFFFFFFFFFFFFFFFFFFFFFFFFFFFFFFFFFFFF AND DUP2 MSTORE PUSH1 0x20 ADD SWAP1 DUP2 MSTORE PUSH1 0x20 ADD PUSH0 KECCAK256 SLOAD LT ISZERO PUSH2 0xD6F JUMPI PUSH1 0x40 MLOAD PUSH32 0x8C379A000000000000000000000000000000000000000000000000000000000 DUP2 MSTORE PUSH1 0x4 ADD PUSH2 0xD66 SWAP1 PUSH2 0x1F02 JUMP JUMPDEST PUSH1 0x40 MLOAD DUP1 SWAP2 SUB SWAP1 REVERT JUMPDEST DUP2 PUSH0 PUSH1 0x4 ADD PUSH0 CALLER PUSH20 0xFFFFFFFFFFFFFFFFFFFFFFFFFFFFFFFFFFFFFFFF AND PUSH20 0xFFFFFFFFFFFFFFFFFFFFFFFFFFFFFFFFFFFFFFFF AND DUP2 MSTORE PUSH1 0x20 ADD SWAP1 DUP2 MSTORE PUSH1 0x20 ADD PUSH0 KECCAK256 PUSH0 DUP3 DUP3 SLOAD PUSH2 0xDBD SWAP2 SWAP1 PUSH2 0x1BB7 JUMP JUMPDEST SWAP3 POP POP DUP2 SWAP1 SSTORE POP DUP2 PUSH0 PUSH1 0x5 ADD PUSH0 CALLER PUSH20 0xFFFFFFFFFFFFFFFFFFFFFFFFFFFFFFFFFFFFFFFF AND PUSH20 0xFFFFFFFFFFFFFFFFFFFFFFFFFFFFFFFFFFFFFFFF AND DUP2 MSTORE PUSH1 0x20 ADD SWAP1 DUP2 MSTORE PUSH1 0x20 ADD PUSH0 KECCAK256 PUSH0 ADDRESS PUSH20 0xFFFFFFFFFFFFFFFFFFFFFFFFFFFFFFFFFFFFFFFF AND PUSH20 0xFFFFFFFFFFFFFFFFFFFFFFFFFFFFFFFFFFFFFFFF AND DUP2 MSTORE PUSH1 0x20 ADD SWAP1 DUP2 MSTORE PUSH1 0x20 ADD PUSH0 KECCAK256 PUSH0 DUP3 DUP3 SLOAD PUSH2 0xE4D SWAP2 SWAP1 PUSH2 0x1BB7 JUMP JUMPDEST SWAP3 POP POP DUP2 SWAP1 SSTORE POP DUP2 PUSH0 PUSH1 0x4 ADD PUSH0 ADDRESS PUSH20 0xFFFFFFFFFFFFFFFFFFFFFFFFFFFFFFFFFFFFFFFF AND PUSH20 0xFFFFFFFFFFFFFFFFFFFFFFFFFFFFFFFFFFFFFFFF AND DUP2 MSTORE PUSH1 0x20 ADD SWAP1 DUP2 MSTORE PUSH1 0x20 ADD PUSH0 KECCAK256 PUSH0 DUP3 DUP3 SLOAD PUSH2 0xEA2 SWAP2 SWAP1 PUSH2 0x1BEA JUMP JUMPDEST SWAP3 POP POP DUP2 SWAP1 SSTORE POP DUP1 PUSH1 0x6 PUSH1 0x4 ADD PUSH0 ADDRESS PUSH20 0xFFFFFFFFFFFFFFFFFFFFFFFFFFFFFFFFFFFFFFFF AND PUSH20 0xFFFFFFFFFFFFFFFFFFFFFFFFFFFFFFFFFFFFFFFF AND DUP2 MSTORE PUSH1 0x20 ADD SWAP1 DUP2 MSTORE PUSH1 0x20 ADD PUSH0 KECCAK256 PUSH0 DUP3 DUP3 SLOAD PUSH2 0xEF8 SWAP2 SWAP1 PUSH2 0x1BB7 JUMP JUMPDEST SWAP3 POP POP DUP2 SWAP1 SSTORE POP DUP1 PUSH1 0x6 PUSH1 0x4 ADD PUSH0 CALLER PUSH20 0xFFFFFFFFFFFFFFFFFFFFFFFFFFFFFFFFFFFFFFFF AND PUSH20 0xFFFFFFFFFFFFFFFFFFFFFFFFFFFFFFFFFFFFFFFF AND DUP2 MSTORE PUSH1 0x20 ADD SWAP1 DUP2 MSTORE PUSH1 0x20 ADD PUSH0 KECCAK256 PUSH0 DUP3 DUP3 SLOAD PUSH2 0xF4E SWAP2 SWAP1 PUSH2 0x1BEA JUMP JUMPDEST SWAP3 POP POP DUP2 SWAP1 SSTORE POP CALLER PUSH20 0xFFFFFFFFFFFFFFFFFFFFFFFFFFFFFFFFFFFFFFFF AND PUSH32 0x2D043CE009FF53FD444B0F4F5FF4C3F4EE293265203F77F156EEB33B595DFC4F DUP4 DUP4 PUSH1 0x40 MLOAD PUSH2 0xF9D SWAP3 SWAP2 SWAP1 PUSH2 0x1F20 JUMP JUMPDEST PUSH1 0x40 MLOAD DUP1 SWAP2 SUB SWAP1 LOG2 POP POP JUMP JUMPDEST PUSH1 0xC PUSH0 SWAP1 SLOAD SWAP1 PUSH2 0x100 EXP SWAP1 DIV PUSH20 0xFFFFFFFFFFFFFFFFFFFFFFFFFFFFFFFFFFFFFFFF AND PUSH20 0xFFFFFFFFFFFFFFFFFFFFFFFFFFFFFFFFFFFFFFFF AND CALLER PUSH20 0xFFFFFFFFFFFFFFFFFFFFFFFFFFFFFFFFFFFFFFFF AND EQ PUSH2 0x1038 JUMPI PUSH1 0x40 MLOAD PUSH32 0x8C379A000000000000000000000000000000000000000000000000000000000 DUP2 MSTORE PUSH1 0x4 ADD PUSH2 0x102F SWAP1 PUSH2 0x1F91 JUMP JUMPDEST PUSH1 0x40 MLOAD DUP1 SWAP2 SUB SWAP1 REVERT JUMPDEST PUSH0 DUP3 PUSH2 0x1045 JUMPI PUSH1 0x6 PUSH2 0x1047 JUMP JUMPDEST PUSH0 JUMPDEST SWAP1 POP DUP2 DUP2 PUSH1 0x4 ADD PUSH0 ADDRESS PUSH20 0xFFFFFFFFFFFFFFFFFFFFFFFFFFFFFFFFFFFFFFFF AND PUSH20 0xFFFFFFFFFFFFFFFFFFFFFFFFFFFFFFFFFFFFFFFF AND DUP2 MSTORE PUSH1 0x20 ADD SWAP1 DUP2 MSTORE PUSH1 0x20 ADD PUSH0 KECCAK256 SLOAD LT ISZERO PUSH2 0x10CB JUMPI PUSH1 0x40 MLOAD PUSH32 0x8C379A000000000000000000000000000000000000000000000000000000000 DUP2 MSTORE PUSH1 0x4 ADD PUSH2 0x10C2 SWAP1 PUSH2 0x1FF9 JUMP JUMPDEST PUSH1 0x40 MLOAD DUP1 SWAP2 SUB SWAP1 REVERT JUMPDEST DUP2 DUP2 PUSH1 0x4 ADD PUSH0 ADDRESS PUSH20 0xFFFFFFFFFFFFFFFFFFFFFFFFFFFFFFFFFFFFFFFF AND PUSH20 0xFFFFFFFFFFFFFFFFFFFFFFFFFFFFFFFFFFFFFFFF AND DUP2 MSTORE PUSH1 0x20 ADD SWAP1 DUP2 MSTORE PUSH1 0x20 ADD PUSH0 KECCAK256 PUSH0 DUP3 DUP3 SLOAD PUSH2 0x1119 SWAP2 SWAP1 PUSH2 0x1BB7 JUMP JUMPDEST SWAP3 POP POP DUP2 SWAP1 SSTORE POP DUP2 DUP2 PUSH1 0x4 ADD PUSH0 CALLER PUSH20 0xFFFFFFFFFFFFFFFFFFFFFFFFFFFFFFFFFFFFFFFF AND PUSH20 0xFFFFFFFFFFFFFFFFFFFFFFFFFFFFFFFFFFFFFFFF AND DUP2 MSTORE PUSH1 0x20 ADD SWAP1 DUP2 MSTORE PUSH1 0x20 ADD PUSH0 KECCAK256 PUSH0 DUP3 DUP3 SLOAD PUSH2 0x116E SWAP2 SWAP1 PUSH2 0x1BEA JUMP JUMPDEST SWAP3 POP POP DUP2 SWAP1 SSTORE POP POP POP POP JUMP JUMPDEST PUSH1 0x60 DUP2 PUSH2 0x118B JUMPI PUSH1 0x6 PUSH1 0x1 ADD PUSH2 0x1190 JUMP JUMPDEST PUSH0 PUSH1 0x1 ADD JUMPDEST DUP1 SLOAD PUSH2 0x119B SWAP1 PUSH2 0x1C4A JUMP JUMPDEST DUP1 PUSH1 0x1F ADD PUSH1 0x20 DUP1 SWAP2 DIV MUL PUSH1 0x20 ADD PUSH1 0x40 MLOAD SWAP1 DUP2 ADD PUSH1 0x40 MSTORE DUP1 SWAP3 SWAP2 SWAP1 DUP2 DUP2 MSTORE PUSH1 0x20 ADD DUP3 DUP1 SLOAD PUSH2 0x11C7 SWAP1 PUSH2 0x1C4A JUMP JUMPDEST DUP1 ISZERO PUSH2 0x1212 JUMPI DUP1 PUSH1 0x1F LT PUSH2 0x11E9 JUMPI PUSH2 0x100 DUP1 DUP4 SLOAD DIV MUL DUP4 MSTORE SWAP2 PUSH1 0x20 ADD SWAP2 PUSH2 0x1212 JUMP JUMPDEST DUP3 ADD SWAP2 SWAP1 PUSH0 MSTORE PUSH1 0x20 PUSH0 KECCAK256 SWAP1 JUMPDEST DUP2 SLOAD DUP2 MSTORE SWAP1 PUSH1 0x1 ADD SWAP1 PUSH1 0x20 ADD DUP1 DUP4 GT PUSH2 0x11F5 JUMPI DUP3 SWAP1 SUB PUSH1 0x1F AND DUP3 ADD SWAP2 JUMPDEST POP POP POP POP POP SWAP1 POP SWAP2 SWAP1 POP JUMP JUMPDEST PUSH1 0xC PUSH0 SWAP1 SLOAD SWAP1 PUSH2 0x100 EXP SWAP1 DIV PUSH20 0xFFFFFFFFFFFFFFFFFFFFFFFFFFFFFFFFFFFFFFFF AND PUSH20 0xFFFFFFFFFFFFFFFFFFFFFFFFFFFFFFFFFFFFFFFF AND CALLER PUSH20 0xFFFFFFFFFFFFFFFFFFFFFFFFFFFFFFFFFFFFFFFF AND EQ PUSH2 0x12AD JUMPI PUSH1 0x40 MLOAD PUSH32 0x8C379A000000000000000000000000000000000000000000000000000000000 DUP2 MSTORE PUSH1 0x4 ADD PUSH2 0x12A4 SWAP1 PUSH2 0x1F91 JUMP JUMPDEST PUSH1 0x40 MLOAD DUP1 SWAP2 SUB SWAP1 REVERT JUMPDEST PUSH0 DUP2 GT PUSH2 0x12EF JUMPI PUSH1 0x40 MLOAD PUSH32 0x8C379A000000000000000000000000000000000000000000000000000000000 DUP2 MSTORE PUSH1 0x4 ADD PUSH2 0x12E6 SWAP1 PUSH2 0x2061 JUMP JUMPDEST PUSH1 0x40 MLOAD DUP1 SWAP2 SUB SWAP1 REVERT JUMPDEST DUP1 PUSH1 0xD DUP2 SWAP1 SSTORE POP PUSH32 0x388F446E9526FE5C9AF20A5919B342370C8A7C0CB05245AFE1E545658FA3CDBA DUP2 PUSH1 0x40 MLOAD PUSH2 0x1325 SWAP2 SWAP1 PUSH2 0x1867 JUMP JUMPDEST PUSH1 0x40 MLOAD DUP1 SWAP2 SUB SWAP1 LOG1 POP JUMP JUMPDEST PUSH1 0xC PUSH0 SWAP1 SLOAD SWAP1 PUSH2 0x100 EXP SWAP1 DIV PUSH20 0xFFFFFFFFFFFFFFFFFFFFFFFFFFFFFFFFFFFFFFFF AND PUSH20 0xFFFFFFFFFFFFFFFFFFFFFFFFFFFFFFFFFFFFFFFF AND CALLER PUSH20 0xFFFFFFFFFFFFFFFFFFFFFFFFFFFFFFFFFFFFFFFF AND EQ PUSH2 0x13BF JUMPI PUSH1 0x40 MLOAD PUSH32 0x8C379A000000000000000000000000000000000000000000000000000000000 DUP2 MSTORE PUSH1 0x4 ADD PUSH2 0x13B6 SWAP1 PUSH2 0x1F91 JUMP JUMPDEST PUSH1 0x40 MLOAD DUP1 SWAP2 SUB SWAP1 REVERT JUMPDEST PUSH0 DUP4 PUSH2 0x13CC JUMPI PUSH1 0x6 PUSH2 0x13CE JUMP JUMPDEST PUSH0 JUMPDEST SWAP1 POP DUP2 DUP2 PUSH1 0x4 ADD PUSH0 DUP6 PUSH20 0xFFFFFFFFFFFFFFFFFFFFFFFFFFFFFFFFFFFFFFFF AND PUSH20 0xFFFFFFFFFFFFFFFFFFFFFFFFFFFFFFFFFFFFFFFF AND DUP2 MSTORE PUSH1 0x20 ADD SWAP1 DUP2 MSTORE PUSH1 0x20 ADD PUSH0 KECCAK256 PUSH0 DUP3 DUP3 SLOAD PUSH2 0x141E SWAP2 SWAP1 PUSH2 0x1BEA JUMP JUMPDEST SWAP3 POP POP DUP2 SWAP1 SSTORE POP DUP2 DUP2 PUSH1 0x3 ADD PUSH0 DUP3 DUP3 SLOAD PUSH2 0x1438 SWAP2 SWAP1 PUSH2 0x1BEA JUMP JUMPDEST SWAP3 POP POP DUP2 SWAP1 SSTORE POP DUP3 PUSH20 0xFFFFFFFFFFFFFFFFFFFFFFFFFFFFFFFFFFFFFFFF AND PUSH0 PUSH20 0xFFFFFFFFFFFFFFFFFFFFFFFFFFFFFFFFFFFFFFFF AND DUP6 PUSH2 0x1478 JUMPI PUSH0 PUSH2 0x147A JUMP JUMPDEST ADDRESS JUMPDEST PUSH20 0xFFFFFFFFFFFFFFFFFFFFFFFFFFFFFFFFFFFFFFFF AND PUSH32 0xD1398BEE19313D6BF672CCB116E51F4A1A947E91C757907F51FBB5B5E56C698F DUP6 PUSH1 0x40 MLOAD PUSH2 0x14BF SWAP2 SWAP1 PUSH2 0x1867 JUMP JUMPDEST PUSH1 0x40 MLOAD DUP1 SWAP2 SUB SWAP1 LOG4 POP POP POP POP JUMP JUMPDEST PUSH0 PUSH0 DUP5 PUSH2 0x14DB JUMPI PUSH1 0x6 PUSH2 0x14DD JUMP JUMPDEST PUSH0 JUMPDEST SWAP1 POP DUP1 PUSH1 0x5 ADD PUSH0 DUP6 PUSH20 0xFFFFFFFFFFFFFFFFFFFFFFFFFFFFFFFFFFFFFFFF AND PUSH20 0xFFFFFFFFFFFFFFFFFFFFFFFFFFFFFFFFFFFFFFFF AND DUP2 MSTORE PUSH1 0x20 ADD SWAP1 DUP2 MSTORE PUSH1 0x20 ADD PUSH0 KECCAK256 PUSH0 DUP5 PUSH20 0xFFFFFFFFFFFFFFFFFFFFFFFFFFFFFFFFFFFFFFFF AND PUSH20 0xFFFFFFFFFFFFFFFFFFFFFFFFFFFFFFFFFFFFFFFF AND DUP2 MSTORE PUSH1 0x20 ADD SWAP1 DUP2 MSTORE PUSH1 0x20 ADD PUSH0 KECCAK256 SLOAD SWAP2 POP POP SWAP4 SWAP3 POP POP POP JUMP JUMPDEST PUSH1 0xC PUSH0 SWAP1 SLOAD SWAP1 PUSH2 0x100 EXP SWAP1 DIV PUSH20 0xFFFFFFFFFFFFFFFFFFFFFFFFFFFFFFFFFFFFFFFF AND PUSH20 0xFFFFFFFFFFFFFFFFFFFFFFFFFFFFFFFFFFFFFFFF AND CALLER PUSH20 0xFFFFFFFFFFFFFFFFFFFFFFFFFFFFFFFFFFFFFFFF AND EQ PUSH2 0x15F3 JUMPI PUSH1 0x40 MLOAD PUSH32 0x8C379A000000000000000000000000000000000000000000000000000000000 DUP2 MSTORE PUSH1 0x4 ADD PUSH2 0x15EA SWAP1 PUSH2 0x1F91 JUMP JUMPDEST PUSH1 0x40 MLOAD DUP1 SWAP2 SUB SWAP1 REVERT JUMPDEST PUSH0 PUSH20 0xFFFFFFFFFFFFFFFFFFFFFFFFFFFFFFFFFFFFFFFF AND DUP2 PUSH20 0xFFFFFFFFFFFFFFFFFFFFFFFFFFFFFFFFFFFFFFFF AND SUB PUSH2 0x1661 JUMPI PUSH1 0x40 MLOAD PUSH32 0x8C379A000000000000000000000000000000000000000000000000000000000 DUP2 MSTORE PUSH1 0x4 ADD PUSH2 0x1658 SWAP1 PUSH2 0x20C9 JUMP JUMPDEST PUSH1 0x40 MLOAD DUP1 SWAP2 SUB SWAP1 REVERT JUMPDEST DUP1 PUSH20 0xFFFFFFFFFFFFFFFFFFFFFFFFFFFFFFFFFFFFFFFF AND PUSH1 0xC PUSH0 SWAP1 SLOAD SWAP1 PUSH2 0x100 EXP SWAP1 DIV PUSH20 0xFFFFFFFFFFFFFFFFFFFFFFFFFFFFFFFFFFFFFFFF AND PUSH20 0xFFFFFFFFFFFFFFFFFFFFFFFFFFFFFFFFFFFFFFFF AND PUSH32 0x8BE0079C531659141344CD1FD0A4F28419497F9722A3DAAFE3B4186F6B6457E0 PUSH1 0x40 MLOAD PUSH1 0x40 MLOAD DUP1 SWAP2 SUB SWAP1 LOG3 DUP1 PUSH1 0xC PUSH0 PUSH2 0x100 EXP DUP2 SLOAD DUP2 PUSH20 0xFFFFFFFFFFFFFFFFFFFFFFFFFFFFFFFFFFFFFFFF MUL NOT AND SWAP1 DUP4 PUSH20 0xFFFFFFFFFFFFFFFFFFFFFFFFFFFFFFFFFFFFFFFF AND MUL OR SWAP1 SSTORE POP POP JUMP JUMPDEST PUSH0 PUSH0 REVERT JUMPDEST PUSH0 DUP2 ISZERO ISZERO SWAP1 POP SWAP2 SWAP1 POP JUMP JUMPDEST PUSH2 0x1737 DUP2 PUSH2 0x1723 JUMP JUMPDEST DUP2 EQ PUSH2 0x1741 JUMPI PUSH0 PUSH0 REVERT JUMPDEST POP JUMP JUMPDEST PUSH0 DUP2 CALLDATALOAD SWAP1 POP PUSH2 0x1752 DUP2 PUSH2 0x172E JUMP JUMPDEST SWAP3 SWAP2 POP POP JUMP JUMPDEST PUSH0 PUSH1 0x20 DUP3 DUP5 SUB SLT ISZERO PUSH2 0x176D JUMPI PUSH2 0x176C PUSH2 0x171F JUMP JUMPDEST JUMPDEST PUSH0 PUSH2 0x177A DUP5 DUP3 DUP6 ADD PUSH2 0x1744 JUMP JUMPDEST SWAP2 POP POP SWAP3 SWAP2 POP POP JUMP JUMPDEST PUSH0 PUSH1 0xFF DUP3 AND SWAP1 POP SWAP2 SWAP1 POP JUMP JUMPDEST PUSH2 0x1798 DUP2 PUSH2 0x1783 JUMP JUMPDEST DUP3 MSTORE POP POP JUMP JUMPDEST PUSH0 PUSH1 0x20 DUP3 ADD SWAP1 POP PUSH2 0x17B1 PUSH0 DUP4 ADD DUP5 PUSH2 0x178F JUMP JUMPDEST SWAP3 SWAP2 POP POP JUMP JUMPDEST PUSH0 PUSH20 0xFFFFFFFFFFFFFFFFFFFFFFFFFFFFFFFFFFFFFFFF DUP3 AND SWAP1 POP SWAP2 SWAP1 POP JUMP JUMPDEST PUSH0 PUSH2 0x17E0 DUP3 PUSH2 0x17B7 JUMP JUMPDEST SWAP1 POP SWAP2 SWAP1 POP JUMP JUMPDEST PUSH2 0x17F0 DUP2 PUSH2 0x17D6 JUMP JUMPDEST DUP2 EQ PUSH2 0x17FA JUMPI PUSH0 PUSH0 REVERT JUMPDEST POP JUMP JUMPDEST PUSH0 DUP2 CALLDATALOAD SWAP1 POP PUSH2 0x180B DUP2 PUSH2 0x17E7 JUMP JUMPDEST SWAP3 SWAP2 POP POP JUMP JUMPDEST PUSH0 PUSH0 PUSH1 0x40 DUP4 DUP6 SUB SLT ISZERO PUSH2 0x1827 JUMPI PUSH2 0x1826 PUSH2 0x171F JUMP JUMPDEST JUMPDEST PUSH0 PUSH2 0x1834 DUP6 DUP3 DUP7 ADD PUSH2 0x1744 JUMP JUMPDEST SWAP3 POP POP PUSH1 0x20 PUSH2 0x1845 DUP6 DUP3 DUP7 ADD PUSH2 0x17FD JUMP JUMPDEST SWAP2 POP POP SWAP3 POP SWAP3 SWAP1 POP JUMP JUMPDEST PUSH0 DUP2 SWAP1 POP SWAP2 SWAP1 POP JUMP JUMPDEST PUSH2 0x1861 DUP2 PUSH2 0x184F JUMP JUMPDEST DUP3 MSTORE POP POP JUMP JUMPDEST PUSH0 PUSH1 0x20 DUP3 ADD SWAP1 POP PUSH2 0x187A PUSH0 DUP4 ADD DUP5 PUSH2 0x1858 JUMP JUMPDEST SWAP3 SWAP2 POP POP JUMP JUMPDEST PUSH2 0x1889 DUP2 PUSH2 0x184F JUMP JUMPDEST DUP2 EQ PUSH2 0x1893 JUMPI PUSH0 PUSH0 REVERT JUMPDEST POP JUMP JUMPDEST PUSH0 DUP2 CALLDATALOAD SWAP1 POP PUSH2 0x18A4 DUP2 PUSH2 0x1880 JUMP JUMPDEST SWAP3 SWAP2 POP POP JUMP JUMPDEST PUSH0 PUSH0 PUSH0 PUSH1 0x60 DUP5 DUP7 SUB SLT ISZERO PUSH2 0x18C1 JUMPI PUSH2 0x18C0 PUSH2 0x171F JUMP JUMPDEST JUMPDEST PUSH0 PUSH2 0x18CE DUP7 DUP3 DUP8 ADD PUSH2 0x1744 JUMP JUMPDEST SWAP4 POP POP PUSH1 0x20 PUSH2 0x18DF DUP7 DUP3 DUP8 ADD PUSH2 0x17FD JUMP JUMPDEST SWAP3 POP POP PUSH1 0x40 PUSH2 0x18F0 DUP7 DUP3 DUP8 ADD PUSH2 0x1896 JUMP JUMPDEST SWAP2 POP POP SWAP3 POP SWAP3 POP SWAP3 JUMP JUMPDEST PUSH2 0x1903 DUP2 PUSH2 0x1723 JUMP JUMPDEST DUP3 MSTORE POP POP JUMP JUMPDEST PUSH0 PUSH1 0x20 DUP3 ADD SWAP1 POP PUSH2 0x191C PUSH0 DUP4 ADD DUP5 PUSH2 0x18FA JUMP JUMPDEST SWAP3 SWAP2 POP POP JUMP JUMPDEST PUSH0 DUP2 MLOAD SWAP1 POP SWAP2 SWAP1 POP JUMP JUMPDEST PUSH0 DUP3 DUP3 MSTORE PUSH1 0x20 DUP3 ADD SWAP1 POP SWAP3 SWAP2 POP POP JUMP JUMPDEST DUP3 DUP2 DUP4 MCOPY PUSH0 DUP4 DUP4 ADD MSTORE POP POP POP JUMP JUMPDEST PUSH0 PUSH1 0x1F NOT PUSH1 0x1F DUP4 ADD AND SWAP1 POP SWAP2 SWAP1 POP JUMP JUMPDEST PUSH0 PUSH2 0x1964 DUP3 PUSH2 0x1922 JUMP JUMPDEST PUSH2 0x196E DUP2 DUP6 PUSH2 0x192C JUMP JUMPDEST SWAP4 POP PUSH2 0x197E DUP2 DUP6 PUSH1 0x20 DUP7 ADD PUSH2 0x193C JUMP JUMPDEST PUSH2 0x1987 DUP2 PUSH2 0x194A JUMP JUMPDEST DUP5 ADD SWAP2 POP POP SWAP3 SWAP2 POP POP JUMP JUMPDEST PUSH0 PUSH1 0x20 DUP3 ADD SWAP1 POP DUP2 DUP2 SUB PUSH0 DUP4 ADD MSTORE PUSH2 0x19AA DUP2 DUP5 PUSH2 0x195A JUMP JUMPDEST SWAP1 POP SWAP3 SWAP2 POP POP JUMP JUMPDEST PUSH0 PUSH0 PUSH0 PUSH0 PUSH1 0x80 DUP6 DUP8 SUB SLT ISZERO PUSH2 0x19CA JUMPI PUSH2 0x19C9 PUSH2 0x171F JUMP JUMPDEST JUMPDEST PUSH0 PUSH2 0x19D7 DUP8 DUP3 DUP9 ADD PUSH2 0x1744 JUMP JUMPDEST SWAP5 POP POP PUSH1 0x20 PUSH2 0x19E8 DUP8 DUP3 DUP9 ADD PUSH2 0x17FD JUMP JUMPDEST SWAP4 POP POP PUSH1 0x40 PUSH2 0x19F9 DUP8 DUP3 DUP9 ADD PUSH2 0x17FD JUMP JUMPDEST SWAP3 POP POP PUSH1 0x60 PUSH2 0x1A0A DUP8 DUP3 DUP9 ADD PUSH2 0x1896 JUMP JUMPDEST SWAP2 POP POP SWAP3 SWAP6 SWAP2 SWAP5 POP SWAP3 POP JUMP JUMPDEST PUSH2 0x1A1F DUP2 PUSH2 0x17D6 JUMP JUMPDEST DUP3 MSTORE POP POP JUMP JUMPDEST PUSH0 PUSH1 0x20 DUP3 ADD SWAP1 POP PUSH2 0x1A38 PUSH0 DUP4 ADD DUP5 PUSH2 0x1A16 JUMP JUMPDEST SWAP3 SWAP2 POP POP JUMP JUMPDEST PUSH0 PUSH1 0x20 DUP3 DUP5 SUB SLT ISZERO PUSH2 0x1A53 JUMPI PUSH2 0x1A52 PUSH2 0x171F JUMP JUMPDEST JUMPDEST PUSH0 PUSH2 0x1A60 DUP5 DUP3 DUP6 ADD PUSH2 0x1896 JUMP JUMPDEST SWAP2 POP POP SWAP3 SWAP2 POP POP JUMP JUMPDEST PUSH0 PUSH0 PUSH1 0x40 DUP4 DUP6 SUB SLT ISZERO PUSH2 0x1A7F JUMPI PUSH2 0x1A7E PUSH2 0x171F JUMP JUMPDEST JUMPDEST PUSH0 PUSH2 0x1A8C DUP6 DUP3 DUP7 ADD PUSH2 0x1744 JUMP JUMPDEST SWAP3 POP POP PUSH1 0x20 PUSH2 0x1A9D DUP6 DUP3 DUP7 ADD PUSH2 0x1896 JUMP JUMPDEST SWAP2 POP POP SWAP3 POP SWAP3 SWAP1 POP JUMP JUMPDEST PUSH0 PUSH0 PUSH0 PUSH1 0x60 DUP5 DUP7 SUB SLT ISZERO PUSH2 0x1ABE JUMPI PUSH2 0x1ABD PUSH2 0x171F JUMP JUMPDEST JUMPDEST PUSH0 PUSH2 0x1ACB DUP7 DUP3 DUP8 ADD PUSH2 0x1744 JUMP JUMPDEST SWAP4 POP POP PUSH1 0x20 PUSH2 0x1ADC DUP7 DUP3 DUP8 ADD PUSH2 0x17FD JUMP JUMPDEST SWAP3 POP POP PUSH1 0x40 PUSH2 0x1AED DUP7 DUP3 DUP8 ADD PUSH2 0x17FD JUMP JUMPDEST SWAP2 POP POP SWAP3 POP SWAP3 POP SWAP3 JUMP JUMPDEST PUSH0 PUSH1 0x20 DUP3 DUP5 SUB SLT ISZERO PUSH2 0x1B0C JUMPI PUSH2 0x1B0B PUSH2 0x171F JUMP JUMPDEST JUMPDEST PUSH0 PUSH2 0x1B19 DUP5 DUP3 DUP6 ADD PUSH2 0x17FD JUMP JUMPDEST SWAP2 POP POP SWAP3 SWAP2 POP POP JUMP JUMPDEST PUSH32 0x496E73756666696369656E742062616C616E6365000000000000000000000000 PUSH0 DUP3 ADD MSTORE POP JUMP JUMPDEST PUSH0 PUSH2 0x1B56 PUSH1 0x14 DUP4 PUSH2 0x192C JUMP JUMPDEST SWAP2 POP PUSH2 0x1B61 DUP3 PUSH2 0x1B22 JUMP JUMPDEST PUSH1 0x20 DUP3 ADD SWAP1 POP SWAP2 SWAP1 POP JUMP JUMPDEST PUSH0 PUSH1 0x20 DUP3 ADD SWAP1 POP DUP2 DUP2 SUB PUSH0 DUP4 ADD MSTORE PUSH2 0x1B83 DUP2 PUSH2 0x1B4A JUMP JUMPDEST SWAP1 POP SWAP2 SWAP1 POP JUMP JUMPDEST PUSH32 0x4E487B7100000000000000000000000000000000000000000000000000000000 PUSH0 MSTORE PUSH1 0x11 PUSH1 0x4 MSTORE PUSH1 0x24 PUSH0 REVERT JUMPDEST PUSH0 PUSH2 0x1BC1 DUP3 PUSH2 0x184F JUMP JUMPDEST SWAP2 POP PUSH2 0x1BCC DUP4 PUSH2 0x184F JUMP JUMPDEST SWAP3 POP DUP3 DUP3 SUB SWAP1 POP DUP2 DUP2 GT ISZERO PUSH2 0x1BE4 JUMPI PUSH2 0x1BE3 PUSH2 0x1B8A JUMP JUMPDEST JUMPDEST SWAP3 SWAP2 POP POP JUMP JUMPDEST PUSH0 PUSH2 0x1BF4 DUP3 PUSH2 0x184F JUMP JUMPDEST SWAP2 POP PUSH2 0x1BFF DUP4 PUSH2 0x184F JUMP JUMPDEST SWAP3 POP DUP3 DUP3 ADD SWAP1 POP DUP1 DUP3 GT ISZERO PUSH2 0x1C17 JUMPI PUSH2 0x1C16 PUSH2 0x1B8A JUMP JUMPDEST JUMPDEST SWAP3 SWAP2 POP POP JUMP JUMPDEST PUSH32 0x4E487B7100000000000000000000000000000000000000000000000000000000 PUSH0 MSTORE PUSH1 0x22 PUSH1 0x4 MSTORE PUSH1 0x24 PUSH0 REVERT JUMPDEST PUSH0 PUSH1 0x2 DUP3 DIV SWAP1 POP PUSH1 0x1 DUP3 AND DUP1 PUSH2 0x1C61 JUMPI PUSH1 0x7F DUP3 AND SWAP2 POP JUMPDEST PUSH1 0x20 DUP3 LT DUP2 SUB PUSH2 0x1C74 JUMPI PUSH2 0x1C73 PUSH2 0x1C1D JUMP JUMPDEST JUMPDEST POP SWAP2 SWAP1 POP JUMP JUMPDEST PUSH32 0x4E6F7420616C6C6F776564000000000000000000000000000000000000000000 PUSH0 DUP3 ADD MSTORE POP JUMP JUMPDEST PUSH0 PUSH2 0x1CAE PUSH1 0xB DUP4 PUSH2 0x192C JUMP JUMPDEST SWAP2 POP PUSH2 0x1CB9 DUP3 PUSH2 0x1C7A JUMP JUMPDEST PUSH1 0x20 DUP3 ADD SWAP1 POP SWAP2 SWAP1 POP JUMP JUMPDEST PUSH0 PUSH1 0x20 DUP3 ADD SWAP1 POP DUP2 DUP2 SUB PUSH0 DUP4 ADD MSTORE PUSH2 0x1CDB DUP2 PUSH2 0x1CA2 JUMP JUMPDEST SWAP1 POP SWAP2 SWAP1 POP JUMP JUMPDEST PUSH32 0x5A65726F20696E70757400000000000000000000000000000000000000000000 PUSH0 DUP3 ADD MSTORE POP JUMP JUMPDEST PUSH0 PUSH2 0x1D16 PUSH1 0xA DUP4 PUSH2 0x192C JUMP JUMPDEST SWAP2 POP PUSH2 0x1D21 DUP3 PUSH2 0x1CE2 JUMP JUMPDEST PUSH1 0x20 DUP3 ADD SWAP1 POP SWAP2 SWAP1 POP JUMP JUMPDEST PUSH0 PUSH1 0x20 DUP3 ADD SWAP1 POP DUP2 DUP2 SUB PUSH0 DUP4 ADD MSTORE PUSH2 0x1D43 DUP2 PUSH2 0x1D0A JUMP JUMPDEST SWAP1 POP SWAP2 SWAP1 POP JUMP JUMPDEST PUSH32 0x496E73756666696369656E7420546F6B656E4100000000000000000000000000 PUSH0 DUP3 ADD MSTORE POP JUMP JUMPDEST PUSH0 PUSH2 0x1D7E PUSH1 0x13 DUP4 PUSH2 0x192C JUMP JUMPDEST SWAP2 POP PUSH2 0x1D89 DUP3 PUSH2 0x1D4A JUMP JUMPDEST PUSH1 0x20 DUP3 ADD SWAP1 POP SWAP2 SWAP1 POP JUMP JUMPDEST PUSH0 PUSH1 0x20 DUP3 ADD SWAP1 POP DUP2 DUP2 SUB PUSH0 DUP4 ADD MSTORE PUSH2 0x1DAB DUP2 PUSH2 0x1D72 JUMP JUMPDEST SWAP1 POP SWAP2 SWAP1 POP JUMP JUMPDEST PUSH32 0x546F6B656E41206E6F7420617070726F76656400000000000000000000000000 PUSH0 DUP3 ADD MSTORE POP JUMP JUMPDEST PUSH0 PUSH2 0x1DE6 PUSH1 0x13 DUP4 PUSH2 0x192C JUMP JUMPDEST SWAP2 POP PUSH2 0x1DF1 DUP3 PUSH2 0x1DB2 JUMP JUMPDEST PUSH1 0x20 DUP3 ADD SWAP1 POP SWAP2 SWAP1 POP JUMP JUMPDEST PUSH0 PUSH1 0x20 DUP3 ADD SWAP1 POP DUP2 DUP2 SUB PUSH0 DUP4 ADD MSTORE PUSH2 0x1E13 DUP2 PUSH2 0x1DDA JUMP JUMPDEST SWAP1 POP SWAP2 SWAP1 POP JUMP JUMPDEST PUSH0 PUSH2 0x1E24 DUP3 PUSH2 0x184F JUMP JUMPDEST SWAP2 POP PUSH2 0x1E2F DUP4 PUSH2 0x184F JUMP JUMPDEST SWAP3 POP DUP3 DUP3 MUL PUSH2 0x1E3D DUP2 PUSH2 0x184F JUMP JUMPDEST SWAP2 POP DUP3 DUP3 DIV DUP5 EQ DUP4 ISZERO OR PUSH2 0x1E54 JUMPI PUSH2 0x1E53 PUSH2 0x1B8A JUMP JUMPDEST JUMPDEST POP SWAP3 SWAP2 POP POP JUMP JUMPDEST PUSH32 0x4E487B7100000000000000000000000000000000000000000000000000000000 PUSH0 MSTORE PUSH1 0x12 PUSH1 0x4 MSTORE PUSH1 0x24 PUSH0 REVERT JUMPDEST PUSH0 PUSH2 0x1E92 DUP3 PUSH2 0x184F JUMP JUMPDEST SWAP2 POP PUSH2 0x1E9D DUP4 PUSH2 0x184F JUMP JUMPDEST SWAP3 POP DUP3 PUSH2 0x1EAD JUMPI PUSH2 0x1EAC PUSH2 0x1E5B JUMP JUMPDEST JUMPDEST DUP3 DUP3 DIV SWAP1 POP SWAP3 SWAP2 POP POP JUMP JUMPDEST PUSH32 0x496E73756666696369656E7420546F6B656E4220696E20636F6E747261637400 PUSH0 DUP3 ADD MSTORE POP JUMP JUMPDEST PUSH0 PUSH2 0x1EEC PUSH1 0x1F DUP4 PUSH2 0x192C JUMP JUMPDEST SWAP2 POP PUSH2 0x1EF7 DUP3 PUSH2 0x1EB8 JUMP JUMPDEST PUSH1 0x20 DUP3 ADD SWAP1 POP SWAP2 SWAP1 POP JUMP JUMPDEST PUSH0 PUSH1 0x20 DUP3 ADD SWAP1 POP DUP2 DUP2 SUB PUSH0 DUP4 ADD MSTORE PUSH2 0x1F19 DUP2 PUSH2 0x1EE0 JUMP JUMPDEST SWAP1 POP SWAP2 SWAP1 POP JUMP JUMPDEST PUSH0 PUSH1 0x40 DUP3 ADD SWAP1 POP PUSH2 0x1F33 PUSH0 DUP4 ADD DUP6 PUSH2 0x1858 JUMP JUMPDEST PUSH2 0x1F40 PUSH1 0x20 DUP4 ADD DUP5 PUSH2 0x1858 JUMP JUMPDEST SWAP4 SWAP3 POP POP POP JUMP JUMPDEST PUSH32 0x4E6F74206F776E65720000000000000000000000000000000000000000000000 PUSH0 DUP3 ADD MSTORE POP JUMP JUMPDEST PUSH0 PUSH2 0x1F7B PUSH1 0x9 DUP4 PUSH2 0x192C JUMP JUMPDEST SWAP2 POP PUSH2 0x1F86 DUP3 PUSH2 0x1F47 JUMP JUMPDEST PUSH1 0x20 DUP3 ADD SWAP1 POP SWAP2 SWAP1 POP JUMP JUMPDEST PUSH0 PUSH1 0x20 DUP3 ADD SWAP1 POP DUP2 DUP2 SUB PUSH0 DUP4 ADD MSTORE PUSH2 0x1FA8 DUP2 PUSH2 0x1F6F JUMP JUMPDEST SWAP1 POP SWAP2 SWAP1 POP JUMP JUMPDEST PUSH32 0x496E73756666696369656E742066756E64730000000000000000000000000000 PUSH0 DUP3 ADD MSTORE POP JUMP JUMPDEST PUSH0 PUSH2 0x1FE3 PUSH1 0x12 DUP4 PUSH2 0x192C JUMP JUMPDEST SWAP2 POP PUSH2 0x1FEE DUP3 PUSH2 0x1FAF JUMP JUMPDEST PUSH1 0x20 DUP3 ADD SWAP1 POP SWAP2 SWAP1 POP JUMP JUMPDEST PUSH0 PUSH1 0x20 DUP3 ADD SWAP1 POP DUP2 DUP2 SUB PUSH0 DUP4 ADD MSTORE PUSH2 0x2010 DUP2 PUSH2 0x1FD7 JUMP JUMPDEST SWAP1 POP SWAP2 SWAP1 POP JUMP JUMPDEST PUSH32 0x5A65726F20726174650000000000000000000000000000000000000000000000 PUSH0 DUP3 ADD MSTORE POP JUMP JUMPDEST PUSH0 PUSH2 0x204B PUSH1 0x9 DUP4 PUSH2 0x192C JUMP JUMPDEST SWAP2 POP PUSH2 0x2056 DUP3 PUSH2 0x2017 JUMP JUMPDEST PUSH1 0x20 DUP3 ADD SWAP1 POP SWAP2 SWAP1 POP JUMP JUMPDEST PUSH0 PUSH1 0x20 DUP3 ADD SWAP1 POP DUP2 DUP2 SUB PUSH0 DUP4 ADD MSTORE PUSH2 0x2078 DUP2 PUSH2 0x203F JUMP JUMPDEST SWAP1 POP SWAP2 SWAP1 POP JUMP JUMPDEST PUSH32 0x5A65726F20616464726573730000000000000000000000000000000000000000 PUSH0 DUP3 ADD MSTORE POP JUMP JUMPDEST PUSH0 PUSH2 0x20B3 PUSH1 0xC DUP4 PUSH2 0x192C JUMP JUMPDEST SWAP2 POP PUSH2 0x20BE DUP3 PUSH2 0x207F JUMP JUMPDEST PUSH1 0x20 DUP3 ADD SWAP1 POP SWAP2 SWAP1 POP JUMP JUMPDEST PUSH0 PUSH1 0x20 DUP3 ADD SWAP1 POP DUP2 DUP2 SUB PUSH0 DUP4 ADD MSTORE PUSH2 0x20E0 DUP2 PUSH2 0x20A7 JUMP JUMPDEST SWAP1 POP SWAP2 SWAP1 POP JUMP INVALID LOG2 PUSH5 0x6970667358 0x22 SLT KECCAK256 0x24 PUSH8 0xAC00FB93951B63B7 SUB 0xD9 JUMP MUL DUP4 CODECOPY 0x22 LOG0 0xFC STOP SDIV PUSH14 0xF047CE277218A13210EB64736F6C PUSH4 0x4300081E STOP CALLER "
				},
				"gasEstimates": {
					"creation": {
						"codeDepositCost": "1695400",
						"executionCost": "infinite",
						"totalCost": "infinite"
					},
					"external": {
						"allowance(bool,address,address)": "infinite",
						"approve(bool,address,uint256)": "infinite",
						"balanceOf(bool,address)": "3085",
						"decimals(bool)": "2798",
						"exchangeRate()": "2493",
						"mint(bool,address,uint256)": "infinite",
						"name(bool)": "infinite",
						"owner()": "2531",
						"setExchangeRate(uint256)": "infinite",
						"swap(uint256)": "infinite",
						"symbol(bool)": "infinite",
						"totalSupply(bool)": "2800",
						"transfer(bool,address,uint256)": "infinite",
						"transferFrom(bool,address,address,uint256)": "infinite",
						"transferOwnership(address)": "30686",
						"withdraw(bool,uint256)": "infinite"
					}
				},
				"methodIdentifiers": {
					"allowance(bool,address,address)": "f2fc8603",
					"approve(bool,address,uint256)": "75f3f304",
					"balanceOf(bool,address)": "1903b431",
					"decimals(bool)": "08e6d07e",
					"exchangeRate()": "3ba0b9a9",
					"mint(bool,address,uint256)": "ef60e3b1",
					"name(bool)": "61c03aa2",
					"owner()": "8da5cb5b",
					"setExchangeRate(uint256)": "db068e0e",
					"swap(uint256)": "94b918de",
					"symbol(bool)": "b9acd876",
					"totalSupply(bool)": "89942649",
					"transfer(bool,address,uint256)": "52ab855a",
					"transferFrom(bool,address,address,uint256)": "89a903b1",
					"transferOwnership(address)": "f2fde38b",
					"withdraw(bool,uint256)": "984c0450"
				}
			},
			"storageLayout": {
				"storage": [
					{
						"astId": 24,
						"contract": "Contract_Conqueror_Series/simpleSwap.sol:UnifiedTokenSwap",
						"label": "tokenA",
						"offset": 0,
						"slot": "0",
						"type": "t_struct(Token)21_storage"
					},
					{
						"astId": 27,
						"contract": "Contract_Conqueror_Series/simpleSwap.sol:UnifiedTokenSwap",
						"label": "tokenB",
						"offset": 0,
						"slot": "6",
						"type": "t_struct(Token)21_storage"
					},
					{
						"astId": 29,
						"contract": "Contract_Conqueror_Series/simpleSwap.sol:UnifiedTokenSwap",
						"label": "owner",
						"offset": 0,
						"slot": "12",
						"type": "t_address"
					},
					{
						"astId": 31,
						"contract": "Contract_Conqueror_Series/simpleSwap.sol:UnifiedTokenSwap",
						"label": "exchangeRate",
						"offset": 0,
						"slot": "13",
						"type": "t_uint256"
					}
				],
				"types": {
					"t_address": {
						"encoding": "inplace",
						"label": "address",
						"numberOfBytes": "20"
					},
					"t_mapping(t_address,t_mapping(t_address,t_uint256))": {
						"encoding": "mapping",
						"key": "t_address",
						"label": "mapping(address => mapping(address => uint256))",
						"numberOfBytes": "32",
						"value": "t_mapping(t_address,t_uint256)"
					},
					"t_mapping(t_address,t_uint256)": {
						"encoding": "mapping",
						"key": "t_address",
						"label": "mapping(address => uint256)",
						"numberOfBytes": "32",
						"value": "t_uint256"
					},
					"t_string_storage": {
						"encoding": "bytes",
						"label": "string",
						"numberOfBytes": "32"
					},
					"t_struct(Token)21_storage": {
						"encoding": "inplace",
						"label": "struct UnifiedTokenSwap.Token",
						"members": [
							{
								"astId": 4,
								"contract": "Contract_Conqueror_Series/simpleSwap.sol:UnifiedTokenSwap",
								"label": "name",
								"offset": 0,
								"slot": "0",
								"type": "t_string_storage"
							},
							{
								"astId": 6,
								"contract": "Contract_Conqueror_Series/simpleSwap.sol:UnifiedTokenSwap",
								"label": "symbol",
								"offset": 0,
								"slot": "1",
								"type": "t_string_storage"
							},
							{
								"astId": 8,
								"contract": "Contract_Conqueror_Series/simpleSwap.sol:UnifiedTokenSwap",
								"label": "decimals",
								"offset": 0,
								"slot": "2",
								"type": "t_uint8"
							},
							{
								"astId": 10,
								"contract": "Contract_Conqueror_Series/simpleSwap.sol:UnifiedTokenSwap",
								"label": "totalSupply",
								"offset": 0,
								"slot": "3",
								"type": "t_uint256"
							},
							{
								"astId": 14,
								"contract": "Contract_Conqueror_Series/simpleSwap.sol:UnifiedTokenSwap",
								"label": "balanceOf",
								"offset": 0,
								"slot": "4",
								"type": "t_mapping(t_address,t_uint256)"
							},
							{
								"astId": 20,
								"contract": "Contract_Conqueror_Series/simpleSwap.sol:UnifiedTokenSwap",
								"label": "allowance",
								"offset": 0,
								"slot": "5",
								"type": "t_mapping(t_address,t_mapping(t_address,t_uint256))"
							}
						],
						"numberOfBytes": "192"
					},
					"t_uint256": {
						"encoding": "inplace",
						"label": "uint256",
						"numberOfBytes": "32"
					},
					"t_uint8": {
						"encoding": "inplace",
						"label": "uint8",
						"numberOfBytes": "1"
					}
				}
			},
			"userdoc": {
				"kind": "user",
				"methods": {},
				"notice": "Combines TokenA, TokenB, and Swap functionality in one contract",
				"version": 1
			}
		}
	}
}