{
	"data": {
		"bytecode": {
			"linkReferences": {},
			"object": "60a0604052601260025f6101000a81548160ff021916908360ff1602179055505f600460146101000a81548160ff021916908315150217905550348015610044575f5ffd5b50604051612baa380380612baa83398181016040528101906100669190610467565b835f9081610074919061070a565b508260019081610084919061070a565b503360045f6101000a81548173ffffffffffffffffffffffffffffffffffffffff021916908373ffffffffffffffffffffffffffffffffffffffff16021790555060025f9054906101000a900460ff1660ff16600a6100e39190610935565b816100ee919061097f565b6080818152505061014e60045f9054906101000a900473ffffffffffffffffffffffffffffffffffffffff1660025f9054906101000a900460ff1660ff16600a6101389190610935565b84610143919061097f565b61015760201b60201c565b50505050610a93565b5f73ffffffffffffffffffffffffffffffffffffffff168273ffffffffffffffffffffffffffffffffffffffff16036101c5576040517f08c379a00000000000000000000000000000000000000000000000000000000081526004016101bc90610a1a565b60405180910390fd5b8060035f8282546101d69190610a38565b925050819055508060055f8473ffffffffffffffffffffffffffffffffffffffff1673ffffffffffffffffffffffffffffffffffffffff1681526020019081526020015f205f8282546102299190610a38565b925050819055508173ffffffffffffffffffffffffffffffffffffffff167f0f6798a560793a54c3bcfe86a93cde1e73087d944c0ea20544137d4121396885826040516102769190610a7a565b60405180910390a28173ffffffffffffffffffffffffffffffffffffffff165f73ffffffffffffffffffffffffffffffffffffffff167fddf252ad1be2c89b69c2b068fc378daa952ba7f163c4a11628f55a4df523b3ef836040516102db9190610a7a565b60405180910390a35050565b5f604051905090565b5f5ffd5b5f5ffd5b5f5ffd5b5f5ffd5b5f601f19601f8301169050919050565b7f4e487b71000000000000000000000000000000000000000000000000000000005f52604160045260245ffd5b61034682610300565b810181811067ffffffffffffffff8211171561036557610364610310565b5b80604052505050565b5f6103776102e7565b9050610383828261033d565b919050565b5f67ffffffffffffffff8211156103a2576103a1610310565b5b6103ab82610300565b9050602081019050919050565b8281835e5f83830152505050565b5f6103d86103d384610388565b61036e565b9050828152602081018484840111156103f4576103f36102fc565b5b6103ff8482856103b8565b509392505050565b5f82601f83011261041b5761041a6102f8565b5b815161042b8482602086016103c6565b91505092915050565b5f819050919050565b61044681610434565b8114610450575f5ffd5b50565b5f815190506104618161043d565b92915050565b5f5f5f5f6080858703121561047f5761047e6102f0565b5b5f85015167ffffffffffffffff81111561049c5761049b6102f4565b5b6104a887828801610407565b945050602085015167ffffffffffffffff8111156104c9576104c86102f4565b5b6104d587828801610407565b93505060406104e687828801610453565b92505060606104f787828801610453565b91505092959194509250565b5f81519050919050565b7f4e487b71000000000000000000000000000000000000000000000000000000005f52602260045260245ffd5b5f600282049050600182168061055157607f821691505b6020821081036105645761056361050d565b5b50919050565b5f819050815f5260205f209050919050565b5f6020601f8301049050919050565b5f82821b905092915050565b5f600883026105c67fffffffffffffffffffffffffffffffffffffffffffffffffffffffffffffffff8261058b565b6105d0868361058b565b95508019841693508086168417925050509392505050565b5f819050919050565b5f61060b61060661060184610434565b6105e8565b610434565b9050919050565b5f819050919050565b610624836105f1565b61063861063082610612565b848454610597565b825550505050565b5f5f905090565b61064f610640565b61065a81848461061b565b505050565b5b8181101561067d576106725f82610647565b600181019050610660565b5050565b601f8211156106c2576106938161056a565b61069c8461057c565b810160208510156106ab578190505b6106bf6106b78561057c565b83018261065f565b50505b505050565b5f82821c905092915050565b5f6106e25f19846008026106c7565b1980831691505092915050565b5f6106fa83836106d3565b9150826002028217905092915050565b61071382610503565b67ffffffffffffffff81111561072c5761072b610310565b5b610736825461053a565b610741828285610681565b5f60209050601f831160018114610772575f8415610760578287015190505b61076a85826106ef565b8655506107d1565b601f1984166107808661056a565b5f5b828110156107a757848901518255600182019150602085019450602081019050610782565b868310156107c457848901516107c0601f8916826106d3565b8355505b6001600288020188555050505b505050505050565b7f4e487b71000000000000000000000000000000000000000000000000000000005f52601160045260245ffd5b5f8160011c9050919050565b5f5f8291508390505b600185111561085b57808604811115610837576108366107d9565b5b60018516156108465780820291505b808102905061085485610806565b945061081b565b94509492505050565b5f82610873576001905061092e565b81610880575f905061092e565b816001811461089657600281146108a0576108cf565b600191505061092e565b60ff8411156108b2576108b16107d9565b5b8360020a9150848211156108c9576108c86107d9565b5b5061092e565b5060208310610133831016604e8410600b84101617156109045782820a9050838111156108ff576108fe6107d9565b5b61092e565b6109118484846001610812565b92509050818404811115610928576109276107d9565b5b81810290505b9392505050565b5f61093f82610434565b915061094a83610434565b92506109777fffffffffffffffffffffffffffffffffffffffffffffffffffffffffffffffff8484610864565b905092915050565b5f61098982610434565b915061099483610434565b92508282026109a281610434565b915082820484148315176109b9576109b86107d9565b5b5092915050565b5f82825260208201905092915050565b7f496e76616c6964206164647265737300000000000000000000000000000000005f82015250565b5f610a04600f836109c0565b9150610a0f826109d0565b602082019050919050565b5f6020820190508181035f830152610a31816109f8565b9050919050565b5f610a4282610434565b9150610a4d83610434565b9250828201905080821115610a6557610a646107d9565b5b92915050565b610a7481610434565b82525050565b5f602082019050610a8d5f830184610a6b565b92915050565b6080516120f8610ab25f395f81816105ed015261080c01526120f85ff3fe608060405234801561000f575f5ffd5b5060043610610109575f3560e01c80635c975abb116100a05780638da5cb5b1161006f5780638da5cb5b1461027f57806395d89b411461029d578063a9059cbb146102bb578063c62b3bea146102eb578063dd62ed3e1461030757610109565b80635c975abb1461020957806370a082311461022757806372dd529b146102575780638456cb591461027557610109565b8063355274ea116100dc578063355274ea146101a95780633f4ba83a146101c757806340c10f19146101d157806342966c68146101ed57610109565b806306fdde031461010d578063095ea7b31461012b57806323b872dd1461015b578063313ce5671461018b575b5f5ffd5b610115610337565b60405161012291906116ae565b60405180910390f35b6101456004803603810190610140919061175f565b6103c2565b60405161015291906117b7565b60405180910390f35b610175600480360381019061017091906117d0565b610428565b60405161018291906117b7565b60405180910390f35b6101936105d8565b6040516101a0919061183b565b60405180910390f35b6101b16105ea565b6040516101be9190611863565b60405180910390f35b6101cf610611565b005b6101eb60048036038101906101e6919061175f565b6106ff565b005b6102076004803603810190610202919061187c565b6108b1565b005b61021161098e565b60405161021e91906117b7565b60405180910390f35b610241600480360381019061023c91906118a7565b6109a1565b60405161024e9190611863565b60405180910390f35b61025f6109e7565b60405161026c9190611863565b60405180910390f35b61027d6109f0565b005b610287610adf565b60405161029491906118e1565b60405180910390f35b6102a5610b04565b6040516102b291906116ae565b60405180910390f35b6102d560048036038101906102d0919061175f565b610b90565b6040516102e291906117b7565b60405180910390f35b6103056004803603810190610300919061175f565b610bf6565b005b610321600480360381019061031c91906118fa565b610d9d565b60405161032e9190611863565b60405180910390f35b5f805461034390611965565b80601f016020809104026020016040519081016040528092919081815260200182805461036f90611965565b80156103ba5780601f10610391576101008083540402835291602001916103ba565b820191905f5260205f20905b81548152906001019060200180831161039d57829003601f168201915b505050505081565b5f600460149054906101000a900460ff1615610413576040517f08c379a000000000000000000000000000000000000000000000000000000000815260040161040a906119df565b60405180910390fd5b61041e338484610e6f565b6001905092915050565b5f600460149054906101000a900460ff1615610479576040517f08c379a0000000000000000000000000000000000000000000000000000000008152600401610470906119df565b60405180910390fd5b8160065f8673ffffffffffffffffffffffffffffffffffffffff1673ffffffffffffffffffffffffffffffffffffffff1681526020019081526020015f205f3373ffffffffffffffffffffffffffffffffffffffff1673ffffffffffffffffffffffffffffffffffffffff1681526020019081526020015f20541015610534576040517f08c379a000000000000000000000000000000000000000000000000000000000815260040161052b90611a47565b60405180910390fd5b8160065f8673ffffffffffffffffffffffffffffffffffffffff1673ffffffffffffffffffffffffffffffffffffffff1681526020019081526020015f205f3373ffffffffffffffffffffffffffffffffffffffff1673ffffffffffffffffffffffffffffffffffffffff1681526020019081526020015f205f8282546105bb9190611a92565b925050819055506105cd848484611032565b600190509392505050565b60025f9054906101000a900460ff1681565b5f7f0000000000000000000000000000000000000000000000000000000000000000905090565b60045f9054906101000a900473ffffffffffffffffffffffffffffffffffffffff1673ffffffffffffffffffffffffffffffffffffffff163373ffffffffffffffffffffffffffffffffffffffff16146106a0576040517f08c379a000000000000000000000000000000000000000000000000000000000815260040161069790611b0f565b60405180910390fd5b5f600460146101000a81548160ff0219169083151502179055503373ffffffffffffffffffffffffffffffffffffffff167f5db9ee0a495bf2e6ff9c91a7834c1ba4fdd244a5e8aa4e537bd38aeae4b073aa60405160405180910390a2565b60045f9054906101000a900473ffffffffffffffffffffffffffffffffffffffff1673ffffffffffffffffffffffffffffffffffffffff163373ffffffffffffffffffffffffffffffffffffffff161461078e576040517f08c379a000000000000000000000000000000000000000000000000000000000815260040161078590611b0f565b60405180910390fd5b600460149054906101000a900460ff16156107de576040517f08c379a00000000000000000000000000000000000000000000000000000000081526004016107d5906119df565b60405180910390fd5b5f60025f9054906101000a900460ff1660ff16600a6107fd9190611c5c565b826108089190611ca6565b90507f0000000000000000000000000000000000000000000000000000000000000000816003546108399190611ce7565b111561087a576040517f08c379a000000000000000000000000000000000000000000000000000000000815260040161087190611d64565b60405180910390fd5b6108ac8360025f9054906101000a900460ff1660ff16600a61089c9190611c5c565b846108a79190611ca6565b61129e565b505050565b600460149054906101000a900460ff1615610901576040517f08c379a00000000000000000000000000000000000000000000000000000000081526004016108f8906119df565b60405180910390fd5b8060055f3373ffffffffffffffffffffffffffffffffffffffff1673ffffffffffffffffffffffffffffffffffffffff1681526020019081526020015f20541015610981576040517f08c379a000000000000000000000000000000000000000000000000000000000815260040161097890611dcc565b60405180910390fd5b61098b338261142e565b50565b600460149054906101000a900460ff1681565b5f60055f8373ffffffffffffffffffffffffffffffffffffffff1673ffffffffffffffffffffffffffffffffffffffff1681526020019081526020015f20549050919050565b5f600354905090565b60045f9054906101000a900473ffffffffffffffffffffffffffffffffffffffff1673ffffffffffffffffffffffffffffffffffffffff163373ffffffffffffffffffffffffffffffffffffffff1614610a7f576040517f08c379a0000000000000000000000000000000000000000000000000000000008152600401610a7690611b0f565b60405180910390fd5b6001600460146101000a81548160ff0219169083151502179055503373ffffffffffffffffffffffffffffffffffffffff167f62e78cea01bee320cd4e420270b5ea74000d11b0c9f74754ebdbfc544b05a25860405160405180910390a2565b60045f9054906101000a900473ffffffffffffffffffffffffffffffffffffffff1681565b60018054610b1190611965565b80601f0160208091040260200160405190810160405280929190818152602001828054610b3d90611965565b8015610b885780601f10610b5f57610100808354040283529160200191610b88565b820191905f5260205f20905b815481529060010190602001808311610b6b57829003601f168201915b505050505081565b5f600460149054906101000a900460ff1615610be1576040517f08c379a0000000000000000000000000000000000000000000000000000000008152600401610bd8906119df565b60405180910390fd5b610bec338484611032565b6001905092915050565b600460149054906101000a900460ff1615610c46576040517f08c379a0000000000000000000000000000000000000000000000000000000008152600401610c3d906119df565b60405180910390fd5b8060065f8473ffffffffffffffffffffffffffffffffffffffff1673ffffffffffffffffffffffffffffffffffffffff1681526020019081526020015f205f3373ffffffffffffffffffffffffffffffffffffffff1673ffffffffffffffffffffffffffffffffffffffff1681526020019081526020015f20541015610d01576040517f08c379a0000000000000000000000000000000000000000000000000000000008152600401610cf890611e34565b60405180910390fd5b8060065f8473ffffffffffffffffffffffffffffffffffffffff1673ffffffffffffffffffffffffffffffffffffffff1681526020019081526020015f205f3373ffffffffffffffffffffffffffffffffffffffff1673ffffffffffffffffffffffffffffffffffffffff1681526020019081526020015f205f828254610d889190611a92565b92505081905550610d99828261142e565b5050565b5f600460149054906101000a900460ff1615610dee576040517f08c379a0000000000000000000000000000000000000000000000000000000008152600401610de5906119df565b60405180910390fd5b60065f8473ffffffffffffffffffffffffffffffffffffffff1673ffffffffffffffffffffffffffffffffffffffff1681526020019081526020015f205f8373ffffffffffffffffffffffffffffffffffffffff1673ffffffffffffffffffffffffffffffffffffffff1681526020019081526020015f2054905092915050565b5f73ffffffffffffffffffffffffffffffffffffffff168373ffffffffffffffffffffffffffffffffffffffff1603610edd576040517f08c379a0000000000000000000000000000000000000000000000000000000008152600401610ed490611e9c565b60405180910390fd5b5f73ffffffffffffffffffffffffffffffffffffffff168273ffffffffffffffffffffffffffffffffffffffff1603610f4b576040517f08c379a0000000000000000000000000000000000000000000000000000000008152600401610f4290611f04565b60405180910390fd5b8060065f8573ffffffffffffffffffffffffffffffffffffffff1673ffffffffffffffffffffffffffffffffffffffff1681526020019081526020015f205f8473ffffffffffffffffffffffffffffffffffffffff1673ffffffffffffffffffffffffffffffffffffffff1681526020019081526020015f20819055508173ffffffffffffffffffffffffffffffffffffffff168373ffffffffffffffffffffffffffffffffffffffff167f8c5be1e5ebec7d5bd14f71427d1e84f3dd0314c0f7b2291e5b200ac8c7c3b925836040516110259190611863565b60405180910390a3505050565b5f73ffffffffffffffffffffffffffffffffffffffff168373ffffffffffffffffffffffffffffffffffffffff16036110a0576040517f08c379a000000000000000000000000000000000000000000000000000000000815260040161109790611f6c565b60405180910390fd5b5f73ffffffffffffffffffffffffffffffffffffffff168273ffffffffffffffffffffffffffffffffffffffff160361110e576040517f08c379a000000000000000000000000000000000000000000000000000000000815260040161110590611fd4565b60405180910390fd5b8060055f8573ffffffffffffffffffffffffffffffffffffffff1673ffffffffffffffffffffffffffffffffffffffff1681526020019081526020015f2054101561118e576040517f08c379a00000000000000000000000000000000000000000000000000000000081526004016111859061203c565b60405180910390fd5b8060055f8573ffffffffffffffffffffffffffffffffffffffff1673ffffffffffffffffffffffffffffffffffffffff1681526020019081526020015f205f8282546111da9190611a92565b925050819055508060055f8473ffffffffffffffffffffffffffffffffffffffff1673ffffffffffffffffffffffffffffffffffffffff1681526020019081526020015f205f82825461122d9190611ce7565b925050819055508173ffffffffffffffffffffffffffffffffffffffff168373ffffffffffffffffffffffffffffffffffffffff167fddf252ad1be2c89b69c2b068fc378daa952ba7f163c4a11628f55a4df523b3ef836040516112919190611863565b60405180910390a3505050565b5f73ffffffffffffffffffffffffffffffffffffffff168273ffffffffffffffffffffffffffffffffffffffff160361130c576040517f08c379a0000000000000000000000000000000000000000000000000000000008152600401611303906120a4565b60405180910390fd5b8060035f82825461131d9190611ce7565b925050819055508060055f8473ffffffffffffffffffffffffffffffffffffffff1673ffffffffffffffffffffffffffffffffffffffff1681526020019081526020015f205f8282546113709190611ce7565b925050819055508173ffffffffffffffffffffffffffffffffffffffff167f0f6798a560793a54c3bcfe86a93cde1e73087d944c0ea20544137d4121396885826040516113bd9190611863565b60405180910390a28173ffffffffffffffffffffffffffffffffffffffff165f73ffffffffffffffffffffffffffffffffffffffff167fddf252ad1be2c89b69c2b068fc378daa952ba7f163c4a11628f55a4df523b3ef836040516114229190611863565b60405180910390a35050565b5f73ffffffffffffffffffffffffffffffffffffffff168273ffffffffffffffffffffffffffffffffffffffff160361149c576040517f08c379a0000000000000000000000000000000000000000000000000000000008152600401611493906120a4565b60405180910390fd5b8060055f8473ffffffffffffffffffffffffffffffffffffffff1673ffffffffffffffffffffffffffffffffffffffff1681526020019081526020015f2054101561151c576040517f08c379a00000000000000000000000000000000000000000000000000000000081526004016115139061203c565b60405180910390fd5b8060055f8473ffffffffffffffffffffffffffffffffffffffff1673ffffffffffffffffffffffffffffffffffffffff1681526020019081526020015f205f8282546115689190611a92565b925050819055508060035f8282546115809190611a92565b925050819055508173ffffffffffffffffffffffffffffffffffffffff167fcc16f5dbb4873280815c1ee09dbd06736cffcc184412cf7a71a0fdb75d397ca5826040516115cd9190611863565b60405180910390a25f73ffffffffffffffffffffffffffffffffffffffff168273ffffffffffffffffffffffffffffffffffffffff167fddf252ad1be2c89b69c2b068fc378daa952ba7f163c4a11628f55a4df523b3ef836040516116329190611863565b60405180910390a35050565b5f81519050919050565b5f82825260208201905092915050565b8281835e5f83830152505050565b5f601f19601f8301169050919050565b5f6116808261163e565b61168a8185611648565b935061169a818560208601611658565b6116a381611666565b840191505092915050565b5f6020820190508181035f8301526116c68184611676565b905092915050565b5f5ffd5b5f73ffffffffffffffffffffffffffffffffffffffff82169050919050565b5f6116fb826116d2565b9050919050565b61170b816116f1565b8114611715575f5ffd5b50565b5f8135905061172681611702565b92915050565b5f819050919050565b61173e8161172c565b8114611748575f5ffd5b50565b5f8135905061175981611735565b92915050565b5f5f60408385031215611775576117746116ce565b5b5f61178285828601611718565b92505060206117938582860161174b565b9150509250929050565b5f8115159050919050565b6117b18161179d565b82525050565b5f6020820190506117ca5f8301846117a8565b92915050565b5f5f5f606084860312156117e7576117e66116ce565b5b5f6117f486828701611718565b935050602061180586828701611718565b92505060406118168682870161174b565b9150509250925092565b5f60ff82169050919050565b61183581611820565b82525050565b5f60208201905061184e5f83018461182c565b92915050565b61185d8161172c565b82525050565b5f6020820190506118765f830184611854565b92915050565b5f60208284031215611891576118906116ce565b5b5f61189e8482850161174b565b91505092915050565b5f602082840312156118bc576118bb6116ce565b5b5f6118c984828501611718565b91505092915050565b6118db816116f1565b82525050565b5f6020820190506118f45f8301846118d2565b92915050565b5f5f604083850312156119105761190f6116ce565b5b5f61191d85828601611718565b925050602061192e85828601611718565b9150509250929050565b7f4e487b71000000000000000000000000000000000000000000000000000000005f52602260045260245ffd5b5f600282049050600182168061197c57607f821691505b60208210810361198f5761198e611938565b5b50919050565b7f436f6e74726163742069732070617573656400000000000000000000000000005f82015250565b5f6119c9601283611648565b91506119d482611995565b602082019050919050565b5f6020820190508181035f8301526119f6816119bd565b9050919050565b7f45524332303a20696e73756666696369656e7420616c6c6f77616e63650000005f82015250565b5f611a31601d83611648565b9150611a3c826119fd565b602082019050919050565b5f6020820190508181035f830152611a5e81611a25565b9050919050565b7f4e487b71000000000000000000000000000000000000000000000000000000005f52601160045260245ffd5b5f611a9c8261172c565b9150611aa78361172c565b9250828203905081811115611abf57611abe611a65565b5b92915050565b7f4e6f7420636f6e7472616374204f776e657200000000000000000000000000005f82015250565b5f611af9601283611648565b9150611b0482611ac5565b602082019050919050565b5f6020820190508181035f830152611b2681611aed565b9050919050565b5f8160011c9050919050565b5f5f8291508390505b6001851115611b8257808604811115611b5e57611b5d611a65565b5b6001851615611b6d5780820291505b8081029050611b7b85611b2d565b9450611b42565b94509492505050565b5f82611b9a5760019050611c55565b81611ba7575f9050611c55565b8160018114611bbd5760028114611bc757611bf6565b6001915050611c55565b60ff841115611bd957611bd8611a65565b5b8360020a915084821115611bf057611bef611a65565b5b50611c55565b5060208310610133831016604e8410600b8410161715611c2b5782820a905083811115611c2657611c25611a65565b5b611c55565b611c388484846001611b39565b92509050818404811115611c4f57611c4e611a65565b5b81810290505b9392505050565b5f611c668261172c565b9150611c718361172c565b9250611c9e7fffffffffffffffffffffffffffffffffffffffffffffffffffffffffffffffff8484611b8b565b905092915050565b5f611cb08261172c565b9150611cbb8361172c565b9250828202611cc98161172c565b91508282048414831517611ce057611cdf611a65565b5b5092915050565b5f611cf18261172c565b9150611cfc8361172c565b9250828201905080821115611d1457611d13611a65565b5b92915050565b7f45786365656473206361700000000000000000000000000000000000000000005f82015250565b5f611d4e600b83611648565b9150611d5982611d1a565b602082019050919050565b5f6020820190508181035f830152611d7b81611d42565b9050919050565b7f496e73756666696369656e742062616c616e636520746f206275726e000000005f82015250565b5f611db6601c83611648565b9150611dc182611d82565b602082019050919050565b5f6020820190508181035f830152611de381611daa565b9050919050565b7f416c6c6f77616e636520657863656564656400000000000000000000000000005f82015250565b5f611e1e601283611648565b9150611e2982611dea565b602082019050919050565b5f6020820190508181035f830152611e4b81611e12565b9050919050565b7f45524332303a20617070726f76652066726f6d203078300000000000000000005f82015250565b5f611e86601783611648565b9150611e9182611e52565b602082019050919050565b5f6020820190508181035f830152611eb381611e7a565b9050919050565b7f45524332303a20617070726f766520746f2030783000000000000000000000005f82015250565b5f611eee601583611648565b9150611ef982611eba565b602082019050919050565b5f6020820190508181035f830152611f1b81611ee2565b9050919050565b7f45524332303a207472616e736665722066726f6d2030783000000000000000005f82015250565b5f611f56601883611648565b9150611f6182611f22565b602082019050919050565b5f6020820190508181035f830152611f8381611f4a565b9050919050565b7f45524332303a207472616e7366657220746f20307830000000000000000000005f82015250565b5f611fbe601683611648565b9150611fc982611f8a565b602082019050919050565b5f6020820190508181035f830152611feb81611fb2565b9050919050565b7f45524332303a20696e73756666696369656e742062616c616e636500000000005f82015250565b5f612026601b83611648565b915061203182611ff2565b602082019050919050565b5f6020820190508181035f8301526120538161201a565b9050919050565b7f496e76616c6964206164647265737300000000000000000000000000000000005f82015250565b5f61208e600f83611648565b91506120998261205a565b602082019050919050565b5f6020820190508181035f8301526120bb81612082565b905091905056fea264697066735822122077d534013af2009ba27a974bb45be4d6fdc887a2d6b947f40e54bf89ba13b9b064736f6c634300081e0033",
			"opcodes": "PUSH1 0xA0 PUSH1 0x40 MSTORE PUSH1 0x12 PUSH1 0x2 PUSH0 PUSH2 0x100 EXP DUP2 SLOAD DUP2 PUSH1 0xFF MUL NOT AND SWAP1 DUP4 PUSH1 0xFF AND MUL OR SWAP1 SSTORE POP PUSH0 PUSH1 0x4 PUSH1 0x14 PUSH2 0x100 EXP DUP2 SLOAD DUP2 PUSH1 0xFF MUL NOT AND SWAP1 DUP4 ISZERO ISZERO MUL OR SWAP1 SSTORE POP CALLVALUE DUP1 ISZERO PUSH2 0x44 JUMPI PUSH0 PUSH0 REVERT JUMPDEST POP PUSH1 0x40 MLOAD PUSH2 0x2BAA CODESIZE SUB DUP1 PUSH2 0x2BAA DUP4 CODECOPY DUP2 DUP2 ADD PUSH1 0x40 MSTORE DUP2 ADD SWAP1 PUSH2 0x66 SWAP2 SWAP1 PUSH2 0x467 JUMP JUMPDEST DUP4 PUSH0 SWAP1 DUP2 PUSH2 0x74 SWAP2 SWAP1 PUSH2 0x70A JUMP JUMPDEST POP DUP3 PUSH1 0x1 SWAP1 DUP2 PUSH2 0x84 SWAP2 SWAP1 PUSH2 0x70A JUMP JUMPDEST POP CALLER PUSH1 0x4 PUSH0 PUSH2 0x100 EXP DUP2 SLOAD DUP2 PUSH20 0xFFFFFFFFFFFFFFFFFFFFFFFFFFFFFFFFFFFFFFFF MUL NOT AND SWAP1 DUP4 PUSH20 0xFFFFFFFFFFFFFFFFFFFFFFFFFFFFFFFFFFFFFFFF AND MUL OR SWAP1 SSTORE POP PUSH1 0x2 PUSH0 SWAP1 SLOAD SWAP1 PUSH2 0x100 EXP SWAP1 DIV PUSH1 0xFF AND PUSH1 0xFF AND PUSH1 0xA PUSH2 0xE3 SWAP2 SWAP1 PUSH2 0x935 JUMP JUMPDEST DUP2 PUSH2 0xEE SWAP2 SWAP1 PUSH2 0x97F JUMP JUMPDEST PUSH1 0x80 DUP2 DUP2 MSTORE POP POP PUSH2 0x14E PUSH1 0x4 PUSH0 SWAP1 SLOAD SWAP1 PUSH2 0x100 EXP SWAP1 DIV PUSH20 0xFFFFFFFFFFFFFFFFFFFFFFFFFFFFFFFFFFFFFFFF AND PUSH1 0x2 PUSH0 SWAP1 SLOAD SWAP1 PUSH2 0x100 EXP SWAP1 DIV PUSH1 0xFF AND PUSH1 0xFF AND PUSH1 0xA PUSH2 0x138 SWAP2 SWAP1 PUSH2 0x935 JUMP JUMPDEST DUP5 PUSH2 0x143 SWAP2 SWAP1 PUSH2 0x97F JUMP JUMPDEST PUSH2 0x157 PUSH1 0x20 SHL PUSH1 0x20 SHR JUMP JUMPDEST POP POP POP POP PUSH2 0xA93 JUMP JUMPDEST PUSH0 PUSH20 0xFFFFFFFFFFFFFFFFFFFFFFFFFFFFFFFFFFFFFFFF AND DUP3 PUSH20 0xFFFFFFFFFFFFFFFFFFFFFFFFFFFFFFFFFFFFFFFF AND SUB PUSH2 0x1C5 JUMPI PUSH1 0x40 MLOAD PUSH32 0x8C379A000000000000000000000000000000000000000000000000000000000 DUP2 MSTORE PUSH1 0x4 ADD PUSH2 0x1BC SWAP1 PUSH2 0xA1A JUMP JUMPDEST PUSH1 0x40 MLOAD DUP1 SWAP2 SUB SWAP1 REVERT JUMPDEST DUP1 PUSH1 0x3 PUSH0 DUP3 DUP3 SLOAD PUSH2 0x1D6 SWAP2 SWAP1 PUSH2 0xA38 JUMP JUMPDEST SWAP3 POP POP DUP2 SWAP1 SSTORE POP DUP1 PUSH1 0x5 PUSH0 DUP5 PUSH20 0xFFFFFFFFFFFFFFFFFFFFFFFFFFFFFFFFFFFFFFFF AND PUSH20 0xFFFFFFFFFFFFFFFFFFFFFFFFFFFFFFFFFFFFFFFF AND DUP2 MSTORE PUSH1 0x20 ADD SWAP1 DUP2 MSTORE PUSH1 0x20 ADD PUSH0 KECCAK256 PUSH0 DUP3 DUP3 SLOAD PUSH2 0x229 SWAP2 SWAP1 PUSH2 0xA38 JUMP JUMPDEST SWAP3 POP POP DUP2 SWAP1 SSTORE POP DUP2 PUSH20 0xFFFFFFFFFFFFFFFFFFFFFFFFFFFFFFFFFFFFFFFF AND PUSH32 0xF6798A560793A54C3BCFE86A93CDE1E73087D944C0EA20544137D4121396885 DUP3 PUSH1 0x40 MLOAD PUSH2 0x276 SWAP2 SWAP1 PUSH2 0xA7A JUMP JUMPDEST PUSH1 0x40 MLOAD DUP1 SWAP2 SUB SWAP1 LOG2 DUP2 PUSH20 0xFFFFFFFFFFFFFFFFFFFFFFFFFFFFFFFFFFFFFFFF AND PUSH0 PUSH20 0xFFFFFFFFFFFFFFFFFFFFFFFFFFFFFFFFFFFFFFFF AND PUSH32 0xDDF252AD1BE2C89B69C2B068FC378DAA952BA7F163C4A11628F55A4DF523B3EF DUP4 PUSH1 0x40 MLOAD PUSH2 0x2DB SWAP2 SWAP1 PUSH2 0xA7A JUMP JUMPDEST PUSH1 0x40 MLOAD DUP1 SWAP2 SUB SWAP1 LOG3 POP POP JUMP JUMPDEST PUSH0 PUSH1 0x40 MLOAD SWAP1 POP SWAP1 JUMP JUMPDEST PUSH0 PUSH0 REVERT JUMPDEST PUSH0 PUSH0 REVERT JUMPDEST PUSH0 PUSH0 REVERT JUMPDEST PUSH0 PUSH0 REVERT JUMPDEST PUSH0 PUSH1 0x1F NOT PUSH1 0x1F DUP4 ADD AND SWAP1 POP SWAP2 SWAP1 POP JUMP JUMPDEST PUSH32 0x4E487B7100000000000000000000000000000000000000000000000000000000 PUSH0 MSTORE PUSH1 0x41 PUSH1 0x4 MSTORE PUSH1 0x24 PUSH0 REVERT JUMPDEST PUSH2 0x346 DUP3 PUSH2 0x300 JUMP JUMPDEST DUP2 ADD DUP2 DUP2 LT PUSH8 0xFFFFFFFFFFFFFFFF DUP3 GT OR ISZERO PUSH2 0x365 JUMPI PUSH2 0x364 PUSH2 0x310 JUMP JUMPDEST JUMPDEST DUP1 PUSH1 0x40 MSTORE POP POP POP JUMP JUMPDEST PUSH0 PUSH2 0x377 PUSH2 0x2E7 JUMP JUMPDEST SWAP1 POP PUSH2 0x383 DUP3 DUP3 PUSH2 0x33D JUMP JUMPDEST SWAP2 SWAP1 POP JUMP JUMPDEST PUSH0 PUSH8 0xFFFFFFFFFFFFFFFF DUP3 GT ISZERO PUSH2 0x3A2 JUMPI PUSH2 0x3A1 PUSH2 0x310 JUMP JUMPDEST JUMPDEST PUSH2 0x3AB DUP3 PUSH2 0x300 JUMP JUMPDEST SWAP1 POP PUSH1 0x20 DUP2 ADD SWAP1 POP SWAP2 SWAP1 POP JUMP JUMPDEST DUP3 DUP2 DUP4 MCOPY PUSH0 DUP4 DUP4 ADD MSTORE POP POP POP JUMP JUMPDEST PUSH0 PUSH2 0x3D8 PUSH2 0x3D3 DUP5 PUSH2 0x388 JUMP JUMPDEST PUSH2 0x36E JUMP JUMPDEST SWAP1 POP DUP3 DUP2 MSTORE PUSH1 0x20 DUP2 ADD DUP5 DUP5 DUP5 ADD GT ISZERO PUSH2 0x3F4 JUMPI PUSH2 0x3F3 PUSH2 0x2FC JUMP JUMPDEST JUMPDEST PUSH2 0x3FF DUP5 DUP3 DUP6 PUSH2 0x3B8 JUMP JUMPDEST POP SWAP4 SWAP3 POP POP POP JUMP JUMPDEST PUSH0 DUP3 PUSH1 0x1F DUP4 ADD SLT PUSH2 0x41B JUMPI PUSH2 0x41A PUSH2 0x2F8 JUMP JUMPDEST JUMPDEST DUP2 MLOAD PUSH2 0x42B DUP5 DUP3 PUSH1 0x20 DUP7 ADD PUSH2 0x3C6 JUMP JUMPDEST SWAP2 POP POP SWAP3 SWAP2 POP POP JUMP JUMPDEST PUSH0 DUP2 SWAP1 POP SWAP2 SWAP1 POP JUMP JUMPDEST PUSH2 0x446 DUP2 PUSH2 0x434 JUMP JUMPDEST DUP2 EQ PUSH2 0x450 JUMPI PUSH0 PUSH0 REVERT JUMPDEST POP JUMP JUMPDEST PUSH0 DUP2 MLOAD SWAP1 POP PUSH2 0x461 DUP2 PUSH2 0x43D JUMP JUMPDEST SWAP3 SWAP2 POP POP JUMP JUMPDEST PUSH0 PUSH0 PUSH0 PUSH0 PUSH1 0x80 DUP6 DUP8 SUB SLT ISZERO PUSH2 0x47F JUMPI PUSH2 0x47E PUSH2 0x2F0 JUMP JUMPDEST JUMPDEST PUSH0 DUP6 ADD MLOAD PUSH8 0xFFFFFFFFFFFFFFFF DUP2 GT ISZERO PUSH2 0x49C JUMPI PUSH2 0x49B PUSH2 0x2F4 JUMP JUMPDEST JUMPDEST PUSH2 0x4A8 DUP8 DUP3 DUP9 ADD PUSH2 0x407 JUMP JUMPDEST SWAP5 POP POP PUSH1 0x20 DUP6 ADD MLOAD PUSH8 0xFFFFFFFFFFFFFFFF DUP2 GT ISZERO PUSH2 0x4C9 JUMPI PUSH2 0x4C8 PUSH2 0x2F4 JUMP JUMPDEST JUMPDEST PUSH2 0x4D5 DUP8 DUP3 DUP9 ADD PUSH2 0x407 JUMP JUMPDEST SWAP4 POP POP PUSH1 0x40 PUSH2 0x4E6 DUP8 DUP3 DUP9 ADD PUSH2 0x453 JUMP JUMPDEST SWAP3 POP POP PUSH1 0x60 PUSH2 0x4F7 DUP8 DUP3 DUP9 ADD PUSH2 0x453 JUMP JUMPDEST SWAP2 POP POP SWAP3 SWAP6 SWAP2 SWAP5 POP SWAP3 POP JUMP JUMPDEST PUSH0 DUP2 MLOAD SWAP1 POP SWAP2 SWAP1 POP JUMP JUMPDEST PUSH32 0x4E487B7100000000000000000000000000000000000000000000000000000000 PUSH0 MSTORE PUSH1 0x22 PUSH1 0x4 MSTORE PUSH1 0x24 PUSH0 REVERT JUMPDEST PUSH0 PUSH1 0x2 DUP3 DIV SWAP1 POP PUSH1 0x1 DUP3 AND DUP1 PUSH2 0x551 JUMPI PUSH1 0x7F DUP3 AND SWAP2 POP JUMPDEST PUSH1 0x20 DUP3 LT DUP2 SUB PUSH2 0x564 JUMPI PUSH2 0x563 PUSH2 0x50D JUMP JUMPDEST JUMPDEST POP SWAP2 SWAP1 POP JUMP JUMPDEST PUSH0 DUP2 SWAP1 POP DUP2 PUSH0 MSTORE PUSH1 0x20 PUSH0 KECCAK256 SWAP1 POP SWAP2 SWAP1 POP JUMP JUMPDEST PUSH0 PUSH1 0x20 PUSH1 0x1F DUP4 ADD DIV SWAP1 POP SWAP2 SWAP1 POP JUMP JUMPDEST PUSH0 DUP3 DUP3 SHL SWAP1 POP SWAP3 SWAP2 POP POP JUMP JUMPDEST PUSH0 PUSH1 0x8 DUP4 MUL PUSH2 0x5C6 PUSH32 0xFFFFFFFFFFFFFFFFFFFFFFFFFFFFFFFFFFFFFFFFFFFFFFFFFFFFFFFFFFFFFFFF DUP3 PUSH2 0x58B JUMP JUMPDEST PUSH2 0x5D0 DUP7 DUP4 PUSH2 0x58B JUMP JUMPDEST SWAP6 POP DUP1 NOT DUP5 AND SWAP4 POP DUP1 DUP7 AND DUP5 OR SWAP3 POP POP POP SWAP4 SWAP3 POP POP POP JUMP JUMPDEST PUSH0 DUP2 SWAP1 POP SWAP2 SWAP1 POP JUMP JUMPDEST PUSH0 PUSH2 0x60B PUSH2 0x606 PUSH2 0x601 DUP5 PUSH2 0x434 JUMP JUMPDEST PUSH2 0x5E8 JUMP JUMPDEST PUSH2 0x434 JUMP JUMPDEST SWAP1 POP SWAP2 SWAP1 POP JUMP JUMPDEST PUSH0 DUP2 SWAP1 POP SWAP2 SWAP1 POP JUMP JUMPDEST PUSH2 0x624 DUP4 PUSH2 0x5F1 JUMP JUMPDEST PUSH2 0x638 PUSH2 0x630 DUP3 PUSH2 0x612 JUMP JUMPDEST DUP5 DUP5 SLOAD PUSH2 0x597 JUMP JUMPDEST DUP3 SSTORE POP POP POP POP JUMP JUMPDEST PUSH0 PUSH0 SWAP1 POP SWAP1 JUMP JUMPDEST PUSH2 0x64F PUSH2 0x640 JUMP JUMPDEST PUSH2 0x65A DUP2 DUP5 DUP5 PUSH2 0x61B JUMP JUMPDEST POP POP POP JUMP JUMPDEST JUMPDEST DUP2 DUP2 LT ISZERO PUSH2 0x67D JUMPI PUSH2 0x672 PUSH0 DUP3 PUSH2 0x647 JUMP JUMPDEST PUSH1 0x1 DUP2 ADD SWAP1 POP PUSH2 0x660 JUMP JUMPDEST POP POP JUMP JUMPDEST PUSH1 0x1F DUP3 GT ISZERO PUSH2 0x6C2 JUMPI PUSH2 0x693 DUP2 PUSH2 0x56A JUMP JUMPDEST PUSH2 0x69C DUP5 PUSH2 0x57C JUMP JUMPDEST DUP2 ADD PUSH1 0x20 DUP6 LT ISZERO PUSH2 0x6AB JUMPI DUP2 SWAP1 POP JUMPDEST PUSH2 0x6BF PUSH2 0x6B7 DUP6 PUSH2 0x57C JUMP JUMPDEST DUP4 ADD DUP3 PUSH2 0x65F JUMP JUMPDEST POP POP JUMPDEST POP POP POP JUMP JUMPDEST PUSH0 DUP3 DUP3 SHR SWAP1 POP SWAP3 SWAP2 POP POP JUMP JUMPDEST PUSH0 PUSH2 0x6E2 PUSH0 NOT DUP5 PUSH1 0x8 MUL PUSH2 0x6C7 JUMP JUMPDEST NOT DUP1 DUP4 AND SWAP2 POP POP SWAP3 SWAP2 POP POP JUMP JUMPDEST PUSH0 PUSH2 0x6FA DUP4 DUP4 PUSH2 0x6D3 JUMP JUMPDEST SWAP2 POP DUP3 PUSH1 0x2 MUL DUP3 OR SWAP1 POP SWAP3 SWAP2 POP POP JUMP JUMPDEST PUSH2 0x713 DUP3 PUSH2 0x503 JUMP JUMPDEST PUSH8 0xFFFFFFFFFFFFFFFF DUP2 GT ISZERO PUSH2 0x72C JUMPI PUSH2 0x72B PUSH2 0x310 JUMP JUMPDEST JUMPDEST PUSH2 0x736 DUP3 SLOAD PUSH2 0x53A JUMP JUMPDEST PUSH2 0x741 DUP3 DUP3 DUP6 PUSH2 0x681 JUMP JUMPDEST PUSH0 PUSH1 0x20 SWAP1 POP PUSH1 0x1F DUP4 GT PUSH1 0x1 DUP2 EQ PUSH2 0x772 JUMPI PUSH0 DUP5 ISZERO PUSH2 0x760 JUMPI DUP3 DUP8 ADD MLOAD SWAP1 POP JUMPDEST PUSH2 0x76A DUP6 DUP3 PUSH2 0x6EF JUMP JUMPDEST DUP7 SSTORE POP PUSH2 0x7D1 JUMP JUMPDEST PUSH1 0x1F NOT DUP5 AND PUSH2 0x780 DUP7 PUSH2 0x56A JUMP JUMPDEST PUSH0 JUMPDEST DUP3 DUP2 LT ISZERO PUSH2 0x7A7 JUMPI DUP5 DUP10 ADD MLOAD DUP3 SSTORE PUSH1 0x1 DUP3 ADD SWAP2 POP PUSH1 0x20 DUP6 ADD SWAP5 POP PUSH1 0x20 DUP2 ADD SWAP1 POP PUSH2 0x782 JUMP JUMPDEST DUP7 DUP4 LT ISZERO PUSH2 0x7C4 JUMPI DUP5 DUP10 ADD MLOAD PUSH2 0x7C0 PUSH1 0x1F DUP10 AND DUP3 PUSH2 0x6D3 JUMP JUMPDEST DUP4 SSTORE POP JUMPDEST PUSH1 0x1 PUSH1 0x2 DUP9 MUL ADD DUP9 SSTORE POP POP POP JUMPDEST POP POP POP POP POP POP JUMP JUMPDEST PUSH32 0x4E487B7100000000000000000000000000000000000000000000000000000000 PUSH0 MSTORE PUSH1 0x11 PUSH1 0x4 MSTORE PUSH1 0x24 PUSH0 REVERT JUMPDEST PUSH0 DUP2 PUSH1 0x1 SHR SWAP1 POP SWAP2 SWAP1 POP JUMP JUMPDEST PUSH0 PUSH0 DUP3 SWAP2 POP DUP4 SWAP1 POP JUMPDEST PUSH1 0x1 DUP6 GT ISZERO PUSH2 0x85B JUMPI DUP1 DUP7 DIV DUP2 GT ISZERO PUSH2 0x837 JUMPI PUSH2 0x836 PUSH2 0x7D9 JUMP JUMPDEST JUMPDEST PUSH1 0x1 DUP6 AND ISZERO PUSH2 0x846 JUMPI DUP1 DUP3 MUL SWAP2 POP JUMPDEST DUP1 DUP2 MUL SWAP1 POP PUSH2 0x854 DUP6 PUSH2 0x806 JUMP JUMPDEST SWAP5 POP PUSH2 0x81B JUMP JUMPDEST SWAP5 POP SWAP5 SWAP3 POP POP POP JUMP JUMPDEST PUSH0 DUP3 PUSH2 0x873 JUMPI PUSH1 0x1 SWAP1 POP PUSH2 0x92E JUMP JUMPDEST DUP2 PUSH2 0x880 JUMPI PUSH0 SWAP1 POP PUSH2 0x92E JUMP JUMPDEST DUP2 PUSH1 0x1 DUP2 EQ PUSH2 0x896 JUMPI PUSH1 0x2 DUP2 EQ PUSH2 0x8A0 JUMPI PUSH2 0x8CF JUMP JUMPDEST PUSH1 0x1 SWAP2 POP POP PUSH2 0x92E JUMP JUMPDEST PUSH1 0xFF DUP5 GT ISZERO PUSH2 0x8B2 JUMPI PUSH2 0x8B1 PUSH2 0x7D9 JUMP JUMPDEST JUMPDEST DUP4 PUSH1 0x2 EXP SWAP2 POP DUP5 DUP3 GT ISZERO PUSH2 0x8C9 JUMPI PUSH2 0x8C8 PUSH2 0x7D9 JUMP JUMPDEST JUMPDEST POP PUSH2 0x92E JUMP JUMPDEST POP PUSH1 0x20 DUP4 LT PUSH2 0x133 DUP4 LT AND PUSH1 0x4E DUP5 LT PUSH1 0xB DUP5 LT AND OR ISZERO PUSH2 0x904 JUMPI DUP3 DUP3 EXP SWAP1 POP DUP4 DUP2 GT ISZERO PUSH2 0x8FF JUMPI PUSH2 0x8FE PUSH2 0x7D9 JUMP JUMPDEST JUMPDEST PUSH2 0x92E JUMP JUMPDEST PUSH2 0x911 DUP5 DUP5 DUP5 PUSH1 0x1 PUSH2 0x812 JUMP JUMPDEST SWAP3 POP SWAP1 POP DUP2 DUP5 DIV DUP2 GT ISZERO PUSH2 0x928 JUMPI PUSH2 0x927 PUSH2 0x7D9 JUMP JUMPDEST JUMPDEST DUP2 DUP2 MUL SWAP1 POP JUMPDEST SWAP4 SWAP3 POP POP POP JUMP JUMPDEST PUSH0 PUSH2 0x93F DUP3 PUSH2 0x434 JUMP JUMPDEST SWAP2 POP PUSH2 0x94A DUP4 PUSH2 0x434 JUMP JUMPDEST SWAP3 POP PUSH2 0x977 PUSH32 0xFFFFFFFFFFFFFFFFFFFFFFFFFFFFFFFFFFFFFFFFFFFFFFFFFFFFFFFFFFFFFFFF DUP5 DUP5 PUSH2 0x864 JUMP JUMPDEST SWAP1 POP SWAP3 SWAP2 POP POP JUMP JUMPDEST PUSH0 PUSH2 0x989 DUP3 PUSH2 0x434 JUMP JUMPDEST SWAP2 POP PUSH2 0x994 DUP4 PUSH2 0x434 JUMP JUMPDEST SWAP3 POP DUP3 DUP3 MUL PUSH2 0x9A2 DUP2 PUSH2 0x434 JUMP JUMPDEST SWAP2 POP DUP3 DUP3 DIV DUP5 EQ DUP4 ISZERO OR PUSH2 0x9B9 JUMPI PUSH2 0x9B8 PUSH2 0x7D9 JUMP JUMPDEST JUMPDEST POP SWAP3 SWAP2 POP POP JUMP JUMPDEST PUSH0 DUP3 DUP3 MSTORE PUSH1 0x20 DUP3 ADD SWAP1 POP SWAP3 SWAP2 POP POP JUMP JUMPDEST PUSH32 0x496E76616C696420616464726573730000000000000000000000000000000000 PUSH0 DUP3 ADD MSTORE POP JUMP JUMPDEST PUSH0 PUSH2 0xA04 PUSH1 0xF DUP4 PUSH2 0x9C0 JUMP JUMPDEST SWAP2 POP PUSH2 0xA0F DUP3 PUSH2 0x9D0 JUMP JUMPDEST PUSH1 0x20 DUP3 ADD SWAP1 POP SWAP2 SWAP1 POP JUMP JUMPDEST PUSH0 PUSH1 0x20 DUP3 ADD SWAP1 POP DUP2 DUP2 SUB PUSH0 DUP4 ADD MSTORE PUSH2 0xA31 DUP2 PUSH2 0x9F8 JUMP JUMPDEST SWAP1 POP SWAP2 SWAP1 POP JUMP JUMPDEST PUSH0 PUSH2 0xA42 DUP3 PUSH2 0x434 JUMP JUMPDEST SWAP2 POP PUSH2 0xA4D DUP4 PUSH2 0x434 JUMP JUMPDEST SWAP3 POP DUP3 DUP3 ADD SWAP1 POP DUP1 DUP3 GT ISZERO PUSH2 0xA65 JUMPI PUSH2 0xA64 PUSH2 0x7D9 JUMP JUMPDEST JUMPDEST SWAP3 SWAP2 POP POP JUMP JUMPDEST PUSH2 0xA74 DUP2 PUSH2 0x434 JUMP JUMPDEST DUP3 MSTORE POP POP JUMP JUMPDEST PUSH0 PUSH1 0x20 DUP3 ADD SWAP1 POP PUSH2 0xA8D PUSH0 DUP4 ADD DUP5 PUSH2 0xA6B JUMP JUMPDEST SWAP3 SWAP2 POP POP JUMP JUMPDEST PUSH1 0x80 MLOAD PUSH2 0x20F8 PUSH2 0xAB2 PUSH0 CODECOPY PUSH0 DUP2 DUP2 PUSH2 0x5ED ADD MSTORE PUSH2 0x80C ADD MSTORE PUSH2 0x20F8 PUSH0 RETURN INVALID PUSH1 0x80 PUSH1 0x40 MSTORE CALLVALUE DUP1 ISZERO PUSH2 0xF JUMPI PUSH0 PUSH0 REVERT JUMPDEST POP PUSH1 0x4 CALLDATASIZE LT PUSH2 0x109 JUMPI PUSH0 CALLDATALOAD PUSH1 0xE0 SHR DUP1 PUSH4 0x5C975ABB GT PUSH2 0xA0 JUMPI DUP1 PUSH4 0x8DA5CB5B GT PUSH2 0x6F JUMPI DUP1 PUSH4 0x8DA5CB5B EQ PUSH2 0x27F JUMPI DUP1 PUSH4 0x95D89B41 EQ PUSH2 0x29D JUMPI DUP1 PUSH4 0xA9059CBB EQ PUSH2 0x2BB JUMPI DUP1 PUSH4 0xC62B3BEA EQ PUSH2 0x2EB JUMPI DUP1 PUSH4 0xDD62ED3E EQ PUSH2 0x307 JUMPI PUSH2 0x109 JUMP JUMPDEST DUP1 PUSH4 0x5C975ABB EQ PUSH2 0x209 JUMPI DUP1 PUSH4 0x70A08231 EQ PUSH2 0x227 JUMPI DUP1 PUSH4 0x72DD529B EQ PUSH2 0x257 JUMPI DUP1 PUSH4 0x8456CB59 EQ PUSH2 0x275 JUMPI PUSH2 0x109 JUMP JUMPDEST DUP1 PUSH4 0x355274EA GT PUSH2 0xDC JUMPI DUP1 PUSH4 0x355274EA EQ PUSH2 0x1A9 JUMPI DUP1 PUSH4 0x3F4BA83A EQ PUSH2 0x1C7 JUMPI DUP1 PUSH4 0x40C10F19 EQ PUSH2 0x1D1 JUMPI DUP1 PUSH4 0x42966C68 EQ PUSH2 0x1ED JUMPI PUSH2 0x109 JUMP JUMPDEST DUP1 PUSH4 0x6FDDE03 EQ PUSH2 0x10D JUMPI DUP1 PUSH4 0x95EA7B3 EQ PUSH2 0x12B JUMPI DUP1 PUSH4 0x23B872DD EQ PUSH2 0x15B JUMPI DUP1 PUSH4 0x313CE567 EQ PUSH2 0x18B JUMPI JUMPDEST PUSH0 PUSH0 REVERT JUMPDEST PUSH2 0x115 PUSH2 0x337 JUMP JUMPDEST PUSH1 0x40 MLOAD PUSH2 0x122 SWAP2 SWAP1 PUSH2 0x16AE JUMP JUMPDEST PUSH1 0x40 MLOAD DUP1 SWAP2 SUB SWAP1 RETURN JUMPDEST PUSH2 0x145 PUSH1 0x4 DUP1 CALLDATASIZE SUB DUP2 ADD SWAP1 PUSH2 0x140 SWAP2 SWAP1 PUSH2 0x175F JUMP JUMPDEST PUSH2 0x3C2 JUMP JUMPDEST PUSH1 0x40 MLOAD PUSH2 0x152 SWAP2 SWAP1 PUSH2 0x17B7 JUMP JUMPDEST PUSH1 0x40 MLOAD DUP1 SWAP2 SUB SWAP1 RETURN JUMPDEST PUSH2 0x175 PUSH1 0x4 DUP1 CALLDATASIZE SUB DUP2 ADD SWAP1 PUSH2 0x170 SWAP2 SWAP1 PUSH2 0x17D0 JUMP JUMPDEST PUSH2 0x428 JUMP JUMPDEST PUSH1 0x40 MLOAD PUSH2 0x182 SWAP2 SWAP1 PUSH2 0x17B7 JUMP JUMPDEST PUSH1 0x40 MLOAD DUP1 SWAP2 SUB SWAP1 RETURN JUMPDEST PUSH2 0x193 PUSH2 0x5D8 JUMP JUMPDEST PUSH1 0x40 MLOAD PUSH2 0x1A0 SWAP2 SWAP1 PUSH2 0x183B JUMP JUMPDEST PUSH1 0x40 MLOAD DUP1 SWAP2 SUB SWAP1 RETURN JUMPDEST PUSH2 0x1B1 PUSH2 0x5EA JUMP JUMPDEST PUSH1 0x40 MLOAD PUSH2 0x1BE SWAP2 SWAP1 PUSH2 0x1863 JUMP JUMPDEST PUSH1 0x40 MLOAD DUP1 SWAP2 SUB SWAP1 RETURN JUMPDEST PUSH2 0x1CF PUSH2 0x611 JUMP JUMPDEST STOP JUMPDEST PUSH2 0x1EB PUSH1 0x4 DUP1 CALLDATASIZE SUB DUP2 ADD SWAP1 PUSH2 0x1E6 SWAP2 SWAP1 PUSH2 0x175F JUMP JUMPDEST PUSH2 0x6FF JUMP JUMPDEST STOP JUMPDEST PUSH2 0x207 PUSH1 0x4 DUP1 CALLDATASIZE SUB DUP2 ADD SWAP1 PUSH2 0x202 SWAP2 SWAP1 PUSH2 0x187C JUMP JUMPDEST PUSH2 0x8B1 JUMP JUMPDEST STOP JUMPDEST PUSH2 0x211 PUSH2 0x98E JUMP JUMPDEST PUSH1 0x40 MLOAD PUSH2 0x21E SWAP2 SWAP1 PUSH2 0x17B7 JUMP JUMPDEST PUSH1 0x40 MLOAD DUP1 SWAP2 SUB SWAP1 RETURN JUMPDEST PUSH2 0x241 PUSH1 0x4 DUP1 CALLDATASIZE SUB DUP2 ADD SWAP1 PUSH2 0x23C SWAP2 SWAP1 PUSH2 0x18A7 JUMP JUMPDEST PUSH2 0x9A1 JUMP JUMPDEST PUSH1 0x40 MLOAD PUSH2 0x24E SWAP2 SWAP1 PUSH2 0x1863 JUMP JUMPDEST PUSH1 0x40 MLOAD DUP1 SWAP2 SUB SWAP1 RETURN JUMPDEST PUSH2 0x25F PUSH2 0x9E7 JUMP JUMPDEST PUSH1 0x40 MLOAD PUSH2 0x26C SWAP2 SWAP1 PUSH2 0x1863 JUMP JUMPDEST PUSH1 0x40 MLOAD DUP1 SWAP2 SUB SWAP1 RETURN JUMPDEST PUSH2 0x27D PUSH2 0x9F0 JUMP JUMPDEST STOP JUMPDEST PUSH2 0x287 PUSH2 0xADF JUMP JUMPDEST PUSH1 0x40 MLOAD PUSH2 0x294 SWAP2 SWAP1 PUSH2 0x18E1 JUMP JUMPDEST PUSH1 0x40 MLOAD DUP1 SWAP2 SUB SWAP1 RETURN JUMPDEST PUSH2 0x2A5 PUSH2 0xB04 JUMP JUMPDEST PUSH1 0x40 MLOAD PUSH2 0x2B2 SWAP2 SWAP1 PUSH2 0x16AE JUMP JUMPDEST PUSH1 0x40 MLOAD DUP1 SWAP2 SUB SWAP1 RETURN JUMPDEST PUSH2 0x2D5 PUSH1 0x4 DUP1 CALLDATASIZE SUB DUP2 ADD SWAP1 PUSH2 0x2D0 SWAP2 SWAP1 PUSH2 0x175F JUMP JUMPDEST PUSH2 0xB90 JUMP JUMPDEST PUSH1 0x40 MLOAD PUSH2 0x2E2 SWAP2 SWAP1 PUSH2 0x17B7 JUMP JUMPDEST PUSH1 0x40 MLOAD DUP1 SWAP2 SUB SWAP1 RETURN JUMPDEST PUSH2 0x305 PUSH1 0x4 DUP1 CALLDATASIZE SUB DUP2 ADD SWAP1 PUSH2 0x300 SWAP2 SWAP1 PUSH2 0x175F JUMP JUMPDEST PUSH2 0xBF6 JUMP JUMPDEST STOP JUMPDEST PUSH2 0x321 PUSH1 0x4 DUP1 CALLDATASIZE SUB DUP2 ADD SWAP1 PUSH2 0x31C SWAP2 SWAP1 PUSH2 0x18FA JUMP JUMPDEST PUSH2 0xD9D JUMP JUMPDEST PUSH1 0x40 MLOAD PUSH2 0x32E SWAP2 SWAP1 PUSH2 0x1863 JUMP JUMPDEST PUSH1 0x40 MLOAD DUP1 SWAP2 SUB SWAP1 RETURN JUMPDEST PUSH0 DUP1 SLOAD PUSH2 0x343 SWAP1 PUSH2 0x1965 JUMP JUMPDEST DUP1 PUSH1 0x1F ADD PUSH1 0x20 DUP1 SWAP2 DIV MUL PUSH1 0x20 ADD PUSH1 0x40 MLOAD SWAP1 DUP2 ADD PUSH1 0x40 MSTORE DUP1 SWAP3 SWAP2 SWAP1 DUP2 DUP2 MSTORE PUSH1 0x20 ADD DUP3 DUP1 SLOAD PUSH2 0x36F SWAP1 PUSH2 0x1965 JUMP JUMPDEST DUP1 ISZERO PUSH2 0x3BA JUMPI DUP1 PUSH1 0x1F LT PUSH2 0x391 JUMPI PUSH2 0x100 DUP1 DUP4 SLOAD DIV MUL DUP4 MSTORE SWAP2 PUSH1 0x20 ADD SWAP2 PUSH2 0x3BA JUMP JUMPDEST DUP3 ADD SWAP2 SWAP1 PUSH0 MSTORE PUSH1 0x20 PUSH0 KECCAK256 SWAP1 JUMPDEST DUP2 SLOAD DUP2 MSTORE SWAP1 PUSH1 0x1 ADD SWAP1 PUSH1 0x20 ADD DUP1 DUP4 GT PUSH2 0x39D JUMPI DUP3 SWAP1 SUB PUSH1 0x1F AND DUP3 ADD SWAP2 JUMPDEST POP POP POP POP POP DUP2 JUMP JUMPDEST PUSH0 PUSH1 0x4 PUSH1 0x14 SWAP1 SLOAD SWAP1 PUSH2 0x100 EXP SWAP1 DIV PUSH1 0xFF AND ISZERO PUSH2 0x413 JUMPI PUSH1 0x40 MLOAD PUSH32 0x8C379A000000000000000000000000000000000000000000000000000000000 DUP2 MSTORE PUSH1 0x4 ADD PUSH2 0x40A SWAP1 PUSH2 0x19DF JUMP JUMPDEST PUSH1 0x40 MLOAD DUP1 SWAP2 SUB SWAP1 REVERT JUMPDEST PUSH2 0x41E CALLER DUP5 DUP5 PUSH2 0xE6F JUMP JUMPDEST PUSH1 0x1 SWAP1 POP SWAP3 SWAP2 POP POP JUMP JUMPDEST PUSH0 PUSH1 0x4 PUSH1 0x14 SWAP1 SLOAD SWAP1 PUSH2 0x100 EXP SWAP1 DIV PUSH1 0xFF AND ISZERO PUSH2 0x479 JUMPI PUSH1 0x40 MLOAD PUSH32 0x8C379A000000000000000000000000000000000000000000000000000000000 DUP2 MSTORE PUSH1 0x4 ADD PUSH2 0x470 SWAP1 PUSH2 0x19DF JUMP JUMPDEST PUSH1 0x40 MLOAD DUP1 SWAP2 SUB SWAP1 REVERT JUMPDEST DUP2 PUSH1 0x6 PUSH0 DUP7 PUSH20 0xFFFFFFFFFFFFFFFFFFFFFFFFFFFFFFFFFFFFFFFF AND PUSH20 0xFFFFFFFFFFFFFFFFFFFFFFFFFFFFFFFFFFFFFFFF AND DUP2 MSTORE PUSH1 0x20 ADD SWAP1 DUP2 MSTORE PUSH1 0x20 ADD PUSH0 KECCAK256 PUSH0 CALLER PUSH20 0xFFFFFFFFFFFFFFFFFFFFFFFFFFFFFFFFFFFFFFFF AND PUSH20 0xFFFFFFFFFFFFFFFFFFFFFFFFFFFFFFFFFFFFFFFF AND DUP2 MSTORE PUSH1 0x20 ADD SWAP1 DUP2 MSTORE PUSH1 0x20 ADD PUSH0 KECCAK256 SLOAD LT ISZERO PUSH2 0x534 JUMPI PUSH1 0x40 MLOAD PUSH32 0x8C379A000000000000000000000000000000000000000000000000000000000 DUP2 MSTORE PUSH1 0x4 ADD PUSH2 0x52B SWAP1 PUSH2 0x1A47 JUMP JUMPDEST PUSH1 0x40 MLOAD DUP1 SWAP2 SUB SWAP1 REVERT JUMPDEST DUP2 PUSH1 0x6 PUSH0 DUP7 PUSH20 0xFFFFFFFFFFFFFFFFFFFFFFFFFFFFFFFFFFFFFFFF AND PUSH20 0xFFFFFFFFFFFFFFFFFFFFFFFFFFFFFFFFFFFFFFFF AND DUP2 MSTORE PUSH1 0x20 ADD SWAP1 DUP2 MSTORE PUSH1 0x20 ADD PUSH0 KECCAK256 PUSH0 CALLER PUSH20 0xFFFFFFFFFFFFFFFFFFFFFFFFFFFFFFFFFFFFFFFF AND PUSH20 0xFFFFFFFFFFFFFFFFFFFFFFFFFFFFFFFFFFFFFFFF AND DUP2 MSTORE PUSH1 0x20 ADD SWAP1 DUP2 MSTORE PUSH1 0x20 ADD PUSH0 KECCAK256 PUSH0 DUP3 DUP3 SLOAD PUSH2 0x5BB SWAP2 SWAP1 PUSH2 0x1A92 JUMP JUMPDEST SWAP3 POP POP DUP2 SWAP1 SSTORE POP PUSH2 0x5CD DUP5 DUP5 DUP5 PUSH2 0x1032 JUMP JUMPDEST PUSH1 0x1 SWAP1 POP SWAP4 SWAP3 POP POP POP JUMP JUMPDEST PUSH1 0x2 PUSH0 SWAP1 SLOAD SWAP1 PUSH2 0x100 EXP SWAP1 DIV PUSH1 0xFF AND DUP2 JUMP JUMPDEST PUSH0 PUSH32 0x0 SWAP1 POP SWAP1 JUMP JUMPDEST PUSH1 0x4 PUSH0 SWAP1 SLOAD SWAP1 PUSH2 0x100 EXP SWAP1 DIV PUSH20 0xFFFFFFFFFFFFFFFFFFFFFFFFFFFFFFFFFFFFFFFF AND PUSH20 0xFFFFFFFFFFFFFFFFFFFFFFFFFFFFFFFFFFFFFFFF AND CALLER PUSH20 0xFFFFFFFFFFFFFFFFFFFFFFFFFFFFFFFFFFFFFFFF AND EQ PUSH2 0x6A0 JUMPI PUSH1 0x40 MLOAD PUSH32 0x8C379A000000000000000000000000000000000000000000000000000000000 DUP2 MSTORE PUSH1 0x4 ADD PUSH2 0x697 SWAP1 PUSH2 0x1B0F JUMP JUMPDEST PUSH1 0x40 MLOAD DUP1 SWAP2 SUB SWAP1 REVERT JUMPDEST PUSH0 PUSH1 0x4 PUSH1 0x14 PUSH2 0x100 EXP DUP2 SLOAD DUP2 PUSH1 0xFF MUL NOT AND SWAP1 DUP4 ISZERO ISZERO MUL OR SWAP1 SSTORE POP CALLER PUSH20 0xFFFFFFFFFFFFFFFFFFFFFFFFFFFFFFFFFFFFFFFF AND PUSH32 0x5DB9EE0A495BF2E6FF9C91A7834C1BA4FDD244A5E8AA4E537BD38AEAE4B073AA PUSH1 0x40 MLOAD PUSH1 0x40 MLOAD DUP1 SWAP2 SUB SWAP1 LOG2 JUMP JUMPDEST PUSH1 0x4 PUSH0 SWAP1 SLOAD SWAP1 PUSH2 0x100 EXP SWAP1 DIV PUSH20 0xFFFFFFFFFFFFFFFFFFFFFFFFFFFFFFFFFFFFFFFF AND PUSH20 0xFFFFFFFFFFFFFFFFFFFFFFFFFFFFFFFFFFFFFFFF AND CALLER PUSH20 0xFFFFFFFFFFFFFFFFFFFFFFFFFFFFFFFFFFFFFFFF AND EQ PUSH2 0x78E JUMPI PUSH1 0x40 MLOAD PUSH32 0x8C379A000000000000000000000000000000000000000000000000000000000 DUP2 MSTORE PUSH1 0x4 ADD PUSH2 0x785 SWAP1 PUSH2 0x1B0F JUMP JUMPDEST PUSH1 0x40 MLOAD DUP1 SWAP2 SUB SWAP1 REVERT JUMPDEST PUSH1 0x4 PUSH1 0x14 SWAP1 SLOAD SWAP1 PUSH2 0x100 EXP SWAP1 DIV PUSH1 0xFF AND ISZERO PUSH2 0x7DE JUMPI PUSH1 0x40 MLOAD PUSH32 0x8C379A000000000000000000000000000000000000000000000000000000000 DUP2 MSTORE PUSH1 0x4 ADD PUSH2 0x7D5 SWAP1 PUSH2 0x19DF JUMP JUMPDEST PUSH1 0x40 MLOAD DUP1 SWAP2 SUB SWAP1 REVERT JUMPDEST PUSH0 PUSH1 0x2 PUSH0 SWAP1 SLOAD SWAP1 PUSH2 0x100 EXP SWAP1 DIV PUSH1 0xFF AND PUSH1 0xFF AND PUSH1 0xA PUSH2 0x7FD SWAP2 SWAP1 PUSH2 0x1C5C JUMP JUMPDEST DUP3 PUSH2 0x808 SWAP2 SWAP1 PUSH2 0x1CA6 JUMP JUMPDEST SWAP1 POP PUSH32 0x0 DUP2 PUSH1 0x3 SLOAD PUSH2 0x839 SWAP2 SWAP1 PUSH2 0x1CE7 JUMP JUMPDEST GT ISZERO PUSH2 0x87A JUMPI PUSH1 0x40 MLOAD PUSH32 0x8C379A000000000000000000000000000000000000000000000000000000000 DUP2 MSTORE PUSH1 0x4 ADD PUSH2 0x871 SWAP1 PUSH2 0x1D64 JUMP JUMPDEST PUSH1 0x40 MLOAD DUP1 SWAP2 SUB SWAP1 REVERT JUMPDEST PUSH2 0x8AC DUP4 PUSH1 0x2 PUSH0 SWAP1 SLOAD SWAP1 PUSH2 0x100 EXP SWAP1 DIV PUSH1 0xFF AND PUSH1 0xFF AND PUSH1 0xA PUSH2 0x89C SWAP2 SWAP1 PUSH2 0x1C5C JUMP JUMPDEST DUP5 PUSH2 0x8A7 SWAP2 SWAP1 PUSH2 0x1CA6 JUMP JUMPDEST PUSH2 0x129E JUMP JUMPDEST POP POP POP JUMP JUMPDEST PUSH1 0x4 PUSH1 0x14 SWAP1 SLOAD SWAP1 PUSH2 0x100 EXP SWAP1 DIV PUSH1 0xFF AND ISZERO PUSH2 0x901 JUMPI PUSH1 0x40 MLOAD PUSH32 0x8C379A000000000000000000000000000000000000000000000000000000000 DUP2 MSTORE PUSH1 0x4 ADD PUSH2 0x8F8 SWAP1 PUSH2 0x19DF JUMP JUMPDEST PUSH1 0x40 MLOAD DUP1 SWAP2 SUB SWAP1 REVERT JUMPDEST DUP1 PUSH1 0x5 PUSH0 CALLER PUSH20 0xFFFFFFFFFFFFFFFFFFFFFFFFFFFFFFFFFFFFFFFF AND PUSH20 0xFFFFFFFFFFFFFFFFFFFFFFFFFFFFFFFFFFFFFFFF AND DUP2 MSTORE PUSH1 0x20 ADD SWAP1 DUP2 MSTORE PUSH1 0x20 ADD PUSH0 KECCAK256 SLOAD LT ISZERO PUSH2 0x981 JUMPI PUSH1 0x40 MLOAD PUSH32 0x8C379A000000000000000000000000000000000000000000000000000000000 DUP2 MSTORE PUSH1 0x4 ADD PUSH2 0x978 SWAP1 PUSH2 0x1DCC JUMP JUMPDEST PUSH1 0x40 MLOAD DUP1 SWAP2 SUB SWAP1 REVERT JUMPDEST PUSH2 0x98B CALLER DUP3 PUSH2 0x142E JUMP JUMPDEST POP JUMP JUMPDEST PUSH1 0x4 PUSH1 0x14 SWAP1 SLOAD SWAP1 PUSH2 0x100 EXP SWAP1 DIV PUSH1 0xFF AND DUP2 JUMP JUMPDEST PUSH0 PUSH1 0x5 PUSH0 DUP4 PUSH20 0xFFFFFFFFFFFFFFFFFFFFFFFFFFFFFFFFFFFFFFFF AND PUSH20 0xFFFFFFFFFFFFFFFFFFFFFFFFFFFFFFFFFFFFFFFF AND DUP2 MSTORE PUSH1 0x20 ADD SWAP1 DUP2 MSTORE PUSH1 0x20 ADD PUSH0 KECCAK256 SLOAD SWAP1 POP SWAP2 SWAP1 POP JUMP JUMPDEST PUSH0 PUSH1 0x3 SLOAD SWAP1 POP SWAP1 JUMP JUMPDEST PUSH1 0x4 PUSH0 SWAP1 SLOAD SWAP1 PUSH2 0x100 EXP SWAP1 DIV PUSH20 0xFFFFFFFFFFFFFFFFFFFFFFFFFFFFFFFFFFFFFFFF AND PUSH20 0xFFFFFFFFFFFFFFFFFFFFFFFFFFFFFFFFFFFFFFFF AND CALLER PUSH20 0xFFFFFFFFFFFFFFFFFFFFFFFFFFFFFFFFFFFFFFFF AND EQ PUSH2 0xA7F JUMPI PUSH1 0x40 MLOAD PUSH32 0x8C379A000000000000000000000000000000000000000000000000000000000 DUP2 MSTORE PUSH1 0x4 ADD PUSH2 0xA76 SWAP1 PUSH2 0x1B0F JUMP JUMPDEST PUSH1 0x40 MLOAD DUP1 SWAP2 SUB SWAP1 REVERT JUMPDEST PUSH1 0x1 PUSH1 0x4 PUSH1 0x14 PUSH2 0x100 EXP DUP2 SLOAD DUP2 PUSH1 0xFF MUL NOT AND SWAP1 DUP4 ISZERO ISZERO MUL OR SWAP1 SSTORE POP CALLER PUSH20 0xFFFFFFFFFFFFFFFFFFFFFFFFFFFFFFFFFFFFFFFF AND PUSH32 0x62E78CEA01BEE320CD4E420270B5EA74000D11B0C9F74754EBDBFC544B05A258 PUSH1 0x40 MLOAD PUSH1 0x40 MLOAD DUP1 SWAP2 SUB SWAP1 LOG2 JUMP JUMPDEST PUSH1 0x4 PUSH0 SWAP1 SLOAD SWAP1 PUSH2 0x100 EXP SWAP1 DIV PUSH20 0xFFFFFFFFFFFFFFFFFFFFFFFFFFFFFFFFFFFFFFFF AND DUP2 JUMP JUMPDEST PUSH1 0x1 DUP1 SLOAD PUSH2 0xB11 SWAP1 PUSH2 0x1965 JUMP JUMPDEST DUP1 PUSH1 0x1F ADD PUSH1 0x20 DUP1 SWAP2 DIV MUL PUSH1 0x20 ADD PUSH1 0x40 MLOAD SWAP1 DUP2 ADD PUSH1 0x40 MSTORE DUP1 SWAP3 SWAP2 SWAP1 DUP2 DUP2 MSTORE PUSH1 0x20 ADD DUP3 DUP1 SLOAD PUSH2 0xB3D SWAP1 PUSH2 0x1965 JUMP JUMPDEST DUP1 ISZERO PUSH2 0xB88 JUMPI DUP1 PUSH1 0x1F LT PUSH2 0xB5F JUMPI PUSH2 0x100 DUP1 DUP4 SLOAD DIV MUL DUP4 MSTORE SWAP2 PUSH1 0x20 ADD SWAP2 PUSH2 0xB88 JUMP JUMPDEST DUP3 ADD SWAP2 SWAP1 PUSH0 MSTORE PUSH1 0x20 PUSH0 KECCAK256 SWAP1 JUMPDEST DUP2 SLOAD DUP2 MSTORE SWAP1 PUSH1 0x1 ADD SWAP1 PUSH1 0x20 ADD DUP1 DUP4 GT PUSH2 0xB6B JUMPI DUP3 SWAP1 SUB PUSH1 0x1F AND DUP3 ADD SWAP2 JUMPDEST POP POP POP POP POP DUP2 JUMP JUMPDEST PUSH0 PUSH1 0x4 PUSH1 0x14 SWAP1 SLOAD SWAP1 PUSH2 0x100 EXP SWAP1 DIV PUSH1 0xFF AND ISZERO PUSH2 0xBE1 JUMPI PUSH1 0x40 MLOAD PUSH32 0x8C379A000000000000000000000000000000000000000000000000000000000 DUP2 MSTORE PUSH1 0x4 ADD PUSH2 0xBD8 SWAP1 PUSH2 0x19DF JUMP JUMPDEST PUSH1 0x40 MLOAD DUP1 SWAP2 SUB SWAP1 REVERT JUMPDEST PUSH2 0xBEC CALLER DUP5 DUP5 PUSH2 0x1032 JUMP JUMPDEST PUSH1 0x1 SWAP1 POP SWAP3 SWAP2 POP POP JUMP JUMPDEST PUSH1 0x4 PUSH1 0x14 SWAP1 SLOAD SWAP1 PUSH2 0x100 EXP SWAP1 DIV PUSH1 0xFF AND ISZERO PUSH2 0xC46 JUMPI PUSH1 0x40 MLOAD PUSH32 0x8C379A000000000000000000000000000000000000000000000000000000000 DUP2 MSTORE PUSH1 0x4 ADD PUSH2 0xC3D SWAP1 PUSH2 0x19DF JUMP JUMPDEST PUSH1 0x40 MLOAD DUP1 SWAP2 SUB SWAP1 REVERT JUMPDEST DUP1 PUSH1 0x6 PUSH0 DUP5 PUSH20 0xFFFFFFFFFFFFFFFFFFFFFFFFFFFFFFFFFFFFFFFF AND PUSH20 0xFFFFFFFFFFFFFFFFFFFFFFFFFFFFFFFFFFFFFFFF AND DUP2 MSTORE PUSH1 0x20 ADD SWAP1 DUP2 MSTORE PUSH1 0x20 ADD PUSH0 KECCAK256 PUSH0 CALLER PUSH20 0xFFFFFFFFFFFFFFFFFFFFFFFFFFFFFFFFFFFFFFFF AND PUSH20 0xFFFFFFFFFFFFFFFFFFFFFFFFFFFFFFFFFFFFFFFF AND DUP2 MSTORE PUSH1 0x20 ADD SWAP1 DUP2 MSTORE PUSH1 0x20 ADD PUSH0 KECCAK256 SLOAD LT ISZERO PUSH2 0xD01 JUMPI PUSH1 0x40 MLOAD PUSH32 0x8C379A000000000000000000000000000000000000000000000000000000000 DUP2 MSTORE PUSH1 0x4 ADD PUSH2 0xCF8 SWAP1 PUSH2 0x1E34 JUMP JUMPDEST PUSH1 0x40 MLOAD DUP1 SWAP2 SUB SWAP1 REVERT JUMPDEST DUP1 PUSH1 0x6 PUSH0 DUP5 PUSH20 0xFFFFFFFFFFFFFFFFFFFFFFFFFFFFFFFFFFFFFFFF AND PUSH20 0xFFFFFFFFFFFFFFFFFFFFFFFFFFFFFFFFFFFFFFFF AND DUP2 MSTORE PUSH1 0x20 ADD SWAP1 DUP2 MSTORE PUSH1 0x20 ADD PUSH0 KECCAK256 PUSH0 CALLER PUSH20 0xFFFFFFFFFFFFFFFFFFFFFFFFFFFFFFFFFFFFFFFF AND PUSH20 0xFFFFFFFFFFFFFFFFFFFFFFFFFFFFFFFFFFFFFFFF AND DUP2 MSTORE PUSH1 0x20 ADD SWAP1 DUP2 MSTORE PUSH1 0x20 ADD PUSH0 KECCAK256 PUSH0 DUP3 DUP3 SLOAD PUSH2 0xD88 SWAP2 SWAP1 PUSH2 0x1A92 JUMP JUMPDEST SWAP3 POP POP DUP2 SWAP1 SSTORE POP PUSH2 0xD99 DUP3 DUP3 PUSH2 0x142E JUMP JUMPDEST POP POP JUMP JUMPDEST PUSH0 PUSH1 0x4 PUSH1 0x14 SWAP1 SLOAD SWAP1 PUSH2 0x100 EXP SWAP1 DIV PUSH1 0xFF AND ISZERO PUSH2 0xDEE JUMPI PUSH1 0x40 MLOAD PUSH32 0x8C379A000000000000000000000000000000000000000000000000000000000 DUP2 MSTORE PUSH1 0x4 ADD PUSH2 0xDE5 SWAP1 PUSH2 0x19DF JUMP JUMPDEST PUSH1 0x40 MLOAD DUP1 SWAP2 SUB SWAP1 REVERT JUMPDEST PUSH1 0x6 PUSH0 DUP5 PUSH20 0xFFFFFFFFFFFFFFFFFFFFFFFFFFFFFFFFFFFFFFFF AND PUSH20 0xFFFFFFFFFFFFFFFFFFFFFFFFFFFFFFFFFFFFFFFF AND DUP2 MSTORE PUSH1 0x20 ADD SWAP1 DUP2 MSTORE PUSH1 0x20 ADD PUSH0 KECCAK256 PUSH0 DUP4 PUSH20 0xFFFFFFFFFFFFFFFFFFFFFFFFFFFFFFFFFFFFFFFF AND PUSH20 0xFFFFFFFFFFFFFFFFFFFFFFFFFFFFFFFFFFFFFFFF AND DUP2 MSTORE PUSH1 0x20 ADD SWAP1 DUP2 MSTORE PUSH1 0x20 ADD PUSH0 KECCAK256 SLOAD SWAP1 POP SWAP3 SWAP2 POP POP JUMP JUMPDEST PUSH0 PUSH20 0xFFFFFFFFFFFFFFFFFFFFFFFFFFFFFFFFFFFFFFFF AND DUP4 PUSH20 0xFFFFFFFFFFFFFFFFFFFFFFFFFFFFFFFFFFFFFFFF AND SUB PUSH2 0xEDD JUMPI PUSH1 0x40 MLOAD PUSH32 0x8C379A000000000000000000000000000000000000000000000000000000000 DUP2 MSTORE PUSH1 0x4 ADD PUSH2 0xED4 SWAP1 PUSH2 0x1E9C JUMP JUMPDEST PUSH1 0x40 MLOAD DUP1 SWAP2 SUB SWAP1 REVERT JUMPDEST PUSH0 PUSH20 0xFFFFFFFFFFFFFFFFFFFFFFFFFFFFFFFFFFFFFFFF AND DUP3 PUSH20 0xFFFFFFFFFFFFFFFFFFFFFFFFFFFFFFFFFFFFFFFF AND SUB PUSH2 0xF4B JUMPI PUSH1 0x40 MLOAD PUSH32 0x8C379A000000000000000000000000000000000000000000000000000000000 DUP2 MSTORE PUSH1 0x4 ADD PUSH2 0xF42 SWAP1 PUSH2 0x1F04 JUMP JUMPDEST PUSH1 0x40 MLOAD DUP1 SWAP2 SUB SWAP1 REVERT JUMPDEST DUP1 PUSH1 0x6 PUSH0 DUP6 PUSH20 0xFFFFFFFFFFFFFFFFFFFFFFFFFFFFFFFFFFFFFFFF AND PUSH20 0xFFFFFFFFFFFFFFFFFFFFFFFFFFFFFFFFFFFFFFFF AND DUP2 MSTORE PUSH1 0x20 ADD SWAP1 DUP2 MSTORE PUSH1 0x20 ADD PUSH0 KECCAK256 PUSH0 DUP5 PUSH20 0xFFFFFFFFFFFFFFFFFFFFFFFFFFFFFFFFFFFFFFFF AND PUSH20 0xFFFFFFFFFFFFFFFFFFFFFFFFFFFFFFFFFFFFFFFF AND DUP2 MSTORE PUSH1 0x20 ADD SWAP1 DUP2 MSTORE PUSH1 0x20 ADD PUSH0 KECCAK256 DUP2 SWAP1 SSTORE POP DUP2 PUSH20 0xFFFFFFFFFFFFFFFFFFFFFFFFFFFFFFFFFFFFFFFF AND DUP4 PUSH20 0xFFFFFFFFFFFFFFFFFFFFFFFFFFFFFFFFFFFFFFFF AND PUSH32 0x8C5BE1E5EBEC7D5BD14F71427D1E84F3DD0314C0F7B2291E5B200AC8C7C3B925 DUP4 PUSH1 0x40 MLOAD PUSH2 0x1025 SWAP2 SWAP1 PUSH2 0x1863 JUMP JUMPDEST PUSH1 0x40 MLOAD DUP1 SWAP2 SUB SWAP1 LOG3 POP POP POP JUMP JUMPDEST PUSH0 PUSH20 0xFFFFFFFFFFFFFFFFFFFFFFFFFFFFFFFFFFFFFFFF AND DUP4 PUSH20 0xFFFFFFFFFFFFFFFFFFFFFFFFFFFFFFFFFFFFFFFF AND SUB PUSH2 0x10A0 JUMPI PUSH1 0x40 MLOAD PUSH32 0x8C379A000000000000000000000000000000000000000000000000000000000 DUP2 MSTORE PUSH1 0x4 ADD PUSH2 0x1097 SWAP1 PUSH2 0x1F6C JUMP JUMPDEST PUSH1 0x40 MLOAD DUP1 SWAP2 SUB SWAP1 REVERT JUMPDEST PUSH0 PUSH20 0xFFFFFFFFFFFFFFFFFFFFFFFFFFFFFFFFFFFFFFFF AND DUP3 PUSH20 0xFFFFFFFFFFFFFFFFFFFFFFFFFFFFFFFFFFFFFFFF AND SUB PUSH2 0x110E JUMPI PUSH1 0x40 MLOAD PUSH32 0x8C379A000000000000000000000000000000000000000000000000000000000 DUP2 MSTORE PUSH1 0x4 ADD PUSH2 0x1105 SWAP1 PUSH2 0x1FD4 JUMP JUMPDEST PUSH1 0x40 MLOAD DUP1 SWAP2 SUB SWAP1 REVERT JUMPDEST DUP1 PUSH1 0x5 PUSH0 DUP6 PUSH20 0xFFFFFFFFFFFFFFFFFFFFFFFFFFFFFFFFFFFFFFFF AND PUSH20 0xFFFFFFFFFFFFFFFFFFFFFFFFFFFFFFFFFFFFFFFF AND DUP2 MSTORE PUSH1 0x20 ADD SWAP1 DUP2 MSTORE PUSH1 0x20 ADD PUSH0 KECCAK256 SLOAD LT ISZERO PUSH2 0x118E JUMPI PUSH1 0x40 MLOAD PUSH32 0x8C379A000000000000000000000000000000000000000000000000000000000 DUP2 MSTORE PUSH1 0x4 ADD PUSH2 0x1185 SWAP1 PUSH2 0x203C JUMP JUMPDEST PUSH1 0x40 MLOAD DUP1 SWAP2 SUB SWAP1 REVERT JUMPDEST DUP1 PUSH1 0x5 PUSH0 DUP6 PUSH20 0xFFFFFFFFFFFFFFFFFFFFFFFFFFFFFFFFFFFFFFFF AND PUSH20 0xFFFFFFFFFFFFFFFFFFFFFFFFFFFFFFFFFFFFFFFF AND DUP2 MSTORE PUSH1 0x20 ADD SWAP1 DUP2 MSTORE PUSH1 0x20 ADD PUSH0 KECCAK256 PUSH0 DUP3 DUP3 SLOAD PUSH2 0x11DA SWAP2 SWAP1 PUSH2 0x1A92 JUMP JUMPDEST SWAP3 POP POP DUP2 SWAP1 SSTORE POP DUP1 PUSH1 0x5 PUSH0 DUP5 PUSH20 0xFFFFFFFFFFFFFFFFFFFFFFFFFFFFFFFFFFFFFFFF AND PUSH20 0xFFFFFFFFFFFFFFFFFFFFFFFFFFFFFFFFFFFFFFFF AND DUP2 MSTORE PUSH1 0x20 ADD SWAP1 DUP2 MSTORE PUSH1 0x20 ADD PUSH0 KECCAK256 PUSH0 DUP3 DUP3 SLOAD PUSH2 0x122D SWAP2 SWAP1 PUSH2 0x1CE7 JUMP JUMPDEST SWAP3 POP POP DUP2 SWAP1 SSTORE POP DUP2 PUSH20 0xFFFFFFFFFFFFFFFFFFFFFFFFFFFFFFFFFFFFFFFF AND DUP4 PUSH20 0xFFFFFFFFFFFFFFFFFFFFFFFFFFFFFFFFFFFFFFFF AND PUSH32 0xDDF252AD1BE2C89B69C2B068FC378DAA952BA7F163C4A11628F55A4DF523B3EF DUP4 PUSH1 0x40 MLOAD PUSH2 0x1291 SWAP2 SWAP1 PUSH2 0x1863 JUMP JUMPDEST PUSH1 0x40 MLOAD DUP1 SWAP2 SUB SWAP1 LOG3 POP POP POP JUMP JUMPDEST PUSH0 PUSH20 0xFFFFFFFFFFFFFFFFFFFFFFFFFFFFFFFFFFFFFFFF AND DUP3 PUSH20 0xFFFFFFFFFFFFFFFFFFFFFFFFFFFFFFFFFFFFFFFF AND SUB PUSH2 0x130C JUMPI PUSH1 0x40 MLOAD PUSH32 0x8C379A000000000000000000000000000000000000000000000000000000000 DUP2 MSTORE PUSH1 0x4 ADD PUSH2 0x1303 SWAP1 PUSH2 0x20A4 JUMP JUMPDEST PUSH1 0x40 MLOAD DUP1 SWAP2 SUB SWAP1 REVERT JUMPDEST DUP1 PUSH1 0x3 PUSH0 DUP3 DUP3 SLOAD PUSH2 0x131D SWAP2 SWAP1 PUSH2 0x1CE7 JUMP JUMPDEST SWAP3 POP POP DUP2 SWAP1 SSTORE POP DUP1 PUSH1 0x5 PUSH0 DUP5 PUSH20 0xFFFFFFFFFFFFFFFFFFFFFFFFFFFFFFFFFFFFFFFF AND PUSH20 0xFFFFFFFFFFFFFFFFFFFFFFFFFFFFFFFFFFFFFFFF AND DUP2 MSTORE PUSH1 0x20 ADD SWAP1 DUP2 MSTORE PUSH1 0x20 ADD PUSH0 KECCAK256 PUSH0 DUP3 DUP3 SLOAD PUSH2 0x1370 SWAP2 SWAP1 PUSH2 0x1CE7 JUMP JUMPDEST SWAP3 POP POP DUP2 SWAP1 SSTORE POP DUP2 PUSH20 0xFFFFFFFFFFFFFFFFFFFFFFFFFFFFFFFFFFFFFFFF AND PUSH32 0xF6798A560793A54C3BCFE86A93CDE1E73087D944C0EA20544137D4121396885 DUP3 PUSH1 0x40 MLOAD PUSH2 0x13BD SWAP2 SWAP1 PUSH2 0x1863 JUMP JUMPDEST PUSH1 0x40 MLOAD DUP1 SWAP2 SUB SWAP1 LOG2 DUP2 PUSH20 0xFFFFFFFFFFFFFFFFFFFFFFFFFFFFFFFFFFFFFFFF AND PUSH0 PUSH20 0xFFFFFFFFFFFFFFFFFFFFFFFFFFFFFFFFFFFFFFFF AND PUSH32 0xDDF252AD1BE2C89B69C2B068FC378DAA952BA7F163C4A11628F55A4DF523B3EF DUP4 PUSH1 0x40 MLOAD PUSH2 0x1422 SWAP2 SWAP1 PUSH2 0x1863 JUMP JUMPDEST PUSH1 0x40 MLOAD DUP1 SWAP2 SUB SWAP1 LOG3 POP POP JUMP JUMPDEST PUSH0 PUSH20 0xFFFFFFFFFFFFFFFFFFFFFFFFFFFFFFFFFFFFFFFF AND DUP3 PUSH20 0xFFFFFFFFFFFFFFFFFFFFFFFFFFFFFFFFFFFFFFFF AND SUB PUSH2 0x149C JUMPI PUSH1 0x40 MLOAD PUSH32 0x8C379A000000000000000000000000000000000000000000000000000000000 DUP2 MSTORE PUSH1 0x4 ADD PUSH2 0x1493 SWAP1 PUSH2 0x20A4 JUMP JUMPDEST PUSH1 0x40 MLOAD DUP1 SWAP2 SUB SWAP1 REVERT JUMPDEST DUP1 PUSH1 0x5 PUSH0 DUP5 PUSH20 0xFFFFFFFFFFFFFFFFFFFFFFFFFFFFFFFFFFFFFFFF AND PUSH20 0xFFFFFFFFFFFFFFFFFFFFFFFFFFFFFFFFFFFFFFFF AND DUP2 MSTORE PUSH1 0x20 ADD SWAP1 DUP2 MSTORE PUSH1 0x20 ADD PUSH0 KECCAK256 SLOAD LT ISZERO PUSH2 0x151C JUMPI PUSH1 0x40 MLOAD PUSH32 0x8C379A000000000000000000000000000000000000000000000000000000000 DUP2 MSTORE PUSH1 0x4 ADD PUSH2 0x1513 SWAP1 PUSH2 0x203C JUMP JUMPDEST PUSH1 0x40 MLOAD DUP1 SWAP2 SUB SWAP1 REVERT JUMPDEST DUP1 PUSH1 0x5 PUSH0 DUP5 PUSH20 0xFFFFFFFFFFFFFFFFFFFFFFFFFFFFFFFFFFFFFFFF AND PUSH20 0xFFFFFFFFFFFFFFFFFFFFFFFFFFFFFFFFFFFFFFFF AND DUP2 MSTORE PUSH1 0x20 ADD SWAP1 DUP2 MSTORE PUSH1 0x20 ADD PUSH0 KECCAK256 PUSH0 DUP3 DUP3 SLOAD PUSH2 0x1568 SWAP2 SWAP1 PUSH2 0x1A92 JUMP JUMPDEST SWAP3 POP POP DUP2 SWAP1 SSTORE POP DUP1 PUSH1 0x3 PUSH0 DUP3 DUP3 SLOAD PUSH2 0x1580 SWAP2 SWAP1 PUSH2 0x1A92 JUMP JUMPDEST SWAP3 POP POP DUP2 SWAP1 SSTORE POP DUP2 PUSH20 0xFFFFFFFFFFFFFFFFFFFFFFFFFFFFFFFFFFFFFFFF AND PUSH32 0xCC16F5DBB4873280815C1EE09DBD06736CFFCC184412CF7A71A0FDB75D397CA5 DUP3 PUSH1 0x40 MLOAD PUSH2 0x15CD SWAP2 SWAP1 PUSH2 0x1863 JUMP JUMPDEST PUSH1 0x40 MLOAD DUP1 SWAP2 SUB SWAP1 LOG2 PUSH0 PUSH20 0xFFFFFFFFFFFFFFFFFFFFFFFFFFFFFFFFFFFFFFFF AND DUP3 PUSH20 0xFFFFFFFFFFFFFFFFFFFFFFFFFFFFFFFFFFFFFFFF AND PUSH32 0xDDF252AD1BE2C89B69C2B068FC378DAA952BA7F163C4A11628F55A4DF523B3EF DUP4 PUSH1 0x40 MLOAD PUSH2 0x1632 SWAP2 SWAP1 PUSH2 0x1863 JUMP JUMPDEST PUSH1 0x40 MLOAD DUP1 SWAP2 SUB SWAP1 LOG3 POP POP JUMP JUMPDEST PUSH0 DUP2 MLOAD SWAP1 POP SWAP2 SWAP1 POP JUMP JUMPDEST PUSH0 DUP3 DUP3 MSTORE PUSH1 0x20 DUP3 ADD SWAP1 POP SWAP3 SWAP2 POP POP JUMP JUMPDEST DUP3 DUP2 DUP4 MCOPY PUSH0 DUP4 DUP4 ADD MSTORE POP POP POP JUMP JUMPDEST PUSH0 PUSH1 0x1F NOT PUSH1 0x1F DUP4 ADD AND SWAP1 POP SWAP2 SWAP1 POP JUMP JUMPDEST PUSH0 PUSH2 0x1680 DUP3 PUSH2 0x163E JUMP JUMPDEST PUSH2 0x168A DUP2 DUP6 PUSH2 0x1648 JUMP JUMPDEST SWAP4 POP PUSH2 0x169A DUP2 DUP6 PUSH1 0x20 DUP7 ADD PUSH2 0x1658 JUMP JUMPDEST PUSH2 0x16A3 DUP2 PUSH2 0x1666 JUMP JUMPDEST DUP5 ADD SWAP2 POP POP SWAP3 SWAP2 POP POP JUMP JUMPDEST PUSH0 PUSH1 0x20 DUP3 ADD SWAP1 POP DUP2 DUP2 SUB PUSH0 DUP4 ADD MSTORE PUSH2 0x16C6 DUP2 DUP5 PUSH2 0x1676 JUMP JUMPDEST SWAP1 POP SWAP3 SWAP2 POP POP JUMP JUMPDEST PUSH0 PUSH0 REVERT JUMPDEST PUSH0 PUSH20 0xFFFFFFFFFFFFFFFFFFFFFFFFFFFFFFFFFFFFFFFF DUP3 AND SWAP1 POP SWAP2 SWAP1 POP JUMP JUMPDEST PUSH0 PUSH2 0x16FB DUP3 PUSH2 0x16D2 JUMP JUMPDEST SWAP1 POP SWAP2 SWAP1 POP JUMP JUMPDEST PUSH2 0x170B DUP2 PUSH2 0x16F1 JUMP JUMPDEST DUP2 EQ PUSH2 0x1715 JUMPI PUSH0 PUSH0 REVERT JUMPDEST POP JUMP JUMPDEST PUSH0 DUP2 CALLDATALOAD SWAP1 POP PUSH2 0x1726 DUP2 PUSH2 0x1702 JUMP JUMPDEST SWAP3 SWAP2 POP POP JUMP JUMPDEST PUSH0 DUP2 SWAP1 POP SWAP2 SWAP1 POP JUMP JUMPDEST PUSH2 0x173E DUP2 PUSH2 0x172C JUMP JUMPDEST DUP2 EQ PUSH2 0x1748 JUMPI PUSH0 PUSH0 REVERT JUMPDEST POP JUMP JUMPDEST PUSH0 DUP2 CALLDATALOAD SWAP1 POP PUSH2 0x1759 DUP2 PUSH2 0x1735 JUMP JUMPDEST SWAP3 SWAP2 POP POP JUMP JUMPDEST PUSH0 PUSH0 PUSH1 0x40 DUP4 DUP6 SUB SLT ISZERO PUSH2 0x1775 JUMPI PUSH2 0x1774 PUSH2 0x16CE JUMP JUMPDEST JUMPDEST PUSH0 PUSH2 0x1782 DUP6 DUP3 DUP7 ADD PUSH2 0x1718 JUMP JUMPDEST SWAP3 POP POP PUSH1 0x20 PUSH2 0x1793 DUP6 DUP3 DUP7 ADD PUSH2 0x174B JUMP JUMPDEST SWAP2 POP POP SWAP3 POP SWAP3 SWAP1 POP JUMP JUMPDEST PUSH0 DUP2 ISZERO ISZERO SWAP1 POP SWAP2 SWAP1 POP JUMP JUMPDEST PUSH2 0x17B1 DUP2 PUSH2 0x179D JUMP JUMPDEST DUP3 MSTORE POP POP JUMP JUMPDEST PUSH0 PUSH1 0x20 DUP3 ADD SWAP1 POP PUSH2 0x17CA PUSH0 DUP4 ADD DUP5 PUSH2 0x17A8 JUMP JUMPDEST SWAP3 SWAP2 POP POP JUMP JUMPDEST PUSH0 PUSH0 PUSH0 PUSH1 0x60 DUP5 DUP7 SUB SLT ISZERO PUSH2 0x17E7 JUMPI PUSH2 0x17E6 PUSH2 0x16CE JUMP JUMPDEST JUMPDEST PUSH0 PUSH2 0x17F4 DUP7 DUP3 DUP8 ADD PUSH2 0x1718 JUMP JUMPDEST SWAP4 POP POP PUSH1 0x20 PUSH2 0x1805 DUP7 DUP3 DUP8 ADD PUSH2 0x1718 JUMP JUMPDEST SWAP3 POP POP PUSH1 0x40 PUSH2 0x1816 DUP7 DUP3 DUP8 ADD PUSH2 0x174B JUMP JUMPDEST SWAP2 POP POP SWAP3 POP SWAP3 POP SWAP3 JUMP JUMPDEST PUSH0 PUSH1 0xFF DUP3 AND SWAP1 POP SWAP2 SWAP1 POP JUMP JUMPDEST PUSH2 0x1835 DUP2 PUSH2 0x1820 JUMP JUMPDEST DUP3 MSTORE POP POP JUMP JUMPDEST PUSH0 PUSH1 0x20 DUP3 ADD SWAP1 POP PUSH2 0x184E PUSH0 DUP4 ADD DUP5 PUSH2 0x182C JUMP JUMPDEST SWAP3 SWAP2 POP POP JUMP JUMPDEST PUSH2 0x185D DUP2 PUSH2 0x172C JUMP JUMPDEST DUP3 MSTORE POP POP JUMP JUMPDEST PUSH0 PUSH1 0x20 DUP3 ADD SWAP1 POP PUSH2 0x1876 PUSH0 DUP4 ADD DUP5 PUSH2 0x1854 JUMP JUMPDEST SWAP3 SWAP2 POP POP JUMP JUMPDEST PUSH0 PUSH1 0x20 DUP3 DUP5 SUB SLT ISZERO PUSH2 0x1891 JUMPI PUSH2 0x1890 PUSH2 0x16CE JUMP JUMPDEST JUMPDEST PUSH0 PUSH2 0x189E DUP5 DUP3 DUP6 ADD PUSH2 0x174B JUMP JUMPDEST SWAP2 POP POP SWAP3 SWAP2 POP POP JUMP JUMPDEST PUSH0 PUSH1 0x20 DUP3 DUP5 SUB SLT ISZERO PUSH2 0x18BC JUMPI PUSH2 0x18BB PUSH2 0x16CE JUMP JUMPDEST JUMPDEST PUSH0 PUSH2 0x18C9 DUP5 DUP3 DUP6 ADD PUSH2 0x1718 JUMP JUMPDEST SWAP2 POP POP SWAP3 SWAP2 POP POP JUMP JUMPDEST PUSH2 0x18DB DUP2 PUSH2 0x16F1 JUMP JUMPDEST DUP3 MSTORE POP POP JUMP JUMPDEST PUSH0 PUSH1 0x20 DUP3 ADD SWAP1 POP PUSH2 0x18F4 PUSH0 DUP4 ADD DUP5 PUSH2 0x18D2 JUMP JUMPDEST SWAP3 SWAP2 POP POP JUMP JUMPDEST PUSH0 PUSH0 PUSH1 0x40 DUP4 DUP6 SUB SLT ISZERO PUSH2 0x1910 JUMPI PUSH2 0x190F PUSH2 0x16CE JUMP JUMPDEST JUMPDEST PUSH0 PUSH2 0x191D DUP6 DUP3 DUP7 ADD PUSH2 0x1718 JUMP JUMPDEST SWAP3 POP POP PUSH1 0x20 PUSH2 0x192E DUP6 DUP3 DUP7 ADD PUSH2 0x1718 JUMP JUMPDEST SWAP2 POP POP SWAP3 POP SWAP3 SWAP1 POP JUMP JUMPDEST PUSH32 0x4E487B7100000000000000000000000000000000000000000000000000000000 PUSH0 MSTORE PUSH1 0x22 PUSH1 0x4 MSTORE PUSH1 0x24 PUSH0 REVERT JUMPDEST PUSH0 PUSH1 0x2 DUP3 DIV SWAP1 POP PUSH1 0x1 DUP3 AND DUP1 PUSH2 0x197C JUMPI PUSH1 0x7F DUP3 AND SWAP2 POP JUMPDEST PUSH1 0x20 DUP3 LT DUP2 SUB PUSH2 0x198F JUMPI PUSH2 0x198E PUSH2 0x1938 JUMP JUMPDEST JUMPDEST POP SWAP2 SWAP1 POP JUMP JUMPDEST PUSH32 0x436F6E7472616374206973207061757365640000000000000000000000000000 PUSH0 DUP3 ADD MSTORE POP JUMP JUMPDEST PUSH0 PUSH2 0x19C9 PUSH1 0x12 DUP4 PUSH2 0x1648 JUMP JUMPDEST SWAP2 POP PUSH2 0x19D4 DUP3 PUSH2 0x1995 JUMP JUMPDEST PUSH1 0x20 DUP3 ADD SWAP1 POP SWAP2 SWAP1 POP JUMP JUMPDEST PUSH0 PUSH1 0x20 DUP3 ADD SWAP1 POP DUP2 DUP2 SUB PUSH0 DUP4 ADD MSTORE PUSH2 0x19F6 DUP2 PUSH2 0x19BD JUMP JUMPDEST SWAP1 POP SWAP2 SWAP1 POP JUMP JUMPDEST PUSH32 0x45524332303A20696E73756666696369656E7420616C6C6F77616E6365000000 PUSH0 DUP3 ADD MSTORE POP JUMP JUMPDEST PUSH0 PUSH2 0x1A31 PUSH1 0x1D DUP4 PUSH2 0x1648 JUMP JUMPDEST SWAP2 POP PUSH2 0x1A3C DUP3 PUSH2 0x19FD JUMP JUMPDEST PUSH1 0x20 DUP3 ADD SWAP1 POP SWAP2 SWAP1 POP JUMP JUMPDEST PUSH0 PUSH1 0x20 DUP3 ADD SWAP1 POP DUP2 DUP2 SUB PUSH0 DUP4 ADD MSTORE PUSH2 0x1A5E DUP2 PUSH2 0x1A25 JUMP JUMPDEST SWAP1 POP SWAP2 SWAP1 POP JUMP JUMPDEST PUSH32 0x4E487B7100000000000000000000000000000000000000000000000000000000 PUSH0 MSTORE PUSH1 0x11 PUSH1 0x4 MSTORE PUSH1 0x24 PUSH0 REVERT JUMPDEST PUSH0 PUSH2 0x1A9C DUP3 PUSH2 0x172C JUMP JUMPDEST SWAP2 POP PUSH2 0x1AA7 DUP4 PUSH2 0x172C JUMP JUMPDEST SWAP3 POP DUP3 DUP3 SUB SWAP1 POP DUP2 DUP2 GT ISZERO PUSH2 0x1ABF JUMPI PUSH2 0x1ABE PUSH2 0x1A65 JUMP JUMPDEST JUMPDEST SWAP3 SWAP2 POP POP JUMP JUMPDEST PUSH32 0x4E6F7420636F6E7472616374204F776E65720000000000000000000000000000 PUSH0 DUP3 ADD MSTORE POP JUMP JUMPDEST PUSH0 PUSH2 0x1AF9 PUSH1 0x12 DUP4 PUSH2 0x1648 JUMP JUMPDEST SWAP2 POP PUSH2 0x1B04 DUP3 PUSH2 0x1AC5 JUMP JUMPDEST PUSH1 0x20 DUP3 ADD SWAP1 POP SWAP2 SWAP1 POP JUMP JUMPDEST PUSH0 PUSH1 0x20 DUP3 ADD SWAP1 POP DUP2 DUP2 SUB PUSH0 DUP4 ADD MSTORE PUSH2 0x1B26 DUP2 PUSH2 0x1AED JUMP JUMPDEST SWAP1 POP SWAP2 SWAP1 POP JUMP JUMPDEST PUSH0 DUP2 PUSH1 0x1 SHR SWAP1 POP SWAP2 SWAP1 POP JUMP JUMPDEST PUSH0 PUSH0 DUP3 SWAP2 POP DUP4 SWAP1 POP JUMPDEST PUSH1 0x1 DUP6 GT ISZERO PUSH2 0x1B82 JUMPI DUP1 DUP7 DIV DUP2 GT ISZERO PUSH2 0x1B5E JUMPI PUSH2 0x1B5D PUSH2 0x1A65 JUMP JUMPDEST JUMPDEST PUSH1 0x1 DUP6 AND ISZERO PUSH2 0x1B6D JUMPI DUP1 DUP3 MUL SWAP2 POP JUMPDEST DUP1 DUP2 MUL SWAP1 POP PUSH2 0x1B7B DUP6 PUSH2 0x1B2D JUMP JUMPDEST SWAP5 POP PUSH2 0x1B42 JUMP JUMPDEST SWAP5 POP SWAP5 SWAP3 POP POP POP JUMP JUMPDEST PUSH0 DUP3 PUSH2 0x1B9A JUMPI PUSH1 0x1 SWAP1 POP PUSH2 0x1C55 JUMP JUMPDEST DUP2 PUSH2 0x1BA7 JUMPI PUSH0 SWAP1 POP PUSH2 0x1C55 JUMP JUMPDEST DUP2 PUSH1 0x1 DUP2 EQ PUSH2 0x1BBD JUMPI PUSH1 0x2 DUP2 EQ PUSH2 0x1BC7 JUMPI PUSH2 0x1BF6 JUMP JUMPDEST PUSH1 0x1 SWAP2 POP POP PUSH2 0x1C55 JUMP JUMPDEST PUSH1 0xFF DUP5 GT ISZERO PUSH2 0x1BD9 JUMPI PUSH2 0x1BD8 PUSH2 0x1A65 JUMP JUMPDEST JUMPDEST DUP4 PUSH1 0x2 EXP SWAP2 POP DUP5 DUP3 GT ISZERO PUSH2 0x1BF0 JUMPI PUSH2 0x1BEF PUSH2 0x1A65 JUMP JUMPDEST JUMPDEST POP PUSH2 0x1C55 JUMP JUMPDEST POP PUSH1 0x20 DUP4 LT PUSH2 0x133 DUP4 LT AND PUSH1 0x4E DUP5 LT PUSH1 0xB DUP5 LT AND OR ISZERO PUSH2 0x1C2B JUMPI DUP3 DUP3 EXP SWAP1 POP DUP4 DUP2 GT ISZERO PUSH2 0x1C26 JUMPI PUSH2 0x1C25 PUSH2 0x1A65 JUMP JUMPDEST JUMPDEST PUSH2 0x1C55 JUMP JUMPDEST PUSH2 0x1C38 DUP5 DUP5 DUP5 PUSH1 0x1 PUSH2 0x1B39 JUMP JUMPDEST SWAP3 POP SWAP1 POP DUP2 DUP5 DIV DUP2 GT ISZERO PUSH2 0x1C4F JUMPI PUSH2 0x1C4E PUSH2 0x1A65 JUMP JUMPDEST JUMPDEST DUP2 DUP2 MUL SWAP1 POP JUMPDEST SWAP4 SWAP3 POP POP POP JUMP JUMPDEST PUSH0 PUSH2 0x1C66 DUP3 PUSH2 0x172C JUMP JUMPDEST SWAP2 POP PUSH2 0x1C71 DUP4 PUSH2 0x172C JUMP JUMPDEST SWAP3 POP PUSH2 0x1C9E PUSH32 0xFFFFFFFFFFFFFFFFFFFFFFFFFFFFFFFFFFFFFFFFFFFFFFFFFFFFFFFFFFFFFFFF DUP5 DUP5 PUSH2 0x1B8B JUMP JUMPDEST SWAP1 POP SWAP3 SWAP2 POP POP JUMP JUMPDEST PUSH0 PUSH2 0x1CB0 DUP3 PUSH2 0x172C JUMP JUMPDEST SWAP2 POP PUSH2 0x1CBB DUP4 PUSH2 0x172C JUMP JUMPDEST SWAP3 POP DUP3 DUP3 MUL PUSH2 0x1CC9 DUP2 PUSH2 0x172C JUMP JUMPDEST SWAP2 POP DUP3 DUP3 DIV DUP5 EQ DUP4 ISZERO OR PUSH2 0x1CE0 JUMPI PUSH2 0x1CDF PUSH2 0x1A65 JUMP JUMPDEST JUMPDEST POP SWAP3 SWAP2 POP POP JUMP JUMPDEST PUSH0 PUSH2 0x1CF1 DUP3 PUSH2 0x172C JUMP JUMPDEST SWAP2 POP PUSH2 0x1CFC DUP4 PUSH2 0x172C JUMP JUMPDEST SWAP3 POP DUP3 DUP3 ADD SWAP1 POP DUP1 DUP3 GT ISZERO PUSH2 0x1D14 JUMPI PUSH2 0x1D13 PUSH2 0x1A65 JUMP JUMPDEST JUMPDEST SWAP3 SWAP2 POP POP JUMP JUMPDEST PUSH32 0x4578636565647320636170000000000000000000000000000000000000000000 PUSH0 DUP3 ADD MSTORE POP JUMP JUMPDEST PUSH0 PUSH2 0x1D4E PUSH1 0xB DUP4 PUSH2 0x1648 JUMP JUMPDEST SWAP2 POP PUSH2 0x1D59 DUP3 PUSH2 0x1D1A JUMP JUMPDEST PUSH1 0x20 DUP3 ADD SWAP1 POP SWAP2 SWAP1 POP JUMP JUMPDEST PUSH0 PUSH1 0x20 DUP3 ADD SWAP1 POP DUP2 DUP2 SUB PUSH0 DUP4 ADD MSTORE PUSH2 0x1D7B DUP2 PUSH2 0x1D42 JUMP JUMPDEST SWAP1 POP SWAP2 SWAP1 POP JUMP JUMPDEST PUSH32 0x496E73756666696369656E742062616C616E636520746F206275726E00000000 PUSH0 DUP3 ADD MSTORE POP JUMP JUMPDEST PUSH0 PUSH2 0x1DB6 PUSH1 0x1C DUP4 PUSH2 0x1648 JUMP JUMPDEST SWAP2 POP PUSH2 0x1DC1 DUP3 PUSH2 0x1D82 JUMP JUMPDEST PUSH1 0x20 DUP3 ADD SWAP1 POP SWAP2 SWAP1 POP JUMP JUMPDEST PUSH0 PUSH1 0x20 DUP3 ADD SWAP1 POP DUP2 DUP2 SUB PUSH0 DUP4 ADD MSTORE PUSH2 0x1DE3 DUP2 PUSH2 0x1DAA JUMP JUMPDEST SWAP1 POP SWAP2 SWAP1 POP JUMP JUMPDEST PUSH32 0x416C6C6F77616E63652065786365656465640000000000000000000000000000 PUSH0 DUP3 ADD MSTORE POP JUMP JUMPDEST PUSH0 PUSH2 0x1E1E PUSH1 0x12 DUP4 PUSH2 0x1648 JUMP JUMPDEST SWAP2 POP PUSH2 0x1E29 DUP3 PUSH2 0x1DEA JUMP JUMPDEST PUSH1 0x20 DUP3 ADD SWAP1 POP SWAP2 SWAP1 POP JUMP JUMPDEST PUSH0 PUSH1 0x20 DUP3 ADD SWAP1 POP DUP2 DUP2 SUB PUSH0 DUP4 ADD MSTORE PUSH2 0x1E4B DUP2 PUSH2 0x1E12 JUMP JUMPDEST SWAP1 POP SWAP2 SWAP1 POP JUMP JUMPDEST PUSH32 0x45524332303A20617070726F76652066726F6D20307830000000000000000000 PUSH0 DUP3 ADD MSTORE POP JUMP JUMPDEST PUSH0 PUSH2 0x1E86 PUSH1 0x17 DUP4 PUSH2 0x1648 JUMP JUMPDEST SWAP2 POP PUSH2 0x1E91 DUP3 PUSH2 0x1E52 JUMP JUMPDEST PUSH1 0x20 DUP3 ADD SWAP1 POP SWAP2 SWAP1 POP JUMP JUMPDEST PUSH0 PUSH1 0x20 DUP3 ADD SWAP1 POP DUP2 DUP2 SUB PUSH0 DUP4 ADD MSTORE PUSH2 0x1EB3 DUP2 PUSH2 0x1E7A JUMP JUMPDEST SWAP1 POP SWAP2 SWAP1 POP JUMP JUMPDEST PUSH32 0x45524332303A20617070726F766520746F203078300000000000000000000000 PUSH0 DUP3 ADD MSTORE POP JUMP JUMPDEST PUSH0 PUSH2 0x1EEE PUSH1 0x15 DUP4 PUSH2 0x1648 JUMP JUMPDEST SWAP2 POP PUSH2 0x1EF9 DUP3 PUSH2 0x1EBA JUMP JUMPDEST PUSH1 0x20 DUP3 ADD SWAP1 POP SWAP2 SWAP1 POP JUMP JUMPDEST PUSH0 PUSH1 0x20 DUP3 ADD SWAP1 POP DUP2 DUP2 SUB PUSH0 DUP4 ADD MSTORE PUSH2 0x1F1B DUP2 PUSH2 0x1EE2 JUMP JUMPDEST SWAP1 POP SWAP2 SWAP1 POP JUMP JUMPDEST PUSH32 0x45524332303A207472616E736665722066726F6D203078300000000000000000 PUSH0 DUP3 ADD MSTORE POP JUMP JUMPDEST PUSH0 PUSH2 0x1F56 PUSH1 0x18 DUP4 PUSH2 0x1648 JUMP JUMPDEST SWAP2 POP PUSH2 0x1F61 DUP3 PUSH2 0x1F22 JUMP JUMPDEST PUSH1 0x20 DUP3 ADD SWAP1 POP SWAP2 SWAP1 POP JUMP JUMPDEST PUSH0 PUSH1 0x20 DUP3 ADD SWAP1 POP DUP2 DUP2 SUB PUSH0 DUP4 ADD MSTORE PUSH2 0x1F83 DUP2 PUSH2 0x1F4A JUMP JUMPDEST SWAP1 POP SWAP2 SWAP1 POP JUMP JUMPDEST PUSH32 0x45524332303A207472616E7366657220746F2030783000000000000000000000 PUSH0 DUP3 ADD MSTORE POP JUMP JUMPDEST PUSH0 PUSH2 0x1FBE PUSH1 0x16 DUP4 PUSH2 0x1648 JUMP JUMPDEST SWAP2 POP PUSH2 0x1FC9 DUP3 PUSH2 0x1F8A JUMP JUMPDEST PUSH1 0x20 DUP3 ADD SWAP1 POP SWAP2 SWAP1 POP JUMP JUMPDEST PUSH0 PUSH1 0x20 DUP3 ADD SWAP1 POP DUP2 DUP2 SUB PUSH0 DUP4 ADD MSTORE PUSH2 0x1FEB DUP2 PUSH2 0x1FB2 JUMP JUMPDEST SWAP1 POP SWAP2 SWAP1 POP JUMP JUMPDEST PUSH32 0x45524332303A20696E73756666696369656E742062616C616E63650000000000 PUSH0 DUP3 ADD MSTORE POP JUMP JUMPDEST PUSH0 PUSH2 0x2026 PUSH1 0x1B DUP4 PUSH2 0x1648 JUMP JUMPDEST SWAP2 POP PUSH2 0x2031 DUP3 PUSH2 0x1FF2 JUMP JUMPDEST PUSH1 0x20 DUP3 ADD SWAP1 POP SWAP2 SWAP1 POP JUMP JUMPDEST PUSH0 PUSH1 0x20 DUP3 ADD SWAP1 POP DUP2 DUP2 SUB PUSH0 DUP4 ADD MSTORE PUSH2 0x2053 DUP2 PUSH2 0x201A JUMP JUMPDEST SWAP1 POP SWAP2 SWAP1 POP JUMP JUMPDEST PUSH32 0x496E76616C696420616464726573730000000000000000000000000000000000 PUSH0 DUP3 ADD MSTORE POP JUMP JUMPDEST PUSH0 PUSH2 0x208E PUSH1 0xF DUP4 PUSH2 0x1648 JUMP JUMPDEST SWAP2 POP PUSH2 0x2099 DUP3 PUSH2 0x205A JUMP JUMPDEST PUSH1 0x20 DUP3 ADD SWAP1 POP SWAP2 SWAP1 POP JUMP JUMPDEST PUSH0 PUSH1 0x20 DUP3 ADD SWAP1 POP DUP2 DUP2 SUB PUSH0 DUP4 ADD MSTORE PUSH2 0x20BB DUP2 PUSH2 0x2082 JUMP JUMPDEST SWAP1 POP SWAP2 SWAP1 POP JUMP INVALID LOG2 PUSH5 0x6970667358 0x22 SLT KECCAK256 PUSH24 0xD534013AF2009BA27A974BB45BE4D6FDC887A2D6B947F40E SLOAD 0xBF DUP10 0xBA SGT 0xB9 0xB0 PUSH5 0x736F6C6343 STOP ADDMOD 0x1E STOP CALLER "
		},
		"gasEstimates": {
			"creation": {
				"codeDepositCost": "1688000",
				"executionCost": "infinite",
				"totalCost": "infinite"
			},
			"external": {
				"allowance(address,address)": "infinite",
				"approve(address,uint256)": "infinite",
				"balanceOf(address)": "2874",
				"burn(uint256)": "infinite",
				"burnForm(address,uint256)": "infinite",
				"cap()": "infinite",
				"decimals()": "2556",
				"mint(address,uint256)": "infinite",
				"name()": "infinite",
				"owner()": "2530",
				"pause()": "27878",
				"paused()": "2540",
				"symbol()": "infinite",
				"totalsupply()": "2499",
				"transfer(address,uint256)": "infinite",
				"transferFrom(address,address,uint256)": "infinite",
				"unpause()": "27833"
			},
			"internal": {
				"_approve(address,address,uint256)": "infinite",
				"_burn(address,uint256)": "infinite",
				"_mint(address,uint256)": "infinite",
				"_transfer(address,address,uint256)": "infinite"
			}
		},
		"methodIdentifiers": {
			"allowance(address,address)": "dd62ed3e",
			"approve(address,uint256)": "095ea7b3",
			"balanceOf(address)": "70a08231",
			"burn(uint256)": "42966c68",
			"burnForm(address,uint256)": "c62b3bea",
			"cap()": "355274ea",
			"decimals()": "313ce567",
			"mint(address,uint256)": "40c10f19",
			"name()": "06fdde03",
			"owner()": "8da5cb5b",
			"pause()": "8456cb59",
			"paused()": "5c975abb",
			"symbol()": "95d89b41",
			"totalsupply()": "72dd529b",
			"transfer(address,uint256)": "a9059cbb",
			"transferFrom(address,address,uint256)": "23b872dd",
			"unpause()": "3f4ba83a"
		}
	},
	"abi": [
		{
			"inputs": [
				{
					"internalType": "string",
					"name": "_name",
					"type": "string"
				},
				{
					"internalType": "string",
					"name": "_symbol",
					"type": "string"
				},
				{
					"internalType": "uint256",
					"name": "initialSupply",
					"type": "uint256"
				},
				{
					"internalType": "uint256",
					"name": "maxcap",
					"type": "uint256"
				}
			],
			"stateMutability": "nonpayable",
			"type": "constructor"
		},
		{
			"anonymous": false,
			"inputs": [
				{
					"indexed": true,
					"internalType": "address",
					"name": "owner",
					"type": "address"
				},
				{
					"indexed": true,
					"internalType": "address",
					"name": "spender",
					"type": "address"
				},
				{
					"indexed": false,
					"internalType": "uint256",
					"name": "amount",
					"type": "uint256"
				}
			],
			"name": "Approval",
			"type": "event"
		},
		{
			"anonymous": false,
			"inputs": [
				{
					"indexed": true,
					"internalType": "address",
					"name": "burner",
					"type": "address"
				},
				{
					"indexed": false,
					"internalType": "uint256",
					"name": "amount",
					"type": "uint256"
				}
			],
			"name": "Burn",
			"type": "event"
		},
		{
			"anonymous": false,
			"inputs": [
				{
					"indexed": true,
					"internalType": "address",
					"name": "to",
					"type": "address"
				},
				{
					"indexed": false,
					"internalType": "uint256",
					"name": "amount",
					"type": "uint256"
				}
			],
			"name": "Mint",
			"type": "event"
		},
		{
			"anonymous": false,
			"inputs": [
				{
					"indexed": true,
					"internalType": "address",
					"name": "account",
					"type": "address"
				}
			],
			"name": "Paused",
			"type": "event"
		},
		{
			"anonymous": false,
			"inputs": [
				{
					"indexed": true,
					"internalType": "address",
					"name": "from",
					"type": "address"
				},
				{
					"indexed": true,
					"internalType": "address",
					"name": "to",
					"type": "address"
				},
				{
					"indexed": false,
					"internalType": "uint256",
					"name": "amount",
					"type": "uint256"
				}
			],
			"name": "Transfer",
			"type": "event"
		},
		{
			"anonymous": false,
			"inputs": [
				{
					"indexed": true,
					"internalType": "address",
					"name": "account",
					"type": "address"
				}
			],
			"name": "Unpaused",
			"type": "event"
		},
		{
			"inputs": [
				{
					"internalType": "address",
					"name": "tokenOwner",
					"type": "address"
				},
				{
					"internalType": "address",
					"name": "spender",
					"type": "address"
				}
			],
			"name": "allowance",
			"outputs": [
				{
					"internalType": "uint256",
					"name": "",
					"type": "uint256"
				}
			],
			"stateMutability": "view",
			"type": "function"
		},
		{
			"inputs": [
				{
					"internalType": "address",
					"name": "spender",
					"type": "address"
				},
				{
					"internalType": "uint256",
					"name": "amount",
					"type": "uint256"
				}
			],
			"name": "approve",
			"outputs": [
				{
					"internalType": "bool",
					"name": "",
					"type": "bool"
				}
			],
			"stateMutability": "nonpayable",
			"type": "function"
		},
		{
			"inputs": [
				{
					"internalType": "address",
					"name": "account",
					"type": "address"
				}
			],
			"name": "balanceOf",
			"outputs": [
				{
					"internalType": "uint256",
					"name": "",
					"type": "uint256"
				}
			],
			"stateMutability": "view",
			"type": "function"
		},
		{
			"inputs": [
				{
					"internalType": "uint256",
					"name": "amount",
					"type": "uint256"
				}
			],
			"name": "burn",
			"outputs": [],
			"stateMutability": "nonpayable",
			"type": "function"
		},
		{
			"inputs": [
				{
					"internalType": "address",
					"name": "account",
					"type": "address"
				},
				{
					"internalType": "uint256",
					"name": "amount",
					"type": "uint256"
				}
			],
			"name": "burnForm",
			"outputs": [],
			"stateMutability": "nonpayable",
			"type": "function"
		},
		{
			"inputs": [],
			"name": "cap",
			"outputs": [
				{
					"internalType": "uint256",
					"name": "",
					"type": "uint256"
				}
			],
			"stateMutability": "view",
			"type": "function"
		},
		{
			"inputs": [],
			"name": "decimals",
			"outputs": [
				{
					"internalType": "uint8",
					"name": "",
					"type": "uint8"
				}
			],
			"stateMutability": "view",
			"type": "function"
		},
		{
			"inputs": [
				{
					"internalType": "address",
					"name": "to",
					"type": "address"
				},
				{
					"internalType": "uint256",
					"name": "amount",
					"type": "uint256"
				}
			],
			"name": "mint",
			"outputs": [],
			"stateMutability": "nonpayable",
			"type": "function"
		},
		{
			"inputs": [],
			"name": "name",
			"outputs": [
				{
					"internalType": "string",
					"name": "",
					"type": "string"
				}
			],
			"stateMutability": "view",
			"type": "function"
		},
		{
			"inputs": [],
			"name": "owner",
			"outputs": [
				{
					"internalType": "address",
					"name": "",
					"type": "address"
				}
			],
			"stateMutability": "view",
			"type": "function"
		},
		{
			"inputs": [],
			"name": "pause",
			"outputs": [],
			"stateMutability": "nonpayable",
			"type": "function"
		},
		{
			"inputs": [],
			"name": "paused",
			"outputs": [
				{
					"internalType": "bool",
					"name": "",
					"type": "bool"
				}
			],
			"stateMutability": "view",
			"type": "function"
		},
		{
			"inputs": [],
			"name": "symbol",
			"outputs": [
				{
					"internalType": "string",
					"name": "",
					"type": "string"
				}
			],
			"stateMutability": "view",
			"type": "function"
		},
		{
			"inputs": [],
			"name": "totalsupply",
			"outputs": [
				{
					"internalType": "uint256",
					"name": "",
					"type": "uint256"
				}
			],
			"stateMutability": "view",
			"type": "function"
		},
		{
			"inputs": [
				{
					"internalType": "address",
					"name": "to",
					"type": "address"
				},
				{
					"internalType": "uint256",
					"name": "amount",
					"type": "uint256"
				}
			],
			"name": "transfer",
			"outputs": [
				{
					"internalType": "bool",
					"name": "",
					"type": "bool"
				}
			],
			"stateMutability": "nonpayable",
			"type": "function"
		},
		{
			"inputs": [
				{
					"internalType": "address",
					"name": "from",
					"type": "address"
				},
				{
					"internalType": "address",
					"name": "to",
					"type": "address"
				},
				{
					"internalType": "uint256",
					"name": "amount",
					"type": "uint256"
				}
			],
			"name": "transferFrom",
			"outputs": [
				{
					"internalType": "bool",
					"name": "",
					"type": "bool"
				}
			],
			"stateMutability": "nonpayable",
			"type": "function"
		},
		{
			"inputs": [],
			"name": "unpause",
			"outputs": [],
			"stateMutability": "nonpayable",
			"type": "function"
		}
	]
}