{
	"data": {
		"bytecode": {
			"linkReferences": {},
			"object": "6080604052348015600e575f5ffd5b506123ae8061001c5f395ff3fe608060405234801561000f575f5ffd5b506004361061009b575f3560e01c8063a22cb46511610064578063a22cb4651461017b578063a55784ef14610197578063bb7fde71146101b3578063e985e9c5146101cf578063fba0ee64146101ff5761009b565b8062fdd58e1461009f57806301ffc9a7146100cf5780630e89341c146100ff5780630febdd491461012f5780634e1273f41461014b575b5f5ffd5b6100b960048036038101906100b49190611311565b61021b565b6040516100c6919061135e565b60405180910390f35b6100e960048036038101906100e491906113cc565b6102de565b6040516100f69190611411565b60405180910390f35b6101196004803603810190610114919061142a565b61030f565b60405161012691906114c5565b60405180910390f35b610149600480360381019061014491906114e5565b6103b0565b005b610165600480360381019061016091906115ff565b6106f3565b6040516101729190611734565b60405180910390f35b6101956004803603810190610190919061177e565b61081f565b005b6101b160048036038101906101ac9190611811565b610917565b005b6101cd60048036038101906101c891906119fd565b610c2b565b005b6101e960048036038101906101e49190611a7d565b610dfa565b6040516101f69190611411565b60405180910390f35b61021960048036038101906102149190611abb565b610e88565b005b5f5f73ffffffffffffffffffffffffffffffffffffffff168373ffffffffffffffffffffffffffffffffffffffff160361028a576040517f08c379a000000000000000000000000000000000000000000000000000000000815260040161028190611ba8565b60405180910390fd5b5f5f8381526020019081526020015f205f8473ffffffffffffffffffffffffffffffffffffffff1673ffffffffffffffffffffffffffffffffffffffff1681526020019081526020015f2054905092915050565b5f63d9b67a2660e01b827bffffffffffffffffffffffffffffffffffffffffffffffffffffffff1916149050919050565b606060025f8381526020019081526020015f20805461032d90611bf3565b80601f016020809104026020016040519081016040528092919081815260200182805461035990611bf3565b80156103a45780601f1061037b576101008083540402835291602001916103a4565b820191905f5260205f20905b81548152906001019060200180831161038757829003601f168201915b50505050509050919050565b833373ffffffffffffffffffffffffffffffffffffffff168173ffffffffffffffffffffffffffffffffffffffff16148061046c575060015f8273ffffffffffffffffffffffffffffffffffffffff1673ffffffffffffffffffffffffffffffffffffffff1681526020019081526020015f205f3373ffffffffffffffffffffffffffffffffffffffff1673ffffffffffffffffffffffffffffffffffffffff1681526020019081526020015f205f9054906101000a900460ff165b6104ab576040517f08c379a00000000000000000000000000000000000000000000000000000000081526004016104a290611c6d565b60405180910390fd5b5f73ffffffffffffffffffffffffffffffffffffffff168473ffffffffffffffffffffffffffffffffffffffff1603610519576040517f08c379a000000000000000000000000000000000000000000000000000000000815260040161051090611ba8565b60405180910390fd5b5f5f5f8581526020019081526020015f205f8773ffffffffffffffffffffffffffffffffffffffff1673ffffffffffffffffffffffffffffffffffffffff1681526020019081526020015f20549050828110156105ab576040517f08c379a00000000000000000000000000000000000000000000000000000000081526004016105a290611cd5565b60405180910390fd5b825f5f8681526020019081526020015f205f8873ffffffffffffffffffffffffffffffffffffffff1673ffffffffffffffffffffffffffffffffffffffff1681526020019081526020015f205f8282546106059190611d20565b92505081905550825f5f8681526020019081526020015f205f8773ffffffffffffffffffffffffffffffffffffffff1673ffffffffffffffffffffffffffffffffffffffff1681526020019081526020015f205f8282546106669190611d53565b925050819055508473ffffffffffffffffffffffffffffffffffffffff168673ffffffffffffffffffffffffffffffffffffffff163373ffffffffffffffffffffffffffffffffffffffff167fc3d58168c5ae7397731d063d5bbf3d657854427343f4c083240f7aacaa2d0f6287876040516106e3929190611d86565b60405180910390a4505050505050565b606082829050858590501461073d576040517f08c379a000000000000000000000000000000000000000000000000000000000815260040161073490611df7565b60405180910390fd5b5f8585905067ffffffffffffffff81111561075b5761075a6118d9565b5b6040519080825280602002602001820160405280156107895781602001602082028036833780820191505090505b5090505f5f90505b86869050811015610812576107e68787838181106107b2576107b1611e15565b5b90506020020160208101906107c79190611e42565b8686848181106107da576107d9611e15565b5b9050602002013561021b565b8282815181106107f9576107f8611e15565b5b6020026020010181815250508080600101915050610791565b5080915050949350505050565b8060015f3373ffffffffffffffffffffffffffffffffffffffff1673ffffffffffffffffffffffffffffffffffffffff1681526020019081526020015f205f8473ffffffffffffffffffffffffffffffffffffffff1673ffffffffffffffffffffffffffffffffffffffff1681526020019081526020015f205f6101000a81548160ff0219169083151502179055508173ffffffffffffffffffffffffffffffffffffffff163373ffffffffffffffffffffffffffffffffffffffff167f17307eab39ab6107e8899845ad3d59bd9653f200f220920489ca2b5937696c318360405161090b9190611411565b60405180910390a35050565b5f73ffffffffffffffffffffffffffffffffffffffff168773ffffffffffffffffffffffffffffffffffffffff1603610985576040517f08c379a000000000000000000000000000000000000000000000000000000000815260040161097c90611ba8565b60405180910390fd5b838390508686905014801561099f57508181905086869050145b6109de576040517f08c379a00000000000000000000000000000000000000000000000000000000081526004016109d590611eb7565b60405180910390fd5b5f5f90505b86869050811015610b9f57848482818110610a0157610a00611e15565b5b905060200201355f5f898985818110610a1d57610a1c611e15565b5b9050602002013581526020019081526020015f205f8a73ffffffffffffffffffffffffffffffffffffffff1673ffffffffffffffffffffffffffffffffffffffff1681526020019081526020015f205f828254610a7a9190611d53565b925050819055505f60025f898985818110610a9857610a97611e15565b5b9050602002013581526020019081526020015f208054610ab790611bf3565b905003610b9257828282818110610ad157610ad0611e15565b5b9050602002810190610ae39190611ee1565b60025f8a8a86818110610af957610af8611e15565b5b9050602002013581526020019081526020015f209182610b1a9291906120ed565b50868682818110610b2e57610b2d611e15565b5b905060200201357f6bb7ff708619ba0610cba295a58592e0451dee2622938c8755667688daf3529b848484818110610b6957610b68611e15565b5b9050602002810190610b7b9190611ee1565b604051610b899291906121e6565b60405180910390a25b80806001019150506109e3565b508673ffffffffffffffffffffffffffffffffffffffff165f73ffffffffffffffffffffffffffffffffffffffff163373ffffffffffffffffffffffffffffffffffffffff167f4a39dc06d4c0dbc64b70af90fd698a233a518aa5d07e595d983b8c0526c8f7fb89898989604051610c1a9493929190612270565b60405180910390a450505050505050565b5f73ffffffffffffffffffffffffffffffffffffffff168473ffffffffffffffffffffffffffffffffffffffff1603610c99576040517f08c379a0000000000000000000000000000000000000000000000000000000008152600401610c9090611ba8565b60405180910390fd5b815f5f8581526020019081526020015f205f8673ffffffffffffffffffffffffffffffffffffffff1673ffffffffffffffffffffffffffffffffffffffff1681526020019081526020015f205f828254610cf39190611d53565b925050819055505f60025f8581526020019081526020015f208054610d1790611bf3565b905003610d76578060025f8581526020019081526020015f209081610d3c91906122a9565b50827f6bb7ff708619ba0610cba295a58592e0451dee2622938c8755667688daf3529b82604051610d6d91906114c5565b60405180910390a25b8373ffffffffffffffffffffffffffffffffffffffff165f73ffffffffffffffffffffffffffffffffffffffff163373ffffffffffffffffffffffffffffffffffffffff167fc3d58168c5ae7397731d063d5bbf3d657854427343f4c083240f7aacaa2d0f628686604051610dec929190611d86565b60405180910390a450505050565b5f60015f8473ffffffffffffffffffffffffffffffffffffffff1673ffffffffffffffffffffffffffffffffffffffff1681526020019081526020015f205f8373ffffffffffffffffffffffffffffffffffffffff1673ffffffffffffffffffffffffffffffffffffffff1681526020019081526020015f205f9054906101000a900460ff16905092915050565b853373ffffffffffffffffffffffffffffffffffffffff168173ffffffffffffffffffffffffffffffffffffffff161480610f44575060015f8273ffffffffffffffffffffffffffffffffffffffff1673ffffffffffffffffffffffffffffffffffffffff1681526020019081526020015f205f3373ffffffffffffffffffffffffffffffffffffffff1673ffffffffffffffffffffffffffffffffffffffff1681526020019081526020015f205f9054906101000a900460ff165b610f83576040517f08c379a0000000000000000000000000000000000000000000000000000000008152600401610f7a90611c6d565b60405180910390fd5b828290508585905014610fcb576040517f08c379a0000000000000000000000000000000000000000000000000000000008152600401610fc290611df7565b60405180910390fd5b5f73ffffffffffffffffffffffffffffffffffffffff168673ffffffffffffffffffffffffffffffffffffffff1603611039576040517f08c379a000000000000000000000000000000000000000000000000000000000815260040161103090611ba8565b60405180910390fd5b5f5f90505b858590508110156111e7575f86868381811061105d5761105c611e15565b5b9050602002013590505f85858481811061107a57611079611e15565b5b9050602002013590505f5f5f8481526020019081526020015f205f8c73ffffffffffffffffffffffffffffffffffffffff1673ffffffffffffffffffffffffffffffffffffffff1681526020019081526020015f2054905081811015611115576040517f08c379a000000000000000000000000000000000000000000000000000000000815260040161110c90611cd5565b60405180910390fd5b815f5f8581526020019081526020015f205f8d73ffffffffffffffffffffffffffffffffffffffff1673ffffffffffffffffffffffffffffffffffffffff1681526020019081526020015f205f82825461116f9190611d20565b92505081905550815f5f8581526020019081526020015f205f8c73ffffffffffffffffffffffffffffffffffffffff1673ffffffffffffffffffffffffffffffffffffffff1681526020019081526020015f205f8282546111d09190611d53565b92505081905550505050808060010191505061103e565b508573ffffffffffffffffffffffffffffffffffffffff168773ffffffffffffffffffffffffffffffffffffffff163373ffffffffffffffffffffffffffffffffffffffff167f4a39dc06d4c0dbc64b70af90fd698a233a518aa5d07e595d983b8c0526c8f7fb888888886040516112629493929190612270565b60405180910390a450505050505050565b5f604051905090565b5f5ffd5b5f5ffd5b5f73ffffffffffffffffffffffffffffffffffffffff82169050919050565b5f6112ad82611284565b9050919050565b6112bd816112a3565b81146112c7575f5ffd5b50565b5f813590506112d8816112b4565b92915050565b5f819050919050565b6112f0816112de565b81146112fa575f5ffd5b50565b5f8135905061130b816112e7565b92915050565b5f5f604083850312156113275761132661127c565b5b5f611334858286016112ca565b9250506020611345858286016112fd565b9150509250929050565b611358816112de565b82525050565b5f6020820190506113715f83018461134f565b92915050565b5f7fffffffff0000000000000000000000000000000000000000000000000000000082169050919050565b6113ab81611377565b81146113b5575f5ffd5b50565b5f813590506113c6816113a2565b92915050565b5f602082840312156113e1576113e061127c565b5b5f6113ee848285016113b8565b91505092915050565b5f8115159050919050565b61140b816113f7565b82525050565b5f6020820190506114245f830184611402565b92915050565b5f6020828403121561143f5761143e61127c565b5b5f61144c848285016112fd565b91505092915050565b5f81519050919050565b5f82825260208201905092915050565b8281835e5f83830152505050565b5f601f19601f8301169050919050565b5f61149782611455565b6114a1818561145f565b93506114b181856020860161146f565b6114ba8161147d565b840191505092915050565b5f6020820190508181035f8301526114dd818461148d565b905092915050565b5f5f5f5f608085870312156114fd576114fc61127c565b5b5f61150a878288016112ca565b945050602061151b878288016112ca565b935050604061152c878288016112fd565b925050606061153d878288016112fd565b91505092959194509250565b5f5ffd5b5f5ffd5b5f5ffd5b5f5f83601f84011261156a57611569611549565b5b8235905067ffffffffffffffff8111156115875761158661154d565b5b6020830191508360208202830111156115a3576115a2611551565b5b9250929050565b5f5f83601f8401126115bf576115be611549565b5b8235905067ffffffffffffffff8111156115dc576115db61154d565b5b6020830191508360208202830111156115f8576115f7611551565b5b9250929050565b5f5f5f5f604085870312156116175761161661127c565b5b5f85013567ffffffffffffffff81111561163457611633611280565b5b61164087828801611555565b9450945050602085013567ffffffffffffffff81111561166357611662611280565b5b61166f878288016115aa565b925092505092959194509250565b5f81519050919050565b5f82825260208201905092915050565b5f819050602082019050919050565b6116af816112de565b82525050565b5f6116c083836116a6565b60208301905092915050565b5f602082019050919050565b5f6116e28261167d565b6116ec8185611687565b93506116f783611697565b805f5b8381101561172757815161170e88826116b5565b9750611719836116cc565b9250506001810190506116fa565b5085935050505092915050565b5f6020820190508181035f83015261174c81846116d8565b905092915050565b61175d816113f7565b8114611767575f5ffd5b50565b5f8135905061177881611754565b92915050565b5f5f604083850312156117945761179361127c565b5b5f6117a1858286016112ca565b92505060206117b28582860161176a565b9150509250929050565b5f5f83601f8401126117d1576117d0611549565b5b8235905067ffffffffffffffff8111156117ee576117ed61154d565b5b60208301915083602082028301111561180a57611809611551565b5b9250929050565b5f5f5f5f5f5f5f6080888a03121561182c5761182b61127c565b5b5f6118398a828b016112ca565b975050602088013567ffffffffffffffff81111561185a57611859611280565b5b6118668a828b016115aa565b9650965050604088013567ffffffffffffffff81111561188957611888611280565b5b6118958a828b016115aa565b9450945050606088013567ffffffffffffffff8111156118b8576118b7611280565b5b6118c48a828b016117bc565b925092505092959891949750929550565b5f5ffd5b7f4e487b71000000000000000000000000000000000000000000000000000000005f52604160045260245ffd5b61190f8261147d565b810181811067ffffffffffffffff8211171561192e5761192d6118d9565b5b80604052505050565b5f611940611273565b905061194c8282611906565b919050565b5f67ffffffffffffffff82111561196b5761196a6118d9565b5b6119748261147d565b9050602081019050919050565b828183375f83830152505050565b5f6119a161199c84611951565b611937565b9050828152602081018484840111156119bd576119bc6118d5565b5b6119c8848285611981565b509392505050565b5f82601f8301126119e4576119e3611549565b5b81356119f484826020860161198f565b91505092915050565b5f5f5f5f60808587031215611a1557611a1461127c565b5b5f611a22878288016112ca565b9450506020611a33878288016112fd565b9350506040611a44878288016112fd565b925050606085013567ffffffffffffffff811115611a6557611a64611280565b5b611a71878288016119d0565b91505092959194509250565b5f5f60408385031215611a9357611a9261127c565b5b5f611aa0858286016112ca565b9250506020611ab1858286016112ca565b9150509250929050565b5f5f5f5f5f5f60808789031215611ad557611ad461127c565b5b5f611ae289828a016112ca565b9650506020611af389828a016112ca565b955050604087013567ffffffffffffffff811115611b1457611b13611280565b5b611b2089828a016115aa565b9450945050606087013567ffffffffffffffff811115611b4357611b42611280565b5b611b4f89828a016115aa565b92509250509295509295509295565b7f5a65726f206164647265737300000000000000000000000000000000000000005f82015250565b5f611b92600c8361145f565b9150611b9d82611b5e565b602082019050919050565b5f6020820190508181035f830152611bbf81611b86565b9050919050565b7f4e487b71000000000000000000000000000000000000000000000000000000005f52602260045260245ffd5b5f6002820490506001821680611c0a57607f821691505b602082108103611c1d57611c1c611bc6565b5b50919050565b7f4e6f7420617574686f72697a65640000000000000000000000000000000000005f82015250565b5f611c57600e8361145f565b9150611c6282611c23565b602082019050919050565b5f6020820190508181035f830152611c8481611c4b565b9050919050565b7f496e73756666696369656e742062616c616e63650000000000000000000000005f82015250565b5f611cbf60148361145f565b9150611cca82611c8b565b602082019050919050565b5f6020820190508181035f830152611cec81611cb3565b9050919050565b7f4e487b71000000000000000000000000000000000000000000000000000000005f52601160045260245ffd5b5f611d2a826112de565b9150611d35836112de565b9250828203905081811115611d4d57611d4c611cf3565b5b92915050565b5f611d5d826112de565b9150611d68836112de565b9250828201905080821115611d8057611d7f611cf3565b5b92915050565b5f604082019050611d995f83018561134f565b611da6602083018461134f565b9392505050565b7f4d69736d617463686564206172726179730000000000000000000000000000005f82015250565b5f611de160118361145f565b9150611dec82611dad565b602082019050919050565b5f6020820190508181035f830152611e0e81611dd5565b9050919050565b7f4e487b71000000000000000000000000000000000000000000000000000000005f52603260045260245ffd5b5f60208284031215611e5757611e5661127c565b5b5f611e64848285016112ca565b91505092915050565b7f4d69736d61746368656420696e707574730000000000000000000000000000005f82015250565b5f611ea160118361145f565b9150611eac82611e6d565b602082019050919050565b5f6020820190508181035f830152611ece81611e95565b9050919050565b5f5ffd5b5f5ffd5b5f5ffd5b5f5f83356001602003843603038112611efd57611efc611ed5565b5b80840192508235915067ffffffffffffffff821115611f1f57611f1e611ed9565b5b602083019250600182023603831315611f3b57611f3a611edd565b5b509250929050565b5f82905092915050565b5f819050815f5260205f209050919050565b5f6020601f8301049050919050565b5f82821b905092915050565b5f60088302611fa97fffffffffffffffffffffffffffffffffffffffffffffffffffffffffffffffff82611f6e565b611fb38683611f6e565b95508019841693508086168417925050509392505050565b5f819050919050565b5f611fee611fe9611fe4846112de565b611fcb565b6112de565b9050919050565b5f819050919050565b61200783611fd4565b61201b61201382611ff5565b848454611f7a565b825550505050565b5f5f905090565b612032612023565b61203d818484611ffe565b505050565b5b81811015612060576120555f8261202a565b600181019050612043565b5050565b601f8211156120a55761207681611f4d565b61207f84611f5f565b8101602085101561208e578190505b6120a261209a85611f5f565b830182612042565b50505b505050565b5f82821c905092915050565b5f6120c55f19846008026120aa565b1980831691505092915050565b5f6120dd83836120b6565b9150826002028217905092915050565b6120f78383611f43565b67ffffffffffffffff8111156121105761210f6118d9565b5b61211a8254611bf3565b612125828285612064565b5f601f831160018114612152575f8415612140578287013590505b61214a85826120d2565b8655506121b1565b601f19841661216086611f4d565b5f5b8281101561218757848901358255600182019150602085019450602081019050612162565b868310156121a457848901356121a0601f8916826120b6565b8355505b6001600288020188555050505b50505050505050565b5f6121c5838561145f565b93506121d2838584611981565b6121db8361147d565b840190509392505050565b5f6020820190508181035f8301526121ff8184866121ba565b90509392505050565b5f5ffd5b82818337505050565b5f6122208385611687565b93507f07ffffffffffffffffffffffffffffffffffffffffffffffffffffffffffffff83111561225357612252612208565b5b60208302925061226483858461220c565b82840190509392505050565b5f6040820190508181035f830152612289818688612215565b9050818103602083015261229e818486612215565b905095945050505050565b6122b282611455565b67ffffffffffffffff8111156122cb576122ca6118d9565b5b6122d58254611bf3565b6122e0828285612064565b5f60209050601f831160018114612311575f84156122ff578287015190505b61230985826120d2565b865550612370565b601f19841661231f86611f4d565b5f5b8281101561234657848901518255600182019150602085019450602081019050612321565b86831015612363578489015161235f601f8916826120b6565b8355505b6001600288020188555050505b50505050505056fea2646970667358221220dd880c7f33ddfcc11fae0069ef248bcf3c43166f23b92c4d1b5973ee8db6f7da64736f6c634300081e0033",
			"opcodes": "PUSH1 0x80 PUSH1 0x40 MSTORE CALLVALUE DUP1 ISZERO PUSH1 0xE JUMPI PUSH0 PUSH0 REVERT JUMPDEST POP PUSH2 0x23AE DUP1 PUSH2 0x1C PUSH0 CODECOPY PUSH0 RETURN INVALID PUSH1 0x80 PUSH1 0x40 MSTORE CALLVALUE DUP1 ISZERO PUSH2 0xF JUMPI PUSH0 PUSH0 REVERT JUMPDEST POP PUSH1 0x4 CALLDATASIZE LT PUSH2 0x9B JUMPI PUSH0 CALLDATALOAD PUSH1 0xE0 SHR DUP1 PUSH4 0xA22CB465 GT PUSH2 0x64 JUMPI DUP1 PUSH4 0xA22CB465 EQ PUSH2 0x17B JUMPI DUP1 PUSH4 0xA55784EF EQ PUSH2 0x197 JUMPI DUP1 PUSH4 0xBB7FDE71 EQ PUSH2 0x1B3 JUMPI DUP1 PUSH4 0xE985E9C5 EQ PUSH2 0x1CF JUMPI DUP1 PUSH4 0xFBA0EE64 EQ PUSH2 0x1FF JUMPI PUSH2 0x9B JUMP JUMPDEST DUP1 PUSH3 0xFDD58E EQ PUSH2 0x9F JUMPI DUP1 PUSH4 0x1FFC9A7 EQ PUSH2 0xCF JUMPI DUP1 PUSH4 0xE89341C EQ PUSH2 0xFF JUMPI DUP1 PUSH4 0xFEBDD49 EQ PUSH2 0x12F JUMPI DUP1 PUSH4 0x4E1273F4 EQ PUSH2 0x14B JUMPI JUMPDEST PUSH0 PUSH0 REVERT JUMPDEST PUSH2 0xB9 PUSH1 0x4 DUP1 CALLDATASIZE SUB DUP2 ADD SWAP1 PUSH2 0xB4 SWAP2 SWAP1 PUSH2 0x1311 JUMP JUMPDEST PUSH2 0x21B JUMP JUMPDEST PUSH1 0x40 MLOAD PUSH2 0xC6 SWAP2 SWAP1 PUSH2 0x135E JUMP JUMPDEST PUSH1 0x40 MLOAD DUP1 SWAP2 SUB SWAP1 RETURN JUMPDEST PUSH2 0xE9 PUSH1 0x4 DUP1 CALLDATASIZE SUB DUP2 ADD SWAP1 PUSH2 0xE4 SWAP2 SWAP1 PUSH2 0x13CC JUMP JUMPDEST PUSH2 0x2DE JUMP JUMPDEST PUSH1 0x40 MLOAD PUSH2 0xF6 SWAP2 SWAP1 PUSH2 0x1411 JUMP JUMPDEST PUSH1 0x40 MLOAD DUP1 SWAP2 SUB SWAP1 RETURN JUMPDEST PUSH2 0x119 PUSH1 0x4 DUP1 CALLDATASIZE SUB DUP2 ADD SWAP1 PUSH2 0x114 SWAP2 SWAP1 PUSH2 0x142A JUMP JUMPDEST PUSH2 0x30F JUMP JUMPDEST PUSH1 0x40 MLOAD PUSH2 0x126 SWAP2 SWAP1 PUSH2 0x14C5 JUMP JUMPDEST PUSH1 0x40 MLOAD DUP1 SWAP2 SUB SWAP1 RETURN JUMPDEST PUSH2 0x149 PUSH1 0x4 DUP1 CALLDATASIZE SUB DUP2 ADD SWAP1 PUSH2 0x144 SWAP2 SWAP1 PUSH2 0x14E5 JUMP JUMPDEST PUSH2 0x3B0 JUMP JUMPDEST STOP JUMPDEST PUSH2 0x165 PUSH1 0x4 DUP1 CALLDATASIZE SUB DUP2 ADD SWAP1 PUSH2 0x160 SWAP2 SWAP1 PUSH2 0x15FF JUMP JUMPDEST PUSH2 0x6F3 JUMP JUMPDEST PUSH1 0x40 MLOAD PUSH2 0x172 SWAP2 SWAP1 PUSH2 0x1734 JUMP JUMPDEST PUSH1 0x40 MLOAD DUP1 SWAP2 SUB SWAP1 RETURN JUMPDEST PUSH2 0x195 PUSH1 0x4 DUP1 CALLDATASIZE SUB DUP2 ADD SWAP1 PUSH2 0x190 SWAP2 SWAP1 PUSH2 0x177E JUMP JUMPDEST PUSH2 0x81F JUMP JUMPDEST STOP JUMPDEST PUSH2 0x1B1 PUSH1 0x4 DUP1 CALLDATASIZE SUB DUP2 ADD SWAP1 PUSH2 0x1AC SWAP2 SWAP1 PUSH2 0x1811 JUMP JUMPDEST PUSH2 0x917 JUMP JUMPDEST STOP JUMPDEST PUSH2 0x1CD PUSH1 0x4 DUP1 CALLDATASIZE SUB DUP2 ADD SWAP1 PUSH2 0x1C8 SWAP2 SWAP1 PUSH2 0x19FD JUMP JUMPDEST PUSH2 0xC2B JUMP JUMPDEST STOP JUMPDEST PUSH2 0x1E9 PUSH1 0x4 DUP1 CALLDATASIZE SUB DUP2 ADD SWAP1 PUSH2 0x1E4 SWAP2 SWAP1 PUSH2 0x1A7D JUMP JUMPDEST PUSH2 0xDFA JUMP JUMPDEST PUSH1 0x40 MLOAD PUSH2 0x1F6 SWAP2 SWAP1 PUSH2 0x1411 JUMP JUMPDEST PUSH1 0x40 MLOAD DUP1 SWAP2 SUB SWAP1 RETURN JUMPDEST PUSH2 0x219 PUSH1 0x4 DUP1 CALLDATASIZE SUB DUP2 ADD SWAP1 PUSH2 0x214 SWAP2 SWAP1 PUSH2 0x1ABB JUMP JUMPDEST PUSH2 0xE88 JUMP JUMPDEST STOP JUMPDEST PUSH0 PUSH0 PUSH20 0xFFFFFFFFFFFFFFFFFFFFFFFFFFFFFFFFFFFFFFFF AND DUP4 PUSH20 0xFFFFFFFFFFFFFFFFFFFFFFFFFFFFFFFFFFFFFFFF AND SUB PUSH2 0x28A JUMPI PUSH1 0x40 MLOAD PUSH32 0x8C379A000000000000000000000000000000000000000000000000000000000 DUP2 MSTORE PUSH1 0x4 ADD PUSH2 0x281 SWAP1 PUSH2 0x1BA8 JUMP JUMPDEST PUSH1 0x40 MLOAD DUP1 SWAP2 SUB SWAP1 REVERT JUMPDEST PUSH0 PUSH0 DUP4 DUP2 MSTORE PUSH1 0x20 ADD SWAP1 DUP2 MSTORE PUSH1 0x20 ADD PUSH0 KECCAK256 PUSH0 DUP5 PUSH20 0xFFFFFFFFFFFFFFFFFFFFFFFFFFFFFFFFFFFFFFFF AND PUSH20 0xFFFFFFFFFFFFFFFFFFFFFFFFFFFFFFFFFFFFFFFF AND DUP2 MSTORE PUSH1 0x20 ADD SWAP1 DUP2 MSTORE PUSH1 0x20 ADD PUSH0 KECCAK256 SLOAD SWAP1 POP SWAP3 SWAP2 POP POP JUMP JUMPDEST PUSH0 PUSH4 0xD9B67A26 PUSH1 0xE0 SHL DUP3 PUSH28 0xFFFFFFFFFFFFFFFFFFFFFFFFFFFFFFFFFFFFFFFFFFFFFFFFFFFFFFFF NOT AND EQ SWAP1 POP SWAP2 SWAP1 POP JUMP JUMPDEST PUSH1 0x60 PUSH1 0x2 PUSH0 DUP4 DUP2 MSTORE PUSH1 0x20 ADD SWAP1 DUP2 MSTORE PUSH1 0x20 ADD PUSH0 KECCAK256 DUP1 SLOAD PUSH2 0x32D SWAP1 PUSH2 0x1BF3 JUMP JUMPDEST DUP1 PUSH1 0x1F ADD PUSH1 0x20 DUP1 SWAP2 DIV MUL PUSH1 0x20 ADD PUSH1 0x40 MLOAD SWAP1 DUP2 ADD PUSH1 0x40 MSTORE DUP1 SWAP3 SWAP2 SWAP1 DUP2 DUP2 MSTORE PUSH1 0x20 ADD DUP3 DUP1 SLOAD PUSH2 0x359 SWAP1 PUSH2 0x1BF3 JUMP JUMPDEST DUP1 ISZERO PUSH2 0x3A4 JUMPI DUP1 PUSH1 0x1F LT PUSH2 0x37B JUMPI PUSH2 0x100 DUP1 DUP4 SLOAD DIV MUL DUP4 MSTORE SWAP2 PUSH1 0x20 ADD SWAP2 PUSH2 0x3A4 JUMP JUMPDEST DUP3 ADD SWAP2 SWAP1 PUSH0 MSTORE PUSH1 0x20 PUSH0 KECCAK256 SWAP1 JUMPDEST DUP2 SLOAD DUP2 MSTORE SWAP1 PUSH1 0x1 ADD SWAP1 PUSH1 0x20 ADD DUP1 DUP4 GT PUSH2 0x387 JUMPI DUP3 SWAP1 SUB PUSH1 0x1F AND DUP3 ADD SWAP2 JUMPDEST POP POP POP POP POP SWAP1 POP SWAP2 SWAP1 POP JUMP JUMPDEST DUP4 CALLER PUSH20 0xFFFFFFFFFFFFFFFFFFFFFFFFFFFFFFFFFFFFFFFF AND DUP2 PUSH20 0xFFFFFFFFFFFFFFFFFFFFFFFFFFFFFFFFFFFFFFFF AND EQ DUP1 PUSH2 0x46C JUMPI POP PUSH1 0x1 PUSH0 DUP3 PUSH20 0xFFFFFFFFFFFFFFFFFFFFFFFFFFFFFFFFFFFFFFFF AND PUSH20 0xFFFFFFFFFFFFFFFFFFFFFFFFFFFFFFFFFFFFFFFF AND DUP2 MSTORE PUSH1 0x20 ADD SWAP1 DUP2 MSTORE PUSH1 0x20 ADD PUSH0 KECCAK256 PUSH0 CALLER PUSH20 0xFFFFFFFFFFFFFFFFFFFFFFFFFFFFFFFFFFFFFFFF AND PUSH20 0xFFFFFFFFFFFFFFFFFFFFFFFFFFFFFFFFFFFFFFFF AND DUP2 MSTORE PUSH1 0x20 ADD SWAP1 DUP2 MSTORE PUSH1 0x20 ADD PUSH0 KECCAK256 PUSH0 SWAP1 SLOAD SWAP1 PUSH2 0x100 EXP SWAP1 DIV PUSH1 0xFF AND JUMPDEST PUSH2 0x4AB JUMPI PUSH1 0x40 MLOAD PUSH32 0x8C379A000000000000000000000000000000000000000000000000000000000 DUP2 MSTORE PUSH1 0x4 ADD PUSH2 0x4A2 SWAP1 PUSH2 0x1C6D JUMP JUMPDEST PUSH1 0x40 MLOAD DUP1 SWAP2 SUB SWAP1 REVERT JUMPDEST PUSH0 PUSH20 0xFFFFFFFFFFFFFFFFFFFFFFFFFFFFFFFFFFFFFFFF AND DUP5 PUSH20 0xFFFFFFFFFFFFFFFFFFFFFFFFFFFFFFFFFFFFFFFF AND SUB PUSH2 0x519 JUMPI PUSH1 0x40 MLOAD PUSH32 0x8C379A000000000000000000000000000000000000000000000000000000000 DUP2 MSTORE PUSH1 0x4 ADD PUSH2 0x510 SWAP1 PUSH2 0x1BA8 JUMP JUMPDEST PUSH1 0x40 MLOAD DUP1 SWAP2 SUB SWAP1 REVERT JUMPDEST PUSH0 PUSH0 PUSH0 DUP6 DUP2 MSTORE PUSH1 0x20 ADD SWAP1 DUP2 MSTORE PUSH1 0x20 ADD PUSH0 KECCAK256 PUSH0 DUP8 PUSH20 0xFFFFFFFFFFFFFFFFFFFFFFFFFFFFFFFFFFFFFFFF AND PUSH20 0xFFFFFFFFFFFFFFFFFFFFFFFFFFFFFFFFFFFFFFFF AND DUP2 MSTORE PUSH1 0x20 ADD SWAP1 DUP2 MSTORE PUSH1 0x20 ADD PUSH0 KECCAK256 SLOAD SWAP1 POP DUP3 DUP2 LT ISZERO PUSH2 0x5AB JUMPI PUSH1 0x40 MLOAD PUSH32 0x8C379A000000000000000000000000000000000000000000000000000000000 DUP2 MSTORE PUSH1 0x4 ADD PUSH2 0x5A2 SWAP1 PUSH2 0x1CD5 JUMP JUMPDEST PUSH1 0x40 MLOAD DUP1 SWAP2 SUB SWAP1 REVERT JUMPDEST DUP3 PUSH0 PUSH0 DUP7 DUP2 MSTORE PUSH1 0x20 ADD SWAP1 DUP2 MSTORE PUSH1 0x20 ADD PUSH0 KECCAK256 PUSH0 DUP9 PUSH20 0xFFFFFFFFFFFFFFFFFFFFFFFFFFFFFFFFFFFFFFFF AND PUSH20 0xFFFFFFFFFFFFFFFFFFFFFFFFFFFFFFFFFFFFFFFF AND DUP2 MSTORE PUSH1 0x20 ADD SWAP1 DUP2 MSTORE PUSH1 0x20 ADD PUSH0 KECCAK256 PUSH0 DUP3 DUP3 SLOAD PUSH2 0x605 SWAP2 SWAP1 PUSH2 0x1D20 JUMP JUMPDEST SWAP3 POP POP DUP2 SWAP1 SSTORE POP DUP3 PUSH0 PUSH0 DUP7 DUP2 MSTORE PUSH1 0x20 ADD SWAP1 DUP2 MSTORE PUSH1 0x20 ADD PUSH0 KECCAK256 PUSH0 DUP8 PUSH20 0xFFFFFFFFFFFFFFFFFFFFFFFFFFFFFFFFFFFFFFFF AND PUSH20 0xFFFFFFFFFFFFFFFFFFFFFFFFFFFFFFFFFFFFFFFF AND DUP2 MSTORE PUSH1 0x20 ADD SWAP1 DUP2 MSTORE PUSH1 0x20 ADD PUSH0 KECCAK256 PUSH0 DUP3 DUP3 SLOAD PUSH2 0x666 SWAP2 SWAP1 PUSH2 0x1D53 JUMP JUMPDEST SWAP3 POP POP DUP2 SWAP1 SSTORE POP DUP5 PUSH20 0xFFFFFFFFFFFFFFFFFFFFFFFFFFFFFFFFFFFFFFFF AND DUP7 PUSH20 0xFFFFFFFFFFFFFFFFFFFFFFFFFFFFFFFFFFFFFFFF AND CALLER PUSH20 0xFFFFFFFFFFFFFFFFFFFFFFFFFFFFFFFFFFFFFFFF AND PUSH32 0xC3D58168C5AE7397731D063D5BBF3D657854427343F4C083240F7AACAA2D0F62 DUP8 DUP8 PUSH1 0x40 MLOAD PUSH2 0x6E3 SWAP3 SWAP2 SWAP1 PUSH2 0x1D86 JUMP JUMPDEST PUSH1 0x40 MLOAD DUP1 SWAP2 SUB SWAP1 LOG4 POP POP POP POP POP POP JUMP JUMPDEST PUSH1 0x60 DUP3 DUP3 SWAP1 POP DUP6 DUP6 SWAP1 POP EQ PUSH2 0x73D JUMPI PUSH1 0x40 MLOAD PUSH32 0x8C379A000000000000000000000000000000000000000000000000000000000 DUP2 MSTORE PUSH1 0x4 ADD PUSH2 0x734 SWAP1 PUSH2 0x1DF7 JUMP JUMPDEST PUSH1 0x40 MLOAD DUP1 SWAP2 SUB SWAP1 REVERT JUMPDEST PUSH0 DUP6 DUP6 SWAP1 POP PUSH8 0xFFFFFFFFFFFFFFFF DUP2 GT ISZERO PUSH2 0x75B JUMPI PUSH2 0x75A PUSH2 0x18D9 JUMP JUMPDEST JUMPDEST PUSH1 0x40 MLOAD SWAP1 DUP1 DUP3 MSTORE DUP1 PUSH1 0x20 MUL PUSH1 0x20 ADD DUP3 ADD PUSH1 0x40 MSTORE DUP1 ISZERO PUSH2 0x789 JUMPI DUP2 PUSH1 0x20 ADD PUSH1 0x20 DUP3 MUL DUP1 CALLDATASIZE DUP4 CALLDATACOPY DUP1 DUP3 ADD SWAP2 POP POP SWAP1 POP JUMPDEST POP SWAP1 POP PUSH0 PUSH0 SWAP1 POP JUMPDEST DUP7 DUP7 SWAP1 POP DUP2 LT ISZERO PUSH2 0x812 JUMPI PUSH2 0x7E6 DUP8 DUP8 DUP4 DUP2 DUP2 LT PUSH2 0x7B2 JUMPI PUSH2 0x7B1 PUSH2 0x1E15 JUMP JUMPDEST JUMPDEST SWAP1 POP PUSH1 0x20 MUL ADD PUSH1 0x20 DUP2 ADD SWAP1 PUSH2 0x7C7 SWAP2 SWAP1 PUSH2 0x1E42 JUMP JUMPDEST DUP7 DUP7 DUP5 DUP2 DUP2 LT PUSH2 0x7DA JUMPI PUSH2 0x7D9 PUSH2 0x1E15 JUMP JUMPDEST JUMPDEST SWAP1 POP PUSH1 0x20 MUL ADD CALLDATALOAD PUSH2 0x21B JUMP JUMPDEST DUP3 DUP3 DUP2 MLOAD DUP2 LT PUSH2 0x7F9 JUMPI PUSH2 0x7F8 PUSH2 0x1E15 JUMP JUMPDEST JUMPDEST PUSH1 0x20 MUL PUSH1 0x20 ADD ADD DUP2 DUP2 MSTORE POP POP DUP1 DUP1 PUSH1 0x1 ADD SWAP2 POP POP PUSH2 0x791 JUMP JUMPDEST POP DUP1 SWAP2 POP POP SWAP5 SWAP4 POP POP POP POP JUMP JUMPDEST DUP1 PUSH1 0x1 PUSH0 CALLER PUSH20 0xFFFFFFFFFFFFFFFFFFFFFFFFFFFFFFFFFFFFFFFF AND PUSH20 0xFFFFFFFFFFFFFFFFFFFFFFFFFFFFFFFFFFFFFFFF AND DUP2 MSTORE PUSH1 0x20 ADD SWAP1 DUP2 MSTORE PUSH1 0x20 ADD PUSH0 KECCAK256 PUSH0 DUP5 PUSH20 0xFFFFFFFFFFFFFFFFFFFFFFFFFFFFFFFFFFFFFFFF AND PUSH20 0xFFFFFFFFFFFFFFFFFFFFFFFFFFFFFFFFFFFFFFFF AND DUP2 MSTORE PUSH1 0x20 ADD SWAP1 DUP2 MSTORE PUSH1 0x20 ADD PUSH0 KECCAK256 PUSH0 PUSH2 0x100 EXP DUP2 SLOAD DUP2 PUSH1 0xFF MUL NOT AND SWAP1 DUP4 ISZERO ISZERO MUL OR SWAP1 SSTORE POP DUP2 PUSH20 0xFFFFFFFFFFFFFFFFFFFFFFFFFFFFFFFFFFFFFFFF AND CALLER PUSH20 0xFFFFFFFFFFFFFFFFFFFFFFFFFFFFFFFFFFFFFFFF AND PUSH32 0x17307EAB39AB6107E8899845AD3D59BD9653F200F220920489CA2B5937696C31 DUP4 PUSH1 0x40 MLOAD PUSH2 0x90B SWAP2 SWAP1 PUSH2 0x1411 JUMP JUMPDEST PUSH1 0x40 MLOAD DUP1 SWAP2 SUB SWAP1 LOG3 POP POP JUMP JUMPDEST PUSH0 PUSH20 0xFFFFFFFFFFFFFFFFFFFFFFFFFFFFFFFFFFFFFFFF AND DUP8 PUSH20 0xFFFFFFFFFFFFFFFFFFFFFFFFFFFFFFFFFFFFFFFF AND SUB PUSH2 0x985 JUMPI PUSH1 0x40 MLOAD PUSH32 0x8C379A000000000000000000000000000000000000000000000000000000000 DUP2 MSTORE PUSH1 0x4 ADD PUSH2 0x97C SWAP1 PUSH2 0x1BA8 JUMP JUMPDEST PUSH1 0x40 MLOAD DUP1 SWAP2 SUB SWAP1 REVERT JUMPDEST DUP4 DUP4 SWAP1 POP DUP7 DUP7 SWAP1 POP EQ DUP1 ISZERO PUSH2 0x99F JUMPI POP DUP2 DUP2 SWAP1 POP DUP7 DUP7 SWAP1 POP EQ JUMPDEST PUSH2 0x9DE JUMPI PUSH1 0x40 MLOAD PUSH32 0x8C379A000000000000000000000000000000000000000000000000000000000 DUP2 MSTORE PUSH1 0x4 ADD PUSH2 0x9D5 SWAP1 PUSH2 0x1EB7 JUMP JUMPDEST PUSH1 0x40 MLOAD DUP1 SWAP2 SUB SWAP1 REVERT JUMPDEST PUSH0 PUSH0 SWAP1 POP JUMPDEST DUP7 DUP7 SWAP1 POP DUP2 LT ISZERO PUSH2 0xB9F JUMPI DUP5 DUP5 DUP3 DUP2 DUP2 LT PUSH2 0xA01 JUMPI PUSH2 0xA00 PUSH2 0x1E15 JUMP JUMPDEST JUMPDEST SWAP1 POP PUSH1 0x20 MUL ADD CALLDATALOAD PUSH0 PUSH0 DUP10 DUP10 DUP6 DUP2 DUP2 LT PUSH2 0xA1D JUMPI PUSH2 0xA1C PUSH2 0x1E15 JUMP JUMPDEST JUMPDEST SWAP1 POP PUSH1 0x20 MUL ADD CALLDATALOAD DUP2 MSTORE PUSH1 0x20 ADD SWAP1 DUP2 MSTORE PUSH1 0x20 ADD PUSH0 KECCAK256 PUSH0 DUP11 PUSH20 0xFFFFFFFFFFFFFFFFFFFFFFFFFFFFFFFFFFFFFFFF AND PUSH20 0xFFFFFFFFFFFFFFFFFFFFFFFFFFFFFFFFFFFFFFFF AND DUP2 MSTORE PUSH1 0x20 ADD SWAP1 DUP2 MSTORE PUSH1 0x20 ADD PUSH0 KECCAK256 PUSH0 DUP3 DUP3 SLOAD PUSH2 0xA7A SWAP2 SWAP1 PUSH2 0x1D53 JUMP JUMPDEST SWAP3 POP POP DUP2 SWAP1 SSTORE POP PUSH0 PUSH1 0x2 PUSH0 DUP10 DUP10 DUP6 DUP2 DUP2 LT PUSH2 0xA98 JUMPI PUSH2 0xA97 PUSH2 0x1E15 JUMP JUMPDEST JUMPDEST SWAP1 POP PUSH1 0x20 MUL ADD CALLDATALOAD DUP2 MSTORE PUSH1 0x20 ADD SWAP1 DUP2 MSTORE PUSH1 0x20 ADD PUSH0 KECCAK256 DUP1 SLOAD PUSH2 0xAB7 SWAP1 PUSH2 0x1BF3 JUMP JUMPDEST SWAP1 POP SUB PUSH2 0xB92 JUMPI DUP3 DUP3 DUP3 DUP2 DUP2 LT PUSH2 0xAD1 JUMPI PUSH2 0xAD0 PUSH2 0x1E15 JUMP JUMPDEST JUMPDEST SWAP1 POP PUSH1 0x20 MUL DUP2 ADD SWAP1 PUSH2 0xAE3 SWAP2 SWAP1 PUSH2 0x1EE1 JUMP JUMPDEST PUSH1 0x2 PUSH0 DUP11 DUP11 DUP7 DUP2 DUP2 LT PUSH2 0xAF9 JUMPI PUSH2 0xAF8 PUSH2 0x1E15 JUMP JUMPDEST JUMPDEST SWAP1 POP PUSH1 0x20 MUL ADD CALLDATALOAD DUP2 MSTORE PUSH1 0x20 ADD SWAP1 DUP2 MSTORE PUSH1 0x20 ADD PUSH0 KECCAK256 SWAP2 DUP3 PUSH2 0xB1A SWAP3 SWAP2 SWAP1 PUSH2 0x20ED JUMP JUMPDEST POP DUP7 DUP7 DUP3 DUP2 DUP2 LT PUSH2 0xB2E JUMPI PUSH2 0xB2D PUSH2 0x1E15 JUMP JUMPDEST JUMPDEST SWAP1 POP PUSH1 0x20 MUL ADD CALLDATALOAD PUSH32 0x6BB7FF708619BA0610CBA295A58592E0451DEE2622938C8755667688DAF3529B DUP5 DUP5 DUP5 DUP2 DUP2 LT PUSH2 0xB69 JUMPI PUSH2 0xB68 PUSH2 0x1E15 JUMP JUMPDEST JUMPDEST SWAP1 POP PUSH1 0x20 MUL DUP2 ADD SWAP1 PUSH2 0xB7B SWAP2 SWAP1 PUSH2 0x1EE1 JUMP JUMPDEST PUSH1 0x40 MLOAD PUSH2 0xB89 SWAP3 SWAP2 SWAP1 PUSH2 0x21E6 JUMP JUMPDEST PUSH1 0x40 MLOAD DUP1 SWAP2 SUB SWAP1 LOG2 JUMPDEST DUP1 DUP1 PUSH1 0x1 ADD SWAP2 POP POP PUSH2 0x9E3 JUMP JUMPDEST POP DUP7 PUSH20 0xFFFFFFFFFFFFFFFFFFFFFFFFFFFFFFFFFFFFFFFF AND PUSH0 PUSH20 0xFFFFFFFFFFFFFFFFFFFFFFFFFFFFFFFFFFFFFFFF AND CALLER PUSH20 0xFFFFFFFFFFFFFFFFFFFFFFFFFFFFFFFFFFFFFFFF AND PUSH32 0x4A39DC06D4C0DBC64B70AF90FD698A233A518AA5D07E595D983B8C0526C8F7FB DUP10 DUP10 DUP10 DUP10 PUSH1 0x40 MLOAD PUSH2 0xC1A SWAP5 SWAP4 SWAP3 SWAP2 SWAP1 PUSH2 0x2270 JUMP JUMPDEST PUSH1 0x40 MLOAD DUP1 SWAP2 SUB SWAP1 LOG4 POP POP POP POP POP POP POP JUMP JUMPDEST PUSH0 PUSH20 0xFFFFFFFFFFFFFFFFFFFFFFFFFFFFFFFFFFFFFFFF AND DUP5 PUSH20 0xFFFFFFFFFFFFFFFFFFFFFFFFFFFFFFFFFFFFFFFF AND SUB PUSH2 0xC99 JUMPI PUSH1 0x40 MLOAD PUSH32 0x8C379A000000000000000000000000000000000000000000000000000000000 DUP2 MSTORE PUSH1 0x4 ADD PUSH2 0xC90 SWAP1 PUSH2 0x1BA8 JUMP JUMPDEST PUSH1 0x40 MLOAD DUP1 SWAP2 SUB SWAP1 REVERT JUMPDEST DUP2 PUSH0 PUSH0 DUP6 DUP2 MSTORE PUSH1 0x20 ADD SWAP1 DUP2 MSTORE PUSH1 0x20 ADD PUSH0 KECCAK256 PUSH0 DUP7 PUSH20 0xFFFFFFFFFFFFFFFFFFFFFFFFFFFFFFFFFFFFFFFF AND PUSH20 0xFFFFFFFFFFFFFFFFFFFFFFFFFFFFFFFFFFFFFFFF AND DUP2 MSTORE PUSH1 0x20 ADD SWAP1 DUP2 MSTORE PUSH1 0x20 ADD PUSH0 KECCAK256 PUSH0 DUP3 DUP3 SLOAD PUSH2 0xCF3 SWAP2 SWAP1 PUSH2 0x1D53 JUMP JUMPDEST SWAP3 POP POP DUP2 SWAP1 SSTORE POP PUSH0 PUSH1 0x2 PUSH0 DUP6 DUP2 MSTORE PUSH1 0x20 ADD SWAP1 DUP2 MSTORE PUSH1 0x20 ADD PUSH0 KECCAK256 DUP1 SLOAD PUSH2 0xD17 SWAP1 PUSH2 0x1BF3 JUMP JUMPDEST SWAP1 POP SUB PUSH2 0xD76 JUMPI DUP1 PUSH1 0x2 PUSH0 DUP6 DUP2 MSTORE PUSH1 0x20 ADD SWAP1 DUP2 MSTORE PUSH1 0x20 ADD PUSH0 KECCAK256 SWAP1 DUP2 PUSH2 0xD3C SWAP2 SWAP1 PUSH2 0x22A9 JUMP JUMPDEST POP DUP3 PUSH32 0x6BB7FF708619BA0610CBA295A58592E0451DEE2622938C8755667688DAF3529B DUP3 PUSH1 0x40 MLOAD PUSH2 0xD6D SWAP2 SWAP1 PUSH2 0x14C5 JUMP JUMPDEST PUSH1 0x40 MLOAD DUP1 SWAP2 SUB SWAP1 LOG2 JUMPDEST DUP4 PUSH20 0xFFFFFFFFFFFFFFFFFFFFFFFFFFFFFFFFFFFFFFFF AND PUSH0 PUSH20 0xFFFFFFFFFFFFFFFFFFFFFFFFFFFFFFFFFFFFFFFF AND CALLER PUSH20 0xFFFFFFFFFFFFFFFFFFFFFFFFFFFFFFFFFFFFFFFF AND PUSH32 0xC3D58168C5AE7397731D063D5BBF3D657854427343F4C083240F7AACAA2D0F62 DUP7 DUP7 PUSH1 0x40 MLOAD PUSH2 0xDEC SWAP3 SWAP2 SWAP1 PUSH2 0x1D86 JUMP JUMPDEST PUSH1 0x40 MLOAD DUP1 SWAP2 SUB SWAP1 LOG4 POP POP POP POP JUMP JUMPDEST PUSH0 PUSH1 0x1 PUSH0 DUP5 PUSH20 0xFFFFFFFFFFFFFFFFFFFFFFFFFFFFFFFFFFFFFFFF AND PUSH20 0xFFFFFFFFFFFFFFFFFFFFFFFFFFFFFFFFFFFFFFFF AND DUP2 MSTORE PUSH1 0x20 ADD SWAP1 DUP2 MSTORE PUSH1 0x20 ADD PUSH0 KECCAK256 PUSH0 DUP4 PUSH20 0xFFFFFFFFFFFFFFFFFFFFFFFFFFFFFFFFFFFFFFFF AND PUSH20 0xFFFFFFFFFFFFFFFFFFFFFFFFFFFFFFFFFFFFFFFF AND DUP2 MSTORE PUSH1 0x20 ADD SWAP1 DUP2 MSTORE PUSH1 0x20 ADD PUSH0 KECCAK256 PUSH0 SWAP1 SLOAD SWAP1 PUSH2 0x100 EXP SWAP1 DIV PUSH1 0xFF AND SWAP1 POP SWAP3 SWAP2 POP POP JUMP JUMPDEST DUP6 CALLER PUSH20 0xFFFFFFFFFFFFFFFFFFFFFFFFFFFFFFFFFFFFFFFF AND DUP2 PUSH20 0xFFFFFFFFFFFFFFFFFFFFFFFFFFFFFFFFFFFFFFFF AND EQ DUP1 PUSH2 0xF44 JUMPI POP PUSH1 0x1 PUSH0 DUP3 PUSH20 0xFFFFFFFFFFFFFFFFFFFFFFFFFFFFFFFFFFFFFFFF AND PUSH20 0xFFFFFFFFFFFFFFFFFFFFFFFFFFFFFFFFFFFFFFFF AND DUP2 MSTORE PUSH1 0x20 ADD SWAP1 DUP2 MSTORE PUSH1 0x20 ADD PUSH0 KECCAK256 PUSH0 CALLER PUSH20 0xFFFFFFFFFFFFFFFFFFFFFFFFFFFFFFFFFFFFFFFF AND PUSH20 0xFFFFFFFFFFFFFFFFFFFFFFFFFFFFFFFFFFFFFFFF AND DUP2 MSTORE PUSH1 0x20 ADD SWAP1 DUP2 MSTORE PUSH1 0x20 ADD PUSH0 KECCAK256 PUSH0 SWAP1 SLOAD SWAP1 PUSH2 0x100 EXP SWAP1 DIV PUSH1 0xFF AND JUMPDEST PUSH2 0xF83 JUMPI PUSH1 0x40 MLOAD PUSH32 0x8C379A000000000000000000000000000000000000000000000000000000000 DUP2 MSTORE PUSH1 0x4 ADD PUSH2 0xF7A SWAP1 PUSH2 0x1C6D JUMP JUMPDEST PUSH1 0x40 MLOAD DUP1 SWAP2 SUB SWAP1 REVERT JUMPDEST DUP3 DUP3 SWAP1 POP DUP6 DUP6 SWAP1 POP EQ PUSH2 0xFCB JUMPI PUSH1 0x40 MLOAD PUSH32 0x8C379A000000000000000000000000000000000000000000000000000000000 DUP2 MSTORE PUSH1 0x4 ADD PUSH2 0xFC2 SWAP1 PUSH2 0x1DF7 JUMP JUMPDEST PUSH1 0x40 MLOAD DUP1 SWAP2 SUB SWAP1 REVERT JUMPDEST PUSH0 PUSH20 0xFFFFFFFFFFFFFFFFFFFFFFFFFFFFFFFFFFFFFFFF AND DUP7 PUSH20 0xFFFFFFFFFFFFFFFFFFFFFFFFFFFFFFFFFFFFFFFF AND SUB PUSH2 0x1039 JUMPI PUSH1 0x40 MLOAD PUSH32 0x8C379A000000000000000000000000000000000000000000000000000000000 DUP2 MSTORE PUSH1 0x4 ADD PUSH2 0x1030 SWAP1 PUSH2 0x1BA8 JUMP JUMPDEST PUSH1 0x40 MLOAD DUP1 SWAP2 SUB SWAP1 REVERT JUMPDEST PUSH0 PUSH0 SWAP1 POP JUMPDEST DUP6 DUP6 SWAP1 POP DUP2 LT ISZERO PUSH2 0x11E7 JUMPI PUSH0 DUP7 DUP7 DUP4 DUP2 DUP2 LT PUSH2 0x105D JUMPI PUSH2 0x105C PUSH2 0x1E15 JUMP JUMPDEST JUMPDEST SWAP1 POP PUSH1 0x20 MUL ADD CALLDATALOAD SWAP1 POP PUSH0 DUP6 DUP6 DUP5 DUP2 DUP2 LT PUSH2 0x107A JUMPI PUSH2 0x1079 PUSH2 0x1E15 JUMP JUMPDEST JUMPDEST SWAP1 POP PUSH1 0x20 MUL ADD CALLDATALOAD SWAP1 POP PUSH0 PUSH0 PUSH0 DUP5 DUP2 MSTORE PUSH1 0x20 ADD SWAP1 DUP2 MSTORE PUSH1 0x20 ADD PUSH0 KECCAK256 PUSH0 DUP13 PUSH20 0xFFFFFFFFFFFFFFFFFFFFFFFFFFFFFFFFFFFFFFFF AND PUSH20 0xFFFFFFFFFFFFFFFFFFFFFFFFFFFFFFFFFFFFFFFF AND DUP2 MSTORE PUSH1 0x20 ADD SWAP1 DUP2 MSTORE PUSH1 0x20 ADD PUSH0 KECCAK256 SLOAD SWAP1 POP DUP2 DUP2 LT ISZERO PUSH2 0x1115 JUMPI PUSH1 0x40 MLOAD PUSH32 0x8C379A000000000000000000000000000000000000000000000000000000000 DUP2 MSTORE PUSH1 0x4 ADD PUSH2 0x110C SWAP1 PUSH2 0x1CD5 JUMP JUMPDEST PUSH1 0x40 MLOAD DUP1 SWAP2 SUB SWAP1 REVERT JUMPDEST DUP2 PUSH0 PUSH0 DUP6 DUP2 MSTORE PUSH1 0x20 ADD SWAP1 DUP2 MSTORE PUSH1 0x20 ADD PUSH0 KECCAK256 PUSH0 DUP14 PUSH20 0xFFFFFFFFFFFFFFFFFFFFFFFFFFFFFFFFFFFFFFFF AND PUSH20 0xFFFFFFFFFFFFFFFFFFFFFFFFFFFFFFFFFFFFFFFF AND DUP2 MSTORE PUSH1 0x20 ADD SWAP1 DUP2 MSTORE PUSH1 0x20 ADD PUSH0 KECCAK256 PUSH0 DUP3 DUP3 SLOAD PUSH2 0x116F SWAP2 SWAP1 PUSH2 0x1D20 JUMP JUMPDEST SWAP3 POP POP DUP2 SWAP1 SSTORE POP DUP2 PUSH0 PUSH0 DUP6 DUP2 MSTORE PUSH1 0x20 ADD SWAP1 DUP2 MSTORE PUSH1 0x20 ADD PUSH0 KECCAK256 PUSH0 DUP13 PUSH20 0xFFFFFFFFFFFFFFFFFFFFFFFFFFFFFFFFFFFFFFFF AND PUSH20 0xFFFFFFFFFFFFFFFFFFFFFFFFFFFFFFFFFFFFFFFF AND DUP2 MSTORE PUSH1 0x20 ADD SWAP1 DUP2 MSTORE PUSH1 0x20 ADD PUSH0 KECCAK256 PUSH0 DUP3 DUP3 SLOAD PUSH2 0x11D0 SWAP2 SWAP1 PUSH2 0x1D53 JUMP JUMPDEST SWAP3 POP POP DUP2 SWAP1 SSTORE POP POP POP POP DUP1 DUP1 PUSH1 0x1 ADD SWAP2 POP POP PUSH2 0x103E JUMP JUMPDEST POP DUP6 PUSH20 0xFFFFFFFFFFFFFFFFFFFFFFFFFFFFFFFFFFFFFFFF AND DUP8 PUSH20 0xFFFFFFFFFFFFFFFFFFFFFFFFFFFFFFFFFFFFFFFF AND CALLER PUSH20 0xFFFFFFFFFFFFFFFFFFFFFFFFFFFFFFFFFFFFFFFF AND PUSH32 0x4A39DC06D4C0DBC64B70AF90FD698A233A518AA5D07E595D983B8C0526C8F7FB DUP9 DUP9 DUP9 DUP9 PUSH1 0x40 MLOAD PUSH2 0x1262 SWAP5 SWAP4 SWAP3 SWAP2 SWAP1 PUSH2 0x2270 JUMP JUMPDEST PUSH1 0x40 MLOAD DUP1 SWAP2 SUB SWAP1 LOG4 POP POP POP POP POP POP POP JUMP JUMPDEST PUSH0 PUSH1 0x40 MLOAD SWAP1 POP SWAP1 JUMP JUMPDEST PUSH0 PUSH0 REVERT JUMPDEST PUSH0 PUSH0 REVERT JUMPDEST PUSH0 PUSH20 0xFFFFFFFFFFFFFFFFFFFFFFFFFFFFFFFFFFFFFFFF DUP3 AND SWAP1 POP SWAP2 SWAP1 POP JUMP JUMPDEST PUSH0 PUSH2 0x12AD DUP3 PUSH2 0x1284 JUMP JUMPDEST SWAP1 POP SWAP2 SWAP1 POP JUMP JUMPDEST PUSH2 0x12BD DUP2 PUSH2 0x12A3 JUMP JUMPDEST DUP2 EQ PUSH2 0x12C7 JUMPI PUSH0 PUSH0 REVERT JUMPDEST POP JUMP JUMPDEST PUSH0 DUP2 CALLDATALOAD SWAP1 POP PUSH2 0x12D8 DUP2 PUSH2 0x12B4 JUMP JUMPDEST SWAP3 SWAP2 POP POP JUMP JUMPDEST PUSH0 DUP2 SWAP1 POP SWAP2 SWAP1 POP JUMP JUMPDEST PUSH2 0x12F0 DUP2 PUSH2 0x12DE JUMP JUMPDEST DUP2 EQ PUSH2 0x12FA JUMPI PUSH0 PUSH0 REVERT JUMPDEST POP JUMP JUMPDEST PUSH0 DUP2 CALLDATALOAD SWAP1 POP PUSH2 0x130B DUP2 PUSH2 0x12E7 JUMP JUMPDEST SWAP3 SWAP2 POP POP JUMP JUMPDEST PUSH0 PUSH0 PUSH1 0x40 DUP4 DUP6 SUB SLT ISZERO PUSH2 0x1327 JUMPI PUSH2 0x1326 PUSH2 0x127C JUMP JUMPDEST JUMPDEST PUSH0 PUSH2 0x1334 DUP6 DUP3 DUP7 ADD PUSH2 0x12CA JUMP JUMPDEST SWAP3 POP POP PUSH1 0x20 PUSH2 0x1345 DUP6 DUP3 DUP7 ADD PUSH2 0x12FD JUMP JUMPDEST SWAP2 POP POP SWAP3 POP SWAP3 SWAP1 POP JUMP JUMPDEST PUSH2 0x1358 DUP2 PUSH2 0x12DE JUMP JUMPDEST DUP3 MSTORE POP POP JUMP JUMPDEST PUSH0 PUSH1 0x20 DUP3 ADD SWAP1 POP PUSH2 0x1371 PUSH0 DUP4 ADD DUP5 PUSH2 0x134F JUMP JUMPDEST SWAP3 SWAP2 POP POP JUMP JUMPDEST PUSH0 PUSH32 0xFFFFFFFF00000000000000000000000000000000000000000000000000000000 DUP3 AND SWAP1 POP SWAP2 SWAP1 POP JUMP JUMPDEST PUSH2 0x13AB DUP2 PUSH2 0x1377 JUMP JUMPDEST DUP2 EQ PUSH2 0x13B5 JUMPI PUSH0 PUSH0 REVERT JUMPDEST POP JUMP JUMPDEST PUSH0 DUP2 CALLDATALOAD SWAP1 POP PUSH2 0x13C6 DUP2 PUSH2 0x13A2 JUMP JUMPDEST SWAP3 SWAP2 POP POP JUMP JUMPDEST PUSH0 PUSH1 0x20 DUP3 DUP5 SUB SLT ISZERO PUSH2 0x13E1 JUMPI PUSH2 0x13E0 PUSH2 0x127C JUMP JUMPDEST JUMPDEST PUSH0 PUSH2 0x13EE DUP5 DUP3 DUP6 ADD PUSH2 0x13B8 JUMP JUMPDEST SWAP2 POP POP SWAP3 SWAP2 POP POP JUMP JUMPDEST PUSH0 DUP2 ISZERO ISZERO SWAP1 POP SWAP2 SWAP1 POP JUMP JUMPDEST PUSH2 0x140B DUP2 PUSH2 0x13F7 JUMP JUMPDEST DUP3 MSTORE POP POP JUMP JUMPDEST PUSH0 PUSH1 0x20 DUP3 ADD SWAP1 POP PUSH2 0x1424 PUSH0 DUP4 ADD DUP5 PUSH2 0x1402 JUMP JUMPDEST SWAP3 SWAP2 POP POP JUMP JUMPDEST PUSH0 PUSH1 0x20 DUP3 DUP5 SUB SLT ISZERO PUSH2 0x143F JUMPI PUSH2 0x143E PUSH2 0x127C JUMP JUMPDEST JUMPDEST PUSH0 PUSH2 0x144C DUP5 DUP3 DUP6 ADD PUSH2 0x12FD JUMP JUMPDEST SWAP2 POP POP SWAP3 SWAP2 POP POP JUMP JUMPDEST PUSH0 DUP2 MLOAD SWAP1 POP SWAP2 SWAP1 POP JUMP JUMPDEST PUSH0 DUP3 DUP3 MSTORE PUSH1 0x20 DUP3 ADD SWAP1 POP SWAP3 SWAP2 POP POP JUMP JUMPDEST DUP3 DUP2 DUP4 MCOPY PUSH0 DUP4 DUP4 ADD MSTORE POP POP POP JUMP JUMPDEST PUSH0 PUSH1 0x1F NOT PUSH1 0x1F DUP4 ADD AND SWAP1 POP SWAP2 SWAP1 POP JUMP JUMPDEST PUSH0 PUSH2 0x1497 DUP3 PUSH2 0x1455 JUMP JUMPDEST PUSH2 0x14A1 DUP2 DUP6 PUSH2 0x145F JUMP JUMPDEST SWAP4 POP PUSH2 0x14B1 DUP2 DUP6 PUSH1 0x20 DUP7 ADD PUSH2 0x146F JUMP JUMPDEST PUSH2 0x14BA DUP2 PUSH2 0x147D JUMP JUMPDEST DUP5 ADD SWAP2 POP POP SWAP3 SWAP2 POP POP JUMP JUMPDEST PUSH0 PUSH1 0x20 DUP3 ADD SWAP1 POP DUP2 DUP2 SUB PUSH0 DUP4 ADD MSTORE PUSH2 0x14DD DUP2 DUP5 PUSH2 0x148D JUMP JUMPDEST SWAP1 POP SWAP3 SWAP2 POP POP JUMP JUMPDEST PUSH0 PUSH0 PUSH0 PUSH0 PUSH1 0x80 DUP6 DUP8 SUB SLT ISZERO PUSH2 0x14FD JUMPI PUSH2 0x14FC PUSH2 0x127C JUMP JUMPDEST JUMPDEST PUSH0 PUSH2 0x150A DUP8 DUP3 DUP9 ADD PUSH2 0x12CA JUMP JUMPDEST SWAP5 POP POP PUSH1 0x20 PUSH2 0x151B DUP8 DUP3 DUP9 ADD PUSH2 0x12CA JUMP JUMPDEST SWAP4 POP POP PUSH1 0x40 PUSH2 0x152C DUP8 DUP3 DUP9 ADD PUSH2 0x12FD JUMP JUMPDEST SWAP3 POP POP PUSH1 0x60 PUSH2 0x153D DUP8 DUP3 DUP9 ADD PUSH2 0x12FD JUMP JUMPDEST SWAP2 POP POP SWAP3 SWAP6 SWAP2 SWAP5 POP SWAP3 POP JUMP JUMPDEST PUSH0 PUSH0 REVERT JUMPDEST PUSH0 PUSH0 REVERT JUMPDEST PUSH0 PUSH0 REVERT JUMPDEST PUSH0 PUSH0 DUP4 PUSH1 0x1F DUP5 ADD SLT PUSH2 0x156A JUMPI PUSH2 0x1569 PUSH2 0x1549 JUMP JUMPDEST JUMPDEST DUP3 CALLDATALOAD SWAP1 POP PUSH8 0xFFFFFFFFFFFFFFFF DUP2 GT ISZERO PUSH2 0x1587 JUMPI PUSH2 0x1586 PUSH2 0x154D JUMP JUMPDEST JUMPDEST PUSH1 0x20 DUP4 ADD SWAP2 POP DUP4 PUSH1 0x20 DUP3 MUL DUP4 ADD GT ISZERO PUSH2 0x15A3 JUMPI PUSH2 0x15A2 PUSH2 0x1551 JUMP JUMPDEST JUMPDEST SWAP3 POP SWAP3 SWAP1 POP JUMP JUMPDEST PUSH0 PUSH0 DUP4 PUSH1 0x1F DUP5 ADD SLT PUSH2 0x15BF JUMPI PUSH2 0x15BE PUSH2 0x1549 JUMP JUMPDEST JUMPDEST DUP3 CALLDATALOAD SWAP1 POP PUSH8 0xFFFFFFFFFFFFFFFF DUP2 GT ISZERO PUSH2 0x15DC JUMPI PUSH2 0x15DB PUSH2 0x154D JUMP JUMPDEST JUMPDEST PUSH1 0x20 DUP4 ADD SWAP2 POP DUP4 PUSH1 0x20 DUP3 MUL DUP4 ADD GT ISZERO PUSH2 0x15F8 JUMPI PUSH2 0x15F7 PUSH2 0x1551 JUMP JUMPDEST JUMPDEST SWAP3 POP SWAP3 SWAP1 POP JUMP JUMPDEST PUSH0 PUSH0 PUSH0 PUSH0 PUSH1 0x40 DUP6 DUP8 SUB SLT ISZERO PUSH2 0x1617 JUMPI PUSH2 0x1616 PUSH2 0x127C JUMP JUMPDEST JUMPDEST PUSH0 DUP6 ADD CALLDATALOAD PUSH8 0xFFFFFFFFFFFFFFFF DUP2 GT ISZERO PUSH2 0x1634 JUMPI PUSH2 0x1633 PUSH2 0x1280 JUMP JUMPDEST JUMPDEST PUSH2 0x1640 DUP8 DUP3 DUP9 ADD PUSH2 0x1555 JUMP JUMPDEST SWAP5 POP SWAP5 POP POP PUSH1 0x20 DUP6 ADD CALLDATALOAD PUSH8 0xFFFFFFFFFFFFFFFF DUP2 GT ISZERO PUSH2 0x1663 JUMPI PUSH2 0x1662 PUSH2 0x1280 JUMP JUMPDEST JUMPDEST PUSH2 0x166F DUP8 DUP3 DUP9 ADD PUSH2 0x15AA JUMP JUMPDEST SWAP3 POP SWAP3 POP POP SWAP3 SWAP6 SWAP2 SWAP5 POP SWAP3 POP JUMP JUMPDEST PUSH0 DUP2 MLOAD SWAP1 POP SWAP2 SWAP1 POP JUMP JUMPDEST PUSH0 DUP3 DUP3 MSTORE PUSH1 0x20 DUP3 ADD SWAP1 POP SWAP3 SWAP2 POP POP JUMP JUMPDEST PUSH0 DUP2 SWAP1 POP PUSH1 0x20 DUP3 ADD SWAP1 POP SWAP2 SWAP1 POP JUMP JUMPDEST PUSH2 0x16AF DUP2 PUSH2 0x12DE JUMP JUMPDEST DUP3 MSTORE POP POP JUMP JUMPDEST PUSH0 PUSH2 0x16C0 DUP4 DUP4 PUSH2 0x16A6 JUMP JUMPDEST PUSH1 0x20 DUP4 ADD SWAP1 POP SWAP3 SWAP2 POP POP JUMP JUMPDEST PUSH0 PUSH1 0x20 DUP3 ADD SWAP1 POP SWAP2 SWAP1 POP JUMP JUMPDEST PUSH0 PUSH2 0x16E2 DUP3 PUSH2 0x167D JUMP JUMPDEST PUSH2 0x16EC DUP2 DUP6 PUSH2 0x1687 JUMP JUMPDEST SWAP4 POP PUSH2 0x16F7 DUP4 PUSH2 0x1697 JUMP JUMPDEST DUP1 PUSH0 JUMPDEST DUP4 DUP2 LT ISZERO PUSH2 0x1727 JUMPI DUP2 MLOAD PUSH2 0x170E DUP9 DUP3 PUSH2 0x16B5 JUMP JUMPDEST SWAP8 POP PUSH2 0x1719 DUP4 PUSH2 0x16CC JUMP JUMPDEST SWAP3 POP POP PUSH1 0x1 DUP2 ADD SWAP1 POP PUSH2 0x16FA JUMP JUMPDEST POP DUP6 SWAP4 POP POP POP POP SWAP3 SWAP2 POP POP JUMP JUMPDEST PUSH0 PUSH1 0x20 DUP3 ADD SWAP1 POP DUP2 DUP2 SUB PUSH0 DUP4 ADD MSTORE PUSH2 0x174C DUP2 DUP5 PUSH2 0x16D8 JUMP JUMPDEST SWAP1 POP SWAP3 SWAP2 POP POP JUMP JUMPDEST PUSH2 0x175D DUP2 PUSH2 0x13F7 JUMP JUMPDEST DUP2 EQ PUSH2 0x1767 JUMPI PUSH0 PUSH0 REVERT JUMPDEST POP JUMP JUMPDEST PUSH0 DUP2 CALLDATALOAD SWAP1 POP PUSH2 0x1778 DUP2 PUSH2 0x1754 JUMP JUMPDEST SWAP3 SWAP2 POP POP JUMP JUMPDEST PUSH0 PUSH0 PUSH1 0x40 DUP4 DUP6 SUB SLT ISZERO PUSH2 0x1794 JUMPI PUSH2 0x1793 PUSH2 0x127C JUMP JUMPDEST JUMPDEST PUSH0 PUSH2 0x17A1 DUP6 DUP3 DUP7 ADD PUSH2 0x12CA JUMP JUMPDEST SWAP3 POP POP PUSH1 0x20 PUSH2 0x17B2 DUP6 DUP3 DUP7 ADD PUSH2 0x176A JUMP JUMPDEST SWAP2 POP POP SWAP3 POP SWAP3 SWAP1 POP JUMP JUMPDEST PUSH0 PUSH0 DUP4 PUSH1 0x1F DUP5 ADD SLT PUSH2 0x17D1 JUMPI PUSH2 0x17D0 PUSH2 0x1549 JUMP JUMPDEST JUMPDEST DUP3 CALLDATALOAD SWAP1 POP PUSH8 0xFFFFFFFFFFFFFFFF DUP2 GT ISZERO PUSH2 0x17EE JUMPI PUSH2 0x17ED PUSH2 0x154D JUMP JUMPDEST JUMPDEST PUSH1 0x20 DUP4 ADD SWAP2 POP DUP4 PUSH1 0x20 DUP3 MUL DUP4 ADD GT ISZERO PUSH2 0x180A JUMPI PUSH2 0x1809 PUSH2 0x1551 JUMP JUMPDEST JUMPDEST SWAP3 POP SWAP3 SWAP1 POP JUMP JUMPDEST PUSH0 PUSH0 PUSH0 PUSH0 PUSH0 PUSH0 PUSH0 PUSH1 0x80 DUP9 DUP11 SUB SLT ISZERO PUSH2 0x182C JUMPI PUSH2 0x182B PUSH2 0x127C JUMP JUMPDEST JUMPDEST PUSH0 PUSH2 0x1839 DUP11 DUP3 DUP12 ADD PUSH2 0x12CA JUMP JUMPDEST SWAP8 POP POP PUSH1 0x20 DUP9 ADD CALLDATALOAD PUSH8 0xFFFFFFFFFFFFFFFF DUP2 GT ISZERO PUSH2 0x185A JUMPI PUSH2 0x1859 PUSH2 0x1280 JUMP JUMPDEST JUMPDEST PUSH2 0x1866 DUP11 DUP3 DUP12 ADD PUSH2 0x15AA JUMP JUMPDEST SWAP7 POP SWAP7 POP POP PUSH1 0x40 DUP9 ADD CALLDATALOAD PUSH8 0xFFFFFFFFFFFFFFFF DUP2 GT ISZERO PUSH2 0x1889 JUMPI PUSH2 0x1888 PUSH2 0x1280 JUMP JUMPDEST JUMPDEST PUSH2 0x1895 DUP11 DUP3 DUP12 ADD PUSH2 0x15AA JUMP JUMPDEST SWAP5 POP SWAP5 POP POP PUSH1 0x60 DUP9 ADD CALLDATALOAD PUSH8 0xFFFFFFFFFFFFFFFF DUP2 GT ISZERO PUSH2 0x18B8 JUMPI PUSH2 0x18B7 PUSH2 0x1280 JUMP JUMPDEST JUMPDEST PUSH2 0x18C4 DUP11 DUP3 DUP12 ADD PUSH2 0x17BC JUMP JUMPDEST SWAP3 POP SWAP3 POP POP SWAP3 SWAP6 SWAP9 SWAP2 SWAP5 SWAP8 POP SWAP3 SWAP6 POP JUMP JUMPDEST PUSH0 PUSH0 REVERT JUMPDEST PUSH32 0x4E487B7100000000000000000000000000000000000000000000000000000000 PUSH0 MSTORE PUSH1 0x41 PUSH1 0x4 MSTORE PUSH1 0x24 PUSH0 REVERT JUMPDEST PUSH2 0x190F DUP3 PUSH2 0x147D JUMP JUMPDEST DUP2 ADD DUP2 DUP2 LT PUSH8 0xFFFFFFFFFFFFFFFF DUP3 GT OR ISZERO PUSH2 0x192E JUMPI PUSH2 0x192D PUSH2 0x18D9 JUMP JUMPDEST JUMPDEST DUP1 PUSH1 0x40 MSTORE POP POP POP JUMP JUMPDEST PUSH0 PUSH2 0x1940 PUSH2 0x1273 JUMP JUMPDEST SWAP1 POP PUSH2 0x194C DUP3 DUP3 PUSH2 0x1906 JUMP JUMPDEST SWAP2 SWAP1 POP JUMP JUMPDEST PUSH0 PUSH8 0xFFFFFFFFFFFFFFFF DUP3 GT ISZERO PUSH2 0x196B JUMPI PUSH2 0x196A PUSH2 0x18D9 JUMP JUMPDEST JUMPDEST PUSH2 0x1974 DUP3 PUSH2 0x147D JUMP JUMPDEST SWAP1 POP PUSH1 0x20 DUP2 ADD SWAP1 POP SWAP2 SWAP1 POP JUMP JUMPDEST DUP3 DUP2 DUP4 CALLDATACOPY PUSH0 DUP4 DUP4 ADD MSTORE POP POP POP JUMP JUMPDEST PUSH0 PUSH2 0x19A1 PUSH2 0x199C DUP5 PUSH2 0x1951 JUMP JUMPDEST PUSH2 0x1937 JUMP JUMPDEST SWAP1 POP DUP3 DUP2 MSTORE PUSH1 0x20 DUP2 ADD DUP5 DUP5 DUP5 ADD GT ISZERO PUSH2 0x19BD JUMPI PUSH2 0x19BC PUSH2 0x18D5 JUMP JUMPDEST JUMPDEST PUSH2 0x19C8 DUP5 DUP3 DUP6 PUSH2 0x1981 JUMP JUMPDEST POP SWAP4 SWAP3 POP POP POP JUMP JUMPDEST PUSH0 DUP3 PUSH1 0x1F DUP4 ADD SLT PUSH2 0x19E4 JUMPI PUSH2 0x19E3 PUSH2 0x1549 JUMP JUMPDEST JUMPDEST DUP2 CALLDATALOAD PUSH2 0x19F4 DUP5 DUP3 PUSH1 0x20 DUP7 ADD PUSH2 0x198F JUMP JUMPDEST SWAP2 POP POP SWAP3 SWAP2 POP POP JUMP JUMPDEST PUSH0 PUSH0 PUSH0 PUSH0 PUSH1 0x80 DUP6 DUP8 SUB SLT ISZERO PUSH2 0x1A15 JUMPI PUSH2 0x1A14 PUSH2 0x127C JUMP JUMPDEST JUMPDEST PUSH0 PUSH2 0x1A22 DUP8 DUP3 DUP9 ADD PUSH2 0x12CA JUMP JUMPDEST SWAP5 POP POP PUSH1 0x20 PUSH2 0x1A33 DUP8 DUP3 DUP9 ADD PUSH2 0x12FD JUMP JUMPDEST SWAP4 POP POP PUSH1 0x40 PUSH2 0x1A44 DUP8 DUP3 DUP9 ADD PUSH2 0x12FD JUMP JUMPDEST SWAP3 POP POP PUSH1 0x60 DUP6 ADD CALLDATALOAD PUSH8 0xFFFFFFFFFFFFFFFF DUP2 GT ISZERO PUSH2 0x1A65 JUMPI PUSH2 0x1A64 PUSH2 0x1280 JUMP JUMPDEST JUMPDEST PUSH2 0x1A71 DUP8 DUP3 DUP9 ADD PUSH2 0x19D0 JUMP JUMPDEST SWAP2 POP POP SWAP3 SWAP6 SWAP2 SWAP5 POP SWAP3 POP JUMP JUMPDEST PUSH0 PUSH0 PUSH1 0x40 DUP4 DUP6 SUB SLT ISZERO PUSH2 0x1A93 JUMPI PUSH2 0x1A92 PUSH2 0x127C JUMP JUMPDEST JUMPDEST PUSH0 PUSH2 0x1AA0 DUP6 DUP3 DUP7 ADD PUSH2 0x12CA JUMP JUMPDEST SWAP3 POP POP PUSH1 0x20 PUSH2 0x1AB1 DUP6 DUP3 DUP7 ADD PUSH2 0x12CA JUMP JUMPDEST SWAP2 POP POP SWAP3 POP SWAP3 SWAP1 POP JUMP JUMPDEST PUSH0 PUSH0 PUSH0 PUSH0 PUSH0 PUSH0 PUSH1 0x80 DUP8 DUP10 SUB SLT ISZERO PUSH2 0x1AD5 JUMPI PUSH2 0x1AD4 PUSH2 0x127C JUMP JUMPDEST JUMPDEST PUSH0 PUSH2 0x1AE2 DUP10 DUP3 DUP11 ADD PUSH2 0x12CA JUMP JUMPDEST SWAP7 POP POP PUSH1 0x20 PUSH2 0x1AF3 DUP10 DUP3 DUP11 ADD PUSH2 0x12CA JUMP JUMPDEST SWAP6 POP POP PUSH1 0x40 DUP8 ADD CALLDATALOAD PUSH8 0xFFFFFFFFFFFFFFFF DUP2 GT ISZERO PUSH2 0x1B14 JUMPI PUSH2 0x1B13 PUSH2 0x1280 JUMP JUMPDEST JUMPDEST PUSH2 0x1B20 DUP10 DUP3 DUP11 ADD PUSH2 0x15AA JUMP JUMPDEST SWAP5 POP SWAP5 POP POP PUSH1 0x60 DUP8 ADD CALLDATALOAD PUSH8 0xFFFFFFFFFFFFFFFF DUP2 GT ISZERO PUSH2 0x1B43 JUMPI PUSH2 0x1B42 PUSH2 0x1280 JUMP JUMPDEST JUMPDEST PUSH2 0x1B4F DUP10 DUP3 DUP11 ADD PUSH2 0x15AA JUMP JUMPDEST SWAP3 POP SWAP3 POP POP SWAP3 SWAP6 POP SWAP3 SWAP6 POP SWAP3 SWAP6 JUMP JUMPDEST PUSH32 0x5A65726F20616464726573730000000000000000000000000000000000000000 PUSH0 DUP3 ADD MSTORE POP JUMP JUMPDEST PUSH0 PUSH2 0x1B92 PUSH1 0xC DUP4 PUSH2 0x145F JUMP JUMPDEST SWAP2 POP PUSH2 0x1B9D DUP3 PUSH2 0x1B5E JUMP JUMPDEST PUSH1 0x20 DUP3 ADD SWAP1 POP SWAP2 SWAP1 POP JUMP JUMPDEST PUSH0 PUSH1 0x20 DUP3 ADD SWAP1 POP DUP2 DUP2 SUB PUSH0 DUP4 ADD MSTORE PUSH2 0x1BBF DUP2 PUSH2 0x1B86 JUMP JUMPDEST SWAP1 POP SWAP2 SWAP1 POP JUMP JUMPDEST PUSH32 0x4E487B7100000000000000000000000000000000000000000000000000000000 PUSH0 MSTORE PUSH1 0x22 PUSH1 0x4 MSTORE PUSH1 0x24 PUSH0 REVERT JUMPDEST PUSH0 PUSH1 0x2 DUP3 DIV SWAP1 POP PUSH1 0x1 DUP3 AND DUP1 PUSH2 0x1C0A JUMPI PUSH1 0x7F DUP3 AND SWAP2 POP JUMPDEST PUSH1 0x20 DUP3 LT DUP2 SUB PUSH2 0x1C1D JUMPI PUSH2 0x1C1C PUSH2 0x1BC6 JUMP JUMPDEST JUMPDEST POP SWAP2 SWAP1 POP JUMP JUMPDEST PUSH32 0x4E6F7420617574686F72697A6564000000000000000000000000000000000000 PUSH0 DUP3 ADD MSTORE POP JUMP JUMPDEST PUSH0 PUSH2 0x1C57 PUSH1 0xE DUP4 PUSH2 0x145F JUMP JUMPDEST SWAP2 POP PUSH2 0x1C62 DUP3 PUSH2 0x1C23 JUMP JUMPDEST PUSH1 0x20 DUP3 ADD SWAP1 POP SWAP2 SWAP1 POP JUMP JUMPDEST PUSH0 PUSH1 0x20 DUP3 ADD SWAP1 POP DUP2 DUP2 SUB PUSH0 DUP4 ADD MSTORE PUSH2 0x1C84 DUP2 PUSH2 0x1C4B JUMP JUMPDEST SWAP1 POP SWAP2 SWAP1 POP JUMP JUMPDEST PUSH32 0x496E73756666696369656E742062616C616E6365000000000000000000000000 PUSH0 DUP3 ADD MSTORE POP JUMP JUMPDEST PUSH0 PUSH2 0x1CBF PUSH1 0x14 DUP4 PUSH2 0x145F JUMP JUMPDEST SWAP2 POP PUSH2 0x1CCA DUP3 PUSH2 0x1C8B JUMP JUMPDEST PUSH1 0x20 DUP3 ADD SWAP1 POP SWAP2 SWAP1 POP JUMP JUMPDEST PUSH0 PUSH1 0x20 DUP3 ADD SWAP1 POP DUP2 DUP2 SUB PUSH0 DUP4 ADD MSTORE PUSH2 0x1CEC DUP2 PUSH2 0x1CB3 JUMP JUMPDEST SWAP1 POP SWAP2 SWAP1 POP JUMP JUMPDEST PUSH32 0x4E487B7100000000000000000000000000000000000000000000000000000000 PUSH0 MSTORE PUSH1 0x11 PUSH1 0x4 MSTORE PUSH1 0x24 PUSH0 REVERT JUMPDEST PUSH0 PUSH2 0x1D2A DUP3 PUSH2 0x12DE JUMP JUMPDEST SWAP2 POP PUSH2 0x1D35 DUP4 PUSH2 0x12DE JUMP JUMPDEST SWAP3 POP DUP3 DUP3 SUB SWAP1 POP DUP2 DUP2 GT ISZERO PUSH2 0x1D4D JUMPI PUSH2 0x1D4C PUSH2 0x1CF3 JUMP JUMPDEST JUMPDEST SWAP3 SWAP2 POP POP JUMP JUMPDEST PUSH0 PUSH2 0x1D5D DUP3 PUSH2 0x12DE JUMP JUMPDEST SWAP2 POP PUSH2 0x1D68 DUP4 PUSH2 0x12DE JUMP JUMPDEST SWAP3 POP DUP3 DUP3 ADD SWAP1 POP DUP1 DUP3 GT ISZERO PUSH2 0x1D80 JUMPI PUSH2 0x1D7F PUSH2 0x1CF3 JUMP JUMPDEST JUMPDEST SWAP3 SWAP2 POP POP JUMP JUMPDEST PUSH0 PUSH1 0x40 DUP3 ADD SWAP1 POP PUSH2 0x1D99 PUSH0 DUP4 ADD DUP6 PUSH2 0x134F JUMP JUMPDEST PUSH2 0x1DA6 PUSH1 0x20 DUP4 ADD DUP5 PUSH2 0x134F JUMP JUMPDEST SWAP4 SWAP3 POP POP POP JUMP JUMPDEST PUSH32 0x4D69736D61746368656420617272617973000000000000000000000000000000 PUSH0 DUP3 ADD MSTORE POP JUMP JUMPDEST PUSH0 PUSH2 0x1DE1 PUSH1 0x11 DUP4 PUSH2 0x145F JUMP JUMPDEST SWAP2 POP PUSH2 0x1DEC DUP3 PUSH2 0x1DAD JUMP JUMPDEST PUSH1 0x20 DUP3 ADD SWAP1 POP SWAP2 SWAP1 POP JUMP JUMPDEST PUSH0 PUSH1 0x20 DUP3 ADD SWAP1 POP DUP2 DUP2 SUB PUSH0 DUP4 ADD MSTORE PUSH2 0x1E0E DUP2 PUSH2 0x1DD5 JUMP JUMPDEST SWAP1 POP SWAP2 SWAP1 POP JUMP JUMPDEST PUSH32 0x4E487B7100000000000000000000000000000000000000000000000000000000 PUSH0 MSTORE PUSH1 0x32 PUSH1 0x4 MSTORE PUSH1 0x24 PUSH0 REVERT JUMPDEST PUSH0 PUSH1 0x20 DUP3 DUP5 SUB SLT ISZERO PUSH2 0x1E57 JUMPI PUSH2 0x1E56 PUSH2 0x127C JUMP JUMPDEST JUMPDEST PUSH0 PUSH2 0x1E64 DUP5 DUP3 DUP6 ADD PUSH2 0x12CA JUMP JUMPDEST SWAP2 POP POP SWAP3 SWAP2 POP POP JUMP JUMPDEST PUSH32 0x4D69736D61746368656420696E70757473000000000000000000000000000000 PUSH0 DUP3 ADD MSTORE POP JUMP JUMPDEST PUSH0 PUSH2 0x1EA1 PUSH1 0x11 DUP4 PUSH2 0x145F JUMP JUMPDEST SWAP2 POP PUSH2 0x1EAC DUP3 PUSH2 0x1E6D JUMP JUMPDEST PUSH1 0x20 DUP3 ADD SWAP1 POP SWAP2 SWAP1 POP JUMP JUMPDEST PUSH0 PUSH1 0x20 DUP3 ADD SWAP1 POP DUP2 DUP2 SUB PUSH0 DUP4 ADD MSTORE PUSH2 0x1ECE DUP2 PUSH2 0x1E95 JUMP JUMPDEST SWAP1 POP SWAP2 SWAP1 POP JUMP JUMPDEST PUSH0 PUSH0 REVERT JUMPDEST PUSH0 PUSH0 REVERT JUMPDEST PUSH0 PUSH0 REVERT JUMPDEST PUSH0 PUSH0 DUP4 CALLDATALOAD PUSH1 0x1 PUSH1 0x20 SUB DUP5 CALLDATASIZE SUB SUB DUP2 SLT PUSH2 0x1EFD JUMPI PUSH2 0x1EFC PUSH2 0x1ED5 JUMP JUMPDEST JUMPDEST DUP1 DUP5 ADD SWAP3 POP DUP3 CALLDATALOAD SWAP2 POP PUSH8 0xFFFFFFFFFFFFFFFF DUP3 GT ISZERO PUSH2 0x1F1F JUMPI PUSH2 0x1F1E PUSH2 0x1ED9 JUMP JUMPDEST JUMPDEST PUSH1 0x20 DUP4 ADD SWAP3 POP PUSH1 0x1 DUP3 MUL CALLDATASIZE SUB DUP4 SGT ISZERO PUSH2 0x1F3B JUMPI PUSH2 0x1F3A PUSH2 0x1EDD JUMP JUMPDEST JUMPDEST POP SWAP3 POP SWAP3 SWAP1 POP JUMP JUMPDEST PUSH0 DUP3 SWAP1 POP SWAP3 SWAP2 POP POP JUMP JUMPDEST PUSH0 DUP2 SWAP1 POP DUP2 PUSH0 MSTORE PUSH1 0x20 PUSH0 KECCAK256 SWAP1 POP SWAP2 SWAP1 POP JUMP JUMPDEST PUSH0 PUSH1 0x20 PUSH1 0x1F DUP4 ADD DIV SWAP1 POP SWAP2 SWAP1 POP JUMP JUMPDEST PUSH0 DUP3 DUP3 SHL SWAP1 POP SWAP3 SWAP2 POP POP JUMP JUMPDEST PUSH0 PUSH1 0x8 DUP4 MUL PUSH2 0x1FA9 PUSH32 0xFFFFFFFFFFFFFFFFFFFFFFFFFFFFFFFFFFFFFFFFFFFFFFFFFFFFFFFFFFFFFFFF DUP3 PUSH2 0x1F6E JUMP JUMPDEST PUSH2 0x1FB3 DUP7 DUP4 PUSH2 0x1F6E JUMP JUMPDEST SWAP6 POP DUP1 NOT DUP5 AND SWAP4 POP DUP1 DUP7 AND DUP5 OR SWAP3 POP POP POP SWAP4 SWAP3 POP POP POP JUMP JUMPDEST PUSH0 DUP2 SWAP1 POP SWAP2 SWAP1 POP JUMP JUMPDEST PUSH0 PUSH2 0x1FEE PUSH2 0x1FE9 PUSH2 0x1FE4 DUP5 PUSH2 0x12DE JUMP JUMPDEST PUSH2 0x1FCB JUMP JUMPDEST PUSH2 0x12DE JUMP JUMPDEST SWAP1 POP SWAP2 SWAP1 POP JUMP JUMPDEST PUSH0 DUP2 SWAP1 POP SWAP2 SWAP1 POP JUMP JUMPDEST PUSH2 0x2007 DUP4 PUSH2 0x1FD4 JUMP JUMPDEST PUSH2 0x201B PUSH2 0x2013 DUP3 PUSH2 0x1FF5 JUMP JUMPDEST DUP5 DUP5 SLOAD PUSH2 0x1F7A JUMP JUMPDEST DUP3 SSTORE POP POP POP POP JUMP JUMPDEST PUSH0 PUSH0 SWAP1 POP SWAP1 JUMP JUMPDEST PUSH2 0x2032 PUSH2 0x2023 JUMP JUMPDEST PUSH2 0x203D DUP2 DUP5 DUP5 PUSH2 0x1FFE JUMP JUMPDEST POP POP POP JUMP JUMPDEST JUMPDEST DUP2 DUP2 LT ISZERO PUSH2 0x2060 JUMPI PUSH2 0x2055 PUSH0 DUP3 PUSH2 0x202A JUMP JUMPDEST PUSH1 0x1 DUP2 ADD SWAP1 POP PUSH2 0x2043 JUMP JUMPDEST POP POP JUMP JUMPDEST PUSH1 0x1F DUP3 GT ISZERO PUSH2 0x20A5 JUMPI PUSH2 0x2076 DUP2 PUSH2 0x1F4D JUMP JUMPDEST PUSH2 0x207F DUP5 PUSH2 0x1F5F JUMP JUMPDEST DUP2 ADD PUSH1 0x20 DUP6 LT ISZERO PUSH2 0x208E JUMPI DUP2 SWAP1 POP JUMPDEST PUSH2 0x20A2 PUSH2 0x209A DUP6 PUSH2 0x1F5F JUMP JUMPDEST DUP4 ADD DUP3 PUSH2 0x2042 JUMP JUMPDEST POP POP JUMPDEST POP POP POP JUMP JUMPDEST PUSH0 DUP3 DUP3 SHR SWAP1 POP SWAP3 SWAP2 POP POP JUMP JUMPDEST PUSH0 PUSH2 0x20C5 PUSH0 NOT DUP5 PUSH1 0x8 MUL PUSH2 0x20AA JUMP JUMPDEST NOT DUP1 DUP4 AND SWAP2 POP POP SWAP3 SWAP2 POP POP JUMP JUMPDEST PUSH0 PUSH2 0x20DD DUP4 DUP4 PUSH2 0x20B6 JUMP JUMPDEST SWAP2 POP DUP3 PUSH1 0x2 MUL DUP3 OR SWAP1 POP SWAP3 SWAP2 POP POP JUMP JUMPDEST PUSH2 0x20F7 DUP4 DUP4 PUSH2 0x1F43 JUMP JUMPDEST PUSH8 0xFFFFFFFFFFFFFFFF DUP2 GT ISZERO PUSH2 0x2110 JUMPI PUSH2 0x210F PUSH2 0x18D9 JUMP JUMPDEST JUMPDEST PUSH2 0x211A DUP3 SLOAD PUSH2 0x1BF3 JUMP JUMPDEST PUSH2 0x2125 DUP3 DUP3 DUP6 PUSH2 0x2064 JUMP JUMPDEST PUSH0 PUSH1 0x1F DUP4 GT PUSH1 0x1 DUP2 EQ PUSH2 0x2152 JUMPI PUSH0 DUP5 ISZERO PUSH2 0x2140 JUMPI DUP3 DUP8 ADD CALLDATALOAD SWAP1 POP JUMPDEST PUSH2 0x214A DUP6 DUP3 PUSH2 0x20D2 JUMP JUMPDEST DUP7 SSTORE POP PUSH2 0x21B1 JUMP JUMPDEST PUSH1 0x1F NOT DUP5 AND PUSH2 0x2160 DUP7 PUSH2 0x1F4D JUMP JUMPDEST PUSH0 JUMPDEST DUP3 DUP2 LT ISZERO PUSH2 0x2187 JUMPI DUP5 DUP10 ADD CALLDATALOAD DUP3 SSTORE PUSH1 0x1 DUP3 ADD SWAP2 POP PUSH1 0x20 DUP6 ADD SWAP5 POP PUSH1 0x20 DUP2 ADD SWAP1 POP PUSH2 0x2162 JUMP JUMPDEST DUP7 DUP4 LT ISZERO PUSH2 0x21A4 JUMPI DUP5 DUP10 ADD CALLDATALOAD PUSH2 0x21A0 PUSH1 0x1F DUP10 AND DUP3 PUSH2 0x20B6 JUMP JUMPDEST DUP4 SSTORE POP JUMPDEST PUSH1 0x1 PUSH1 0x2 DUP9 MUL ADD DUP9 SSTORE POP POP POP JUMPDEST POP POP POP POP POP POP POP JUMP JUMPDEST PUSH0 PUSH2 0x21C5 DUP4 DUP6 PUSH2 0x145F JUMP JUMPDEST SWAP4 POP PUSH2 0x21D2 DUP4 DUP6 DUP5 PUSH2 0x1981 JUMP JUMPDEST PUSH2 0x21DB DUP4 PUSH2 0x147D JUMP JUMPDEST DUP5 ADD SWAP1 POP SWAP4 SWAP3 POP POP POP JUMP JUMPDEST PUSH0 PUSH1 0x20 DUP3 ADD SWAP1 POP DUP2 DUP2 SUB PUSH0 DUP4 ADD MSTORE PUSH2 0x21FF DUP2 DUP5 DUP7 PUSH2 0x21BA JUMP JUMPDEST SWAP1 POP SWAP4 SWAP3 POP POP POP JUMP JUMPDEST PUSH0 PUSH0 REVERT JUMPDEST DUP3 DUP2 DUP4 CALLDATACOPY POP POP POP JUMP JUMPDEST PUSH0 PUSH2 0x2220 DUP4 DUP6 PUSH2 0x1687 JUMP JUMPDEST SWAP4 POP PUSH32 0x7FFFFFFFFFFFFFFFFFFFFFFFFFFFFFFFFFFFFFFFFFFFFFFFFFFFFFFFFFFFFFF DUP4 GT ISZERO PUSH2 0x2253 JUMPI PUSH2 0x2252 PUSH2 0x2208 JUMP JUMPDEST JUMPDEST PUSH1 0x20 DUP4 MUL SWAP3 POP PUSH2 0x2264 DUP4 DUP6 DUP5 PUSH2 0x220C JUMP JUMPDEST DUP3 DUP5 ADD SWAP1 POP SWAP4 SWAP3 POP POP POP JUMP JUMPDEST PUSH0 PUSH1 0x40 DUP3 ADD SWAP1 POP DUP2 DUP2 SUB PUSH0 DUP4 ADD MSTORE PUSH2 0x2289 DUP2 DUP7 DUP9 PUSH2 0x2215 JUMP JUMPDEST SWAP1 POP DUP2 DUP2 SUB PUSH1 0x20 DUP4 ADD MSTORE PUSH2 0x229E DUP2 DUP5 DUP7 PUSH2 0x2215 JUMP JUMPDEST SWAP1 POP SWAP6 SWAP5 POP POP POP POP POP JUMP JUMPDEST PUSH2 0x22B2 DUP3 PUSH2 0x1455 JUMP JUMPDEST PUSH8 0xFFFFFFFFFFFFFFFF DUP2 GT ISZERO PUSH2 0x22CB JUMPI PUSH2 0x22CA PUSH2 0x18D9 JUMP JUMPDEST JUMPDEST PUSH2 0x22D5 DUP3 SLOAD PUSH2 0x1BF3 JUMP JUMPDEST PUSH2 0x22E0 DUP3 DUP3 DUP6 PUSH2 0x2064 JUMP JUMPDEST PUSH0 PUSH1 0x20 SWAP1 POP PUSH1 0x1F DUP4 GT PUSH1 0x1 DUP2 EQ PUSH2 0x2311 JUMPI PUSH0 DUP5 ISZERO PUSH2 0x22FF JUMPI DUP3 DUP8 ADD MLOAD SWAP1 POP JUMPDEST PUSH2 0x2309 DUP6 DUP3 PUSH2 0x20D2 JUMP JUMPDEST DUP7 SSTORE POP PUSH2 0x2370 JUMP JUMPDEST PUSH1 0x1F NOT DUP5 AND PUSH2 0x231F DUP7 PUSH2 0x1F4D JUMP JUMPDEST PUSH0 JUMPDEST DUP3 DUP2 LT ISZERO PUSH2 0x2346 JUMPI DUP5 DUP10 ADD MLOAD DUP3 SSTORE PUSH1 0x1 DUP3 ADD SWAP2 POP PUSH1 0x20 DUP6 ADD SWAP5 POP PUSH1 0x20 DUP2 ADD SWAP1 POP PUSH2 0x2321 JUMP JUMPDEST DUP7 DUP4 LT ISZERO PUSH2 0x2363 JUMPI DUP5 DUP10 ADD MLOAD PUSH2 0x235F PUSH1 0x1F DUP10 AND DUP3 PUSH2 0x20B6 JUMP JUMPDEST DUP4 SSTORE POP JUMPDEST PUSH1 0x1 PUSH1 0x2 DUP9 MUL ADD DUP9 SSTORE POP POP POP JUMPDEST POP POP POP POP POP POP JUMP INVALID LOG2 PUSH5 0x6970667358 0x22 SLT KECCAK256 0xDD DUP9 0xC PUSH32 0x33DDFCC11FAE0069EF248BCF3C43166F23B92C4D1B5973EE8DB6F7DA64736F6C PUSH4 0x4300081E STOP CALLER "
		},
		"gasEstimates": {
			"creation": {
				"codeDepositCost": "1826800",
				"executionCost": "1924",
				"totalCost": "1828724"
			},
			"external": {
				"balanceOf(address,uint256)": "infinite",
				"balanceOfBatch(address[],uint256[])": "infinite",
				"isApprovedForAll(address,address)": "infinite",
				"mint(address,uint256,uint256,string)": "infinite",
				"mintBatch(address,uint256[],uint256[],string[])": "infinite",
				"safeBatchTransferFrom(address,address,uint256[],uint256[])": "infinite",
				"safeTransferFrom(address,address,uint256,uint256)": "infinite",
				"setApprovalForAll(address,bool)": "infinite",
				"supportsInterface(bytes4)": "649",
				"uri(uint256)": "infinite"
			}
		},
		"methodIdentifiers": {
			"balanceOf(address,uint256)": "00fdd58e",
			"balanceOfBatch(address[],uint256[])": "4e1273f4",
			"isApprovedForAll(address,address)": "e985e9c5",
			"mint(address,uint256,uint256,string)": "bb7fde71",
			"mintBatch(address,uint256[],uint256[],string[])": "a55784ef",
			"safeBatchTransferFrom(address,address,uint256[],uint256[])": "fba0ee64",
			"safeTransferFrom(address,address,uint256,uint256)": "0febdd49",
			"setApprovalForAll(address,bool)": "a22cb465",
			"supportsInterface(bytes4)": "01ffc9a7",
			"uri(uint256)": "0e89341c"
		}
	},
	"abi": [
		{
			"anonymous": false,
			"inputs": [
				{
					"indexed": true,
					"internalType": "address",
					"name": "account",
					"type": "address"
				},
				{
					"indexed": true,
					"internalType": "address",
					"name": "operator",
					"type": "address"
				},
				{
					"indexed": false,
					"internalType": "bool",
					"name": "approved",
					"type": "bool"
				}
			],
			"name": "ApprovalForAll",
			"type": "event"
		},
		{
			"anonymous": false,
			"inputs": [
				{
					"indexed": true,
					"internalType": "address",
					"name": "operator",
					"type": "address"
				},
				{
					"indexed": true,
					"internalType": "address",
					"name": "from",
					"type": "address"
				},
				{
					"indexed": true,
					"internalType": "address",
					"name": "to",
					"type": "address"
				},
				{
					"indexed": false,
					"internalType": "uint256[]",
					"name": "ids",
					"type": "uint256[]"
				},
				{
					"indexed": false,
					"internalType": "uint256[]",
					"name": "values",
					"type": "uint256[]"
				}
			],
			"name": "TransferBatch",
			"type": "event"
		},
		{
			"anonymous": false,
			"inputs": [
				{
					"indexed": true,
					"internalType": "address",
					"name": "operator",
					"type": "address"
				},
				{
					"indexed": true,
					"internalType": "address",
					"name": "from",
					"type": "address"
				},
				{
					"indexed": true,
					"internalType": "address",
					"name": "to",
					"type": "address"
				},
				{
					"indexed": false,
					"internalType": "uint256",
					"name": "id",
					"type": "uint256"
				},
				{
					"indexed": false,
					"internalType": "uint256",
					"name": "value",
					"type": "uint256"
				}
			],
			"name": "TransferSingle",
			"type": "event"
		},
		{
			"anonymous": false,
			"inputs": [
				{
					"indexed": false,
					"internalType": "string",
					"name": "value",
					"type": "string"
				},
				{
					"indexed": true,
					"internalType": "uint256",
					"name": "id",
					"type": "uint256"
				}
			],
			"name": "URI",
			"type": "event"
		},
		{
			"inputs": [
				{
					"internalType": "address",
					"name": "account",
					"type": "address"
				},
				{
					"internalType": "uint256",
					"name": "id",
					"type": "uint256"
				}
			],
			"name": "balanceOf",
			"outputs": [
				{
					"internalType": "uint256",
					"name": "",
					"type": "uint256"
				}
			],
			"stateMutability": "view",
			"type": "function"
		},
		{
			"inputs": [
				{
					"internalType": "address[]",
					"name": "accounts",
					"type": "address[]"
				},
				{
					"internalType": "uint256[]",
					"name": "ids",
					"type": "uint256[]"
				}
			],
			"name": "balanceOfBatch",
			"outputs": [
				{
					"internalType": "uint256[]",
					"name": "",
					"type": "uint256[]"
				}
			],
			"stateMutability": "view",
			"type": "function"
		},
		{
			"inputs": [
				{
					"internalType": "address",
					"name": "account",
					"type": "address"
				},
				{
					"internalType": "address",
					"name": "operator",
					"type": "address"
				}
			],
			"name": "isApprovedForAll",
			"outputs": [
				{
					"internalType": "bool",
					"name": "",
					"type": "bool"
				}
			],
			"stateMutability": "view",
			"type": "function"
		},
		{
			"inputs": [
				{
					"internalType": "address",
					"name": "to",
					"type": "address"
				},
				{
					"internalType": "uint256",
					"name": "id",
					"type": "uint256"
				},
				{
					"internalType": "uint256",
					"name": "amount",
					"type": "uint256"
				},
				{
					"internalType": "string",
					"name": "uri_",
					"type": "string"
				}
			],
			"name": "mint",
			"outputs": [],
			"stateMutability": "nonpayable",
			"type": "function"
		},
		{
			"inputs": [
				{
					"internalType": "address",
					"name": "to",
					"type": "address"
				},
				{
					"internalType": "uint256[]",
					"name": "ids",
					"type": "uint256[]"
				},
				{
					"internalType": "uint256[]",
					"name": "amounts",
					"type": "uint256[]"
				},
				{
					"internalType": "string[]",
					"name": "uris_",
					"type": "string[]"
				}
			],
			"name": "mintBatch",
			"outputs": [],
			"stateMutability": "nonpayable",
			"type": "function"
		},
		{
			"inputs": [
				{
					"internalType": "address",
					"name": "from",
					"type": "address"
				},
				{
					"internalType": "address",
					"name": "to",
					"type": "address"
				},
				{
					"internalType": "uint256[]",
					"name": "ids",
					"type": "uint256[]"
				},
				{
					"internalType": "uint256[]",
					"name": "amounts",
					"type": "uint256[]"
				}
			],
			"name": "safeBatchTransferFrom",
			"outputs": [],
			"stateMutability": "nonpayable",
			"type": "function"
		},
		{
			"inputs": [
				{
					"internalType": "address",
					"name": "from",
					"type": "address"
				},
				{
					"internalType": "address",
					"name": "to",
					"type": "address"
				},
				{
					"internalType": "uint256",
					"name": "id",
					"type": "uint256"
				},
				{
					"internalType": "uint256",
					"name": "amount",
					"type": "uint256"
				}
			],
			"name": "safeTransferFrom",
			"outputs": [],
			"stateMutability": "nonpayable",
			"type": "function"
		},
		{
			"inputs": [
				{
					"internalType": "address",
					"name": "operator",
					"type": "address"
				},
				{
					"internalType": "bool",
					"name": "approved",
					"type": "bool"
				}
			],
			"name": "setApprovalForAll",
			"outputs": [],
			"stateMutability": "nonpayable",
			"type": "function"
		},
		{
			"inputs": [
				{
					"internalType": "bytes4",
					"name": "interfaceId",
					"type": "bytes4"
				}
			],
			"name": "supportsInterface",
			"outputs": [
				{
					"internalType": "bool",
					"name": "",
					"type": "bool"
				}
			],
			"stateMutability": "pure",
			"type": "function"
		},
		{
			"inputs": [
				{
					"internalType": "uint256",
					"name": "id",
					"type": "uint256"
				}
			],
			"name": "uri",
			"outputs": [
				{
					"internalType": "string",
					"name": "",
					"type": "string"
				}
			],
			"stateMutability": "view",
			"type": "function"
		}
	]
}