{
	"data": {
		"bytecode": {
			"linkReferences": {},
			"object": "608060405234801561000f575f5ffd5b5060405161178838038061178883398181016040528101906100319190610157565b825f5f6101000a81548173ffffffffffffffffffffffffffffffffffffffff021916908373ffffffffffffffffffffffffffffffffffffffff1602179055503360015f6101000a81548173ffffffffffffffffffffffffffffffffffffffff021916908373ffffffffffffffffffffffffffffffffffffffff16021790555081600281905550806003819055505050506101a7565b5f5ffd5b5f73ffffffffffffffffffffffffffffffffffffffff82169050919050565b5f6100f3826100ca565b9050919050565b610103816100e9565b811461010d575f5ffd5b50565b5f8151905061011e816100fa565b92915050565b5f819050919050565b61013681610124565b8114610140575f5ffd5b50565b5f815190506101518161012d565b92915050565b5f5f5f6060848603121561016e5761016d6100c6565b5b5f61017b86828701610110565b935050602061018c86828701610143565b925050604061019d86828701610143565b9150509250925092565b6115d4806101b45f395ff3fe608060405234801561000f575f5ffd5b50600436106100b2575f3560e01c8063b5c221571161006f578063b5c2215714610176578063b6b55f2514610192578063c5ebeaec146101ae578063df011c41146101ca578063fc0c546a146101e8578063fc7e286d14610206576100b2565b80632e1a7d4d146100b6578063371fd8e6146100d257806354a5706f146100ee5780635f84f3021461011e5780637c3a00fd1461013a5780638da5cb5b14610158575b5f5ffd5b6100d060048036038101906100cb9190610dde565b610236565b005b6100ec60048036038101906100e79190610dde565b610521565b005b61010860048036038101906101039190610e63565b61072c565b6040516101159190610e9d565b60405180910390f35b61013860048036038101906101339190610dde565b610741565b005b6101426107da565b60405161014f9190610e9d565b60405180910390f35b6101606107e0565b60405161016d9190610ec5565b60405180910390f35b610190600480360381019061018b9190610dde565b610805565b005b6101ac60048036038101906101a79190610dde565b61089e565b005b6101c860048036038101906101c39190610dde565b610a60565b005b6101d2610d68565b6040516101df9190610e9d565b60405180910390f35b6101f0610d6e565b6040516101fd9190610f39565b60405180910390f35b610220600480360381019061021b9190610e63565b610d92565b60405161022d9190610e9d565b60405180910390f35b5f670de0b6b3a764000060035460055f3373ffffffffffffffffffffffffffffffffffffffff1673ffffffffffffffffffffffffffffffffffffffff1681526020019081526020015f205461028b9190610f7f565b6102959190610fed565b90508160045f3373ffffffffffffffffffffffffffffffffffffffff1673ffffffffffffffffffffffffffffffffffffffff1681526020019081526020015f20541015610317576040517f08c379a000000000000000000000000000000000000000000000000000000000815260040161030e90611077565b60405180910390fd5b808260045f3373ffffffffffffffffffffffffffffffffffffffff1673ffffffffffffffffffffffffffffffffffffffff1681526020019081526020015f20546103619190611095565b10156103a2576040517f08c379a000000000000000000000000000000000000000000000000000000000815260040161039990611112565b60405180910390fd5b8160045f3373ffffffffffffffffffffffffffffffffffffffff1673ffffffffffffffffffffffffffffffffffffffff1681526020019081526020015f205f8282546103ee9190611095565b925050819055505f5f9054906101000a900473ffffffffffffffffffffffffffffffffffffffff1673ffffffffffffffffffffffffffffffffffffffff1663a9059cbb33846040518363ffffffff1660e01b8152600401610450929190611130565b6020604051808303815f875af115801561046c573d5f5f3e3d5ffd5b505050506040513d601f19601f82011682018060405250810190610490919061118c565b6104cf576040517f08c379a00000000000000000000000000000000000000000000000000000000081526004016104c690611201565b60405180910390fd5b3373ffffffffffffffffffffffffffffffffffffffff167f7084f5476618d8e60b11ef0d7d3f06914655adb8793e28ff7f018d4c76d505d5836040516105159190610e9d565b60405180910390a25050565b5f8111801561056d57508060055f3373ffffffffffffffffffffffffffffffffffffffff1673ffffffffffffffffffffffffffffffffffffffff1681526020019081526020015f205410155b6105ac576040517f08c379a00000000000000000000000000000000000000000000000000000000081526004016105a390611269565b60405180910390fd5b5f5f9054906101000a900473ffffffffffffffffffffffffffffffffffffffff1673ffffffffffffffffffffffffffffffffffffffff166323b872dd3330846040518463ffffffff1660e01b815260040161060993929190611287565b6020604051808303815f875af1158015610625573d5f5f3e3d5ffd5b505050506040513d601f19601f82011682018060405250810190610649919061118c565b610688576040517f08c379a000000000000000000000000000000000000000000000000000000000815260040161067f90611306565b60405180910390fd5b8060055f3373ffffffffffffffffffffffffffffffffffffffff1673ffffffffffffffffffffffffffffffffffffffff1681526020019081526020015f205f8282546106d49190611095565b925050819055503373ffffffffffffffffffffffffffffffffffffffff167f0516911bcc3a0a7412a44601057c0a0a1ec628bde049a84284bc428866534488826040516107219190610e9d565b60405180910390a250565b6005602052805f5260405f205f915090505481565b60015f9054906101000a900473ffffffffffffffffffffffffffffffffffffffff1673ffffffffffffffffffffffffffffffffffffffff163373ffffffffffffffffffffffffffffffffffffffff16146107d0576040517f08c379a00000000000000000000000000000000000000000000000000000000081526004016107c79061136e565b60405180910390fd5b8060028190555050565b60025481565b60015f9054906101000a900473ffffffffffffffffffffffffffffffffffffffff1681565b60015f9054906101000a900473ffffffffffffffffffffffffffffffffffffffff1673ffffffffffffffffffffffffffffffffffffffff163373ffffffffffffffffffffffffffffffffffffffff1614610894576040517f08c379a000000000000000000000000000000000000000000000000000000000815260040161088b9061136e565b60405180910390fd5b8060038190555050565b5f81116108e0576040517f08c379a00000000000000000000000000000000000000000000000000000000081526004016108d7906113d6565b60405180910390fd5b5f5f9054906101000a900473ffffffffffffffffffffffffffffffffffffffff1673ffffffffffffffffffffffffffffffffffffffff166323b872dd3330846040518463ffffffff1660e01b815260040161093d93929190611287565b6020604051808303815f875af1158015610959573d5f5f3e3d5ffd5b505050506040513d601f19601f8201168201806040525081019061097d919061118c565b6109bc576040517f08c379a00000000000000000000000000000000000000000000000000000000081526004016109b390611306565b60405180910390fd5b8060045f3373ffffffffffffffffffffffffffffffffffffffff1673ffffffffffffffffffffffffffffffffffffffff1681526020019081526020015f205f828254610a0891906113f4565b925050819055503373ffffffffffffffffffffffffffffffffffffffff167f2da466a7b24304f47e87fa2e1e5a81b9831ce54fec19055ce277ca2f39ba42c482604051610a559190610e9d565b60405180910390a250565b5f600354670de0b6b3a764000060045f3373ffffffffffffffffffffffffffffffffffffffff1673ffffffffffffffffffffffffffffffffffffffff1681526020019081526020015f2054610ab59190610f7f565b610abf9190610fed565b90505f82118015610ad05750808211155b610b0f576040517f08c379a0000000000000000000000000000000000000000000000000000000008152600401610b0690611471565b60405180910390fd5b815f5f9054906101000a900473ffffffffffffffffffffffffffffffffffffffff1673ffffffffffffffffffffffffffffffffffffffff166370a08231306040518263ffffffff1660e01b8152600401610b699190610ec5565b602060405180830381865afa158015610b84573d5f5f3e3d5ffd5b505050506040513d601f19601f82011682018060405250810190610ba891906114a3565b1015610be9576040517f08c379a0000000000000000000000000000000000000000000000000000000008152600401610be090611518565b60405180910390fd5b8160055f3373ffffffffffffffffffffffffffffffffffffffff1673ffffffffffffffffffffffffffffffffffffffff1681526020019081526020015f205f828254610c3591906113f4565b925050819055505f5f9054906101000a900473ffffffffffffffffffffffffffffffffffffffff1673ffffffffffffffffffffffffffffffffffffffff1663a9059cbb33846040518363ffffffff1660e01b8152600401610c97929190611130565b6020604051808303815f875af1158015610cb3573d5f5f3e3d5ffd5b505050506040513d601f19601f82011682018060405250810190610cd7919061118c565b610d16576040517f08c379a0000000000000000000000000000000000000000000000000000000008152600401610d0d90611580565b60405180910390fd5b3373ffffffffffffffffffffffffffffffffffffffff167fac59582e5396aca512fa873a2047e7f4c80f8f55d4a06cb34a78a0187f62719f83604051610d5c9190610e9d565b60405180910390a25050565b60035481565b5f5f9054906101000a900473ffffffffffffffffffffffffffffffffffffffff1681565b6004602052805f5260405f205f915090505481565b5f5ffd5b5f819050919050565b610dbd81610dab565b8114610dc7575f5ffd5b50565b5f81359050610dd881610db4565b92915050565b5f60208284031215610df357610df2610da7565b5b5f610e0084828501610dca565b91505092915050565b5f73ffffffffffffffffffffffffffffffffffffffff82169050919050565b5f610e3282610e09565b9050919050565b610e4281610e28565b8114610e4c575f5ffd5b50565b5f81359050610e5d81610e39565b92915050565b5f60208284031215610e7857610e77610da7565b5b5f610e8584828501610e4f565b91505092915050565b610e9781610dab565b82525050565b5f602082019050610eb05f830184610e8e565b92915050565b610ebf81610e28565b82525050565b5f602082019050610ed85f830184610eb6565b92915050565b5f819050919050565b5f610f01610efc610ef784610e09565b610ede565b610e09565b9050919050565b5f610f1282610ee7565b9050919050565b5f610f2382610f08565b9050919050565b610f3381610f19565b82525050565b5f602082019050610f4c5f830184610f2a565b92915050565b7f4e487b71000000000000000000000000000000000000000000000000000000005f52601160045260245ffd5b5f610f8982610dab565b9150610f9483610dab565b9250828202610fa281610dab565b91508282048414831517610fb957610fb8610f52565b5b5092915050565b7f4e487b71000000000000000000000000000000000000000000000000000000005f52601260045260245ffd5b5f610ff782610dab565b915061100283610dab565b92508261101257611011610fc0565b5b828204905092915050565b5f82825260208201905092915050565b7f4e6f7420656e6f756768206465706f73697465640000000000000000000000005f82015250565b5f61106160148361101d565b915061106c8261102d565b602082019050919050565b5f6020820190508181035f83015261108e81611055565b9050919050565b5f61109f82610dab565b91506110aa83610dab565b92508282039050818111156110c2576110c1610f52565b5b92915050565b7f436f6c6c61746572616c206c6f636b65640000000000000000000000000000005f82015250565b5f6110fc60118361101d565b9150611107826110c8565b602082019050919050565b5f6020820190508181035f830152611129816110f0565b9050919050565b5f6040820190506111435f830185610eb6565b6111506020830184610e8e565b9392505050565b5f8115159050919050565b61116b81611157565b8114611175575f5ffd5b50565b5f8151905061118681611162565b92915050565b5f602082840312156111a1576111a0610da7565b5b5f6111ae84828501611178565b91505092915050565b7f5769746864726177207472616e73666572206661696c656400000000000000005f82015250565b5f6111eb60188361101d565b91506111f6826111b7565b602082019050919050565b5f6020820190508181035f830152611218816111df565b9050919050565b7f496e76616c6964207265706179000000000000000000000000000000000000005f82015250565b5f611253600d8361101d565b915061125e8261121f565b602082019050919050565b5f6020820190508181035f83015261128081611247565b9050919050565b5f60608201905061129a5f830186610eb6565b6112a76020830185610eb6565b6112b46040830184610e8e565b949350505050565b7f5472616e73666572206661696c656400000000000000000000000000000000005f82015250565b5f6112f0600f8361101d565b91506112fb826112bc565b602082019050919050565b5f6020820190508181035f83015261131d816112e4565b9050919050565b7f4e6f74206f776e657200000000000000000000000000000000000000000000005f82015250565b5f61135860098361101d565b915061136382611324565b602082019050919050565b5f6020820190508181035f8301526113858161134c565b9050919050565b7f416d6f756e74206d75737420626520706f7369746976650000000000000000005f82015250565b5f6113c060178361101d565b91506113cb8261138c565b602082019050919050565b5f6020820190508181035f8301526113ed816113b4565b9050919050565b5f6113fe82610dab565b915061140983610dab565b925082820190508082111561142157611420610f52565b5b92915050565b7f416d6f756e7420746f6f2068696768206f72207a65726f0000000000000000005f82015250565b5f61145b60178361101d565b915061146682611427565b602082019050919050565b5f6020820190508181035f8301526114888161144f565b9050919050565b5f8151905061149d81610db4565b92915050565b5f602082840312156114b8576114b7610da7565b5b5f6114c58482850161148f565b91505092915050565b7f496e73756666696369656e74206c6971756964697479000000000000000000005f82015250565b5f61150260168361101d565b915061150d826114ce565b602082019050919050565b5f6020820190508181035f83015261152f816114f6565b9050919050565b7f426f72726f7720746f6b656e207472616e73666572206661696c6564000000005f82015250565b5f61156a601c8361101d565b915061157582611536565b602082019050919050565b5f6020820190508181035f8301526115978161155e565b905091905056fea264697066735822122094eb31fb15424377744bfa3200ec3727718a897c492db1588ffe6b3f470c1bc964736f6c634300081e0033",
			"opcodes": "PUSH1 0x80 PUSH1 0x40 MSTORE CALLVALUE DUP1 ISZERO PUSH2 0xF JUMPI PUSH0 PUSH0 REVERT JUMPDEST POP PUSH1 0x40 MLOAD PUSH2 0x1788 CODESIZE SUB DUP1 PUSH2 0x1788 DUP4 CODECOPY DUP2 DUP2 ADD PUSH1 0x40 MSTORE DUP2 ADD SWAP1 PUSH2 0x31 SWAP2 SWAP1 PUSH2 0x157 JUMP JUMPDEST DUP3 PUSH0 PUSH0 PUSH2 0x100 EXP DUP2 SLOAD DUP2 PUSH20 0xFFFFFFFFFFFFFFFFFFFFFFFFFFFFFFFFFFFFFFFF MUL NOT AND SWAP1 DUP4 PUSH20 0xFFFFFFFFFFFFFFFFFFFFFFFFFFFFFFFFFFFFFFFF AND MUL OR SWAP1 SSTORE POP CALLER PUSH1 0x1 PUSH0 PUSH2 0x100 EXP DUP2 SLOAD DUP2 PUSH20 0xFFFFFFFFFFFFFFFFFFFFFFFFFFFFFFFFFFFFFFFF MUL NOT AND SWAP1 DUP4 PUSH20 0xFFFFFFFFFFFFFFFFFFFFFFFFFFFFFFFFFFFFFFFF AND MUL OR SWAP1 SSTORE POP DUP2 PUSH1 0x2 DUP2 SWAP1 SSTORE POP DUP1 PUSH1 0x3 DUP2 SWAP1 SSTORE POP POP POP POP PUSH2 0x1A7 JUMP JUMPDEST PUSH0 PUSH0 REVERT JUMPDEST PUSH0 PUSH20 0xFFFFFFFFFFFFFFFFFFFFFFFFFFFFFFFFFFFFFFFF DUP3 AND SWAP1 POP SWAP2 SWAP1 POP JUMP JUMPDEST PUSH0 PUSH2 0xF3 DUP3 PUSH2 0xCA JUMP JUMPDEST SWAP1 POP SWAP2 SWAP1 POP JUMP JUMPDEST PUSH2 0x103 DUP2 PUSH2 0xE9 JUMP JUMPDEST DUP2 EQ PUSH2 0x10D JUMPI PUSH0 PUSH0 REVERT JUMPDEST POP JUMP JUMPDEST PUSH0 DUP2 MLOAD SWAP1 POP PUSH2 0x11E DUP2 PUSH2 0xFA JUMP JUMPDEST SWAP3 SWAP2 POP POP JUMP JUMPDEST PUSH0 DUP2 SWAP1 POP SWAP2 SWAP1 POP JUMP JUMPDEST PUSH2 0x136 DUP2 PUSH2 0x124 JUMP JUMPDEST DUP2 EQ PUSH2 0x140 JUMPI PUSH0 PUSH0 REVERT JUMPDEST POP JUMP JUMPDEST PUSH0 DUP2 MLOAD SWAP1 POP PUSH2 0x151 DUP2 PUSH2 0x12D JUMP JUMPDEST SWAP3 SWAP2 POP POP JUMP JUMPDEST PUSH0 PUSH0 PUSH0 PUSH1 0x60 DUP5 DUP7 SUB SLT ISZERO PUSH2 0x16E JUMPI PUSH2 0x16D PUSH2 0xC6 JUMP JUMPDEST JUMPDEST PUSH0 PUSH2 0x17B DUP7 DUP3 DUP8 ADD PUSH2 0x110 JUMP JUMPDEST SWAP4 POP POP PUSH1 0x20 PUSH2 0x18C DUP7 DUP3 DUP8 ADD PUSH2 0x143 JUMP JUMPDEST SWAP3 POP POP PUSH1 0x40 PUSH2 0x19D DUP7 DUP3 DUP8 ADD PUSH2 0x143 JUMP JUMPDEST SWAP2 POP POP SWAP3 POP SWAP3 POP SWAP3 JUMP JUMPDEST PUSH2 0x15D4 DUP1 PUSH2 0x1B4 PUSH0 CODECOPY PUSH0 RETURN INVALID PUSH1 0x80 PUSH1 0x40 MSTORE CALLVALUE DUP1 ISZERO PUSH2 0xF JUMPI PUSH0 PUSH0 REVERT JUMPDEST POP PUSH1 0x4 CALLDATASIZE LT PUSH2 0xB2 JUMPI PUSH0 CALLDATALOAD PUSH1 0xE0 SHR DUP1 PUSH4 0xB5C22157 GT PUSH2 0x6F JUMPI DUP1 PUSH4 0xB5C22157 EQ PUSH2 0x176 JUMPI DUP1 PUSH4 0xB6B55F25 EQ PUSH2 0x192 JUMPI DUP1 PUSH4 0xC5EBEAEC EQ PUSH2 0x1AE JUMPI DUP1 PUSH4 0xDF011C41 EQ PUSH2 0x1CA JUMPI DUP1 PUSH4 0xFC0C546A EQ PUSH2 0x1E8 JUMPI DUP1 PUSH4 0xFC7E286D EQ PUSH2 0x206 JUMPI PUSH2 0xB2 JUMP JUMPDEST DUP1 PUSH4 0x2E1A7D4D EQ PUSH2 0xB6 JUMPI DUP1 PUSH4 0x371FD8E6 EQ PUSH2 0xD2 JUMPI DUP1 PUSH4 0x54A5706F EQ PUSH2 0xEE JUMPI DUP1 PUSH4 0x5F84F302 EQ PUSH2 0x11E JUMPI DUP1 PUSH4 0x7C3A00FD EQ PUSH2 0x13A JUMPI DUP1 PUSH4 0x8DA5CB5B EQ PUSH2 0x158 JUMPI JUMPDEST PUSH0 PUSH0 REVERT JUMPDEST PUSH2 0xD0 PUSH1 0x4 DUP1 CALLDATASIZE SUB DUP2 ADD SWAP1 PUSH2 0xCB SWAP2 SWAP1 PUSH2 0xDDE JUMP JUMPDEST PUSH2 0x236 JUMP JUMPDEST STOP JUMPDEST PUSH2 0xEC PUSH1 0x4 DUP1 CALLDATASIZE SUB DUP2 ADD SWAP1 PUSH2 0xE7 SWAP2 SWAP1 PUSH2 0xDDE JUMP JUMPDEST PUSH2 0x521 JUMP JUMPDEST STOP JUMPDEST PUSH2 0x108 PUSH1 0x4 DUP1 CALLDATASIZE SUB DUP2 ADD SWAP1 PUSH2 0x103 SWAP2 SWAP1 PUSH2 0xE63 JUMP JUMPDEST PUSH2 0x72C JUMP JUMPDEST PUSH1 0x40 MLOAD PUSH2 0x115 SWAP2 SWAP1 PUSH2 0xE9D JUMP JUMPDEST PUSH1 0x40 MLOAD DUP1 SWAP2 SUB SWAP1 RETURN JUMPDEST PUSH2 0x138 PUSH1 0x4 DUP1 CALLDATASIZE SUB DUP2 ADD SWAP1 PUSH2 0x133 SWAP2 SWAP1 PUSH2 0xDDE JUMP JUMPDEST PUSH2 0x741 JUMP JUMPDEST STOP JUMPDEST PUSH2 0x142 PUSH2 0x7DA JUMP JUMPDEST PUSH1 0x40 MLOAD PUSH2 0x14F SWAP2 SWAP1 PUSH2 0xE9D JUMP JUMPDEST PUSH1 0x40 MLOAD DUP1 SWAP2 SUB SWAP1 RETURN JUMPDEST PUSH2 0x160 PUSH2 0x7E0 JUMP JUMPDEST PUSH1 0x40 MLOAD PUSH2 0x16D SWAP2 SWAP1 PUSH2 0xEC5 JUMP JUMPDEST PUSH1 0x40 MLOAD DUP1 SWAP2 SUB SWAP1 RETURN JUMPDEST PUSH2 0x190 PUSH1 0x4 DUP1 CALLDATASIZE SUB DUP2 ADD SWAP1 PUSH2 0x18B SWAP2 SWAP1 PUSH2 0xDDE JUMP JUMPDEST PUSH2 0x805 JUMP JUMPDEST STOP JUMPDEST PUSH2 0x1AC PUSH1 0x4 DUP1 CALLDATASIZE SUB DUP2 ADD SWAP1 PUSH2 0x1A7 SWAP2 SWAP1 PUSH2 0xDDE JUMP JUMPDEST PUSH2 0x89E JUMP JUMPDEST STOP JUMPDEST PUSH2 0x1C8 PUSH1 0x4 DUP1 CALLDATASIZE SUB DUP2 ADD SWAP1 PUSH2 0x1C3 SWAP2 SWAP1 PUSH2 0xDDE JUMP JUMPDEST PUSH2 0xA60 JUMP JUMPDEST STOP JUMPDEST PUSH2 0x1D2 PUSH2 0xD68 JUMP JUMPDEST PUSH1 0x40 MLOAD PUSH2 0x1DF SWAP2 SWAP1 PUSH2 0xE9D JUMP JUMPDEST PUSH1 0x40 MLOAD DUP1 SWAP2 SUB SWAP1 RETURN JUMPDEST PUSH2 0x1F0 PUSH2 0xD6E JUMP JUMPDEST PUSH1 0x40 MLOAD PUSH2 0x1FD SWAP2 SWAP1 PUSH2 0xF39 JUMP JUMPDEST PUSH1 0x40 MLOAD DUP1 SWAP2 SUB SWAP1 RETURN JUMPDEST PUSH2 0x220 PUSH1 0x4 DUP1 CALLDATASIZE SUB DUP2 ADD SWAP1 PUSH2 0x21B SWAP2 SWAP1 PUSH2 0xE63 JUMP JUMPDEST PUSH2 0xD92 JUMP JUMPDEST PUSH1 0x40 MLOAD PUSH2 0x22D SWAP2 SWAP1 PUSH2 0xE9D JUMP JUMPDEST PUSH1 0x40 MLOAD DUP1 SWAP2 SUB SWAP1 RETURN JUMPDEST PUSH0 PUSH8 0xDE0B6B3A7640000 PUSH1 0x3 SLOAD PUSH1 0x5 PUSH0 CALLER PUSH20 0xFFFFFFFFFFFFFFFFFFFFFFFFFFFFFFFFFFFFFFFF AND PUSH20 0xFFFFFFFFFFFFFFFFFFFFFFFFFFFFFFFFFFFFFFFF AND DUP2 MSTORE PUSH1 0x20 ADD SWAP1 DUP2 MSTORE PUSH1 0x20 ADD PUSH0 KECCAK256 SLOAD PUSH2 0x28B SWAP2 SWAP1 PUSH2 0xF7F JUMP JUMPDEST PUSH2 0x295 SWAP2 SWAP1 PUSH2 0xFED JUMP JUMPDEST SWAP1 POP DUP2 PUSH1 0x4 PUSH0 CALLER PUSH20 0xFFFFFFFFFFFFFFFFFFFFFFFFFFFFFFFFFFFFFFFF AND PUSH20 0xFFFFFFFFFFFFFFFFFFFFFFFFFFFFFFFFFFFFFFFF AND DUP2 MSTORE PUSH1 0x20 ADD SWAP1 DUP2 MSTORE PUSH1 0x20 ADD PUSH0 KECCAK256 SLOAD LT ISZERO PUSH2 0x317 JUMPI PUSH1 0x40 MLOAD PUSH32 0x8C379A000000000000000000000000000000000000000000000000000000000 DUP2 MSTORE PUSH1 0x4 ADD PUSH2 0x30E SWAP1 PUSH2 0x1077 JUMP JUMPDEST PUSH1 0x40 MLOAD DUP1 SWAP2 SUB SWAP1 REVERT JUMPDEST DUP1 DUP3 PUSH1 0x4 PUSH0 CALLER PUSH20 0xFFFFFFFFFFFFFFFFFFFFFFFFFFFFFFFFFFFFFFFF AND PUSH20 0xFFFFFFFFFFFFFFFFFFFFFFFFFFFFFFFFFFFFFFFF AND DUP2 MSTORE PUSH1 0x20 ADD SWAP1 DUP2 MSTORE PUSH1 0x20 ADD PUSH0 KECCAK256 SLOAD PUSH2 0x361 SWAP2 SWAP1 PUSH2 0x1095 JUMP JUMPDEST LT ISZERO PUSH2 0x3A2 JUMPI PUSH1 0x40 MLOAD PUSH32 0x8C379A000000000000000000000000000000000000000000000000000000000 DUP2 MSTORE PUSH1 0x4 ADD PUSH2 0x399 SWAP1 PUSH2 0x1112 JUMP JUMPDEST PUSH1 0x40 MLOAD DUP1 SWAP2 SUB SWAP1 REVERT JUMPDEST DUP2 PUSH1 0x4 PUSH0 CALLER PUSH20 0xFFFFFFFFFFFFFFFFFFFFFFFFFFFFFFFFFFFFFFFF AND PUSH20 0xFFFFFFFFFFFFFFFFFFFFFFFFFFFFFFFFFFFFFFFF AND DUP2 MSTORE PUSH1 0x20 ADD SWAP1 DUP2 MSTORE PUSH1 0x20 ADD PUSH0 KECCAK256 PUSH0 DUP3 DUP3 SLOAD PUSH2 0x3EE SWAP2 SWAP1 PUSH2 0x1095 JUMP JUMPDEST SWAP3 POP POP DUP2 SWAP1 SSTORE POP PUSH0 PUSH0 SWAP1 SLOAD SWAP1 PUSH2 0x100 EXP SWAP1 DIV PUSH20 0xFFFFFFFFFFFFFFFFFFFFFFFFFFFFFFFFFFFFFFFF AND PUSH20 0xFFFFFFFFFFFFFFFFFFFFFFFFFFFFFFFFFFFFFFFF AND PUSH4 0xA9059CBB CALLER DUP5 PUSH1 0x40 MLOAD DUP4 PUSH4 0xFFFFFFFF AND PUSH1 0xE0 SHL DUP2 MSTORE PUSH1 0x4 ADD PUSH2 0x450 SWAP3 SWAP2 SWAP1 PUSH2 0x1130 JUMP JUMPDEST PUSH1 0x20 PUSH1 0x40 MLOAD DUP1 DUP4 SUB DUP2 PUSH0 DUP8 GAS CALL ISZERO DUP1 ISZERO PUSH2 0x46C JUMPI RETURNDATASIZE PUSH0 PUSH0 RETURNDATACOPY RETURNDATASIZE PUSH0 REVERT JUMPDEST POP POP POP POP PUSH1 0x40 MLOAD RETURNDATASIZE PUSH1 0x1F NOT PUSH1 0x1F DUP3 ADD AND DUP3 ADD DUP1 PUSH1 0x40 MSTORE POP DUP2 ADD SWAP1 PUSH2 0x490 SWAP2 SWAP1 PUSH2 0x118C JUMP JUMPDEST PUSH2 0x4CF JUMPI PUSH1 0x40 MLOAD PUSH32 0x8C379A000000000000000000000000000000000000000000000000000000000 DUP2 MSTORE PUSH1 0x4 ADD PUSH2 0x4C6 SWAP1 PUSH2 0x1201 JUMP JUMPDEST PUSH1 0x40 MLOAD DUP1 SWAP2 SUB SWAP1 REVERT JUMPDEST CALLER PUSH20 0xFFFFFFFFFFFFFFFFFFFFFFFFFFFFFFFFFFFFFFFF AND PUSH32 0x7084F5476618D8E60B11EF0D7D3F06914655ADB8793E28FF7F018D4C76D505D5 DUP4 PUSH1 0x40 MLOAD PUSH2 0x515 SWAP2 SWAP1 PUSH2 0xE9D JUMP JUMPDEST PUSH1 0x40 MLOAD DUP1 SWAP2 SUB SWAP1 LOG2 POP POP JUMP JUMPDEST PUSH0 DUP2 GT DUP1 ISZERO PUSH2 0x56D JUMPI POP DUP1 PUSH1 0x5 PUSH0 CALLER PUSH20 0xFFFFFFFFFFFFFFFFFFFFFFFFFFFFFFFFFFFFFFFF AND PUSH20 0xFFFFFFFFFFFFFFFFFFFFFFFFFFFFFFFFFFFFFFFF AND DUP2 MSTORE PUSH1 0x20 ADD SWAP1 DUP2 MSTORE PUSH1 0x20 ADD PUSH0 KECCAK256 SLOAD LT ISZERO JUMPDEST PUSH2 0x5AC JUMPI PUSH1 0x40 MLOAD PUSH32 0x8C379A000000000000000000000000000000000000000000000000000000000 DUP2 MSTORE PUSH1 0x4 ADD PUSH2 0x5A3 SWAP1 PUSH2 0x1269 JUMP JUMPDEST PUSH1 0x40 MLOAD DUP1 SWAP2 SUB SWAP1 REVERT JUMPDEST PUSH0 PUSH0 SWAP1 SLOAD SWAP1 PUSH2 0x100 EXP SWAP1 DIV PUSH20 0xFFFFFFFFFFFFFFFFFFFFFFFFFFFFFFFFFFFFFFFF AND PUSH20 0xFFFFFFFFFFFFFFFFFFFFFFFFFFFFFFFFFFFFFFFF AND PUSH4 0x23B872DD CALLER ADDRESS DUP5 PUSH1 0x40 MLOAD DUP5 PUSH4 0xFFFFFFFF AND PUSH1 0xE0 SHL DUP2 MSTORE PUSH1 0x4 ADD PUSH2 0x609 SWAP4 SWAP3 SWAP2 SWAP1 PUSH2 0x1287 JUMP JUMPDEST PUSH1 0x20 PUSH1 0x40 MLOAD DUP1 DUP4 SUB DUP2 PUSH0 DUP8 GAS CALL ISZERO DUP1 ISZERO PUSH2 0x625 JUMPI RETURNDATASIZE PUSH0 PUSH0 RETURNDATACOPY RETURNDATASIZE PUSH0 REVERT JUMPDEST POP POP POP POP PUSH1 0x40 MLOAD RETURNDATASIZE PUSH1 0x1F NOT PUSH1 0x1F DUP3 ADD AND DUP3 ADD DUP1 PUSH1 0x40 MSTORE POP DUP2 ADD SWAP1 PUSH2 0x649 SWAP2 SWAP1 PUSH2 0x118C JUMP JUMPDEST PUSH2 0x688 JUMPI PUSH1 0x40 MLOAD PUSH32 0x8C379A000000000000000000000000000000000000000000000000000000000 DUP2 MSTORE PUSH1 0x4 ADD PUSH2 0x67F SWAP1 PUSH2 0x1306 JUMP JUMPDEST PUSH1 0x40 MLOAD DUP1 SWAP2 SUB SWAP1 REVERT JUMPDEST DUP1 PUSH1 0x5 PUSH0 CALLER PUSH20 0xFFFFFFFFFFFFFFFFFFFFFFFFFFFFFFFFFFFFFFFF AND PUSH20 0xFFFFFFFFFFFFFFFFFFFFFFFFFFFFFFFFFFFFFFFF AND DUP2 MSTORE PUSH1 0x20 ADD SWAP1 DUP2 MSTORE PUSH1 0x20 ADD PUSH0 KECCAK256 PUSH0 DUP3 DUP3 SLOAD PUSH2 0x6D4 SWAP2 SWAP1 PUSH2 0x1095 JUMP JUMPDEST SWAP3 POP POP DUP2 SWAP1 SSTORE POP CALLER PUSH20 0xFFFFFFFFFFFFFFFFFFFFFFFFFFFFFFFFFFFFFFFF AND PUSH32 0x516911BCC3A0A7412A44601057C0A0A1EC628BDE049A84284BC428866534488 DUP3 PUSH1 0x40 MLOAD PUSH2 0x721 SWAP2 SWAP1 PUSH2 0xE9D JUMP JUMPDEST PUSH1 0x40 MLOAD DUP1 SWAP2 SUB SWAP1 LOG2 POP JUMP JUMPDEST PUSH1 0x5 PUSH1 0x20 MSTORE DUP1 PUSH0 MSTORE PUSH1 0x40 PUSH0 KECCAK256 PUSH0 SWAP2 POP SWAP1 POP SLOAD DUP2 JUMP JUMPDEST PUSH1 0x1 PUSH0 SWAP1 SLOAD SWAP1 PUSH2 0x100 EXP SWAP1 DIV PUSH20 0xFFFFFFFFFFFFFFFFFFFFFFFFFFFFFFFFFFFFFFFF AND PUSH20 0xFFFFFFFFFFFFFFFFFFFFFFFFFFFFFFFFFFFFFFFF AND CALLER PUSH20 0xFFFFFFFFFFFFFFFFFFFFFFFFFFFFFFFFFFFFFFFF AND EQ PUSH2 0x7D0 JUMPI PUSH1 0x40 MLOAD PUSH32 0x8C379A000000000000000000000000000000000000000000000000000000000 DUP2 MSTORE PUSH1 0x4 ADD PUSH2 0x7C7 SWAP1 PUSH2 0x136E JUMP JUMPDEST PUSH1 0x40 MLOAD DUP1 SWAP2 SUB SWAP1 REVERT JUMPDEST DUP1 PUSH1 0x2 DUP2 SWAP1 SSTORE POP POP JUMP JUMPDEST PUSH1 0x2 SLOAD DUP2 JUMP JUMPDEST PUSH1 0x1 PUSH0 SWAP1 SLOAD SWAP1 PUSH2 0x100 EXP SWAP1 DIV PUSH20 0xFFFFFFFFFFFFFFFFFFFFFFFFFFFFFFFFFFFFFFFF AND DUP2 JUMP JUMPDEST PUSH1 0x1 PUSH0 SWAP1 SLOAD SWAP1 PUSH2 0x100 EXP SWAP1 DIV PUSH20 0xFFFFFFFFFFFFFFFFFFFFFFFFFFFFFFFFFFFFFFFF AND PUSH20 0xFFFFFFFFFFFFFFFFFFFFFFFFFFFFFFFFFFFFFFFF AND CALLER PUSH20 0xFFFFFFFFFFFFFFFFFFFFFFFFFFFFFFFFFFFFFFFF AND EQ PUSH2 0x894 JUMPI PUSH1 0x40 MLOAD PUSH32 0x8C379A000000000000000000000000000000000000000000000000000000000 DUP2 MSTORE PUSH1 0x4 ADD PUSH2 0x88B SWAP1 PUSH2 0x136E JUMP JUMPDEST PUSH1 0x40 MLOAD DUP1 SWAP2 SUB SWAP1 REVERT JUMPDEST DUP1 PUSH1 0x3 DUP2 SWAP1 SSTORE POP POP JUMP JUMPDEST PUSH0 DUP2 GT PUSH2 0x8E0 JUMPI PUSH1 0x40 MLOAD PUSH32 0x8C379A000000000000000000000000000000000000000000000000000000000 DUP2 MSTORE PUSH1 0x4 ADD PUSH2 0x8D7 SWAP1 PUSH2 0x13D6 JUMP JUMPDEST PUSH1 0x40 MLOAD DUP1 SWAP2 SUB SWAP1 REVERT JUMPDEST PUSH0 PUSH0 SWAP1 SLOAD SWAP1 PUSH2 0x100 EXP SWAP1 DIV PUSH20 0xFFFFFFFFFFFFFFFFFFFFFFFFFFFFFFFFFFFFFFFF AND PUSH20 0xFFFFFFFFFFFFFFFFFFFFFFFFFFFFFFFFFFFFFFFF AND PUSH4 0x23B872DD CALLER ADDRESS DUP5 PUSH1 0x40 MLOAD DUP5 PUSH4 0xFFFFFFFF AND PUSH1 0xE0 SHL DUP2 MSTORE PUSH1 0x4 ADD PUSH2 0x93D SWAP4 SWAP3 SWAP2 SWAP1 PUSH2 0x1287 JUMP JUMPDEST PUSH1 0x20 PUSH1 0x40 MLOAD DUP1 DUP4 SUB DUP2 PUSH0 DUP8 GAS CALL ISZERO DUP1 ISZERO PUSH2 0x959 JUMPI RETURNDATASIZE PUSH0 PUSH0 RETURNDATACOPY RETURNDATASIZE PUSH0 REVERT JUMPDEST POP POP POP POP PUSH1 0x40 MLOAD RETURNDATASIZE PUSH1 0x1F NOT PUSH1 0x1F DUP3 ADD AND DUP3 ADD DUP1 PUSH1 0x40 MSTORE POP DUP2 ADD SWAP1 PUSH2 0x97D SWAP2 SWAP1 PUSH2 0x118C JUMP JUMPDEST PUSH2 0x9BC JUMPI PUSH1 0x40 MLOAD PUSH32 0x8C379A000000000000000000000000000000000000000000000000000000000 DUP2 MSTORE PUSH1 0x4 ADD PUSH2 0x9B3 SWAP1 PUSH2 0x1306 JUMP JUMPDEST PUSH1 0x40 MLOAD DUP1 SWAP2 SUB SWAP1 REVERT JUMPDEST DUP1 PUSH1 0x4 PUSH0 CALLER PUSH20 0xFFFFFFFFFFFFFFFFFFFFFFFFFFFFFFFFFFFFFFFF AND PUSH20 0xFFFFFFFFFFFFFFFFFFFFFFFFFFFFFFFFFFFFFFFF AND DUP2 MSTORE PUSH1 0x20 ADD SWAP1 DUP2 MSTORE PUSH1 0x20 ADD PUSH0 KECCAK256 PUSH0 DUP3 DUP3 SLOAD PUSH2 0xA08 SWAP2 SWAP1 PUSH2 0x13F4 JUMP JUMPDEST SWAP3 POP POP DUP2 SWAP1 SSTORE POP CALLER PUSH20 0xFFFFFFFFFFFFFFFFFFFFFFFFFFFFFFFFFFFFFFFF AND PUSH32 0x2DA466A7B24304F47E87FA2E1E5A81B9831CE54FEC19055CE277CA2F39BA42C4 DUP3 PUSH1 0x40 MLOAD PUSH2 0xA55 SWAP2 SWAP1 PUSH2 0xE9D JUMP JUMPDEST PUSH1 0x40 MLOAD DUP1 SWAP2 SUB SWAP1 LOG2 POP JUMP JUMPDEST PUSH0 PUSH1 0x3 SLOAD PUSH8 0xDE0B6B3A7640000 PUSH1 0x4 PUSH0 CALLER PUSH20 0xFFFFFFFFFFFFFFFFFFFFFFFFFFFFFFFFFFFFFFFF AND PUSH20 0xFFFFFFFFFFFFFFFFFFFFFFFFFFFFFFFFFFFFFFFF AND DUP2 MSTORE PUSH1 0x20 ADD SWAP1 DUP2 MSTORE PUSH1 0x20 ADD PUSH0 KECCAK256 SLOAD PUSH2 0xAB5 SWAP2 SWAP1 PUSH2 0xF7F JUMP JUMPDEST PUSH2 0xABF SWAP2 SWAP1 PUSH2 0xFED JUMP JUMPDEST SWAP1 POP PUSH0 DUP3 GT DUP1 ISZERO PUSH2 0xAD0 JUMPI POP DUP1 DUP3 GT ISZERO JUMPDEST PUSH2 0xB0F JUMPI PUSH1 0x40 MLOAD PUSH32 0x8C379A000000000000000000000000000000000000000000000000000000000 DUP2 MSTORE PUSH1 0x4 ADD PUSH2 0xB06 SWAP1 PUSH2 0x1471 JUMP JUMPDEST PUSH1 0x40 MLOAD DUP1 SWAP2 SUB SWAP1 REVERT JUMPDEST DUP2 PUSH0 PUSH0 SWAP1 SLOAD SWAP1 PUSH2 0x100 EXP SWAP1 DIV PUSH20 0xFFFFFFFFFFFFFFFFFFFFFFFFFFFFFFFFFFFFFFFF AND PUSH20 0xFFFFFFFFFFFFFFFFFFFFFFFFFFFFFFFFFFFFFFFF AND PUSH4 0x70A08231 ADDRESS PUSH1 0x40 MLOAD DUP3 PUSH4 0xFFFFFFFF AND PUSH1 0xE0 SHL DUP2 MSTORE PUSH1 0x4 ADD PUSH2 0xB69 SWAP2 SWAP1 PUSH2 0xEC5 JUMP JUMPDEST PUSH1 0x20 PUSH1 0x40 MLOAD DUP1 DUP4 SUB DUP2 DUP7 GAS STATICCALL ISZERO DUP1 ISZERO PUSH2 0xB84 JUMPI RETURNDATASIZE PUSH0 PUSH0 RETURNDATACOPY RETURNDATASIZE PUSH0 REVERT JUMPDEST POP POP POP POP PUSH1 0x40 MLOAD RETURNDATASIZE PUSH1 0x1F NOT PUSH1 0x1F DUP3 ADD AND DUP3 ADD DUP1 PUSH1 0x40 MSTORE POP DUP2 ADD SWAP1 PUSH2 0xBA8 SWAP2 SWAP1 PUSH2 0x14A3 JUMP JUMPDEST LT ISZERO PUSH2 0xBE9 JUMPI PUSH1 0x40 MLOAD PUSH32 0x8C379A000000000000000000000000000000000000000000000000000000000 DUP2 MSTORE PUSH1 0x4 ADD PUSH2 0xBE0 SWAP1 PUSH2 0x1518 JUMP JUMPDEST PUSH1 0x40 MLOAD DUP1 SWAP2 SUB SWAP1 REVERT JUMPDEST DUP2 PUSH1 0x5 PUSH0 CALLER PUSH20 0xFFFFFFFFFFFFFFFFFFFFFFFFFFFFFFFFFFFFFFFF AND PUSH20 0xFFFFFFFFFFFFFFFFFFFFFFFFFFFFFFFFFFFFFFFF AND DUP2 MSTORE PUSH1 0x20 ADD SWAP1 DUP2 MSTORE PUSH1 0x20 ADD PUSH0 KECCAK256 PUSH0 DUP3 DUP3 SLOAD PUSH2 0xC35 SWAP2 SWAP1 PUSH2 0x13F4 JUMP JUMPDEST SWAP3 POP POP DUP2 SWAP1 SSTORE POP PUSH0 PUSH0 SWAP1 SLOAD SWAP1 PUSH2 0x100 EXP SWAP1 DIV PUSH20 0xFFFFFFFFFFFFFFFFFFFFFFFFFFFFFFFFFFFFFFFF AND PUSH20 0xFFFFFFFFFFFFFFFFFFFFFFFFFFFFFFFFFFFFFFFF AND PUSH4 0xA9059CBB CALLER DUP5 PUSH1 0x40 MLOAD DUP4 PUSH4 0xFFFFFFFF AND PUSH1 0xE0 SHL DUP2 MSTORE PUSH1 0x4 ADD PUSH2 0xC97 SWAP3 SWAP2 SWAP1 PUSH2 0x1130 JUMP JUMPDEST PUSH1 0x20 PUSH1 0x40 MLOAD DUP1 DUP4 SUB DUP2 PUSH0 DUP8 GAS CALL ISZERO DUP1 ISZERO PUSH2 0xCB3 JUMPI RETURNDATASIZE PUSH0 PUSH0 RETURNDATACOPY RETURNDATASIZE PUSH0 REVERT JUMPDEST POP POP POP POP PUSH1 0x40 MLOAD RETURNDATASIZE PUSH1 0x1F NOT PUSH1 0x1F DUP3 ADD AND DUP3 ADD DUP1 PUSH1 0x40 MSTORE POP DUP2 ADD SWAP1 PUSH2 0xCD7 SWAP2 SWAP1 PUSH2 0x118C JUMP JUMPDEST PUSH2 0xD16 JUMPI PUSH1 0x40 MLOAD PUSH32 0x8C379A000000000000000000000000000000000000000000000000000000000 DUP2 MSTORE PUSH1 0x4 ADD PUSH2 0xD0D SWAP1 PUSH2 0x1580 JUMP JUMPDEST PUSH1 0x40 MLOAD DUP1 SWAP2 SUB SWAP1 REVERT JUMPDEST CALLER PUSH20 0xFFFFFFFFFFFFFFFFFFFFFFFFFFFFFFFFFFFFFFFF AND PUSH32 0xAC59582E5396ACA512FA873A2047E7F4C80F8F55D4A06CB34A78A0187F62719F DUP4 PUSH1 0x40 MLOAD PUSH2 0xD5C SWAP2 SWAP1 PUSH2 0xE9D JUMP JUMPDEST PUSH1 0x40 MLOAD DUP1 SWAP2 SUB SWAP1 LOG2 POP POP JUMP JUMPDEST PUSH1 0x3 SLOAD DUP2 JUMP JUMPDEST PUSH0 PUSH0 SWAP1 SLOAD SWAP1 PUSH2 0x100 EXP SWAP1 DIV PUSH20 0xFFFFFFFFFFFFFFFFFFFFFFFFFFFFFFFFFFFFFFFF AND DUP2 JUMP JUMPDEST PUSH1 0x4 PUSH1 0x20 MSTORE DUP1 PUSH0 MSTORE PUSH1 0x40 PUSH0 KECCAK256 PUSH0 SWAP2 POP SWAP1 POP SLOAD DUP2 JUMP JUMPDEST PUSH0 PUSH0 REVERT JUMPDEST PUSH0 DUP2 SWAP1 POP SWAP2 SWAP1 POP JUMP JUMPDEST PUSH2 0xDBD DUP2 PUSH2 0xDAB JUMP JUMPDEST DUP2 EQ PUSH2 0xDC7 JUMPI PUSH0 PUSH0 REVERT JUMPDEST POP JUMP JUMPDEST PUSH0 DUP2 CALLDATALOAD SWAP1 POP PUSH2 0xDD8 DUP2 PUSH2 0xDB4 JUMP JUMPDEST SWAP3 SWAP2 POP POP JUMP JUMPDEST PUSH0 PUSH1 0x20 DUP3 DUP5 SUB SLT ISZERO PUSH2 0xDF3 JUMPI PUSH2 0xDF2 PUSH2 0xDA7 JUMP JUMPDEST JUMPDEST PUSH0 PUSH2 0xE00 DUP5 DUP3 DUP6 ADD PUSH2 0xDCA JUMP JUMPDEST SWAP2 POP POP SWAP3 SWAP2 POP POP JUMP JUMPDEST PUSH0 PUSH20 0xFFFFFFFFFFFFFFFFFFFFFFFFFFFFFFFFFFFFFFFF DUP3 AND SWAP1 POP SWAP2 SWAP1 POP JUMP JUMPDEST PUSH0 PUSH2 0xE32 DUP3 PUSH2 0xE09 JUMP JUMPDEST SWAP1 POP SWAP2 SWAP1 POP JUMP JUMPDEST PUSH2 0xE42 DUP2 PUSH2 0xE28 JUMP JUMPDEST DUP2 EQ PUSH2 0xE4C JUMPI PUSH0 PUSH0 REVERT JUMPDEST POP JUMP JUMPDEST PUSH0 DUP2 CALLDATALOAD SWAP1 POP PUSH2 0xE5D DUP2 PUSH2 0xE39 JUMP JUMPDEST SWAP3 SWAP2 POP POP JUMP JUMPDEST PUSH0 PUSH1 0x20 DUP3 DUP5 SUB SLT ISZERO PUSH2 0xE78 JUMPI PUSH2 0xE77 PUSH2 0xDA7 JUMP JUMPDEST JUMPDEST PUSH0 PUSH2 0xE85 DUP5 DUP3 DUP6 ADD PUSH2 0xE4F JUMP JUMPDEST SWAP2 POP POP SWAP3 SWAP2 POP POP JUMP JUMPDEST PUSH2 0xE97 DUP2 PUSH2 0xDAB JUMP JUMPDEST DUP3 MSTORE POP POP JUMP JUMPDEST PUSH0 PUSH1 0x20 DUP3 ADD SWAP1 POP PUSH2 0xEB0 PUSH0 DUP4 ADD DUP5 PUSH2 0xE8E JUMP JUMPDEST SWAP3 SWAP2 POP POP JUMP JUMPDEST PUSH2 0xEBF DUP2 PUSH2 0xE28 JUMP JUMPDEST DUP3 MSTORE POP POP JUMP JUMPDEST PUSH0 PUSH1 0x20 DUP3 ADD SWAP1 POP PUSH2 0xED8 PUSH0 DUP4 ADD DUP5 PUSH2 0xEB6 JUMP JUMPDEST SWAP3 SWAP2 POP POP JUMP JUMPDEST PUSH0 DUP2 SWAP1 POP SWAP2 SWAP1 POP JUMP JUMPDEST PUSH0 PUSH2 0xF01 PUSH2 0xEFC PUSH2 0xEF7 DUP5 PUSH2 0xE09 JUMP JUMPDEST PUSH2 0xEDE JUMP JUMPDEST PUSH2 0xE09 JUMP JUMPDEST SWAP1 POP SWAP2 SWAP1 POP JUMP JUMPDEST PUSH0 PUSH2 0xF12 DUP3 PUSH2 0xEE7 JUMP JUMPDEST SWAP1 POP SWAP2 SWAP1 POP JUMP JUMPDEST PUSH0 PUSH2 0xF23 DUP3 PUSH2 0xF08 JUMP JUMPDEST SWAP1 POP SWAP2 SWAP1 POP JUMP JUMPDEST PUSH2 0xF33 DUP2 PUSH2 0xF19 JUMP JUMPDEST DUP3 MSTORE POP POP JUMP JUMPDEST PUSH0 PUSH1 0x20 DUP3 ADD SWAP1 POP PUSH2 0xF4C PUSH0 DUP4 ADD DUP5 PUSH2 0xF2A JUMP JUMPDEST SWAP3 SWAP2 POP POP JUMP JUMPDEST PUSH32 0x4E487B7100000000000000000000000000000000000000000000000000000000 PUSH0 MSTORE PUSH1 0x11 PUSH1 0x4 MSTORE PUSH1 0x24 PUSH0 REVERT JUMPDEST PUSH0 PUSH2 0xF89 DUP3 PUSH2 0xDAB JUMP JUMPDEST SWAP2 POP PUSH2 0xF94 DUP4 PUSH2 0xDAB JUMP JUMPDEST SWAP3 POP DUP3 DUP3 MUL PUSH2 0xFA2 DUP2 PUSH2 0xDAB JUMP JUMPDEST SWAP2 POP DUP3 DUP3 DIV DUP5 EQ DUP4 ISZERO OR PUSH2 0xFB9 JUMPI PUSH2 0xFB8 PUSH2 0xF52 JUMP JUMPDEST JUMPDEST POP SWAP3 SWAP2 POP POP JUMP JUMPDEST PUSH32 0x4E487B7100000000000000000000000000000000000000000000000000000000 PUSH0 MSTORE PUSH1 0x12 PUSH1 0x4 MSTORE PUSH1 0x24 PUSH0 REVERT JUMPDEST PUSH0 PUSH2 0xFF7 DUP3 PUSH2 0xDAB JUMP JUMPDEST SWAP2 POP PUSH2 0x1002 DUP4 PUSH2 0xDAB JUMP JUMPDEST SWAP3 POP DUP3 PUSH2 0x1012 JUMPI PUSH2 0x1011 PUSH2 0xFC0 JUMP JUMPDEST JUMPDEST DUP3 DUP3 DIV SWAP1 POP SWAP3 SWAP2 POP POP JUMP JUMPDEST PUSH0 DUP3 DUP3 MSTORE PUSH1 0x20 DUP3 ADD SWAP1 POP SWAP3 SWAP2 POP POP JUMP JUMPDEST PUSH32 0x4E6F7420656E6F756768206465706F7369746564000000000000000000000000 PUSH0 DUP3 ADD MSTORE POP JUMP JUMPDEST PUSH0 PUSH2 0x1061 PUSH1 0x14 DUP4 PUSH2 0x101D JUMP JUMPDEST SWAP2 POP PUSH2 0x106C DUP3 PUSH2 0x102D JUMP JUMPDEST PUSH1 0x20 DUP3 ADD SWAP1 POP SWAP2 SWAP1 POP JUMP JUMPDEST PUSH0 PUSH1 0x20 DUP3 ADD SWAP1 POP DUP2 DUP2 SUB PUSH0 DUP4 ADD MSTORE PUSH2 0x108E DUP2 PUSH2 0x1055 JUMP JUMPDEST SWAP1 POP SWAP2 SWAP1 POP JUMP JUMPDEST PUSH0 PUSH2 0x109F DUP3 PUSH2 0xDAB JUMP JUMPDEST SWAP2 POP PUSH2 0x10AA DUP4 PUSH2 0xDAB JUMP JUMPDEST SWAP3 POP DUP3 DUP3 SUB SWAP1 POP DUP2 DUP2 GT ISZERO PUSH2 0x10C2 JUMPI PUSH2 0x10C1 PUSH2 0xF52 JUMP JUMPDEST JUMPDEST SWAP3 SWAP2 POP POP JUMP JUMPDEST PUSH32 0x436F6C6C61746572616C206C6F636B6564000000000000000000000000000000 PUSH0 DUP3 ADD MSTORE POP JUMP JUMPDEST PUSH0 PUSH2 0x10FC PUSH1 0x11 DUP4 PUSH2 0x101D JUMP JUMPDEST SWAP2 POP PUSH2 0x1107 DUP3 PUSH2 0x10C8 JUMP JUMPDEST PUSH1 0x20 DUP3 ADD SWAP1 POP SWAP2 SWAP1 POP JUMP JUMPDEST PUSH0 PUSH1 0x20 DUP3 ADD SWAP1 POP DUP2 DUP2 SUB PUSH0 DUP4 ADD MSTORE PUSH2 0x1129 DUP2 PUSH2 0x10F0 JUMP JUMPDEST SWAP1 POP SWAP2 SWAP1 POP JUMP JUMPDEST PUSH0 PUSH1 0x40 DUP3 ADD SWAP1 POP PUSH2 0x1143 PUSH0 DUP4 ADD DUP6 PUSH2 0xEB6 JUMP JUMPDEST PUSH2 0x1150 PUSH1 0x20 DUP4 ADD DUP5 PUSH2 0xE8E JUMP JUMPDEST SWAP4 SWAP3 POP POP POP JUMP JUMPDEST PUSH0 DUP2 ISZERO ISZERO SWAP1 POP SWAP2 SWAP1 POP JUMP JUMPDEST PUSH2 0x116B DUP2 PUSH2 0x1157 JUMP JUMPDEST DUP2 EQ PUSH2 0x1175 JUMPI PUSH0 PUSH0 REVERT JUMPDEST POP JUMP JUMPDEST PUSH0 DUP2 MLOAD SWAP1 POP PUSH2 0x1186 DUP2 PUSH2 0x1162 JUMP JUMPDEST SWAP3 SWAP2 POP POP JUMP JUMPDEST PUSH0 PUSH1 0x20 DUP3 DUP5 SUB SLT ISZERO PUSH2 0x11A1 JUMPI PUSH2 0x11A0 PUSH2 0xDA7 JUMP JUMPDEST JUMPDEST PUSH0 PUSH2 0x11AE DUP5 DUP3 DUP6 ADD PUSH2 0x1178 JUMP JUMPDEST SWAP2 POP POP SWAP3 SWAP2 POP POP JUMP JUMPDEST PUSH32 0x5769746864726177207472616E73666572206661696C65640000000000000000 PUSH0 DUP3 ADD MSTORE POP JUMP JUMPDEST PUSH0 PUSH2 0x11EB PUSH1 0x18 DUP4 PUSH2 0x101D JUMP JUMPDEST SWAP2 POP PUSH2 0x11F6 DUP3 PUSH2 0x11B7 JUMP JUMPDEST PUSH1 0x20 DUP3 ADD SWAP1 POP SWAP2 SWAP1 POP JUMP JUMPDEST PUSH0 PUSH1 0x20 DUP3 ADD SWAP1 POP DUP2 DUP2 SUB PUSH0 DUP4 ADD MSTORE PUSH2 0x1218 DUP2 PUSH2 0x11DF JUMP JUMPDEST SWAP1 POP SWAP2 SWAP1 POP JUMP JUMPDEST PUSH32 0x496E76616C696420726570617900000000000000000000000000000000000000 PUSH0 DUP3 ADD MSTORE POP JUMP JUMPDEST PUSH0 PUSH2 0x1253 PUSH1 0xD DUP4 PUSH2 0x101D JUMP JUMPDEST SWAP2 POP PUSH2 0x125E DUP3 PUSH2 0x121F JUMP JUMPDEST PUSH1 0x20 DUP3 ADD SWAP1 POP SWAP2 SWAP1 POP JUMP JUMPDEST PUSH0 PUSH1 0x20 DUP3 ADD SWAP1 POP DUP2 DUP2 SUB PUSH0 DUP4 ADD MSTORE PUSH2 0x1280 DUP2 PUSH2 0x1247 JUMP JUMPDEST SWAP1 POP SWAP2 SWAP1 POP JUMP JUMPDEST PUSH0 PUSH1 0x60 DUP3 ADD SWAP1 POP PUSH2 0x129A PUSH0 DUP4 ADD DUP7 PUSH2 0xEB6 JUMP JUMPDEST PUSH2 0x12A7 PUSH1 0x20 DUP4 ADD DUP6 PUSH2 0xEB6 JUMP JUMPDEST PUSH2 0x12B4 PUSH1 0x40 DUP4 ADD DUP5 PUSH2 0xE8E JUMP JUMPDEST SWAP5 SWAP4 POP POP POP POP JUMP JUMPDEST PUSH32 0x5472616E73666572206661696C65640000000000000000000000000000000000 PUSH0 DUP3 ADD MSTORE POP JUMP JUMPDEST PUSH0 PUSH2 0x12F0 PUSH1 0xF DUP4 PUSH2 0x101D JUMP JUMPDEST SWAP2 POP PUSH2 0x12FB DUP3 PUSH2 0x12BC JUMP JUMPDEST PUSH1 0x20 DUP3 ADD SWAP1 POP SWAP2 SWAP1 POP JUMP JUMPDEST PUSH0 PUSH1 0x20 DUP3 ADD SWAP1 POP DUP2 DUP2 SUB PUSH0 DUP4 ADD MSTORE PUSH2 0x131D DUP2 PUSH2 0x12E4 JUMP JUMPDEST SWAP1 POP SWAP2 SWAP1 POP JUMP JUMPDEST PUSH32 0x4E6F74206F776E65720000000000000000000000000000000000000000000000 PUSH0 DUP3 ADD MSTORE POP JUMP JUMPDEST PUSH0 PUSH2 0x1358 PUSH1 0x9 DUP4 PUSH2 0x101D JUMP JUMPDEST SWAP2 POP PUSH2 0x1363 DUP3 PUSH2 0x1324 JUMP JUMPDEST PUSH1 0x20 DUP3 ADD SWAP1 POP SWAP2 SWAP1 POP JUMP JUMPDEST PUSH0 PUSH1 0x20 DUP3 ADD SWAP1 POP DUP2 DUP2 SUB PUSH0 DUP4 ADD MSTORE PUSH2 0x1385 DUP2 PUSH2 0x134C JUMP JUMPDEST SWAP1 POP SWAP2 SWAP1 POP JUMP JUMPDEST PUSH32 0x416D6F756E74206D75737420626520706F736974697665000000000000000000 PUSH0 DUP3 ADD MSTORE POP JUMP JUMPDEST PUSH0 PUSH2 0x13C0 PUSH1 0x17 DUP4 PUSH2 0x101D JUMP JUMPDEST SWAP2 POP PUSH2 0x13CB DUP3 PUSH2 0x138C JUMP JUMPDEST PUSH1 0x20 DUP3 ADD SWAP1 POP SWAP2 SWAP1 POP JUMP JUMPDEST PUSH0 PUSH1 0x20 DUP3 ADD SWAP1 POP DUP2 DUP2 SUB PUSH0 DUP4 ADD MSTORE PUSH2 0x13ED DUP2 PUSH2 0x13B4 JUMP JUMPDEST SWAP1 POP SWAP2 SWAP1 POP JUMP JUMPDEST PUSH0 PUSH2 0x13FE DUP3 PUSH2 0xDAB JUMP JUMPDEST SWAP2 POP PUSH2 0x1409 DUP4 PUSH2 0xDAB JUMP JUMPDEST SWAP3 POP DUP3 DUP3 ADD SWAP1 POP DUP1 DUP3 GT ISZERO PUSH2 0x1421 JUMPI PUSH2 0x1420 PUSH2 0xF52 JUMP JUMPDEST JUMPDEST SWAP3 SWAP2 POP POP JUMP JUMPDEST PUSH32 0x416D6F756E7420746F6F2068696768206F72207A65726F000000000000000000 PUSH0 DUP3 ADD MSTORE POP JUMP JUMPDEST PUSH0 PUSH2 0x145B PUSH1 0x17 DUP4 PUSH2 0x101D JUMP JUMPDEST SWAP2 POP PUSH2 0x1466 DUP3 PUSH2 0x1427 JUMP JUMPDEST PUSH1 0x20 DUP3 ADD SWAP1 POP SWAP2 SWAP1 POP JUMP JUMPDEST PUSH0 PUSH1 0x20 DUP3 ADD SWAP1 POP DUP2 DUP2 SUB PUSH0 DUP4 ADD MSTORE PUSH2 0x1488 DUP2 PUSH2 0x144F JUMP JUMPDEST SWAP1 POP SWAP2 SWAP1 POP JUMP JUMPDEST PUSH0 DUP2 MLOAD SWAP1 POP PUSH2 0x149D DUP2 PUSH2 0xDB4 JUMP JUMPDEST SWAP3 SWAP2 POP POP JUMP JUMPDEST PUSH0 PUSH1 0x20 DUP3 DUP5 SUB SLT ISZERO PUSH2 0x14B8 JUMPI PUSH2 0x14B7 PUSH2 0xDA7 JUMP JUMPDEST JUMPDEST PUSH0 PUSH2 0x14C5 DUP5 DUP3 DUP6 ADD PUSH2 0x148F JUMP JUMPDEST SWAP2 POP POP SWAP3 SWAP2 POP POP JUMP JUMPDEST PUSH32 0x496E73756666696369656E74206C697175696469747900000000000000000000 PUSH0 DUP3 ADD MSTORE POP JUMP JUMPDEST PUSH0 PUSH2 0x1502 PUSH1 0x16 DUP4 PUSH2 0x101D JUMP JUMPDEST SWAP2 POP PUSH2 0x150D DUP3 PUSH2 0x14CE JUMP JUMPDEST PUSH1 0x20 DUP3 ADD SWAP1 POP SWAP2 SWAP1 POP JUMP JUMPDEST PUSH0 PUSH1 0x20 DUP3 ADD SWAP1 POP DUP2 DUP2 SUB PUSH0 DUP4 ADD MSTORE PUSH2 0x152F DUP2 PUSH2 0x14F6 JUMP JUMPDEST SWAP1 POP SWAP2 SWAP1 POP JUMP JUMPDEST PUSH32 0x426F72726F7720746F6B656E207472616E73666572206661696C656400000000 PUSH0 DUP3 ADD MSTORE POP JUMP JUMPDEST PUSH0 PUSH2 0x156A PUSH1 0x1C DUP4 PUSH2 0x101D JUMP JUMPDEST SWAP2 POP PUSH2 0x1575 DUP3 PUSH2 0x1536 JUMP JUMPDEST PUSH1 0x20 DUP3 ADD SWAP1 POP SWAP2 SWAP1 POP JUMP JUMPDEST PUSH0 PUSH1 0x20 DUP3 ADD SWAP1 POP DUP2 DUP2 SUB PUSH0 DUP4 ADD MSTORE PUSH2 0x1597 DUP2 PUSH2 0x155E JUMP JUMPDEST SWAP1 POP SWAP2 SWAP1 POP JUMP INVALID LOG2 PUSH5 0x6970667358 0x22 SLT KECCAK256 SWAP5 0xEB BALANCE EXTSTATICCALL ISZERO TIMESTAMP NUMBER PUSH24 0x744BFA3200EC3727718A897C492DB1588FFE6B3F470C1BC9 PUSH5 0x736F6C6343 STOP ADDMOD 0x1E STOP CALLER "
		},
		"gasEstimates": {
			"creation": {
				"codeDepositCost": "1117600",
				"executionCost": "infinite",
				"totalCost": "infinite"
			},
			"external": {
				"borrow(uint256)": "infinite",
				"borrows(address)": "2847",
				"collateralFactor()": "2491",
				"deposit(uint256)": "infinite",
				"deposits(address)": "2912",
				"interestRate()": "2514",
				"owner()": "2619",
				"repay(uint256)": "infinite",
				"setCollateralFactor(uint256)": "24684",
				"setInterestRate(uint256)": "24751",
				"token()": "infinite",
				"withdraw(uint256)": "infinite"
			}
		},
		"methodIdentifiers": {
			"borrow(uint256)": "c5ebeaec",
			"borrows(address)": "54a5706f",
			"collateralFactor()": "df011c41",
			"deposit(uint256)": "b6b55f25",
			"deposits(address)": "fc7e286d",
			"interestRate()": "7c3a00fd",
			"owner()": "8da5cb5b",
			"repay(uint256)": "371fd8e6",
			"setCollateralFactor(uint256)": "b5c22157",
			"setInterestRate(uint256)": "5f84f302",
			"token()": "fc0c546a",
			"withdraw(uint256)": "2e1a7d4d"
		}
	},
	"abi": [
		{
			"inputs": [
				{
					"internalType": "address",
					"name": "_token",
					"type": "address"
				},
				{
					"internalType": "uint256",
					"name": "_interestRate",
					"type": "uint256"
				},
				{
					"internalType": "uint256",
					"name": "_collateralFactor",
					"type": "uint256"
				}
			],
			"stateMutability": "nonpayable",
			"type": "constructor"
		},
		{
			"anonymous": false,
			"inputs": [
				{
					"indexed": true,
					"internalType": "address",
					"name": "user",
					"type": "address"
				},
				{
					"indexed": false,
					"internalType": "uint256",
					"name": "amount",
					"type": "uint256"
				}
			],
			"name": "Borrowed",
			"type": "event"
		},
		{
			"anonymous": false,
			"inputs": [
				{
					"indexed": true,
					"internalType": "address",
					"name": "user",
					"type": "address"
				},
				{
					"indexed": false,
					"internalType": "uint256",
					"name": "amount",
					"type": "uint256"
				}
			],
			"name": "Deposited",
			"type": "event"
		},
		{
			"anonymous": false,
			"inputs": [
				{
					"indexed": true,
					"internalType": "address",
					"name": "user",
					"type": "address"
				},
				{
					"indexed": false,
					"internalType": "uint256",
					"name": "repaid",
					"type": "uint256"
				}
			],
			"name": "Repaid",
			"type": "event"
		},
		{
			"anonymous": false,
			"inputs": [
				{
					"indexed": true,
					"internalType": "address",
					"name": "user",
					"type": "address"
				},
				{
					"indexed": false,
					"internalType": "uint256",
					"name": "amount",
					"type": "uint256"
				}
			],
			"name": "Withdrawn",
			"type": "event"
		},
		{
			"inputs": [
				{
					"internalType": "uint256",
					"name": "amount",
					"type": "uint256"
				}
			],
			"name": "borrow",
			"outputs": [],
			"stateMutability": "nonpayable",
			"type": "function"
		},
		{
			"inputs": [
				{
					"internalType": "address",
					"name": "",
					"type": "address"
				}
			],
			"name": "borrows",
			"outputs": [
				{
					"internalType": "uint256",
					"name": "",
					"type": "uint256"
				}
			],
			"stateMutability": "view",
			"type": "function"
		},
		{
			"inputs": [],
			"name": "collateralFactor",
			"outputs": [
				{
					"internalType": "uint256",
					"name": "",
					"type": "uint256"
				}
			],
			"stateMutability": "view",
			"type": "function"
		},
		{
			"inputs": [
				{
					"internalType": "uint256",
					"name": "amount",
					"type": "uint256"
				}
			],
			"name": "deposit",
			"outputs": [],
			"stateMutability": "nonpayable",
			"type": "function"
		},
		{
			"inputs": [
				{
					"internalType": "address",
					"name": "",
					"type": "address"
				}
			],
			"name": "deposits",
			"outputs": [
				{
					"internalType": "uint256",
					"name": "",
					"type": "uint256"
				}
			],
			"stateMutability": "view",
			"type": "function"
		},
		{
			"inputs": [],
			"name": "interestRate",
			"outputs": [
				{
					"internalType": "uint256",
					"name": "",
					"type": "uint256"
				}
			],
			"stateMutability": "view",
			"type": "function"
		},
		{
			"inputs": [],
			"name": "owner",
			"outputs": [
				{
					"internalType": "address",
					"name": "",
					"type": "address"
				}
			],
			"stateMutability": "view",
			"type": "function"
		},
		{
			"inputs": [
				{
					"internalType": "uint256",
					"name": "amount",
					"type": "uint256"
				}
			],
			"name": "repay",
			"outputs": [],
			"stateMutability": "nonpayable",
			"type": "function"
		},
		{
			"inputs": [
				{
					"internalType": "uint256",
					"name": "_factor",
					"type": "uint256"
				}
			],
			"name": "setCollateralFactor",
			"outputs": [],
			"stateMutability": "nonpayable",
			"type": "function"
		},
		{
			"inputs": [
				{
					"internalType": "uint256",
					"name": "_rate",
					"type": "uint256"
				}
			],
			"name": "setInterestRate",
			"outputs": [],
			"stateMutability": "nonpayable",
			"type": "function"
		},
		{
			"inputs": [],
			"name": "token",
			"outputs": [
				{
					"internalType": "contract IERC20",
					"name": "",
					"type": "address"
				}
			],
			"stateMutability": "view",
			"type": "function"
		},
		{
			"inputs": [
				{
					"internalType": "uint256",
					"name": "amount",
					"type": "uint256"
				}
			],
			"name": "withdraw",
			"outputs": [],
			"stateMutability": "nonpayable",
			"type": "function"
		}
	]
}