{
	"data": {
		"bytecode": {
			"linkReferences": {},
			"object": "608060405234801561000f575f5ffd5b506040516127d73803806127d7833981810160405281019061003191906102df565b5f8111610073576040517f08c379a000000000000000000000000000000000000000000000000000000000815260040161006a90610364565b60405180910390fd5b33600c5f6101000a81548173ffffffffffffffffffffffffffffffffffffffff021916908373ffffffffffffffffffffffffffffffffffffffff1602179055503373ffffffffffffffffffffffffffffffffffffffff165f73ffffffffffffffffffffffffffffffffffffffff167f8be0079c531659141344cd1fd0a4f28419497f9722a3daafe3b4186f6b6457e060405160405180910390a36040518060400160405280600681526020017f546f6b656e4100000000000000000000000000000000000000000000000000008152505f5f01908161015291906105b6565b506040518060400160405280600381526020017f544b4100000000000000000000000000000000000000000000000000000000008152505f600101908161019991906105b6565b5060125f6002015f6101000a81548160ff021916908360ff1602179055506040518060400160405280600681526020017f546f6b656e42000000000000000000000000000000000000000000000000000081525060065f0190816101fd91906105b6565b506040518060400160405280600381526020017f544b4200000000000000000000000000000000000000000000000000000000008152506006600101908161024591906105b6565b50601260066002015f6101000a81548160ff021916908360ff16021790555080600d819055507f388f446e9526fe5c9af20a5919b342370c8a7c0cb05245afe1e545658fa3cdba8160405161029a9190610694565b60405180910390a1506106ad565b5f5ffd5b5f819050919050565b6102be816102ac565b81146102c8575f5ffd5b50565b5f815190506102d9816102b5565b92915050565b5f602082840312156102f4576102f36102a8565b5b5f610301848285016102cb565b91505092915050565b5f82825260208201905092915050565b7f496e76616c6964207261746500000000000000000000000000000000000000005f82015250565b5f61034e600c8361030a565b91506103598261031a565b602082019050919050565b5f6020820190508181035f83015261037b81610342565b9050919050565b5f81519050919050565b7f4e487b71000000000000000000000000000000000000000000000000000000005f52604160045260245ffd5b7f4e487b71000000000000000000000000000000000000000000000000000000005f52602260045260245ffd5b5f60028204905060018216806103fd57607f821691505b6020821081036104105761040f6103b9565b5b50919050565b5f819050815f5260205f209050919050565b5f6020601f8301049050919050565b5f82821b905092915050565b5f600883026104727fffffffffffffffffffffffffffffffffffffffffffffffffffffffffffffffff82610437565b61047c8683610437565b95508019841693508086168417925050509392505050565b5f819050919050565b5f6104b76104b26104ad846102ac565b610494565b6102ac565b9050919050565b5f819050919050565b6104d08361049d565b6104e46104dc826104be565b848454610443565b825550505050565b5f5f905090565b6104fb6104ec565b6105068184846104c7565b505050565b5b818110156105295761051e5f826104f3565b60018101905061050c565b5050565b601f82111561056e5761053f81610416565b61054884610428565b81016020851015610557578190505b61056b61056385610428565b83018261050b565b50505b505050565b5f82821c905092915050565b5f61058e5f1984600802610573565b1980831691505092915050565b5f6105a6838361057f565b9150826002028217905092915050565b6105bf82610382565b67ffffffffffffffff8111156105d8576105d761038c565b5b6105e282546103e6565b6105ed82828561052d565b5f60209050601f83116001811461061e575f841561060c578287015190505b610616858261059b565b86555061067d565b601f19841661062c86610416565b5f5b828110156106535784890151825560018201915060208501945060208101905061062e565b86831015610670578489015161066c601f89168261057f565b8355505b6001600288020188555050505b505050505050565b61068e816102ac565b82525050565b5f6020820190506106a75f830184610685565b92915050565b61211d806106ba5f395ff3fe608060405234801561000f575f5ffd5b50600436106100fe575f3560e01c80638da5cb5b11610095578063db068e0e11610064578063db068e0e146102f6578063ef60e3b114610312578063f2fc86031461032e578063f2fde38b1461035e576100fe565b80638da5cb5b1461027057806394b918de1461028e578063984c0450146102aa578063b9acd876146102c6576100fe565b806361c03aa2116100d157806361c03aa2146101b057806375f3f304146101e0578063899426491461021057806389a903b114610240576100fe565b806308e6d07e146101025780631903b431146101325780633ba0b9a91461016257806352ab855a14610180575b5f5ffd5b61011c60048036038101906101179190611758565b61037a565b604051610129919061179e565b60405180910390f35b61014c60048036038101906101479190611811565b6103b0565b6040516101599190611867565b60405180910390f35b61016a610445565b6040516101779190611867565b60405180910390f35b61019a600480360381019061019591906118aa565b61044b565b6040516101a79190611909565b60405180910390f35b6101ca60048036038101906101c59190611758565b61061d565b6040516101d79190611992565b60405180910390f35b6101fa60048036038101906101f591906118aa565b6106bf565b6040516102079190611909565b60405180910390f35b61022a60048036038101906102259190611758565b6107e4565b6040516102379190611867565b60405180910390f35b61025a600480360381019061025591906119b2565b610802565b6040516102679190611909565b60405180910390f35b610278610b22565b6040516102859190611a25565b60405180910390f35b6102a860048036038101906102a39190611a3e565b610b47565b005b6102c460048036038101906102bf9190611a69565b610fa9565b005b6102e060048036038101906102db9190611758565b61117a565b6040516102ed9190611992565b60405180910390f35b610310600480360381019061030b9190611a3e565b61121e565b005b61032c600480360381019061032791906118aa565b611330565b005b61034860048036038101906103439190611aa7565b6114cd565b6040516103559190611867565b60405180910390f35b61037860048036038101906103739190611af7565b611564565b005b5f816103975760066002015f9054906101000a900460ff166103a9565b5f6002015f9054906101000a900460ff165b9050919050565b5f826103fc5760066004015f8373ffffffffffffffffffffffffffffffffffffffff1673ffffffffffffffffffffffffffffffffffffffff1681526020019081526020015f205461043d565b5f6004015f8373ffffffffffffffffffffffffffffffffffffffff1673ffffffffffffffffffffffffffffffffffffffff1681526020019081526020015f20545b905092915050565b600d5481565b5f5f8461045957600661045b565b5f5b905082816004015f3373ffffffffffffffffffffffffffffffffffffffff1673ffffffffffffffffffffffffffffffffffffffff1681526020019081526020015f205410156104df576040517f08c379a00000000000000000000000000000000000000000000000000000000081526004016104d690611b6c565b60405180910390fd5b82816004015f3373ffffffffffffffffffffffffffffffffffffffff1673ffffffffffffffffffffffffffffffffffffffff1681526020019081526020015f205f82825461052d9190611bb7565b9250508190555082816004015f8673ffffffffffffffffffffffffffffffffffffffff1673ffffffffffffffffffffffffffffffffffffffff1681526020019081526020015f205f8282546105829190611bea565b925050819055508373ffffffffffffffffffffffffffffffffffffffff163373ffffffffffffffffffffffffffffffffffffffff16866105c2575f6105c4565b305b73ffffffffffffffffffffffffffffffffffffffff167fd1398bee19313d6bf672ccb116e51f4a1a947e91c757907f51fbb5b5e56c698f866040516106099190611867565b60405180910390a460019150509392505050565b60608161062d5760065f01610631565b5f5f015b805461063c90611c4a565b80601f016020809104026020016040519081016040528092919081815260200182805461066890611c4a565b80156106b35780601f1061068a576101008083540402835291602001916106b3565b820191905f5260205f20905b81548152906001019060200180831161069657829003601f168201915b50505050509050919050565b5f5f846106cd5760066106cf565b5f5b905082816005015f3373ffffffffffffffffffffffffffffffffffffffff1673ffffffffffffffffffffffffffffffffffffffff1681526020019081526020015f205f8673ffffffffffffffffffffffffffffffffffffffff1673ffffffffffffffffffffffffffffffffffffffff1681526020019081526020015f20819055508373ffffffffffffffffffffffffffffffffffffffff163373ffffffffffffffffffffffffffffffffffffffff1686610789575f61078b565b305b73ffffffffffffffffffffffffffffffffffffffff167fa0175360a15bca328baf7ea85c7b784d58b222a50d0ce760b10dba336d226a61866040516107d09190611867565b60405180910390a460019150509392505050565b5f816107f5576006600301546107fb565b5f600301545b9050919050565b5f5f85610810576006610812565b5f5b905082816004015f8773ffffffffffffffffffffffffffffffffffffffff1673ffffffffffffffffffffffffffffffffffffffff1681526020019081526020015f20541015610896576040517f08c379a000000000000000000000000000000000000000000000000000000000815260040161088d90611b6c565b60405180910390fd5b82816005015f8773ffffffffffffffffffffffffffffffffffffffff1673ffffffffffffffffffffffffffffffffffffffff1681526020019081526020015f205f3373ffffffffffffffffffffffffffffffffffffffff1673ffffffffffffffffffffffffffffffffffffffff1681526020019081526020015f20541015610953576040517f08c379a000000000000000000000000000000000000000000000000000000000815260040161094a90611cc4565b60405180910390fd5b82816005015f8773ffffffffffffffffffffffffffffffffffffffff1673ffffffffffffffffffffffffffffffffffffffff1681526020019081526020015f205f3373ffffffffffffffffffffffffffffffffffffffff1673ffffffffffffffffffffffffffffffffffffffff1681526020019081526020015f205f8282546109dc9190611bb7565b9250508190555082816004015f8773ffffffffffffffffffffffffffffffffffffffff1673ffffffffffffffffffffffffffffffffffffffff1681526020019081526020015f205f828254610a319190611bb7565b9250508190555082816004015f8673ffffffffffffffffffffffffffffffffffffffff1673ffffffffffffffffffffffffffffffffffffffff1681526020019081526020015f205f828254610a869190611bea565b925050819055508373ffffffffffffffffffffffffffffffffffffffff168573ffffffffffffffffffffffffffffffffffffffff1687610ac6575f610ac8565b305b73ffffffffffffffffffffffffffffffffffffffff167fd1398bee19313d6bf672ccb116e51f4a1a947e91c757907f51fbb5b5e56c698f86604051610b0d9190611867565b60405180910390a46001915050949350505050565b600c5f9054906101000a900473ffffffffffffffffffffffffffffffffffffffff1681565b5f8111610b89576040517f08c379a0000000000000000000000000000000000000000000000000000000008152600401610b8090611d2c565b60405180910390fd5b805f6004015f3373ffffffffffffffffffffffffffffffffffffffff1673ffffffffffffffffffffffffffffffffffffffff1681526020019081526020015f20541015610c0b576040517f08c379a0000000000000000000000000000000000000000000000000000000008152600401610c0290611d94565b60405180910390fd5b805f6005015f3373ffffffffffffffffffffffffffffffffffffffff1673ffffffffffffffffffffffffffffffffffffffff1681526020019081526020015f205f3073ffffffffffffffffffffffffffffffffffffffff1673ffffffffffffffffffffffffffffffffffffffff1681526020019081526020015f20541015610cc8576040517f08c379a0000000000000000000000000000000000000000000000000000000008152600401610cbf90611dfc565b60405180910390fd5b5f670de0b6b3a7640000600d5483610ce09190611e1a565b610cea9190611e88565b90508060066004015f3073ffffffffffffffffffffffffffffffffffffffff1673ffffffffffffffffffffffffffffffffffffffff1681526020019081526020015f20541015610d6f576040517f08c379a0000000000000000000000000000000000000000000000000000000008152600401610d6690611f02565b60405180910390fd5b815f6004015f3373ffffffffffffffffffffffffffffffffffffffff1673ffffffffffffffffffffffffffffffffffffffff1681526020019081526020015f205f828254610dbd9190611bb7565b92505081905550815f6005015f3373ffffffffffffffffffffffffffffffffffffffff1673ffffffffffffffffffffffffffffffffffffffff1681526020019081526020015f205f3073ffffffffffffffffffffffffffffffffffffffff1673ffffffffffffffffffffffffffffffffffffffff1681526020019081526020015f205f828254610e4d9190611bb7565b92505081905550815f6004015f3073ffffffffffffffffffffffffffffffffffffffff1673ffffffffffffffffffffffffffffffffffffffff1681526020019081526020015f205f828254610ea29190611bea565b925050819055508060066004015f3073ffffffffffffffffffffffffffffffffffffffff1673ffffffffffffffffffffffffffffffffffffffff1681526020019081526020015f205f828254610ef89190611bb7565b925050819055508060066004015f3373ffffffffffffffffffffffffffffffffffffffff1673ffffffffffffffffffffffffffffffffffffffff1681526020019081526020015f205f828254610f4e9190611bea565b925050819055503373ffffffffffffffffffffffffffffffffffffffff167f2d043ce009ff53fd444b0f4f5ff4c3f4ee293265203f77f156eeb33b595dfc4f8383604051610f9d929190611f20565b60405180910390a25050565b600c5f9054906101000a900473ffffffffffffffffffffffffffffffffffffffff1673ffffffffffffffffffffffffffffffffffffffff163373ffffffffffffffffffffffffffffffffffffffff1614611038576040517f08c379a000000000000000000000000000000000000000000000000000000000815260040161102f90611f91565b60405180910390fd5b5f82611045576006611047565b5f5b905081816004015f3073ffffffffffffffffffffffffffffffffffffffff1673ffffffffffffffffffffffffffffffffffffffff1681526020019081526020015f205410156110cb576040517f08c379a00000000000000000000000000000000000000000000000000000000081526004016110c290611ff9565b60405180910390fd5b81816004015f3073ffffffffffffffffffffffffffffffffffffffff1673ffffffffffffffffffffffffffffffffffffffff1681526020019081526020015f205f8282546111199190611bb7565b9250508190555081816004015f3373ffffffffffffffffffffffffffffffffffffffff1673ffffffffffffffffffffffffffffffffffffffff1681526020019081526020015f205f82825461116e9190611bea565b92505081905550505050565b60608161118b576006600101611190565b5f6001015b805461119b90611c4a565b80601f01602080910402602001604051908101604052809291908181526020018280546111c790611c4a565b80156112125780601f106111e957610100808354040283529160200191611212565b820191905f5260205f20905b8154815290600101906020018083116111f557829003601f168201915b50505050509050919050565b600c5f9054906101000a900473ffffffffffffffffffffffffffffffffffffffff1673ffffffffffffffffffffffffffffffffffffffff163373ffffffffffffffffffffffffffffffffffffffff16146112ad576040517f08c379a00000000000000000000000000000000000000000000000000000000081526004016112a490611f91565b60405180910390fd5b5f81116112ef576040517f08c379a00000000000000000000000000000000000000000000000000000000081526004016112e690612061565b60405180910390fd5b80600d819055507f388f446e9526fe5c9af20a5919b342370c8a7c0cb05245afe1e545658fa3cdba816040516113259190611867565b60405180910390a150565b600c5f9054906101000a900473ffffffffffffffffffffffffffffffffffffffff1673ffffffffffffffffffffffffffffffffffffffff163373ffffffffffffffffffffffffffffffffffffffff16146113bf576040517f08c379a00000000000000000000000000000000000000000000000000000000081526004016113b690611f91565b60405180910390fd5b5f836113cc5760066113ce565b5f5b905081816004015f8573ffffffffffffffffffffffffffffffffffffffff1673ffffffffffffffffffffffffffffffffffffffff1681526020019081526020015f205f82825461141e9190611bea565b9250508190555081816003015f8282546114389190611bea565b925050819055508273ffffffffffffffffffffffffffffffffffffffff165f73ffffffffffffffffffffffffffffffffffffffff1685611478575f61147a565b305b73ffffffffffffffffffffffffffffffffffffffff167fd1398bee19313d6bf672ccb116e51f4a1a947e91c757907f51fbb5b5e56c698f856040516114bf9190611867565b60405180910390a450505050565b5f5f846114db5760066114dd565b5f5b9050806005015f8573ffffffffffffffffffffffffffffffffffffffff1673ffffffffffffffffffffffffffffffffffffffff1681526020019081526020015f205f8473ffffffffffffffffffffffffffffffffffffffff1673ffffffffffffffffffffffffffffffffffffffff1681526020019081526020015f20549150509392505050565b600c5f9054906101000a900473ffffffffffffffffffffffffffffffffffffffff1673ffffffffffffffffffffffffffffffffffffffff163373ffffffffffffffffffffffffffffffffffffffff16146115f3576040517f08c379a00000000000000000000000000000000000000000000000000000000081526004016115ea90611f91565b60405180910390fd5b5f73ffffffffffffffffffffffffffffffffffffffff168173ffffffffffffffffffffffffffffffffffffffff1603611661576040517f08c379a0000000000000000000000000000000000000000000000000000000008152600401611658906120c9565b60405180910390fd5b8073ffffffffffffffffffffffffffffffffffffffff16600c5f9054906101000a900473ffffffffffffffffffffffffffffffffffffffff1673ffffffffffffffffffffffffffffffffffffffff167f8be0079c531659141344cd1fd0a4f28419497f9722a3daafe3b4186f6b6457e060405160405180910390a380600c5f6101000a81548173ffffffffffffffffffffffffffffffffffffffff021916908373ffffffffffffffffffffffffffffffffffffffff16021790555050565b5f5ffd5b5f8115159050919050565b61173781611723565b8114611741575f5ffd5b50565b5f813590506117528161172e565b92915050565b5f6020828403121561176d5761176c61171f565b5b5f61177a84828501611744565b91505092915050565b5f60ff82169050919050565b61179881611783565b82525050565b5f6020820190506117b15f83018461178f565b92915050565b5f73ffffffffffffffffffffffffffffffffffffffff82169050919050565b5f6117e0826117b7565b9050919050565b6117f0816117d6565b81146117fa575f5ffd5b50565b5f8135905061180b816117e7565b92915050565b5f5f604083850312156118275761182661171f565b5b5f61183485828601611744565b9250506020611845858286016117fd565b9150509250929050565b5f819050919050565b6118618161184f565b82525050565b5f60208201905061187a5f830184611858565b92915050565b6118898161184f565b8114611893575f5ffd5b50565b5f813590506118a481611880565b92915050565b5f5f5f606084860312156118c1576118c061171f565b5b5f6118ce86828701611744565b93505060206118df868287016117fd565b92505060406118f086828701611896565b9150509250925092565b61190381611723565b82525050565b5f60208201905061191c5f8301846118fa565b92915050565b5f81519050919050565b5f82825260208201905092915050565b8281835e5f83830152505050565b5f601f19601f8301169050919050565b5f61196482611922565b61196e818561192c565b935061197e81856020860161193c565b6119878161194a565b840191505092915050565b5f6020820190508181035f8301526119aa818461195a565b905092915050565b5f5f5f5f608085870312156119ca576119c961171f565b5b5f6119d787828801611744565b94505060206119e8878288016117fd565b93505060406119f9878288016117fd565b9250506060611a0a87828801611896565b91505092959194509250565b611a1f816117d6565b82525050565b5f602082019050611a385f830184611a16565b92915050565b5f60208284031215611a5357611a5261171f565b5b5f611a6084828501611896565b91505092915050565b5f5f60408385031215611a7f57611a7e61171f565b5b5f611a8c85828601611744565b9250506020611a9d85828601611896565b9150509250929050565b5f5f5f60608486031215611abe57611abd61171f565b5b5f611acb86828701611744565b9350506020611adc868287016117fd565b9250506040611aed868287016117fd565b9150509250925092565b5f60208284031215611b0c57611b0b61171f565b5b5f611b19848285016117fd565b91505092915050565b7f496e73756666696369656e742062616c616e63650000000000000000000000005f82015250565b5f611b5660148361192c565b9150611b6182611b22565b602082019050919050565b5f6020820190508181035f830152611b8381611b4a565b9050919050565b7f4e487b71000000000000000000000000000000000000000000000000000000005f52601160045260245ffd5b5f611bc18261184f565b9150611bcc8361184f565b9250828203905081811115611be457611be3611b8a565b5b92915050565b5f611bf48261184f565b9150611bff8361184f565b9250828201905080821115611c1757611c16611b8a565b5b92915050565b7f4e487b71000000000000000000000000000000000000000000000000000000005f52602260045260245ffd5b5f6002820490506001821680611c6157607f821691505b602082108103611c7457611c73611c1d565b5b50919050565b7f4e6f7420616c6c6f7765640000000000000000000000000000000000000000005f82015250565b5f611cae600b8361192c565b9150611cb982611c7a565b602082019050919050565b5f6020820190508181035f830152611cdb81611ca2565b9050919050565b7f5a65726f20696e707574000000000000000000000000000000000000000000005f82015250565b5f611d16600a8361192c565b9150611d2182611ce2565b602082019050919050565b5f6020820190508181035f830152611d4381611d0a565b9050919050565b7f496e73756666696369656e7420546f6b656e41000000000000000000000000005f82015250565b5f611d7e60138361192c565b9150611d8982611d4a565b602082019050919050565b5f6020820190508181035f830152611dab81611d72565b9050919050565b7f546f6b656e41206e6f7420617070726f766564000000000000000000000000005f82015250565b5f611de660138361192c565b9150611df182611db2565b602082019050919050565b5f6020820190508181035f830152611e1381611dda565b9050919050565b5f611e248261184f565b9150611e2f8361184f565b9250828202611e3d8161184f565b91508282048414831517611e5457611e53611b8a565b5b5092915050565b7f4e487b71000000000000000000000000000000000000000000000000000000005f52601260045260245ffd5b5f611e928261184f565b9150611e9d8361184f565b925082611ead57611eac611e5b565b5b828204905092915050565b7f496e73756666696369656e7420546f6b656e4220696e20636f6e7472616374005f82015250565b5f611eec601f8361192c565b9150611ef782611eb8565b602082019050919050565b5f6020820190508181035f830152611f1981611ee0565b9050919050565b5f604082019050611f335f830185611858565b611f406020830184611858565b9392505050565b7f4e6f74206f776e657200000000000000000000000000000000000000000000005f82015250565b5f611f7b60098361192c565b9150611f8682611f47565b602082019050919050565b5f6020820190508181035f830152611fa881611f6f565b9050919050565b7f496e73756666696369656e742066756e647300000000000000000000000000005f82015250565b5f611fe360128361192c565b9150611fee82611faf565b602082019050919050565b5f6020820190508181035f83015261201081611fd7565b9050919050565b7f5a65726f207261746500000000000000000000000000000000000000000000005f82015250565b5f61204b60098361192c565b915061205682612017565b602082019050919050565b5f6020820190508181035f8301526120788161203f565b9050919050565b7f5a65726f206164647265737300000000000000000000000000000000000000005f82015250565b5f6120b3600c8361192c565b91506120be8261207f565b602082019050919050565b5f6020820190508181035f8301526120e0816120a7565b905091905056fea26469706673582212202467ac00fb93951b63b703d95602833922a0fc00056df047ce277218a13210eb64736f6c634300081e0033",
			"opcodes": "PUSH1 0x80 PUSH1 0x40 MSTORE CALLVALUE DUP1 ISZERO PUSH2 0xF JUMPI PUSH0 PUSH0 REVERT JUMPDEST POP PUSH1 0x40 MLOAD PUSH2 0x27D7 CODESIZE SUB DUP1 PUSH2 0x27D7 DUP4 CODECOPY DUP2 DUP2 ADD PUSH1 0x40 MSTORE DUP2 ADD SWAP1 PUSH2 0x31 SWAP2 SWAP1 PUSH2 0x2DF JUMP JUMPDEST PUSH0 DUP2 GT PUSH2 0x73 JUMPI PUSH1 0x40 MLOAD PUSH32 0x8C379A000000000000000000000000000000000000000000000000000000000 DUP2 MSTORE PUSH1 0x4 ADD PUSH2 0x6A SWAP1 PUSH2 0x364 JUMP JUMPDEST PUSH1 0x40 MLOAD DUP1 SWAP2 SUB SWAP1 REVERT JUMPDEST CALLER PUSH1 0xC PUSH0 PUSH2 0x100 EXP DUP2 SLOAD DUP2 PUSH20 0xFFFFFFFFFFFFFFFFFFFFFFFFFFFFFFFFFFFFFFFF MUL NOT AND SWAP1 DUP4 PUSH20 0xFFFFFFFFFFFFFFFFFFFFFFFFFFFFFFFFFFFFFFFF AND MUL OR SWAP1 SSTORE POP CALLER PUSH20 0xFFFFFFFFFFFFFFFFFFFFFFFFFFFFFFFFFFFFFFFF AND PUSH0 PUSH20 0xFFFFFFFFFFFFFFFFFFFFFFFFFFFFFFFFFFFFFFFF AND PUSH32 0x8BE0079C531659141344CD1FD0A4F28419497F9722A3DAAFE3B4186F6B6457E0 PUSH1 0x40 MLOAD PUSH1 0x40 MLOAD DUP1 SWAP2 SUB SWAP1 LOG3 PUSH1 0x40 MLOAD DUP1 PUSH1 0x40 ADD PUSH1 0x40 MSTORE DUP1 PUSH1 0x6 DUP2 MSTORE PUSH1 0x20 ADD PUSH32 0x546F6B656E410000000000000000000000000000000000000000000000000000 DUP2 MSTORE POP PUSH0 PUSH0 ADD SWAP1 DUP2 PUSH2 0x152 SWAP2 SWAP1 PUSH2 0x5B6 JUMP JUMPDEST POP PUSH1 0x40 MLOAD DUP1 PUSH1 0x40 ADD PUSH1 0x40 MSTORE DUP1 PUSH1 0x3 DUP2 MSTORE PUSH1 0x20 ADD PUSH32 0x544B410000000000000000000000000000000000000000000000000000000000 DUP2 MSTORE POP PUSH0 PUSH1 0x1 ADD SWAP1 DUP2 PUSH2 0x199 SWAP2 SWAP1 PUSH2 0x5B6 JUMP JUMPDEST POP PUSH1 0x12 PUSH0 PUSH1 0x2 ADD PUSH0 PUSH2 0x100 EXP DUP2 SLOAD DUP2 PUSH1 0xFF MUL NOT AND SWAP1 DUP4 PUSH1 0xFF AND MUL OR SWAP1 SSTORE POP PUSH1 0x40 MLOAD DUP1 PUSH1 0x40 ADD PUSH1 0x40 MSTORE DUP1 PUSH1 0x6 DUP2 MSTORE PUSH1 0x20 ADD PUSH32 0x546F6B656E420000000000000000000000000000000000000000000000000000 DUP2 MSTORE POP PUSH1 0x6 PUSH0 ADD SWAP1 DUP2 PUSH2 0x1FD SWAP2 SWAP1 PUSH2 0x5B6 JUMP JUMPDEST POP PUSH1 0x40 MLOAD DUP1 PUSH1 0x40 ADD PUSH1 0x40 MSTORE DUP1 PUSH1 0x3 DUP2 MSTORE PUSH1 0x20 ADD PUSH32 0x544B420000000000000000000000000000000000000000000000000000000000 DUP2 MSTORE POP PUSH1 0x6 PUSH1 0x1 ADD SWAP1 DUP2 PUSH2 0x245 SWAP2 SWAP1 PUSH2 0x5B6 JUMP JUMPDEST POP PUSH1 0x12 PUSH1 0x6 PUSH1 0x2 ADD PUSH0 PUSH2 0x100 EXP DUP2 SLOAD DUP2 PUSH1 0xFF MUL NOT AND SWAP1 DUP4 PUSH1 0xFF AND MUL OR SWAP1 SSTORE POP DUP1 PUSH1 0xD DUP2 SWAP1 SSTORE POP PUSH32 0x388F446E9526FE5C9AF20A5919B342370C8A7C0CB05245AFE1E545658FA3CDBA DUP2 PUSH1 0x40 MLOAD PUSH2 0x29A SWAP2 SWAP1 PUSH2 0x694 JUMP JUMPDEST PUSH1 0x40 MLOAD DUP1 SWAP2 SUB SWAP1 LOG1 POP PUSH2 0x6AD JUMP JUMPDEST PUSH0 PUSH0 REVERT JUMPDEST PUSH0 DUP2 SWAP1 POP SWAP2 SWAP1 POP JUMP JUMPDEST PUSH2 0x2BE DUP2 PUSH2 0x2AC JUMP JUMPDEST DUP2 EQ PUSH2 0x2C8 JUMPI PUSH0 PUSH0 REVERT JUMPDEST POP JUMP JUMPDEST PUSH0 DUP2 MLOAD SWAP1 POP PUSH2 0x2D9 DUP2 PUSH2 0x2B5 JUMP JUMPDEST SWAP3 SWAP2 POP POP JUMP JUMPDEST PUSH0 PUSH1 0x20 DUP3 DUP5 SUB SLT ISZERO PUSH2 0x2F4 JUMPI PUSH2 0x2F3 PUSH2 0x2A8 JUMP JUMPDEST JUMPDEST PUSH0 PUSH2 0x301 DUP5 DUP3 DUP6 ADD PUSH2 0x2CB JUMP JUMPDEST SWAP2 POP POP SWAP3 SWAP2 POP POP JUMP JUMPDEST PUSH0 DUP3 DUP3 MSTORE PUSH1 0x20 DUP3 ADD SWAP1 POP SWAP3 SWAP2 POP POP JUMP JUMPDEST PUSH32 0x496E76616C696420726174650000000000000000000000000000000000000000 PUSH0 DUP3 ADD MSTORE POP JUMP JUMPDEST PUSH0 PUSH2 0x34E PUSH1 0xC DUP4 PUSH2 0x30A JUMP JUMPDEST SWAP2 POP PUSH2 0x359 DUP3 PUSH2 0x31A JUMP JUMPDEST PUSH1 0x20 DUP3 ADD SWAP1 POP SWAP2 SWAP1 POP JUMP JUMPDEST PUSH0 PUSH1 0x20 DUP3 ADD SWAP1 POP DUP2 DUP2 SUB PUSH0 DUP4 ADD MSTORE PUSH2 0x37B DUP2 PUSH2 0x342 JUMP JUMPDEST SWAP1 POP SWAP2 SWAP1 POP JUMP JUMPDEST PUSH0 DUP2 MLOAD SWAP1 POP SWAP2 SWAP1 POP JUMP JUMPDEST PUSH32 0x4E487B7100000000000000000000000000000000000000000000000000000000 PUSH0 MSTORE PUSH1 0x41 PUSH1 0x4 MSTORE PUSH1 0x24 PUSH0 REVERT JUMPDEST PUSH32 0x4E487B7100000000000000000000000000000000000000000000000000000000 PUSH0 MSTORE PUSH1 0x22 PUSH1 0x4 MSTORE PUSH1 0x24 PUSH0 REVERT JUMPDEST PUSH0 PUSH1 0x2 DUP3 DIV SWAP1 POP PUSH1 0x1 DUP3 AND DUP1 PUSH2 0x3FD JUMPI PUSH1 0x7F DUP3 AND SWAP2 POP JUMPDEST PUSH1 0x20 DUP3 LT DUP2 SUB PUSH2 0x410 JUMPI PUSH2 0x40F PUSH2 0x3B9 JUMP JUMPDEST JUMPDEST POP SWAP2 SWAP1 POP JUMP JUMPDEST PUSH0 DUP2 SWAP1 POP DUP2 PUSH0 MSTORE PUSH1 0x20 PUSH0 KECCAK256 SWAP1 POP SWAP2 SWAP1 POP JUMP JUMPDEST PUSH0 PUSH1 0x20 PUSH1 0x1F DUP4 ADD DIV SWAP1 POP SWAP2 SWAP1 POP JUMP JUMPDEST PUSH0 DUP3 DUP3 SHL SWAP1 POP SWAP3 SWAP2 POP POP JUMP JUMPDEST PUSH0 PUSH1 0x8 DUP4 MUL PUSH2 0x472 PUSH32 0xFFFFFFFFFFFFFFFFFFFFFFFFFFFFFFFFFFFFFFFFFFFFFFFFFFFFFFFFFFFFFFFF DUP3 PUSH2 0x437 JUMP JUMPDEST PUSH2 0x47C DUP7 DUP4 PUSH2 0x437 JUMP JUMPDEST SWAP6 POP DUP1 NOT DUP5 AND SWAP4 POP DUP1 DUP7 AND DUP5 OR SWAP3 POP POP POP SWAP4 SWAP3 POP POP POP JUMP JUMPDEST PUSH0 DUP2 SWAP1 POP SWAP2 SWAP1 POP JUMP JUMPDEST PUSH0 PUSH2 0x4B7 PUSH2 0x4B2 PUSH2 0x4AD DUP5 PUSH2 0x2AC JUMP JUMPDEST PUSH2 0x494 JUMP JUMPDEST PUSH2 0x2AC JUMP JUMPDEST SWAP1 POP SWAP2 SWAP1 POP JUMP JUMPDEST PUSH0 DUP2 SWAP1 POP SWAP2 SWAP1 POP JUMP JUMPDEST PUSH2 0x4D0 DUP4 PUSH2 0x49D JUMP JUMPDEST PUSH2 0x4E4 PUSH2 0x4DC DUP3 PUSH2 0x4BE JUMP JUMPDEST DUP5 DUP5 SLOAD PUSH2 0x443 JUMP JUMPDEST DUP3 SSTORE POP POP POP POP JUMP JUMPDEST PUSH0 PUSH0 SWAP1 POP SWAP1 JUMP JUMPDEST PUSH2 0x4FB PUSH2 0x4EC JUMP JUMPDEST PUSH2 0x506 DUP2 DUP5 DUP5 PUSH2 0x4C7 JUMP JUMPDEST POP POP POP JUMP JUMPDEST JUMPDEST DUP2 DUP2 LT ISZERO PUSH2 0x529 JUMPI PUSH2 0x51E PUSH0 DUP3 PUSH2 0x4F3 JUMP JUMPDEST PUSH1 0x1 DUP2 ADD SWAP1 POP PUSH2 0x50C JUMP JUMPDEST POP POP JUMP JUMPDEST PUSH1 0x1F DUP3 GT ISZERO PUSH2 0x56E JUMPI PUSH2 0x53F DUP2 PUSH2 0x416 JUMP JUMPDEST PUSH2 0x548 DUP5 PUSH2 0x428 JUMP JUMPDEST DUP2 ADD PUSH1 0x20 DUP6 LT ISZERO PUSH2 0x557 JUMPI DUP2 SWAP1 POP JUMPDEST PUSH2 0x56B PUSH2 0x563 DUP6 PUSH2 0x428 JUMP JUMPDEST DUP4 ADD DUP3 PUSH2 0x50B JUMP JUMPDEST POP POP JUMPDEST POP POP POP JUMP JUMPDEST PUSH0 DUP3 DUP3 SHR SWAP1 POP SWAP3 SWAP2 POP POP JUMP JUMPDEST PUSH0 PUSH2 0x58E PUSH0 NOT DUP5 PUSH1 0x8 MUL PUSH2 0x573 JUMP JUMPDEST NOT DUP1 DUP4 AND SWAP2 POP POP SWAP3 SWAP2 POP POP JUMP JUMPDEST PUSH0 PUSH2 0x5A6 DUP4 DUP4 PUSH2 0x57F JUMP JUMPDEST SWAP2 POP DUP3 PUSH1 0x2 MUL DUP3 OR SWAP1 POP SWAP3 SWAP2 POP POP JUMP JUMPDEST PUSH2 0x5BF DUP3 PUSH2 0x382 JUMP JUMPDEST PUSH8 0xFFFFFFFFFFFFFFFF DUP2 GT ISZERO PUSH2 0x5D8 JUMPI PUSH2 0x5D7 PUSH2 0x38C JUMP JUMPDEST JUMPDEST PUSH2 0x5E2 DUP3 SLOAD PUSH2 0x3E6 JUMP JUMPDEST PUSH2 0x5ED DUP3 DUP3 DUP6 PUSH2 0x52D JUMP JUMPDEST PUSH0 PUSH1 0x20 SWAP1 POP PUSH1 0x1F DUP4 GT PUSH1 0x1 DUP2 EQ PUSH2 0x61E JUMPI PUSH0 DUP5 ISZERO PUSH2 0x60C JUMPI DUP3 DUP8 ADD MLOAD SWAP1 POP JUMPDEST PUSH2 0x616 DUP6 DUP3 PUSH2 0x59B JUMP JUMPDEST DUP7 SSTORE POP PUSH2 0x67D JUMP JUMPDEST PUSH1 0x1F NOT DUP5 AND PUSH2 0x62C DUP7 PUSH2 0x416 JUMP JUMPDEST PUSH0 JUMPDEST DUP3 DUP2 LT ISZERO PUSH2 0x653 JUMPI DUP5 DUP10 ADD MLOAD DUP3 SSTORE PUSH1 0x1 DUP3 ADD SWAP2 POP PUSH1 0x20 DUP6 ADD SWAP5 POP PUSH1 0x20 DUP2 ADD SWAP1 POP PUSH2 0x62E JUMP JUMPDEST DUP7 DUP4 LT ISZERO PUSH2 0x670 JUMPI DUP5 DUP10 ADD MLOAD PUSH2 0x66C PUSH1 0x1F DUP10 AND DUP3 PUSH2 0x57F JUMP JUMPDEST DUP4 SSTORE POP JUMPDEST PUSH1 0x1 PUSH1 0x2 DUP9 MUL ADD DUP9 SSTORE POP POP POP JUMPDEST POP POP POP POP POP POP JUMP JUMPDEST PUSH2 0x68E DUP2 PUSH2 0x2AC JUMP JUMPDEST DUP3 MSTORE POP POP JUMP JUMPDEST PUSH0 PUSH1 0x20 DUP3 ADD SWAP1 POP PUSH2 0x6A7 PUSH0 DUP4 ADD DUP5 PUSH2 0x685 JUMP JUMPDEST SWAP3 SWAP2 POP POP JUMP JUMPDEST PUSH2 0x211D DUP1 PUSH2 0x6BA PUSH0 CODECOPY PUSH0 RETURN INVALID PUSH1 0x80 PUSH1 0x40 MSTORE CALLVALUE DUP1 ISZERO PUSH2 0xF JUMPI PUSH0 PUSH0 REVERT JUMPDEST POP PUSH1 0x4 CALLDATASIZE LT PUSH2 0xFE JUMPI PUSH0 CALLDATALOAD PUSH1 0xE0 SHR DUP1 PUSH4 0x8DA5CB5B GT PUSH2 0x95 JUMPI DUP1 PUSH4 0xDB068E0E GT PUSH2 0x64 JUMPI DUP1 PUSH4 0xDB068E0E EQ PUSH2 0x2F6 JUMPI DUP1 PUSH4 0xEF60E3B1 EQ PUSH2 0x312 JUMPI DUP1 PUSH4 0xF2FC8603 EQ PUSH2 0x32E JUMPI DUP1 PUSH4 0xF2FDE38B EQ PUSH2 0x35E JUMPI PUSH2 0xFE JUMP JUMPDEST DUP1 PUSH4 0x8DA5CB5B EQ PUSH2 0x270 JUMPI DUP1 PUSH4 0x94B918DE EQ PUSH2 0x28E JUMPI DUP1 PUSH4 0x984C0450 EQ PUSH2 0x2AA JUMPI DUP1 PUSH4 0xB9ACD876 EQ PUSH2 0x2C6 JUMPI PUSH2 0xFE JUMP JUMPDEST DUP1 PUSH4 0x61C03AA2 GT PUSH2 0xD1 JUMPI DUP1 PUSH4 0x61C03AA2 EQ PUSH2 0x1B0 JUMPI DUP1 PUSH4 0x75F3F304 EQ PUSH2 0x1E0 JUMPI DUP1 PUSH4 0x89942649 EQ PUSH2 0x210 JUMPI DUP1 PUSH4 0x89A903B1 EQ PUSH2 0x240 JUMPI PUSH2 0xFE JUMP JUMPDEST DUP1 PUSH4 0x8E6D07E EQ PUSH2 0x102 JUMPI DUP1 PUSH4 0x1903B431 EQ PUSH2 0x132 JUMPI DUP1 PUSH4 0x3BA0B9A9 EQ PUSH2 0x162 JUMPI DUP1 PUSH4 0x52AB855A EQ PUSH2 0x180 JUMPI JUMPDEST PUSH0 PUSH0 REVERT JUMPDEST PUSH2 0x11C PUSH1 0x4 DUP1 CALLDATASIZE SUB DUP2 ADD SWAP1 PUSH2 0x117 SWAP2 SWAP1 PUSH2 0x1758 JUMP JUMPDEST PUSH2 0x37A JUMP JUMPDEST PUSH1 0x40 MLOAD PUSH2 0x129 SWAP2 SWAP1 PUSH2 0x179E JUMP JUMPDEST PUSH1 0x40 MLOAD DUP1 SWAP2 SUB SWAP1 RETURN JUMPDEST PUSH2 0x14C PUSH1 0x4 DUP1 CALLDATASIZE SUB DUP2 ADD SWAP1 PUSH2 0x147 SWAP2 SWAP1 PUSH2 0x1811 JUMP JUMPDEST PUSH2 0x3B0 JUMP JUMPDEST PUSH1 0x40 MLOAD PUSH2 0x159 SWAP2 SWAP1 PUSH2 0x1867 JUMP JUMPDEST PUSH1 0x40 MLOAD DUP1 SWAP2 SUB SWAP1 RETURN JUMPDEST PUSH2 0x16A PUSH2 0x445 JUMP JUMPDEST PUSH1 0x40 MLOAD PUSH2 0x177 SWAP2 SWAP1 PUSH2 0x1867 JUMP JUMPDEST PUSH1 0x40 MLOAD DUP1 SWAP2 SUB SWAP1 RETURN JUMPDEST PUSH2 0x19A PUSH1 0x4 DUP1 CALLDATASIZE SUB DUP2 ADD SWAP1 PUSH2 0x195 SWAP2 SWAP1 PUSH2 0x18AA JUMP JUMPDEST PUSH2 0x44B JUMP JUMPDEST PUSH1 0x40 MLOAD PUSH2 0x1A7 SWAP2 SWAP1 PUSH2 0x1909 JUMP JUMPDEST PUSH1 0x40 MLOAD DUP1 SWAP2 SUB SWAP1 RETURN JUMPDEST PUSH2 0x1CA PUSH1 0x4 DUP1 CALLDATASIZE SUB DUP2 ADD SWAP1 PUSH2 0x1C5 SWAP2 SWAP1 PUSH2 0x1758 JUMP JUMPDEST PUSH2 0x61D JUMP JUMPDEST PUSH1 0x40 MLOAD PUSH2 0x1D7 SWAP2 SWAP1 PUSH2 0x1992 JUMP JUMPDEST PUSH1 0x40 MLOAD DUP1 SWAP2 SUB SWAP1 RETURN JUMPDEST PUSH2 0x1FA PUSH1 0x4 DUP1 CALLDATASIZE SUB DUP2 ADD SWAP1 PUSH2 0x1F5 SWAP2 SWAP1 PUSH2 0x18AA JUMP JUMPDEST PUSH2 0x6BF JUMP JUMPDEST PUSH1 0x40 MLOAD PUSH2 0x207 SWAP2 SWAP1 PUSH2 0x1909 JUMP JUMPDEST PUSH1 0x40 MLOAD DUP1 SWAP2 SUB SWAP1 RETURN JUMPDEST PUSH2 0x22A PUSH1 0x4 DUP1 CALLDATASIZE SUB DUP2 ADD SWAP1 PUSH2 0x225 SWAP2 SWAP1 PUSH2 0x1758 JUMP JUMPDEST PUSH2 0x7E4 JUMP JUMPDEST PUSH1 0x40 MLOAD PUSH2 0x237 SWAP2 SWAP1 PUSH2 0x1867 JUMP JUMPDEST PUSH1 0x40 MLOAD DUP1 SWAP2 SUB SWAP1 RETURN JUMPDEST PUSH2 0x25A PUSH1 0x4 DUP1 CALLDATASIZE SUB DUP2 ADD SWAP1 PUSH2 0x255 SWAP2 SWAP1 PUSH2 0x19B2 JUMP JUMPDEST PUSH2 0x802 JUMP JUMPDEST PUSH1 0x40 MLOAD PUSH2 0x267 SWAP2 SWAP1 PUSH2 0x1909 JUMP JUMPDEST PUSH1 0x40 MLOAD DUP1 SWAP2 SUB SWAP1 RETURN JUMPDEST PUSH2 0x278 PUSH2 0xB22 JUMP JUMPDEST PUSH1 0x40 MLOAD PUSH2 0x285 SWAP2 SWAP1 PUSH2 0x1A25 JUMP JUMPDEST PUSH1 0x40 MLOAD DUP1 SWAP2 SUB SWAP1 RETURN JUMPDEST PUSH2 0x2A8 PUSH1 0x4 DUP1 CALLDATASIZE SUB DUP2 ADD SWAP1 PUSH2 0x2A3 SWAP2 SWAP1 PUSH2 0x1A3E JUMP JUMPDEST PUSH2 0xB47 JUMP JUMPDEST STOP JUMPDEST PUSH2 0x2C4 PUSH1 0x4 DUP1 CALLDATASIZE SUB DUP2 ADD SWAP1 PUSH2 0x2BF SWAP2 SWAP1 PUSH2 0x1A69 JUMP JUMPDEST PUSH2 0xFA9 JUMP JUMPDEST STOP JUMPDEST PUSH2 0x2E0 PUSH1 0x4 DUP1 CALLDATASIZE SUB DUP2 ADD SWAP1 PUSH2 0x2DB SWAP2 SWAP1 PUSH2 0x1758 JUMP JUMPDEST PUSH2 0x117A JUMP JUMPDEST PUSH1 0x40 MLOAD PUSH2 0x2ED SWAP2 SWAP1 PUSH2 0x1992 JUMP JUMPDEST PUSH1 0x40 MLOAD DUP1 SWAP2 SUB SWAP1 RETURN JUMPDEST PUSH2 0x310 PUSH1 0x4 DUP1 CALLDATASIZE SUB DUP2 ADD SWAP1 PUSH2 0x30B SWAP2 SWAP1 PUSH2 0x1A3E JUMP JUMPDEST PUSH2 0x121E JUMP JUMPDEST STOP JUMPDEST PUSH2 0x32C PUSH1 0x4 DUP1 CALLDATASIZE SUB DUP2 ADD SWAP1 PUSH2 0x327 SWAP2 SWAP1 PUSH2 0x18AA JUMP JUMPDEST PUSH2 0x1330 JUMP JUMPDEST STOP JUMPDEST PUSH2 0x348 PUSH1 0x4 DUP1 CALLDATASIZE SUB DUP2 ADD SWAP1 PUSH2 0x343 SWAP2 SWAP1 PUSH2 0x1AA7 JUMP JUMPDEST PUSH2 0x14CD JUMP JUMPDEST PUSH1 0x40 MLOAD PUSH2 0x355 SWAP2 SWAP1 PUSH2 0x1867 JUMP JUMPDEST PUSH1 0x40 MLOAD DUP1 SWAP2 SUB SWAP1 RETURN JUMPDEST PUSH2 0x378 PUSH1 0x4 DUP1 CALLDATASIZE SUB DUP2 ADD SWAP1 PUSH2 0x373 SWAP2 SWAP1 PUSH2 0x1AF7 JUMP JUMPDEST PUSH2 0x1564 JUMP JUMPDEST STOP JUMPDEST PUSH0 DUP2 PUSH2 0x397 JUMPI PUSH1 0x6 PUSH1 0x2 ADD PUSH0 SWAP1 SLOAD SWAP1 PUSH2 0x100 EXP SWAP1 DIV PUSH1 0xFF AND PUSH2 0x3A9 JUMP JUMPDEST PUSH0 PUSH1 0x2 ADD PUSH0 SWAP1 SLOAD SWAP1 PUSH2 0x100 EXP SWAP1 DIV PUSH1 0xFF AND JUMPDEST SWAP1 POP SWAP2 SWAP1 POP JUMP JUMPDEST PUSH0 DUP3 PUSH2 0x3FC JUMPI PUSH1 0x6 PUSH1 0x4 ADD PUSH0 DUP4 PUSH20 0xFFFFFFFFFFFFFFFFFFFFFFFFFFFFFFFFFFFFFFFF AND PUSH20 0xFFFFFFFFFFFFFFFFFFFFFFFFFFFFFFFFFFFFFFFF AND DUP2 MSTORE PUSH1 0x20 ADD SWAP1 DUP2 MSTORE PUSH1 0x20 ADD PUSH0 KECCAK256 SLOAD PUSH2 0x43D JUMP JUMPDEST PUSH0 PUSH1 0x4 ADD PUSH0 DUP4 PUSH20 0xFFFFFFFFFFFFFFFFFFFFFFFFFFFFFFFFFFFFFFFF AND PUSH20 0xFFFFFFFFFFFFFFFFFFFFFFFFFFFFFFFFFFFFFFFF AND DUP2 MSTORE PUSH1 0x20 ADD SWAP1 DUP2 MSTORE PUSH1 0x20 ADD PUSH0 KECCAK256 SLOAD JUMPDEST SWAP1 POP SWAP3 SWAP2 POP POP JUMP JUMPDEST PUSH1 0xD SLOAD DUP2 JUMP JUMPDEST PUSH0 PUSH0 DUP5 PUSH2 0x459 JUMPI PUSH1 0x6 PUSH2 0x45B JUMP JUMPDEST PUSH0 JUMPDEST SWAP1 POP DUP3 DUP2 PUSH1 0x4 ADD PUSH0 CALLER PUSH20 0xFFFFFFFFFFFFFFFFFFFFFFFFFFFFFFFFFFFFFFFF AND PUSH20 0xFFFFFFFFFFFFFFFFFFFFFFFFFFFFFFFFFFFFFFFF AND DUP2 MSTORE PUSH1 0x20 ADD SWAP1 DUP2 MSTORE PUSH1 0x20 ADD PUSH0 KECCAK256 SLOAD LT ISZERO PUSH2 0x4DF JUMPI PUSH1 0x40 MLOAD PUSH32 0x8C379A000000000000000000000000000000000000000000000000000000000 DUP2 MSTORE PUSH1 0x4 ADD PUSH2 0x4D6 SWAP1 PUSH2 0x1B6C JUMP JUMPDEST PUSH1 0x40 MLOAD DUP1 SWAP2 SUB SWAP1 REVERT JUMPDEST DUP3 DUP2 PUSH1 0x4 ADD PUSH0 CALLER PUSH20 0xFFFFFFFFFFFFFFFFFFFFFFFFFFFFFFFFFFFFFFFF AND PUSH20 0xFFFFFFFFFFFFFFFFFFFFFFFFFFFFFFFFFFFFFFFF AND DUP2 MSTORE PUSH1 0x20 ADD SWAP1 DUP2 MSTORE PUSH1 0x20 ADD PUSH0 KECCAK256 PUSH0 DUP3 DUP3 SLOAD PUSH2 0x52D SWAP2 SWAP1 PUSH2 0x1BB7 JUMP JUMPDEST SWAP3 POP POP DUP2 SWAP1 SSTORE POP DUP3 DUP2 PUSH1 0x4 ADD PUSH0 DUP7 PUSH20 0xFFFFFFFFFFFFFFFFFFFFFFFFFFFFFFFFFFFFFFFF AND PUSH20 0xFFFFFFFFFFFFFFFFFFFFFFFFFFFFFFFFFFFFFFFF AND DUP2 MSTORE PUSH1 0x20 ADD SWAP1 DUP2 MSTORE PUSH1 0x20 ADD PUSH0 KECCAK256 PUSH0 DUP3 DUP3 SLOAD PUSH2 0x582 SWAP2 SWAP1 PUSH2 0x1BEA JUMP JUMPDEST SWAP3 POP POP DUP2 SWAP1 SSTORE POP DUP4 PUSH20 0xFFFFFFFFFFFFFFFFFFFFFFFFFFFFFFFFFFFFFFFF AND CALLER PUSH20 0xFFFFFFFFFFFFFFFFFFFFFFFFFFFFFFFFFFFFFFFF AND DUP7 PUSH2 0x5C2 JUMPI PUSH0 PUSH2 0x5C4 JUMP JUMPDEST ADDRESS JUMPDEST PUSH20 0xFFFFFFFFFFFFFFFFFFFFFFFFFFFFFFFFFFFFFFFF AND PUSH32 0xD1398BEE19313D6BF672CCB116E51F4A1A947E91C757907F51FBB5B5E56C698F DUP7 PUSH1 0x40 MLOAD PUSH2 0x609 SWAP2 SWAP1 PUSH2 0x1867 JUMP JUMPDEST PUSH1 0x40 MLOAD DUP1 SWAP2 SUB SWAP1 LOG4 PUSH1 0x1 SWAP2 POP POP SWAP4 SWAP3 POP POP POP JUMP JUMPDEST PUSH1 0x60 DUP2 PUSH2 0x62D JUMPI PUSH1 0x6 PUSH0 ADD PUSH2 0x631 JUMP JUMPDEST PUSH0 PUSH0 ADD JUMPDEST DUP1 SLOAD PUSH2 0x63C SWAP1 PUSH2 0x1C4A JUMP JUMPDEST DUP1 PUSH1 0x1F ADD PUSH1 0x20 DUP1 SWAP2 DIV MUL PUSH1 0x20 ADD PUSH1 0x40 MLOAD SWAP1 DUP2 ADD PUSH1 0x40 MSTORE DUP1 SWAP3 SWAP2 SWAP1 DUP2 DUP2 MSTORE PUSH1 0x20 ADD DUP3 DUP1 SLOAD PUSH2 0x668 SWAP1 PUSH2 0x1C4A JUMP JUMPDEST DUP1 ISZERO PUSH2 0x6B3 JUMPI DUP1 PUSH1 0x1F LT PUSH2 0x68A JUMPI PUSH2 0x100 DUP1 DUP4 SLOAD DIV MUL DUP4 MSTORE SWAP2 PUSH1 0x20 ADD SWAP2 PUSH2 0x6B3 JUMP JUMPDEST DUP3 ADD SWAP2 SWAP1 PUSH0 MSTORE PUSH1 0x20 PUSH0 KECCAK256 SWAP1 JUMPDEST DUP2 SLOAD DUP2 MSTORE SWAP1 PUSH1 0x1 ADD SWAP1 PUSH1 0x20 ADD DUP1 DUP4 GT PUSH2 0x696 JUMPI DUP3 SWAP1 SUB PUSH1 0x1F AND DUP3 ADD SWAP2 JUMPDEST POP POP POP POP POP SWAP1 POP SWAP2 SWAP1 POP JUMP JUMPDEST PUSH0 PUSH0 DUP5 PUSH2 0x6CD JUMPI PUSH1 0x6 PUSH2 0x6CF JUMP JUMPDEST PUSH0 JUMPDEST SWAP1 POP DUP3 DUP2 PUSH1 0x5 ADD PUSH0 CALLER PUSH20 0xFFFFFFFFFFFFFFFFFFFFFFFFFFFFFFFFFFFFFFFF AND PUSH20 0xFFFFFFFFFFFFFFFFFFFFFFFFFFFFFFFFFFFFFFFF AND DUP2 MSTORE PUSH1 0x20 ADD SWAP1 DUP2 MSTORE PUSH1 0x20 ADD PUSH0 KECCAK256 PUSH0 DUP7 PUSH20 0xFFFFFFFFFFFFFFFFFFFFFFFFFFFFFFFFFFFFFFFF AND PUSH20 0xFFFFFFFFFFFFFFFFFFFFFFFFFFFFFFFFFFFFFFFF AND DUP2 MSTORE PUSH1 0x20 ADD SWAP1 DUP2 MSTORE PUSH1 0x20 ADD PUSH0 KECCAK256 DUP2 SWAP1 SSTORE POP DUP4 PUSH20 0xFFFFFFFFFFFFFFFFFFFFFFFFFFFFFFFFFFFFFFFF AND CALLER PUSH20 0xFFFFFFFFFFFFFFFFFFFFFFFFFFFFFFFFFFFFFFFF AND DUP7 PUSH2 0x789 JUMPI PUSH0 PUSH2 0x78B JUMP JUMPDEST ADDRESS JUMPDEST PUSH20 0xFFFFFFFFFFFFFFFFFFFFFFFFFFFFFFFFFFFFFFFF AND PUSH32 0xA0175360A15BCA328BAF7EA85C7B784D58B222A50D0CE760B10DBA336D226A61 DUP7 PUSH1 0x40 MLOAD PUSH2 0x7D0 SWAP2 SWAP1 PUSH2 0x1867 JUMP JUMPDEST PUSH1 0x40 MLOAD DUP1 SWAP2 SUB SWAP1 LOG4 PUSH1 0x1 SWAP2 POP POP SWAP4 SWAP3 POP POP POP JUMP JUMPDEST PUSH0 DUP2 PUSH2 0x7F5 JUMPI PUSH1 0x6 PUSH1 0x3 ADD SLOAD PUSH2 0x7FB JUMP JUMPDEST PUSH0 PUSH1 0x3 ADD SLOAD JUMPDEST SWAP1 POP SWAP2 SWAP1 POP JUMP JUMPDEST PUSH0 PUSH0 DUP6 PUSH2 0x810 JUMPI PUSH1 0x6 PUSH2 0x812 JUMP JUMPDEST PUSH0 JUMPDEST SWAP1 POP DUP3 DUP2 PUSH1 0x4 ADD PUSH0 DUP8 PUSH20 0xFFFFFFFFFFFFFFFFFFFFFFFFFFFFFFFFFFFFFFFF AND PUSH20 0xFFFFFFFFFFFFFFFFFFFFFFFFFFFFFFFFFFFFFFFF AND DUP2 MSTORE PUSH1 0x20 ADD SWAP1 DUP2 MSTORE PUSH1 0x20 ADD PUSH0 KECCAK256 SLOAD LT ISZERO PUSH2 0x896 JUMPI PUSH1 0x40 MLOAD PUSH32 0x8C379A000000000000000000000000000000000000000000000000000000000 DUP2 MSTORE PUSH1 0x4 ADD PUSH2 0x88D SWAP1 PUSH2 0x1B6C JUMP JUMPDEST PUSH1 0x40 MLOAD DUP1 SWAP2 SUB SWAP1 REVERT JUMPDEST DUP3 DUP2 PUSH1 0x5 ADD PUSH0 DUP8 PUSH20 0xFFFFFFFFFFFFFFFFFFFFFFFFFFFFFFFFFFFFFFFF AND PUSH20 0xFFFFFFFFFFFFFFFFFFFFFFFFFFFFFFFFFFFFFFFF AND DUP2 MSTORE PUSH1 0x20 ADD SWAP1 DUP2 MSTORE PUSH1 0x20 ADD PUSH0 KECCAK256 PUSH0 CALLER PUSH20 0xFFFFFFFFFFFFFFFFFFFFFFFFFFFFFFFFFFFFFFFF AND PUSH20 0xFFFFFFFFFFFFFFFFFFFFFFFFFFFFFFFFFFFFFFFF AND DUP2 MSTORE PUSH1 0x20 ADD SWAP1 DUP2 MSTORE PUSH1 0x20 ADD PUSH0 KECCAK256 SLOAD LT ISZERO PUSH2 0x953 JUMPI PUSH1 0x40 MLOAD PUSH32 0x8C379A000000000000000000000000000000000000000000000000000000000 DUP2 MSTORE PUSH1 0x4 ADD PUSH2 0x94A SWAP1 PUSH2 0x1CC4 JUMP JUMPDEST PUSH1 0x40 MLOAD DUP1 SWAP2 SUB SWAP1 REVERT JUMPDEST DUP3 DUP2 PUSH1 0x5 ADD PUSH0 DUP8 PUSH20 0xFFFFFFFFFFFFFFFFFFFFFFFFFFFFFFFFFFFFFFFF AND PUSH20 0xFFFFFFFFFFFFFFFFFFFFFFFFFFFFFFFFFFFFFFFF AND DUP2 MSTORE PUSH1 0x20 ADD SWAP1 DUP2 MSTORE PUSH1 0x20 ADD PUSH0 KECCAK256 PUSH0 CALLER PUSH20 0xFFFFFFFFFFFFFFFFFFFFFFFFFFFFFFFFFFFFFFFF AND PUSH20 0xFFFFFFFFFFFFFFFFFFFFFFFFFFFFFFFFFFFFFFFF AND DUP2 MSTORE PUSH1 0x20 ADD SWAP1 DUP2 MSTORE PUSH1 0x20 ADD PUSH0 KECCAK256 PUSH0 DUP3 DUP3 SLOAD PUSH2 0x9DC SWAP2 SWAP1 PUSH2 0x1BB7 JUMP JUMPDEST SWAP3 POP POP DUP2 SWAP1 SSTORE POP DUP3 DUP2 PUSH1 0x4 ADD PUSH0 DUP8 PUSH20 0xFFFFFFFFFFFFFFFFFFFFFFFFFFFFFFFFFFFFFFFF AND PUSH20 0xFFFFFFFFFFFFFFFFFFFFFFFFFFFFFFFFFFFFFFFF AND DUP2 MSTORE PUSH1 0x20 ADD SWAP1 DUP2 MSTORE PUSH1 0x20 ADD PUSH0 KECCAK256 PUSH0 DUP3 DUP3 SLOAD PUSH2 0xA31 SWAP2 SWAP1 PUSH2 0x1BB7 JUMP JUMPDEST SWAP3 POP POP DUP2 SWAP1 SSTORE POP DUP3 DUP2 PUSH1 0x4 ADD PUSH0 DUP7 PUSH20 0xFFFFFFFFFFFFFFFFFFFFFFFFFFFFFFFFFFFFFFFF AND PUSH20 0xFFFFFFFFFFFFFFFFFFFFFFFFFFFFFFFFFFFFFFFF AND DUP2 MSTORE PUSH1 0x20 ADD SWAP1 DUP2 MSTORE PUSH1 0x20 ADD PUSH0 KECCAK256 PUSH0 DUP3 DUP3 SLOAD PUSH2 0xA86 SWAP2 SWAP1 PUSH2 0x1BEA JUMP JUMPDEST SWAP3 POP POP DUP2 SWAP1 SSTORE POP DUP4 PUSH20 0xFFFFFFFFFFFFFFFFFFFFFFFFFFFFFFFFFFFFFFFF AND DUP6 PUSH20 0xFFFFFFFFFFFFFFFFFFFFFFFFFFFFFFFFFFFFFFFF AND DUP8 PUSH2 0xAC6 JUMPI PUSH0 PUSH2 0xAC8 JUMP JUMPDEST ADDRESS JUMPDEST PUSH20 0xFFFFFFFFFFFFFFFFFFFFFFFFFFFFFFFFFFFFFFFF AND PUSH32 0xD1398BEE19313D6BF672CCB116E51F4A1A947E91C757907F51FBB5B5E56C698F DUP7 PUSH1 0x40 MLOAD PUSH2 0xB0D SWAP2 SWAP1 PUSH2 0x1867 JUMP JUMPDEST PUSH1 0x40 MLOAD DUP1 SWAP2 SUB SWAP1 LOG4 PUSH1 0x1 SWAP2 POP POP SWAP5 SWAP4 POP POP POP POP JUMP JUMPDEST PUSH1 0xC PUSH0 SWAP1 SLOAD SWAP1 PUSH2 0x100 EXP SWAP1 DIV PUSH20 0xFFFFFFFFFFFFFFFFFFFFFFFFFFFFFFFFFFFFFFFF AND DUP2 JUMP JUMPDEST PUSH0 DUP2 GT PUSH2 0xB89 JUMPI PUSH1 0x40 MLOAD PUSH32 0x8C379A000000000000000000000000000000000000000000000000000000000 DUP2 MSTORE PUSH1 0x4 ADD PUSH2 0xB80 SWAP1 PUSH2 0x1D2C JUMP JUMPDEST PUSH1 0x40 MLOAD DUP1 SWAP2 SUB SWAP1 REVERT JUMPDEST DUP1 PUSH0 PUSH1 0x4 ADD PUSH0 CALLER PUSH20 0xFFFFFFFFFFFFFFFFFFFFFFFFFFFFFFFFFFFFFFFF AND PUSH20 0xFFFFFFFFFFFFFFFFFFFFFFFFFFFFFFFFFFFFFFFF AND DUP2 MSTORE PUSH1 0x20 ADD SWAP1 DUP2 MSTORE PUSH1 0x20 ADD PUSH0 KECCAK256 SLOAD LT ISZERO PUSH2 0xC0B JUMPI PUSH1 0x40 MLOAD PUSH32 0x8C379A000000000000000000000000000000000000000000000000000000000 DUP2 MSTORE PUSH1 0x4 ADD PUSH2 0xC02 SWAP1 PUSH2 0x1D94 JUMP JUMPDEST PUSH1 0x40 MLOAD DUP1 SWAP2 SUB SWAP1 REVERT JUMPDEST DUP1 PUSH0 PUSH1 0x5 ADD PUSH0 CALLER PUSH20 0xFFFFFFFFFFFFFFFFFFFFFFFFFFFFFFFFFFFFFFFF AND PUSH20 0xFFFFFFFFFFFFFFFFFFFFFFFFFFFFFFFFFFFFFFFF AND DUP2 MSTORE PUSH1 0x20 ADD SWAP1 DUP2 MSTORE PUSH1 0x20 ADD PUSH0 KECCAK256 PUSH0 ADDRESS PUSH20 0xFFFFFFFFFFFFFFFFFFFFFFFFFFFFFFFFFFFFFFFF AND PUSH20 0xFFFFFFFFFFFFFFFFFFFFFFFFFFFFFFFFFFFFFFFF AND DUP2 MSTORE PUSH1 0x20 ADD SWAP1 DUP2 MSTORE PUSH1 0x20 ADD PUSH0 KECCAK256 SLOAD LT ISZERO PUSH2 0xCC8 JUMPI PUSH1 0x40 MLOAD PUSH32 0x8C379A000000000000000000000000000000000000000000000000000000000 DUP2 MSTORE PUSH1 0x4 ADD PUSH2 0xCBF SWAP1 PUSH2 0x1DFC JUMP JUMPDEST PUSH1 0x40 MLOAD DUP1 SWAP2 SUB SWAP1 REVERT JUMPDEST PUSH0 PUSH8 0xDE0B6B3A7640000 PUSH1 0xD SLOAD DUP4 PUSH2 0xCE0 SWAP2 SWAP1 PUSH2 0x1E1A JUMP JUMPDEST PUSH2 0xCEA SWAP2 SWAP1 PUSH2 0x1E88 JUMP JUMPDEST SWAP1 POP DUP1 PUSH1 0x6 PUSH1 0x4 ADD PUSH0 ADDRESS PUSH20 0xFFFFFFFFFFFFFFFFFFFFFFFFFFFFFFFFFFFFFFFF AND PUSH20 0xFFFFFFFFFFFFFFFFFFFFFFFFFFFFFFFFFFFFFFFF AND DUP2 MSTORE PUSH1 0x20 ADD SWAP1 DUP2 MSTORE PUSH1 0x20 ADD PUSH0 KECCAK256 SLOAD LT ISZERO PUSH2 0xD6F JUMPI PUSH1 0x40 MLOAD PUSH32 0x8C379A000000000000000000000000000000000000000000000000000000000 DUP2 MSTORE PUSH1 0x4 ADD PUSH2 0xD66 SWAP1 PUSH2 0x1F02 JUMP JUMPDEST PUSH1 0x40 MLOAD DUP1 SWAP2 SUB SWAP1 REVERT JUMPDEST DUP2 PUSH0 PUSH1 0x4 ADD PUSH0 CALLER PUSH20 0xFFFFFFFFFFFFFFFFFFFFFFFFFFFFFFFFFFFFFFFF AND PUSH20 0xFFFFFFFFFFFFFFFFFFFFFFFFFFFFFFFFFFFFFFFF AND DUP2 MSTORE PUSH1 0x20 ADD SWAP1 DUP2 MSTORE PUSH1 0x20 ADD PUSH0 KECCAK256 PUSH0 DUP3 DUP3 SLOAD PUSH2 0xDBD SWAP2 SWAP1 PUSH2 0x1BB7 JUMP JUMPDEST SWAP3 POP POP DUP2 SWAP1 SSTORE POP DUP2 PUSH0 PUSH1 0x5 ADD PUSH0 CALLER PUSH20 0xFFFFFFFFFFFFFFFFFFFFFFFFFFFFFFFFFFFFFFFF AND PUSH20 0xFFFFFFFFFFFFFFFFFFFFFFFFFFFFFFFFFFFFFFFF AND DUP2 MSTORE PUSH1 0x20 ADD SWAP1 DUP2 MSTORE PUSH1 0x20 ADD PUSH0 KECCAK256 PUSH0 ADDRESS PUSH20 0xFFFFFFFFFFFFFFFFFFFFFFFFFFFFFFFFFFFFFFFF AND PUSH20 0xFFFFFFFFFFFFFFFFFFFFFFFFFFFFFFFFFFFFFFFF AND DUP2 MSTORE PUSH1 0x20 ADD SWAP1 DUP2 MSTORE PUSH1 0x20 ADD PUSH0 KECCAK256 PUSH0 DUP3 DUP3 SLOAD PUSH2 0xE4D SWAP2 SWAP1 PUSH2 0x1BB7 JUMP JUMPDEST SWAP3 POP POP DUP2 SWAP1 SSTORE POP DUP2 PUSH0 PUSH1 0x4 ADD PUSH0 ADDRESS PUSH20 0xFFFFFFFFFFFFFFFFFFFFFFFFFFFFFFFFFFFFFFFF AND PUSH20 0xFFFFFFFFFFFFFFFFFFFFFFFFFFFFFFFFFFFFFFFF AND DUP2 MSTORE PUSH1 0x20 ADD SWAP1 DUP2 MSTORE PUSH1 0x20 ADD PUSH0 KECCAK256 PUSH0 DUP3 DUP3 SLOAD PUSH2 0xEA2 SWAP2 SWAP1 PUSH2 0x1BEA JUMP JUMPDEST SWAP3 POP POP DUP2 SWAP1 SSTORE POP DUP1 PUSH1 0x6 PUSH1 0x4 ADD PUSH0 ADDRESS PUSH20 0xFFFFFFFFFFFFFFFFFFFFFFFFFFFFFFFFFFFFFFFF AND PUSH20 0xFFFFFFFFFFFFFFFFFFFFFFFFFFFFFFFFFFFFFFFF AND DUP2 MSTORE PUSH1 0x20 ADD SWAP1 DUP2 MSTORE PUSH1 0x20 ADD PUSH0 KECCAK256 PUSH0 DUP3 DUP3 SLOAD PUSH2 0xEF8 SWAP2 SWAP1 PUSH2 0x1BB7 JUMP JUMPDEST SWAP3 POP POP DUP2 SWAP1 SSTORE POP DUP1 PUSH1 0x6 PUSH1 0x4 ADD PUSH0 CALLER PUSH20 0xFFFFFFFFFFFFFFFFFFFFFFFFFFFFFFFFFFFFFFFF AND PUSH20 0xFFFFFFFFFFFFFFFFFFFFFFFFFFFFFFFFFFFFFFFF AND DUP2 MSTORE PUSH1 0x20 ADD SWAP1 DUP2 MSTORE PUSH1 0x20 ADD PUSH0 KECCAK256 PUSH0 DUP3 DUP3 SLOAD PUSH2 0xF4E SWAP2 SWAP1 PUSH2 0x1BEA JUMP JUMPDEST SWAP3 POP POP DUP2 SWAP1 SSTORE POP CALLER PUSH20 0xFFFFFFFFFFFFFFFFFFFFFFFFFFFFFFFFFFFFFFFF AND PUSH32 0x2D043CE009FF53FD444B0F4F5FF4C3F4EE293265203F77F156EEB33B595DFC4F DUP4 DUP4 PUSH1 0x40 MLOAD PUSH2 0xF9D SWAP3 SWAP2 SWAP1 PUSH2 0x1F20 JUMP JUMPDEST PUSH1 0x40 MLOAD DUP1 SWAP2 SUB SWAP1 LOG2 POP POP JUMP JUMPDEST PUSH1 0xC PUSH0 SWAP1 SLOAD SWAP1 PUSH2 0x100 EXP SWAP1 DIV PUSH20 0xFFFFFFFFFFFFFFFFFFFFFFFFFFFFFFFFFFFFFFFF AND PUSH20 0xFFFFFFFFFFFFFFFFFFFFFFFFFFFFFFFFFFFFFFFF AND CALLER PUSH20 0xFFFFFFFFFFFFFFFFFFFFFFFFFFFFFFFFFFFFFFFF AND EQ PUSH2 0x1038 JUMPI PUSH1 0x40 MLOAD PUSH32 0x8C379A000000000000000000000000000000000000000000000000000000000 DUP2 MSTORE PUSH1 0x4 ADD PUSH2 0x102F SWAP1 PUSH2 0x1F91 JUMP JUMPDEST PUSH1 0x40 MLOAD DUP1 SWAP2 SUB SWAP1 REVERT JUMPDEST PUSH0 DUP3 PUSH2 0x1045 JUMPI PUSH1 0x6 PUSH2 0x1047 JUMP JUMPDEST PUSH0 JUMPDEST SWAP1 POP DUP2 DUP2 PUSH1 0x4 ADD PUSH0 ADDRESS PUSH20 0xFFFFFFFFFFFFFFFFFFFFFFFFFFFFFFFFFFFFFFFF AND PUSH20 0xFFFFFFFFFFFFFFFFFFFFFFFFFFFFFFFFFFFFFFFF AND DUP2 MSTORE PUSH1 0x20 ADD SWAP1 DUP2 MSTORE PUSH1 0x20 ADD PUSH0 KECCAK256 SLOAD LT ISZERO PUSH2 0x10CB JUMPI PUSH1 0x40 MLOAD PUSH32 0x8C379A000000000000000000000000000000000000000000000000000000000 DUP2 MSTORE PUSH1 0x4 ADD PUSH2 0x10C2 SWAP1 PUSH2 0x1FF9 JUMP JUMPDEST PUSH1 0x40 MLOAD DUP1 SWAP2 SUB SWAP1 REVERT JUMPDEST DUP2 DUP2 PUSH1 0x4 ADD PUSH0 ADDRESS PUSH20 0xFFFFFFFFFFFFFFFFFFFFFFFFFFFFFFFFFFFFFFFF AND PUSH20 0xFFFFFFFFFFFFFFFFFFFFFFFFFFFFFFFFFFFFFFFF AND DUP2 MSTORE PUSH1 0x20 ADD SWAP1 DUP2 MSTORE PUSH1 0x20 ADD PUSH0 KECCAK256 PUSH0 DUP3 DUP3 SLOAD PUSH2 0x1119 SWAP2 SWAP1 PUSH2 0x1BB7 JUMP JUMPDEST SWAP3 POP POP DUP2 SWAP1 SSTORE POP DUP2 DUP2 PUSH1 0x4 ADD PUSH0 CALLER PUSH20 0xFFFFFFFFFFFFFFFFFFFFFFFFFFFFFFFFFFFFFFFF AND PUSH20 0xFFFFFFFFFFFFFFFFFFFFFFFFFFFFFFFFFFFFFFFF AND DUP2 MSTORE PUSH1 0x20 ADD SWAP1 DUP2 MSTORE PUSH1 0x20 ADD PUSH0 KECCAK256 PUSH0 DUP3 DUP3 SLOAD PUSH2 0x116E SWAP2 SWAP1 PUSH2 0x1BEA JUMP JUMPDEST SWAP3 POP POP DUP2 SWAP1 SSTORE POP POP POP POP JUMP JUMPDEST PUSH1 0x60 DUP2 PUSH2 0x118B JUMPI PUSH1 0x6 PUSH1 0x1 ADD PUSH2 0x1190 JUMP JUMPDEST PUSH0 PUSH1 0x1 ADD JUMPDEST DUP1 SLOAD PUSH2 0x119B SWAP1 PUSH2 0x1C4A JUMP JUMPDEST DUP1 PUSH1 0x1F ADD PUSH1 0x20 DUP1 SWAP2 DIV MUL PUSH1 0x20 ADD PUSH1 0x40 MLOAD SWAP1 DUP2 ADD PUSH1 0x40 MSTORE DUP1 SWAP3 SWAP2 SWAP1 DUP2 DUP2 MSTORE PUSH1 0x20 ADD DUP3 DUP1 SLOAD PUSH2 0x11C7 SWAP1 PUSH2 0x1C4A JUMP JUMPDEST DUP1 ISZERO PUSH2 0x1212 JUMPI DUP1 PUSH1 0x1F LT PUSH2 0x11E9 JUMPI PUSH2 0x100 DUP1 DUP4 SLOAD DIV MUL DUP4 MSTORE SWAP2 PUSH1 0x20 ADD SWAP2 PUSH2 0x1212 JUMP JUMPDEST DUP3 ADD SWAP2 SWAP1 PUSH0 MSTORE PUSH1 0x20 PUSH0 KECCAK256 SWAP1 JUMPDEST DUP2 SLOAD DUP2 MSTORE SWAP1 PUSH1 0x1 ADD SWAP1 PUSH1 0x20 ADD DUP1 DUP4 GT PUSH2 0x11F5 JUMPI DUP3 SWAP1 SUB PUSH1 0x1F AND DUP3 ADD SWAP2 JUMPDEST POP POP POP POP POP SWAP1 POP SWAP2 SWAP1 POP JUMP JUMPDEST PUSH1 0xC PUSH0 SWAP1 SLOAD SWAP1 PUSH2 0x100 EXP SWAP1 DIV PUSH20 0xFFFFFFFFFFFFFFFFFFFFFFFFFFFFFFFFFFFFFFFF AND PUSH20 0xFFFFFFFFFFFFFFFFFFFFFFFFFFFFFFFFFFFFFFFF AND CALLER PUSH20 0xFFFFFFFFFFFFFFFFFFFFFFFFFFFFFFFFFFFFFFFF AND EQ PUSH2 0x12AD JUMPI PUSH1 0x40 MLOAD PUSH32 0x8C379A000000000000000000000000000000000000000000000000000000000 DUP2 MSTORE PUSH1 0x4 ADD PUSH2 0x12A4 SWAP1 PUSH2 0x1F91 JUMP JUMPDEST PUSH1 0x40 MLOAD DUP1 SWAP2 SUB SWAP1 REVERT JUMPDEST PUSH0 DUP2 GT PUSH2 0x12EF JUMPI PUSH1 0x40 MLOAD PUSH32 0x8C379A000000000000000000000000000000000000000000000000000000000 DUP2 MSTORE PUSH1 0x4 ADD PUSH2 0x12E6 SWAP1 PUSH2 0x2061 JUMP JUMPDEST PUSH1 0x40 MLOAD DUP1 SWAP2 SUB SWAP1 REVERT JUMPDEST DUP1 PUSH1 0xD DUP2 SWAP1 SSTORE POP PUSH32 0x388F446E9526FE5C9AF20A5919B342370C8A7C0CB05245AFE1E545658FA3CDBA DUP2 PUSH1 0x40 MLOAD PUSH2 0x1325 SWAP2 SWAP1 PUSH2 0x1867 JUMP JUMPDEST PUSH1 0x40 MLOAD DUP1 SWAP2 SUB SWAP1 LOG1 POP JUMP JUMPDEST PUSH1 0xC PUSH0 SWAP1 SLOAD SWAP1 PUSH2 0x100 EXP SWAP1 DIV PUSH20 0xFFFFFFFFFFFFFFFFFFFFFFFFFFFFFFFFFFFFFFFF AND PUSH20 0xFFFFFFFFFFFFFFFFFFFFFFFFFFFFFFFFFFFFFFFF AND CALLER PUSH20 0xFFFFFFFFFFFFFFFFFFFFFFFFFFFFFFFFFFFFFFFF AND EQ PUSH2 0x13BF JUMPI PUSH1 0x40 MLOAD PUSH32 0x8C379A000000000000000000000000000000000000000000000000000000000 DUP2 MSTORE PUSH1 0x4 ADD PUSH2 0x13B6 SWAP1 PUSH2 0x1F91 JUMP JUMPDEST PUSH1 0x40 MLOAD DUP1 SWAP2 SUB SWAP1 REVERT JUMPDEST PUSH0 DUP4 PUSH2 0x13CC JUMPI PUSH1 0x6 PUSH2 0x13CE JUMP JUMPDEST PUSH0 JUMPDEST SWAP1 POP DUP2 DUP2 PUSH1 0x4 ADD PUSH0 DUP6 PUSH20 0xFFFFFFFFFFFFFFFFFFFFFFFFFFFFFFFFFFFFFFFF AND PUSH20 0xFFFFFFFFFFFFFFFFFFFFFFFFFFFFFFFFFFFFFFFF AND DUP2 MSTORE PUSH1 0x20 ADD SWAP1 DUP2 MSTORE PUSH1 0x20 ADD PUSH0 KECCAK256 PUSH0 DUP3 DUP3 SLOAD PUSH2 0x141E SWAP2 SWAP1 PUSH2 0x1BEA JUMP JUMPDEST SWAP3 POP POP DUP2 SWAP1 SSTORE POP DUP2 DUP2 PUSH1 0x3 ADD PUSH0 DUP3 DUP3 SLOAD PUSH2 0x1438 SWAP2 SWAP1 PUSH2 0x1BEA JUMP JUMPDEST SWAP3 POP POP DUP2 SWAP1 SSTORE POP DUP3 PUSH20 0xFFFFFFFFFFFFFFFFFFFFFFFFFFFFFFFFFFFFFFFF AND PUSH0 PUSH20 0xFFFFFFFFFFFFFFFFFFFFFFFFFFFFFFFFFFFFFFFF AND DUP6 PUSH2 0x1478 JUMPI PUSH0 PUSH2 0x147A JUMP JUMPDEST ADDRESS JUMPDEST PUSH20 0xFFFFFFFFFFFFFFFFFFFFFFFFFFFFFFFFFFFFFFFF AND PUSH32 0xD1398BEE19313D6BF672CCB116E51F4A1A947E91C757907F51FBB5B5E56C698F DUP6 PUSH1 0x40 MLOAD PUSH2 0x14BF SWAP2 SWAP1 PUSH2 0x1867 JUMP JUMPDEST PUSH1 0x40 MLOAD DUP1 SWAP2 SUB SWAP1 LOG4 POP POP POP POP JUMP JUMPDEST PUSH0 PUSH0 DUP5 PUSH2 0x14DB JUMPI PUSH1 0x6 PUSH2 0x14DD JUMP JUMPDEST PUSH0 JUMPDEST SWAP1 POP DUP1 PUSH1 0x5 ADD PUSH0 DUP6 PUSH20 0xFFFFFFFFFFFFFFFFFFFFFFFFFFFFFFFFFFFFFFFF AND PUSH20 0xFFFFFFFFFFFFFFFFFFFFFFFFFFFFFFFFFFFFFFFF AND DUP2 MSTORE PUSH1 0x20 ADD SWAP1 DUP2 MSTORE PUSH1 0x20 ADD PUSH0 KECCAK256 PUSH0 DUP5 PUSH20 0xFFFFFFFFFFFFFFFFFFFFFFFFFFFFFFFFFFFFFFFF AND PUSH20 0xFFFFFFFFFFFFFFFFFFFFFFFFFFFFFFFFFFFFFFFF AND DUP2 MSTORE PUSH1 0x20 ADD SWAP1 DUP2 MSTORE PUSH1 0x20 ADD PUSH0 KECCAK256 SLOAD SWAP2 POP POP SWAP4 SWAP3 POP POP POP JUMP JUMPDEST PUSH1 0xC PUSH0 SWAP1 SLOAD SWAP1 PUSH2 0x100 EXP SWAP1 DIV PUSH20 0xFFFFFFFFFFFFFFFFFFFFFFFFFFFFFFFFFFFFFFFF AND PUSH20 0xFFFFFFFFFFFFFFFFFFFFFFFFFFFFFFFFFFFFFFFF AND CALLER PUSH20 0xFFFFFFFFFFFFFFFFFFFFFFFFFFFFFFFFFFFFFFFF AND EQ PUSH2 0x15F3 JUMPI PUSH1 0x40 MLOAD PUSH32 0x8C379A000000000000000000000000000000000000000000000000000000000 DUP2 MSTORE PUSH1 0x4 ADD PUSH2 0x15EA SWAP1 PUSH2 0x1F91 JUMP JUMPDEST PUSH1 0x40 MLOAD DUP1 SWAP2 SUB SWAP1 REVERT JUMPDEST PUSH0 PUSH20 0xFFFFFFFFFFFFFFFFFFFFFFFFFFFFFFFFFFFFFFFF AND DUP2 PUSH20 0xFFFFFFFFFFFFFFFFFFFFFFFFFFFFFFFFFFFFFFFF AND SUB PUSH2 0x1661 JUMPI PUSH1 0x40 MLOAD PUSH32 0x8C379A000000000000000000000000000000000000000000000000000000000 DUP2 MSTORE PUSH1 0x4 ADD PUSH2 0x1658 SWAP1 PUSH2 0x20C9 JUMP JUMPDEST PUSH1 0x40 MLOAD DUP1 SWAP2 SUB SWAP1 REVERT JUMPDEST DUP1 PUSH20 0xFFFFFFFFFFFFFFFFFFFFFFFFFFFFFFFFFFFFFFFF AND PUSH1 0xC PUSH0 SWAP1 SLOAD SWAP1 PUSH2 0x100 EXP SWAP1 DIV PUSH20 0xFFFFFFFFFFFFFFFFFFFFFFFFFFFFFFFFFFFFFFFF AND PUSH20 0xFFFFFFFFFFFFFFFFFFFFFFFFFFFFFFFFFFFFFFFF AND PUSH32 0x8BE0079C531659141344CD1FD0A4F28419497F9722A3DAAFE3B4186F6B6457E0 PUSH1 0x40 MLOAD PUSH1 0x40 MLOAD DUP1 SWAP2 SUB SWAP1 LOG3 DUP1 PUSH1 0xC PUSH0 PUSH2 0x100 EXP DUP2 SLOAD DUP2 PUSH20 0xFFFFFFFFFFFFFFFFFFFFFFFFFFFFFFFFFFFFFFFF MUL NOT AND SWAP1 DUP4 PUSH20 0xFFFFFFFFFFFFFFFFFFFFFFFFFFFFFFFFFFFFFFFF AND MUL OR SWAP1 SSTORE POP POP JUMP JUMPDEST PUSH0 PUSH0 REVERT JUMPDEST PUSH0 DUP2 ISZERO ISZERO SWAP1 POP SWAP2 SWAP1 POP JUMP JUMPDEST PUSH2 0x1737 DUP2 PUSH2 0x1723 JUMP JUMPDEST DUP2 EQ PUSH2 0x1741 JUMPI PUSH0 PUSH0 REVERT JUMPDEST POP JUMP JUMPDEST PUSH0 DUP2 CALLDATALOAD SWAP1 POP PUSH2 0x1752 DUP2 PUSH2 0x172E JUMP JUMPDEST SWAP3 SWAP2 POP POP JUMP JUMPDEST PUSH0 PUSH1 0x20 DUP3 DUP5 SUB SLT ISZERO PUSH2 0x176D JUMPI PUSH2 0x176C PUSH2 0x171F JUMP JUMPDEST JUMPDEST PUSH0 PUSH2 0x177A DUP5 DUP3 DUP6 ADD PUSH2 0x1744 JUMP JUMPDEST SWAP2 POP POP SWAP3 SWAP2 POP POP JUMP JUMPDEST PUSH0 PUSH1 0xFF DUP3 AND SWAP1 POP SWAP2 SWAP1 POP JUMP JUMPDEST PUSH2 0x1798 DUP2 PUSH2 0x1783 JUMP JUMPDEST DUP3 MSTORE POP POP JUMP JUMPDEST PUSH0 PUSH1 0x20 DUP3 ADD SWAP1 POP PUSH2 0x17B1 PUSH0 DUP4 ADD DUP5 PUSH2 0x178F JUMP JUMPDEST SWAP3 SWAP2 POP POP JUMP JUMPDEST PUSH0 PUSH20 0xFFFFFFFFFFFFFFFFFFFFFFFFFFFFFFFFFFFFFFFF DUP3 AND SWAP1 POP SWAP2 SWAP1 POP JUMP JUMPDEST PUSH0 PUSH2 0x17E0 DUP3 PUSH2 0x17B7 JUMP JUMPDEST SWAP1 POP SWAP2 SWAP1 POP JUMP JUMPDEST PUSH2 0x17F0 DUP2 PUSH2 0x17D6 JUMP JUMPDEST DUP2 EQ PUSH2 0x17FA JUMPI PUSH0 PUSH0 REVERT JUMPDEST POP JUMP JUMPDEST PUSH0 DUP2 CALLDATALOAD SWAP1 POP PUSH2 0x180B DUP2 PUSH2 0x17E7 JUMP JUMPDEST SWAP3 SWAP2 POP POP JUMP JUMPDEST PUSH0 PUSH0 PUSH1 0x40 DUP4 DUP6 SUB SLT ISZERO PUSH2 0x1827 JUMPI PUSH2 0x1826 PUSH2 0x171F JUMP JUMPDEST JUMPDEST PUSH0 PUSH2 0x1834 DUP6 DUP3 DUP7 ADD PUSH2 0x1744 JUMP JUMPDEST SWAP3 POP POP PUSH1 0x20 PUSH2 0x1845 DUP6 DUP3 DUP7 ADD PUSH2 0x17FD JUMP JUMPDEST SWAP2 POP POP SWAP3 POP SWAP3 SWAP1 POP JUMP JUMPDEST PUSH0 DUP2 SWAP1 POP SWAP2 SWAP1 POP JUMP JUMPDEST PUSH2 0x1861 DUP2 PUSH2 0x184F JUMP JUMPDEST DUP3 MSTORE POP POP JUMP JUMPDEST PUSH0 PUSH1 0x20 DUP3 ADD SWAP1 POP PUSH2 0x187A PUSH0 DUP4 ADD DUP5 PUSH2 0x1858 JUMP JUMPDEST SWAP3 SWAP2 POP POP JUMP JUMPDEST PUSH2 0x1889 DUP2 PUSH2 0x184F JUMP JUMPDEST DUP2 EQ PUSH2 0x1893 JUMPI PUSH0 PUSH0 REVERT JUMPDEST POP JUMP JUMPDEST PUSH0 DUP2 CALLDATALOAD SWAP1 POP PUSH2 0x18A4 DUP2 PUSH2 0x1880 JUMP JUMPDEST SWAP3 SWAP2 POP POP JUMP JUMPDEST PUSH0 PUSH0 PUSH0 PUSH1 0x60 DUP5 DUP7 SUB SLT ISZERO PUSH2 0x18C1 JUMPI PUSH2 0x18C0 PUSH2 0x171F JUMP JUMPDEST JUMPDEST PUSH0 PUSH2 0x18CE DUP7 DUP3 DUP8 ADD PUSH2 0x1744 JUMP JUMPDEST SWAP4 POP POP PUSH1 0x20 PUSH2 0x18DF DUP7 DUP3 DUP8 ADD PUSH2 0x17FD JUMP JUMPDEST SWAP3 POP POP PUSH1 0x40 PUSH2 0x18F0 DUP7 DUP3 DUP8 ADD PUSH2 0x1896 JUMP JUMPDEST SWAP2 POP POP SWAP3 POP SWAP3 POP SWAP3 JUMP JUMPDEST PUSH2 0x1903 DUP2 PUSH2 0x1723 JUMP JUMPDEST DUP3 MSTORE POP POP JUMP JUMPDEST PUSH0 PUSH1 0x20 DUP3 ADD SWAP1 POP PUSH2 0x191C PUSH0 DUP4 ADD DUP5 PUSH2 0x18FA JUMP JUMPDEST SWAP3 SWAP2 POP POP JUMP JUMPDEST PUSH0 DUP2 MLOAD SWAP1 POP SWAP2 SWAP1 POP JUMP JUMPDEST PUSH0 DUP3 DUP3 MSTORE PUSH1 0x20 DUP3 ADD SWAP1 POP SWAP3 SWAP2 POP POP JUMP JUMPDEST DUP3 DUP2 DUP4 MCOPY PUSH0 DUP4 DUP4 ADD MSTORE POP POP POP JUMP JUMPDEST PUSH0 PUSH1 0x1F NOT PUSH1 0x1F DUP4 ADD AND SWAP1 POP SWAP2 SWAP1 POP JUMP JUMPDEST PUSH0 PUSH2 0x1964 DUP3 PUSH2 0x1922 JUMP JUMPDEST PUSH2 0x196E DUP2 DUP6 PUSH2 0x192C JUMP JUMPDEST SWAP4 POP PUSH2 0x197E DUP2 DUP6 PUSH1 0x20 DUP7 ADD PUSH2 0x193C JUMP JUMPDEST PUSH2 0x1987 DUP2 PUSH2 0x194A JUMP JUMPDEST DUP5 ADD SWAP2 POP POP SWAP3 SWAP2 POP POP JUMP JUMPDEST PUSH0 PUSH1 0x20 DUP3 ADD SWAP1 POP DUP2 DUP2 SUB PUSH0 DUP4 ADD MSTORE PUSH2 0x19AA DUP2 DUP5 PUSH2 0x195A JUMP JUMPDEST SWAP1 POP SWAP3 SWAP2 POP POP JUMP JUMPDEST PUSH0 PUSH0 PUSH0 PUSH0 PUSH1 0x80 DUP6 DUP8 SUB SLT ISZERO PUSH2 0x19CA JUMPI PUSH2 0x19C9 PUSH2 0x171F JUMP JUMPDEST JUMPDEST PUSH0 PUSH2 0x19D7 DUP8 DUP3 DUP9 ADD PUSH2 0x1744 JUMP JUMPDEST SWAP5 POP POP PUSH1 0x20 PUSH2 0x19E8 DUP8 DUP3 DUP9 ADD PUSH2 0x17FD JUMP JUMPDEST SWAP4 POP POP PUSH1 0x40 PUSH2 0x19F9 DUP8 DUP3 DUP9 ADD PUSH2 0x17FD JUMP JUMPDEST SWAP3 POP POP PUSH1 0x60 PUSH2 0x1A0A DUP8 DUP3 DUP9 ADD PUSH2 0x1896 JUMP JUMPDEST SWAP2 POP POP SWAP3 SWAP6 SWAP2 SWAP5 POP SWAP3 POP JUMP JUMPDEST PUSH2 0x1A1F DUP2 PUSH2 0x17D6 JUMP JUMPDEST DUP3 MSTORE POP POP JUMP JUMPDEST PUSH0 PUSH1 0x20 DUP3 ADD SWAP1 POP PUSH2 0x1A38 PUSH0 DUP4 ADD DUP5 PUSH2 0x1A16 JUMP JUMPDEST SWAP3 SWAP2 POP POP JUMP JUMPDEST PUSH0 PUSH1 0x20 DUP3 DUP5 SUB SLT ISZERO PUSH2 0x1A53 JUMPI PUSH2 0x1A52 PUSH2 0x171F JUMP JUMPDEST JUMPDEST PUSH0 PUSH2 0x1A60 DUP5 DUP3 DUP6 ADD PUSH2 0x1896 JUMP JUMPDEST SWAP2 POP POP SWAP3 SWAP2 POP POP JUMP JUMPDEST PUSH0 PUSH0 PUSH1 0x40 DUP4 DUP6 SUB SLT ISZERO PUSH2 0x1A7F JUMPI PUSH2 0x1A7E PUSH2 0x171F JUMP JUMPDEST JUMPDEST PUSH0 PUSH2 0x1A8C DUP6 DUP3 DUP7 ADD PUSH2 0x1744 JUMP JUMPDEST SWAP3 POP POP PUSH1 0x20 PUSH2 0x1A9D DUP6 DUP3 DUP7 ADD PUSH2 0x1896 JUMP JUMPDEST SWAP2 POP POP SWAP3 POP SWAP3 SWAP1 POP JUMP JUMPDEST PUSH0 PUSH0 PUSH0 PUSH1 0x60 DUP5 DUP7 SUB SLT ISZERO PUSH2 0x1ABE JUMPI PUSH2 0x1ABD PUSH2 0x171F JUMP JUMPDEST JUMPDEST PUSH0 PUSH2 0x1ACB DUP7 DUP3 DUP8 ADD PUSH2 0x1744 JUMP JUMPDEST SWAP4 POP POP PUSH1 0x20 PUSH2 0x1ADC DUP7 DUP3 DUP8 ADD PUSH2 0x17FD JUMP JUMPDEST SWAP3 POP POP PUSH1 0x40 PUSH2 0x1AED DUP7 DUP3 DUP8 ADD PUSH2 0x17FD JUMP JUMPDEST SWAP2 POP POP SWAP3 POP SWAP3 POP SWAP3 JUMP JUMPDEST PUSH0 PUSH1 0x20 DUP3 DUP5 SUB SLT ISZERO PUSH2 0x1B0C JUMPI PUSH2 0x1B0B PUSH2 0x171F JUMP JUMPDEST JUMPDEST PUSH0 PUSH2 0x1B19 DUP5 DUP3 DUP6 ADD PUSH2 0x17FD JUMP JUMPDEST SWAP2 POP POP SWAP3 SWAP2 POP POP JUMP JUMPDEST PUSH32 0x496E73756666696369656E742062616C616E6365000000000000000000000000 PUSH0 DUP3 ADD MSTORE POP JUMP JUMPDEST PUSH0 PUSH2 0x1B56 PUSH1 0x14 DUP4 PUSH2 0x192C JUMP JUMPDEST SWAP2 POP PUSH2 0x1B61 DUP3 PUSH2 0x1B22 JUMP JUMPDEST PUSH1 0x20 DUP3 ADD SWAP1 POP SWAP2 SWAP1 POP JUMP JUMPDEST PUSH0 PUSH1 0x20 DUP3 ADD SWAP1 POP DUP2 DUP2 SUB PUSH0 DUP4 ADD MSTORE PUSH2 0x1B83 DUP2 PUSH2 0x1B4A JUMP JUMPDEST SWAP1 POP SWAP2 SWAP1 POP JUMP JUMPDEST PUSH32 0x4E487B7100000000000000000000000000000000000000000000000000000000 PUSH0 MSTORE PUSH1 0x11 PUSH1 0x4 MSTORE PUSH1 0x24 PUSH0 REVERT JUMPDEST PUSH0 PUSH2 0x1BC1 DUP3 PUSH2 0x184F JUMP JUMPDEST SWAP2 POP PUSH2 0x1BCC DUP4 PUSH2 0x184F JUMP JUMPDEST SWAP3 POP DUP3 DUP3 SUB SWAP1 POP DUP2 DUP2 GT ISZERO PUSH2 0x1BE4 JUMPI PUSH2 0x1BE3 PUSH2 0x1B8A JUMP JUMPDEST JUMPDEST SWAP3 SWAP2 POP POP JUMP JUMPDEST PUSH0 PUSH2 0x1BF4 DUP3 PUSH2 0x184F JUMP JUMPDEST SWAP2 POP PUSH2 0x1BFF DUP4 PUSH2 0x184F JUMP JUMPDEST SWAP3 POP DUP3 DUP3 ADD SWAP1 POP DUP1 DUP3 GT ISZERO PUSH2 0x1C17 JUMPI PUSH2 0x1C16 PUSH2 0x1B8A JUMP JUMPDEST JUMPDEST SWAP3 SWAP2 POP POP JUMP JUMPDEST PUSH32 0x4E487B7100000000000000000000000000000000000000000000000000000000 PUSH0 MSTORE PUSH1 0x22 PUSH1 0x4 MSTORE PUSH1 0x24 PUSH0 REVERT JUMPDEST PUSH0 PUSH1 0x2 DUP3 DIV SWAP1 POP PUSH1 0x1 DUP3 AND DUP1 PUSH2 0x1C61 JUMPI PUSH1 0x7F DUP3 AND SWAP2 POP JUMPDEST PUSH1 0x20 DUP3 LT DUP2 SUB PUSH2 0x1C74 JUMPI PUSH2 0x1C73 PUSH2 0x1C1D JUMP JUMPDEST JUMPDEST POP SWAP2 SWAP1 POP JUMP JUMPDEST PUSH32 0x4E6F7420616C6C6F776564000000000000000000000000000000000000000000 PUSH0 DUP3 ADD MSTORE POP JUMP JUMPDEST PUSH0 PUSH2 0x1CAE PUSH1 0xB DUP4 PUSH2 0x192C JUMP JUMPDEST SWAP2 POP PUSH2 0x1CB9 DUP3 PUSH2 0x1C7A JUMP JUMPDEST PUSH1 0x20 DUP3 ADD SWAP1 POP SWAP2 SWAP1 POP JUMP JUMPDEST PUSH0 PUSH1 0x20 DUP3 ADD SWAP1 POP DUP2 DUP2 SUB PUSH0 DUP4 ADD MSTORE PUSH2 0x1CDB DUP2 PUSH2 0x1CA2 JUMP JUMPDEST SWAP1 POP SWAP2 SWAP1 POP JUMP JUMPDEST PUSH32 0x5A65726F20696E70757400000000000000000000000000000000000000000000 PUSH0 DUP3 ADD MSTORE POP JUMP JUMPDEST PUSH0 PUSH2 0x1D16 PUSH1 0xA DUP4 PUSH2 0x192C JUMP JUMPDEST SWAP2 POP PUSH2 0x1D21 DUP3 PUSH2 0x1CE2 JUMP JUMPDEST PUSH1 0x20 DUP3 ADD SWAP1 POP SWAP2 SWAP1 POP JUMP JUMPDEST PUSH0 PUSH1 0x20 DUP3 ADD SWAP1 POP DUP2 DUP2 SUB PUSH0 DUP4 ADD MSTORE PUSH2 0x1D43 DUP2 PUSH2 0x1D0A JUMP JUMPDEST SWAP1 POP SWAP2 SWAP1 POP JUMP JUMPDEST PUSH32 0x496E73756666696369656E7420546F6B656E4100000000000000000000000000 PUSH0 DUP3 ADD MSTORE POP JUMP JUMPDEST PUSH0 PUSH2 0x1D7E PUSH1 0x13 DUP4 PUSH2 0x192C JUMP JUMPDEST SWAP2 POP PUSH2 0x1D89 DUP3 PUSH2 0x1D4A JUMP JUMPDEST PUSH1 0x20 DUP3 ADD SWAP1 POP SWAP2 SWAP1 POP JUMP JUMPDEST PUSH0 PUSH1 0x20 DUP3 ADD SWAP1 POP DUP2 DUP2 SUB PUSH0 DUP4 ADD MSTORE PUSH2 0x1DAB DUP2 PUSH2 0x1D72 JUMP JUMPDEST SWAP1 POP SWAP2 SWAP1 POP JUMP JUMPDEST PUSH32 0x546F6B656E41206E6F7420617070726F76656400000000000000000000000000 PUSH0 DUP3 ADD MSTORE POP JUMP JUMPDEST PUSH0 PUSH2 0x1DE6 PUSH1 0x13 DUP4 PUSH2 0x192C JUMP JUMPDEST SWAP2 POP PUSH2 0x1DF1 DUP3 PUSH2 0x1DB2 JUMP JUMPDEST PUSH1 0x20 DUP3 ADD SWAP1 POP SWAP2 SWAP1 POP JUMP JUMPDEST PUSH0 PUSH1 0x20 DUP3 ADD SWAP1 POP DUP2 DUP2 SUB PUSH0 DUP4 ADD MSTORE PUSH2 0x1E13 DUP2 PUSH2 0x1DDA JUMP JUMPDEST SWAP1 POP SWAP2 SWAP1 POP JUMP JUMPDEST PUSH0 PUSH2 0x1E24 DUP3 PUSH2 0x184F JUMP JUMPDEST SWAP2 POP PUSH2 0x1E2F DUP4 PUSH2 0x184F JUMP JUMPDEST SWAP3 POP DUP3 DUP3 MUL PUSH2 0x1E3D DUP2 PUSH2 0x184F JUMP JUMPDEST SWAP2 POP DUP3 DUP3 DIV DUP5 EQ DUP4 ISZERO OR PUSH2 0x1E54 JUMPI PUSH2 0x1E53 PUSH2 0x1B8A JUMP JUMPDEST JUMPDEST POP SWAP3 SWAP2 POP POP JUMP JUMPDEST PUSH32 0x4E487B7100000000000000000000000000000000000000000000000000000000 PUSH0 MSTORE PUSH1 0x12 PUSH1 0x4 MSTORE PUSH1 0x24 PUSH0 REVERT JUMPDEST PUSH0 PUSH2 0x1E92 DUP3 PUSH2 0x184F JUMP JUMPDEST SWAP2 POP PUSH2 0x1E9D DUP4 PUSH2 0x184F JUMP JUMPDEST SWAP3 POP DUP3 PUSH2 0x1EAD JUMPI PUSH2 0x1EAC PUSH2 0x1E5B JUMP JUMPDEST JUMPDEST DUP3 DUP3 DIV SWAP1 POP SWAP3 SWAP2 POP POP JUMP JUMPDEST PUSH32 0x496E73756666696369656E7420546F6B656E4220696E20636F6E747261637400 PUSH0 DUP3 ADD MSTORE POP JUMP JUMPDEST PUSH0 PUSH2 0x1EEC PUSH1 0x1F DUP4 PUSH2 0x192C JUMP JUMPDEST SWAP2 POP PUSH2 0x1EF7 DUP3 PUSH2 0x1EB8 JUMP JUMPDEST PUSH1 0x20 DUP3 ADD SWAP1 POP SWAP2 SWAP1 POP JUMP JUMPDEST PUSH0 PUSH1 0x20 DUP3 ADD SWAP1 POP DUP2 DUP2 SUB PUSH0 DUP4 ADD MSTORE PUSH2 0x1F19 DUP2 PUSH2 0x1EE0 JUMP JUMPDEST SWAP1 POP SWAP2 SWAP1 POP JUMP JUMPDEST PUSH0 PUSH1 0x40 DUP3 ADD SWAP1 POP PUSH2 0x1F33 PUSH0 DUP4 ADD DUP6 PUSH2 0x1858 JUMP JUMPDEST PUSH2 0x1F40 PUSH1 0x20 DUP4 ADD DUP5 PUSH2 0x1858 JUMP JUMPDEST SWAP4 SWAP3 POP POP POP JUMP JUMPDEST PUSH32 0x4E6F74206F776E65720000000000000000000000000000000000000000000000 PUSH0 DUP3 ADD MSTORE POP JUMP JUMPDEST PUSH0 PUSH2 0x1F7B PUSH1 0x9 DUP4 PUSH2 0x192C JUMP JUMPDEST SWAP2 POP PUSH2 0x1F86 DUP3 PUSH2 0x1F47 JUMP JUMPDEST PUSH1 0x20 DUP3 ADD SWAP1 POP SWAP2 SWAP1 POP JUMP JUMPDEST PUSH0 PUSH1 0x20 DUP3 ADD SWAP1 POP DUP2 DUP2 SUB PUSH0 DUP4 ADD MSTORE PUSH2 0x1FA8 DUP2 PUSH2 0x1F6F JUMP JUMPDEST SWAP1 POP SWAP2 SWAP1 POP JUMP JUMPDEST PUSH32 0x496E73756666696369656E742066756E64730000000000000000000000000000 PUSH0 DUP3 ADD MSTORE POP JUMP JUMPDEST PUSH0 PUSH2 0x1FE3 PUSH1 0x12 DUP4 PUSH2 0x192C JUMP JUMPDEST SWAP2 POP PUSH2 0x1FEE DUP3 PUSH2 0x1FAF JUMP JUMPDEST PUSH1 0x20 DUP3 ADD SWAP1 POP SWAP2 SWAP1 POP JUMP JUMPDEST PUSH0 PUSH1 0x20 DUP3 ADD SWAP1 POP DUP2 DUP2 SUB PUSH0 DUP4 ADD MSTORE PUSH2 0x2010 DUP2 PUSH2 0x1FD7 JUMP JUMPDEST SWAP1 POP SWAP2 SWAP1 POP JUMP JUMPDEST PUSH32 0x5A65726F20726174650000000000000000000000000000000000000000000000 PUSH0 DUP3 ADD MSTORE POP JUMP JUMPDEST PUSH0 PUSH2 0x204B PUSH1 0x9 DUP4 PUSH2 0x192C JUMP JUMPDEST SWAP2 POP PUSH2 0x2056 DUP3 PUSH2 0x2017 JUMP JUMPDEST PUSH1 0x20 DUP3 ADD SWAP1 POP SWAP2 SWAP1 POP JUMP JUMPDEST PUSH0 PUSH1 0x20 DUP3 ADD SWAP1 POP DUP2 DUP2 SUB PUSH0 DUP4 ADD MSTORE PUSH2 0x2078 DUP2 PUSH2 0x203F JUMP JUMPDEST SWAP1 POP SWAP2 SWAP1 POP JUMP JUMPDEST PUSH32 0x5A65726F20616464726573730000000000000000000000000000000000000000 PUSH0 DUP3 ADD MSTORE POP JUMP JUMPDEST PUSH0 PUSH2 0x20B3 PUSH1 0xC DUP4 PUSH2 0x192C JUMP JUMPDEST SWAP2 POP PUSH2 0x20BE DUP3 PUSH2 0x207F JUMP JUMPDEST PUSH1 0x20 DUP3 ADD SWAP1 POP SWAP2 SWAP1 POP JUMP JUMPDEST PUSH0 PUSH1 0x20 DUP3 ADD SWAP1 POP DUP2 DUP2 SUB PUSH0 DUP4 ADD MSTORE PUSH2 0x20E0 DUP2 PUSH2 0x20A7 JUMP JUMPDEST SWAP1 POP SWAP2 SWAP1 POP JUMP INVALID LOG2 PUSH5 0x6970667358 0x22 SLT KECCAK256 0x24 PUSH8 0xAC00FB93951B63B7 SUB 0xD9 JUMP MUL DUP4 CODECOPY 0x22 LOG0 0xFC STOP SDIV PUSH14 0xF047CE277218A13210EB64736F6C PUSH4 0x4300081E STOP CALLER "
		},
		"gasEstimates": {
			"creation": {
				"codeDepositCost": "1695400",
				"executionCost": "infinite",
				"totalCost": "infinite"
			},
			"external": {
				"allowance(bool,address,address)": "infinite",
				"approve(bool,address,uint256)": "infinite",
				"balanceOf(bool,address)": "3085",
				"decimals(bool)": "2798",
				"exchangeRate()": "2493",
				"mint(bool,address,uint256)": "infinite",
				"name(bool)": "infinite",
				"owner()": "2531",
				"setExchangeRate(uint256)": "infinite",
				"swap(uint256)": "infinite",
				"symbol(bool)": "infinite",
				"totalSupply(bool)": "2800",
				"transfer(bool,address,uint256)": "infinite",
				"transferFrom(bool,address,address,uint256)": "infinite",
				"transferOwnership(address)": "30686",
				"withdraw(bool,uint256)": "infinite"
			}
		},
		"methodIdentifiers": {
			"allowance(bool,address,address)": "f2fc8603",
			"approve(bool,address,uint256)": "75f3f304",
			"balanceOf(bool,address)": "1903b431",
			"decimals(bool)": "08e6d07e",
			"exchangeRate()": "3ba0b9a9",
			"mint(bool,address,uint256)": "ef60e3b1",
			"name(bool)": "61c03aa2",
			"owner()": "8da5cb5b",
			"setExchangeRate(uint256)": "db068e0e",
			"swap(uint256)": "94b918de",
			"symbol(bool)": "b9acd876",
			"totalSupply(bool)": "89942649",
			"transfer(bool,address,uint256)": "52ab855a",
			"transferFrom(bool,address,address,uint256)": "89a903b1",
			"transferOwnership(address)": "f2fde38b",
			"withdraw(bool,uint256)": "984c0450"
		}
	},
	"abi": [
		{
			"inputs": [
				{
					"internalType": "uint256",
					"name": "_initialRate",
					"type": "uint256"
				}
			],
			"stateMutability": "nonpayable",
			"type": "constructor"
		},
		{
			"anonymous": false,
			"inputs": [
				{
					"indexed": true,
					"internalType": "address",
					"name": "token",
					"type": "address"
				},
				{
					"indexed": true,
					"internalType": "address",
					"name": "owner",
					"type": "address"
				},
				{
					"indexed": true,
					"internalType": "address",
					"name": "spender",
					"type": "address"
				},
				{
					"indexed": false,
					"internalType": "uint256",
					"name": "value",
					"type": "uint256"
				}
			],
			"name": "Approval",
			"type": "event"
		},
		{
			"anonymous": false,
			"inputs": [
				{
					"indexed": false,
					"internalType": "uint256",
					"name": "newRate",
					"type": "uint256"
				}
			],
			"name": "ExchangeRateUpdated",
			"type": "event"
		},
		{
			"anonymous": false,
			"inputs": [
				{
					"indexed": true,
					"internalType": "address",
					"name": "previousOwner",
					"type": "address"
				},
				{
					"indexed": true,
					"internalType": "address",
					"name": "newOwner",
					"type": "address"
				}
			],
			"name": "OwnershipTransferred",
			"type": "event"
		},
		{
			"anonymous": false,
			"inputs": [
				{
					"indexed": true,
					"internalType": "address",
					"name": "user",
					"type": "address"
				},
				{
					"indexed": false,
					"internalType": "uint256",
					"name": "amountIn",
					"type": "uint256"
				},
				{
					"indexed": false,
					"internalType": "uint256",
					"name": "amountOut",
					"type": "uint256"
				}
			],
			"name": "SwapExecuted",
			"type": "event"
		},
		{
			"anonymous": false,
			"inputs": [
				{
					"indexed": true,
					"internalType": "address",
					"name": "token",
					"type": "address"
				},
				{
					"indexed": true,
					"internalType": "address",
					"name": "from",
					"type": "address"
				},
				{
					"indexed": true,
					"internalType": "address",
					"name": "to",
					"type": "address"
				},
				{
					"indexed": false,
					"internalType": "uint256",
					"name": "value",
					"type": "uint256"
				}
			],
			"name": "Transfer",
			"type": "event"
		},
		{
			"inputs": [
				{
					"internalType": "bool",
					"name": "isTokenA",
					"type": "bool"
				},
				{
					"internalType": "address",
					"name": "owner_",
					"type": "address"
				},
				{
					"internalType": "address",
					"name": "spender",
					"type": "address"
				}
			],
			"name": "allowance",
			"outputs": [
				{
					"internalType": "uint256",
					"name": "",
					"type": "uint256"
				}
			],
			"stateMutability": "view",
			"type": "function"
		},
		{
			"inputs": [
				{
					"internalType": "bool",
					"name": "isTokenA",
					"type": "bool"
				},
				{
					"internalType": "address",
					"name": "spender",
					"type": "address"
				},
				{
					"internalType": "uint256",
					"name": "amount",
					"type": "uint256"
				}
			],
			"name": "approve",
			"outputs": [
				{
					"internalType": "bool",
					"name": "",
					"type": "bool"
				}
			],
			"stateMutability": "nonpayable",
			"type": "function"
		},
		{
			"inputs": [
				{
					"internalType": "bool",
					"name": "isTokenA",
					"type": "bool"
				},
				{
					"internalType": "address",
					"name": "user",
					"type": "address"
				}
			],
			"name": "balanceOf",
			"outputs": [
				{
					"internalType": "uint256",
					"name": "",
					"type": "uint256"
				}
			],
			"stateMutability": "view",
			"type": "function"
		},
		{
			"inputs": [
				{
					"internalType": "bool",
					"name": "isTokenA",
					"type": "bool"
				}
			],
			"name": "decimals",
			"outputs": [
				{
					"internalType": "uint8",
					"name": "",
					"type": "uint8"
				}
			],
			"stateMutability": "view",
			"type": "function"
		},
		{
			"inputs": [],
			"name": "exchangeRate",
			"outputs": [
				{
					"internalType": "uint256",
					"name": "",
					"type": "uint256"
				}
			],
			"stateMutability": "view",
			"type": "function"
		},
		{
			"inputs": [
				{
					"internalType": "bool",
					"name": "isTokenA",
					"type": "bool"
				},
				{
					"internalType": "address",
					"name": "to",
					"type": "address"
				},
				{
					"internalType": "uint256",
					"name": "amount",
					"type": "uint256"
				}
			],
			"name": "mint",
			"outputs": [],
			"stateMutability": "nonpayable",
			"type": "function"
		},
		{
			"inputs": [
				{
					"internalType": "bool",
					"name": "isTokenA",
					"type": "bool"
				}
			],
			"name": "name",
			"outputs": [
				{
					"internalType": "string",
					"name": "",
					"type": "string"
				}
			],
			"stateMutability": "view",
			"type": "function"
		},
		{
			"inputs": [],
			"name": "owner",
			"outputs": [
				{
					"internalType": "address",
					"name": "",
					"type": "address"
				}
			],
			"stateMutability": "view",
			"type": "function"
		},
		{
			"inputs": [
				{
					"internalType": "uint256",
					"name": "newRate",
					"type": "uint256"
				}
			],
			"name": "setExchangeRate",
			"outputs": [],
			"stateMutability": "nonpayable",
			"type": "function"
		},
		{
			"inputs": [
				{
					"internalType": "uint256",
					"name": "amountIn",
					"type": "uint256"
				}
			],
			"name": "swap",
			"outputs": [],
			"stateMutability": "nonpayable",
			"type": "function"
		},
		{
			"inputs": [
				{
					"internalType": "bool",
					"name": "isTokenA",
					"type": "bool"
				}
			],
			"name": "symbol",
			"outputs": [
				{
					"internalType": "string",
					"name": "",
					"type": "string"
				}
			],
			"stateMutability": "view",
			"type": "function"
		},
		{
			"inputs": [
				{
					"internalType": "bool",
					"name": "isTokenA",
					"type": "bool"
				}
			],
			"name": "totalSupply",
			"outputs": [
				{
					"internalType": "uint256",
					"name": "",
					"type": "uint256"
				}
			],
			"stateMutability": "view",
			"type": "function"
		},
		{
			"inputs": [
				{
					"internalType": "bool",
					"name": "isTokenA",
					"type": "bool"
				},
				{
					"internalType": "address",
					"name": "to",
					"type": "address"
				},
				{
					"internalType": "uint256",
					"name": "amount",
					"type": "uint256"
				}
			],
			"name": "transfer",
			"outputs": [
				{
					"internalType": "bool",
					"name": "",
					"type": "bool"
				}
			],
			"stateMutability": "nonpayable",
			"type": "function"
		},
		{
			"inputs": [
				{
					"internalType": "bool",
					"name": "isTokenA",
					"type": "bool"
				},
				{
					"internalType": "address",
					"name": "from",
					"type": "address"
				},
				{
					"internalType": "address",
					"name": "to",
					"type": "address"
				},
				{
					"internalType": "uint256",
					"name": "amount",
					"type": "uint256"
				}
			],
			"name": "transferFrom",
			"outputs": [
				{
					"internalType": "bool",
					"name": "",
					"type": "bool"
				}
			],
			"stateMutability": "nonpayable",
			"type": "function"
		},
		{
			"inputs": [
				{
					"internalType": "address",
					"name": "newOwner",
					"type": "address"
				}
			],
			"name": "transferOwnership",
			"outputs": [],
			"stateMutability": "nonpayable",
			"type": "function"
		},
		{
			"inputs": [
				{
					"internalType": "bool",
					"name": "isTokenA",
					"type": "bool"
				},
				{
					"internalType": "uint256",
					"name": "amount",
					"type": "uint256"
				}
			],
			"name": "withdraw",
			"outputs": [],
			"stateMutability": "nonpayable",
			"type": "function"
		}
	]
}